{
	"contracts/kalyswap-core/GetInitHashCode.sol": {
		"GetInitHash": {
			"abi": [
				{
					"constant": true,
					"inputs": [],
					"name": "getInitHash",
					"outputs": [
						{
							"internalType": "bytes32",
							"name": "",
							"type": "bytes32"
						}
					],
					"payable": false,
					"stateMutability": "view",
					"type": "function"
				}
			],
			"devdoc": {
				"methods": {}
			},
			"evm": {
				"assembly": "    /* \"contracts/kalyswap-core/GetInitHashCode.sol\":88:294  contract GetInitHash {... */\n  mstore(0x40, 0x80)\n  callvalue\n    /* \"--CODEGEN--\":8:17   */\n  dup1\n    /* \"--CODEGEN--\":5:7   */\n  iszero\n  tag_1\n  jumpi\n    /* \"--CODEGEN--\":30:31   */\n  0x00\n    /* \"--CODEGEN--\":27:28   */\n  dup1\n    /* \"--CODEGEN--\":20:32   */\n  revert\n    /* \"--CODEGEN--\":5:7   */\ntag_1:\n    /* \"contracts/kalyswap-core/GetInitHashCode.sol\":88:294  contract GetInitHash {... */\n  pop\n  dataSize(sub_0)\n  dup1\n  dataOffset(sub_0)\n  0x00\n  codecopy\n  0x00\n  return\nstop\n\nsub_0: assembly {\n        /* \"contracts/kalyswap-core/GetInitHashCode.sol\":88:294  contract GetInitHash {... */\n      mstore(0x40, 0x80)\n      callvalue\n        /* \"--CODEGEN--\":8:17   */\n      dup1\n        /* \"--CODEGEN--\":5:7   */\n      iszero\n      tag_1\n      jumpi\n        /* \"--CODEGEN--\":30:31   */\n      0x00\n        /* \"--CODEGEN--\":27:28   */\n      dup1\n        /* \"--CODEGEN--\":20:32   */\n      revert\n        /* \"--CODEGEN--\":5:7   */\n    tag_1:\n        /* \"contracts/kalyswap-core/GetInitHashCode.sol\":88:294  contract GetInitHash {... */\n      pop\n      jumpi(tag_2, lt(calldatasize, 0x04))\n      shr(0xe0, calldataload(0x00))\n      dup1\n      0x3c9de1b8\n      eq\n      tag_3\n      jumpi\n    tag_2:\n      0x00\n      dup1\n      revert\n        /* \"contracts/kalyswap-core/GetInitHashCode.sol\":115:292  function getInitHash() public pure returns(bytes32){... */\n    tag_3:\n      tag_4\n      tag_5\n      jump\t// in\n    tag_4:\n      0x40\n      dup1\n      mload\n      swap2\n      dup3\n      mstore\n      mload\n      swap1\n      dup2\n      swap1\n      sub\n      0x20\n      add\n      swap1\n      return\n    tag_5:\n        /* \"contracts/kalyswap-core/GetInitHashCode.sol\":158:165  bytes32 */\n      0x00\n        /* \"contracts/kalyswap-core/GetInitHashCode.sol\":176:197  bytes memory bytecode */\n      0x60\n        /* \"contracts/kalyswap-core/GetInitHashCode.sol\":200:231  type(KalyswapPair).creationCode */\n      mload(0x40)\n      dup1\n      0x20\n      add\n      tag_7\n      swap1\n      tag_8\n      jump\t// in\n    tag_7:\n        /* \"--CODEGEN--\":41:45   */\n      0x20\n        /* \"--CODEGEN--\":34:39   */\n      dup3\n        /* \"--CODEGEN--\":30:46   */\n      add\n        /* \"--CODEGEN--\":25:28   */\n      dup2\n        /* \"--CODEGEN--\":21:47   */\n      sub\n        /* \"--CODEGEN--\":14:19   */\n      dup3\n        /* \"--CODEGEN--\":7:48   */\n      mstore\n        /* \"--CODEGEN--\":87:89   */\n      0x1f\n        /* \"--CODEGEN--\":83:90   */\n      not\n        /* \"--CODEGEN--\":78:80   */\n      0x1f\n        /* \"--CODEGEN--\":73:76   */\n      dup3\n        /* \"--CODEGEN--\":69:81   */\n      add\n        /* \"--CODEGEN--\":65:91   */\n      and\n        /* \"--CODEGEN--\":61:63   */\n      0x40\n        /* \"--CODEGEN--\":54:92   */\n      mstore\n        /* \"contracts/kalyswap-core/GetInitHashCode.sol\":200:231  type(KalyswapPair).creationCode */\n      pop\n        /* \"contracts/kalyswap-core/GetInitHashCode.sol\":176:231  bytes memory bytecode = type(KalyswapPair).creationCode */\n      swap1\n      pop\n        /* \"contracts/kalyswap-core/GetInitHashCode.sol\":275:283  bytecode */\n      dup1\n        /* \"contracts/kalyswap-core/GetInitHashCode.sol\":258:284  abi.encodePacked(bytecode) */\n      add(0x20, mload(0x40))\n      dup1\n      dup3\n      dup1\n      mload\n      swap1\n      0x20\n      add\n      swap1\n      dup1\n      dup4\n      dup4\n        /* \"--CODEGEN--\":36:189   */\n    tag_9:\n        /* \"--CODEGEN--\":66:68   */\n      0x20\n        /* \"--CODEGEN--\":61:64   */\n      dup4\n        /* \"--CODEGEN--\":58:69   */\n      lt\n        /* \"--CODEGEN--\":36:189   */\n      tag_11\n      jumpi\n        /* \"--CODEGEN--\":176:186   */\n      dup1\n      mload\n        /* \"--CODEGEN--\":164:187   */\n      dup3\n      mstore\n      not(0x1f)\n        /* \"--CODEGEN--\":139:151   */\n      swap1\n      swap3\n      add\n      swap2\n        /* \"--CODEGEN--\":98:100   */\n      0x20\n        /* \"--CODEGEN--\":89:101   */\n      swap2\n      dup3\n      add\n      swap2\n        /* \"--CODEGEN--\":114:126   */\n      add\n        /* \"--CODEGEN--\":36:189   */\n      jump(tag_9)\n    tag_11:\n        /* \"--CODEGEN--\":274:275   */\n      0x01\n        /* \"--CODEGEN--\":267:270   */\n      dup4\n        /* \"--CODEGEN--\":263:265   */\n      0x20\n        /* \"--CODEGEN--\":259:271   */\n      sub\n        /* \"--CODEGEN--\":254:257   */\n      0x0100\n        /* \"--CODEGEN--\":250:272   */\n      exp\n        /* \"--CODEGEN--\":246:276   */\n      sub\n        /* \"--CODEGEN--\":315:319   */\n      dup1\n        /* \"--CODEGEN--\":311:320   */\n      not\n        /* \"--CODEGEN--\":305:308   */\n      dup3\n        /* \"--CODEGEN--\":299:309   */\n      mload\n        /* \"--CODEGEN--\":295:321   */\n      and\n        /* \"--CODEGEN--\":356:360   */\n      dup2\n        /* \"--CODEGEN--\":350:353   */\n      dup5\n        /* \"--CODEGEN--\":344:354   */\n      mload\n        /* \"--CODEGEN--\":340:361   */\n      and\n        /* \"--CODEGEN--\":389:396   */\n      dup1\n        /* \"--CODEGEN--\":380:387   */\n      dup3\n        /* \"--CODEGEN--\":377:397   */\n      or\n        /* \"--CODEGEN--\":372:375   */\n      dup6\n        /* \"--CODEGEN--\":365:398   */\n      mstore\n        /* \"--CODEGEN--\":3:402   */\n      pop\n      pop\n      pop\n        /* \"contracts/kalyswap-core/GetInitHashCode.sol\":258:284  abi.encodePacked(bytecode) */\n      pop\n      pop\n      pop\n      swap1\n      pop\n      add\n      swap2\n      pop\n      pop\n      mload(0x40)\n        /* \"--CODEGEN--\":49:53   */\n      0x20\n        /* \"--CODEGEN--\":39:46   */\n      dup2\n        /* \"--CODEGEN--\":30:37   */\n      dup4\n        /* \"--CODEGEN--\":26:47   */\n      sub\n        /* \"--CODEGEN--\":22:54   */\n      sub\n        /* \"--CODEGEN--\":13:20   */\n      dup2\n        /* \"--CODEGEN--\":6:55   */\n      mstore\n        /* \"contracts/kalyswap-core/GetInitHashCode.sol\":258:284  abi.encodePacked(bytecode) */\n      swap1\n      0x40\n      mstore\n        /* \"contracts/kalyswap-core/GetInitHashCode.sol\":248:285  keccak256(abi.encodePacked(bytecode)) */\n      dup1\n      mload\n      swap1\n      0x20\n      add\n      keccak256\n        /* \"contracts/kalyswap-core/GetInitHashCode.sol\":241:285  return keccak256(abi.encodePacked(bytecode)) */\n      swap2\n      pop\n      pop\n        /* \"contracts/kalyswap-core/GetInitHashCode.sol\":115:292  function getInitHash() public pure returns(bytes32){... */\n      swap1\n      jump\t// out\n        /* \"contracts/kalyswap-core/GetInitHashCode.sol\":88:294  contract GetInitHash {... */\n    tag_8:\n      dataSize(sub_0)\n      dup1\n      dataOffset(sub_0)\n      dup4\n      codecopy\n      add\n      swap1\n      jump\t// out\n    stop\n\n    sub_0: assembly {\n            /* \"contracts/kalyswap-core/KalyswapPair.sol\":286:9766  contract KalyswapPair is IKalyswapPair, KalyswapERC20 {... */\n          mstore(0x40, 0x80)\n            /* \"contracts/kalyswap-core/KalyswapPair.sol\":1133:1134  1 */\n          0x01\n            /* \"contracts/kalyswap-core/KalyswapPair.sol\":1109:1134  uint private unlocked = 1 */\n          0x0c\n          sstore\n            /* \"contracts/kalyswap-core/KalyswapPair.sol\":2187:2245  constructor() public {... */\n          callvalue\n            /* \"--CODEGEN--\":8:17   */\n          dup1\n            /* \"--CODEGEN--\":5:7   */\n          iszero\n          tag_1\n          jumpi\n            /* \"--CODEGEN--\":30:31   */\n          0x00\n            /* \"--CODEGEN--\":27:28   */\n          dup1\n            /* \"--CODEGEN--\":20:32   */\n          revert\n            /* \"--CODEGEN--\":5:7   */\n        tag_1:\n          pop\n            /* \"contracts/kalyswap-core/KalyswapERC20.sol\":1104:1199  keccak256('EIP712Domain(string name,string version,uint256 chainId,address verifyingContract)') */\n          mload(0x40)\n            /* \"contracts/kalyswap-core/KalyswapERC20.sol\":1008:1015  chainid */\n          chainid\n          swap1\n            /* \"contracts/kalyswap-core/KalyswapERC20.sol\":1104:1199  keccak256('EIP712Domain(string name,string version,uint256 chainId,address verifyingContract)') */\n          dup1\n          0x52\n          data_8b73c3c69bb8fe3d512ecc4cf759cc79239f7b179b0ffacaa9a75d522b39400f\n          dup3\n          codecopy\n          0x40\n          dup1\n          mload\n          swap2\n          dup3\n          swap1\n          sub\n          0x52\n          add\n          dup3\n          keccak256\n            /* \"contracts/kalyswap-core/KalyswapERC20.sol\":1233:1237  name */\n          dup3\n          dup3\n          add\n          dup3\n          mstore\n          0x12\n          dup4\n          mstore\n          shl(0x70, 0x4b616c7973776170204c6971756964697479)\n          0x20\n          swap4\n          dup5\n          add\n          mstore\n            /* \"contracts/kalyswap-core/KalyswapERC20.sol\":1267:1277  bytes('1') */\n          dup2\n          mload\n          dup1\n          dup4\n          add\n          dup4\n          mstore\n          0x01\n          dup2\n          mstore\n          shl(0xf8, 0x31)\n          swap1\n          dup5\n          add\n          mstore\n            /* \"contracts/kalyswap-core/KalyswapERC20.sol\":1076:1348  abi.encode(... */\n          dup2\n          mload\n          dup1\n          dup5\n          add\n          swap2\n          swap1\n          swap2\n          mstore\n            /* \"contracts/kalyswap-core/KalyswapERC20.sol\":1217:1239  keccak256(bytes(name)) */\n          0xd962d480548cea2d6ee7e34d119800d6b46dee603ed4fe4f1382f1d6ff280ab0\n            /* \"contracts/kalyswap-core/KalyswapERC20.sol\":1076:1348  abi.encode(... */\n          dup2\n          dup4\n          add\n          mstore\n            /* \"contracts/kalyswap-core/KalyswapERC20.sol\":1257:1278  keccak256(bytes('1')) */\n          0xc89efdaa54c0f20c7adf612882df0950f5a951637e0307cdcb4c672f298b8bc6\n            /* \"contracts/kalyswap-core/KalyswapERC20.sol\":1076:1348  abi.encode(... */\n          0x60\n          dup3\n          add\n          mstore\n          0x80\n          dup2\n          add\n          swap5\n          swap1\n          swap5\n          mstore\n            /* \"contracts/kalyswap-core/KalyswapERC20.sol\":1329:1333  this */\n          address\n            /* \"contracts/kalyswap-core/KalyswapERC20.sol\":1076:1348  abi.encode(... */\n          0xa0\n          dup1\n          dup7\n          add\n          swap2\n          swap1\n          swap2\n          mstore\n          dup2\n          mload\n            /* \"--CODEGEN--\":26:47   */\n          dup1\n          dup7\n          sub\n            /* \"--CODEGEN--\":22:54   */\n          swap1\n          swap2\n          add\n            /* \"--CODEGEN--\":6:55   */\n          dup2\n          mstore\n            /* \"contracts/kalyswap-core/KalyswapERC20.sol\":1076:1348  abi.encode(... */\n          0xc0\n          swap1\n          swap5\n          add\n          swap1\n          mstore\n            /* \"contracts/kalyswap-core/KalyswapERC20.sol\":1053:1358  keccak256(... */\n          dup3\n          mload\n          swap3\n          add\n          swap2\n          swap1\n          swap2\n          keccak256\n            /* \"contracts/kalyswap-core/KalyswapERC20.sol\":1034:1050  DOMAIN_SEPARATOR */\n          0x03\n            /* \"contracts/kalyswap-core/KalyswapERC20.sol\":1034:1358  DOMAIN_SEPARATOR = keccak256(... */\n          sstore\n          pop\n            /* \"contracts/kalyswap-core/KalyswapPair.sol\":2218:2225  factory */\n          0x05\n            /* \"contracts/kalyswap-core/KalyswapPair.sol\":2218:2238  factory = msg.sender */\n          dup1\n          sload\n          not(sub(shl(0xa0, 0x01), 0x01))\n          and\n            /* \"contracts/kalyswap-core/KalyswapPair.sol\":2228:2238  msg.sender */\n          caller\n            /* \"contracts/kalyswap-core/KalyswapPair.sol\":2218:2238  factory = msg.sender */\n          or\n          swap1\n          sstore\n          0x226d\n          dup1\n            /* \"contracts/kalyswap-core/KalyswapPair.sol\":286:9766  contract KalyswapPair is IKalyswapPair, KalyswapERC20 {... */\n          dataOffset(sub_0)\n          0x00\n          codecopy\n          0x00\n          return\n        stop\n        data_8b73c3c69bb8fe3d512ecc4cf759cc79239f7b179b0ffacaa9a75d522b39400f 454950373132446f6d61696e28737472696e67206e616d652c737472696e672076657273696f6e2c75696e7432353620636861696e49642c6164647265737320766572696679696e67436f6e747261637429\n\n        sub_0: assembly {\n                /* \"contracts/kalyswap-core/KalyswapPair.sol\":286:9766  contract KalyswapPair is IKalyswapPair, KalyswapERC20 {... */\n              mstore(0x40, 0x80)\n              callvalue\n                /* \"--CODEGEN--\":8:17   */\n              dup1\n                /* \"--CODEGEN--\":5:7   */\n              iszero\n              tag_1\n              jumpi\n                /* \"--CODEGEN--\":30:31   */\n              0x00\n                /* \"--CODEGEN--\":27:28   */\n              dup1\n                /* \"--CODEGEN--\":20:32   */\n              revert\n                /* \"--CODEGEN--\":5:7   */\n            tag_1:\n                /* \"contracts/kalyswap-core/KalyswapPair.sol\":286:9766  contract KalyswapPair is IKalyswapPair, KalyswapERC20 {... */\n              pop\n              jumpi(tag_2, lt(calldatasize, 0x04))\n              shr(0xe0, calldataload(0x00))\n              dup1\n              0x6a627842\n              gt\n              tag_30\n              jumpi\n              dup1\n              0xba9a7a56\n              gt\n              tag_31\n              jumpi\n              dup1\n              0xd21220a7\n              gt\n              tag_32\n              jumpi\n              dup1\n              0xd21220a7\n              eq\n              tag_26\n              jumpi\n              dup1\n              0xd505accf\n              eq\n              tag_27\n              jumpi\n              dup1\n              0xdd62ed3e\n              eq\n              tag_28\n              jumpi\n              dup1\n              0xfff6cae9\n              eq\n              tag_29\n              jumpi\n              jump(tag_2)\n            tag_32:\n              dup1\n              0xba9a7a56\n              eq\n              tag_23\n              jumpi\n              dup1\n              0xbc25cf77\n              eq\n              tag_24\n              jumpi\n              dup1\n              0xc45a0155\n              eq\n              tag_25\n              jumpi\n              jump(tag_2)\n            tag_31:\n              dup1\n              0x7ecebe00\n              gt\n              tag_33\n              jumpi\n              dup1\n              0x7ecebe00\n              eq\n              tag_19\n              jumpi\n              dup1\n              0x89afcb44\n              eq\n              tag_20\n              jumpi\n              dup1\n              0x95d89b41\n              eq\n              tag_21\n              jumpi\n              dup1\n              0xa9059cbb\n              eq\n              tag_22\n              jumpi\n              jump(tag_2)\n            tag_33:\n              dup1\n              0x6a627842\n              eq\n              tag_16\n              jumpi\n              dup1\n              0x70a08231\n              eq\n              tag_17\n              jumpi\n              dup1\n              0x7464fc3d\n              eq\n              tag_18\n              jumpi\n              jump(tag_2)\n            tag_30:\n              dup1\n              0x23b872dd\n              gt\n              tag_34\n              jumpi\n              dup1\n              0x3644e515\n              gt\n              tag_35\n              jumpi\n              dup1\n              0x3644e515\n              eq\n              tag_12\n              jumpi\n              dup1\n              0x485cc955\n              eq\n              tag_13\n              jumpi\n              dup1\n              0x5909c0d5\n              eq\n              tag_14\n              jumpi\n              dup1\n              0x5a3d5493\n              eq\n              tag_15\n              jumpi\n              jump(tag_2)\n            tag_35:\n              dup1\n              0x23b872dd\n              eq\n              tag_9\n              jumpi\n              dup1\n              0x30adf81f\n              eq\n              tag_10\n              jumpi\n              dup1\n              0x313ce567\n              eq\n              tag_11\n              jumpi\n              jump(tag_2)\n            tag_34:\n              dup1\n              0x022c0d9f\n              eq\n              tag_3\n              jumpi\n              dup1\n              0x06fdde03\n              eq\n              tag_4\n              jumpi\n              dup1\n              0x0902f1ac\n              eq\n              tag_5\n              jumpi\n              dup1\n              0x095ea7b3\n              eq\n              tag_6\n              jumpi\n              dup1\n              0x0dfe1681\n              eq\n              tag_7\n              jumpi\n              dup1\n              0x18160ddd\n              eq\n              tag_8\n              jumpi\n            tag_2:\n              0x00\n              dup1\n              revert\n                /* \"contracts/kalyswap-core/KalyswapPair.sol\":7333:9187  function swap(uint amount0Out, uint amount1Out, address to, bytes calldata data) external lock {... */\n            tag_3:\n              tag_36\n              0x04\n              dup1\n              calldatasize\n              sub\n                /* \"--CODEGEN--\":13:16   */\n              0x80\n                /* \"--CODEGEN--\":8:11   */\n              dup2\n                /* \"--CODEGEN--\":5:17   */\n              lt\n                /* \"--CODEGEN--\":2:4   */\n              iszero\n              tag_37\n              jumpi\n                /* \"--CODEGEN--\":30:31   */\n              0x00\n                /* \"--CODEGEN--\":27:28   */\n              dup1\n                /* \"--CODEGEN--\":20:32   */\n              revert\n                /* \"--CODEGEN--\":2:4   */\n            tag_37:\n                /* \"contracts/kalyswap-core/KalyswapPair.sol\":7333:9187  function swap(uint amount0Out, uint amount1Out, address to, bytes calldata data) external lock {... */\n              dup2\n              calldataload\n              swap2\n              0x20\n              dup2\n              add\n              calldataload\n              swap2\n              0x40\n              dup3\n              add\n              calldataload\n              sub(shl(0xa0, 0x01), 0x01)\n              and\n              swap2\n              swap1\n              dup2\n              add\n              swap1\n              0x80\n              dup2\n              add\n              0x60\n              dup3\n              add\n              calldataload\n                /* \"--CODEGEN--\":21:32   */\n              0x0100000000\n                /* \"--CODEGEN--\":5:33   */\n              dup2\n              gt\n                /* \"--CODEGEN--\":2:4   */\n              iszero\n              tag_38\n              jumpi\n                /* \"--CODEGEN--\":46:47   */\n              0x00\n                /* \"--CODEGEN--\":43:44   */\n              dup1\n                /* \"--CODEGEN--\":36:48   */\n              revert\n                /* \"--CODEGEN--\":2:4   */\n            tag_38:\n                /* \"contracts/kalyswap-core/KalyswapPair.sol\":7333:9187  function swap(uint amount0Out, uint amount1Out, address to, bytes calldata data) external lock {... */\n              dup3\n              add\n                /* \"--CODEGEN--\":35:44   */\n              dup4\n                /* \"--CODEGEN--\":28:32   */\n              0x20\n                /* \"--CODEGEN--\":12:26   */\n              dup3\n                /* \"--CODEGEN--\":8:33   */\n              add\n                /* \"--CODEGEN--\":5:45   */\n              gt\n                /* \"--CODEGEN--\":2:4   */\n              iszero\n              tag_39\n              jumpi\n                /* \"--CODEGEN--\":58:59   */\n              0x00\n                /* \"--CODEGEN--\":55:56   */\n              dup1\n                /* \"--CODEGEN--\":48:60   */\n              revert\n                /* \"--CODEGEN--\":2:4   */\n            tag_39:\n                /* \"contracts/kalyswap-core/KalyswapPair.sol\":7333:9187  function swap(uint amount0Out, uint amount1Out, address to, bytes calldata data) external lock {... */\n              dup1\n              calldataload\n              swap1\n              0x20\n              add\n              swap2\n                /* \"--CODEGEN--\":100:109   */\n              dup5\n                /* \"--CODEGEN--\":95:96   */\n              0x01\n                /* \"--CODEGEN--\":81:93   */\n              dup4\n                /* \"--CODEGEN--\":77:97   */\n              mul\n                /* \"--CODEGEN--\":67:75   */\n              dup5\n                /* \"--CODEGEN--\":63:98   */\n              add\n                /* \"--CODEGEN--\":60:110   */\n              gt\n                /* \"--CODEGEN--\":39:50   */\n              0x0100000000\n                /* \"--CODEGEN--\":25:37   */\n              dup4\n                /* \"--CODEGEN--\":22:51   */\n              gt\n                /* \"--CODEGEN--\":11:118   */\n              or\n                /* \"--CODEGEN--\":8:10   */\n              iszero\n              tag_40\n              jumpi\n                /* \"--CODEGEN--\":131:132   */\n              0x00\n                /* \"--CODEGEN--\":128:129   */\n              dup1\n                /* \"--CODEGEN--\":121:133   */\n              revert\n                /* \"--CODEGEN--\":8:10   */\n            tag_40:\n              pop\n                /* \"contracts/kalyswap-core/KalyswapPair.sol\":7333:9187  function swap(uint amount0Out, uint amount1Out, address to, bytes calldata data) external lock {... */\n              swap1\n              swap3\n              pop\n              swap1\n              pop\n              tag_41\n              jump\t// in\n            tag_36:\n              stop\n                /* \"contracts/kalyswap-core/KalyswapERC20.sol\":181:231  string public constant name = 'Kalyswap Liquidity' */\n            tag_4:\n              tag_42\n              tag_43\n              jump\t// in\n            tag_42:\n              0x40\n              dup1\n              mload\n              0x20\n              dup1\n              dup3\n              mstore\n              dup4\n              mload\n              dup2\n              dup4\n              add\n              mstore\n              dup4\n              mload\n              swap2\n              swap3\n              dup4\n              swap3\n              swap1\n              dup4\n              add\n              swap2\n              dup6\n              add\n              swap1\n              dup1\n              dup4\n              dup4\n              0x00\n                /* \"--CODEGEN--\":8:108   */\n            tag_44:\n                /* \"--CODEGEN--\":33:36   */\n              dup4\n                /* \"--CODEGEN--\":30:31   */\n              dup2\n                /* \"--CODEGEN--\":27:37   */\n              lt\n                /* \"--CODEGEN--\":8:108   */\n              iszero\n              tag_46\n              jumpi\n                /* \"--CODEGEN--\":90:101   */\n              dup2\n              dup2\n              add\n                /* \"--CODEGEN--\":84:102   */\n              mload\n                /* \"--CODEGEN--\":71:82   */\n              dup4\n              dup3\n              add\n                /* \"--CODEGEN--\":64:103   */\n              mstore\n                /* \"--CODEGEN--\":52:54   */\n              0x20\n                /* \"--CODEGEN--\":45:55   */\n              add\n                /* \"--CODEGEN--\":8:108   */\n              jump(tag_44)\n            tag_46:\n                /* \"--CODEGEN--\":12:26   */\n              pop\n                /* \"contracts/kalyswap-core/KalyswapERC20.sol\":181:231  string public constant name = 'Kalyswap Liquidity' */\n              pop\n              pop\n              pop\n              swap1\n              pop\n              swap1\n              dup2\n              add\n              swap1\n              0x1f\n              and\n              dup1\n              iszero\n              tag_47\n              jumpi\n              dup1\n              dup3\n              sub\n              dup1\n              mload\n              0x01\n              dup4\n              0x20\n              sub\n              0x0100\n              exp\n              sub\n              not\n              and\n              dup2\n              mstore\n              0x20\n              add\n              swap2\n              pop\n            tag_47:\n              pop\n              swap3\n              pop\n              pop\n              pop\n              mload(0x40)\n              dup1\n              swap2\n              sub\n              swap1\n              return\n                /* \"contracts/kalyswap-core/KalyswapPair.sol\":1276:1503  function getReserves() public view returns (uint112 _reserve0, uint112 _reserve1, uint32 _blockTimestampLast) {... */\n            tag_5:\n              tag_48\n              tag_49\n              jump\t// in\n            tag_48:\n              0x40\n              dup1\n              mload\n              sub(shl(0x70, 0x01), 0x01)\n              swap5\n              dup6\n              and\n              dup2\n              mstore\n              swap3\n              swap1\n              swap4\n              and\n              0x20\n              dup4\n              add\n              mstore\n              0xffffffff\n              and\n              dup2\n              dup4\n              add\n              mstore\n              swap1\n              mload\n              swap1\n              dup2\n              swap1\n              sub\n              0x60\n              add\n              swap1\n              return\n                /* \"contracts/kalyswap-core/KalyswapERC20.sol\":2179:2323  function approve(address spender, uint value) external returns (bool) {... */\n            tag_6:\n              tag_50\n              0x04\n              dup1\n              calldatasize\n              sub\n                /* \"--CODEGEN--\":13:15   */\n              0x40\n                /* \"--CODEGEN--\":8:11   */\n              dup2\n                /* \"--CODEGEN--\":5:16   */\n              lt\n                /* \"--CODEGEN--\":2:4   */\n              iszero\n              tag_51\n              jumpi\n                /* \"--CODEGEN--\":29:30   */\n              0x00\n                /* \"--CODEGEN--\":26:27   */\n              dup1\n                /* \"--CODEGEN--\":19:31   */\n              revert\n                /* \"--CODEGEN--\":2:4   */\n            tag_51:\n              pop\n                /* \"contracts/kalyswap-core/KalyswapERC20.sol\":2179:2323  function approve(address spender, uint value) external returns (bool) {... */\n              dup1\n              calldataload\n              sub(shl(0xa0, 0x01), 0x01)\n              and\n              swap1\n              0x20\n              add\n              calldataload\n              tag_52\n              jump\t// in\n            tag_50:\n              0x40\n              dup1\n              mload\n              swap2\n              iszero\n              iszero\n              dup3\n              mstore\n              mload\n              swap1\n              dup2\n              swap1\n              sub\n              0x20\n              add\n              swap1\n              return\n                /* \"contracts/kalyswap-core/KalyswapPair.sol\":585:606  address public token0 */\n            tag_7:\n              tag_53\n              tag_54\n              jump\t// in\n            tag_53:\n              0x40\n              dup1\n              mload\n              0x01\n              dup1\n              0xa0\n              shl\n              sub\n              swap1\n              swap3\n              and\n              dup3\n              mstore\n              mload\n              swap1\n              dup2\n              swap1\n              sub\n              0x20\n              add\n              swap1\n              return\n                /* \"contracts/kalyswap-core/KalyswapERC20.sol\":321:345  uint  public totalSupply */\n            tag_8:\n              tag_55\n              tag_56\n              jump\t// in\n            tag_55:\n              0x40\n              dup1\n              mload\n              swap2\n              dup3\n              mstore\n              mload\n              swap1\n              dup2\n              swap1\n              sub\n              0x20\n              add\n              swap1\n              return\n                /* \"contracts/kalyswap-core/KalyswapERC20.sol\":2471:2766  function transferFrom(address from, address to, uint value) external returns (bool) {... */\n            tag_9:\n              tag_50\n              0x04\n              dup1\n              calldatasize\n              sub\n                /* \"--CODEGEN--\":13:15   */\n              0x60\n                /* \"--CODEGEN--\":8:11   */\n              dup2\n                /* \"--CODEGEN--\":5:16   */\n              lt\n                /* \"--CODEGEN--\":2:4   */\n              iszero\n              tag_58\n              jumpi\n                /* \"--CODEGEN--\":29:30   */\n              0x00\n                /* \"--CODEGEN--\":26:27   */\n              dup1\n                /* \"--CODEGEN--\":19:31   */\n              revert\n                /* \"--CODEGEN--\":2:4   */\n            tag_58:\n              pop\n              sub(shl(0xa0, 0x01), 0x01)\n                /* \"contracts/kalyswap-core/KalyswapERC20.sol\":2471:2766  function transferFrom(address from, address to, uint value) external returns (bool) {... */\n              dup2\n              calldataload\n              dup2\n              and\n              swap2\n              0x20\n              dup2\n              add\n              calldataload\n              swap1\n              swap2\n              and\n              swap1\n              0x40\n              add\n              calldataload\n              tag_59\n              jump\t// in\n                /* \"contracts/kalyswap-core/KalyswapERC20.sol\":607:715  bytes32 public constant PERMIT_TYPEHASH = 0x6e71edae12b1b97f4d1f60370fef10105fa2faae0126114a169c64845d6126c9 */\n            tag_10:\n              tag_55\n              tag_61\n              jump\t// in\n                /* \"contracts/kalyswap-core/KalyswapERC20.sol\":280:315  uint8 public constant decimals = 18 */\n            tag_11:\n              tag_62\n              tag_63\n              jump\t// in\n            tag_62:\n              0x40\n              dup1\n              mload\n              0xff\n              swap1\n              swap3\n              and\n              dup3\n              mstore\n              mload\n              swap1\n              dup2\n              swap1\n              sub\n              0x20\n              add\n              swap1\n              return\n                /* \"contracts/kalyswap-core/KalyswapERC20.sol\":466:497  bytes32 public DOMAIN_SEPARATOR */\n            tag_12:\n              tag_55\n              tag_65\n              jump\t// in\n                /* \"contracts/kalyswap-core/KalyswapPair.sol\":2307:2512  function initialize(address _token0, address _token1) external {... */\n            tag_13:\n              tag_36\n              0x04\n              dup1\n              calldatasize\n              sub\n                /* \"--CODEGEN--\":13:15   */\n              0x40\n                /* \"--CODEGEN--\":8:11   */\n              dup2\n                /* \"--CODEGEN--\":5:16   */\n              lt\n                /* \"--CODEGEN--\":2:4   */\n              iszero\n              tag_67\n              jumpi\n                /* \"--CODEGEN--\":29:30   */\n              0x00\n                /* \"--CODEGEN--\":26:27   */\n              dup1\n                /* \"--CODEGEN--\":19:31   */\n              revert\n                /* \"--CODEGEN--\":2:4   */\n            tag_67:\n              pop\n              sub(shl(0xa0, 0x01), 0x01)\n                /* \"contracts/kalyswap-core/KalyswapPair.sol\":2307:2512  function initialize(address _token0, address _token1) external {... */\n              dup2\n              calldataload\n              dup2\n              and\n              swap2\n              0x20\n              add\n              calldataload\n              and\n              tag_68\n              jump\t// in\n                /* \"contracts/kalyswap-core/KalyswapPair.sol\":929:961  uint public price0CumulativeLast */\n            tag_14:\n              tag_55\n              tag_70\n              jump\t// in\n                /* \"contracts/kalyswap-core/KalyswapPair.sol\":967:999  uint public price1CumulativeLast */\n            tag_15:\n              tag_55\n              tag_72\n              jump\t// in\n                /* \"contracts/kalyswap-core/KalyswapPair.sol\":4454:5672  function mint(address to) external lock returns (uint liquidity) {... */\n            tag_16:\n              tag_55\n              0x04\n              dup1\n              calldatasize\n              sub\n                /* \"--CODEGEN--\":13:15   */\n              0x20\n                /* \"--CODEGEN--\":8:11   */\n              dup2\n                /* \"--CODEGEN--\":5:16   */\n              lt\n                /* \"--CODEGEN--\":2:4   */\n              iszero\n              tag_74\n              jumpi\n                /* \"--CODEGEN--\":29:30   */\n              0x00\n                /* \"--CODEGEN--\":26:27   */\n              dup1\n                /* \"--CODEGEN--\":19:31   */\n              revert\n                /* \"--CODEGEN--\":2:4   */\n            tag_74:\n              pop\n                /* \"contracts/kalyswap-core/KalyswapPair.sol\":4454:5672  function mint(address to) external lock returns (uint liquidity) {... */\n              calldataload\n              sub(shl(0xa0, 0x01), 0x01)\n              and\n              tag_75\n              jump\t// in\n                /* \"contracts/kalyswap-core/KalyswapERC20.sol\":351:392  mapping(address => uint) public balanceOf */\n            tag_17:\n              tag_55\n              0x04\n              dup1\n              calldatasize\n              sub\n                /* \"--CODEGEN--\":13:15   */\n              0x20\n                /* \"--CODEGEN--\":8:11   */\n              dup2\n                /* \"--CODEGEN--\":5:16   */\n              lt\n                /* \"--CODEGEN--\":2:4   */\n              iszero\n              tag_77\n              jumpi\n                /* \"--CODEGEN--\":29:30   */\n              0x00\n                /* \"--CODEGEN--\":26:27   */\n              dup1\n                /* \"--CODEGEN--\":19:31   */\n              revert\n                /* \"--CODEGEN--\":2:4   */\n            tag_77:\n              pop\n                /* \"contracts/kalyswap-core/KalyswapERC20.sol\":351:392  mapping(address => uint) public balanceOf */\n              calldataload\n              sub(shl(0xa0, 0x01), 0x01)\n              and\n              tag_78\n              jump\t// in\n                /* \"contracts/kalyswap-core/KalyswapPair.sol\":1005:1022  uint public kLast */\n            tag_18:\n              tag_55\n              tag_80\n              jump\t// in\n                /* \"contracts/kalyswap-core/KalyswapERC20.sol\":721:759  mapping(address => uint) public nonces */\n            tag_19:\n              tag_55\n              0x04\n              dup1\n              calldatasize\n              sub\n                /* \"--CODEGEN--\":13:15   */\n              0x20\n                /* \"--CODEGEN--\":8:11   */\n              dup2\n                /* \"--CODEGEN--\":5:16   */\n              lt\n                /* \"--CODEGEN--\":2:4   */\n              iszero\n              tag_82\n              jumpi\n                /* \"--CODEGEN--\":29:30   */\n              0x00\n                /* \"--CODEGEN--\":26:27   */\n              dup1\n                /* \"--CODEGEN--\":19:31   */\n              revert\n                /* \"--CODEGEN--\":2:4   */\n            tag_82:\n              pop\n                /* \"contracts/kalyswap-core/KalyswapERC20.sol\":721:759  mapping(address => uint) public nonces */\n              calldataload\n              sub(shl(0xa0, 0x01), 0x01)\n              and\n              tag_83\n              jump\t// in\n                /* \"contracts/kalyswap-core/KalyswapPair.sol\":5781:7224  function burn(address to) external lock returns (uint amount0, uint amount1) {... */\n            tag_20:\n              tag_84\n              0x04\n              dup1\n              calldatasize\n              sub\n                /* \"--CODEGEN--\":13:15   */\n              0x20\n                /* \"--CODEGEN--\":8:11   */\n              dup2\n                /* \"--CODEGEN--\":5:16   */\n              lt\n                /* \"--CODEGEN--\":2:4   */\n              iszero\n              tag_85\n              jumpi\n                /* \"--CODEGEN--\":29:30   */\n              0x00\n                /* \"--CODEGEN--\":26:27   */\n              dup1\n                /* \"--CODEGEN--\":19:31   */\n              revert\n                /* \"--CODEGEN--\":2:4   */\n            tag_85:\n              pop\n                /* \"contracts/kalyswap-core/KalyswapPair.sol\":5781:7224  function burn(address to) external lock returns (uint amount0, uint amount1) {... */\n              calldataload\n              sub(shl(0xa0, 0x01), 0x01)\n              and\n              tag_86\n              jump\t// in\n            tag_84:\n              0x40\n              dup1\n              mload\n              swap3\n              dup4\n              mstore\n              0x20\n              dup4\n              add\n              swap2\n              swap1\n              swap2\n              mstore\n              dup1\n              mload\n              swap2\n              dup3\n              swap1\n              sub\n              add\n              swap1\n              return\n                /* \"contracts/kalyswap-core/KalyswapERC20.sol\":237:274  string public constant symbol = 'KSL' */\n            tag_21:\n              tag_42\n              tag_88\n              jump\t// in\n                /* \"contracts/kalyswap-core/KalyswapERC20.sol\":2329:2465  function transfer(address to, uint value) external returns (bool) {... */\n            tag_22:\n              tag_50\n              0x04\n              dup1\n              calldatasize\n              sub\n                /* \"--CODEGEN--\":13:15   */\n              0x40\n                /* \"--CODEGEN--\":8:11   */\n              dup2\n                /* \"--CODEGEN--\":5:16   */\n              lt\n                /* \"--CODEGEN--\":2:4   */\n              iszero\n              tag_94\n              jumpi\n                /* \"--CODEGEN--\":29:30   */\n              0x00\n                /* \"--CODEGEN--\":26:27   */\n              dup1\n                /* \"--CODEGEN--\":19:31   */\n              revert\n                /* \"--CODEGEN--\":2:4   */\n            tag_94:\n              pop\n                /* \"contracts/kalyswap-core/KalyswapERC20.sol\":2329:2465  function transfer(address to, uint value) external returns (bool) {... */\n              dup1\n              calldataload\n              sub(shl(0xa0, 0x01), 0x01)\n              and\n              swap1\n              0x20\n              add\n              calldataload\n              tag_95\n              jump\t// in\n                /* \"contracts/kalyswap-core/KalyswapPair.sol\":410:456  uint public constant MINIMUM_LIQUIDITY = 10**3 */\n            tag_23:\n              tag_55\n              tag_97\n              jump\t// in\n                /* \"contracts/kalyswap-core/KalyswapPair.sol\":9233:9562  function skim(address to) external lock {... */\n            tag_24:\n              tag_36\n              0x04\n              dup1\n              calldatasize\n              sub\n                /* \"--CODEGEN--\":13:15   */\n              0x20\n                /* \"--CODEGEN--\":8:11   */\n              dup2\n                /* \"--CODEGEN--\":5:16   */\n              lt\n                /* \"--CODEGEN--\":2:4   */\n              iszero\n              tag_99\n              jumpi\n                /* \"--CODEGEN--\":29:30   */\n              0x00\n                /* \"--CODEGEN--\":26:27   */\n              dup1\n                /* \"--CODEGEN--\":19:31   */\n              revert\n                /* \"--CODEGEN--\":2:4   */\n            tag_99:\n              pop\n                /* \"contracts/kalyswap-core/KalyswapPair.sol\":9233:9562  function skim(address to) external lock {... */\n              calldataload\n              sub(shl(0xa0, 0x01), 0x01)\n              and\n              tag_100\n              jump\t// in\n                /* \"contracts/kalyswap-core/KalyswapPair.sol\":557:579  address public factory */\n            tag_25:\n              tag_53\n              tag_102\n              jump\t// in\n                /* \"contracts/kalyswap-core/KalyswapPair.sol\":612:633  address public token1 */\n            tag_26:\n              tag_53\n              tag_104\n              jump\t// in\n                /* \"contracts/kalyswap-core/KalyswapERC20.sol\":2772:3432  function permit(address owner, address spender, uint value, uint deadline, uint8 v, bytes32 r, bytes32 s) external {... */\n            tag_27:\n              tag_36\n              0x04\n              dup1\n              calldatasize\n              sub\n                /* \"--CODEGEN--\":13:16   */\n              0xe0\n                /* \"--CODEGEN--\":8:11   */\n              dup2\n                /* \"--CODEGEN--\":5:17   */\n              lt\n                /* \"--CODEGEN--\":2:4   */\n              iszero\n              tag_106\n              jumpi\n                /* \"--CODEGEN--\":30:31   */\n              0x00\n                /* \"--CODEGEN--\":27:28   */\n              dup1\n                /* \"--CODEGEN--\":20:32   */\n              revert\n                /* \"--CODEGEN--\":2:4   */\n            tag_106:\n              pop\n              sub(shl(0xa0, 0x01), 0x01)\n                /* \"contracts/kalyswap-core/KalyswapERC20.sol\":2772:3432  function permit(address owner, address spender, uint value, uint deadline, uint8 v, bytes32 r, bytes32 s) external {... */\n              dup2\n              calldataload\n              dup2\n              and\n              swap2\n              0x20\n              dup2\n              add\n              calldataload\n              swap1\n              swap2\n              and\n              swap1\n              0x40\n              dup2\n              add\n              calldataload\n              swap1\n              0x60\n              dup2\n              add\n              calldataload\n              swap1\n              0xff\n              0x80\n              dup3\n              add\n              calldataload\n              and\n              swap1\n              0xa0\n              dup2\n              add\n              calldataload\n              swap1\n              0xc0\n              add\n              calldataload\n              tag_107\n              jump\t// in\n                /* \"contracts/kalyswap-core/KalyswapERC20.sol\":398:459  mapping(address => mapping(address => uint)) public allowance */\n            tag_28:\n              tag_55\n              0x04\n              dup1\n              calldatasize\n              sub\n                /* \"--CODEGEN--\":13:15   */\n              0x40\n                /* \"--CODEGEN--\":8:11   */\n              dup2\n                /* \"--CODEGEN--\":5:16   */\n              lt\n                /* \"--CODEGEN--\":2:4   */\n              iszero\n              tag_109\n              jumpi\n                /* \"--CODEGEN--\":29:30   */\n              0x00\n                /* \"--CODEGEN--\":26:27   */\n              dup1\n                /* \"--CODEGEN--\":19:31   */\n              revert\n                /* \"--CODEGEN--\":2:4   */\n            tag_109:\n              pop\n              sub(shl(0xa0, 0x01), 0x01)\n                /* \"contracts/kalyswap-core/KalyswapERC20.sol\":398:459  mapping(address => mapping(address => uint)) public allowance */\n              dup2\n              calldataload\n              dup2\n              and\n              swap2\n              0x20\n              add\n              calldataload\n              and\n              tag_110\n              jump\t// in\n                /* \"contracts/kalyswap-core/KalyswapPair.sol\":9608:9764  function sync() external lock {... */\n            tag_29:\n              tag_36\n              tag_112\n              jump\t// in\n                /* \"contracts/kalyswap-core/KalyswapPair.sol\":7333:9187  function swap(uint amount0Out, uint amount1Out, address to, bytes calldata data) external lock {... */\n            tag_41:\n                /* \"contracts/kalyswap-core/KalyswapPair.sol\":1174:1182  unlocked */\n              sload(0x0c)\n                /* \"contracts/kalyswap-core/KalyswapPair.sol\":1186:1187  1 */\n              0x01\n                /* \"contracts/kalyswap-core/KalyswapPair.sol\":1174:1187  unlocked == 1 */\n              eq\n                /* \"contracts/kalyswap-core/KalyswapPair.sol\":1166:1208  require(unlocked == 1, 'Kalyswap: LOCKED') */\n              tag_114\n              jumpi\n              0x40\n              dup1\n              mload\n              shl(0xe5, 0x461bcd)\n              dup2\n              mstore\n              0x20\n              0x04\n              dup3\n              add\n              mstore\n              0x10\n              0x24\n              dup3\n              add\n              mstore\n              shl(0x82, 0x12d85b1e5cddd85c0e881313d0d2d151)\n              0x44\n              dup3\n              add\n              mstore\n              swap1\n              mload\n              swap1\n              dup2\n              swap1\n              sub\n              0x64\n              add\n              swap1\n              revert\n            tag_114:\n                /* \"contracts/kalyswap-core/KalyswapPair.sol\":1229:1230  0 */\n              0x00\n                /* \"contracts/kalyswap-core/KalyswapPair.sol\":1218:1226  unlocked */\n              0x0c\n                /* \"contracts/kalyswap-core/KalyswapPair.sol\":1218:1230  unlocked = 0 */\n              sstore\n                /* \"contracts/kalyswap-core/KalyswapPair.sol\":7446:7460  amount0Out > 0 */\n              dup5\n              iszero\n              iszero\n              dup1\n                /* \"contracts/kalyswap-core/KalyswapPair.sol\":7446:7478  amount0Out > 0 || amount1Out > 0 */\n              tag_116\n              jumpi\n              pop\n                /* \"contracts/kalyswap-core/KalyswapPair.sol\":7477:7478  0 */\n              0x00\n                /* \"contracts/kalyswap-core/KalyswapPair.sol\":7464:7474  amount1Out */\n              dup5\n                /* \"contracts/kalyswap-core/KalyswapPair.sol\":7464:7478  amount1Out > 0 */\n              gt\n                /* \"contracts/kalyswap-core/KalyswapPair.sol\":7446:7478  amount0Out > 0 || amount1Out > 0 */\n            tag_116:\n                /* \"contracts/kalyswap-core/KalyswapPair.sol\":7438:7519  require(amount0Out > 0 || amount1Out > 0, 'Kalyswap: INSUFFICIENT_OUTPUT_AMOUNT') */\n              tag_117\n              jumpi\n              mload(0x40)\n              shl(0xe5, 0x461bcd)\n              dup2\n              mstore\n              0x04\n              add\n              dup1\n              dup1\n              0x20\n              add\n              dup3\n              dup2\n              sub\n              dup3\n              mstore\n              0x24\n              dup2\n              mstore\n              0x20\n              add\n              dup1\n              data_155e26636215cc7cf33a9201a8bb56ae2e8d879dd67a1dca3f8fe1fa2c30aebf\n              0x24\n              swap2\n              codecopy\n              0x40\n              add\n              swap2\n              pop\n              pop\n              mload(0x40)\n              dup1\n              swap2\n              sub\n              swap1\n              revert\n            tag_117:\n                /* \"contracts/kalyswap-core/KalyswapPair.sol\":7530:7547  uint112 _reserve0 */\n              0x00\n                /* \"contracts/kalyswap-core/KalyswapPair.sol\":7549:7566  uint112 _reserve1 */\n              dup1\n                /* \"contracts/kalyswap-core/KalyswapPair.sol\":7571:7584  getReserves() */\n              tag_118\n                /* \"contracts/kalyswap-core/KalyswapPair.sol\":7571:7582  getReserves */\n              tag_49\n                /* \"contracts/kalyswap-core/KalyswapPair.sol\":7571:7584  getReserves() */\n              jump\t// in\n            tag_118:\n              pop\n                /* \"contracts/kalyswap-core/KalyswapPair.sol\":7529:7584  (uint112 _reserve0, uint112 _reserve1,) = getReserves() */\n              swap1\n              swap3\n              pop\n              swap1\n              pop\n              sub(shl(0x70, 0x01), 0x01)\n                /* \"contracts/kalyswap-core/KalyswapPair.sol\":7617:7639  amount0Out < _reserve0 */\n              dup3\n              and\n              dup8\n              lt\n                /* \"contracts/kalyswap-core/KalyswapPair.sol\":7617:7665  amount0Out < _reserve0 && amount1Out < _reserve1 */\n              dup1\n              iszero\n              tag_119\n              jumpi\n              pop\n              sub(shl(0x70, 0x01), 0x01)\n                /* \"contracts/kalyswap-core/KalyswapPair.sol\":7643:7665  amount1Out < _reserve1 */\n              dup2\n              and\n              dup7\n              lt\n                /* \"contracts/kalyswap-core/KalyswapPair.sol\":7617:7665  amount0Out < _reserve0 && amount1Out < _reserve1 */\n            tag_119:\n                /* \"contracts/kalyswap-core/KalyswapPair.sol\":7609:7702  require(amount0Out < _reserve0 && amount1Out < _reserve1, 'Kalyswap: INSUFFICIENT_LIQUIDITY') */\n              tag_120\n              jumpi\n              0x40\n              dup1\n              mload\n              shl(0xe5, 0x461bcd)\n              dup2\n              mstore\n              0x20\n              0x04\n              dup3\n              add\n              dup2\n              swap1\n              mstore\n              0x24\n              dup3\n              add\n              mstore\n              0x4b616c79737761703a20494e53554646494349454e545f4c4951554944495459\n              0x44\n              dup3\n              add\n              mstore\n              swap1\n              mload\n              swap1\n              dup2\n              swap1\n              sub\n              0x64\n              add\n              swap1\n              revert\n            tag_120:\n                /* \"contracts/kalyswap-core/KalyswapPair.sol\":7842:7848  token0 */\n              sload(0x06)\n                /* \"contracts/kalyswap-core/KalyswapPair.sol\":7876:7882  token1 */\n              sload(0x07)\n                /* \"contracts/kalyswap-core/KalyswapPair.sol\":7713:7726  uint balance0 */\n              0x00\n              swap2\n              dup3\n              swap2\n              sub(shl(0xa0, 0x01), 0x01)\n                /* \"contracts/kalyswap-core/KalyswapPair.sol\":7842:7848  token0 */\n              swap2\n              dup3\n              and\n              swap2\n                /* \"contracts/kalyswap-core/KalyswapPair.sol\":7876:7882  token1 */\n              swap1\n              dup2\n              and\n              swap1\n                /* \"contracts/kalyswap-core/KalyswapPair.sol\":7900:7913  to != _token0 */\n              dup10\n              and\n              dup3\n              eq\n              dup1\n              iszero\n              swap1\n                /* \"contracts/kalyswap-core/KalyswapPair.sol\":7900:7930  to != _token0 && to != _token1 */\n              tag_121\n              jumpi\n              pop\n              sub(shl(0xa0, 0x01), 0x01)\n                /* \"contracts/kalyswap-core/KalyswapPair.sol\":7917:7930  to != _token1 */\n              dup10\n              dup2\n              and\n              swap1\n              dup3\n              and\n              eq\n              iszero\n                /* \"contracts/kalyswap-core/KalyswapPair.sol\":7900:7930  to != _token0 && to != _token1 */\n            tag_121:\n                /* \"contracts/kalyswap-core/KalyswapPair.sol\":7892:7955  require(to != _token0 && to != _token1, 'Kalyswap: INVALID_TO') */\n              tag_122\n              jumpi\n              0x40\n              dup1\n              mload\n              shl(0xe5, 0x461bcd)\n              dup2\n              mstore\n              0x20\n              0x04\n              dup3\n              add\n              mstore\n              0x14\n              0x24\n              dup3\n              add\n              mstore\n              shl(0x60, 0x4b616c79737761703a20494e56414c49445f544f)\n              0x44\n              dup3\n              add\n              mstore\n              swap1\n              mload\n              swap1\n              dup2\n              swap1\n              sub\n              0x64\n              add\n              swap1\n              revert\n            tag_122:\n                /* \"contracts/kalyswap-core/KalyswapPair.sol\":7969:7983  amount0Out > 0 */\n              dup11\n              iszero\n                /* \"contracts/kalyswap-core/KalyswapPair.sol\":7965:8023  if (amount0Out > 0) _safeTransfer(_token0, to, amount0Out) */\n              tag_124\n              jumpi\n                /* \"contracts/kalyswap-core/KalyswapPair.sol\":7985:8023  _safeTransfer(_token0, to, amount0Out) */\n              tag_124\n                /* \"contracts/kalyswap-core/KalyswapPair.sol\":7999:8006  _token0 */\n              dup3\n                /* \"contracts/kalyswap-core/KalyswapPair.sol\":8008:8010  to */\n              dup11\n                /* \"contracts/kalyswap-core/KalyswapPair.sol\":8012:8022  amount0Out */\n              dup14\n                /* \"contracts/kalyswap-core/KalyswapPair.sol\":7985:7998  _safeTransfer */\n              tag_125\n                /* \"contracts/kalyswap-core/KalyswapPair.sol\":7985:8023  _safeTransfer(_token0, to, amount0Out) */\n              jump\t// in\n            tag_124:\n                /* \"contracts/kalyswap-core/KalyswapPair.sol\":8071:8085  amount1Out > 0 */\n              dup10\n              iszero\n                /* \"contracts/kalyswap-core/KalyswapPair.sol\":8067:8125  if (amount1Out > 0) _safeTransfer(_token1, to, amount1Out) */\n              tag_127\n              jumpi\n                /* \"contracts/kalyswap-core/KalyswapPair.sol\":8087:8125  _safeTransfer(_token1, to, amount1Out) */\n              tag_127\n                /* \"contracts/kalyswap-core/KalyswapPair.sol\":8101:8108  _token1 */\n              dup2\n                /* \"contracts/kalyswap-core/KalyswapPair.sol\":8110:8112  to */\n              dup11\n                /* \"contracts/kalyswap-core/KalyswapPair.sol\":8114:8124  amount1Out */\n              dup13\n                /* \"contracts/kalyswap-core/KalyswapPair.sol\":8087:8100  _safeTransfer */\n              tag_125\n                /* \"contracts/kalyswap-core/KalyswapPair.sol\":8087:8125  _safeTransfer(_token1, to, amount1Out) */\n              jump\t// in\n            tag_127:\n                /* \"contracts/kalyswap-core/KalyswapPair.sol\":8173:8188  data.length > 0 */\n              dup7\n              iszero\n                /* \"contracts/kalyswap-core/KalyswapPair.sol\":8169:8264  if (data.length > 0) IKalyswapCallee(to).kalyswapCall(msg.sender, amount0Out, amount1Out, data) */\n              tag_128\n              jumpi\n                /* \"contracts/kalyswap-core/KalyswapPair.sol\":8206:8208  to */\n              dup9\n              0x01\n              dup1\n              0xa0\n              shl\n              sub\n                /* \"contracts/kalyswap-core/KalyswapPair.sol\":8190:8222  IKalyswapCallee(to).kalyswapCall */\n              and\n              0x3594162a\n                /* \"contracts/kalyswap-core/KalyswapPair.sol\":8223:8233  msg.sender */\n              caller\n                /* \"contracts/kalyswap-core/KalyswapPair.sol\":8235:8245  amount0Out */\n              dup14\n                /* \"contracts/kalyswap-core/KalyswapPair.sol\":8247:8257  amount1Out */\n              dup14\n                /* \"contracts/kalyswap-core/KalyswapPair.sol\":8259:8263  data */\n              dup13\n              dup13\n                /* \"contracts/kalyswap-core/KalyswapPair.sol\":8190:8264  IKalyswapCallee(to).kalyswapCall(msg.sender, amount0Out, amount1Out, data) */\n              mload(0x40)\n              dup7\n              0xffffffff\n              and\n              0xe0\n              shl\n              dup2\n              mstore\n              0x04\n              add\n              dup1\n              dup7\n              0x01\n              dup1\n              0xa0\n              shl\n              sub\n              and\n              0x01\n              dup1\n              0xa0\n              shl\n              sub\n              and\n              dup2\n              mstore\n              0x20\n              add\n              dup6\n              dup2\n              mstore\n              0x20\n              add\n              dup5\n              dup2\n              mstore\n              0x20\n              add\n              dup1\n              0x20\n              add\n              dup3\n              dup2\n              sub\n              dup3\n              mstore\n              dup5\n              dup5\n              dup3\n              dup2\n              dup2\n              mstore\n              0x20\n              add\n              swap3\n              pop\n                /* \"--CODEGEN--\":30:33   */\n              dup1\n                /* \"--CODEGEN--\":22:28   */\n              dup3\n                /* \"--CODEGEN--\":14:20   */\n              dup5\n                /* \"--CODEGEN--\":1:34   */\n              calldatacopy\n                /* \"--CODEGEN--\":99:100   */\n              0x00\n                /* \"--CODEGEN--\":93:96   */\n              dup2\n                /* \"--CODEGEN--\":85:91   */\n              dup5\n                /* \"--CODEGEN--\":81:97   */\n              add\n                /* \"--CODEGEN--\":74:101   */\n              mstore\n                /* \"--CODEGEN--\":137:141   */\n              0x1f\n                /* \"--CODEGEN--\":133:142   */\n              not\n                /* \"--CODEGEN--\":126:130   */\n              0x1f\n                /* \"--CODEGEN--\":121:124   */\n              dup3\n                /* \"--CODEGEN--\":117:131   */\n              add\n                /* \"--CODEGEN--\":113:143   */\n              and\n                /* \"--CODEGEN--\":106:143   */\n              swap1\n              pop\n                /* \"--CODEGEN--\":169:172   */\n              dup1\n                /* \"--CODEGEN--\":161:167   */\n              dup4\n                /* \"--CODEGEN--\":157:173   */\n              add\n                /* \"--CODEGEN--\":147:173   */\n              swap3\n              pop\n                /* \"contracts/kalyswap-core/KalyswapPair.sol\":8190:8264  IKalyswapCallee(to).kalyswapCall(msg.sender, amount0Out, amount1Out, data) */\n              pop\n              pop\n              swap7\n              pop\n              pop\n              pop\n              pop\n              pop\n              pop\n              pop\n              0x00\n              mload(0x40)\n              dup1\n              dup4\n              sub\n              dup2\n              0x00\n              dup8\n              dup1\n              extcodesize\n              iszero\n                /* \"--CODEGEN--\":8:17   */\n              dup1\n                /* \"--CODEGEN--\":5:7   */\n              iszero\n              tag_129\n              jumpi\n                /* \"--CODEGEN--\":30:31   */\n              0x00\n                /* \"--CODEGEN--\":27:28   */\n              dup1\n                /* \"--CODEGEN--\":20:32   */\n              revert\n                /* \"--CODEGEN--\":5:7   */\n            tag_129:\n                /* \"contracts/kalyswap-core/KalyswapPair.sol\":8190:8264  IKalyswapCallee(to).kalyswapCall(msg.sender, amount0Out, amount1Out, data) */\n              pop\n              gas\n              call\n              iszero\n                /* \"--CODEGEN--\":8:17   */\n              dup1\n                /* \"--CODEGEN--\":5:7   */\n              iszero\n              tag_130\n              jumpi\n                /* \"--CODEGEN--\":45:61   */\n              returndatasize\n                /* \"--CODEGEN--\":42:43   */\n              0x00\n                /* \"--CODEGEN--\":39:40   */\n              dup1\n                /* \"--CODEGEN--\":24:62   */\n              returndatacopy\n                /* \"--CODEGEN--\":77:93   */\n              returndatasize\n                /* \"--CODEGEN--\":74:75   */\n              0x00\n                /* \"--CODEGEN--\":67:94   */\n              revert\n                /* \"--CODEGEN--\":5:7   */\n            tag_130:\n                /* \"contracts/kalyswap-core/KalyswapPair.sol\":8190:8264  IKalyswapCallee(to).kalyswapCall(msg.sender, amount0Out, amount1Out, data) */\n              pop\n              pop\n              pop\n              pop\n                /* \"contracts/kalyswap-core/KalyswapPair.sol\":8169:8264  if (data.length > 0) IKalyswapCallee(to).kalyswapCall(msg.sender, amount0Out, amount1Out, data) */\n            tag_128:\n                /* \"contracts/kalyswap-core/KalyswapPair.sol\":8285:8325  IERC20(_token0).balanceOf(address(this)) */\n              0x40\n              dup1\n              mload\n              shl(0xe0, 0x70a08231)\n              dup2\n              mstore\n                /* \"contracts/kalyswap-core/KalyswapPair.sol\":8319:8323  this */\n              address\n                /* \"contracts/kalyswap-core/KalyswapPair.sol\":8285:8325  IERC20(_token0).balanceOf(address(this)) */\n              0x04\n              dup3\n              add\n              mstore\n              swap1\n              mload\n              sub(shl(0xa0, 0x01), 0x01)\n                /* \"contracts/kalyswap-core/KalyswapPair.sol\":8285:8310  IERC20(_token0).balanceOf */\n              dup5\n              and\n              swap2\n              0x70a08231\n              swap2\n                /* \"contracts/kalyswap-core/KalyswapPair.sol\":8285:8325  IERC20(_token0).balanceOf(address(this)) */\n              0x24\n              dup1\n              dup4\n              add\n              swap3\n              0x20\n              swap3\n              swap2\n              swap1\n              dup3\n              swap1\n              sub\n              add\n              dup2\n                /* \"contracts/kalyswap-core/KalyswapPair.sol\":8285:8310  IERC20(_token0).balanceOf */\n              dup7\n                /* \"contracts/kalyswap-core/KalyswapPair.sol\":8285:8325  IERC20(_token0).balanceOf(address(this)) */\n              dup1\n              extcodesize\n              iszero\n                /* \"--CODEGEN--\":5:7   */\n              dup1\n              iszero\n              tag_131\n              jumpi\n                /* \"--CODEGEN--\":30:31   */\n              0x00\n                /* \"--CODEGEN--\":27:28   */\n              dup1\n                /* \"--CODEGEN--\":20:32   */\n              revert\n                /* \"--CODEGEN--\":5:7   */\n            tag_131:\n                /* \"contracts/kalyswap-core/KalyswapPair.sol\":8285:8325  IERC20(_token0).balanceOf(address(this)) */\n              pop\n              gas\n              staticcall\n              iszero\n                /* \"--CODEGEN--\":8:17   */\n              dup1\n                /* \"--CODEGEN--\":5:7   */\n              iszero\n              tag_132\n              jumpi\n                /* \"--CODEGEN--\":45:61   */\n              returndatasize\n                /* \"--CODEGEN--\":42:43   */\n              0x00\n                /* \"--CODEGEN--\":39:40   */\n              dup1\n                /* \"--CODEGEN--\":24:62   */\n              returndatacopy\n                /* \"--CODEGEN--\":77:93   */\n              returndatasize\n                /* \"--CODEGEN--\":74:75   */\n              0x00\n                /* \"--CODEGEN--\":67:94   */\n              revert\n                /* \"--CODEGEN--\":5:7   */\n            tag_132:\n                /* \"contracts/kalyswap-core/KalyswapPair.sol\":8285:8325  IERC20(_token0).balanceOf(address(this)) */\n              pop\n              pop\n              pop\n              pop\n              mload(0x40)\n              returndatasize\n                /* \"--CODEGEN--\":13:15   */\n              0x20\n                /* \"--CODEGEN--\":8:11   */\n              dup2\n                /* \"--CODEGEN--\":5:16   */\n              lt\n                /* \"--CODEGEN--\":2:4   */\n              iszero\n              tag_133\n              jumpi\n                /* \"--CODEGEN--\":29:30   */\n              0x00\n                /* \"--CODEGEN--\":26:27   */\n              dup1\n                /* \"--CODEGEN--\":19:31   */\n              revert\n                /* \"--CODEGEN--\":2:4   */\n            tag_133:\n              pop\n                /* \"contracts/kalyswap-core/KalyswapPair.sol\":8285:8325  IERC20(_token0).balanceOf(address(this)) */\n              mload\n                /* \"contracts/kalyswap-core/KalyswapPair.sol\":8346:8386  IERC20(_token1).balanceOf(address(this)) */\n              0x40\n              dup1\n              mload\n              shl(0xe0, 0x70a08231)\n              dup2\n              mstore\n                /* \"contracts/kalyswap-core/KalyswapPair.sol\":8380:8384  this */\n              address\n                /* \"contracts/kalyswap-core/KalyswapPair.sol\":8346:8386  IERC20(_token1).balanceOf(address(this)) */\n              0x04\n              dup3\n              add\n              mstore\n              swap1\n              mload\n                /* \"contracts/kalyswap-core/KalyswapPair.sol\":8285:8325  IERC20(_token0).balanceOf(address(this)) */\n              swap2\n              swap6\n              pop\n              sub(shl(0xa0, 0x01), 0x01)\n                /* \"contracts/kalyswap-core/KalyswapPair.sol\":8346:8371  IERC20(_token1).balanceOf */\n              dup4\n              and\n              swap2\n              0x70a08231\n              swap2\n                /* \"contracts/kalyswap-core/KalyswapPair.sol\":8346:8386  IERC20(_token1).balanceOf(address(this)) */\n              0x24\n              dup1\n              dup3\n              add\n              swap3\n                /* \"contracts/kalyswap-core/KalyswapPair.sol\":8285:8325  IERC20(_token0).balanceOf(address(this)) */\n              0x20\n              swap3\n                /* \"contracts/kalyswap-core/KalyswapPair.sol\":8346:8386  IERC20(_token1).balanceOf(address(this)) */\n              swap1\n              swap2\n              swap1\n              dup3\n              swap1\n              sub\n              add\n              dup2\n                /* \"contracts/kalyswap-core/KalyswapPair.sol\":8346:8371  IERC20(_token1).balanceOf */\n              dup7\n                /* \"contracts/kalyswap-core/KalyswapPair.sol\":8346:8386  IERC20(_token1).balanceOf(address(this)) */\n              dup1\n              extcodesize\n              iszero\n                /* \"--CODEGEN--\":5:7   */\n              dup1\n              iszero\n              tag_134\n              jumpi\n                /* \"--CODEGEN--\":30:31   */\n              0x00\n                /* \"--CODEGEN--\":27:28   */\n              dup1\n                /* \"--CODEGEN--\":20:32   */\n              revert\n                /* \"--CODEGEN--\":5:7   */\n            tag_134:\n                /* \"contracts/kalyswap-core/KalyswapPair.sol\":8346:8386  IERC20(_token1).balanceOf(address(this)) */\n              pop\n              gas\n              staticcall\n              iszero\n                /* \"--CODEGEN--\":8:17   */\n              dup1\n                /* \"--CODEGEN--\":5:7   */\n              iszero\n              tag_135\n              jumpi\n                /* \"--CODEGEN--\":45:61   */\n              returndatasize\n                /* \"--CODEGEN--\":42:43   */\n              0x00\n                /* \"--CODEGEN--\":39:40   */\n              dup1\n                /* \"--CODEGEN--\":24:62   */\n              returndatacopy\n                /* \"--CODEGEN--\":77:93   */\n              returndatasize\n                /* \"--CODEGEN--\":74:75   */\n              0x00\n                /* \"--CODEGEN--\":67:94   */\n              revert\n                /* \"--CODEGEN--\":5:7   */\n            tag_135:\n                /* \"contracts/kalyswap-core/KalyswapPair.sol\":8346:8386  IERC20(_token1).balanceOf(address(this)) */\n              pop\n              pop\n              pop\n              pop\n              mload(0x40)\n              returndatasize\n                /* \"--CODEGEN--\":13:15   */\n              0x20\n                /* \"--CODEGEN--\":8:11   */\n              dup2\n                /* \"--CODEGEN--\":5:16   */\n              lt\n                /* \"--CODEGEN--\":2:4   */\n              iszero\n              tag_136\n              jumpi\n                /* \"--CODEGEN--\":29:30   */\n              0x00\n                /* \"--CODEGEN--\":26:27   */\n              dup1\n                /* \"--CODEGEN--\":19:31   */\n              revert\n                /* \"--CODEGEN--\":2:4   */\n            tag_136:\n              pop\n                /* \"contracts/kalyswap-core/KalyswapPair.sol\":8346:8386  IERC20(_token1).balanceOf(address(this)) */\n              mload\n              swap3\n              pop\n                /* \"contracts/kalyswap-core/KalyswapPair.sol\":8406:8420  uint amount0In */\n              0x00\n              swap2\n              pop\n              pop\n              sub(shl(0x70, 0x01), 0x01)\n                /* \"contracts/kalyswap-core/KalyswapPair.sol\":8434:8456  _reserve0 - amount0Out */\n              dup6\n              and\n              dup11\n              swap1\n              sub\n                /* \"contracts/kalyswap-core/KalyswapPair.sol\":8423:8456  balance0 > _reserve0 - amount0Out */\n              dup4\n              gt\n                /* \"contracts/kalyswap-core/KalyswapPair.sol\":8423:8498  balance0 > _reserve0 - amount0Out ? balance0 - (_reserve0 - amount0Out) : 0 */\n              tag_137\n              jumpi\n                /* \"contracts/kalyswap-core/KalyswapPair.sol\":8497:8498  0 */\n              0x00\n                /* \"contracts/kalyswap-core/KalyswapPair.sol\":8423:8498  balance0 > _reserve0 - amount0Out ? balance0 - (_reserve0 - amount0Out) : 0 */\n              jump(tag_138)\n            tag_137:\n              sub(shl(0x70, 0x01), 0x01)\n                /* \"contracts/kalyswap-core/KalyswapPair.sol\":8471:8493  _reserve0 - amount0Out */\n              dup6\n              and\n              dup11\n              swap1\n              sub\n                /* \"contracts/kalyswap-core/KalyswapPair.sol\":8459:8494  balance0 - (_reserve0 - amount0Out) */\n              dup4\n              sub\n                /* \"contracts/kalyswap-core/KalyswapPair.sol\":8423:8498  balance0 > _reserve0 - amount0Out ? balance0 - (_reserve0 - amount0Out) : 0 */\n            tag_138:\n                /* \"contracts/kalyswap-core/KalyswapPair.sol\":8406:8498  uint amount0In = balance0 > _reserve0 - amount0Out ? balance0 - (_reserve0 - amount0Out) : 0 */\n              swap1\n              pop\n                /* \"contracts/kalyswap-core/KalyswapPair.sol\":8508:8522  uint amount1In */\n              0x00\n              sub(shl(0x70, 0x01), 0x01)\n                /* \"contracts/kalyswap-core/KalyswapPair.sol\":8536:8558  _reserve1 - amount1Out */\n              dup6\n              and\n              dup11\n              swap1\n              sub\n                /* \"contracts/kalyswap-core/KalyswapPair.sol\":8525:8558  balance1 > _reserve1 - amount1Out */\n              dup4\n              gt\n                /* \"contracts/kalyswap-core/KalyswapPair.sol\":8525:8600  balance1 > _reserve1 - amount1Out ? balance1 - (_reserve1 - amount1Out) : 0 */\n              tag_139\n              jumpi\n                /* \"contracts/kalyswap-core/KalyswapPair.sol\":8599:8600  0 */\n              0x00\n                /* \"contracts/kalyswap-core/KalyswapPair.sol\":8525:8600  balance1 > _reserve1 - amount1Out ? balance1 - (_reserve1 - amount1Out) : 0 */\n              jump(tag_140)\n            tag_139:\n              sub(shl(0x70, 0x01), 0x01)\n                /* \"contracts/kalyswap-core/KalyswapPair.sol\":8573:8595  _reserve1 - amount1Out */\n              dup6\n              and\n              dup11\n              swap1\n              sub\n                /* \"contracts/kalyswap-core/KalyswapPair.sol\":8561:8596  balance1 - (_reserve1 - amount1Out) */\n              dup4\n              sub\n                /* \"contracts/kalyswap-core/KalyswapPair.sol\":8525:8600  balance1 > _reserve1 - amount1Out ? balance1 - (_reserve1 - amount1Out) : 0 */\n            tag_140:\n                /* \"contracts/kalyswap-core/KalyswapPair.sol\":8508:8600  uint amount1In = balance1 > _reserve1 - amount1Out ? balance1 - (_reserve1 - amount1Out) : 0 */\n              swap1\n              pop\n                /* \"contracts/kalyswap-core/KalyswapPair.sol\":8630:8631  0 */\n              0x00\n                /* \"contracts/kalyswap-core/KalyswapPair.sol\":8618:8627  amount0In */\n              dup3\n                /* \"contracts/kalyswap-core/KalyswapPair.sol\":8618:8631  amount0In > 0 */\n              gt\n                /* \"contracts/kalyswap-core/KalyswapPair.sol\":8618:8648  amount0In > 0 || amount1In > 0 */\n              dup1\n              tag_141\n              jumpi\n              pop\n                /* \"contracts/kalyswap-core/KalyswapPair.sol\":8647:8648  0 */\n              0x00\n                /* \"contracts/kalyswap-core/KalyswapPair.sol\":8635:8644  amount1In */\n              dup2\n                /* \"contracts/kalyswap-core/KalyswapPair.sol\":8635:8648  amount1In > 0 */\n              gt\n                /* \"contracts/kalyswap-core/KalyswapPair.sol\":8618:8648  amount0In > 0 || amount1In > 0 */\n            tag_141:\n                /* \"contracts/kalyswap-core/KalyswapPair.sol\":8610:8688  require(amount0In > 0 || amount1In > 0, 'Kalyswap: INSUFFICIENT_INPUT_AMOUNT') */\n              tag_142\n              jumpi\n              mload(0x40)\n              shl(0xe5, 0x461bcd)\n              dup2\n              mstore\n              0x04\n              add\n              dup1\n              dup1\n              0x20\n              add\n              dup3\n              dup2\n              sub\n              dup3\n              mstore\n              0x23\n              dup2\n              mstore\n              0x20\n              add\n              dup1\n              data_0ab0350c45f281195d02e95ee380f6a81377d1418b52bca20e90c5393cc4ad99\n              0x23\n              swap2\n              codecopy\n              0x40\n              add\n              swap2\n              pop\n              pop\n              mload(0x40)\n              dup1\n              swap2\n              sub\n              swap1\n              revert\n            tag_142:\n                /* \"contracts/kalyswap-core/KalyswapPair.sol\":8772:8793  uint balance0Adjusted */\n              0x00\n                /* \"contracts/kalyswap-core/KalyswapPair.sol\":8796:8836  balance0.mul(1000).sub(amount0In.mul(3)) */\n              tag_143\n                /* \"contracts/kalyswap-core/KalyswapPair.sol\":8819:8835  amount0In.mul(3) */\n              tag_144\n                /* \"contracts/kalyswap-core/KalyswapPair.sol\":8819:8828  amount0In */\n              dup5\n                /* \"contracts/kalyswap-core/KalyswapPair.sol\":8833:8834  3 */\n              0x03\n                /* \"contracts/kalyswap-core/KalyswapPair.sol\":8819:8835  amount0In.mul(3) */\n              0xffffffff\n                /* \"contracts/kalyswap-core/KalyswapPair.sol\":8819:8832  amount0In.mul */\n              tag_145\n                /* \"contracts/kalyswap-core/KalyswapPair.sol\":8819:8835  amount0In.mul(3) */\n              and\n              jump\t// in\n            tag_144:\n                /* \"contracts/kalyswap-core/KalyswapPair.sol\":8796:8814  balance0.mul(1000) */\n              tag_146\n                /* \"contracts/kalyswap-core/KalyswapPair.sol\":8796:8804  balance0 */\n              dup8\n                /* \"contracts/kalyswap-core/KalyswapPair.sol\":8809:8813  1000 */\n              0x03e8\n                /* \"contracts/kalyswap-core/KalyswapPair.sol\":8796:8814  balance0.mul(1000) */\n              0xffffffff\n                /* \"contracts/kalyswap-core/KalyswapPair.sol\":8796:8808  balance0.mul */\n              tag_145\n                /* \"contracts/kalyswap-core/KalyswapPair.sol\":8796:8814  balance0.mul(1000) */\n              and\n              jump\t// in\n            tag_146:\n                /* \"contracts/kalyswap-core/KalyswapPair.sol\":8796:8818  balance0.mul(1000).sub */\n              swap1\n                /* \"contracts/kalyswap-core/KalyswapPair.sol\":8796:8836  balance0.mul(1000).sub(amount0In.mul(3)) */\n              0xffffffff\n                /* \"contracts/kalyswap-core/KalyswapPair.sol\":8796:8818  balance0.mul(1000).sub */\n              tag_147\n                /* \"contracts/kalyswap-core/KalyswapPair.sol\":8796:8836  balance0.mul(1000).sub(amount0In.mul(3)) */\n              and\n              jump\t// in\n            tag_143:\n                /* \"contracts/kalyswap-core/KalyswapPair.sol\":8772:8836  uint balance0Adjusted = balance0.mul(1000).sub(amount0In.mul(3)) */\n              swap1\n              pop\n                /* \"contracts/kalyswap-core/KalyswapPair.sol\":8846:8867  uint balance1Adjusted */\n              0x00\n                /* \"contracts/kalyswap-core/KalyswapPair.sol\":8870:8910  balance1.mul(1000).sub(amount1In.mul(3)) */\n              tag_148\n                /* \"contracts/kalyswap-core/KalyswapPair.sol\":8893:8909  amount1In.mul(3) */\n              tag_144\n                /* \"contracts/kalyswap-core/KalyswapPair.sol\":8893:8902  amount1In */\n              dup5\n                /* \"contracts/kalyswap-core/KalyswapPair.sol\":8907:8908  3 */\n              0x03\n                /* \"contracts/kalyswap-core/KalyswapPair.sol\":8893:8909  amount1In.mul(3) */\n              0xffffffff\n                /* \"contracts/kalyswap-core/KalyswapPair.sol\":8893:8906  amount1In.mul */\n              tag_145\n                /* \"contracts/kalyswap-core/KalyswapPair.sol\":8893:8909  amount1In.mul(3) */\n              and\n              jump\t// in\n                /* \"contracts/kalyswap-core/KalyswapPair.sol\":8870:8910  balance1.mul(1000).sub(amount1In.mul(3)) */\n            tag_148:\n                /* \"contracts/kalyswap-core/KalyswapPair.sol\":8846:8910  uint balance1Adjusted = balance1.mul(1000).sub(amount1In.mul(3)) */\n              swap1\n              pop\n                /* \"contracts/kalyswap-core/KalyswapPair.sol\":8970:9013  uint(_reserve0).mul(_reserve1).mul(1000**2) */\n              tag_151\n                /* \"contracts/kalyswap-core/KalyswapPair.sol\":9005:9012  1000**2 */\n              0x0f4240\n                /* \"contracts/kalyswap-core/KalyswapPair.sol\":8970:9000  uint(_reserve0).mul(_reserve1) */\n              tag_152\n              sub(shl(0x70, 0x01), 0x01)\n                /* \"contracts/kalyswap-core/KalyswapPair.sol\":8970:8985  uint(_reserve0) */\n              dup12\n              dup2\n              and\n              swap1\n                /* \"contracts/kalyswap-core/KalyswapPair.sol\":8970:9000  uint(_reserve0).mul(_reserve1) */\n              dup12\n              and\n                /* \"contracts/kalyswap-core/KalyswapPair.sol\":8970:8989  uint(_reserve0).mul */\n              tag_145\n                /* \"contracts/kalyswap-core/KalyswapPair.sol\":8970:9000  uint(_reserve0).mul(_reserve1) */\n              jump\t// in\n            tag_152:\n                /* \"contracts/kalyswap-core/KalyswapPair.sol\":8970:9004  uint(_reserve0).mul(_reserve1).mul */\n              swap1\n                /* \"contracts/kalyswap-core/KalyswapPair.sol\":8970:9013  uint(_reserve0).mul(_reserve1).mul(1000**2) */\n              0xffffffff\n                /* \"contracts/kalyswap-core/KalyswapPair.sol\":8970:9004  uint(_reserve0).mul(_reserve1).mul */\n              tag_145\n                /* \"contracts/kalyswap-core/KalyswapPair.sol\":8970:9013  uint(_reserve0).mul(_reserve1).mul(1000**2) */\n              and\n              jump\t// in\n            tag_151:\n                /* \"contracts/kalyswap-core/KalyswapPair.sol\":8928:8966  balance0Adjusted.mul(balance1Adjusted) */\n              tag_153\n                /* \"contracts/kalyswap-core/KalyswapPair.sol\":8928:8944  balance0Adjusted */\n              dup4\n                /* \"contracts/kalyswap-core/KalyswapPair.sol\":8949:8965  balance1Adjusted */\n              dup4\n                /* \"contracts/kalyswap-core/KalyswapPair.sol\":8928:8966  balance0Adjusted.mul(balance1Adjusted) */\n              0xffffffff\n                /* \"contracts/kalyswap-core/KalyswapPair.sol\":8928:8948  balance0Adjusted.mul */\n              tag_145\n                /* \"contracts/kalyswap-core/KalyswapPair.sol\":8928:8966  balance0Adjusted.mul(balance1Adjusted) */\n              and\n              jump\t// in\n            tag_153:\n                /* \"contracts/kalyswap-core/KalyswapPair.sol\":8928:9013  balance0Adjusted.mul(balance1Adjusted) >= uint(_reserve0).mul(_reserve1).mul(1000**2) */\n              lt\n              iszero\n                /* \"contracts/kalyswap-core/KalyswapPair.sol\":8920:9029  require(balance0Adjusted.mul(balance1Adjusted) >= uint(_reserve0).mul(_reserve1).mul(1000**2), 'Kalyswap: K') */\n              tag_154\n              jumpi\n              0x40\n              dup1\n              mload\n              shl(0xe5, 0x461bcd)\n              dup2\n              mstore\n              0x20\n              0x04\n              dup3\n              add\n              mstore\n              0x0b\n              0x24\n              dup3\n              add\n              mstore\n              shl(0xa8, 0x4b616c79737761703a204b)\n              0x44\n              dup3\n              add\n              mstore\n              swap1\n              mload\n              swap1\n              dup2\n              swap1\n              sub\n              0x64\n              add\n              swap1\n              revert\n            tag_154:\n                /* \"contracts/kalyswap-core/KalyswapPair.sol\":1240:1241  _ */\n              pop\n              pop\n                /* \"contracts/kalyswap-core/KalyswapPair.sol\":9050:9099  _update(balance0, balance1, _reserve0, _reserve1) */\n              tag_155\n                /* \"contracts/kalyswap-core/KalyswapPair.sol\":9058:9066  balance0 */\n              dup5\n                /* \"contracts/kalyswap-core/KalyswapPair.sol\":9068:9076  balance1 */\n              dup5\n                /* \"contracts/kalyswap-core/KalyswapPair.sol\":9078:9087  _reserve0 */\n              dup9\n                /* \"contracts/kalyswap-core/KalyswapPair.sol\":9089:9098  _reserve1 */\n              dup9\n                /* \"contracts/kalyswap-core/KalyswapPair.sol\":9050:9057  _update */\n              tag_156\n                /* \"contracts/kalyswap-core/KalyswapPair.sol\":9050:9099  _update(balance0, balance1, _reserve0, _reserve1) */\n              jump\t// in\n            tag_155:\n                /* \"contracts/kalyswap-core/KalyswapPair.sol\":9114:9180  Swap(msg.sender, amount0In, amount1In, amount0Out, amount1Out, to) */\n              0x40\n              dup1\n              mload\n              dup4\n              dup2\n              mstore\n              0x20\n              dup2\n              add\n              dup4\n              swap1\n              mstore\n              dup1\n              dup3\n              add\n              dup14\n              swap1\n              mstore\n              0x60\n              dup2\n              add\n              dup13\n              swap1\n              mstore\n              swap1\n              mload\n              sub(shl(0xa0, 0x01), 0x01)\n              dup12\n              and\n              swap2\n                /* \"contracts/kalyswap-core/KalyswapPair.sol\":9119:9129  msg.sender */\n              caller\n              swap2\n                /* \"contracts/kalyswap-core/KalyswapPair.sol\":9114:9180  Swap(msg.sender, amount0In, amount1In, amount0Out, amount1Out, to) */\n              0xd78ad95fa46c994b6551d0da85fc275fe613ce37657fb8d5e3d130840159d822\n              swap2\n              dup2\n              swap1\n              sub\n              0x80\n              add\n              swap1\n              log3\n              pop\n              pop\n                /* \"contracts/kalyswap-core/KalyswapPair.sol\":1262:1263  1 */\n              0x01\n                /* \"contracts/kalyswap-core/KalyswapPair.sol\":1251:1259  unlocked */\n              0x0c\n                /* \"contracts/kalyswap-core/KalyswapPair.sol\":1251:1263  unlocked = 1 */\n              sstore\n              pop\n              pop\n              pop\n              pop\n              pop\n              pop\n              pop\n              pop\n              pop\n                /* \"contracts/kalyswap-core/KalyswapPair.sol\":7333:9187  function swap(uint amount0Out, uint amount1Out, address to, bytes calldata data) external lock {... */\n              jump\t// out\n                /* \"contracts/kalyswap-core/KalyswapERC20.sol\":181:231  string public constant name = 'Kalyswap Liquidity' */\n            tag_43:\n              0x40\n              dup1\n              mload\n              dup1\n              dup3\n              add\n              swap1\n              swap2\n              mstore\n              0x12\n              dup2\n              mstore\n              shl(0x70, 0x4b616c7973776170204c6971756964697479)\n              0x20\n              dup3\n              add\n              mstore\n              dup2\n              jump\t// out\n                /* \"contracts/kalyswap-core/KalyswapPair.sol\":1276:1503  function getReserves() public view returns (uint112 _reserve0, uint112 _reserve1, uint32 _blockTimestampLast) {... */\n            tag_49:\n                /* \"contracts/kalyswap-core/KalyswapPair.sol\":1408:1416  reserve0 */\n              sload(0x08)\n              sub(shl(0x70, 0x01), 0x01)\n              dup1\n              dup3\n              and\n              swap3\n              shl(0x70, 0x01)\n                /* \"contracts/kalyswap-core/KalyswapPair.sol\":1438:1446  reserve1 */\n              dup4\n              div\n              swap1\n              swap2\n              and\n              swap2\n              shl(0xe0, 0x01)\n                /* \"contracts/kalyswap-core/KalyswapPair.sol\":1478:1496  blockTimestampLast */\n              swap1\n              div\n              0xffffffff\n              and\n              swap1\n                /* \"contracts/kalyswap-core/KalyswapPair.sol\":1276:1503  function getReserves() public view returns (uint112 _reserve0, uint112 _reserve1, uint32 _blockTimestampLast) {... */\n              jump\t// out\n                /* \"contracts/kalyswap-core/KalyswapERC20.sol\":2179:2323  function approve(address spender, uint value) external returns (bool) {... */\n            tag_52:\n                /* \"contracts/kalyswap-core/KalyswapERC20.sol\":2243:2247  bool */\n              0x00\n                /* \"contracts/kalyswap-core/KalyswapERC20.sol\":2259:2295  _approve(msg.sender, spender, value) */\n              tag_159\n                /* \"contracts/kalyswap-core/KalyswapERC20.sol\":2268:2278  msg.sender */\n              caller\n                /* \"contracts/kalyswap-core/KalyswapERC20.sol\":2280:2287  spender */\n              dup5\n                /* \"contracts/kalyswap-core/KalyswapERC20.sol\":2289:2294  value */\n              dup5\n                /* \"contracts/kalyswap-core/KalyswapERC20.sol\":2259:2267  _approve */\n              tag_160\n                /* \"contracts/kalyswap-core/KalyswapERC20.sol\":2259:2295  _approve(msg.sender, spender, value) */\n              jump\t// in\n            tag_159:\n              pop\n                /* \"contracts/kalyswap-core/KalyswapERC20.sol\":2312:2316  true */\n              0x01\n                /* \"contracts/kalyswap-core/KalyswapERC20.sol\":2179:2323  function approve(address spender, uint value) external returns (bool) {... */\n            tag_158:\n              swap3\n              swap2\n              pop\n              pop\n              jump\t// out\n                /* \"contracts/kalyswap-core/KalyswapPair.sol\":585:606  address public token0 */\n            tag_54:\n              and(sub(shl(0xa0, 0x01), 0x01), sload(0x06))\n              dup2\n              jump\t// out\n                /* \"contracts/kalyswap-core/KalyswapERC20.sol\":321:345  uint  public totalSupply */\n            tag_56:\n              sload(0x00)\n              dup2\n              jump\t// out\n                /* \"contracts/kalyswap-core/KalyswapERC20.sol\":2471:2766  function transferFrom(address from, address to, uint value) external returns (bool) {... */\n            tag_59:\n              sub(shl(0xa0, 0x01), 0x01)\n                /* \"contracts/kalyswap-core/KalyswapERC20.sol\":2569:2584  allowance[from] */\n              dup4\n              and\n                /* \"contracts/kalyswap-core/KalyswapERC20.sol\":2549:2553  bool */\n              0x00\n                /* \"contracts/kalyswap-core/KalyswapERC20.sol\":2569:2584  allowance[from] */\n              swap1\n              dup2\n              mstore\n                /* \"contracts/kalyswap-core/KalyswapERC20.sol\":2569:2578  allowance */\n              0x02\n                /* \"contracts/kalyswap-core/KalyswapERC20.sol\":2569:2584  allowance[from] */\n              0x20\n              swap1\n              dup2\n              mstore\n              0x40\n              dup1\n              dup4\n              keccak256\n                /* \"contracts/kalyswap-core/KalyswapERC20.sol\":2585:2595  msg.sender */\n              caller\n                /* \"contracts/kalyswap-core/KalyswapERC20.sol\":2569:2596  allowance[from][msg.sender] */\n              dup5\n              mstore\n              swap1\n              swap2\n              mstore\n              dup2\n              keccak256\n              sload\n              not(0x00)\n                /* \"contracts/kalyswap-core/KalyswapERC20.sol\":2569:2608  allowance[from][msg.sender] != uint(-1) */\n              eq\n                /* \"contracts/kalyswap-core/KalyswapERC20.sol\":2565:2703  if (allowance[from][msg.sender] != uint(-1)) {... */\n              tag_162\n              jumpi\n              sub(shl(0xa0, 0x01), 0x01)\n                /* \"contracts/kalyswap-core/KalyswapERC20.sol\":2654:2669  allowance[from] */\n              dup5\n              and\n              0x00\n              swap1\n              dup2\n              mstore\n                /* \"contracts/kalyswap-core/KalyswapERC20.sol\":2654:2663  allowance */\n              0x02\n                /* \"contracts/kalyswap-core/KalyswapERC20.sol\":2654:2669  allowance[from] */\n              0x20\n              swap1\n              dup2\n              mstore\n              0x40\n              dup1\n              dup4\n              keccak256\n                /* \"contracts/kalyswap-core/KalyswapERC20.sol\":2670:2680  msg.sender */\n              caller\n                /* \"contracts/kalyswap-core/KalyswapERC20.sol\":2654:2681  allowance[from][msg.sender] */\n              dup5\n              mstore\n              swap1\n              swap2\n              mstore\n              swap1\n              keccak256\n              sload\n                /* \"contracts/kalyswap-core/KalyswapERC20.sol\":2654:2692  allowance[from][msg.sender].sub(value) */\n              tag_163\n              swap1\n                /* \"contracts/kalyswap-core/KalyswapERC20.sol\":2686:2691  value */\n              dup4\n                /* \"contracts/kalyswap-core/KalyswapERC20.sol\":2654:2685  allowance[from][msg.sender].sub */\n              tag_147\n                /* \"contracts/kalyswap-core/KalyswapERC20.sol\":2654:2692  allowance[from][msg.sender].sub(value) */\n              jump\t// in\n            tag_163:\n              sub(shl(0xa0, 0x01), 0x01)\n                /* \"contracts/kalyswap-core/KalyswapERC20.sol\":2624:2639  allowance[from] */\n              dup6\n              and\n              0x00\n              swap1\n              dup2\n              mstore\n                /* \"contracts/kalyswap-core/KalyswapERC20.sol\":2624:2633  allowance */\n              0x02\n                /* \"contracts/kalyswap-core/KalyswapERC20.sol\":2624:2639  allowance[from] */\n              0x20\n              swap1\n              dup2\n              mstore\n              0x40\n              dup1\n              dup4\n              keccak256\n                /* \"contracts/kalyswap-core/KalyswapERC20.sol\":2640:2650  msg.sender */\n              caller\n                /* \"contracts/kalyswap-core/KalyswapERC20.sol\":2624:2651  allowance[from][msg.sender] */\n              dup5\n              mstore\n              swap1\n              swap2\n              mstore\n              swap1\n              keccak256\n                /* \"contracts/kalyswap-core/KalyswapERC20.sol\":2624:2692  allowance[from][msg.sender] = allowance[from][msg.sender].sub(value) */\n              sstore\n                /* \"contracts/kalyswap-core/KalyswapERC20.sol\":2565:2703  if (allowance[from][msg.sender] != uint(-1)) {... */\n            tag_162:\n                /* \"contracts/kalyswap-core/KalyswapERC20.sol\":2712:2738  _transfer(from, to, value) */\n              tag_164\n                /* \"contracts/kalyswap-core/KalyswapERC20.sol\":2722:2726  from */\n              dup5\n                /* \"contracts/kalyswap-core/KalyswapERC20.sol\":2728:2730  to */\n              dup5\n                /* \"contracts/kalyswap-core/KalyswapERC20.sol\":2732:2737  value */\n              dup5\n                /* \"contracts/kalyswap-core/KalyswapERC20.sol\":2712:2721  _transfer */\n              tag_165\n                /* \"contracts/kalyswap-core/KalyswapERC20.sol\":2712:2738  _transfer(from, to, value) */\n              jump\t// in\n            tag_164:\n              pop\n                /* \"contracts/kalyswap-core/KalyswapERC20.sol\":2755:2759  true */\n              0x01\n                /* \"contracts/kalyswap-core/KalyswapERC20.sol\":2471:2766  function transferFrom(address from, address to, uint value) external returns (bool) {... */\n              swap4\n              swap3\n              pop\n              pop\n              pop\n              jump\t// out\n                /* \"contracts/kalyswap-core/KalyswapERC20.sol\":607:715  bytes32 public constant PERMIT_TYPEHASH = 0x6e71edae12b1b97f4d1f60370fef10105fa2faae0126114a169c64845d6126c9 */\n            tag_61:\n                /* \"contracts/kalyswap-core/KalyswapERC20.sol\":649:715  0x6e71edae12b1b97f4d1f60370fef10105fa2faae0126114a169c64845d6126c9 */\n              0x6e71edae12b1b97f4d1f60370fef10105fa2faae0126114a169c64845d6126c9\n                /* \"contracts/kalyswap-core/KalyswapERC20.sol\":607:715  bytes32 public constant PERMIT_TYPEHASH = 0x6e71edae12b1b97f4d1f60370fef10105fa2faae0126114a169c64845d6126c9 */\n              dup2\n              jump\t// out\n                /* \"contracts/kalyswap-core/KalyswapERC20.sol\":280:315  uint8 public constant decimals = 18 */\n            tag_63:\n                /* \"contracts/kalyswap-core/KalyswapERC20.sol\":313:315  18 */\n              0x12\n                /* \"contracts/kalyswap-core/KalyswapERC20.sol\":280:315  uint8 public constant decimals = 18 */\n              dup2\n              jump\t// out\n                /* \"contracts/kalyswap-core/KalyswapERC20.sol\":466:497  bytes32 public DOMAIN_SEPARATOR */\n            tag_65:\n              sload(0x03)\n              dup2\n              jump\t// out\n                /* \"contracts/kalyswap-core/KalyswapPair.sol\":2307:2512  function initialize(address _token0, address _token1) external {... */\n            tag_68:\n                /* \"contracts/kalyswap-core/KalyswapPair.sol\":2402:2409  factory */\n              and(sub(shl(0xa0, 0x01), 0x01), sload(0x05))\n                /* \"contracts/kalyswap-core/KalyswapPair.sol\":2388:2398  msg.sender */\n              caller\n                /* \"contracts/kalyswap-core/KalyswapPair.sol\":2388:2409  msg.sender == factory */\n              eq\n                /* \"contracts/kalyswap-core/KalyswapPair.sol\":2380:2433  require(msg.sender == factory, 'Kalyswap: FORBIDDEN') */\n              tag_167\n              jumpi\n              0x40\n              dup1\n              mload\n              shl(0xe5, 0x461bcd)\n              dup2\n              mstore\n              0x20\n              0x04\n              dup3\n              add\n              mstore\n              0x13\n              0x24\n              dup3\n              add\n              mstore\n              shl(0x69, 0x25b0b63cb9bbb0b81d102327a92124a22222a7)\n              0x44\n              dup3\n              add\n              mstore\n              swap1\n              mload\n              swap1\n              dup2\n              swap1\n              sub\n              0x64\n              add\n              swap1\n              revert\n            tag_167:\n                /* \"contracts/kalyswap-core/KalyswapPair.sol\":2463:2469  token0 */\n              0x06\n                /* \"contracts/kalyswap-core/KalyswapPair.sol\":2463:2479  token0 = _token0 */\n              dup1\n              sload\n              sub(shl(0xa0, 0x01), 0x01)\n              swap4\n              dup5\n              and\n              not(sub(shl(0xa0, 0x01), 0x01))\n              swap2\n              dup3\n              and\n              or\n              swap1\n              swap2\n              sstore\n                /* \"contracts/kalyswap-core/KalyswapPair.sol\":2489:2495  token1 */\n              0x07\n                /* \"contracts/kalyswap-core/KalyswapPair.sol\":2489:2505  token1 = _token1 */\n              dup1\n              sload\n              swap3\n              swap1\n              swap4\n              and\n              swap2\n              and\n              or\n              swap1\n              sstore\n                /* \"contracts/kalyswap-core/KalyswapPair.sol\":2307:2512  function initialize(address _token0, address _token1) external {... */\n              jump\t// out\n                /* \"contracts/kalyswap-core/KalyswapPair.sol\":929:961  uint public price0CumulativeLast */\n            tag_70:\n              sload(0x09)\n              dup2\n              jump\t// out\n                /* \"contracts/kalyswap-core/KalyswapPair.sol\":967:999  uint public price1CumulativeLast */\n            tag_72:\n              sload(0x0a)\n              dup2\n              jump\t// out\n                /* \"contracts/kalyswap-core/KalyswapPair.sol\":4454:5672  function mint(address to) external lock returns (uint liquidity) {... */\n            tag_75:\n                /* \"contracts/kalyswap-core/KalyswapPair.sol\":4503:4517  uint liquidity */\n              0x00\n                /* \"contracts/kalyswap-core/KalyswapPair.sol\":1174:1182  unlocked */\n              sload(0x0c)\n                /* \"contracts/kalyswap-core/KalyswapPair.sol\":1186:1187  1 */\n              0x01\n                /* \"contracts/kalyswap-core/KalyswapPair.sol\":1174:1187  unlocked == 1 */\n              eq\n                /* \"contracts/kalyswap-core/KalyswapPair.sol\":1166:1208  require(unlocked == 1, 'Kalyswap: LOCKED') */\n              tag_169\n              jumpi\n              0x40\n              dup1\n              mload\n              shl(0xe5, 0x461bcd)\n              dup2\n              mstore\n              0x20\n              0x04\n              dup3\n              add\n              mstore\n              0x10\n              0x24\n              dup3\n              add\n              mstore\n              shl(0x82, 0x12d85b1e5cddd85c0e881313d0d2d151)\n              0x44\n              dup3\n              add\n              mstore\n              swap1\n              mload\n              swap1\n              dup2\n              swap1\n              sub\n              0x64\n              add\n              swap1\n              revert\n            tag_169:\n                /* \"contracts/kalyswap-core/KalyswapPair.sol\":1229:1230  0 */\n              0x00\n                /* \"contracts/kalyswap-core/KalyswapPair.sol\":1218:1226  unlocked */\n              0x0c\n                /* \"contracts/kalyswap-core/KalyswapPair.sol\":1218:1230  unlocked = 0 */\n              dup2\n              swap1\n              sstore\n                /* \"contracts/kalyswap-core/KalyswapPair.sol\":1229:1230  0 */\n              dup1\n                /* \"contracts/kalyswap-core/KalyswapPair.sol\":4571:4584  getReserves() */\n              tag_171\n                /* \"contracts/kalyswap-core/KalyswapPair.sol\":4571:4582  getReserves */\n              tag_49\n                /* \"contracts/kalyswap-core/KalyswapPair.sol\":4571:4584  getReserves() */\n              jump\t// in\n            tag_171:\n              pop\n                /* \"contracts/kalyswap-core/KalyswapPair.sol\":4632:4638  token0 */\n              sload(0x06)\n                /* \"contracts/kalyswap-core/KalyswapPair.sol\":4625:4664  IERC20(token0).balanceOf(address(this)) */\n              0x40\n              dup1\n              mload\n              shl(0xe0, 0x70a08231)\n              dup2\n              mstore\n                /* \"contracts/kalyswap-core/KalyswapPair.sol\":4658:4662  this */\n              address\n                /* \"contracts/kalyswap-core/KalyswapPair.sol\":4625:4664  IERC20(token0).balanceOf(address(this)) */\n              0x04\n              dup3\n              add\n              mstore\n              swap1\n              mload\n                /* \"contracts/kalyswap-core/KalyswapPair.sol\":4529:4584  (uint112 _reserve0, uint112 _reserve1,) = getReserves() */\n              swap4\n              swap6\n              pop\n              swap2\n              swap4\n              pop\n              0x00\n              swap3\n              sub(shl(0xa0, 0x01), 0x01)\n                /* \"contracts/kalyswap-core/KalyswapPair.sol\":4632:4638  token0 */\n              swap1\n              swap2\n              and\n              swap2\n              0x70a08231\n              swap2\n                /* \"contracts/kalyswap-core/KalyswapPair.sol\":4625:4664  IERC20(token0).balanceOf(address(this)) */\n              0x24\n              dup1\n              dup4\n              add\n              swap3\n              0x20\n              swap3\n              swap2\n              swap1\n              dup3\n              swap1\n              sub\n              add\n              dup2\n                /* \"contracts/kalyswap-core/KalyswapPair.sol\":4632:4638  token0 */\n              dup7\n                /* \"contracts/kalyswap-core/KalyswapPair.sol\":4625:4664  IERC20(token0).balanceOf(address(this)) */\n              dup1\n              extcodesize\n              iszero\n                /* \"--CODEGEN--\":5:7   */\n              dup1\n              iszero\n              tag_172\n              jumpi\n                /* \"--CODEGEN--\":30:31   */\n              0x00\n                /* \"--CODEGEN--\":27:28   */\n              dup1\n                /* \"--CODEGEN--\":20:32   */\n              revert\n                /* \"--CODEGEN--\":5:7   */\n            tag_172:\n                /* \"contracts/kalyswap-core/KalyswapPair.sol\":4625:4664  IERC20(token0).balanceOf(address(this)) */\n              pop\n              gas\n              staticcall\n              iszero\n                /* \"--CODEGEN--\":8:17   */\n              dup1\n                /* \"--CODEGEN--\":5:7   */\n              iszero\n              tag_173\n              jumpi\n                /* \"--CODEGEN--\":45:61   */\n              returndatasize\n                /* \"--CODEGEN--\":42:43   */\n              0x00\n                /* \"--CODEGEN--\":39:40   */\n              dup1\n                /* \"--CODEGEN--\":24:62   */\n              returndatacopy\n                /* \"--CODEGEN--\":77:93   */\n              returndatasize\n                /* \"--CODEGEN--\":74:75   */\n              0x00\n                /* \"--CODEGEN--\":67:94   */\n              revert\n                /* \"--CODEGEN--\":5:7   */\n            tag_173:\n                /* \"contracts/kalyswap-core/KalyswapPair.sol\":4625:4664  IERC20(token0).balanceOf(address(this)) */\n              pop\n              pop\n              pop\n              pop\n              mload(0x40)\n              returndatasize\n                /* \"--CODEGEN--\":13:15   */\n              0x20\n                /* \"--CODEGEN--\":8:11   */\n              dup2\n                /* \"--CODEGEN--\":5:16   */\n              lt\n                /* \"--CODEGEN--\":2:4   */\n              iszero\n              tag_174\n              jumpi\n                /* \"--CODEGEN--\":29:30   */\n              0x00\n                /* \"--CODEGEN--\":26:27   */\n              dup1\n                /* \"--CODEGEN--\":19:31   */\n              revert\n                /* \"--CODEGEN--\":2:4   */\n            tag_174:\n              pop\n                /* \"contracts/kalyswap-core/KalyswapPair.sol\":4625:4664  IERC20(token0).balanceOf(address(this)) */\n              mload\n                /* \"contracts/kalyswap-core/KalyswapPair.sol\":4697:4703  token1 */\n              sload(0x07)\n                /* \"contracts/kalyswap-core/KalyswapPair.sol\":4690:4729  IERC20(token1).balanceOf(address(this)) */\n              0x40\n              dup1\n              mload\n              shl(0xe0, 0x70a08231)\n              dup2\n              mstore\n                /* \"contracts/kalyswap-core/KalyswapPair.sol\":4723:4727  this */\n              address\n                /* \"contracts/kalyswap-core/KalyswapPair.sol\":4690:4729  IERC20(token1).balanceOf(address(this)) */\n              0x04\n              dup3\n              add\n              mstore\n              swap1\n              mload\n                /* \"contracts/kalyswap-core/KalyswapPair.sol\":4625:4664  IERC20(token0).balanceOf(address(this)) */\n              swap3\n              swap4\n              pop\n              0x00\n              swap3\n              sub(shl(0xa0, 0x01), 0x01)\n                /* \"contracts/kalyswap-core/KalyswapPair.sol\":4697:4703  token1 */\n              swap1\n              swap3\n              and\n              swap2\n              0x70a08231\n              swap2\n                /* \"contracts/kalyswap-core/KalyswapPair.sol\":4690:4729  IERC20(token1).balanceOf(address(this)) */\n              0x24\n              dup1\n              dup3\n              add\n              swap3\n                /* \"contracts/kalyswap-core/KalyswapPair.sol\":4625:4664  IERC20(token0).balanceOf(address(this)) */\n              0x20\n              swap3\n                /* \"contracts/kalyswap-core/KalyswapPair.sol\":4690:4729  IERC20(token1).balanceOf(address(this)) */\n              swap1\n              swap2\n              swap1\n              dup3\n              swap1\n              sub\n              add\n              dup2\n                /* \"contracts/kalyswap-core/KalyswapPair.sol\":4697:4703  token1 */\n              dup7\n                /* \"contracts/kalyswap-core/KalyswapPair.sol\":4690:4729  IERC20(token1).balanceOf(address(this)) */\n              dup1\n              extcodesize\n              iszero\n                /* \"--CODEGEN--\":5:7   */\n              dup1\n              iszero\n              tag_175\n              jumpi\n                /* \"--CODEGEN--\":30:31   */\n              0x00\n                /* \"--CODEGEN--\":27:28   */\n              dup1\n                /* \"--CODEGEN--\":20:32   */\n              revert\n                /* \"--CODEGEN--\":5:7   */\n            tag_175:\n                /* \"contracts/kalyswap-core/KalyswapPair.sol\":4690:4729  IERC20(token1).balanceOf(address(this)) */\n              pop\n              gas\n              staticcall\n              iszero\n                /* \"--CODEGEN--\":8:17   */\n              dup1\n                /* \"--CODEGEN--\":5:7   */\n              iszero\n              tag_176\n              jumpi\n                /* \"--CODEGEN--\":45:61   */\n              returndatasize\n                /* \"--CODEGEN--\":42:43   */\n              0x00\n                /* \"--CODEGEN--\":39:40   */\n              dup1\n                /* \"--CODEGEN--\":24:62   */\n              returndatacopy\n                /* \"--CODEGEN--\":77:93   */\n              returndatasize\n                /* \"--CODEGEN--\":74:75   */\n              0x00\n                /* \"--CODEGEN--\":67:94   */\n              revert\n                /* \"--CODEGEN--\":5:7   */\n            tag_176:\n                /* \"contracts/kalyswap-core/KalyswapPair.sol\":4690:4729  IERC20(token1).balanceOf(address(this)) */\n              pop\n              pop\n              pop\n              pop\n              mload(0x40)\n              returndatasize\n                /* \"--CODEGEN--\":13:15   */\n              0x20\n                /* \"--CODEGEN--\":8:11   */\n              dup2\n                /* \"--CODEGEN--\":5:16   */\n              lt\n                /* \"--CODEGEN--\":2:4   */\n              iszero\n              tag_177\n              jumpi\n                /* \"--CODEGEN--\":29:30   */\n              0x00\n                /* \"--CODEGEN--\":26:27   */\n              dup1\n                /* \"--CODEGEN--\":19:31   */\n              revert\n                /* \"--CODEGEN--\":2:4   */\n            tag_177:\n              pop\n                /* \"contracts/kalyswap-core/KalyswapPair.sol\":4690:4729  IERC20(token1).balanceOf(address(this)) */\n              mload\n              swap1\n              pop\n                /* \"contracts/kalyswap-core/KalyswapPair.sol\":4739:4751  uint amount0 */\n              0x00\n                /* \"contracts/kalyswap-core/KalyswapPair.sol\":4754:4777  balance0.sub(_reserve0) */\n              tag_178\n                /* \"contracts/kalyswap-core/KalyswapPair.sol\":4754:4762  balance0 */\n              dup4\n              sub(shl(0x70, 0x01), 0x01)\n                /* \"contracts/kalyswap-core/KalyswapPair.sol\":4754:4777  balance0.sub(_reserve0) */\n              dup8\n              and\n                /* \"contracts/kalyswap-core/KalyswapPair.sol\":4754:4766  balance0.sub */\n              tag_147\n                /* \"contracts/kalyswap-core/KalyswapPair.sol\":4754:4777  balance0.sub(_reserve0) */\n              jump\t// in\n            tag_178:\n                /* \"contracts/kalyswap-core/KalyswapPair.sol\":4739:4777  uint amount0 = balance0.sub(_reserve0) */\n              swap1\n              pop\n                /* \"contracts/kalyswap-core/KalyswapPair.sol\":4787:4799  uint amount1 */\n              0x00\n                /* \"contracts/kalyswap-core/KalyswapPair.sol\":4802:4825  balance1.sub(_reserve1) */\n              tag_179\n                /* \"contracts/kalyswap-core/KalyswapPair.sol\":4802:4810  balance1 */\n              dup4\n              sub(shl(0x70, 0x01), 0x01)\n                /* \"contracts/kalyswap-core/KalyswapPair.sol\":4802:4825  balance1.sub(_reserve1) */\n              dup8\n              and\n                /* \"contracts/kalyswap-core/KalyswapPair.sol\":4802:4814  balance1.sub */\n              tag_147\n                /* \"contracts/kalyswap-core/KalyswapPair.sol\":4802:4825  balance1.sub(_reserve1) */\n              jump\t// in\n            tag_179:\n                /* \"contracts/kalyswap-core/KalyswapPair.sol\":4787:4825  uint amount1 = balance1.sub(_reserve1) */\n              swap1\n              pop\n                /* \"contracts/kalyswap-core/KalyswapPair.sol\":4836:4846  bool feeOn */\n              0x00\n                /* \"contracts/kalyswap-core/KalyswapPair.sol\":4849:4879  _mintFee(_reserve0, _reserve1) */\n              tag_180\n                /* \"contracts/kalyswap-core/KalyswapPair.sol\":4858:4867  _reserve0 */\n              dup8\n                /* \"contracts/kalyswap-core/KalyswapPair.sol\":4869:4878  _reserve1 */\n              dup8\n                /* \"contracts/kalyswap-core/KalyswapPair.sol\":4849:4857  _mintFee */\n              tag_181\n                /* \"contracts/kalyswap-core/KalyswapPair.sol\":4849:4879  _mintFee(_reserve0, _reserve1) */\n              jump\t// in\n            tag_180:\n                /* \"contracts/kalyswap-core/KalyswapPair.sol\":4889:4906  uint _totalSupply */\n              0x00\n                /* \"contracts/kalyswap-core/KalyswapPair.sol\":4909:4920  totalSupply */\n              sload\n                /* \"contracts/kalyswap-core/KalyswapPair.sol\":4836:4879  bool feeOn = _mintFee(_reserve0, _reserve1) */\n              swap1\n              swap2\n              pop\n                /* \"contracts/kalyswap-core/KalyswapPair.sol\":5012:5029  _totalSupply == 0 */\n              dup1\n                /* \"contracts/kalyswap-core/KalyswapPair.sol\":5008:5355  if (_totalSupply == 0) {... */\n              tag_182\n              jumpi\n                /* \"contracts/kalyswap-core/KalyswapPair.sol\":5057:5111  Math.sqrt(amount0.mul(amount1)).sub(MINIMUM_LIQUIDITY) */\n              tag_183\n                /* \"contracts/kalyswap-core/KalyswapPair.sol\":451:456  10**3 */\n              0x03e8\n                /* \"contracts/kalyswap-core/KalyswapPair.sol\":5057:5088  Math.sqrt(amount0.mul(amount1)) */\n              tag_146\n                /* \"contracts/kalyswap-core/KalyswapPair.sol\":5067:5087  amount0.mul(amount1) */\n              tag_185\n                /* \"contracts/kalyswap-core/KalyswapPair.sol\":5067:5074  amount0 */\n              dup8\n                /* \"contracts/kalyswap-core/KalyswapPair.sol\":5079:5086  amount1 */\n              dup8\n                /* \"contracts/kalyswap-core/KalyswapPair.sol\":5067:5087  amount0.mul(amount1) */\n              0xffffffff\n                /* \"contracts/kalyswap-core/KalyswapPair.sol\":5067:5078  amount0.mul */\n              tag_145\n                /* \"contracts/kalyswap-core/KalyswapPair.sol\":5067:5087  amount0.mul(amount1) */\n              and\n              jump\t// in\n            tag_185:\n                /* \"contracts/kalyswap-core/KalyswapPair.sol\":5057:5066  Math.sqrt */\n              tag_186\n                /* \"contracts/kalyswap-core/KalyswapPair.sol\":5057:5088  Math.sqrt(amount0.mul(amount1)) */\n              jump\t// in\n                /* \"contracts/kalyswap-core/KalyswapPair.sol\":5057:5111  Math.sqrt(amount0.mul(amount1)).sub(MINIMUM_LIQUIDITY) */\n            tag_183:\n                /* \"contracts/kalyswap-core/KalyswapPair.sol\":5045:5111  liquidity = Math.sqrt(amount0.mul(amount1)).sub(MINIMUM_LIQUIDITY) */\n              swap9\n              pop\n                /* \"contracts/kalyswap-core/KalyswapPair.sol\":5124:5160  _mint(address(0), MINIMUM_LIQUIDITY) */\n              tag_187\n                /* \"contracts/kalyswap-core/KalyswapPair.sol\":5138:5139  0 */\n              0x00\n                /* \"contracts/kalyswap-core/KalyswapPair.sol\":451:456  10**3 */\n              0x03e8\n                /* \"contracts/kalyswap-core/KalyswapPair.sol\":5124:5129  _mint */\n              tag_188\n                /* \"contracts/kalyswap-core/KalyswapPair.sol\":5124:5160  _mint(address(0), MINIMUM_LIQUIDITY) */\n              jump\t// in\n            tag_187:\n                /* \"contracts/kalyswap-core/KalyswapPair.sol\":5008:5355  if (_totalSupply == 0) {... */\n              jump(tag_189)\n            tag_182:\n                /* \"contracts/kalyswap-core/KalyswapPair.sol\":5258:5344  Math.min(amount0.mul(_totalSupply) / _reserve0, amount1.mul(_totalSupply) / _reserve1) */\n              tag_190\n              sub(shl(0x70, 0x01), 0x01)\n                /* \"contracts/kalyswap-core/KalyswapPair.sol\":5267:5304  amount0.mul(_totalSupply) / _reserve0 */\n              dup10\n              and\n                /* \"contracts/kalyswap-core/KalyswapPair.sol\":5267:5292  amount0.mul(_totalSupply) */\n              tag_191\n                /* \"contracts/kalyswap-core/KalyswapPair.sol\":5267:5274  amount0 */\n              dup7\n                /* \"contracts/kalyswap-core/KalyswapPair.sol\":5279:5291  _totalSupply */\n              dup5\n                /* \"contracts/kalyswap-core/KalyswapPair.sol\":5267:5278  amount0.mul */\n              tag_145\n                /* \"contracts/kalyswap-core/KalyswapPair.sol\":5267:5292  amount0.mul(_totalSupply) */\n              jump\t// in\n            tag_191:\n                /* \"contracts/kalyswap-core/KalyswapPair.sol\":5267:5304  amount0.mul(_totalSupply) / _reserve0 */\n              dup2\n              tag_192\n              jumpi\n              invalid\n            tag_192:\n              div\n              sub(shl(0x70, 0x01), 0x01)\n                /* \"contracts/kalyswap-core/KalyswapPair.sol\":5306:5343  amount1.mul(_totalSupply) / _reserve1 */\n              dup10\n              and\n                /* \"contracts/kalyswap-core/KalyswapPair.sol\":5306:5331  amount1.mul(_totalSupply) */\n              tag_193\n                /* \"contracts/kalyswap-core/KalyswapPair.sol\":5306:5313  amount1 */\n              dup7\n                /* \"contracts/kalyswap-core/KalyswapPair.sol\":5318:5330  _totalSupply */\n              dup6\n                /* \"contracts/kalyswap-core/KalyswapPair.sol\":5306:5317  amount1.mul */\n              tag_145\n                /* \"contracts/kalyswap-core/KalyswapPair.sol\":5306:5331  amount1.mul(_totalSupply) */\n              jump\t// in\n            tag_193:\n                /* \"contracts/kalyswap-core/KalyswapPair.sol\":5306:5343  amount1.mul(_totalSupply) / _reserve1 */\n              dup2\n              tag_194\n              jumpi\n              invalid\n            tag_194:\n              div\n                /* \"contracts/kalyswap-core/KalyswapPair.sol\":5258:5266  Math.min */\n              tag_195\n                /* \"contracts/kalyswap-core/KalyswapPair.sol\":5258:5344  Math.min(amount0.mul(_totalSupply) / _reserve0, amount1.mul(_totalSupply) / _reserve1) */\n              jump\t// in\n            tag_190:\n                /* \"contracts/kalyswap-core/KalyswapPair.sol\":5246:5344  liquidity = Math.min(amount0.mul(_totalSupply) / _reserve0, amount1.mul(_totalSupply) / _reserve1) */\n              swap9\n              pop\n                /* \"contracts/kalyswap-core/KalyswapPair.sol\":5008:5355  if (_totalSupply == 0) {... */\n            tag_189:\n                /* \"contracts/kalyswap-core/KalyswapPair.sol\":5384:5385  0 */\n              0x00\n                /* \"contracts/kalyswap-core/KalyswapPair.sol\":5372:5381  liquidity */\n              dup10\n                /* \"contracts/kalyswap-core/KalyswapPair.sol\":5372:5385  liquidity > 0 */\n              gt\n                /* \"contracts/kalyswap-core/KalyswapPair.sol\":5364:5429  require(liquidity > 0, 'Kalyswap: INSUFFICIENT_LIQUIDITY_MINTED') */\n              tag_196\n              jumpi\n              mload(0x40)\n              shl(0xe5, 0x461bcd)\n              dup2\n              mstore\n              0x04\n              add\n              dup1\n              dup1\n              0x20\n              add\n              dup3\n              dup2\n              sub\n              dup3\n              mstore\n              0x27\n              dup2\n              mstore\n              0x20\n              add\n              dup1\n              data_9ee433e3d6830e1e0d04ac3995c1c7db80ed58256ee7b6fb6a7455d1450d81ba\n              0x27\n              swap2\n              codecopy\n              0x40\n              add\n              swap2\n              pop\n              pop\n              mload(0x40)\n              dup1\n              swap2\n              sub\n              swap1\n              revert\n            tag_196:\n                /* \"contracts/kalyswap-core/KalyswapPair.sol\":5439:5459  _mint(to, liquidity) */\n              tag_197\n                /* \"contracts/kalyswap-core/KalyswapPair.sol\":5445:5447  to */\n              dup11\n                /* \"contracts/kalyswap-core/KalyswapPair.sol\":5449:5458  liquidity */\n              dup11\n                /* \"contracts/kalyswap-core/KalyswapPair.sol\":5439:5444  _mint */\n              tag_188\n                /* \"contracts/kalyswap-core/KalyswapPair.sol\":5439:5459  _mint(to, liquidity) */\n              jump\t// in\n            tag_197:\n                /* \"contracts/kalyswap-core/KalyswapPair.sol\":5470:5519  _update(balance0, balance1, _reserve0, _reserve1) */\n              tag_198\n                /* \"contracts/kalyswap-core/KalyswapPair.sol\":5478:5486  balance0 */\n              dup7\n                /* \"contracts/kalyswap-core/KalyswapPair.sol\":5488:5496  balance1 */\n              dup7\n                /* \"contracts/kalyswap-core/KalyswapPair.sol\":5498:5507  _reserve0 */\n              dup11\n                /* \"contracts/kalyswap-core/KalyswapPair.sol\":5509:5518  _reserve1 */\n              dup11\n                /* \"contracts/kalyswap-core/KalyswapPair.sol\":5470:5477  _update */\n              tag_156\n                /* \"contracts/kalyswap-core/KalyswapPair.sol\":5470:5519  _update(balance0, balance1, _reserve0, _reserve1) */\n              jump\t// in\n            tag_198:\n                /* \"contracts/kalyswap-core/KalyswapPair.sol\":5533:5538  feeOn */\n              dup2\n                /* \"contracts/kalyswap-core/KalyswapPair.sol\":5529:5576  if (feeOn) kLast = uint(reserve0).mul(reserve1) */\n              iszero\n              tag_199\n              jumpi\n                /* \"contracts/kalyswap-core/KalyswapPair.sol\":5567:5575  reserve1 */\n              sload(0x08)\n                /* \"contracts/kalyswap-core/KalyswapPair.sol\":5548:5576  uint(reserve0).mul(reserve1) */\n              tag_200\n              swap1\n              sub(shl(0x70, 0x01), 0x01)\n                /* \"contracts/kalyswap-core/KalyswapPair.sol\":5553:5561  reserve0 */\n              dup1\n              dup3\n              and\n              swap2\n              shl(0x70, 0x01)\n                /* \"contracts/kalyswap-core/KalyswapPair.sol\":5567:5575  reserve1 */\n              swap1\n              div\n              and\n                /* \"contracts/kalyswap-core/KalyswapPair.sol\":5548:5566  uint(reserve0).mul */\n              tag_145\n                /* \"contracts/kalyswap-core/KalyswapPair.sol\":5548:5576  uint(reserve0).mul(reserve1) */\n              jump\t// in\n            tag_200:\n                /* \"contracts/kalyswap-core/KalyswapPair.sol\":5540:5545  kLast */\n              0x0b\n                /* \"contracts/kalyswap-core/KalyswapPair.sol\":5540:5576  kLast = uint(reserve0).mul(reserve1) */\n              sstore\n                /* \"contracts/kalyswap-core/KalyswapPair.sol\":5529:5576  if (feeOn) kLast = uint(reserve0).mul(reserve1) */\n            tag_199:\n                /* \"contracts/kalyswap-core/KalyswapPair.sol\":5631:5665  Mint(msg.sender, amount0, amount1) */\n              0x40\n              dup1\n              mload\n              dup6\n              dup2\n              mstore\n              0x20\n              dup2\n              add\n              dup6\n              swap1\n              mstore\n              dup2\n              mload\n                /* \"contracts/kalyswap-core/KalyswapPair.sol\":5636:5646  msg.sender */\n              caller\n              swap3\n                /* \"contracts/kalyswap-core/KalyswapPair.sol\":5631:5665  Mint(msg.sender, amount0, amount1) */\n              0x4c209b5fc8ad50758f13e2e1088ba56a560dff690a1c6fef26394f4c03821c4f\n              swap3\n              dup3\n              swap1\n              sub\n              add\n              swap1\n              log2\n              pop\n              pop\n                /* \"contracts/kalyswap-core/KalyswapPair.sol\":1262:1263  1 */\n              0x01\n                /* \"contracts/kalyswap-core/KalyswapPair.sol\":1251:1259  unlocked */\n              0x0c\n                /* \"contracts/kalyswap-core/KalyswapPair.sol\":1251:1263  unlocked = 1 */\n              sstore\n              pop\n                /* \"contracts/kalyswap-core/KalyswapPair.sol\":4454:5672  function mint(address to) external lock returns (uint liquidity) {... */\n              swap5\n              swap7\n              swap6\n              pop\n              pop\n              pop\n              pop\n              pop\n              pop\n              jump\t// out\n                /* \"contracts/kalyswap-core/KalyswapERC20.sol\":351:392  mapping(address => uint) public balanceOf */\n            tag_78:\n              mstore(0x20, 0x01)\n              0x00\n              swap1\n              dup2\n              mstore\n              0x40\n              swap1\n              keccak256\n              sload\n              dup2\n              jump\t// out\n                /* \"contracts/kalyswap-core/KalyswapPair.sol\":1005:1022  uint public kLast */\n            tag_80:\n              sload(0x0b)\n              dup2\n              jump\t// out\n                /* \"contracts/kalyswap-core/KalyswapERC20.sol\":721:759  mapping(address => uint) public nonces */\n            tag_83:\n              mstore(0x20, 0x04)\n              0x00\n              swap1\n              dup2\n              mstore\n              0x40\n              swap1\n              keccak256\n              sload\n              dup2\n              jump\t// out\n                /* \"contracts/kalyswap-core/KalyswapPair.sol\":5781:7224  function burn(address to) external lock returns (uint amount0, uint amount1) {... */\n            tag_86:\n                /* \"contracts/kalyswap-core/KalyswapPair.sol\":5830:5842  uint amount0 */\n              0x00\n                /* \"contracts/kalyswap-core/KalyswapPair.sol\":5844:5856  uint amount1 */\n              dup1\n                /* \"contracts/kalyswap-core/KalyswapPair.sol\":1174:1182  unlocked */\n              sload(0x0c)\n                /* \"contracts/kalyswap-core/KalyswapPair.sol\":1186:1187  1 */\n              0x01\n                /* \"contracts/kalyswap-core/KalyswapPair.sol\":1174:1187  unlocked == 1 */\n              eq\n                /* \"contracts/kalyswap-core/KalyswapPair.sol\":1166:1208  require(unlocked == 1, 'Kalyswap: LOCKED') */\n              tag_202\n              jumpi\n              0x40\n              dup1\n              mload\n              shl(0xe5, 0x461bcd)\n              dup2\n              mstore\n              0x20\n              0x04\n              dup3\n              add\n              mstore\n              0x10\n              0x24\n              dup3\n              add\n              mstore\n              shl(0x82, 0x12d85b1e5cddd85c0e881313d0d2d151)\n              0x44\n              dup3\n              add\n              mstore\n              swap1\n              mload\n              swap1\n              dup2\n              swap1\n              sub\n              0x64\n              add\n              swap1\n              revert\n            tag_202:\n                /* \"contracts/kalyswap-core/KalyswapPair.sol\":1229:1230  0 */\n              0x00\n                /* \"contracts/kalyswap-core/KalyswapPair.sol\":1218:1226  unlocked */\n              0x0c\n                /* \"contracts/kalyswap-core/KalyswapPair.sol\":1218:1230  unlocked = 0 */\n              dup2\n              swap1\n              sstore\n                /* \"contracts/kalyswap-core/KalyswapPair.sol\":1229:1230  0 */\n              dup1\n                /* \"contracts/kalyswap-core/KalyswapPair.sol\":5910:5923  getReserves() */\n              tag_204\n                /* \"contracts/kalyswap-core/KalyswapPair.sol\":5910:5921  getReserves */\n              tag_49\n                /* \"contracts/kalyswap-core/KalyswapPair.sol\":5910:5923  getReserves() */\n              jump\t// in\n            tag_204:\n              pop\n                /* \"contracts/kalyswap-core/KalyswapPair.sol\":5966:5972  token0 */\n              sload(0x06)\n                /* \"contracts/kalyswap-core/KalyswapPair.sol\":6046:6052  token1 */\n              sload(0x07)\n                /* \"contracts/kalyswap-core/KalyswapPair.sol\":6124:6164  IERC20(_token0).balanceOf(address(this)) */\n              0x40\n              dup1\n              mload\n              shl(0xe0, 0x70a08231)\n              dup2\n              mstore\n                /* \"contracts/kalyswap-core/KalyswapPair.sol\":6158:6162  this */\n              address\n                /* \"contracts/kalyswap-core/KalyswapPair.sol\":6124:6164  IERC20(_token0).balanceOf(address(this)) */\n              0x04\n              dup3\n              add\n              mstore\n              swap1\n              mload\n                /* \"contracts/kalyswap-core/KalyswapPair.sol\":5868:5923  (uint112 _reserve0, uint112 _reserve1,) = getReserves() */\n              swap5\n              swap7\n              pop\n              swap3\n              swap5\n              pop\n              sub(shl(0xa0, 0x01), 0x01)\n                /* \"contracts/kalyswap-core/KalyswapPair.sol\":5966:5972  token0 */\n              swap2\n              dup3\n              and\n              swap4\n                /* \"contracts/kalyswap-core/KalyswapPair.sol\":6046:6052  token1 */\n              swap2\n              and\n              swap2\n              0x00\n              swap2\n                /* \"contracts/kalyswap-core/KalyswapPair.sol\":5966:5972  token0 */\n              dup5\n              swap2\n              0x70a08231\n              swap2\n                /* \"contracts/kalyswap-core/KalyswapPair.sol\":6124:6164  IERC20(_token0).balanceOf(address(this)) */\n              0x24\n              dup1\n              dup4\n              add\n              swap3\n              0x20\n              swap3\n              swap2\n              swap1\n              dup3\n              swap1\n              sub\n              add\n              dup2\n                /* \"contracts/kalyswap-core/KalyswapPair.sol\":5966:5972  token0 */\n              dup7\n                /* \"contracts/kalyswap-core/KalyswapPair.sol\":6124:6164  IERC20(_token0).balanceOf(address(this)) */\n              dup1\n              extcodesize\n              iszero\n                /* \"--CODEGEN--\":5:7   */\n              dup1\n              iszero\n              tag_205\n              jumpi\n                /* \"--CODEGEN--\":30:31   */\n              0x00\n                /* \"--CODEGEN--\":27:28   */\n              dup1\n                /* \"--CODEGEN--\":20:32   */\n              revert\n                /* \"--CODEGEN--\":5:7   */\n            tag_205:\n                /* \"contracts/kalyswap-core/KalyswapPair.sol\":6124:6164  IERC20(_token0).balanceOf(address(this)) */\n              pop\n              gas\n              staticcall\n              iszero\n                /* \"--CODEGEN--\":8:17   */\n              dup1\n                /* \"--CODEGEN--\":5:7   */\n              iszero\n              tag_206\n              jumpi\n                /* \"--CODEGEN--\":45:61   */\n              returndatasize\n                /* \"--CODEGEN--\":42:43   */\n              0x00\n                /* \"--CODEGEN--\":39:40   */\n              dup1\n                /* \"--CODEGEN--\":24:62   */\n              returndatacopy\n                /* \"--CODEGEN--\":77:93   */\n              returndatasize\n                /* \"--CODEGEN--\":74:75   */\n              0x00\n                /* \"--CODEGEN--\":67:94   */\n              revert\n                /* \"--CODEGEN--\":5:7   */\n            tag_206:\n                /* \"contracts/kalyswap-core/KalyswapPair.sol\":6124:6164  IERC20(_token0).balanceOf(address(this)) */\n              pop\n              pop\n              pop\n              pop\n              mload(0x40)\n              returndatasize\n                /* \"--CODEGEN--\":13:15   */\n              0x20\n                /* \"--CODEGEN--\":8:11   */\n              dup2\n                /* \"--CODEGEN--\":5:16   */\n              lt\n                /* \"--CODEGEN--\":2:4   */\n              iszero\n              tag_207\n              jumpi\n                /* \"--CODEGEN--\":29:30   */\n              0x00\n                /* \"--CODEGEN--\":26:27   */\n              dup1\n                /* \"--CODEGEN--\":19:31   */\n              revert\n                /* \"--CODEGEN--\":2:4   */\n            tag_207:\n              pop\n                /* \"contracts/kalyswap-core/KalyswapPair.sol\":6124:6164  IERC20(_token0).balanceOf(address(this)) */\n              mload\n                /* \"contracts/kalyswap-core/KalyswapPair.sol\":6190:6230  IERC20(_token1).balanceOf(address(this)) */\n              0x40\n              dup1\n              mload\n              shl(0xe0, 0x70a08231)\n              dup2\n              mstore\n                /* \"contracts/kalyswap-core/KalyswapPair.sol\":6224:6228  this */\n              address\n                /* \"contracts/kalyswap-core/KalyswapPair.sol\":6190:6230  IERC20(_token1).balanceOf(address(this)) */\n              0x04\n              dup3\n              add\n              mstore\n              swap1\n              mload\n                /* \"contracts/kalyswap-core/KalyswapPair.sol\":6124:6164  IERC20(_token0).balanceOf(address(this)) */\n              swap2\n              swap3\n              pop\n              0x00\n              swap2\n              sub(shl(0xa0, 0x01), 0x01)\n                /* \"contracts/kalyswap-core/KalyswapPair.sol\":6190:6215  IERC20(_token1).balanceOf */\n              dup6\n              and\n              swap2\n              0x70a08231\n              swap2\n                /* \"contracts/kalyswap-core/KalyswapPair.sol\":6190:6230  IERC20(_token1).balanceOf(address(this)) */\n              0x24\n              dup1\n              dup4\n              add\n              swap3\n                /* \"contracts/kalyswap-core/KalyswapPair.sol\":6124:6164  IERC20(_token0).balanceOf(address(this)) */\n              0x20\n              swap3\n                /* \"contracts/kalyswap-core/KalyswapPair.sol\":6190:6230  IERC20(_token1).balanceOf(address(this)) */\n              swap2\n              swap1\n              dup3\n              swap1\n              sub\n              add\n              dup2\n                /* \"contracts/kalyswap-core/KalyswapPair.sol\":6190:6215  IERC20(_token1).balanceOf */\n              dup7\n                /* \"contracts/kalyswap-core/KalyswapPair.sol\":6190:6230  IERC20(_token1).balanceOf(address(this)) */\n              dup1\n              extcodesize\n              iszero\n                /* \"--CODEGEN--\":5:7   */\n              dup1\n              iszero\n              tag_208\n              jumpi\n                /* \"--CODEGEN--\":30:31   */\n              0x00\n                /* \"--CODEGEN--\":27:28   */\n              dup1\n                /* \"--CODEGEN--\":20:32   */\n              revert\n                /* \"--CODEGEN--\":5:7   */\n            tag_208:\n                /* \"contracts/kalyswap-core/KalyswapPair.sol\":6190:6230  IERC20(_token1).balanceOf(address(this)) */\n              pop\n              gas\n              staticcall\n              iszero\n                /* \"--CODEGEN--\":8:17   */\n              dup1\n                /* \"--CODEGEN--\":5:7   */\n              iszero\n              tag_209\n              jumpi\n                /* \"--CODEGEN--\":45:61   */\n              returndatasize\n                /* \"--CODEGEN--\":42:43   */\n              0x00\n                /* \"--CODEGEN--\":39:40   */\n              dup1\n                /* \"--CODEGEN--\":24:62   */\n              returndatacopy\n                /* \"--CODEGEN--\":77:93   */\n              returndatasize\n                /* \"--CODEGEN--\":74:75   */\n              0x00\n                /* \"--CODEGEN--\":67:94   */\n              revert\n                /* \"--CODEGEN--\":5:7   */\n            tag_209:\n                /* \"contracts/kalyswap-core/KalyswapPair.sol\":6190:6230  IERC20(_token1).balanceOf(address(this)) */\n              pop\n              pop\n              pop\n              pop\n              mload(0x40)\n              returndatasize\n                /* \"--CODEGEN--\":13:15   */\n              0x20\n                /* \"--CODEGEN--\":8:11   */\n              dup2\n                /* \"--CODEGEN--\":5:16   */\n              lt\n                /* \"--CODEGEN--\":2:4   */\n              iszero\n              tag_210\n              jumpi\n                /* \"--CODEGEN--\":29:30   */\n              0x00\n                /* \"--CODEGEN--\":26:27   */\n              dup1\n                /* \"--CODEGEN--\":19:31   */\n              revert\n                /* \"--CODEGEN--\":2:4   */\n            tag_210:\n              pop\n                /* \"contracts/kalyswap-core/KalyswapPair.sol\":6190:6230  IERC20(_token1).balanceOf(address(this)) */\n              mload\n                /* \"contracts/kalyswap-core/KalyswapPair.sol\":6275:6279  this */\n              address\n                /* \"contracts/kalyswap-core/KalyswapPair.sol\":6240:6254  uint liquidity */\n              0x00\n                /* \"contracts/kalyswap-core/KalyswapPair.sol\":6257:6281  balanceOf[address(this)] */\n              swap1\n              dup2\n              mstore\n                /* \"contracts/kalyswap-core/KalyswapPair.sol\":6257:6266  balanceOf */\n              0x01\n                /* \"contracts/kalyswap-core/KalyswapPair.sol\":6190:6230  IERC20(_token1).balanceOf(address(this)) */\n              0x20\n                /* \"contracts/kalyswap-core/KalyswapPair.sol\":6257:6281  balanceOf[address(this)] */\n              mstore\n              0x40\n              dup2\n              keccak256\n              sload\n                /* \"contracts/kalyswap-core/KalyswapPair.sol\":6190:6230  IERC20(_token1).balanceOf(address(this)) */\n              swap2\n              swap3\n              pop\n                /* \"contracts/kalyswap-core/KalyswapPair.sol\":6305:6335  _mintFee(_reserve0, _reserve1) */\n              tag_211\n                /* \"contracts/kalyswap-core/KalyswapPair.sol\":6314:6323  _reserve0 */\n              dup9\n                /* \"contracts/kalyswap-core/KalyswapPair.sol\":6325:6334  _reserve1 */\n              dup9\n                /* \"contracts/kalyswap-core/KalyswapPair.sol\":6305:6313  _mintFee */\n              tag_181\n                /* \"contracts/kalyswap-core/KalyswapPair.sol\":6305:6335  _mintFee(_reserve0, _reserve1) */\n              jump\t// in\n            tag_211:\n                /* \"contracts/kalyswap-core/KalyswapPair.sol\":6345:6362  uint _totalSupply */\n              0x00\n                /* \"contracts/kalyswap-core/KalyswapPair.sol\":6365:6376  totalSupply */\n              sload\n                /* \"contracts/kalyswap-core/KalyswapPair.sol\":6292:6335  bool feeOn = _mintFee(_reserve0, _reserve1) */\n              swap1\n              swap2\n              pop\n                /* \"contracts/kalyswap-core/KalyswapPair.sol\":6365:6376  totalSupply */\n              dup1\n                /* \"contracts/kalyswap-core/KalyswapPair.sol\":6474:6497  liquidity.mul(balance0) */\n              tag_212\n                /* \"contracts/kalyswap-core/KalyswapPair.sol\":6474:6483  liquidity */\n              dup5\n                /* \"contracts/kalyswap-core/KalyswapPair.sol\":6488:6496  balance0 */\n              dup8\n                /* \"contracts/kalyswap-core/KalyswapPair.sol\":6474:6497  liquidity.mul(balance0) */\n              0xffffffff\n                /* \"contracts/kalyswap-core/KalyswapPair.sol\":6474:6487  liquidity.mul */\n              tag_145\n                /* \"contracts/kalyswap-core/KalyswapPair.sol\":6474:6497  liquidity.mul(balance0) */\n              and\n              jump\t// in\n            tag_212:\n                /* \"contracts/kalyswap-core/KalyswapPair.sol\":6474:6512  liquidity.mul(balance0) / _totalSupply */\n              dup2\n              tag_213\n              jumpi\n              invalid\n            tag_213:\n              div\n              swap11\n              pop\n                /* \"contracts/kalyswap-core/KalyswapPair.sol\":6606:6618  _totalSupply */\n              dup1\n                /* \"contracts/kalyswap-core/KalyswapPair.sol\":6580:6603  liquidity.mul(balance1) */\n              tag_214\n                /* \"contracts/kalyswap-core/KalyswapPair.sol\":6580:6589  liquidity */\n              dup5\n                /* \"contracts/kalyswap-core/KalyswapPair.sol\":6594:6602  balance1 */\n              dup7\n                /* \"contracts/kalyswap-core/KalyswapPair.sol\":6580:6603  liquidity.mul(balance1) */\n              0xffffffff\n                /* \"contracts/kalyswap-core/KalyswapPair.sol\":6580:6593  liquidity.mul */\n              tag_145\n                /* \"contracts/kalyswap-core/KalyswapPair.sol\":6580:6603  liquidity.mul(balance1) */\n              and\n              jump\t// in\n            tag_214:\n                /* \"contracts/kalyswap-core/KalyswapPair.sol\":6580:6618  liquidity.mul(balance1) / _totalSupply */\n              dup2\n              tag_215\n              jumpi\n              invalid\n            tag_215:\n              div\n                /* \"contracts/kalyswap-core/KalyswapPair.sol\":6570:6618  amount1 = liquidity.mul(balance1) / _totalSupply */\n              swap10\n              pop\n                /* \"contracts/kalyswap-core/KalyswapPair.sol\":6694:6695  0 */\n              0x00\n                /* \"contracts/kalyswap-core/KalyswapPair.sol\":6684:6691  amount0 */\n              dup12\n                /* \"contracts/kalyswap-core/KalyswapPair.sol\":6684:6695  amount0 > 0 */\n              gt\n                /* \"contracts/kalyswap-core/KalyswapPair.sol\":6684:6710  amount0 > 0 && amount1 > 0 */\n              dup1\n              iszero\n              tag_216\n              jumpi\n              pop\n                /* \"contracts/kalyswap-core/KalyswapPair.sol\":6709:6710  0 */\n              0x00\n                /* \"contracts/kalyswap-core/KalyswapPair.sol\":6699:6706  amount1 */\n              dup11\n                /* \"contracts/kalyswap-core/KalyswapPair.sol\":6699:6710  amount1 > 0 */\n              gt\n                /* \"contracts/kalyswap-core/KalyswapPair.sol\":6684:6710  amount0 > 0 && amount1 > 0 */\n            tag_216:\n                /* \"contracts/kalyswap-core/KalyswapPair.sol\":6676:6754  require(amount0 > 0 && amount1 > 0, 'Kalyswap: INSUFFICIENT_LIQUIDITY_BURNED') */\n              tag_217\n              jumpi\n              mload(0x40)\n              shl(0xe5, 0x461bcd)\n              dup2\n              mstore\n              0x04\n              add\n              dup1\n              dup1\n              0x20\n              add\n              dup3\n              dup2\n              sub\n              dup3\n              mstore\n              0x27\n              dup2\n              mstore\n              0x20\n              add\n              dup1\n              data_e5e2a845b8424aa9f019bfb478b8094907c6e08ef0e71b5ca527cdbc32a0d5c3\n              0x27\n              swap2\n              codecopy\n              0x40\n              add\n              swap2\n              pop\n              pop\n              mload(0x40)\n              dup1\n              swap2\n              sub\n              swap1\n              revert\n            tag_217:\n                /* \"contracts/kalyswap-core/KalyswapPair.sol\":6764:6795  _burn(address(this), liquidity) */\n              tag_218\n                /* \"contracts/kalyswap-core/KalyswapPair.sol\":6778:6782  this */\n              address\n                /* \"contracts/kalyswap-core/KalyswapPair.sol\":6785:6794  liquidity */\n              dup5\n                /* \"contracts/kalyswap-core/KalyswapPair.sol\":6764:6769  _burn */\n              tag_219\n                /* \"contracts/kalyswap-core/KalyswapPair.sol\":6764:6795  _burn(address(this), liquidity) */\n              jump\t// in\n            tag_218:\n                /* \"contracts/kalyswap-core/KalyswapPair.sol\":6805:6840  _safeTransfer(_token0, to, amount0) */\n              tag_220\n                /* \"contracts/kalyswap-core/KalyswapPair.sol\":6819:6826  _token0 */\n              dup8\n                /* \"contracts/kalyswap-core/KalyswapPair.sol\":6828:6830  to */\n              dup14\n                /* \"contracts/kalyswap-core/KalyswapPair.sol\":6832:6839  amount0 */\n              dup14\n                /* \"contracts/kalyswap-core/KalyswapPair.sol\":6805:6818  _safeTransfer */\n              tag_125\n                /* \"contracts/kalyswap-core/KalyswapPair.sol\":6805:6840  _safeTransfer(_token0, to, amount0) */\n              jump\t// in\n            tag_220:\n                /* \"contracts/kalyswap-core/KalyswapPair.sol\":6850:6885  _safeTransfer(_token1, to, amount1) */\n              tag_221\n                /* \"contracts/kalyswap-core/KalyswapPair.sol\":6864:6871  _token1 */\n              dup7\n                /* \"contracts/kalyswap-core/KalyswapPair.sol\":6873:6875  to */\n              dup14\n                /* \"contracts/kalyswap-core/KalyswapPair.sol\":6877:6884  amount1 */\n              dup13\n                /* \"contracts/kalyswap-core/KalyswapPair.sol\":6850:6863  _safeTransfer */\n              tag_125\n                /* \"contracts/kalyswap-core/KalyswapPair.sol\":6850:6885  _safeTransfer(_token1, to, amount1) */\n              jump\t// in\n            tag_221:\n                /* \"contracts/kalyswap-core/KalyswapPair.sol\":6906:6946  IERC20(_token0).balanceOf(address(this)) */\n              0x40\n              dup1\n              mload\n              shl(0xe0, 0x70a08231)\n              dup2\n              mstore\n                /* \"contracts/kalyswap-core/KalyswapPair.sol\":6940:6944  this */\n              address\n                /* \"contracts/kalyswap-core/KalyswapPair.sol\":6906:6946  IERC20(_token0).balanceOf(address(this)) */\n              0x04\n              dup3\n              add\n              mstore\n              swap1\n              mload\n              sub(shl(0xa0, 0x01), 0x01)\n                /* \"contracts/kalyswap-core/KalyswapPair.sol\":6906:6931  IERC20(_token0).balanceOf */\n              dup10\n              and\n              swap2\n              0x70a08231\n              swap2\n                /* \"contracts/kalyswap-core/KalyswapPair.sol\":6906:6946  IERC20(_token0).balanceOf(address(this)) */\n              0x24\n              dup1\n              dup4\n              add\n              swap3\n              0x20\n              swap3\n              swap2\n              swap1\n              dup3\n              swap1\n              sub\n              add\n              dup2\n                /* \"contracts/kalyswap-core/KalyswapPair.sol\":6906:6931  IERC20(_token0).balanceOf */\n              dup7\n                /* \"contracts/kalyswap-core/KalyswapPair.sol\":6906:6946  IERC20(_token0).balanceOf(address(this)) */\n              dup1\n              extcodesize\n              iszero\n                /* \"--CODEGEN--\":5:7   */\n              dup1\n              iszero\n              tag_222\n              jumpi\n                /* \"--CODEGEN--\":30:31   */\n              0x00\n                /* \"--CODEGEN--\":27:28   */\n              dup1\n                /* \"--CODEGEN--\":20:32   */\n              revert\n                /* \"--CODEGEN--\":5:7   */\n            tag_222:\n                /* \"contracts/kalyswap-core/KalyswapPair.sol\":6906:6946  IERC20(_token0).balanceOf(address(this)) */\n              pop\n              gas\n              staticcall\n              iszero\n                /* \"--CODEGEN--\":8:17   */\n              dup1\n                /* \"--CODEGEN--\":5:7   */\n              iszero\n              tag_223\n              jumpi\n                /* \"--CODEGEN--\":45:61   */\n              returndatasize\n                /* \"--CODEGEN--\":42:43   */\n              0x00\n                /* \"--CODEGEN--\":39:40   */\n              dup1\n                /* \"--CODEGEN--\":24:62   */\n              returndatacopy\n                /* \"--CODEGEN--\":77:93   */\n              returndatasize\n                /* \"--CODEGEN--\":74:75   */\n              0x00\n                /* \"--CODEGEN--\":67:94   */\n              revert\n                /* \"--CODEGEN--\":5:7   */\n            tag_223:\n                /* \"contracts/kalyswap-core/KalyswapPair.sol\":6906:6946  IERC20(_token0).balanceOf(address(this)) */\n              pop\n              pop\n              pop\n              pop\n              mload(0x40)\n              returndatasize\n                /* \"--CODEGEN--\":13:15   */\n              0x20\n                /* \"--CODEGEN--\":8:11   */\n              dup2\n                /* \"--CODEGEN--\":5:16   */\n              lt\n                /* \"--CODEGEN--\":2:4   */\n              iszero\n              tag_224\n              jumpi\n                /* \"--CODEGEN--\":29:30   */\n              0x00\n                /* \"--CODEGEN--\":26:27   */\n              dup1\n                /* \"--CODEGEN--\":19:31   */\n              revert\n                /* \"--CODEGEN--\":2:4   */\n            tag_224:\n              pop\n                /* \"contracts/kalyswap-core/KalyswapPair.sol\":6906:6946  IERC20(_token0).balanceOf(address(this)) */\n              mload\n                /* \"contracts/kalyswap-core/KalyswapPair.sol\":6967:7007  IERC20(_token1).balanceOf(address(this)) */\n              0x40\n              dup1\n              mload\n              shl(0xe0, 0x70a08231)\n              dup2\n              mstore\n                /* \"contracts/kalyswap-core/KalyswapPair.sol\":7001:7005  this */\n              address\n                /* \"contracts/kalyswap-core/KalyswapPair.sol\":6967:7007  IERC20(_token1).balanceOf(address(this)) */\n              0x04\n              dup3\n              add\n              mstore\n              swap1\n              mload\n                /* \"contracts/kalyswap-core/KalyswapPair.sol\":6906:6946  IERC20(_token0).balanceOf(address(this)) */\n              swap2\n              swap7\n              pop\n              sub(shl(0xa0, 0x01), 0x01)\n                /* \"contracts/kalyswap-core/KalyswapPair.sol\":6967:6992  IERC20(_token1).balanceOf */\n              dup9\n              and\n              swap2\n              0x70a08231\n              swap2\n                /* \"contracts/kalyswap-core/KalyswapPair.sol\":6967:7007  IERC20(_token1).balanceOf(address(this)) */\n              0x24\n              dup1\n              dup3\n              add\n              swap3\n                /* \"contracts/kalyswap-core/KalyswapPair.sol\":6906:6946  IERC20(_token0).balanceOf(address(this)) */\n              0x20\n              swap3\n                /* \"contracts/kalyswap-core/KalyswapPair.sol\":6967:7007  IERC20(_token1).balanceOf(address(this)) */\n              swap1\n              swap2\n              swap1\n              dup3\n              swap1\n              sub\n              add\n              dup2\n                /* \"contracts/kalyswap-core/KalyswapPair.sol\":6967:6992  IERC20(_token1).balanceOf */\n              dup7\n                /* \"contracts/kalyswap-core/KalyswapPair.sol\":6967:7007  IERC20(_token1).balanceOf(address(this)) */\n              dup1\n              extcodesize\n              iszero\n                /* \"--CODEGEN--\":5:7   */\n              dup1\n              iszero\n              tag_225\n              jumpi\n                /* \"--CODEGEN--\":30:31   */\n              0x00\n                /* \"--CODEGEN--\":27:28   */\n              dup1\n                /* \"--CODEGEN--\":20:32   */\n              revert\n                /* \"--CODEGEN--\":5:7   */\n            tag_225:\n                /* \"contracts/kalyswap-core/KalyswapPair.sol\":6967:7007  IERC20(_token1).balanceOf(address(this)) */\n              pop\n              gas\n              staticcall\n              iszero\n                /* \"--CODEGEN--\":8:17   */\n              dup1\n                /* \"--CODEGEN--\":5:7   */\n              iszero\n              tag_226\n              jumpi\n                /* \"--CODEGEN--\":45:61   */\n              returndatasize\n                /* \"--CODEGEN--\":42:43   */\n              0x00\n                /* \"--CODEGEN--\":39:40   */\n              dup1\n                /* \"--CODEGEN--\":24:62   */\n              returndatacopy\n                /* \"--CODEGEN--\":77:93   */\n              returndatasize\n                /* \"--CODEGEN--\":74:75   */\n              0x00\n                /* \"--CODEGEN--\":67:94   */\n              revert\n                /* \"--CODEGEN--\":5:7   */\n            tag_226:\n                /* \"contracts/kalyswap-core/KalyswapPair.sol\":6967:7007  IERC20(_token1).balanceOf(address(this)) */\n              pop\n              pop\n              pop\n              pop\n              mload(0x40)\n              returndatasize\n                /* \"--CODEGEN--\":13:15   */\n              0x20\n                /* \"--CODEGEN--\":8:11   */\n              dup2\n                /* \"--CODEGEN--\":5:16   */\n              lt\n                /* \"--CODEGEN--\":2:4   */\n              iszero\n              tag_227\n              jumpi\n                /* \"--CODEGEN--\":29:30   */\n              0x00\n                /* \"--CODEGEN--\":26:27   */\n              dup1\n                /* \"--CODEGEN--\":19:31   */\n              revert\n                /* \"--CODEGEN--\":2:4   */\n            tag_227:\n              pop\n                /* \"contracts/kalyswap-core/KalyswapPair.sol\":6967:7007  IERC20(_token1).balanceOf(address(this)) */\n              mload\n              swap4\n              pop\n                /* \"contracts/kalyswap-core/KalyswapPair.sol\":7018:7067  _update(balance0, balance1, _reserve0, _reserve1) */\n              tag_228\n                /* \"contracts/kalyswap-core/KalyswapPair.sol\":7026:7034  balance0 */\n              dup6\n                /* \"contracts/kalyswap-core/KalyswapPair.sol\":6967:7007  IERC20(_token1).balanceOf(address(this)) */\n              dup6\n                /* \"contracts/kalyswap-core/KalyswapPair.sol\":7046:7055  _reserve0 */\n              dup12\n                /* \"contracts/kalyswap-core/KalyswapPair.sol\":7057:7066  _reserve1 */\n              dup12\n                /* \"contracts/kalyswap-core/KalyswapPair.sol\":7018:7025  _update */\n              tag_156\n                /* \"contracts/kalyswap-core/KalyswapPair.sol\":7018:7067  _update(balance0, balance1, _reserve0, _reserve1) */\n              jump\t// in\n            tag_228:\n                /* \"contracts/kalyswap-core/KalyswapPair.sol\":7081:7086  feeOn */\n              dup2\n                /* \"contracts/kalyswap-core/KalyswapPair.sol\":7077:7124  if (feeOn) kLast = uint(reserve0).mul(reserve1) */\n              iszero\n              tag_229\n              jumpi\n                /* \"contracts/kalyswap-core/KalyswapPair.sol\":7115:7123  reserve1 */\n              sload(0x08)\n                /* \"contracts/kalyswap-core/KalyswapPair.sol\":7096:7124  uint(reserve0).mul(reserve1) */\n              tag_230\n              swap1\n              sub(shl(0x70, 0x01), 0x01)\n                /* \"contracts/kalyswap-core/KalyswapPair.sol\":7101:7109  reserve0 */\n              dup1\n              dup3\n              and\n              swap2\n              shl(0x70, 0x01)\n                /* \"contracts/kalyswap-core/KalyswapPair.sol\":7115:7123  reserve1 */\n              swap1\n              div\n              and\n                /* \"contracts/kalyswap-core/KalyswapPair.sol\":7096:7114  uint(reserve0).mul */\n              tag_145\n                /* \"contracts/kalyswap-core/KalyswapPair.sol\":7096:7124  uint(reserve0).mul(reserve1) */\n              jump\t// in\n            tag_230:\n                /* \"contracts/kalyswap-core/KalyswapPair.sol\":7088:7093  kLast */\n              0x0b\n                /* \"contracts/kalyswap-core/KalyswapPair.sol\":7088:7124  kLast = uint(reserve0).mul(reserve1) */\n              sstore\n                /* \"contracts/kalyswap-core/KalyswapPair.sol\":7077:7124  if (feeOn) kLast = uint(reserve0).mul(reserve1) */\n            tag_229:\n                /* \"contracts/kalyswap-core/KalyswapPair.sol\":7179:7217  Burn(msg.sender, amount0, amount1, to) */\n              0x40\n              dup1\n              mload\n              dup13\n              dup2\n              mstore\n              0x20\n              dup2\n              add\n              dup13\n              swap1\n              mstore\n              dup2\n              mload\n              sub(shl(0xa0, 0x01), 0x01)\n              dup16\n              and\n              swap3\n                /* \"contracts/kalyswap-core/KalyswapPair.sol\":7184:7194  msg.sender */\n              caller\n              swap3\n                /* \"contracts/kalyswap-core/KalyswapPair.sol\":7179:7217  Burn(msg.sender, amount0, amount1, to) */\n              0xdccd412f0b1252819cb1fd330b93224ca42612892bb3f4f789976e6d81936496\n              swap3\n              swap1\n              dup2\n              swap1\n              sub\n              swap1\n              swap2\n              add\n              swap1\n              log3\n                /* \"contracts/kalyswap-core/KalyswapPair.sol\":1240:1241  _ */\n              pop\n              pop\n              pop\n              pop\n              pop\n              pop\n              pop\n              pop\n              pop\n                /* \"contracts/kalyswap-core/KalyswapPair.sol\":1262:1263  1 */\n              0x01\n                /* \"contracts/kalyswap-core/KalyswapPair.sol\":1251:1259  unlocked */\n              0x0c\n                /* \"contracts/kalyswap-core/KalyswapPair.sol\":1251:1263  unlocked = 1 */\n              dup2\n              swap1\n              sstore\n              pop\n                /* \"contracts/kalyswap-core/KalyswapPair.sol\":5781:7224  function burn(address to) external lock returns (uint amount0, uint amount1) {... */\n              swap2\n              pop\n              swap2\n              jump\t// out\n                /* \"contracts/kalyswap-core/KalyswapERC20.sol\":237:274  string public constant symbol = 'KSL' */\n            tag_88:\n              0x40\n              dup1\n              mload\n              dup1\n              dup3\n              add\n              swap1\n              swap2\n              mstore\n              0x03\n              dup2\n              mstore\n              shl(0xea, 0x12d4d3)\n              0x20\n              dup3\n              add\n              mstore\n              dup2\n              jump\t// out\n                /* \"contracts/kalyswap-core/KalyswapERC20.sol\":2329:2465  function transfer(address to, uint value) external returns (bool) {... */\n            tag_95:\n                /* \"contracts/kalyswap-core/KalyswapERC20.sol\":2389:2393  bool */\n              0x00\n                /* \"contracts/kalyswap-core/KalyswapERC20.sol\":2405:2437  _transfer(msg.sender, to, value) */\n              tag_159\n                /* \"contracts/kalyswap-core/KalyswapERC20.sol\":2415:2425  msg.sender */\n              caller\n                /* \"contracts/kalyswap-core/KalyswapERC20.sol\":2427:2429  to */\n              dup5\n                /* \"contracts/kalyswap-core/KalyswapERC20.sol\":2431:2436  value */\n              dup5\n                /* \"contracts/kalyswap-core/KalyswapERC20.sol\":2405:2414  _transfer */\n              tag_165\n                /* \"contracts/kalyswap-core/KalyswapERC20.sol\":2405:2437  _transfer(msg.sender, to, value) */\n              jump\t// in\n                /* \"contracts/kalyswap-core/KalyswapPair.sol\":410:456  uint public constant MINIMUM_LIQUIDITY = 10**3 */\n            tag_97:\n                /* \"contracts/kalyswap-core/KalyswapPair.sol\":451:456  10**3 */\n              0x03e8\n                /* \"contracts/kalyswap-core/KalyswapPair.sol\":410:456  uint public constant MINIMUM_LIQUIDITY = 10**3 */\n              dup2\n              jump\t// out\n                /* \"contracts/kalyswap-core/KalyswapPair.sol\":9233:9562  function skim(address to) external lock {... */\n            tag_100:\n                /* \"contracts/kalyswap-core/KalyswapPair.sol\":1174:1182  unlocked */\n              sload(0x0c)\n                /* \"contracts/kalyswap-core/KalyswapPair.sol\":1186:1187  1 */\n              0x01\n                /* \"contracts/kalyswap-core/KalyswapPair.sol\":1174:1187  unlocked == 1 */\n              eq\n                /* \"contracts/kalyswap-core/KalyswapPair.sol\":1166:1208  require(unlocked == 1, 'Kalyswap: LOCKED') */\n              tag_234\n              jumpi\n              0x40\n              dup1\n              mload\n              shl(0xe5, 0x461bcd)\n              dup2\n              mstore\n              0x20\n              0x04\n              dup3\n              add\n              mstore\n              0x10\n              0x24\n              dup3\n              add\n              mstore\n              shl(0x82, 0x12d85b1e5cddd85c0e881313d0d2d151)\n              0x44\n              dup3\n              add\n              mstore\n              swap1\n              mload\n              swap1\n              dup2\n              swap1\n              sub\n              0x64\n              add\n              swap1\n              revert\n            tag_234:\n                /* \"contracts/kalyswap-core/KalyswapPair.sol\":1229:1230  0 */\n              0x00\n                /* \"contracts/kalyswap-core/KalyswapPair.sol\":1218:1226  unlocked */\n              0x0c\n                /* \"contracts/kalyswap-core/KalyswapPair.sol\":1218:1230  unlocked = 0 */\n              sstore\n                /* \"contracts/kalyswap-core/KalyswapPair.sol\":9301:9307  token0 */\n              sload(0x06)\n                /* \"contracts/kalyswap-core/KalyswapPair.sol\":9350:9356  token1 */\n              sload(0x07)\n                /* \"contracts/kalyswap-core/KalyswapPair.sol\":9453:9461  reserve0 */\n              sload(0x08)\n                /* \"contracts/kalyswap-core/KalyswapPair.sol\":9408:9448  IERC20(_token0).balanceOf(address(this)) */\n              0x40\n              dup1\n              mload\n              shl(0xe0, 0x70a08231)\n              dup2\n              mstore\n                /* \"contracts/kalyswap-core/KalyswapPair.sol\":9442:9446  this */\n              address\n                /* \"contracts/kalyswap-core/KalyswapPair.sol\":9408:9448  IERC20(_token0).balanceOf(address(this)) */\n              0x04\n              dup3\n              add\n              mstore\n              swap1\n              mload\n              sub(shl(0xa0, 0x01), 0x01)\n                /* \"contracts/kalyswap-core/KalyswapPair.sol\":9301:9307  token0 */\n              swap5\n              dup6\n              and\n              swap5\n                /* \"contracts/kalyswap-core/KalyswapPair.sol\":9350:9356  token1 */\n              swap1\n              swap4\n              and\n              swap3\n                /* \"contracts/kalyswap-core/KalyswapPair.sol\":9381:9463  _safeTransfer(_token0, to, IERC20(_token0).balanceOf(address(this)).sub(reserve0)) */\n              tag_236\n              swap3\n                /* \"contracts/kalyswap-core/KalyswapPair.sol\":9301:9307  token0 */\n              dup6\n              swap3\n                /* \"contracts/kalyswap-core/KalyswapPair.sol\":9404:9406  to */\n              dup8\n              swap3\n                /* \"contracts/kalyswap-core/KalyswapPair.sol\":9408:9462  IERC20(_token0).balanceOf(address(this)).sub(reserve0) */\n              tag_237\n              swap3\n              sub(shl(0x70, 0x01), 0x01)\n                /* \"contracts/kalyswap-core/KalyswapPair.sol\":9453:9461  reserve0 */\n              and\n              swap2\n                /* \"contracts/kalyswap-core/KalyswapPair.sol\":9301:9307  token0 */\n              dup6\n              swap2\n              0x70a08231\n              swap2\n                /* \"contracts/kalyswap-core/KalyswapPair.sol\":9408:9448  IERC20(_token0).balanceOf(address(this)) */\n              0x24\n              dup1\n              dup3\n              add\n              swap3\n              0x20\n              swap3\n              swap1\n              swap2\n              swap1\n              dup3\n              swap1\n              sub\n              add\n              dup2\n                /* \"contracts/kalyswap-core/KalyswapPair.sol\":9301:9307  token0 */\n              dup7\n                /* \"contracts/kalyswap-core/KalyswapPair.sol\":9408:9448  IERC20(_token0).balanceOf(address(this)) */\n              dup1\n              extcodesize\n              iszero\n                /* \"--CODEGEN--\":5:7   */\n              dup1\n              iszero\n              tag_238\n              jumpi\n                /* \"--CODEGEN--\":30:31   */\n              0x00\n                /* \"--CODEGEN--\":27:28   */\n              dup1\n                /* \"--CODEGEN--\":20:32   */\n              revert\n                /* \"--CODEGEN--\":5:7   */\n            tag_238:\n                /* \"contracts/kalyswap-core/KalyswapPair.sol\":9408:9448  IERC20(_token0).balanceOf(address(this)) */\n              pop\n              gas\n              staticcall\n              iszero\n                /* \"--CODEGEN--\":8:17   */\n              dup1\n                /* \"--CODEGEN--\":5:7   */\n              iszero\n              tag_239\n              jumpi\n                /* \"--CODEGEN--\":45:61   */\n              returndatasize\n                /* \"--CODEGEN--\":42:43   */\n              0x00\n                /* \"--CODEGEN--\":39:40   */\n              dup1\n                /* \"--CODEGEN--\":24:62   */\n              returndatacopy\n                /* \"--CODEGEN--\":77:93   */\n              returndatasize\n                /* \"--CODEGEN--\":74:75   */\n              0x00\n                /* \"--CODEGEN--\":67:94   */\n              revert\n                /* \"--CODEGEN--\":5:7   */\n            tag_239:\n                /* \"contracts/kalyswap-core/KalyswapPair.sol\":9408:9448  IERC20(_token0).balanceOf(address(this)) */\n              pop\n              pop\n              pop\n              pop\n              mload(0x40)\n              returndatasize\n                /* \"--CODEGEN--\":13:15   */\n              0x20\n                /* \"--CODEGEN--\":8:11   */\n              dup2\n                /* \"--CODEGEN--\":5:16   */\n              lt\n                /* \"--CODEGEN--\":2:4   */\n              iszero\n              tag_240\n              jumpi\n                /* \"--CODEGEN--\":29:30   */\n              0x00\n                /* \"--CODEGEN--\":26:27   */\n              dup1\n                /* \"--CODEGEN--\":19:31   */\n              revert\n                /* \"--CODEGEN--\":2:4   */\n            tag_240:\n              pop\n                /* \"contracts/kalyswap-core/KalyswapPair.sol\":9408:9448  IERC20(_token0).balanceOf(address(this)) */\n              mload\n              swap1\n                /* \"contracts/kalyswap-core/KalyswapPair.sol\":9408:9462  IERC20(_token0).balanceOf(address(this)).sub(reserve0) */\n              0xffffffff\n                /* \"contracts/kalyswap-core/KalyswapPair.sol\":9408:9452  IERC20(_token0).balanceOf(address(this)).sub */\n              tag_147\n                /* \"contracts/kalyswap-core/KalyswapPair.sol\":9408:9462  IERC20(_token0).balanceOf(address(this)).sub(reserve0) */\n              and\n              jump\t// in\n            tag_237:\n                /* \"contracts/kalyswap-core/KalyswapPair.sol\":9381:9394  _safeTransfer */\n              tag_125\n                /* \"contracts/kalyswap-core/KalyswapPair.sol\":9381:9463  _safeTransfer(_token0, to, IERC20(_token0).balanceOf(address(this)).sub(reserve0)) */\n              jump\t// in\n            tag_236:\n                /* \"contracts/kalyswap-core/KalyswapPair.sol\":9545:9553  reserve1 */\n              sload(0x08)\n                /* \"contracts/kalyswap-core/KalyswapPair.sol\":9500:9540  IERC20(_token1).balanceOf(address(this)) */\n              0x40\n              dup1\n              mload\n              shl(0xe0, 0x70a08231)\n              dup2\n              mstore\n                /* \"contracts/kalyswap-core/KalyswapPair.sol\":9534:9538  this */\n              address\n                /* \"contracts/kalyswap-core/KalyswapPair.sol\":9500:9540  IERC20(_token1).balanceOf(address(this)) */\n              0x04\n              dup3\n              add\n              mstore\n              swap1\n              mload\n                /* \"contracts/kalyswap-core/KalyswapPair.sol\":9473:9555  _safeTransfer(_token1, to, IERC20(_token1).balanceOf(address(this)).sub(reserve1)) */\n              tag_241\n              swap3\n                /* \"contracts/kalyswap-core/KalyswapPair.sol\":9487:9494  _token1 */\n              dup5\n              swap3\n                /* \"contracts/kalyswap-core/KalyswapPair.sol\":9496:9498  to */\n              dup8\n              swap3\n                /* \"contracts/kalyswap-core/KalyswapPair.sol\":9500:9554  IERC20(_token1).balanceOf(address(this)).sub(reserve1) */\n              tag_237\n              swap3\n              shl(0x70, 0x01)\n                /* \"contracts/kalyswap-core/KalyswapPair.sol\":9545:9553  reserve1 */\n              swap1\n              div\n              sub(shl(0x70, 0x01), 0x01)\n              and\n              swap2\n              sub(shl(0xa0, 0x01), 0x01)\n                /* \"contracts/kalyswap-core/KalyswapPair.sol\":9500:9525  IERC20(_token1).balanceOf */\n              dup7\n              and\n              swap2\n              0x70a08231\n              swap2\n                /* \"contracts/kalyswap-core/KalyswapPair.sol\":9500:9540  IERC20(_token1).balanceOf(address(this)) */\n              0x24\n              dup1\n              dup3\n              add\n              swap3\n              0x20\n              swap3\n              swap1\n              swap2\n              swap1\n              dup3\n              swap1\n              sub\n              add\n              dup2\n                /* \"contracts/kalyswap-core/KalyswapPair.sol\":9500:9525  IERC20(_token1).balanceOf */\n              dup7\n                /* \"contracts/kalyswap-core/KalyswapPair.sol\":9500:9540  IERC20(_token1).balanceOf(address(this)) */\n              dup1\n              extcodesize\n              iszero\n                /* \"--CODEGEN--\":5:7   */\n              dup1\n              iszero\n              tag_238\n              jumpi\n                /* \"--CODEGEN--\":30:31   */\n              0x00\n                /* \"--CODEGEN--\":27:28   */\n              dup1\n                /* \"--CODEGEN--\":20:32   */\n              revert\n                /* \"contracts/kalyswap-core/KalyswapPair.sol\":9473:9555  _safeTransfer(_token1, to, IERC20(_token1).balanceOf(address(this)).sub(reserve1)) */\n            tag_241:\n              pop\n              pop\n                /* \"contracts/kalyswap-core/KalyswapPair.sol\":1262:1263  1 */\n              0x01\n                /* \"contracts/kalyswap-core/KalyswapPair.sol\":1251:1259  unlocked */\n              0x0c\n                /* \"contracts/kalyswap-core/KalyswapPair.sol\":1251:1263  unlocked = 1 */\n              sstore\n              pop\n                /* \"contracts/kalyswap-core/KalyswapPair.sol\":9233:9562  function skim(address to) external lock {... */\n              jump\t// out\n                /* \"contracts/kalyswap-core/KalyswapPair.sol\":557:579  address public factory */\n            tag_102:\n              and(sub(shl(0xa0, 0x01), 0x01), sload(0x05))\n              dup2\n              jump\t// out\n                /* \"contracts/kalyswap-core/KalyswapPair.sol\":612:633  address public token1 */\n            tag_104:\n              and(sub(shl(0xa0, 0x01), 0x01), sload(0x07))\n              dup2\n              jump\t// out\n                /* \"contracts/kalyswap-core/KalyswapERC20.sol\":2772:3432  function permit(address owner, address spender, uint value, uint deadline, uint8 v, bytes32 r, bytes32 s) external {... */\n            tag_107:\n                /* \"contracts/kalyswap-core/KalyswapERC20.sol\":2917:2932  block.timestamp */\n              timestamp\n                /* \"contracts/kalyswap-core/KalyswapERC20.sol\":2905:2913  deadline */\n              dup5\n                /* \"contracts/kalyswap-core/KalyswapERC20.sol\":2905:2932  deadline >= block.timestamp */\n              lt\n              iszero\n                /* \"contracts/kalyswap-core/KalyswapERC20.sol\":2897:2954  require(deadline >= block.timestamp, 'Kalyswap: EXPIRED') */\n              tag_247\n              jumpi\n              0x40\n              dup1\n              mload\n              shl(0xe5, 0x461bcd)\n              dup2\n              mstore\n              0x20\n              0x04\n              dup3\n              add\n              mstore\n              0x11\n              0x24\n              dup3\n              add\n              mstore\n              shl(0x7a, 0x12d85b1e5cddd85c0e8811561412549151)\n              0x44\n              dup3\n              add\n              mstore\n              swap1\n              mload\n              swap1\n              dup2\n              swap1\n              sub\n              0x64\n              add\n              swap1\n              revert\n            tag_247:\n                /* \"contracts/kalyswap-core/KalyswapERC20.sol\":3066:3082  DOMAIN_SEPARATOR */\n              sload(0x03)\n              sub(shl(0xa0, 0x01), 0x01)\n                /* \"contracts/kalyswap-core/KalyswapERC20.sol\":3161:3174  nonces[owner] */\n              dup9\n              dup2\n              and\n                /* \"contracts/kalyswap-core/KalyswapERC20.sol\":2964:2978  bytes32 digest */\n              0x00\n                /* \"contracts/kalyswap-core/KalyswapERC20.sol\":3161:3174  nonces[owner] */\n              dup2\n              dup2\n              mstore\n                /* \"contracts/kalyswap-core/KalyswapERC20.sol\":3161:3167  nonces */\n              0x04\n                /* \"contracts/kalyswap-core/KalyswapERC20.sol\":3161:3174  nonces[owner] */\n              0x20\n              swap1\n              dup2\n              mstore\n              0x40\n              dup1\n              dup4\n              keccak256\n                /* \"contracts/kalyswap-core/KalyswapERC20.sol\":3161:3176  nonces[owner]++ */\n              dup1\n              sload\n              0x01\n              dup2\n              dup2\n              add\n              swap1\n              swap3\n              sstore\n                /* \"contracts/kalyswap-core/KalyswapERC20.sol\":3110:3187  abi.encode(PERMIT_TYPEHASH, owner, spender, value, nonces[owner]++, deadline) */\n              dup3\n              mload\n                /* \"contracts/kalyswap-core/KalyswapERC20.sol\":649:715  0x6e71edae12b1b97f4d1f60370fef10105fa2faae0126114a169c64845d6126c9 */\n              0x6e71edae12b1b97f4d1f60370fef10105fa2faae0126114a169c64845d6126c9\n                /* \"contracts/kalyswap-core/KalyswapERC20.sol\":3110:3187  abi.encode(PERMIT_TYPEHASH, owner, spender, value, nonces[owner]++, deadline) */\n              dup2\n              dup7\n              add\n              mstore\n              dup1\n              dup5\n              add\n              swap7\n              swap1\n              swap7\n              mstore\n              swap6\n              dup14\n              and\n              0x60\n              dup7\n              add\n              mstore\n              0x80\n              dup6\n              add\n              dup13\n              swap1\n              mstore\n              0xa0\n              dup6\n              add\n              swap6\n              swap1\n              swap6\n              mstore\n              0xc0\n              dup1\n              dup6\n              add\n              dup12\n              swap1\n              mstore\n              dup2\n              mload\n                /* \"--CODEGEN--\":26:47   */\n              dup1\n              dup7\n              sub\n                /* \"--CODEGEN--\":22:54   */\n              swap1\n              swap2\n              add\n                /* \"--CODEGEN--\":6:55   */\n              dup2\n              mstore\n                /* \"contracts/kalyswap-core/KalyswapERC20.sol\":3110:3187  abi.encode(PERMIT_TYPEHASH, owner, spender, value, nonces[owner]++, deadline) */\n              0xe0\n              dup6\n              add\n              dup3\n              mstore\n                /* \"contracts/kalyswap-core/KalyswapERC20.sol\":3100:3188  keccak256(abi.encode(PERMIT_TYPEHASH, owner, spender, value, nonces[owner]++, deadline)) */\n              dup1\n              mload\n              swap1\n              dup4\n              add\n              keccak256\n              shl(0xf0, 0x1901)\n                /* \"contracts/kalyswap-core/KalyswapERC20.sol\":3004:3202  abi.encodePacked(... */\n              0x0100\n              dup7\n              add\n              mstore\n              0x0102\n              dup6\n              add\n              swap7\n              swap1\n              swap7\n              mstore\n              0x0122\n              dup1\n              dup6\n              add\n              swap7\n              swap1\n              swap7\n              mstore\n              dup1\n              mload\n                /* \"--CODEGEN--\":26:47   */\n              dup1\n              dup6\n              sub\n                /* \"--CODEGEN--\":22:54   */\n              swap1\n              swap7\n              add\n                /* \"--CODEGEN--\":6:55   */\n              dup7\n              mstore\n                /* \"contracts/kalyswap-core/KalyswapERC20.sol\":3004:3202  abi.encodePacked(... */\n              0x0142\n              dup5\n              add\n              dup1\n              dup3\n              mstore\n                /* \"contracts/kalyswap-core/KalyswapERC20.sol\":2981:3212  keccak256(... */\n              dup7\n              mload\n              swap7\n              dup4\n              add\n              swap7\n              swap1\n              swap7\n              keccak256\n                /* \"contracts/kalyswap-core/KalyswapERC20.sol\":3249:3275  ecrecover(digest, v, r, s) */\n              swap6\n              dup4\n              swap1\n              mstore\n              0x0162\n              dup5\n              add\n              dup1\n              dup3\n              mstore\n              dup7\n              swap1\n              mstore\n              0xff\n              dup10\n              and\n              0x0182\n              dup6\n              add\n              mstore\n              0x01a2\n              dup5\n              add\n              dup9\n              swap1\n              mstore\n              0x01c2\n              dup5\n              add\n              dup8\n              swap1\n              mstore\n              mload\n                /* \"contracts/kalyswap-core/KalyswapERC20.sol\":2964:2978  bytes32 digest */\n              swap2\n              swap4\n              swap3\n                /* \"contracts/kalyswap-core/KalyswapERC20.sol\":3249:3275  ecrecover(digest, v, r, s) */\n              0x01e2\n              dup1\n              dup3\n              add\n              swap4\n              not(0x1f)\n              dup2\n              add\n              swap3\n              dup2\n              swap1\n              sub\n              swap1\n              swap2\n              add\n              swap1\n              dup6\n              gas\n              staticcall\n              iszero\n                /* \"--CODEGEN--\":8:17   */\n              dup1\n                /* \"--CODEGEN--\":5:7   */\n              iszero\n              tag_248\n              jumpi\n                /* \"--CODEGEN--\":45:61   */\n              returndatasize\n                /* \"--CODEGEN--\":42:43   */\n              0x00\n                /* \"--CODEGEN--\":39:40   */\n              dup1\n                /* \"--CODEGEN--\":24:62   */\n              returndatacopy\n                /* \"--CODEGEN--\":77:93   */\n              returndatasize\n                /* \"--CODEGEN--\":74:75   */\n              0x00\n                /* \"--CODEGEN--\":67:94   */\n              revert\n                /* \"--CODEGEN--\":5:7   */\n            tag_248:\n              pop\n              pop\n                /* \"contracts/kalyswap-core/KalyswapERC20.sol\":3249:3275  ecrecover(digest, v, r, s) */\n              mload(add(not(0x1f), mload(0x40)))\n              swap2\n              pop\n              pop\n              sub(shl(0xa0, 0x01), 0x01)\n                /* \"contracts/kalyswap-core/KalyswapERC20.sol\":3293:3323  recoveredAddress != address(0) */\n              dup2\n              and\n              iszero\n              dup1\n              iszero\n              swap1\n                /* \"contracts/kalyswap-core/KalyswapERC20.sol\":3293:3352  recoveredAddress != address(0) && recoveredAddress == owner */\n              tag_249\n              jumpi\n              pop\n              sub(shl(0xa0, 0x01), 0x01)\n                /* \"contracts/kalyswap-core/KalyswapERC20.sol\":3327:3352  recoveredAddress == owner */\n              dup2\n              dup2\n              and\n              swap1\n              dup11\n              and\n              eq\n                /* \"contracts/kalyswap-core/KalyswapERC20.sol\":3293:3352  recoveredAddress != address(0) && recoveredAddress == owner */\n            tag_249:\n                /* \"contracts/kalyswap-core/KalyswapERC20.sol\":3285:3384  require(recoveredAddress != address(0) && recoveredAddress == owner, 'Kalyswap: INVALID_SIGNATURE') */\n              tag_250\n              jumpi\n              0x40\n              dup1\n              mload\n              shl(0xe5, 0x461bcd)\n              dup2\n              mstore\n              0x20\n              0x04\n              dup3\n              add\n              mstore\n              0x1b\n              0x24\n              dup3\n              add\n              mstore\n              0x4b616c79737761703a20494e56414c49445f5349474e41545552450000000000\n              0x44\n              dup3\n              add\n              mstore\n              swap1\n              mload\n              swap1\n              dup2\n              swap1\n              sub\n              0x64\n              add\n              swap1\n              revert\n            tag_250:\n                /* \"contracts/kalyswap-core/KalyswapERC20.sol\":3394:3425  _approve(owner, spender, value) */\n              tag_251\n                /* \"contracts/kalyswap-core/KalyswapERC20.sol\":3403:3408  owner */\n              dup10\n                /* \"contracts/kalyswap-core/KalyswapERC20.sol\":3410:3417  spender */\n              dup10\n                /* \"contracts/kalyswap-core/KalyswapERC20.sol\":3419:3424  value */\n              dup10\n                /* \"contracts/kalyswap-core/KalyswapERC20.sol\":3394:3402  _approve */\n              tag_160\n                /* \"contracts/kalyswap-core/KalyswapERC20.sol\":3394:3425  _approve(owner, spender, value) */\n              jump\t// in\n            tag_251:\n                /* \"contracts/kalyswap-core/KalyswapERC20.sol\":2772:3432  function permit(address owner, address spender, uint value, uint deadline, uint8 v, bytes32 r, bytes32 s) external {... */\n              pop\n              pop\n              pop\n              pop\n              pop\n              pop\n              pop\n              pop\n              pop\n              jump\t// out\n                /* \"contracts/kalyswap-core/KalyswapERC20.sol\":398:459  mapping(address => mapping(address => uint)) public allowance */\n            tag_110:\n              0x02\n              0x20\n              swap1\n              dup2\n              mstore\n              0x00\n              swap3\n              dup4\n              mstore\n              0x40\n              dup1\n              dup5\n              keccak256\n              swap1\n              swap2\n              mstore\n              swap1\n              dup3\n              mstore\n              swap1\n              keccak256\n              sload\n              dup2\n              jump\t// out\n                /* \"contracts/kalyswap-core/KalyswapPair.sol\":9608:9764  function sync() external lock {... */\n            tag_112:\n                /* \"contracts/kalyswap-core/KalyswapPair.sol\":1174:1182  unlocked */\n              sload(0x0c)\n                /* \"contracts/kalyswap-core/KalyswapPair.sol\":1186:1187  1 */\n              0x01\n                /* \"contracts/kalyswap-core/KalyswapPair.sol\":1174:1187  unlocked == 1 */\n              eq\n                /* \"contracts/kalyswap-core/KalyswapPair.sol\":1166:1208  require(unlocked == 1, 'Kalyswap: LOCKED') */\n              tag_253\n              jumpi\n              0x40\n              dup1\n              mload\n              shl(0xe5, 0x461bcd)\n              dup2\n              mstore\n              0x20\n              0x04\n              dup3\n              add\n              mstore\n              0x10\n              0x24\n              dup3\n              add\n              mstore\n              shl(0x82, 0x12d85b1e5cddd85c0e881313d0d2d151)\n              0x44\n              dup3\n              add\n              mstore\n              swap1\n              mload\n              swap1\n              dup2\n              swap1\n              sub\n              0x64\n              add\n              swap1\n              revert\n            tag_253:\n                /* \"contracts/kalyswap-core/KalyswapPair.sol\":1229:1230  0 */\n              0x00\n                /* \"contracts/kalyswap-core/KalyswapPair.sol\":1218:1226  unlocked */\n              0x0c\n                /* \"contracts/kalyswap-core/KalyswapPair.sol\":1218:1230  unlocked = 0 */\n              sstore\n                /* \"contracts/kalyswap-core/KalyswapPair.sol\":9663:9669  token0 */\n              sload(0x06)\n                /* \"contracts/kalyswap-core/KalyswapPair.sol\":9656:9695  IERC20(token0).balanceOf(address(this)) */\n              0x40\n              dup1\n              mload\n              shl(0xe0, 0x70a08231)\n              dup2\n              mstore\n                /* \"contracts/kalyswap-core/KalyswapPair.sol\":9689:9693  this */\n              address\n                /* \"contracts/kalyswap-core/KalyswapPair.sol\":9656:9695  IERC20(token0).balanceOf(address(this)) */\n              0x04\n              dup3\n              add\n              mstore\n              swap1\n              mload\n                /* \"contracts/kalyswap-core/KalyswapPair.sol\":9648:9757  _update(IERC20(token0).balanceOf(address(this)), IERC20(token1).balanceOf(address(this)), reserve0, reserve1) */\n              tag_255\n              swap3\n              sub(shl(0xa0, 0x01), 0x01)\n                /* \"contracts/kalyswap-core/KalyswapPair.sol\":9663:9669  token0 */\n              and\n              swap2\n              0x70a08231\n              swap2\n                /* \"contracts/kalyswap-core/KalyswapPair.sol\":9656:9695  IERC20(token0).balanceOf(address(this)) */\n              0x24\n              dup1\n              dup4\n              add\n              swap3\n              0x20\n              swap3\n              swap2\n              swap1\n              dup3\n              swap1\n              sub\n              add\n              dup2\n                /* \"contracts/kalyswap-core/KalyswapPair.sol\":9663:9669  token0 */\n              dup7\n                /* \"contracts/kalyswap-core/KalyswapPair.sol\":9656:9695  IERC20(token0).balanceOf(address(this)) */\n              dup1\n              extcodesize\n              iszero\n                /* \"--CODEGEN--\":5:7   */\n              dup1\n              iszero\n              tag_256\n              jumpi\n                /* \"--CODEGEN--\":30:31   */\n              0x00\n                /* \"--CODEGEN--\":27:28   */\n              dup1\n                /* \"--CODEGEN--\":20:32   */\n              revert\n                /* \"--CODEGEN--\":5:7   */\n            tag_256:\n                /* \"contracts/kalyswap-core/KalyswapPair.sol\":9656:9695  IERC20(token0).balanceOf(address(this)) */\n              pop\n              gas\n              staticcall\n              iszero\n                /* \"--CODEGEN--\":8:17   */\n              dup1\n                /* \"--CODEGEN--\":5:7   */\n              iszero\n              tag_257\n              jumpi\n                /* \"--CODEGEN--\":45:61   */\n              returndatasize\n                /* \"--CODEGEN--\":42:43   */\n              0x00\n                /* \"--CODEGEN--\":39:40   */\n              dup1\n                /* \"--CODEGEN--\":24:62   */\n              returndatacopy\n                /* \"--CODEGEN--\":77:93   */\n              returndatasize\n                /* \"--CODEGEN--\":74:75   */\n              0x00\n                /* \"--CODEGEN--\":67:94   */\n              revert\n                /* \"--CODEGEN--\":5:7   */\n            tag_257:\n                /* \"contracts/kalyswap-core/KalyswapPair.sol\":9656:9695  IERC20(token0).balanceOf(address(this)) */\n              pop\n              pop\n              pop\n              pop\n              mload(0x40)\n              returndatasize\n                /* \"--CODEGEN--\":13:15   */\n              0x20\n                /* \"--CODEGEN--\":8:11   */\n              dup2\n                /* \"--CODEGEN--\":5:16   */\n              lt\n                /* \"--CODEGEN--\":2:4   */\n              iszero\n              tag_258\n              jumpi\n                /* \"--CODEGEN--\":29:30   */\n              0x00\n                /* \"--CODEGEN--\":26:27   */\n              dup1\n                /* \"--CODEGEN--\":19:31   */\n              revert\n                /* \"--CODEGEN--\":2:4   */\n            tag_258:\n              pop\n                /* \"contracts/kalyswap-core/KalyswapPair.sol\":9656:9695  IERC20(token0).balanceOf(address(this)) */\n              mload\n                /* \"contracts/kalyswap-core/KalyswapPair.sol\":9704:9710  token1 */\n              sload(0x07)\n                /* \"contracts/kalyswap-core/KalyswapPair.sol\":9697:9736  IERC20(token1).balanceOf(address(this)) */\n              0x40\n              dup1\n              mload\n              shl(0xe0, 0x70a08231)\n              dup2\n              mstore\n                /* \"contracts/kalyswap-core/KalyswapPair.sol\":9730:9734  this */\n              address\n                /* \"contracts/kalyswap-core/KalyswapPair.sol\":9697:9736  IERC20(token1).balanceOf(address(this)) */\n              0x04\n              dup3\n              add\n              mstore\n              swap1\n              mload\n              sub(shl(0xa0, 0x01), 0x01)\n                /* \"contracts/kalyswap-core/KalyswapPair.sol\":9704:9710  token1 */\n              swap1\n              swap3\n              and\n              swap2\n              0x70a08231\n              swap2\n                /* \"contracts/kalyswap-core/KalyswapPair.sol\":9697:9736  IERC20(token1).balanceOf(address(this)) */\n              0x24\n              dup1\n              dup3\n              add\n              swap3\n                /* \"contracts/kalyswap-core/KalyswapPair.sol\":9656:9695  IERC20(token0).balanceOf(address(this)) */\n              0x20\n              swap3\n                /* \"contracts/kalyswap-core/KalyswapPair.sol\":9697:9736  IERC20(token1).balanceOf(address(this)) */\n              swap1\n              swap2\n              swap1\n              dup3\n              swap1\n              sub\n              add\n              dup2\n                /* \"contracts/kalyswap-core/KalyswapPair.sol\":9704:9710  token1 */\n              dup7\n                /* \"contracts/kalyswap-core/KalyswapPair.sol\":9697:9736  IERC20(token1).balanceOf(address(this)) */\n              dup1\n              extcodesize\n              iszero\n                /* \"--CODEGEN--\":5:7   */\n              dup1\n              iszero\n              tag_259\n              jumpi\n                /* \"--CODEGEN--\":30:31   */\n              0x00\n                /* \"--CODEGEN--\":27:28   */\n              dup1\n                /* \"--CODEGEN--\":20:32   */\n              revert\n                /* \"--CODEGEN--\":5:7   */\n            tag_259:\n                /* \"contracts/kalyswap-core/KalyswapPair.sol\":9697:9736  IERC20(token1).balanceOf(address(this)) */\n              pop\n              gas\n              staticcall\n              iszero\n                /* \"--CODEGEN--\":8:17   */\n              dup1\n                /* \"--CODEGEN--\":5:7   */\n              iszero\n              tag_260\n              jumpi\n                /* \"--CODEGEN--\":45:61   */\n              returndatasize\n                /* \"--CODEGEN--\":42:43   */\n              0x00\n                /* \"--CODEGEN--\":39:40   */\n              dup1\n                /* \"--CODEGEN--\":24:62   */\n              returndatacopy\n                /* \"--CODEGEN--\":77:93   */\n              returndatasize\n                /* \"--CODEGEN--\":74:75   */\n              0x00\n                /* \"--CODEGEN--\":67:94   */\n              revert\n                /* \"--CODEGEN--\":5:7   */\n            tag_260:\n                /* \"contracts/kalyswap-core/KalyswapPair.sol\":9697:9736  IERC20(token1).balanceOf(address(this)) */\n              pop\n              pop\n              pop\n              pop\n              mload(0x40)\n              returndatasize\n                /* \"--CODEGEN--\":13:15   */\n              0x20\n                /* \"--CODEGEN--\":8:11   */\n              dup2\n                /* \"--CODEGEN--\":5:16   */\n              lt\n                /* \"--CODEGEN--\":2:4   */\n              iszero\n              tag_261\n              jumpi\n                /* \"--CODEGEN--\":29:30   */\n              0x00\n                /* \"--CODEGEN--\":26:27   */\n              dup1\n                /* \"--CODEGEN--\":19:31   */\n              revert\n                /* \"--CODEGEN--\":2:4   */\n            tag_261:\n              pop\n                /* \"contracts/kalyswap-core/KalyswapPair.sol\":9697:9736  IERC20(token1).balanceOf(address(this)) */\n              mload\n                /* \"contracts/kalyswap-core/KalyswapPair.sol\":9738:9746  reserve0 */\n              sload(0x08)\n              sub(shl(0x70, 0x01), 0x01)\n              dup1\n              dup3\n              and\n              swap2\n              shl(0x70, 0x01)\n                /* \"contracts/kalyswap-core/KalyswapPair.sol\":9748:9756  reserve1 */\n              swap1\n              div\n              and\n                /* \"contracts/kalyswap-core/KalyswapPair.sol\":9648:9655  _update */\n              tag_156\n                /* \"contracts/kalyswap-core/KalyswapPair.sol\":9648:9757  _update(IERC20(token0).balanceOf(address(this)), IERC20(token1).balanceOf(address(this)), reserve0, reserve1) */\n              jump\t// in\n            tag_255:\n                /* \"contracts/kalyswap-core/KalyswapPair.sol\":1262:1263  1 */\n              0x01\n                /* \"contracts/kalyswap-core/KalyswapPair.sol\":1251:1259  unlocked */\n              0x0c\n                /* \"contracts/kalyswap-core/KalyswapPair.sol\":1251:1263  unlocked = 1 */\n              sstore\n                /* \"contracts/kalyswap-core/KalyswapPair.sol\":9608:9764  function sync() external lock {... */\n              jump\t// out\n                /* \"contracts/kalyswap-core/KalyswapPair.sol\":1509:1792  function _safeTransfer(address token, address to, uint value) private {... */\n            tag_125:\n                /* \"contracts/kalyswap-core/KalyswapPair.sol\":514:548  bytes('transfer(address,uint256)') */\n              0x40\n              dup1\n              mload\n              dup1\n              dup3\n              add\n              dup3\n              mstore\n              0x19\n              dup2\n              mstore\n              0x7472616e7366657228616464726573732c75696e743235362900000000000000\n              0x20\n              swap2\n              dup3\n              add\n              mstore\n                /* \"contracts/kalyswap-core/KalyswapPair.sol\":1636:1679  abi.encodeWithSelector(SELECTOR, to, value) */\n              dup2\n              mload\n              sub(shl(0xa0, 0x01), 0x01)\n              dup6\n              dup2\n              and\n              0x24\n              dup4\n              add\n              mstore\n              0x44\n              dup1\n              dup4\n              add\n              dup7\n              swap1\n              mstore\n              dup5\n              mload\n                /* \"--CODEGEN--\":26:47   */\n              dup1\n              dup5\n              sub\n                /* \"--CODEGEN--\":22:54   */\n              swap1\n              swap2\n              add\n                /* \"--CODEGEN--\":6:55   */\n              dup2\n              mstore\n                /* \"contracts/kalyswap-core/KalyswapPair.sol\":1636:1679  abi.encodeWithSelector(SELECTOR, to, value) */\n              0x64\n              swap1\n              swap3\n              add\n              dup5\n              mstore\n                /* \"--CODEGEN--\":25:43   */\n              swap2\n              dup2\n              add\n                /* \"--CODEGEN--\":61:78   */\n              dup1\n              mload\n              sub(shl(0xe0, 0x01), 0x01)\n                /* \"--CODEGEN--\":182:197   */\n              and\n              shl(0xe0, 0xa9059cbb)\n                /* \"--CODEGEN--\":179:208   */\n              or\n                /* \"--CODEGEN--\":160:209   */\n              dup2\n              mstore\n                /* \"contracts/kalyswap-core/KalyswapPair.sol\":1625:1680  token.call(abi.encodeWithSelector(SELECTOR, to, value)) */\n              swap3\n              mload\n              dup2\n              mload\n              0x00\n              swap5\n                /* \"contracts/kalyswap-core/KalyswapPair.sol\":1604:1621  bytes memory data */\n              0x60\n              swap5\n                /* \"contracts/kalyswap-core/KalyswapPair.sol\":1625:1635  token.call */\n              dup10\n              and\n              swap4\n                /* \"contracts/kalyswap-core/KalyswapPair.sol\":1636:1679  abi.encodeWithSelector(SELECTOR, to, value) */\n              swap3\n                /* \"contracts/kalyswap-core/KalyswapPair.sol\":1625:1680  token.call(abi.encodeWithSelector(SELECTOR, to, value)) */\n              swap2\n              dup3\n              swap2\n                /* \"--CODEGEN--\":25:43   */\n              swap1\n                /* \"contracts/kalyswap-core/KalyswapPair.sol\":1625:1680  token.call(abi.encodeWithSelector(SELECTOR, to, value)) */\n              dup1\n              dup4\n                /* \"--CODEGEN--\":25:43   */\n              dup4\n                /* \"--CODEGEN--\":36:189   */\n            tag_263:\n                /* \"--CODEGEN--\":66:68   */\n              0x20\n                /* \"--CODEGEN--\":61:64   */\n              dup4\n                /* \"--CODEGEN--\":58:69   */\n              lt\n                /* \"--CODEGEN--\":36:189   */\n              tag_265\n              jumpi\n                /* \"--CODEGEN--\":176:186   */\n              dup1\n              mload\n                /* \"--CODEGEN--\":164:187   */\n              dup3\n              mstore\n              not(0x1f)\n                /* \"--CODEGEN--\":139:151   */\n              swap1\n              swap3\n              add\n              swap2\n                /* \"--CODEGEN--\":98:100   */\n              0x20\n                /* \"--CODEGEN--\":89:101   */\n              swap2\n              dup3\n              add\n              swap2\n                /* \"--CODEGEN--\":114:126   */\n              add\n                /* \"--CODEGEN--\":36:189   */\n              jump(tag_263)\n            tag_265:\n                /* \"--CODEGEN--\":274:275   */\n              0x01\n                /* \"--CODEGEN--\":267:270   */\n              dup4\n                /* \"--CODEGEN--\":263:265   */\n              0x20\n                /* \"--CODEGEN--\":259:271   */\n              sub\n                /* \"--CODEGEN--\":254:257   */\n              0x0100\n                /* \"--CODEGEN--\":250:272   */\n              exp\n                /* \"--CODEGEN--\":246:276   */\n              sub\n                /* \"--CODEGEN--\":315:319   */\n              dup1\n                /* \"--CODEGEN--\":311:320   */\n              not\n                /* \"--CODEGEN--\":305:308   */\n              dup3\n                /* \"--CODEGEN--\":299:309   */\n              mload\n                /* \"--CODEGEN--\":295:321   */\n              and\n                /* \"--CODEGEN--\":356:360   */\n              dup2\n                /* \"--CODEGEN--\":350:353   */\n              dup5\n                /* \"--CODEGEN--\":344:354   */\n              mload\n                /* \"--CODEGEN--\":340:361   */\n              and\n                /* \"--CODEGEN--\":389:396   */\n              dup1\n                /* \"--CODEGEN--\":380:387   */\n              dup3\n                /* \"--CODEGEN--\":377:397   */\n              or\n                /* \"--CODEGEN--\":372:375   */\n              dup6\n                /* \"--CODEGEN--\":365:398   */\n              mstore\n                /* \"--CODEGEN--\":3:402   */\n              pop\n              pop\n              pop\n                /* \"contracts/kalyswap-core/KalyswapPair.sol\":1625:1680  token.call(abi.encodeWithSelector(SELECTOR, to, value)) */\n              pop\n              pop\n              pop\n              swap1\n              pop\n              add\n              swap2\n              pop\n              pop\n              0x00\n              mload(0x40)\n              dup1\n              dup4\n              sub\n              dup2\n              0x00\n              dup7\n              gas\n              call\n              swap2\n              pop\n              pop\n              returndatasize\n                /* \"--CODEGEN--\":14:15   */\n              dup1\n                /* \"--CODEGEN--\":21:22   */\n              0x00\n                /* \"--CODEGEN--\":16:47   */\n              dup2\n              eq\n              tag_267\n              jumpi\n                /* \"--CODEGEN--\":75:79   */\n              0x40\n                /* \"--CODEGEN--\":69:80   */\n              mload\n                /* \"--CODEGEN--\":64:80   */\n              swap2\n              pop\n                /* \"--CODEGEN--\":144:148   */\n              0x1f\n                /* \"--CODEGEN--\":140:149   */\n              not\n                /* \"--CODEGEN--\":133:137   */\n              0x3f\n                /* \"--CODEGEN--\":115:131   */\n              returndatasize\n                /* \"--CODEGEN--\":111:138   */\n              add\n                /* \"--CODEGEN--\":107:150   */\n              and\n                /* \"--CODEGEN--\":104:105   */\n              dup3\n                /* \"--CODEGEN--\":100:151   */\n              add\n                /* \"--CODEGEN--\":94:98   */\n              0x40\n                /* \"--CODEGEN--\":87:152   */\n              mstore\n                /* \"--CODEGEN--\":169:185   */\n              returndatasize\n                /* \"--CODEGEN--\":166:167   */\n              dup3\n                /* \"--CODEGEN--\":159:186   */\n              mstore\n                /* \"--CODEGEN--\":225:241   */\n              returndatasize\n                /* \"--CODEGEN--\":222:223   */\n              0x00\n                /* \"--CODEGEN--\":215:219   */\n              0x20\n                /* \"--CODEGEN--\":212:213   */\n              dup5\n                /* \"--CODEGEN--\":208:220   */\n              add\n                /* \"--CODEGEN--\":193:242   */\n              returndatacopy\n                /* \"--CODEGEN--\":7:249   */\n              jump(tag_266)\n                /* \"--CODEGEN--\":16:47   */\n            tag_267:\n                /* \"--CODEGEN--\":36:40   */\n              0x60\n                /* \"--CODEGEN--\":31:40   */\n              swap2\n              pop\n                /* \"--CODEGEN--\":7:249   */\n            tag_266:\n              pop\n                /* \"contracts/kalyswap-core/KalyswapPair.sol\":1589:1680  (bool success, bytes memory data) = token.call(abi.encodeWithSelector(SELECTOR, to, value)) */\n              swap2\n              pop\n              swap2\n              pop\n                /* \"contracts/kalyswap-core/KalyswapPair.sol\":1698:1705  success */\n              dup2\n                /* \"contracts/kalyswap-core/KalyswapPair.sol\":1698:1755  success && (data.length == 0 || abi.decode(data, (bool))) */\n              dup1\n              iszero\n              tag_269\n              jumpi\n              pop\n                /* \"contracts/kalyswap-core/KalyswapPair.sol\":1710:1721  data.length */\n              dup1\n              mload\n                /* \"contracts/kalyswap-core/KalyswapPair.sol\":1710:1726  data.length == 0 */\n              iszero\n              dup1\n                /* \"contracts/kalyswap-core/KalyswapPair.sol\":1710:1754  data.length == 0 || abi.decode(data, (bool)) */\n              tag_269\n              jumpi\n              pop\n                /* \"contracts/kalyswap-core/KalyswapPair.sol\":1741:1745  data */\n              dup1\n                /* \"contracts/kalyswap-core/KalyswapPair.sol\":1730:1754  abi.decode(data, (bool)) */\n              dup1\n              0x20\n              add\n              swap1\n              mload\n                /* \"--CODEGEN--\":13:15   */\n              0x20\n                /* \"--CODEGEN--\":8:11   */\n              dup2\n                /* \"--CODEGEN--\":5:16   */\n              lt\n                /* \"--CODEGEN--\":2:4   */\n              iszero\n              tag_270\n              jumpi\n                /* \"--CODEGEN--\":29:30   */\n              0x00\n                /* \"--CODEGEN--\":26:27   */\n              dup1\n                /* \"--CODEGEN--\":19:31   */\n              revert\n                /* \"--CODEGEN--\":2:4   */\n            tag_270:\n              pop\n                /* \"contracts/kalyswap-core/KalyswapPair.sol\":1730:1754  abi.decode(data, (bool)) */\n              mload\n                /* \"contracts/kalyswap-core/KalyswapPair.sol\":1710:1754  data.length == 0 || abi.decode(data, (bool)) */\n            tag_269:\n                /* \"contracts/kalyswap-core/KalyswapPair.sol\":1690:1785  require(success && (data.length == 0 || abi.decode(data, (bool))), 'Kalyswap: TRANSFER_FAILED') */\n              tag_271\n              jumpi\n              0x40\n              dup1\n              mload\n              shl(0xe5, 0x461bcd)\n              dup2\n              mstore\n              0x20\n              0x04\n              dup3\n              add\n              mstore\n              0x19\n              0x24\n              dup3\n              add\n              mstore\n              0x4b616c79737761703a205452414e534645525f4641494c454400000000000000\n              0x44\n              dup3\n              add\n              mstore\n              swap1\n              mload\n              swap1\n              dup2\n              swap1\n              sub\n              0x64\n              add\n              swap1\n              revert\n            tag_271:\n                /* \"contracts/kalyswap-core/KalyswapPair.sol\":1509:1792  function _safeTransfer(address token, address to, uint value) private {... */\n              pop\n              pop\n              pop\n              pop\n              pop\n              jump\t// out\n                /* \"contracts/kalyswap-core/libraries/SafeMath.sol\":420:560  function mul(uint x, uint y) internal pure returns (uint z) {... */\n            tag_145:\n                /* \"contracts/kalyswap-core/libraries/SafeMath.sol\":472:478  uint z */\n              0x00\n                /* \"contracts/kalyswap-core/libraries/SafeMath.sol\":498:504  y == 0 */\n              dup2\n              iszero\n              dup1\n                /* \"contracts/kalyswap-core/libraries/SafeMath.sol\":498:528  y == 0 || (z = x * y) / y == x */\n              tag_273\n              jumpi\n              pop\n              pop\n                /* \"contracts/kalyswap-core/libraries/SafeMath.sol\":513:518  x * y */\n              dup1\n              dup3\n              mul\n                /* \"contracts/kalyswap-core/libraries/SafeMath.sol\":527:528  x */\n              dup3\n                /* \"contracts/kalyswap-core/libraries/SafeMath.sol\":522:523  y */\n              dup3\n                /* \"contracts/kalyswap-core/libraries/SafeMath.sol\":513:518  x * y */\n              dup3\n                /* \"contracts/kalyswap-core/libraries/SafeMath.sol\":522:523  y */\n              dup2\n                /* \"contracts/kalyswap-core/libraries/SafeMath.sol\":508:523  (z = x * y) / y */\n              tag_274\n              jumpi\n              invalid\n            tag_274:\n              div\n                /* \"contracts/kalyswap-core/libraries/SafeMath.sol\":508:528  (z = x * y) / y == x */\n              eq\n                /* \"contracts/kalyswap-core/libraries/SafeMath.sol\":498:528  y == 0 || (z = x * y) / y == x */\n            tag_273:\n                /* \"contracts/kalyswap-core/libraries/SafeMath.sol\":490:553  require(y == 0 || (z = x * y) / y == x, 'ds-math-mul-overflow') */\n              tag_158\n              jumpi\n              0x40\n              dup1\n              mload\n              shl(0xe5, 0x461bcd)\n              dup2\n              mstore\n              0x20\n              0x04\n              dup3\n              add\n              mstore\n              0x14\n              0x24\n              dup3\n              add\n              mstore\n              shl(0x60, 0x64732d6d6174682d6d756c2d6f766572666c6f77)\n              0x44\n              dup3\n              add\n              mstore\n              swap1\n              mload\n              swap1\n              dup2\n              swap1\n              sub\n              0x64\n              add\n              swap1\n              revert\n                /* \"contracts/kalyswap-core/libraries/SafeMath.sol\":287:414  function sub(uint x, uint y) internal pure returns (uint z) {... */\n            tag_147:\n                /* \"contracts/kalyswap-core/libraries/SafeMath.sol\":370:375  x - y */\n              dup1\n              dup3\n              sub\n                /* \"contracts/kalyswap-core/libraries/SafeMath.sol\":365:381  (z = x - y) <= x */\n              dup3\n              dup2\n              gt\n              iszero\n                /* \"contracts/kalyswap-core/libraries/SafeMath.sol\":357:407  require((z = x - y) <= x, 'ds-math-sub-underflow') */\n              tag_158\n              jumpi\n              0x40\n              dup1\n              mload\n              shl(0xe5, 0x461bcd)\n              dup2\n              mstore\n              0x20\n              0x04\n              dup3\n              add\n              mstore\n              0x15\n              0x24\n              dup3\n              add\n              mstore\n              shl(0x58, 0x64732d6d6174682d7375622d756e646572666c6f77)\n              0x44\n              dup3\n              add\n              mstore\n              swap1\n              mload\n              swap1\n              dup2\n              swap1\n              sub\n              0x64\n              add\n              swap1\n              revert\n                /* \"contracts/kalyswap-core/KalyswapPair.sol\":2594:3440  function _update(uint balance0, uint balance1, uint112 _reserve0, uint112 _reserve1) private {... */\n            tag_156:\n              sub(shl(0x70, 0x01), 0x01)\n                /* \"contracts/kalyswap-core/KalyswapPair.sol\":2705:2728  balance0 <= uint112(-1) */\n              dup5\n              gt\n              dup1\n              iszero\n              swap1\n                /* \"contracts/kalyswap-core/KalyswapPair.sol\":2705:2755  balance0 <= uint112(-1) && balance1 <= uint112(-1) */\n              tag_279\n              jumpi\n              pop\n              sub(shl(0x70, 0x01), 0x01)\n                /* \"contracts/kalyswap-core/KalyswapPair.sol\":2732:2755  balance1 <= uint112(-1) */\n              dup4\n              gt\n              iszero\n                /* \"contracts/kalyswap-core/KalyswapPair.sol\":2705:2755  balance0 <= uint112(-1) && balance1 <= uint112(-1) */\n            tag_279:\n                /* \"contracts/kalyswap-core/KalyswapPair.sol\":2697:2778  require(balance0 <= uint112(-1) && balance1 <= uint112(-1), 'Kalyswap: OVERFLOW') */\n              tag_280\n              jumpi\n              0x40\n              dup1\n              mload\n              shl(0xe5, 0x461bcd)\n              dup2\n              mstore\n              0x20\n              0x04\n              dup3\n              add\n              mstore\n              0x12\n              0x24\n              dup3\n              add\n              mstore\n              shl(0x70, 0x4b616c79737761703a204f564552464c4f57)\n              0x44\n              dup3\n              add\n              mstore\n              swap1\n              mload\n              swap1\n              dup2\n              swap1\n              sub\n              0x64\n              add\n              swap1\n              revert\n            tag_280:\n                /* \"contracts/kalyswap-core/KalyswapPair.sol\":2891:2909  blockTimestampLast */\n              sload(0x08)\n                /* \"contracts/kalyswap-core/KalyswapPair.sol\":2819:2842  block.timestamp % 2**32 */\n              0xffffffff\n                /* \"contracts/kalyswap-core/KalyswapPair.sol\":2819:2834  block.timestamp */\n              timestamp\n                /* \"contracts/kalyswap-core/KalyswapPair.sol\":2819:2842  block.timestamp % 2**32 */\n              dup2\n              and\n              swap2\n              shl(0xe0, 0x01)\n                /* \"contracts/kalyswap-core/KalyswapPair.sol\":2891:2909  blockTimestampLast */\n              swap1\n              div\n              dup2\n              and\n                /* \"contracts/kalyswap-core/KalyswapPair.sol\":2874:2909  blockTimestamp - blockTimestampLast */\n              dup3\n              sub\n              swap1\n                /* \"contracts/kalyswap-core/KalyswapPair.sol\":2946:2961  timeElapsed > 0 */\n              dup2\n              and\n              iszero\n              dup1\n              iszero\n              swap1\n                /* \"contracts/kalyswap-core/KalyswapPair.sol\":2946:2979  timeElapsed > 0 && _reserve0 != 0 */\n              tag_282\n              jumpi\n              pop\n              sub(shl(0x70, 0x01), 0x01)\n                /* \"contracts/kalyswap-core/KalyswapPair.sol\":2965:2979  _reserve0 != 0 */\n              dup5\n              and\n              iszero\n              iszero\n                /* \"contracts/kalyswap-core/KalyswapPair.sol\":2946:2979  timeElapsed > 0 && _reserve0 != 0 */\n            tag_282:\n                /* \"contracts/kalyswap-core/KalyswapPair.sol\":2946:2997  timeElapsed > 0 && _reserve0 != 0 && _reserve1 != 0 */\n              dup1\n              iszero\n              tag_283\n              jumpi\n              pop\n              sub(shl(0x70, 0x01), 0x01)\n                /* \"contracts/kalyswap-core/KalyswapPair.sol\":2983:2997  _reserve1 != 0 */\n              dup4\n              and\n              iszero\n              iszero\n                /* \"contracts/kalyswap-core/KalyswapPair.sol\":2946:2997  timeElapsed > 0 && _reserve0 != 0 && _reserve1 != 0 */\n            tag_283:\n                /* \"contracts/kalyswap-core/KalyswapPair.sol\":2942:3274  if (timeElapsed > 0 && _reserve0 != 0 && _reserve1 != 0) {... */\n              iszero\n              tag_284\n              jumpi\n                /* \"contracts/kalyswap-core/KalyswapPair.sol\":3150:3161  timeElapsed */\n              dup1\n                /* \"contracts/kalyswap-core/KalyswapPair.sol\":3097:3161  uint(UQ112x112.encode(_reserve1).uqdiv(_reserve0)) * timeElapsed */\n              0xffffffff\n              and\n                /* \"contracts/kalyswap-core/KalyswapPair.sol\":3102:3146  UQ112x112.encode(_reserve1).uqdiv(_reserve0) */\n              tag_285\n                /* \"contracts/kalyswap-core/KalyswapPair.sol\":3136:3145  _reserve0 */\n              dup6\n                /* \"contracts/kalyswap-core/KalyswapPair.sol\":3102:3129  UQ112x112.encode(_reserve1) */\n              tag_286\n                /* \"contracts/kalyswap-core/KalyswapPair.sol\":3119:3128  _reserve1 */\n              dup7\n                /* \"contracts/kalyswap-core/KalyswapPair.sol\":3102:3118  UQ112x112.encode */\n              tag_287\n                /* \"contracts/kalyswap-core/KalyswapPair.sol\":3102:3129  UQ112x112.encode(_reserve1) */\n              jump\t// in\n            tag_286:\n              sub(shl(0xe0, 0x01), 0x01)\n                /* \"contracts/kalyswap-core/KalyswapPair.sol\":3102:3135  UQ112x112.encode(_reserve1).uqdiv */\n              and\n              swap1\n              tag_288\n                /* \"contracts/kalyswap-core/KalyswapPair.sol\":3102:3146  UQ112x112.encode(_reserve1).uqdiv(_reserve0) */\n              jump\t// in\n            tag_285:\n                /* \"contracts/kalyswap-core/KalyswapPair.sol\":3073:3093  price0CumulativeLast */\n              0x09\n                /* \"contracts/kalyswap-core/KalyswapPair.sol\":3073:3161  price0CumulativeLast += uint(UQ112x112.encode(_reserve1).uqdiv(_reserve0)) * timeElapsed */\n              dup1\n              sload\n              sub(shl(0xe0, 0x01), 0x01)\n                /* \"contracts/kalyswap-core/KalyswapPair.sol\":3097:3147  uint(UQ112x112.encode(_reserve1).uqdiv(_reserve0)) */\n              swap3\n              swap1\n              swap3\n              and\n                /* \"contracts/kalyswap-core/KalyswapPair.sol\":3097:3161  uint(UQ112x112.encode(_reserve1).uqdiv(_reserve0)) * timeElapsed */\n              swap3\n              swap1\n              swap3\n              mul\n                /* \"contracts/kalyswap-core/KalyswapPair.sol\":3073:3161  price0CumulativeLast += uint(UQ112x112.encode(_reserve1).uqdiv(_reserve0)) * timeElapsed */\n              add\n              swap1\n              sstore\n                /* \"contracts/kalyswap-core/KalyswapPair.sol\":3199:3263  uint(UQ112x112.encode(_reserve0).uqdiv(_reserve1)) * timeElapsed */\n              0xffffffff\n              dup2\n              and\n                /* \"contracts/kalyswap-core/KalyswapPair.sol\":3204:3248  UQ112x112.encode(_reserve0).uqdiv(_reserve1) */\n              tag_289\n                /* \"contracts/kalyswap-core/KalyswapPair.sol\":3238:3247  _reserve1 */\n              dup5\n                /* \"contracts/kalyswap-core/KalyswapPair.sol\":3204:3231  UQ112x112.encode(_reserve0) */\n              tag_286\n                /* \"contracts/kalyswap-core/KalyswapPair.sol\":3221:3230  _reserve0 */\n              dup8\n                /* \"contracts/kalyswap-core/KalyswapPair.sol\":3204:3220  UQ112x112.encode */\n              tag_287\n                /* \"contracts/kalyswap-core/KalyswapPair.sol\":3204:3231  UQ112x112.encode(_reserve0) */\n              jump\t// in\n                /* \"contracts/kalyswap-core/KalyswapPair.sol\":3204:3248  UQ112x112.encode(_reserve0).uqdiv(_reserve1) */\n            tag_289:\n                /* \"contracts/kalyswap-core/KalyswapPair.sol\":3175:3195  price1CumulativeLast */\n              0x0a\n                /* \"contracts/kalyswap-core/KalyswapPair.sol\":3175:3263  price1CumulativeLast += uint(UQ112x112.encode(_reserve0).uqdiv(_reserve1)) * timeElapsed */\n              dup1\n              sload\n              sub(shl(0xe0, 0x01), 0x01)\n                /* \"contracts/kalyswap-core/KalyswapPair.sol\":3199:3249  uint(UQ112x112.encode(_reserve0).uqdiv(_reserve1)) */\n              swap3\n              swap1\n              swap3\n              and\n                /* \"contracts/kalyswap-core/KalyswapPair.sol\":3199:3263  uint(UQ112x112.encode(_reserve0).uqdiv(_reserve1)) * timeElapsed */\n              swap3\n              swap1\n              swap3\n              mul\n                /* \"contracts/kalyswap-core/KalyswapPair.sol\":3175:3263  price1CumulativeLast += uint(UQ112x112.encode(_reserve0).uqdiv(_reserve1)) * timeElapsed */\n              add\n              swap1\n              sstore\n                /* \"contracts/kalyswap-core/KalyswapPair.sol\":2942:3274  if (timeElapsed > 0 && _reserve0 != 0 && _reserve1 != 0) {... */\n            tag_284:\n                /* \"contracts/kalyswap-core/KalyswapPair.sol\":3283:3291  reserve0 */\n              0x08\n                /* \"contracts/kalyswap-core/KalyswapPair.sol\":3283:3311  reserve0 = uint112(balance0) */\n              dup1\n              sload\n              not(0xffffffffffffffffffffffffffff)\n              and\n              sub(shl(0x70, 0x01), 0x01)\n              dup9\n              dup2\n              and\n              swap2\n              swap1\n              swap2\n              or\n              not(shl(0x70, 0xffffffffffffffffffffffffffff))\n                /* \"contracts/kalyswap-core/KalyswapPair.sol\":3321:3349  reserve1 = uint112(balance1) */\n              and\n              shl(0x70, 0x01)\n              dup9\n              dup4\n              and\n              dup2\n              mul\n              swap2\n              swap1\n              swap2\n              or\n              sub(shl(0xe0, 0x01), 0x01)\n                /* \"contracts/kalyswap-core/KalyswapPair.sol\":3359:3394  blockTimestampLast = blockTimestamp */\n              and\n              shl(0xe0, 0x01)\n              0xffffffff\n              dup8\n              and\n              mul\n              or\n              swap3\n              dup4\n              swap1\n              sstore\n                /* \"contracts/kalyswap-core/KalyswapPair.sol\":3409:3433  Sync(reserve0, reserve1) */\n              0x40\n              dup1\n              mload\n                /* \"contracts/kalyswap-core/KalyswapPair.sol\":3414:3422  reserve0 */\n              dup5\n              dup5\n              and\n                /* \"contracts/kalyswap-core/KalyswapPair.sol\":3409:3433  Sync(reserve0, reserve1) */\n              dup2\n              mstore\n                /* \"contracts/kalyswap-core/KalyswapPair.sol\":3424:3432  reserve1 */\n              swap2\n              swap1\n              swap4\n              div\n              swap1\n              swap2\n              and\n                /* \"contracts/kalyswap-core/KalyswapPair.sol\":3409:3433  Sync(reserve0, reserve1) */\n              0x20\n              dup3\n              add\n              mstore\n              dup2\n              mload\n              0x1c411e9a96e071241c2f21f7726b17ae89e3cab4c78be50e062b03a9fffbbad1\n              swap3\n              swap2\n              dup2\n              swap1\n              sub\n              swap1\n              swap2\n              add\n              swap1\n              log1\n                /* \"contracts/kalyswap-core/KalyswapPair.sol\":2594:3440  function _update(uint balance0, uint balance1, uint112 _reserve0, uint112 _reserve1) private {... */\n              pop\n              pop\n              pop\n              pop\n              pop\n              pop\n              jump\t// out\n                /* \"contracts/kalyswap-core/KalyswapERC20.sol\":1785:1951  function _approve(address owner, address spender, uint value) private {... */\n            tag_160:\n              sub(shl(0xa0, 0x01), 0x01)\n                /* \"contracts/kalyswap-core/KalyswapERC20.sol\":1865:1881  allowance[owner] */\n              dup4\n              dup2\n              and\n              0x00\n              dup2\n              dup2\n              mstore\n                /* \"contracts/kalyswap-core/KalyswapERC20.sol\":1865:1874  allowance */\n              0x02\n                /* \"contracts/kalyswap-core/KalyswapERC20.sol\":1865:1881  allowance[owner] */\n              0x20\n              swap1\n              dup2\n              mstore\n              0x40\n              dup1\n              dup4\n              keccak256\n                /* \"contracts/kalyswap-core/KalyswapERC20.sol\":1865:1890  allowance[owner][spender] */\n              swap5\n              dup8\n              and\n              dup1\n              dup5\n              mstore\n              swap5\n              dup3\n              mstore\n              swap2\n              dup3\n              swap1\n              keccak256\n                /* \"contracts/kalyswap-core/KalyswapERC20.sol\":1865:1898  allowance[owner][spender] = value */\n              dup6\n              swap1\n              sstore\n                /* \"contracts/kalyswap-core/KalyswapERC20.sol\":1913:1944  Approval(owner, spender, value) */\n              dup2\n              mload\n              dup6\n              dup2\n              mstore\n              swap2\n              mload\n              0x8c5be1e5ebec7d5bd14f71427d1e84f3dd0314c0f7b2291e5b200ac8c7c3b925\n              swap3\n              dup2\n              swap1\n              sub\n              swap1\n              swap2\n              add\n              swap1\n              log3\n                /* \"contracts/kalyswap-core/KalyswapERC20.sol\":1785:1951  function _approve(address owner, address spender, uint value) private {... */\n              pop\n              pop\n              pop\n              jump\t// out\n                /* \"contracts/kalyswap-core/KalyswapERC20.sol\":1957:2173  function _transfer(address from, address to, uint value) private {... */\n            tag_165:\n              sub(shl(0xa0, 0x01), 0x01)\n                /* \"contracts/kalyswap-core/KalyswapERC20.sol\":2050:2065  balanceOf[from] */\n              dup4\n              and\n              0x00\n              swap1\n              dup2\n              mstore\n              mstore(0x20, 0x01)\n              0x40\n              swap1\n              keccak256\n              sload\n                /* \"contracts/kalyswap-core/KalyswapERC20.sol\":2050:2076  balanceOf[from].sub(value) */\n              tag_293\n              swap1\n                /* \"contracts/kalyswap-core/KalyswapERC20.sol\":2070:2075  value */\n              dup3\n                /* \"contracts/kalyswap-core/KalyswapERC20.sol\":2050:2069  balanceOf[from].sub */\n              tag_147\n                /* \"contracts/kalyswap-core/KalyswapERC20.sol\":2050:2076  balanceOf[from].sub(value) */\n              jump\t// in\n            tag_293:\n              sub(shl(0xa0, 0x01), 0x01)\n                /* \"contracts/kalyswap-core/KalyswapERC20.sol\":2032:2047  balanceOf[from] */\n              dup5\n              dup2\n              and\n              0x00\n              swap1\n              dup2\n              mstore\n              mstore(0x20, 0x01)\n              0x40\n              dup1\n              dup3\n              keccak256\n                /* \"contracts/kalyswap-core/KalyswapERC20.sol\":2032:2076  balanceOf[from] = balanceOf[from].sub(value) */\n              swap4\n              swap1\n              swap4\n              sstore\n                /* \"contracts/kalyswap-core/KalyswapERC20.sol\":2102:2115  balanceOf[to] */\n              swap1\n              dup5\n              and\n              dup2\n              mstore\n              keccak256\n              sload\n                /* \"contracts/kalyswap-core/KalyswapERC20.sol\":2102:2126  balanceOf[to].add(value) */\n              tag_294\n              swap1\n                /* \"contracts/kalyswap-core/KalyswapERC20.sol\":2120:2125  value */\n              dup3\n                /* \"contracts/kalyswap-core/KalyswapERC20.sol\":2102:2119  balanceOf[to].add */\n              tag_295\n                /* \"contracts/kalyswap-core/KalyswapERC20.sol\":2102:2126  balanceOf[to].add(value) */\n              jump\t// in\n            tag_294:\n              sub(shl(0xa0, 0x01), 0x01)\n                /* \"contracts/kalyswap-core/KalyswapERC20.sol\":2086:2099  balanceOf[to] */\n              dup4\n              dup2\n              and\n              0x00\n              dup2\n              dup2\n              mstore\n              0x01\n              0x20\n              swap1\n              dup2\n              mstore\n              0x40\n              swap2\n              dup3\n              swap1\n              keccak256\n                /* \"contracts/kalyswap-core/KalyswapERC20.sol\":2086:2126  balanceOf[to] = balanceOf[to].add(value) */\n              swap5\n              swap1\n              swap5\n              sstore\n                /* \"contracts/kalyswap-core/KalyswapERC20.sol\":2141:2166  Transfer(from, to, value) */\n              dup1\n              mload\n              dup6\n              dup2\n              mstore\n              swap1\n              mload\n                /* \"contracts/kalyswap-core/KalyswapERC20.sol\":2086:2099  balanceOf[to] */\n              swap2\n              swap4\n                /* \"contracts/kalyswap-core/KalyswapERC20.sol\":2141:2166  Transfer(from, to, value) */\n              swap3\n              dup8\n              and\n              swap3\n              0xddf252ad1be2c89b69c2b068fc378daa952ba7f163c4a11628f55a4df523b3ef\n              swap3\n              swap2\n              dup3\n              swap1\n              sub\n              add\n              swap1\n              log3\n                /* \"contracts/kalyswap-core/KalyswapERC20.sol\":1957:2173  function _transfer(address from, address to, uint value) private {... */\n              pop\n              pop\n              pop\n              jump\t// out\n                /* \"contracts/kalyswap-core/KalyswapPair.sol\":3527:4345  function _mintFee(uint112 _reserve0, uint112 _reserve1) private returns (bool feeOn) {... */\n            tag_181:\n                /* \"contracts/kalyswap-core/KalyswapPair.sol\":3655:3662  factory */\n              sload(0x05)\n                /* \"contracts/kalyswap-core/KalyswapPair.sol\":3638:3671  IKalyswapFactory(factory).feeTo() */\n              0x40\n              dup1\n              mload\n              shl(0xe3, 0x2fcfcb)\n              dup2\n              mstore\n              swap1\n              mload\n                /* \"contracts/kalyswap-core/KalyswapPair.sol\":3600:3610  bool feeOn */\n              0x00\n              swap3\n              dup4\n              swap3\n              sub(shl(0xa0, 0x01), 0x01)\n                /* \"contracts/kalyswap-core/KalyswapPair.sol\":3655:3662  factory */\n              swap1\n              swap2\n              and\n              swap2\n                /* \"contracts/kalyswap-core/KalyswapPair.sol\":3638:3669  IKalyswapFactory(factory).feeTo */\n              0x017e7e58\n              swap2\n                /* \"contracts/kalyswap-core/KalyswapPair.sol\":3638:3671  IKalyswapFactory(factory).feeTo() */\n              0x04\n              dup1\n              dup3\n              add\n              swap3\n              0x20\n              swap3\n              swap1\n              swap2\n              swap1\n              dup3\n              swap1\n              sub\n              add\n              dup2\n                /* \"contracts/kalyswap-core/KalyswapPair.sol\":3655:3662  factory */\n              dup7\n                /* \"contracts/kalyswap-core/KalyswapPair.sol\":3638:3671  IKalyswapFactory(factory).feeTo() */\n              dup1\n              extcodesize\n              iszero\n                /* \"--CODEGEN--\":5:7   */\n              dup1\n              iszero\n              tag_297\n              jumpi\n                /* \"--CODEGEN--\":30:31   */\n              0x00\n                /* \"--CODEGEN--\":27:28   */\n              dup1\n                /* \"--CODEGEN--\":20:32   */\n              revert\n                /* \"--CODEGEN--\":5:7   */\n            tag_297:\n                /* \"contracts/kalyswap-core/KalyswapPair.sol\":3638:3671  IKalyswapFactory(factory).feeTo() */\n              pop\n              gas\n              staticcall\n              iszero\n                /* \"--CODEGEN--\":8:17   */\n              dup1\n                /* \"--CODEGEN--\":5:7   */\n              iszero\n              tag_298\n              jumpi\n                /* \"--CODEGEN--\":45:61   */\n              returndatasize\n                /* \"--CODEGEN--\":42:43   */\n              0x00\n                /* \"--CODEGEN--\":39:40   */\n              dup1\n                /* \"--CODEGEN--\":24:62   */\n              returndatacopy\n                /* \"--CODEGEN--\":77:93   */\n              returndatasize\n                /* \"--CODEGEN--\":74:75   */\n              0x00\n                /* \"--CODEGEN--\":67:94   */\n              revert\n                /* \"--CODEGEN--\":5:7   */\n            tag_298:\n                /* \"contracts/kalyswap-core/KalyswapPair.sol\":3638:3671  IKalyswapFactory(factory).feeTo() */\n              pop\n              pop\n              pop\n              pop\n              mload(0x40)\n              returndatasize\n                /* \"--CODEGEN--\":13:15   */\n              0x20\n                /* \"--CODEGEN--\":8:11   */\n              dup2\n                /* \"--CODEGEN--\":5:16   */\n              lt\n                /* \"--CODEGEN--\":2:4   */\n              iszero\n              tag_299\n              jumpi\n                /* \"--CODEGEN--\":29:30   */\n              0x00\n                /* \"--CODEGEN--\":26:27   */\n              dup1\n                /* \"--CODEGEN--\":19:31   */\n              revert\n                /* \"--CODEGEN--\":2:4   */\n            tag_299:\n              pop\n                /* \"contracts/kalyswap-core/KalyswapPair.sol\":3638:3671  IKalyswapFactory(factory).feeTo() */\n              mload\n                /* \"contracts/kalyswap-core/KalyswapPair.sol\":3732:3737  kLast */\n              sload(0x0b)\n              sub(shl(0xa0, 0x01), 0x01)\n                /* \"contracts/kalyswap-core/KalyswapPair.sol\":3689:3708  feeTo != address(0) */\n              dup3\n              and\n              iszero\n              dup1\n              iszero\n              swap5\n              pop\n                /* \"contracts/kalyswap-core/KalyswapPair.sol\":3638:3671  IKalyswapFactory(factory).feeTo() */\n              swap2\n              swap3\n              pop\n                /* \"contracts/kalyswap-core/KalyswapPair.sol\":3732:3737  kLast */\n              swap1\n                /* \"contracts/kalyswap-core/KalyswapPair.sol\":3762:4339  if (feeOn) {... */\n              tag_300\n              jumpi\n                /* \"contracts/kalyswap-core/KalyswapPair.sol\":3791:3802  _kLast != 0 */\n              dup1\n              iszero\n                /* \"contracts/kalyswap-core/KalyswapPair.sol\":3787:4272  if (_kLast != 0) {... */\n              tag_301\n              jumpi\n                /* \"contracts/kalyswap-core/KalyswapPair.sol\":3822:3832  uint rootK */\n              0x00\n                /* \"contracts/kalyswap-core/KalyswapPair.sol\":3835:3876  Math.sqrt(uint(_reserve0).mul(_reserve1)) */\n              tag_302\n                /* \"contracts/kalyswap-core/KalyswapPair.sol\":3845:3875  uint(_reserve0).mul(_reserve1) */\n              tag_185\n              sub(shl(0x70, 0x01), 0x01)\n                /* \"contracts/kalyswap-core/KalyswapPair.sol\":3845:3860  uint(_reserve0) */\n              dup9\n              dup2\n              and\n              swap1\n                /* \"contracts/kalyswap-core/KalyswapPair.sol\":3845:3875  uint(_reserve0).mul(_reserve1) */\n              dup9\n              and\n                /* \"contracts/kalyswap-core/KalyswapPair.sol\":3845:3864  uint(_reserve0).mul */\n              tag_145\n                /* \"contracts/kalyswap-core/KalyswapPair.sol\":3845:3875  uint(_reserve0).mul(_reserve1) */\n              jump\t// in\n                /* \"contracts/kalyswap-core/KalyswapPair.sol\":3835:3876  Math.sqrt(uint(_reserve0).mul(_reserve1)) */\n            tag_302:\n                /* \"contracts/kalyswap-core/KalyswapPair.sol\":3822:3876  uint rootK = Math.sqrt(uint(_reserve0).mul(_reserve1)) */\n              swap1\n              pop\n                /* \"contracts/kalyswap-core/KalyswapPair.sol\":3894:3908  uint rootKLast */\n              0x00\n                /* \"contracts/kalyswap-core/KalyswapPair.sol\":3911:3928  Math.sqrt(_kLast) */\n              tag_304\n                /* \"contracts/kalyswap-core/KalyswapPair.sol\":3921:3927  _kLast */\n              dup4\n                /* \"contracts/kalyswap-core/KalyswapPair.sol\":3911:3920  Math.sqrt */\n              tag_186\n                /* \"contracts/kalyswap-core/KalyswapPair.sol\":3911:3928  Math.sqrt(_kLast) */\n              jump\t// in\n            tag_304:\n                /* \"contracts/kalyswap-core/KalyswapPair.sol\":3894:3928  uint rootKLast = Math.sqrt(_kLast) */\n              swap1\n              pop\n                /* \"contracts/kalyswap-core/KalyswapPair.sol\":3958:3967  rootKLast */\n              dup1\n                /* \"contracts/kalyswap-core/KalyswapPair.sol\":3950:3955  rootK */\n              dup3\n                /* \"contracts/kalyswap-core/KalyswapPair.sol\":3950:3967  rootK > rootKLast */\n              gt\n                /* \"contracts/kalyswap-core/KalyswapPair.sol\":3946:4258  if (rootK > rootKLast) {... */\n              iszero\n              tag_305\n              jumpi\n                /* \"contracts/kalyswap-core/KalyswapPair.sol\":3991:4005  uint numerator */\n              0x00\n                /* \"contracts/kalyswap-core/KalyswapPair.sol\":4008:4045  totalSupply.mul(rootK.sub(rootKLast)) */\n              tag_306\n                /* \"contracts/kalyswap-core/KalyswapPair.sol\":4024:4044  rootK.sub(rootKLast) */\n              tag_307\n                /* \"contracts/kalyswap-core/KalyswapPair.sol\":4024:4029  rootK */\n              dup5\n                /* \"contracts/kalyswap-core/KalyswapPair.sol\":4034:4043  rootKLast */\n              dup5\n                /* \"contracts/kalyswap-core/KalyswapPair.sol\":4024:4044  rootK.sub(rootKLast) */\n              0xffffffff\n                /* \"contracts/kalyswap-core/KalyswapPair.sol\":4024:4033  rootK.sub */\n              tag_147\n                /* \"contracts/kalyswap-core/KalyswapPair.sol\":4024:4044  rootK.sub(rootKLast) */\n              and\n              jump\t// in\n            tag_307:\n                /* \"contracts/kalyswap-core/KalyswapPair.sol\":4008:4019  totalSupply */\n              sload(0x00)\n              swap1\n                /* \"contracts/kalyswap-core/KalyswapPair.sol\":4008:4045  totalSupply.mul(rootK.sub(rootKLast)) */\n              0xffffffff\n                /* \"contracts/kalyswap-core/KalyswapPair.sol\":4008:4023  totalSupply.mul */\n              tag_145\n                /* \"contracts/kalyswap-core/KalyswapPair.sol\":4008:4045  totalSupply.mul(rootK.sub(rootKLast)) */\n              and\n              jump\t// in\n            tag_306:\n                /* \"contracts/kalyswap-core/KalyswapPair.sol\":3991:4045  uint numerator = totalSupply.mul(rootK.sub(rootKLast)) */\n              swap1\n              pop\n                /* \"contracts/kalyswap-core/KalyswapPair.sol\":4067:4083  uint denominator */\n              0x00\n                /* \"contracts/kalyswap-core/KalyswapPair.sol\":4086:4113  rootK.mul(5).add(rootKLast) */\n              tag_308\n                /* \"contracts/kalyswap-core/KalyswapPair.sol\":4103:4112  rootKLast */\n              dup4\n                /* \"contracts/kalyswap-core/KalyswapPair.sol\":4086:4098  rootK.mul(5) */\n              tag_309\n                /* \"contracts/kalyswap-core/KalyswapPair.sol\":4086:4091  rootK */\n              dup7\n                /* \"contracts/kalyswap-core/KalyswapPair.sol\":4096:4097  5 */\n              0x05\n                /* \"contracts/kalyswap-core/KalyswapPair.sol\":4086:4098  rootK.mul(5) */\n              0xffffffff\n                /* \"contracts/kalyswap-core/KalyswapPair.sol\":4086:4095  rootK.mul */\n              tag_145\n                /* \"contracts/kalyswap-core/KalyswapPair.sol\":4086:4098  rootK.mul(5) */\n              and\n              jump\t// in\n            tag_309:\n                /* \"contracts/kalyswap-core/KalyswapPair.sol\":4086:4102  rootK.mul(5).add */\n              swap1\n                /* \"contracts/kalyswap-core/KalyswapPair.sol\":4086:4113  rootK.mul(5).add(rootKLast) */\n              0xffffffff\n                /* \"contracts/kalyswap-core/KalyswapPair.sol\":4086:4102  rootK.mul(5).add */\n              tag_295\n                /* \"contracts/kalyswap-core/KalyswapPair.sol\":4086:4113  rootK.mul(5).add(rootKLast) */\n              and\n              jump\t// in\n            tag_308:\n                /* \"contracts/kalyswap-core/KalyswapPair.sol\":4067:4113  uint denominator = rootK.mul(5).add(rootKLast) */\n              swap1\n              pop\n                /* \"contracts/kalyswap-core/KalyswapPair.sol\":4135:4149  uint liquidity */\n              0x00\n                /* \"contracts/kalyswap-core/KalyswapPair.sol\":4164:4175  denominator */\n              dup2\n                /* \"contracts/kalyswap-core/KalyswapPair.sol\":4152:4161  numerator */\n              dup4\n                /* \"contracts/kalyswap-core/KalyswapPair.sol\":4152:4175  numerator / denominator */\n              dup2\n              tag_310\n              jumpi\n              invalid\n            tag_310:\n              div\n              swap1\n              pop\n                /* \"contracts/kalyswap-core/KalyswapPair.sol\":4201:4214  liquidity > 0 */\n              dup1\n              iszero\n                /* \"contracts/kalyswap-core/KalyswapPair.sol\":4197:4239  if (liquidity > 0) _mint(feeTo, liquidity) */\n              tag_312\n              jumpi\n                /* \"contracts/kalyswap-core/KalyswapPair.sol\":4216:4239  _mint(feeTo, liquidity) */\n              tag_312\n                /* \"contracts/kalyswap-core/KalyswapPair.sol\":4222:4227  feeTo */\n              dup8\n                /* \"contracts/kalyswap-core/KalyswapPair.sol\":4229:4238  liquidity */\n              dup3\n                /* \"contracts/kalyswap-core/KalyswapPair.sol\":4216:4221  _mint */\n              tag_188\n                /* \"contracts/kalyswap-core/KalyswapPair.sol\":4216:4239  _mint(feeTo, liquidity) */\n              jump\t// in\n            tag_312:\n                /* \"contracts/kalyswap-core/KalyswapPair.sol\":3946:4258  if (rootK > rootKLast) {... */\n              pop\n              pop\n              pop\n            tag_305:\n                /* \"contracts/kalyswap-core/KalyswapPair.sol\":3787:4272  if (_kLast != 0) {... */\n              pop\n              pop\n            tag_301:\n                /* \"contracts/kalyswap-core/KalyswapPair.sol\":3762:4339  if (feeOn) {... */\n              jump(tag_314)\n            tag_300:\n                /* \"contracts/kalyswap-core/KalyswapPair.sol\":4292:4303  _kLast != 0 */\n              dup1\n              iszero\n                /* \"contracts/kalyswap-core/KalyswapPair.sol\":4288:4339  if (_kLast != 0) {... */\n              tag_314\n              jumpi\n                /* \"contracts/kalyswap-core/KalyswapPair.sol\":4327:4328  0 */\n              0x00\n                /* \"contracts/kalyswap-core/KalyswapPair.sol\":4319:4324  kLast */\n              0x0b\n                /* \"contracts/kalyswap-core/KalyswapPair.sol\":4319:4328  kLast = 0 */\n              sstore\n                /* \"contracts/kalyswap-core/KalyswapPair.sol\":4288:4339  if (_kLast != 0) {... */\n            tag_314:\n                /* \"contracts/kalyswap-core/KalyswapPair.sol\":3527:4345  function _mintFee(uint112 _reserve0, uint112 _reserve1) private returns (bool feeOn) {... */\n              pop\n              pop\n              swap3\n              swap2\n              pop\n              pop\n              jump\t// out\n                /* \"contracts/kalyswap-core/libraries/Math.sol\":307:599  function sqrt(uint y) internal pure returns (uint z) {... */\n            tag_186:\n                /* \"contracts/kalyswap-core/libraries/Math.sol\":352:358  uint z */\n              0x00\n                /* \"contracts/kalyswap-core/libraries/Math.sol\":378:379  3 */\n              0x03\n                /* \"contracts/kalyswap-core/libraries/Math.sol\":374:375  y */\n              dup3\n                /* \"contracts/kalyswap-core/libraries/Math.sol\":374:379  y > 3 */\n              gt\n                /* \"contracts/kalyswap-core/libraries/Math.sol\":370:593  if (y > 3) {... */\n              iszero\n              tag_316\n              jumpi\n              pop\n                /* \"contracts/kalyswap-core/libraries/Math.sol\":399:400  y */\n              dup1\n                /* \"contracts/kalyswap-core/libraries/Math.sol\":431:432  1 */\n              0x01\n                /* \"contracts/kalyswap-core/libraries/Math.sol\":427:428  2 */\n              0x02\n                /* \"contracts/kalyswap-core/libraries/Math.sol\":423:428  y / 2 */\n              dup3\n              div\n                /* \"contracts/kalyswap-core/libraries/Math.sol\":423:432  y / 2 + 1 */\n              add\n                /* \"contracts/kalyswap-core/libraries/Math.sol\":446:535  while (x < z) {... */\n            tag_318:\n                /* \"contracts/kalyswap-core/libraries/Math.sol\":457:458  z */\n              dup2\n                /* \"contracts/kalyswap-core/libraries/Math.sol\":453:454  x */\n              dup2\n                /* \"contracts/kalyswap-core/libraries/Math.sol\":453:458  x < z */\n              lt\n                /* \"contracts/kalyswap-core/libraries/Math.sol\":446:535  while (x < z) {... */\n              iszero\n              tag_319\n              jumpi\n                /* \"contracts/kalyswap-core/libraries/Math.sol\":482:483  x */\n              dup1\n                /* \"contracts/kalyswap-core/libraries/Math.sol\":478:483  z = x */\n              swap2\n              pop\n                /* \"contracts/kalyswap-core/libraries/Math.sol\":519:520  2 */\n              0x02\n                /* \"contracts/kalyswap-core/libraries/Math.sol\":514:515  x */\n              dup2\n                /* \"contracts/kalyswap-core/libraries/Math.sol\":510:511  x */\n              dup3\n                /* \"contracts/kalyswap-core/libraries/Math.sol\":506:507  y */\n              dup6\n                /* \"contracts/kalyswap-core/libraries/Math.sol\":506:511  y / x */\n              dup2\n              tag_320\n              jumpi\n              invalid\n            tag_320:\n              div\n                /* \"contracts/kalyswap-core/libraries/Math.sol\":506:515  y / x + x */\n              add\n                /* \"contracts/kalyswap-core/libraries/Math.sol\":505:520  (y / x + x) / 2 */\n              dup2\n              tag_321\n              jumpi\n              invalid\n            tag_321:\n              div\n                /* \"contracts/kalyswap-core/libraries/Math.sol\":501:520  x = (y / x + x) / 2 */\n              swap1\n              pop\n                /* \"contracts/kalyswap-core/libraries/Math.sol\":446:535  while (x < z) {... */\n              jump(tag_318)\n            tag_319:\n                /* \"contracts/kalyswap-core/libraries/Math.sol\":370:593  if (y > 3) {... */\n              pop\n              jump(tag_323)\n            tag_316:\n                /* \"contracts/kalyswap-core/libraries/Math.sol\":555:561  y != 0 */\n              dup2\n              iszero\n                /* \"contracts/kalyswap-core/libraries/Math.sol\":551:593  if (y != 0) {... */\n              tag_323\n              jumpi\n              pop\n                /* \"contracts/kalyswap-core/libraries/Math.sol\":581:582  1 */\n              0x01\n                /* \"contracts/kalyswap-core/libraries/Math.sol\":551:593  if (y != 0) {... */\n            tag_323:\n                /* \"contracts/kalyswap-core/libraries/Math.sol\":307:599  function sqrt(uint y) internal pure returns (uint z) {... */\n              swap2\n              swap1\n              pop\n              jump\t// out\n                /* \"contracts/kalyswap-core/KalyswapERC20.sol\":1371:1568  function _mint(address to, uint value) internal {... */\n            tag_188:\n                /* \"contracts/kalyswap-core/KalyswapERC20.sol\":1443:1454  totalSupply */\n              sload(0x00)\n                /* \"contracts/kalyswap-core/KalyswapERC20.sol\":1443:1465  totalSupply.add(value) */\n              tag_325\n              swap1\n                /* \"contracts/kalyswap-core/KalyswapERC20.sol\":1459:1464  value */\n              dup3\n                /* \"contracts/kalyswap-core/KalyswapERC20.sol\":1443:1465  totalSupply.add(value) */\n              0xffffffff\n                /* \"contracts/kalyswap-core/KalyswapERC20.sol\":1443:1458  totalSupply.add */\n              tag_295\n                /* \"contracts/kalyswap-core/KalyswapERC20.sol\":1443:1465  totalSupply.add(value) */\n              and\n              jump\t// in\n            tag_325:\n                /* \"contracts/kalyswap-core/KalyswapERC20.sol\":1429:1440  totalSupply */\n              0x00\n                /* \"contracts/kalyswap-core/KalyswapERC20.sol\":1429:1465  totalSupply = totalSupply.add(value) */\n              swap1\n              dup2\n              sstore\n              sub(shl(0xa0, 0x01), 0x01)\n                /* \"contracts/kalyswap-core/KalyswapERC20.sol\":1491:1504  balanceOf[to] */\n              dup4\n              and\n              dup2\n              mstore\n              mstore(0x20, 0x01)\n              0x40\n              swap1\n              keccak256\n              sload\n                /* \"contracts/kalyswap-core/KalyswapERC20.sol\":1491:1515  balanceOf[to].add(value) */\n              tag_326\n              swap1\n                /* \"contracts/kalyswap-core/KalyswapERC20.sol\":1509:1514  value */\n              dup3\n                /* \"contracts/kalyswap-core/KalyswapERC20.sol\":1491:1508  balanceOf[to].add */\n              tag_295\n                /* \"contracts/kalyswap-core/KalyswapERC20.sol\":1491:1515  balanceOf[to].add(value) */\n              jump\t// in\n            tag_326:\n              sub(shl(0xa0, 0x01), 0x01)\n                /* \"contracts/kalyswap-core/KalyswapERC20.sol\":1475:1488  balanceOf[to] */\n              dup4\n              and\n              0x00\n              dup2\n              dup2\n              mstore\n              0x01\n              0x20\n              swap1\n              dup2\n              mstore\n              0x40\n              dup1\n              dup4\n              keccak256\n                /* \"contracts/kalyswap-core/KalyswapERC20.sol\":1475:1515  balanceOf[to] = balanceOf[to].add(value) */\n              swap5\n              swap1\n              swap5\n              sstore\n                /* \"contracts/kalyswap-core/KalyswapERC20.sol\":1530:1561  Transfer(address(0), to, value) */\n              dup4\n              mload\n              dup6\n              dup2\n              mstore\n              swap4\n              mload\n                /* \"contracts/kalyswap-core/KalyswapERC20.sol\":1475:1488  balanceOf[to] */\n              swap3\n              swap4\n              swap2\n              swap3\n                /* \"contracts/kalyswap-core/KalyswapERC20.sol\":1530:1561  Transfer(address(0), to, value) */\n              0xddf252ad1be2c89b69c2b068fc378daa952ba7f163c4a11628f55a4df523b3ef\n              swap3\n              dup2\n              swap1\n              sub\n              swap1\n              swap2\n              add\n              swap1\n              log3\n                /* \"contracts/kalyswap-core/KalyswapERC20.sol\":1371:1568  function _mint(address to, uint value) internal {... */\n              pop\n              pop\n              jump\t// out\n                /* \"contracts/kalyswap-core/libraries/Math.sol\":98:192  function min(uint x, uint y) internal pure returns (uint z) {... */\n            tag_195:\n                /* \"contracts/kalyswap-core/libraries/Math.sol\":150:156  uint z */\n              0x00\n                /* \"contracts/kalyswap-core/libraries/Math.sol\":176:177  y */\n              dup2\n                /* \"contracts/kalyswap-core/libraries/Math.sol\":172:173  x */\n              dup4\n                /* \"contracts/kalyswap-core/libraries/Math.sol\":172:177  x < y */\n              lt\n                /* \"contracts/kalyswap-core/libraries/Math.sol\":172:185  x < y ? x : y */\n              tag_328\n              jumpi\n                /* \"contracts/kalyswap-core/libraries/Math.sol\":184:185  y */\n              dup2\n                /* \"contracts/kalyswap-core/libraries/Math.sol\":172:185  x < y ? x : y */\n              jump(tag_329)\n            tag_328:\n                /* \"contracts/kalyswap-core/libraries/Math.sol\":180:181  x */\n              dup3\n                /* \"contracts/kalyswap-core/libraries/Math.sol\":172:185  x < y ? x : y */\n            tag_329:\n                /* \"contracts/kalyswap-core/libraries/Math.sol\":168:185  z = x < y ? x : y */\n              swap4\n                /* \"contracts/kalyswap-core/libraries/Math.sol\":98:192  function min(uint x, uint y) internal pure returns (uint z) {... */\n              swap3\n              pop\n              pop\n              pop\n              jump\t// out\n                /* \"contracts/kalyswap-core/KalyswapERC20.sol\":1574:1779  function _burn(address from, uint value) internal {... */\n            tag_219:\n              sub(shl(0xa0, 0x01), 0x01)\n                /* \"contracts/kalyswap-core/KalyswapERC20.sol\":1652:1667  balanceOf[from] */\n              dup3\n              and\n              0x00\n              swap1\n              dup2\n              mstore\n              mstore(0x20, 0x01)\n              0x40\n              swap1\n              keccak256\n              sload\n                /* \"contracts/kalyswap-core/KalyswapERC20.sol\":1652:1678  balanceOf[from].sub(value) */\n              tag_331\n              swap1\n                /* \"contracts/kalyswap-core/KalyswapERC20.sol\":1672:1677  value */\n              dup3\n                /* \"contracts/kalyswap-core/KalyswapERC20.sol\":1652:1671  balanceOf[from].sub */\n              tag_147\n                /* \"contracts/kalyswap-core/KalyswapERC20.sol\":1652:1678  balanceOf[from].sub(value) */\n              jump\t// in\n            tag_331:\n              sub(shl(0xa0, 0x01), 0x01)\n                /* \"contracts/kalyswap-core/KalyswapERC20.sol\":1634:1649  balanceOf[from] */\n              dup4\n              and\n              0x00\n              swap1\n              dup2\n              mstore\n              mstore(0x20, 0x01)\n              0x40\n              dup2\n              keccak256\n                /* \"contracts/kalyswap-core/KalyswapERC20.sol\":1634:1678  balanceOf[from] = balanceOf[from].sub(value) */\n              swap2\n              swap1\n              swap2\n              sstore\n                /* \"contracts/kalyswap-core/KalyswapERC20.sol\":1702:1713  totalSupply */\n              sload\n                /* \"contracts/kalyswap-core/KalyswapERC20.sol\":1702:1724  totalSupply.sub(value) */\n              tag_332\n              swap1\n                /* \"contracts/kalyswap-core/KalyswapERC20.sol\":1718:1723  value */\n              dup3\n                /* \"contracts/kalyswap-core/KalyswapERC20.sol\":1702:1717  totalSupply.sub */\n              tag_147\n                /* \"contracts/kalyswap-core/KalyswapERC20.sol\":1702:1724  totalSupply.sub(value) */\n              jump\t// in\n            tag_332:\n                /* \"contracts/kalyswap-core/KalyswapERC20.sol\":1688:1699  totalSupply */\n              0x00\n                /* \"contracts/kalyswap-core/KalyswapERC20.sol\":1688:1724  totalSupply = totalSupply.sub(value) */\n              swap1\n              dup2\n              sstore\n                /* \"contracts/kalyswap-core/KalyswapERC20.sol\":1739:1772  Transfer(from, address(0), value) */\n              0x40\n              dup1\n              mload\n              dup4\n              dup2\n              mstore\n              swap1\n              mload\n              sub(shl(0xa0, 0x01), 0x01)\n              dup6\n              and\n              swap2\n              0xddf252ad1be2c89b69c2b068fc378daa952ba7f163c4a11628f55a4df523b3ef\n              swap2\n              swap1\n              dup2\n              swap1\n              sub\n              0x20\n              add\n              swap1\n              log3\n                /* \"contracts/kalyswap-core/KalyswapERC20.sol\":1574:1779  function _burn(address from, uint value) internal {... */\n              pop\n              pop\n              jump\t// out\n                /* \"contracts/kalyswap-core/libraries/UQ112x112.sol\":283:401  function encode(uint112 y) internal pure returns (uint224 z) {... */\n            tag_287:\n              sub(shl(0x70, 0x01), 0x01)\n                /* \"contracts/kalyswap-core/libraries/UQ112x112.sol\":358:368  uint224(y) */\n              and\n              shl(0x70, 0x01)\n                /* \"contracts/kalyswap-core/libraries/UQ112x112.sol\":358:375  uint224(y) * Q112 */\n              mul\n              swap1\n                /* \"contracts/kalyswap-core/libraries/UQ112x112.sol\":283:401  function encode(uint112 y) internal pure returns (uint224 z) {... */\n              jump\t// out\n                /* \"contracts/kalyswap-core/libraries/UQ112x112.sol\":469:575  function uqdiv(uint224 x, uint112 y) internal pure returns (uint224 z) {... */\n            tag_288:\n                /* \"contracts/kalyswap-core/libraries/UQ112x112.sol\":529:538  uint224 z */\n              0x00\n              sub(shl(0x70, 0x01), 0x01)\n                /* \"contracts/kalyswap-core/libraries/UQ112x112.sol\":558:568  uint224(y) */\n              dup3\n              and\n              sub(shl(0xe0, 0x01), 0x01)\n                /* \"contracts/kalyswap-core/libraries/UQ112x112.sol\":554:568  x / uint224(y) */\n              dup5\n              and\n                /* \"contracts/kalyswap-core/libraries/UQ112x112.sol\":558:568  uint224(y) */\n              dup2\n                /* \"contracts/kalyswap-core/libraries/UQ112x112.sol\":554:568  x / uint224(y) */\n              tag_335\n              jumpi\n              invalid\n            tag_335:\n              div\n              swap4\n                /* \"contracts/kalyswap-core/libraries/UQ112x112.sol\":469:575  function uqdiv(uint224 x, uint112 y) internal pure returns (uint224 z) {... */\n              swap3\n              pop\n              pop\n              pop\n              jump\t// out\n                /* \"contracts/kalyswap-core/libraries/SafeMath.sol\":155:281  function add(uint x, uint y) internal pure returns (uint z) {... */\n            tag_295:\n                /* \"contracts/kalyswap-core/libraries/SafeMath.sol\":238:243  x + y */\n              dup1\n              dup3\n              add\n                /* \"contracts/kalyswap-core/libraries/SafeMath.sol\":233:249  (z = x + y) >= x */\n              dup3\n              dup2\n              lt\n              iszero\n                /* \"contracts/kalyswap-core/libraries/SafeMath.sol\":225:274  require((z = x + y) >= x, 'ds-math-add-overflow') */\n              tag_158\n              jumpi\n              0x40\n              dup1\n              mload\n              shl(0xe5, 0x461bcd)\n              dup2\n              mstore\n              0x20\n              0x04\n              dup3\n              add\n              mstore\n              0x14\n              0x24\n              dup3\n              add\n              mstore\n              shl(0x60, 0x64732d6d6174682d6164642d6f766572666c6f77)\n              0x44\n              dup3\n              add\n              mstore\n              swap1\n              mload\n              swap1\n              dup2\n              swap1\n              sub\n              0x64\n              add\n              swap1\n              revert\n            stop\n            data_0ab0350c45f281195d02e95ee380f6a81377d1418b52bca20e90c5393cc4ad99 4b616c79737761703a20494e53554646494349454e545f494e5055545f414d4f554e54\n            data_155e26636215cc7cf33a9201a8bb56ae2e8d879dd67a1dca3f8fe1fa2c30aebf 4b616c79737761703a20494e53554646494349454e545f4f55545055545f414d4f554e54\n            data_9ee433e3d6830e1e0d04ac3995c1c7db80ed58256ee7b6fb6a7455d1450d81ba 4b616c79737761703a20494e53554646494349454e545f4c49515549444954595f4d494e544544\n            data_e5e2a845b8424aa9f019bfb478b8094907c6e08ef0e71b5ca527cdbc32a0d5c3 4b616c79737761703a20494e53554646494349454e545f4c49515549444954595f4255524e4544\n\n            auxdata: 0xa265627a7a723158204e9b9c7dd735e8a54453b08cb49b695858cc132863e2baa919a007a930b7b36564736f6c63430005100032\n        }\n    }\n\n    auxdata: 0xa265627a7a72315820a1706284ba0945da6f4b459c9d5385efb34aa0cf4dfcd8916d5e88f1d7bba92464736f6c63430005100032\n}\n",
				"bytecode": {
					"linkReferences": {},
					"object": "608060405234801561001057600080fd5b506124f6806100206000396000f3fe608060405234801561001057600080fd5b506004361061002b5760003560e01c80633c9de1b814610030575b600080fd5b61003861004a565b60408051918252519081900360200190f35b600060606040518060200161005e906100e8565b6020820181038252601f19601f820116604052509050806040516020018082805190602001908083835b602083106100a75780518252601f199092019160209182019101610088565b6001836020036101000a0380198251168184511680821785525050505050509050019150506040516020818303038152906040528051906020012091505090565b6123cc806100f68339019056fe60806040526001600c5534801561001557600080fd5b50604051469080605261237a823960408051918290036052018220828201825260128352714b616c7973776170204c697175696469747960701b6020938401528151808301835260018152603160f81b908401528151808401919091527fd962d480548cea2d6ee7e34d119800d6b46dee603ed4fe4f1382f1d6ff280ab0818301527fc89efdaa54c0f20c7adf612882df0950f5a951637e0307cdcb4c672f298b8bc6606082015260808101949094523060a0808601919091528151808603909101815260c09094019052825192019190912060035550600580546001600160a01b0319163317905561226d8061010d6000396000f3fe608060405234801561001057600080fd5b50600436106101a95760003560e01c80636a627842116100f9578063ba9a7a5611610097578063d21220a711610071578063d21220a714610534578063d505accf1461053c578063dd62ed3e1461058d578063fff6cae9146105bb576101a9565b8063ba9a7a56146104fe578063bc25cf7714610506578063c45a01551461052c576101a9565b80637ecebe00116100d35780637ecebe001461046557806389afcb441461048b57806395d89b41146104ca578063a9059cbb146104d2576101a9565b80636a6278421461041157806370a08231146104375780637464fc3d1461045d576101a9565b806323b872dd116101665780633644e515116101405780633644e515146103cb578063485cc955146103d35780635909c0d5146104015780635a3d549314610409576101a9565b806323b872dd1461036f57806330adf81f146103a5578063313ce567146103ad576101a9565b8063022c0d9f146101ae57806306fdde031461023c5780630902f1ac146102b9578063095ea7b3146102f15780630dfe16811461033157806318160ddd14610355575b600080fd5b61023a600480360360808110156101c457600080fd5b8135916020810135916001600160a01b0360408301351691908101906080810160608201356401000000008111156101fb57600080fd5b82018360208201111561020d57600080fd5b8035906020019184600183028401116401000000008311171561022f57600080fd5b5090925090506105c3565b005b610244610b11565b6040805160208082528351818301528351919283929083019185019080838360005b8381101561027e578181015183820152602001610266565b50505050905090810190601f1680156102ab5780820380516001836020036101000a031916815260200191505b509250505060405180910390f35b6102c1610b3f565b604080516001600160701b03948516815292909316602083015263ffffffff168183015290519081900360600190f35b61031d6004803603604081101561030757600080fd5b506001600160a01b038135169060200135610b69565b604080519115158252519081900360200190f35b610339610b80565b604080516001600160a01b039092168252519081900360200190f35b61035d610b8f565b60408051918252519081900360200190f35b61031d6004803603606081101561038557600080fd5b506001600160a01b03813581169160208101359091169060400135610b95565b61035d610c2f565b6103b5610c53565b6040805160ff9092168252519081900360200190f35b61035d610c58565b61023a600480360360408110156103e957600080fd5b506001600160a01b0381358116916020013516610c5e565b61035d610ce1565b61035d610ce7565b61035d6004803603602081101561042757600080fd5b50356001600160a01b0316610ced565b61035d6004803603602081101561044d57600080fd5b50356001600160a01b0316610fec565b61035d610ffe565b61035d6004803603602081101561047b57600080fd5b50356001600160a01b0316611004565b6104b1600480360360208110156104a157600080fd5b50356001600160a01b0316611016565b6040805192835260208301919091528051918290030190f35b6102446113bb565b61031d600480360360408110156104e857600080fd5b506001600160a01b0381351690602001356113da565b61035d6113e7565b61023a6004803603602081101561051c57600080fd5b50356001600160a01b03166113ed565b610339611557565b610339611566565b61023a600480360360e081101561055257600080fd5b506001600160a01b03813581169160208101359091169060408101359060608101359060ff6080820135169060a08101359060c00135611575565b61035d600480360360408110156105a357600080fd5b506001600160a01b0381358116916020013516611776565b61023a611793565b600c5460011461060d576040805162461bcd60e51b815260206004820152601060248201526f12d85b1e5cddd85c0e881313d0d2d15160821b604482015290519081900360640190fd5b6000600c55841515806106205750600084115b61065b5760405162461bcd60e51b81526004018080602001828103825260248152602001806121c76024913960400191505060405180910390fd5b600080610666610b3f565b5091509150816001600160701b03168710801561068b5750806001600160701b031686105b6106dc576040805162461bcd60e51b815260206004820181905260248201527f4b616c79737761703a20494e53554646494349454e545f4c4951554944495459604482015290519081900360640190fd5b60065460075460009182916001600160a01b0391821691908116908916821480159061071a5750806001600160a01b0316896001600160a01b031614155b610762576040805162461bcd60e51b81526020600482015260146024820152734b616c79737761703a20494e56414c49445f544f60601b604482015290519081900360640190fd5b8a1561077357610773828a8d6118f4565b891561078457610784818a8c6118f4565b861561083f57886001600160a01b0316633594162a338d8d8c8c6040518663ffffffff1660e01b815260040180866001600160a01b03166001600160a01b03168152602001858152602001848152602001806020018281038252848482818152602001925080828437600081840152601f19601f8201169050808301925050509650505050505050600060405180830381600087803b15801561082657600080fd5b505af115801561083a573d6000803e3d6000fd5b505050505b604080516370a0823160e01b815230600482015290516001600160a01b038416916370a08231916024808301926020929190829003018186803b15801561088557600080fd5b505afa158015610899573d6000803e3d6000fd5b505050506040513d60208110156108af57600080fd5b5051604080516370a0823160e01b815230600482015290519195506001600160a01b038316916370a0823191602480820192602092909190829003018186803b1580156108fb57600080fd5b505afa15801561090f573d6000803e3d6000fd5b505050506040513d602081101561092557600080fd5b5051925060009150506001600160701b0385168a90038311610948576000610957565b89856001600160701b03160383035b9050600089856001600160701b0316038311610974576000610983565b89856001600160701b03160383035b905060008211806109945750600081115b6109cf5760405162461bcd60e51b81526004018080602001828103825260238152602001806121a46023913960400191505060405180910390fd5b6000610a036109e584600363ffffffff611a8e16565b6109f7876103e863ffffffff611a8e16565b9063ffffffff611af116565b90506000610a1b6109e584600363ffffffff611a8e16565b9050610a4c620f4240610a406001600160701b038b8116908b1663ffffffff611a8e16565b9063ffffffff611a8e16565b610a5c838363ffffffff611a8e16565b1015610a9d576040805162461bcd60e51b815260206004820152600b60248201526a4b616c79737761703a204b60a81b604482015290519081900360640190fd5b5050610aab84848888611b41565b60408051838152602081018390528082018d9052606081018c905290516001600160a01b038b169133917fd78ad95fa46c994b6551d0da85fc275fe613ce37657fb8d5e3d130840159d8229181900360800190a350506001600c55505050505050505050565b604051806040016040528060128152602001714b616c7973776170204c697175696469747960701b81525081565b6008546001600160701b0380821692600160701b830490911691600160e01b900463ffffffff1690565b6000610b76338484611d05565b5060015b92915050565b6006546001600160a01b031681565b60005481565b6001600160a01b038316600090815260026020908152604080832033845290915281205460001914610c1a576001600160a01b0384166000908152600260209081526040808320338452909152902054610bf5908363ffffffff611af116565b6001600160a01b03851660009081526002602090815260408083203384529091529020555b610c25848484611d67565b5060019392505050565b7f6e71edae12b1b97f4d1f60370fef10105fa2faae0126114a169c64845d6126c981565b601281565b60035481565b6005546001600160a01b03163314610cb3576040805162461bcd60e51b815260206004820152601360248201527225b0b63cb9bbb0b81d102327a92124a22222a760691b604482015290519081900360640190fd5b600680546001600160a01b039384166001600160a01b03199182161790915560078054929093169116179055565b60095481565b600a5481565b6000600c54600114610d39576040805162461bcd60e51b815260206004820152601060248201526f12d85b1e5cddd85c0e881313d0d2d15160821b604482015290519081900360640190fd5b6000600c81905580610d49610b3f565b50600654604080516370a0823160e01b815230600482015290519395509193506000926001600160a01b03909116916370a08231916024808301926020929190829003018186803b158015610d9d57600080fd5b505afa158015610db1573d6000803e3d6000fd5b505050506040513d6020811015610dc757600080fd5b5051600754604080516370a0823160e01b815230600482015290519293506000926001600160a01b03909216916370a0823191602480820192602092909190829003018186803b158015610e1a57600080fd5b505afa158015610e2e573d6000803e3d6000fd5b505050506040513d6020811015610e4457600080fd5b505190506000610e63836001600160701b03871663ffffffff611af116565b90506000610e80836001600160701b03871663ffffffff611af116565b90506000610e8e8787611e21565b60005490915080610ecb57610eb76103e86109f7610eb2878763ffffffff611a8e16565b611f7f565b9850610ec660006103e8611fd1565b610f1a565b610f176001600160701b038916610ee8868463ffffffff611a8e16565b81610eef57fe5b046001600160701b038916610f0a868563ffffffff611a8e16565b81610f1157fe5b04612067565b98505b60008911610f595760405162461bcd60e51b81526004018080602001828103825260278152602001806121eb6027913960400191505060405180910390fd5b610f638a8a611fd1565b610f6f86868a8a611b41565b8115610f9f57600854610f9b906001600160701b0380821691600160701b90041663ffffffff611a8e16565b600b555b6040805185815260208101859052815133927f4c209b5fc8ad50758f13e2e1088ba56a560dff690a1c6fef26394f4c03821c4f928290030190a250506001600c5550949695505050505050565b60016020526000908152604090205481565b600b5481565b60046020526000908152604090205481565b600080600c54600114611063576040805162461bcd60e51b815260206004820152601060248201526f12d85b1e5cddd85c0e881313d0d2d15160821b604482015290519081900360640190fd5b6000600c81905580611073610b3f565b50600654600754604080516370a0823160e01b815230600482015290519496509294506001600160a01b039182169391169160009184916370a08231916024808301926020929190829003018186803b1580156110cf57600080fd5b505afa1580156110e3573d6000803e3d6000fd5b505050506040513d60208110156110f957600080fd5b5051604080516370a0823160e01b815230600482015290519192506000916001600160a01b038516916370a08231916024808301926020929190829003018186803b15801561114757600080fd5b505afa15801561115b573d6000803e3d6000fd5b505050506040513d602081101561117157600080fd5b5051306000908152600160205260408120549192506111908888611e21565b600054909150806111a7848763ffffffff611a8e16565b816111ae57fe5b049a50806111c2848663ffffffff611a8e16565b816111c957fe5b04995060008b1180156111dc575060008a115b6112175760405162461bcd60e51b81526004018080602001828103825260278152602001806122126027913960400191505060405180910390fd5b611221308461207f565b61122c878d8d6118f4565b611237868d8c6118f4565b604080516370a0823160e01b815230600482015290516001600160a01b038916916370a08231916024808301926020929190829003018186803b15801561127d57600080fd5b505afa158015611291573d6000803e3d6000fd5b505050506040513d60208110156112a757600080fd5b5051604080516370a0823160e01b815230600482015290519196506001600160a01b038816916370a0823191602480820192602092909190829003018186803b1580156112f357600080fd5b505afa158015611307573d6000803e3d6000fd5b505050506040513d602081101561131d57600080fd5b5051935061132d85858b8b611b41565b811561135d57600854611359906001600160701b0380821691600160701b90041663ffffffff611a8e16565b600b555b604080518c8152602081018c905281516001600160a01b038f169233927fdccd412f0b1252819cb1fd330b93224ca42612892bb3f4f789976e6d81936496929081900390910190a35050505050505050506001600c81905550915091565b6040518060400160405280600381526020016212d4d360ea1b81525081565b6000610b76338484611d67565b6103e881565b600c54600114611437576040805162461bcd60e51b815260206004820152601060248201526f12d85b1e5cddd85c0e881313d0d2d15160821b604482015290519081900360640190fd5b6000600c55600654600754600854604080516370a0823160e01b815230600482015290516001600160a01b0394851694909316926114e692859287926114e1926001600160701b03169185916370a0823191602480820192602092909190829003018186803b1580156114a957600080fd5b505afa1580156114bd573d6000803e3d6000fd5b505050506040513d60208110156114d357600080fd5b50519063ffffffff611af116565b6118f4565b600854604080516370a0823160e01b8152306004820152905161154d92849287926114e192600160701b90046001600160701b0316916001600160a01b038616916370a0823191602480820192602092909190829003018186803b1580156114a957600080fd5b50506001600c5550565b6005546001600160a01b031681565b6007546001600160a01b031681565b428410156115be576040805162461bcd60e51b815260206004820152601160248201527012d85b1e5cddd85c0e8811561412549151607a1b604482015290519081900360640190fd5b6003546001600160a01b0380891660008181526004602090815260408083208054600180820190925582517f6e71edae12b1b97f4d1f60370fef10105fa2faae0126114a169c64845d6126c98186015280840196909652958d166060860152608085018c905260a085019590955260c08085018b90528151808603909101815260e08501825280519083012061190160f01b6101008601526101028501969096526101228085019690965280518085039096018652610142840180825286519683019690962095839052610162840180825286905260ff89166101828501526101a284018890526101c28401879052519193926101e280820193601f1981019281900390910190855afa1580156116d9573d6000803e3d6000fd5b5050604051601f1901519150506001600160a01b0381161580159061170f5750886001600160a01b0316816001600160a01b0316145b611760576040805162461bcd60e51b815260206004820152601b60248201527f4b616c79737761703a20494e56414c49445f5349474e41545552450000000000604482015290519081900360640190fd5b61176b898989611d05565b505050505050505050565b600260209081526000928352604080842090915290825290205481565b600c546001146117dd576040805162461bcd60e51b815260206004820152601060248201526f12d85b1e5cddd85c0e881313d0d2d15160821b604482015290519081900360640190fd5b6000600c55600654604080516370a0823160e01b815230600482015290516118ed926001600160a01b0316916370a08231916024808301926020929190829003018186803b15801561182e57600080fd5b505afa158015611842573d6000803e3d6000fd5b505050506040513d602081101561185857600080fd5b5051600754604080516370a0823160e01b815230600482015290516001600160a01b03909216916370a0823191602480820192602092909190829003018186803b1580156118a557600080fd5b505afa1580156118b9573d6000803e3d6000fd5b505050506040513d60208110156118cf57600080fd5b50516008546001600160701b0380821691600160701b900416611b41565b6001600c55565b604080518082018252601981527f7472616e7366657228616464726573732c75696e74323536290000000000000060209182015281516001600160a01b0385811660248301526044808301869052845180840390910181526064909201845291810180516001600160e01b031663a9059cbb60e01b1781529251815160009460609489169392918291908083835b602083106119a15780518252601f199092019160209182019101611982565b6001836020036101000a0380198251168184511680821785525050505050509050019150506000604051808303816000865af19150503d8060008114611a03576040519150601f19603f3d011682016040523d82523d6000602084013e611a08565b606091505b5091509150818015611a36575080511580611a365750808060200190516020811015611a3357600080fd5b50515b611a87576040805162461bcd60e51b815260206004820152601960248201527f4b616c79737761703a205452414e534645525f4641494c454400000000000000604482015290519081900360640190fd5b5050505050565b6000811580611aa957505080820282828281611aa657fe5b04145b610b7a576040805162461bcd60e51b815260206004820152601460248201527364732d6d6174682d6d756c2d6f766572666c6f7760601b604482015290519081900360640190fd5b80820382811115610b7a576040805162461bcd60e51b815260206004820152601560248201527464732d6d6174682d7375622d756e646572666c6f7760581b604482015290519081900360640190fd5b6001600160701b038411801590611b5f57506001600160701b038311155b611ba5576040805162461bcd60e51b81526020600482015260126024820152714b616c79737761703a204f564552464c4f5760701b604482015290519081900360640190fd5b60085463ffffffff42811691600160e01b90048116820390811615801590611bd557506001600160701b03841615155b8015611be957506001600160701b03831615155b15611c5a578063ffffffff16611c1785611c028661211d565b6001600160e01b03169063ffffffff61212f16565b600980546001600160e01b03929092169290920201905563ffffffff8116611c4284611c028761211d565b600a80546001600160e01b0392909216929092020190555b600880546dffffffffffffffffffffffffffff19166001600160701b03888116919091176dffffffffffffffffffffffffffff60701b1916600160701b8883168102919091176001600160e01b0316600160e01b63ffffffff871602179283905560408051848416815291909304909116602082015281517f1c411e9a96e071241c2f21f7726b17ae89e3cab4c78be50e062b03a9fffbbad1929181900390910190a1505050505050565b6001600160a01b03808416600081815260026020908152604080832094871680845294825291829020859055815185815291517f8c5be1e5ebec7d5bd14f71427d1e84f3dd0314c0f7b2291e5b200ac8c7c3b9259281900390910190a3505050565b6001600160a01b038316600090815260016020526040902054611d90908263ffffffff611af116565b6001600160a01b038085166000908152600160205260408082209390935590841681522054611dc5908263ffffffff61215416565b6001600160a01b0380841660008181526001602090815260409182902094909455805185815290519193928716927fddf252ad1be2c89b69c2b068fc378daa952ba7f163c4a11628f55a4df523b3ef92918290030190a3505050565b600080600560009054906101000a90046001600160a01b03166001600160a01b031663017e7e586040518163ffffffff1660e01b815260040160206040518083038186803b158015611e7257600080fd5b505afa158015611e86573d6000803e3d6000fd5b505050506040513d6020811015611e9c57600080fd5b5051600b546001600160a01b038216158015945091925090611f6b578015611f66576000611edf610eb26001600160701b0388811690881663ffffffff611a8e16565b90506000611eec83611f7f565b905080821115611f63576000611f1a611f0b848463ffffffff611af116565b6000549063ffffffff611a8e16565b90506000611f3f83611f3386600563ffffffff611a8e16565b9063ffffffff61215416565b90506000818381611f4c57fe5b0490508015611f5f57611f5f8782611fd1565b5050505b50505b611f77565b8015611f77576000600b555b505092915050565b60006003821115611fc2575080600160028204015b81811015611fbc57809150600281828581611fab57fe5b040181611fb457fe5b049050611f94565b50611fcc565b8115611fcc575060015b919050565b600054611fe4908263ffffffff61215416565b60009081556001600160a01b03831681526001602052604090205461200f908263ffffffff61215416565b6001600160a01b03831660008181526001602090815260408083209490945583518581529351929391927fddf252ad1be2c89b69c2b068fc378daa952ba7f163c4a11628f55a4df523b3ef9281900390910190a35050565b60008183106120765781612078565b825b9392505050565b6001600160a01b0382166000908152600160205260409020546120a8908263ffffffff611af116565b6001600160a01b038316600090815260016020526040812091909155546120d5908263ffffffff611af116565b60009081556040805183815290516001600160a01b038516917fddf252ad1be2c89b69c2b068fc378daa952ba7f163c4a11628f55a4df523b3ef919081900360200190a35050565b6001600160701b0316600160701b0290565b60006001600160701b0382166001600160e01b0384168161214c57fe5b049392505050565b80820182811015610b7a576040805162461bcd60e51b815260206004820152601460248201527364732d6d6174682d6164642d6f766572666c6f7760601b604482015290519081900360640190fdfe4b616c79737761703a20494e53554646494349454e545f494e5055545f414d4f554e544b616c79737761703a20494e53554646494349454e545f4f55545055545f414d4f554e544b616c79737761703a20494e53554646494349454e545f4c49515549444954595f4d494e5445444b616c79737761703a20494e53554646494349454e545f4c49515549444954595f4255524e4544a265627a7a723158204e9b9c7dd735e8a54453b08cb49b695858cc132863e2baa919a007a930b7b36564736f6c63430005100032454950373132446f6d61696e28737472696e67206e616d652c737472696e672076657273696f6e2c75696e7432353620636861696e49642c6164647265737320766572696679696e67436f6e747261637429a265627a7a72315820a1706284ba0945da6f4b459c9d5385efb34aa0cf4dfcd8916d5e88f1d7bba92464736f6c63430005100032",
					"opcodes": "PUSH1 0x80 PUSH1 0x40 MSTORE CALLVALUE DUP1 ISZERO PUSH2 0x10 JUMPI PUSH1 0x0 DUP1 REVERT JUMPDEST POP PUSH2 0x24F6 DUP1 PUSH2 0x20 PUSH1 0x0 CODECOPY PUSH1 0x0 RETURN INVALID PUSH1 0x80 PUSH1 0x40 MSTORE CALLVALUE DUP1 ISZERO PUSH2 0x10 JUMPI PUSH1 0x0 DUP1 REVERT JUMPDEST POP PUSH1 0x4 CALLDATASIZE LT PUSH2 0x2B JUMPI PUSH1 0x0 CALLDATALOAD PUSH1 0xE0 SHR DUP1 PUSH4 0x3C9DE1B8 EQ PUSH2 0x30 JUMPI JUMPDEST PUSH1 0x0 DUP1 REVERT JUMPDEST PUSH2 0x38 PUSH2 0x4A JUMP JUMPDEST PUSH1 0x40 DUP1 MLOAD SWAP2 DUP3 MSTORE MLOAD SWAP1 DUP2 SWAP1 SUB PUSH1 0x20 ADD SWAP1 RETURN JUMPDEST PUSH1 0x0 PUSH1 0x60 PUSH1 0x40 MLOAD DUP1 PUSH1 0x20 ADD PUSH2 0x5E SWAP1 PUSH2 0xE8 JUMP JUMPDEST PUSH1 0x20 DUP3 ADD DUP2 SUB DUP3 MSTORE PUSH1 0x1F NOT PUSH1 0x1F DUP3 ADD AND PUSH1 0x40 MSTORE POP SWAP1 POP DUP1 PUSH1 0x40 MLOAD PUSH1 0x20 ADD DUP1 DUP3 DUP1 MLOAD SWAP1 PUSH1 0x20 ADD SWAP1 DUP1 DUP4 DUP4 JUMPDEST PUSH1 0x20 DUP4 LT PUSH2 0xA7 JUMPI DUP1 MLOAD DUP3 MSTORE PUSH1 0x1F NOT SWAP1 SWAP3 ADD SWAP2 PUSH1 0x20 SWAP2 DUP3 ADD SWAP2 ADD PUSH2 0x88 JUMP JUMPDEST PUSH1 0x1 DUP4 PUSH1 0x20 SUB PUSH2 0x100 EXP SUB DUP1 NOT DUP3 MLOAD AND DUP2 DUP5 MLOAD AND DUP1 DUP3 OR DUP6 MSTORE POP POP POP POP POP POP SWAP1 POP ADD SWAP2 POP POP PUSH1 0x40 MLOAD PUSH1 0x20 DUP2 DUP4 SUB SUB DUP2 MSTORE SWAP1 PUSH1 0x40 MSTORE DUP1 MLOAD SWAP1 PUSH1 0x20 ADD KECCAK256 SWAP2 POP POP SWAP1 JUMP JUMPDEST PUSH2 0x23CC DUP1 PUSH2 0xF6 DUP4 CODECOPY ADD SWAP1 JUMP INVALID PUSH1 0x80 PUSH1 0x40 MSTORE PUSH1 0x1 PUSH1 0xC SSTORE CALLVALUE DUP1 ISZERO PUSH2 0x15 JUMPI PUSH1 0x0 DUP1 REVERT JUMPDEST POP PUSH1 0x40 MLOAD CHAINID SWAP1 DUP1 PUSH1 0x52 PUSH2 0x237A DUP3 CODECOPY PUSH1 0x40 DUP1 MLOAD SWAP2 DUP3 SWAP1 SUB PUSH1 0x52 ADD DUP3 KECCAK256 DUP3 DUP3 ADD DUP3 MSTORE PUSH1 0x12 DUP4 MSTORE PUSH18 0x4B616C7973776170204C6971756964697479 PUSH1 0x70 SHL PUSH1 0x20 SWAP4 DUP5 ADD MSTORE DUP2 MLOAD DUP1 DUP4 ADD DUP4 MSTORE PUSH1 0x1 DUP2 MSTORE PUSH1 0x31 PUSH1 0xF8 SHL SWAP1 DUP5 ADD MSTORE DUP2 MLOAD DUP1 DUP5 ADD SWAP2 SWAP1 SWAP2 MSTORE PUSH32 0xD962D480548CEA2D6EE7E34D119800D6B46DEE603ED4FE4F1382F1D6FF280AB0 DUP2 DUP4 ADD MSTORE PUSH32 0xC89EFDAA54C0F20C7ADF612882DF0950F5A951637E0307CDCB4C672F298B8BC6 PUSH1 0x60 DUP3 ADD MSTORE PUSH1 0x80 DUP2 ADD SWAP5 SWAP1 SWAP5 MSTORE ADDRESS PUSH1 0xA0 DUP1 DUP7 ADD SWAP2 SWAP1 SWAP2 MSTORE DUP2 MLOAD DUP1 DUP7 SUB SWAP1 SWAP2 ADD DUP2 MSTORE PUSH1 0xC0 SWAP1 SWAP5 ADD SWAP1 MSTORE DUP3 MLOAD SWAP3 ADD SWAP2 SWAP1 SWAP2 KECCAK256 PUSH1 0x3 SSTORE POP PUSH1 0x5 DUP1 SLOAD PUSH1 0x1 PUSH1 0x1 PUSH1 0xA0 SHL SUB NOT AND CALLER OR SWAP1 SSTORE PUSH2 0x226D DUP1 PUSH2 0x10D PUSH1 0x0 CODECOPY PUSH1 0x0 RETURN INVALID PUSH1 0x80 PUSH1 0x40 MSTORE CALLVALUE DUP1 ISZERO PUSH2 0x10 JUMPI PUSH1 0x0 DUP1 REVERT JUMPDEST POP PUSH1 0x4 CALLDATASIZE LT PUSH2 0x1A9 JUMPI PUSH1 0x0 CALLDATALOAD PUSH1 0xE0 SHR DUP1 PUSH4 0x6A627842 GT PUSH2 0xF9 JUMPI DUP1 PUSH4 0xBA9A7A56 GT PUSH2 0x97 JUMPI DUP1 PUSH4 0xD21220A7 GT PUSH2 0x71 JUMPI DUP1 PUSH4 0xD21220A7 EQ PUSH2 0x534 JUMPI DUP1 PUSH4 0xD505ACCF EQ PUSH2 0x53C JUMPI DUP1 PUSH4 0xDD62ED3E EQ PUSH2 0x58D JUMPI DUP1 PUSH4 0xFFF6CAE9 EQ PUSH2 0x5BB JUMPI PUSH2 0x1A9 JUMP JUMPDEST DUP1 PUSH4 0xBA9A7A56 EQ PUSH2 0x4FE JUMPI DUP1 PUSH4 0xBC25CF77 EQ PUSH2 0x506 JUMPI DUP1 PUSH4 0xC45A0155 EQ PUSH2 0x52C JUMPI PUSH2 0x1A9 JUMP JUMPDEST DUP1 PUSH4 0x7ECEBE00 GT PUSH2 0xD3 JUMPI DUP1 PUSH4 0x7ECEBE00 EQ PUSH2 0x465 JUMPI DUP1 PUSH4 0x89AFCB44 EQ PUSH2 0x48B JUMPI DUP1 PUSH4 0x95D89B41 EQ PUSH2 0x4CA JUMPI DUP1 PUSH4 0xA9059CBB EQ PUSH2 0x4D2 JUMPI PUSH2 0x1A9 JUMP JUMPDEST DUP1 PUSH4 0x6A627842 EQ PUSH2 0x411 JUMPI DUP1 PUSH4 0x70A08231 EQ PUSH2 0x437 JUMPI DUP1 PUSH4 0x7464FC3D EQ PUSH2 0x45D JUMPI PUSH2 0x1A9 JUMP JUMPDEST DUP1 PUSH4 0x23B872DD GT PUSH2 0x166 JUMPI DUP1 PUSH4 0x3644E515 GT PUSH2 0x140 JUMPI DUP1 PUSH4 0x3644E515 EQ PUSH2 0x3CB JUMPI DUP1 PUSH4 0x485CC955 EQ PUSH2 0x3D3 JUMPI DUP1 PUSH4 0x5909C0D5 EQ PUSH2 0x401 JUMPI DUP1 PUSH4 0x5A3D5493 EQ PUSH2 0x409 JUMPI PUSH2 0x1A9 JUMP JUMPDEST DUP1 PUSH4 0x23B872DD EQ PUSH2 0x36F JUMPI DUP1 PUSH4 0x30ADF81F EQ PUSH2 0x3A5 JUMPI DUP1 PUSH4 0x313CE567 EQ PUSH2 0x3AD JUMPI PUSH2 0x1A9 JUMP JUMPDEST DUP1 PUSH4 0x22C0D9F EQ PUSH2 0x1AE JUMPI DUP1 PUSH4 0x6FDDE03 EQ PUSH2 0x23C JUMPI DUP1 PUSH4 0x902F1AC EQ PUSH2 0x2B9 JUMPI DUP1 PUSH4 0x95EA7B3 EQ PUSH2 0x2F1 JUMPI DUP1 PUSH4 0xDFE1681 EQ PUSH2 0x331 JUMPI DUP1 PUSH4 0x18160DDD EQ PUSH2 0x355 JUMPI JUMPDEST PUSH1 0x0 DUP1 REVERT JUMPDEST PUSH2 0x23A PUSH1 0x4 DUP1 CALLDATASIZE SUB PUSH1 0x80 DUP2 LT ISZERO PUSH2 0x1C4 JUMPI PUSH1 0x0 DUP1 REVERT JUMPDEST DUP2 CALLDATALOAD SWAP2 PUSH1 0x20 DUP2 ADD CALLDATALOAD SWAP2 PUSH1 0x1 PUSH1 0x1 PUSH1 0xA0 SHL SUB PUSH1 0x40 DUP4 ADD CALLDATALOAD AND SWAP2 SWAP1 DUP2 ADD SWAP1 PUSH1 0x80 DUP2 ADD PUSH1 0x60 DUP3 ADD CALLDATALOAD PUSH5 0x100000000 DUP2 GT ISZERO PUSH2 0x1FB JUMPI PUSH1 0x0 DUP1 REVERT JUMPDEST DUP3 ADD DUP4 PUSH1 0x20 DUP3 ADD GT ISZERO PUSH2 0x20D JUMPI PUSH1 0x0 DUP1 REVERT JUMPDEST DUP1 CALLDATALOAD SWAP1 PUSH1 0x20 ADD SWAP2 DUP5 PUSH1 0x1 DUP4 MUL DUP5 ADD GT PUSH5 0x100000000 DUP4 GT OR ISZERO PUSH2 0x22F JUMPI PUSH1 0x0 DUP1 REVERT JUMPDEST POP SWAP1 SWAP3 POP SWAP1 POP PUSH2 0x5C3 JUMP JUMPDEST STOP JUMPDEST PUSH2 0x244 PUSH2 0xB11 JUMP JUMPDEST PUSH1 0x40 DUP1 MLOAD PUSH1 0x20 DUP1 DUP3 MSTORE DUP4 MLOAD DUP2 DUP4 ADD MSTORE DUP4 MLOAD SWAP2 SWAP3 DUP4 SWAP3 SWAP1 DUP4 ADD SWAP2 DUP6 ADD SWAP1 DUP1 DUP4 DUP4 PUSH1 0x0 JUMPDEST DUP4 DUP2 LT ISZERO PUSH2 0x27E JUMPI DUP2 DUP2 ADD MLOAD DUP4 DUP3 ADD MSTORE PUSH1 0x20 ADD PUSH2 0x266 JUMP JUMPDEST POP POP POP POP SWAP1 POP SWAP1 DUP2 ADD SWAP1 PUSH1 0x1F AND DUP1 ISZERO PUSH2 0x2AB JUMPI DUP1 DUP3 SUB DUP1 MLOAD PUSH1 0x1 DUP4 PUSH1 0x20 SUB PUSH2 0x100 EXP SUB NOT AND DUP2 MSTORE PUSH1 0x20 ADD SWAP2 POP JUMPDEST POP SWAP3 POP POP POP PUSH1 0x40 MLOAD DUP1 SWAP2 SUB SWAP1 RETURN JUMPDEST PUSH2 0x2C1 PUSH2 0xB3F JUMP JUMPDEST PUSH1 0x40 DUP1 MLOAD PUSH1 0x1 PUSH1 0x1 PUSH1 0x70 SHL SUB SWAP5 DUP6 AND DUP2 MSTORE SWAP3 SWAP1 SWAP4 AND PUSH1 0x20 DUP4 ADD MSTORE PUSH4 0xFFFFFFFF AND DUP2 DUP4 ADD MSTORE SWAP1 MLOAD SWAP1 DUP2 SWAP1 SUB PUSH1 0x60 ADD SWAP1 RETURN JUMPDEST PUSH2 0x31D PUSH1 0x4 DUP1 CALLDATASIZE SUB PUSH1 0x40 DUP2 LT ISZERO PUSH2 0x307 JUMPI PUSH1 0x0 DUP1 REVERT JUMPDEST POP PUSH1 0x1 PUSH1 0x1 PUSH1 0xA0 SHL SUB DUP2 CALLDATALOAD AND SWAP1 PUSH1 0x20 ADD CALLDATALOAD PUSH2 0xB69 JUMP JUMPDEST PUSH1 0x40 DUP1 MLOAD SWAP2 ISZERO ISZERO DUP3 MSTORE MLOAD SWAP1 DUP2 SWAP1 SUB PUSH1 0x20 ADD SWAP1 RETURN JUMPDEST PUSH2 0x339 PUSH2 0xB80 JUMP JUMPDEST PUSH1 0x40 DUP1 MLOAD PUSH1 0x1 PUSH1 0x1 PUSH1 0xA0 SHL SUB SWAP1 SWAP3 AND DUP3 MSTORE MLOAD SWAP1 DUP2 SWAP1 SUB PUSH1 0x20 ADD SWAP1 RETURN JUMPDEST PUSH2 0x35D PUSH2 0xB8F JUMP JUMPDEST PUSH1 0x40 DUP1 MLOAD SWAP2 DUP3 MSTORE MLOAD SWAP1 DUP2 SWAP1 SUB PUSH1 0x20 ADD SWAP1 RETURN JUMPDEST PUSH2 0x31D PUSH1 0x4 DUP1 CALLDATASIZE SUB PUSH1 0x60 DUP2 LT ISZERO PUSH2 0x385 JUMPI PUSH1 0x0 DUP1 REVERT JUMPDEST POP PUSH1 0x1 PUSH1 0x1 PUSH1 0xA0 SHL SUB DUP2 CALLDATALOAD DUP2 AND SWAP2 PUSH1 0x20 DUP2 ADD CALLDATALOAD SWAP1 SWAP2 AND SWAP1 PUSH1 0x40 ADD CALLDATALOAD PUSH2 0xB95 JUMP JUMPDEST PUSH2 0x35D PUSH2 0xC2F JUMP JUMPDEST PUSH2 0x3B5 PUSH2 0xC53 JUMP JUMPDEST PUSH1 0x40 DUP1 MLOAD PUSH1 0xFF SWAP1 SWAP3 AND DUP3 MSTORE MLOAD SWAP1 DUP2 SWAP1 SUB PUSH1 0x20 ADD SWAP1 RETURN JUMPDEST PUSH2 0x35D PUSH2 0xC58 JUMP JUMPDEST PUSH2 0x23A PUSH1 0x4 DUP1 CALLDATASIZE SUB PUSH1 0x40 DUP2 LT ISZERO PUSH2 0x3E9 JUMPI PUSH1 0x0 DUP1 REVERT JUMPDEST POP PUSH1 0x1 PUSH1 0x1 PUSH1 0xA0 SHL SUB DUP2 CALLDATALOAD DUP2 AND SWAP2 PUSH1 0x20 ADD CALLDATALOAD AND PUSH2 0xC5E JUMP JUMPDEST PUSH2 0x35D PUSH2 0xCE1 JUMP JUMPDEST PUSH2 0x35D PUSH2 0xCE7 JUMP JUMPDEST PUSH2 0x35D PUSH1 0x4 DUP1 CALLDATASIZE SUB PUSH1 0x20 DUP2 LT ISZERO PUSH2 0x427 JUMPI PUSH1 0x0 DUP1 REVERT JUMPDEST POP CALLDATALOAD PUSH1 0x1 PUSH1 0x1 PUSH1 0xA0 SHL SUB AND PUSH2 0xCED JUMP JUMPDEST PUSH2 0x35D PUSH1 0x4 DUP1 CALLDATASIZE SUB PUSH1 0x20 DUP2 LT ISZERO PUSH2 0x44D JUMPI PUSH1 0x0 DUP1 REVERT JUMPDEST POP CALLDATALOAD PUSH1 0x1 PUSH1 0x1 PUSH1 0xA0 SHL SUB AND PUSH2 0xFEC JUMP JUMPDEST PUSH2 0x35D PUSH2 0xFFE JUMP JUMPDEST PUSH2 0x35D PUSH1 0x4 DUP1 CALLDATASIZE SUB PUSH1 0x20 DUP2 LT ISZERO PUSH2 0x47B JUMPI PUSH1 0x0 DUP1 REVERT JUMPDEST POP CALLDATALOAD PUSH1 0x1 PUSH1 0x1 PUSH1 0xA0 SHL SUB AND PUSH2 0x1004 JUMP JUMPDEST PUSH2 0x4B1 PUSH1 0x4 DUP1 CALLDATASIZE SUB PUSH1 0x20 DUP2 LT ISZERO PUSH2 0x4A1 JUMPI PUSH1 0x0 DUP1 REVERT JUMPDEST POP CALLDATALOAD PUSH1 0x1 PUSH1 0x1 PUSH1 0xA0 SHL SUB AND PUSH2 0x1016 JUMP JUMPDEST PUSH1 0x40 DUP1 MLOAD SWAP3 DUP4 MSTORE PUSH1 0x20 DUP4 ADD SWAP2 SWAP1 SWAP2 MSTORE DUP1 MLOAD SWAP2 DUP3 SWAP1 SUB ADD SWAP1 RETURN JUMPDEST PUSH2 0x244 PUSH2 0x13BB JUMP JUMPDEST PUSH2 0x31D PUSH1 0x4 DUP1 CALLDATASIZE SUB PUSH1 0x40 DUP2 LT ISZERO PUSH2 0x4E8 JUMPI PUSH1 0x0 DUP1 REVERT JUMPDEST POP PUSH1 0x1 PUSH1 0x1 PUSH1 0xA0 SHL SUB DUP2 CALLDATALOAD AND SWAP1 PUSH1 0x20 ADD CALLDATALOAD PUSH2 0x13DA JUMP JUMPDEST PUSH2 0x35D PUSH2 0x13E7 JUMP JUMPDEST PUSH2 0x23A PUSH1 0x4 DUP1 CALLDATASIZE SUB PUSH1 0x20 DUP2 LT ISZERO PUSH2 0x51C JUMPI PUSH1 0x0 DUP1 REVERT JUMPDEST POP CALLDATALOAD PUSH1 0x1 PUSH1 0x1 PUSH1 0xA0 SHL SUB AND PUSH2 0x13ED JUMP JUMPDEST PUSH2 0x339 PUSH2 0x1557 JUMP JUMPDEST PUSH2 0x339 PUSH2 0x1566 JUMP JUMPDEST PUSH2 0x23A PUSH1 0x4 DUP1 CALLDATASIZE SUB PUSH1 0xE0 DUP2 LT ISZERO PUSH2 0x552 JUMPI PUSH1 0x0 DUP1 REVERT JUMPDEST POP PUSH1 0x1 PUSH1 0x1 PUSH1 0xA0 SHL SUB DUP2 CALLDATALOAD DUP2 AND SWAP2 PUSH1 0x20 DUP2 ADD CALLDATALOAD SWAP1 SWAP2 AND SWAP1 PUSH1 0x40 DUP2 ADD CALLDATALOAD SWAP1 PUSH1 0x60 DUP2 ADD CALLDATALOAD SWAP1 PUSH1 0xFF PUSH1 0x80 DUP3 ADD CALLDATALOAD AND SWAP1 PUSH1 0xA0 DUP2 ADD CALLDATALOAD SWAP1 PUSH1 0xC0 ADD CALLDATALOAD PUSH2 0x1575 JUMP JUMPDEST PUSH2 0x35D PUSH1 0x4 DUP1 CALLDATASIZE SUB PUSH1 0x40 DUP2 LT ISZERO PUSH2 0x5A3 JUMPI PUSH1 0x0 DUP1 REVERT JUMPDEST POP PUSH1 0x1 PUSH1 0x1 PUSH1 0xA0 SHL SUB DUP2 CALLDATALOAD DUP2 AND SWAP2 PUSH1 0x20 ADD CALLDATALOAD AND PUSH2 0x1776 JUMP JUMPDEST PUSH2 0x23A PUSH2 0x1793 JUMP JUMPDEST PUSH1 0xC SLOAD PUSH1 0x1 EQ PUSH2 0x60D JUMPI PUSH1 0x40 DUP1 MLOAD PUSH3 0x461BCD PUSH1 0xE5 SHL DUP2 MSTORE PUSH1 0x20 PUSH1 0x4 DUP3 ADD MSTORE PUSH1 0x10 PUSH1 0x24 DUP3 ADD MSTORE PUSH16 0x12D85B1E5CDDD85C0E881313D0D2D151 PUSH1 0x82 SHL PUSH1 0x44 DUP3 ADD MSTORE SWAP1 MLOAD SWAP1 DUP2 SWAP1 SUB PUSH1 0x64 ADD SWAP1 REVERT JUMPDEST PUSH1 0x0 PUSH1 0xC SSTORE DUP5 ISZERO ISZERO DUP1 PUSH2 0x620 JUMPI POP PUSH1 0x0 DUP5 GT JUMPDEST PUSH2 0x65B JUMPI PUSH1 0x40 MLOAD PUSH3 0x461BCD PUSH1 0xE5 SHL DUP2 MSTORE PUSH1 0x4 ADD DUP1 DUP1 PUSH1 0x20 ADD DUP3 DUP2 SUB DUP3 MSTORE PUSH1 0x24 DUP2 MSTORE PUSH1 0x20 ADD DUP1 PUSH2 0x21C7 PUSH1 0x24 SWAP2 CODECOPY PUSH1 0x40 ADD SWAP2 POP POP PUSH1 0x40 MLOAD DUP1 SWAP2 SUB SWAP1 REVERT JUMPDEST PUSH1 0x0 DUP1 PUSH2 0x666 PUSH2 0xB3F JUMP JUMPDEST POP SWAP2 POP SWAP2 POP DUP2 PUSH1 0x1 PUSH1 0x1 PUSH1 0x70 SHL SUB AND DUP8 LT DUP1 ISZERO PUSH2 0x68B JUMPI POP DUP1 PUSH1 0x1 PUSH1 0x1 PUSH1 0x70 SHL SUB AND DUP7 LT JUMPDEST PUSH2 0x6DC JUMPI PUSH1 0x40 DUP1 MLOAD PUSH3 0x461BCD PUSH1 0xE5 SHL DUP2 MSTORE PUSH1 0x20 PUSH1 0x4 DUP3 ADD DUP2 SWAP1 MSTORE PUSH1 0x24 DUP3 ADD MSTORE PUSH32 0x4B616C79737761703A20494E53554646494349454E545F4C4951554944495459 PUSH1 0x44 DUP3 ADD MSTORE SWAP1 MLOAD SWAP1 DUP2 SWAP1 SUB PUSH1 0x64 ADD SWAP1 REVERT JUMPDEST PUSH1 0x6 SLOAD PUSH1 0x7 SLOAD PUSH1 0x0 SWAP2 DUP3 SWAP2 PUSH1 0x1 PUSH1 0x1 PUSH1 0xA0 SHL SUB SWAP2 DUP3 AND SWAP2 SWAP1 DUP2 AND SWAP1 DUP10 AND DUP3 EQ DUP1 ISZERO SWAP1 PUSH2 0x71A JUMPI POP DUP1 PUSH1 0x1 PUSH1 0x1 PUSH1 0xA0 SHL SUB AND DUP10 PUSH1 0x1 PUSH1 0x1 PUSH1 0xA0 SHL SUB AND EQ ISZERO JUMPDEST PUSH2 0x762 JUMPI PUSH1 0x40 DUP1 MLOAD PUSH3 0x461BCD PUSH1 0xE5 SHL DUP2 MSTORE PUSH1 0x20 PUSH1 0x4 DUP3 ADD MSTORE PUSH1 0x14 PUSH1 0x24 DUP3 ADD MSTORE PUSH20 0x4B616C79737761703A20494E56414C49445F544F PUSH1 0x60 SHL PUSH1 0x44 DUP3 ADD MSTORE SWAP1 MLOAD SWAP1 DUP2 SWAP1 SUB PUSH1 0x64 ADD SWAP1 REVERT JUMPDEST DUP11 ISZERO PUSH2 0x773 JUMPI PUSH2 0x773 DUP3 DUP11 DUP14 PUSH2 0x18F4 JUMP JUMPDEST DUP10 ISZERO PUSH2 0x784 JUMPI PUSH2 0x784 DUP2 DUP11 DUP13 PUSH2 0x18F4 JUMP JUMPDEST DUP7 ISZERO PUSH2 0x83F JUMPI DUP9 PUSH1 0x1 PUSH1 0x1 PUSH1 0xA0 SHL SUB AND PUSH4 0x3594162A CALLER DUP14 DUP14 DUP13 DUP13 PUSH1 0x40 MLOAD DUP7 PUSH4 0xFFFFFFFF AND PUSH1 0xE0 SHL DUP2 MSTORE PUSH1 0x4 ADD DUP1 DUP7 PUSH1 0x1 PUSH1 0x1 PUSH1 0xA0 SHL SUB AND PUSH1 0x1 PUSH1 0x1 PUSH1 0xA0 SHL SUB AND DUP2 MSTORE PUSH1 0x20 ADD DUP6 DUP2 MSTORE PUSH1 0x20 ADD DUP5 DUP2 MSTORE PUSH1 0x20 ADD DUP1 PUSH1 0x20 ADD DUP3 DUP2 SUB DUP3 MSTORE DUP5 DUP5 DUP3 DUP2 DUP2 MSTORE PUSH1 0x20 ADD SWAP3 POP DUP1 DUP3 DUP5 CALLDATACOPY PUSH1 0x0 DUP2 DUP5 ADD MSTORE PUSH1 0x1F NOT PUSH1 0x1F DUP3 ADD AND SWAP1 POP DUP1 DUP4 ADD SWAP3 POP POP POP SWAP7 POP POP POP POP POP POP POP PUSH1 0x0 PUSH1 0x40 MLOAD DUP1 DUP4 SUB DUP2 PUSH1 0x0 DUP8 DUP1 EXTCODESIZE ISZERO DUP1 ISZERO PUSH2 0x826 JUMPI PUSH1 0x0 DUP1 REVERT JUMPDEST POP GAS CALL ISZERO DUP1 ISZERO PUSH2 0x83A JUMPI RETURNDATASIZE PUSH1 0x0 DUP1 RETURNDATACOPY RETURNDATASIZE PUSH1 0x0 REVERT JUMPDEST POP POP POP POP JUMPDEST PUSH1 0x40 DUP1 MLOAD PUSH4 0x70A08231 PUSH1 0xE0 SHL DUP2 MSTORE ADDRESS PUSH1 0x4 DUP3 ADD MSTORE SWAP1 MLOAD PUSH1 0x1 PUSH1 0x1 PUSH1 0xA0 SHL SUB DUP5 AND SWAP2 PUSH4 0x70A08231 SWAP2 PUSH1 0x24 DUP1 DUP4 ADD SWAP3 PUSH1 0x20 SWAP3 SWAP2 SWAP1 DUP3 SWAP1 SUB ADD DUP2 DUP7 DUP1 EXTCODESIZE ISZERO DUP1 ISZERO PUSH2 0x885 JUMPI PUSH1 0x0 DUP1 REVERT JUMPDEST POP GAS STATICCALL ISZERO DUP1 ISZERO PUSH2 0x899 JUMPI RETURNDATASIZE PUSH1 0x0 DUP1 RETURNDATACOPY RETURNDATASIZE PUSH1 0x0 REVERT JUMPDEST POP POP POP POP PUSH1 0x40 MLOAD RETURNDATASIZE PUSH1 0x20 DUP2 LT ISZERO PUSH2 0x8AF JUMPI PUSH1 0x0 DUP1 REVERT JUMPDEST POP MLOAD PUSH1 0x40 DUP1 MLOAD PUSH4 0x70A08231 PUSH1 0xE0 SHL DUP2 MSTORE ADDRESS PUSH1 0x4 DUP3 ADD MSTORE SWAP1 MLOAD SWAP2 SWAP6 POP PUSH1 0x1 PUSH1 0x1 PUSH1 0xA0 SHL SUB DUP4 AND SWAP2 PUSH4 0x70A08231 SWAP2 PUSH1 0x24 DUP1 DUP3 ADD SWAP3 PUSH1 0x20 SWAP3 SWAP1 SWAP2 SWAP1 DUP3 SWAP1 SUB ADD DUP2 DUP7 DUP1 EXTCODESIZE ISZERO DUP1 ISZERO PUSH2 0x8FB JUMPI PUSH1 0x0 DUP1 REVERT JUMPDEST POP GAS STATICCALL ISZERO DUP1 ISZERO PUSH2 0x90F JUMPI RETURNDATASIZE PUSH1 0x0 DUP1 RETURNDATACOPY RETURNDATASIZE PUSH1 0x0 REVERT JUMPDEST POP POP POP POP PUSH1 0x40 MLOAD RETURNDATASIZE PUSH1 0x20 DUP2 LT ISZERO PUSH2 0x925 JUMPI PUSH1 0x0 DUP1 REVERT JUMPDEST POP MLOAD SWAP3 POP PUSH1 0x0 SWAP2 POP POP PUSH1 0x1 PUSH1 0x1 PUSH1 0x70 SHL SUB DUP6 AND DUP11 SWAP1 SUB DUP4 GT PUSH2 0x948 JUMPI PUSH1 0x0 PUSH2 0x957 JUMP JUMPDEST DUP10 DUP6 PUSH1 0x1 PUSH1 0x1 PUSH1 0x70 SHL SUB AND SUB DUP4 SUB JUMPDEST SWAP1 POP PUSH1 0x0 DUP10 DUP6 PUSH1 0x1 PUSH1 0x1 PUSH1 0x70 SHL SUB AND SUB DUP4 GT PUSH2 0x974 JUMPI PUSH1 0x0 PUSH2 0x983 JUMP JUMPDEST DUP10 DUP6 PUSH1 0x1 PUSH1 0x1 PUSH1 0x70 SHL SUB AND SUB DUP4 SUB JUMPDEST SWAP1 POP PUSH1 0x0 DUP3 GT DUP1 PUSH2 0x994 JUMPI POP PUSH1 0x0 DUP2 GT JUMPDEST PUSH2 0x9CF JUMPI PUSH1 0x40 MLOAD PUSH3 0x461BCD PUSH1 0xE5 SHL DUP2 MSTORE PUSH1 0x4 ADD DUP1 DUP1 PUSH1 0x20 ADD DUP3 DUP2 SUB DUP3 MSTORE PUSH1 0x23 DUP2 MSTORE PUSH1 0x20 ADD DUP1 PUSH2 0x21A4 PUSH1 0x23 SWAP2 CODECOPY PUSH1 0x40 ADD SWAP2 POP POP PUSH1 0x40 MLOAD DUP1 SWAP2 SUB SWAP1 REVERT JUMPDEST PUSH1 0x0 PUSH2 0xA03 PUSH2 0x9E5 DUP5 PUSH1 0x3 PUSH4 0xFFFFFFFF PUSH2 0x1A8E AND JUMP JUMPDEST PUSH2 0x9F7 DUP8 PUSH2 0x3E8 PUSH4 0xFFFFFFFF PUSH2 0x1A8E AND JUMP JUMPDEST SWAP1 PUSH4 0xFFFFFFFF PUSH2 0x1AF1 AND JUMP JUMPDEST SWAP1 POP PUSH1 0x0 PUSH2 0xA1B PUSH2 0x9E5 DUP5 PUSH1 0x3 PUSH4 0xFFFFFFFF PUSH2 0x1A8E AND JUMP JUMPDEST SWAP1 POP PUSH2 0xA4C PUSH3 0xF4240 PUSH2 0xA40 PUSH1 0x1 PUSH1 0x1 PUSH1 0x70 SHL SUB DUP12 DUP2 AND SWAP1 DUP12 AND PUSH4 0xFFFFFFFF PUSH2 0x1A8E AND JUMP JUMPDEST SWAP1 PUSH4 0xFFFFFFFF PUSH2 0x1A8E AND JUMP JUMPDEST PUSH2 0xA5C DUP4 DUP4 PUSH4 0xFFFFFFFF PUSH2 0x1A8E AND JUMP JUMPDEST LT ISZERO PUSH2 0xA9D JUMPI PUSH1 0x40 DUP1 MLOAD PUSH3 0x461BCD PUSH1 0xE5 SHL DUP2 MSTORE PUSH1 0x20 PUSH1 0x4 DUP3 ADD MSTORE PUSH1 0xB PUSH1 0x24 DUP3 ADD MSTORE PUSH11 0x4B616C79737761703A204B PUSH1 0xA8 SHL PUSH1 0x44 DUP3 ADD MSTORE SWAP1 MLOAD SWAP1 DUP2 SWAP1 SUB PUSH1 0x64 ADD SWAP1 REVERT JUMPDEST POP POP PUSH2 0xAAB DUP5 DUP5 DUP9 DUP9 PUSH2 0x1B41 JUMP JUMPDEST PUSH1 0x40 DUP1 MLOAD DUP4 DUP2 MSTORE PUSH1 0x20 DUP2 ADD DUP4 SWAP1 MSTORE DUP1 DUP3 ADD DUP14 SWAP1 MSTORE PUSH1 0x60 DUP2 ADD DUP13 SWAP1 MSTORE SWAP1 MLOAD PUSH1 0x1 PUSH1 0x1 PUSH1 0xA0 SHL SUB DUP12 AND SWAP2 CALLER SWAP2 PUSH32 0xD78AD95FA46C994B6551D0DA85FC275FE613CE37657FB8D5E3D130840159D822 SWAP2 DUP2 SWAP1 SUB PUSH1 0x80 ADD SWAP1 LOG3 POP POP PUSH1 0x1 PUSH1 0xC SSTORE POP POP POP POP POP POP POP POP POP JUMP JUMPDEST PUSH1 0x40 MLOAD DUP1 PUSH1 0x40 ADD PUSH1 0x40 MSTORE DUP1 PUSH1 0x12 DUP2 MSTORE PUSH1 0x20 ADD PUSH18 0x4B616C7973776170204C6971756964697479 PUSH1 0x70 SHL DUP2 MSTORE POP DUP2 JUMP JUMPDEST PUSH1 0x8 SLOAD PUSH1 0x1 PUSH1 0x1 PUSH1 0x70 SHL SUB DUP1 DUP3 AND SWAP3 PUSH1 0x1 PUSH1 0x70 SHL DUP4 DIV SWAP1 SWAP2 AND SWAP2 PUSH1 0x1 PUSH1 0xE0 SHL SWAP1 DIV PUSH4 0xFFFFFFFF AND SWAP1 JUMP JUMPDEST PUSH1 0x0 PUSH2 0xB76 CALLER DUP5 DUP5 PUSH2 0x1D05 JUMP JUMPDEST POP PUSH1 0x1 JUMPDEST SWAP3 SWAP2 POP POP JUMP JUMPDEST PUSH1 0x6 SLOAD PUSH1 0x1 PUSH1 0x1 PUSH1 0xA0 SHL SUB AND DUP2 JUMP JUMPDEST PUSH1 0x0 SLOAD DUP2 JUMP JUMPDEST PUSH1 0x1 PUSH1 0x1 PUSH1 0xA0 SHL SUB DUP4 AND PUSH1 0x0 SWAP1 DUP2 MSTORE PUSH1 0x2 PUSH1 0x20 SWAP1 DUP2 MSTORE PUSH1 0x40 DUP1 DUP4 KECCAK256 CALLER DUP5 MSTORE SWAP1 SWAP2 MSTORE DUP2 KECCAK256 SLOAD PUSH1 0x0 NOT EQ PUSH2 0xC1A JUMPI PUSH1 0x1 PUSH1 0x1 PUSH1 0xA0 SHL SUB DUP5 AND PUSH1 0x0 SWAP1 DUP2 MSTORE PUSH1 0x2 PUSH1 0x20 SWAP1 DUP2 MSTORE PUSH1 0x40 DUP1 DUP4 KECCAK256 CALLER DUP5 MSTORE SWAP1 SWAP2 MSTORE SWAP1 KECCAK256 SLOAD PUSH2 0xBF5 SWAP1 DUP4 PUSH4 0xFFFFFFFF PUSH2 0x1AF1 AND JUMP JUMPDEST PUSH1 0x1 PUSH1 0x1 PUSH1 0xA0 SHL SUB DUP6 AND PUSH1 0x0 SWAP1 DUP2 MSTORE PUSH1 0x2 PUSH1 0x20 SWAP1 DUP2 MSTORE PUSH1 0x40 DUP1 DUP4 KECCAK256 CALLER DUP5 MSTORE SWAP1 SWAP2 MSTORE SWAP1 KECCAK256 SSTORE JUMPDEST PUSH2 0xC25 DUP5 DUP5 DUP5 PUSH2 0x1D67 JUMP JUMPDEST POP PUSH1 0x1 SWAP4 SWAP3 POP POP POP JUMP JUMPDEST PUSH32 0x6E71EDAE12B1B97F4D1F60370FEF10105FA2FAAE0126114A169C64845D6126C9 DUP2 JUMP JUMPDEST PUSH1 0x12 DUP2 JUMP JUMPDEST PUSH1 0x3 SLOAD DUP2 JUMP JUMPDEST PUSH1 0x5 SLOAD PUSH1 0x1 PUSH1 0x1 PUSH1 0xA0 SHL SUB AND CALLER EQ PUSH2 0xCB3 JUMPI PUSH1 0x40 DUP1 MLOAD PUSH3 0x461BCD PUSH1 0xE5 SHL DUP2 MSTORE PUSH1 0x20 PUSH1 0x4 DUP3 ADD MSTORE PUSH1 0x13 PUSH1 0x24 DUP3 ADD MSTORE PUSH19 0x25B0B63CB9BBB0B81D102327A92124A22222A7 PUSH1 0x69 SHL PUSH1 0x44 DUP3 ADD MSTORE SWAP1 MLOAD SWAP1 DUP2 SWAP1 SUB PUSH1 0x64 ADD SWAP1 REVERT JUMPDEST PUSH1 0x6 DUP1 SLOAD PUSH1 0x1 PUSH1 0x1 PUSH1 0xA0 SHL SUB SWAP4 DUP5 AND PUSH1 0x1 PUSH1 0x1 PUSH1 0xA0 SHL SUB NOT SWAP2 DUP3 AND OR SWAP1 SWAP2 SSTORE PUSH1 0x7 DUP1 SLOAD SWAP3 SWAP1 SWAP4 AND SWAP2 AND OR SWAP1 SSTORE JUMP JUMPDEST PUSH1 0x9 SLOAD DUP2 JUMP JUMPDEST PUSH1 0xA SLOAD DUP2 JUMP JUMPDEST PUSH1 0x0 PUSH1 0xC SLOAD PUSH1 0x1 EQ PUSH2 0xD39 JUMPI PUSH1 0x40 DUP1 MLOAD PUSH3 0x461BCD PUSH1 0xE5 SHL DUP2 MSTORE PUSH1 0x20 PUSH1 0x4 DUP3 ADD MSTORE PUSH1 0x10 PUSH1 0x24 DUP3 ADD MSTORE PUSH16 0x12D85B1E5CDDD85C0E881313D0D2D151 PUSH1 0x82 SHL PUSH1 0x44 DUP3 ADD MSTORE SWAP1 MLOAD SWAP1 DUP2 SWAP1 SUB PUSH1 0x64 ADD SWAP1 REVERT JUMPDEST PUSH1 0x0 PUSH1 0xC DUP2 SWAP1 SSTORE DUP1 PUSH2 0xD49 PUSH2 0xB3F JUMP JUMPDEST POP PUSH1 0x6 SLOAD PUSH1 0x40 DUP1 MLOAD PUSH4 0x70A08231 PUSH1 0xE0 SHL DUP2 MSTORE ADDRESS PUSH1 0x4 DUP3 ADD MSTORE SWAP1 MLOAD SWAP4 SWAP6 POP SWAP2 SWAP4 POP PUSH1 0x0 SWAP3 PUSH1 0x1 PUSH1 0x1 PUSH1 0xA0 SHL SUB SWAP1 SWAP2 AND SWAP2 PUSH4 0x70A08231 SWAP2 PUSH1 0x24 DUP1 DUP4 ADD SWAP3 PUSH1 0x20 SWAP3 SWAP2 SWAP1 DUP3 SWAP1 SUB ADD DUP2 DUP7 DUP1 EXTCODESIZE ISZERO DUP1 ISZERO PUSH2 0xD9D JUMPI PUSH1 0x0 DUP1 REVERT JUMPDEST POP GAS STATICCALL ISZERO DUP1 ISZERO PUSH2 0xDB1 JUMPI RETURNDATASIZE PUSH1 0x0 DUP1 RETURNDATACOPY RETURNDATASIZE PUSH1 0x0 REVERT JUMPDEST POP POP POP POP PUSH1 0x40 MLOAD RETURNDATASIZE PUSH1 0x20 DUP2 LT ISZERO PUSH2 0xDC7 JUMPI PUSH1 0x0 DUP1 REVERT JUMPDEST POP MLOAD PUSH1 0x7 SLOAD PUSH1 0x40 DUP1 MLOAD PUSH4 0x70A08231 PUSH1 0xE0 SHL DUP2 MSTORE ADDRESS PUSH1 0x4 DUP3 ADD MSTORE SWAP1 MLOAD SWAP3 SWAP4 POP PUSH1 0x0 SWAP3 PUSH1 0x1 PUSH1 0x1 PUSH1 0xA0 SHL SUB SWAP1 SWAP3 AND SWAP2 PUSH4 0x70A08231 SWAP2 PUSH1 0x24 DUP1 DUP3 ADD SWAP3 PUSH1 0x20 SWAP3 SWAP1 SWAP2 SWAP1 DUP3 SWAP1 SUB ADD DUP2 DUP7 DUP1 EXTCODESIZE ISZERO DUP1 ISZERO PUSH2 0xE1A JUMPI PUSH1 0x0 DUP1 REVERT JUMPDEST POP GAS STATICCALL ISZERO DUP1 ISZERO PUSH2 0xE2E JUMPI RETURNDATASIZE PUSH1 0x0 DUP1 RETURNDATACOPY RETURNDATASIZE PUSH1 0x0 REVERT JUMPDEST POP POP POP POP PUSH1 0x40 MLOAD RETURNDATASIZE PUSH1 0x20 DUP2 LT ISZERO PUSH2 0xE44 JUMPI PUSH1 0x0 DUP1 REVERT JUMPDEST POP MLOAD SWAP1 POP PUSH1 0x0 PUSH2 0xE63 DUP4 PUSH1 0x1 PUSH1 0x1 PUSH1 0x70 SHL SUB DUP8 AND PUSH4 0xFFFFFFFF PUSH2 0x1AF1 AND JUMP JUMPDEST SWAP1 POP PUSH1 0x0 PUSH2 0xE80 DUP4 PUSH1 0x1 PUSH1 0x1 PUSH1 0x70 SHL SUB DUP8 AND PUSH4 0xFFFFFFFF PUSH2 0x1AF1 AND JUMP JUMPDEST SWAP1 POP PUSH1 0x0 PUSH2 0xE8E DUP8 DUP8 PUSH2 0x1E21 JUMP JUMPDEST PUSH1 0x0 SLOAD SWAP1 SWAP2 POP DUP1 PUSH2 0xECB JUMPI PUSH2 0xEB7 PUSH2 0x3E8 PUSH2 0x9F7 PUSH2 0xEB2 DUP8 DUP8 PUSH4 0xFFFFFFFF PUSH2 0x1A8E AND JUMP JUMPDEST PUSH2 0x1F7F JUMP JUMPDEST SWAP9 POP PUSH2 0xEC6 PUSH1 0x0 PUSH2 0x3E8 PUSH2 0x1FD1 JUMP JUMPDEST PUSH2 0xF1A JUMP JUMPDEST PUSH2 0xF17 PUSH1 0x1 PUSH1 0x1 PUSH1 0x70 SHL SUB DUP10 AND PUSH2 0xEE8 DUP7 DUP5 PUSH4 0xFFFFFFFF PUSH2 0x1A8E AND JUMP JUMPDEST DUP2 PUSH2 0xEEF JUMPI INVALID JUMPDEST DIV PUSH1 0x1 PUSH1 0x1 PUSH1 0x70 SHL SUB DUP10 AND PUSH2 0xF0A DUP7 DUP6 PUSH4 0xFFFFFFFF PUSH2 0x1A8E AND JUMP JUMPDEST DUP2 PUSH2 0xF11 JUMPI INVALID JUMPDEST DIV PUSH2 0x2067 JUMP JUMPDEST SWAP9 POP JUMPDEST PUSH1 0x0 DUP10 GT PUSH2 0xF59 JUMPI PUSH1 0x40 MLOAD PUSH3 0x461BCD PUSH1 0xE5 SHL DUP2 MSTORE PUSH1 0x4 ADD DUP1 DUP1 PUSH1 0x20 ADD DUP3 DUP2 SUB DUP3 MSTORE PUSH1 0x27 DUP2 MSTORE PUSH1 0x20 ADD DUP1 PUSH2 0x21EB PUSH1 0x27 SWAP2 CODECOPY PUSH1 0x40 ADD SWAP2 POP POP PUSH1 0x40 MLOAD DUP1 SWAP2 SUB SWAP1 REVERT JUMPDEST PUSH2 0xF63 DUP11 DUP11 PUSH2 0x1FD1 JUMP JUMPDEST PUSH2 0xF6F DUP7 DUP7 DUP11 DUP11 PUSH2 0x1B41 JUMP JUMPDEST DUP2 ISZERO PUSH2 0xF9F JUMPI PUSH1 0x8 SLOAD PUSH2 0xF9B SWAP1 PUSH1 0x1 PUSH1 0x1 PUSH1 0x70 SHL SUB DUP1 DUP3 AND SWAP2 PUSH1 0x1 PUSH1 0x70 SHL SWAP1 DIV AND PUSH4 0xFFFFFFFF PUSH2 0x1A8E AND JUMP JUMPDEST PUSH1 0xB SSTORE JUMPDEST PUSH1 0x40 DUP1 MLOAD DUP6 DUP2 MSTORE PUSH1 0x20 DUP2 ADD DUP6 SWAP1 MSTORE DUP2 MLOAD CALLER SWAP3 PUSH32 0x4C209B5FC8AD50758F13E2E1088BA56A560DFF690A1C6FEF26394F4C03821C4F SWAP3 DUP3 SWAP1 SUB ADD SWAP1 LOG2 POP POP PUSH1 0x1 PUSH1 0xC SSTORE POP SWAP5 SWAP7 SWAP6 POP POP POP POP POP POP JUMP JUMPDEST PUSH1 0x1 PUSH1 0x20 MSTORE PUSH1 0x0 SWAP1 DUP2 MSTORE PUSH1 0x40 SWAP1 KECCAK256 SLOAD DUP2 JUMP JUMPDEST PUSH1 0xB SLOAD DUP2 JUMP JUMPDEST PUSH1 0x4 PUSH1 0x20 MSTORE PUSH1 0x0 SWAP1 DUP2 MSTORE PUSH1 0x40 SWAP1 KECCAK256 SLOAD DUP2 JUMP JUMPDEST PUSH1 0x0 DUP1 PUSH1 0xC SLOAD PUSH1 0x1 EQ PUSH2 0x1063 JUMPI PUSH1 0x40 DUP1 MLOAD PUSH3 0x461BCD PUSH1 0xE5 SHL DUP2 MSTORE PUSH1 0x20 PUSH1 0x4 DUP3 ADD MSTORE PUSH1 0x10 PUSH1 0x24 DUP3 ADD MSTORE PUSH16 0x12D85B1E5CDDD85C0E881313D0D2D151 PUSH1 0x82 SHL PUSH1 0x44 DUP3 ADD MSTORE SWAP1 MLOAD SWAP1 DUP2 SWAP1 SUB PUSH1 0x64 ADD SWAP1 REVERT JUMPDEST PUSH1 0x0 PUSH1 0xC DUP2 SWAP1 SSTORE DUP1 PUSH2 0x1073 PUSH2 0xB3F JUMP JUMPDEST POP PUSH1 0x6 SLOAD PUSH1 0x7 SLOAD PUSH1 0x40 DUP1 MLOAD PUSH4 0x70A08231 PUSH1 0xE0 SHL DUP2 MSTORE ADDRESS PUSH1 0x4 DUP3 ADD MSTORE SWAP1 MLOAD SWAP5 SWAP7 POP SWAP3 SWAP5 POP PUSH1 0x1 PUSH1 0x1 PUSH1 0xA0 SHL SUB SWAP2 DUP3 AND SWAP4 SWAP2 AND SWAP2 PUSH1 0x0 SWAP2 DUP5 SWAP2 PUSH4 0x70A08231 SWAP2 PUSH1 0x24 DUP1 DUP4 ADD SWAP3 PUSH1 0x20 SWAP3 SWAP2 SWAP1 DUP3 SWAP1 SUB ADD DUP2 DUP7 DUP1 EXTCODESIZE ISZERO DUP1 ISZERO PUSH2 0x10CF JUMPI PUSH1 0x0 DUP1 REVERT JUMPDEST POP GAS STATICCALL ISZERO DUP1 ISZERO PUSH2 0x10E3 JUMPI RETURNDATASIZE PUSH1 0x0 DUP1 RETURNDATACOPY RETURNDATASIZE PUSH1 0x0 REVERT JUMPDEST POP POP POP POP PUSH1 0x40 MLOAD RETURNDATASIZE PUSH1 0x20 DUP2 LT ISZERO PUSH2 0x10F9 JUMPI PUSH1 0x0 DUP1 REVERT JUMPDEST POP MLOAD PUSH1 0x40 DUP1 MLOAD PUSH4 0x70A08231 PUSH1 0xE0 SHL DUP2 MSTORE ADDRESS PUSH1 0x4 DUP3 ADD MSTORE SWAP1 MLOAD SWAP2 SWAP3 POP PUSH1 0x0 SWAP2 PUSH1 0x1 PUSH1 0x1 PUSH1 0xA0 SHL SUB DUP6 AND SWAP2 PUSH4 0x70A08231 SWAP2 PUSH1 0x24 DUP1 DUP4 ADD SWAP3 PUSH1 0x20 SWAP3 SWAP2 SWAP1 DUP3 SWAP1 SUB ADD DUP2 DUP7 DUP1 EXTCODESIZE ISZERO DUP1 ISZERO PUSH2 0x1147 JUMPI PUSH1 0x0 DUP1 REVERT JUMPDEST POP GAS STATICCALL ISZERO DUP1 ISZERO PUSH2 0x115B JUMPI RETURNDATASIZE PUSH1 0x0 DUP1 RETURNDATACOPY RETURNDATASIZE PUSH1 0x0 REVERT JUMPDEST POP POP POP POP PUSH1 0x40 MLOAD RETURNDATASIZE PUSH1 0x20 DUP2 LT ISZERO PUSH2 0x1171 JUMPI PUSH1 0x0 DUP1 REVERT JUMPDEST POP MLOAD ADDRESS PUSH1 0x0 SWAP1 DUP2 MSTORE PUSH1 0x1 PUSH1 0x20 MSTORE PUSH1 0x40 DUP2 KECCAK256 SLOAD SWAP2 SWAP3 POP PUSH2 0x1190 DUP9 DUP9 PUSH2 0x1E21 JUMP JUMPDEST PUSH1 0x0 SLOAD SWAP1 SWAP2 POP DUP1 PUSH2 0x11A7 DUP5 DUP8 PUSH4 0xFFFFFFFF PUSH2 0x1A8E AND JUMP JUMPDEST DUP2 PUSH2 0x11AE JUMPI INVALID JUMPDEST DIV SWAP11 POP DUP1 PUSH2 0x11C2 DUP5 DUP7 PUSH4 0xFFFFFFFF PUSH2 0x1A8E AND JUMP JUMPDEST DUP2 PUSH2 0x11C9 JUMPI INVALID JUMPDEST DIV SWAP10 POP PUSH1 0x0 DUP12 GT DUP1 ISZERO PUSH2 0x11DC JUMPI POP PUSH1 0x0 DUP11 GT JUMPDEST PUSH2 0x1217 JUMPI PUSH1 0x40 MLOAD PUSH3 0x461BCD PUSH1 0xE5 SHL DUP2 MSTORE PUSH1 0x4 ADD DUP1 DUP1 PUSH1 0x20 ADD DUP3 DUP2 SUB DUP3 MSTORE PUSH1 0x27 DUP2 MSTORE PUSH1 0x20 ADD DUP1 PUSH2 0x2212 PUSH1 0x27 SWAP2 CODECOPY PUSH1 0x40 ADD SWAP2 POP POP PUSH1 0x40 MLOAD DUP1 SWAP2 SUB SWAP1 REVERT JUMPDEST PUSH2 0x1221 ADDRESS DUP5 PUSH2 0x207F JUMP JUMPDEST PUSH2 0x122C DUP8 DUP14 DUP14 PUSH2 0x18F4 JUMP JUMPDEST PUSH2 0x1237 DUP7 DUP14 DUP13 PUSH2 0x18F4 JUMP JUMPDEST PUSH1 0x40 DUP1 MLOAD PUSH4 0x70A08231 PUSH1 0xE0 SHL DUP2 MSTORE ADDRESS PUSH1 0x4 DUP3 ADD MSTORE SWAP1 MLOAD PUSH1 0x1 PUSH1 0x1 PUSH1 0xA0 SHL SUB DUP10 AND SWAP2 PUSH4 0x70A08231 SWAP2 PUSH1 0x24 DUP1 DUP4 ADD SWAP3 PUSH1 0x20 SWAP3 SWAP2 SWAP1 DUP3 SWAP1 SUB ADD DUP2 DUP7 DUP1 EXTCODESIZE ISZERO DUP1 ISZERO PUSH2 0x127D JUMPI PUSH1 0x0 DUP1 REVERT JUMPDEST POP GAS STATICCALL ISZERO DUP1 ISZERO PUSH2 0x1291 JUMPI RETURNDATASIZE PUSH1 0x0 DUP1 RETURNDATACOPY RETURNDATASIZE PUSH1 0x0 REVERT JUMPDEST POP POP POP POP PUSH1 0x40 MLOAD RETURNDATASIZE PUSH1 0x20 DUP2 LT ISZERO PUSH2 0x12A7 JUMPI PUSH1 0x0 DUP1 REVERT JUMPDEST POP MLOAD PUSH1 0x40 DUP1 MLOAD PUSH4 0x70A08231 PUSH1 0xE0 SHL DUP2 MSTORE ADDRESS PUSH1 0x4 DUP3 ADD MSTORE SWAP1 MLOAD SWAP2 SWAP7 POP PUSH1 0x1 PUSH1 0x1 PUSH1 0xA0 SHL SUB DUP9 AND SWAP2 PUSH4 0x70A08231 SWAP2 PUSH1 0x24 DUP1 DUP3 ADD SWAP3 PUSH1 0x20 SWAP3 SWAP1 SWAP2 SWAP1 DUP3 SWAP1 SUB ADD DUP2 DUP7 DUP1 EXTCODESIZE ISZERO DUP1 ISZERO PUSH2 0x12F3 JUMPI PUSH1 0x0 DUP1 REVERT JUMPDEST POP GAS STATICCALL ISZERO DUP1 ISZERO PUSH2 0x1307 JUMPI RETURNDATASIZE PUSH1 0x0 DUP1 RETURNDATACOPY RETURNDATASIZE PUSH1 0x0 REVERT JUMPDEST POP POP POP POP PUSH1 0x40 MLOAD RETURNDATASIZE PUSH1 0x20 DUP2 LT ISZERO PUSH2 0x131D JUMPI PUSH1 0x0 DUP1 REVERT JUMPDEST POP MLOAD SWAP4 POP PUSH2 0x132D DUP6 DUP6 DUP12 DUP12 PUSH2 0x1B41 JUMP JUMPDEST DUP2 ISZERO PUSH2 0x135D JUMPI PUSH1 0x8 SLOAD PUSH2 0x1359 SWAP1 PUSH1 0x1 PUSH1 0x1 PUSH1 0x70 SHL SUB DUP1 DUP3 AND SWAP2 PUSH1 0x1 PUSH1 0x70 SHL SWAP1 DIV AND PUSH4 0xFFFFFFFF PUSH2 0x1A8E AND JUMP JUMPDEST PUSH1 0xB SSTORE JUMPDEST PUSH1 0x40 DUP1 MLOAD DUP13 DUP2 MSTORE PUSH1 0x20 DUP2 ADD DUP13 SWAP1 MSTORE DUP2 MLOAD PUSH1 0x1 PUSH1 0x1 PUSH1 0xA0 SHL SUB DUP16 AND SWAP3 CALLER SWAP3 PUSH32 0xDCCD412F0B1252819CB1FD330B93224CA42612892BB3F4F789976E6D81936496 SWAP3 SWAP1 DUP2 SWAP1 SUB SWAP1 SWAP2 ADD SWAP1 LOG3 POP POP POP POP POP POP POP POP POP PUSH1 0x1 PUSH1 0xC DUP2 SWAP1 SSTORE POP SWAP2 POP SWAP2 JUMP JUMPDEST PUSH1 0x40 MLOAD DUP1 PUSH1 0x40 ADD PUSH1 0x40 MSTORE DUP1 PUSH1 0x3 DUP2 MSTORE PUSH1 0x20 ADD PUSH3 0x12D4D3 PUSH1 0xEA SHL DUP2 MSTORE POP DUP2 JUMP JUMPDEST PUSH1 0x0 PUSH2 0xB76 CALLER DUP5 DUP5 PUSH2 0x1D67 JUMP JUMPDEST PUSH2 0x3E8 DUP2 JUMP JUMPDEST PUSH1 0xC SLOAD PUSH1 0x1 EQ PUSH2 0x1437 JUMPI PUSH1 0x40 DUP1 MLOAD PUSH3 0x461BCD PUSH1 0xE5 SHL DUP2 MSTORE PUSH1 0x20 PUSH1 0x4 DUP3 ADD MSTORE PUSH1 0x10 PUSH1 0x24 DUP3 ADD MSTORE PUSH16 0x12D85B1E5CDDD85C0E881313D0D2D151 PUSH1 0x82 SHL PUSH1 0x44 DUP3 ADD MSTORE SWAP1 MLOAD SWAP1 DUP2 SWAP1 SUB PUSH1 0x64 ADD SWAP1 REVERT JUMPDEST PUSH1 0x0 PUSH1 0xC SSTORE PUSH1 0x6 SLOAD PUSH1 0x7 SLOAD PUSH1 0x8 SLOAD PUSH1 0x40 DUP1 MLOAD PUSH4 0x70A08231 PUSH1 0xE0 SHL DUP2 MSTORE ADDRESS PUSH1 0x4 DUP3 ADD MSTORE SWAP1 MLOAD PUSH1 0x1 PUSH1 0x1 PUSH1 0xA0 SHL SUB SWAP5 DUP6 AND SWAP5 SWAP1 SWAP4 AND SWAP3 PUSH2 0x14E6 SWAP3 DUP6 SWAP3 DUP8 SWAP3 PUSH2 0x14E1 SWAP3 PUSH1 0x1 PUSH1 0x1 PUSH1 0x70 SHL SUB AND SWAP2 DUP6 SWAP2 PUSH4 0x70A08231 SWAP2 PUSH1 0x24 DUP1 DUP3 ADD SWAP3 PUSH1 0x20 SWAP3 SWAP1 SWAP2 SWAP1 DUP3 SWAP1 SUB ADD DUP2 DUP7 DUP1 EXTCODESIZE ISZERO DUP1 ISZERO PUSH2 0x14A9 JUMPI PUSH1 0x0 DUP1 REVERT JUMPDEST POP GAS STATICCALL ISZERO DUP1 ISZERO PUSH2 0x14BD JUMPI RETURNDATASIZE PUSH1 0x0 DUP1 RETURNDATACOPY RETURNDATASIZE PUSH1 0x0 REVERT JUMPDEST POP POP POP POP PUSH1 0x40 MLOAD RETURNDATASIZE PUSH1 0x20 DUP2 LT ISZERO PUSH2 0x14D3 JUMPI PUSH1 0x0 DUP1 REVERT JUMPDEST POP MLOAD SWAP1 PUSH4 0xFFFFFFFF PUSH2 0x1AF1 AND JUMP JUMPDEST PUSH2 0x18F4 JUMP JUMPDEST PUSH1 0x8 SLOAD PUSH1 0x40 DUP1 MLOAD PUSH4 0x70A08231 PUSH1 0xE0 SHL DUP2 MSTORE ADDRESS PUSH1 0x4 DUP3 ADD MSTORE SWAP1 MLOAD PUSH2 0x154D SWAP3 DUP5 SWAP3 DUP8 SWAP3 PUSH2 0x14E1 SWAP3 PUSH1 0x1 PUSH1 0x70 SHL SWAP1 DIV PUSH1 0x1 PUSH1 0x1 PUSH1 0x70 SHL SUB AND SWAP2 PUSH1 0x1 PUSH1 0x1 PUSH1 0xA0 SHL SUB DUP7 AND SWAP2 PUSH4 0x70A08231 SWAP2 PUSH1 0x24 DUP1 DUP3 ADD SWAP3 PUSH1 0x20 SWAP3 SWAP1 SWAP2 SWAP1 DUP3 SWAP1 SUB ADD DUP2 DUP7 DUP1 EXTCODESIZE ISZERO DUP1 ISZERO PUSH2 0x14A9 JUMPI PUSH1 0x0 DUP1 REVERT JUMPDEST POP POP PUSH1 0x1 PUSH1 0xC SSTORE POP JUMP JUMPDEST PUSH1 0x5 SLOAD PUSH1 0x1 PUSH1 0x1 PUSH1 0xA0 SHL SUB AND DUP2 JUMP JUMPDEST PUSH1 0x7 SLOAD PUSH1 0x1 PUSH1 0x1 PUSH1 0xA0 SHL SUB AND DUP2 JUMP JUMPDEST TIMESTAMP DUP5 LT ISZERO PUSH2 0x15BE JUMPI PUSH1 0x40 DUP1 MLOAD PUSH3 0x461BCD PUSH1 0xE5 SHL DUP2 MSTORE PUSH1 0x20 PUSH1 0x4 DUP3 ADD MSTORE PUSH1 0x11 PUSH1 0x24 DUP3 ADD MSTORE PUSH17 0x12D85B1E5CDDD85C0E8811561412549151 PUSH1 0x7A SHL PUSH1 0x44 DUP3 ADD MSTORE SWAP1 MLOAD SWAP1 DUP2 SWAP1 SUB PUSH1 0x64 ADD SWAP1 REVERT JUMPDEST PUSH1 0x3 SLOAD PUSH1 0x1 PUSH1 0x1 PUSH1 0xA0 SHL SUB DUP1 DUP10 AND PUSH1 0x0 DUP2 DUP2 MSTORE PUSH1 0x4 PUSH1 0x20 SWAP1 DUP2 MSTORE PUSH1 0x40 DUP1 DUP4 KECCAK256 DUP1 SLOAD PUSH1 0x1 DUP1 DUP3 ADD SWAP1 SWAP3 SSTORE DUP3 MLOAD PUSH32 0x6E71EDAE12B1B97F4D1F60370FEF10105FA2FAAE0126114A169C64845D6126C9 DUP2 DUP7 ADD MSTORE DUP1 DUP5 ADD SWAP7 SWAP1 SWAP7 MSTORE SWAP6 DUP14 AND PUSH1 0x60 DUP7 ADD MSTORE PUSH1 0x80 DUP6 ADD DUP13 SWAP1 MSTORE PUSH1 0xA0 DUP6 ADD SWAP6 SWAP1 SWAP6 MSTORE PUSH1 0xC0 DUP1 DUP6 ADD DUP12 SWAP1 MSTORE DUP2 MLOAD DUP1 DUP7 SUB SWAP1 SWAP2 ADD DUP2 MSTORE PUSH1 0xE0 DUP6 ADD DUP3 MSTORE DUP1 MLOAD SWAP1 DUP4 ADD KECCAK256 PUSH2 0x1901 PUSH1 0xF0 SHL PUSH2 0x100 DUP7 ADD MSTORE PUSH2 0x102 DUP6 ADD SWAP7 SWAP1 SWAP7 MSTORE PUSH2 0x122 DUP1 DUP6 ADD SWAP7 SWAP1 SWAP7 MSTORE DUP1 MLOAD DUP1 DUP6 SUB SWAP1 SWAP7 ADD DUP7 MSTORE PUSH2 0x142 DUP5 ADD DUP1 DUP3 MSTORE DUP7 MLOAD SWAP7 DUP4 ADD SWAP7 SWAP1 SWAP7 KECCAK256 SWAP6 DUP4 SWAP1 MSTORE PUSH2 0x162 DUP5 ADD DUP1 DUP3 MSTORE DUP7 SWAP1 MSTORE PUSH1 0xFF DUP10 AND PUSH2 0x182 DUP6 ADD MSTORE PUSH2 0x1A2 DUP5 ADD DUP9 SWAP1 MSTORE PUSH2 0x1C2 DUP5 ADD DUP8 SWAP1 MSTORE MLOAD SWAP2 SWAP4 SWAP3 PUSH2 0x1E2 DUP1 DUP3 ADD SWAP4 PUSH1 0x1F NOT DUP2 ADD SWAP3 DUP2 SWAP1 SUB SWAP1 SWAP2 ADD SWAP1 DUP6 GAS STATICCALL ISZERO DUP1 ISZERO PUSH2 0x16D9 JUMPI RETURNDATASIZE PUSH1 0x0 DUP1 RETURNDATACOPY RETURNDATASIZE PUSH1 0x0 REVERT JUMPDEST POP POP PUSH1 0x40 MLOAD PUSH1 0x1F NOT ADD MLOAD SWAP2 POP POP PUSH1 0x1 PUSH1 0x1 PUSH1 0xA0 SHL SUB DUP2 AND ISZERO DUP1 ISZERO SWAP1 PUSH2 0x170F JUMPI POP DUP9 PUSH1 0x1 PUSH1 0x1 PUSH1 0xA0 SHL SUB AND DUP2 PUSH1 0x1 PUSH1 0x1 PUSH1 0xA0 SHL SUB AND EQ JUMPDEST PUSH2 0x1760 JUMPI PUSH1 0x40 DUP1 MLOAD PUSH3 0x461BCD PUSH1 0xE5 SHL DUP2 MSTORE PUSH1 0x20 PUSH1 0x4 DUP3 ADD MSTORE PUSH1 0x1B PUSH1 0x24 DUP3 ADD MSTORE PUSH32 0x4B616C79737761703A20494E56414C49445F5349474E41545552450000000000 PUSH1 0x44 DUP3 ADD MSTORE SWAP1 MLOAD SWAP1 DUP2 SWAP1 SUB PUSH1 0x64 ADD SWAP1 REVERT JUMPDEST PUSH2 0x176B DUP10 DUP10 DUP10 PUSH2 0x1D05 JUMP JUMPDEST POP POP POP POP POP POP POP POP POP JUMP JUMPDEST PUSH1 0x2 PUSH1 0x20 SWAP1 DUP2 MSTORE PUSH1 0x0 SWAP3 DUP4 MSTORE PUSH1 0x40 DUP1 DUP5 KECCAK256 SWAP1 SWAP2 MSTORE SWAP1 DUP3 MSTORE SWAP1 KECCAK256 SLOAD DUP2 JUMP JUMPDEST PUSH1 0xC SLOAD PUSH1 0x1 EQ PUSH2 0x17DD JUMPI PUSH1 0x40 DUP1 MLOAD PUSH3 0x461BCD PUSH1 0xE5 SHL DUP2 MSTORE PUSH1 0x20 PUSH1 0x4 DUP3 ADD MSTORE PUSH1 0x10 PUSH1 0x24 DUP3 ADD MSTORE PUSH16 0x12D85B1E5CDDD85C0E881313D0D2D151 PUSH1 0x82 SHL PUSH1 0x44 DUP3 ADD MSTORE SWAP1 MLOAD SWAP1 DUP2 SWAP1 SUB PUSH1 0x64 ADD SWAP1 REVERT JUMPDEST PUSH1 0x0 PUSH1 0xC SSTORE PUSH1 0x6 SLOAD PUSH1 0x40 DUP1 MLOAD PUSH4 0x70A08231 PUSH1 0xE0 SHL DUP2 MSTORE ADDRESS PUSH1 0x4 DUP3 ADD MSTORE SWAP1 MLOAD PUSH2 0x18ED SWAP3 PUSH1 0x1 PUSH1 0x1 PUSH1 0xA0 SHL SUB AND SWAP2 PUSH4 0x70A08231 SWAP2 PUSH1 0x24 DUP1 DUP4 ADD SWAP3 PUSH1 0x20 SWAP3 SWAP2 SWAP1 DUP3 SWAP1 SUB ADD DUP2 DUP7 DUP1 EXTCODESIZE ISZERO DUP1 ISZERO PUSH2 0x182E JUMPI PUSH1 0x0 DUP1 REVERT JUMPDEST POP GAS STATICCALL ISZERO DUP1 ISZERO PUSH2 0x1842 JUMPI RETURNDATASIZE PUSH1 0x0 DUP1 RETURNDATACOPY RETURNDATASIZE PUSH1 0x0 REVERT JUMPDEST POP POP POP POP PUSH1 0x40 MLOAD RETURNDATASIZE PUSH1 0x20 DUP2 LT ISZERO PUSH2 0x1858 JUMPI PUSH1 0x0 DUP1 REVERT JUMPDEST POP MLOAD PUSH1 0x7 SLOAD PUSH1 0x40 DUP1 MLOAD PUSH4 0x70A08231 PUSH1 0xE0 SHL DUP2 MSTORE ADDRESS PUSH1 0x4 DUP3 ADD MSTORE SWAP1 MLOAD PUSH1 0x1 PUSH1 0x1 PUSH1 0xA0 SHL SUB SWAP1 SWAP3 AND SWAP2 PUSH4 0x70A08231 SWAP2 PUSH1 0x24 DUP1 DUP3 ADD SWAP3 PUSH1 0x20 SWAP3 SWAP1 SWAP2 SWAP1 DUP3 SWAP1 SUB ADD DUP2 DUP7 DUP1 EXTCODESIZE ISZERO DUP1 ISZERO PUSH2 0x18A5 JUMPI PUSH1 0x0 DUP1 REVERT JUMPDEST POP GAS STATICCALL ISZERO DUP1 ISZERO PUSH2 0x18B9 JUMPI RETURNDATASIZE PUSH1 0x0 DUP1 RETURNDATACOPY RETURNDATASIZE PUSH1 0x0 REVERT JUMPDEST POP POP POP POP PUSH1 0x40 MLOAD RETURNDATASIZE PUSH1 0x20 DUP2 LT ISZERO PUSH2 0x18CF JUMPI PUSH1 0x0 DUP1 REVERT JUMPDEST POP MLOAD PUSH1 0x8 SLOAD PUSH1 0x1 PUSH1 0x1 PUSH1 0x70 SHL SUB DUP1 DUP3 AND SWAP2 PUSH1 0x1 PUSH1 0x70 SHL SWAP1 DIV AND PUSH2 0x1B41 JUMP JUMPDEST PUSH1 0x1 PUSH1 0xC SSTORE JUMP JUMPDEST PUSH1 0x40 DUP1 MLOAD DUP1 DUP3 ADD DUP3 MSTORE PUSH1 0x19 DUP2 MSTORE PUSH32 0x7472616E7366657228616464726573732C75696E743235362900000000000000 PUSH1 0x20 SWAP2 DUP3 ADD MSTORE DUP2 MLOAD PUSH1 0x1 PUSH1 0x1 PUSH1 0xA0 SHL SUB DUP6 DUP2 AND PUSH1 0x24 DUP4 ADD MSTORE PUSH1 0x44 DUP1 DUP4 ADD DUP7 SWAP1 MSTORE DUP5 MLOAD DUP1 DUP5 SUB SWAP1 SWAP2 ADD DUP2 MSTORE PUSH1 0x64 SWAP1 SWAP3 ADD DUP5 MSTORE SWAP2 DUP2 ADD DUP1 MLOAD PUSH1 0x1 PUSH1 0x1 PUSH1 0xE0 SHL SUB AND PUSH4 0xA9059CBB PUSH1 0xE0 SHL OR DUP2 MSTORE SWAP3 MLOAD DUP2 MLOAD PUSH1 0x0 SWAP5 PUSH1 0x60 SWAP5 DUP10 AND SWAP4 SWAP3 SWAP2 DUP3 SWAP2 SWAP1 DUP1 DUP4 DUP4 JUMPDEST PUSH1 0x20 DUP4 LT PUSH2 0x19A1 JUMPI DUP1 MLOAD DUP3 MSTORE PUSH1 0x1F NOT SWAP1 SWAP3 ADD SWAP2 PUSH1 0x20 SWAP2 DUP3 ADD SWAP2 ADD PUSH2 0x1982 JUMP JUMPDEST PUSH1 0x1 DUP4 PUSH1 0x20 SUB PUSH2 0x100 EXP SUB DUP1 NOT DUP3 MLOAD AND DUP2 DUP5 MLOAD AND DUP1 DUP3 OR DUP6 MSTORE POP POP POP POP POP POP SWAP1 POP ADD SWAP2 POP POP PUSH1 0x0 PUSH1 0x40 MLOAD DUP1 DUP4 SUB DUP2 PUSH1 0x0 DUP7 GAS CALL SWAP2 POP POP RETURNDATASIZE DUP1 PUSH1 0x0 DUP2 EQ PUSH2 0x1A03 JUMPI PUSH1 0x40 MLOAD SWAP2 POP PUSH1 0x1F NOT PUSH1 0x3F RETURNDATASIZE ADD AND DUP3 ADD PUSH1 0x40 MSTORE RETURNDATASIZE DUP3 MSTORE RETURNDATASIZE PUSH1 0x0 PUSH1 0x20 DUP5 ADD RETURNDATACOPY PUSH2 0x1A08 JUMP JUMPDEST PUSH1 0x60 SWAP2 POP JUMPDEST POP SWAP2 POP SWAP2 POP DUP2 DUP1 ISZERO PUSH2 0x1A36 JUMPI POP DUP1 MLOAD ISZERO DUP1 PUSH2 0x1A36 JUMPI POP DUP1 DUP1 PUSH1 0x20 ADD SWAP1 MLOAD PUSH1 0x20 DUP2 LT ISZERO PUSH2 0x1A33 JUMPI PUSH1 0x0 DUP1 REVERT JUMPDEST POP MLOAD JUMPDEST PUSH2 0x1A87 JUMPI PUSH1 0x40 DUP1 MLOAD PUSH3 0x461BCD PUSH1 0xE5 SHL DUP2 MSTORE PUSH1 0x20 PUSH1 0x4 DUP3 ADD MSTORE PUSH1 0x19 PUSH1 0x24 DUP3 ADD MSTORE PUSH32 0x4B616C79737761703A205452414E534645525F4641494C454400000000000000 PUSH1 0x44 DUP3 ADD MSTORE SWAP1 MLOAD SWAP1 DUP2 SWAP1 SUB PUSH1 0x64 ADD SWAP1 REVERT JUMPDEST POP POP POP POP POP JUMP JUMPDEST PUSH1 0x0 DUP2 ISZERO DUP1 PUSH2 0x1AA9 JUMPI POP POP DUP1 DUP3 MUL DUP3 DUP3 DUP3 DUP2 PUSH2 0x1AA6 JUMPI INVALID JUMPDEST DIV EQ JUMPDEST PUSH2 0xB7A JUMPI PUSH1 0x40 DUP1 MLOAD PUSH3 0x461BCD PUSH1 0xE5 SHL DUP2 MSTORE PUSH1 0x20 PUSH1 0x4 DUP3 ADD MSTORE PUSH1 0x14 PUSH1 0x24 DUP3 ADD MSTORE PUSH20 0x64732D6D6174682D6D756C2D6F766572666C6F77 PUSH1 0x60 SHL PUSH1 0x44 DUP3 ADD MSTORE SWAP1 MLOAD SWAP1 DUP2 SWAP1 SUB PUSH1 0x64 ADD SWAP1 REVERT JUMPDEST DUP1 DUP3 SUB DUP3 DUP2 GT ISZERO PUSH2 0xB7A JUMPI PUSH1 0x40 DUP1 MLOAD PUSH3 0x461BCD PUSH1 0xE5 SHL DUP2 MSTORE PUSH1 0x20 PUSH1 0x4 DUP3 ADD MSTORE PUSH1 0x15 PUSH1 0x24 DUP3 ADD MSTORE PUSH21 0x64732D6D6174682D7375622D756E646572666C6F77 PUSH1 0x58 SHL PUSH1 0x44 DUP3 ADD MSTORE SWAP1 MLOAD SWAP1 DUP2 SWAP1 SUB PUSH1 0x64 ADD SWAP1 REVERT JUMPDEST PUSH1 0x1 PUSH1 0x1 PUSH1 0x70 SHL SUB DUP5 GT DUP1 ISZERO SWAP1 PUSH2 0x1B5F JUMPI POP PUSH1 0x1 PUSH1 0x1 PUSH1 0x70 SHL SUB DUP4 GT ISZERO JUMPDEST PUSH2 0x1BA5 JUMPI PUSH1 0x40 DUP1 MLOAD PUSH3 0x461BCD PUSH1 0xE5 SHL DUP2 MSTORE PUSH1 0x20 PUSH1 0x4 DUP3 ADD MSTORE PUSH1 0x12 PUSH1 0x24 DUP3 ADD MSTORE PUSH18 0x4B616C79737761703A204F564552464C4F57 PUSH1 0x70 SHL PUSH1 0x44 DUP3 ADD MSTORE SWAP1 MLOAD SWAP1 DUP2 SWAP1 SUB PUSH1 0x64 ADD SWAP1 REVERT JUMPDEST PUSH1 0x8 SLOAD PUSH4 0xFFFFFFFF TIMESTAMP DUP2 AND SWAP2 PUSH1 0x1 PUSH1 0xE0 SHL SWAP1 DIV DUP2 AND DUP3 SUB SWAP1 DUP2 AND ISZERO DUP1 ISZERO SWAP1 PUSH2 0x1BD5 JUMPI POP PUSH1 0x1 PUSH1 0x1 PUSH1 0x70 SHL SUB DUP5 AND ISZERO ISZERO JUMPDEST DUP1 ISZERO PUSH2 0x1BE9 JUMPI POP PUSH1 0x1 PUSH1 0x1 PUSH1 0x70 SHL SUB DUP4 AND ISZERO ISZERO JUMPDEST ISZERO PUSH2 0x1C5A JUMPI DUP1 PUSH4 0xFFFFFFFF AND PUSH2 0x1C17 DUP6 PUSH2 0x1C02 DUP7 PUSH2 0x211D JUMP JUMPDEST PUSH1 0x1 PUSH1 0x1 PUSH1 0xE0 SHL SUB AND SWAP1 PUSH4 0xFFFFFFFF PUSH2 0x212F AND JUMP JUMPDEST PUSH1 0x9 DUP1 SLOAD PUSH1 0x1 PUSH1 0x1 PUSH1 0xE0 SHL SUB SWAP3 SWAP1 SWAP3 AND SWAP3 SWAP1 SWAP3 MUL ADD SWAP1 SSTORE PUSH4 0xFFFFFFFF DUP2 AND PUSH2 0x1C42 DUP5 PUSH2 0x1C02 DUP8 PUSH2 0x211D JUMP JUMPDEST PUSH1 0xA DUP1 SLOAD PUSH1 0x1 PUSH1 0x1 PUSH1 0xE0 SHL SUB SWAP3 SWAP1 SWAP3 AND SWAP3 SWAP1 SWAP3 MUL ADD SWAP1 SSTORE JUMPDEST PUSH1 0x8 DUP1 SLOAD PUSH14 0xFFFFFFFFFFFFFFFFFFFFFFFFFFFF NOT AND PUSH1 0x1 PUSH1 0x1 PUSH1 0x70 SHL SUB DUP9 DUP2 AND SWAP2 SWAP1 SWAP2 OR PUSH14 0xFFFFFFFFFFFFFFFFFFFFFFFFFFFF PUSH1 0x70 SHL NOT AND PUSH1 0x1 PUSH1 0x70 SHL DUP9 DUP4 AND DUP2 MUL SWAP2 SWAP1 SWAP2 OR PUSH1 0x1 PUSH1 0x1 PUSH1 0xE0 SHL SUB AND PUSH1 0x1 PUSH1 0xE0 SHL PUSH4 0xFFFFFFFF DUP8 AND MUL OR SWAP3 DUP4 SWAP1 SSTORE PUSH1 0x40 DUP1 MLOAD DUP5 DUP5 AND DUP2 MSTORE SWAP2 SWAP1 SWAP4 DIV SWAP1 SWAP2 AND PUSH1 0x20 DUP3 ADD MSTORE DUP2 MLOAD PUSH32 0x1C411E9A96E071241C2F21F7726B17AE89E3CAB4C78BE50E062B03A9FFFBBAD1 SWAP3 SWAP2 DUP2 SWAP1 SUB SWAP1 SWAP2 ADD SWAP1 LOG1 POP POP POP POP POP POP JUMP JUMPDEST PUSH1 0x1 PUSH1 0x1 PUSH1 0xA0 SHL SUB DUP1 DUP5 AND PUSH1 0x0 DUP2 DUP2 MSTORE PUSH1 0x2 PUSH1 0x20 SWAP1 DUP2 MSTORE PUSH1 0x40 DUP1 DUP4 KECCAK256 SWAP5 DUP8 AND DUP1 DUP5 MSTORE SWAP5 DUP3 MSTORE SWAP2 DUP3 SWAP1 KECCAK256 DUP6 SWAP1 SSTORE DUP2 MLOAD DUP6 DUP2 MSTORE SWAP2 MLOAD PUSH32 0x8C5BE1E5EBEC7D5BD14F71427D1E84F3DD0314C0F7B2291E5B200AC8C7C3B925 SWAP3 DUP2 SWAP1 SUB SWAP1 SWAP2 ADD SWAP1 LOG3 POP POP POP JUMP JUMPDEST PUSH1 0x1 PUSH1 0x1 PUSH1 0xA0 SHL SUB DUP4 AND PUSH1 0x0 SWAP1 DUP2 MSTORE PUSH1 0x1 PUSH1 0x20 MSTORE PUSH1 0x40 SWAP1 KECCAK256 SLOAD PUSH2 0x1D90 SWAP1 DUP3 PUSH4 0xFFFFFFFF PUSH2 0x1AF1 AND JUMP JUMPDEST PUSH1 0x1 PUSH1 0x1 PUSH1 0xA0 SHL SUB DUP1 DUP6 AND PUSH1 0x0 SWAP1 DUP2 MSTORE PUSH1 0x1 PUSH1 0x20 MSTORE PUSH1 0x40 DUP1 DUP3 KECCAK256 SWAP4 SWAP1 SWAP4 SSTORE SWAP1 DUP5 AND DUP2 MSTORE KECCAK256 SLOAD PUSH2 0x1DC5 SWAP1 DUP3 PUSH4 0xFFFFFFFF PUSH2 0x2154 AND JUMP JUMPDEST PUSH1 0x1 PUSH1 0x1 PUSH1 0xA0 SHL SUB DUP1 DUP5 AND PUSH1 0x0 DUP2 DUP2 MSTORE PUSH1 0x1 PUSH1 0x20 SWAP1 DUP2 MSTORE PUSH1 0x40 SWAP2 DUP3 SWAP1 KECCAK256 SWAP5 SWAP1 SWAP5 SSTORE DUP1 MLOAD DUP6 DUP2 MSTORE SWAP1 MLOAD SWAP2 SWAP4 SWAP3 DUP8 AND SWAP3 PUSH32 0xDDF252AD1BE2C89B69C2B068FC378DAA952BA7F163C4A11628F55A4DF523B3EF SWAP3 SWAP2 DUP3 SWAP1 SUB ADD SWAP1 LOG3 POP POP POP JUMP JUMPDEST PUSH1 0x0 DUP1 PUSH1 0x5 PUSH1 0x0 SWAP1 SLOAD SWAP1 PUSH2 0x100 EXP SWAP1 DIV PUSH1 0x1 PUSH1 0x1 PUSH1 0xA0 SHL SUB AND PUSH1 0x1 PUSH1 0x1 PUSH1 0xA0 SHL SUB AND PUSH4 0x17E7E58 PUSH1 0x40 MLOAD DUP2 PUSH4 0xFFFFFFFF AND PUSH1 0xE0 SHL DUP2 MSTORE PUSH1 0x4 ADD PUSH1 0x20 PUSH1 0x40 MLOAD DUP1 DUP4 SUB DUP2 DUP7 DUP1 EXTCODESIZE ISZERO DUP1 ISZERO PUSH2 0x1E72 JUMPI PUSH1 0x0 DUP1 REVERT JUMPDEST POP GAS STATICCALL ISZERO DUP1 ISZERO PUSH2 0x1E86 JUMPI RETURNDATASIZE PUSH1 0x0 DUP1 RETURNDATACOPY RETURNDATASIZE PUSH1 0x0 REVERT JUMPDEST POP POP POP POP PUSH1 0x40 MLOAD RETURNDATASIZE PUSH1 0x20 DUP2 LT ISZERO PUSH2 0x1E9C JUMPI PUSH1 0x0 DUP1 REVERT JUMPDEST POP MLOAD PUSH1 0xB SLOAD PUSH1 0x1 PUSH1 0x1 PUSH1 0xA0 SHL SUB DUP3 AND ISZERO DUP1 ISZERO SWAP5 POP SWAP2 SWAP3 POP SWAP1 PUSH2 0x1F6B JUMPI DUP1 ISZERO PUSH2 0x1F66 JUMPI PUSH1 0x0 PUSH2 0x1EDF PUSH2 0xEB2 PUSH1 0x1 PUSH1 0x1 PUSH1 0x70 SHL SUB DUP9 DUP2 AND SWAP1 DUP9 AND PUSH4 0xFFFFFFFF PUSH2 0x1A8E AND JUMP JUMPDEST SWAP1 POP PUSH1 0x0 PUSH2 0x1EEC DUP4 PUSH2 0x1F7F JUMP JUMPDEST SWAP1 POP DUP1 DUP3 GT ISZERO PUSH2 0x1F63 JUMPI PUSH1 0x0 PUSH2 0x1F1A PUSH2 0x1F0B DUP5 DUP5 PUSH4 0xFFFFFFFF PUSH2 0x1AF1 AND JUMP JUMPDEST PUSH1 0x0 SLOAD SWAP1 PUSH4 0xFFFFFFFF PUSH2 0x1A8E AND JUMP JUMPDEST SWAP1 POP PUSH1 0x0 PUSH2 0x1F3F DUP4 PUSH2 0x1F33 DUP7 PUSH1 0x5 PUSH4 0xFFFFFFFF PUSH2 0x1A8E AND JUMP JUMPDEST SWAP1 PUSH4 0xFFFFFFFF PUSH2 0x2154 AND JUMP JUMPDEST SWAP1 POP PUSH1 0x0 DUP2 DUP4 DUP2 PUSH2 0x1F4C JUMPI INVALID JUMPDEST DIV SWAP1 POP DUP1 ISZERO PUSH2 0x1F5F JUMPI PUSH2 0x1F5F DUP8 DUP3 PUSH2 0x1FD1 JUMP JUMPDEST POP POP POP JUMPDEST POP POP JUMPDEST PUSH2 0x1F77 JUMP JUMPDEST DUP1 ISZERO PUSH2 0x1F77 JUMPI PUSH1 0x0 PUSH1 0xB SSTORE JUMPDEST POP POP SWAP3 SWAP2 POP POP JUMP JUMPDEST PUSH1 0x0 PUSH1 0x3 DUP3 GT ISZERO PUSH2 0x1FC2 JUMPI POP DUP1 PUSH1 0x1 PUSH1 0x2 DUP3 DIV ADD JUMPDEST DUP2 DUP2 LT ISZERO PUSH2 0x1FBC JUMPI DUP1 SWAP2 POP PUSH1 0x2 DUP2 DUP3 DUP6 DUP2 PUSH2 0x1FAB JUMPI INVALID JUMPDEST DIV ADD DUP2 PUSH2 0x1FB4 JUMPI INVALID JUMPDEST DIV SWAP1 POP PUSH2 0x1F94 JUMP JUMPDEST POP PUSH2 0x1FCC JUMP JUMPDEST DUP2 ISZERO PUSH2 0x1FCC JUMPI POP PUSH1 0x1 JUMPDEST SWAP2 SWAP1 POP JUMP JUMPDEST PUSH1 0x0 SLOAD PUSH2 0x1FE4 SWAP1 DUP3 PUSH4 0xFFFFFFFF PUSH2 0x2154 AND JUMP JUMPDEST PUSH1 0x0 SWAP1 DUP2 SSTORE PUSH1 0x1 PUSH1 0x1 PUSH1 0xA0 SHL SUB DUP4 AND DUP2 MSTORE PUSH1 0x1 PUSH1 0x20 MSTORE PUSH1 0x40 SWAP1 KECCAK256 SLOAD PUSH2 0x200F SWAP1 DUP3 PUSH4 0xFFFFFFFF PUSH2 0x2154 AND JUMP JUMPDEST PUSH1 0x1 PUSH1 0x1 PUSH1 0xA0 SHL SUB DUP4 AND PUSH1 0x0 DUP2 DUP2 MSTORE PUSH1 0x1 PUSH1 0x20 SWAP1 DUP2 MSTORE PUSH1 0x40 DUP1 DUP4 KECCAK256 SWAP5 SWAP1 SWAP5 SSTORE DUP4 MLOAD DUP6 DUP2 MSTORE SWAP4 MLOAD SWAP3 SWAP4 SWAP2 SWAP3 PUSH32 0xDDF252AD1BE2C89B69C2B068FC378DAA952BA7F163C4A11628F55A4DF523B3EF SWAP3 DUP2 SWAP1 SUB SWAP1 SWAP2 ADD SWAP1 LOG3 POP POP JUMP JUMPDEST PUSH1 0x0 DUP2 DUP4 LT PUSH2 0x2076 JUMPI DUP2 PUSH2 0x2078 JUMP JUMPDEST DUP3 JUMPDEST SWAP4 SWAP3 POP POP POP JUMP JUMPDEST PUSH1 0x1 PUSH1 0x1 PUSH1 0xA0 SHL SUB DUP3 AND PUSH1 0x0 SWAP1 DUP2 MSTORE PUSH1 0x1 PUSH1 0x20 MSTORE PUSH1 0x40 SWAP1 KECCAK256 SLOAD PUSH2 0x20A8 SWAP1 DUP3 PUSH4 0xFFFFFFFF PUSH2 0x1AF1 AND JUMP JUMPDEST PUSH1 0x1 PUSH1 0x1 PUSH1 0xA0 SHL SUB DUP4 AND PUSH1 0x0 SWAP1 DUP2 MSTORE PUSH1 0x1 PUSH1 0x20 MSTORE PUSH1 0x40 DUP2 KECCAK256 SWAP2 SWAP1 SWAP2 SSTORE SLOAD PUSH2 0x20D5 SWAP1 DUP3 PUSH4 0xFFFFFFFF PUSH2 0x1AF1 AND JUMP JUMPDEST PUSH1 0x0 SWAP1 DUP2 SSTORE PUSH1 0x40 DUP1 MLOAD DUP4 DUP2 MSTORE SWAP1 MLOAD PUSH1 0x1 PUSH1 0x1 PUSH1 0xA0 SHL SUB DUP6 AND SWAP2 PUSH32 0xDDF252AD1BE2C89B69C2B068FC378DAA952BA7F163C4A11628F55A4DF523B3EF SWAP2 SWAP1 DUP2 SWAP1 SUB PUSH1 0x20 ADD SWAP1 LOG3 POP POP JUMP JUMPDEST PUSH1 0x1 PUSH1 0x1 PUSH1 0x70 SHL SUB AND PUSH1 0x1 PUSH1 0x70 SHL MUL SWAP1 JUMP JUMPDEST PUSH1 0x0 PUSH1 0x1 PUSH1 0x1 PUSH1 0x70 SHL SUB DUP3 AND PUSH1 0x1 PUSH1 0x1 PUSH1 0xE0 SHL SUB DUP5 AND DUP2 PUSH2 0x214C JUMPI INVALID JUMPDEST DIV SWAP4 SWAP3 POP POP POP JUMP JUMPDEST DUP1 DUP3 ADD DUP3 DUP2 LT ISZERO PUSH2 0xB7A JUMPI PUSH1 0x40 DUP1 MLOAD PUSH3 0x461BCD PUSH1 0xE5 SHL DUP2 MSTORE PUSH1 0x20 PUSH1 0x4 DUP3 ADD MSTORE PUSH1 0x14 PUSH1 0x24 DUP3 ADD MSTORE PUSH20 0x64732D6D6174682D6164642D6F766572666C6F77 PUSH1 0x60 SHL PUSH1 0x44 DUP3 ADD MSTORE SWAP1 MLOAD SWAP1 DUP2 SWAP1 SUB PUSH1 0x64 ADD SWAP1 REVERT INVALID 0x4B PUSH2 0x6C79 PUSH20 0x7761703A20494E53554646494349454E545F494E POP SSTORE SLOAD 0x5F COINBASE 0x4D 0x4F SSTORE 0x4E SLOAD 0x4B PUSH2 0x6C79 PUSH20 0x7761703A20494E53554646494349454E545F4F55 SLOAD POP SSTORE SLOAD 0x5F COINBASE 0x4D 0x4F SSTORE 0x4E SLOAD 0x4B PUSH2 0x6C79 PUSH20 0x7761703A20494E53554646494349454E545F4C49 MLOAD SSTORE 0x49 DIFFICULTY 0x49 SLOAD MSIZE 0x5F 0x4D 0x49 0x4E SLOAD GASLIMIT DIFFICULTY 0x4B PUSH2 0x6C79 PUSH20 0x7761703A20494E53554646494349454E545F4C49 MLOAD SSTORE 0x49 DIFFICULTY 0x49 SLOAD MSIZE 0x5F TIMESTAMP SSTORE MSTORE 0x4E GASLIMIT DIFFICULTY LOG2 PUSH6 0x627A7A723158 KECCAK256 0x4E SWAP12 SWAP13 PUSH30 0xD735E8A54453B08CB49B695858CC132863E2BAA919A007A930B7B3656473 PUSH16 0x6C63430005100032454950373132446F PUSH14 0x61696E28737472696E67206E616D PUSH6 0x2C737472696E PUSH8 0x2076657273696F6E 0x2C PUSH22 0x696E7432353620636861696E49642C61646472657373 KECCAK256 PUSH23 0x6572696679696E67436F6E747261637429A265627A7A72 BALANCE PC KECCAK256 LOG1 PUSH17 0x6284BA0945DA6F4B459C9D5385EFB34AA0 0xCF 0x4D 0xFC 0xD8 SWAP2 PUSH14 0x5E88F1D7BBA92464736F6C634300 SDIV LT STOP ORIGIN "
				},
				"gasEstimates": {
					"creation": {
						"codeDepositCost": "1892400",
						"executionCost": "1998",
						"totalCost": "1894398"
					},
					"external": {
						"getInitHash()": "infinite"
					}
				},
				"methodIdentifiers": {
					"getInitHash()": "3c9de1b8"
				}
			},
			"storageLayout": {
				"storage": [],
				"types": null
			},
			"userdoc": {
				"methods": {}
			}
		}
	}
}