{
	"CoreContracts/kalyswap-core/KalyswapFactory_flattened.sol": {
		"KalyswapPair": {
			"abi": [
				{
					"inputs": [],
					"payable": false,
					"stateMutability": "nonpayable",
					"type": "constructor"
				},
				{
					"anonymous": false,
					"inputs": [
						{
							"indexed": true,
							"internalType": "address",
							"name": "owner",
							"type": "address"
						},
						{
							"indexed": true,
							"internalType": "address",
							"name": "spender",
							"type": "address"
						},
						{
							"indexed": false,
							"internalType": "uint256",
							"name": "value",
							"type": "uint256"
						}
					],
					"name": "Approval",
					"type": "event"
				},
				{
					"anonymous": false,
					"inputs": [
						{
							"indexed": true,
							"internalType": "address",
							"name": "sender",
							"type": "address"
						},
						{
							"indexed": false,
							"internalType": "uint256",
							"name": "amount0",
							"type": "uint256"
						},
						{
							"indexed": false,
							"internalType": "uint256",
							"name": "amount1",
							"type": "uint256"
						},
						{
							"indexed": true,
							"internalType": "address",
							"name": "to",
							"type": "address"
						}
					],
					"name": "Burn",
					"type": "event"
				},
				{
					"anonymous": false,
					"inputs": [
						{
							"indexed": true,
							"internalType": "address",
							"name": "sender",
							"type": "address"
						},
						{
							"indexed": false,
							"internalType": "uint256",
							"name": "amount0",
							"type": "uint256"
						},
						{
							"indexed": false,
							"internalType": "uint256",
							"name": "amount1",
							"type": "uint256"
						}
					],
					"name": "Mint",
					"type": "event"
				},
				{
					"anonymous": false,
					"inputs": [
						{
							"indexed": true,
							"internalType": "address",
							"name": "sender",
							"type": "address"
						},
						{
							"indexed": false,
							"internalType": "uint256",
							"name": "amount0In",
							"type": "uint256"
						},
						{
							"indexed": false,
							"internalType": "uint256",
							"name": "amount1In",
							"type": "uint256"
						},
						{
							"indexed": false,
							"internalType": "uint256",
							"name": "amount0Out",
							"type": "uint256"
						},
						{
							"indexed": false,
							"internalType": "uint256",
							"name": "amount1Out",
							"type": "uint256"
						},
						{
							"indexed": true,
							"internalType": "address",
							"name": "to",
							"type": "address"
						}
					],
					"name": "Swap",
					"type": "event"
				},
				{
					"anonymous": false,
					"inputs": [
						{
							"indexed": false,
							"internalType": "uint112",
							"name": "reserve0",
							"type": "uint112"
						},
						{
							"indexed": false,
							"internalType": "uint112",
							"name": "reserve1",
							"type": "uint112"
						}
					],
					"name": "Sync",
					"type": "event"
				},
				{
					"anonymous": false,
					"inputs": [
						{
							"indexed": true,
							"internalType": "address",
							"name": "from",
							"type": "address"
						},
						{
							"indexed": true,
							"internalType": "address",
							"name": "to",
							"type": "address"
						},
						{
							"indexed": false,
							"internalType": "uint256",
							"name": "value",
							"type": "uint256"
						}
					],
					"name": "Transfer",
					"type": "event"
				},
				{
					"constant": true,
					"inputs": [],
					"name": "DOMAIN_SEPARATOR",
					"outputs": [
						{
							"internalType": "bytes32",
							"name": "",
							"type": "bytes32"
						}
					],
					"payable": false,
					"stateMutability": "view",
					"type": "function"
				},
				{
					"constant": true,
					"inputs": [],
					"name": "MINIMUM_LIQUIDITY",
					"outputs": [
						{
							"internalType": "uint256",
							"name": "",
							"type": "uint256"
						}
					],
					"payable": false,
					"stateMutability": "view",
					"type": "function"
				},
				{
					"constant": true,
					"inputs": [],
					"name": "PERMIT_TYPEHASH",
					"outputs": [
						{
							"internalType": "bytes32",
							"name": "",
							"type": "bytes32"
						}
					],
					"payable": false,
					"stateMutability": "view",
					"type": "function"
				},
				{
					"constant": true,
					"inputs": [
						{
							"internalType": "address",
							"name": "",
							"type": "address"
						},
						{
							"internalType": "address",
							"name": "",
							"type": "address"
						}
					],
					"name": "allowance",
					"outputs": [
						{
							"internalType": "uint256",
							"name": "",
							"type": "uint256"
						}
					],
					"payable": false,
					"stateMutability": "view",
					"type": "function"
				},
				{
					"constant": false,
					"inputs": [
						{
							"internalType": "address",
							"name": "spender",
							"type": "address"
						},
						{
							"internalType": "uint256",
							"name": "value",
							"type": "uint256"
						}
					],
					"name": "approve",
					"outputs": [
						{
							"internalType": "bool",
							"name": "",
							"type": "bool"
						}
					],
					"payable": false,
					"stateMutability": "nonpayable",
					"type": "function"
				},
				{
					"constant": true,
					"inputs": [
						{
							"internalType": "address",
							"name": "",
							"type": "address"
						}
					],
					"name": "balanceOf",
					"outputs": [
						{
							"internalType": "uint256",
							"name": "",
							"type": "uint256"
						}
					],
					"payable": false,
					"stateMutability": "view",
					"type": "function"
				},
				{
					"constant": false,
					"inputs": [
						{
							"internalType": "address",
							"name": "to",
							"type": "address"
						}
					],
					"name": "burn",
					"outputs": [
						{
							"internalType": "uint256",
							"name": "amount0",
							"type": "uint256"
						},
						{
							"internalType": "uint256",
							"name": "amount1",
							"type": "uint256"
						}
					],
					"payable": false,
					"stateMutability": "nonpayable",
					"type": "function"
				},
				{
					"constant": true,
					"inputs": [],
					"name": "decimals",
					"outputs": [
						{
							"internalType": "uint8",
							"name": "",
							"type": "uint8"
						}
					],
					"payable": false,
					"stateMutability": "view",
					"type": "function"
				},
				{
					"constant": true,
					"inputs": [],
					"name": "factory",
					"outputs": [
						{
							"internalType": "address",
							"name": "",
							"type": "address"
						}
					],
					"payable": false,
					"stateMutability": "view",
					"type": "function"
				},
				{
					"constant": true,
					"inputs": [],
					"name": "getReserves",
					"outputs": [
						{
							"internalType": "uint112",
							"name": "_reserve0",
							"type": "uint112"
						},
						{
							"internalType": "uint112",
							"name": "_reserve1",
							"type": "uint112"
						},
						{
							"internalType": "uint32",
							"name": "_blockTimestampLast",
							"type": "uint32"
						}
					],
					"payable": false,
					"stateMutability": "view",
					"type": "function"
				},
				{
					"constant": false,
					"inputs": [
						{
							"internalType": "address",
							"name": "_token0",
							"type": "address"
						},
						{
							"internalType": "address",
							"name": "_token1",
							"type": "address"
						}
					],
					"name": "initialize",
					"outputs": [],
					"payable": false,
					"stateMutability": "nonpayable",
					"type": "function"
				},
				{
					"constant": true,
					"inputs": [],
					"name": "kLast",
					"outputs": [
						{
							"internalType": "uint256",
							"name": "",
							"type": "uint256"
						}
					],
					"payable": false,
					"stateMutability": "view",
					"type": "function"
				},
				{
					"constant": false,
					"inputs": [
						{
							"internalType": "address",
							"name": "to",
							"type": "address"
						}
					],
					"name": "mint",
					"outputs": [
						{
							"internalType": "uint256",
							"name": "liquidity",
							"type": "uint256"
						}
					],
					"payable": false,
					"stateMutability": "nonpayable",
					"type": "function"
				},
				{
					"constant": true,
					"inputs": [],
					"name": "name",
					"outputs": [
						{
							"internalType": "string",
							"name": "",
							"type": "string"
						}
					],
					"payable": false,
					"stateMutability": "view",
					"type": "function"
				},
				{
					"constant": true,
					"inputs": [
						{
							"internalType": "address",
							"name": "",
							"type": "address"
						}
					],
					"name": "nonces",
					"outputs": [
						{
							"internalType": "uint256",
							"name": "",
							"type": "uint256"
						}
					],
					"payable": false,
					"stateMutability": "view",
					"type": "function"
				},
				{
					"constant": false,
					"inputs": [
						{
							"internalType": "address",
							"name": "owner",
							"type": "address"
						},
						{
							"internalType": "address",
							"name": "spender",
							"type": "address"
						},
						{
							"internalType": "uint256",
							"name": "value",
							"type": "uint256"
						},
						{
							"internalType": "uint256",
							"name": "deadline",
							"type": "uint256"
						},
						{
							"internalType": "uint8",
							"name": "v",
							"type": "uint8"
						},
						{
							"internalType": "bytes32",
							"name": "r",
							"type": "bytes32"
						},
						{
							"internalType": "bytes32",
							"name": "s",
							"type": "bytes32"
						}
					],
					"name": "permit",
					"outputs": [],
					"payable": false,
					"stateMutability": "nonpayable",
					"type": "function"
				},
				{
					"constant": true,
					"inputs": [],
					"name": "price0CumulativeLast",
					"outputs": [
						{
							"internalType": "uint256",
							"name": "",
							"type": "uint256"
						}
					],
					"payable": false,
					"stateMutability": "view",
					"type": "function"
				},
				{
					"constant": true,
					"inputs": [],
					"name": "price1CumulativeLast",
					"outputs": [
						{
							"internalType": "uint256",
							"name": "",
							"type": "uint256"
						}
					],
					"payable": false,
					"stateMutability": "view",
					"type": "function"
				},
				{
					"constant": false,
					"inputs": [
						{
							"internalType": "address",
							"name": "to",
							"type": "address"
						}
					],
					"name": "skim",
					"outputs": [],
					"payable": false,
					"stateMutability": "nonpayable",
					"type": "function"
				},
				{
					"constant": false,
					"inputs": [
						{
							"internalType": "uint256",
							"name": "amount0Out",
							"type": "uint256"
						},
						{
							"internalType": "uint256",
							"name": "amount1Out",
							"type": "uint256"
						},
						{
							"internalType": "address",
							"name": "to",
							"type": "address"
						},
						{
							"internalType": "bytes",
							"name": "data",
							"type": "bytes"
						}
					],
					"name": "swap",
					"outputs": [],
					"payable": false,
					"stateMutability": "nonpayable",
					"type": "function"
				},
				{
					"constant": true,
					"inputs": [],
					"name": "symbol",
					"outputs": [
						{
							"internalType": "string",
							"name": "",
							"type": "string"
						}
					],
					"payable": false,
					"stateMutability": "view",
					"type": "function"
				},
				{
					"constant": false,
					"inputs": [],
					"name": "sync",
					"outputs": [],
					"payable": false,
					"stateMutability": "nonpayable",
					"type": "function"
				},
				{
					"constant": true,
					"inputs": [],
					"name": "token0",
					"outputs": [
						{
							"internalType": "address",
							"name": "",
							"type": "address"
						}
					],
					"payable": false,
					"stateMutability": "view",
					"type": "function"
				},
				{
					"constant": true,
					"inputs": [],
					"name": "token1",
					"outputs": [
						{
							"internalType": "address",
							"name": "",
							"type": "address"
						}
					],
					"payable": false,
					"stateMutability": "view",
					"type": "function"
				},
				{
					"constant": true,
					"inputs": [],
					"name": "totalSupply",
					"outputs": [
						{
							"internalType": "uint256",
							"name": "",
							"type": "uint256"
						}
					],
					"payable": false,
					"stateMutability": "view",
					"type": "function"
				},
				{
					"constant": false,
					"inputs": [
						{
							"internalType": "address",
							"name": "to",
							"type": "address"
						},
						{
							"internalType": "uint256",
							"name": "value",
							"type": "uint256"
						}
					],
					"name": "transfer",
					"outputs": [
						{
							"internalType": "bool",
							"name": "",
							"type": "bool"
						}
					],
					"payable": false,
					"stateMutability": "nonpayable",
					"type": "function"
				},
				{
					"constant": false,
					"inputs": [
						{
							"internalType": "address",
							"name": "from",
							"type": "address"
						},
						{
							"internalType": "address",
							"name": "to",
							"type": "address"
						},
						{
							"internalType": "uint256",
							"name": "value",
							"type": "uint256"
						}
					],
					"name": "transferFrom",
					"outputs": [
						{
							"internalType": "bool",
							"name": "",
							"type": "bool"
						}
					],
					"payable": false,
					"stateMutability": "nonpayable",
					"type": "function"
				}
			],
			"devdoc": {
				"methods": {}
			},
			"evm": {
				"assembly": "    /* \"CoreContracts/kalyswap-core/KalyswapFactory_flattened.sol\":10940:20420  contract KalyswapPair is IKalyswapPair, KalyswapERC20 {... */\n  mstore(0x40, 0x80)\n    /* \"CoreContracts/kalyswap-core/KalyswapFactory_flattened.sol\":11787:11788  1 */\n  0x01\n    /* \"CoreContracts/kalyswap-core/KalyswapFactory_flattened.sol\":11763:11788  uint private unlocked = 1 */\n  0x0c\n  sstore\n    /* \"CoreContracts/kalyswap-core/KalyswapFactory_flattened.sol\":12841:12899  constructor() public {... */\n  callvalue\n    /* \"--CODEGEN--\":8:17   */\n  dup1\n    /* \"--CODEGEN--\":5:7   */\n  iszero\n  tag_1\n  jumpi\n    /* \"--CODEGEN--\":30:31   */\n  0x00\n    /* \"--CODEGEN--\":27:28   */\n  dup1\n    /* \"--CODEGEN--\":20:32   */\n  revert\n    /* \"--CODEGEN--\":5:7   */\ntag_1:\n  pop\n    /* \"CoreContracts/kalyswap-core/KalyswapFactory_flattened.sol\":5310:5405  keccak256('EIP712Domain(string name,string version,uint256 chainId,address verifyingContract)') */\n  mload(0x40)\n    /* \"CoreContracts/kalyswap-core/KalyswapFactory_flattened.sol\":5214:5221  chainid */\n  chainid\n  swap1\n    /* \"CoreContracts/kalyswap-core/KalyswapFactory_flattened.sol\":5310:5405  keccak256('EIP712Domain(string name,string version,uint256 chainId,address verifyingContract)') */\n  dup1\n  0x52\n  data_8b73c3c69bb8fe3d512ecc4cf759cc79239f7b179b0ffacaa9a75d522b39400f\n  dup3\n  codecopy\n  0x40\n  dup1\n  mload\n  swap2\n  dup3\n  swap1\n  sub\n  0x52\n  add\n  dup3\n  keccak256\n    /* \"CoreContracts/kalyswap-core/KalyswapFactory_flattened.sol\":5439:5443  name */\n  dup3\n  dup3\n  add\n  dup3\n  mstore\n  0x12\n  dup4\n  mstore\n  0x4b616c7973776170204c69717569646974790000000000000000000000000000\n  0x20\n  swap4\n  dup5\n  add\n  mstore\n    /* \"CoreContracts/kalyswap-core/KalyswapFactory_flattened.sol\":5473:5483  bytes('1') */\n  dup2\n  mload\n  dup1\n  dup4\n  add\n  dup4\n  mstore\n  0x01\n  dup2\n  mstore\n  0x3100000000000000000000000000000000000000000000000000000000000000\n  swap1\n  dup5\n  add\n  mstore\n    /* \"CoreContracts/kalyswap-core/KalyswapFactory_flattened.sol\":5282:5554  abi.encode(... */\n  dup2\n  mload\n  dup1\n  dup5\n  add\n  swap2\n  swap1\n  swap2\n  mstore\n    /* \"CoreContracts/kalyswap-core/KalyswapFactory_flattened.sol\":5423:5445  keccak256(bytes(name)) */\n  0xd962d480548cea2d6ee7e34d119800d6b46dee603ed4fe4f1382f1d6ff280ab0\n    /* \"CoreContracts/kalyswap-core/KalyswapFactory_flattened.sol\":5282:5554  abi.encode(... */\n  dup2\n  dup4\n  add\n  mstore\n    /* \"CoreContracts/kalyswap-core/KalyswapFactory_flattened.sol\":5463:5484  keccak256(bytes('1')) */\n  0xc89efdaa54c0f20c7adf612882df0950f5a951637e0307cdcb4c672f298b8bc6\n    /* \"CoreContracts/kalyswap-core/KalyswapFactory_flattened.sol\":5282:5554  abi.encode(... */\n  0x60\n  dup3\n  add\n  mstore\n  0x80\n  dup2\n  add\n  swap5\n  swap1\n  swap5\n  mstore\n    /* \"CoreContracts/kalyswap-core/KalyswapFactory_flattened.sol\":5535:5539  this */\n  address\n    /* \"CoreContracts/kalyswap-core/KalyswapFactory_flattened.sol\":5282:5554  abi.encode(... */\n  0xa0\n  dup1\n  dup7\n  add\n  swap2\n  swap1\n  swap2\n  mstore\n  dup2\n  mload\n    /* \"--CODEGEN--\":26:47   */\n  dup1\n  dup7\n  sub\n    /* \"--CODEGEN--\":22:54   */\n  swap1\n  swap2\n  add\n    /* \"--CODEGEN--\":6:55   */\n  dup2\n  mstore\n    /* \"CoreContracts/kalyswap-core/KalyswapFactory_flattened.sol\":5282:5554  abi.encode(... */\n  0xc0\n  swap1\n  swap5\n  add\n  swap1\n  mstore\n    /* \"CoreContracts/kalyswap-core/KalyswapFactory_flattened.sol\":5259:5564  keccak256(... */\n  dup3\n  mload\n  swap3\n  add\n  swap2\n  swap1\n  swap2\n  keccak256\n    /* \"CoreContracts/kalyswap-core/KalyswapFactory_flattened.sol\":5240:5256  DOMAIN_SEPARATOR */\n  0x03\n    /* \"CoreContracts/kalyswap-core/KalyswapFactory_flattened.sol\":5240:5564  DOMAIN_SEPARATOR = keccak256(... */\n  sstore\n  pop\n    /* \"CoreContracts/kalyswap-core/KalyswapFactory_flattened.sol\":12872:12879  factory */\n  0x05\n    /* \"CoreContracts/kalyswap-core/KalyswapFactory_flattened.sol\":12872:12892  factory = msg.sender */\n  dup1\n  sload\n  0xffffffffffffffffffffffff0000000000000000000000000000000000000000\n  and\n    /* \"CoreContracts/kalyswap-core/KalyswapFactory_flattened.sol\":12882:12892  msg.sender */\n  caller\n    /* \"CoreContracts/kalyswap-core/KalyswapFactory_flattened.sol\":12872:12892  factory = msg.sender */\n  or\n  swap1\n  sstore\n  0x2352\n  dup1\n    /* \"CoreContracts/kalyswap-core/KalyswapFactory_flattened.sol\":10940:20420  contract KalyswapPair is IKalyswapPair, KalyswapERC20 {... */\n  dataOffset(sub_0)\n  0x00\n  codecopy\n  0x00\n  return\nstop\ndata_8b73c3c69bb8fe3d512ecc4cf759cc79239f7b179b0ffacaa9a75d522b39400f 454950373132446f6d61696e28737472696e67206e616d652c737472696e672076657273696f6e2c75696e7432353620636861696e49642c6164647265737320766572696679696e67436f6e747261637429\n\nsub_0: assembly {\n        /* \"CoreContracts/kalyswap-core/KalyswapFactory_flattened.sol\":10940:20420  contract KalyswapPair is IKalyswapPair, KalyswapERC20 {... */\n      mstore(0x40, 0x80)\n      callvalue\n        /* \"--CODEGEN--\":8:17   */\n      dup1\n        /* \"--CODEGEN--\":5:7   */\n      iszero\n      tag_1\n      jumpi\n        /* \"--CODEGEN--\":30:31   */\n      0x00\n        /* \"--CODEGEN--\":27:28   */\n      dup1\n        /* \"--CODEGEN--\":20:32   */\n      revert\n        /* \"--CODEGEN--\":5:7   */\n    tag_1:\n        /* \"CoreContracts/kalyswap-core/KalyswapFactory_flattened.sol\":10940:20420  contract KalyswapPair is IKalyswapPair, KalyswapERC20 {... */\n      pop\n      jumpi(tag_2, lt(calldatasize, 0x04))\n      shr(0xe0, calldataload(0x00))\n      dup1\n      0x6a627842\n      gt\n      tag_30\n      jumpi\n      dup1\n      0xba9a7a56\n      gt\n      tag_31\n      jumpi\n      dup1\n      0xd21220a7\n      gt\n      tag_32\n      jumpi\n      dup1\n      0xd21220a7\n      eq\n      tag_26\n      jumpi\n      dup1\n      0xd505accf\n      eq\n      tag_27\n      jumpi\n      dup1\n      0xdd62ed3e\n      eq\n      tag_28\n      jumpi\n      dup1\n      0xfff6cae9\n      eq\n      tag_29\n      jumpi\n      jump(tag_2)\n    tag_32:\n      dup1\n      0xba9a7a56\n      eq\n      tag_23\n      jumpi\n      dup1\n      0xbc25cf77\n      eq\n      tag_24\n      jumpi\n      dup1\n      0xc45a0155\n      eq\n      tag_25\n      jumpi\n      jump(tag_2)\n    tag_31:\n      dup1\n      0x7ecebe00\n      gt\n      tag_33\n      jumpi\n      dup1\n      0x7ecebe00\n      eq\n      tag_19\n      jumpi\n      dup1\n      0x89afcb44\n      eq\n      tag_20\n      jumpi\n      dup1\n      0x95d89b41\n      eq\n      tag_21\n      jumpi\n      dup1\n      0xa9059cbb\n      eq\n      tag_22\n      jumpi\n      jump(tag_2)\n    tag_33:\n      dup1\n      0x6a627842\n      eq\n      tag_16\n      jumpi\n      dup1\n      0x70a08231\n      eq\n      tag_17\n      jumpi\n      dup1\n      0x7464fc3d\n      eq\n      tag_18\n      jumpi\n      jump(tag_2)\n    tag_30:\n      dup1\n      0x23b872dd\n      gt\n      tag_34\n      jumpi\n      dup1\n      0x3644e515\n      gt\n      tag_35\n      jumpi\n      dup1\n      0x3644e515\n      eq\n      tag_12\n      jumpi\n      dup1\n      0x485cc955\n      eq\n      tag_13\n      jumpi\n      dup1\n      0x5909c0d5\n      eq\n      tag_14\n      jumpi\n      dup1\n      0x5a3d5493\n      eq\n      tag_15\n      jumpi\n      jump(tag_2)\n    tag_35:\n      dup1\n      0x23b872dd\n      eq\n      tag_9\n      jumpi\n      dup1\n      0x30adf81f\n      eq\n      tag_10\n      jumpi\n      dup1\n      0x313ce567\n      eq\n      tag_11\n      jumpi\n      jump(tag_2)\n    tag_34:\n      dup1\n      0x095ea7b3\n      gt\n      tag_36\n      jumpi\n      dup1\n      0x095ea7b3\n      eq\n      tag_6\n      jumpi\n      dup1\n      0x0dfe1681\n      eq\n      tag_7\n      jumpi\n      dup1\n      0x18160ddd\n      eq\n      tag_8\n      jumpi\n      jump(tag_2)\n    tag_36:\n      dup1\n      0x022c0d9f\n      eq\n      tag_3\n      jumpi\n      dup1\n      0x06fdde03\n      eq\n      tag_4\n      jumpi\n      dup1\n      0x0902f1ac\n      eq\n      tag_5\n      jumpi\n    tag_2:\n      0x00\n      dup1\n      revert\n        /* \"CoreContracts/kalyswap-core/KalyswapFactory_flattened.sol\":17987:19841  function swap(uint amount0Out, uint amount1Out, address to, bytes calldata data) external lock {... */\n    tag_3:\n      tag_37\n      0x04\n      dup1\n      calldatasize\n      sub\n        /* \"--CODEGEN--\":13:16   */\n      0x80\n        /* \"--CODEGEN--\":8:11   */\n      dup2\n        /* \"--CODEGEN--\":5:17   */\n      lt\n        /* \"--CODEGEN--\":2:4   */\n      iszero\n      tag_38\n      jumpi\n        /* \"--CODEGEN--\":30:31   */\n      0x00\n        /* \"--CODEGEN--\":27:28   */\n      dup1\n        /* \"--CODEGEN--\":20:32   */\n      revert\n        /* \"--CODEGEN--\":2:4   */\n    tag_38:\n        /* \"CoreContracts/kalyswap-core/KalyswapFactory_flattened.sol\":17987:19841  function swap(uint amount0Out, uint amount1Out, address to, bytes calldata data) external lock {... */\n      dup2\n      calldataload\n      swap2\n      0x20\n      dup2\n      add\n      calldataload\n      swap2\n      0x40\n      dup3\n      add\n      calldataload\n      sub(shl(0xa0, 0x01), 0x01)\n      and\n      swap2\n      swap1\n      dup2\n      add\n      swap1\n      0x80\n      dup2\n      add\n      0x60\n      dup3\n      add\n      calldataload\n        /* \"--CODEGEN--\":21:32   */\n      0x0100000000\n        /* \"--CODEGEN--\":5:33   */\n      dup2\n      gt\n        /* \"--CODEGEN--\":2:4   */\n      iszero\n      tag_39\n      jumpi\n        /* \"--CODEGEN--\":46:47   */\n      0x00\n        /* \"--CODEGEN--\":43:44   */\n      dup1\n        /* \"--CODEGEN--\":36:48   */\n      revert\n        /* \"--CODEGEN--\":2:4   */\n    tag_39:\n        /* \"CoreContracts/kalyswap-core/KalyswapFactory_flattened.sol\":17987:19841  function swap(uint amount0Out, uint amount1Out, address to, bytes calldata data) external lock {... */\n      dup3\n      add\n        /* \"--CODEGEN--\":35:44   */\n      dup4\n        /* \"--CODEGEN--\":28:32   */\n      0x20\n        /* \"--CODEGEN--\":12:26   */\n      dup3\n        /* \"--CODEGEN--\":8:33   */\n      add\n        /* \"--CODEGEN--\":5:45   */\n      gt\n        /* \"--CODEGEN--\":2:4   */\n      iszero\n      tag_40\n      jumpi\n        /* \"--CODEGEN--\":58:59   */\n      0x00\n        /* \"--CODEGEN--\":55:56   */\n      dup1\n        /* \"--CODEGEN--\":48:60   */\n      revert\n        /* \"--CODEGEN--\":2:4   */\n    tag_40:\n        /* \"CoreContracts/kalyswap-core/KalyswapFactory_flattened.sol\":17987:19841  function swap(uint amount0Out, uint amount1Out, address to, bytes calldata data) external lock {... */\n      dup1\n      calldataload\n      swap1\n      0x20\n      add\n      swap2\n        /* \"--CODEGEN--\":100:109   */\n      dup5\n        /* \"--CODEGEN--\":95:96   */\n      0x01\n        /* \"--CODEGEN--\":81:93   */\n      dup4\n        /* \"--CODEGEN--\":77:97   */\n      mul\n        /* \"--CODEGEN--\":67:75   */\n      dup5\n        /* \"--CODEGEN--\":63:98   */\n      add\n        /* \"--CODEGEN--\":60:110   */\n      gt\n        /* \"--CODEGEN--\":39:50   */\n      0x0100000000\n        /* \"--CODEGEN--\":25:37   */\n      dup4\n        /* \"--CODEGEN--\":22:51   */\n      gt\n        /* \"--CODEGEN--\":11:118   */\n      or\n        /* \"--CODEGEN--\":8:10   */\n      iszero\n      tag_41\n      jumpi\n        /* \"--CODEGEN--\":131:132   */\n      0x00\n        /* \"--CODEGEN--\":128:129   */\n      dup1\n        /* \"--CODEGEN--\":121:133   */\n      revert\n        /* \"--CODEGEN--\":8:10   */\n    tag_41:\n      pop\n        /* \"CoreContracts/kalyswap-core/KalyswapFactory_flattened.sol\":17987:19841  function swap(uint amount0Out, uint amount1Out, address to, bytes calldata data) external lock {... */\n      swap1\n      swap3\n      pop\n      swap1\n      pop\n      tag_42\n      jump\t// in\n    tag_37:\n      stop\n        /* \"CoreContracts/kalyswap-core/KalyswapFactory_flattened.sol\":4387:4437  string public constant name = 'Kalyswap Liquidity' */\n    tag_4:\n      tag_43\n      tag_44\n      jump\t// in\n    tag_43:\n      0x40\n      dup1\n      mload\n      0x20\n      dup1\n      dup3\n      mstore\n      dup4\n      mload\n      dup2\n      dup4\n      add\n      mstore\n      dup4\n      mload\n      swap2\n      swap3\n      dup4\n      swap3\n      swap1\n      dup4\n      add\n      swap2\n      dup6\n      add\n      swap1\n      dup1\n      dup4\n      dup4\n      0x00\n        /* \"--CODEGEN--\":8:108   */\n    tag_45:\n        /* \"--CODEGEN--\":33:36   */\n      dup4\n        /* \"--CODEGEN--\":30:31   */\n      dup2\n        /* \"--CODEGEN--\":27:37   */\n      lt\n        /* \"--CODEGEN--\":8:108   */\n      iszero\n      tag_47\n      jumpi\n        /* \"--CODEGEN--\":90:101   */\n      dup2\n      dup2\n      add\n        /* \"--CODEGEN--\":84:102   */\n      mload\n        /* \"--CODEGEN--\":71:82   */\n      dup4\n      dup3\n      add\n        /* \"--CODEGEN--\":64:103   */\n      mstore\n        /* \"--CODEGEN--\":52:54   */\n      0x20\n        /* \"--CODEGEN--\":45:55   */\n      add\n        /* \"--CODEGEN--\":8:108   */\n      jump(tag_45)\n    tag_47:\n        /* \"--CODEGEN--\":12:26   */\n      pop\n        /* \"CoreContracts/kalyswap-core/KalyswapFactory_flattened.sol\":4387:4437  string public constant name = 'Kalyswap Liquidity' */\n      pop\n      pop\n      pop\n      swap1\n      pop\n      swap1\n      dup2\n      add\n      swap1\n      0x1f\n      and\n      dup1\n      iszero\n      tag_48\n      jumpi\n      dup1\n      dup3\n      sub\n      dup1\n      mload\n      0x01\n      dup4\n      0x20\n      sub\n      0x0100\n      exp\n      sub\n      not\n      and\n      dup2\n      mstore\n      0x20\n      add\n      swap2\n      pop\n    tag_48:\n      pop\n      swap3\n      pop\n      pop\n      pop\n      mload(0x40)\n      dup1\n      swap2\n      sub\n      swap1\n      return\n        /* \"CoreContracts/kalyswap-core/KalyswapFactory_flattened.sol\":11930:12157  function getReserves() public view returns (uint112 _reserve0, uint112 _reserve1, uint32 _blockTimestampLast) {... */\n    tag_5:\n      tag_49\n      tag_50\n      jump\t// in\n    tag_49:\n      0x40\n      dup1\n      mload\n      sub(shl(0x70, 0x01), 0x01)\n      swap5\n      dup6\n      and\n      dup2\n      mstore\n      swap3\n      swap1\n      swap4\n      and\n      0x20\n      dup4\n      add\n      mstore\n      0xffffffff\n      and\n      dup2\n      dup4\n      add\n      mstore\n      swap1\n      mload\n      swap1\n      dup2\n      swap1\n      sub\n      0x60\n      add\n      swap1\n      return\n        /* \"CoreContracts/kalyswap-core/KalyswapFactory_flattened.sol\":6385:6529  function approve(address spender, uint value) external returns (bool) {... */\n    tag_6:\n      tag_51\n      0x04\n      dup1\n      calldatasize\n      sub\n        /* \"--CODEGEN--\":13:15   */\n      0x40\n        /* \"--CODEGEN--\":8:11   */\n      dup2\n        /* \"--CODEGEN--\":5:16   */\n      lt\n        /* \"--CODEGEN--\":2:4   */\n      iszero\n      tag_52\n      jumpi\n        /* \"--CODEGEN--\":29:30   */\n      0x00\n        /* \"--CODEGEN--\":26:27   */\n      dup1\n        /* \"--CODEGEN--\":19:31   */\n      revert\n        /* \"--CODEGEN--\":2:4   */\n    tag_52:\n      pop\n        /* \"CoreContracts/kalyswap-core/KalyswapFactory_flattened.sol\":6385:6529  function approve(address spender, uint value) external returns (bool) {... */\n      dup1\n      calldataload\n      sub(shl(0xa0, 0x01), 0x01)\n      and\n      swap1\n      0x20\n      add\n      calldataload\n      tag_53\n      jump\t// in\n    tag_51:\n      0x40\n      dup1\n      mload\n      swap2\n      iszero\n      iszero\n      dup3\n      mstore\n      mload\n      swap1\n      dup2\n      swap1\n      sub\n      0x20\n      add\n      swap1\n      return\n        /* \"CoreContracts/kalyswap-core/KalyswapFactory_flattened.sol\":11239:11260  address public token0 */\n    tag_7:\n      tag_54\n      tag_55\n      jump\t// in\n    tag_54:\n      0x40\n      dup1\n      mload\n      0x01\n      dup1\n      0xa0\n      shl\n      sub\n      swap1\n      swap3\n      and\n      dup3\n      mstore\n      mload\n      swap1\n      dup2\n      swap1\n      sub\n      0x20\n      add\n      swap1\n      return\n        /* \"CoreContracts/kalyswap-core/KalyswapFactory_flattened.sol\":4527:4551  uint  public totalSupply */\n    tag_8:\n      tag_56\n      tag_57\n      jump\t// in\n    tag_56:\n      0x40\n      dup1\n      mload\n      swap2\n      dup3\n      mstore\n      mload\n      swap1\n      dup2\n      swap1\n      sub\n      0x20\n      add\n      swap1\n      return\n        /* \"CoreContracts/kalyswap-core/KalyswapFactory_flattened.sol\":6677:6972  function transferFrom(address from, address to, uint value) external returns (bool) {... */\n    tag_9:\n      tag_51\n      0x04\n      dup1\n      calldatasize\n      sub\n        /* \"--CODEGEN--\":13:15   */\n      0x60\n        /* \"--CODEGEN--\":8:11   */\n      dup2\n        /* \"--CODEGEN--\":5:16   */\n      lt\n        /* \"--CODEGEN--\":2:4   */\n      iszero\n      tag_59\n      jumpi\n        /* \"--CODEGEN--\":29:30   */\n      0x00\n        /* \"--CODEGEN--\":26:27   */\n      dup1\n        /* \"--CODEGEN--\":19:31   */\n      revert\n        /* \"--CODEGEN--\":2:4   */\n    tag_59:\n      pop\n      sub(shl(0xa0, 0x01), 0x01)\n        /* \"CoreContracts/kalyswap-core/KalyswapFactory_flattened.sol\":6677:6972  function transferFrom(address from, address to, uint value) external returns (bool) {... */\n      dup2\n      calldataload\n      dup2\n      and\n      swap2\n      0x20\n      dup2\n      add\n      calldataload\n      swap1\n      swap2\n      and\n      swap1\n      0x40\n      add\n      calldataload\n      tag_60\n      jump\t// in\n        /* \"CoreContracts/kalyswap-core/KalyswapFactory_flattened.sol\":4813:4921  bytes32 public constant PERMIT_TYPEHASH = 0x6e71edae12b1b97f4d1f60370fef10105fa2faae0126114a169c64845d6126c9 */\n    tag_10:\n      tag_56\n      tag_62\n      jump\t// in\n        /* \"CoreContracts/kalyswap-core/KalyswapFactory_flattened.sol\":4486:4521  uint8 public constant decimals = 18 */\n    tag_11:\n      tag_63\n      tag_64\n      jump\t// in\n    tag_63:\n      0x40\n      dup1\n      mload\n      0xff\n      swap1\n      swap3\n      and\n      dup3\n      mstore\n      mload\n      swap1\n      dup2\n      swap1\n      sub\n      0x20\n      add\n      swap1\n      return\n        /* \"CoreContracts/kalyswap-core/KalyswapFactory_flattened.sol\":4672:4703  bytes32 public DOMAIN_SEPARATOR */\n    tag_12:\n      tag_56\n      tag_66\n      jump\t// in\n        /* \"CoreContracts/kalyswap-core/KalyswapFactory_flattened.sol\":12961:13166  function initialize(address _token0, address _token1) external {... */\n    tag_13:\n      tag_37\n      0x04\n      dup1\n      calldatasize\n      sub\n        /* \"--CODEGEN--\":13:15   */\n      0x40\n        /* \"--CODEGEN--\":8:11   */\n      dup2\n        /* \"--CODEGEN--\":5:16   */\n      lt\n        /* \"--CODEGEN--\":2:4   */\n      iszero\n      tag_68\n      jumpi\n        /* \"--CODEGEN--\":29:30   */\n      0x00\n        /* \"--CODEGEN--\":26:27   */\n      dup1\n        /* \"--CODEGEN--\":19:31   */\n      revert\n        /* \"--CODEGEN--\":2:4   */\n    tag_68:\n      pop\n      sub(shl(0xa0, 0x01), 0x01)\n        /* \"CoreContracts/kalyswap-core/KalyswapFactory_flattened.sol\":12961:13166  function initialize(address _token0, address _token1) external {... */\n      dup2\n      calldataload\n      dup2\n      and\n      swap2\n      0x20\n      add\n      calldataload\n      and\n      tag_69\n      jump\t// in\n        /* \"CoreContracts/kalyswap-core/KalyswapFactory_flattened.sol\":11583:11615  uint public price0CumulativeLast */\n    tag_14:\n      tag_56\n      tag_71\n      jump\t// in\n        /* \"CoreContracts/kalyswap-core/KalyswapFactory_flattened.sol\":11621:11653  uint public price1CumulativeLast */\n    tag_15:\n      tag_56\n      tag_73\n      jump\t// in\n        /* \"CoreContracts/kalyswap-core/KalyswapFactory_flattened.sol\":15108:16326  function mint(address to) external lock returns (uint liquidity) {... */\n    tag_16:\n      tag_56\n      0x04\n      dup1\n      calldatasize\n      sub\n        /* \"--CODEGEN--\":13:15   */\n      0x20\n        /* \"--CODEGEN--\":8:11   */\n      dup2\n        /* \"--CODEGEN--\":5:16   */\n      lt\n        /* \"--CODEGEN--\":2:4   */\n      iszero\n      tag_75\n      jumpi\n        /* \"--CODEGEN--\":29:30   */\n      0x00\n        /* \"--CODEGEN--\":26:27   */\n      dup1\n        /* \"--CODEGEN--\":19:31   */\n      revert\n        /* \"--CODEGEN--\":2:4   */\n    tag_75:\n      pop\n        /* \"CoreContracts/kalyswap-core/KalyswapFactory_flattened.sol\":15108:16326  function mint(address to) external lock returns (uint liquidity) {... */\n      calldataload\n      sub(shl(0xa0, 0x01), 0x01)\n      and\n      tag_76\n      jump\t// in\n        /* \"CoreContracts/kalyswap-core/KalyswapFactory_flattened.sol\":4557:4598  mapping(address => uint) public balanceOf */\n    tag_17:\n      tag_56\n      0x04\n      dup1\n      calldatasize\n      sub\n        /* \"--CODEGEN--\":13:15   */\n      0x20\n        /* \"--CODEGEN--\":8:11   */\n      dup2\n        /* \"--CODEGEN--\":5:16   */\n      lt\n        /* \"--CODEGEN--\":2:4   */\n      iszero\n      tag_78\n      jumpi\n        /* \"--CODEGEN--\":29:30   */\n      0x00\n        /* \"--CODEGEN--\":26:27   */\n      dup1\n        /* \"--CODEGEN--\":19:31   */\n      revert\n        /* \"--CODEGEN--\":2:4   */\n    tag_78:\n      pop\n        /* \"CoreContracts/kalyswap-core/KalyswapFactory_flattened.sol\":4557:4598  mapping(address => uint) public balanceOf */\n      calldataload\n      sub(shl(0xa0, 0x01), 0x01)\n      and\n      tag_79\n      jump\t// in\n        /* \"CoreContracts/kalyswap-core/KalyswapFactory_flattened.sol\":11659:11676  uint public kLast */\n    tag_18:\n      tag_56\n      tag_81\n      jump\t// in\n        /* \"CoreContracts/kalyswap-core/KalyswapFactory_flattened.sol\":4927:4965  mapping(address => uint) public nonces */\n    tag_19:\n      tag_56\n      0x04\n      dup1\n      calldatasize\n      sub\n        /* \"--CODEGEN--\":13:15   */\n      0x20\n        /* \"--CODEGEN--\":8:11   */\n      dup2\n        /* \"--CODEGEN--\":5:16   */\n      lt\n        /* \"--CODEGEN--\":2:4   */\n      iszero\n      tag_83\n      jumpi\n        /* \"--CODEGEN--\":29:30   */\n      0x00\n        /* \"--CODEGEN--\":26:27   */\n      dup1\n        /* \"--CODEGEN--\":19:31   */\n      revert\n        /* \"--CODEGEN--\":2:4   */\n    tag_83:\n      pop\n        /* \"CoreContracts/kalyswap-core/KalyswapFactory_flattened.sol\":4927:4965  mapping(address => uint) public nonces */\n      calldataload\n      sub(shl(0xa0, 0x01), 0x01)\n      and\n      tag_84\n      jump\t// in\n        /* \"CoreContracts/kalyswap-core/KalyswapFactory_flattened.sol\":16435:17878  function burn(address to) external lock returns (uint amount0, uint amount1) {... */\n    tag_20:\n      tag_85\n      0x04\n      dup1\n      calldatasize\n      sub\n        /* \"--CODEGEN--\":13:15   */\n      0x20\n        /* \"--CODEGEN--\":8:11   */\n      dup2\n        /* \"--CODEGEN--\":5:16   */\n      lt\n        /* \"--CODEGEN--\":2:4   */\n      iszero\n      tag_86\n      jumpi\n        /* \"--CODEGEN--\":29:30   */\n      0x00\n        /* \"--CODEGEN--\":26:27   */\n      dup1\n        /* \"--CODEGEN--\":19:31   */\n      revert\n        /* \"--CODEGEN--\":2:4   */\n    tag_86:\n      pop\n        /* \"CoreContracts/kalyswap-core/KalyswapFactory_flattened.sol\":16435:17878  function burn(address to) external lock returns (uint amount0, uint amount1) {... */\n      calldataload\n      sub(shl(0xa0, 0x01), 0x01)\n      and\n      tag_87\n      jump\t// in\n    tag_85:\n      0x40\n      dup1\n      mload\n      swap3\n      dup4\n      mstore\n      0x20\n      dup4\n      add\n      swap2\n      swap1\n      swap2\n      mstore\n      dup1\n      mload\n      swap2\n      dup3\n      swap1\n      sub\n      add\n      swap1\n      return\n        /* \"CoreContracts/kalyswap-core/KalyswapFactory_flattened.sol\":4443:4480  string public constant symbol = 'KSL' */\n    tag_21:\n      tag_43\n      tag_89\n      jump\t// in\n        /* \"CoreContracts/kalyswap-core/KalyswapFactory_flattened.sol\":6535:6671  function transfer(address to, uint value) external returns (bool) {... */\n    tag_22:\n      tag_51\n      0x04\n      dup1\n      calldatasize\n      sub\n        /* \"--CODEGEN--\":13:15   */\n      0x40\n        /* \"--CODEGEN--\":8:11   */\n      dup2\n        /* \"--CODEGEN--\":5:16   */\n      lt\n        /* \"--CODEGEN--\":2:4   */\n      iszero\n      tag_95\n      jumpi\n        /* \"--CODEGEN--\":29:30   */\n      0x00\n        /* \"--CODEGEN--\":26:27   */\n      dup1\n        /* \"--CODEGEN--\":19:31   */\n      revert\n        /* \"--CODEGEN--\":2:4   */\n    tag_95:\n      pop\n        /* \"CoreContracts/kalyswap-core/KalyswapFactory_flattened.sol\":6535:6671  function transfer(address to, uint value) external returns (bool) {... */\n      dup1\n      calldataload\n      sub(shl(0xa0, 0x01), 0x01)\n      and\n      swap1\n      0x20\n      add\n      calldataload\n      tag_96\n      jump\t// in\n        /* \"CoreContracts/kalyswap-core/KalyswapFactory_flattened.sol\":11064:11110  uint public constant MINIMUM_LIQUIDITY = 10**3 */\n    tag_23:\n      tag_56\n      tag_98\n      jump\t// in\n        /* \"CoreContracts/kalyswap-core/KalyswapFactory_flattened.sol\":19887:20216  function skim(address to) external lock {... */\n    tag_24:\n      tag_37\n      0x04\n      dup1\n      calldatasize\n      sub\n        /* \"--CODEGEN--\":13:15   */\n      0x20\n        /* \"--CODEGEN--\":8:11   */\n      dup2\n        /* \"--CODEGEN--\":5:16   */\n      lt\n        /* \"--CODEGEN--\":2:4   */\n      iszero\n      tag_100\n      jumpi\n        /* \"--CODEGEN--\":29:30   */\n      0x00\n        /* \"--CODEGEN--\":26:27   */\n      dup1\n        /* \"--CODEGEN--\":19:31   */\n      revert\n        /* \"--CODEGEN--\":2:4   */\n    tag_100:\n      pop\n        /* \"CoreContracts/kalyswap-core/KalyswapFactory_flattened.sol\":19887:20216  function skim(address to) external lock {... */\n      calldataload\n      sub(shl(0xa0, 0x01), 0x01)\n      and\n      tag_101\n      jump\t// in\n        /* \"CoreContracts/kalyswap-core/KalyswapFactory_flattened.sol\":11211:11233  address public factory */\n    tag_25:\n      tag_54\n      tag_103\n      jump\t// in\n        /* \"CoreContracts/kalyswap-core/KalyswapFactory_flattened.sol\":11266:11287  address public token1 */\n    tag_26:\n      tag_54\n      tag_105\n      jump\t// in\n        /* \"CoreContracts/kalyswap-core/KalyswapFactory_flattened.sol\":6978:7638  function permit(address owner, address spender, uint value, uint deadline, uint8 v, bytes32 r, bytes32 s) external {... */\n    tag_27:\n      tag_37\n      0x04\n      dup1\n      calldatasize\n      sub\n        /* \"--CODEGEN--\":13:16   */\n      0xe0\n        /* \"--CODEGEN--\":8:11   */\n      dup2\n        /* \"--CODEGEN--\":5:17   */\n      lt\n        /* \"--CODEGEN--\":2:4   */\n      iszero\n      tag_107\n      jumpi\n        /* \"--CODEGEN--\":30:31   */\n      0x00\n        /* \"--CODEGEN--\":27:28   */\n      dup1\n        /* \"--CODEGEN--\":20:32   */\n      revert\n        /* \"--CODEGEN--\":2:4   */\n    tag_107:\n      pop\n      sub(shl(0xa0, 0x01), 0x01)\n        /* \"CoreContracts/kalyswap-core/KalyswapFactory_flattened.sol\":6978:7638  function permit(address owner, address spender, uint value, uint deadline, uint8 v, bytes32 r, bytes32 s) external {... */\n      dup2\n      calldataload\n      dup2\n      and\n      swap2\n      0x20\n      dup2\n      add\n      calldataload\n      swap1\n      swap2\n      and\n      swap1\n      0x40\n      dup2\n      add\n      calldataload\n      swap1\n      0x60\n      dup2\n      add\n      calldataload\n      swap1\n      0xff\n      0x80\n      dup3\n      add\n      calldataload\n      and\n      swap1\n      0xa0\n      dup2\n      add\n      calldataload\n      swap1\n      0xc0\n      add\n      calldataload\n      tag_108\n      jump\t// in\n        /* \"CoreContracts/kalyswap-core/KalyswapFactory_flattened.sol\":4604:4665  mapping(address => mapping(address => uint)) public allowance */\n    tag_28:\n      tag_56\n      0x04\n      dup1\n      calldatasize\n      sub\n        /* \"--CODEGEN--\":13:15   */\n      0x40\n        /* \"--CODEGEN--\":8:11   */\n      dup2\n        /* \"--CODEGEN--\":5:16   */\n      lt\n        /* \"--CODEGEN--\":2:4   */\n      iszero\n      tag_110\n      jumpi\n        /* \"--CODEGEN--\":29:30   */\n      0x00\n        /* \"--CODEGEN--\":26:27   */\n      dup1\n        /* \"--CODEGEN--\":19:31   */\n      revert\n        /* \"--CODEGEN--\":2:4   */\n    tag_110:\n      pop\n      sub(shl(0xa0, 0x01), 0x01)\n        /* \"CoreContracts/kalyswap-core/KalyswapFactory_flattened.sol\":4604:4665  mapping(address => mapping(address => uint)) public allowance */\n      dup2\n      calldataload\n      dup2\n      and\n      swap2\n      0x20\n      add\n      calldataload\n      and\n      tag_111\n      jump\t// in\n        /* \"CoreContracts/kalyswap-core/KalyswapFactory_flattened.sol\":20262:20418  function sync() external lock {... */\n    tag_29:\n      tag_37\n      tag_113\n      jump\t// in\n        /* \"CoreContracts/kalyswap-core/KalyswapFactory_flattened.sol\":17987:19841  function swap(uint amount0Out, uint amount1Out, address to, bytes calldata data) external lock {... */\n    tag_42:\n        /* \"CoreContracts/kalyswap-core/KalyswapFactory_flattened.sol\":11828:11836  unlocked */\n      sload(0x0c)\n        /* \"CoreContracts/kalyswap-core/KalyswapFactory_flattened.sol\":11840:11841  1 */\n      0x01\n        /* \"CoreContracts/kalyswap-core/KalyswapFactory_flattened.sol\":11828:11841  unlocked == 1 */\n      eq\n        /* \"CoreContracts/kalyswap-core/KalyswapFactory_flattened.sol\":11820:11862  require(unlocked == 1, 'Kalyswap: LOCKED') */\n      tag_115\n      jumpi\n      0x40\n      dup1\n      mload\n      shl(0xe5, 0x461bcd)\n      dup2\n      mstore\n      0x20\n      0x04\n      dup3\n      add\n      mstore\n      0x10\n      0x24\n      dup3\n      add\n      mstore\n      shl(0x82, 0x12d85b1e5cddd85c0e881313d0d2d151)\n      0x44\n      dup3\n      add\n      mstore\n      swap1\n      mload\n      swap1\n      dup2\n      swap1\n      sub\n      0x64\n      add\n      swap1\n      revert\n    tag_115:\n        /* \"CoreContracts/kalyswap-core/KalyswapFactory_flattened.sol\":11883:11884  0 */\n      0x00\n        /* \"CoreContracts/kalyswap-core/KalyswapFactory_flattened.sol\":11872:11880  unlocked */\n      0x0c\n        /* \"CoreContracts/kalyswap-core/KalyswapFactory_flattened.sol\":11872:11884  unlocked = 0 */\n      sstore\n        /* \"CoreContracts/kalyswap-core/KalyswapFactory_flattened.sol\":18100:18114  amount0Out > 0 */\n      dup5\n      iszero\n      iszero\n      dup1\n        /* \"CoreContracts/kalyswap-core/KalyswapFactory_flattened.sol\":18100:18132  amount0Out > 0 || amount1Out > 0 */\n      tag_117\n      jumpi\n      pop\n        /* \"CoreContracts/kalyswap-core/KalyswapFactory_flattened.sol\":18131:18132  0 */\n      0x00\n        /* \"CoreContracts/kalyswap-core/KalyswapFactory_flattened.sol\":18118:18128  amount1Out */\n      dup5\n        /* \"CoreContracts/kalyswap-core/KalyswapFactory_flattened.sol\":18118:18132  amount1Out > 0 */\n      gt\n        /* \"CoreContracts/kalyswap-core/KalyswapFactory_flattened.sol\":18100:18132  amount0Out > 0 || amount1Out > 0 */\n    tag_117:\n        /* \"CoreContracts/kalyswap-core/KalyswapFactory_flattened.sol\":18092:18173  require(amount0Out > 0 || amount1Out > 0, 'Kalyswap: INSUFFICIENT_OUTPUT_AMOUNT') */\n      tag_118\n      jumpi\n      mload(0x40)\n      shl(0xe5, 0x461bcd)\n      dup2\n      mstore\n      0x04\n      add\n      dup1\n      dup1\n      0x20\n      add\n      dup3\n      dup2\n      sub\n      dup3\n      mstore\n      0x24\n      dup2\n      mstore\n      0x20\n      add\n      dup1\n      data_155e26636215cc7cf33a9201a8bb56ae2e8d879dd67a1dca3f8fe1fa2c30aebf\n      0x24\n      swap2\n      codecopy\n      0x40\n      add\n      swap2\n      pop\n      pop\n      mload(0x40)\n      dup1\n      swap2\n      sub\n      swap1\n      revert\n    tag_118:\n        /* \"CoreContracts/kalyswap-core/KalyswapFactory_flattened.sol\":18184:18201  uint112 _reserve0 */\n      0x00\n        /* \"CoreContracts/kalyswap-core/KalyswapFactory_flattened.sol\":18203:18220  uint112 _reserve1 */\n      dup1\n        /* \"CoreContracts/kalyswap-core/KalyswapFactory_flattened.sol\":18225:18238  getReserves() */\n      tag_119\n        /* \"CoreContracts/kalyswap-core/KalyswapFactory_flattened.sol\":18225:18236  getReserves */\n      tag_50\n        /* \"CoreContracts/kalyswap-core/KalyswapFactory_flattened.sol\":18225:18238  getReserves() */\n      jump\t// in\n    tag_119:\n      pop\n        /* \"CoreContracts/kalyswap-core/KalyswapFactory_flattened.sol\":18183:18238  (uint112 _reserve0, uint112 _reserve1,) = getReserves() */\n      swap1\n      swap3\n      pop\n      swap1\n      pop\n      sub(shl(0x70, 0x01), 0x01)\n        /* \"CoreContracts/kalyswap-core/KalyswapFactory_flattened.sol\":18271:18293  amount0Out < _reserve0 */\n      dup3\n      and\n      dup8\n      lt\n        /* \"CoreContracts/kalyswap-core/KalyswapFactory_flattened.sol\":18271:18319  amount0Out < _reserve0 && amount1Out < _reserve1 */\n      dup1\n      iszero\n      tag_120\n      jumpi\n      pop\n      sub(shl(0x70, 0x01), 0x01)\n        /* \"CoreContracts/kalyswap-core/KalyswapFactory_flattened.sol\":18297:18319  amount1Out < _reserve1 */\n      dup2\n      and\n      dup7\n      lt\n        /* \"CoreContracts/kalyswap-core/KalyswapFactory_flattened.sol\":18271:18319  amount0Out < _reserve0 && amount1Out < _reserve1 */\n    tag_120:\n        /* \"CoreContracts/kalyswap-core/KalyswapFactory_flattened.sol\":18263:18356  require(amount0Out < _reserve0 && amount1Out < _reserve1, 'Kalyswap: INSUFFICIENT_LIQUIDITY') */\n      tag_121\n      jumpi\n      0x40\n      dup1\n      mload\n      shl(0xe5, 0x461bcd)\n      dup2\n      mstore\n      0x20\n      0x04\n      dup3\n      add\n      dup2\n      swap1\n      mstore\n      0x24\n      dup3\n      add\n      mstore\n      0x4b616c79737761703a20494e53554646494349454e545f4c4951554944495459\n      0x44\n      dup3\n      add\n      mstore\n      swap1\n      mload\n      swap1\n      dup2\n      swap1\n      sub\n      0x64\n      add\n      swap1\n      revert\n    tag_121:\n        /* \"CoreContracts/kalyswap-core/KalyswapFactory_flattened.sol\":18496:18502  token0 */\n      sload(0x06)\n        /* \"CoreContracts/kalyswap-core/KalyswapFactory_flattened.sol\":18530:18536  token1 */\n      sload(0x07)\n        /* \"CoreContracts/kalyswap-core/KalyswapFactory_flattened.sol\":18367:18380  uint balance0 */\n      0x00\n      swap2\n      dup3\n      swap2\n      sub(shl(0xa0, 0x01), 0x01)\n        /* \"CoreContracts/kalyswap-core/KalyswapFactory_flattened.sol\":18496:18502  token0 */\n      swap2\n      dup3\n      and\n      swap2\n        /* \"CoreContracts/kalyswap-core/KalyswapFactory_flattened.sol\":18530:18536  token1 */\n      swap1\n      dup2\n      and\n      swap1\n        /* \"CoreContracts/kalyswap-core/KalyswapFactory_flattened.sol\":18554:18567  to != _token0 */\n      dup10\n      and\n      dup3\n      eq\n      dup1\n      iszero\n      swap1\n        /* \"CoreContracts/kalyswap-core/KalyswapFactory_flattened.sol\":18554:18584  to != _token0 && to != _token1 */\n      tag_122\n      jumpi\n      pop\n      sub(shl(0xa0, 0x01), 0x01)\n        /* \"CoreContracts/kalyswap-core/KalyswapFactory_flattened.sol\":18571:18584  to != _token1 */\n      dup10\n      dup2\n      and\n      swap1\n      dup3\n      and\n      eq\n      iszero\n        /* \"CoreContracts/kalyswap-core/KalyswapFactory_flattened.sol\":18554:18584  to != _token0 && to != _token1 */\n    tag_122:\n        /* \"CoreContracts/kalyswap-core/KalyswapFactory_flattened.sol\":18546:18609  require(to != _token0 && to != _token1, 'Kalyswap: INVALID_TO') */\n      tag_123\n      jumpi\n      0x40\n      dup1\n      mload\n      shl(0xe5, 0x461bcd)\n      dup2\n      mstore\n      0x20\n      0x04\n      dup3\n      add\n      mstore\n      0x14\n      0x24\n      dup3\n      add\n      mstore\n      0x4b616c79737761703a20494e56414c49445f544f000000000000000000000000\n      0x44\n      dup3\n      add\n      mstore\n      swap1\n      mload\n      swap1\n      dup2\n      swap1\n      sub\n      0x64\n      add\n      swap1\n      revert\n    tag_123:\n        /* \"CoreContracts/kalyswap-core/KalyswapFactory_flattened.sol\":18623:18637  amount0Out > 0 */\n      dup11\n      iszero\n        /* \"CoreContracts/kalyswap-core/KalyswapFactory_flattened.sol\":18619:18677  if (amount0Out > 0) _safeTransfer(_token0, to, amount0Out) */\n      tag_125\n      jumpi\n        /* \"CoreContracts/kalyswap-core/KalyswapFactory_flattened.sol\":18639:18677  _safeTransfer(_token0, to, amount0Out) */\n      tag_125\n        /* \"CoreContracts/kalyswap-core/KalyswapFactory_flattened.sol\":18653:18660  _token0 */\n      dup3\n        /* \"CoreContracts/kalyswap-core/KalyswapFactory_flattened.sol\":18662:18664  to */\n      dup11\n        /* \"CoreContracts/kalyswap-core/KalyswapFactory_flattened.sol\":18666:18676  amount0Out */\n      dup14\n        /* \"CoreContracts/kalyswap-core/KalyswapFactory_flattened.sol\":18639:18652  _safeTransfer */\n      tag_126\n        /* \"CoreContracts/kalyswap-core/KalyswapFactory_flattened.sol\":18639:18677  _safeTransfer(_token0, to, amount0Out) */\n      jump\t// in\n    tag_125:\n        /* \"CoreContracts/kalyswap-core/KalyswapFactory_flattened.sol\":18725:18739  amount1Out > 0 */\n      dup10\n      iszero\n        /* \"CoreContracts/kalyswap-core/KalyswapFactory_flattened.sol\":18721:18779  if (amount1Out > 0) _safeTransfer(_token1, to, amount1Out) */\n      tag_128\n      jumpi\n        /* \"CoreContracts/kalyswap-core/KalyswapFactory_flattened.sol\":18741:18779  _safeTransfer(_token1, to, amount1Out) */\n      tag_128\n        /* \"CoreContracts/kalyswap-core/KalyswapFactory_flattened.sol\":18755:18762  _token1 */\n      dup2\n        /* \"CoreContracts/kalyswap-core/KalyswapFactory_flattened.sol\":18764:18766  to */\n      dup11\n        /* \"CoreContracts/kalyswap-core/KalyswapFactory_flattened.sol\":18768:18778  amount1Out */\n      dup13\n        /* \"CoreContracts/kalyswap-core/KalyswapFactory_flattened.sol\":18741:18754  _safeTransfer */\n      tag_126\n        /* \"CoreContracts/kalyswap-core/KalyswapFactory_flattened.sol\":18741:18779  _safeTransfer(_token1, to, amount1Out) */\n      jump\t// in\n    tag_128:\n        /* \"CoreContracts/kalyswap-core/KalyswapFactory_flattened.sol\":18827:18842  data.length > 0 */\n      dup7\n      iszero\n        /* \"CoreContracts/kalyswap-core/KalyswapFactory_flattened.sol\":18823:18918  if (data.length > 0) IKalyswapCallee(to).kalyswapCall(msg.sender, amount0Out, amount1Out, data) */\n      tag_129\n      jumpi\n        /* \"CoreContracts/kalyswap-core/KalyswapFactory_flattened.sol\":18860:18862  to */\n      dup9\n      0x01\n      dup1\n      0xa0\n      shl\n      sub\n        /* \"CoreContracts/kalyswap-core/KalyswapFactory_flattened.sol\":18844:18876  IKalyswapCallee(to).kalyswapCall */\n      and\n      0x3594162a\n        /* \"CoreContracts/kalyswap-core/KalyswapFactory_flattened.sol\":18877:18887  msg.sender */\n      caller\n        /* \"CoreContracts/kalyswap-core/KalyswapFactory_flattened.sol\":18889:18899  amount0Out */\n      dup14\n        /* \"CoreContracts/kalyswap-core/KalyswapFactory_flattened.sol\":18901:18911  amount1Out */\n      dup14\n        /* \"CoreContracts/kalyswap-core/KalyswapFactory_flattened.sol\":18913:18917  data */\n      dup13\n      dup13\n        /* \"CoreContracts/kalyswap-core/KalyswapFactory_flattened.sol\":18844:18918  IKalyswapCallee(to).kalyswapCall(msg.sender, amount0Out, amount1Out, data) */\n      mload(0x40)\n      dup7\n      0xffffffff\n      and\n      0xe0\n      shl\n      dup2\n      mstore\n      0x04\n      add\n      dup1\n      dup7\n      0x01\n      dup1\n      0xa0\n      shl\n      sub\n      and\n      0x01\n      dup1\n      0xa0\n      shl\n      sub\n      and\n      dup2\n      mstore\n      0x20\n      add\n      dup6\n      dup2\n      mstore\n      0x20\n      add\n      dup5\n      dup2\n      mstore\n      0x20\n      add\n      dup1\n      0x20\n      add\n      dup3\n      dup2\n      sub\n      dup3\n      mstore\n      dup5\n      dup5\n      dup3\n      dup2\n      dup2\n      mstore\n      0x20\n      add\n      swap3\n      pop\n        /* \"--CODEGEN--\":30:33   */\n      dup1\n        /* \"--CODEGEN--\":22:28   */\n      dup3\n        /* \"--CODEGEN--\":14:20   */\n      dup5\n        /* \"--CODEGEN--\":1:34   */\n      calldatacopy\n        /* \"--CODEGEN--\":99:100   */\n      0x00\n        /* \"--CODEGEN--\":93:96   */\n      dup2\n        /* \"--CODEGEN--\":85:91   */\n      dup5\n        /* \"--CODEGEN--\":81:97   */\n      add\n        /* \"--CODEGEN--\":74:101   */\n      mstore\n        /* \"--CODEGEN--\":137:141   */\n      0x1f\n        /* \"--CODEGEN--\":133:142   */\n      not\n        /* \"--CODEGEN--\":126:130   */\n      0x1f\n        /* \"--CODEGEN--\":121:124   */\n      dup3\n        /* \"--CODEGEN--\":117:131   */\n      add\n        /* \"--CODEGEN--\":113:143   */\n      and\n        /* \"--CODEGEN--\":106:143   */\n      swap1\n      pop\n        /* \"--CODEGEN--\":169:172   */\n      dup1\n        /* \"--CODEGEN--\":161:167   */\n      dup4\n        /* \"--CODEGEN--\":157:173   */\n      add\n        /* \"--CODEGEN--\":147:173   */\n      swap3\n      pop\n        /* \"CoreContracts/kalyswap-core/KalyswapFactory_flattened.sol\":18844:18918  IKalyswapCallee(to).kalyswapCall(msg.sender, amount0Out, amount1Out, data) */\n      pop\n      pop\n      swap7\n      pop\n      pop\n      pop\n      pop\n      pop\n      pop\n      pop\n      0x00\n      mload(0x40)\n      dup1\n      dup4\n      sub\n      dup2\n      0x00\n      dup8\n      dup1\n      extcodesize\n      iszero\n        /* \"--CODEGEN--\":8:17   */\n      dup1\n        /* \"--CODEGEN--\":5:7   */\n      iszero\n      tag_130\n      jumpi\n        /* \"--CODEGEN--\":30:31   */\n      0x00\n        /* \"--CODEGEN--\":27:28   */\n      dup1\n        /* \"--CODEGEN--\":20:32   */\n      revert\n        /* \"--CODEGEN--\":5:7   */\n    tag_130:\n        /* \"CoreContracts/kalyswap-core/KalyswapFactory_flattened.sol\":18844:18918  IKalyswapCallee(to).kalyswapCall(msg.sender, amount0Out, amount1Out, data) */\n      pop\n      gas\n      call\n      iszero\n        /* \"--CODEGEN--\":8:17   */\n      dup1\n        /* \"--CODEGEN--\":5:7   */\n      iszero\n      tag_131\n      jumpi\n        /* \"--CODEGEN--\":45:61   */\n      returndatasize\n        /* \"--CODEGEN--\":42:43   */\n      0x00\n        /* \"--CODEGEN--\":39:40   */\n      dup1\n        /* \"--CODEGEN--\":24:62   */\n      returndatacopy\n        /* \"--CODEGEN--\":77:93   */\n      returndatasize\n        /* \"--CODEGEN--\":74:75   */\n      0x00\n        /* \"--CODEGEN--\":67:94   */\n      revert\n        /* \"--CODEGEN--\":5:7   */\n    tag_131:\n        /* \"CoreContracts/kalyswap-core/KalyswapFactory_flattened.sol\":18844:18918  IKalyswapCallee(to).kalyswapCall(msg.sender, amount0Out, amount1Out, data) */\n      pop\n      pop\n      pop\n      pop\n        /* \"CoreContracts/kalyswap-core/KalyswapFactory_flattened.sol\":18823:18918  if (data.length > 0) IKalyswapCallee(to).kalyswapCall(msg.sender, amount0Out, amount1Out, data) */\n    tag_129:\n        /* \"CoreContracts/kalyswap-core/KalyswapFactory_flattened.sol\":18939:18979  IERC20(_token0).balanceOf(address(this)) */\n      0x40\n      dup1\n      mload\n      shl(0xe0, 0x70a08231)\n      dup2\n      mstore\n        /* \"CoreContracts/kalyswap-core/KalyswapFactory_flattened.sol\":18973:18977  this */\n      address\n        /* \"CoreContracts/kalyswap-core/KalyswapFactory_flattened.sol\":18939:18979  IERC20(_token0).balanceOf(address(this)) */\n      0x04\n      dup3\n      add\n      mstore\n      swap1\n      mload\n      sub(shl(0xa0, 0x01), 0x01)\n        /* \"CoreContracts/kalyswap-core/KalyswapFactory_flattened.sol\":18939:18964  IERC20(_token0).balanceOf */\n      dup5\n      and\n      swap2\n      0x70a08231\n      swap2\n        /* \"CoreContracts/kalyswap-core/KalyswapFactory_flattened.sol\":18939:18979  IERC20(_token0).balanceOf(address(this)) */\n      0x24\n      dup1\n      dup4\n      add\n      swap3\n      0x20\n      swap3\n      swap2\n      swap1\n      dup3\n      swap1\n      sub\n      add\n      dup2\n        /* \"CoreContracts/kalyswap-core/KalyswapFactory_flattened.sol\":18939:18964  IERC20(_token0).balanceOf */\n      dup7\n        /* \"CoreContracts/kalyswap-core/KalyswapFactory_flattened.sol\":18939:18979  IERC20(_token0).balanceOf(address(this)) */\n      dup1\n      extcodesize\n      iszero\n        /* \"--CODEGEN--\":5:7   */\n      dup1\n      iszero\n      tag_132\n      jumpi\n        /* \"--CODEGEN--\":30:31   */\n      0x00\n        /* \"--CODEGEN--\":27:28   */\n      dup1\n        /* \"--CODEGEN--\":20:32   */\n      revert\n        /* \"--CODEGEN--\":5:7   */\n    tag_132:\n        /* \"CoreContracts/kalyswap-core/KalyswapFactory_flattened.sol\":18939:18979  IERC20(_token0).balanceOf(address(this)) */\n      pop\n      gas\n      staticcall\n      iszero\n        /* \"--CODEGEN--\":8:17   */\n      dup1\n        /* \"--CODEGEN--\":5:7   */\n      iszero\n      tag_133\n      jumpi\n        /* \"--CODEGEN--\":45:61   */\n      returndatasize\n        /* \"--CODEGEN--\":42:43   */\n      0x00\n        /* \"--CODEGEN--\":39:40   */\n      dup1\n        /* \"--CODEGEN--\":24:62   */\n      returndatacopy\n        /* \"--CODEGEN--\":77:93   */\n      returndatasize\n        /* \"--CODEGEN--\":74:75   */\n      0x00\n        /* \"--CODEGEN--\":67:94   */\n      revert\n        /* \"--CODEGEN--\":5:7   */\n    tag_133:\n        /* \"CoreContracts/kalyswap-core/KalyswapFactory_flattened.sol\":18939:18979  IERC20(_token0).balanceOf(address(this)) */\n      pop\n      pop\n      pop\n      pop\n      mload(0x40)\n      returndatasize\n        /* \"--CODEGEN--\":13:15   */\n      0x20\n        /* \"--CODEGEN--\":8:11   */\n      dup2\n        /* \"--CODEGEN--\":5:16   */\n      lt\n        /* \"--CODEGEN--\":2:4   */\n      iszero\n      tag_134\n      jumpi\n        /* \"--CODEGEN--\":29:30   */\n      0x00\n        /* \"--CODEGEN--\":26:27   */\n      dup1\n        /* \"--CODEGEN--\":19:31   */\n      revert\n        /* \"--CODEGEN--\":2:4   */\n    tag_134:\n      pop\n        /* \"CoreContracts/kalyswap-core/KalyswapFactory_flattened.sol\":18939:18979  IERC20(_token0).balanceOf(address(this)) */\n      mload\n        /* \"CoreContracts/kalyswap-core/KalyswapFactory_flattened.sol\":19000:19040  IERC20(_token1).balanceOf(address(this)) */\n      0x40\n      dup1\n      mload\n      shl(0xe0, 0x70a08231)\n      dup2\n      mstore\n        /* \"CoreContracts/kalyswap-core/KalyswapFactory_flattened.sol\":19034:19038  this */\n      address\n        /* \"CoreContracts/kalyswap-core/KalyswapFactory_flattened.sol\":19000:19040  IERC20(_token1).balanceOf(address(this)) */\n      0x04\n      dup3\n      add\n      mstore\n      swap1\n      mload\n        /* \"CoreContracts/kalyswap-core/KalyswapFactory_flattened.sol\":18939:18979  IERC20(_token0).balanceOf(address(this)) */\n      swap2\n      swap6\n      pop\n      sub(shl(0xa0, 0x01), 0x01)\n        /* \"CoreContracts/kalyswap-core/KalyswapFactory_flattened.sol\":19000:19025  IERC20(_token1).balanceOf */\n      dup4\n      and\n      swap2\n      0x70a08231\n      swap2\n        /* \"CoreContracts/kalyswap-core/KalyswapFactory_flattened.sol\":19000:19040  IERC20(_token1).balanceOf(address(this)) */\n      0x24\n      dup1\n      dup3\n      add\n      swap3\n        /* \"CoreContracts/kalyswap-core/KalyswapFactory_flattened.sol\":18939:18979  IERC20(_token0).balanceOf(address(this)) */\n      0x20\n      swap3\n        /* \"CoreContracts/kalyswap-core/KalyswapFactory_flattened.sol\":19000:19040  IERC20(_token1).balanceOf(address(this)) */\n      swap1\n      swap2\n      swap1\n      dup3\n      swap1\n      sub\n      add\n      dup2\n        /* \"CoreContracts/kalyswap-core/KalyswapFactory_flattened.sol\":19000:19025  IERC20(_token1).balanceOf */\n      dup7\n        /* \"CoreContracts/kalyswap-core/KalyswapFactory_flattened.sol\":19000:19040  IERC20(_token1).balanceOf(address(this)) */\n      dup1\n      extcodesize\n      iszero\n        /* \"--CODEGEN--\":5:7   */\n      dup1\n      iszero\n      tag_135\n      jumpi\n        /* \"--CODEGEN--\":30:31   */\n      0x00\n        /* \"--CODEGEN--\":27:28   */\n      dup1\n        /* \"--CODEGEN--\":20:32   */\n      revert\n        /* \"--CODEGEN--\":5:7   */\n    tag_135:\n        /* \"CoreContracts/kalyswap-core/KalyswapFactory_flattened.sol\":19000:19040  IERC20(_token1).balanceOf(address(this)) */\n      pop\n      gas\n      staticcall\n      iszero\n        /* \"--CODEGEN--\":8:17   */\n      dup1\n        /* \"--CODEGEN--\":5:7   */\n      iszero\n      tag_136\n      jumpi\n        /* \"--CODEGEN--\":45:61   */\n      returndatasize\n        /* \"--CODEGEN--\":42:43   */\n      0x00\n        /* \"--CODEGEN--\":39:40   */\n      dup1\n        /* \"--CODEGEN--\":24:62   */\n      returndatacopy\n        /* \"--CODEGEN--\":77:93   */\n      returndatasize\n        /* \"--CODEGEN--\":74:75   */\n      0x00\n        /* \"--CODEGEN--\":67:94   */\n      revert\n        /* \"--CODEGEN--\":5:7   */\n    tag_136:\n        /* \"CoreContracts/kalyswap-core/KalyswapFactory_flattened.sol\":19000:19040  IERC20(_token1).balanceOf(address(this)) */\n      pop\n      pop\n      pop\n      pop\n      mload(0x40)\n      returndatasize\n        /* \"--CODEGEN--\":13:15   */\n      0x20\n        /* \"--CODEGEN--\":8:11   */\n      dup2\n        /* \"--CODEGEN--\":5:16   */\n      lt\n        /* \"--CODEGEN--\":2:4   */\n      iszero\n      tag_137\n      jumpi\n        /* \"--CODEGEN--\":29:30   */\n      0x00\n        /* \"--CODEGEN--\":26:27   */\n      dup1\n        /* \"--CODEGEN--\":19:31   */\n      revert\n        /* \"--CODEGEN--\":2:4   */\n    tag_137:\n      pop\n        /* \"CoreContracts/kalyswap-core/KalyswapFactory_flattened.sol\":19000:19040  IERC20(_token1).balanceOf(address(this)) */\n      mload\n      swap3\n      pop\n        /* \"CoreContracts/kalyswap-core/KalyswapFactory_flattened.sol\":19060:19074  uint amount0In */\n      0x00\n      swap2\n      pop\n      pop\n      sub(shl(0x70, 0x01), 0x01)\n        /* \"CoreContracts/kalyswap-core/KalyswapFactory_flattened.sol\":19088:19110  _reserve0 - amount0Out */\n      dup6\n      and\n      dup11\n      swap1\n      sub\n        /* \"CoreContracts/kalyswap-core/KalyswapFactory_flattened.sol\":19077:19110  balance0 > _reserve0 - amount0Out */\n      dup4\n      gt\n        /* \"CoreContracts/kalyswap-core/KalyswapFactory_flattened.sol\":19077:19152  balance0 > _reserve0 - amount0Out ? balance0 - (_reserve0 - amount0Out) : 0 */\n      tag_138\n      jumpi\n        /* \"CoreContracts/kalyswap-core/KalyswapFactory_flattened.sol\":19151:19152  0 */\n      0x00\n        /* \"CoreContracts/kalyswap-core/KalyswapFactory_flattened.sol\":19077:19152  balance0 > _reserve0 - amount0Out ? balance0 - (_reserve0 - amount0Out) : 0 */\n      jump(tag_139)\n    tag_138:\n      sub(shl(0x70, 0x01), 0x01)\n        /* \"CoreContracts/kalyswap-core/KalyswapFactory_flattened.sol\":19125:19147  _reserve0 - amount0Out */\n      dup6\n      and\n      dup11\n      swap1\n      sub\n        /* \"CoreContracts/kalyswap-core/KalyswapFactory_flattened.sol\":19113:19148  balance0 - (_reserve0 - amount0Out) */\n      dup4\n      sub\n        /* \"CoreContracts/kalyswap-core/KalyswapFactory_flattened.sol\":19077:19152  balance0 > _reserve0 - amount0Out ? balance0 - (_reserve0 - amount0Out) : 0 */\n    tag_139:\n        /* \"CoreContracts/kalyswap-core/KalyswapFactory_flattened.sol\":19060:19152  uint amount0In = balance0 > _reserve0 - amount0Out ? balance0 - (_reserve0 - amount0Out) : 0 */\n      swap1\n      pop\n        /* \"CoreContracts/kalyswap-core/KalyswapFactory_flattened.sol\":19162:19176  uint amount1In */\n      0x00\n      sub(shl(0x70, 0x01), 0x01)\n        /* \"CoreContracts/kalyswap-core/KalyswapFactory_flattened.sol\":19190:19212  _reserve1 - amount1Out */\n      dup6\n      and\n      dup11\n      swap1\n      sub\n        /* \"CoreContracts/kalyswap-core/KalyswapFactory_flattened.sol\":19179:19212  balance1 > _reserve1 - amount1Out */\n      dup4\n      gt\n        /* \"CoreContracts/kalyswap-core/KalyswapFactory_flattened.sol\":19179:19254  balance1 > _reserve1 - amount1Out ? balance1 - (_reserve1 - amount1Out) : 0 */\n      tag_140\n      jumpi\n        /* \"CoreContracts/kalyswap-core/KalyswapFactory_flattened.sol\":19253:19254  0 */\n      0x00\n        /* \"CoreContracts/kalyswap-core/KalyswapFactory_flattened.sol\":19179:19254  balance1 > _reserve1 - amount1Out ? balance1 - (_reserve1 - amount1Out) : 0 */\n      jump(tag_141)\n    tag_140:\n      sub(shl(0x70, 0x01), 0x01)\n        /* \"CoreContracts/kalyswap-core/KalyswapFactory_flattened.sol\":19227:19249  _reserve1 - amount1Out */\n      dup6\n      and\n      dup11\n      swap1\n      sub\n        /* \"CoreContracts/kalyswap-core/KalyswapFactory_flattened.sol\":19215:19250  balance1 - (_reserve1 - amount1Out) */\n      dup4\n      sub\n        /* \"CoreContracts/kalyswap-core/KalyswapFactory_flattened.sol\":19179:19254  balance1 > _reserve1 - amount1Out ? balance1 - (_reserve1 - amount1Out) : 0 */\n    tag_141:\n        /* \"CoreContracts/kalyswap-core/KalyswapFactory_flattened.sol\":19162:19254  uint amount1In = balance1 > _reserve1 - amount1Out ? balance1 - (_reserve1 - amount1Out) : 0 */\n      swap1\n      pop\n        /* \"CoreContracts/kalyswap-core/KalyswapFactory_flattened.sol\":19284:19285  0 */\n      0x00\n        /* \"CoreContracts/kalyswap-core/KalyswapFactory_flattened.sol\":19272:19281  amount0In */\n      dup3\n        /* \"CoreContracts/kalyswap-core/KalyswapFactory_flattened.sol\":19272:19285  amount0In > 0 */\n      gt\n        /* \"CoreContracts/kalyswap-core/KalyswapFactory_flattened.sol\":19272:19302  amount0In > 0 || amount1In > 0 */\n      dup1\n      tag_142\n      jumpi\n      pop\n        /* \"CoreContracts/kalyswap-core/KalyswapFactory_flattened.sol\":19301:19302  0 */\n      0x00\n        /* \"CoreContracts/kalyswap-core/KalyswapFactory_flattened.sol\":19289:19298  amount1In */\n      dup2\n        /* \"CoreContracts/kalyswap-core/KalyswapFactory_flattened.sol\":19289:19302  amount1In > 0 */\n      gt\n        /* \"CoreContracts/kalyswap-core/KalyswapFactory_flattened.sol\":19272:19302  amount0In > 0 || amount1In > 0 */\n    tag_142:\n        /* \"CoreContracts/kalyswap-core/KalyswapFactory_flattened.sol\":19264:19342  require(amount0In > 0 || amount1In > 0, 'Kalyswap: INSUFFICIENT_INPUT_AMOUNT') */\n      tag_143\n      jumpi\n      mload(0x40)\n      shl(0xe5, 0x461bcd)\n      dup2\n      mstore\n      0x04\n      add\n      dup1\n      dup1\n      0x20\n      add\n      dup3\n      dup2\n      sub\n      dup3\n      mstore\n      0x23\n      dup2\n      mstore\n      0x20\n      add\n      dup1\n      data_0ab0350c45f281195d02e95ee380f6a81377d1418b52bca20e90c5393cc4ad99\n      0x23\n      swap2\n      codecopy\n      0x40\n      add\n      swap2\n      pop\n      pop\n      mload(0x40)\n      dup1\n      swap2\n      sub\n      swap1\n      revert\n    tag_143:\n        /* \"CoreContracts/kalyswap-core/KalyswapFactory_flattened.sol\":19426:19447  uint balance0Adjusted */\n      0x00\n        /* \"CoreContracts/kalyswap-core/KalyswapFactory_flattened.sol\":19450:19490  balance0.mul(1000).sub(amount0In.mul(3)) */\n      tag_144\n        /* \"CoreContracts/kalyswap-core/KalyswapFactory_flattened.sol\":19473:19489  amount0In.mul(3) */\n      tag_145\n        /* \"CoreContracts/kalyswap-core/KalyswapFactory_flattened.sol\":19473:19482  amount0In */\n      dup5\n        /* \"CoreContracts/kalyswap-core/KalyswapFactory_flattened.sol\":19487:19488  3 */\n      0x03\n        /* \"CoreContracts/kalyswap-core/KalyswapFactory_flattened.sol\":19473:19489  amount0In.mul(3) */\n      0xffffffff\n        /* \"CoreContracts/kalyswap-core/KalyswapFactory_flattened.sol\":19473:19486  amount0In.mul */\n      tag_146\n        /* \"CoreContracts/kalyswap-core/KalyswapFactory_flattened.sol\":19473:19489  amount0In.mul(3) */\n      and\n      jump\t// in\n    tag_145:\n        /* \"CoreContracts/kalyswap-core/KalyswapFactory_flattened.sol\":19450:19468  balance0.mul(1000) */\n      tag_147\n        /* \"CoreContracts/kalyswap-core/KalyswapFactory_flattened.sol\":19450:19458  balance0 */\n      dup8\n        /* \"CoreContracts/kalyswap-core/KalyswapFactory_flattened.sol\":19463:19467  1000 */\n      0x03e8\n        /* \"CoreContracts/kalyswap-core/KalyswapFactory_flattened.sol\":19450:19468  balance0.mul(1000) */\n      0xffffffff\n        /* \"CoreContracts/kalyswap-core/KalyswapFactory_flattened.sol\":19450:19462  balance0.mul */\n      tag_146\n        /* \"CoreContracts/kalyswap-core/KalyswapFactory_flattened.sol\":19450:19468  balance0.mul(1000) */\n      and\n      jump\t// in\n    tag_147:\n        /* \"CoreContracts/kalyswap-core/KalyswapFactory_flattened.sol\":19450:19472  balance0.mul(1000).sub */\n      swap1\n        /* \"CoreContracts/kalyswap-core/KalyswapFactory_flattened.sol\":19450:19490  balance0.mul(1000).sub(amount0In.mul(3)) */\n      0xffffffff\n        /* \"CoreContracts/kalyswap-core/KalyswapFactory_flattened.sol\":19450:19472  balance0.mul(1000).sub */\n      tag_148\n        /* \"CoreContracts/kalyswap-core/KalyswapFactory_flattened.sol\":19450:19490  balance0.mul(1000).sub(amount0In.mul(3)) */\n      and\n      jump\t// in\n    tag_144:\n        /* \"CoreContracts/kalyswap-core/KalyswapFactory_flattened.sol\":19426:19490  uint balance0Adjusted = balance0.mul(1000).sub(amount0In.mul(3)) */\n      swap1\n      pop\n        /* \"CoreContracts/kalyswap-core/KalyswapFactory_flattened.sol\":19500:19521  uint balance1Adjusted */\n      0x00\n        /* \"CoreContracts/kalyswap-core/KalyswapFactory_flattened.sol\":19524:19564  balance1.mul(1000).sub(amount1In.mul(3)) */\n      tag_149\n        /* \"CoreContracts/kalyswap-core/KalyswapFactory_flattened.sol\":19547:19563  amount1In.mul(3) */\n      tag_145\n        /* \"CoreContracts/kalyswap-core/KalyswapFactory_flattened.sol\":19547:19556  amount1In */\n      dup5\n        /* \"CoreContracts/kalyswap-core/KalyswapFactory_flattened.sol\":19561:19562  3 */\n      0x03\n        /* \"CoreContracts/kalyswap-core/KalyswapFactory_flattened.sol\":19547:19563  amount1In.mul(3) */\n      0xffffffff\n        /* \"CoreContracts/kalyswap-core/KalyswapFactory_flattened.sol\":19547:19560  amount1In.mul */\n      tag_146\n        /* \"CoreContracts/kalyswap-core/KalyswapFactory_flattened.sol\":19547:19563  amount1In.mul(3) */\n      and\n      jump\t// in\n        /* \"CoreContracts/kalyswap-core/KalyswapFactory_flattened.sol\":19524:19564  balance1.mul(1000).sub(amount1In.mul(3)) */\n    tag_149:\n        /* \"CoreContracts/kalyswap-core/KalyswapFactory_flattened.sol\":19500:19564  uint balance1Adjusted = balance1.mul(1000).sub(amount1In.mul(3)) */\n      swap1\n      pop\n        /* \"CoreContracts/kalyswap-core/KalyswapFactory_flattened.sol\":19624:19667  uint(_reserve0).mul(_reserve1).mul(1000**2) */\n      tag_152\n        /* \"CoreContracts/kalyswap-core/KalyswapFactory_flattened.sol\":19659:19666  1000**2 */\n      0x0f4240\n        /* \"CoreContracts/kalyswap-core/KalyswapFactory_flattened.sol\":19624:19654  uint(_reserve0).mul(_reserve1) */\n      tag_153\n      sub(shl(0x70, 0x01), 0x01)\n        /* \"CoreContracts/kalyswap-core/KalyswapFactory_flattened.sol\":19624:19639  uint(_reserve0) */\n      dup12\n      dup2\n      and\n      swap1\n        /* \"CoreContracts/kalyswap-core/KalyswapFactory_flattened.sol\":19624:19654  uint(_reserve0).mul(_reserve1) */\n      dup12\n      and\n        /* \"CoreContracts/kalyswap-core/KalyswapFactory_flattened.sol\":19624:19643  uint(_reserve0).mul */\n      tag_146\n        /* \"CoreContracts/kalyswap-core/KalyswapFactory_flattened.sol\":19624:19654  uint(_reserve0).mul(_reserve1) */\n      jump\t// in\n    tag_153:\n        /* \"CoreContracts/kalyswap-core/KalyswapFactory_flattened.sol\":19624:19658  uint(_reserve0).mul(_reserve1).mul */\n      swap1\n        /* \"CoreContracts/kalyswap-core/KalyswapFactory_flattened.sol\":19624:19667  uint(_reserve0).mul(_reserve1).mul(1000**2) */\n      0xffffffff\n        /* \"CoreContracts/kalyswap-core/KalyswapFactory_flattened.sol\":19624:19658  uint(_reserve0).mul(_reserve1).mul */\n      tag_146\n        /* \"CoreContracts/kalyswap-core/KalyswapFactory_flattened.sol\":19624:19667  uint(_reserve0).mul(_reserve1).mul(1000**2) */\n      and\n      jump\t// in\n    tag_152:\n        /* \"CoreContracts/kalyswap-core/KalyswapFactory_flattened.sol\":19582:19620  balance0Adjusted.mul(balance1Adjusted) */\n      tag_154\n        /* \"CoreContracts/kalyswap-core/KalyswapFactory_flattened.sol\":19582:19598  balance0Adjusted */\n      dup4\n        /* \"CoreContracts/kalyswap-core/KalyswapFactory_flattened.sol\":19603:19619  balance1Adjusted */\n      dup4\n        /* \"CoreContracts/kalyswap-core/KalyswapFactory_flattened.sol\":19582:19620  balance0Adjusted.mul(balance1Adjusted) */\n      0xffffffff\n        /* \"CoreContracts/kalyswap-core/KalyswapFactory_flattened.sol\":19582:19602  balance0Adjusted.mul */\n      tag_146\n        /* \"CoreContracts/kalyswap-core/KalyswapFactory_flattened.sol\":19582:19620  balance0Adjusted.mul(balance1Adjusted) */\n      and\n      jump\t// in\n    tag_154:\n        /* \"CoreContracts/kalyswap-core/KalyswapFactory_flattened.sol\":19582:19667  balance0Adjusted.mul(balance1Adjusted) >= uint(_reserve0).mul(_reserve1).mul(1000**2) */\n      lt\n      iszero\n        /* \"CoreContracts/kalyswap-core/KalyswapFactory_flattened.sol\":19574:19683  require(balance0Adjusted.mul(balance1Adjusted) >= uint(_reserve0).mul(_reserve1).mul(1000**2), 'Kalyswap: K') */\n      tag_155\n      jumpi\n      0x40\n      dup1\n      mload\n      shl(0xe5, 0x461bcd)\n      dup2\n      mstore\n      0x20\n      0x04\n      dup3\n      add\n      mstore\n      0x0b\n      0x24\n      dup3\n      add\n      mstore\n      0x4b616c79737761703a204b000000000000000000000000000000000000000000\n      0x44\n      dup3\n      add\n      mstore\n      swap1\n      mload\n      swap1\n      dup2\n      swap1\n      sub\n      0x64\n      add\n      swap1\n      revert\n    tag_155:\n        /* \"CoreContracts/kalyswap-core/KalyswapFactory_flattened.sol\":11894:11895  _ */\n      pop\n      pop\n        /* \"CoreContracts/kalyswap-core/KalyswapFactory_flattened.sol\":19704:19753  _update(balance0, balance1, _reserve0, _reserve1) */\n      tag_156\n        /* \"CoreContracts/kalyswap-core/KalyswapFactory_flattened.sol\":19712:19720  balance0 */\n      dup5\n        /* \"CoreContracts/kalyswap-core/KalyswapFactory_flattened.sol\":19722:19730  balance1 */\n      dup5\n        /* \"CoreContracts/kalyswap-core/KalyswapFactory_flattened.sol\":19732:19741  _reserve0 */\n      dup9\n        /* \"CoreContracts/kalyswap-core/KalyswapFactory_flattened.sol\":19743:19752  _reserve1 */\n      dup9\n        /* \"CoreContracts/kalyswap-core/KalyswapFactory_flattened.sol\":19704:19711  _update */\n      tag_157\n        /* \"CoreContracts/kalyswap-core/KalyswapFactory_flattened.sol\":19704:19753  _update(balance0, balance1, _reserve0, _reserve1) */\n      jump\t// in\n    tag_156:\n        /* \"CoreContracts/kalyswap-core/KalyswapFactory_flattened.sol\":19768:19834  Swap(msg.sender, amount0In, amount1In, amount0Out, amount1Out, to) */\n      0x40\n      dup1\n      mload\n      dup4\n      dup2\n      mstore\n      0x20\n      dup2\n      add\n      dup4\n      swap1\n      mstore\n      dup1\n      dup3\n      add\n      dup14\n      swap1\n      mstore\n      0x60\n      dup2\n      add\n      dup13\n      swap1\n      mstore\n      swap1\n      mload\n      sub(shl(0xa0, 0x01), 0x01)\n      dup12\n      and\n      swap2\n        /* \"CoreContracts/kalyswap-core/KalyswapFactory_flattened.sol\":19773:19783  msg.sender */\n      caller\n      swap2\n        /* \"CoreContracts/kalyswap-core/KalyswapFactory_flattened.sol\":19768:19834  Swap(msg.sender, amount0In, amount1In, amount0Out, amount1Out, to) */\n      0xd78ad95fa46c994b6551d0da85fc275fe613ce37657fb8d5e3d130840159d822\n      swap2\n      dup2\n      swap1\n      sub\n      0x80\n      add\n      swap1\n      log3\n      pop\n      pop\n        /* \"CoreContracts/kalyswap-core/KalyswapFactory_flattened.sol\":11916:11917  1 */\n      0x01\n        /* \"CoreContracts/kalyswap-core/KalyswapFactory_flattened.sol\":11905:11913  unlocked */\n      0x0c\n        /* \"CoreContracts/kalyswap-core/KalyswapFactory_flattened.sol\":11905:11917  unlocked = 1 */\n      sstore\n      pop\n      pop\n      pop\n      pop\n      pop\n      pop\n      pop\n      pop\n      pop\n        /* \"CoreContracts/kalyswap-core/KalyswapFactory_flattened.sol\":17987:19841  function swap(uint amount0Out, uint amount1Out, address to, bytes calldata data) external lock {... */\n      jump\t// out\n        /* \"CoreContracts/kalyswap-core/KalyswapFactory_flattened.sol\":4387:4437  string public constant name = 'Kalyswap Liquidity' */\n    tag_44:\n      mload(0x40)\n      dup1\n      0x40\n      add\n      0x40\n      mstore\n      dup1\n      0x12\n      dup2\n      mstore\n      0x20\n      add\n      0x4b616c7973776170204c69717569646974790000000000000000000000000000\n      dup2\n      mstore\n      pop\n      dup2\n      jump\t// out\n        /* \"CoreContracts/kalyswap-core/KalyswapFactory_flattened.sol\":11930:12157  function getReserves() public view returns (uint112 _reserve0, uint112 _reserve1, uint32 _blockTimestampLast) {... */\n    tag_50:\n        /* \"CoreContracts/kalyswap-core/KalyswapFactory_flattened.sol\":12062:12070  reserve0 */\n      sload(0x08)\n      sub(shl(0x70, 0x01), 0x01)\n      dup1\n      dup3\n      and\n      swap3\n      shl(0x70, 0x01)\n        /* \"CoreContracts/kalyswap-core/KalyswapFactory_flattened.sol\":12092:12100  reserve1 */\n      dup4\n      div\n      swap1\n      swap2\n      and\n      swap2\n      shl(0xe0, 0x01)\n        /* \"CoreContracts/kalyswap-core/KalyswapFactory_flattened.sol\":12132:12150  blockTimestampLast */\n      swap1\n      div\n      0xffffffff\n      and\n      swap1\n        /* \"CoreContracts/kalyswap-core/KalyswapFactory_flattened.sol\":11930:12157  function getReserves() public view returns (uint112 _reserve0, uint112 _reserve1, uint32 _blockTimestampLast) {... */\n      jump\t// out\n        /* \"CoreContracts/kalyswap-core/KalyswapFactory_flattened.sol\":6385:6529  function approve(address spender, uint value) external returns (bool) {... */\n    tag_53:\n        /* \"CoreContracts/kalyswap-core/KalyswapFactory_flattened.sol\":6449:6453  bool */\n      0x00\n        /* \"CoreContracts/kalyswap-core/KalyswapFactory_flattened.sol\":6465:6501  _approve(msg.sender, spender, value) */\n      tag_160\n        /* \"CoreContracts/kalyswap-core/KalyswapFactory_flattened.sol\":6474:6484  msg.sender */\n      caller\n        /* \"CoreContracts/kalyswap-core/KalyswapFactory_flattened.sol\":6486:6493  spender */\n      dup5\n        /* \"CoreContracts/kalyswap-core/KalyswapFactory_flattened.sol\":6495:6500  value */\n      dup5\n        /* \"CoreContracts/kalyswap-core/KalyswapFactory_flattened.sol\":6465:6473  _approve */\n      tag_161\n        /* \"CoreContracts/kalyswap-core/KalyswapFactory_flattened.sol\":6465:6501  _approve(msg.sender, spender, value) */\n      jump\t// in\n    tag_160:\n      pop\n        /* \"CoreContracts/kalyswap-core/KalyswapFactory_flattened.sol\":6518:6522  true */\n      0x01\n        /* \"CoreContracts/kalyswap-core/KalyswapFactory_flattened.sol\":6385:6529  function approve(address spender, uint value) external returns (bool) {... */\n    tag_159:\n      swap3\n      swap2\n      pop\n      pop\n      jump\t// out\n        /* \"CoreContracts/kalyswap-core/KalyswapFactory_flattened.sol\":11239:11260  address public token0 */\n    tag_55:\n      and(sub(shl(0xa0, 0x01), 0x01), sload(0x06))\n      dup2\n      jump\t// out\n        /* \"CoreContracts/kalyswap-core/KalyswapFactory_flattened.sol\":4527:4551  uint  public totalSupply */\n    tag_57:\n      sload(0x00)\n      dup2\n      jump\t// out\n        /* \"CoreContracts/kalyswap-core/KalyswapFactory_flattened.sol\":6677:6972  function transferFrom(address from, address to, uint value) external returns (bool) {... */\n    tag_60:\n      sub(shl(0xa0, 0x01), 0x01)\n        /* \"CoreContracts/kalyswap-core/KalyswapFactory_flattened.sol\":6775:6790  allowance[from] */\n      dup4\n      and\n        /* \"CoreContracts/kalyswap-core/KalyswapFactory_flattened.sol\":6755:6759  bool */\n      0x00\n        /* \"CoreContracts/kalyswap-core/KalyswapFactory_flattened.sol\":6775:6790  allowance[from] */\n      swap1\n      dup2\n      mstore\n        /* \"CoreContracts/kalyswap-core/KalyswapFactory_flattened.sol\":6775:6784  allowance */\n      0x02\n        /* \"CoreContracts/kalyswap-core/KalyswapFactory_flattened.sol\":6775:6790  allowance[from] */\n      0x20\n      swap1\n      dup2\n      mstore\n      0x40\n      dup1\n      dup4\n      keccak256\n        /* \"CoreContracts/kalyswap-core/KalyswapFactory_flattened.sol\":6791:6801  msg.sender */\n      caller\n        /* \"CoreContracts/kalyswap-core/KalyswapFactory_flattened.sol\":6775:6802  allowance[from][msg.sender] */\n      dup5\n      mstore\n      swap1\n      swap2\n      mstore\n      dup2\n      keccak256\n      sload\n      not(0x00)\n        /* \"CoreContracts/kalyswap-core/KalyswapFactory_flattened.sol\":6775:6814  allowance[from][msg.sender] != uint(-1) */\n      eq\n        /* \"CoreContracts/kalyswap-core/KalyswapFactory_flattened.sol\":6771:6909  if (allowance[from][msg.sender] != uint(-1)) {... */\n      tag_163\n      jumpi\n      sub(shl(0xa0, 0x01), 0x01)\n        /* \"CoreContracts/kalyswap-core/KalyswapFactory_flattened.sol\":6860:6875  allowance[from] */\n      dup5\n      and\n      0x00\n      swap1\n      dup2\n      mstore\n        /* \"CoreContracts/kalyswap-core/KalyswapFactory_flattened.sol\":6860:6869  allowance */\n      0x02\n        /* \"CoreContracts/kalyswap-core/KalyswapFactory_flattened.sol\":6860:6875  allowance[from] */\n      0x20\n      swap1\n      dup2\n      mstore\n      0x40\n      dup1\n      dup4\n      keccak256\n        /* \"CoreContracts/kalyswap-core/KalyswapFactory_flattened.sol\":6876:6886  msg.sender */\n      caller\n        /* \"CoreContracts/kalyswap-core/KalyswapFactory_flattened.sol\":6860:6887  allowance[from][msg.sender] */\n      dup5\n      mstore\n      swap1\n      swap2\n      mstore\n      swap1\n      keccak256\n      sload\n        /* \"CoreContracts/kalyswap-core/KalyswapFactory_flattened.sol\":6860:6898  allowance[from][msg.sender].sub(value) */\n      tag_164\n      swap1\n        /* \"CoreContracts/kalyswap-core/KalyswapFactory_flattened.sol\":6892:6897  value */\n      dup4\n        /* \"CoreContracts/kalyswap-core/KalyswapFactory_flattened.sol\":6860:6891  allowance[from][msg.sender].sub */\n      tag_148\n        /* \"CoreContracts/kalyswap-core/KalyswapFactory_flattened.sol\":6860:6898  allowance[from][msg.sender].sub(value) */\n      jump\t// in\n    tag_164:\n      sub(shl(0xa0, 0x01), 0x01)\n        /* \"CoreContracts/kalyswap-core/KalyswapFactory_flattened.sol\":6830:6845  allowance[from] */\n      dup6\n      and\n      0x00\n      swap1\n      dup2\n      mstore\n        /* \"CoreContracts/kalyswap-core/KalyswapFactory_flattened.sol\":6830:6839  allowance */\n      0x02\n        /* \"CoreContracts/kalyswap-core/KalyswapFactory_flattened.sol\":6830:6845  allowance[from] */\n      0x20\n      swap1\n      dup2\n      mstore\n      0x40\n      dup1\n      dup4\n      keccak256\n        /* \"CoreContracts/kalyswap-core/KalyswapFactory_flattened.sol\":6846:6856  msg.sender */\n      caller\n        /* \"CoreContracts/kalyswap-core/KalyswapFactory_flattened.sol\":6830:6857  allowance[from][msg.sender] */\n      dup5\n      mstore\n      swap1\n      swap2\n      mstore\n      swap1\n      keccak256\n        /* \"CoreContracts/kalyswap-core/KalyswapFactory_flattened.sol\":6830:6898  allowance[from][msg.sender] = allowance[from][msg.sender].sub(value) */\n      sstore\n        /* \"CoreContracts/kalyswap-core/KalyswapFactory_flattened.sol\":6771:6909  if (allowance[from][msg.sender] != uint(-1)) {... */\n    tag_163:\n        /* \"CoreContracts/kalyswap-core/KalyswapFactory_flattened.sol\":6918:6944  _transfer(from, to, value) */\n      tag_165\n        /* \"CoreContracts/kalyswap-core/KalyswapFactory_flattened.sol\":6928:6932  from */\n      dup5\n        /* \"CoreContracts/kalyswap-core/KalyswapFactory_flattened.sol\":6934:6936  to */\n      dup5\n        /* \"CoreContracts/kalyswap-core/KalyswapFactory_flattened.sol\":6938:6943  value */\n      dup5\n        /* \"CoreContracts/kalyswap-core/KalyswapFactory_flattened.sol\":6918:6927  _transfer */\n      tag_166\n        /* \"CoreContracts/kalyswap-core/KalyswapFactory_flattened.sol\":6918:6944  _transfer(from, to, value) */\n      jump\t// in\n    tag_165:\n      pop\n        /* \"CoreContracts/kalyswap-core/KalyswapFactory_flattened.sol\":6961:6965  true */\n      0x01\n        /* \"CoreContracts/kalyswap-core/KalyswapFactory_flattened.sol\":6677:6972  function transferFrom(address from, address to, uint value) external returns (bool) {... */\n      swap4\n      swap3\n      pop\n      pop\n      pop\n      jump\t// out\n        /* \"CoreContracts/kalyswap-core/KalyswapFactory_flattened.sol\":4813:4921  bytes32 public constant PERMIT_TYPEHASH = 0x6e71edae12b1b97f4d1f60370fef10105fa2faae0126114a169c64845d6126c9 */\n    tag_62:\n        /* \"CoreContracts/kalyswap-core/KalyswapFactory_flattened.sol\":4855:4921  0x6e71edae12b1b97f4d1f60370fef10105fa2faae0126114a169c64845d6126c9 */\n      0x6e71edae12b1b97f4d1f60370fef10105fa2faae0126114a169c64845d6126c9\n        /* \"CoreContracts/kalyswap-core/KalyswapFactory_flattened.sol\":4813:4921  bytes32 public constant PERMIT_TYPEHASH = 0x6e71edae12b1b97f4d1f60370fef10105fa2faae0126114a169c64845d6126c9 */\n      dup2\n      jump\t// out\n        /* \"CoreContracts/kalyswap-core/KalyswapFactory_flattened.sol\":4486:4521  uint8 public constant decimals = 18 */\n    tag_64:\n        /* \"CoreContracts/kalyswap-core/KalyswapFactory_flattened.sol\":4519:4521  18 */\n      0x12\n        /* \"CoreContracts/kalyswap-core/KalyswapFactory_flattened.sol\":4486:4521  uint8 public constant decimals = 18 */\n      dup2\n      jump\t// out\n        /* \"CoreContracts/kalyswap-core/KalyswapFactory_flattened.sol\":4672:4703  bytes32 public DOMAIN_SEPARATOR */\n    tag_66:\n      sload(0x03)\n      dup2\n      jump\t// out\n        /* \"CoreContracts/kalyswap-core/KalyswapFactory_flattened.sol\":12961:13166  function initialize(address _token0, address _token1) external {... */\n    tag_69:\n        /* \"CoreContracts/kalyswap-core/KalyswapFactory_flattened.sol\":13056:13063  factory */\n      and(sub(shl(0xa0, 0x01), 0x01), sload(0x05))\n        /* \"CoreContracts/kalyswap-core/KalyswapFactory_flattened.sol\":13042:13052  msg.sender */\n      caller\n        /* \"CoreContracts/kalyswap-core/KalyswapFactory_flattened.sol\":13042:13063  msg.sender == factory */\n      eq\n        /* \"CoreContracts/kalyswap-core/KalyswapFactory_flattened.sol\":13034:13087  require(msg.sender == factory, 'Kalyswap: FORBIDDEN') */\n      tag_168\n      jumpi\n      0x40\n      dup1\n      mload\n      shl(0xe5, 0x461bcd)\n      dup2\n      mstore\n      0x20\n      0x04\n      dup3\n      add\n      mstore\n      0x13\n      0x24\n      dup3\n      add\n      mstore\n      0x4b616c79737761703a20464f5242494444454e00000000000000000000000000\n      0x44\n      dup3\n      add\n      mstore\n      swap1\n      mload\n      swap1\n      dup2\n      swap1\n      sub\n      0x64\n      add\n      swap1\n      revert\n    tag_168:\n        /* \"CoreContracts/kalyswap-core/KalyswapFactory_flattened.sol\":13117:13123  token0 */\n      0x06\n        /* \"CoreContracts/kalyswap-core/KalyswapFactory_flattened.sol\":13117:13133  token0 = _token0 */\n      dup1\n      sload\n      sub(shl(0xa0, 0x01), 0x01)\n      swap4\n      dup5\n      and\n      0xffffffffffffffffffffffff0000000000000000000000000000000000000000\n      swap2\n      dup3\n      and\n      or\n      swap1\n      swap2\n      sstore\n        /* \"CoreContracts/kalyswap-core/KalyswapFactory_flattened.sol\":13143:13149  token1 */\n      0x07\n        /* \"CoreContracts/kalyswap-core/KalyswapFactory_flattened.sol\":13143:13159  token1 = _token1 */\n      dup1\n      sload\n      swap3\n      swap1\n      swap4\n      and\n      swap2\n      and\n      or\n      swap1\n      sstore\n        /* \"CoreContracts/kalyswap-core/KalyswapFactory_flattened.sol\":12961:13166  function initialize(address _token0, address _token1) external {... */\n      jump\t// out\n        /* \"CoreContracts/kalyswap-core/KalyswapFactory_flattened.sol\":11583:11615  uint public price0CumulativeLast */\n    tag_71:\n      sload(0x09)\n      dup2\n      jump\t// out\n        /* \"CoreContracts/kalyswap-core/KalyswapFactory_flattened.sol\":11621:11653  uint public price1CumulativeLast */\n    tag_73:\n      sload(0x0a)\n      dup2\n      jump\t// out\n        /* \"CoreContracts/kalyswap-core/KalyswapFactory_flattened.sol\":15108:16326  function mint(address to) external lock returns (uint liquidity) {... */\n    tag_76:\n        /* \"CoreContracts/kalyswap-core/KalyswapFactory_flattened.sol\":15157:15171  uint liquidity */\n      0x00\n        /* \"CoreContracts/kalyswap-core/KalyswapFactory_flattened.sol\":11828:11836  unlocked */\n      sload(0x0c)\n        /* \"CoreContracts/kalyswap-core/KalyswapFactory_flattened.sol\":11840:11841  1 */\n      0x01\n        /* \"CoreContracts/kalyswap-core/KalyswapFactory_flattened.sol\":11828:11841  unlocked == 1 */\n      eq\n        /* \"CoreContracts/kalyswap-core/KalyswapFactory_flattened.sol\":11820:11862  require(unlocked == 1, 'Kalyswap: LOCKED') */\n      tag_170\n      jumpi\n      0x40\n      dup1\n      mload\n      shl(0xe5, 0x461bcd)\n      dup2\n      mstore\n      0x20\n      0x04\n      dup3\n      add\n      mstore\n      0x10\n      0x24\n      dup3\n      add\n      mstore\n      shl(0x82, 0x12d85b1e5cddd85c0e881313d0d2d151)\n      0x44\n      dup3\n      add\n      mstore\n      swap1\n      mload\n      swap1\n      dup2\n      swap1\n      sub\n      0x64\n      add\n      swap1\n      revert\n    tag_170:\n        /* \"CoreContracts/kalyswap-core/KalyswapFactory_flattened.sol\":11883:11884  0 */\n      0x00\n        /* \"CoreContracts/kalyswap-core/KalyswapFactory_flattened.sol\":11872:11880  unlocked */\n      0x0c\n        /* \"CoreContracts/kalyswap-core/KalyswapFactory_flattened.sol\":11872:11884  unlocked = 0 */\n      dup2\n      swap1\n      sstore\n        /* \"CoreContracts/kalyswap-core/KalyswapFactory_flattened.sol\":11883:11884  0 */\n      dup1\n        /* \"CoreContracts/kalyswap-core/KalyswapFactory_flattened.sol\":15225:15238  getReserves() */\n      tag_172\n        /* \"CoreContracts/kalyswap-core/KalyswapFactory_flattened.sol\":15225:15236  getReserves */\n      tag_50\n        /* \"CoreContracts/kalyswap-core/KalyswapFactory_flattened.sol\":15225:15238  getReserves() */\n      jump\t// in\n    tag_172:\n      pop\n        /* \"CoreContracts/kalyswap-core/KalyswapFactory_flattened.sol\":15286:15292  token0 */\n      sload(0x06)\n        /* \"CoreContracts/kalyswap-core/KalyswapFactory_flattened.sol\":15279:15318  IERC20(token0).balanceOf(address(this)) */\n      0x40\n      dup1\n      mload\n      shl(0xe0, 0x70a08231)\n      dup2\n      mstore\n        /* \"CoreContracts/kalyswap-core/KalyswapFactory_flattened.sol\":15312:15316  this */\n      address\n        /* \"CoreContracts/kalyswap-core/KalyswapFactory_flattened.sol\":15279:15318  IERC20(token0).balanceOf(address(this)) */\n      0x04\n      dup3\n      add\n      mstore\n      swap1\n      mload\n        /* \"CoreContracts/kalyswap-core/KalyswapFactory_flattened.sol\":15183:15238  (uint112 _reserve0, uint112 _reserve1,) = getReserves() */\n      swap4\n      swap6\n      pop\n      swap2\n      swap4\n      pop\n      0x00\n      swap3\n      sub(shl(0xa0, 0x01), 0x01)\n        /* \"CoreContracts/kalyswap-core/KalyswapFactory_flattened.sol\":15286:15292  token0 */\n      swap1\n      swap2\n      and\n      swap2\n      0x70a08231\n      swap2\n        /* \"CoreContracts/kalyswap-core/KalyswapFactory_flattened.sol\":15279:15318  IERC20(token0).balanceOf(address(this)) */\n      0x24\n      dup1\n      dup4\n      add\n      swap3\n      0x20\n      swap3\n      swap2\n      swap1\n      dup3\n      swap1\n      sub\n      add\n      dup2\n        /* \"CoreContracts/kalyswap-core/KalyswapFactory_flattened.sol\":15286:15292  token0 */\n      dup7\n        /* \"CoreContracts/kalyswap-core/KalyswapFactory_flattened.sol\":15279:15318  IERC20(token0).balanceOf(address(this)) */\n      dup1\n      extcodesize\n      iszero\n        /* \"--CODEGEN--\":5:7   */\n      dup1\n      iszero\n      tag_173\n      jumpi\n        /* \"--CODEGEN--\":30:31   */\n      0x00\n        /* \"--CODEGEN--\":27:28   */\n      dup1\n        /* \"--CODEGEN--\":20:32   */\n      revert\n        /* \"--CODEGEN--\":5:7   */\n    tag_173:\n        /* \"CoreContracts/kalyswap-core/KalyswapFactory_flattened.sol\":15279:15318  IERC20(token0).balanceOf(address(this)) */\n      pop\n      gas\n      staticcall\n      iszero\n        /* \"--CODEGEN--\":8:17   */\n      dup1\n        /* \"--CODEGEN--\":5:7   */\n      iszero\n      tag_174\n      jumpi\n        /* \"--CODEGEN--\":45:61   */\n      returndatasize\n        /* \"--CODEGEN--\":42:43   */\n      0x00\n        /* \"--CODEGEN--\":39:40   */\n      dup1\n        /* \"--CODEGEN--\":24:62   */\n      returndatacopy\n        /* \"--CODEGEN--\":77:93   */\n      returndatasize\n        /* \"--CODEGEN--\":74:75   */\n      0x00\n        /* \"--CODEGEN--\":67:94   */\n      revert\n        /* \"--CODEGEN--\":5:7   */\n    tag_174:\n        /* \"CoreContracts/kalyswap-core/KalyswapFactory_flattened.sol\":15279:15318  IERC20(token0).balanceOf(address(this)) */\n      pop\n      pop\n      pop\n      pop\n      mload(0x40)\n      returndatasize\n        /* \"--CODEGEN--\":13:15   */\n      0x20\n        /* \"--CODEGEN--\":8:11   */\n      dup2\n        /* \"--CODEGEN--\":5:16   */\n      lt\n        /* \"--CODEGEN--\":2:4   */\n      iszero\n      tag_175\n      jumpi\n        /* \"--CODEGEN--\":29:30   */\n      0x00\n        /* \"--CODEGEN--\":26:27   */\n      dup1\n        /* \"--CODEGEN--\":19:31   */\n      revert\n        /* \"--CODEGEN--\":2:4   */\n    tag_175:\n      pop\n        /* \"CoreContracts/kalyswap-core/KalyswapFactory_flattened.sol\":15279:15318  IERC20(token0).balanceOf(address(this)) */\n      mload\n        /* \"CoreContracts/kalyswap-core/KalyswapFactory_flattened.sol\":15351:15357  token1 */\n      sload(0x07)\n        /* \"CoreContracts/kalyswap-core/KalyswapFactory_flattened.sol\":15344:15383  IERC20(token1).balanceOf(address(this)) */\n      0x40\n      dup1\n      mload\n      shl(0xe0, 0x70a08231)\n      dup2\n      mstore\n        /* \"CoreContracts/kalyswap-core/KalyswapFactory_flattened.sol\":15377:15381  this */\n      address\n        /* \"CoreContracts/kalyswap-core/KalyswapFactory_flattened.sol\":15344:15383  IERC20(token1).balanceOf(address(this)) */\n      0x04\n      dup3\n      add\n      mstore\n      swap1\n      mload\n        /* \"CoreContracts/kalyswap-core/KalyswapFactory_flattened.sol\":15279:15318  IERC20(token0).balanceOf(address(this)) */\n      swap3\n      swap4\n      pop\n      0x00\n      swap3\n      sub(shl(0xa0, 0x01), 0x01)\n        /* \"CoreContracts/kalyswap-core/KalyswapFactory_flattened.sol\":15351:15357  token1 */\n      swap1\n      swap3\n      and\n      swap2\n      0x70a08231\n      swap2\n        /* \"CoreContracts/kalyswap-core/KalyswapFactory_flattened.sol\":15344:15383  IERC20(token1).balanceOf(address(this)) */\n      0x24\n      dup1\n      dup3\n      add\n      swap3\n        /* \"CoreContracts/kalyswap-core/KalyswapFactory_flattened.sol\":15279:15318  IERC20(token0).balanceOf(address(this)) */\n      0x20\n      swap3\n        /* \"CoreContracts/kalyswap-core/KalyswapFactory_flattened.sol\":15344:15383  IERC20(token1).balanceOf(address(this)) */\n      swap1\n      swap2\n      swap1\n      dup3\n      swap1\n      sub\n      add\n      dup2\n        /* \"CoreContracts/kalyswap-core/KalyswapFactory_flattened.sol\":15351:15357  token1 */\n      dup7\n        /* \"CoreContracts/kalyswap-core/KalyswapFactory_flattened.sol\":15344:15383  IERC20(token1).balanceOf(address(this)) */\n      dup1\n      extcodesize\n      iszero\n        /* \"--CODEGEN--\":5:7   */\n      dup1\n      iszero\n      tag_176\n      jumpi\n        /* \"--CODEGEN--\":30:31   */\n      0x00\n        /* \"--CODEGEN--\":27:28   */\n      dup1\n        /* \"--CODEGEN--\":20:32   */\n      revert\n        /* \"--CODEGEN--\":5:7   */\n    tag_176:\n        /* \"CoreContracts/kalyswap-core/KalyswapFactory_flattened.sol\":15344:15383  IERC20(token1).balanceOf(address(this)) */\n      pop\n      gas\n      staticcall\n      iszero\n        /* \"--CODEGEN--\":8:17   */\n      dup1\n        /* \"--CODEGEN--\":5:7   */\n      iszero\n      tag_177\n      jumpi\n        /* \"--CODEGEN--\":45:61   */\n      returndatasize\n        /* \"--CODEGEN--\":42:43   */\n      0x00\n        /* \"--CODEGEN--\":39:40   */\n      dup1\n        /* \"--CODEGEN--\":24:62   */\n      returndatacopy\n        /* \"--CODEGEN--\":77:93   */\n      returndatasize\n        /* \"--CODEGEN--\":74:75   */\n      0x00\n        /* \"--CODEGEN--\":67:94   */\n      revert\n        /* \"--CODEGEN--\":5:7   */\n    tag_177:\n        /* \"CoreContracts/kalyswap-core/KalyswapFactory_flattened.sol\":15344:15383  IERC20(token1).balanceOf(address(this)) */\n      pop\n      pop\n      pop\n      pop\n      mload(0x40)\n      returndatasize\n        /* \"--CODEGEN--\":13:15   */\n      0x20\n        /* \"--CODEGEN--\":8:11   */\n      dup2\n        /* \"--CODEGEN--\":5:16   */\n      lt\n        /* \"--CODEGEN--\":2:4   */\n      iszero\n      tag_178\n      jumpi\n        /* \"--CODEGEN--\":29:30   */\n      0x00\n        /* \"--CODEGEN--\":26:27   */\n      dup1\n        /* \"--CODEGEN--\":19:31   */\n      revert\n        /* \"--CODEGEN--\":2:4   */\n    tag_178:\n      pop\n        /* \"CoreContracts/kalyswap-core/KalyswapFactory_flattened.sol\":15344:15383  IERC20(token1).balanceOf(address(this)) */\n      mload\n      swap1\n      pop\n        /* \"CoreContracts/kalyswap-core/KalyswapFactory_flattened.sol\":15393:15405  uint amount0 */\n      0x00\n        /* \"CoreContracts/kalyswap-core/KalyswapFactory_flattened.sol\":15408:15431  balance0.sub(_reserve0) */\n      tag_179\n        /* \"CoreContracts/kalyswap-core/KalyswapFactory_flattened.sol\":15408:15416  balance0 */\n      dup4\n      sub(shl(0x70, 0x01), 0x01)\n        /* \"CoreContracts/kalyswap-core/KalyswapFactory_flattened.sol\":15408:15431  balance0.sub(_reserve0) */\n      dup8\n      and\n        /* \"CoreContracts/kalyswap-core/KalyswapFactory_flattened.sol\":15408:15420  balance0.sub */\n      tag_148\n        /* \"CoreContracts/kalyswap-core/KalyswapFactory_flattened.sol\":15408:15431  balance0.sub(_reserve0) */\n      jump\t// in\n    tag_179:\n        /* \"CoreContracts/kalyswap-core/KalyswapFactory_flattened.sol\":15393:15431  uint amount0 = balance0.sub(_reserve0) */\n      swap1\n      pop\n        /* \"CoreContracts/kalyswap-core/KalyswapFactory_flattened.sol\":15441:15453  uint amount1 */\n      0x00\n        /* \"CoreContracts/kalyswap-core/KalyswapFactory_flattened.sol\":15456:15479  balance1.sub(_reserve1) */\n      tag_180\n        /* \"CoreContracts/kalyswap-core/KalyswapFactory_flattened.sol\":15456:15464  balance1 */\n      dup4\n      sub(shl(0x70, 0x01), 0x01)\n        /* \"CoreContracts/kalyswap-core/KalyswapFactory_flattened.sol\":15456:15479  balance1.sub(_reserve1) */\n      dup8\n      and\n        /* \"CoreContracts/kalyswap-core/KalyswapFactory_flattened.sol\":15456:15468  balance1.sub */\n      tag_148\n        /* \"CoreContracts/kalyswap-core/KalyswapFactory_flattened.sol\":15456:15479  balance1.sub(_reserve1) */\n      jump\t// in\n    tag_180:\n        /* \"CoreContracts/kalyswap-core/KalyswapFactory_flattened.sol\":15441:15479  uint amount1 = balance1.sub(_reserve1) */\n      swap1\n      pop\n        /* \"CoreContracts/kalyswap-core/KalyswapFactory_flattened.sol\":15490:15500  bool feeOn */\n      0x00\n        /* \"CoreContracts/kalyswap-core/KalyswapFactory_flattened.sol\":15503:15533  _mintFee(_reserve0, _reserve1) */\n      tag_181\n        /* \"CoreContracts/kalyswap-core/KalyswapFactory_flattened.sol\":15512:15521  _reserve0 */\n      dup8\n        /* \"CoreContracts/kalyswap-core/KalyswapFactory_flattened.sol\":15523:15532  _reserve1 */\n      dup8\n        /* \"CoreContracts/kalyswap-core/KalyswapFactory_flattened.sol\":15503:15511  _mintFee */\n      tag_182\n        /* \"CoreContracts/kalyswap-core/KalyswapFactory_flattened.sol\":15503:15533  _mintFee(_reserve0, _reserve1) */\n      jump\t// in\n    tag_181:\n        /* \"CoreContracts/kalyswap-core/KalyswapFactory_flattened.sol\":15543:15560  uint _totalSupply */\n      0x00\n        /* \"CoreContracts/kalyswap-core/KalyswapFactory_flattened.sol\":15563:15574  totalSupply */\n      sload\n        /* \"CoreContracts/kalyswap-core/KalyswapFactory_flattened.sol\":15490:15533  bool feeOn = _mintFee(_reserve0, _reserve1) */\n      swap1\n      swap2\n      pop\n        /* \"CoreContracts/kalyswap-core/KalyswapFactory_flattened.sol\":15666:15683  _totalSupply == 0 */\n      dup1\n        /* \"CoreContracts/kalyswap-core/KalyswapFactory_flattened.sol\":15662:16009  if (_totalSupply == 0) {... */\n      tag_183\n      jumpi\n        /* \"CoreContracts/kalyswap-core/KalyswapFactory_flattened.sol\":15711:15765  Math.sqrt(amount0.mul(amount1)).sub(MINIMUM_LIQUIDITY) */\n      tag_184\n        /* \"CoreContracts/kalyswap-core/KalyswapFactory_flattened.sol\":11105:11110  10**3 */\n      0x03e8\n        /* \"CoreContracts/kalyswap-core/KalyswapFactory_flattened.sol\":15711:15742  Math.sqrt(amount0.mul(amount1)) */\n      tag_147\n        /* \"CoreContracts/kalyswap-core/KalyswapFactory_flattened.sol\":15721:15741  amount0.mul(amount1) */\n      tag_186\n        /* \"CoreContracts/kalyswap-core/KalyswapFactory_flattened.sol\":15721:15728  amount0 */\n      dup8\n        /* \"CoreContracts/kalyswap-core/KalyswapFactory_flattened.sol\":15733:15740  amount1 */\n      dup8\n        /* \"CoreContracts/kalyswap-core/KalyswapFactory_flattened.sol\":15721:15741  amount0.mul(amount1) */\n      0xffffffff\n        /* \"CoreContracts/kalyswap-core/KalyswapFactory_flattened.sol\":15721:15732  amount0.mul */\n      tag_146\n        /* \"CoreContracts/kalyswap-core/KalyswapFactory_flattened.sol\":15721:15741  amount0.mul(amount1) */\n      and\n      jump\t// in\n    tag_186:\n        /* \"CoreContracts/kalyswap-core/KalyswapFactory_flattened.sol\":15711:15720  Math.sqrt */\n      tag_187\n        /* \"CoreContracts/kalyswap-core/KalyswapFactory_flattened.sol\":15711:15742  Math.sqrt(amount0.mul(amount1)) */\n      jump\t// in\n        /* \"CoreContracts/kalyswap-core/KalyswapFactory_flattened.sol\":15711:15765  Math.sqrt(amount0.mul(amount1)).sub(MINIMUM_LIQUIDITY) */\n    tag_184:\n        /* \"CoreContracts/kalyswap-core/KalyswapFactory_flattened.sol\":15699:15765  liquidity = Math.sqrt(amount0.mul(amount1)).sub(MINIMUM_LIQUIDITY) */\n      swap9\n      pop\n        /* \"CoreContracts/kalyswap-core/KalyswapFactory_flattened.sol\":15778:15814  _mint(address(0), MINIMUM_LIQUIDITY) */\n      tag_188\n        /* \"CoreContracts/kalyswap-core/KalyswapFactory_flattened.sol\":15792:15793  0 */\n      0x00\n        /* \"CoreContracts/kalyswap-core/KalyswapFactory_flattened.sol\":11105:11110  10**3 */\n      0x03e8\n        /* \"CoreContracts/kalyswap-core/KalyswapFactory_flattened.sol\":15778:15783  _mint */\n      tag_189\n        /* \"CoreContracts/kalyswap-core/KalyswapFactory_flattened.sol\":15778:15814  _mint(address(0), MINIMUM_LIQUIDITY) */\n      jump\t// in\n    tag_188:\n        /* \"CoreContracts/kalyswap-core/KalyswapFactory_flattened.sol\":15662:16009  if (_totalSupply == 0) {... */\n      jump(tag_190)\n    tag_183:\n        /* \"CoreContracts/kalyswap-core/KalyswapFactory_flattened.sol\":15912:15998  Math.min(amount0.mul(_totalSupply) / _reserve0, amount1.mul(_totalSupply) / _reserve1) */\n      tag_191\n      sub(shl(0x70, 0x01), 0x01)\n        /* \"CoreContracts/kalyswap-core/KalyswapFactory_flattened.sol\":15921:15958  amount0.mul(_totalSupply) / _reserve0 */\n      dup10\n      and\n        /* \"CoreContracts/kalyswap-core/KalyswapFactory_flattened.sol\":15921:15946  amount0.mul(_totalSupply) */\n      tag_192\n        /* \"CoreContracts/kalyswap-core/KalyswapFactory_flattened.sol\":15921:15928  amount0 */\n      dup7\n        /* \"CoreContracts/kalyswap-core/KalyswapFactory_flattened.sol\":15933:15945  _totalSupply */\n      dup5\n        /* \"CoreContracts/kalyswap-core/KalyswapFactory_flattened.sol\":15921:15932  amount0.mul */\n      tag_146\n        /* \"CoreContracts/kalyswap-core/KalyswapFactory_flattened.sol\":15921:15946  amount0.mul(_totalSupply) */\n      jump\t// in\n    tag_192:\n        /* \"CoreContracts/kalyswap-core/KalyswapFactory_flattened.sol\":15921:15958  amount0.mul(_totalSupply) / _reserve0 */\n      dup2\n      tag_193\n      jumpi\n      invalid\n    tag_193:\n      div\n      sub(shl(0x70, 0x01), 0x01)\n        /* \"CoreContracts/kalyswap-core/KalyswapFactory_flattened.sol\":15960:15997  amount1.mul(_totalSupply) / _reserve1 */\n      dup10\n      and\n        /* \"CoreContracts/kalyswap-core/KalyswapFactory_flattened.sol\":15960:15985  amount1.mul(_totalSupply) */\n      tag_194\n        /* \"CoreContracts/kalyswap-core/KalyswapFactory_flattened.sol\":15960:15967  amount1 */\n      dup7\n        /* \"CoreContracts/kalyswap-core/KalyswapFactory_flattened.sol\":15972:15984  _totalSupply */\n      dup6\n        /* \"CoreContracts/kalyswap-core/KalyswapFactory_flattened.sol\":15960:15971  amount1.mul */\n      tag_146\n        /* \"CoreContracts/kalyswap-core/KalyswapFactory_flattened.sol\":15960:15985  amount1.mul(_totalSupply) */\n      jump\t// in\n    tag_194:\n        /* \"CoreContracts/kalyswap-core/KalyswapFactory_flattened.sol\":15960:15997  amount1.mul(_totalSupply) / _reserve1 */\n      dup2\n      tag_195\n      jumpi\n      invalid\n    tag_195:\n      div\n        /* \"CoreContracts/kalyswap-core/KalyswapFactory_flattened.sol\":15912:15920  Math.min */\n      tag_196\n        /* \"CoreContracts/kalyswap-core/KalyswapFactory_flattened.sol\":15912:15998  Math.min(amount0.mul(_totalSupply) / _reserve0, amount1.mul(_totalSupply) / _reserve1) */\n      jump\t// in\n    tag_191:\n        /* \"CoreContracts/kalyswap-core/KalyswapFactory_flattened.sol\":15900:15998  liquidity = Math.min(amount0.mul(_totalSupply) / _reserve0, amount1.mul(_totalSupply) / _reserve1) */\n      swap9\n      pop\n        /* \"CoreContracts/kalyswap-core/KalyswapFactory_flattened.sol\":15662:16009  if (_totalSupply == 0) {... */\n    tag_190:\n        /* \"CoreContracts/kalyswap-core/KalyswapFactory_flattened.sol\":16038:16039  0 */\n      0x00\n        /* \"CoreContracts/kalyswap-core/KalyswapFactory_flattened.sol\":16026:16035  liquidity */\n      dup10\n        /* \"CoreContracts/kalyswap-core/KalyswapFactory_flattened.sol\":16026:16039  liquidity > 0 */\n      gt\n        /* \"CoreContracts/kalyswap-core/KalyswapFactory_flattened.sol\":16018:16083  require(liquidity > 0, 'Kalyswap: INSUFFICIENT_LIQUIDITY_MINTED') */\n      tag_197\n      jumpi\n      mload(0x40)\n      shl(0xe5, 0x461bcd)\n      dup2\n      mstore\n      0x04\n      add\n      dup1\n      dup1\n      0x20\n      add\n      dup3\n      dup2\n      sub\n      dup3\n      mstore\n      0x27\n      dup2\n      mstore\n      0x20\n      add\n      dup1\n      data_9ee433e3d6830e1e0d04ac3995c1c7db80ed58256ee7b6fb6a7455d1450d81ba\n      0x27\n      swap2\n      codecopy\n      0x40\n      add\n      swap2\n      pop\n      pop\n      mload(0x40)\n      dup1\n      swap2\n      sub\n      swap1\n      revert\n    tag_197:\n        /* \"CoreContracts/kalyswap-core/KalyswapFactory_flattened.sol\":16093:16113  _mint(to, liquidity) */\n      tag_198\n        /* \"CoreContracts/kalyswap-core/KalyswapFactory_flattened.sol\":16099:16101  to */\n      dup11\n        /* \"CoreContracts/kalyswap-core/KalyswapFactory_flattened.sol\":16103:16112  liquidity */\n      dup11\n        /* \"CoreContracts/kalyswap-core/KalyswapFactory_flattened.sol\":16093:16098  _mint */\n      tag_189\n        /* \"CoreContracts/kalyswap-core/KalyswapFactory_flattened.sol\":16093:16113  _mint(to, liquidity) */\n      jump\t// in\n    tag_198:\n        /* \"CoreContracts/kalyswap-core/KalyswapFactory_flattened.sol\":16124:16173  _update(balance0, balance1, _reserve0, _reserve1) */\n      tag_199\n        /* \"CoreContracts/kalyswap-core/KalyswapFactory_flattened.sol\":16132:16140  balance0 */\n      dup7\n        /* \"CoreContracts/kalyswap-core/KalyswapFactory_flattened.sol\":16142:16150  balance1 */\n      dup7\n        /* \"CoreContracts/kalyswap-core/KalyswapFactory_flattened.sol\":16152:16161  _reserve0 */\n      dup11\n        /* \"CoreContracts/kalyswap-core/KalyswapFactory_flattened.sol\":16163:16172  _reserve1 */\n      dup11\n        /* \"CoreContracts/kalyswap-core/KalyswapFactory_flattened.sol\":16124:16131  _update */\n      tag_157\n        /* \"CoreContracts/kalyswap-core/KalyswapFactory_flattened.sol\":16124:16173  _update(balance0, balance1, _reserve0, _reserve1) */\n      jump\t// in\n    tag_199:\n        /* \"CoreContracts/kalyswap-core/KalyswapFactory_flattened.sol\":16187:16192  feeOn */\n      dup2\n        /* \"CoreContracts/kalyswap-core/KalyswapFactory_flattened.sol\":16183:16230  if (feeOn) kLast = uint(reserve0).mul(reserve1) */\n      iszero\n      tag_200\n      jumpi\n        /* \"CoreContracts/kalyswap-core/KalyswapFactory_flattened.sol\":16221:16229  reserve1 */\n      sload(0x08)\n        /* \"CoreContracts/kalyswap-core/KalyswapFactory_flattened.sol\":16202:16230  uint(reserve0).mul(reserve1) */\n      tag_201\n      swap1\n      sub(shl(0x70, 0x01), 0x01)\n        /* \"CoreContracts/kalyswap-core/KalyswapFactory_flattened.sol\":16207:16215  reserve0 */\n      dup1\n      dup3\n      and\n      swap2\n      shl(0x70, 0x01)\n        /* \"CoreContracts/kalyswap-core/KalyswapFactory_flattened.sol\":16221:16229  reserve1 */\n      swap1\n      div\n      and\n        /* \"CoreContracts/kalyswap-core/KalyswapFactory_flattened.sol\":16202:16220  uint(reserve0).mul */\n      tag_146\n        /* \"CoreContracts/kalyswap-core/KalyswapFactory_flattened.sol\":16202:16230  uint(reserve0).mul(reserve1) */\n      jump\t// in\n    tag_201:\n        /* \"CoreContracts/kalyswap-core/KalyswapFactory_flattened.sol\":16194:16199  kLast */\n      0x0b\n        /* \"CoreContracts/kalyswap-core/KalyswapFactory_flattened.sol\":16194:16230  kLast = uint(reserve0).mul(reserve1) */\n      sstore\n        /* \"CoreContracts/kalyswap-core/KalyswapFactory_flattened.sol\":16183:16230  if (feeOn) kLast = uint(reserve0).mul(reserve1) */\n    tag_200:\n        /* \"CoreContracts/kalyswap-core/KalyswapFactory_flattened.sol\":16285:16319  Mint(msg.sender, amount0, amount1) */\n      0x40\n      dup1\n      mload\n      dup6\n      dup2\n      mstore\n      0x20\n      dup2\n      add\n      dup6\n      swap1\n      mstore\n      dup2\n      mload\n        /* \"CoreContracts/kalyswap-core/KalyswapFactory_flattened.sol\":16290:16300  msg.sender */\n      caller\n      swap3\n        /* \"CoreContracts/kalyswap-core/KalyswapFactory_flattened.sol\":16285:16319  Mint(msg.sender, amount0, amount1) */\n      0x4c209b5fc8ad50758f13e2e1088ba56a560dff690a1c6fef26394f4c03821c4f\n      swap3\n      dup3\n      swap1\n      sub\n      add\n      swap1\n      log2\n      pop\n      pop\n        /* \"CoreContracts/kalyswap-core/KalyswapFactory_flattened.sol\":11916:11917  1 */\n      0x01\n        /* \"CoreContracts/kalyswap-core/KalyswapFactory_flattened.sol\":11905:11913  unlocked */\n      0x0c\n        /* \"CoreContracts/kalyswap-core/KalyswapFactory_flattened.sol\":11905:11917  unlocked = 1 */\n      sstore\n      pop\n        /* \"CoreContracts/kalyswap-core/KalyswapFactory_flattened.sol\":15108:16326  function mint(address to) external lock returns (uint liquidity) {... */\n      swap5\n      swap7\n      swap6\n      pop\n      pop\n      pop\n      pop\n      pop\n      pop\n      jump\t// out\n        /* \"CoreContracts/kalyswap-core/KalyswapFactory_flattened.sol\":4557:4598  mapping(address => uint) public balanceOf */\n    tag_79:\n      mstore(0x20, 0x01)\n      0x00\n      swap1\n      dup2\n      mstore\n      0x40\n      swap1\n      keccak256\n      sload\n      dup2\n      jump\t// out\n        /* \"CoreContracts/kalyswap-core/KalyswapFactory_flattened.sol\":11659:11676  uint public kLast */\n    tag_81:\n      sload(0x0b)\n      dup2\n      jump\t// out\n        /* \"CoreContracts/kalyswap-core/KalyswapFactory_flattened.sol\":4927:4965  mapping(address => uint) public nonces */\n    tag_84:\n      mstore(0x20, 0x04)\n      0x00\n      swap1\n      dup2\n      mstore\n      0x40\n      swap1\n      keccak256\n      sload\n      dup2\n      jump\t// out\n        /* \"CoreContracts/kalyswap-core/KalyswapFactory_flattened.sol\":16435:17878  function burn(address to) external lock returns (uint amount0, uint amount1) {... */\n    tag_87:\n        /* \"CoreContracts/kalyswap-core/KalyswapFactory_flattened.sol\":16484:16496  uint amount0 */\n      0x00\n        /* \"CoreContracts/kalyswap-core/KalyswapFactory_flattened.sol\":16498:16510  uint amount1 */\n      dup1\n        /* \"CoreContracts/kalyswap-core/KalyswapFactory_flattened.sol\":11828:11836  unlocked */\n      sload(0x0c)\n        /* \"CoreContracts/kalyswap-core/KalyswapFactory_flattened.sol\":11840:11841  1 */\n      0x01\n        /* \"CoreContracts/kalyswap-core/KalyswapFactory_flattened.sol\":11828:11841  unlocked == 1 */\n      eq\n        /* \"CoreContracts/kalyswap-core/KalyswapFactory_flattened.sol\":11820:11862  require(unlocked == 1, 'Kalyswap: LOCKED') */\n      tag_203\n      jumpi\n      0x40\n      dup1\n      mload\n      shl(0xe5, 0x461bcd)\n      dup2\n      mstore\n      0x20\n      0x04\n      dup3\n      add\n      mstore\n      0x10\n      0x24\n      dup3\n      add\n      mstore\n      shl(0x82, 0x12d85b1e5cddd85c0e881313d0d2d151)\n      0x44\n      dup3\n      add\n      mstore\n      swap1\n      mload\n      swap1\n      dup2\n      swap1\n      sub\n      0x64\n      add\n      swap1\n      revert\n    tag_203:\n        /* \"CoreContracts/kalyswap-core/KalyswapFactory_flattened.sol\":11883:11884  0 */\n      0x00\n        /* \"CoreContracts/kalyswap-core/KalyswapFactory_flattened.sol\":11872:11880  unlocked */\n      0x0c\n        /* \"CoreContracts/kalyswap-core/KalyswapFactory_flattened.sol\":11872:11884  unlocked = 0 */\n      dup2\n      swap1\n      sstore\n        /* \"CoreContracts/kalyswap-core/KalyswapFactory_flattened.sol\":11883:11884  0 */\n      dup1\n        /* \"CoreContracts/kalyswap-core/KalyswapFactory_flattened.sol\":16564:16577  getReserves() */\n      tag_205\n        /* \"CoreContracts/kalyswap-core/KalyswapFactory_flattened.sol\":16564:16575  getReserves */\n      tag_50\n        /* \"CoreContracts/kalyswap-core/KalyswapFactory_flattened.sol\":16564:16577  getReserves() */\n      jump\t// in\n    tag_205:\n      pop\n        /* \"CoreContracts/kalyswap-core/KalyswapFactory_flattened.sol\":16620:16626  token0 */\n      sload(0x06)\n        /* \"CoreContracts/kalyswap-core/KalyswapFactory_flattened.sol\":16700:16706  token1 */\n      sload(0x07)\n        /* \"CoreContracts/kalyswap-core/KalyswapFactory_flattened.sol\":16778:16818  IERC20(_token0).balanceOf(address(this)) */\n      0x40\n      dup1\n      mload\n      shl(0xe0, 0x70a08231)\n      dup2\n      mstore\n        /* \"CoreContracts/kalyswap-core/KalyswapFactory_flattened.sol\":16812:16816  this */\n      address\n        /* \"CoreContracts/kalyswap-core/KalyswapFactory_flattened.sol\":16778:16818  IERC20(_token0).balanceOf(address(this)) */\n      0x04\n      dup3\n      add\n      mstore\n      swap1\n      mload\n        /* \"CoreContracts/kalyswap-core/KalyswapFactory_flattened.sol\":16522:16577  (uint112 _reserve0, uint112 _reserve1,) = getReserves() */\n      swap5\n      swap7\n      pop\n      swap3\n      swap5\n      pop\n      sub(shl(0xa0, 0x01), 0x01)\n        /* \"CoreContracts/kalyswap-core/KalyswapFactory_flattened.sol\":16620:16626  token0 */\n      swap2\n      dup3\n      and\n      swap4\n        /* \"CoreContracts/kalyswap-core/KalyswapFactory_flattened.sol\":16700:16706  token1 */\n      swap2\n      and\n      swap2\n      0x00\n      swap2\n        /* \"CoreContracts/kalyswap-core/KalyswapFactory_flattened.sol\":16620:16626  token0 */\n      dup5\n      swap2\n      0x70a08231\n      swap2\n        /* \"CoreContracts/kalyswap-core/KalyswapFactory_flattened.sol\":16778:16818  IERC20(_token0).balanceOf(address(this)) */\n      0x24\n      dup1\n      dup4\n      add\n      swap3\n      0x20\n      swap3\n      swap2\n      swap1\n      dup3\n      swap1\n      sub\n      add\n      dup2\n        /* \"CoreContracts/kalyswap-core/KalyswapFactory_flattened.sol\":16620:16626  token0 */\n      dup7\n        /* \"CoreContracts/kalyswap-core/KalyswapFactory_flattened.sol\":16778:16818  IERC20(_token0).balanceOf(address(this)) */\n      dup1\n      extcodesize\n      iszero\n        /* \"--CODEGEN--\":5:7   */\n      dup1\n      iszero\n      tag_206\n      jumpi\n        /* \"--CODEGEN--\":30:31   */\n      0x00\n        /* \"--CODEGEN--\":27:28   */\n      dup1\n        /* \"--CODEGEN--\":20:32   */\n      revert\n        /* \"--CODEGEN--\":5:7   */\n    tag_206:\n        /* \"CoreContracts/kalyswap-core/KalyswapFactory_flattened.sol\":16778:16818  IERC20(_token0).balanceOf(address(this)) */\n      pop\n      gas\n      staticcall\n      iszero\n        /* \"--CODEGEN--\":8:17   */\n      dup1\n        /* \"--CODEGEN--\":5:7   */\n      iszero\n      tag_207\n      jumpi\n        /* \"--CODEGEN--\":45:61   */\n      returndatasize\n        /* \"--CODEGEN--\":42:43   */\n      0x00\n        /* \"--CODEGEN--\":39:40   */\n      dup1\n        /* \"--CODEGEN--\":24:62   */\n      returndatacopy\n        /* \"--CODEGEN--\":77:93   */\n      returndatasize\n        /* \"--CODEGEN--\":74:75   */\n      0x00\n        /* \"--CODEGEN--\":67:94   */\n      revert\n        /* \"--CODEGEN--\":5:7   */\n    tag_207:\n        /* \"CoreContracts/kalyswap-core/KalyswapFactory_flattened.sol\":16778:16818  IERC20(_token0).balanceOf(address(this)) */\n      pop\n      pop\n      pop\n      pop\n      mload(0x40)\n      returndatasize\n        /* \"--CODEGEN--\":13:15   */\n      0x20\n        /* \"--CODEGEN--\":8:11   */\n      dup2\n        /* \"--CODEGEN--\":5:16   */\n      lt\n        /* \"--CODEGEN--\":2:4   */\n      iszero\n      tag_208\n      jumpi\n        /* \"--CODEGEN--\":29:30   */\n      0x00\n        /* \"--CODEGEN--\":26:27   */\n      dup1\n        /* \"--CODEGEN--\":19:31   */\n      revert\n        /* \"--CODEGEN--\":2:4   */\n    tag_208:\n      pop\n        /* \"CoreContracts/kalyswap-core/KalyswapFactory_flattened.sol\":16778:16818  IERC20(_token0).balanceOf(address(this)) */\n      mload\n        /* \"CoreContracts/kalyswap-core/KalyswapFactory_flattened.sol\":16844:16884  IERC20(_token1).balanceOf(address(this)) */\n      0x40\n      dup1\n      mload\n      shl(0xe0, 0x70a08231)\n      dup2\n      mstore\n        /* \"CoreContracts/kalyswap-core/KalyswapFactory_flattened.sol\":16878:16882  this */\n      address\n        /* \"CoreContracts/kalyswap-core/KalyswapFactory_flattened.sol\":16844:16884  IERC20(_token1).balanceOf(address(this)) */\n      0x04\n      dup3\n      add\n      mstore\n      swap1\n      mload\n        /* \"CoreContracts/kalyswap-core/KalyswapFactory_flattened.sol\":16778:16818  IERC20(_token0).balanceOf(address(this)) */\n      swap2\n      swap3\n      pop\n      0x00\n      swap2\n      sub(shl(0xa0, 0x01), 0x01)\n        /* \"CoreContracts/kalyswap-core/KalyswapFactory_flattened.sol\":16844:16869  IERC20(_token1).balanceOf */\n      dup6\n      and\n      swap2\n      0x70a08231\n      swap2\n        /* \"CoreContracts/kalyswap-core/KalyswapFactory_flattened.sol\":16844:16884  IERC20(_token1).balanceOf(address(this)) */\n      0x24\n      dup1\n      dup4\n      add\n      swap3\n        /* \"CoreContracts/kalyswap-core/KalyswapFactory_flattened.sol\":16778:16818  IERC20(_token0).balanceOf(address(this)) */\n      0x20\n      swap3\n        /* \"CoreContracts/kalyswap-core/KalyswapFactory_flattened.sol\":16844:16884  IERC20(_token1).balanceOf(address(this)) */\n      swap2\n      swap1\n      dup3\n      swap1\n      sub\n      add\n      dup2\n        /* \"CoreContracts/kalyswap-core/KalyswapFactory_flattened.sol\":16844:16869  IERC20(_token1).balanceOf */\n      dup7\n        /* \"CoreContracts/kalyswap-core/KalyswapFactory_flattened.sol\":16844:16884  IERC20(_token1).balanceOf(address(this)) */\n      dup1\n      extcodesize\n      iszero\n        /* \"--CODEGEN--\":5:7   */\n      dup1\n      iszero\n      tag_209\n      jumpi\n        /* \"--CODEGEN--\":30:31   */\n      0x00\n        /* \"--CODEGEN--\":27:28   */\n      dup1\n        /* \"--CODEGEN--\":20:32   */\n      revert\n        /* \"--CODEGEN--\":5:7   */\n    tag_209:\n        /* \"CoreContracts/kalyswap-core/KalyswapFactory_flattened.sol\":16844:16884  IERC20(_token1).balanceOf(address(this)) */\n      pop\n      gas\n      staticcall\n      iszero\n        /* \"--CODEGEN--\":8:17   */\n      dup1\n        /* \"--CODEGEN--\":5:7   */\n      iszero\n      tag_210\n      jumpi\n        /* \"--CODEGEN--\":45:61   */\n      returndatasize\n        /* \"--CODEGEN--\":42:43   */\n      0x00\n        /* \"--CODEGEN--\":39:40   */\n      dup1\n        /* \"--CODEGEN--\":24:62   */\n      returndatacopy\n        /* \"--CODEGEN--\":77:93   */\n      returndatasize\n        /* \"--CODEGEN--\":74:75   */\n      0x00\n        /* \"--CODEGEN--\":67:94   */\n      revert\n        /* \"--CODEGEN--\":5:7   */\n    tag_210:\n        /* \"CoreContracts/kalyswap-core/KalyswapFactory_flattened.sol\":16844:16884  IERC20(_token1).balanceOf(address(this)) */\n      pop\n      pop\n      pop\n      pop\n      mload(0x40)\n      returndatasize\n        /* \"--CODEGEN--\":13:15   */\n      0x20\n        /* \"--CODEGEN--\":8:11   */\n      dup2\n        /* \"--CODEGEN--\":5:16   */\n      lt\n        /* \"--CODEGEN--\":2:4   */\n      iszero\n      tag_211\n      jumpi\n        /* \"--CODEGEN--\":29:30   */\n      0x00\n        /* \"--CODEGEN--\":26:27   */\n      dup1\n        /* \"--CODEGEN--\":19:31   */\n      revert\n        /* \"--CODEGEN--\":2:4   */\n    tag_211:\n      pop\n        /* \"CoreContracts/kalyswap-core/KalyswapFactory_flattened.sol\":16844:16884  IERC20(_token1).balanceOf(address(this)) */\n      mload\n        /* \"CoreContracts/kalyswap-core/KalyswapFactory_flattened.sol\":16929:16933  this */\n      address\n        /* \"CoreContracts/kalyswap-core/KalyswapFactory_flattened.sol\":16894:16908  uint liquidity */\n      0x00\n        /* \"CoreContracts/kalyswap-core/KalyswapFactory_flattened.sol\":16911:16935  balanceOf[address(this)] */\n      swap1\n      dup2\n      mstore\n        /* \"CoreContracts/kalyswap-core/KalyswapFactory_flattened.sol\":16911:16920  balanceOf */\n      0x01\n        /* \"CoreContracts/kalyswap-core/KalyswapFactory_flattened.sol\":16844:16884  IERC20(_token1).balanceOf(address(this)) */\n      0x20\n        /* \"CoreContracts/kalyswap-core/KalyswapFactory_flattened.sol\":16911:16935  balanceOf[address(this)] */\n      mstore\n      0x40\n      dup2\n      keccak256\n      sload\n        /* \"CoreContracts/kalyswap-core/KalyswapFactory_flattened.sol\":16844:16884  IERC20(_token1).balanceOf(address(this)) */\n      swap2\n      swap3\n      pop\n        /* \"CoreContracts/kalyswap-core/KalyswapFactory_flattened.sol\":16959:16989  _mintFee(_reserve0, _reserve1) */\n      tag_212\n        /* \"CoreContracts/kalyswap-core/KalyswapFactory_flattened.sol\":16968:16977  _reserve0 */\n      dup9\n        /* \"CoreContracts/kalyswap-core/KalyswapFactory_flattened.sol\":16979:16988  _reserve1 */\n      dup9\n        /* \"CoreContracts/kalyswap-core/KalyswapFactory_flattened.sol\":16959:16967  _mintFee */\n      tag_182\n        /* \"CoreContracts/kalyswap-core/KalyswapFactory_flattened.sol\":16959:16989  _mintFee(_reserve0, _reserve1) */\n      jump\t// in\n    tag_212:\n        /* \"CoreContracts/kalyswap-core/KalyswapFactory_flattened.sol\":16999:17016  uint _totalSupply */\n      0x00\n        /* \"CoreContracts/kalyswap-core/KalyswapFactory_flattened.sol\":17019:17030  totalSupply */\n      sload\n        /* \"CoreContracts/kalyswap-core/KalyswapFactory_flattened.sol\":16946:16989  bool feeOn = _mintFee(_reserve0, _reserve1) */\n      swap1\n      swap2\n      pop\n        /* \"CoreContracts/kalyswap-core/KalyswapFactory_flattened.sol\":17019:17030  totalSupply */\n      dup1\n        /* \"CoreContracts/kalyswap-core/KalyswapFactory_flattened.sol\":17128:17151  liquidity.mul(balance0) */\n      tag_213\n        /* \"CoreContracts/kalyswap-core/KalyswapFactory_flattened.sol\":17128:17137  liquidity */\n      dup5\n        /* \"CoreContracts/kalyswap-core/KalyswapFactory_flattened.sol\":17142:17150  balance0 */\n      dup8\n        /* \"CoreContracts/kalyswap-core/KalyswapFactory_flattened.sol\":17128:17151  liquidity.mul(balance0) */\n      0xffffffff\n        /* \"CoreContracts/kalyswap-core/KalyswapFactory_flattened.sol\":17128:17141  liquidity.mul */\n      tag_146\n        /* \"CoreContracts/kalyswap-core/KalyswapFactory_flattened.sol\":17128:17151  liquidity.mul(balance0) */\n      and\n      jump\t// in\n    tag_213:\n        /* \"CoreContracts/kalyswap-core/KalyswapFactory_flattened.sol\":17128:17166  liquidity.mul(balance0) / _totalSupply */\n      dup2\n      tag_214\n      jumpi\n      invalid\n    tag_214:\n      div\n      swap11\n      pop\n        /* \"CoreContracts/kalyswap-core/KalyswapFactory_flattened.sol\":17260:17272  _totalSupply */\n      dup1\n        /* \"CoreContracts/kalyswap-core/KalyswapFactory_flattened.sol\":17234:17257  liquidity.mul(balance1) */\n      tag_215\n        /* \"CoreContracts/kalyswap-core/KalyswapFactory_flattened.sol\":17234:17243  liquidity */\n      dup5\n        /* \"CoreContracts/kalyswap-core/KalyswapFactory_flattened.sol\":17248:17256  balance1 */\n      dup7\n        /* \"CoreContracts/kalyswap-core/KalyswapFactory_flattened.sol\":17234:17257  liquidity.mul(balance1) */\n      0xffffffff\n        /* \"CoreContracts/kalyswap-core/KalyswapFactory_flattened.sol\":17234:17247  liquidity.mul */\n      tag_146\n        /* \"CoreContracts/kalyswap-core/KalyswapFactory_flattened.sol\":17234:17257  liquidity.mul(balance1) */\n      and\n      jump\t// in\n    tag_215:\n        /* \"CoreContracts/kalyswap-core/KalyswapFactory_flattened.sol\":17234:17272  liquidity.mul(balance1) / _totalSupply */\n      dup2\n      tag_216\n      jumpi\n      invalid\n    tag_216:\n      div\n        /* \"CoreContracts/kalyswap-core/KalyswapFactory_flattened.sol\":17224:17272  amount1 = liquidity.mul(balance1) / _totalSupply */\n      swap10\n      pop\n        /* \"CoreContracts/kalyswap-core/KalyswapFactory_flattened.sol\":17348:17349  0 */\n      0x00\n        /* \"CoreContracts/kalyswap-core/KalyswapFactory_flattened.sol\":17338:17345  amount0 */\n      dup12\n        /* \"CoreContracts/kalyswap-core/KalyswapFactory_flattened.sol\":17338:17349  amount0 > 0 */\n      gt\n        /* \"CoreContracts/kalyswap-core/KalyswapFactory_flattened.sol\":17338:17364  amount0 > 0 && amount1 > 0 */\n      dup1\n      iszero\n      tag_217\n      jumpi\n      pop\n        /* \"CoreContracts/kalyswap-core/KalyswapFactory_flattened.sol\":17363:17364  0 */\n      0x00\n        /* \"CoreContracts/kalyswap-core/KalyswapFactory_flattened.sol\":17353:17360  amount1 */\n      dup11\n        /* \"CoreContracts/kalyswap-core/KalyswapFactory_flattened.sol\":17353:17364  amount1 > 0 */\n      gt\n        /* \"CoreContracts/kalyswap-core/KalyswapFactory_flattened.sol\":17338:17364  amount0 > 0 && amount1 > 0 */\n    tag_217:\n        /* \"CoreContracts/kalyswap-core/KalyswapFactory_flattened.sol\":17330:17408  require(amount0 > 0 && amount1 > 0, 'Kalyswap: INSUFFICIENT_LIQUIDITY_BURNED') */\n      tag_218\n      jumpi\n      mload(0x40)\n      shl(0xe5, 0x461bcd)\n      dup2\n      mstore\n      0x04\n      add\n      dup1\n      dup1\n      0x20\n      add\n      dup3\n      dup2\n      sub\n      dup3\n      mstore\n      0x27\n      dup2\n      mstore\n      0x20\n      add\n      dup1\n      data_e5e2a845b8424aa9f019bfb478b8094907c6e08ef0e71b5ca527cdbc32a0d5c3\n      0x27\n      swap2\n      codecopy\n      0x40\n      add\n      swap2\n      pop\n      pop\n      mload(0x40)\n      dup1\n      swap2\n      sub\n      swap1\n      revert\n    tag_218:\n        /* \"CoreContracts/kalyswap-core/KalyswapFactory_flattened.sol\":17418:17449  _burn(address(this), liquidity) */\n      tag_219\n        /* \"CoreContracts/kalyswap-core/KalyswapFactory_flattened.sol\":17432:17436  this */\n      address\n        /* \"CoreContracts/kalyswap-core/KalyswapFactory_flattened.sol\":17439:17448  liquidity */\n      dup5\n        /* \"CoreContracts/kalyswap-core/KalyswapFactory_flattened.sol\":17418:17423  _burn */\n      tag_220\n        /* \"CoreContracts/kalyswap-core/KalyswapFactory_flattened.sol\":17418:17449  _burn(address(this), liquidity) */\n      jump\t// in\n    tag_219:\n        /* \"CoreContracts/kalyswap-core/KalyswapFactory_flattened.sol\":17459:17494  _safeTransfer(_token0, to, amount0) */\n      tag_221\n        /* \"CoreContracts/kalyswap-core/KalyswapFactory_flattened.sol\":17473:17480  _token0 */\n      dup8\n        /* \"CoreContracts/kalyswap-core/KalyswapFactory_flattened.sol\":17482:17484  to */\n      dup14\n        /* \"CoreContracts/kalyswap-core/KalyswapFactory_flattened.sol\":17486:17493  amount0 */\n      dup14\n        /* \"CoreContracts/kalyswap-core/KalyswapFactory_flattened.sol\":17459:17472  _safeTransfer */\n      tag_126\n        /* \"CoreContracts/kalyswap-core/KalyswapFactory_flattened.sol\":17459:17494  _safeTransfer(_token0, to, amount0) */\n      jump\t// in\n    tag_221:\n        /* \"CoreContracts/kalyswap-core/KalyswapFactory_flattened.sol\":17504:17539  _safeTransfer(_token1, to, amount1) */\n      tag_222\n        /* \"CoreContracts/kalyswap-core/KalyswapFactory_flattened.sol\":17518:17525  _token1 */\n      dup7\n        /* \"CoreContracts/kalyswap-core/KalyswapFactory_flattened.sol\":17527:17529  to */\n      dup14\n        /* \"CoreContracts/kalyswap-core/KalyswapFactory_flattened.sol\":17531:17538  amount1 */\n      dup13\n        /* \"CoreContracts/kalyswap-core/KalyswapFactory_flattened.sol\":17504:17517  _safeTransfer */\n      tag_126\n        /* \"CoreContracts/kalyswap-core/KalyswapFactory_flattened.sol\":17504:17539  _safeTransfer(_token1, to, amount1) */\n      jump\t// in\n    tag_222:\n        /* \"CoreContracts/kalyswap-core/KalyswapFactory_flattened.sol\":17560:17600  IERC20(_token0).balanceOf(address(this)) */\n      0x40\n      dup1\n      mload\n      shl(0xe0, 0x70a08231)\n      dup2\n      mstore\n        /* \"CoreContracts/kalyswap-core/KalyswapFactory_flattened.sol\":17594:17598  this */\n      address\n        /* \"CoreContracts/kalyswap-core/KalyswapFactory_flattened.sol\":17560:17600  IERC20(_token0).balanceOf(address(this)) */\n      0x04\n      dup3\n      add\n      mstore\n      swap1\n      mload\n      sub(shl(0xa0, 0x01), 0x01)\n        /* \"CoreContracts/kalyswap-core/KalyswapFactory_flattened.sol\":17560:17585  IERC20(_token0).balanceOf */\n      dup10\n      and\n      swap2\n      0x70a08231\n      swap2\n        /* \"CoreContracts/kalyswap-core/KalyswapFactory_flattened.sol\":17560:17600  IERC20(_token0).balanceOf(address(this)) */\n      0x24\n      dup1\n      dup4\n      add\n      swap3\n      0x20\n      swap3\n      swap2\n      swap1\n      dup3\n      swap1\n      sub\n      add\n      dup2\n        /* \"CoreContracts/kalyswap-core/KalyswapFactory_flattened.sol\":17560:17585  IERC20(_token0).balanceOf */\n      dup7\n        /* \"CoreContracts/kalyswap-core/KalyswapFactory_flattened.sol\":17560:17600  IERC20(_token0).balanceOf(address(this)) */\n      dup1\n      extcodesize\n      iszero\n        /* \"--CODEGEN--\":5:7   */\n      dup1\n      iszero\n      tag_223\n      jumpi\n        /* \"--CODEGEN--\":30:31   */\n      0x00\n        /* \"--CODEGEN--\":27:28   */\n      dup1\n        /* \"--CODEGEN--\":20:32   */\n      revert\n        /* \"--CODEGEN--\":5:7   */\n    tag_223:\n        /* \"CoreContracts/kalyswap-core/KalyswapFactory_flattened.sol\":17560:17600  IERC20(_token0).balanceOf(address(this)) */\n      pop\n      gas\n      staticcall\n      iszero\n        /* \"--CODEGEN--\":8:17   */\n      dup1\n        /* \"--CODEGEN--\":5:7   */\n      iszero\n      tag_224\n      jumpi\n        /* \"--CODEGEN--\":45:61   */\n      returndatasize\n        /* \"--CODEGEN--\":42:43   */\n      0x00\n        /* \"--CODEGEN--\":39:40   */\n      dup1\n        /* \"--CODEGEN--\":24:62   */\n      returndatacopy\n        /* \"--CODEGEN--\":77:93   */\n      returndatasize\n        /* \"--CODEGEN--\":74:75   */\n      0x00\n        /* \"--CODEGEN--\":67:94   */\n      revert\n        /* \"--CODEGEN--\":5:7   */\n    tag_224:\n        /* \"CoreContracts/kalyswap-core/KalyswapFactory_flattened.sol\":17560:17600  IERC20(_token0).balanceOf(address(this)) */\n      pop\n      pop\n      pop\n      pop\n      mload(0x40)\n      returndatasize\n        /* \"--CODEGEN--\":13:15   */\n      0x20\n        /* \"--CODEGEN--\":8:11   */\n      dup2\n        /* \"--CODEGEN--\":5:16   */\n      lt\n        /* \"--CODEGEN--\":2:4   */\n      iszero\n      tag_225\n      jumpi\n        /* \"--CODEGEN--\":29:30   */\n      0x00\n        /* \"--CODEGEN--\":26:27   */\n      dup1\n        /* \"--CODEGEN--\":19:31   */\n      revert\n        /* \"--CODEGEN--\":2:4   */\n    tag_225:\n      pop\n        /* \"CoreContracts/kalyswap-core/KalyswapFactory_flattened.sol\":17560:17600  IERC20(_token0).balanceOf(address(this)) */\n      mload\n        /* \"CoreContracts/kalyswap-core/KalyswapFactory_flattened.sol\":17621:17661  IERC20(_token1).balanceOf(address(this)) */\n      0x40\n      dup1\n      mload\n      shl(0xe0, 0x70a08231)\n      dup2\n      mstore\n        /* \"CoreContracts/kalyswap-core/KalyswapFactory_flattened.sol\":17655:17659  this */\n      address\n        /* \"CoreContracts/kalyswap-core/KalyswapFactory_flattened.sol\":17621:17661  IERC20(_token1).balanceOf(address(this)) */\n      0x04\n      dup3\n      add\n      mstore\n      swap1\n      mload\n        /* \"CoreContracts/kalyswap-core/KalyswapFactory_flattened.sol\":17560:17600  IERC20(_token0).balanceOf(address(this)) */\n      swap2\n      swap7\n      pop\n      sub(shl(0xa0, 0x01), 0x01)\n        /* \"CoreContracts/kalyswap-core/KalyswapFactory_flattened.sol\":17621:17646  IERC20(_token1).balanceOf */\n      dup9\n      and\n      swap2\n      0x70a08231\n      swap2\n        /* \"CoreContracts/kalyswap-core/KalyswapFactory_flattened.sol\":17621:17661  IERC20(_token1).balanceOf(address(this)) */\n      0x24\n      dup1\n      dup3\n      add\n      swap3\n        /* \"CoreContracts/kalyswap-core/KalyswapFactory_flattened.sol\":17560:17600  IERC20(_token0).balanceOf(address(this)) */\n      0x20\n      swap3\n        /* \"CoreContracts/kalyswap-core/KalyswapFactory_flattened.sol\":17621:17661  IERC20(_token1).balanceOf(address(this)) */\n      swap1\n      swap2\n      swap1\n      dup3\n      swap1\n      sub\n      add\n      dup2\n        /* \"CoreContracts/kalyswap-core/KalyswapFactory_flattened.sol\":17621:17646  IERC20(_token1).balanceOf */\n      dup7\n        /* \"CoreContracts/kalyswap-core/KalyswapFactory_flattened.sol\":17621:17661  IERC20(_token1).balanceOf(address(this)) */\n      dup1\n      extcodesize\n      iszero\n        /* \"--CODEGEN--\":5:7   */\n      dup1\n      iszero\n      tag_226\n      jumpi\n        /* \"--CODEGEN--\":30:31   */\n      0x00\n        /* \"--CODEGEN--\":27:28   */\n      dup1\n        /* \"--CODEGEN--\":20:32   */\n      revert\n        /* \"--CODEGEN--\":5:7   */\n    tag_226:\n        /* \"CoreContracts/kalyswap-core/KalyswapFactory_flattened.sol\":17621:17661  IERC20(_token1).balanceOf(address(this)) */\n      pop\n      gas\n      staticcall\n      iszero\n        /* \"--CODEGEN--\":8:17   */\n      dup1\n        /* \"--CODEGEN--\":5:7   */\n      iszero\n      tag_227\n      jumpi\n        /* \"--CODEGEN--\":45:61   */\n      returndatasize\n        /* \"--CODEGEN--\":42:43   */\n      0x00\n        /* \"--CODEGEN--\":39:40   */\n      dup1\n        /* \"--CODEGEN--\":24:62   */\n      returndatacopy\n        /* \"--CODEGEN--\":77:93   */\n      returndatasize\n        /* \"--CODEGEN--\":74:75   */\n      0x00\n        /* \"--CODEGEN--\":67:94   */\n      revert\n        /* \"--CODEGEN--\":5:7   */\n    tag_227:\n        /* \"CoreContracts/kalyswap-core/KalyswapFactory_flattened.sol\":17621:17661  IERC20(_token1).balanceOf(address(this)) */\n      pop\n      pop\n      pop\n      pop\n      mload(0x40)\n      returndatasize\n        /* \"--CODEGEN--\":13:15   */\n      0x20\n        /* \"--CODEGEN--\":8:11   */\n      dup2\n        /* \"--CODEGEN--\":5:16   */\n      lt\n        /* \"--CODEGEN--\":2:4   */\n      iszero\n      tag_228\n      jumpi\n        /* \"--CODEGEN--\":29:30   */\n      0x00\n        /* \"--CODEGEN--\":26:27   */\n      dup1\n        /* \"--CODEGEN--\":19:31   */\n      revert\n        /* \"--CODEGEN--\":2:4   */\n    tag_228:\n      pop\n        /* \"CoreContracts/kalyswap-core/KalyswapFactory_flattened.sol\":17621:17661  IERC20(_token1).balanceOf(address(this)) */\n      mload\n      swap4\n      pop\n        /* \"CoreContracts/kalyswap-core/KalyswapFactory_flattened.sol\":17672:17721  _update(balance0, balance1, _reserve0, _reserve1) */\n      tag_229\n        /* \"CoreContracts/kalyswap-core/KalyswapFactory_flattened.sol\":17680:17688  balance0 */\n      dup6\n        /* \"CoreContracts/kalyswap-core/KalyswapFactory_flattened.sol\":17621:17661  IERC20(_token1).balanceOf(address(this)) */\n      dup6\n        /* \"CoreContracts/kalyswap-core/KalyswapFactory_flattened.sol\":17700:17709  _reserve0 */\n      dup12\n        /* \"CoreContracts/kalyswap-core/KalyswapFactory_flattened.sol\":17711:17720  _reserve1 */\n      dup12\n        /* \"CoreContracts/kalyswap-core/KalyswapFactory_flattened.sol\":17672:17679  _update */\n      tag_157\n        /* \"CoreContracts/kalyswap-core/KalyswapFactory_flattened.sol\":17672:17721  _update(balance0, balance1, _reserve0, _reserve1) */\n      jump\t// in\n    tag_229:\n        /* \"CoreContracts/kalyswap-core/KalyswapFactory_flattened.sol\":17735:17740  feeOn */\n      dup2\n        /* \"CoreContracts/kalyswap-core/KalyswapFactory_flattened.sol\":17731:17778  if (feeOn) kLast = uint(reserve0).mul(reserve1) */\n      iszero\n      tag_230\n      jumpi\n        /* \"CoreContracts/kalyswap-core/KalyswapFactory_flattened.sol\":17769:17777  reserve1 */\n      sload(0x08)\n        /* \"CoreContracts/kalyswap-core/KalyswapFactory_flattened.sol\":17750:17778  uint(reserve0).mul(reserve1) */\n      tag_231\n      swap1\n      sub(shl(0x70, 0x01), 0x01)\n        /* \"CoreContracts/kalyswap-core/KalyswapFactory_flattened.sol\":17755:17763  reserve0 */\n      dup1\n      dup3\n      and\n      swap2\n      shl(0x70, 0x01)\n        /* \"CoreContracts/kalyswap-core/KalyswapFactory_flattened.sol\":17769:17777  reserve1 */\n      swap1\n      div\n      and\n        /* \"CoreContracts/kalyswap-core/KalyswapFactory_flattened.sol\":17750:17768  uint(reserve0).mul */\n      tag_146\n        /* \"CoreContracts/kalyswap-core/KalyswapFactory_flattened.sol\":17750:17778  uint(reserve0).mul(reserve1) */\n      jump\t// in\n    tag_231:\n        /* \"CoreContracts/kalyswap-core/KalyswapFactory_flattened.sol\":17742:17747  kLast */\n      0x0b\n        /* \"CoreContracts/kalyswap-core/KalyswapFactory_flattened.sol\":17742:17778  kLast = uint(reserve0).mul(reserve1) */\n      sstore\n        /* \"CoreContracts/kalyswap-core/KalyswapFactory_flattened.sol\":17731:17778  if (feeOn) kLast = uint(reserve0).mul(reserve1) */\n    tag_230:\n        /* \"CoreContracts/kalyswap-core/KalyswapFactory_flattened.sol\":17833:17871  Burn(msg.sender, amount0, amount1, to) */\n      0x40\n      dup1\n      mload\n      dup13\n      dup2\n      mstore\n      0x20\n      dup2\n      add\n      dup13\n      swap1\n      mstore\n      dup2\n      mload\n      sub(shl(0xa0, 0x01), 0x01)\n      dup16\n      and\n      swap3\n        /* \"CoreContracts/kalyswap-core/KalyswapFactory_flattened.sol\":17838:17848  msg.sender */\n      caller\n      swap3\n        /* \"CoreContracts/kalyswap-core/KalyswapFactory_flattened.sol\":17833:17871  Burn(msg.sender, amount0, amount1, to) */\n      0xdccd412f0b1252819cb1fd330b93224ca42612892bb3f4f789976e6d81936496\n      swap3\n      swap1\n      dup2\n      swap1\n      sub\n      swap1\n      swap2\n      add\n      swap1\n      log3\n        /* \"CoreContracts/kalyswap-core/KalyswapFactory_flattened.sol\":11894:11895  _ */\n      pop\n      pop\n      pop\n      pop\n      pop\n      pop\n      pop\n      pop\n      pop\n        /* \"CoreContracts/kalyswap-core/KalyswapFactory_flattened.sol\":11916:11917  1 */\n      0x01\n        /* \"CoreContracts/kalyswap-core/KalyswapFactory_flattened.sol\":11905:11913  unlocked */\n      0x0c\n        /* \"CoreContracts/kalyswap-core/KalyswapFactory_flattened.sol\":11905:11917  unlocked = 1 */\n      dup2\n      swap1\n      sstore\n      pop\n        /* \"CoreContracts/kalyswap-core/KalyswapFactory_flattened.sol\":16435:17878  function burn(address to) external lock returns (uint amount0, uint amount1) {... */\n      swap2\n      pop\n      swap2\n      jump\t// out\n        /* \"CoreContracts/kalyswap-core/KalyswapFactory_flattened.sol\":4443:4480  string public constant symbol = 'KSL' */\n    tag_89:\n      mload(0x40)\n      dup1\n      0x40\n      add\n      0x40\n      mstore\n      dup1\n      0x03\n      dup2\n      mstore\n      0x20\n      add\n      0x4b534c0000000000000000000000000000000000000000000000000000000000\n      dup2\n      mstore\n      pop\n      dup2\n      jump\t// out\n        /* \"CoreContracts/kalyswap-core/KalyswapFactory_flattened.sol\":6535:6671  function transfer(address to, uint value) external returns (bool) {... */\n    tag_96:\n        /* \"CoreContracts/kalyswap-core/KalyswapFactory_flattened.sol\":6595:6599  bool */\n      0x00\n        /* \"CoreContracts/kalyswap-core/KalyswapFactory_flattened.sol\":6611:6643  _transfer(msg.sender, to, value) */\n      tag_160\n        /* \"CoreContracts/kalyswap-core/KalyswapFactory_flattened.sol\":6621:6631  msg.sender */\n      caller\n        /* \"CoreContracts/kalyswap-core/KalyswapFactory_flattened.sol\":6633:6635  to */\n      dup5\n        /* \"CoreContracts/kalyswap-core/KalyswapFactory_flattened.sol\":6637:6642  value */\n      dup5\n        /* \"CoreContracts/kalyswap-core/KalyswapFactory_flattened.sol\":6611:6620  _transfer */\n      tag_166\n        /* \"CoreContracts/kalyswap-core/KalyswapFactory_flattened.sol\":6611:6643  _transfer(msg.sender, to, value) */\n      jump\t// in\n        /* \"CoreContracts/kalyswap-core/KalyswapFactory_flattened.sol\":11064:11110  uint public constant MINIMUM_LIQUIDITY = 10**3 */\n    tag_98:\n        /* \"CoreContracts/kalyswap-core/KalyswapFactory_flattened.sol\":11105:11110  10**3 */\n      0x03e8\n        /* \"CoreContracts/kalyswap-core/KalyswapFactory_flattened.sol\":11064:11110  uint public constant MINIMUM_LIQUIDITY = 10**3 */\n      dup2\n      jump\t// out\n        /* \"CoreContracts/kalyswap-core/KalyswapFactory_flattened.sol\":19887:20216  function skim(address to) external lock {... */\n    tag_101:\n        /* \"CoreContracts/kalyswap-core/KalyswapFactory_flattened.sol\":11828:11836  unlocked */\n      sload(0x0c)\n        /* \"CoreContracts/kalyswap-core/KalyswapFactory_flattened.sol\":11840:11841  1 */\n      0x01\n        /* \"CoreContracts/kalyswap-core/KalyswapFactory_flattened.sol\":11828:11841  unlocked == 1 */\n      eq\n        /* \"CoreContracts/kalyswap-core/KalyswapFactory_flattened.sol\":11820:11862  require(unlocked == 1, 'Kalyswap: LOCKED') */\n      tag_235\n      jumpi\n      0x40\n      dup1\n      mload\n      shl(0xe5, 0x461bcd)\n      dup2\n      mstore\n      0x20\n      0x04\n      dup3\n      add\n      mstore\n      0x10\n      0x24\n      dup3\n      add\n      mstore\n      shl(0x82, 0x12d85b1e5cddd85c0e881313d0d2d151)\n      0x44\n      dup3\n      add\n      mstore\n      swap1\n      mload\n      swap1\n      dup2\n      swap1\n      sub\n      0x64\n      add\n      swap1\n      revert\n    tag_235:\n        /* \"CoreContracts/kalyswap-core/KalyswapFactory_flattened.sol\":11883:11884  0 */\n      0x00\n        /* \"CoreContracts/kalyswap-core/KalyswapFactory_flattened.sol\":11872:11880  unlocked */\n      0x0c\n        /* \"CoreContracts/kalyswap-core/KalyswapFactory_flattened.sol\":11872:11884  unlocked = 0 */\n      sstore\n        /* \"CoreContracts/kalyswap-core/KalyswapFactory_flattened.sol\":19955:19961  token0 */\n      sload(0x06)\n        /* \"CoreContracts/kalyswap-core/KalyswapFactory_flattened.sol\":20004:20010  token1 */\n      sload(0x07)\n        /* \"CoreContracts/kalyswap-core/KalyswapFactory_flattened.sol\":20107:20115  reserve0 */\n      sload(0x08)\n        /* \"CoreContracts/kalyswap-core/KalyswapFactory_flattened.sol\":20062:20102  IERC20(_token0).balanceOf(address(this)) */\n      0x40\n      dup1\n      mload\n      shl(0xe0, 0x70a08231)\n      dup2\n      mstore\n        /* \"CoreContracts/kalyswap-core/KalyswapFactory_flattened.sol\":20096:20100  this */\n      address\n        /* \"CoreContracts/kalyswap-core/KalyswapFactory_flattened.sol\":20062:20102  IERC20(_token0).balanceOf(address(this)) */\n      0x04\n      dup3\n      add\n      mstore\n      swap1\n      mload\n      sub(shl(0xa0, 0x01), 0x01)\n        /* \"CoreContracts/kalyswap-core/KalyswapFactory_flattened.sol\":19955:19961  token0 */\n      swap5\n      dup6\n      and\n      swap5\n        /* \"CoreContracts/kalyswap-core/KalyswapFactory_flattened.sol\":20004:20010  token1 */\n      swap1\n      swap4\n      and\n      swap3\n        /* \"CoreContracts/kalyswap-core/KalyswapFactory_flattened.sol\":20035:20117  _safeTransfer(_token0, to, IERC20(_token0).balanceOf(address(this)).sub(reserve0)) */\n      tag_237\n      swap3\n        /* \"CoreContracts/kalyswap-core/KalyswapFactory_flattened.sol\":19955:19961  token0 */\n      dup6\n      swap3\n        /* \"CoreContracts/kalyswap-core/KalyswapFactory_flattened.sol\":20058:20060  to */\n      dup8\n      swap3\n        /* \"CoreContracts/kalyswap-core/KalyswapFactory_flattened.sol\":20062:20116  IERC20(_token0).balanceOf(address(this)).sub(reserve0) */\n      tag_238\n      swap3\n      sub(shl(0x70, 0x01), 0x01)\n        /* \"CoreContracts/kalyswap-core/KalyswapFactory_flattened.sol\":20107:20115  reserve0 */\n      and\n      swap2\n        /* \"CoreContracts/kalyswap-core/KalyswapFactory_flattened.sol\":19955:19961  token0 */\n      dup6\n      swap2\n      0x70a08231\n      swap2\n        /* \"CoreContracts/kalyswap-core/KalyswapFactory_flattened.sol\":20062:20102  IERC20(_token0).balanceOf(address(this)) */\n      0x24\n      dup1\n      dup3\n      add\n      swap3\n      0x20\n      swap3\n      swap1\n      swap2\n      swap1\n      dup3\n      swap1\n      sub\n      add\n      dup2\n        /* \"CoreContracts/kalyswap-core/KalyswapFactory_flattened.sol\":19955:19961  token0 */\n      dup7\n        /* \"CoreContracts/kalyswap-core/KalyswapFactory_flattened.sol\":20062:20102  IERC20(_token0).balanceOf(address(this)) */\n      dup1\n      extcodesize\n      iszero\n        /* \"--CODEGEN--\":5:7   */\n      dup1\n      iszero\n      tag_239\n      jumpi\n        /* \"--CODEGEN--\":30:31   */\n      0x00\n        /* \"--CODEGEN--\":27:28   */\n      dup1\n        /* \"--CODEGEN--\":20:32   */\n      revert\n        /* \"--CODEGEN--\":5:7   */\n    tag_239:\n        /* \"CoreContracts/kalyswap-core/KalyswapFactory_flattened.sol\":20062:20102  IERC20(_token0).balanceOf(address(this)) */\n      pop\n      gas\n      staticcall\n      iszero\n        /* \"--CODEGEN--\":8:17   */\n      dup1\n        /* \"--CODEGEN--\":5:7   */\n      iszero\n      tag_240\n      jumpi\n        /* \"--CODEGEN--\":45:61   */\n      returndatasize\n        /* \"--CODEGEN--\":42:43   */\n      0x00\n        /* \"--CODEGEN--\":39:40   */\n      dup1\n        /* \"--CODEGEN--\":24:62   */\n      returndatacopy\n        /* \"--CODEGEN--\":77:93   */\n      returndatasize\n        /* \"--CODEGEN--\":74:75   */\n      0x00\n        /* \"--CODEGEN--\":67:94   */\n      revert\n        /* \"--CODEGEN--\":5:7   */\n    tag_240:\n        /* \"CoreContracts/kalyswap-core/KalyswapFactory_flattened.sol\":20062:20102  IERC20(_token0).balanceOf(address(this)) */\n      pop\n      pop\n      pop\n      pop\n      mload(0x40)\n      returndatasize\n        /* \"--CODEGEN--\":13:15   */\n      0x20\n        /* \"--CODEGEN--\":8:11   */\n      dup2\n        /* \"--CODEGEN--\":5:16   */\n      lt\n        /* \"--CODEGEN--\":2:4   */\n      iszero\n      tag_241\n      jumpi\n        /* \"--CODEGEN--\":29:30   */\n      0x00\n        /* \"--CODEGEN--\":26:27   */\n      dup1\n        /* \"--CODEGEN--\":19:31   */\n      revert\n        /* \"--CODEGEN--\":2:4   */\n    tag_241:\n      pop\n        /* \"CoreContracts/kalyswap-core/KalyswapFactory_flattened.sol\":20062:20102  IERC20(_token0).balanceOf(address(this)) */\n      mload\n      swap1\n        /* \"CoreContracts/kalyswap-core/KalyswapFactory_flattened.sol\":20062:20116  IERC20(_token0).balanceOf(address(this)).sub(reserve0) */\n      0xffffffff\n        /* \"CoreContracts/kalyswap-core/KalyswapFactory_flattened.sol\":20062:20106  IERC20(_token0).balanceOf(address(this)).sub */\n      tag_148\n        /* \"CoreContracts/kalyswap-core/KalyswapFactory_flattened.sol\":20062:20116  IERC20(_token0).balanceOf(address(this)).sub(reserve0) */\n      and\n      jump\t// in\n    tag_238:\n        /* \"CoreContracts/kalyswap-core/KalyswapFactory_flattened.sol\":20035:20048  _safeTransfer */\n      tag_126\n        /* \"CoreContracts/kalyswap-core/KalyswapFactory_flattened.sol\":20035:20117  _safeTransfer(_token0, to, IERC20(_token0).balanceOf(address(this)).sub(reserve0)) */\n      jump\t// in\n    tag_237:\n        /* \"CoreContracts/kalyswap-core/KalyswapFactory_flattened.sol\":20199:20207  reserve1 */\n      sload(0x08)\n        /* \"CoreContracts/kalyswap-core/KalyswapFactory_flattened.sol\":20154:20194  IERC20(_token1).balanceOf(address(this)) */\n      0x40\n      dup1\n      mload\n      shl(0xe0, 0x70a08231)\n      dup2\n      mstore\n        /* \"CoreContracts/kalyswap-core/KalyswapFactory_flattened.sol\":20188:20192  this */\n      address\n        /* \"CoreContracts/kalyswap-core/KalyswapFactory_flattened.sol\":20154:20194  IERC20(_token1).balanceOf(address(this)) */\n      0x04\n      dup3\n      add\n      mstore\n      swap1\n      mload\n        /* \"CoreContracts/kalyswap-core/KalyswapFactory_flattened.sol\":20127:20209  _safeTransfer(_token1, to, IERC20(_token1).balanceOf(address(this)).sub(reserve1)) */\n      tag_242\n      swap3\n        /* \"CoreContracts/kalyswap-core/KalyswapFactory_flattened.sol\":20141:20148  _token1 */\n      dup5\n      swap3\n        /* \"CoreContracts/kalyswap-core/KalyswapFactory_flattened.sol\":20150:20152  to */\n      dup8\n      swap3\n        /* \"CoreContracts/kalyswap-core/KalyswapFactory_flattened.sol\":20154:20208  IERC20(_token1).balanceOf(address(this)).sub(reserve1) */\n      tag_238\n      swap3\n      shl(0x70, 0x01)\n        /* \"CoreContracts/kalyswap-core/KalyswapFactory_flattened.sol\":20199:20207  reserve1 */\n      swap1\n      div\n      sub(shl(0x70, 0x01), 0x01)\n      and\n      swap2\n      sub(shl(0xa0, 0x01), 0x01)\n        /* \"CoreContracts/kalyswap-core/KalyswapFactory_flattened.sol\":20154:20179  IERC20(_token1).balanceOf */\n      dup7\n      and\n      swap2\n      0x70a08231\n      swap2\n        /* \"CoreContracts/kalyswap-core/KalyswapFactory_flattened.sol\":20154:20194  IERC20(_token1).balanceOf(address(this)) */\n      0x24\n      dup1\n      dup3\n      add\n      swap3\n      0x20\n      swap3\n      swap1\n      swap2\n      swap1\n      dup3\n      swap1\n      sub\n      add\n      dup2\n        /* \"CoreContracts/kalyswap-core/KalyswapFactory_flattened.sol\":20154:20179  IERC20(_token1).balanceOf */\n      dup7\n        /* \"CoreContracts/kalyswap-core/KalyswapFactory_flattened.sol\":20154:20194  IERC20(_token1).balanceOf(address(this)) */\n      dup1\n      extcodesize\n      iszero\n        /* \"--CODEGEN--\":5:7   */\n      dup1\n      iszero\n      tag_239\n      jumpi\n        /* \"--CODEGEN--\":30:31   */\n      0x00\n        /* \"--CODEGEN--\":27:28   */\n      dup1\n        /* \"--CODEGEN--\":20:32   */\n      revert\n        /* \"CoreContracts/kalyswap-core/KalyswapFactory_flattened.sol\":20127:20209  _safeTransfer(_token1, to, IERC20(_token1).balanceOf(address(this)).sub(reserve1)) */\n    tag_242:\n      pop\n      pop\n        /* \"CoreContracts/kalyswap-core/KalyswapFactory_flattened.sol\":11916:11917  1 */\n      0x01\n        /* \"CoreContracts/kalyswap-core/KalyswapFactory_flattened.sol\":11905:11913  unlocked */\n      0x0c\n        /* \"CoreContracts/kalyswap-core/KalyswapFactory_flattened.sol\":11905:11917  unlocked = 1 */\n      sstore\n      pop\n        /* \"CoreContracts/kalyswap-core/KalyswapFactory_flattened.sol\":19887:20216  function skim(address to) external lock {... */\n      jump\t// out\n        /* \"CoreContracts/kalyswap-core/KalyswapFactory_flattened.sol\":11211:11233  address public factory */\n    tag_103:\n      and(sub(shl(0xa0, 0x01), 0x01), sload(0x05))\n      dup2\n      jump\t// out\n        /* \"CoreContracts/kalyswap-core/KalyswapFactory_flattened.sol\":11266:11287  address public token1 */\n    tag_105:\n      and(sub(shl(0xa0, 0x01), 0x01), sload(0x07))\n      dup2\n      jump\t// out\n        /* \"CoreContracts/kalyswap-core/KalyswapFactory_flattened.sol\":6978:7638  function permit(address owner, address spender, uint value, uint deadline, uint8 v, bytes32 r, bytes32 s) external {... */\n    tag_108:\n        /* \"CoreContracts/kalyswap-core/KalyswapFactory_flattened.sol\":7123:7138  block.timestamp */\n      timestamp\n        /* \"CoreContracts/kalyswap-core/KalyswapFactory_flattened.sol\":7111:7119  deadline */\n      dup5\n        /* \"CoreContracts/kalyswap-core/KalyswapFactory_flattened.sol\":7111:7138  deadline >= block.timestamp */\n      lt\n      iszero\n        /* \"CoreContracts/kalyswap-core/KalyswapFactory_flattened.sol\":7103:7160  require(deadline >= block.timestamp, 'Kalyswap: EXPIRED') */\n      tag_248\n      jumpi\n      0x40\n      dup1\n      mload\n      shl(0xe5, 0x461bcd)\n      dup2\n      mstore\n      0x20\n      0x04\n      dup3\n      add\n      mstore\n      0x11\n      0x24\n      dup3\n      add\n      mstore\n      0x4b616c79737761703a2045585049524544000000000000000000000000000000\n      0x44\n      dup3\n      add\n      mstore\n      swap1\n      mload\n      swap1\n      dup2\n      swap1\n      sub\n      0x64\n      add\n      swap1\n      revert\n    tag_248:\n        /* \"CoreContracts/kalyswap-core/KalyswapFactory_flattened.sol\":7272:7288  DOMAIN_SEPARATOR */\n      sload(0x03)\n      sub(shl(0xa0, 0x01), 0x01)\n        /* \"CoreContracts/kalyswap-core/KalyswapFactory_flattened.sol\":7367:7380  nonces[owner] */\n      dup9\n      dup2\n      and\n        /* \"CoreContracts/kalyswap-core/KalyswapFactory_flattened.sol\":7170:7184  bytes32 digest */\n      0x00\n        /* \"CoreContracts/kalyswap-core/KalyswapFactory_flattened.sol\":7367:7380  nonces[owner] */\n      dup2\n      dup2\n      mstore\n        /* \"CoreContracts/kalyswap-core/KalyswapFactory_flattened.sol\":7367:7373  nonces */\n      0x04\n        /* \"CoreContracts/kalyswap-core/KalyswapFactory_flattened.sol\":7367:7380  nonces[owner] */\n      0x20\n      swap1\n      dup2\n      mstore\n      0x40\n      dup1\n      dup4\n      keccak256\n        /* \"CoreContracts/kalyswap-core/KalyswapFactory_flattened.sol\":7367:7382  nonces[owner]++ */\n      dup1\n      sload\n      0x01\n      dup2\n      dup2\n      add\n      swap1\n      swap3\n      sstore\n        /* \"CoreContracts/kalyswap-core/KalyswapFactory_flattened.sol\":7316:7393  abi.encode(PERMIT_TYPEHASH, owner, spender, value, nonces[owner]++, deadline) */\n      dup3\n      mload\n        /* \"CoreContracts/kalyswap-core/KalyswapFactory_flattened.sol\":4855:4921  0x6e71edae12b1b97f4d1f60370fef10105fa2faae0126114a169c64845d6126c9 */\n      0x6e71edae12b1b97f4d1f60370fef10105fa2faae0126114a169c64845d6126c9\n        /* \"CoreContracts/kalyswap-core/KalyswapFactory_flattened.sol\":7316:7393  abi.encode(PERMIT_TYPEHASH, owner, spender, value, nonces[owner]++, deadline) */\n      dup2\n      dup7\n      add\n      mstore\n      dup1\n      dup5\n      add\n      swap7\n      swap1\n      swap7\n      mstore\n      swap6\n      dup14\n      and\n      0x60\n      dup7\n      add\n      mstore\n      0x80\n      dup6\n      add\n      dup13\n      swap1\n      mstore\n      0xa0\n      dup6\n      add\n      swap6\n      swap1\n      swap6\n      mstore\n      0xc0\n      dup1\n      dup6\n      add\n      dup12\n      swap1\n      mstore\n      dup2\n      mload\n        /* \"--CODEGEN--\":26:47   */\n      dup1\n      dup7\n      sub\n        /* \"--CODEGEN--\":22:54   */\n      swap1\n      swap2\n      add\n        /* \"--CODEGEN--\":6:55   */\n      dup2\n      mstore\n        /* \"CoreContracts/kalyswap-core/KalyswapFactory_flattened.sol\":7316:7393  abi.encode(PERMIT_TYPEHASH, owner, spender, value, nonces[owner]++, deadline) */\n      0xe0\n      dup6\n      add\n      dup3\n      mstore\n        /* \"CoreContracts/kalyswap-core/KalyswapFactory_flattened.sol\":7306:7394  keccak256(abi.encode(PERMIT_TYPEHASH, owner, spender, value, nonces[owner]++, deadline)) */\n      dup1\n      mload\n      swap1\n      dup4\n      add\n      keccak256\n        /* \"CoreContracts/kalyswap-core/KalyswapFactory_flattened.sol\":7210:7408  abi.encodePacked(... */\n      0x1901000000000000000000000000000000000000000000000000000000000000\n      0x0100\n      dup7\n      add\n      mstore\n      0x0102\n      dup6\n      add\n      swap7\n      swap1\n      swap7\n      mstore\n      0x0122\n      dup1\n      dup6\n      add\n      swap7\n      swap1\n      swap7\n      mstore\n      dup1\n      mload\n        /* \"--CODEGEN--\":26:47   */\n      dup1\n      dup6\n      sub\n        /* \"--CODEGEN--\":22:54   */\n      swap1\n      swap7\n      add\n        /* \"--CODEGEN--\":6:55   */\n      dup7\n      mstore\n        /* \"CoreContracts/kalyswap-core/KalyswapFactory_flattened.sol\":7210:7408  abi.encodePacked(... */\n      0x0142\n      dup5\n      add\n      dup1\n      dup3\n      mstore\n        /* \"CoreContracts/kalyswap-core/KalyswapFactory_flattened.sol\":7187:7418  keccak256(... */\n      dup7\n      mload\n      swap7\n      dup4\n      add\n      swap7\n      swap1\n      swap7\n      keccak256\n        /* \"CoreContracts/kalyswap-core/KalyswapFactory_flattened.sol\":7455:7481  ecrecover(digest, v, r, s) */\n      swap6\n      dup4\n      swap1\n      mstore\n      0x0162\n      dup5\n      add\n      dup1\n      dup3\n      mstore\n      dup7\n      swap1\n      mstore\n      0xff\n      dup10\n      and\n      0x0182\n      dup6\n      add\n      mstore\n      0x01a2\n      dup5\n      add\n      dup9\n      swap1\n      mstore\n      0x01c2\n      dup5\n      add\n      dup8\n      swap1\n      mstore\n      mload\n        /* \"CoreContracts/kalyswap-core/KalyswapFactory_flattened.sol\":7170:7184  bytes32 digest */\n      swap2\n      swap4\n      swap3\n        /* \"CoreContracts/kalyswap-core/KalyswapFactory_flattened.sol\":7455:7481  ecrecover(digest, v, r, s) */\n      0x01e2\n      dup1\n      dup3\n      add\n      swap4\n      not(0x1f)\n      dup2\n      add\n      swap3\n      dup2\n      swap1\n      sub\n      swap1\n      swap2\n      add\n      swap1\n      dup6\n      gas\n      staticcall\n      iszero\n        /* \"--CODEGEN--\":8:17   */\n      dup1\n        /* \"--CODEGEN--\":5:7   */\n      iszero\n      tag_249\n      jumpi\n        /* \"--CODEGEN--\":45:61   */\n      returndatasize\n        /* \"--CODEGEN--\":42:43   */\n      0x00\n        /* \"--CODEGEN--\":39:40   */\n      dup1\n        /* \"--CODEGEN--\":24:62   */\n      returndatacopy\n        /* \"--CODEGEN--\":77:93   */\n      returndatasize\n        /* \"--CODEGEN--\":74:75   */\n      0x00\n        /* \"--CODEGEN--\":67:94   */\n      revert\n        /* \"--CODEGEN--\":5:7   */\n    tag_249:\n      pop\n      pop\n        /* \"CoreContracts/kalyswap-core/KalyswapFactory_flattened.sol\":7455:7481  ecrecover(digest, v, r, s) */\n      mload(add(not(0x1f), mload(0x40)))\n      swap2\n      pop\n      pop\n      sub(shl(0xa0, 0x01), 0x01)\n        /* \"CoreContracts/kalyswap-core/KalyswapFactory_flattened.sol\":7499:7529  recoveredAddress != address(0) */\n      dup2\n      and\n      iszero\n      dup1\n      iszero\n      swap1\n        /* \"CoreContracts/kalyswap-core/KalyswapFactory_flattened.sol\":7499:7558  recoveredAddress != address(0) && recoveredAddress == owner */\n      tag_250\n      jumpi\n      pop\n      sub(shl(0xa0, 0x01), 0x01)\n        /* \"CoreContracts/kalyswap-core/KalyswapFactory_flattened.sol\":7533:7558  recoveredAddress == owner */\n      dup2\n      dup2\n      and\n      swap1\n      dup11\n      and\n      eq\n        /* \"CoreContracts/kalyswap-core/KalyswapFactory_flattened.sol\":7499:7558  recoveredAddress != address(0) && recoveredAddress == owner */\n    tag_250:\n        /* \"CoreContracts/kalyswap-core/KalyswapFactory_flattened.sol\":7491:7590  require(recoveredAddress != address(0) && recoveredAddress == owner, 'Kalyswap: INVALID_SIGNATURE') */\n      tag_251\n      jumpi\n      0x40\n      dup1\n      mload\n      shl(0xe5, 0x461bcd)\n      dup2\n      mstore\n      0x20\n      0x04\n      dup3\n      add\n      mstore\n      0x1b\n      0x24\n      dup3\n      add\n      mstore\n      0x4b616c79737761703a20494e56414c49445f5349474e41545552450000000000\n      0x44\n      dup3\n      add\n      mstore\n      swap1\n      mload\n      swap1\n      dup2\n      swap1\n      sub\n      0x64\n      add\n      swap1\n      revert\n    tag_251:\n        /* \"CoreContracts/kalyswap-core/KalyswapFactory_flattened.sol\":7600:7631  _approve(owner, spender, value) */\n      tag_252\n        /* \"CoreContracts/kalyswap-core/KalyswapFactory_flattened.sol\":7609:7614  owner */\n      dup10\n        /* \"CoreContracts/kalyswap-core/KalyswapFactory_flattened.sol\":7616:7623  spender */\n      dup10\n        /* \"CoreContracts/kalyswap-core/KalyswapFactory_flattened.sol\":7625:7630  value */\n      dup10\n        /* \"CoreContracts/kalyswap-core/KalyswapFactory_flattened.sol\":7600:7608  _approve */\n      tag_161\n        /* \"CoreContracts/kalyswap-core/KalyswapFactory_flattened.sol\":7600:7631  _approve(owner, spender, value) */\n      jump\t// in\n    tag_252:\n        /* \"CoreContracts/kalyswap-core/KalyswapFactory_flattened.sol\":6978:7638  function permit(address owner, address spender, uint value, uint deadline, uint8 v, bytes32 r, bytes32 s) external {... */\n      pop\n      pop\n      pop\n      pop\n      pop\n      pop\n      pop\n      pop\n      pop\n      jump\t// out\n        /* \"CoreContracts/kalyswap-core/KalyswapFactory_flattened.sol\":4604:4665  mapping(address => mapping(address => uint)) public allowance */\n    tag_111:\n      0x02\n      0x20\n      swap1\n      dup2\n      mstore\n      0x00\n      swap3\n      dup4\n      mstore\n      0x40\n      dup1\n      dup5\n      keccak256\n      swap1\n      swap2\n      mstore\n      swap1\n      dup3\n      mstore\n      swap1\n      keccak256\n      sload\n      dup2\n      jump\t// out\n        /* \"CoreContracts/kalyswap-core/KalyswapFactory_flattened.sol\":20262:20418  function sync() external lock {... */\n    tag_113:\n        /* \"CoreContracts/kalyswap-core/KalyswapFactory_flattened.sol\":11828:11836  unlocked */\n      sload(0x0c)\n        /* \"CoreContracts/kalyswap-core/KalyswapFactory_flattened.sol\":11840:11841  1 */\n      0x01\n        /* \"CoreContracts/kalyswap-core/KalyswapFactory_flattened.sol\":11828:11841  unlocked == 1 */\n      eq\n        /* \"CoreContracts/kalyswap-core/KalyswapFactory_flattened.sol\":11820:11862  require(unlocked == 1, 'Kalyswap: LOCKED') */\n      tag_254\n      jumpi\n      0x40\n      dup1\n      mload\n      shl(0xe5, 0x461bcd)\n      dup2\n      mstore\n      0x20\n      0x04\n      dup3\n      add\n      mstore\n      0x10\n      0x24\n      dup3\n      add\n      mstore\n      shl(0x82, 0x12d85b1e5cddd85c0e881313d0d2d151)\n      0x44\n      dup3\n      add\n      mstore\n      swap1\n      mload\n      swap1\n      dup2\n      swap1\n      sub\n      0x64\n      add\n      swap1\n      revert\n    tag_254:\n        /* \"CoreContracts/kalyswap-core/KalyswapFactory_flattened.sol\":11883:11884  0 */\n      0x00\n        /* \"CoreContracts/kalyswap-core/KalyswapFactory_flattened.sol\":11872:11880  unlocked */\n      0x0c\n        /* \"CoreContracts/kalyswap-core/KalyswapFactory_flattened.sol\":11872:11884  unlocked = 0 */\n      sstore\n        /* \"CoreContracts/kalyswap-core/KalyswapFactory_flattened.sol\":20317:20323  token0 */\n      sload(0x06)\n        /* \"CoreContracts/kalyswap-core/KalyswapFactory_flattened.sol\":20310:20349  IERC20(token0).balanceOf(address(this)) */\n      0x40\n      dup1\n      mload\n      shl(0xe0, 0x70a08231)\n      dup2\n      mstore\n        /* \"CoreContracts/kalyswap-core/KalyswapFactory_flattened.sol\":20343:20347  this */\n      address\n        /* \"CoreContracts/kalyswap-core/KalyswapFactory_flattened.sol\":20310:20349  IERC20(token0).balanceOf(address(this)) */\n      0x04\n      dup3\n      add\n      mstore\n      swap1\n      mload\n        /* \"CoreContracts/kalyswap-core/KalyswapFactory_flattened.sol\":20302:20411  _update(IERC20(token0).balanceOf(address(this)), IERC20(token1).balanceOf(address(this)), reserve0, reserve1) */\n      tag_256\n      swap3\n      sub(shl(0xa0, 0x01), 0x01)\n        /* \"CoreContracts/kalyswap-core/KalyswapFactory_flattened.sol\":20317:20323  token0 */\n      and\n      swap2\n      0x70a08231\n      swap2\n        /* \"CoreContracts/kalyswap-core/KalyswapFactory_flattened.sol\":20310:20349  IERC20(token0).balanceOf(address(this)) */\n      0x24\n      dup1\n      dup4\n      add\n      swap3\n      0x20\n      swap3\n      swap2\n      swap1\n      dup3\n      swap1\n      sub\n      add\n      dup2\n        /* \"CoreContracts/kalyswap-core/KalyswapFactory_flattened.sol\":20317:20323  token0 */\n      dup7\n        /* \"CoreContracts/kalyswap-core/KalyswapFactory_flattened.sol\":20310:20349  IERC20(token0).balanceOf(address(this)) */\n      dup1\n      extcodesize\n      iszero\n        /* \"--CODEGEN--\":5:7   */\n      dup1\n      iszero\n      tag_257\n      jumpi\n        /* \"--CODEGEN--\":30:31   */\n      0x00\n        /* \"--CODEGEN--\":27:28   */\n      dup1\n        /* \"--CODEGEN--\":20:32   */\n      revert\n        /* \"--CODEGEN--\":5:7   */\n    tag_257:\n        /* \"CoreContracts/kalyswap-core/KalyswapFactory_flattened.sol\":20310:20349  IERC20(token0).balanceOf(address(this)) */\n      pop\n      gas\n      staticcall\n      iszero\n        /* \"--CODEGEN--\":8:17   */\n      dup1\n        /* \"--CODEGEN--\":5:7   */\n      iszero\n      tag_258\n      jumpi\n        /* \"--CODEGEN--\":45:61   */\n      returndatasize\n        /* \"--CODEGEN--\":42:43   */\n      0x00\n        /* \"--CODEGEN--\":39:40   */\n      dup1\n        /* \"--CODEGEN--\":24:62   */\n      returndatacopy\n        /* \"--CODEGEN--\":77:93   */\n      returndatasize\n        /* \"--CODEGEN--\":74:75   */\n      0x00\n        /* \"--CODEGEN--\":67:94   */\n      revert\n        /* \"--CODEGEN--\":5:7   */\n    tag_258:\n        /* \"CoreContracts/kalyswap-core/KalyswapFactory_flattened.sol\":20310:20349  IERC20(token0).balanceOf(address(this)) */\n      pop\n      pop\n      pop\n      pop\n      mload(0x40)\n      returndatasize\n        /* \"--CODEGEN--\":13:15   */\n      0x20\n        /* \"--CODEGEN--\":8:11   */\n      dup2\n        /* \"--CODEGEN--\":5:16   */\n      lt\n        /* \"--CODEGEN--\":2:4   */\n      iszero\n      tag_259\n      jumpi\n        /* \"--CODEGEN--\":29:30   */\n      0x00\n        /* \"--CODEGEN--\":26:27   */\n      dup1\n        /* \"--CODEGEN--\":19:31   */\n      revert\n        /* \"--CODEGEN--\":2:4   */\n    tag_259:\n      pop\n        /* \"CoreContracts/kalyswap-core/KalyswapFactory_flattened.sol\":20310:20349  IERC20(token0).balanceOf(address(this)) */\n      mload\n        /* \"CoreContracts/kalyswap-core/KalyswapFactory_flattened.sol\":20358:20364  token1 */\n      sload(0x07)\n        /* \"CoreContracts/kalyswap-core/KalyswapFactory_flattened.sol\":20351:20390  IERC20(token1).balanceOf(address(this)) */\n      0x40\n      dup1\n      mload\n      shl(0xe0, 0x70a08231)\n      dup2\n      mstore\n        /* \"CoreContracts/kalyswap-core/KalyswapFactory_flattened.sol\":20384:20388  this */\n      address\n        /* \"CoreContracts/kalyswap-core/KalyswapFactory_flattened.sol\":20351:20390  IERC20(token1).balanceOf(address(this)) */\n      0x04\n      dup3\n      add\n      mstore\n      swap1\n      mload\n      sub(shl(0xa0, 0x01), 0x01)\n        /* \"CoreContracts/kalyswap-core/KalyswapFactory_flattened.sol\":20358:20364  token1 */\n      swap1\n      swap3\n      and\n      swap2\n      0x70a08231\n      swap2\n        /* \"CoreContracts/kalyswap-core/KalyswapFactory_flattened.sol\":20351:20390  IERC20(token1).balanceOf(address(this)) */\n      0x24\n      dup1\n      dup3\n      add\n      swap3\n        /* \"CoreContracts/kalyswap-core/KalyswapFactory_flattened.sol\":20310:20349  IERC20(token0).balanceOf(address(this)) */\n      0x20\n      swap3\n        /* \"CoreContracts/kalyswap-core/KalyswapFactory_flattened.sol\":20351:20390  IERC20(token1).balanceOf(address(this)) */\n      swap1\n      swap2\n      swap1\n      dup3\n      swap1\n      sub\n      add\n      dup2\n        /* \"CoreContracts/kalyswap-core/KalyswapFactory_flattened.sol\":20358:20364  token1 */\n      dup7\n        /* \"CoreContracts/kalyswap-core/KalyswapFactory_flattened.sol\":20351:20390  IERC20(token1).balanceOf(address(this)) */\n      dup1\n      extcodesize\n      iszero\n        /* \"--CODEGEN--\":5:7   */\n      dup1\n      iszero\n      tag_260\n      jumpi\n        /* \"--CODEGEN--\":30:31   */\n      0x00\n        /* \"--CODEGEN--\":27:28   */\n      dup1\n        /* \"--CODEGEN--\":20:32   */\n      revert\n        /* \"--CODEGEN--\":5:7   */\n    tag_260:\n        /* \"CoreContracts/kalyswap-core/KalyswapFactory_flattened.sol\":20351:20390  IERC20(token1).balanceOf(address(this)) */\n      pop\n      gas\n      staticcall\n      iszero\n        /* \"--CODEGEN--\":8:17   */\n      dup1\n        /* \"--CODEGEN--\":5:7   */\n      iszero\n      tag_261\n      jumpi\n        /* \"--CODEGEN--\":45:61   */\n      returndatasize\n        /* \"--CODEGEN--\":42:43   */\n      0x00\n        /* \"--CODEGEN--\":39:40   */\n      dup1\n        /* \"--CODEGEN--\":24:62   */\n      returndatacopy\n        /* \"--CODEGEN--\":77:93   */\n      returndatasize\n        /* \"--CODEGEN--\":74:75   */\n      0x00\n        /* \"--CODEGEN--\":67:94   */\n      revert\n        /* \"--CODEGEN--\":5:7   */\n    tag_261:\n        /* \"CoreContracts/kalyswap-core/KalyswapFactory_flattened.sol\":20351:20390  IERC20(token1).balanceOf(address(this)) */\n      pop\n      pop\n      pop\n      pop\n      mload(0x40)\n      returndatasize\n        /* \"--CODEGEN--\":13:15   */\n      0x20\n        /* \"--CODEGEN--\":8:11   */\n      dup2\n        /* \"--CODEGEN--\":5:16   */\n      lt\n        /* \"--CODEGEN--\":2:4   */\n      iszero\n      tag_262\n      jumpi\n        /* \"--CODEGEN--\":29:30   */\n      0x00\n        /* \"--CODEGEN--\":26:27   */\n      dup1\n        /* \"--CODEGEN--\":19:31   */\n      revert\n        /* \"--CODEGEN--\":2:4   */\n    tag_262:\n      pop\n        /* \"CoreContracts/kalyswap-core/KalyswapFactory_flattened.sol\":20351:20390  IERC20(token1).balanceOf(address(this)) */\n      mload\n        /* \"CoreContracts/kalyswap-core/KalyswapFactory_flattened.sol\":20392:20400  reserve0 */\n      sload(0x08)\n      sub(shl(0x70, 0x01), 0x01)\n      dup1\n      dup3\n      and\n      swap2\n      shl(0x70, 0x01)\n        /* \"CoreContracts/kalyswap-core/KalyswapFactory_flattened.sol\":20402:20410  reserve1 */\n      swap1\n      div\n      and\n        /* \"CoreContracts/kalyswap-core/KalyswapFactory_flattened.sol\":20302:20309  _update */\n      tag_157\n        /* \"CoreContracts/kalyswap-core/KalyswapFactory_flattened.sol\":20302:20411  _update(IERC20(token0).balanceOf(address(this)), IERC20(token1).balanceOf(address(this)), reserve0, reserve1) */\n      jump\t// in\n    tag_256:\n        /* \"CoreContracts/kalyswap-core/KalyswapFactory_flattened.sol\":11916:11917  1 */\n      0x01\n        /* \"CoreContracts/kalyswap-core/KalyswapFactory_flattened.sol\":11905:11913  unlocked */\n      0x0c\n        /* \"CoreContracts/kalyswap-core/KalyswapFactory_flattened.sol\":11905:11917  unlocked = 1 */\n      sstore\n        /* \"CoreContracts/kalyswap-core/KalyswapFactory_flattened.sol\":20262:20418  function sync() external lock {... */\n      jump\t// out\n        /* \"CoreContracts/kalyswap-core/KalyswapFactory_flattened.sol\":12163:12446  function _safeTransfer(address token, address to, uint value) private {... */\n    tag_126:\n        /* \"CoreContracts/kalyswap-core/KalyswapFactory_flattened.sol\":11168:11202  bytes('transfer(address,uint256)') */\n      0x40\n      dup1\n      mload\n      dup1\n      dup3\n      add\n      dup3\n      mstore\n      0x19\n      dup2\n      mstore\n      0x7472616e7366657228616464726573732c75696e743235362900000000000000\n      0x20\n      swap2\n      dup3\n      add\n      mstore\n        /* \"CoreContracts/kalyswap-core/KalyswapFactory_flattened.sol\":12290:12333  abi.encodeWithSelector(SELECTOR, to, value) */\n      dup2\n      mload\n      sub(shl(0xa0, 0x01), 0x01)\n      dup6\n      dup2\n      and\n      0x24\n      dup4\n      add\n      mstore\n      0x44\n      dup1\n      dup4\n      add\n      dup7\n      swap1\n      mstore\n      dup5\n      mload\n        /* \"--CODEGEN--\":26:47   */\n      dup1\n      dup5\n      sub\n        /* \"--CODEGEN--\":22:54   */\n      swap1\n      swap2\n      add\n        /* \"--CODEGEN--\":6:55   */\n      dup2\n      mstore\n        /* \"CoreContracts/kalyswap-core/KalyswapFactory_flattened.sol\":12290:12333  abi.encodeWithSelector(SELECTOR, to, value) */\n      0x64\n      swap1\n      swap3\n      add\n      dup5\n      mstore\n        /* \"--CODEGEN--\":25:43   */\n      swap2\n      dup2\n      add\n        /* \"--CODEGEN--\":61:78   */\n      dup1\n      mload\n      sub(shl(0xe0, 0x01), 0x01)\n        /* \"--CODEGEN--\":182:197   */\n      and\n        /* \"CoreContracts/kalyswap-core/KalyswapFactory_flattened.sol\":12290:12333  abi.encodeWithSelector(SELECTOR, to, value) */\n      0xa9059cbb00000000000000000000000000000000000000000000000000000000\n        /* \"--CODEGEN--\":179:208   */\n      or\n        /* \"--CODEGEN--\":160:209   */\n      dup2\n      mstore\n        /* \"CoreContracts/kalyswap-core/KalyswapFactory_flattened.sol\":12279:12334  token.call(abi.encodeWithSelector(SELECTOR, to, value)) */\n      swap3\n      mload\n      dup2\n      mload\n      0x00\n      swap5\n        /* \"CoreContracts/kalyswap-core/KalyswapFactory_flattened.sol\":12258:12275  bytes memory data */\n      0x60\n      swap5\n        /* \"CoreContracts/kalyswap-core/KalyswapFactory_flattened.sol\":12279:12289  token.call */\n      dup10\n      and\n      swap4\n        /* \"CoreContracts/kalyswap-core/KalyswapFactory_flattened.sol\":12290:12333  abi.encodeWithSelector(SELECTOR, to, value) */\n      swap3\n        /* \"CoreContracts/kalyswap-core/KalyswapFactory_flattened.sol\":12279:12334  token.call(abi.encodeWithSelector(SELECTOR, to, value)) */\n      swap2\n      dup3\n      swap2\n        /* \"--CODEGEN--\":25:43   */\n      swap1\n        /* \"CoreContracts/kalyswap-core/KalyswapFactory_flattened.sol\":12279:12334  token.call(abi.encodeWithSelector(SELECTOR, to, value)) */\n      dup1\n      dup4\n        /* \"--CODEGEN--\":25:43   */\n      dup4\n        /* \"--CODEGEN--\":36:189   */\n    tag_264:\n        /* \"--CODEGEN--\":66:68   */\n      0x20\n        /* \"--CODEGEN--\":61:64   */\n      dup4\n        /* \"--CODEGEN--\":58:69   */\n      lt\n        /* \"--CODEGEN--\":36:189   */\n      tag_266\n      jumpi\n        /* \"--CODEGEN--\":176:186   */\n      dup1\n      mload\n        /* \"--CODEGEN--\":164:187   */\n      dup3\n      mstore\n      not(0x1f)\n        /* \"--CODEGEN--\":139:151   */\n      swap1\n      swap3\n      add\n      swap2\n        /* \"--CODEGEN--\":98:100   */\n      0x20\n        /* \"--CODEGEN--\":89:101   */\n      swap2\n      dup3\n      add\n      swap2\n        /* \"--CODEGEN--\":114:126   */\n      add\n        /* \"--CODEGEN--\":36:189   */\n      jump(tag_264)\n    tag_266:\n        /* \"--CODEGEN--\":274:275   */\n      0x01\n        /* \"--CODEGEN--\":267:270   */\n      dup4\n        /* \"--CODEGEN--\":263:265   */\n      0x20\n        /* \"--CODEGEN--\":259:271   */\n      sub\n        /* \"--CODEGEN--\":254:257   */\n      0x0100\n        /* \"--CODEGEN--\":250:272   */\n      exp\n        /* \"--CODEGEN--\":246:276   */\n      sub\n        /* \"--CODEGEN--\":315:319   */\n      dup1\n        /* \"--CODEGEN--\":311:320   */\n      not\n        /* \"--CODEGEN--\":305:308   */\n      dup3\n        /* \"--CODEGEN--\":299:309   */\n      mload\n        /* \"--CODEGEN--\":295:321   */\n      and\n        /* \"--CODEGEN--\":356:360   */\n      dup2\n        /* \"--CODEGEN--\":350:353   */\n      dup5\n        /* \"--CODEGEN--\":344:354   */\n      mload\n        /* \"--CODEGEN--\":340:361   */\n      and\n        /* \"--CODEGEN--\":389:396   */\n      dup1\n        /* \"--CODEGEN--\":380:387   */\n      dup3\n        /* \"--CODEGEN--\":377:397   */\n      or\n        /* \"--CODEGEN--\":372:375   */\n      dup6\n        /* \"--CODEGEN--\":365:398   */\n      mstore\n        /* \"--CODEGEN--\":3:402   */\n      pop\n      pop\n      pop\n        /* \"CoreContracts/kalyswap-core/KalyswapFactory_flattened.sol\":12279:12334  token.call(abi.encodeWithSelector(SELECTOR, to, value)) */\n      pop\n      pop\n      pop\n      swap1\n      pop\n      add\n      swap2\n      pop\n      pop\n      0x00\n      mload(0x40)\n      dup1\n      dup4\n      sub\n      dup2\n      0x00\n      dup7\n      gas\n      call\n      swap2\n      pop\n      pop\n      returndatasize\n        /* \"--CODEGEN--\":14:15   */\n      dup1\n        /* \"--CODEGEN--\":21:22   */\n      0x00\n        /* \"--CODEGEN--\":16:47   */\n      dup2\n      eq\n      tag_268\n      jumpi\n        /* \"--CODEGEN--\":75:79   */\n      0x40\n        /* \"--CODEGEN--\":69:80   */\n      mload\n        /* \"--CODEGEN--\":64:80   */\n      swap2\n      pop\n        /* \"--CODEGEN--\":144:148   */\n      0x1f\n        /* \"--CODEGEN--\":140:149   */\n      not\n        /* \"--CODEGEN--\":133:137   */\n      0x3f\n        /* \"--CODEGEN--\":115:131   */\n      returndatasize\n        /* \"--CODEGEN--\":111:138   */\n      add\n        /* \"--CODEGEN--\":107:150   */\n      and\n        /* \"--CODEGEN--\":104:105   */\n      dup3\n        /* \"--CODEGEN--\":100:151   */\n      add\n        /* \"--CODEGEN--\":94:98   */\n      0x40\n        /* \"--CODEGEN--\":87:152   */\n      mstore\n        /* \"--CODEGEN--\":169:185   */\n      returndatasize\n        /* \"--CODEGEN--\":166:167   */\n      dup3\n        /* \"--CODEGEN--\":159:186   */\n      mstore\n        /* \"--CODEGEN--\":225:241   */\n      returndatasize\n        /* \"--CODEGEN--\":222:223   */\n      0x00\n        /* \"--CODEGEN--\":215:219   */\n      0x20\n        /* \"--CODEGEN--\":212:213   */\n      dup5\n        /* \"--CODEGEN--\":208:220   */\n      add\n        /* \"--CODEGEN--\":193:242   */\n      returndatacopy\n        /* \"--CODEGEN--\":7:249   */\n      jump(tag_267)\n        /* \"--CODEGEN--\":16:47   */\n    tag_268:\n        /* \"--CODEGEN--\":36:40   */\n      0x60\n        /* \"--CODEGEN--\":31:40   */\n      swap2\n      pop\n        /* \"--CODEGEN--\":7:249   */\n    tag_267:\n      pop\n        /* \"CoreContracts/kalyswap-core/KalyswapFactory_flattened.sol\":12243:12334  (bool success, bytes memory data) = token.call(abi.encodeWithSelector(SELECTOR, to, value)) */\n      swap2\n      pop\n      swap2\n      pop\n        /* \"CoreContracts/kalyswap-core/KalyswapFactory_flattened.sol\":12352:12359  success */\n      dup2\n        /* \"CoreContracts/kalyswap-core/KalyswapFactory_flattened.sol\":12352:12409  success && (data.length == 0 || abi.decode(data, (bool))) */\n      dup1\n      iszero\n      tag_270\n      jumpi\n      pop\n        /* \"CoreContracts/kalyswap-core/KalyswapFactory_flattened.sol\":12364:12375  data.length */\n      dup1\n      mload\n        /* \"CoreContracts/kalyswap-core/KalyswapFactory_flattened.sol\":12364:12380  data.length == 0 */\n      iszero\n      dup1\n        /* \"CoreContracts/kalyswap-core/KalyswapFactory_flattened.sol\":12364:12408  data.length == 0 || abi.decode(data, (bool)) */\n      tag_270\n      jumpi\n      pop\n        /* \"CoreContracts/kalyswap-core/KalyswapFactory_flattened.sol\":12395:12399  data */\n      dup1\n        /* \"CoreContracts/kalyswap-core/KalyswapFactory_flattened.sol\":12384:12408  abi.decode(data, (bool)) */\n      dup1\n      0x20\n      add\n      swap1\n      mload\n        /* \"--CODEGEN--\":13:15   */\n      0x20\n        /* \"--CODEGEN--\":8:11   */\n      dup2\n        /* \"--CODEGEN--\":5:16   */\n      lt\n        /* \"--CODEGEN--\":2:4   */\n      iszero\n      tag_271\n      jumpi\n        /* \"--CODEGEN--\":29:30   */\n      0x00\n        /* \"--CODEGEN--\":26:27   */\n      dup1\n        /* \"--CODEGEN--\":19:31   */\n      revert\n        /* \"--CODEGEN--\":2:4   */\n    tag_271:\n      pop\n        /* \"CoreContracts/kalyswap-core/KalyswapFactory_flattened.sol\":12384:12408  abi.decode(data, (bool)) */\n      mload\n        /* \"CoreContracts/kalyswap-core/KalyswapFactory_flattened.sol\":12364:12408  data.length == 0 || abi.decode(data, (bool)) */\n    tag_270:\n        /* \"CoreContracts/kalyswap-core/KalyswapFactory_flattened.sol\":12344:12439  require(success && (data.length == 0 || abi.decode(data, (bool))), 'Kalyswap: TRANSFER_FAILED') */\n      tag_272\n      jumpi\n      0x40\n      dup1\n      mload\n      shl(0xe5, 0x461bcd)\n      dup2\n      mstore\n      0x20\n      0x04\n      dup3\n      add\n      mstore\n      0x19\n      0x24\n      dup3\n      add\n      mstore\n      0x4b616c79737761703a205452414e534645525f4641494c454400000000000000\n      0x44\n      dup3\n      add\n      mstore\n      swap1\n      mload\n      swap1\n      dup2\n      swap1\n      sub\n      0x64\n      add\n      swap1\n      revert\n    tag_272:\n        /* \"CoreContracts/kalyswap-core/KalyswapFactory_flattened.sol\":12163:12446  function _safeTransfer(address token, address to, uint value) private {... */\n      pop\n      pop\n      pop\n      pop\n      pop\n      jump\t// out\n        /* \"CoreContracts/kalyswap-core/KalyswapFactory_flattened.sol\":2874:3014  function mul(uint x, uint y) internal pure returns (uint z) {... */\n    tag_146:\n        /* \"CoreContracts/kalyswap-core/KalyswapFactory_flattened.sol\":2926:2932  uint z */\n      0x00\n        /* \"CoreContracts/kalyswap-core/KalyswapFactory_flattened.sol\":2952:2958  y == 0 */\n      dup2\n      iszero\n      dup1\n        /* \"CoreContracts/kalyswap-core/KalyswapFactory_flattened.sol\":2952:2982  y == 0 || (z = x * y) / y == x */\n      tag_274\n      jumpi\n      pop\n      pop\n        /* \"CoreContracts/kalyswap-core/KalyswapFactory_flattened.sol\":2967:2972  x * y */\n      dup1\n      dup3\n      mul\n        /* \"CoreContracts/kalyswap-core/KalyswapFactory_flattened.sol\":2981:2982  x */\n      dup3\n        /* \"CoreContracts/kalyswap-core/KalyswapFactory_flattened.sol\":2976:2977  y */\n      dup3\n        /* \"CoreContracts/kalyswap-core/KalyswapFactory_flattened.sol\":2967:2972  x * y */\n      dup3\n        /* \"CoreContracts/kalyswap-core/KalyswapFactory_flattened.sol\":2976:2977  y */\n      dup2\n        /* \"CoreContracts/kalyswap-core/KalyswapFactory_flattened.sol\":2962:2977  (z = x * y) / y */\n      tag_275\n      jumpi\n      invalid\n    tag_275:\n      div\n        /* \"CoreContracts/kalyswap-core/KalyswapFactory_flattened.sol\":2962:2982  (z = x * y) / y == x */\n      eq\n        /* \"CoreContracts/kalyswap-core/KalyswapFactory_flattened.sol\":2952:2982  y == 0 || (z = x * y) / y == x */\n    tag_274:\n        /* \"CoreContracts/kalyswap-core/KalyswapFactory_flattened.sol\":2944:3007  require(y == 0 || (z = x * y) / y == x, 'ds-math-mul-overflow') */\n      tag_159\n      jumpi\n      0x40\n      dup1\n      mload\n      shl(0xe5, 0x461bcd)\n      dup2\n      mstore\n      0x20\n      0x04\n      dup3\n      add\n      mstore\n      0x14\n      0x24\n      dup3\n      add\n      mstore\n      0x64732d6d6174682d6d756c2d6f766572666c6f77000000000000000000000000\n      0x44\n      dup3\n      add\n      mstore\n      swap1\n      mload\n      swap1\n      dup2\n      swap1\n      sub\n      0x64\n      add\n      swap1\n      revert\n        /* \"CoreContracts/kalyswap-core/KalyswapFactory_flattened.sol\":2741:2868  function sub(uint x, uint y) internal pure returns (uint z) {... */\n    tag_148:\n        /* \"CoreContracts/kalyswap-core/KalyswapFactory_flattened.sol\":2824:2829  x - y */\n      dup1\n      dup3\n      sub\n        /* \"CoreContracts/kalyswap-core/KalyswapFactory_flattened.sol\":2819:2835  (z = x - y) <= x */\n      dup3\n      dup2\n      gt\n      iszero\n        /* \"CoreContracts/kalyswap-core/KalyswapFactory_flattened.sol\":2811:2861  require((z = x - y) <= x, 'ds-math-sub-underflow') */\n      tag_159\n      jumpi\n      0x40\n      dup1\n      mload\n      shl(0xe5, 0x461bcd)\n      dup2\n      mstore\n      0x20\n      0x04\n      dup3\n      add\n      mstore\n      0x15\n      0x24\n      dup3\n      add\n      mstore\n      0x64732d6d6174682d7375622d756e646572666c6f770000000000000000000000\n      0x44\n      dup3\n      add\n      mstore\n      swap1\n      mload\n      swap1\n      dup2\n      swap1\n      sub\n      0x64\n      add\n      swap1\n      revert\n        /* \"CoreContracts/kalyswap-core/KalyswapFactory_flattened.sol\":13248:14094  function _update(uint balance0, uint balance1, uint112 _reserve0, uint112 _reserve1) private {... */\n    tag_157:\n      sub(shl(0x70, 0x01), 0x01)\n        /* \"CoreContracts/kalyswap-core/KalyswapFactory_flattened.sol\":13359:13382  balance0 <= uint112(-1) */\n      dup5\n      gt\n      dup1\n      iszero\n      swap1\n        /* \"CoreContracts/kalyswap-core/KalyswapFactory_flattened.sol\":13359:13409  balance0 <= uint112(-1) && balance1 <= uint112(-1) */\n      tag_280\n      jumpi\n      pop\n      sub(shl(0x70, 0x01), 0x01)\n        /* \"CoreContracts/kalyswap-core/KalyswapFactory_flattened.sol\":13386:13409  balance1 <= uint112(-1) */\n      dup4\n      gt\n      iszero\n        /* \"CoreContracts/kalyswap-core/KalyswapFactory_flattened.sol\":13359:13409  balance0 <= uint112(-1) && balance1 <= uint112(-1) */\n    tag_280:\n        /* \"CoreContracts/kalyswap-core/KalyswapFactory_flattened.sol\":13351:13432  require(balance0 <= uint112(-1) && balance1 <= uint112(-1), 'Kalyswap: OVERFLOW') */\n      tag_281\n      jumpi\n      0x40\n      dup1\n      mload\n      shl(0xe5, 0x461bcd)\n      dup2\n      mstore\n      0x20\n      0x04\n      dup3\n      add\n      mstore\n      0x12\n      0x24\n      dup3\n      add\n      mstore\n      0x4b616c79737761703a204f564552464c4f570000000000000000000000000000\n      0x44\n      dup3\n      add\n      mstore\n      swap1\n      mload\n      swap1\n      dup2\n      swap1\n      sub\n      0x64\n      add\n      swap1\n      revert\n    tag_281:\n        /* \"CoreContracts/kalyswap-core/KalyswapFactory_flattened.sol\":13545:13563  blockTimestampLast */\n      sload(0x08)\n        /* \"CoreContracts/kalyswap-core/KalyswapFactory_flattened.sol\":13473:13496  block.timestamp % 2**32 */\n      0xffffffff\n        /* \"CoreContracts/kalyswap-core/KalyswapFactory_flattened.sol\":13473:13488  block.timestamp */\n      timestamp\n        /* \"CoreContracts/kalyswap-core/KalyswapFactory_flattened.sol\":13473:13496  block.timestamp % 2**32 */\n      dup2\n      and\n      swap2\n      shl(0xe0, 0x01)\n        /* \"CoreContracts/kalyswap-core/KalyswapFactory_flattened.sol\":13545:13563  blockTimestampLast */\n      swap1\n      div\n      dup2\n      and\n        /* \"CoreContracts/kalyswap-core/KalyswapFactory_flattened.sol\":13528:13563  blockTimestamp - blockTimestampLast */\n      dup3\n      sub\n      swap1\n        /* \"CoreContracts/kalyswap-core/KalyswapFactory_flattened.sol\":13600:13615  timeElapsed > 0 */\n      dup2\n      and\n      iszero\n      dup1\n      iszero\n      swap1\n        /* \"CoreContracts/kalyswap-core/KalyswapFactory_flattened.sol\":13600:13633  timeElapsed > 0 && _reserve0 != 0 */\n      tag_283\n      jumpi\n      pop\n      sub(shl(0x70, 0x01), 0x01)\n        /* \"CoreContracts/kalyswap-core/KalyswapFactory_flattened.sol\":13619:13633  _reserve0 != 0 */\n      dup5\n      and\n      iszero\n      iszero\n        /* \"CoreContracts/kalyswap-core/KalyswapFactory_flattened.sol\":13600:13633  timeElapsed > 0 && _reserve0 != 0 */\n    tag_283:\n        /* \"CoreContracts/kalyswap-core/KalyswapFactory_flattened.sol\":13600:13651  timeElapsed > 0 && _reserve0 != 0 && _reserve1 != 0 */\n      dup1\n      iszero\n      tag_284\n      jumpi\n      pop\n      sub(shl(0x70, 0x01), 0x01)\n        /* \"CoreContracts/kalyswap-core/KalyswapFactory_flattened.sol\":13637:13651  _reserve1 != 0 */\n      dup4\n      and\n      iszero\n      iszero\n        /* \"CoreContracts/kalyswap-core/KalyswapFactory_flattened.sol\":13600:13651  timeElapsed > 0 && _reserve0 != 0 && _reserve1 != 0 */\n    tag_284:\n        /* \"CoreContracts/kalyswap-core/KalyswapFactory_flattened.sol\":13596:13928  if (timeElapsed > 0 && _reserve0 != 0 && _reserve1 != 0) {... */\n      iszero\n      tag_285\n      jumpi\n        /* \"CoreContracts/kalyswap-core/KalyswapFactory_flattened.sol\":13804:13815  timeElapsed */\n      dup1\n        /* \"CoreContracts/kalyswap-core/KalyswapFactory_flattened.sol\":13751:13815  uint(UQ112x112.encode(_reserve1).uqdiv(_reserve0)) * timeElapsed */\n      0xffffffff\n      and\n        /* \"CoreContracts/kalyswap-core/KalyswapFactory_flattened.sol\":13756:13800  UQ112x112.encode(_reserve1).uqdiv(_reserve0) */\n      tag_286\n        /* \"CoreContracts/kalyswap-core/KalyswapFactory_flattened.sol\":13790:13799  _reserve0 */\n      dup6\n        /* \"CoreContracts/kalyswap-core/KalyswapFactory_flattened.sol\":13756:13783  UQ112x112.encode(_reserve1) */\n      tag_287\n        /* \"CoreContracts/kalyswap-core/KalyswapFactory_flattened.sol\":13773:13782  _reserve1 */\n      dup7\n        /* \"CoreContracts/kalyswap-core/KalyswapFactory_flattened.sol\":13756:13772  UQ112x112.encode */\n      tag_288\n        /* \"CoreContracts/kalyswap-core/KalyswapFactory_flattened.sol\":13756:13783  UQ112x112.encode(_reserve1) */\n      jump\t// in\n    tag_287:\n      sub(shl(0xe0, 0x01), 0x01)\n        /* \"CoreContracts/kalyswap-core/KalyswapFactory_flattened.sol\":13756:13789  UQ112x112.encode(_reserve1).uqdiv */\n      and\n      swap1\n      tag_289\n        /* \"CoreContracts/kalyswap-core/KalyswapFactory_flattened.sol\":13756:13800  UQ112x112.encode(_reserve1).uqdiv(_reserve0) */\n      jump\t// in\n    tag_286:\n        /* \"CoreContracts/kalyswap-core/KalyswapFactory_flattened.sol\":13727:13747  price0CumulativeLast */\n      0x09\n        /* \"CoreContracts/kalyswap-core/KalyswapFactory_flattened.sol\":13727:13815  price0CumulativeLast += uint(UQ112x112.encode(_reserve1).uqdiv(_reserve0)) * timeElapsed */\n      dup1\n      sload\n      sub(shl(0xe0, 0x01), 0x01)\n        /* \"CoreContracts/kalyswap-core/KalyswapFactory_flattened.sol\":13751:13801  uint(UQ112x112.encode(_reserve1).uqdiv(_reserve0)) */\n      swap3\n      swap1\n      swap3\n      and\n        /* \"CoreContracts/kalyswap-core/KalyswapFactory_flattened.sol\":13751:13815  uint(UQ112x112.encode(_reserve1).uqdiv(_reserve0)) * timeElapsed */\n      swap3\n      swap1\n      swap3\n      mul\n        /* \"CoreContracts/kalyswap-core/KalyswapFactory_flattened.sol\":13727:13815  price0CumulativeLast += uint(UQ112x112.encode(_reserve1).uqdiv(_reserve0)) * timeElapsed */\n      add\n      swap1\n      sstore\n        /* \"CoreContracts/kalyswap-core/KalyswapFactory_flattened.sol\":13853:13917  uint(UQ112x112.encode(_reserve0).uqdiv(_reserve1)) * timeElapsed */\n      0xffffffff\n      dup2\n      and\n        /* \"CoreContracts/kalyswap-core/KalyswapFactory_flattened.sol\":13858:13902  UQ112x112.encode(_reserve0).uqdiv(_reserve1) */\n      tag_290\n        /* \"CoreContracts/kalyswap-core/KalyswapFactory_flattened.sol\":13892:13901  _reserve1 */\n      dup5\n        /* \"CoreContracts/kalyswap-core/KalyswapFactory_flattened.sol\":13858:13885  UQ112x112.encode(_reserve0) */\n      tag_287\n        /* \"CoreContracts/kalyswap-core/KalyswapFactory_flattened.sol\":13875:13884  _reserve0 */\n      dup8\n        /* \"CoreContracts/kalyswap-core/KalyswapFactory_flattened.sol\":13858:13874  UQ112x112.encode */\n      tag_288\n        /* \"CoreContracts/kalyswap-core/KalyswapFactory_flattened.sol\":13858:13885  UQ112x112.encode(_reserve0) */\n      jump\t// in\n        /* \"CoreContracts/kalyswap-core/KalyswapFactory_flattened.sol\":13858:13902  UQ112x112.encode(_reserve0).uqdiv(_reserve1) */\n    tag_290:\n        /* \"CoreContracts/kalyswap-core/KalyswapFactory_flattened.sol\":13829:13849  price1CumulativeLast */\n      0x0a\n        /* \"CoreContracts/kalyswap-core/KalyswapFactory_flattened.sol\":13829:13917  price1CumulativeLast += uint(UQ112x112.encode(_reserve0).uqdiv(_reserve1)) * timeElapsed */\n      dup1\n      sload\n      sub(shl(0xe0, 0x01), 0x01)\n        /* \"CoreContracts/kalyswap-core/KalyswapFactory_flattened.sol\":13853:13903  uint(UQ112x112.encode(_reserve0).uqdiv(_reserve1)) */\n      swap3\n      swap1\n      swap3\n      and\n        /* \"CoreContracts/kalyswap-core/KalyswapFactory_flattened.sol\":13853:13917  uint(UQ112x112.encode(_reserve0).uqdiv(_reserve1)) * timeElapsed */\n      swap3\n      swap1\n      swap3\n      mul\n        /* \"CoreContracts/kalyswap-core/KalyswapFactory_flattened.sol\":13829:13917  price1CumulativeLast += uint(UQ112x112.encode(_reserve0).uqdiv(_reserve1)) * timeElapsed */\n      add\n      swap1\n      sstore\n        /* \"CoreContracts/kalyswap-core/KalyswapFactory_flattened.sol\":13596:13928  if (timeElapsed > 0 && _reserve0 != 0 && _reserve1 != 0) {... */\n    tag_285:\n        /* \"CoreContracts/kalyswap-core/KalyswapFactory_flattened.sol\":13937:13945  reserve0 */\n      0x08\n        /* \"CoreContracts/kalyswap-core/KalyswapFactory_flattened.sol\":13937:13965  reserve0 = uint112(balance0) */\n      dup1\n      sload\n      not(0xffffffffffffffffffffffffffff)\n      and\n      sub(shl(0x70, 0x01), 0x01)\n      dup9\n      dup2\n      and\n      swap2\n      swap1\n      swap2\n      or\n        /* \"CoreContracts/kalyswap-core/KalyswapFactory_flattened.sol\":13975:14003  reserve1 = uint112(balance1) */\n      0xffffffff0000000000000000000000000000ffffffffffffffffffffffffffff\n      and\n      shl(0x70, 0x01)\n      dup9\n      dup4\n      and\n      dup2\n      mul\n      swap2\n      swap1\n      swap2\n      or\n      sub(shl(0xe0, 0x01), 0x01)\n        /* \"CoreContracts/kalyswap-core/KalyswapFactory_flattened.sol\":14013:14048  blockTimestampLast = blockTimestamp */\n      and\n      shl(0xe0, 0x01)\n      0xffffffff\n      dup8\n      and\n      mul\n      or\n      swap3\n      dup4\n      swap1\n      sstore\n        /* \"CoreContracts/kalyswap-core/KalyswapFactory_flattened.sol\":14063:14087  Sync(reserve0, reserve1) */\n      0x40\n      dup1\n      mload\n        /* \"CoreContracts/kalyswap-core/KalyswapFactory_flattened.sol\":14068:14076  reserve0 */\n      dup5\n      dup5\n      and\n        /* \"CoreContracts/kalyswap-core/KalyswapFactory_flattened.sol\":14063:14087  Sync(reserve0, reserve1) */\n      dup2\n      mstore\n        /* \"CoreContracts/kalyswap-core/KalyswapFactory_flattened.sol\":14078:14086  reserve1 */\n      swap2\n      swap1\n      swap4\n      div\n      swap1\n      swap2\n      and\n        /* \"CoreContracts/kalyswap-core/KalyswapFactory_flattened.sol\":14063:14087  Sync(reserve0, reserve1) */\n      0x20\n      dup3\n      add\n      mstore\n      dup2\n      mload\n      0x1c411e9a96e071241c2f21f7726b17ae89e3cab4c78be50e062b03a9fffbbad1\n      swap3\n      swap2\n      dup2\n      swap1\n      sub\n      swap1\n      swap2\n      add\n      swap1\n      log1\n        /* \"CoreContracts/kalyswap-core/KalyswapFactory_flattened.sol\":13248:14094  function _update(uint balance0, uint balance1, uint112 _reserve0, uint112 _reserve1) private {... */\n      pop\n      pop\n      pop\n      pop\n      pop\n      pop\n      jump\t// out\n        /* \"CoreContracts/kalyswap-core/KalyswapFactory_flattened.sol\":5991:6157  function _approve(address owner, address spender, uint value) private {... */\n    tag_161:\n      sub(shl(0xa0, 0x01), 0x01)\n        /* \"CoreContracts/kalyswap-core/KalyswapFactory_flattened.sol\":6071:6087  allowance[owner] */\n      dup4\n      dup2\n      and\n      0x00\n      dup2\n      dup2\n      mstore\n        /* \"CoreContracts/kalyswap-core/KalyswapFactory_flattened.sol\":6071:6080  allowance */\n      0x02\n        /* \"CoreContracts/kalyswap-core/KalyswapFactory_flattened.sol\":6071:6087  allowance[owner] */\n      0x20\n      swap1\n      dup2\n      mstore\n      0x40\n      dup1\n      dup4\n      keccak256\n        /* \"CoreContracts/kalyswap-core/KalyswapFactory_flattened.sol\":6071:6096  allowance[owner][spender] */\n      swap5\n      dup8\n      and\n      dup1\n      dup5\n      mstore\n      swap5\n      dup3\n      mstore\n      swap2\n      dup3\n      swap1\n      keccak256\n        /* \"CoreContracts/kalyswap-core/KalyswapFactory_flattened.sol\":6071:6104  allowance[owner][spender] = value */\n      dup6\n      swap1\n      sstore\n        /* \"CoreContracts/kalyswap-core/KalyswapFactory_flattened.sol\":6119:6150  Approval(owner, spender, value) */\n      dup2\n      mload\n      dup6\n      dup2\n      mstore\n      swap2\n      mload\n      0x8c5be1e5ebec7d5bd14f71427d1e84f3dd0314c0f7b2291e5b200ac8c7c3b925\n      swap3\n      dup2\n      swap1\n      sub\n      swap1\n      swap2\n      add\n      swap1\n      log3\n        /* \"CoreContracts/kalyswap-core/KalyswapFactory_flattened.sol\":5991:6157  function _approve(address owner, address spender, uint value) private {... */\n      pop\n      pop\n      pop\n      jump\t// out\n        /* \"CoreContracts/kalyswap-core/KalyswapFactory_flattened.sol\":6163:6379  function _transfer(address from, address to, uint value) private {... */\n    tag_166:\n      sub(shl(0xa0, 0x01), 0x01)\n        /* \"CoreContracts/kalyswap-core/KalyswapFactory_flattened.sol\":6256:6271  balanceOf[from] */\n      dup4\n      and\n      0x00\n      swap1\n      dup2\n      mstore\n      mstore(0x20, 0x01)\n      0x40\n      swap1\n      keccak256\n      sload\n        /* \"CoreContracts/kalyswap-core/KalyswapFactory_flattened.sol\":6256:6282  balanceOf[from].sub(value) */\n      tag_294\n      swap1\n        /* \"CoreContracts/kalyswap-core/KalyswapFactory_flattened.sol\":6276:6281  value */\n      dup3\n        /* \"CoreContracts/kalyswap-core/KalyswapFactory_flattened.sol\":6256:6275  balanceOf[from].sub */\n      tag_148\n        /* \"CoreContracts/kalyswap-core/KalyswapFactory_flattened.sol\":6256:6282  balanceOf[from].sub(value) */\n      jump\t// in\n    tag_294:\n      sub(shl(0xa0, 0x01), 0x01)\n        /* \"CoreContracts/kalyswap-core/KalyswapFactory_flattened.sol\":6238:6253  balanceOf[from] */\n      dup5\n      dup2\n      and\n      0x00\n      swap1\n      dup2\n      mstore\n      mstore(0x20, 0x01)\n      0x40\n      dup1\n      dup3\n      keccak256\n        /* \"CoreContracts/kalyswap-core/KalyswapFactory_flattened.sol\":6238:6282  balanceOf[from] = balanceOf[from].sub(value) */\n      swap4\n      swap1\n      swap4\n      sstore\n        /* \"CoreContracts/kalyswap-core/KalyswapFactory_flattened.sol\":6308:6321  balanceOf[to] */\n      swap1\n      dup5\n      and\n      dup2\n      mstore\n      keccak256\n      sload\n        /* \"CoreContracts/kalyswap-core/KalyswapFactory_flattened.sol\":6308:6332  balanceOf[to].add(value) */\n      tag_295\n      swap1\n        /* \"CoreContracts/kalyswap-core/KalyswapFactory_flattened.sol\":6326:6331  value */\n      dup3\n        /* \"CoreContracts/kalyswap-core/KalyswapFactory_flattened.sol\":6308:6325  balanceOf[to].add */\n      tag_296\n        /* \"CoreContracts/kalyswap-core/KalyswapFactory_flattened.sol\":6308:6332  balanceOf[to].add(value) */\n      jump\t// in\n    tag_295:\n      sub(shl(0xa0, 0x01), 0x01)\n        /* \"CoreContracts/kalyswap-core/KalyswapFactory_flattened.sol\":6292:6305  balanceOf[to] */\n      dup4\n      dup2\n      and\n      0x00\n      dup2\n      dup2\n      mstore\n      0x01\n      0x20\n      swap1\n      dup2\n      mstore\n      0x40\n      swap2\n      dup3\n      swap1\n      keccak256\n        /* \"CoreContracts/kalyswap-core/KalyswapFactory_flattened.sol\":6292:6332  balanceOf[to] = balanceOf[to].add(value) */\n      swap5\n      swap1\n      swap5\n      sstore\n        /* \"CoreContracts/kalyswap-core/KalyswapFactory_flattened.sol\":6347:6372  Transfer(from, to, value) */\n      dup1\n      mload\n      dup6\n      dup2\n      mstore\n      swap1\n      mload\n        /* \"CoreContracts/kalyswap-core/KalyswapFactory_flattened.sol\":6292:6305  balanceOf[to] */\n      swap2\n      swap4\n        /* \"CoreContracts/kalyswap-core/KalyswapFactory_flattened.sol\":6347:6372  Transfer(from, to, value) */\n      swap3\n      dup8\n      and\n      swap3\n      0xddf252ad1be2c89b69c2b068fc378daa952ba7f163c4a11628f55a4df523b3ef\n      swap3\n      swap2\n      dup3\n      swap1\n      sub\n      add\n      swap1\n      log3\n        /* \"CoreContracts/kalyswap-core/KalyswapFactory_flattened.sol\":6163:6379  function _transfer(address from, address to, uint value) private {... */\n      pop\n      pop\n      pop\n      jump\t// out\n        /* \"CoreContracts/kalyswap-core/KalyswapFactory_flattened.sol\":14181:14999  function _mintFee(uint112 _reserve0, uint112 _reserve1) private returns (bool feeOn) {... */\n    tag_182:\n        /* \"CoreContracts/kalyswap-core/KalyswapFactory_flattened.sol\":14309:14316  factory */\n      sload(0x05)\n        /* \"CoreContracts/kalyswap-core/KalyswapFactory_flattened.sol\":14292:14325  IKalyswapFactory(factory).feeTo() */\n      0x40\n      dup1\n      mload\n      0x017e7e5800000000000000000000000000000000000000000000000000000000\n      dup2\n      mstore\n      swap1\n      mload\n        /* \"CoreContracts/kalyswap-core/KalyswapFactory_flattened.sol\":14254:14264  bool feeOn */\n      0x00\n      swap3\n      dup4\n      swap3\n      sub(shl(0xa0, 0x01), 0x01)\n        /* \"CoreContracts/kalyswap-core/KalyswapFactory_flattened.sol\":14309:14316  factory */\n      swap1\n      swap2\n      and\n      swap2\n        /* \"CoreContracts/kalyswap-core/KalyswapFactory_flattened.sol\":14292:14323  IKalyswapFactory(factory).feeTo */\n      0x017e7e58\n      swap2\n        /* \"CoreContracts/kalyswap-core/KalyswapFactory_flattened.sol\":14292:14325  IKalyswapFactory(factory).feeTo() */\n      0x04\n      dup1\n      dup3\n      add\n      swap3\n      0x20\n      swap3\n      swap1\n      swap2\n      swap1\n      dup3\n      swap1\n      sub\n      add\n      dup2\n        /* \"CoreContracts/kalyswap-core/KalyswapFactory_flattened.sol\":14309:14316  factory */\n      dup7\n        /* \"CoreContracts/kalyswap-core/KalyswapFactory_flattened.sol\":14292:14325  IKalyswapFactory(factory).feeTo() */\n      dup1\n      extcodesize\n      iszero\n        /* \"--CODEGEN--\":5:7   */\n      dup1\n      iszero\n      tag_298\n      jumpi\n        /* \"--CODEGEN--\":30:31   */\n      0x00\n        /* \"--CODEGEN--\":27:28   */\n      dup1\n        /* \"--CODEGEN--\":20:32   */\n      revert\n        /* \"--CODEGEN--\":5:7   */\n    tag_298:\n        /* \"CoreContracts/kalyswap-core/KalyswapFactory_flattened.sol\":14292:14325  IKalyswapFactory(factory).feeTo() */\n      pop\n      gas\n      staticcall\n      iszero\n        /* \"--CODEGEN--\":8:17   */\n      dup1\n        /* \"--CODEGEN--\":5:7   */\n      iszero\n      tag_299\n      jumpi\n        /* \"--CODEGEN--\":45:61   */\n      returndatasize\n        /* \"--CODEGEN--\":42:43   */\n      0x00\n        /* \"--CODEGEN--\":39:40   */\n      dup1\n        /* \"--CODEGEN--\":24:62   */\n      returndatacopy\n        /* \"--CODEGEN--\":77:93   */\n      returndatasize\n        /* \"--CODEGEN--\":74:75   */\n      0x00\n        /* \"--CODEGEN--\":67:94   */\n      revert\n        /* \"--CODEGEN--\":5:7   */\n    tag_299:\n        /* \"CoreContracts/kalyswap-core/KalyswapFactory_flattened.sol\":14292:14325  IKalyswapFactory(factory).feeTo() */\n      pop\n      pop\n      pop\n      pop\n      mload(0x40)\n      returndatasize\n        /* \"--CODEGEN--\":13:15   */\n      0x20\n        /* \"--CODEGEN--\":8:11   */\n      dup2\n        /* \"--CODEGEN--\":5:16   */\n      lt\n        /* \"--CODEGEN--\":2:4   */\n      iszero\n      tag_300\n      jumpi\n        /* \"--CODEGEN--\":29:30   */\n      0x00\n        /* \"--CODEGEN--\":26:27   */\n      dup1\n        /* \"--CODEGEN--\":19:31   */\n      revert\n        /* \"--CODEGEN--\":2:4   */\n    tag_300:\n      pop\n        /* \"CoreContracts/kalyswap-core/KalyswapFactory_flattened.sol\":14292:14325  IKalyswapFactory(factory).feeTo() */\n      mload\n        /* \"CoreContracts/kalyswap-core/KalyswapFactory_flattened.sol\":14386:14391  kLast */\n      sload(0x0b)\n      sub(shl(0xa0, 0x01), 0x01)\n        /* \"CoreContracts/kalyswap-core/KalyswapFactory_flattened.sol\":14343:14362  feeTo != address(0) */\n      dup3\n      and\n      iszero\n      dup1\n      iszero\n      swap5\n      pop\n        /* \"CoreContracts/kalyswap-core/KalyswapFactory_flattened.sol\":14292:14325  IKalyswapFactory(factory).feeTo() */\n      swap2\n      swap3\n      pop\n        /* \"CoreContracts/kalyswap-core/KalyswapFactory_flattened.sol\":14386:14391  kLast */\n      swap1\n        /* \"CoreContracts/kalyswap-core/KalyswapFactory_flattened.sol\":14416:14993  if (feeOn) {... */\n      tag_301\n      jumpi\n        /* \"CoreContracts/kalyswap-core/KalyswapFactory_flattened.sol\":14445:14456  _kLast != 0 */\n      dup1\n      iszero\n        /* \"CoreContracts/kalyswap-core/KalyswapFactory_flattened.sol\":14441:14926  if (_kLast != 0) {... */\n      tag_302\n      jumpi\n        /* \"CoreContracts/kalyswap-core/KalyswapFactory_flattened.sol\":14476:14486  uint rootK */\n      0x00\n        /* \"CoreContracts/kalyswap-core/KalyswapFactory_flattened.sol\":14489:14530  Math.sqrt(uint(_reserve0).mul(_reserve1)) */\n      tag_303\n        /* \"CoreContracts/kalyswap-core/KalyswapFactory_flattened.sol\":14499:14529  uint(_reserve0).mul(_reserve1) */\n      tag_186\n      sub(shl(0x70, 0x01), 0x01)\n        /* \"CoreContracts/kalyswap-core/KalyswapFactory_flattened.sol\":14499:14514  uint(_reserve0) */\n      dup9\n      dup2\n      and\n      swap1\n        /* \"CoreContracts/kalyswap-core/KalyswapFactory_flattened.sol\":14499:14529  uint(_reserve0).mul(_reserve1) */\n      dup9\n      and\n        /* \"CoreContracts/kalyswap-core/KalyswapFactory_flattened.sol\":14499:14518  uint(_reserve0).mul */\n      tag_146\n        /* \"CoreContracts/kalyswap-core/KalyswapFactory_flattened.sol\":14499:14529  uint(_reserve0).mul(_reserve1) */\n      jump\t// in\n        /* \"CoreContracts/kalyswap-core/KalyswapFactory_flattened.sol\":14489:14530  Math.sqrt(uint(_reserve0).mul(_reserve1)) */\n    tag_303:\n        /* \"CoreContracts/kalyswap-core/KalyswapFactory_flattened.sol\":14476:14530  uint rootK = Math.sqrt(uint(_reserve0).mul(_reserve1)) */\n      swap1\n      pop\n        /* \"CoreContracts/kalyswap-core/KalyswapFactory_flattened.sol\":14548:14562  uint rootKLast */\n      0x00\n        /* \"CoreContracts/kalyswap-core/KalyswapFactory_flattened.sol\":14565:14582  Math.sqrt(_kLast) */\n      tag_305\n        /* \"CoreContracts/kalyswap-core/KalyswapFactory_flattened.sol\":14575:14581  _kLast */\n      dup4\n        /* \"CoreContracts/kalyswap-core/KalyswapFactory_flattened.sol\":14565:14574  Math.sqrt */\n      tag_187\n        /* \"CoreContracts/kalyswap-core/KalyswapFactory_flattened.sol\":14565:14582  Math.sqrt(_kLast) */\n      jump\t// in\n    tag_305:\n        /* \"CoreContracts/kalyswap-core/KalyswapFactory_flattened.sol\":14548:14582  uint rootKLast = Math.sqrt(_kLast) */\n      swap1\n      pop\n        /* \"CoreContracts/kalyswap-core/KalyswapFactory_flattened.sol\":14612:14621  rootKLast */\n      dup1\n        /* \"CoreContracts/kalyswap-core/KalyswapFactory_flattened.sol\":14604:14609  rootK */\n      dup3\n        /* \"CoreContracts/kalyswap-core/KalyswapFactory_flattened.sol\":14604:14621  rootK > rootKLast */\n      gt\n        /* \"CoreContracts/kalyswap-core/KalyswapFactory_flattened.sol\":14600:14912  if (rootK > rootKLast) {... */\n      iszero\n      tag_306\n      jumpi\n        /* \"CoreContracts/kalyswap-core/KalyswapFactory_flattened.sol\":14645:14659  uint numerator */\n      0x00\n        /* \"CoreContracts/kalyswap-core/KalyswapFactory_flattened.sol\":14662:14699  totalSupply.mul(rootK.sub(rootKLast)) */\n      tag_307\n        /* \"CoreContracts/kalyswap-core/KalyswapFactory_flattened.sol\":14678:14698  rootK.sub(rootKLast) */\n      tag_308\n        /* \"CoreContracts/kalyswap-core/KalyswapFactory_flattened.sol\":14678:14683  rootK */\n      dup5\n        /* \"CoreContracts/kalyswap-core/KalyswapFactory_flattened.sol\":14688:14697  rootKLast */\n      dup5\n        /* \"CoreContracts/kalyswap-core/KalyswapFactory_flattened.sol\":14678:14698  rootK.sub(rootKLast) */\n      0xffffffff\n        /* \"CoreContracts/kalyswap-core/KalyswapFactory_flattened.sol\":14678:14687  rootK.sub */\n      tag_148\n        /* \"CoreContracts/kalyswap-core/KalyswapFactory_flattened.sol\":14678:14698  rootK.sub(rootKLast) */\n      and\n      jump\t// in\n    tag_308:\n        /* \"CoreContracts/kalyswap-core/KalyswapFactory_flattened.sol\":14662:14673  totalSupply */\n      sload(0x00)\n      swap1\n        /* \"CoreContracts/kalyswap-core/KalyswapFactory_flattened.sol\":14662:14699  totalSupply.mul(rootK.sub(rootKLast)) */\n      0xffffffff\n        /* \"CoreContracts/kalyswap-core/KalyswapFactory_flattened.sol\":14662:14677  totalSupply.mul */\n      tag_146\n        /* \"CoreContracts/kalyswap-core/KalyswapFactory_flattened.sol\":14662:14699  totalSupply.mul(rootK.sub(rootKLast)) */\n      and\n      jump\t// in\n    tag_307:\n        /* \"CoreContracts/kalyswap-core/KalyswapFactory_flattened.sol\":14645:14699  uint numerator = totalSupply.mul(rootK.sub(rootKLast)) */\n      swap1\n      pop\n        /* \"CoreContracts/kalyswap-core/KalyswapFactory_flattened.sol\":14721:14737  uint denominator */\n      0x00\n        /* \"CoreContracts/kalyswap-core/KalyswapFactory_flattened.sol\":14740:14767  rootK.mul(5).add(rootKLast) */\n      tag_309\n        /* \"CoreContracts/kalyswap-core/KalyswapFactory_flattened.sol\":14757:14766  rootKLast */\n      dup4\n        /* \"CoreContracts/kalyswap-core/KalyswapFactory_flattened.sol\":14740:14752  rootK.mul(5) */\n      tag_310\n        /* \"CoreContracts/kalyswap-core/KalyswapFactory_flattened.sol\":14740:14745  rootK */\n      dup7\n        /* \"CoreContracts/kalyswap-core/KalyswapFactory_flattened.sol\":14750:14751  5 */\n      0x05\n        /* \"CoreContracts/kalyswap-core/KalyswapFactory_flattened.sol\":14740:14752  rootK.mul(5) */\n      0xffffffff\n        /* \"CoreContracts/kalyswap-core/KalyswapFactory_flattened.sol\":14740:14749  rootK.mul */\n      tag_146\n        /* \"CoreContracts/kalyswap-core/KalyswapFactory_flattened.sol\":14740:14752  rootK.mul(5) */\n      and\n      jump\t// in\n    tag_310:\n        /* \"CoreContracts/kalyswap-core/KalyswapFactory_flattened.sol\":14740:14756  rootK.mul(5).add */\n      swap1\n        /* \"CoreContracts/kalyswap-core/KalyswapFactory_flattened.sol\":14740:14767  rootK.mul(5).add(rootKLast) */\n      0xffffffff\n        /* \"CoreContracts/kalyswap-core/KalyswapFactory_flattened.sol\":14740:14756  rootK.mul(5).add */\n      tag_296\n        /* \"CoreContracts/kalyswap-core/KalyswapFactory_flattened.sol\":14740:14767  rootK.mul(5).add(rootKLast) */\n      and\n      jump\t// in\n    tag_309:\n        /* \"CoreContracts/kalyswap-core/KalyswapFactory_flattened.sol\":14721:14767  uint denominator = rootK.mul(5).add(rootKLast) */\n      swap1\n      pop\n        /* \"CoreContracts/kalyswap-core/KalyswapFactory_flattened.sol\":14789:14803  uint liquidity */\n      0x00\n        /* \"CoreContracts/kalyswap-core/KalyswapFactory_flattened.sol\":14818:14829  denominator */\n      dup2\n        /* \"CoreContracts/kalyswap-core/KalyswapFactory_flattened.sol\":14806:14815  numerator */\n      dup4\n        /* \"CoreContracts/kalyswap-core/KalyswapFactory_flattened.sol\":14806:14829  numerator / denominator */\n      dup2\n      tag_311\n      jumpi\n      invalid\n    tag_311:\n      div\n      swap1\n      pop\n        /* \"CoreContracts/kalyswap-core/KalyswapFactory_flattened.sol\":14855:14868  liquidity > 0 */\n      dup1\n      iszero\n        /* \"CoreContracts/kalyswap-core/KalyswapFactory_flattened.sol\":14851:14893  if (liquidity > 0) _mint(feeTo, liquidity) */\n      tag_313\n      jumpi\n        /* \"CoreContracts/kalyswap-core/KalyswapFactory_flattened.sol\":14870:14893  _mint(feeTo, liquidity) */\n      tag_313\n        /* \"CoreContracts/kalyswap-core/KalyswapFactory_flattened.sol\":14876:14881  feeTo */\n      dup8\n        /* \"CoreContracts/kalyswap-core/KalyswapFactory_flattened.sol\":14883:14892  liquidity */\n      dup3\n        /* \"CoreContracts/kalyswap-core/KalyswapFactory_flattened.sol\":14870:14875  _mint */\n      tag_189\n        /* \"CoreContracts/kalyswap-core/KalyswapFactory_flattened.sol\":14870:14893  _mint(feeTo, liquidity) */\n      jump\t// in\n    tag_313:\n        /* \"CoreContracts/kalyswap-core/KalyswapFactory_flattened.sol\":14600:14912  if (rootK > rootKLast) {... */\n      pop\n      pop\n      pop\n    tag_306:\n        /* \"CoreContracts/kalyswap-core/KalyswapFactory_flattened.sol\":14441:14926  if (_kLast != 0) {... */\n      pop\n      pop\n    tag_302:\n        /* \"CoreContracts/kalyswap-core/KalyswapFactory_flattened.sol\":14416:14993  if (feeOn) {... */\n      jump(tag_315)\n    tag_301:\n        /* \"CoreContracts/kalyswap-core/KalyswapFactory_flattened.sol\":14946:14957  _kLast != 0 */\n      dup1\n      iszero\n        /* \"CoreContracts/kalyswap-core/KalyswapFactory_flattened.sol\":14942:14993  if (_kLast != 0) {... */\n      tag_315\n      jumpi\n        /* \"CoreContracts/kalyswap-core/KalyswapFactory_flattened.sol\":14981:14982  0 */\n      0x00\n        /* \"CoreContracts/kalyswap-core/KalyswapFactory_flattened.sol\":14973:14978  kLast */\n      0x0b\n        /* \"CoreContracts/kalyswap-core/KalyswapFactory_flattened.sol\":14973:14982  kLast = 0 */\n      sstore\n        /* \"CoreContracts/kalyswap-core/KalyswapFactory_flattened.sol\":14942:14993  if (_kLast != 0) {... */\n    tag_315:\n        /* \"CoreContracts/kalyswap-core/KalyswapFactory_flattened.sol\":14181:14999  function _mintFee(uint112 _reserve0, uint112 _reserve1) private returns (bool feeOn) {... */\n      pop\n      pop\n      swap3\n      swap2\n      pop\n      pop\n      jump\t// out\n        /* \"CoreContracts/kalyswap-core/KalyswapFactory_flattened.sol\":2101:2393  function sqrt(uint y) internal pure returns (uint z) {... */\n    tag_187:\n        /* \"CoreContracts/kalyswap-core/KalyswapFactory_flattened.sol\":2146:2152  uint z */\n      0x00\n        /* \"CoreContracts/kalyswap-core/KalyswapFactory_flattened.sol\":2172:2173  3 */\n      0x03\n        /* \"CoreContracts/kalyswap-core/KalyswapFactory_flattened.sol\":2168:2169  y */\n      dup3\n        /* \"CoreContracts/kalyswap-core/KalyswapFactory_flattened.sol\":2168:2173  y > 3 */\n      gt\n        /* \"CoreContracts/kalyswap-core/KalyswapFactory_flattened.sol\":2164:2387  if (y > 3) {... */\n      iszero\n      tag_317\n      jumpi\n      pop\n        /* \"CoreContracts/kalyswap-core/KalyswapFactory_flattened.sol\":2193:2194  y */\n      dup1\n        /* \"CoreContracts/kalyswap-core/KalyswapFactory_flattened.sol\":2225:2226  1 */\n      0x01\n        /* \"CoreContracts/kalyswap-core/KalyswapFactory_flattened.sol\":2221:2222  2 */\n      0x02\n        /* \"CoreContracts/kalyswap-core/KalyswapFactory_flattened.sol\":2217:2222  y / 2 */\n      dup3\n      div\n        /* \"CoreContracts/kalyswap-core/KalyswapFactory_flattened.sol\":2217:2226  y / 2 + 1 */\n      add\n        /* \"CoreContracts/kalyswap-core/KalyswapFactory_flattened.sol\":2240:2329  while (x < z) {... */\n    tag_319:\n        /* \"CoreContracts/kalyswap-core/KalyswapFactory_flattened.sol\":2251:2252  z */\n      dup2\n        /* \"CoreContracts/kalyswap-core/KalyswapFactory_flattened.sol\":2247:2248  x */\n      dup2\n        /* \"CoreContracts/kalyswap-core/KalyswapFactory_flattened.sol\":2247:2252  x < z */\n      lt\n        /* \"CoreContracts/kalyswap-core/KalyswapFactory_flattened.sol\":2240:2329  while (x < z) {... */\n      iszero\n      tag_320\n      jumpi\n        /* \"CoreContracts/kalyswap-core/KalyswapFactory_flattened.sol\":2276:2277  x */\n      dup1\n        /* \"CoreContracts/kalyswap-core/KalyswapFactory_flattened.sol\":2272:2277  z = x */\n      swap2\n      pop\n        /* \"CoreContracts/kalyswap-core/KalyswapFactory_flattened.sol\":2313:2314  2 */\n      0x02\n        /* \"CoreContracts/kalyswap-core/KalyswapFactory_flattened.sol\":2308:2309  x */\n      dup2\n        /* \"CoreContracts/kalyswap-core/KalyswapFactory_flattened.sol\":2304:2305  x */\n      dup3\n        /* \"CoreContracts/kalyswap-core/KalyswapFactory_flattened.sol\":2300:2301  y */\n      dup6\n        /* \"CoreContracts/kalyswap-core/KalyswapFactory_flattened.sol\":2300:2305  y / x */\n      dup2\n      tag_321\n      jumpi\n      invalid\n    tag_321:\n      div\n        /* \"CoreContracts/kalyswap-core/KalyswapFactory_flattened.sol\":2300:2309  y / x + x */\n      add\n        /* \"CoreContracts/kalyswap-core/KalyswapFactory_flattened.sol\":2299:2314  (y / x + x) / 2 */\n      dup2\n      tag_322\n      jumpi\n      invalid\n    tag_322:\n      div\n        /* \"CoreContracts/kalyswap-core/KalyswapFactory_flattened.sol\":2295:2314  x = (y / x + x) / 2 */\n      swap1\n      pop\n        /* \"CoreContracts/kalyswap-core/KalyswapFactory_flattened.sol\":2240:2329  while (x < z) {... */\n      jump(tag_319)\n    tag_320:\n        /* \"CoreContracts/kalyswap-core/KalyswapFactory_flattened.sol\":2164:2387  if (y > 3) {... */\n      pop\n      jump(tag_324)\n    tag_317:\n        /* \"CoreContracts/kalyswap-core/KalyswapFactory_flattened.sol\":2349:2355  y != 0 */\n      dup2\n      iszero\n        /* \"CoreContracts/kalyswap-core/KalyswapFactory_flattened.sol\":2345:2387  if (y != 0) {... */\n      tag_324\n      jumpi\n      pop\n        /* \"CoreContracts/kalyswap-core/KalyswapFactory_flattened.sol\":2375:2376  1 */\n      0x01\n        /* \"CoreContracts/kalyswap-core/KalyswapFactory_flattened.sol\":2345:2387  if (y != 0) {... */\n    tag_324:\n        /* \"CoreContracts/kalyswap-core/KalyswapFactory_flattened.sol\":2101:2393  function sqrt(uint y) internal pure returns (uint z) {... */\n      swap2\n      swap1\n      pop\n      jump\t// out\n        /* \"CoreContracts/kalyswap-core/KalyswapFactory_flattened.sol\":5577:5774  function _mint(address to, uint value) internal {... */\n    tag_189:\n        /* \"CoreContracts/kalyswap-core/KalyswapFactory_flattened.sol\":5649:5660  totalSupply */\n      sload(0x00)\n        /* \"CoreContracts/kalyswap-core/KalyswapFactory_flattened.sol\":5649:5671  totalSupply.add(value) */\n      tag_326\n      swap1\n        /* \"CoreContracts/kalyswap-core/KalyswapFactory_flattened.sol\":5665:5670  value */\n      dup3\n        /* \"CoreContracts/kalyswap-core/KalyswapFactory_flattened.sol\":5649:5671  totalSupply.add(value) */\n      0xffffffff\n        /* \"CoreContracts/kalyswap-core/KalyswapFactory_flattened.sol\":5649:5664  totalSupply.add */\n      tag_296\n        /* \"CoreContracts/kalyswap-core/KalyswapFactory_flattened.sol\":5649:5671  totalSupply.add(value) */\n      and\n      jump\t// in\n    tag_326:\n        /* \"CoreContracts/kalyswap-core/KalyswapFactory_flattened.sol\":5635:5646  totalSupply */\n      0x00\n        /* \"CoreContracts/kalyswap-core/KalyswapFactory_flattened.sol\":5635:5671  totalSupply = totalSupply.add(value) */\n      swap1\n      dup2\n      sstore\n      sub(shl(0xa0, 0x01), 0x01)\n        /* \"CoreContracts/kalyswap-core/KalyswapFactory_flattened.sol\":5697:5710  balanceOf[to] */\n      dup4\n      and\n      dup2\n      mstore\n      mstore(0x20, 0x01)\n      0x40\n      swap1\n      keccak256\n      sload\n        /* \"CoreContracts/kalyswap-core/KalyswapFactory_flattened.sol\":5697:5721  balanceOf[to].add(value) */\n      tag_327\n      swap1\n        /* \"CoreContracts/kalyswap-core/KalyswapFactory_flattened.sol\":5715:5720  value */\n      dup3\n        /* \"CoreContracts/kalyswap-core/KalyswapFactory_flattened.sol\":5697:5714  balanceOf[to].add */\n      tag_296\n        /* \"CoreContracts/kalyswap-core/KalyswapFactory_flattened.sol\":5697:5721  balanceOf[to].add(value) */\n      jump\t// in\n    tag_327:\n      sub(shl(0xa0, 0x01), 0x01)\n        /* \"CoreContracts/kalyswap-core/KalyswapFactory_flattened.sol\":5681:5694  balanceOf[to] */\n      dup4\n      and\n      0x00\n      dup2\n      dup2\n      mstore\n      0x01\n      0x20\n      swap1\n      dup2\n      mstore\n      0x40\n      dup1\n      dup4\n      keccak256\n        /* \"CoreContracts/kalyswap-core/KalyswapFactory_flattened.sol\":5681:5721  balanceOf[to] = balanceOf[to].add(value) */\n      swap5\n      swap1\n      swap5\n      sstore\n        /* \"CoreContracts/kalyswap-core/KalyswapFactory_flattened.sol\":5736:5767  Transfer(address(0), to, value) */\n      dup4\n      mload\n      dup6\n      dup2\n      mstore\n      swap4\n      mload\n        /* \"CoreContracts/kalyswap-core/KalyswapFactory_flattened.sol\":5681:5694  balanceOf[to] */\n      swap3\n      swap4\n      swap2\n      swap3\n        /* \"CoreContracts/kalyswap-core/KalyswapFactory_flattened.sol\":5736:5767  Transfer(address(0), to, value) */\n      0xddf252ad1be2c89b69c2b068fc378daa952ba7f163c4a11628f55a4df523b3ef\n      swap3\n      dup2\n      swap1\n      sub\n      swap1\n      swap2\n      add\n      swap1\n      log3\n        /* \"CoreContracts/kalyswap-core/KalyswapFactory_flattened.sol\":5577:5774  function _mint(address to, uint value) internal {... */\n      pop\n      pop\n      jump\t// out\n        /* \"CoreContracts/kalyswap-core/KalyswapFactory_flattened.sol\":1892:1986  function min(uint x, uint y) internal pure returns (uint z) {... */\n    tag_196:\n        /* \"CoreContracts/kalyswap-core/KalyswapFactory_flattened.sol\":1944:1950  uint z */\n      0x00\n        /* \"CoreContracts/kalyswap-core/KalyswapFactory_flattened.sol\":1970:1971  y */\n      dup2\n        /* \"CoreContracts/kalyswap-core/KalyswapFactory_flattened.sol\":1966:1967  x */\n      dup4\n        /* \"CoreContracts/kalyswap-core/KalyswapFactory_flattened.sol\":1966:1971  x < y */\n      lt\n        /* \"CoreContracts/kalyswap-core/KalyswapFactory_flattened.sol\":1966:1979  x < y ? x : y */\n      tag_329\n      jumpi\n        /* \"CoreContracts/kalyswap-core/KalyswapFactory_flattened.sol\":1978:1979  y */\n      dup2\n        /* \"CoreContracts/kalyswap-core/KalyswapFactory_flattened.sol\":1966:1979  x < y ? x : y */\n      jump(tag_330)\n    tag_329:\n        /* \"CoreContracts/kalyswap-core/KalyswapFactory_flattened.sol\":1974:1975  x */\n      dup3\n        /* \"CoreContracts/kalyswap-core/KalyswapFactory_flattened.sol\":1966:1979  x < y ? x : y */\n    tag_330:\n        /* \"CoreContracts/kalyswap-core/KalyswapFactory_flattened.sol\":1962:1979  z = x < y ? x : y */\n      swap4\n        /* \"CoreContracts/kalyswap-core/KalyswapFactory_flattened.sol\":1892:1986  function min(uint x, uint y) internal pure returns (uint z) {... */\n      swap3\n      pop\n      pop\n      pop\n      jump\t// out\n        /* \"CoreContracts/kalyswap-core/KalyswapFactory_flattened.sol\":5780:5985  function _burn(address from, uint value) internal {... */\n    tag_220:\n      sub(shl(0xa0, 0x01), 0x01)\n        /* \"CoreContracts/kalyswap-core/KalyswapFactory_flattened.sol\":5858:5873  balanceOf[from] */\n      dup3\n      and\n      0x00\n      swap1\n      dup2\n      mstore\n      mstore(0x20, 0x01)\n      0x40\n      swap1\n      keccak256\n      sload\n        /* \"CoreContracts/kalyswap-core/KalyswapFactory_flattened.sol\":5858:5884  balanceOf[from].sub(value) */\n      tag_332\n      swap1\n        /* \"CoreContracts/kalyswap-core/KalyswapFactory_flattened.sol\":5878:5883  value */\n      dup3\n        /* \"CoreContracts/kalyswap-core/KalyswapFactory_flattened.sol\":5858:5877  balanceOf[from].sub */\n      tag_148\n        /* \"CoreContracts/kalyswap-core/KalyswapFactory_flattened.sol\":5858:5884  balanceOf[from].sub(value) */\n      jump\t// in\n    tag_332:\n      sub(shl(0xa0, 0x01), 0x01)\n        /* \"CoreContracts/kalyswap-core/KalyswapFactory_flattened.sol\":5840:5855  balanceOf[from] */\n      dup4\n      and\n      0x00\n      swap1\n      dup2\n      mstore\n      mstore(0x20, 0x01)\n      0x40\n      dup2\n      keccak256\n        /* \"CoreContracts/kalyswap-core/KalyswapFactory_flattened.sol\":5840:5884  balanceOf[from] = balanceOf[from].sub(value) */\n      swap2\n      swap1\n      swap2\n      sstore\n        /* \"CoreContracts/kalyswap-core/KalyswapFactory_flattened.sol\":5908:5919  totalSupply */\n      sload\n        /* \"CoreContracts/kalyswap-core/KalyswapFactory_flattened.sol\":5908:5930  totalSupply.sub(value) */\n      tag_333\n      swap1\n        /* \"CoreContracts/kalyswap-core/KalyswapFactory_flattened.sol\":5924:5929  value */\n      dup3\n        /* \"CoreContracts/kalyswap-core/KalyswapFactory_flattened.sol\":5908:5923  totalSupply.sub */\n      tag_148\n        /* \"CoreContracts/kalyswap-core/KalyswapFactory_flattened.sol\":5908:5930  totalSupply.sub(value) */\n      jump\t// in\n    tag_333:\n        /* \"CoreContracts/kalyswap-core/KalyswapFactory_flattened.sol\":5894:5905  totalSupply */\n      0x00\n        /* \"CoreContracts/kalyswap-core/KalyswapFactory_flattened.sol\":5894:5930  totalSupply = totalSupply.sub(value) */\n      swap1\n      dup2\n      sstore\n        /* \"CoreContracts/kalyswap-core/KalyswapFactory_flattened.sol\":5945:5978  Transfer(from, address(0), value) */\n      0x40\n      dup1\n      mload\n      dup4\n      dup2\n      mstore\n      swap1\n      mload\n      sub(shl(0xa0, 0x01), 0x01)\n      dup6\n      and\n      swap2\n      0xddf252ad1be2c89b69c2b068fc378daa952ba7f163c4a11628f55a4df523b3ef\n      swap2\n      swap1\n      dup2\n      swap1\n      sub\n      0x20\n      add\n      swap1\n      log3\n        /* \"CoreContracts/kalyswap-core/KalyswapFactory_flattened.sol\":5780:5985  function _burn(address from, uint value) internal {... */\n      pop\n      pop\n      jump\t// out\n        /* \"CoreContracts/kalyswap-core/KalyswapFactory_flattened.sol\":1445:1563  function encode(uint112 y) internal pure returns (uint224 z) {... */\n    tag_288:\n      sub(shl(0x70, 0x01), 0x01)\n        /* \"CoreContracts/kalyswap-core/KalyswapFactory_flattened.sol\":1520:1530  uint224(y) */\n      and\n      shl(0x70, 0x01)\n        /* \"CoreContracts/kalyswap-core/KalyswapFactory_flattened.sol\":1520:1537  uint224(y) * Q112 */\n      mul\n      swap1\n        /* \"CoreContracts/kalyswap-core/KalyswapFactory_flattened.sol\":1445:1563  function encode(uint112 y) internal pure returns (uint224 z) {... */\n      jump\t// out\n        /* \"CoreContracts/kalyswap-core/KalyswapFactory_flattened.sol\":1631:1737  function uqdiv(uint224 x, uint112 y) internal pure returns (uint224 z) {... */\n    tag_289:\n        /* \"CoreContracts/kalyswap-core/KalyswapFactory_flattened.sol\":1691:1700  uint224 z */\n      0x00\n      sub(shl(0x70, 0x01), 0x01)\n        /* \"CoreContracts/kalyswap-core/KalyswapFactory_flattened.sol\":1720:1730  uint224(y) */\n      dup3\n      and\n      sub(shl(0xe0, 0x01), 0x01)\n        /* \"CoreContracts/kalyswap-core/KalyswapFactory_flattened.sol\":1716:1730  x / uint224(y) */\n      dup5\n      and\n        /* \"CoreContracts/kalyswap-core/KalyswapFactory_flattened.sol\":1720:1730  uint224(y) */\n      dup2\n        /* \"CoreContracts/kalyswap-core/KalyswapFactory_flattened.sol\":1716:1730  x / uint224(y) */\n      tag_336\n      jumpi\n      invalid\n    tag_336:\n      div\n      swap4\n        /* \"CoreContracts/kalyswap-core/KalyswapFactory_flattened.sol\":1631:1737  function uqdiv(uint224 x, uint112 y) internal pure returns (uint224 z) {... */\n      swap3\n      pop\n      pop\n      pop\n      jump\t// out\n        /* \"CoreContracts/kalyswap-core/KalyswapFactory_flattened.sol\":2609:2735  function add(uint x, uint y) internal pure returns (uint z) {... */\n    tag_296:\n        /* \"CoreContracts/kalyswap-core/KalyswapFactory_flattened.sol\":2692:2697  x + y */\n      dup1\n      dup3\n      add\n        /* \"CoreContracts/kalyswap-core/KalyswapFactory_flattened.sol\":2687:2703  (z = x + y) >= x */\n      dup3\n      dup2\n      lt\n      iszero\n        /* \"CoreContracts/kalyswap-core/KalyswapFactory_flattened.sol\":2679:2728  require((z = x + y) >= x, 'ds-math-add-overflow') */\n      tag_159\n      jumpi\n      0x40\n      dup1\n      mload\n      shl(0xe5, 0x461bcd)\n      dup2\n      mstore\n      0x20\n      0x04\n      dup3\n      add\n      mstore\n      0x14\n      0x24\n      dup3\n      add\n      mstore\n      0x64732d6d6174682d6164642d6f766572666c6f77000000000000000000000000\n      0x44\n      dup3\n      add\n      mstore\n      swap1\n      mload\n      swap1\n      dup2\n      swap1\n      sub\n      0x64\n      add\n      swap1\n      revert\n    stop\n    data_0ab0350c45f281195d02e95ee380f6a81377d1418b52bca20e90c5393cc4ad99 4b616c79737761703a20494e53554646494349454e545f494e5055545f414d4f554e54\n    data_155e26636215cc7cf33a9201a8bb56ae2e8d879dd67a1dca3f8fe1fa2c30aebf 4b616c79737761703a20494e53554646494349454e545f4f55545055545f414d4f554e54\n    data_9ee433e3d6830e1e0d04ac3995c1c7db80ed58256ee7b6fb6a7455d1450d81ba 4b616c79737761703a20494e53554646494349454e545f4c49515549444954595f4d494e544544\n    data_e5e2a845b8424aa9f019bfb478b8094907c6e08ef0e71b5ca527cdbc32a0d5c3 4b616c79737761703a20494e53554646494349454e545f4c49515549444954595f4255524e4544\n\n    auxdata: 0xa265627a7a72315820b8a18ca9d65a5740e14ccd870e5dc2fb1cdcc7adbfc60cf07b57bd0d138cdc9164736f6c63430005100032\n}\n",
				"bytecode": {
					"linkReferences": {},
					"object": "60806040526001600c5534801561001557600080fd5b50604051469080605261245f823960408051918290036052018220828201825260128352714b616c7973776170204c697175696469747960701b6020938401528151808301835260018152603160f81b908401528151808401919091527fd962d480548cea2d6ee7e34d119800d6b46dee603ed4fe4f1382f1d6ff280ab0818301527fc89efdaa54c0f20c7adf612882df0950f5a951637e0307cdcb4c672f298b8bc6606082015260808101949094523060a0808601919091528151808603909101815260c09094019052825192019190912060035550600580546001600160a01b031916331790556123528061010d6000396000f3fe608060405234801561001057600080fd5b50600436106101b95760003560e01c80636a627842116100f9578063ba9a7a5611610097578063d21220a711610071578063d21220a714610544578063d505accf1461054c578063dd62ed3e1461059d578063fff6cae9146105cb576101b9565b8063ba9a7a561461050e578063bc25cf7714610516578063c45a01551461053c576101b9565b80637ecebe00116100d35780637ecebe001461047557806389afcb441461049b57806395d89b41146104da578063a9059cbb146104e2576101b9565b80636a6278421461042157806370a08231146104475780637464fc3d1461046d576101b9565b806323b872dd116101665780633644e515116101405780633644e515146103db578063485cc955146103e35780635909c0d5146104115780635a3d549314610419576101b9565b806323b872dd1461037f57806330adf81f146103b5578063313ce567146103bd576101b9565b8063095ea7b311610197578063095ea7b3146103015780630dfe16811461034157806318160ddd14610365576101b9565b8063022c0d9f146101be57806306fdde031461024c5780630902f1ac146102c9575b600080fd5b61024a600480360360808110156101d457600080fd5b8135916020810135916001600160a01b03604083013516919081019060808101606082013564010000000081111561020b57600080fd5b82018360208201111561021d57600080fd5b8035906020019184600183028401116401000000008311171561023f57600080fd5b5090925090506105d3565b005b610254610b3c565b6040805160208082528351818301528351919283929083019185019080838360005b8381101561028e578181015183820152602001610276565b50505050905090810190601f1680156102bb5780820380516001836020036101000a031916815260200191505b509250505060405180910390f35b6102d1610b75565b604080516001600160701b03948516815292909316602083015263ffffffff168183015290519081900360600190f35b61032d6004803603604081101561031757600080fd5b506001600160a01b038135169060200135610b9f565b604080519115158252519081900360200190f35b610349610bb6565b604080516001600160a01b039092168252519081900360200190f35b61036d610bc5565b60408051918252519081900360200190f35b61032d6004803603606081101561039557600080fd5b506001600160a01b03813581169160208101359091169060400135610bcb565b61036d610c65565b6103c5610c89565b6040805160ff9092168252519081900360200190f35b61036d610c8e565b61024a600480360360408110156103f957600080fd5b506001600160a01b0381358116916020013516610c94565b61036d610d39565b61036d610d3f565b61036d6004803603602081101561043757600080fd5b50356001600160a01b0316610d45565b61036d6004803603602081101561045d57600080fd5b50356001600160a01b0316611044565b61036d611056565b61036d6004803603602081101561048b57600080fd5b50356001600160a01b031661105c565b6104c1600480360360208110156104b157600080fd5b50356001600160a01b031661106e565b6040805192835260208301919091528051918290030190f35b610254611413565b61032d600480360360408110156104f857600080fd5b506001600160a01b03813516906020013561144c565b61036d611459565b61024a6004803603602081101561052c57600080fd5b50356001600160a01b031661145f565b6103496115c9565b6103496115d8565b61024a600480360360e081101561056257600080fd5b506001600160a01b03813581169160208101359091169060408101359060608101359060ff6080820135169060a08101359060c001356115e7565b61036d600480360360408110156105b357600080fd5b506001600160a01b038135811691602001351661180f565b61024a61182c565b600c5460011461061d576040805162461bcd60e51b815260206004820152601060248201526f12d85b1e5cddd85c0e881313d0d2d15160821b604482015290519081900360640190fd5b6000600c55841515806106305750600084115b61066b5760405162461bcd60e51b81526004018080602001828103825260248152602001806122ac6024913960400191505060405180910390fd5b600080610676610b75565b5091509150816001600160701b03168710801561069b5750806001600160701b031686105b6106ec576040805162461bcd60e51b815260206004820181905260248201527f4b616c79737761703a20494e53554646494349454e545f4c4951554944495459604482015290519081900360640190fd5b60065460075460009182916001600160a01b0391821691908116908916821480159061072a5750806001600160a01b0316896001600160a01b031614155b61077b576040805162461bcd60e51b815260206004820152601460248201527f4b616c79737761703a20494e56414c49445f544f000000000000000000000000604482015290519081900360640190fd5b8a1561078c5761078c828a8d61198d565b891561079d5761079d818a8c61198d565b861561085857886001600160a01b0316633594162a338d8d8c8c6040518663ffffffff1660e01b815260040180866001600160a01b03166001600160a01b03168152602001858152602001848152602001806020018281038252848482818152602001925080828437600081840152601f19601f8201169050808301925050509650505050505050600060405180830381600087803b15801561083f57600080fd5b505af1158015610853573d6000803e3d6000fd5b505050505b604080516370a0823160e01b815230600482015290516001600160a01b038416916370a08231916024808301926020929190829003018186803b15801561089e57600080fd5b505afa1580156108b2573d6000803e3d6000fd5b505050506040513d60208110156108c857600080fd5b5051604080516370a0823160e01b815230600482015290519195506001600160a01b038316916370a0823191602480820192602092909190829003018186803b15801561091457600080fd5b505afa158015610928573d6000803e3d6000fd5b505050506040513d602081101561093e57600080fd5b5051925060009150506001600160701b0385168a90038311610961576000610970565b89856001600160701b03160383035b9050600089856001600160701b031603831161098d57600061099c565b89856001600160701b03160383035b905060008211806109ad5750600081115b6109e85760405162461bcd60e51b81526004018080602001828103825260238152602001806122896023913960400191505060405180910390fd5b6000610a1c6109fe84600363ffffffff611b4016565b610a10876103e863ffffffff611b4016565b9063ffffffff611bac16565b90506000610a346109fe84600363ffffffff611b4016565b9050610a65620f4240610a596001600160701b038b8116908b1663ffffffff611b4016565b9063ffffffff611b4016565b610a75838363ffffffff611b4016565b1015610ac8576040805162461bcd60e51b815260206004820152600b60248201527f4b616c79737761703a204b000000000000000000000000000000000000000000604482015290519081900360640190fd5b5050610ad684848888611c04565b60408051838152602081018390528082018d9052606081018c905290516001600160a01b038b169133917fd78ad95fa46c994b6551d0da85fc275fe613ce37657fb8d5e3d130840159d8229181900360800190a350506001600c55505050505050505050565b6040518060400160405280601281526020017f4b616c7973776170204c6971756964697479000000000000000000000000000081525081565b6008546001600160701b0380821692600160701b830490911691600160e01b900463ffffffff1690565b6000610bac338484611de1565b5060015b92915050565b6006546001600160a01b031681565b60005481565b6001600160a01b038316600090815260026020908152604080832033845290915281205460001914610c50576001600160a01b0384166000908152600260209081526040808320338452909152902054610c2b908363ffffffff611bac16565b6001600160a01b03851660009081526002602090815260408083203384529091529020555b610c5b848484611e43565b5060019392505050565b7f6e71edae12b1b97f4d1f60370fef10105fa2faae0126114a169c64845d6126c981565b601281565b60035481565b6005546001600160a01b03163314610cf3576040805162461bcd60e51b815260206004820152601360248201527f4b616c79737761703a20464f5242494444454e00000000000000000000000000604482015290519081900360640190fd5b600680546001600160a01b039384167fffffffffffffffffffffffff00000000000000000000000000000000000000009182161790915560078054929093169116179055565b60095481565b600a5481565b6000600c54600114610d91576040805162461bcd60e51b815260206004820152601060248201526f12d85b1e5cddd85c0e881313d0d2d15160821b604482015290519081900360640190fd5b6000600c81905580610da1610b75565b50600654604080516370a0823160e01b815230600482015290519395509193506000926001600160a01b03909116916370a08231916024808301926020929190829003018186803b158015610df557600080fd5b505afa158015610e09573d6000803e3d6000fd5b505050506040513d6020811015610e1f57600080fd5b5051600754604080516370a0823160e01b815230600482015290519293506000926001600160a01b03909216916370a0823191602480820192602092909190829003018186803b158015610e7257600080fd5b505afa158015610e86573d6000803e3d6000fd5b505050506040513d6020811015610e9c57600080fd5b505190506000610ebb836001600160701b03871663ffffffff611bac16565b90506000610ed8836001600160701b03871663ffffffff611bac16565b90506000610ee68787611efd565b60005490915080610f2357610f0f6103e8610a10610f0a878763ffffffff611b4016565b61205b565b9850610f1e60006103e86120ad565b610f72565b610f6f6001600160701b038916610f40868463ffffffff611b4016565b81610f4757fe5b046001600160701b038916610f62868563ffffffff611b4016565b81610f6957fe5b04612143565b98505b60008911610fb15760405162461bcd60e51b81526004018080602001828103825260278152602001806122d06027913960400191505060405180910390fd5b610fbb8a8a6120ad565b610fc786868a8a611c04565b8115610ff757600854610ff3906001600160701b0380821691600160701b90041663ffffffff611b4016565b600b555b6040805185815260208101859052815133927f4c209b5fc8ad50758f13e2e1088ba56a560dff690a1c6fef26394f4c03821c4f928290030190a250506001600c5550949695505050505050565b60016020526000908152604090205481565b600b5481565b60046020526000908152604090205481565b600080600c546001146110bb576040805162461bcd60e51b815260206004820152601060248201526f12d85b1e5cddd85c0e881313d0d2d15160821b604482015290519081900360640190fd5b6000600c819055806110cb610b75565b50600654600754604080516370a0823160e01b815230600482015290519496509294506001600160a01b039182169391169160009184916370a08231916024808301926020929190829003018186803b15801561112757600080fd5b505afa15801561113b573d6000803e3d6000fd5b505050506040513d602081101561115157600080fd5b5051604080516370a0823160e01b815230600482015290519192506000916001600160a01b038516916370a08231916024808301926020929190829003018186803b15801561119f57600080fd5b505afa1580156111b3573d6000803e3d6000fd5b505050506040513d60208110156111c957600080fd5b5051306000908152600160205260408120549192506111e88888611efd565b600054909150806111ff848763ffffffff611b4016565b8161120657fe5b049a508061121a848663ffffffff611b4016565b8161122157fe5b04995060008b118015611234575060008a115b61126f5760405162461bcd60e51b81526004018080602001828103825260278152602001806122f76027913960400191505060405180910390fd5b611279308461215b565b611284878d8d61198d565b61128f868d8c61198d565b604080516370a0823160e01b815230600482015290516001600160a01b038916916370a08231916024808301926020929190829003018186803b1580156112d557600080fd5b505afa1580156112e9573d6000803e3d6000fd5b505050506040513d60208110156112ff57600080fd5b5051604080516370a0823160e01b815230600482015290519196506001600160a01b038816916370a0823191602480820192602092909190829003018186803b15801561134b57600080fd5b505afa15801561135f573d6000803e3d6000fd5b505050506040513d602081101561137557600080fd5b5051935061138585858b8b611c04565b81156113b5576008546113b1906001600160701b0380821691600160701b90041663ffffffff611b4016565b600b555b604080518c8152602081018c905281516001600160a01b038f169233927fdccd412f0b1252819cb1fd330b93224ca42612892bb3f4f789976e6d81936496929081900390910190a35050505050505050506001600c81905550915091565b6040518060400160405280600381526020017f4b534c000000000000000000000000000000000000000000000000000000000081525081565b6000610bac338484611e43565b6103e881565b600c546001146114a9576040805162461bcd60e51b815260206004820152601060248201526f12d85b1e5cddd85c0e881313d0d2d15160821b604482015290519081900360640190fd5b6000600c55600654600754600854604080516370a0823160e01b815230600482015290516001600160a01b0394851694909316926115589285928792611553926001600160701b03169185916370a0823191602480820192602092909190829003018186803b15801561151b57600080fd5b505afa15801561152f573d6000803e3d6000fd5b505050506040513d602081101561154557600080fd5b50519063ffffffff611bac16565b61198d565b600854604080516370a0823160e01b815230600482015290516115bf928492879261155392600160701b90046001600160701b0316916001600160a01b038616916370a0823191602480820192602092909190829003018186803b15801561151b57600080fd5b50506001600c5550565b6005546001600160a01b031681565b6007546001600160a01b031681565b4284101561163c576040805162461bcd60e51b815260206004820152601160248201527f4b616c79737761703a2045585049524544000000000000000000000000000000604482015290519081900360640190fd5b6003546001600160a01b0380891660008181526004602090815260408083208054600180820190925582517f6e71edae12b1b97f4d1f60370fef10105fa2faae0126114a169c64845d6126c98186015280840196909652958d166060860152608085018c905260a085019590955260c08085018b90528151808603909101815260e0850182528051908301207f19010000000000000000000000000000000000000000000000000000000000006101008601526101028501969096526101228085019690965280518085039096018652610142840180825286519683019690962095839052610162840180825286905260ff89166101828501526101a284018890526101c28401879052519193926101e280820193601f1981019281900390910190855afa158015611772573d6000803e3d6000fd5b5050604051601f1901519150506001600160a01b038116158015906117a85750886001600160a01b0316816001600160a01b0316145b6117f9576040805162461bcd60e51b815260206004820152601b60248201527f4b616c79737761703a20494e56414c49445f5349474e41545552450000000000604482015290519081900360640190fd5b611804898989611de1565b505050505050505050565b600260209081526000928352604080842090915290825290205481565b600c54600114611876576040805162461bcd60e51b815260206004820152601060248201526f12d85b1e5cddd85c0e881313d0d2d15160821b604482015290519081900360640190fd5b6000600c55600654604080516370a0823160e01b81523060048201529051611986926001600160a01b0316916370a08231916024808301926020929190829003018186803b1580156118c757600080fd5b505afa1580156118db573d6000803e3d6000fd5b505050506040513d60208110156118f157600080fd5b5051600754604080516370a0823160e01b815230600482015290516001600160a01b03909216916370a0823191602480820192602092909190829003018186803b15801561193e57600080fd5b505afa158015611952573d6000803e3d6000fd5b505050506040513d602081101561196857600080fd5b50516008546001600160701b0380821691600160701b900416611c04565b6001600c55565b604080518082018252601981527f7472616e7366657228616464726573732c75696e74323536290000000000000060209182015281516001600160a01b0385811660248301526044808301869052845180840390910181526064909201845291810180516001600160e01b03167fa9059cbb000000000000000000000000000000000000000000000000000000001781529251815160009460609489169392918291908083835b60208310611a535780518252601f199092019160209182019101611a34565b6001836020036101000a0380198251168184511680821785525050505050509050019150506000604051808303816000865af19150503d8060008114611ab5576040519150601f19603f3d011682016040523d82523d6000602084013e611aba565b606091505b5091509150818015611ae8575080511580611ae85750808060200190516020811015611ae557600080fd5b50515b611b39576040805162461bcd60e51b815260206004820152601960248201527f4b616c79737761703a205452414e534645525f4641494c454400000000000000604482015290519081900360640190fd5b5050505050565b6000811580611b5b57505080820282828281611b5857fe5b04145b610bb0576040805162461bcd60e51b815260206004820152601460248201527f64732d6d6174682d6d756c2d6f766572666c6f77000000000000000000000000604482015290519081900360640190fd5b80820382811115610bb0576040805162461bcd60e51b815260206004820152601560248201527f64732d6d6174682d7375622d756e646572666c6f770000000000000000000000604482015290519081900360640190fd5b6001600160701b038411801590611c2257506001600160701b038311155b611c73576040805162461bcd60e51b815260206004820152601260248201527f4b616c79737761703a204f564552464c4f570000000000000000000000000000604482015290519081900360640190fd5b60085463ffffffff42811691600160e01b90048116820390811615801590611ca357506001600160701b03841615155b8015611cb757506001600160701b03831615155b15611d28578063ffffffff16611ce585611cd0866121f9565b6001600160e01b03169063ffffffff61220b16565b600980546001600160e01b03929092169290920201905563ffffffff8116611d1084611cd0876121f9565b600a80546001600160e01b0392909216929092020190555b600880546dffffffffffffffffffffffffffff19166001600160701b03888116919091177fffffffff0000000000000000000000000000ffffffffffffffffffffffffffff16600160701b8883168102919091176001600160e01b0316600160e01b63ffffffff871602179283905560408051848416815291909304909116602082015281517f1c411e9a96e071241c2f21f7726b17ae89e3cab4c78be50e062b03a9fffbbad1929181900390910190a1505050505050565b6001600160a01b03808416600081815260026020908152604080832094871680845294825291829020859055815185815291517f8c5be1e5ebec7d5bd14f71427d1e84f3dd0314c0f7b2291e5b200ac8c7c3b9259281900390910190a3505050565b6001600160a01b038316600090815260016020526040902054611e6c908263ffffffff611bac16565b6001600160a01b038085166000908152600160205260408082209390935590841681522054611ea1908263ffffffff61223016565b6001600160a01b0380841660008181526001602090815260409182902094909455805185815290519193928716927fddf252ad1be2c89b69c2b068fc378daa952ba7f163c4a11628f55a4df523b3ef92918290030190a3505050565b600080600560009054906101000a90046001600160a01b03166001600160a01b031663017e7e586040518163ffffffff1660e01b815260040160206040518083038186803b158015611f4e57600080fd5b505afa158015611f62573d6000803e3d6000fd5b505050506040513d6020811015611f7857600080fd5b5051600b546001600160a01b038216158015945091925090612047578015612042576000611fbb610f0a6001600160701b0388811690881663ffffffff611b4016565b90506000611fc88361205b565b90508082111561203f576000611ff6611fe7848463ffffffff611bac16565b6000549063ffffffff611b4016565b9050600061201b8361200f86600563ffffffff611b4016565b9063ffffffff61223016565b9050600081838161202857fe5b049050801561203b5761203b87826120ad565b5050505b50505b612053565b8015612053576000600b555b505092915050565b6000600382111561209e575080600160028204015b818110156120985780915060028182858161208757fe5b04018161209057fe5b049050612070565b506120a8565b81156120a8575060015b919050565b6000546120c0908263ffffffff61223016565b60009081556001600160a01b0383168152600160205260409020546120eb908263ffffffff61223016565b6001600160a01b03831660008181526001602090815260408083209490945583518581529351929391927fddf252ad1be2c89b69c2b068fc378daa952ba7f163c4a11628f55a4df523b3ef9281900390910190a35050565b60008183106121525781612154565b825b9392505050565b6001600160a01b038216600090815260016020526040902054612184908263ffffffff611bac16565b6001600160a01b038316600090815260016020526040812091909155546121b1908263ffffffff611bac16565b60009081556040805183815290516001600160a01b038516917fddf252ad1be2c89b69c2b068fc378daa952ba7f163c4a11628f55a4df523b3ef919081900360200190a35050565b6001600160701b0316600160701b0290565b60006001600160701b0382166001600160e01b0384168161222857fe5b049392505050565b80820182811015610bb0576040805162461bcd60e51b815260206004820152601460248201527f64732d6d6174682d6164642d6f766572666c6f77000000000000000000000000604482015290519081900360640190fdfe4b616c79737761703a20494e53554646494349454e545f494e5055545f414d4f554e544b616c79737761703a20494e53554646494349454e545f4f55545055545f414d4f554e544b616c79737761703a20494e53554646494349454e545f4c49515549444954595f4d494e5445444b616c79737761703a20494e53554646494349454e545f4c49515549444954595f4255524e4544a265627a7a72315820b8a18ca9d65a5740e14ccd870e5dc2fb1cdcc7adbfc60cf07b57bd0d138cdc9164736f6c63430005100032454950373132446f6d61696e28737472696e67206e616d652c737472696e672076657273696f6e2c75696e7432353620636861696e49642c6164647265737320766572696679696e67436f6e747261637429",
					"opcodes": "PUSH1 0x80 PUSH1 0x40 MSTORE PUSH1 0x1 PUSH1 0xC SSTORE CALLVALUE DUP1 ISZERO PUSH2 0x15 JUMPI PUSH1 0x0 DUP1 REVERT JUMPDEST POP PUSH1 0x40 MLOAD CHAINID SWAP1 DUP1 PUSH1 0x52 PUSH2 0x245F DUP3 CODECOPY PUSH1 0x40 DUP1 MLOAD SWAP2 DUP3 SWAP1 SUB PUSH1 0x52 ADD DUP3 KECCAK256 DUP3 DUP3 ADD DUP3 MSTORE PUSH1 0x12 DUP4 MSTORE PUSH18 0x4B616C7973776170204C6971756964697479 PUSH1 0x70 SHL PUSH1 0x20 SWAP4 DUP5 ADD MSTORE DUP2 MLOAD DUP1 DUP4 ADD DUP4 MSTORE PUSH1 0x1 DUP2 MSTORE PUSH1 0x31 PUSH1 0xF8 SHL SWAP1 DUP5 ADD MSTORE DUP2 MLOAD DUP1 DUP5 ADD SWAP2 SWAP1 SWAP2 MSTORE PUSH32 0xD962D480548CEA2D6EE7E34D119800D6B46DEE603ED4FE4F1382F1D6FF280AB0 DUP2 DUP4 ADD MSTORE PUSH32 0xC89EFDAA54C0F20C7ADF612882DF0950F5A951637E0307CDCB4C672F298B8BC6 PUSH1 0x60 DUP3 ADD MSTORE PUSH1 0x80 DUP2 ADD SWAP5 SWAP1 SWAP5 MSTORE ADDRESS PUSH1 0xA0 DUP1 DUP7 ADD SWAP2 SWAP1 SWAP2 MSTORE DUP2 MLOAD DUP1 DUP7 SUB SWAP1 SWAP2 ADD DUP2 MSTORE PUSH1 0xC0 SWAP1 SWAP5 ADD SWAP1 MSTORE DUP3 MLOAD SWAP3 ADD SWAP2 SWAP1 SWAP2 KECCAK256 PUSH1 0x3 SSTORE POP PUSH1 0x5 DUP1 SLOAD PUSH1 0x1 PUSH1 0x1 PUSH1 0xA0 SHL SUB NOT AND CALLER OR SWAP1 SSTORE PUSH2 0x2352 DUP1 PUSH2 0x10D PUSH1 0x0 CODECOPY PUSH1 0x0 RETURN INVALID PUSH1 0x80 PUSH1 0x40 MSTORE CALLVALUE DUP1 ISZERO PUSH2 0x10 JUMPI PUSH1 0x0 DUP1 REVERT JUMPDEST POP PUSH1 0x4 CALLDATASIZE LT PUSH2 0x1B9 JUMPI PUSH1 0x0 CALLDATALOAD PUSH1 0xE0 SHR DUP1 PUSH4 0x6A627842 GT PUSH2 0xF9 JUMPI DUP1 PUSH4 0xBA9A7A56 GT PUSH2 0x97 JUMPI DUP1 PUSH4 0xD21220A7 GT PUSH2 0x71 JUMPI DUP1 PUSH4 0xD21220A7 EQ PUSH2 0x544 JUMPI DUP1 PUSH4 0xD505ACCF EQ PUSH2 0x54C JUMPI DUP1 PUSH4 0xDD62ED3E EQ PUSH2 0x59D JUMPI DUP1 PUSH4 0xFFF6CAE9 EQ PUSH2 0x5CB JUMPI PUSH2 0x1B9 JUMP JUMPDEST DUP1 PUSH4 0xBA9A7A56 EQ PUSH2 0x50E JUMPI DUP1 PUSH4 0xBC25CF77 EQ PUSH2 0x516 JUMPI DUP1 PUSH4 0xC45A0155 EQ PUSH2 0x53C JUMPI PUSH2 0x1B9 JUMP JUMPDEST DUP1 PUSH4 0x7ECEBE00 GT PUSH2 0xD3 JUMPI DUP1 PUSH4 0x7ECEBE00 EQ PUSH2 0x475 JUMPI DUP1 PUSH4 0x89AFCB44 EQ PUSH2 0x49B JUMPI DUP1 PUSH4 0x95D89B41 EQ PUSH2 0x4DA JUMPI DUP1 PUSH4 0xA9059CBB EQ PUSH2 0x4E2 JUMPI PUSH2 0x1B9 JUMP JUMPDEST DUP1 PUSH4 0x6A627842 EQ PUSH2 0x421 JUMPI DUP1 PUSH4 0x70A08231 EQ PUSH2 0x447 JUMPI DUP1 PUSH4 0x7464FC3D EQ PUSH2 0x46D JUMPI PUSH2 0x1B9 JUMP JUMPDEST DUP1 PUSH4 0x23B872DD GT PUSH2 0x166 JUMPI DUP1 PUSH4 0x3644E515 GT PUSH2 0x140 JUMPI DUP1 PUSH4 0x3644E515 EQ PUSH2 0x3DB JUMPI DUP1 PUSH4 0x485CC955 EQ PUSH2 0x3E3 JUMPI DUP1 PUSH4 0x5909C0D5 EQ PUSH2 0x411 JUMPI DUP1 PUSH4 0x5A3D5493 EQ PUSH2 0x419 JUMPI PUSH2 0x1B9 JUMP JUMPDEST DUP1 PUSH4 0x23B872DD EQ PUSH2 0x37F JUMPI DUP1 PUSH4 0x30ADF81F EQ PUSH2 0x3B5 JUMPI DUP1 PUSH4 0x313CE567 EQ PUSH2 0x3BD JUMPI PUSH2 0x1B9 JUMP JUMPDEST DUP1 PUSH4 0x95EA7B3 GT PUSH2 0x197 JUMPI DUP1 PUSH4 0x95EA7B3 EQ PUSH2 0x301 JUMPI DUP1 PUSH4 0xDFE1681 EQ PUSH2 0x341 JUMPI DUP1 PUSH4 0x18160DDD EQ PUSH2 0x365 JUMPI PUSH2 0x1B9 JUMP JUMPDEST DUP1 PUSH4 0x22C0D9F EQ PUSH2 0x1BE JUMPI DUP1 PUSH4 0x6FDDE03 EQ PUSH2 0x24C JUMPI DUP1 PUSH4 0x902F1AC EQ PUSH2 0x2C9 JUMPI JUMPDEST PUSH1 0x0 DUP1 REVERT JUMPDEST PUSH2 0x24A PUSH1 0x4 DUP1 CALLDATASIZE SUB PUSH1 0x80 DUP2 LT ISZERO PUSH2 0x1D4 JUMPI PUSH1 0x0 DUP1 REVERT JUMPDEST DUP2 CALLDATALOAD SWAP2 PUSH1 0x20 DUP2 ADD CALLDATALOAD SWAP2 PUSH1 0x1 PUSH1 0x1 PUSH1 0xA0 SHL SUB PUSH1 0x40 DUP4 ADD CALLDATALOAD AND SWAP2 SWAP1 DUP2 ADD SWAP1 PUSH1 0x80 DUP2 ADD PUSH1 0x60 DUP3 ADD CALLDATALOAD PUSH5 0x100000000 DUP2 GT ISZERO PUSH2 0x20B JUMPI PUSH1 0x0 DUP1 REVERT JUMPDEST DUP3 ADD DUP4 PUSH1 0x20 DUP3 ADD GT ISZERO PUSH2 0x21D JUMPI PUSH1 0x0 DUP1 REVERT JUMPDEST DUP1 CALLDATALOAD SWAP1 PUSH1 0x20 ADD SWAP2 DUP5 PUSH1 0x1 DUP4 MUL DUP5 ADD GT PUSH5 0x100000000 DUP4 GT OR ISZERO PUSH2 0x23F JUMPI PUSH1 0x0 DUP1 REVERT JUMPDEST POP SWAP1 SWAP3 POP SWAP1 POP PUSH2 0x5D3 JUMP JUMPDEST STOP JUMPDEST PUSH2 0x254 PUSH2 0xB3C JUMP JUMPDEST PUSH1 0x40 DUP1 MLOAD PUSH1 0x20 DUP1 DUP3 MSTORE DUP4 MLOAD DUP2 DUP4 ADD MSTORE DUP4 MLOAD SWAP2 SWAP3 DUP4 SWAP3 SWAP1 DUP4 ADD SWAP2 DUP6 ADD SWAP1 DUP1 DUP4 DUP4 PUSH1 0x0 JUMPDEST DUP4 DUP2 LT ISZERO PUSH2 0x28E JUMPI DUP2 DUP2 ADD MLOAD DUP4 DUP3 ADD MSTORE PUSH1 0x20 ADD PUSH2 0x276 JUMP JUMPDEST POP POP POP POP SWAP1 POP SWAP1 DUP2 ADD SWAP1 PUSH1 0x1F AND DUP1 ISZERO PUSH2 0x2BB JUMPI DUP1 DUP3 SUB DUP1 MLOAD PUSH1 0x1 DUP4 PUSH1 0x20 SUB PUSH2 0x100 EXP SUB NOT AND DUP2 MSTORE PUSH1 0x20 ADD SWAP2 POP JUMPDEST POP SWAP3 POP POP POP PUSH1 0x40 MLOAD DUP1 SWAP2 SUB SWAP1 RETURN JUMPDEST PUSH2 0x2D1 PUSH2 0xB75 JUMP JUMPDEST PUSH1 0x40 DUP1 MLOAD PUSH1 0x1 PUSH1 0x1 PUSH1 0x70 SHL SUB SWAP5 DUP6 AND DUP2 MSTORE SWAP3 SWAP1 SWAP4 AND PUSH1 0x20 DUP4 ADD MSTORE PUSH4 0xFFFFFFFF AND DUP2 DUP4 ADD MSTORE SWAP1 MLOAD SWAP1 DUP2 SWAP1 SUB PUSH1 0x60 ADD SWAP1 RETURN JUMPDEST PUSH2 0x32D PUSH1 0x4 DUP1 CALLDATASIZE SUB PUSH1 0x40 DUP2 LT ISZERO PUSH2 0x317 JUMPI PUSH1 0x0 DUP1 REVERT JUMPDEST POP PUSH1 0x1 PUSH1 0x1 PUSH1 0xA0 SHL SUB DUP2 CALLDATALOAD AND SWAP1 PUSH1 0x20 ADD CALLDATALOAD PUSH2 0xB9F JUMP JUMPDEST PUSH1 0x40 DUP1 MLOAD SWAP2 ISZERO ISZERO DUP3 MSTORE MLOAD SWAP1 DUP2 SWAP1 SUB PUSH1 0x20 ADD SWAP1 RETURN JUMPDEST PUSH2 0x349 PUSH2 0xBB6 JUMP JUMPDEST PUSH1 0x40 DUP1 MLOAD PUSH1 0x1 PUSH1 0x1 PUSH1 0xA0 SHL SUB SWAP1 SWAP3 AND DUP3 MSTORE MLOAD SWAP1 DUP2 SWAP1 SUB PUSH1 0x20 ADD SWAP1 RETURN JUMPDEST PUSH2 0x36D PUSH2 0xBC5 JUMP JUMPDEST PUSH1 0x40 DUP1 MLOAD SWAP2 DUP3 MSTORE MLOAD SWAP1 DUP2 SWAP1 SUB PUSH1 0x20 ADD SWAP1 RETURN JUMPDEST PUSH2 0x32D PUSH1 0x4 DUP1 CALLDATASIZE SUB PUSH1 0x60 DUP2 LT ISZERO PUSH2 0x395 JUMPI PUSH1 0x0 DUP1 REVERT JUMPDEST POP PUSH1 0x1 PUSH1 0x1 PUSH1 0xA0 SHL SUB DUP2 CALLDATALOAD DUP2 AND SWAP2 PUSH1 0x20 DUP2 ADD CALLDATALOAD SWAP1 SWAP2 AND SWAP1 PUSH1 0x40 ADD CALLDATALOAD PUSH2 0xBCB JUMP JUMPDEST PUSH2 0x36D PUSH2 0xC65 JUMP JUMPDEST PUSH2 0x3C5 PUSH2 0xC89 JUMP JUMPDEST PUSH1 0x40 DUP1 MLOAD PUSH1 0xFF SWAP1 SWAP3 AND DUP3 MSTORE MLOAD SWAP1 DUP2 SWAP1 SUB PUSH1 0x20 ADD SWAP1 RETURN JUMPDEST PUSH2 0x36D PUSH2 0xC8E JUMP JUMPDEST PUSH2 0x24A PUSH1 0x4 DUP1 CALLDATASIZE SUB PUSH1 0x40 DUP2 LT ISZERO PUSH2 0x3F9 JUMPI PUSH1 0x0 DUP1 REVERT JUMPDEST POP PUSH1 0x1 PUSH1 0x1 PUSH1 0xA0 SHL SUB DUP2 CALLDATALOAD DUP2 AND SWAP2 PUSH1 0x20 ADD CALLDATALOAD AND PUSH2 0xC94 JUMP JUMPDEST PUSH2 0x36D PUSH2 0xD39 JUMP JUMPDEST PUSH2 0x36D PUSH2 0xD3F JUMP JUMPDEST PUSH2 0x36D PUSH1 0x4 DUP1 CALLDATASIZE SUB PUSH1 0x20 DUP2 LT ISZERO PUSH2 0x437 JUMPI PUSH1 0x0 DUP1 REVERT JUMPDEST POP CALLDATALOAD PUSH1 0x1 PUSH1 0x1 PUSH1 0xA0 SHL SUB AND PUSH2 0xD45 JUMP JUMPDEST PUSH2 0x36D PUSH1 0x4 DUP1 CALLDATASIZE SUB PUSH1 0x20 DUP2 LT ISZERO PUSH2 0x45D JUMPI PUSH1 0x0 DUP1 REVERT JUMPDEST POP CALLDATALOAD PUSH1 0x1 PUSH1 0x1 PUSH1 0xA0 SHL SUB AND PUSH2 0x1044 JUMP JUMPDEST PUSH2 0x36D PUSH2 0x1056 JUMP JUMPDEST PUSH2 0x36D PUSH1 0x4 DUP1 CALLDATASIZE SUB PUSH1 0x20 DUP2 LT ISZERO PUSH2 0x48B JUMPI PUSH1 0x0 DUP1 REVERT JUMPDEST POP CALLDATALOAD PUSH1 0x1 PUSH1 0x1 PUSH1 0xA0 SHL SUB AND PUSH2 0x105C JUMP JUMPDEST PUSH2 0x4C1 PUSH1 0x4 DUP1 CALLDATASIZE SUB PUSH1 0x20 DUP2 LT ISZERO PUSH2 0x4B1 JUMPI PUSH1 0x0 DUP1 REVERT JUMPDEST POP CALLDATALOAD PUSH1 0x1 PUSH1 0x1 PUSH1 0xA0 SHL SUB AND PUSH2 0x106E JUMP JUMPDEST PUSH1 0x40 DUP1 MLOAD SWAP3 DUP4 MSTORE PUSH1 0x20 DUP4 ADD SWAP2 SWAP1 SWAP2 MSTORE DUP1 MLOAD SWAP2 DUP3 SWAP1 SUB ADD SWAP1 RETURN JUMPDEST PUSH2 0x254 PUSH2 0x1413 JUMP JUMPDEST PUSH2 0x32D PUSH1 0x4 DUP1 CALLDATASIZE SUB PUSH1 0x40 DUP2 LT ISZERO PUSH2 0x4F8 JUMPI PUSH1 0x0 DUP1 REVERT JUMPDEST POP PUSH1 0x1 PUSH1 0x1 PUSH1 0xA0 SHL SUB DUP2 CALLDATALOAD AND SWAP1 PUSH1 0x20 ADD CALLDATALOAD PUSH2 0x144C JUMP JUMPDEST PUSH2 0x36D PUSH2 0x1459 JUMP JUMPDEST PUSH2 0x24A PUSH1 0x4 DUP1 CALLDATASIZE SUB PUSH1 0x20 DUP2 LT ISZERO PUSH2 0x52C JUMPI PUSH1 0x0 DUP1 REVERT JUMPDEST POP CALLDATALOAD PUSH1 0x1 PUSH1 0x1 PUSH1 0xA0 SHL SUB AND PUSH2 0x145F JUMP JUMPDEST PUSH2 0x349 PUSH2 0x15C9 JUMP JUMPDEST PUSH2 0x349 PUSH2 0x15D8 JUMP JUMPDEST PUSH2 0x24A PUSH1 0x4 DUP1 CALLDATASIZE SUB PUSH1 0xE0 DUP2 LT ISZERO PUSH2 0x562 JUMPI PUSH1 0x0 DUP1 REVERT JUMPDEST POP PUSH1 0x1 PUSH1 0x1 PUSH1 0xA0 SHL SUB DUP2 CALLDATALOAD DUP2 AND SWAP2 PUSH1 0x20 DUP2 ADD CALLDATALOAD SWAP1 SWAP2 AND SWAP1 PUSH1 0x40 DUP2 ADD CALLDATALOAD SWAP1 PUSH1 0x60 DUP2 ADD CALLDATALOAD SWAP1 PUSH1 0xFF PUSH1 0x80 DUP3 ADD CALLDATALOAD AND SWAP1 PUSH1 0xA0 DUP2 ADD CALLDATALOAD SWAP1 PUSH1 0xC0 ADD CALLDATALOAD PUSH2 0x15E7 JUMP JUMPDEST PUSH2 0x36D PUSH1 0x4 DUP1 CALLDATASIZE SUB PUSH1 0x40 DUP2 LT ISZERO PUSH2 0x5B3 JUMPI PUSH1 0x0 DUP1 REVERT JUMPDEST POP PUSH1 0x1 PUSH1 0x1 PUSH1 0xA0 SHL SUB DUP2 CALLDATALOAD DUP2 AND SWAP2 PUSH1 0x20 ADD CALLDATALOAD AND PUSH2 0x180F JUMP JUMPDEST PUSH2 0x24A PUSH2 0x182C JUMP JUMPDEST PUSH1 0xC SLOAD PUSH1 0x1 EQ PUSH2 0x61D JUMPI PUSH1 0x40 DUP1 MLOAD PUSH3 0x461BCD PUSH1 0xE5 SHL DUP2 MSTORE PUSH1 0x20 PUSH1 0x4 DUP3 ADD MSTORE PUSH1 0x10 PUSH1 0x24 DUP3 ADD MSTORE PUSH16 0x12D85B1E5CDDD85C0E881313D0D2D151 PUSH1 0x82 SHL PUSH1 0x44 DUP3 ADD MSTORE SWAP1 MLOAD SWAP1 DUP2 SWAP1 SUB PUSH1 0x64 ADD SWAP1 REVERT JUMPDEST PUSH1 0x0 PUSH1 0xC SSTORE DUP5 ISZERO ISZERO DUP1 PUSH2 0x630 JUMPI POP PUSH1 0x0 DUP5 GT JUMPDEST PUSH2 0x66B JUMPI PUSH1 0x40 MLOAD PUSH3 0x461BCD PUSH1 0xE5 SHL DUP2 MSTORE PUSH1 0x4 ADD DUP1 DUP1 PUSH1 0x20 ADD DUP3 DUP2 SUB DUP3 MSTORE PUSH1 0x24 DUP2 MSTORE PUSH1 0x20 ADD DUP1 PUSH2 0x22AC PUSH1 0x24 SWAP2 CODECOPY PUSH1 0x40 ADD SWAP2 POP POP PUSH1 0x40 MLOAD DUP1 SWAP2 SUB SWAP1 REVERT JUMPDEST PUSH1 0x0 DUP1 PUSH2 0x676 PUSH2 0xB75 JUMP JUMPDEST POP SWAP2 POP SWAP2 POP DUP2 PUSH1 0x1 PUSH1 0x1 PUSH1 0x70 SHL SUB AND DUP8 LT DUP1 ISZERO PUSH2 0x69B JUMPI POP DUP1 PUSH1 0x1 PUSH1 0x1 PUSH1 0x70 SHL SUB AND DUP7 LT JUMPDEST PUSH2 0x6EC JUMPI PUSH1 0x40 DUP1 MLOAD PUSH3 0x461BCD PUSH1 0xE5 SHL DUP2 MSTORE PUSH1 0x20 PUSH1 0x4 DUP3 ADD DUP2 SWAP1 MSTORE PUSH1 0x24 DUP3 ADD MSTORE PUSH32 0x4B616C79737761703A20494E53554646494349454E545F4C4951554944495459 PUSH1 0x44 DUP3 ADD MSTORE SWAP1 MLOAD SWAP1 DUP2 SWAP1 SUB PUSH1 0x64 ADD SWAP1 REVERT JUMPDEST PUSH1 0x6 SLOAD PUSH1 0x7 SLOAD PUSH1 0x0 SWAP2 DUP3 SWAP2 PUSH1 0x1 PUSH1 0x1 PUSH1 0xA0 SHL SUB SWAP2 DUP3 AND SWAP2 SWAP1 DUP2 AND SWAP1 DUP10 AND DUP3 EQ DUP1 ISZERO SWAP1 PUSH2 0x72A JUMPI POP DUP1 PUSH1 0x1 PUSH1 0x1 PUSH1 0xA0 SHL SUB AND DUP10 PUSH1 0x1 PUSH1 0x1 PUSH1 0xA0 SHL SUB AND EQ ISZERO JUMPDEST PUSH2 0x77B JUMPI PUSH1 0x40 DUP1 MLOAD PUSH3 0x461BCD PUSH1 0xE5 SHL DUP2 MSTORE PUSH1 0x20 PUSH1 0x4 DUP3 ADD MSTORE PUSH1 0x14 PUSH1 0x24 DUP3 ADD MSTORE PUSH32 0x4B616C79737761703A20494E56414C49445F544F000000000000000000000000 PUSH1 0x44 DUP3 ADD MSTORE SWAP1 MLOAD SWAP1 DUP2 SWAP1 SUB PUSH1 0x64 ADD SWAP1 REVERT JUMPDEST DUP11 ISZERO PUSH2 0x78C JUMPI PUSH2 0x78C DUP3 DUP11 DUP14 PUSH2 0x198D JUMP JUMPDEST DUP10 ISZERO PUSH2 0x79D JUMPI PUSH2 0x79D DUP2 DUP11 DUP13 PUSH2 0x198D JUMP JUMPDEST DUP7 ISZERO PUSH2 0x858 JUMPI DUP9 PUSH1 0x1 PUSH1 0x1 PUSH1 0xA0 SHL SUB AND PUSH4 0x3594162A CALLER DUP14 DUP14 DUP13 DUP13 PUSH1 0x40 MLOAD DUP7 PUSH4 0xFFFFFFFF AND PUSH1 0xE0 SHL DUP2 MSTORE PUSH1 0x4 ADD DUP1 DUP7 PUSH1 0x1 PUSH1 0x1 PUSH1 0xA0 SHL SUB AND PUSH1 0x1 PUSH1 0x1 PUSH1 0xA0 SHL SUB AND DUP2 MSTORE PUSH1 0x20 ADD DUP6 DUP2 MSTORE PUSH1 0x20 ADD DUP5 DUP2 MSTORE PUSH1 0x20 ADD DUP1 PUSH1 0x20 ADD DUP3 DUP2 SUB DUP3 MSTORE DUP5 DUP5 DUP3 DUP2 DUP2 MSTORE PUSH1 0x20 ADD SWAP3 POP DUP1 DUP3 DUP5 CALLDATACOPY PUSH1 0x0 DUP2 DUP5 ADD MSTORE PUSH1 0x1F NOT PUSH1 0x1F DUP3 ADD AND SWAP1 POP DUP1 DUP4 ADD SWAP3 POP POP POP SWAP7 POP POP POP POP POP POP POP PUSH1 0x0 PUSH1 0x40 MLOAD DUP1 DUP4 SUB DUP2 PUSH1 0x0 DUP8 DUP1 EXTCODESIZE ISZERO DUP1 ISZERO PUSH2 0x83F JUMPI PUSH1 0x0 DUP1 REVERT JUMPDEST POP GAS CALL ISZERO DUP1 ISZERO PUSH2 0x853 JUMPI RETURNDATASIZE PUSH1 0x0 DUP1 RETURNDATACOPY RETURNDATASIZE PUSH1 0x0 REVERT JUMPDEST POP POP POP POP JUMPDEST PUSH1 0x40 DUP1 MLOAD PUSH4 0x70A08231 PUSH1 0xE0 SHL DUP2 MSTORE ADDRESS PUSH1 0x4 DUP3 ADD MSTORE SWAP1 MLOAD PUSH1 0x1 PUSH1 0x1 PUSH1 0xA0 SHL SUB DUP5 AND SWAP2 PUSH4 0x70A08231 SWAP2 PUSH1 0x24 DUP1 DUP4 ADD SWAP3 PUSH1 0x20 SWAP3 SWAP2 SWAP1 DUP3 SWAP1 SUB ADD DUP2 DUP7 DUP1 EXTCODESIZE ISZERO DUP1 ISZERO PUSH2 0x89E JUMPI PUSH1 0x0 DUP1 REVERT JUMPDEST POP GAS STATICCALL ISZERO DUP1 ISZERO PUSH2 0x8B2 JUMPI RETURNDATASIZE PUSH1 0x0 DUP1 RETURNDATACOPY RETURNDATASIZE PUSH1 0x0 REVERT JUMPDEST POP POP POP POP PUSH1 0x40 MLOAD RETURNDATASIZE PUSH1 0x20 DUP2 LT ISZERO PUSH2 0x8C8 JUMPI PUSH1 0x0 DUP1 REVERT JUMPDEST POP MLOAD PUSH1 0x40 DUP1 MLOAD PUSH4 0x70A08231 PUSH1 0xE0 SHL DUP2 MSTORE ADDRESS PUSH1 0x4 DUP3 ADD MSTORE SWAP1 MLOAD SWAP2 SWAP6 POP PUSH1 0x1 PUSH1 0x1 PUSH1 0xA0 SHL SUB DUP4 AND SWAP2 PUSH4 0x70A08231 SWAP2 PUSH1 0x24 DUP1 DUP3 ADD SWAP3 PUSH1 0x20 SWAP3 SWAP1 SWAP2 SWAP1 DUP3 SWAP1 SUB ADD DUP2 DUP7 DUP1 EXTCODESIZE ISZERO DUP1 ISZERO PUSH2 0x914 JUMPI PUSH1 0x0 DUP1 REVERT JUMPDEST POP GAS STATICCALL ISZERO DUP1 ISZERO PUSH2 0x928 JUMPI RETURNDATASIZE PUSH1 0x0 DUP1 RETURNDATACOPY RETURNDATASIZE PUSH1 0x0 REVERT JUMPDEST POP POP POP POP PUSH1 0x40 MLOAD RETURNDATASIZE PUSH1 0x20 DUP2 LT ISZERO PUSH2 0x93E JUMPI PUSH1 0x0 DUP1 REVERT JUMPDEST POP MLOAD SWAP3 POP PUSH1 0x0 SWAP2 POP POP PUSH1 0x1 PUSH1 0x1 PUSH1 0x70 SHL SUB DUP6 AND DUP11 SWAP1 SUB DUP4 GT PUSH2 0x961 JUMPI PUSH1 0x0 PUSH2 0x970 JUMP JUMPDEST DUP10 DUP6 PUSH1 0x1 PUSH1 0x1 PUSH1 0x70 SHL SUB AND SUB DUP4 SUB JUMPDEST SWAP1 POP PUSH1 0x0 DUP10 DUP6 PUSH1 0x1 PUSH1 0x1 PUSH1 0x70 SHL SUB AND SUB DUP4 GT PUSH2 0x98D JUMPI PUSH1 0x0 PUSH2 0x99C JUMP JUMPDEST DUP10 DUP6 PUSH1 0x1 PUSH1 0x1 PUSH1 0x70 SHL SUB AND SUB DUP4 SUB JUMPDEST SWAP1 POP PUSH1 0x0 DUP3 GT DUP1 PUSH2 0x9AD JUMPI POP PUSH1 0x0 DUP2 GT JUMPDEST PUSH2 0x9E8 JUMPI PUSH1 0x40 MLOAD PUSH3 0x461BCD PUSH1 0xE5 SHL DUP2 MSTORE PUSH1 0x4 ADD DUP1 DUP1 PUSH1 0x20 ADD DUP3 DUP2 SUB DUP3 MSTORE PUSH1 0x23 DUP2 MSTORE PUSH1 0x20 ADD DUP1 PUSH2 0x2289 PUSH1 0x23 SWAP2 CODECOPY PUSH1 0x40 ADD SWAP2 POP POP PUSH1 0x40 MLOAD DUP1 SWAP2 SUB SWAP1 REVERT JUMPDEST PUSH1 0x0 PUSH2 0xA1C PUSH2 0x9FE DUP5 PUSH1 0x3 PUSH4 0xFFFFFFFF PUSH2 0x1B40 AND JUMP JUMPDEST PUSH2 0xA10 DUP8 PUSH2 0x3E8 PUSH4 0xFFFFFFFF PUSH2 0x1B40 AND JUMP JUMPDEST SWAP1 PUSH4 0xFFFFFFFF PUSH2 0x1BAC AND JUMP JUMPDEST SWAP1 POP PUSH1 0x0 PUSH2 0xA34 PUSH2 0x9FE DUP5 PUSH1 0x3 PUSH4 0xFFFFFFFF PUSH2 0x1B40 AND JUMP JUMPDEST SWAP1 POP PUSH2 0xA65 PUSH3 0xF4240 PUSH2 0xA59 PUSH1 0x1 PUSH1 0x1 PUSH1 0x70 SHL SUB DUP12 DUP2 AND SWAP1 DUP12 AND PUSH4 0xFFFFFFFF PUSH2 0x1B40 AND JUMP JUMPDEST SWAP1 PUSH4 0xFFFFFFFF PUSH2 0x1B40 AND JUMP JUMPDEST PUSH2 0xA75 DUP4 DUP4 PUSH4 0xFFFFFFFF PUSH2 0x1B40 AND JUMP JUMPDEST LT ISZERO PUSH2 0xAC8 JUMPI PUSH1 0x40 DUP1 MLOAD PUSH3 0x461BCD PUSH1 0xE5 SHL DUP2 MSTORE PUSH1 0x20 PUSH1 0x4 DUP3 ADD MSTORE PUSH1 0xB PUSH1 0x24 DUP3 ADD MSTORE PUSH32 0x4B616C79737761703A204B000000000000000000000000000000000000000000 PUSH1 0x44 DUP3 ADD MSTORE SWAP1 MLOAD SWAP1 DUP2 SWAP1 SUB PUSH1 0x64 ADD SWAP1 REVERT JUMPDEST POP POP PUSH2 0xAD6 DUP5 DUP5 DUP9 DUP9 PUSH2 0x1C04 JUMP JUMPDEST PUSH1 0x40 DUP1 MLOAD DUP4 DUP2 MSTORE PUSH1 0x20 DUP2 ADD DUP4 SWAP1 MSTORE DUP1 DUP3 ADD DUP14 SWAP1 MSTORE PUSH1 0x60 DUP2 ADD DUP13 SWAP1 MSTORE SWAP1 MLOAD PUSH1 0x1 PUSH1 0x1 PUSH1 0xA0 SHL SUB DUP12 AND SWAP2 CALLER SWAP2 PUSH32 0xD78AD95FA46C994B6551D0DA85FC275FE613CE37657FB8D5E3D130840159D822 SWAP2 DUP2 SWAP1 SUB PUSH1 0x80 ADD SWAP1 LOG3 POP POP PUSH1 0x1 PUSH1 0xC SSTORE POP POP POP POP POP POP POP POP POP JUMP JUMPDEST PUSH1 0x40 MLOAD DUP1 PUSH1 0x40 ADD PUSH1 0x40 MSTORE DUP1 PUSH1 0x12 DUP2 MSTORE PUSH1 0x20 ADD PUSH32 0x4B616C7973776170204C69717569646974790000000000000000000000000000 DUP2 MSTORE POP DUP2 JUMP JUMPDEST PUSH1 0x8 SLOAD PUSH1 0x1 PUSH1 0x1 PUSH1 0x70 SHL SUB DUP1 DUP3 AND SWAP3 PUSH1 0x1 PUSH1 0x70 SHL DUP4 DIV SWAP1 SWAP2 AND SWAP2 PUSH1 0x1 PUSH1 0xE0 SHL SWAP1 DIV PUSH4 0xFFFFFFFF AND SWAP1 JUMP JUMPDEST PUSH1 0x0 PUSH2 0xBAC CALLER DUP5 DUP5 PUSH2 0x1DE1 JUMP JUMPDEST POP PUSH1 0x1 JUMPDEST SWAP3 SWAP2 POP POP JUMP JUMPDEST PUSH1 0x6 SLOAD PUSH1 0x1 PUSH1 0x1 PUSH1 0xA0 SHL SUB AND DUP2 JUMP JUMPDEST PUSH1 0x0 SLOAD DUP2 JUMP JUMPDEST PUSH1 0x1 PUSH1 0x1 PUSH1 0xA0 SHL SUB DUP4 AND PUSH1 0x0 SWAP1 DUP2 MSTORE PUSH1 0x2 PUSH1 0x20 SWAP1 DUP2 MSTORE PUSH1 0x40 DUP1 DUP4 KECCAK256 CALLER DUP5 MSTORE SWAP1 SWAP2 MSTORE DUP2 KECCAK256 SLOAD PUSH1 0x0 NOT EQ PUSH2 0xC50 JUMPI PUSH1 0x1 PUSH1 0x1 PUSH1 0xA0 SHL SUB DUP5 AND PUSH1 0x0 SWAP1 DUP2 MSTORE PUSH1 0x2 PUSH1 0x20 SWAP1 DUP2 MSTORE PUSH1 0x40 DUP1 DUP4 KECCAK256 CALLER DUP5 MSTORE SWAP1 SWAP2 MSTORE SWAP1 KECCAK256 SLOAD PUSH2 0xC2B SWAP1 DUP4 PUSH4 0xFFFFFFFF PUSH2 0x1BAC AND JUMP JUMPDEST PUSH1 0x1 PUSH1 0x1 PUSH1 0xA0 SHL SUB DUP6 AND PUSH1 0x0 SWAP1 DUP2 MSTORE PUSH1 0x2 PUSH1 0x20 SWAP1 DUP2 MSTORE PUSH1 0x40 DUP1 DUP4 KECCAK256 CALLER DUP5 MSTORE SWAP1 SWAP2 MSTORE SWAP1 KECCAK256 SSTORE JUMPDEST PUSH2 0xC5B DUP5 DUP5 DUP5 PUSH2 0x1E43 JUMP JUMPDEST POP PUSH1 0x1 SWAP4 SWAP3 POP POP POP JUMP JUMPDEST PUSH32 0x6E71EDAE12B1B97F4D1F60370FEF10105FA2FAAE0126114A169C64845D6126C9 DUP2 JUMP JUMPDEST PUSH1 0x12 DUP2 JUMP JUMPDEST PUSH1 0x3 SLOAD DUP2 JUMP JUMPDEST PUSH1 0x5 SLOAD PUSH1 0x1 PUSH1 0x1 PUSH1 0xA0 SHL SUB AND CALLER EQ PUSH2 0xCF3 JUMPI PUSH1 0x40 DUP1 MLOAD PUSH3 0x461BCD PUSH1 0xE5 SHL DUP2 MSTORE PUSH1 0x20 PUSH1 0x4 DUP3 ADD MSTORE PUSH1 0x13 PUSH1 0x24 DUP3 ADD MSTORE PUSH32 0x4B616C79737761703A20464F5242494444454E00000000000000000000000000 PUSH1 0x44 DUP3 ADD MSTORE SWAP1 MLOAD SWAP1 DUP2 SWAP1 SUB PUSH1 0x64 ADD SWAP1 REVERT JUMPDEST PUSH1 0x6 DUP1 SLOAD PUSH1 0x1 PUSH1 0x1 PUSH1 0xA0 SHL SUB SWAP4 DUP5 AND PUSH32 0xFFFFFFFFFFFFFFFFFFFFFFFF0000000000000000000000000000000000000000 SWAP2 DUP3 AND OR SWAP1 SWAP2 SSTORE PUSH1 0x7 DUP1 SLOAD SWAP3 SWAP1 SWAP4 AND SWAP2 AND OR SWAP1 SSTORE JUMP JUMPDEST PUSH1 0x9 SLOAD DUP2 JUMP JUMPDEST PUSH1 0xA SLOAD DUP2 JUMP JUMPDEST PUSH1 0x0 PUSH1 0xC SLOAD PUSH1 0x1 EQ PUSH2 0xD91 JUMPI PUSH1 0x40 DUP1 MLOAD PUSH3 0x461BCD PUSH1 0xE5 SHL DUP2 MSTORE PUSH1 0x20 PUSH1 0x4 DUP3 ADD MSTORE PUSH1 0x10 PUSH1 0x24 DUP3 ADD MSTORE PUSH16 0x12D85B1E5CDDD85C0E881313D0D2D151 PUSH1 0x82 SHL PUSH1 0x44 DUP3 ADD MSTORE SWAP1 MLOAD SWAP1 DUP2 SWAP1 SUB PUSH1 0x64 ADD SWAP1 REVERT JUMPDEST PUSH1 0x0 PUSH1 0xC DUP2 SWAP1 SSTORE DUP1 PUSH2 0xDA1 PUSH2 0xB75 JUMP JUMPDEST POP PUSH1 0x6 SLOAD PUSH1 0x40 DUP1 MLOAD PUSH4 0x70A08231 PUSH1 0xE0 SHL DUP2 MSTORE ADDRESS PUSH1 0x4 DUP3 ADD MSTORE SWAP1 MLOAD SWAP4 SWAP6 POP SWAP2 SWAP4 POP PUSH1 0x0 SWAP3 PUSH1 0x1 PUSH1 0x1 PUSH1 0xA0 SHL SUB SWAP1 SWAP2 AND SWAP2 PUSH4 0x70A08231 SWAP2 PUSH1 0x24 DUP1 DUP4 ADD SWAP3 PUSH1 0x20 SWAP3 SWAP2 SWAP1 DUP3 SWAP1 SUB ADD DUP2 DUP7 DUP1 EXTCODESIZE ISZERO DUP1 ISZERO PUSH2 0xDF5 JUMPI PUSH1 0x0 DUP1 REVERT JUMPDEST POP GAS STATICCALL ISZERO DUP1 ISZERO PUSH2 0xE09 JUMPI RETURNDATASIZE PUSH1 0x0 DUP1 RETURNDATACOPY RETURNDATASIZE PUSH1 0x0 REVERT JUMPDEST POP POP POP POP PUSH1 0x40 MLOAD RETURNDATASIZE PUSH1 0x20 DUP2 LT ISZERO PUSH2 0xE1F JUMPI PUSH1 0x0 DUP1 REVERT JUMPDEST POP MLOAD PUSH1 0x7 SLOAD PUSH1 0x40 DUP1 MLOAD PUSH4 0x70A08231 PUSH1 0xE0 SHL DUP2 MSTORE ADDRESS PUSH1 0x4 DUP3 ADD MSTORE SWAP1 MLOAD SWAP3 SWAP4 POP PUSH1 0x0 SWAP3 PUSH1 0x1 PUSH1 0x1 PUSH1 0xA0 SHL SUB SWAP1 SWAP3 AND SWAP2 PUSH4 0x70A08231 SWAP2 PUSH1 0x24 DUP1 DUP3 ADD SWAP3 PUSH1 0x20 SWAP3 SWAP1 SWAP2 SWAP1 DUP3 SWAP1 SUB ADD DUP2 DUP7 DUP1 EXTCODESIZE ISZERO DUP1 ISZERO PUSH2 0xE72 JUMPI PUSH1 0x0 DUP1 REVERT JUMPDEST POP GAS STATICCALL ISZERO DUP1 ISZERO PUSH2 0xE86 JUMPI RETURNDATASIZE PUSH1 0x0 DUP1 RETURNDATACOPY RETURNDATASIZE PUSH1 0x0 REVERT JUMPDEST POP POP POP POP PUSH1 0x40 MLOAD RETURNDATASIZE PUSH1 0x20 DUP2 LT ISZERO PUSH2 0xE9C JUMPI PUSH1 0x0 DUP1 REVERT JUMPDEST POP MLOAD SWAP1 POP PUSH1 0x0 PUSH2 0xEBB DUP4 PUSH1 0x1 PUSH1 0x1 PUSH1 0x70 SHL SUB DUP8 AND PUSH4 0xFFFFFFFF PUSH2 0x1BAC AND JUMP JUMPDEST SWAP1 POP PUSH1 0x0 PUSH2 0xED8 DUP4 PUSH1 0x1 PUSH1 0x1 PUSH1 0x70 SHL SUB DUP8 AND PUSH4 0xFFFFFFFF PUSH2 0x1BAC AND JUMP JUMPDEST SWAP1 POP PUSH1 0x0 PUSH2 0xEE6 DUP8 DUP8 PUSH2 0x1EFD JUMP JUMPDEST PUSH1 0x0 SLOAD SWAP1 SWAP2 POP DUP1 PUSH2 0xF23 JUMPI PUSH2 0xF0F PUSH2 0x3E8 PUSH2 0xA10 PUSH2 0xF0A DUP8 DUP8 PUSH4 0xFFFFFFFF PUSH2 0x1B40 AND JUMP JUMPDEST PUSH2 0x205B JUMP JUMPDEST SWAP9 POP PUSH2 0xF1E PUSH1 0x0 PUSH2 0x3E8 PUSH2 0x20AD JUMP JUMPDEST PUSH2 0xF72 JUMP JUMPDEST PUSH2 0xF6F PUSH1 0x1 PUSH1 0x1 PUSH1 0x70 SHL SUB DUP10 AND PUSH2 0xF40 DUP7 DUP5 PUSH4 0xFFFFFFFF PUSH2 0x1B40 AND JUMP JUMPDEST DUP2 PUSH2 0xF47 JUMPI INVALID JUMPDEST DIV PUSH1 0x1 PUSH1 0x1 PUSH1 0x70 SHL SUB DUP10 AND PUSH2 0xF62 DUP7 DUP6 PUSH4 0xFFFFFFFF PUSH2 0x1B40 AND JUMP JUMPDEST DUP2 PUSH2 0xF69 JUMPI INVALID JUMPDEST DIV PUSH2 0x2143 JUMP JUMPDEST SWAP9 POP JUMPDEST PUSH1 0x0 DUP10 GT PUSH2 0xFB1 JUMPI PUSH1 0x40 MLOAD PUSH3 0x461BCD PUSH1 0xE5 SHL DUP2 MSTORE PUSH1 0x4 ADD DUP1 DUP1 PUSH1 0x20 ADD DUP3 DUP2 SUB DUP3 MSTORE PUSH1 0x27 DUP2 MSTORE PUSH1 0x20 ADD DUP1 PUSH2 0x22D0 PUSH1 0x27 SWAP2 CODECOPY PUSH1 0x40 ADD SWAP2 POP POP PUSH1 0x40 MLOAD DUP1 SWAP2 SUB SWAP1 REVERT JUMPDEST PUSH2 0xFBB DUP11 DUP11 PUSH2 0x20AD JUMP JUMPDEST PUSH2 0xFC7 DUP7 DUP7 DUP11 DUP11 PUSH2 0x1C04 JUMP JUMPDEST DUP2 ISZERO PUSH2 0xFF7 JUMPI PUSH1 0x8 SLOAD PUSH2 0xFF3 SWAP1 PUSH1 0x1 PUSH1 0x1 PUSH1 0x70 SHL SUB DUP1 DUP3 AND SWAP2 PUSH1 0x1 PUSH1 0x70 SHL SWAP1 DIV AND PUSH4 0xFFFFFFFF PUSH2 0x1B40 AND JUMP JUMPDEST PUSH1 0xB SSTORE JUMPDEST PUSH1 0x40 DUP1 MLOAD DUP6 DUP2 MSTORE PUSH1 0x20 DUP2 ADD DUP6 SWAP1 MSTORE DUP2 MLOAD CALLER SWAP3 PUSH32 0x4C209B5FC8AD50758F13E2E1088BA56A560DFF690A1C6FEF26394F4C03821C4F SWAP3 DUP3 SWAP1 SUB ADD SWAP1 LOG2 POP POP PUSH1 0x1 PUSH1 0xC SSTORE POP SWAP5 SWAP7 SWAP6 POP POP POP POP POP POP JUMP JUMPDEST PUSH1 0x1 PUSH1 0x20 MSTORE PUSH1 0x0 SWAP1 DUP2 MSTORE PUSH1 0x40 SWAP1 KECCAK256 SLOAD DUP2 JUMP JUMPDEST PUSH1 0xB SLOAD DUP2 JUMP JUMPDEST PUSH1 0x4 PUSH1 0x20 MSTORE PUSH1 0x0 SWAP1 DUP2 MSTORE PUSH1 0x40 SWAP1 KECCAK256 SLOAD DUP2 JUMP JUMPDEST PUSH1 0x0 DUP1 PUSH1 0xC SLOAD PUSH1 0x1 EQ PUSH2 0x10BB JUMPI PUSH1 0x40 DUP1 MLOAD PUSH3 0x461BCD PUSH1 0xE5 SHL DUP2 MSTORE PUSH1 0x20 PUSH1 0x4 DUP3 ADD MSTORE PUSH1 0x10 PUSH1 0x24 DUP3 ADD MSTORE PUSH16 0x12D85B1E5CDDD85C0E881313D0D2D151 PUSH1 0x82 SHL PUSH1 0x44 DUP3 ADD MSTORE SWAP1 MLOAD SWAP1 DUP2 SWAP1 SUB PUSH1 0x64 ADD SWAP1 REVERT JUMPDEST PUSH1 0x0 PUSH1 0xC DUP2 SWAP1 SSTORE DUP1 PUSH2 0x10CB PUSH2 0xB75 JUMP JUMPDEST POP PUSH1 0x6 SLOAD PUSH1 0x7 SLOAD PUSH1 0x40 DUP1 MLOAD PUSH4 0x70A08231 PUSH1 0xE0 SHL DUP2 MSTORE ADDRESS PUSH1 0x4 DUP3 ADD MSTORE SWAP1 MLOAD SWAP5 SWAP7 POP SWAP3 SWAP5 POP PUSH1 0x1 PUSH1 0x1 PUSH1 0xA0 SHL SUB SWAP2 DUP3 AND SWAP4 SWAP2 AND SWAP2 PUSH1 0x0 SWAP2 DUP5 SWAP2 PUSH4 0x70A08231 SWAP2 PUSH1 0x24 DUP1 DUP4 ADD SWAP3 PUSH1 0x20 SWAP3 SWAP2 SWAP1 DUP3 SWAP1 SUB ADD DUP2 DUP7 DUP1 EXTCODESIZE ISZERO DUP1 ISZERO PUSH2 0x1127 JUMPI PUSH1 0x0 DUP1 REVERT JUMPDEST POP GAS STATICCALL ISZERO DUP1 ISZERO PUSH2 0x113B JUMPI RETURNDATASIZE PUSH1 0x0 DUP1 RETURNDATACOPY RETURNDATASIZE PUSH1 0x0 REVERT JUMPDEST POP POP POP POP PUSH1 0x40 MLOAD RETURNDATASIZE PUSH1 0x20 DUP2 LT ISZERO PUSH2 0x1151 JUMPI PUSH1 0x0 DUP1 REVERT JUMPDEST POP MLOAD PUSH1 0x40 DUP1 MLOAD PUSH4 0x70A08231 PUSH1 0xE0 SHL DUP2 MSTORE ADDRESS PUSH1 0x4 DUP3 ADD MSTORE SWAP1 MLOAD SWAP2 SWAP3 POP PUSH1 0x0 SWAP2 PUSH1 0x1 PUSH1 0x1 PUSH1 0xA0 SHL SUB DUP6 AND SWAP2 PUSH4 0x70A08231 SWAP2 PUSH1 0x24 DUP1 DUP4 ADD SWAP3 PUSH1 0x20 SWAP3 SWAP2 SWAP1 DUP3 SWAP1 SUB ADD DUP2 DUP7 DUP1 EXTCODESIZE ISZERO DUP1 ISZERO PUSH2 0x119F JUMPI PUSH1 0x0 DUP1 REVERT JUMPDEST POP GAS STATICCALL ISZERO DUP1 ISZERO PUSH2 0x11B3 JUMPI RETURNDATASIZE PUSH1 0x0 DUP1 RETURNDATACOPY RETURNDATASIZE PUSH1 0x0 REVERT JUMPDEST POP POP POP POP PUSH1 0x40 MLOAD RETURNDATASIZE PUSH1 0x20 DUP2 LT ISZERO PUSH2 0x11C9 JUMPI PUSH1 0x0 DUP1 REVERT JUMPDEST POP MLOAD ADDRESS PUSH1 0x0 SWAP1 DUP2 MSTORE PUSH1 0x1 PUSH1 0x20 MSTORE PUSH1 0x40 DUP2 KECCAK256 SLOAD SWAP2 SWAP3 POP PUSH2 0x11E8 DUP9 DUP9 PUSH2 0x1EFD JUMP JUMPDEST PUSH1 0x0 SLOAD SWAP1 SWAP2 POP DUP1 PUSH2 0x11FF DUP5 DUP8 PUSH4 0xFFFFFFFF PUSH2 0x1B40 AND JUMP JUMPDEST DUP2 PUSH2 0x1206 JUMPI INVALID JUMPDEST DIV SWAP11 POP DUP1 PUSH2 0x121A DUP5 DUP7 PUSH4 0xFFFFFFFF PUSH2 0x1B40 AND JUMP JUMPDEST DUP2 PUSH2 0x1221 JUMPI INVALID JUMPDEST DIV SWAP10 POP PUSH1 0x0 DUP12 GT DUP1 ISZERO PUSH2 0x1234 JUMPI POP PUSH1 0x0 DUP11 GT JUMPDEST PUSH2 0x126F JUMPI PUSH1 0x40 MLOAD PUSH3 0x461BCD PUSH1 0xE5 SHL DUP2 MSTORE PUSH1 0x4 ADD DUP1 DUP1 PUSH1 0x20 ADD DUP3 DUP2 SUB DUP3 MSTORE PUSH1 0x27 DUP2 MSTORE PUSH1 0x20 ADD DUP1 PUSH2 0x22F7 PUSH1 0x27 SWAP2 CODECOPY PUSH1 0x40 ADD SWAP2 POP POP PUSH1 0x40 MLOAD DUP1 SWAP2 SUB SWAP1 REVERT JUMPDEST PUSH2 0x1279 ADDRESS DUP5 PUSH2 0x215B JUMP JUMPDEST PUSH2 0x1284 DUP8 DUP14 DUP14 PUSH2 0x198D JUMP JUMPDEST PUSH2 0x128F DUP7 DUP14 DUP13 PUSH2 0x198D JUMP JUMPDEST PUSH1 0x40 DUP1 MLOAD PUSH4 0x70A08231 PUSH1 0xE0 SHL DUP2 MSTORE ADDRESS PUSH1 0x4 DUP3 ADD MSTORE SWAP1 MLOAD PUSH1 0x1 PUSH1 0x1 PUSH1 0xA0 SHL SUB DUP10 AND SWAP2 PUSH4 0x70A08231 SWAP2 PUSH1 0x24 DUP1 DUP4 ADD SWAP3 PUSH1 0x20 SWAP3 SWAP2 SWAP1 DUP3 SWAP1 SUB ADD DUP2 DUP7 DUP1 EXTCODESIZE ISZERO DUP1 ISZERO PUSH2 0x12D5 JUMPI PUSH1 0x0 DUP1 REVERT JUMPDEST POP GAS STATICCALL ISZERO DUP1 ISZERO PUSH2 0x12E9 JUMPI RETURNDATASIZE PUSH1 0x0 DUP1 RETURNDATACOPY RETURNDATASIZE PUSH1 0x0 REVERT JUMPDEST POP POP POP POP PUSH1 0x40 MLOAD RETURNDATASIZE PUSH1 0x20 DUP2 LT ISZERO PUSH2 0x12FF JUMPI PUSH1 0x0 DUP1 REVERT JUMPDEST POP MLOAD PUSH1 0x40 DUP1 MLOAD PUSH4 0x70A08231 PUSH1 0xE0 SHL DUP2 MSTORE ADDRESS PUSH1 0x4 DUP3 ADD MSTORE SWAP1 MLOAD SWAP2 SWAP7 POP PUSH1 0x1 PUSH1 0x1 PUSH1 0xA0 SHL SUB DUP9 AND SWAP2 PUSH4 0x70A08231 SWAP2 PUSH1 0x24 DUP1 DUP3 ADD SWAP3 PUSH1 0x20 SWAP3 SWAP1 SWAP2 SWAP1 DUP3 SWAP1 SUB ADD DUP2 DUP7 DUP1 EXTCODESIZE ISZERO DUP1 ISZERO PUSH2 0x134B JUMPI PUSH1 0x0 DUP1 REVERT JUMPDEST POP GAS STATICCALL ISZERO DUP1 ISZERO PUSH2 0x135F JUMPI RETURNDATASIZE PUSH1 0x0 DUP1 RETURNDATACOPY RETURNDATASIZE PUSH1 0x0 REVERT JUMPDEST POP POP POP POP PUSH1 0x40 MLOAD RETURNDATASIZE PUSH1 0x20 DUP2 LT ISZERO PUSH2 0x1375 JUMPI PUSH1 0x0 DUP1 REVERT JUMPDEST POP MLOAD SWAP4 POP PUSH2 0x1385 DUP6 DUP6 DUP12 DUP12 PUSH2 0x1C04 JUMP JUMPDEST DUP2 ISZERO PUSH2 0x13B5 JUMPI PUSH1 0x8 SLOAD PUSH2 0x13B1 SWAP1 PUSH1 0x1 PUSH1 0x1 PUSH1 0x70 SHL SUB DUP1 DUP3 AND SWAP2 PUSH1 0x1 PUSH1 0x70 SHL SWAP1 DIV AND PUSH4 0xFFFFFFFF PUSH2 0x1B40 AND JUMP JUMPDEST PUSH1 0xB SSTORE JUMPDEST PUSH1 0x40 DUP1 MLOAD DUP13 DUP2 MSTORE PUSH1 0x20 DUP2 ADD DUP13 SWAP1 MSTORE DUP2 MLOAD PUSH1 0x1 PUSH1 0x1 PUSH1 0xA0 SHL SUB DUP16 AND SWAP3 CALLER SWAP3 PUSH32 0xDCCD412F0B1252819CB1FD330B93224CA42612892BB3F4F789976E6D81936496 SWAP3 SWAP1 DUP2 SWAP1 SUB SWAP1 SWAP2 ADD SWAP1 LOG3 POP POP POP POP POP POP POP POP POP PUSH1 0x1 PUSH1 0xC DUP2 SWAP1 SSTORE POP SWAP2 POP SWAP2 JUMP JUMPDEST PUSH1 0x40 MLOAD DUP1 PUSH1 0x40 ADD PUSH1 0x40 MSTORE DUP1 PUSH1 0x3 DUP2 MSTORE PUSH1 0x20 ADD PUSH32 0x4B534C0000000000000000000000000000000000000000000000000000000000 DUP2 MSTORE POP DUP2 JUMP JUMPDEST PUSH1 0x0 PUSH2 0xBAC CALLER DUP5 DUP5 PUSH2 0x1E43 JUMP JUMPDEST PUSH2 0x3E8 DUP2 JUMP JUMPDEST PUSH1 0xC SLOAD PUSH1 0x1 EQ PUSH2 0x14A9 JUMPI PUSH1 0x40 DUP1 MLOAD PUSH3 0x461BCD PUSH1 0xE5 SHL DUP2 MSTORE PUSH1 0x20 PUSH1 0x4 DUP3 ADD MSTORE PUSH1 0x10 PUSH1 0x24 DUP3 ADD MSTORE PUSH16 0x12D85B1E5CDDD85C0E881313D0D2D151 PUSH1 0x82 SHL PUSH1 0x44 DUP3 ADD MSTORE SWAP1 MLOAD SWAP1 DUP2 SWAP1 SUB PUSH1 0x64 ADD SWAP1 REVERT JUMPDEST PUSH1 0x0 PUSH1 0xC SSTORE PUSH1 0x6 SLOAD PUSH1 0x7 SLOAD PUSH1 0x8 SLOAD PUSH1 0x40 DUP1 MLOAD PUSH4 0x70A08231 PUSH1 0xE0 SHL DUP2 MSTORE ADDRESS PUSH1 0x4 DUP3 ADD MSTORE SWAP1 MLOAD PUSH1 0x1 PUSH1 0x1 PUSH1 0xA0 SHL SUB SWAP5 DUP6 AND SWAP5 SWAP1 SWAP4 AND SWAP3 PUSH2 0x1558 SWAP3 DUP6 SWAP3 DUP8 SWAP3 PUSH2 0x1553 SWAP3 PUSH1 0x1 PUSH1 0x1 PUSH1 0x70 SHL SUB AND SWAP2 DUP6 SWAP2 PUSH4 0x70A08231 SWAP2 PUSH1 0x24 DUP1 DUP3 ADD SWAP3 PUSH1 0x20 SWAP3 SWAP1 SWAP2 SWAP1 DUP3 SWAP1 SUB ADD DUP2 DUP7 DUP1 EXTCODESIZE ISZERO DUP1 ISZERO PUSH2 0x151B JUMPI PUSH1 0x0 DUP1 REVERT JUMPDEST POP GAS STATICCALL ISZERO DUP1 ISZERO PUSH2 0x152F JUMPI RETURNDATASIZE PUSH1 0x0 DUP1 RETURNDATACOPY RETURNDATASIZE PUSH1 0x0 REVERT JUMPDEST POP POP POP POP PUSH1 0x40 MLOAD RETURNDATASIZE PUSH1 0x20 DUP2 LT ISZERO PUSH2 0x1545 JUMPI PUSH1 0x0 DUP1 REVERT JUMPDEST POP MLOAD SWAP1 PUSH4 0xFFFFFFFF PUSH2 0x1BAC AND JUMP JUMPDEST PUSH2 0x198D JUMP JUMPDEST PUSH1 0x8 SLOAD PUSH1 0x40 DUP1 MLOAD PUSH4 0x70A08231 PUSH1 0xE0 SHL DUP2 MSTORE ADDRESS PUSH1 0x4 DUP3 ADD MSTORE SWAP1 MLOAD PUSH2 0x15BF SWAP3 DUP5 SWAP3 DUP8 SWAP3 PUSH2 0x1553 SWAP3 PUSH1 0x1 PUSH1 0x70 SHL SWAP1 DIV PUSH1 0x1 PUSH1 0x1 PUSH1 0x70 SHL SUB AND SWAP2 PUSH1 0x1 PUSH1 0x1 PUSH1 0xA0 SHL SUB DUP7 AND SWAP2 PUSH4 0x70A08231 SWAP2 PUSH1 0x24 DUP1 DUP3 ADD SWAP3 PUSH1 0x20 SWAP3 SWAP1 SWAP2 SWAP1 DUP3 SWAP1 SUB ADD DUP2 DUP7 DUP1 EXTCODESIZE ISZERO DUP1 ISZERO PUSH2 0x151B JUMPI PUSH1 0x0 DUP1 REVERT JUMPDEST POP POP PUSH1 0x1 PUSH1 0xC SSTORE POP JUMP JUMPDEST PUSH1 0x5 SLOAD PUSH1 0x1 PUSH1 0x1 PUSH1 0xA0 SHL SUB AND DUP2 JUMP JUMPDEST PUSH1 0x7 SLOAD PUSH1 0x1 PUSH1 0x1 PUSH1 0xA0 SHL SUB AND DUP2 JUMP JUMPDEST TIMESTAMP DUP5 LT ISZERO PUSH2 0x163C JUMPI PUSH1 0x40 DUP1 MLOAD PUSH3 0x461BCD PUSH1 0xE5 SHL DUP2 MSTORE PUSH1 0x20 PUSH1 0x4 DUP3 ADD MSTORE PUSH1 0x11 PUSH1 0x24 DUP3 ADD MSTORE PUSH32 0x4B616C79737761703A2045585049524544000000000000000000000000000000 PUSH1 0x44 DUP3 ADD MSTORE SWAP1 MLOAD SWAP1 DUP2 SWAP1 SUB PUSH1 0x64 ADD SWAP1 REVERT JUMPDEST PUSH1 0x3 SLOAD PUSH1 0x1 PUSH1 0x1 PUSH1 0xA0 SHL SUB DUP1 DUP10 AND PUSH1 0x0 DUP2 DUP2 MSTORE PUSH1 0x4 PUSH1 0x20 SWAP1 DUP2 MSTORE PUSH1 0x40 DUP1 DUP4 KECCAK256 DUP1 SLOAD PUSH1 0x1 DUP1 DUP3 ADD SWAP1 SWAP3 SSTORE DUP3 MLOAD PUSH32 0x6E71EDAE12B1B97F4D1F60370FEF10105FA2FAAE0126114A169C64845D6126C9 DUP2 DUP7 ADD MSTORE DUP1 DUP5 ADD SWAP7 SWAP1 SWAP7 MSTORE SWAP6 DUP14 AND PUSH1 0x60 DUP7 ADD MSTORE PUSH1 0x80 DUP6 ADD DUP13 SWAP1 MSTORE PUSH1 0xA0 DUP6 ADD SWAP6 SWAP1 SWAP6 MSTORE PUSH1 0xC0 DUP1 DUP6 ADD DUP12 SWAP1 MSTORE DUP2 MLOAD DUP1 DUP7 SUB SWAP1 SWAP2 ADD DUP2 MSTORE PUSH1 0xE0 DUP6 ADD DUP3 MSTORE DUP1 MLOAD SWAP1 DUP4 ADD KECCAK256 PUSH32 0x1901000000000000000000000000000000000000000000000000000000000000 PUSH2 0x100 DUP7 ADD MSTORE PUSH2 0x102 DUP6 ADD SWAP7 SWAP1 SWAP7 MSTORE PUSH2 0x122 DUP1 DUP6 ADD SWAP7 SWAP1 SWAP7 MSTORE DUP1 MLOAD DUP1 DUP6 SUB SWAP1 SWAP7 ADD DUP7 MSTORE PUSH2 0x142 DUP5 ADD DUP1 DUP3 MSTORE DUP7 MLOAD SWAP7 DUP4 ADD SWAP7 SWAP1 SWAP7 KECCAK256 SWAP6 DUP4 SWAP1 MSTORE PUSH2 0x162 DUP5 ADD DUP1 DUP3 MSTORE DUP7 SWAP1 MSTORE PUSH1 0xFF DUP10 AND PUSH2 0x182 DUP6 ADD MSTORE PUSH2 0x1A2 DUP5 ADD DUP9 SWAP1 MSTORE PUSH2 0x1C2 DUP5 ADD DUP8 SWAP1 MSTORE MLOAD SWAP2 SWAP4 SWAP3 PUSH2 0x1E2 DUP1 DUP3 ADD SWAP4 PUSH1 0x1F NOT DUP2 ADD SWAP3 DUP2 SWAP1 SUB SWAP1 SWAP2 ADD SWAP1 DUP6 GAS STATICCALL ISZERO DUP1 ISZERO PUSH2 0x1772 JUMPI RETURNDATASIZE PUSH1 0x0 DUP1 RETURNDATACOPY RETURNDATASIZE PUSH1 0x0 REVERT JUMPDEST POP POP PUSH1 0x40 MLOAD PUSH1 0x1F NOT ADD MLOAD SWAP2 POP POP PUSH1 0x1 PUSH1 0x1 PUSH1 0xA0 SHL SUB DUP2 AND ISZERO DUP1 ISZERO SWAP1 PUSH2 0x17A8 JUMPI POP DUP9 PUSH1 0x1 PUSH1 0x1 PUSH1 0xA0 SHL SUB AND DUP2 PUSH1 0x1 PUSH1 0x1 PUSH1 0xA0 SHL SUB AND EQ JUMPDEST PUSH2 0x17F9 JUMPI PUSH1 0x40 DUP1 MLOAD PUSH3 0x461BCD PUSH1 0xE5 SHL DUP2 MSTORE PUSH1 0x20 PUSH1 0x4 DUP3 ADD MSTORE PUSH1 0x1B PUSH1 0x24 DUP3 ADD MSTORE PUSH32 0x4B616C79737761703A20494E56414C49445F5349474E41545552450000000000 PUSH1 0x44 DUP3 ADD MSTORE SWAP1 MLOAD SWAP1 DUP2 SWAP1 SUB PUSH1 0x64 ADD SWAP1 REVERT JUMPDEST PUSH2 0x1804 DUP10 DUP10 DUP10 PUSH2 0x1DE1 JUMP JUMPDEST POP POP POP POP POP POP POP POP POP JUMP JUMPDEST PUSH1 0x2 PUSH1 0x20 SWAP1 DUP2 MSTORE PUSH1 0x0 SWAP3 DUP4 MSTORE PUSH1 0x40 DUP1 DUP5 KECCAK256 SWAP1 SWAP2 MSTORE SWAP1 DUP3 MSTORE SWAP1 KECCAK256 SLOAD DUP2 JUMP JUMPDEST PUSH1 0xC SLOAD PUSH1 0x1 EQ PUSH2 0x1876 JUMPI PUSH1 0x40 DUP1 MLOAD PUSH3 0x461BCD PUSH1 0xE5 SHL DUP2 MSTORE PUSH1 0x20 PUSH1 0x4 DUP3 ADD MSTORE PUSH1 0x10 PUSH1 0x24 DUP3 ADD MSTORE PUSH16 0x12D85B1E5CDDD85C0E881313D0D2D151 PUSH1 0x82 SHL PUSH1 0x44 DUP3 ADD MSTORE SWAP1 MLOAD SWAP1 DUP2 SWAP1 SUB PUSH1 0x64 ADD SWAP1 REVERT JUMPDEST PUSH1 0x0 PUSH1 0xC SSTORE PUSH1 0x6 SLOAD PUSH1 0x40 DUP1 MLOAD PUSH4 0x70A08231 PUSH1 0xE0 SHL DUP2 MSTORE ADDRESS PUSH1 0x4 DUP3 ADD MSTORE SWAP1 MLOAD PUSH2 0x1986 SWAP3 PUSH1 0x1 PUSH1 0x1 PUSH1 0xA0 SHL SUB AND SWAP2 PUSH4 0x70A08231 SWAP2 PUSH1 0x24 DUP1 DUP4 ADD SWAP3 PUSH1 0x20 SWAP3 SWAP2 SWAP1 DUP3 SWAP1 SUB ADD DUP2 DUP7 DUP1 EXTCODESIZE ISZERO DUP1 ISZERO PUSH2 0x18C7 JUMPI PUSH1 0x0 DUP1 REVERT JUMPDEST POP GAS STATICCALL ISZERO DUP1 ISZERO PUSH2 0x18DB JUMPI RETURNDATASIZE PUSH1 0x0 DUP1 RETURNDATACOPY RETURNDATASIZE PUSH1 0x0 REVERT JUMPDEST POP POP POP POP PUSH1 0x40 MLOAD RETURNDATASIZE PUSH1 0x20 DUP2 LT ISZERO PUSH2 0x18F1 JUMPI PUSH1 0x0 DUP1 REVERT JUMPDEST POP MLOAD PUSH1 0x7 SLOAD PUSH1 0x40 DUP1 MLOAD PUSH4 0x70A08231 PUSH1 0xE0 SHL DUP2 MSTORE ADDRESS PUSH1 0x4 DUP3 ADD MSTORE SWAP1 MLOAD PUSH1 0x1 PUSH1 0x1 PUSH1 0xA0 SHL SUB SWAP1 SWAP3 AND SWAP2 PUSH4 0x70A08231 SWAP2 PUSH1 0x24 DUP1 DUP3 ADD SWAP3 PUSH1 0x20 SWAP3 SWAP1 SWAP2 SWAP1 DUP3 SWAP1 SUB ADD DUP2 DUP7 DUP1 EXTCODESIZE ISZERO DUP1 ISZERO PUSH2 0x193E JUMPI PUSH1 0x0 DUP1 REVERT JUMPDEST POP GAS STATICCALL ISZERO DUP1 ISZERO PUSH2 0x1952 JUMPI RETURNDATASIZE PUSH1 0x0 DUP1 RETURNDATACOPY RETURNDATASIZE PUSH1 0x0 REVERT JUMPDEST POP POP POP POP PUSH1 0x40 MLOAD RETURNDATASIZE PUSH1 0x20 DUP2 LT ISZERO PUSH2 0x1968 JUMPI PUSH1 0x0 DUP1 REVERT JUMPDEST POP MLOAD PUSH1 0x8 SLOAD PUSH1 0x1 PUSH1 0x1 PUSH1 0x70 SHL SUB DUP1 DUP3 AND SWAP2 PUSH1 0x1 PUSH1 0x70 SHL SWAP1 DIV AND PUSH2 0x1C04 JUMP JUMPDEST PUSH1 0x1 PUSH1 0xC SSTORE JUMP JUMPDEST PUSH1 0x40 DUP1 MLOAD DUP1 DUP3 ADD DUP3 MSTORE PUSH1 0x19 DUP2 MSTORE PUSH32 0x7472616E7366657228616464726573732C75696E743235362900000000000000 PUSH1 0x20 SWAP2 DUP3 ADD MSTORE DUP2 MLOAD PUSH1 0x1 PUSH1 0x1 PUSH1 0xA0 SHL SUB DUP6 DUP2 AND PUSH1 0x24 DUP4 ADD MSTORE PUSH1 0x44 DUP1 DUP4 ADD DUP7 SWAP1 MSTORE DUP5 MLOAD DUP1 DUP5 SUB SWAP1 SWAP2 ADD DUP2 MSTORE PUSH1 0x64 SWAP1 SWAP3 ADD DUP5 MSTORE SWAP2 DUP2 ADD DUP1 MLOAD PUSH1 0x1 PUSH1 0x1 PUSH1 0xE0 SHL SUB AND PUSH32 0xA9059CBB00000000000000000000000000000000000000000000000000000000 OR DUP2 MSTORE SWAP3 MLOAD DUP2 MLOAD PUSH1 0x0 SWAP5 PUSH1 0x60 SWAP5 DUP10 AND SWAP4 SWAP3 SWAP2 DUP3 SWAP2 SWAP1 DUP1 DUP4 DUP4 JUMPDEST PUSH1 0x20 DUP4 LT PUSH2 0x1A53 JUMPI DUP1 MLOAD DUP3 MSTORE PUSH1 0x1F NOT SWAP1 SWAP3 ADD SWAP2 PUSH1 0x20 SWAP2 DUP3 ADD SWAP2 ADD PUSH2 0x1A34 JUMP JUMPDEST PUSH1 0x1 DUP4 PUSH1 0x20 SUB PUSH2 0x100 EXP SUB DUP1 NOT DUP3 MLOAD AND DUP2 DUP5 MLOAD AND DUP1 DUP3 OR DUP6 MSTORE POP POP POP POP POP POP SWAP1 POP ADD SWAP2 POP POP PUSH1 0x0 PUSH1 0x40 MLOAD DUP1 DUP4 SUB DUP2 PUSH1 0x0 DUP7 GAS CALL SWAP2 POP POP RETURNDATASIZE DUP1 PUSH1 0x0 DUP2 EQ PUSH2 0x1AB5 JUMPI PUSH1 0x40 MLOAD SWAP2 POP PUSH1 0x1F NOT PUSH1 0x3F RETURNDATASIZE ADD AND DUP3 ADD PUSH1 0x40 MSTORE RETURNDATASIZE DUP3 MSTORE RETURNDATASIZE PUSH1 0x0 PUSH1 0x20 DUP5 ADD RETURNDATACOPY PUSH2 0x1ABA JUMP JUMPDEST PUSH1 0x60 SWAP2 POP JUMPDEST POP SWAP2 POP SWAP2 POP DUP2 DUP1 ISZERO PUSH2 0x1AE8 JUMPI POP DUP1 MLOAD ISZERO DUP1 PUSH2 0x1AE8 JUMPI POP DUP1 DUP1 PUSH1 0x20 ADD SWAP1 MLOAD PUSH1 0x20 DUP2 LT ISZERO PUSH2 0x1AE5 JUMPI PUSH1 0x0 DUP1 REVERT JUMPDEST POP MLOAD JUMPDEST PUSH2 0x1B39 JUMPI PUSH1 0x40 DUP1 MLOAD PUSH3 0x461BCD PUSH1 0xE5 SHL DUP2 MSTORE PUSH1 0x20 PUSH1 0x4 DUP3 ADD MSTORE PUSH1 0x19 PUSH1 0x24 DUP3 ADD MSTORE PUSH32 0x4B616C79737761703A205452414E534645525F4641494C454400000000000000 PUSH1 0x44 DUP3 ADD MSTORE SWAP1 MLOAD SWAP1 DUP2 SWAP1 SUB PUSH1 0x64 ADD SWAP1 REVERT JUMPDEST POP POP POP POP POP JUMP JUMPDEST PUSH1 0x0 DUP2 ISZERO DUP1 PUSH2 0x1B5B JUMPI POP POP DUP1 DUP3 MUL DUP3 DUP3 DUP3 DUP2 PUSH2 0x1B58 JUMPI INVALID JUMPDEST DIV EQ JUMPDEST PUSH2 0xBB0 JUMPI PUSH1 0x40 DUP1 MLOAD PUSH3 0x461BCD PUSH1 0xE5 SHL DUP2 MSTORE PUSH1 0x20 PUSH1 0x4 DUP3 ADD MSTORE PUSH1 0x14 PUSH1 0x24 DUP3 ADD MSTORE PUSH32 0x64732D6D6174682D6D756C2D6F766572666C6F77000000000000000000000000 PUSH1 0x44 DUP3 ADD MSTORE SWAP1 MLOAD SWAP1 DUP2 SWAP1 SUB PUSH1 0x64 ADD SWAP1 REVERT JUMPDEST DUP1 DUP3 SUB DUP3 DUP2 GT ISZERO PUSH2 0xBB0 JUMPI PUSH1 0x40 DUP1 MLOAD PUSH3 0x461BCD PUSH1 0xE5 SHL DUP2 MSTORE PUSH1 0x20 PUSH1 0x4 DUP3 ADD MSTORE PUSH1 0x15 PUSH1 0x24 DUP3 ADD MSTORE PUSH32 0x64732D6D6174682D7375622D756E646572666C6F770000000000000000000000 PUSH1 0x44 DUP3 ADD MSTORE SWAP1 MLOAD SWAP1 DUP2 SWAP1 SUB PUSH1 0x64 ADD SWAP1 REVERT JUMPDEST PUSH1 0x1 PUSH1 0x1 PUSH1 0x70 SHL SUB DUP5 GT DUP1 ISZERO SWAP1 PUSH2 0x1C22 JUMPI POP PUSH1 0x1 PUSH1 0x1 PUSH1 0x70 SHL SUB DUP4 GT ISZERO JUMPDEST PUSH2 0x1C73 JUMPI PUSH1 0x40 DUP1 MLOAD PUSH3 0x461BCD PUSH1 0xE5 SHL DUP2 MSTORE PUSH1 0x20 PUSH1 0x4 DUP3 ADD MSTORE PUSH1 0x12 PUSH1 0x24 DUP3 ADD MSTORE PUSH32 0x4B616C79737761703A204F564552464C4F570000000000000000000000000000 PUSH1 0x44 DUP3 ADD MSTORE SWAP1 MLOAD SWAP1 DUP2 SWAP1 SUB PUSH1 0x64 ADD SWAP1 REVERT JUMPDEST PUSH1 0x8 SLOAD PUSH4 0xFFFFFFFF TIMESTAMP DUP2 AND SWAP2 PUSH1 0x1 PUSH1 0xE0 SHL SWAP1 DIV DUP2 AND DUP3 SUB SWAP1 DUP2 AND ISZERO DUP1 ISZERO SWAP1 PUSH2 0x1CA3 JUMPI POP PUSH1 0x1 PUSH1 0x1 PUSH1 0x70 SHL SUB DUP5 AND ISZERO ISZERO JUMPDEST DUP1 ISZERO PUSH2 0x1CB7 JUMPI POP PUSH1 0x1 PUSH1 0x1 PUSH1 0x70 SHL SUB DUP4 AND ISZERO ISZERO JUMPDEST ISZERO PUSH2 0x1D28 JUMPI DUP1 PUSH4 0xFFFFFFFF AND PUSH2 0x1CE5 DUP6 PUSH2 0x1CD0 DUP7 PUSH2 0x21F9 JUMP JUMPDEST PUSH1 0x1 PUSH1 0x1 PUSH1 0xE0 SHL SUB AND SWAP1 PUSH4 0xFFFFFFFF PUSH2 0x220B AND JUMP JUMPDEST PUSH1 0x9 DUP1 SLOAD PUSH1 0x1 PUSH1 0x1 PUSH1 0xE0 SHL SUB SWAP3 SWAP1 SWAP3 AND SWAP3 SWAP1 SWAP3 MUL ADD SWAP1 SSTORE PUSH4 0xFFFFFFFF DUP2 AND PUSH2 0x1D10 DUP5 PUSH2 0x1CD0 DUP8 PUSH2 0x21F9 JUMP JUMPDEST PUSH1 0xA DUP1 SLOAD PUSH1 0x1 PUSH1 0x1 PUSH1 0xE0 SHL SUB SWAP3 SWAP1 SWAP3 AND SWAP3 SWAP1 SWAP3 MUL ADD SWAP1 SSTORE JUMPDEST PUSH1 0x8 DUP1 SLOAD PUSH14 0xFFFFFFFFFFFFFFFFFFFFFFFFFFFF NOT AND PUSH1 0x1 PUSH1 0x1 PUSH1 0x70 SHL SUB DUP9 DUP2 AND SWAP2 SWAP1 SWAP2 OR PUSH32 0xFFFFFFFF0000000000000000000000000000FFFFFFFFFFFFFFFFFFFFFFFFFFFF AND PUSH1 0x1 PUSH1 0x70 SHL DUP9 DUP4 AND DUP2 MUL SWAP2 SWAP1 SWAP2 OR PUSH1 0x1 PUSH1 0x1 PUSH1 0xE0 SHL SUB AND PUSH1 0x1 PUSH1 0xE0 SHL PUSH4 0xFFFFFFFF DUP8 AND MUL OR SWAP3 DUP4 SWAP1 SSTORE PUSH1 0x40 DUP1 MLOAD DUP5 DUP5 AND DUP2 MSTORE SWAP2 SWAP1 SWAP4 DIV SWAP1 SWAP2 AND PUSH1 0x20 DUP3 ADD MSTORE DUP2 MLOAD PUSH32 0x1C411E9A96E071241C2F21F7726B17AE89E3CAB4C78BE50E062B03A9FFFBBAD1 SWAP3 SWAP2 DUP2 SWAP1 SUB SWAP1 SWAP2 ADD SWAP1 LOG1 POP POP POP POP POP POP JUMP JUMPDEST PUSH1 0x1 PUSH1 0x1 PUSH1 0xA0 SHL SUB DUP1 DUP5 AND PUSH1 0x0 DUP2 DUP2 MSTORE PUSH1 0x2 PUSH1 0x20 SWAP1 DUP2 MSTORE PUSH1 0x40 DUP1 DUP4 KECCAK256 SWAP5 DUP8 AND DUP1 DUP5 MSTORE SWAP5 DUP3 MSTORE SWAP2 DUP3 SWAP1 KECCAK256 DUP6 SWAP1 SSTORE DUP2 MLOAD DUP6 DUP2 MSTORE SWAP2 MLOAD PUSH32 0x8C5BE1E5EBEC7D5BD14F71427D1E84F3DD0314C0F7B2291E5B200AC8C7C3B925 SWAP3 DUP2 SWAP1 SUB SWAP1 SWAP2 ADD SWAP1 LOG3 POP POP POP JUMP JUMPDEST PUSH1 0x1 PUSH1 0x1 PUSH1 0xA0 SHL SUB DUP4 AND PUSH1 0x0 SWAP1 DUP2 MSTORE PUSH1 0x1 PUSH1 0x20 MSTORE PUSH1 0x40 SWAP1 KECCAK256 SLOAD PUSH2 0x1E6C SWAP1 DUP3 PUSH4 0xFFFFFFFF PUSH2 0x1BAC AND JUMP JUMPDEST PUSH1 0x1 PUSH1 0x1 PUSH1 0xA0 SHL SUB DUP1 DUP6 AND PUSH1 0x0 SWAP1 DUP2 MSTORE PUSH1 0x1 PUSH1 0x20 MSTORE PUSH1 0x40 DUP1 DUP3 KECCAK256 SWAP4 SWAP1 SWAP4 SSTORE SWAP1 DUP5 AND DUP2 MSTORE KECCAK256 SLOAD PUSH2 0x1EA1 SWAP1 DUP3 PUSH4 0xFFFFFFFF PUSH2 0x2230 AND JUMP JUMPDEST PUSH1 0x1 PUSH1 0x1 PUSH1 0xA0 SHL SUB DUP1 DUP5 AND PUSH1 0x0 DUP2 DUP2 MSTORE PUSH1 0x1 PUSH1 0x20 SWAP1 DUP2 MSTORE PUSH1 0x40 SWAP2 DUP3 SWAP1 KECCAK256 SWAP5 SWAP1 SWAP5 SSTORE DUP1 MLOAD DUP6 DUP2 MSTORE SWAP1 MLOAD SWAP2 SWAP4 SWAP3 DUP8 AND SWAP3 PUSH32 0xDDF252AD1BE2C89B69C2B068FC378DAA952BA7F163C4A11628F55A4DF523B3EF SWAP3 SWAP2 DUP3 SWAP1 SUB ADD SWAP1 LOG3 POP POP POP JUMP JUMPDEST PUSH1 0x0 DUP1 PUSH1 0x5 PUSH1 0x0 SWAP1 SLOAD SWAP1 PUSH2 0x100 EXP SWAP1 DIV PUSH1 0x1 PUSH1 0x1 PUSH1 0xA0 SHL SUB AND PUSH1 0x1 PUSH1 0x1 PUSH1 0xA0 SHL SUB AND PUSH4 0x17E7E58 PUSH1 0x40 MLOAD DUP2 PUSH4 0xFFFFFFFF AND PUSH1 0xE0 SHL DUP2 MSTORE PUSH1 0x4 ADD PUSH1 0x20 PUSH1 0x40 MLOAD DUP1 DUP4 SUB DUP2 DUP7 DUP1 EXTCODESIZE ISZERO DUP1 ISZERO PUSH2 0x1F4E JUMPI PUSH1 0x0 DUP1 REVERT JUMPDEST POP GAS STATICCALL ISZERO DUP1 ISZERO PUSH2 0x1F62 JUMPI RETURNDATASIZE PUSH1 0x0 DUP1 RETURNDATACOPY RETURNDATASIZE PUSH1 0x0 REVERT JUMPDEST POP POP POP POP PUSH1 0x40 MLOAD RETURNDATASIZE PUSH1 0x20 DUP2 LT ISZERO PUSH2 0x1F78 JUMPI PUSH1 0x0 DUP1 REVERT JUMPDEST POP MLOAD PUSH1 0xB SLOAD PUSH1 0x1 PUSH1 0x1 PUSH1 0xA0 SHL SUB DUP3 AND ISZERO DUP1 ISZERO SWAP5 POP SWAP2 SWAP3 POP SWAP1 PUSH2 0x2047 JUMPI DUP1 ISZERO PUSH2 0x2042 JUMPI PUSH1 0x0 PUSH2 0x1FBB PUSH2 0xF0A PUSH1 0x1 PUSH1 0x1 PUSH1 0x70 SHL SUB DUP9 DUP2 AND SWAP1 DUP9 AND PUSH4 0xFFFFFFFF PUSH2 0x1B40 AND JUMP JUMPDEST SWAP1 POP PUSH1 0x0 PUSH2 0x1FC8 DUP4 PUSH2 0x205B JUMP JUMPDEST SWAP1 POP DUP1 DUP3 GT ISZERO PUSH2 0x203F JUMPI PUSH1 0x0 PUSH2 0x1FF6 PUSH2 0x1FE7 DUP5 DUP5 PUSH4 0xFFFFFFFF PUSH2 0x1BAC AND JUMP JUMPDEST PUSH1 0x0 SLOAD SWAP1 PUSH4 0xFFFFFFFF PUSH2 0x1B40 AND JUMP JUMPDEST SWAP1 POP PUSH1 0x0 PUSH2 0x201B DUP4 PUSH2 0x200F DUP7 PUSH1 0x5 PUSH4 0xFFFFFFFF PUSH2 0x1B40 AND JUMP JUMPDEST SWAP1 PUSH4 0xFFFFFFFF PUSH2 0x2230 AND JUMP JUMPDEST SWAP1 POP PUSH1 0x0 DUP2 DUP4 DUP2 PUSH2 0x2028 JUMPI INVALID JUMPDEST DIV SWAP1 POP DUP1 ISZERO PUSH2 0x203B JUMPI PUSH2 0x203B DUP8 DUP3 PUSH2 0x20AD JUMP JUMPDEST POP POP POP JUMPDEST POP POP JUMPDEST PUSH2 0x2053 JUMP JUMPDEST DUP1 ISZERO PUSH2 0x2053 JUMPI PUSH1 0x0 PUSH1 0xB SSTORE JUMPDEST POP POP SWAP3 SWAP2 POP POP JUMP JUMPDEST PUSH1 0x0 PUSH1 0x3 DUP3 GT ISZERO PUSH2 0x209E JUMPI POP DUP1 PUSH1 0x1 PUSH1 0x2 DUP3 DIV ADD JUMPDEST DUP2 DUP2 LT ISZERO PUSH2 0x2098 JUMPI DUP1 SWAP2 POP PUSH1 0x2 DUP2 DUP3 DUP6 DUP2 PUSH2 0x2087 JUMPI INVALID JUMPDEST DIV ADD DUP2 PUSH2 0x2090 JUMPI INVALID JUMPDEST DIV SWAP1 POP PUSH2 0x2070 JUMP JUMPDEST POP PUSH2 0x20A8 JUMP JUMPDEST DUP2 ISZERO PUSH2 0x20A8 JUMPI POP PUSH1 0x1 JUMPDEST SWAP2 SWAP1 POP JUMP JUMPDEST PUSH1 0x0 SLOAD PUSH2 0x20C0 SWAP1 DUP3 PUSH4 0xFFFFFFFF PUSH2 0x2230 AND JUMP JUMPDEST PUSH1 0x0 SWAP1 DUP2 SSTORE PUSH1 0x1 PUSH1 0x1 PUSH1 0xA0 SHL SUB DUP4 AND DUP2 MSTORE PUSH1 0x1 PUSH1 0x20 MSTORE PUSH1 0x40 SWAP1 KECCAK256 SLOAD PUSH2 0x20EB SWAP1 DUP3 PUSH4 0xFFFFFFFF PUSH2 0x2230 AND JUMP JUMPDEST PUSH1 0x1 PUSH1 0x1 PUSH1 0xA0 SHL SUB DUP4 AND PUSH1 0x0 DUP2 DUP2 MSTORE PUSH1 0x1 PUSH1 0x20 SWAP1 DUP2 MSTORE PUSH1 0x40 DUP1 DUP4 KECCAK256 SWAP5 SWAP1 SWAP5 SSTORE DUP4 MLOAD DUP6 DUP2 MSTORE SWAP4 MLOAD SWAP3 SWAP4 SWAP2 SWAP3 PUSH32 0xDDF252AD1BE2C89B69C2B068FC378DAA952BA7F163C4A11628F55A4DF523B3EF SWAP3 DUP2 SWAP1 SUB SWAP1 SWAP2 ADD SWAP1 LOG3 POP POP JUMP JUMPDEST PUSH1 0x0 DUP2 DUP4 LT PUSH2 0x2152 JUMPI DUP2 PUSH2 0x2154 JUMP JUMPDEST DUP3 JUMPDEST SWAP4 SWAP3 POP POP POP JUMP JUMPDEST PUSH1 0x1 PUSH1 0x1 PUSH1 0xA0 SHL SUB DUP3 AND PUSH1 0x0 SWAP1 DUP2 MSTORE PUSH1 0x1 PUSH1 0x20 MSTORE PUSH1 0x40 SWAP1 KECCAK256 SLOAD PUSH2 0x2184 SWAP1 DUP3 PUSH4 0xFFFFFFFF PUSH2 0x1BAC AND JUMP JUMPDEST PUSH1 0x1 PUSH1 0x1 PUSH1 0xA0 SHL SUB DUP4 AND PUSH1 0x0 SWAP1 DUP2 MSTORE PUSH1 0x1 PUSH1 0x20 MSTORE PUSH1 0x40 DUP2 KECCAK256 SWAP2 SWAP1 SWAP2 SSTORE SLOAD PUSH2 0x21B1 SWAP1 DUP3 PUSH4 0xFFFFFFFF PUSH2 0x1BAC AND JUMP JUMPDEST PUSH1 0x0 SWAP1 DUP2 SSTORE PUSH1 0x40 DUP1 MLOAD DUP4 DUP2 MSTORE SWAP1 MLOAD PUSH1 0x1 PUSH1 0x1 PUSH1 0xA0 SHL SUB DUP6 AND SWAP2 PUSH32 0xDDF252AD1BE2C89B69C2B068FC378DAA952BA7F163C4A11628F55A4DF523B3EF SWAP2 SWAP1 DUP2 SWAP1 SUB PUSH1 0x20 ADD SWAP1 LOG3 POP POP JUMP JUMPDEST PUSH1 0x1 PUSH1 0x1 PUSH1 0x70 SHL SUB AND PUSH1 0x1 PUSH1 0x70 SHL MUL SWAP1 JUMP JUMPDEST PUSH1 0x0 PUSH1 0x1 PUSH1 0x1 PUSH1 0x70 SHL SUB DUP3 AND PUSH1 0x1 PUSH1 0x1 PUSH1 0xE0 SHL SUB DUP5 AND DUP2 PUSH2 0x2228 JUMPI INVALID JUMPDEST DIV SWAP4 SWAP3 POP POP POP JUMP JUMPDEST DUP1 DUP3 ADD DUP3 DUP2 LT ISZERO PUSH2 0xBB0 JUMPI PUSH1 0x40 DUP1 MLOAD PUSH3 0x461BCD PUSH1 0xE5 SHL DUP2 MSTORE PUSH1 0x20 PUSH1 0x4 DUP3 ADD MSTORE PUSH1 0x14 PUSH1 0x24 DUP3 ADD MSTORE PUSH32 0x64732D6D6174682D6164642D6F766572666C6F77000000000000000000000000 PUSH1 0x44 DUP3 ADD MSTORE SWAP1 MLOAD SWAP1 DUP2 SWAP1 SUB PUSH1 0x64 ADD SWAP1 REVERT INVALID 0x4B PUSH2 0x6C79 PUSH20 0x7761703A20494E53554646494349454E545F494E POP SSTORE SLOAD 0x5F COINBASE 0x4D 0x4F SSTORE 0x4E SLOAD 0x4B PUSH2 0x6C79 PUSH20 0x7761703A20494E53554646494349454E545F4F55 SLOAD POP SSTORE SLOAD 0x5F COINBASE 0x4D 0x4F SSTORE 0x4E SLOAD 0x4B PUSH2 0x6C79 PUSH20 0x7761703A20494E53554646494349454E545F4C49 MLOAD SSTORE 0x49 DIFFICULTY 0x49 SLOAD MSIZE 0x5F 0x4D 0x49 0x4E SLOAD GASLIMIT DIFFICULTY 0x4B PUSH2 0x6C79 PUSH20 0x7761703A20494E53554646494349454E545F4C49 MLOAD SSTORE 0x49 DIFFICULTY 0x49 SLOAD MSIZE 0x5F TIMESTAMP SSTORE MSTORE 0x4E GASLIMIT DIFFICULTY LOG2 PUSH6 0x627A7A723158 KECCAK256 0xB8 LOG1 DUP13 0xA9 0xD6 GAS JUMPI BLOCKHASH 0xE1 0x4C 0xCD DUP8 0xE 0x5D 0xC2 0xFB SHR 0xDC 0xC7 0xAD 0xBF 0xC6 0xC CREATE PUSH28 0x57BD0D138CDC9164736F6C63430005100032454950373132446F6D61 PUSH10 0x6E28737472696E67206E PUSH2 0x6D65 0x2C PUSH20 0x7472696E672076657273696F6E2C75696E743235 CALLDATASIZE KECCAK256 PUSH4 0x6861696E 0x49 PUSH5 0x2C61646472 PUSH6 0x737320766572 PUSH10 0x6679696E67436F6E7472 PUSH2 0x6374 0x29 "
				},
				"gasEstimates": {
					"creation": {
						"codeDepositCost": "1808400",
						"executionCost": "infinite",
						"totalCost": "infinite"
					},
					"external": {
						"DOMAIN_SEPARATOR()": "1043",
						"MINIMUM_LIQUIDITY()": "243",
						"PERMIT_TYPEHASH()": "266",
						"allowance(address,address)": "1305",
						"approve(address,uint256)": "22366",
						"balanceOf(address)": "1192",
						"burn(address)": "infinite",
						"decimals()": "297",
						"factory()": "1126",
						"getReserves()": "1240",
						"initialize(address,address)": "42813",
						"kLast()": "1088",
						"mint(address)": "infinite",
						"name()": "infinite",
						"nonces(address)": "1169",
						"permit(address,address,uint256,uint256,uint8,bytes32,bytes32)": "infinite",
						"price0CumulativeLast()": "1087",
						"price1CumulativeLast()": "1109",
						"skim(address)": "infinite",
						"swap(uint256,uint256,address,bytes)": "infinite",
						"symbol()": "infinite",
						"sync()": "infinite",
						"token0()": "1105",
						"token1()": "1081",
						"totalSupply()": "1088",
						"transfer(address,uint256)": "infinite",
						"transferFrom(address,address,uint256)": "infinite"
					},
					"internal": {
						"_mintFee(uint112,uint112)": "infinite",
						"_safeTransfer(address,address,uint256)": "infinite",
						"_update(uint256,uint256,uint112,uint112)": "infinite"
					}
				},
				"methodIdentifiers": {
					"DOMAIN_SEPARATOR()": "3644e515",
					"MINIMUM_LIQUIDITY()": "ba9a7a56",
					"PERMIT_TYPEHASH()": "30adf81f",
					"allowance(address,address)": "dd62ed3e",
					"approve(address,uint256)": "095ea7b3",
					"balanceOf(address)": "70a08231",
					"burn(address)": "89afcb44",
					"decimals()": "313ce567",
					"factory()": "c45a0155",
					"getReserves()": "0902f1ac",
					"initialize(address,address)": "485cc955",
					"kLast()": "7464fc3d",
					"mint(address)": "6a627842",
					"name()": "06fdde03",
					"nonces(address)": "7ecebe00",
					"permit(address,address,uint256,uint256,uint8,bytes32,bytes32)": "d505accf",
					"price0CumulativeLast()": "5909c0d5",
					"price1CumulativeLast()": "5a3d5493",
					"skim(address)": "bc25cf77",
					"swap(uint256,uint256,address,bytes)": "022c0d9f",
					"symbol()": "95d89b41",
					"sync()": "fff6cae9",
					"token0()": "0dfe1681",
					"token1()": "d21220a7",
					"totalSupply()": "18160ddd",
					"transfer(address,uint256)": "a9059cbb",
					"transferFrom(address,address,uint256)": "23b872dd"
				}
			},
			"storageLayout": {
				"storage": [
					{
						"astId": 420,
						"contract": "CoreContracts/kalyswap-core/KalyswapFactory_flattened.sol:KalyswapPair",
						"label": "totalSupply",
						"offset": 0,
						"slot": "0",
						"type": "t_uint256"
					},
					{
						"astId": 424,
						"contract": "CoreContracts/kalyswap-core/KalyswapFactory_flattened.sol:KalyswapPair",
						"label": "balanceOf",
						"offset": 0,
						"slot": "1",
						"type": "t_mapping(t_address,t_uint256)"
					},
					{
						"astId": 430,
						"contract": "CoreContracts/kalyswap-core/KalyswapFactory_flattened.sol:KalyswapPair",
						"label": "allowance",
						"offset": 0,
						"slot": "2",
						"type": "t_mapping(t_address,t_mapping(t_address,t_uint256))"
					},
					{
						"astId": 432,
						"contract": "CoreContracts/kalyswap-core/KalyswapFactory_flattened.sol:KalyswapPair",
						"label": "DOMAIN_SEPARATOR",
						"offset": 0,
						"slot": "3",
						"type": "t_bytes32"
					},
					{
						"astId": 439,
						"contract": "CoreContracts/kalyswap-core/KalyswapFactory_flattened.sol:KalyswapPair",
						"label": "nonces",
						"offset": 0,
						"slot": "4",
						"type": "t_mapping(t_address,t_uint256)"
					},
					{
						"astId": 1115,
						"contract": "CoreContracts/kalyswap-core/KalyswapFactory_flattened.sol:KalyswapPair",
						"label": "factory",
						"offset": 0,
						"slot": "5",
						"type": "t_address"
					},
					{
						"astId": 1117,
						"contract": "CoreContracts/kalyswap-core/KalyswapFactory_flattened.sol:KalyswapPair",
						"label": "token0",
						"offset": 0,
						"slot": "6",
						"type": "t_address"
					},
					{
						"astId": 1119,
						"contract": "CoreContracts/kalyswap-core/KalyswapFactory_flattened.sol:KalyswapPair",
						"label": "token1",
						"offset": 0,
						"slot": "7",
						"type": "t_address"
					},
					{
						"astId": 1121,
						"contract": "CoreContracts/kalyswap-core/KalyswapFactory_flattened.sol:KalyswapPair",
						"label": "reserve0",
						"offset": 0,
						"slot": "8",
						"type": "t_uint112"
					},
					{
						"astId": 1123,
						"contract": "CoreContracts/kalyswap-core/KalyswapFactory_flattened.sol:KalyswapPair",
						"label": "reserve1",
						"offset": 14,
						"slot": "8",
						"type": "t_uint112"
					},
					{
						"astId": 1125,
						"contract": "CoreContracts/kalyswap-core/KalyswapFactory_flattened.sol:KalyswapPair",
						"label": "blockTimestampLast",
						"offset": 28,
						"slot": "8",
						"type": "t_uint32"
					},
					{
						"astId": 1127,
						"contract": "CoreContracts/kalyswap-core/KalyswapFactory_flattened.sol:KalyswapPair",
						"label": "price0CumulativeLast",
						"offset": 0,
						"slot": "9",
						"type": "t_uint256"
					},
					{
						"astId": 1129,
						"contract": "CoreContracts/kalyswap-core/KalyswapFactory_flattened.sol:KalyswapPair",
						"label": "price1CumulativeLast",
						"offset": 0,
						"slot": "10",
						"type": "t_uint256"
					},
					{
						"astId": 1131,
						"contract": "CoreContracts/kalyswap-core/KalyswapFactory_flattened.sol:KalyswapPair",
						"label": "kLast",
						"offset": 0,
						"slot": "11",
						"type": "t_uint256"
					},
					{
						"astId": 1134,
						"contract": "CoreContracts/kalyswap-core/KalyswapFactory_flattened.sol:KalyswapPair",
						"label": "unlocked",
						"offset": 0,
						"slot": "12",
						"type": "t_uint256"
					}
				],
				"types": {
					"t_address": {
						"encoding": "inplace",
						"label": "address",
						"numberOfBytes": "20"
					},
					"t_bytes32": {
						"encoding": "inplace",
						"label": "bytes32",
						"numberOfBytes": "32"
					},
					"t_mapping(t_address,t_mapping(t_address,t_uint256))": {
						"encoding": "mapping",
						"key": "t_address",
						"label": "mapping(address => mapping(address => uint256))",
						"numberOfBytes": "32",
						"value": "t_mapping(t_address,t_uint256)"
					},
					"t_mapping(t_address,t_uint256)": {
						"encoding": "mapping",
						"key": "t_address",
						"label": "mapping(address => uint256)",
						"numberOfBytes": "32",
						"value": "t_uint256"
					},
					"t_uint112": {
						"encoding": "inplace",
						"label": "uint112",
						"numberOfBytes": "14"
					},
					"t_uint256": {
						"encoding": "inplace",
						"label": "uint256",
						"numberOfBytes": "32"
					},
					"t_uint32": {
						"encoding": "inplace",
						"label": "uint32",
						"numberOfBytes": "4"
					}
				}
			},
			"userdoc": {
				"methods": {}
			}
		}
	}
}