{
	"data": {
		"bytecode": {
			"linkReferences": {},
			"object": "60a06040523480156200001157600080fd5b5060405162003bf038038062003bf0833981016040819052620000349162000198565b600062000040620000e7565b600080546001600160a01b0319166001600160a01b03831690811782556040519293509160008051602062003bd0833981519152908290a3506001600160a01b038216158015906200009a57506001600160a01b03811615155b620000c25760405162461bcd60e51b8152600401620000b9906200021c565b60405180910390fd5b6001600160601b0319606083901b16608052620000df81620000eb565b5050620002b8565b3390565b620000f5620000e7565b6000546001600160a01b03908116911614620001255760405162461bcd60e51b8152600401620000b9906200026a565b6001600160a01b0381166200014e5760405162461bcd60e51b8152600401620000b990620001d6565b600080546040516001600160a01b038085169392169160008051602062003bd083398151915291a3600080546001600160a01b0319166001600160a01b0392909216919091179055565b60008060408385031215620001ab578182fd5b8251620001b8816200029f565b6020840151909250620001cb816200029f565b809150509250929050565b60208082526026908201527f4f776e61626c653a206e6577206f776e657220697320746865207a65726f206160408201526564647265737360d01b606082015260800190565b6020808252602e908201527f4d696e694368656656323a3a43616e6e6f7420636f6e7374727563742077697460408201526d68207a65726f206164647265737360901b606082015260800190565b6020808252818101527f4f776e61626c653a2063616c6c6572206973206e6f7420746865206f776e6572604082015260600190565b6001600160a01b0381168114620002b557600080fd5b50565b60805160601c6138e1620002ef6000398061084d52806109c95280610ccc5280611c425280611f4f528061203f52506138e16000f3fe608060405234801561001057600080fd5b50600436106102d35760003560e01c8063715018a61161018657806398969e82116100e3578063cab34c0811610097578063f2fde38b11610071578063f2fde38b1461059c578063f624d2c5146105af578063f6d676be146105c2576102d3565b8063cab34c081461056e578063d1abb90714610576578063dcd18dd414610589576102d3565b8063b76f4aeb116100c8578063b76f4aeb1461054b578063c1bcb49314610553578063c346253d1461055b576102d3565b806398969e8214610525578063b763e7c414610538576102d3565b80638da5cb5b1161013a5780638f10369a1161011f5780638f10369a146104e9578063933f084f146104f157806393f1a40b14610504576102d3565b80638da5cb5b146104ce5780638dbdbe6d146104d6576102d3565b80637973aa7b1161016b5780637973aa7b146104a057806379d12ffb146104b35780637cd07e47146104c6576102d3565b8063715018a61461047857806378ed5d1f14610480576102d3565b806323cf311811610234578063454b0608116101e857806351eb05a6116101cd57806351eb05a61461043057806357a5b58c1461045057806361f8e66f14610463576102d3565b8063454b06081461040a5780634b87e90f1461041d576102d3565b80632f940c70116102195780632f940c70146103cf57806334c0b46b146103e25780633ef6db91146103f7576102d3565b806323cf3118146103a957806328662551146103bc576102d3565b806318fccc761161028b5780631bbe9d8c116102705780631bbe9d8c146103705780631ea48870146103835780632273ee6e14610396576102d3565b806318fccc761461034a57806319610b2b1461035d576102d3565b80630c812af3116102bc5780630c812af31461030b5780631526fe271461032057806317caf6f114610342576102d3565b8063081e3eda146102d85780630ad58d2f146102f6575b600080fd5b6102e06105ca565b6040516102ed9190613804565b60405180910390f35b610309610304366004612e40565b6105d0565b005b610313610760565b6040516102ed91906130ae565b61033361032e366004612d7f565b610770565b6040516102ed939291906137d9565b6102e06107b3565b610309610358366004612daf565b6107b9565b61030961036b366004612e1f565b610953565b61030961037e366004612b7a565b610a2f565b610313610391366004612b7a565b610ac2565b6103096103a4366004612e6d565b610ae0565b6103096103b7366004612b7a565b610b91565b6103096103ca366004612e1f565b610c48565b6103096103dd366004612daf565b610e3b565b6103ea610ecd565b6040516102ed919061301f565b610309610405366004612c6c565b610f2f565b610309610418366004612d7f565b611031565b61030961042b366004612d7f565b6113a5565b61044361043e366004612d7f565b6114bb565b6040516102ed91906137cb565b61030961045e366004612b96565b6117b9565b61046b6117ef565b6040516102ed919061306c565b61030961187a565b61049361048e366004612d7f565b611906565b6040516102ed9190612f8d565b6103096104ae366004612bd6565b61192d565b6103136104c1366004612b7a565b611a0f565b610493611a24565b610493611a33565b6103096104e4366004612e40565b611a42565b6102e0611bcd565b6103096104ff366004612e1f565b611bd3565b610517610512366004612daf565b611c6a565b6040516102ed92919061384c565b6102e0610533366004612daf565b611c8e565b610309610546366004612ed9565b611ecd565b6102e0611f16565b610309611f1c565b610493610569366004612d7f565b611f40565b610493611f4d565b610309610584366004612e40565b611f71565b610309610597366004612b7a565b6121a4565b6103096105aa366004612b7a565b612229565b6103096105bd366004612dde565b6122ec565b610309612339565b60025490565b6105d8612b11565b6105e1846114bb565b600085815260056020908152604080832033845290915290208151919250906106339064e8d4a510009061061f9087906001600160801b03166123c7565b8161062657fe5b6001840154919004612404565b600182015580546106449085612451565b815560048054600091908790811061065857fe5b6000918252602090912001546001600160a01b0316905080156106de5781546040516344af0fa760e01b81526001600160a01b038316916344af0fa7916106ab918a9133918a916000919060040161380d565b600060405180830381600087803b1580156106c557600080fd5b505af11580156106d9573d6000803e3d6000fd5b505050505b61070c8486600389815481106106f057fe5b6000918252602090912001546001600160a01b03169190612474565b836001600160a01b031686336001600160a01b03167f8166bf25f8a2b7ed3c85049207da4358d16edbed977d23fa2ee6f0dde3ec2132886040516107509190613804565b60405180910390a4505050505050565b600154600160a01b900460ff1681565b6002818154811061077d57fe5b6000918252602090912001546001600160801b038116915067ffffffffffffffff600160801b8204811691600160c01b90041683565b60085481565b6107c1612b11565b6107ca836114bb565b6000848152600560209081526040808320338452909152812082518154939450909264e8d4a510009161080691906001600160801b03166123c7565b8161080d57fe5b049050600061083161082c84600101548461240490919063ffffffff16565b612577565b6001840183905590508015610874576108746001600160a01b037f0000000000000000000000000000000000000000000000000000000000000000168683612474565b60006004878154811061088357fe5b6000918252602090912001546001600160a01b0316905080156109085783546040516344af0fa760e01b81526001600160a01b038316916344af0fa7916108d5918b9133918c9189919060040161380d565b600060405180830381600087803b1580156108ef57600080fd5b505af1158015610903573d6000803e3d6000fd5b505050505b86336001600160a01b03167f71bab65ced2e5750775a0613be067df48ef06cf92a496ebf7663ae0660924954846040516109429190613804565b60405180910390a350505050505050565b6000821161097c5760405162461bcd60e51b815260040161097390613420565b60405180910390fd5b6000600954838161098957fe5b049050818110156109ac5760405162461bcd60e51b815260040161097390613184565b600a546109b9908261259d565b600a556109f16001600160a01b037f0000000000000000000000000000000000000000000000000000000000000000163330866125c0565b7f8f596a35f0cdefc7e1e1e80e73eced8bfdb8ca9e519ca4042ad0963f19bc239e600a54604051610a229190613804565b60405180910390a1505050565b610a376126c6565b6000546001600160a01b03908116911614610a645760405162461bcd60e51b8152600401610973906134eb565b6001600160a01b03811660009081526007602052604090819020805460ff19166001179055517f0c48d651d88968f843204baf13aa11cd1a590e611c6dcadc7ed4daab1f98462a90610ab7908390612f8d565b60405180910390a150565b6001600160a01b031660009081526007602052604090205460ff1690565b60038781548110610aed57fe5b6000918252602090912001546040517fd505accf0000000000000000000000000000000000000000000000000000000081526001600160a01b039091169063d505accf90610b4b90339030908b908a908a908a908a90600401612fa1565b600060405180830381600087803b158015610b6557600080fd5b505af1158015610b79573d6000803e3d6000fd5b50505050610b88878787611a42565b50505050505050565b610b996126c6565b6000546001600160a01b03908116911614610bc65760405162461bcd60e51b8152600401610973906134eb565b600154600160a01b900460ff1615610bf05760405162461bcd60e51b8152600401610973906135eb565b6001805473ffffffffffffffffffffffffffffffffffffffff19166001600160a01b0383161790556040517f3ba4758949febc607e14523620298f8b5995b1848492ad7aa083372ac886ae0790610ab7908390612f8d565b610c50611a33565b6001600160a01b0316336001600160a01b03161480610c8357503360009081526007602052604090205460ff1615156001145b610c9f5760405162461bcd60e51b8152600401610973906136da565b60008211610cbf5760405162461bcd60e51b815260040161097390613127565b610cf46001600160a01b037f0000000000000000000000000000000000000000000000000000000000000000163330856125c0565b600a544210610d445760008111610d1d5760405162461bcd60e51b81526004016109739061376e565b610d25611f1c565b610d2f428261259d565b600a55808281610d3b57fe5b04600955610dc5565b600a54600090610d549042612451565b90506000610d6d600954836123c790919063ffffffff16565b90506000610d8684600a5461259d90919063ffffffff16565b90506000610d948242612451565b610d9e848861259d565b81610da557fe5b0490506009548114610db957610db9611f1c565b600a9190915560095550505b7fde89cb17ac7f58f94792b3e91e086ed85403819c24ceea882491f960ccb1a278600954604051610df69190613804565b60405180910390a17f8f596a35f0cdefc7e1e1e80e73eced8bfdb8ca9e519ca4042ad0963f19bc239e600a54604051610e2f9190613804565b60405180910390a15050565b600082815260056020908152604080832033845290915281208054828255600182019290925560038054919291610e7b918591849190889081106106f057fe5b826001600160a01b031684336001600160a01b03167f2cac5e20e1541d836381527a43f651851e302817b71dc8e810284e69210c1c6b84604051610ebf9190613804565b60405180910390a450505050565b60606003805480602002602001604051908101604052809291908181526020018280548015610f2557602002820191906000526020600020905b81546001600160a01b03168152600190910190602001808311610f07575b5050505050905090565b610f376126c6565b6000546001600160a01b03908116911614610f645760405162461bcd60e51b8152600401610973906134eb565b8685148015610f7257508483145b8015610f7d57508281145b610f995760405162461bcd60e51b815260040161097390613520565b610fa1611f1c565b8660005b818110156110255761101d8a8a83818110610fbc57fe5b90506020020135898984818110610fcf57fe5b90506020020135888885818110610fe257fe5b9050602002016020810190610ff79190612b7a565b87878681811061100357fe5b90506020020160208101906110189190612d2b565b6126ca565b600101610fa5565b50505050505050505050565b6110396126c6565b6000546001600160a01b039081169116146110665760405162461bcd60e51b8152600401610973906134eb565b600154600160a01b900460ff16156110905760405162461bcd60e51b8152600401610973906135eb565b6001546001600160a01b03166110b85760405162461bcd60e51b8152600401610973906133e9565b6000600382815481106110c757fe5b60009182526020822001546040516370a0823160e01b81526001600160a01b03909116925082906370a0823190611102903090600401612f8d565b60206040518083038186803b15801561111a57600080fd5b505afa15801561112e573d6000803e3d6000fd5b505050506040513d601f19601f820116820180604052508101906111529190612d97565b6001546040517f095ea7b30000000000000000000000000000000000000000000000000000000081529192506001600160a01b038085169263095ea7b3926111a09216908590600401613006565b602060405180830381600087803b1580156111ba57600080fd5b505af11580156111ce573d6000803e3d6000fd5b505050506040513d601f19601f820116820180604052508101906111f29190612d47565b506001546040517fce5494bb0000000000000000000000000000000000000000000000000000000081526000916001600160a01b03169063ce5494bb9061123d908690600401612f8d565b602060405180830381600087803b15801561125757600080fd5b505af115801561126b573d6000803e3d6000fd5b505050506040513d601f19601f8201168201806040525081019061128f9190612d63565b6040516370a0823160e01b81529091506001600160a01b038216906370a08231906112be903090600401612f8d565b60206040518083038186803b1580156112d657600080fd5b505afa1580156112ea573d6000803e3d6000fd5b505050506040513d601f19601f8201168201806040525081019061130e9190612d97565b821461132c5760405162461bcd60e51b8152600401610973906132d2565b806003858154811061133a57fe5b9060005260206000200160006101000a8154816001600160a01b0302191690836001600160a01b031602179055507fd5837b673ffaac69230366d3f7eb7cb2ba2b9fd8f2d4e9d0f5e92d3756b1d546846040516113979190613804565b60405180910390a150505050565b6113ad6126c6565b6000546001600160a01b039081169116146113da5760405162461bcd60e51b8152600401610973906134eb565b600081116113fa5760405162461bcd60e51b81526004016109739061376e565b611402611f1c565b600a546000906114129042612451565b9050600061142b600954836123c790919063ffffffff16565b9050611437428461259d565b600a8190556114469042612451565b818161144e57fe5b0460098190556040517fde89cb17ac7f58f94792b3e91e086ed85403819c24ceea882491f960ccb1a2789161148291613804565b60405180910390a17f8f596a35f0cdefc7e1e1e80e73eced8bfdb8ca9e519ca4042ad0963f19bc239e600a54604051610a229190613804565b6114c3612b11565b600282815481106114d057fe5b60009182526020918290206040805160608101825292909101546001600160801b038116835267ffffffffffffffff600160801b82048116948401859052600160c01b909104169082015291504211156117b45760006003838154811061153357fe5b6000918252602090912001546040516370a0823160e01b81526001600160a01b03909116906370a082319061156c903090600401612f8d565b60206040518083038186803b15801561158457600080fd5b505afa158015611598573d6000803e3d6000fd5b505050506040513d601f19601f820116820180604052508101906115bc9190612d97565b905080156116a8576000600a5442111561160e57826020015167ffffffffffffffff16600a54116115ee576000611609565b6020830151600a546116099167ffffffffffffffff16612451565b611628565b602083015161162890429067ffffffffffffffff16612451565b9050600060085461165c856040015167ffffffffffffffff16611656600954866123c790919063ffffffff16565b906123c7565b8161166357fe5b04905061169a6116898461167c8464e8d4a510006123c7565b8161168357fe5b04612810565b85516001600160801b031690612839565b6001600160801b0316845250505b6116b142612868565b67ffffffffffffffff16602083015260028054839190859081106116d157fe5b6000918252602091829020835191018054848401516040958601516fffffffffffffffffffffffffffffffff199092166001600160801b03909416939093177fffffffffffffffff0000000000000000ffffffffffffffffffffffffffffffff16600160801b67ffffffffffffffff948516021777ffffffffffffffffffffffffffffffffffffffffffffffff16600160c01b93909116929092029190911790558301518351915185927fb22162dac390356a083e49a03154a93d123f935f80aac3763ba0fa470c8fbe5e926117aa929091869161385a565b60405180910390a2505b919050565b8060005b818110156117e9576117e08484838181106117d457fe5b905060200201356114bb565b506001016117bd565b50505050565b60606002805480602002602001604051908101604052809291908181526020016000905b8282101561187157600084815260209081902060408051606081018252918501546001600160801b038116835267ffffffffffffffff600160801b8204811684860152600160c01b9091041690820152825260019092019101611813565b50505050905090565b6118826126c6565b6000546001600160a01b039081169116146118af5760405162461bcd60e51b8152600401610973906134eb565b600080546040516001600160a01b03909116907f8be0079c531659141344cd1fd0a4f28419497f9722a3daafe3b4186f6b6457e0908390a36000805473ffffffffffffffffffffffffffffffffffffffff19169055565b6003818154811061191357fe5b6000918252602090912001546001600160a01b0316905081565b6119356126c6565b6000546001600160a01b039081169116146119625760405162461bcd60e51b8152600401610973906134eb565b848314801561197057508281145b61198c5760405162461bcd60e51b815260040161097390613520565b611994611f1c565b8460005b81811015611a05576119fd8888838181106119af57fe5b905060200201358787848181106119c257fe5b90506020020160208101906119d79190612b7a565b8686858181106119e357fe5b90506020020160208101906119f89190612b7a565b612892565b600101611998565b5050505050505050565b60066020526000908152604090205460ff1681565b6001546001600160a01b031681565b6000546001600160a01b031690565b611a4a612b11565b611a53846114bb565b60008581526005602090815260408083206001600160a01b03871684529091529020805491925090611a85908561259d565b81558151611abc9064e8d4a5100090611aa89087906001600160801b03166123c7565b81611aaf57fe5b6001840154919004612acb565b8160010181905550600060048681548110611ad357fe5b6000918252602090912001546001600160a01b031690508015611b595781546040516344af0fa760e01b81526001600160a01b038316916344af0fa791611b26918a91899182916000919060040161380d565b600060405180830381600087803b158015611b4057600080fd5b505af1158015611b54573d6000803e3d6000fd5b505050505b611b8933308760038a81548110611b6c57fe5b6000918252602090912001546001600160a01b03169291906125c0565b836001600160a01b031686336001600160a01b03167f02d7e648dd130fc184d383e55bb126ac4c9c60e8f94bf05acdf557ba2d540b47886040516107509190613804565b60095481565b60008211611bf35760405162461bcd60e51b815260040161097390613218565b600954600090611c0390846123c7565b905081811115611c255760405162461bcd60e51b81526004016109739061332f565b600a54611c32908461259d565b600a556109f16001600160a01b037f0000000000000000000000000000000000000000000000000000000000000000163330846125c0565b60056020908152600092835260408084209091529082529020805460019091015482565b6000611c98612b11565b60028481548110611ca557fe5b600091825260208083206040805160608101825291909301546001600160801b03808216835267ffffffffffffffff600160801b8304811684860152600160c01b90920490911682850152888552600583528385206001600160a01b0389168652909252918320825160038054949650919492169288908110611d2457fe5b6000918252602090912001546040516370a0823160e01b81526001600160a01b03909116906370a0823190611d5d903090600401612f8d565b60206040518083038186803b158015611d7557600080fd5b505afa158015611d89573d6000803e3d6000fd5b505050506040513d601f19601f82011682018060405250810190611dad9190612d97565b9050836020015167ffffffffffffffff1642118015611dcb57508015155b15611e94576000600a54421115611e1a57846020015167ffffffffffffffff16600a5411611dfa576000611e15565b6020850151600a54611e159167ffffffffffffffff16612451565b611e34565b6020850151611e3490429067ffffffffffffffff16612451565b90506000600854611e62876040015167ffffffffffffffff16611656600954866123c790919063ffffffff16565b81611e6957fe5b049050611e8f83611e7f8364e8d4a510006123c7565b81611e8657fe5b8691900461259d565b935050505b60018301548354611ec29161082c9164e8d4a5100090611eb490876123c7565b81611ebb57fe5b0490612404565b979650505050505050565b611ed56126c6565b6000546001600160a01b03908116911614611f025760405162461bcd60e51b8152600401610973906134eb565b611f0a611f1c565b6117e9848484846126ca565b600a5481565b60025460005b81811015611f3c57611f33816114bb565b50600101611f22565b5050565b6004818154811061191357fe5b7f000000000000000000000000000000000000000000000000000000000000000081565b611f79612b11565b611f82846114bb565b6000858152600560209081526040808320338452909152812082518154939450909264e8d4a5100091611fbe91906001600160801b03166123c7565b81611fc557fe5b0490506000611fe461082c84600101548461240490919063ffffffff16565b905061201f64e8d4a5100061200f86600001516001600160801b0316896123c790919063ffffffff16565b8161201657fe5b84919004612404565b600184015582546120309087612451565b83556120666001600160a01b037f0000000000000000000000000000000000000000000000000000000000000000168683612474565b60006004888154811061207557fe5b6000918252602090912001546001600160a01b0316905080156120fa5783546040516344af0fa760e01b81526001600160a01b038316916344af0fa7916120c7918c9133918c9189919060040161380d565b600060405180830381600087803b1580156120e157600080fd5b505af11580156120f5573d6000803e3d6000fd5b505050505b61210c868860038b815481106106f057fe5b856001600160a01b031688336001600160a01b03167f8166bf25f8a2b7ed3c85049207da4358d16edbed977d23fa2ee6f0dde3ec21328a6040516121509190613804565b60405180910390a487336001600160a01b03167f71bab65ced2e5750775a0613be067df48ef06cf92a496ebf7663ae0660924954846040516121929190613804565b60405180910390a35050505050505050565b6121ac6126c6565b6000546001600160a01b039081169116146121d95760405162461bcd60e51b8152600401610973906134eb565b6001600160a01b03811660009081526007602052604090819020805460ff19169055517f423b2da7eebe1997af6d3d8f0c00fd04de1d323a87cd69152dad613731eb232590610ab7908390612f8d565b6122316126c6565b6000546001600160a01b0390811691161461225e5760405162461bcd60e51b8152600401610973906134eb565b6001600160a01b0381166122845760405162461bcd60e51b815260040161097390613275565b600080546040516001600160a01b03808516939216917f8be0079c531659141344cd1fd0a4f28419497f9722a3daafe3b4186f6b6457e091a36000805473ffffffffffffffffffffffffffffffffffffffff19166001600160a01b0392909216919091179055565b6122f46126c6565b6000546001600160a01b039081169116146123215760405162461bcd60e51b8152600401610973906134eb565b612329611f1c565b612334838383612892565b505050565b6123416126c6565b6000546001600160a01b0390811691161461236e5760405162461bcd60e51b8152600401610973906134eb565b600180547fffffffffffffffffffffff00ffffffffffffffffffffffffffffffffffffffff16600160a01b1790556040517ff460fd6afbbd82e0c22f24030b32f63befe14935b39a79bb3520220b21a0ed9490600090a1565b60008115806123e2575050808202828282816123df57fe5b04145b6123fe5760405162461bcd60e51b815260040161097390613737565b92915050565b60008183038183128015906124195750838113155b8061242e575060008312801561242e57508381135b61244a5760405162461bcd60e51b815260040161097390613648565b9392505050565b808203828111156123fe5760405162461bcd60e51b8152600401610973906130b9565b60006060846001600160a01b031663a9059cbb858560405160240161249a929190613006565b6040516020818303038152906040529060e01b6020820180517bffffffffffffffffffffffffffffffffffffffffffffffffffffffff83818316178352505050506040516124e89190612f54565b6000604051808303816000865af19150503d8060008114612525576040519150601f19603f3d011682016040523d82523d6000602084013e61252a565b606091505b50915091508180156125545750805115806125545750808060200190518101906125549190612d47565b6125705760405162461bcd60e51b8152600401610973906131e1565b5050505050565b6000808212156125995760405162461bcd60e51b8152600401610973906130f0565b5090565b818101818110156123fe5760405162461bcd60e51b8152600401610973906134b4565b60006060856001600160a01b03166323b872dd8686866040516024016125e893929190612fe2565b6040516020818303038152906040529060e01b6020820180517bffffffffffffffffffffffffffffffffffffffffffffffffffffffff83818316178352505050506040516126369190612f54565b6000604051808303816000865af19150503d8060008114612673576040519150601f19603f3d011682016040523d82523d6000602084013e612678565b606091505b50915091508180156126a25750805115806126a25750808060200190518101906126a29190612d47565b6126be5760405162461bcd60e51b8152600401610973906136a5565b505050505050565b3390565b61270a83612704600287815481106126de57fe5b60009182526020909120015460085490600160c01b900467ffffffffffffffff16612451565b9061259d565b60085561271683612868565b6002858154811061272357fe5b9060005260206000200160000160186101000a81548167ffffffffffffffff021916908367ffffffffffffffff160217905550801561279957816004858154811061276a57fe5b9060005260206000200160006101000a8154816001600160a01b0302191690836001600160a01b031602179055505b806127c557600484815481106127ab57fe5b6000918252602090912001546001600160a01b03166127c7565b815b6001600160a01b0316847f5766994790e89c27d9799092c4a6b179974a5b61a62663156d03d799cc8c01b8858460405161280292919061383c565b60405180910390a350505050565b60006001600160801b038211156125995760405162461bcd60e51b81526004016109739061347d565b8181016001600160801b0380831690821610156123fe5760405162461bcd60e51b8152600401610973906134b4565b600067ffffffffffffffff8211156125995760405162461bcd60e51b8152600401610973906135b4565b6001600160a01b03821660009081526006602052604090205460ff16156128cb5760405162461bcd60e51b81526004016109739061357d565b6008546128d8908461259d565b6008556003805460018181019092557fc2575a0e9e593c00f959f8c92f12db2869c3395a3b0502d05e2516446f71f85b0180546001600160a01b0380861673ffffffffffffffffffffffffffffffffffffffff199283161790925560048054938401815560009081527f8a35acfbc15ff81a39ae7d344fd709f28e8600b4aa8c65c6b64bfe7fe36bd19b90930180549285169290911691909117905560408051606081019091529081526002906020810161299242612868565b67ffffffffffffffff1681526020016129aa86612868565b67ffffffffffffffff90811690915282546001818101855560009485526020808620855193018054828701516040978801518716600160c01b0277ffffffffffffffffffffffffffffffffffffffffffffffff91909716600160801b027fffffffffffffffff0000000000000000ffffffffffffffffffffffffffffffff6001600160801b039097166fffffffffffffffffffffffffffffffff1990931692909217959095161793909316939093179091556001600160a01b03808716808652600690935292909320805460ff191684179055600354918416929091612a8f91612451565b7fe72dff05c5a9817b99753fffdec6b7800cc743c2f4b1fbc3eeb93983712a2a4686604051612abe9190613804565b60405180910390a4505050565b6000828201818312801590612ae05750838112155b80612af55750600083128015612af557508381125b61244a5760405162461bcd60e51b81526004016109739061338c565b604080516060810182526000808252602082018190529181019190915290565b60008083601f840112612b42578182fd5b50813567ffffffffffffffff811115612b59578182fd5b6020830191508360208083028501011115612b7357600080fd5b9250929050565b600060208284031215612b8b578081fd5b813561244a81613885565b60008060208385031215612ba8578081fd5b823567ffffffffffffffff811115612bbe578182fd5b612bca85828601612b31565b90969095509350505050565b60008060008060008060608789031215612bee578182fd5b863567ffffffffffffffff80821115612c05578384fd5b612c118a838b01612b31565b90985096506020890135915080821115612c29578384fd5b612c358a838b01612b31565b90965094506040890135915080821115612c4d578384fd5b50612c5a89828a01612b31565b979a9699509497509295939492505050565b6000806000806000806000806080898b031215612c87578182fd5b883567ffffffffffffffff80821115612c9e578384fd5b612caa8c838d01612b31565b909a50985060208b0135915080821115612cc2578384fd5b612cce8c838d01612b31565b909850965060408b0135915080821115612ce6578384fd5b612cf28c838d01612b31565b909650945060608b0135915080821115612d0a578384fd5b50612d178b828c01612b31565b999c989b5096995094979396929594505050565b600060208284031215612d3c578081fd5b813561244a8161389d565b600060208284031215612d58578081fd5b815161244a8161389d565b600060208284031215612d74578081fd5b815161244a81613885565b600060208284031215612d90578081fd5b5035919050565b600060208284031215612da8578081fd5b5051919050565b60008060408385031215612dc1578182fd5b823591506020830135612dd381613885565b809150509250929050565b600080600060608486031215612df2578081fd5b833592506020840135612e0481613885565b91506040840135612e1481613885565b809150509250925092565b60008060408385031215612e31578182fd5b50508035926020909101359150565b600080600060608486031215612e54578081fd5b83359250602084013591506040840135612e1481613885565b600080600080600080600060e0888a031215612e87578081fd5b87359650602088013595506040880135612ea081613885565b945060608801359350608088013560ff81168114612ebc578182fd5b9699959850939692959460a0840135945060c09093013592915050565b60008060008060808587031215612eee578182fd5b84359350602085013592506040850135612f0781613885565b91506060850135612f178161389d565b939692955090935050565b80516001600160801b0316825260208082015167ffffffffffffffff9081169184019190915260409182015116910152565b60008251815b81811015612f745760208186018101518583015201612f5a565b81811115612f825782828501525b509190910192915050565b6001600160a01b0391909116815260200190565b6001600160a01b0397881681529590961660208601526040850193909352606084019190915260ff16608083015260a082015260c081019190915260e00190565b6001600160a01b039384168152919092166020820152604081019190915260600190565b6001600160a01b03929092168252602082015260400190565b6020808252825182820181905260009190848201906040850190845b818110156130605783516001600160a01b03168352928401929184019160010161303b565b50909695505050505050565b6020808252825182820181905260009190848201906040850190845b818110156130605761309b838551612f22565b9284019260609290920191600101613088565b901515815260200190565b60208082526015908201527f426f72696e674d6174683a20556e646572666c6f770000000000000000000000604082015260600190565b6020808252600b908201527f496e7465676572203c2030000000000000000000000000000000000000000000604082015260600190565b60208082526022908201527f4d696e694368656656323a2066756e64696e672063616e6e6f74206265207a6560408201527f726f000000000000000000000000000000000000000000000000000000000000606082015260800190565b60208082526028908201527f4d696e694368656656323a20696e73756666696369656e7420657874656e736960408201527f6f6e206c696d6974000000000000000000000000000000000000000000000000606082015260800190565b6020808252601c908201527f426f72696e6745524332303a205472616e73666572206661696c656400000000604082015260600190565b6020808252602d908201527f4d696e694368656656323a20657874656e73696f6e206475726174696f6e206360408201527f616e6e6f74206265207a65726f00000000000000000000000000000000000000606082015260800190565b60208082526026908201527f4f776e61626c653a206e6577206f776e657220697320746865207a65726f206160408201527f6464726573730000000000000000000000000000000000000000000000000000606082015260800190565b60208082526027908201527f4d696e694368656656323a206d696772617465642062616c616e6365206d757360408201527f74206d6174636800000000000000000000000000000000000000000000000000606082015260800190565b60208082526026908201527f4d696e694368656656323a20696e73756666696369656e742066756e64696e6760408201527f206c696d69740000000000000000000000000000000000000000000000000000606082015260800190565b60208082526021908201527f5369676e6564536166654d6174683a206164646974696f6e206f766572666c6f60408201527f7700000000000000000000000000000000000000000000000000000000000000606082015260800190565b6020808252601b908201527f4d696e694368656656323a206e6f206d69677261746f72207365740000000000604082015260600190565b60208082526029908201527f4d696e694368656656323a2066756e64696e6720616d6f756e742063616e6e6f60408201527f74206265207a65726f0000000000000000000000000000000000000000000000606082015260800190565b6020808252601c908201527f426f72696e674d6174683a2075696e74313238204f766572666c6f7700000000604082015260600190565b60208082526018908201527f426f72696e674d6174683a20416464204f766572666c6f770000000000000000604082015260600190565b6020808252818101527f4f776e61626c653a2063616c6c6572206973206e6f7420746865206f776e6572604082015260600190565b60208082526025908201527f4d696e694368656656323a20696e76616c696420706172616d65746572206c6560408201527f6e67746873000000000000000000000000000000000000000000000000000000606082015260800190565b60208082526013908201527f546f6b656e20616c726561647920616464656400000000000000000000000000604082015260600190565b6020808252601b908201527f426f72696e674d6174683a2075696e743634204f766572666c6f770000000000604082015260600190565b60208082526027908201527f4d696e694368656656323a206d6967726174696f6e20686173206265656e206460408201527f697361626c656400000000000000000000000000000000000000000000000000606082015260800190565b60208082526024908201527f5369676e6564536166654d6174683a207375627472616374696f6e206f76657260408201527f666c6f7700000000000000000000000000000000000000000000000000000000606082015260800190565b6020808252818101527f426f72696e6745524332303a205472616e7366657246726f6d206661696c6564604082015260600190565b60208082526022908201527f4d696e694368656656323a2063616c6c6572206973206e6f7420612066756e6460408201527f6572000000000000000000000000000000000000000000000000000000000000606082015260800190565b60208082526018908201527f426f72696e674d6174683a204d756c204f766572666c6f770000000000000000604082015260600190565b6020808252602a908201527f4d696e694368656656323a20726577617264206475726174696f6e2063616e6e60408201527f6f74206265207a65726f00000000000000000000000000000000000000000000606082015260800190565b606081016123fe8284612f22565b6001600160801b0393909316835267ffffffffffffffff918216602084015216604082015260600190565b90815260200190565b9485526001600160a01b0393841660208601529190921660408401526060830191909152608082015260a00190565b9182521515602082015260400190565b918252602082015260400190565b67ffffffffffffffff93909316835260208301919091526001600160801b0316604082015260600190565b6001600160a01b038116811461389a57600080fd5b50565b801515811461389a57600080fdfea26469706673582212201dd6125191517f3e5cf8dc11b84b229b9f88c7ae42c19d67f69fa3b73cebfe1964736f6c634300060c00338be0079c531659141344cd1fd0a4f28419497f9722a3daafe3b4186f6b6457e0",
			"opcodes": "PUSH1 0xA0 PUSH1 0x40 MSTORE CALLVALUE DUP1 ISZERO PUSH3 0x11 JUMPI PUSH1 0x0 DUP1 REVERT JUMPDEST POP PUSH1 0x40 MLOAD PUSH3 0x3BF0 CODESIZE SUB DUP1 PUSH3 0x3BF0 DUP4 CODECOPY DUP2 ADD PUSH1 0x40 DUP2 SWAP1 MSTORE PUSH3 0x34 SWAP2 PUSH3 0x198 JUMP JUMPDEST PUSH1 0x0 PUSH3 0x40 PUSH3 0xE7 JUMP JUMPDEST PUSH1 0x0 DUP1 SLOAD PUSH1 0x1 PUSH1 0x1 PUSH1 0xA0 SHL SUB NOT AND PUSH1 0x1 PUSH1 0x1 PUSH1 0xA0 SHL SUB DUP4 AND SWAP1 DUP2 OR DUP3 SSTORE PUSH1 0x40 MLOAD SWAP3 SWAP4 POP SWAP2 PUSH1 0x0 DUP1 MLOAD PUSH1 0x20 PUSH3 0x3BD0 DUP4 CODECOPY DUP2 MLOAD SWAP2 MSTORE SWAP1 DUP3 SWAP1 LOG3 POP PUSH1 0x1 PUSH1 0x1 PUSH1 0xA0 SHL SUB DUP3 AND ISZERO DUP1 ISZERO SWAP1 PUSH3 0x9A JUMPI POP PUSH1 0x1 PUSH1 0x1 PUSH1 0xA0 SHL SUB DUP2 AND ISZERO ISZERO JUMPDEST PUSH3 0xC2 JUMPI PUSH1 0x40 MLOAD PUSH3 0x461BCD PUSH1 0xE5 SHL DUP2 MSTORE PUSH1 0x4 ADD PUSH3 0xB9 SWAP1 PUSH3 0x21C JUMP JUMPDEST PUSH1 0x40 MLOAD DUP1 SWAP2 SUB SWAP1 REVERT JUMPDEST PUSH1 0x1 PUSH1 0x1 PUSH1 0x60 SHL SUB NOT PUSH1 0x60 DUP4 SWAP1 SHL AND PUSH1 0x80 MSTORE PUSH3 0xDF DUP2 PUSH3 0xEB JUMP JUMPDEST POP POP PUSH3 0x2B8 JUMP JUMPDEST CALLER SWAP1 JUMP JUMPDEST PUSH3 0xF5 PUSH3 0xE7 JUMP JUMPDEST PUSH1 0x0 SLOAD PUSH1 0x1 PUSH1 0x1 PUSH1 0xA0 SHL SUB SWAP1 DUP2 AND SWAP2 AND EQ PUSH3 0x125 JUMPI PUSH1 0x40 MLOAD PUSH3 0x461BCD PUSH1 0xE5 SHL DUP2 MSTORE PUSH1 0x4 ADD PUSH3 0xB9 SWAP1 PUSH3 0x26A JUMP JUMPDEST PUSH1 0x1 PUSH1 0x1 PUSH1 0xA0 SHL SUB DUP2 AND PUSH3 0x14E JUMPI PUSH1 0x40 MLOAD PUSH3 0x461BCD PUSH1 0xE5 SHL DUP2 MSTORE PUSH1 0x4 ADD PUSH3 0xB9 SWAP1 PUSH3 0x1D6 JUMP JUMPDEST PUSH1 0x0 DUP1 SLOAD PUSH1 0x40 MLOAD PUSH1 0x1 PUSH1 0x1 PUSH1 0xA0 SHL SUB DUP1 DUP6 AND SWAP4 SWAP3 AND SWAP2 PUSH1 0x0 DUP1 MLOAD PUSH1 0x20 PUSH3 0x3BD0 DUP4 CODECOPY DUP2 MLOAD SWAP2 MSTORE SWAP2 LOG3 PUSH1 0x0 DUP1 SLOAD PUSH1 0x1 PUSH1 0x1 PUSH1 0xA0 SHL SUB NOT AND PUSH1 0x1 PUSH1 0x1 PUSH1 0xA0 SHL SUB SWAP3 SWAP1 SWAP3 AND SWAP2 SWAP1 SWAP2 OR SWAP1 SSTORE JUMP JUMPDEST PUSH1 0x0 DUP1 PUSH1 0x40 DUP4 DUP6 SUB SLT ISZERO PUSH3 0x1AB JUMPI DUP2 DUP3 REVERT JUMPDEST DUP3 MLOAD PUSH3 0x1B8 DUP2 PUSH3 0x29F JUMP JUMPDEST PUSH1 0x20 DUP5 ADD MLOAD SWAP1 SWAP3 POP PUSH3 0x1CB DUP2 PUSH3 0x29F JUMP JUMPDEST DUP1 SWAP2 POP POP SWAP3 POP SWAP3 SWAP1 POP JUMP JUMPDEST PUSH1 0x20 DUP1 DUP3 MSTORE PUSH1 0x26 SWAP1 DUP3 ADD MSTORE PUSH32 0x4F776E61626C653A206E6577206F776E657220697320746865207A65726F2061 PUSH1 0x40 DUP3 ADD MSTORE PUSH6 0x646472657373 PUSH1 0xD0 SHL PUSH1 0x60 DUP3 ADD MSTORE PUSH1 0x80 ADD SWAP1 JUMP JUMPDEST PUSH1 0x20 DUP1 DUP3 MSTORE PUSH1 0x2E SWAP1 DUP3 ADD MSTORE PUSH32 0x4D696E694368656656323A3A43616E6E6F7420636F6E73747275637420776974 PUSH1 0x40 DUP3 ADD MSTORE PUSH14 0x68207A65726F2061646472657373 PUSH1 0x90 SHL PUSH1 0x60 DUP3 ADD MSTORE PUSH1 0x80 ADD SWAP1 JUMP JUMPDEST PUSH1 0x20 DUP1 DUP3 MSTORE DUP2 DUP2 ADD MSTORE PUSH32 0x4F776E61626C653A2063616C6C6572206973206E6F7420746865206F776E6572 PUSH1 0x40 DUP3 ADD MSTORE PUSH1 0x60 ADD SWAP1 JUMP JUMPDEST PUSH1 0x1 PUSH1 0x1 PUSH1 0xA0 SHL SUB DUP2 AND DUP2 EQ PUSH3 0x2B5 JUMPI PUSH1 0x0 DUP1 REVERT JUMPDEST POP JUMP JUMPDEST PUSH1 0x80 MLOAD PUSH1 0x60 SHR PUSH2 0x38E1 PUSH3 0x2EF PUSH1 0x0 CODECOPY DUP1 PUSH2 0x84D MSTORE DUP1 PUSH2 0x9C9 MSTORE DUP1 PUSH2 0xCCC MSTORE DUP1 PUSH2 0x1C42 MSTORE DUP1 PUSH2 0x1F4F MSTORE DUP1 PUSH2 0x203F MSTORE POP PUSH2 0x38E1 PUSH1 0x0 RETURN INVALID PUSH1 0x80 PUSH1 0x40 MSTORE CALLVALUE DUP1 ISZERO PUSH2 0x10 JUMPI PUSH1 0x0 DUP1 REVERT JUMPDEST POP PUSH1 0x4 CALLDATASIZE LT PUSH2 0x2D3 JUMPI PUSH1 0x0 CALLDATALOAD PUSH1 0xE0 SHR DUP1 PUSH4 0x715018A6 GT PUSH2 0x186 JUMPI DUP1 PUSH4 0x98969E82 GT PUSH2 0xE3 JUMPI DUP1 PUSH4 0xCAB34C08 GT PUSH2 0x97 JUMPI DUP1 PUSH4 0xF2FDE38B GT PUSH2 0x71 JUMPI DUP1 PUSH4 0xF2FDE38B EQ PUSH2 0x59C JUMPI DUP1 PUSH4 0xF624D2C5 EQ PUSH2 0x5AF JUMPI DUP1 PUSH4 0xF6D676BE EQ PUSH2 0x5C2 JUMPI PUSH2 0x2D3 JUMP JUMPDEST DUP1 PUSH4 0xCAB34C08 EQ PUSH2 0x56E JUMPI DUP1 PUSH4 0xD1ABB907 EQ PUSH2 0x576 JUMPI DUP1 PUSH4 0xDCD18DD4 EQ PUSH2 0x589 JUMPI PUSH2 0x2D3 JUMP JUMPDEST DUP1 PUSH4 0xB76F4AEB GT PUSH2 0xC8 JUMPI DUP1 PUSH4 0xB76F4AEB EQ PUSH2 0x54B JUMPI DUP1 PUSH4 0xC1BCB493 EQ PUSH2 0x553 JUMPI DUP1 PUSH4 0xC346253D EQ PUSH2 0x55B JUMPI PUSH2 0x2D3 JUMP JUMPDEST DUP1 PUSH4 0x98969E82 EQ PUSH2 0x525 JUMPI DUP1 PUSH4 0xB763E7C4 EQ PUSH2 0x538 JUMPI PUSH2 0x2D3 JUMP JUMPDEST DUP1 PUSH4 0x8DA5CB5B GT PUSH2 0x13A JUMPI DUP1 PUSH4 0x8F10369A GT PUSH2 0x11F JUMPI DUP1 PUSH4 0x8F10369A EQ PUSH2 0x4E9 JUMPI DUP1 PUSH4 0x933F084F EQ PUSH2 0x4F1 JUMPI DUP1 PUSH4 0x93F1A40B EQ PUSH2 0x504 JUMPI PUSH2 0x2D3 JUMP JUMPDEST DUP1 PUSH4 0x8DA5CB5B EQ PUSH2 0x4CE JUMPI DUP1 PUSH4 0x8DBDBE6D EQ PUSH2 0x4D6 JUMPI PUSH2 0x2D3 JUMP JUMPDEST DUP1 PUSH4 0x7973AA7B GT PUSH2 0x16B JUMPI DUP1 PUSH4 0x7973AA7B EQ PUSH2 0x4A0 JUMPI DUP1 PUSH4 0x79D12FFB EQ PUSH2 0x4B3 JUMPI DUP1 PUSH4 0x7CD07E47 EQ PUSH2 0x4C6 JUMPI PUSH2 0x2D3 JUMP JUMPDEST DUP1 PUSH4 0x715018A6 EQ PUSH2 0x478 JUMPI DUP1 PUSH4 0x78ED5D1F EQ PUSH2 0x480 JUMPI PUSH2 0x2D3 JUMP JUMPDEST DUP1 PUSH4 0x23CF3118 GT PUSH2 0x234 JUMPI DUP1 PUSH4 0x454B0608 GT PUSH2 0x1E8 JUMPI DUP1 PUSH4 0x51EB05A6 GT PUSH2 0x1CD JUMPI DUP1 PUSH4 0x51EB05A6 EQ PUSH2 0x430 JUMPI DUP1 PUSH4 0x57A5B58C EQ PUSH2 0x450 JUMPI DUP1 PUSH4 0x61F8E66F EQ PUSH2 0x463 JUMPI PUSH2 0x2D3 JUMP JUMPDEST DUP1 PUSH4 0x454B0608 EQ PUSH2 0x40A JUMPI DUP1 PUSH4 0x4B87E90F EQ PUSH2 0x41D JUMPI PUSH2 0x2D3 JUMP JUMPDEST DUP1 PUSH4 0x2F940C70 GT PUSH2 0x219 JUMPI DUP1 PUSH4 0x2F940C70 EQ PUSH2 0x3CF JUMPI DUP1 PUSH4 0x34C0B46B EQ PUSH2 0x3E2 JUMPI DUP1 PUSH4 0x3EF6DB91 EQ PUSH2 0x3F7 JUMPI PUSH2 0x2D3 JUMP JUMPDEST DUP1 PUSH4 0x23CF3118 EQ PUSH2 0x3A9 JUMPI DUP1 PUSH4 0x28662551 EQ PUSH2 0x3BC JUMPI PUSH2 0x2D3 JUMP JUMPDEST DUP1 PUSH4 0x18FCCC76 GT PUSH2 0x28B JUMPI DUP1 PUSH4 0x1BBE9D8C GT PUSH2 0x270 JUMPI DUP1 PUSH4 0x1BBE9D8C EQ PUSH2 0x370 JUMPI DUP1 PUSH4 0x1EA48870 EQ PUSH2 0x383 JUMPI DUP1 PUSH4 0x2273EE6E EQ PUSH2 0x396 JUMPI PUSH2 0x2D3 JUMP JUMPDEST DUP1 PUSH4 0x18FCCC76 EQ PUSH2 0x34A JUMPI DUP1 PUSH4 0x19610B2B EQ PUSH2 0x35D JUMPI PUSH2 0x2D3 JUMP JUMPDEST DUP1 PUSH4 0xC812AF3 GT PUSH2 0x2BC JUMPI DUP1 PUSH4 0xC812AF3 EQ PUSH2 0x30B JUMPI DUP1 PUSH4 0x1526FE27 EQ PUSH2 0x320 JUMPI DUP1 PUSH4 0x17CAF6F1 EQ PUSH2 0x342 JUMPI PUSH2 0x2D3 JUMP JUMPDEST DUP1 PUSH4 0x81E3EDA EQ PUSH2 0x2D8 JUMPI DUP1 PUSH4 0xAD58D2F EQ PUSH2 0x2F6 JUMPI JUMPDEST PUSH1 0x0 DUP1 REVERT JUMPDEST PUSH2 0x2E0 PUSH2 0x5CA JUMP JUMPDEST PUSH1 0x40 MLOAD PUSH2 0x2ED SWAP2 SWAP1 PUSH2 0x3804 JUMP JUMPDEST PUSH1 0x40 MLOAD DUP1 SWAP2 SUB SWAP1 RETURN JUMPDEST PUSH2 0x309 PUSH2 0x304 CALLDATASIZE PUSH1 0x4 PUSH2 0x2E40 JUMP JUMPDEST PUSH2 0x5D0 JUMP JUMPDEST STOP JUMPDEST PUSH2 0x313 PUSH2 0x760 JUMP JUMPDEST PUSH1 0x40 MLOAD PUSH2 0x2ED SWAP2 SWAP1 PUSH2 0x30AE JUMP JUMPDEST PUSH2 0x333 PUSH2 0x32E CALLDATASIZE PUSH1 0x4 PUSH2 0x2D7F JUMP JUMPDEST PUSH2 0x770 JUMP JUMPDEST PUSH1 0x40 MLOAD PUSH2 0x2ED SWAP4 SWAP3 SWAP2 SWAP1 PUSH2 0x37D9 JUMP JUMPDEST PUSH2 0x2E0 PUSH2 0x7B3 JUMP JUMPDEST PUSH2 0x309 PUSH2 0x358 CALLDATASIZE PUSH1 0x4 PUSH2 0x2DAF JUMP JUMPDEST PUSH2 0x7B9 JUMP JUMPDEST PUSH2 0x309 PUSH2 0x36B CALLDATASIZE PUSH1 0x4 PUSH2 0x2E1F JUMP JUMPDEST PUSH2 0x953 JUMP JUMPDEST PUSH2 0x309 PUSH2 0x37E CALLDATASIZE PUSH1 0x4 PUSH2 0x2B7A JUMP JUMPDEST PUSH2 0xA2F JUMP JUMPDEST PUSH2 0x313 PUSH2 0x391 CALLDATASIZE PUSH1 0x4 PUSH2 0x2B7A JUMP JUMPDEST PUSH2 0xAC2 JUMP JUMPDEST PUSH2 0x309 PUSH2 0x3A4 CALLDATASIZE PUSH1 0x4 PUSH2 0x2E6D JUMP JUMPDEST PUSH2 0xAE0 JUMP JUMPDEST PUSH2 0x309 PUSH2 0x3B7 CALLDATASIZE PUSH1 0x4 PUSH2 0x2B7A JUMP JUMPDEST PUSH2 0xB91 JUMP JUMPDEST PUSH2 0x309 PUSH2 0x3CA CALLDATASIZE PUSH1 0x4 PUSH2 0x2E1F JUMP JUMPDEST PUSH2 0xC48 JUMP JUMPDEST PUSH2 0x309 PUSH2 0x3DD CALLDATASIZE PUSH1 0x4 PUSH2 0x2DAF JUMP JUMPDEST PUSH2 0xE3B JUMP JUMPDEST PUSH2 0x3EA PUSH2 0xECD JUMP JUMPDEST PUSH1 0x40 MLOAD PUSH2 0x2ED SWAP2 SWAP1 PUSH2 0x301F JUMP JUMPDEST PUSH2 0x309 PUSH2 0x405 CALLDATASIZE PUSH1 0x4 PUSH2 0x2C6C JUMP JUMPDEST PUSH2 0xF2F JUMP JUMPDEST PUSH2 0x309 PUSH2 0x418 CALLDATASIZE PUSH1 0x4 PUSH2 0x2D7F JUMP JUMPDEST PUSH2 0x1031 JUMP JUMPDEST PUSH2 0x309 PUSH2 0x42B CALLDATASIZE PUSH1 0x4 PUSH2 0x2D7F JUMP JUMPDEST PUSH2 0x13A5 JUMP JUMPDEST PUSH2 0x443 PUSH2 0x43E CALLDATASIZE PUSH1 0x4 PUSH2 0x2D7F JUMP JUMPDEST PUSH2 0x14BB JUMP JUMPDEST PUSH1 0x40 MLOAD PUSH2 0x2ED SWAP2 SWAP1 PUSH2 0x37CB JUMP JUMPDEST PUSH2 0x309 PUSH2 0x45E CALLDATASIZE PUSH1 0x4 PUSH2 0x2B96 JUMP JUMPDEST PUSH2 0x17B9 JUMP JUMPDEST PUSH2 0x46B PUSH2 0x17EF JUMP JUMPDEST PUSH1 0x40 MLOAD PUSH2 0x2ED SWAP2 SWAP1 PUSH2 0x306C JUMP JUMPDEST PUSH2 0x309 PUSH2 0x187A JUMP JUMPDEST PUSH2 0x493 PUSH2 0x48E CALLDATASIZE PUSH1 0x4 PUSH2 0x2D7F JUMP JUMPDEST PUSH2 0x1906 JUMP JUMPDEST PUSH1 0x40 MLOAD PUSH2 0x2ED SWAP2 SWAP1 PUSH2 0x2F8D JUMP JUMPDEST PUSH2 0x309 PUSH2 0x4AE CALLDATASIZE PUSH1 0x4 PUSH2 0x2BD6 JUMP JUMPDEST PUSH2 0x192D JUMP JUMPDEST PUSH2 0x313 PUSH2 0x4C1 CALLDATASIZE PUSH1 0x4 PUSH2 0x2B7A JUMP JUMPDEST PUSH2 0x1A0F JUMP JUMPDEST PUSH2 0x493 PUSH2 0x1A24 JUMP JUMPDEST PUSH2 0x493 PUSH2 0x1A33 JUMP JUMPDEST PUSH2 0x309 PUSH2 0x4E4 CALLDATASIZE PUSH1 0x4 PUSH2 0x2E40 JUMP JUMPDEST PUSH2 0x1A42 JUMP JUMPDEST PUSH2 0x2E0 PUSH2 0x1BCD JUMP JUMPDEST PUSH2 0x309 PUSH2 0x4FF CALLDATASIZE PUSH1 0x4 PUSH2 0x2E1F JUMP JUMPDEST PUSH2 0x1BD3 JUMP JUMPDEST PUSH2 0x517 PUSH2 0x512 CALLDATASIZE PUSH1 0x4 PUSH2 0x2DAF JUMP JUMPDEST PUSH2 0x1C6A JUMP JUMPDEST PUSH1 0x40 MLOAD PUSH2 0x2ED SWAP3 SWAP2 SWAP1 PUSH2 0x384C JUMP JUMPDEST PUSH2 0x2E0 PUSH2 0x533 CALLDATASIZE PUSH1 0x4 PUSH2 0x2DAF JUMP JUMPDEST PUSH2 0x1C8E JUMP JUMPDEST PUSH2 0x309 PUSH2 0x546 CALLDATASIZE PUSH1 0x4 PUSH2 0x2ED9 JUMP JUMPDEST PUSH2 0x1ECD JUMP JUMPDEST PUSH2 0x2E0 PUSH2 0x1F16 JUMP JUMPDEST PUSH2 0x309 PUSH2 0x1F1C JUMP JUMPDEST PUSH2 0x493 PUSH2 0x569 CALLDATASIZE PUSH1 0x4 PUSH2 0x2D7F JUMP JUMPDEST PUSH2 0x1F40 JUMP JUMPDEST PUSH2 0x493 PUSH2 0x1F4D JUMP JUMPDEST PUSH2 0x309 PUSH2 0x584 CALLDATASIZE PUSH1 0x4 PUSH2 0x2E40 JUMP JUMPDEST PUSH2 0x1F71 JUMP JUMPDEST PUSH2 0x309 PUSH2 0x597 CALLDATASIZE PUSH1 0x4 PUSH2 0x2B7A JUMP JUMPDEST PUSH2 0x21A4 JUMP JUMPDEST PUSH2 0x309 PUSH2 0x5AA CALLDATASIZE PUSH1 0x4 PUSH2 0x2B7A JUMP JUMPDEST PUSH2 0x2229 JUMP JUMPDEST PUSH2 0x309 PUSH2 0x5BD CALLDATASIZE PUSH1 0x4 PUSH2 0x2DDE JUMP JUMPDEST PUSH2 0x22EC JUMP JUMPDEST PUSH2 0x309 PUSH2 0x2339 JUMP JUMPDEST PUSH1 0x2 SLOAD SWAP1 JUMP JUMPDEST PUSH2 0x5D8 PUSH2 0x2B11 JUMP JUMPDEST PUSH2 0x5E1 DUP5 PUSH2 0x14BB JUMP JUMPDEST PUSH1 0x0 DUP6 DUP2 MSTORE PUSH1 0x5 PUSH1 0x20 SWAP1 DUP2 MSTORE PUSH1 0x40 DUP1 DUP4 KECCAK256 CALLER DUP5 MSTORE SWAP1 SWAP2 MSTORE SWAP1 KECCAK256 DUP2 MLOAD SWAP2 SWAP3 POP SWAP1 PUSH2 0x633 SWAP1 PUSH5 0xE8D4A51000 SWAP1 PUSH2 0x61F SWAP1 DUP8 SWAP1 PUSH1 0x1 PUSH1 0x1 PUSH1 0x80 SHL SUB AND PUSH2 0x23C7 JUMP JUMPDEST DUP2 PUSH2 0x626 JUMPI INVALID JUMPDEST PUSH1 0x1 DUP5 ADD SLOAD SWAP2 SWAP1 DIV PUSH2 0x2404 JUMP JUMPDEST PUSH1 0x1 DUP3 ADD SSTORE DUP1 SLOAD PUSH2 0x644 SWAP1 DUP6 PUSH2 0x2451 JUMP JUMPDEST DUP2 SSTORE PUSH1 0x4 DUP1 SLOAD PUSH1 0x0 SWAP2 SWAP1 DUP8 SWAP1 DUP2 LT PUSH2 0x658 JUMPI INVALID JUMPDEST PUSH1 0x0 SWAP2 DUP3 MSTORE PUSH1 0x20 SWAP1 SWAP2 KECCAK256 ADD SLOAD PUSH1 0x1 PUSH1 0x1 PUSH1 0xA0 SHL SUB AND SWAP1 POP DUP1 ISZERO PUSH2 0x6DE JUMPI DUP2 SLOAD PUSH1 0x40 MLOAD PUSH4 0x44AF0FA7 PUSH1 0xE0 SHL DUP2 MSTORE PUSH1 0x1 PUSH1 0x1 PUSH1 0xA0 SHL SUB DUP4 AND SWAP2 PUSH4 0x44AF0FA7 SWAP2 PUSH2 0x6AB SWAP2 DUP11 SWAP2 CALLER SWAP2 DUP11 SWAP2 PUSH1 0x0 SWAP2 SWAP1 PUSH1 0x4 ADD PUSH2 0x380D JUMP JUMPDEST PUSH1 0x0 PUSH1 0x40 MLOAD DUP1 DUP4 SUB DUP2 PUSH1 0x0 DUP8 DUP1 EXTCODESIZE ISZERO DUP1 ISZERO PUSH2 0x6C5 JUMPI PUSH1 0x0 DUP1 REVERT JUMPDEST POP GAS CALL ISZERO DUP1 ISZERO PUSH2 0x6D9 JUMPI RETURNDATASIZE PUSH1 0x0 DUP1 RETURNDATACOPY RETURNDATASIZE PUSH1 0x0 REVERT JUMPDEST POP POP POP POP JUMPDEST PUSH2 0x70C DUP5 DUP7 PUSH1 0x3 DUP10 DUP2 SLOAD DUP2 LT PUSH2 0x6F0 JUMPI INVALID JUMPDEST PUSH1 0x0 SWAP2 DUP3 MSTORE PUSH1 0x20 SWAP1 SWAP2 KECCAK256 ADD SLOAD PUSH1 0x1 PUSH1 0x1 PUSH1 0xA0 SHL SUB AND SWAP2 SWAP1 PUSH2 0x2474 JUMP JUMPDEST DUP4 PUSH1 0x1 PUSH1 0x1 PUSH1 0xA0 SHL SUB AND DUP7 CALLER PUSH1 0x1 PUSH1 0x1 PUSH1 0xA0 SHL SUB AND PUSH32 0x8166BF25F8A2B7ED3C85049207DA4358D16EDBED977D23FA2EE6F0DDE3EC2132 DUP9 PUSH1 0x40 MLOAD PUSH2 0x750 SWAP2 SWAP1 PUSH2 0x3804 JUMP JUMPDEST PUSH1 0x40 MLOAD DUP1 SWAP2 SUB SWAP1 LOG4 POP POP POP POP POP POP JUMP JUMPDEST PUSH1 0x1 SLOAD PUSH1 0x1 PUSH1 0xA0 SHL SWAP1 DIV PUSH1 0xFF AND DUP2 JUMP JUMPDEST PUSH1 0x2 DUP2 DUP2 SLOAD DUP2 LT PUSH2 0x77D JUMPI INVALID JUMPDEST PUSH1 0x0 SWAP2 DUP3 MSTORE PUSH1 0x20 SWAP1 SWAP2 KECCAK256 ADD SLOAD PUSH1 0x1 PUSH1 0x1 PUSH1 0x80 SHL SUB DUP2 AND SWAP2 POP PUSH8 0xFFFFFFFFFFFFFFFF PUSH1 0x1 PUSH1 0x80 SHL DUP3 DIV DUP2 AND SWAP2 PUSH1 0x1 PUSH1 0xC0 SHL SWAP1 DIV AND DUP4 JUMP JUMPDEST PUSH1 0x8 SLOAD DUP2 JUMP JUMPDEST PUSH2 0x7C1 PUSH2 0x2B11 JUMP JUMPDEST PUSH2 0x7CA DUP4 PUSH2 0x14BB JUMP JUMPDEST PUSH1 0x0 DUP5 DUP2 MSTORE PUSH1 0x5 PUSH1 0x20 SWAP1 DUP2 MSTORE PUSH1 0x40 DUP1 DUP4 KECCAK256 CALLER DUP5 MSTORE SWAP1 SWAP2 MSTORE DUP2 KECCAK256 DUP3 MLOAD DUP2 SLOAD SWAP4 SWAP5 POP SWAP1 SWAP3 PUSH5 0xE8D4A51000 SWAP2 PUSH2 0x806 SWAP2 SWAP1 PUSH1 0x1 PUSH1 0x1 PUSH1 0x80 SHL SUB AND PUSH2 0x23C7 JUMP JUMPDEST DUP2 PUSH2 0x80D JUMPI INVALID JUMPDEST DIV SWAP1 POP PUSH1 0x0 PUSH2 0x831 PUSH2 0x82C DUP5 PUSH1 0x1 ADD SLOAD DUP5 PUSH2 0x2404 SWAP1 SWAP2 SWAP1 PUSH4 0xFFFFFFFF AND JUMP JUMPDEST PUSH2 0x2577 JUMP JUMPDEST PUSH1 0x1 DUP5 ADD DUP4 SWAP1 SSTORE SWAP1 POP DUP1 ISZERO PUSH2 0x874 JUMPI PUSH2 0x874 PUSH1 0x1 PUSH1 0x1 PUSH1 0xA0 SHL SUB PUSH32 0x0 AND DUP7 DUP4 PUSH2 0x2474 JUMP JUMPDEST PUSH1 0x0 PUSH1 0x4 DUP8 DUP2 SLOAD DUP2 LT PUSH2 0x883 JUMPI INVALID JUMPDEST PUSH1 0x0 SWAP2 DUP3 MSTORE PUSH1 0x20 SWAP1 SWAP2 KECCAK256 ADD SLOAD PUSH1 0x1 PUSH1 0x1 PUSH1 0xA0 SHL SUB AND SWAP1 POP DUP1 ISZERO PUSH2 0x908 JUMPI DUP4 SLOAD PUSH1 0x40 MLOAD PUSH4 0x44AF0FA7 PUSH1 0xE0 SHL DUP2 MSTORE PUSH1 0x1 PUSH1 0x1 PUSH1 0xA0 SHL SUB DUP4 AND SWAP2 PUSH4 0x44AF0FA7 SWAP2 PUSH2 0x8D5 SWAP2 DUP12 SWAP2 CALLER SWAP2 DUP13 SWAP2 DUP10 SWAP2 SWAP1 PUSH1 0x4 ADD PUSH2 0x380D JUMP JUMPDEST PUSH1 0x0 PUSH1 0x40 MLOAD DUP1 DUP4 SUB DUP2 PUSH1 0x0 DUP8 DUP1 EXTCODESIZE ISZERO DUP1 ISZERO PUSH2 0x8EF JUMPI PUSH1 0x0 DUP1 REVERT JUMPDEST POP GAS CALL ISZERO DUP1 ISZERO PUSH2 0x903 JUMPI RETURNDATASIZE PUSH1 0x0 DUP1 RETURNDATACOPY RETURNDATASIZE PUSH1 0x0 REVERT JUMPDEST POP POP POP POP JUMPDEST DUP7 CALLER PUSH1 0x1 PUSH1 0x1 PUSH1 0xA0 SHL SUB AND PUSH32 0x71BAB65CED2E5750775A0613BE067DF48EF06CF92A496EBF7663AE0660924954 DUP5 PUSH1 0x40 MLOAD PUSH2 0x942 SWAP2 SWAP1 PUSH2 0x3804 JUMP JUMPDEST PUSH1 0x40 MLOAD DUP1 SWAP2 SUB SWAP1 LOG3 POP POP POP POP POP POP POP JUMP JUMPDEST PUSH1 0x0 DUP3 GT PUSH2 0x97C JUMPI PUSH1 0x40 MLOAD PUSH3 0x461BCD PUSH1 0xE5 SHL DUP2 MSTORE PUSH1 0x4 ADD PUSH2 0x973 SWAP1 PUSH2 0x3420 JUMP JUMPDEST PUSH1 0x40 MLOAD DUP1 SWAP2 SUB SWAP1 REVERT JUMPDEST PUSH1 0x0 PUSH1 0x9 SLOAD DUP4 DUP2 PUSH2 0x989 JUMPI INVALID JUMPDEST DIV SWAP1 POP DUP2 DUP2 LT ISZERO PUSH2 0x9AC JUMPI PUSH1 0x40 MLOAD PUSH3 0x461BCD PUSH1 0xE5 SHL DUP2 MSTORE PUSH1 0x4 ADD PUSH2 0x973 SWAP1 PUSH2 0x3184 JUMP JUMPDEST PUSH1 0xA SLOAD PUSH2 0x9B9 SWAP1 DUP3 PUSH2 0x259D JUMP JUMPDEST PUSH1 0xA SSTORE PUSH2 0x9F1 PUSH1 0x1 PUSH1 0x1 PUSH1 0xA0 SHL SUB PUSH32 0x0 AND CALLER ADDRESS DUP7 PUSH2 0x25C0 JUMP JUMPDEST PUSH32 0x8F596A35F0CDEFC7E1E1E80E73ECED8BFDB8CA9E519CA4042AD0963F19BC239E PUSH1 0xA SLOAD PUSH1 0x40 MLOAD PUSH2 0xA22 SWAP2 SWAP1 PUSH2 0x3804 JUMP JUMPDEST PUSH1 0x40 MLOAD DUP1 SWAP2 SUB SWAP1 LOG1 POP POP POP JUMP JUMPDEST PUSH2 0xA37 PUSH2 0x26C6 JUMP JUMPDEST PUSH1 0x0 SLOAD PUSH1 0x1 PUSH1 0x1 PUSH1 0xA0 SHL SUB SWAP1 DUP2 AND SWAP2 AND EQ PUSH2 0xA64 JUMPI PUSH1 0x40 MLOAD PUSH3 0x461BCD PUSH1 0xE5 SHL DUP2 MSTORE PUSH1 0x4 ADD PUSH2 0x973 SWAP1 PUSH2 0x34EB JUMP JUMPDEST PUSH1 0x1 PUSH1 0x1 PUSH1 0xA0 SHL SUB DUP2 AND PUSH1 0x0 SWAP1 DUP2 MSTORE PUSH1 0x7 PUSH1 0x20 MSTORE PUSH1 0x40 SWAP1 DUP2 SWAP1 KECCAK256 DUP1 SLOAD PUSH1 0xFF NOT AND PUSH1 0x1 OR SWAP1 SSTORE MLOAD PUSH32 0xC48D651D88968F843204BAF13AA11CD1A590E611C6DCADC7ED4DAAB1F98462A SWAP1 PUSH2 0xAB7 SWAP1 DUP4 SWAP1 PUSH2 0x2F8D JUMP JUMPDEST PUSH1 0x40 MLOAD DUP1 SWAP2 SUB SWAP1 LOG1 POP JUMP JUMPDEST PUSH1 0x1 PUSH1 0x1 PUSH1 0xA0 SHL SUB AND PUSH1 0x0 SWAP1 DUP2 MSTORE PUSH1 0x7 PUSH1 0x20 MSTORE PUSH1 0x40 SWAP1 KECCAK256 SLOAD PUSH1 0xFF AND SWAP1 JUMP JUMPDEST PUSH1 0x3 DUP8 DUP2 SLOAD DUP2 LT PUSH2 0xAED JUMPI INVALID JUMPDEST PUSH1 0x0 SWAP2 DUP3 MSTORE PUSH1 0x20 SWAP1 SWAP2 KECCAK256 ADD SLOAD PUSH1 0x40 MLOAD PUSH32 0xD505ACCF00000000000000000000000000000000000000000000000000000000 DUP2 MSTORE PUSH1 0x1 PUSH1 0x1 PUSH1 0xA0 SHL SUB SWAP1 SWAP2 AND SWAP1 PUSH4 0xD505ACCF SWAP1 PUSH2 0xB4B SWAP1 CALLER SWAP1 ADDRESS SWAP1 DUP12 SWAP1 DUP11 SWAP1 DUP11 SWAP1 DUP11 SWAP1 DUP11 SWAP1 PUSH1 0x4 ADD PUSH2 0x2FA1 JUMP JUMPDEST PUSH1 0x0 PUSH1 0x40 MLOAD DUP1 DUP4 SUB DUP2 PUSH1 0x0 DUP8 DUP1 EXTCODESIZE ISZERO DUP1 ISZERO PUSH2 0xB65 JUMPI PUSH1 0x0 DUP1 REVERT JUMPDEST POP GAS CALL ISZERO DUP1 ISZERO PUSH2 0xB79 JUMPI RETURNDATASIZE PUSH1 0x0 DUP1 RETURNDATACOPY RETURNDATASIZE PUSH1 0x0 REVERT JUMPDEST POP POP POP POP PUSH2 0xB88 DUP8 DUP8 DUP8 PUSH2 0x1A42 JUMP JUMPDEST POP POP POP POP POP POP POP JUMP JUMPDEST PUSH2 0xB99 PUSH2 0x26C6 JUMP JUMPDEST PUSH1 0x0 SLOAD PUSH1 0x1 PUSH1 0x1 PUSH1 0xA0 SHL SUB SWAP1 DUP2 AND SWAP2 AND EQ PUSH2 0xBC6 JUMPI PUSH1 0x40 MLOAD PUSH3 0x461BCD PUSH1 0xE5 SHL DUP2 MSTORE PUSH1 0x4 ADD PUSH2 0x973 SWAP1 PUSH2 0x34EB JUMP JUMPDEST PUSH1 0x1 SLOAD PUSH1 0x1 PUSH1 0xA0 SHL SWAP1 DIV PUSH1 0xFF AND ISZERO PUSH2 0xBF0 JUMPI PUSH1 0x40 MLOAD PUSH3 0x461BCD PUSH1 0xE5 SHL DUP2 MSTORE PUSH1 0x4 ADD PUSH2 0x973 SWAP1 PUSH2 0x35EB JUMP JUMPDEST PUSH1 0x1 DUP1 SLOAD PUSH20 0xFFFFFFFFFFFFFFFFFFFFFFFFFFFFFFFFFFFFFFFF NOT AND PUSH1 0x1 PUSH1 0x1 PUSH1 0xA0 SHL SUB DUP4 AND OR SWAP1 SSTORE PUSH1 0x40 MLOAD PUSH32 0x3BA4758949FEBC607E14523620298F8B5995B1848492AD7AA083372AC886AE07 SWAP1 PUSH2 0xAB7 SWAP1 DUP4 SWAP1 PUSH2 0x2F8D JUMP JUMPDEST PUSH2 0xC50 PUSH2 0x1A33 JUMP JUMPDEST PUSH1 0x1 PUSH1 0x1 PUSH1 0xA0 SHL SUB AND CALLER PUSH1 0x1 PUSH1 0x1 PUSH1 0xA0 SHL SUB AND EQ DUP1 PUSH2 0xC83 JUMPI POP CALLER PUSH1 0x0 SWAP1 DUP2 MSTORE PUSH1 0x7 PUSH1 0x20 MSTORE PUSH1 0x40 SWAP1 KECCAK256 SLOAD PUSH1 0xFF AND ISZERO ISZERO PUSH1 0x1 EQ JUMPDEST PUSH2 0xC9F JUMPI PUSH1 0x40 MLOAD PUSH3 0x461BCD PUSH1 0xE5 SHL DUP2 MSTORE PUSH1 0x4 ADD PUSH2 0x973 SWAP1 PUSH2 0x36DA JUMP JUMPDEST PUSH1 0x0 DUP3 GT PUSH2 0xCBF JUMPI PUSH1 0x40 MLOAD PUSH3 0x461BCD PUSH1 0xE5 SHL DUP2 MSTORE PUSH1 0x4 ADD PUSH2 0x973 SWAP1 PUSH2 0x3127 JUMP JUMPDEST PUSH2 0xCF4 PUSH1 0x1 PUSH1 0x1 PUSH1 0xA0 SHL SUB PUSH32 0x0 AND CALLER ADDRESS DUP6 PUSH2 0x25C0 JUMP JUMPDEST PUSH1 0xA SLOAD TIMESTAMP LT PUSH2 0xD44 JUMPI PUSH1 0x0 DUP2 GT PUSH2 0xD1D JUMPI PUSH1 0x40 MLOAD PUSH3 0x461BCD PUSH1 0xE5 SHL DUP2 MSTORE PUSH1 0x4 ADD PUSH2 0x973 SWAP1 PUSH2 0x376E JUMP JUMPDEST PUSH2 0xD25 PUSH2 0x1F1C JUMP JUMPDEST PUSH2 0xD2F TIMESTAMP DUP3 PUSH2 0x259D JUMP JUMPDEST PUSH1 0xA SSTORE DUP1 DUP3 DUP2 PUSH2 0xD3B JUMPI INVALID JUMPDEST DIV PUSH1 0x9 SSTORE PUSH2 0xDC5 JUMP JUMPDEST PUSH1 0xA SLOAD PUSH1 0x0 SWAP1 PUSH2 0xD54 SWAP1 TIMESTAMP PUSH2 0x2451 JUMP JUMPDEST SWAP1 POP PUSH1 0x0 PUSH2 0xD6D PUSH1 0x9 SLOAD DUP4 PUSH2 0x23C7 SWAP1 SWAP2 SWAP1 PUSH4 0xFFFFFFFF AND JUMP JUMPDEST SWAP1 POP PUSH1 0x0 PUSH2 0xD86 DUP5 PUSH1 0xA SLOAD PUSH2 0x259D SWAP1 SWAP2 SWAP1 PUSH4 0xFFFFFFFF AND JUMP JUMPDEST SWAP1 POP PUSH1 0x0 PUSH2 0xD94 DUP3 TIMESTAMP PUSH2 0x2451 JUMP JUMPDEST PUSH2 0xD9E DUP5 DUP9 PUSH2 0x259D JUMP JUMPDEST DUP2 PUSH2 0xDA5 JUMPI INVALID JUMPDEST DIV SWAP1 POP PUSH1 0x9 SLOAD DUP2 EQ PUSH2 0xDB9 JUMPI PUSH2 0xDB9 PUSH2 0x1F1C JUMP JUMPDEST PUSH1 0xA SWAP2 SWAP1 SWAP2 SSTORE PUSH1 0x9 SSTORE POP POP JUMPDEST PUSH32 0xDE89CB17AC7F58F94792B3E91E086ED85403819C24CEEA882491F960CCB1A278 PUSH1 0x9 SLOAD PUSH1 0x40 MLOAD PUSH2 0xDF6 SWAP2 SWAP1 PUSH2 0x3804 JUMP JUMPDEST PUSH1 0x40 MLOAD DUP1 SWAP2 SUB SWAP1 LOG1 PUSH32 0x8F596A35F0CDEFC7E1E1E80E73ECED8BFDB8CA9E519CA4042AD0963F19BC239E PUSH1 0xA SLOAD PUSH1 0x40 MLOAD PUSH2 0xE2F SWAP2 SWAP1 PUSH2 0x3804 JUMP JUMPDEST PUSH1 0x40 MLOAD DUP1 SWAP2 SUB SWAP1 LOG1 POP POP JUMP JUMPDEST PUSH1 0x0 DUP3 DUP2 MSTORE PUSH1 0x5 PUSH1 0x20 SWAP1 DUP2 MSTORE PUSH1 0x40 DUP1 DUP4 KECCAK256 CALLER DUP5 MSTORE SWAP1 SWAP2 MSTORE DUP2 KECCAK256 DUP1 SLOAD DUP3 DUP3 SSTORE PUSH1 0x1 DUP3 ADD SWAP3 SWAP1 SWAP3 SSTORE PUSH1 0x3 DUP1 SLOAD SWAP2 SWAP3 SWAP2 PUSH2 0xE7B SWAP2 DUP6 SWAP2 DUP5 SWAP2 SWAP1 DUP9 SWAP1 DUP2 LT PUSH2 0x6F0 JUMPI INVALID JUMPDEST DUP3 PUSH1 0x1 PUSH1 0x1 PUSH1 0xA0 SHL SUB AND DUP5 CALLER PUSH1 0x1 PUSH1 0x1 PUSH1 0xA0 SHL SUB AND PUSH32 0x2CAC5E20E1541D836381527A43F651851E302817B71DC8E810284E69210C1C6B DUP5 PUSH1 0x40 MLOAD PUSH2 0xEBF SWAP2 SWAP1 PUSH2 0x3804 JUMP JUMPDEST PUSH1 0x40 MLOAD DUP1 SWAP2 SUB SWAP1 LOG4 POP POP POP POP JUMP JUMPDEST PUSH1 0x60 PUSH1 0x3 DUP1 SLOAD DUP1 PUSH1 0x20 MUL PUSH1 0x20 ADD PUSH1 0x40 MLOAD SWAP1 DUP2 ADD PUSH1 0x40 MSTORE DUP1 SWAP3 SWAP2 SWAP1 DUP2 DUP2 MSTORE PUSH1 0x20 ADD DUP3 DUP1 SLOAD DUP1 ISZERO PUSH2 0xF25 JUMPI PUSH1 0x20 MUL DUP3 ADD SWAP2 SWAP1 PUSH1 0x0 MSTORE PUSH1 0x20 PUSH1 0x0 KECCAK256 SWAP1 JUMPDEST DUP2 SLOAD PUSH1 0x1 PUSH1 0x1 PUSH1 0xA0 SHL SUB AND DUP2 MSTORE PUSH1 0x1 SWAP1 SWAP2 ADD SWAP1 PUSH1 0x20 ADD DUP1 DUP4 GT PUSH2 0xF07 JUMPI JUMPDEST POP POP POP POP POP SWAP1 POP SWAP1 JUMP JUMPDEST PUSH2 0xF37 PUSH2 0x26C6 JUMP JUMPDEST PUSH1 0x0 SLOAD PUSH1 0x1 PUSH1 0x1 PUSH1 0xA0 SHL SUB SWAP1 DUP2 AND SWAP2 AND EQ PUSH2 0xF64 JUMPI PUSH1 0x40 MLOAD PUSH3 0x461BCD PUSH1 0xE5 SHL DUP2 MSTORE PUSH1 0x4 ADD PUSH2 0x973 SWAP1 PUSH2 0x34EB JUMP JUMPDEST DUP7 DUP6 EQ DUP1 ISZERO PUSH2 0xF72 JUMPI POP DUP5 DUP4 EQ JUMPDEST DUP1 ISZERO PUSH2 0xF7D JUMPI POP DUP3 DUP2 EQ JUMPDEST PUSH2 0xF99 JUMPI PUSH1 0x40 MLOAD PUSH3 0x461BCD PUSH1 0xE5 SHL DUP2 MSTORE PUSH1 0x4 ADD PUSH2 0x973 SWAP1 PUSH2 0x3520 JUMP JUMPDEST PUSH2 0xFA1 PUSH2 0x1F1C JUMP JUMPDEST DUP7 PUSH1 0x0 JUMPDEST DUP2 DUP2 LT ISZERO PUSH2 0x1025 JUMPI PUSH2 0x101D DUP11 DUP11 DUP4 DUP2 DUP2 LT PUSH2 0xFBC JUMPI INVALID JUMPDEST SWAP1 POP PUSH1 0x20 MUL ADD CALLDATALOAD DUP10 DUP10 DUP5 DUP2 DUP2 LT PUSH2 0xFCF JUMPI INVALID JUMPDEST SWAP1 POP PUSH1 0x20 MUL ADD CALLDATALOAD DUP9 DUP9 DUP6 DUP2 DUP2 LT PUSH2 0xFE2 JUMPI INVALID JUMPDEST SWAP1 POP PUSH1 0x20 MUL ADD PUSH1 0x20 DUP2 ADD SWAP1 PUSH2 0xFF7 SWAP2 SWAP1 PUSH2 0x2B7A JUMP JUMPDEST DUP8 DUP8 DUP7 DUP2 DUP2 LT PUSH2 0x1003 JUMPI INVALID JUMPDEST SWAP1 POP PUSH1 0x20 MUL ADD PUSH1 0x20 DUP2 ADD SWAP1 PUSH2 0x1018 SWAP2 SWAP1 PUSH2 0x2D2B JUMP JUMPDEST PUSH2 0x26CA JUMP JUMPDEST PUSH1 0x1 ADD PUSH2 0xFA5 JUMP JUMPDEST POP POP POP POP POP POP POP POP POP POP JUMP JUMPDEST PUSH2 0x1039 PUSH2 0x26C6 JUMP JUMPDEST PUSH1 0x0 SLOAD PUSH1 0x1 PUSH1 0x1 PUSH1 0xA0 SHL SUB SWAP1 DUP2 AND SWAP2 AND EQ PUSH2 0x1066 JUMPI PUSH1 0x40 MLOAD PUSH3 0x461BCD PUSH1 0xE5 SHL DUP2 MSTORE PUSH1 0x4 ADD PUSH2 0x973 SWAP1 PUSH2 0x34EB JUMP JUMPDEST PUSH1 0x1 SLOAD PUSH1 0x1 PUSH1 0xA0 SHL SWAP1 DIV PUSH1 0xFF AND ISZERO PUSH2 0x1090 JUMPI PUSH1 0x40 MLOAD PUSH3 0x461BCD PUSH1 0xE5 SHL DUP2 MSTORE PUSH1 0x4 ADD PUSH2 0x973 SWAP1 PUSH2 0x35EB JUMP JUMPDEST PUSH1 0x1 SLOAD PUSH1 0x1 PUSH1 0x1 PUSH1 0xA0 SHL SUB AND PUSH2 0x10B8 JUMPI PUSH1 0x40 MLOAD PUSH3 0x461BCD PUSH1 0xE5 SHL DUP2 MSTORE PUSH1 0x4 ADD PUSH2 0x973 SWAP1 PUSH2 0x33E9 JUMP JUMPDEST PUSH1 0x0 PUSH1 0x3 DUP3 DUP2 SLOAD DUP2 LT PUSH2 0x10C7 JUMPI INVALID JUMPDEST PUSH1 0x0 SWAP2 DUP3 MSTORE PUSH1 0x20 DUP3 KECCAK256 ADD SLOAD PUSH1 0x40 MLOAD PUSH4 0x70A08231 PUSH1 0xE0 SHL DUP2 MSTORE PUSH1 0x1 PUSH1 0x1 PUSH1 0xA0 SHL SUB SWAP1 SWAP2 AND SWAP3 POP DUP3 SWAP1 PUSH4 0x70A08231 SWAP1 PUSH2 0x1102 SWAP1 ADDRESS SWAP1 PUSH1 0x4 ADD PUSH2 0x2F8D JUMP JUMPDEST PUSH1 0x20 PUSH1 0x40 MLOAD DUP1 DUP4 SUB DUP2 DUP7 DUP1 EXTCODESIZE ISZERO DUP1 ISZERO PUSH2 0x111A JUMPI PUSH1 0x0 DUP1 REVERT JUMPDEST POP GAS STATICCALL ISZERO DUP1 ISZERO PUSH2 0x112E JUMPI RETURNDATASIZE PUSH1 0x0 DUP1 RETURNDATACOPY RETURNDATASIZE PUSH1 0x0 REVERT JUMPDEST POP POP POP POP PUSH1 0x40 MLOAD RETURNDATASIZE PUSH1 0x1F NOT PUSH1 0x1F DUP3 ADD AND DUP3 ADD DUP1 PUSH1 0x40 MSTORE POP DUP2 ADD SWAP1 PUSH2 0x1152 SWAP2 SWAP1 PUSH2 0x2D97 JUMP JUMPDEST PUSH1 0x1 SLOAD PUSH1 0x40 MLOAD PUSH32 0x95EA7B300000000000000000000000000000000000000000000000000000000 DUP2 MSTORE SWAP2 SWAP3 POP PUSH1 0x1 PUSH1 0x1 PUSH1 0xA0 SHL SUB DUP1 DUP6 AND SWAP3 PUSH4 0x95EA7B3 SWAP3 PUSH2 0x11A0 SWAP3 AND SWAP1 DUP6 SWAP1 PUSH1 0x4 ADD PUSH2 0x3006 JUMP JUMPDEST PUSH1 0x20 PUSH1 0x40 MLOAD DUP1 DUP4 SUB DUP2 PUSH1 0x0 DUP8 DUP1 EXTCODESIZE ISZERO DUP1 ISZERO PUSH2 0x11BA JUMPI PUSH1 0x0 DUP1 REVERT JUMPDEST POP GAS CALL ISZERO DUP1 ISZERO PUSH2 0x11CE JUMPI RETURNDATASIZE PUSH1 0x0 DUP1 RETURNDATACOPY RETURNDATASIZE PUSH1 0x0 REVERT JUMPDEST POP POP POP POP PUSH1 0x40 MLOAD RETURNDATASIZE PUSH1 0x1F NOT PUSH1 0x1F DUP3 ADD AND DUP3 ADD DUP1 PUSH1 0x40 MSTORE POP DUP2 ADD SWAP1 PUSH2 0x11F2 SWAP2 SWAP1 PUSH2 0x2D47 JUMP JUMPDEST POP PUSH1 0x1 SLOAD PUSH1 0x40 MLOAD PUSH32 0xCE5494BB00000000000000000000000000000000000000000000000000000000 DUP2 MSTORE PUSH1 0x0 SWAP2 PUSH1 0x1 PUSH1 0x1 PUSH1 0xA0 SHL SUB AND SWAP1 PUSH4 0xCE5494BB SWAP1 PUSH2 0x123D SWAP1 DUP7 SWAP1 PUSH1 0x4 ADD PUSH2 0x2F8D JUMP JUMPDEST PUSH1 0x20 PUSH1 0x40 MLOAD DUP1 DUP4 SUB DUP2 PUSH1 0x0 DUP8 DUP1 EXTCODESIZE ISZERO DUP1 ISZERO PUSH2 0x1257 JUMPI PUSH1 0x0 DUP1 REVERT JUMPDEST POP GAS CALL ISZERO DUP1 ISZERO PUSH2 0x126B JUMPI RETURNDATASIZE PUSH1 0x0 DUP1 RETURNDATACOPY RETURNDATASIZE PUSH1 0x0 REVERT JUMPDEST POP POP POP POP PUSH1 0x40 MLOAD RETURNDATASIZE PUSH1 0x1F NOT PUSH1 0x1F DUP3 ADD AND DUP3 ADD DUP1 PUSH1 0x40 MSTORE POP DUP2 ADD SWAP1 PUSH2 0x128F SWAP2 SWAP1 PUSH2 0x2D63 JUMP JUMPDEST PUSH1 0x40 MLOAD PUSH4 0x70A08231 PUSH1 0xE0 SHL DUP2 MSTORE SWAP1 SWAP2 POP PUSH1 0x1 PUSH1 0x1 PUSH1 0xA0 SHL SUB DUP3 AND SWAP1 PUSH4 0x70A08231 SWAP1 PUSH2 0x12BE SWAP1 ADDRESS SWAP1 PUSH1 0x4 ADD PUSH2 0x2F8D JUMP JUMPDEST PUSH1 0x20 PUSH1 0x40 MLOAD DUP1 DUP4 SUB DUP2 DUP7 DUP1 EXTCODESIZE ISZERO DUP1 ISZERO PUSH2 0x12D6 JUMPI PUSH1 0x0 DUP1 REVERT JUMPDEST POP GAS STATICCALL ISZERO DUP1 ISZERO PUSH2 0x12EA JUMPI RETURNDATASIZE PUSH1 0x0 DUP1 RETURNDATACOPY RETURNDATASIZE PUSH1 0x0 REVERT JUMPDEST POP POP POP POP PUSH1 0x40 MLOAD RETURNDATASIZE PUSH1 0x1F NOT PUSH1 0x1F DUP3 ADD AND DUP3 ADD DUP1 PUSH1 0x40 MSTORE POP DUP2 ADD SWAP1 PUSH2 0x130E SWAP2 SWAP1 PUSH2 0x2D97 JUMP JUMPDEST DUP3 EQ PUSH2 0x132C JUMPI PUSH1 0x40 MLOAD PUSH3 0x461BCD PUSH1 0xE5 SHL DUP2 MSTORE PUSH1 0x4 ADD PUSH2 0x973 SWAP1 PUSH2 0x32D2 JUMP JUMPDEST DUP1 PUSH1 0x3 DUP6 DUP2 SLOAD DUP2 LT PUSH2 0x133A JUMPI INVALID JUMPDEST SWAP1 PUSH1 0x0 MSTORE PUSH1 0x20 PUSH1 0x0 KECCAK256 ADD PUSH1 0x0 PUSH2 0x100 EXP DUP2 SLOAD DUP2 PUSH1 0x1 PUSH1 0x1 PUSH1 0xA0 SHL SUB MUL NOT AND SWAP1 DUP4 PUSH1 0x1 PUSH1 0x1 PUSH1 0xA0 SHL SUB AND MUL OR SWAP1 SSTORE POP PUSH32 0xD5837B673FFAAC69230366D3F7EB7CB2BA2B9FD8F2D4E9D0F5E92D3756B1D546 DUP5 PUSH1 0x40 MLOAD PUSH2 0x1397 SWAP2 SWAP1 PUSH2 0x3804 JUMP JUMPDEST PUSH1 0x40 MLOAD DUP1 SWAP2 SUB SWAP1 LOG1 POP POP POP POP JUMP JUMPDEST PUSH2 0x13AD PUSH2 0x26C6 JUMP JUMPDEST PUSH1 0x0 SLOAD PUSH1 0x1 PUSH1 0x1 PUSH1 0xA0 SHL SUB SWAP1 DUP2 AND SWAP2 AND EQ PUSH2 0x13DA JUMPI PUSH1 0x40 MLOAD PUSH3 0x461BCD PUSH1 0xE5 SHL DUP2 MSTORE PUSH1 0x4 ADD PUSH2 0x973 SWAP1 PUSH2 0x34EB JUMP JUMPDEST PUSH1 0x0 DUP2 GT PUSH2 0x13FA JUMPI PUSH1 0x40 MLOAD PUSH3 0x461BCD PUSH1 0xE5 SHL DUP2 MSTORE PUSH1 0x4 ADD PUSH2 0x973 SWAP1 PUSH2 0x376E JUMP JUMPDEST PUSH2 0x1402 PUSH2 0x1F1C JUMP JUMPDEST PUSH1 0xA SLOAD PUSH1 0x0 SWAP1 PUSH2 0x1412 SWAP1 TIMESTAMP PUSH2 0x2451 JUMP JUMPDEST SWAP1 POP PUSH1 0x0 PUSH2 0x142B PUSH1 0x9 SLOAD DUP4 PUSH2 0x23C7 SWAP1 SWAP2 SWAP1 PUSH4 0xFFFFFFFF AND JUMP JUMPDEST SWAP1 POP PUSH2 0x1437 TIMESTAMP DUP5 PUSH2 0x259D JUMP JUMPDEST PUSH1 0xA DUP2 SWAP1 SSTORE PUSH2 0x1446 SWAP1 TIMESTAMP PUSH2 0x2451 JUMP JUMPDEST DUP2 DUP2 PUSH2 0x144E JUMPI INVALID JUMPDEST DIV PUSH1 0x9 DUP2 SWAP1 SSTORE PUSH1 0x40 MLOAD PUSH32 0xDE89CB17AC7F58F94792B3E91E086ED85403819C24CEEA882491F960CCB1A278 SWAP2 PUSH2 0x1482 SWAP2 PUSH2 0x3804 JUMP JUMPDEST PUSH1 0x40 MLOAD DUP1 SWAP2 SUB SWAP1 LOG1 PUSH32 0x8F596A35F0CDEFC7E1E1E80E73ECED8BFDB8CA9E519CA4042AD0963F19BC239E PUSH1 0xA SLOAD PUSH1 0x40 MLOAD PUSH2 0xA22 SWAP2 SWAP1 PUSH2 0x3804 JUMP JUMPDEST PUSH2 0x14C3 PUSH2 0x2B11 JUMP JUMPDEST PUSH1 0x2 DUP3 DUP2 SLOAD DUP2 LT PUSH2 0x14D0 JUMPI INVALID JUMPDEST PUSH1 0x0 SWAP2 DUP3 MSTORE PUSH1 0x20 SWAP2 DUP3 SWAP1 KECCAK256 PUSH1 0x40 DUP1 MLOAD PUSH1 0x60 DUP2 ADD DUP3 MSTORE SWAP3 SWAP1 SWAP2 ADD SLOAD PUSH1 0x1 PUSH1 0x1 PUSH1 0x80 SHL SUB DUP2 AND DUP4 MSTORE PUSH8 0xFFFFFFFFFFFFFFFF PUSH1 0x1 PUSH1 0x80 SHL DUP3 DIV DUP2 AND SWAP5 DUP5 ADD DUP6 SWAP1 MSTORE PUSH1 0x1 PUSH1 0xC0 SHL SWAP1 SWAP2 DIV AND SWAP1 DUP3 ADD MSTORE SWAP2 POP TIMESTAMP GT ISZERO PUSH2 0x17B4 JUMPI PUSH1 0x0 PUSH1 0x3 DUP4 DUP2 SLOAD DUP2 LT PUSH2 0x1533 JUMPI INVALID JUMPDEST PUSH1 0x0 SWAP2 DUP3 MSTORE PUSH1 0x20 SWAP1 SWAP2 KECCAK256 ADD SLOAD PUSH1 0x40 MLOAD PUSH4 0x70A08231 PUSH1 0xE0 SHL DUP2 MSTORE PUSH1 0x1 PUSH1 0x1 PUSH1 0xA0 SHL SUB SWAP1 SWAP2 AND SWAP1 PUSH4 0x70A08231 SWAP1 PUSH2 0x156C SWAP1 ADDRESS SWAP1 PUSH1 0x4 ADD PUSH2 0x2F8D JUMP JUMPDEST PUSH1 0x20 PUSH1 0x40 MLOAD DUP1 DUP4 SUB DUP2 DUP7 DUP1 EXTCODESIZE ISZERO DUP1 ISZERO PUSH2 0x1584 JUMPI PUSH1 0x0 DUP1 REVERT JUMPDEST POP GAS STATICCALL ISZERO DUP1 ISZERO PUSH2 0x1598 JUMPI RETURNDATASIZE PUSH1 0x0 DUP1 RETURNDATACOPY RETURNDATASIZE PUSH1 0x0 REVERT JUMPDEST POP POP POP POP PUSH1 0x40 MLOAD RETURNDATASIZE PUSH1 0x1F NOT PUSH1 0x1F DUP3 ADD AND DUP3 ADD DUP1 PUSH1 0x40 MSTORE POP DUP2 ADD SWAP1 PUSH2 0x15BC SWAP2 SWAP1 PUSH2 0x2D97 JUMP JUMPDEST SWAP1 POP DUP1 ISZERO PUSH2 0x16A8 JUMPI PUSH1 0x0 PUSH1 0xA SLOAD TIMESTAMP GT ISZERO PUSH2 0x160E JUMPI DUP3 PUSH1 0x20 ADD MLOAD PUSH8 0xFFFFFFFFFFFFFFFF AND PUSH1 0xA SLOAD GT PUSH2 0x15EE JUMPI PUSH1 0x0 PUSH2 0x1609 JUMP JUMPDEST PUSH1 0x20 DUP4 ADD MLOAD PUSH1 0xA SLOAD PUSH2 0x1609 SWAP2 PUSH8 0xFFFFFFFFFFFFFFFF AND PUSH2 0x2451 JUMP JUMPDEST PUSH2 0x1628 JUMP JUMPDEST PUSH1 0x20 DUP4 ADD MLOAD PUSH2 0x1628 SWAP1 TIMESTAMP SWAP1 PUSH8 0xFFFFFFFFFFFFFFFF AND PUSH2 0x2451 JUMP JUMPDEST SWAP1 POP PUSH1 0x0 PUSH1 0x8 SLOAD PUSH2 0x165C DUP6 PUSH1 0x40 ADD MLOAD PUSH8 0xFFFFFFFFFFFFFFFF AND PUSH2 0x1656 PUSH1 0x9 SLOAD DUP7 PUSH2 0x23C7 SWAP1 SWAP2 SWAP1 PUSH4 0xFFFFFFFF AND JUMP JUMPDEST SWAP1 PUSH2 0x23C7 JUMP JUMPDEST DUP2 PUSH2 0x1663 JUMPI INVALID JUMPDEST DIV SWAP1 POP PUSH2 0x169A PUSH2 0x1689 DUP5 PUSH2 0x167C DUP5 PUSH5 0xE8D4A51000 PUSH2 0x23C7 JUMP JUMPDEST DUP2 PUSH2 0x1683 JUMPI INVALID JUMPDEST DIV PUSH2 0x2810 JUMP JUMPDEST DUP6 MLOAD PUSH1 0x1 PUSH1 0x1 PUSH1 0x80 SHL SUB AND SWAP1 PUSH2 0x2839 JUMP JUMPDEST PUSH1 0x1 PUSH1 0x1 PUSH1 0x80 SHL SUB AND DUP5 MSTORE POP POP JUMPDEST PUSH2 0x16B1 TIMESTAMP PUSH2 0x2868 JUMP JUMPDEST PUSH8 0xFFFFFFFFFFFFFFFF AND PUSH1 0x20 DUP4 ADD MSTORE PUSH1 0x2 DUP1 SLOAD DUP4 SWAP2 SWAP1 DUP6 SWAP1 DUP2 LT PUSH2 0x16D1 JUMPI INVALID JUMPDEST PUSH1 0x0 SWAP2 DUP3 MSTORE PUSH1 0x20 SWAP2 DUP3 SWAP1 KECCAK256 DUP4 MLOAD SWAP2 ADD DUP1 SLOAD DUP5 DUP5 ADD MLOAD PUSH1 0x40 SWAP6 DUP7 ADD MLOAD PUSH16 0xFFFFFFFFFFFFFFFFFFFFFFFFFFFFFFFF NOT SWAP1 SWAP3 AND PUSH1 0x1 PUSH1 0x1 PUSH1 0x80 SHL SUB SWAP1 SWAP5 AND SWAP4 SWAP1 SWAP4 OR PUSH32 0xFFFFFFFFFFFFFFFF0000000000000000FFFFFFFFFFFFFFFFFFFFFFFFFFFFFFFF AND PUSH1 0x1 PUSH1 0x80 SHL PUSH8 0xFFFFFFFFFFFFFFFF SWAP5 DUP6 AND MUL OR PUSH24 0xFFFFFFFFFFFFFFFFFFFFFFFFFFFFFFFFFFFFFFFFFFFFFFFF AND PUSH1 0x1 PUSH1 0xC0 SHL SWAP4 SWAP1 SWAP2 AND SWAP3 SWAP1 SWAP3 MUL SWAP2 SWAP1 SWAP2 OR SWAP1 SSTORE DUP4 ADD MLOAD DUP4 MLOAD SWAP2 MLOAD DUP6 SWAP3 PUSH32 0xB22162DAC390356A083E49A03154A93D123F935F80AAC3763BA0FA470C8FBE5E SWAP3 PUSH2 0x17AA SWAP3 SWAP1 SWAP2 DUP7 SWAP2 PUSH2 0x385A JUMP JUMPDEST PUSH1 0x40 MLOAD DUP1 SWAP2 SUB SWAP1 LOG2 POP JUMPDEST SWAP2 SWAP1 POP JUMP JUMPDEST DUP1 PUSH1 0x0 JUMPDEST DUP2 DUP2 LT ISZERO PUSH2 0x17E9 JUMPI PUSH2 0x17E0 DUP5 DUP5 DUP4 DUP2 DUP2 LT PUSH2 0x17D4 JUMPI INVALID JUMPDEST SWAP1 POP PUSH1 0x20 MUL ADD CALLDATALOAD PUSH2 0x14BB JUMP JUMPDEST POP PUSH1 0x1 ADD PUSH2 0x17BD JUMP JUMPDEST POP POP POP POP JUMP JUMPDEST PUSH1 0x60 PUSH1 0x2 DUP1 SLOAD DUP1 PUSH1 0x20 MUL PUSH1 0x20 ADD PUSH1 0x40 MLOAD SWAP1 DUP2 ADD PUSH1 0x40 MSTORE DUP1 SWAP3 SWAP2 SWAP1 DUP2 DUP2 MSTORE PUSH1 0x20 ADD PUSH1 0x0 SWAP1 JUMPDEST DUP3 DUP3 LT ISZERO PUSH2 0x1871 JUMPI PUSH1 0x0 DUP5 DUP2 MSTORE PUSH1 0x20 SWAP1 DUP2 SWAP1 KECCAK256 PUSH1 0x40 DUP1 MLOAD PUSH1 0x60 DUP2 ADD DUP3 MSTORE SWAP2 DUP6 ADD SLOAD PUSH1 0x1 PUSH1 0x1 PUSH1 0x80 SHL SUB DUP2 AND DUP4 MSTORE PUSH8 0xFFFFFFFFFFFFFFFF PUSH1 0x1 PUSH1 0x80 SHL DUP3 DIV DUP2 AND DUP5 DUP7 ADD MSTORE PUSH1 0x1 PUSH1 0xC0 SHL SWAP1 SWAP2 DIV AND SWAP1 DUP3 ADD MSTORE DUP3 MSTORE PUSH1 0x1 SWAP1 SWAP3 ADD SWAP2 ADD PUSH2 0x1813 JUMP JUMPDEST POP POP POP POP SWAP1 POP SWAP1 JUMP JUMPDEST PUSH2 0x1882 PUSH2 0x26C6 JUMP JUMPDEST PUSH1 0x0 SLOAD PUSH1 0x1 PUSH1 0x1 PUSH1 0xA0 SHL SUB SWAP1 DUP2 AND SWAP2 AND EQ PUSH2 0x18AF JUMPI PUSH1 0x40 MLOAD PUSH3 0x461BCD PUSH1 0xE5 SHL DUP2 MSTORE PUSH1 0x4 ADD PUSH2 0x973 SWAP1 PUSH2 0x34EB JUMP JUMPDEST PUSH1 0x0 DUP1 SLOAD PUSH1 0x40 MLOAD PUSH1 0x1 PUSH1 0x1 PUSH1 0xA0 SHL SUB SWAP1 SWAP2 AND SWAP1 PUSH32 0x8BE0079C531659141344CD1FD0A4F28419497F9722A3DAAFE3B4186F6B6457E0 SWAP1 DUP4 SWAP1 LOG3 PUSH1 0x0 DUP1 SLOAD PUSH20 0xFFFFFFFFFFFFFFFFFFFFFFFFFFFFFFFFFFFFFFFF NOT AND SWAP1 SSTORE JUMP JUMPDEST PUSH1 0x3 DUP2 DUP2 SLOAD DUP2 LT PUSH2 0x1913 JUMPI INVALID JUMPDEST PUSH1 0x0 SWAP2 DUP3 MSTORE PUSH1 0x20 SWAP1 SWAP2 KECCAK256 ADD SLOAD PUSH1 0x1 PUSH1 0x1 PUSH1 0xA0 SHL SUB AND SWAP1 POP DUP2 JUMP JUMPDEST PUSH2 0x1935 PUSH2 0x26C6 JUMP JUMPDEST PUSH1 0x0 SLOAD PUSH1 0x1 PUSH1 0x1 PUSH1 0xA0 SHL SUB SWAP1 DUP2 AND SWAP2 AND EQ PUSH2 0x1962 JUMPI PUSH1 0x40 MLOAD PUSH3 0x461BCD PUSH1 0xE5 SHL DUP2 MSTORE PUSH1 0x4 ADD PUSH2 0x973 SWAP1 PUSH2 0x34EB JUMP JUMPDEST DUP5 DUP4 EQ DUP1 ISZERO PUSH2 0x1970 JUMPI POP DUP3 DUP2 EQ JUMPDEST PUSH2 0x198C JUMPI PUSH1 0x40 MLOAD PUSH3 0x461BCD PUSH1 0xE5 SHL DUP2 MSTORE PUSH1 0x4 ADD PUSH2 0x973 SWAP1 PUSH2 0x3520 JUMP JUMPDEST PUSH2 0x1994 PUSH2 0x1F1C JUMP JUMPDEST DUP5 PUSH1 0x0 JUMPDEST DUP2 DUP2 LT ISZERO PUSH2 0x1A05 JUMPI PUSH2 0x19FD DUP9 DUP9 DUP4 DUP2 DUP2 LT PUSH2 0x19AF JUMPI INVALID JUMPDEST SWAP1 POP PUSH1 0x20 MUL ADD CALLDATALOAD DUP8 DUP8 DUP5 DUP2 DUP2 LT PUSH2 0x19C2 JUMPI INVALID JUMPDEST SWAP1 POP PUSH1 0x20 MUL ADD PUSH1 0x20 DUP2 ADD SWAP1 PUSH2 0x19D7 SWAP2 SWAP1 PUSH2 0x2B7A JUMP JUMPDEST DUP7 DUP7 DUP6 DUP2 DUP2 LT PUSH2 0x19E3 JUMPI INVALID JUMPDEST SWAP1 POP PUSH1 0x20 MUL ADD PUSH1 0x20 DUP2 ADD SWAP1 PUSH2 0x19F8 SWAP2 SWAP1 PUSH2 0x2B7A JUMP JUMPDEST PUSH2 0x2892 JUMP JUMPDEST PUSH1 0x1 ADD PUSH2 0x1998 JUMP JUMPDEST POP POP POP POP POP POP POP POP JUMP JUMPDEST PUSH1 0x6 PUSH1 0x20 MSTORE PUSH1 0x0 SWAP1 DUP2 MSTORE PUSH1 0x40 SWAP1 KECCAK256 SLOAD PUSH1 0xFF AND DUP2 JUMP JUMPDEST PUSH1 0x1 SLOAD PUSH1 0x1 PUSH1 0x1 PUSH1 0xA0 SHL SUB AND DUP2 JUMP JUMPDEST PUSH1 0x0 SLOAD PUSH1 0x1 PUSH1 0x1 PUSH1 0xA0 SHL SUB AND SWAP1 JUMP JUMPDEST PUSH2 0x1A4A PUSH2 0x2B11 JUMP JUMPDEST PUSH2 0x1A53 DUP5 PUSH2 0x14BB JUMP JUMPDEST PUSH1 0x0 DUP6 DUP2 MSTORE PUSH1 0x5 PUSH1 0x20 SWAP1 DUP2 MSTORE PUSH1 0x40 DUP1 DUP4 KECCAK256 PUSH1 0x1 PUSH1 0x1 PUSH1 0xA0 SHL SUB DUP8 AND DUP5 MSTORE SWAP1 SWAP2 MSTORE SWAP1 KECCAK256 DUP1 SLOAD SWAP2 SWAP3 POP SWAP1 PUSH2 0x1A85 SWAP1 DUP6 PUSH2 0x259D JUMP JUMPDEST DUP2 SSTORE DUP2 MLOAD PUSH2 0x1ABC SWAP1 PUSH5 0xE8D4A51000 SWAP1 PUSH2 0x1AA8 SWAP1 DUP8 SWAP1 PUSH1 0x1 PUSH1 0x1 PUSH1 0x80 SHL SUB AND PUSH2 0x23C7 JUMP JUMPDEST DUP2 PUSH2 0x1AAF JUMPI INVALID JUMPDEST PUSH1 0x1 DUP5 ADD SLOAD SWAP2 SWAP1 DIV PUSH2 0x2ACB JUMP JUMPDEST DUP2 PUSH1 0x1 ADD DUP2 SWAP1 SSTORE POP PUSH1 0x0 PUSH1 0x4 DUP7 DUP2 SLOAD DUP2 LT PUSH2 0x1AD3 JUMPI INVALID JUMPDEST PUSH1 0x0 SWAP2 DUP3 MSTORE PUSH1 0x20 SWAP1 SWAP2 KECCAK256 ADD SLOAD PUSH1 0x1 PUSH1 0x1 PUSH1 0xA0 SHL SUB AND SWAP1 POP DUP1 ISZERO PUSH2 0x1B59 JUMPI DUP2 SLOAD PUSH1 0x40 MLOAD PUSH4 0x44AF0FA7 PUSH1 0xE0 SHL DUP2 MSTORE PUSH1 0x1 PUSH1 0x1 PUSH1 0xA0 SHL SUB DUP4 AND SWAP2 PUSH4 0x44AF0FA7 SWAP2 PUSH2 0x1B26 SWAP2 DUP11 SWAP2 DUP10 SWAP2 DUP3 SWAP2 PUSH1 0x0 SWAP2 SWAP1 PUSH1 0x4 ADD PUSH2 0x380D JUMP JUMPDEST PUSH1 0x0 PUSH1 0x40 MLOAD DUP1 DUP4 SUB DUP2 PUSH1 0x0 DUP8 DUP1 EXTCODESIZE ISZERO DUP1 ISZERO PUSH2 0x1B40 JUMPI PUSH1 0x0 DUP1 REVERT JUMPDEST POP GAS CALL ISZERO DUP1 ISZERO PUSH2 0x1B54 JUMPI RETURNDATASIZE PUSH1 0x0 DUP1 RETURNDATACOPY RETURNDATASIZE PUSH1 0x0 REVERT JUMPDEST POP POP POP POP JUMPDEST PUSH2 0x1B89 CALLER ADDRESS DUP8 PUSH1 0x3 DUP11 DUP2 SLOAD DUP2 LT PUSH2 0x1B6C JUMPI INVALID JUMPDEST PUSH1 0x0 SWAP2 DUP3 MSTORE PUSH1 0x20 SWAP1 SWAP2 KECCAK256 ADD SLOAD PUSH1 0x1 PUSH1 0x1 PUSH1 0xA0 SHL SUB AND SWAP3 SWAP2 SWAP1 PUSH2 0x25C0 JUMP JUMPDEST DUP4 PUSH1 0x1 PUSH1 0x1 PUSH1 0xA0 SHL SUB AND DUP7 CALLER PUSH1 0x1 PUSH1 0x1 PUSH1 0xA0 SHL SUB AND PUSH32 0x2D7E648DD130FC184D383E55BB126AC4C9C60E8F94BF05ACDF557BA2D540B47 DUP9 PUSH1 0x40 MLOAD PUSH2 0x750 SWAP2 SWAP1 PUSH2 0x3804 JUMP JUMPDEST PUSH1 0x9 SLOAD DUP2 JUMP JUMPDEST PUSH1 0x0 DUP3 GT PUSH2 0x1BF3 JUMPI PUSH1 0x40 MLOAD PUSH3 0x461BCD PUSH1 0xE5 SHL DUP2 MSTORE PUSH1 0x4 ADD PUSH2 0x973 SWAP1 PUSH2 0x3218 JUMP JUMPDEST PUSH1 0x9 SLOAD PUSH1 0x0 SWAP1 PUSH2 0x1C03 SWAP1 DUP5 PUSH2 0x23C7 JUMP JUMPDEST SWAP1 POP DUP2 DUP2 GT ISZERO PUSH2 0x1C25 JUMPI PUSH1 0x40 MLOAD PUSH3 0x461BCD PUSH1 0xE5 SHL DUP2 MSTORE PUSH1 0x4 ADD PUSH2 0x973 SWAP1 PUSH2 0x332F JUMP JUMPDEST PUSH1 0xA SLOAD PUSH2 0x1C32 SWAP1 DUP5 PUSH2 0x259D JUMP JUMPDEST PUSH1 0xA SSTORE PUSH2 0x9F1 PUSH1 0x1 PUSH1 0x1 PUSH1 0xA0 SHL SUB PUSH32 0x0 AND CALLER ADDRESS DUP5 PUSH2 0x25C0 JUMP JUMPDEST PUSH1 0x5 PUSH1 0x20 SWAP1 DUP2 MSTORE PUSH1 0x0 SWAP3 DUP4 MSTORE PUSH1 0x40 DUP1 DUP5 KECCAK256 SWAP1 SWAP2 MSTORE SWAP1 DUP3 MSTORE SWAP1 KECCAK256 DUP1 SLOAD PUSH1 0x1 SWAP1 SWAP2 ADD SLOAD DUP3 JUMP JUMPDEST PUSH1 0x0 PUSH2 0x1C98 PUSH2 0x2B11 JUMP JUMPDEST PUSH1 0x2 DUP5 DUP2 SLOAD DUP2 LT PUSH2 0x1CA5 JUMPI INVALID JUMPDEST PUSH1 0x0 SWAP2 DUP3 MSTORE PUSH1 0x20 DUP1 DUP4 KECCAK256 PUSH1 0x40 DUP1 MLOAD PUSH1 0x60 DUP2 ADD DUP3 MSTORE SWAP2 SWAP1 SWAP4 ADD SLOAD PUSH1 0x1 PUSH1 0x1 PUSH1 0x80 SHL SUB DUP1 DUP3 AND DUP4 MSTORE PUSH8 0xFFFFFFFFFFFFFFFF PUSH1 0x1 PUSH1 0x80 SHL DUP4 DIV DUP2 AND DUP5 DUP7 ADD MSTORE PUSH1 0x1 PUSH1 0xC0 SHL SWAP1 SWAP3 DIV SWAP1 SWAP2 AND DUP3 DUP6 ADD MSTORE DUP9 DUP6 MSTORE PUSH1 0x5 DUP4 MSTORE DUP4 DUP6 KECCAK256 PUSH1 0x1 PUSH1 0x1 PUSH1 0xA0 SHL SUB DUP10 AND DUP7 MSTORE SWAP1 SWAP3 MSTORE SWAP2 DUP4 KECCAK256 DUP3 MLOAD PUSH1 0x3 DUP1 SLOAD SWAP5 SWAP7 POP SWAP2 SWAP5 SWAP3 AND SWAP3 DUP9 SWAP1 DUP2 LT PUSH2 0x1D24 JUMPI INVALID JUMPDEST PUSH1 0x0 SWAP2 DUP3 MSTORE PUSH1 0x20 SWAP1 SWAP2 KECCAK256 ADD SLOAD PUSH1 0x40 MLOAD PUSH4 0x70A08231 PUSH1 0xE0 SHL DUP2 MSTORE PUSH1 0x1 PUSH1 0x1 PUSH1 0xA0 SHL SUB SWAP1 SWAP2 AND SWAP1 PUSH4 0x70A08231 SWAP1 PUSH2 0x1D5D SWAP1 ADDRESS SWAP1 PUSH1 0x4 ADD PUSH2 0x2F8D JUMP JUMPDEST PUSH1 0x20 PUSH1 0x40 MLOAD DUP1 DUP4 SUB DUP2 DUP7 DUP1 EXTCODESIZE ISZERO DUP1 ISZERO PUSH2 0x1D75 JUMPI PUSH1 0x0 DUP1 REVERT JUMPDEST POP GAS STATICCALL ISZERO DUP1 ISZERO PUSH2 0x1D89 JUMPI RETURNDATASIZE PUSH1 0x0 DUP1 RETURNDATACOPY RETURNDATASIZE PUSH1 0x0 REVERT JUMPDEST POP POP POP POP PUSH1 0x40 MLOAD RETURNDATASIZE PUSH1 0x1F NOT PUSH1 0x1F DUP3 ADD AND DUP3 ADD DUP1 PUSH1 0x40 MSTORE POP DUP2 ADD SWAP1 PUSH2 0x1DAD SWAP2 SWAP1 PUSH2 0x2D97 JUMP JUMPDEST SWAP1 POP DUP4 PUSH1 0x20 ADD MLOAD PUSH8 0xFFFFFFFFFFFFFFFF AND TIMESTAMP GT DUP1 ISZERO PUSH2 0x1DCB JUMPI POP DUP1 ISZERO ISZERO JUMPDEST ISZERO PUSH2 0x1E94 JUMPI PUSH1 0x0 PUSH1 0xA SLOAD TIMESTAMP GT ISZERO PUSH2 0x1E1A JUMPI DUP5 PUSH1 0x20 ADD MLOAD PUSH8 0xFFFFFFFFFFFFFFFF AND PUSH1 0xA SLOAD GT PUSH2 0x1DFA JUMPI PUSH1 0x0 PUSH2 0x1E15 JUMP JUMPDEST PUSH1 0x20 DUP6 ADD MLOAD PUSH1 0xA SLOAD PUSH2 0x1E15 SWAP2 PUSH8 0xFFFFFFFFFFFFFFFF AND PUSH2 0x2451 JUMP JUMPDEST PUSH2 0x1E34 JUMP JUMPDEST PUSH1 0x20 DUP6 ADD MLOAD PUSH2 0x1E34 SWAP1 TIMESTAMP SWAP1 PUSH8 0xFFFFFFFFFFFFFFFF AND PUSH2 0x2451 JUMP JUMPDEST SWAP1 POP PUSH1 0x0 PUSH1 0x8 SLOAD PUSH2 0x1E62 DUP8 PUSH1 0x40 ADD MLOAD PUSH8 0xFFFFFFFFFFFFFFFF AND PUSH2 0x1656 PUSH1 0x9 SLOAD DUP7 PUSH2 0x23C7 SWAP1 SWAP2 SWAP1 PUSH4 0xFFFFFFFF AND JUMP JUMPDEST DUP2 PUSH2 0x1E69 JUMPI INVALID JUMPDEST DIV SWAP1 POP PUSH2 0x1E8F DUP4 PUSH2 0x1E7F DUP4 PUSH5 0xE8D4A51000 PUSH2 0x23C7 JUMP JUMPDEST DUP2 PUSH2 0x1E86 JUMPI INVALID JUMPDEST DUP7 SWAP2 SWAP1 DIV PUSH2 0x259D JUMP JUMPDEST SWAP4 POP POP POP JUMPDEST PUSH1 0x1 DUP4 ADD SLOAD DUP4 SLOAD PUSH2 0x1EC2 SWAP2 PUSH2 0x82C SWAP2 PUSH5 0xE8D4A51000 SWAP1 PUSH2 0x1EB4 SWAP1 DUP8 PUSH2 0x23C7 JUMP JUMPDEST DUP2 PUSH2 0x1EBB JUMPI INVALID JUMPDEST DIV SWAP1 PUSH2 0x2404 JUMP JUMPDEST SWAP8 SWAP7 POP POP POP POP POP POP POP JUMP JUMPDEST PUSH2 0x1ED5 PUSH2 0x26C6 JUMP JUMPDEST PUSH1 0x0 SLOAD PUSH1 0x1 PUSH1 0x1 PUSH1 0xA0 SHL SUB SWAP1 DUP2 AND SWAP2 AND EQ PUSH2 0x1F02 JUMPI PUSH1 0x40 MLOAD PUSH3 0x461BCD PUSH1 0xE5 SHL DUP2 MSTORE PUSH1 0x4 ADD PUSH2 0x973 SWAP1 PUSH2 0x34EB JUMP JUMPDEST PUSH2 0x1F0A PUSH2 0x1F1C JUMP JUMPDEST PUSH2 0x17E9 DUP5 DUP5 DUP5 DUP5 PUSH2 0x26CA JUMP JUMPDEST PUSH1 0xA SLOAD DUP2 JUMP JUMPDEST PUSH1 0x2 SLOAD PUSH1 0x0 JUMPDEST DUP2 DUP2 LT ISZERO PUSH2 0x1F3C JUMPI PUSH2 0x1F33 DUP2 PUSH2 0x14BB JUMP JUMPDEST POP PUSH1 0x1 ADD PUSH2 0x1F22 JUMP JUMPDEST POP POP JUMP JUMPDEST PUSH1 0x4 DUP2 DUP2 SLOAD DUP2 LT PUSH2 0x1913 JUMPI INVALID JUMPDEST PUSH32 0x0 DUP2 JUMP JUMPDEST PUSH2 0x1F79 PUSH2 0x2B11 JUMP JUMPDEST PUSH2 0x1F82 DUP5 PUSH2 0x14BB JUMP JUMPDEST PUSH1 0x0 DUP6 DUP2 MSTORE PUSH1 0x5 PUSH1 0x20 SWAP1 DUP2 MSTORE PUSH1 0x40 DUP1 DUP4 KECCAK256 CALLER DUP5 MSTORE SWAP1 SWAP2 MSTORE DUP2 KECCAK256 DUP3 MLOAD DUP2 SLOAD SWAP4 SWAP5 POP SWAP1 SWAP3 PUSH5 0xE8D4A51000 SWAP2 PUSH2 0x1FBE SWAP2 SWAP1 PUSH1 0x1 PUSH1 0x1 PUSH1 0x80 SHL SUB AND PUSH2 0x23C7 JUMP JUMPDEST DUP2 PUSH2 0x1FC5 JUMPI INVALID JUMPDEST DIV SWAP1 POP PUSH1 0x0 PUSH2 0x1FE4 PUSH2 0x82C DUP5 PUSH1 0x1 ADD SLOAD DUP5 PUSH2 0x2404 SWAP1 SWAP2 SWAP1 PUSH4 0xFFFFFFFF AND JUMP JUMPDEST SWAP1 POP PUSH2 0x201F PUSH5 0xE8D4A51000 PUSH2 0x200F DUP7 PUSH1 0x0 ADD MLOAD PUSH1 0x1 PUSH1 0x1 PUSH1 0x80 SHL SUB AND DUP10 PUSH2 0x23C7 SWAP1 SWAP2 SWAP1 PUSH4 0xFFFFFFFF AND JUMP JUMPDEST DUP2 PUSH2 0x2016 JUMPI INVALID JUMPDEST DUP5 SWAP2 SWAP1 DIV PUSH2 0x2404 JUMP JUMPDEST PUSH1 0x1 DUP5 ADD SSTORE DUP3 SLOAD PUSH2 0x2030 SWAP1 DUP8 PUSH2 0x2451 JUMP JUMPDEST DUP4 SSTORE PUSH2 0x2066 PUSH1 0x1 PUSH1 0x1 PUSH1 0xA0 SHL SUB PUSH32 0x0 AND DUP7 DUP4 PUSH2 0x2474 JUMP JUMPDEST PUSH1 0x0 PUSH1 0x4 DUP9 DUP2 SLOAD DUP2 LT PUSH2 0x2075 JUMPI INVALID JUMPDEST PUSH1 0x0 SWAP2 DUP3 MSTORE PUSH1 0x20 SWAP1 SWAP2 KECCAK256 ADD SLOAD PUSH1 0x1 PUSH1 0x1 PUSH1 0xA0 SHL SUB AND SWAP1 POP DUP1 ISZERO PUSH2 0x20FA JUMPI DUP4 SLOAD PUSH1 0x40 MLOAD PUSH4 0x44AF0FA7 PUSH1 0xE0 SHL DUP2 MSTORE PUSH1 0x1 PUSH1 0x1 PUSH1 0xA0 SHL SUB DUP4 AND SWAP2 PUSH4 0x44AF0FA7 SWAP2 PUSH2 0x20C7 SWAP2 DUP13 SWAP2 CALLER SWAP2 DUP13 SWAP2 DUP10 SWAP2 SWAP1 PUSH1 0x4 ADD PUSH2 0x380D JUMP JUMPDEST PUSH1 0x0 PUSH1 0x40 MLOAD DUP1 DUP4 SUB DUP2 PUSH1 0x0 DUP8 DUP1 EXTCODESIZE ISZERO DUP1 ISZERO PUSH2 0x20E1 JUMPI PUSH1 0x0 DUP1 REVERT JUMPDEST POP GAS CALL ISZERO DUP1 ISZERO PUSH2 0x20F5 JUMPI RETURNDATASIZE PUSH1 0x0 DUP1 RETURNDATACOPY RETURNDATASIZE PUSH1 0x0 REVERT JUMPDEST POP POP POP POP JUMPDEST PUSH2 0x210C DUP7 DUP9 PUSH1 0x3 DUP12 DUP2 SLOAD DUP2 LT PUSH2 0x6F0 JUMPI INVALID JUMPDEST DUP6 PUSH1 0x1 PUSH1 0x1 PUSH1 0xA0 SHL SUB AND DUP9 CALLER PUSH1 0x1 PUSH1 0x1 PUSH1 0xA0 SHL SUB AND PUSH32 0x8166BF25F8A2B7ED3C85049207DA4358D16EDBED977D23FA2EE6F0DDE3EC2132 DUP11 PUSH1 0x40 MLOAD PUSH2 0x2150 SWAP2 SWAP1 PUSH2 0x3804 JUMP JUMPDEST PUSH1 0x40 MLOAD DUP1 SWAP2 SUB SWAP1 LOG4 DUP8 CALLER PUSH1 0x1 PUSH1 0x1 PUSH1 0xA0 SHL SUB AND PUSH32 0x71BAB65CED2E5750775A0613BE067DF48EF06CF92A496EBF7663AE0660924954 DUP5 PUSH1 0x40 MLOAD PUSH2 0x2192 SWAP2 SWAP1 PUSH2 0x3804 JUMP JUMPDEST PUSH1 0x40 MLOAD DUP1 SWAP2 SUB SWAP1 LOG3 POP POP POP POP POP POP POP POP JUMP JUMPDEST PUSH2 0x21AC PUSH2 0x26C6 JUMP JUMPDEST PUSH1 0x0 SLOAD PUSH1 0x1 PUSH1 0x1 PUSH1 0xA0 SHL SUB SWAP1 DUP2 AND SWAP2 AND EQ PUSH2 0x21D9 JUMPI PUSH1 0x40 MLOAD PUSH3 0x461BCD PUSH1 0xE5 SHL DUP2 MSTORE PUSH1 0x4 ADD PUSH2 0x973 SWAP1 PUSH2 0x34EB JUMP JUMPDEST PUSH1 0x1 PUSH1 0x1 PUSH1 0xA0 SHL SUB DUP2 AND PUSH1 0x0 SWAP1 DUP2 MSTORE PUSH1 0x7 PUSH1 0x20 MSTORE PUSH1 0x40 SWAP1 DUP2 SWAP1 KECCAK256 DUP1 SLOAD PUSH1 0xFF NOT AND SWAP1 SSTORE MLOAD PUSH32 0x423B2DA7EEBE1997AF6D3D8F0C00FD04DE1D323A87CD69152DAD613731EB2325 SWAP1 PUSH2 0xAB7 SWAP1 DUP4 SWAP1 PUSH2 0x2F8D JUMP JUMPDEST PUSH2 0x2231 PUSH2 0x26C6 JUMP JUMPDEST PUSH1 0x0 SLOAD PUSH1 0x1 PUSH1 0x1 PUSH1 0xA0 SHL SUB SWAP1 DUP2 AND SWAP2 AND EQ PUSH2 0x225E JUMPI PUSH1 0x40 MLOAD PUSH3 0x461BCD PUSH1 0xE5 SHL DUP2 MSTORE PUSH1 0x4 ADD PUSH2 0x973 SWAP1 PUSH2 0x34EB JUMP JUMPDEST PUSH1 0x1 PUSH1 0x1 PUSH1 0xA0 SHL SUB DUP2 AND PUSH2 0x2284 JUMPI PUSH1 0x40 MLOAD PUSH3 0x461BCD PUSH1 0xE5 SHL DUP2 MSTORE PUSH1 0x4 ADD PUSH2 0x973 SWAP1 PUSH2 0x3275 JUMP JUMPDEST PUSH1 0x0 DUP1 SLOAD PUSH1 0x40 MLOAD PUSH1 0x1 PUSH1 0x1 PUSH1 0xA0 SHL SUB DUP1 DUP6 AND SWAP4 SWAP3 AND SWAP2 PUSH32 0x8BE0079C531659141344CD1FD0A4F28419497F9722A3DAAFE3B4186F6B6457E0 SWAP2 LOG3 PUSH1 0x0 DUP1 SLOAD PUSH20 0xFFFFFFFFFFFFFFFFFFFFFFFFFFFFFFFFFFFFFFFF NOT AND PUSH1 0x1 PUSH1 0x1 PUSH1 0xA0 SHL SUB SWAP3 SWAP1 SWAP3 AND SWAP2 SWAP1 SWAP2 OR SWAP1 SSTORE JUMP JUMPDEST PUSH2 0x22F4 PUSH2 0x26C6 JUMP JUMPDEST PUSH1 0x0 SLOAD PUSH1 0x1 PUSH1 0x1 PUSH1 0xA0 SHL SUB SWAP1 DUP2 AND SWAP2 AND EQ PUSH2 0x2321 JUMPI PUSH1 0x40 MLOAD PUSH3 0x461BCD PUSH1 0xE5 SHL DUP2 MSTORE PUSH1 0x4 ADD PUSH2 0x973 SWAP1 PUSH2 0x34EB JUMP JUMPDEST PUSH2 0x2329 PUSH2 0x1F1C JUMP JUMPDEST PUSH2 0x2334 DUP4 DUP4 DUP4 PUSH2 0x2892 JUMP JUMPDEST POP POP POP JUMP JUMPDEST PUSH2 0x2341 PUSH2 0x26C6 JUMP JUMPDEST PUSH1 0x0 SLOAD PUSH1 0x1 PUSH1 0x1 PUSH1 0xA0 SHL SUB SWAP1 DUP2 AND SWAP2 AND EQ PUSH2 0x236E JUMPI PUSH1 0x40 MLOAD PUSH3 0x461BCD PUSH1 0xE5 SHL DUP2 MSTORE PUSH1 0x4 ADD PUSH2 0x973 SWAP1 PUSH2 0x34EB JUMP JUMPDEST PUSH1 0x1 DUP1 SLOAD PUSH32 0xFFFFFFFFFFFFFFFFFFFFFF00FFFFFFFFFFFFFFFFFFFFFFFFFFFFFFFFFFFFFFFF AND PUSH1 0x1 PUSH1 0xA0 SHL OR SWAP1 SSTORE PUSH1 0x40 MLOAD PUSH32 0xF460FD6AFBBD82E0C22F24030B32F63BEFE14935B39A79BB3520220B21A0ED94 SWAP1 PUSH1 0x0 SWAP1 LOG1 JUMP JUMPDEST PUSH1 0x0 DUP2 ISZERO DUP1 PUSH2 0x23E2 JUMPI POP POP DUP1 DUP3 MUL DUP3 DUP3 DUP3 DUP2 PUSH2 0x23DF JUMPI INVALID JUMPDEST DIV EQ JUMPDEST PUSH2 0x23FE JUMPI PUSH1 0x40 MLOAD PUSH3 0x461BCD PUSH1 0xE5 SHL DUP2 MSTORE PUSH1 0x4 ADD PUSH2 0x973 SWAP1 PUSH2 0x3737 JUMP JUMPDEST SWAP3 SWAP2 POP POP JUMP JUMPDEST PUSH1 0x0 DUP2 DUP4 SUB DUP2 DUP4 SLT DUP1 ISZERO SWAP1 PUSH2 0x2419 JUMPI POP DUP4 DUP2 SGT ISZERO JUMPDEST DUP1 PUSH2 0x242E JUMPI POP PUSH1 0x0 DUP4 SLT DUP1 ISZERO PUSH2 0x242E JUMPI POP DUP4 DUP2 SGT JUMPDEST PUSH2 0x244A JUMPI PUSH1 0x40 MLOAD PUSH3 0x461BCD PUSH1 0xE5 SHL DUP2 MSTORE PUSH1 0x4 ADD PUSH2 0x973 SWAP1 PUSH2 0x3648 JUMP JUMPDEST SWAP4 SWAP3 POP POP POP JUMP JUMPDEST DUP1 DUP3 SUB DUP3 DUP2 GT ISZERO PUSH2 0x23FE JUMPI PUSH1 0x40 MLOAD PUSH3 0x461BCD PUSH1 0xE5 SHL DUP2 MSTORE PUSH1 0x4 ADD PUSH2 0x973 SWAP1 PUSH2 0x30B9 JUMP JUMPDEST PUSH1 0x0 PUSH1 0x60 DUP5 PUSH1 0x1 PUSH1 0x1 PUSH1 0xA0 SHL SUB AND PUSH4 0xA9059CBB DUP6 DUP6 PUSH1 0x40 MLOAD PUSH1 0x24 ADD PUSH2 0x249A SWAP3 SWAP2 SWAP1 PUSH2 0x3006 JUMP JUMPDEST PUSH1 0x40 MLOAD PUSH1 0x20 DUP2 DUP4 SUB SUB DUP2 MSTORE SWAP1 PUSH1 0x40 MSTORE SWAP1 PUSH1 0xE0 SHL PUSH1 0x20 DUP3 ADD DUP1 MLOAD PUSH28 0xFFFFFFFFFFFFFFFFFFFFFFFFFFFFFFFFFFFFFFFFFFFFFFFFFFFFFFFF DUP4 DUP2 DUP4 AND OR DUP4 MSTORE POP POP POP POP PUSH1 0x40 MLOAD PUSH2 0x24E8 SWAP2 SWAP1 PUSH2 0x2F54 JUMP JUMPDEST PUSH1 0x0 PUSH1 0x40 MLOAD DUP1 DUP4 SUB DUP2 PUSH1 0x0 DUP7 GAS CALL SWAP2 POP POP RETURNDATASIZE DUP1 PUSH1 0x0 DUP2 EQ PUSH2 0x2525 JUMPI PUSH1 0x40 MLOAD SWAP2 POP PUSH1 0x1F NOT PUSH1 0x3F RETURNDATASIZE ADD AND DUP3 ADD PUSH1 0x40 MSTORE RETURNDATASIZE DUP3 MSTORE RETURNDATASIZE PUSH1 0x0 PUSH1 0x20 DUP5 ADD RETURNDATACOPY PUSH2 0x252A JUMP JUMPDEST PUSH1 0x60 SWAP2 POP JUMPDEST POP SWAP2 POP SWAP2 POP DUP2 DUP1 ISZERO PUSH2 0x2554 JUMPI POP DUP1 MLOAD ISZERO DUP1 PUSH2 0x2554 JUMPI POP DUP1 DUP1 PUSH1 0x20 ADD SWAP1 MLOAD DUP2 ADD SWAP1 PUSH2 0x2554 SWAP2 SWAP1 PUSH2 0x2D47 JUMP JUMPDEST PUSH2 0x2570 JUMPI PUSH1 0x40 MLOAD PUSH3 0x461BCD PUSH1 0xE5 SHL DUP2 MSTORE PUSH1 0x4 ADD PUSH2 0x973 SWAP1 PUSH2 0x31E1 JUMP JUMPDEST POP POP POP POP POP JUMP JUMPDEST PUSH1 0x0 DUP1 DUP3 SLT ISZERO PUSH2 0x2599 JUMPI PUSH1 0x40 MLOAD PUSH3 0x461BCD PUSH1 0xE5 SHL DUP2 MSTORE PUSH1 0x4 ADD PUSH2 0x973 SWAP1 PUSH2 0x30F0 JUMP JUMPDEST POP SWAP1 JUMP JUMPDEST DUP2 DUP2 ADD DUP2 DUP2 LT ISZERO PUSH2 0x23FE JUMPI PUSH1 0x40 MLOAD PUSH3 0x461BCD PUSH1 0xE5 SHL DUP2 MSTORE PUSH1 0x4 ADD PUSH2 0x973 SWAP1 PUSH2 0x34B4 JUMP JUMPDEST PUSH1 0x0 PUSH1 0x60 DUP6 PUSH1 0x1 PUSH1 0x1 PUSH1 0xA0 SHL SUB AND PUSH4 0x23B872DD DUP7 DUP7 DUP7 PUSH1 0x40 MLOAD PUSH1 0x24 ADD PUSH2 0x25E8 SWAP4 SWAP3 SWAP2 SWAP1 PUSH2 0x2FE2 JUMP JUMPDEST PUSH1 0x40 MLOAD PUSH1 0x20 DUP2 DUP4 SUB SUB DUP2 MSTORE SWAP1 PUSH1 0x40 MSTORE SWAP1 PUSH1 0xE0 SHL PUSH1 0x20 DUP3 ADD DUP1 MLOAD PUSH28 0xFFFFFFFFFFFFFFFFFFFFFFFFFFFFFFFFFFFFFFFFFFFFFFFFFFFFFFFF DUP4 DUP2 DUP4 AND OR DUP4 MSTORE POP POP POP POP PUSH1 0x40 MLOAD PUSH2 0x2636 SWAP2 SWAP1 PUSH2 0x2F54 JUMP JUMPDEST PUSH1 0x0 PUSH1 0x40 MLOAD DUP1 DUP4 SUB DUP2 PUSH1 0x0 DUP7 GAS CALL SWAP2 POP POP RETURNDATASIZE DUP1 PUSH1 0x0 DUP2 EQ PUSH2 0x2673 JUMPI PUSH1 0x40 MLOAD SWAP2 POP PUSH1 0x1F NOT PUSH1 0x3F RETURNDATASIZE ADD AND DUP3 ADD PUSH1 0x40 MSTORE RETURNDATASIZE DUP3 MSTORE RETURNDATASIZE PUSH1 0x0 PUSH1 0x20 DUP5 ADD RETURNDATACOPY PUSH2 0x2678 JUMP JUMPDEST PUSH1 0x60 SWAP2 POP JUMPDEST POP SWAP2 POP SWAP2 POP DUP2 DUP1 ISZERO PUSH2 0x26A2 JUMPI POP DUP1 MLOAD ISZERO DUP1 PUSH2 0x26A2 JUMPI POP DUP1 DUP1 PUSH1 0x20 ADD SWAP1 MLOAD DUP2 ADD SWAP1 PUSH2 0x26A2 SWAP2 SWAP1 PUSH2 0x2D47 JUMP JUMPDEST PUSH2 0x26BE JUMPI PUSH1 0x40 MLOAD PUSH3 0x461BCD PUSH1 0xE5 SHL DUP2 MSTORE PUSH1 0x4 ADD PUSH2 0x973 SWAP1 PUSH2 0x36A5 JUMP JUMPDEST POP POP POP POP POP POP JUMP JUMPDEST CALLER SWAP1 JUMP JUMPDEST PUSH2 0x270A DUP4 PUSH2 0x2704 PUSH1 0x2 DUP8 DUP2 SLOAD DUP2 LT PUSH2 0x26DE JUMPI INVALID JUMPDEST PUSH1 0x0 SWAP2 DUP3 MSTORE PUSH1 0x20 SWAP1 SWAP2 KECCAK256 ADD SLOAD PUSH1 0x8 SLOAD SWAP1 PUSH1 0x1 PUSH1 0xC0 SHL SWAP1 DIV PUSH8 0xFFFFFFFFFFFFFFFF AND PUSH2 0x2451 JUMP JUMPDEST SWAP1 PUSH2 0x259D JUMP JUMPDEST PUSH1 0x8 SSTORE PUSH2 0x2716 DUP4 PUSH2 0x2868 JUMP JUMPDEST PUSH1 0x2 DUP6 DUP2 SLOAD DUP2 LT PUSH2 0x2723 JUMPI INVALID JUMPDEST SWAP1 PUSH1 0x0 MSTORE PUSH1 0x20 PUSH1 0x0 KECCAK256 ADD PUSH1 0x0 ADD PUSH1 0x18 PUSH2 0x100 EXP DUP2 SLOAD DUP2 PUSH8 0xFFFFFFFFFFFFFFFF MUL NOT AND SWAP1 DUP4 PUSH8 0xFFFFFFFFFFFFFFFF AND MUL OR SWAP1 SSTORE POP DUP1 ISZERO PUSH2 0x2799 JUMPI DUP2 PUSH1 0x4 DUP6 DUP2 SLOAD DUP2 LT PUSH2 0x276A JUMPI INVALID JUMPDEST SWAP1 PUSH1 0x0 MSTORE PUSH1 0x20 PUSH1 0x0 KECCAK256 ADD PUSH1 0x0 PUSH2 0x100 EXP DUP2 SLOAD DUP2 PUSH1 0x1 PUSH1 0x1 PUSH1 0xA0 SHL SUB MUL NOT AND SWAP1 DUP4 PUSH1 0x1 PUSH1 0x1 PUSH1 0xA0 SHL SUB AND MUL OR SWAP1 SSTORE POP JUMPDEST DUP1 PUSH2 0x27C5 JUMPI PUSH1 0x4 DUP5 DUP2 SLOAD DUP2 LT PUSH2 0x27AB JUMPI INVALID JUMPDEST PUSH1 0x0 SWAP2 DUP3 MSTORE PUSH1 0x20 SWAP1 SWAP2 KECCAK256 ADD SLOAD PUSH1 0x1 PUSH1 0x1 PUSH1 0xA0 SHL SUB AND PUSH2 0x27C7 JUMP JUMPDEST DUP2 JUMPDEST PUSH1 0x1 PUSH1 0x1 PUSH1 0xA0 SHL SUB AND DUP5 PUSH32 0x5766994790E89C27D9799092C4A6B179974A5B61A62663156D03D799CC8C01B8 DUP6 DUP5 PUSH1 0x40 MLOAD PUSH2 0x2802 SWAP3 SWAP2 SWAP1 PUSH2 0x383C JUMP JUMPDEST PUSH1 0x40 MLOAD DUP1 SWAP2 SUB SWAP1 LOG3 POP POP POP POP JUMP JUMPDEST PUSH1 0x0 PUSH1 0x1 PUSH1 0x1 PUSH1 0x80 SHL SUB DUP3 GT ISZERO PUSH2 0x2599 JUMPI PUSH1 0x40 MLOAD PUSH3 0x461BCD PUSH1 0xE5 SHL DUP2 MSTORE PUSH1 0x4 ADD PUSH2 0x973 SWAP1 PUSH2 0x347D JUMP JUMPDEST DUP2 DUP2 ADD PUSH1 0x1 PUSH1 0x1 PUSH1 0x80 SHL SUB DUP1 DUP4 AND SWAP1 DUP3 AND LT ISZERO PUSH2 0x23FE JUMPI PUSH1 0x40 MLOAD PUSH3 0x461BCD PUSH1 0xE5 SHL DUP2 MSTORE PUSH1 0x4 ADD PUSH2 0x973 SWAP1 PUSH2 0x34B4 JUMP JUMPDEST PUSH1 0x0 PUSH8 0xFFFFFFFFFFFFFFFF DUP3 GT ISZERO PUSH2 0x2599 JUMPI PUSH1 0x40 MLOAD PUSH3 0x461BCD PUSH1 0xE5 SHL DUP2 MSTORE PUSH1 0x4 ADD PUSH2 0x973 SWAP1 PUSH2 0x35B4 JUMP JUMPDEST PUSH1 0x1 PUSH1 0x1 PUSH1 0xA0 SHL SUB DUP3 AND PUSH1 0x0 SWAP1 DUP2 MSTORE PUSH1 0x6 PUSH1 0x20 MSTORE PUSH1 0x40 SWAP1 KECCAK256 SLOAD PUSH1 0xFF AND ISZERO PUSH2 0x28CB JUMPI PUSH1 0x40 MLOAD PUSH3 0x461BCD PUSH1 0xE5 SHL DUP2 MSTORE PUSH1 0x4 ADD PUSH2 0x973 SWAP1 PUSH2 0x357D JUMP JUMPDEST PUSH1 0x8 SLOAD PUSH2 0x28D8 SWAP1 DUP5 PUSH2 0x259D JUMP JUMPDEST PUSH1 0x8 SSTORE PUSH1 0x3 DUP1 SLOAD PUSH1 0x1 DUP2 DUP2 ADD SWAP1 SWAP3 SSTORE PUSH32 0xC2575A0E9E593C00F959F8C92F12DB2869C3395A3B0502D05E2516446F71F85B ADD DUP1 SLOAD PUSH1 0x1 PUSH1 0x1 PUSH1 0xA0 SHL SUB DUP1 DUP7 AND PUSH20 0xFFFFFFFFFFFFFFFFFFFFFFFFFFFFFFFFFFFFFFFF NOT SWAP3 DUP4 AND OR SWAP1 SWAP3 SSTORE PUSH1 0x4 DUP1 SLOAD SWAP4 DUP5 ADD DUP2 SSTORE PUSH1 0x0 SWAP1 DUP2 MSTORE PUSH32 0x8A35ACFBC15FF81A39AE7D344FD709F28E8600B4AA8C65C6B64BFE7FE36BD19B SWAP1 SWAP4 ADD DUP1 SLOAD SWAP3 DUP6 AND SWAP3 SWAP1 SWAP2 AND SWAP2 SWAP1 SWAP2 OR SWAP1 SSTORE PUSH1 0x40 DUP1 MLOAD PUSH1 0x60 DUP2 ADD SWAP1 SWAP2 MSTORE SWAP1 DUP2 MSTORE PUSH1 0x2 SWAP1 PUSH1 0x20 DUP2 ADD PUSH2 0x2992 TIMESTAMP PUSH2 0x2868 JUMP JUMPDEST PUSH8 0xFFFFFFFFFFFFFFFF AND DUP2 MSTORE PUSH1 0x20 ADD PUSH2 0x29AA DUP7 PUSH2 0x2868 JUMP JUMPDEST PUSH8 0xFFFFFFFFFFFFFFFF SWAP1 DUP2 AND SWAP1 SWAP2 MSTORE DUP3 SLOAD PUSH1 0x1 DUP2 DUP2 ADD DUP6 SSTORE PUSH1 0x0 SWAP5 DUP6 MSTORE PUSH1 0x20 DUP1 DUP7 KECCAK256 DUP6 MLOAD SWAP4 ADD DUP1 SLOAD DUP3 DUP8 ADD MLOAD PUSH1 0x40 SWAP8 DUP9 ADD MLOAD DUP8 AND PUSH1 0x1 PUSH1 0xC0 SHL MUL PUSH24 0xFFFFFFFFFFFFFFFFFFFFFFFFFFFFFFFFFFFFFFFFFFFFFFFF SWAP2 SWAP1 SWAP8 AND PUSH1 0x1 PUSH1 0x80 SHL MUL PUSH32 0xFFFFFFFFFFFFFFFF0000000000000000FFFFFFFFFFFFFFFFFFFFFFFFFFFFFFFF PUSH1 0x1 PUSH1 0x1 PUSH1 0x80 SHL SUB SWAP1 SWAP8 AND PUSH16 0xFFFFFFFFFFFFFFFFFFFFFFFFFFFFFFFF NOT SWAP1 SWAP4 AND SWAP3 SWAP1 SWAP3 OR SWAP6 SWAP1 SWAP6 AND OR SWAP4 SWAP1 SWAP4 AND SWAP4 SWAP1 SWAP4 OR SWAP1 SWAP2 SSTORE PUSH1 0x1 PUSH1 0x1 PUSH1 0xA0 SHL SUB DUP1 DUP8 AND DUP1 DUP7 MSTORE PUSH1 0x6 SWAP1 SWAP4 MSTORE SWAP3 SWAP1 SWAP4 KECCAK256 DUP1 SLOAD PUSH1 0xFF NOT AND DUP5 OR SWAP1 SSTORE PUSH1 0x3 SLOAD SWAP2 DUP5 AND SWAP3 SWAP1 SWAP2 PUSH2 0x2A8F SWAP2 PUSH2 0x2451 JUMP JUMPDEST PUSH32 0xE72DFF05C5A9817B99753FFFDEC6B7800CC743C2F4B1FBC3EEB93983712A2A46 DUP7 PUSH1 0x40 MLOAD PUSH2 0x2ABE SWAP2 SWAP1 PUSH2 0x3804 JUMP JUMPDEST PUSH1 0x40 MLOAD DUP1 SWAP2 SUB SWAP1 LOG4 POP POP POP JUMP JUMPDEST PUSH1 0x0 DUP3 DUP3 ADD DUP2 DUP4 SLT DUP1 ISZERO SWAP1 PUSH2 0x2AE0 JUMPI POP DUP4 DUP2 SLT ISZERO JUMPDEST DUP1 PUSH2 0x2AF5 JUMPI POP PUSH1 0x0 DUP4 SLT DUP1 ISZERO PUSH2 0x2AF5 JUMPI POP DUP4 DUP2 SLT JUMPDEST PUSH2 0x244A JUMPI PUSH1 0x40 MLOAD PUSH3 0x461BCD PUSH1 0xE5 SHL DUP2 MSTORE PUSH1 0x4 ADD PUSH2 0x973 SWAP1 PUSH2 0x338C JUMP JUMPDEST PUSH1 0x40 DUP1 MLOAD PUSH1 0x60 DUP2 ADD DUP3 MSTORE PUSH1 0x0 DUP1 DUP3 MSTORE PUSH1 0x20 DUP3 ADD DUP2 SWAP1 MSTORE SWAP2 DUP2 ADD SWAP2 SWAP1 SWAP2 MSTORE SWAP1 JUMP JUMPDEST PUSH1 0x0 DUP1 DUP4 PUSH1 0x1F DUP5 ADD SLT PUSH2 0x2B42 JUMPI DUP2 DUP3 REVERT JUMPDEST POP DUP2 CALLDATALOAD PUSH8 0xFFFFFFFFFFFFFFFF DUP2 GT ISZERO PUSH2 0x2B59 JUMPI DUP2 DUP3 REVERT JUMPDEST PUSH1 0x20 DUP4 ADD SWAP2 POP DUP4 PUSH1 0x20 DUP1 DUP4 MUL DUP6 ADD ADD GT ISZERO PUSH2 0x2B73 JUMPI PUSH1 0x0 DUP1 REVERT JUMPDEST SWAP3 POP SWAP3 SWAP1 POP JUMP JUMPDEST PUSH1 0x0 PUSH1 0x20 DUP3 DUP5 SUB SLT ISZERO PUSH2 0x2B8B JUMPI DUP1 DUP2 REVERT JUMPDEST DUP2 CALLDATALOAD PUSH2 0x244A DUP2 PUSH2 0x3885 JUMP JUMPDEST PUSH1 0x0 DUP1 PUSH1 0x20 DUP4 DUP6 SUB SLT ISZERO PUSH2 0x2BA8 JUMPI DUP1 DUP2 REVERT JUMPDEST DUP3 CALLDATALOAD PUSH8 0xFFFFFFFFFFFFFFFF DUP2 GT ISZERO PUSH2 0x2BBE JUMPI DUP2 DUP3 REVERT JUMPDEST PUSH2 0x2BCA DUP6 DUP3 DUP7 ADD PUSH2 0x2B31 JUMP JUMPDEST SWAP1 SWAP7 SWAP1 SWAP6 POP SWAP4 POP POP POP POP JUMP JUMPDEST PUSH1 0x0 DUP1 PUSH1 0x0 DUP1 PUSH1 0x0 DUP1 PUSH1 0x60 DUP8 DUP10 SUB SLT ISZERO PUSH2 0x2BEE JUMPI DUP2 DUP3 REVERT JUMPDEST DUP7 CALLDATALOAD PUSH8 0xFFFFFFFFFFFFFFFF DUP1 DUP3 GT ISZERO PUSH2 0x2C05 JUMPI DUP4 DUP5 REVERT JUMPDEST PUSH2 0x2C11 DUP11 DUP4 DUP12 ADD PUSH2 0x2B31 JUMP JUMPDEST SWAP1 SWAP9 POP SWAP7 POP PUSH1 0x20 DUP10 ADD CALLDATALOAD SWAP2 POP DUP1 DUP3 GT ISZERO PUSH2 0x2C29 JUMPI DUP4 DUP5 REVERT JUMPDEST PUSH2 0x2C35 DUP11 DUP4 DUP12 ADD PUSH2 0x2B31 JUMP JUMPDEST SWAP1 SWAP7 POP SWAP5 POP PUSH1 0x40 DUP10 ADD CALLDATALOAD SWAP2 POP DUP1 DUP3 GT ISZERO PUSH2 0x2C4D JUMPI DUP4 DUP5 REVERT JUMPDEST POP PUSH2 0x2C5A DUP10 DUP3 DUP11 ADD PUSH2 0x2B31 JUMP JUMPDEST SWAP8 SWAP11 SWAP7 SWAP10 POP SWAP5 SWAP8 POP SWAP3 SWAP6 SWAP4 SWAP5 SWAP3 POP POP POP JUMP JUMPDEST PUSH1 0x0 DUP1 PUSH1 0x0 DUP1 PUSH1 0x0 DUP1 PUSH1 0x0 DUP1 PUSH1 0x80 DUP10 DUP12 SUB SLT ISZERO PUSH2 0x2C87 JUMPI DUP2 DUP3 REVERT JUMPDEST DUP9 CALLDATALOAD PUSH8 0xFFFFFFFFFFFFFFFF DUP1 DUP3 GT ISZERO PUSH2 0x2C9E JUMPI DUP4 DUP5 REVERT JUMPDEST PUSH2 0x2CAA DUP13 DUP4 DUP14 ADD PUSH2 0x2B31 JUMP JUMPDEST SWAP1 SWAP11 POP SWAP9 POP PUSH1 0x20 DUP12 ADD CALLDATALOAD SWAP2 POP DUP1 DUP3 GT ISZERO PUSH2 0x2CC2 JUMPI DUP4 DUP5 REVERT JUMPDEST PUSH2 0x2CCE DUP13 DUP4 DUP14 ADD PUSH2 0x2B31 JUMP JUMPDEST SWAP1 SWAP9 POP SWAP7 POP PUSH1 0x40 DUP12 ADD CALLDATALOAD SWAP2 POP DUP1 DUP3 GT ISZERO PUSH2 0x2CE6 JUMPI DUP4 DUP5 REVERT JUMPDEST PUSH2 0x2CF2 DUP13 DUP4 DUP14 ADD PUSH2 0x2B31 JUMP JUMPDEST SWAP1 SWAP7 POP SWAP5 POP PUSH1 0x60 DUP12 ADD CALLDATALOAD SWAP2 POP DUP1 DUP3 GT ISZERO PUSH2 0x2D0A JUMPI DUP4 DUP5 REVERT JUMPDEST POP PUSH2 0x2D17 DUP12 DUP3 DUP13 ADD PUSH2 0x2B31 JUMP JUMPDEST SWAP10 SWAP13 SWAP9 SWAP12 POP SWAP7 SWAP10 POP SWAP5 SWAP8 SWAP4 SWAP7 SWAP3 SWAP6 SWAP5 POP POP POP JUMP JUMPDEST PUSH1 0x0 PUSH1 0x20 DUP3 DUP5 SUB SLT ISZERO PUSH2 0x2D3C JUMPI DUP1 DUP2 REVERT JUMPDEST DUP2 CALLDATALOAD PUSH2 0x244A DUP2 PUSH2 0x389D JUMP JUMPDEST PUSH1 0x0 PUSH1 0x20 DUP3 DUP5 SUB SLT ISZERO PUSH2 0x2D58 JUMPI DUP1 DUP2 REVERT JUMPDEST DUP2 MLOAD PUSH2 0x244A DUP2 PUSH2 0x389D JUMP JUMPDEST PUSH1 0x0 PUSH1 0x20 DUP3 DUP5 SUB SLT ISZERO PUSH2 0x2D74 JUMPI DUP1 DUP2 REVERT JUMPDEST DUP2 MLOAD PUSH2 0x244A DUP2 PUSH2 0x3885 JUMP JUMPDEST PUSH1 0x0 PUSH1 0x20 DUP3 DUP5 SUB SLT ISZERO PUSH2 0x2D90 JUMPI DUP1 DUP2 REVERT JUMPDEST POP CALLDATALOAD SWAP2 SWAP1 POP JUMP JUMPDEST PUSH1 0x0 PUSH1 0x20 DUP3 DUP5 SUB SLT ISZERO PUSH2 0x2DA8 JUMPI DUP1 DUP2 REVERT JUMPDEST POP MLOAD SWAP2 SWAP1 POP JUMP JUMPDEST PUSH1 0x0 DUP1 PUSH1 0x40 DUP4 DUP6 SUB SLT ISZERO PUSH2 0x2DC1 JUMPI DUP2 DUP3 REVERT JUMPDEST DUP3 CALLDATALOAD SWAP2 POP PUSH1 0x20 DUP4 ADD CALLDATALOAD PUSH2 0x2DD3 DUP2 PUSH2 0x3885 JUMP JUMPDEST DUP1 SWAP2 POP POP SWAP3 POP SWAP3 SWAP1 POP JUMP JUMPDEST PUSH1 0x0 DUP1 PUSH1 0x0 PUSH1 0x60 DUP5 DUP7 SUB SLT ISZERO PUSH2 0x2DF2 JUMPI DUP1 DUP2 REVERT JUMPDEST DUP4 CALLDATALOAD SWAP3 POP PUSH1 0x20 DUP5 ADD CALLDATALOAD PUSH2 0x2E04 DUP2 PUSH2 0x3885 JUMP JUMPDEST SWAP2 POP PUSH1 0x40 DUP5 ADD CALLDATALOAD PUSH2 0x2E14 DUP2 PUSH2 0x3885 JUMP JUMPDEST DUP1 SWAP2 POP POP SWAP3 POP SWAP3 POP SWAP3 JUMP JUMPDEST PUSH1 0x0 DUP1 PUSH1 0x40 DUP4 DUP6 SUB SLT ISZERO PUSH2 0x2E31 JUMPI DUP2 DUP3 REVERT JUMPDEST POP POP DUP1 CALLDATALOAD SWAP3 PUSH1 0x20 SWAP1 SWAP2 ADD CALLDATALOAD SWAP2 POP JUMP JUMPDEST PUSH1 0x0 DUP1 PUSH1 0x0 PUSH1 0x60 DUP5 DUP7 SUB SLT ISZERO PUSH2 0x2E54 JUMPI DUP1 DUP2 REVERT JUMPDEST DUP4 CALLDATALOAD SWAP3 POP PUSH1 0x20 DUP5 ADD CALLDATALOAD SWAP2 POP PUSH1 0x40 DUP5 ADD CALLDATALOAD PUSH2 0x2E14 DUP2 PUSH2 0x3885 JUMP JUMPDEST PUSH1 0x0 DUP1 PUSH1 0x0 DUP1 PUSH1 0x0 DUP1 PUSH1 0x0 PUSH1 0xE0 DUP9 DUP11 SUB SLT ISZERO PUSH2 0x2E87 JUMPI DUP1 DUP2 REVERT JUMPDEST DUP8 CALLDATALOAD SWAP7 POP PUSH1 0x20 DUP9 ADD CALLDATALOAD SWAP6 POP PUSH1 0x40 DUP9 ADD CALLDATALOAD PUSH2 0x2EA0 DUP2 PUSH2 0x3885 JUMP JUMPDEST SWAP5 POP PUSH1 0x60 DUP9 ADD CALLDATALOAD SWAP4 POP PUSH1 0x80 DUP9 ADD CALLDATALOAD PUSH1 0xFF DUP2 AND DUP2 EQ PUSH2 0x2EBC JUMPI DUP2 DUP3 REVERT JUMPDEST SWAP7 SWAP10 SWAP6 SWAP9 POP SWAP4 SWAP7 SWAP3 SWAP6 SWAP5 PUSH1 0xA0 DUP5 ADD CALLDATALOAD SWAP5 POP PUSH1 0xC0 SWAP1 SWAP4 ADD CALLDATALOAD SWAP3 SWAP2 POP POP JUMP JUMPDEST PUSH1 0x0 DUP1 PUSH1 0x0 DUP1 PUSH1 0x80 DUP6 DUP8 SUB SLT ISZERO PUSH2 0x2EEE JUMPI DUP2 DUP3 REVERT JUMPDEST DUP5 CALLDATALOAD SWAP4 POP PUSH1 0x20 DUP6 ADD CALLDATALOAD SWAP3 POP PUSH1 0x40 DUP6 ADD CALLDATALOAD PUSH2 0x2F07 DUP2 PUSH2 0x3885 JUMP JUMPDEST SWAP2 POP PUSH1 0x60 DUP6 ADD CALLDATALOAD PUSH2 0x2F17 DUP2 PUSH2 0x389D JUMP JUMPDEST SWAP4 SWAP7 SWAP3 SWAP6 POP SWAP1 SWAP4 POP POP JUMP JUMPDEST DUP1 MLOAD PUSH1 0x1 PUSH1 0x1 PUSH1 0x80 SHL SUB AND DUP3 MSTORE PUSH1 0x20 DUP1 DUP3 ADD MLOAD PUSH8 0xFFFFFFFFFFFFFFFF SWAP1 DUP2 AND SWAP2 DUP5 ADD SWAP2 SWAP1 SWAP2 MSTORE PUSH1 0x40 SWAP2 DUP3 ADD MLOAD AND SWAP2 ADD MSTORE JUMP JUMPDEST PUSH1 0x0 DUP3 MLOAD DUP2 JUMPDEST DUP2 DUP2 LT ISZERO PUSH2 0x2F74 JUMPI PUSH1 0x20 DUP2 DUP7 ADD DUP2 ADD MLOAD DUP6 DUP4 ADD MSTORE ADD PUSH2 0x2F5A JUMP JUMPDEST DUP2 DUP2 GT ISZERO PUSH2 0x2F82 JUMPI DUP3 DUP3 DUP6 ADD MSTORE JUMPDEST POP SWAP2 SWAP1 SWAP2 ADD SWAP3 SWAP2 POP POP JUMP JUMPDEST PUSH1 0x1 PUSH1 0x1 PUSH1 0xA0 SHL SUB SWAP2 SWAP1 SWAP2 AND DUP2 MSTORE PUSH1 0x20 ADD SWAP1 JUMP JUMPDEST PUSH1 0x1 PUSH1 0x1 PUSH1 0xA0 SHL SUB SWAP8 DUP9 AND DUP2 MSTORE SWAP6 SWAP1 SWAP7 AND PUSH1 0x20 DUP7 ADD MSTORE PUSH1 0x40 DUP6 ADD SWAP4 SWAP1 SWAP4 MSTORE PUSH1 0x60 DUP5 ADD SWAP2 SWAP1 SWAP2 MSTORE PUSH1 0xFF AND PUSH1 0x80 DUP4 ADD MSTORE PUSH1 0xA0 DUP3 ADD MSTORE PUSH1 0xC0 DUP2 ADD SWAP2 SWAP1 SWAP2 MSTORE PUSH1 0xE0 ADD SWAP1 JUMP JUMPDEST PUSH1 0x1 PUSH1 0x1 PUSH1 0xA0 SHL SUB SWAP4 DUP5 AND DUP2 MSTORE SWAP2 SWAP1 SWAP3 AND PUSH1 0x20 DUP3 ADD MSTORE PUSH1 0x40 DUP2 ADD SWAP2 SWAP1 SWAP2 MSTORE PUSH1 0x60 ADD SWAP1 JUMP JUMPDEST PUSH1 0x1 PUSH1 0x1 PUSH1 0xA0 SHL SUB SWAP3 SWAP1 SWAP3 AND DUP3 MSTORE PUSH1 0x20 DUP3 ADD MSTORE PUSH1 0x40 ADD SWAP1 JUMP JUMPDEST PUSH1 0x20 DUP1 DUP3 MSTORE DUP3 MLOAD DUP3 DUP3 ADD DUP2 SWAP1 MSTORE PUSH1 0x0 SWAP2 SWAP1 DUP5 DUP3 ADD SWAP1 PUSH1 0x40 DUP6 ADD SWAP1 DUP5 JUMPDEST DUP2 DUP2 LT ISZERO PUSH2 0x3060 JUMPI DUP4 MLOAD PUSH1 0x1 PUSH1 0x1 PUSH1 0xA0 SHL SUB AND DUP4 MSTORE SWAP3 DUP5 ADD SWAP3 SWAP2 DUP5 ADD SWAP2 PUSH1 0x1 ADD PUSH2 0x303B JUMP JUMPDEST POP SWAP1 SWAP7 SWAP6 POP POP POP POP POP POP JUMP JUMPDEST PUSH1 0x20 DUP1 DUP3 MSTORE DUP3 MLOAD DUP3 DUP3 ADD DUP2 SWAP1 MSTORE PUSH1 0x0 SWAP2 SWAP1 DUP5 DUP3 ADD SWAP1 PUSH1 0x40 DUP6 ADD SWAP1 DUP5 JUMPDEST DUP2 DUP2 LT ISZERO PUSH2 0x3060 JUMPI PUSH2 0x309B DUP4 DUP6 MLOAD PUSH2 0x2F22 JUMP JUMPDEST SWAP3 DUP5 ADD SWAP3 PUSH1 0x60 SWAP3 SWAP1 SWAP3 ADD SWAP2 PUSH1 0x1 ADD PUSH2 0x3088 JUMP JUMPDEST SWAP1 ISZERO ISZERO DUP2 MSTORE PUSH1 0x20 ADD SWAP1 JUMP JUMPDEST PUSH1 0x20 DUP1 DUP3 MSTORE PUSH1 0x15 SWAP1 DUP3 ADD MSTORE PUSH32 0x426F72696E674D6174683A20556E646572666C6F770000000000000000000000 PUSH1 0x40 DUP3 ADD MSTORE PUSH1 0x60 ADD SWAP1 JUMP JUMPDEST PUSH1 0x20 DUP1 DUP3 MSTORE PUSH1 0xB SWAP1 DUP3 ADD MSTORE PUSH32 0x496E7465676572203C2030000000000000000000000000000000000000000000 PUSH1 0x40 DUP3 ADD MSTORE PUSH1 0x60 ADD SWAP1 JUMP JUMPDEST PUSH1 0x20 DUP1 DUP3 MSTORE PUSH1 0x22 SWAP1 DUP3 ADD MSTORE PUSH32 0x4D696E694368656656323A2066756E64696E672063616E6E6F74206265207A65 PUSH1 0x40 DUP3 ADD MSTORE PUSH32 0x726F000000000000000000000000000000000000000000000000000000000000 PUSH1 0x60 DUP3 ADD MSTORE PUSH1 0x80 ADD SWAP1 JUMP JUMPDEST PUSH1 0x20 DUP1 DUP3 MSTORE PUSH1 0x28 SWAP1 DUP3 ADD MSTORE PUSH32 0x4D696E694368656656323A20696E73756666696369656E7420657874656E7369 PUSH1 0x40 DUP3 ADD MSTORE PUSH32 0x6F6E206C696D6974000000000000000000000000000000000000000000000000 PUSH1 0x60 DUP3 ADD MSTORE PUSH1 0x80 ADD SWAP1 JUMP JUMPDEST PUSH1 0x20 DUP1 DUP3 MSTORE PUSH1 0x1C SWAP1 DUP3 ADD MSTORE PUSH32 0x426F72696E6745524332303A205472616E73666572206661696C656400000000 PUSH1 0x40 DUP3 ADD MSTORE PUSH1 0x60 ADD SWAP1 JUMP JUMPDEST PUSH1 0x20 DUP1 DUP3 MSTORE PUSH1 0x2D SWAP1 DUP3 ADD MSTORE PUSH32 0x4D696E694368656656323A20657874656E73696F6E206475726174696F6E2063 PUSH1 0x40 DUP3 ADD MSTORE PUSH32 0x616E6E6F74206265207A65726F00000000000000000000000000000000000000 PUSH1 0x60 DUP3 ADD MSTORE PUSH1 0x80 ADD SWAP1 JUMP JUMPDEST PUSH1 0x20 DUP1 DUP3 MSTORE PUSH1 0x26 SWAP1 DUP3 ADD MSTORE PUSH32 0x4F776E61626C653A206E6577206F776E657220697320746865207A65726F2061 PUSH1 0x40 DUP3 ADD MSTORE PUSH32 0x6464726573730000000000000000000000000000000000000000000000000000 PUSH1 0x60 DUP3 ADD MSTORE PUSH1 0x80 ADD SWAP1 JUMP JUMPDEST PUSH1 0x20 DUP1 DUP3 MSTORE PUSH1 0x27 SWAP1 DUP3 ADD MSTORE PUSH32 0x4D696E694368656656323A206D696772617465642062616C616E6365206D7573 PUSH1 0x40 DUP3 ADD MSTORE PUSH32 0x74206D6174636800000000000000000000000000000000000000000000000000 PUSH1 0x60 DUP3 ADD MSTORE PUSH1 0x80 ADD SWAP1 JUMP JUMPDEST PUSH1 0x20 DUP1 DUP3 MSTORE PUSH1 0x26 SWAP1 DUP3 ADD MSTORE PUSH32 0x4D696E694368656656323A20696E73756666696369656E742066756E64696E67 PUSH1 0x40 DUP3 ADD MSTORE PUSH32 0x206C696D69740000000000000000000000000000000000000000000000000000 PUSH1 0x60 DUP3 ADD MSTORE PUSH1 0x80 ADD SWAP1 JUMP JUMPDEST PUSH1 0x20 DUP1 DUP3 MSTORE PUSH1 0x21 SWAP1 DUP3 ADD MSTORE PUSH32 0x5369676E6564536166654D6174683A206164646974696F6E206F766572666C6F PUSH1 0x40 DUP3 ADD MSTORE PUSH32 0x7700000000000000000000000000000000000000000000000000000000000000 PUSH1 0x60 DUP3 ADD MSTORE PUSH1 0x80 ADD SWAP1 JUMP JUMPDEST PUSH1 0x20 DUP1 DUP3 MSTORE PUSH1 0x1B SWAP1 DUP3 ADD MSTORE PUSH32 0x4D696E694368656656323A206E6F206D69677261746F72207365740000000000 PUSH1 0x40 DUP3 ADD MSTORE PUSH1 0x60 ADD SWAP1 JUMP JUMPDEST PUSH1 0x20 DUP1 DUP3 MSTORE PUSH1 0x29 SWAP1 DUP3 ADD MSTORE PUSH32 0x4D696E694368656656323A2066756E64696E6720616D6F756E742063616E6E6F PUSH1 0x40 DUP3 ADD MSTORE PUSH32 0x74206265207A65726F0000000000000000000000000000000000000000000000 PUSH1 0x60 DUP3 ADD MSTORE PUSH1 0x80 ADD SWAP1 JUMP JUMPDEST PUSH1 0x20 DUP1 DUP3 MSTORE PUSH1 0x1C SWAP1 DUP3 ADD MSTORE PUSH32 0x426F72696E674D6174683A2075696E74313238204F766572666C6F7700000000 PUSH1 0x40 DUP3 ADD MSTORE PUSH1 0x60 ADD SWAP1 JUMP JUMPDEST PUSH1 0x20 DUP1 DUP3 MSTORE PUSH1 0x18 SWAP1 DUP3 ADD MSTORE PUSH32 0x426F72696E674D6174683A20416464204F766572666C6F770000000000000000 PUSH1 0x40 DUP3 ADD MSTORE PUSH1 0x60 ADD SWAP1 JUMP JUMPDEST PUSH1 0x20 DUP1 DUP3 MSTORE DUP2 DUP2 ADD MSTORE PUSH32 0x4F776E61626C653A2063616C6C6572206973206E6F7420746865206F776E6572 PUSH1 0x40 DUP3 ADD MSTORE PUSH1 0x60 ADD SWAP1 JUMP JUMPDEST PUSH1 0x20 DUP1 DUP3 MSTORE PUSH1 0x25 SWAP1 DUP3 ADD MSTORE PUSH32 0x4D696E694368656656323A20696E76616C696420706172616D65746572206C65 PUSH1 0x40 DUP3 ADD MSTORE PUSH32 0x6E67746873000000000000000000000000000000000000000000000000000000 PUSH1 0x60 DUP3 ADD MSTORE PUSH1 0x80 ADD SWAP1 JUMP JUMPDEST PUSH1 0x20 DUP1 DUP3 MSTORE PUSH1 0x13 SWAP1 DUP3 ADD MSTORE PUSH32 0x546F6B656E20616C726561647920616464656400000000000000000000000000 PUSH1 0x40 DUP3 ADD MSTORE PUSH1 0x60 ADD SWAP1 JUMP JUMPDEST PUSH1 0x20 DUP1 DUP3 MSTORE PUSH1 0x1B SWAP1 DUP3 ADD MSTORE PUSH32 0x426F72696E674D6174683A2075696E743634204F766572666C6F770000000000 PUSH1 0x40 DUP3 ADD MSTORE PUSH1 0x60 ADD SWAP1 JUMP JUMPDEST PUSH1 0x20 DUP1 DUP3 MSTORE PUSH1 0x27 SWAP1 DUP3 ADD MSTORE PUSH32 0x4D696E694368656656323A206D6967726174696F6E20686173206265656E2064 PUSH1 0x40 DUP3 ADD MSTORE PUSH32 0x697361626C656400000000000000000000000000000000000000000000000000 PUSH1 0x60 DUP3 ADD MSTORE PUSH1 0x80 ADD SWAP1 JUMP JUMPDEST PUSH1 0x20 DUP1 DUP3 MSTORE PUSH1 0x24 SWAP1 DUP3 ADD MSTORE PUSH32 0x5369676E6564536166654D6174683A207375627472616374696F6E206F766572 PUSH1 0x40 DUP3 ADD MSTORE PUSH32 0x666C6F7700000000000000000000000000000000000000000000000000000000 PUSH1 0x60 DUP3 ADD MSTORE PUSH1 0x80 ADD SWAP1 JUMP JUMPDEST PUSH1 0x20 DUP1 DUP3 MSTORE DUP2 DUP2 ADD MSTORE PUSH32 0x426F72696E6745524332303A205472616E7366657246726F6D206661696C6564 PUSH1 0x40 DUP3 ADD MSTORE PUSH1 0x60 ADD SWAP1 JUMP JUMPDEST PUSH1 0x20 DUP1 DUP3 MSTORE PUSH1 0x22 SWAP1 DUP3 ADD MSTORE PUSH32 0x4D696E694368656656323A2063616C6C6572206973206E6F7420612066756E64 PUSH1 0x40 DUP3 ADD MSTORE PUSH32 0x6572000000000000000000000000000000000000000000000000000000000000 PUSH1 0x60 DUP3 ADD MSTORE PUSH1 0x80 ADD SWAP1 JUMP JUMPDEST PUSH1 0x20 DUP1 DUP3 MSTORE PUSH1 0x18 SWAP1 DUP3 ADD MSTORE PUSH32 0x426F72696E674D6174683A204D756C204F766572666C6F770000000000000000 PUSH1 0x40 DUP3 ADD MSTORE PUSH1 0x60 ADD SWAP1 JUMP JUMPDEST PUSH1 0x20 DUP1 DUP3 MSTORE PUSH1 0x2A SWAP1 DUP3 ADD MSTORE PUSH32 0x4D696E694368656656323A20726577617264206475726174696F6E2063616E6E PUSH1 0x40 DUP3 ADD MSTORE PUSH32 0x6F74206265207A65726F00000000000000000000000000000000000000000000 PUSH1 0x60 DUP3 ADD MSTORE PUSH1 0x80 ADD SWAP1 JUMP JUMPDEST PUSH1 0x60 DUP2 ADD PUSH2 0x23FE DUP3 DUP5 PUSH2 0x2F22 JUMP JUMPDEST PUSH1 0x1 PUSH1 0x1 PUSH1 0x80 SHL SUB SWAP4 SWAP1 SWAP4 AND DUP4 MSTORE PUSH8 0xFFFFFFFFFFFFFFFF SWAP2 DUP3 AND PUSH1 0x20 DUP5 ADD MSTORE AND PUSH1 0x40 DUP3 ADD MSTORE PUSH1 0x60 ADD SWAP1 JUMP JUMPDEST SWAP1 DUP2 MSTORE PUSH1 0x20 ADD SWAP1 JUMP JUMPDEST SWAP5 DUP6 MSTORE PUSH1 0x1 PUSH1 0x1 PUSH1 0xA0 SHL SUB SWAP4 DUP5 AND PUSH1 0x20 DUP7 ADD MSTORE SWAP2 SWAP1 SWAP3 AND PUSH1 0x40 DUP5 ADD MSTORE PUSH1 0x60 DUP4 ADD SWAP2 SWAP1 SWAP2 MSTORE PUSH1 0x80 DUP3 ADD MSTORE PUSH1 0xA0 ADD SWAP1 JUMP JUMPDEST SWAP2 DUP3 MSTORE ISZERO ISZERO PUSH1 0x20 DUP3 ADD MSTORE PUSH1 0x40 ADD SWAP1 JUMP JUMPDEST SWAP2 DUP3 MSTORE PUSH1 0x20 DUP3 ADD MSTORE PUSH1 0x40 ADD SWAP1 JUMP JUMPDEST PUSH8 0xFFFFFFFFFFFFFFFF SWAP4 SWAP1 SWAP4 AND DUP4 MSTORE PUSH1 0x20 DUP4 ADD SWAP2 SWAP1 SWAP2 MSTORE PUSH1 0x1 PUSH1 0x1 PUSH1 0x80 SHL SUB AND PUSH1 0x40 DUP3 ADD MSTORE PUSH1 0x60 ADD SWAP1 JUMP JUMPDEST PUSH1 0x1 PUSH1 0x1 PUSH1 0xA0 SHL SUB DUP2 AND DUP2 EQ PUSH2 0x389A JUMPI PUSH1 0x0 DUP1 REVERT JUMPDEST POP JUMP JUMPDEST DUP1 ISZERO ISZERO DUP2 EQ PUSH2 0x389A JUMPI PUSH1 0x0 DUP1 REVERT INVALID LOG2 PUSH5 0x6970667358 0x22 SLT KECCAK256 SAR 0xD6 SLT MLOAD SWAP2 MLOAD PUSH32 0x3E5CF8DC11B84B229B9F88C7AE42C19D67F69FA3B73CEBFE1964736F6C634300 MOD 0xC STOP CALLER DUP12 0xE0 SMOD SWAP13 MSTORE8 AND MSIZE EQ SGT DIFFICULTY 0xCD 0x1F 0xD0 LOG4 CALLCODE DUP5 NOT 0x49 PUSH32 0x9722A3DAAFE3B4186F6B6457E000000000000000000000000000000000000000 "
		},
		"gasEstimates": {
			"creation": {
				"codeDepositCost": "2912200",
				"executionCost": "infinite",
				"totalCost": "infinite"
			},
			"external": {
				"REWARD()": "infinite",
				"addFunder(address)": "23276",
				"addPool(uint256,address,address)": "infinite",
				"addPools(uint256[],address[],address[])": "infinite",
				"addedTokens(address)": "1348",
				"deposit(uint256,uint256,address)": "infinite",
				"depositWithPermit(uint256,uint256,address,uint256,uint8,bytes32,bytes32)": "infinite",
				"disableMigrator()": "22728",
				"emergencyWithdraw(uint256,address)": "infinite",
				"extendRewardsViaDuration(uint256,uint256)": "infinite",
				"extendRewardsViaFunding(uint256,uint256)": "infinite",
				"fundRewards(uint256,uint256)": "infinite",
				"harvest(uint256,address)": "infinite",
				"isFunder(address)": "1366",
				"lpToken(uint256)": "2129",
				"lpTokens()": "infinite",
				"massUpdateAllPools()": "infinite",
				"massUpdatePools(uint256[])": "infinite",
				"migrate(uint256)": "infinite",
				"migrationDisabled()": "1126",
				"migrator()": "1182",
				"owner()": "1138",
				"pendingReward(uint256,address)": "infinite",
				"poolInfo(uint256)": "2232",
				"poolInfos()": "infinite",
				"poolLength()": "1098",
				"removeFunder(address)": "23313",
				"renounceOwnership()": "24261",
				"resetRewardsDuration(uint256)": "infinite",
				"rewardPerSecond()": "1095",
				"rewarder(uint256)": "2149",
				"rewardsExpiration()": "1095",
				"setMigrator(address)": "24048",
				"setPool(uint256,uint256,address,bool)": "infinite",
				"setPools(uint256[],uint256[],address[],bool[])": "infinite",
				"totalAllocPoint()": "1141",
				"transferOwnership(address)": "24487",
				"updatePool(uint256)": "infinite",
				"userInfo(uint256,address)": "2293",
				"withdraw(uint256,uint256,address)": "infinite",
				"withdrawAndHarvest(uint256,uint256,address)": "infinite"
			},
			"internal": {
				"add(uint256,contract IERC20,contract IRewarder)": "infinite",
				"set(uint256,uint256,contract IRewarder,bool)": "infinite"
			}
		},
		"methodIdentifiers": {
			"REWARD()": "cab34c08",
			"addFunder(address)": "1bbe9d8c",
			"addPool(uint256,address,address)": "f624d2c5",
			"addPools(uint256[],address[],address[])": "7973aa7b",
			"addedTokens(address)": "79d12ffb",
			"deposit(uint256,uint256,address)": "8dbdbe6d",
			"depositWithPermit(uint256,uint256,address,uint256,uint8,bytes32,bytes32)": "2273ee6e",
			"disableMigrator()": "f6d676be",
			"emergencyWithdraw(uint256,address)": "2f940c70",
			"extendRewardsViaDuration(uint256,uint256)": "933f084f",
			"extendRewardsViaFunding(uint256,uint256)": "19610b2b",
			"fundRewards(uint256,uint256)": "28662551",
			"harvest(uint256,address)": "18fccc76",
			"isFunder(address)": "1ea48870",
			"lpToken(uint256)": "78ed5d1f",
			"lpTokens()": "34c0b46b",
			"massUpdateAllPools()": "c1bcb493",
			"massUpdatePools(uint256[])": "57a5b58c",
			"migrate(uint256)": "454b0608",
			"migrationDisabled()": "0c812af3",
			"migrator()": "7cd07e47",
			"owner()": "8da5cb5b",
			"pendingReward(uint256,address)": "98969e82",
			"poolInfo(uint256)": "1526fe27",
			"poolInfos()": "61f8e66f",
			"poolLength()": "081e3eda",
			"removeFunder(address)": "dcd18dd4",
			"renounceOwnership()": "715018a6",
			"resetRewardsDuration(uint256)": "4b87e90f",
			"rewardPerSecond()": "8f10369a",
			"rewarder(uint256)": "c346253d",
			"rewardsExpiration()": "b76f4aeb",
			"setMigrator(address)": "23cf3118",
			"setPool(uint256,uint256,address,bool)": "b763e7c4",
			"setPools(uint256[],uint256[],address[],bool[])": "3ef6db91",
			"totalAllocPoint()": "17caf6f1",
			"transferOwnership(address)": "f2fde38b",
			"updatePool(uint256)": "51eb05a6",
			"userInfo(uint256,address)": "93f1a40b",
			"withdraw(uint256,uint256,address)": "0ad58d2f",
			"withdrawAndHarvest(uint256,uint256,address)": "d1abb907"
		}
	},
	"abi": [
		{
			"inputs": [
				{
					"internalType": "address",
					"name": "_rewardToken",
					"type": "address"
				},
				{
					"internalType": "address",
					"name": "_firstOwner",
					"type": "address"
				}
			],
			"stateMutability": "nonpayable",
			"type": "constructor"
		},
		{
			"anonymous": false,
			"inputs": [
				{
					"indexed": true,
					"internalType": "address",
					"name": "user",
					"type": "address"
				},
				{
					"indexed": true,
					"internalType": "uint256",
					"name": "pid",
					"type": "uint256"
				},
				{
					"indexed": false,
					"internalType": "uint256",
					"name": "amount",
					"type": "uint256"
				},
				{
					"indexed": true,
					"internalType": "address",
					"name": "to",
					"type": "address"
				}
			],
			"name": "Deposit",
			"type": "event"
		},
		{
			"anonymous": false,
			"inputs": [
				{
					"indexed": true,
					"internalType": "address",
					"name": "user",
					"type": "address"
				},
				{
					"indexed": true,
					"internalType": "uint256",
					"name": "pid",
					"type": "uint256"
				},
				{
					"indexed": false,
					"internalType": "uint256",
					"name": "amount",
					"type": "uint256"
				},
				{
					"indexed": true,
					"internalType": "address",
					"name": "to",
					"type": "address"
				}
			],
			"name": "EmergencyWithdraw",
			"type": "event"
		},
		{
			"anonymous": false,
			"inputs": [
				{
					"indexed": false,
					"internalType": "address",
					"name": "funder",
					"type": "address"
				}
			],
			"name": "FunderAdded",
			"type": "event"
		},
		{
			"anonymous": false,
			"inputs": [
				{
					"indexed": false,
					"internalType": "address",
					"name": "funder",
					"type": "address"
				}
			],
			"name": "FunderRemoved",
			"type": "event"
		},
		{
			"anonymous": false,
			"inputs": [
				{
					"indexed": true,
					"internalType": "address",
					"name": "user",
					"type": "address"
				},
				{
					"indexed": true,
					"internalType": "uint256",
					"name": "pid",
					"type": "uint256"
				},
				{
					"indexed": false,
					"internalType": "uint256",
					"name": "amount",
					"type": "uint256"
				}
			],
			"name": "Harvest",
			"type": "event"
		},
		{
			"anonymous": false,
			"inputs": [
				{
					"indexed": false,
					"internalType": "uint256",
					"name": "rewardPerSecond",
					"type": "uint256"
				}
			],
			"name": "LogRewardPerSecond",
			"type": "event"
		},
		{
			"anonymous": false,
			"inputs": [
				{
					"indexed": false,
					"internalType": "uint256",
					"name": "rewardsExpiration",
					"type": "uint256"
				}
			],
			"name": "LogRewardsExpiration",
			"type": "event"
		},
		{
			"anonymous": false,
			"inputs": [
				{
					"indexed": false,
					"internalType": "uint256",
					"name": "pid",
					"type": "uint256"
				}
			],
			"name": "Migrate",
			"type": "event"
		},
		{
			"anonymous": false,
			"inputs": [],
			"name": "MigratorDisabled",
			"type": "event"
		},
		{
			"anonymous": false,
			"inputs": [
				{
					"indexed": false,
					"internalType": "address",
					"name": "migrator",
					"type": "address"
				}
			],
			"name": "MigratorSet",
			"type": "event"
		},
		{
			"anonymous": false,
			"inputs": [
				{
					"indexed": true,
					"internalType": "address",
					"name": "previousOwner",
					"type": "address"
				},
				{
					"indexed": true,
					"internalType": "address",
					"name": "newOwner",
					"type": "address"
				}
			],
			"name": "OwnershipTransferred",
			"type": "event"
		},
		{
			"anonymous": false,
			"inputs": [
				{
					"indexed": true,
					"internalType": "uint256",
					"name": "pid",
					"type": "uint256"
				},
				{
					"indexed": false,
					"internalType": "uint256",
					"name": "allocPoint",
					"type": "uint256"
				},
				{
					"indexed": true,
					"internalType": "contract IERC20",
					"name": "lpToken",
					"type": "address"
				},
				{
					"indexed": true,
					"internalType": "contract IRewarder",
					"name": "rewarder",
					"type": "address"
				}
			],
			"name": "PoolAdded",
			"type": "event"
		},
		{
			"anonymous": false,
			"inputs": [
				{
					"indexed": true,
					"internalType": "uint256",
					"name": "pid",
					"type": "uint256"
				},
				{
					"indexed": false,
					"internalType": "uint256",
					"name": "allocPoint",
					"type": "uint256"
				},
				{
					"indexed": true,
					"internalType": "contract IRewarder",
					"name": "rewarder",
					"type": "address"
				},
				{
					"indexed": false,
					"internalType": "bool",
					"name": "overwrite",
					"type": "bool"
				}
			],
			"name": "PoolSet",
			"type": "event"
		},
		{
			"anonymous": false,
			"inputs": [
				{
					"indexed": true,
					"internalType": "uint256",
					"name": "pid",
					"type": "uint256"
				},
				{
					"indexed": false,
					"internalType": "uint64",
					"name": "lastRewardTime",
					"type": "uint64"
				},
				{
					"indexed": false,
					"internalType": "uint256",
					"name": "lpSupply",
					"type": "uint256"
				},
				{
					"indexed": false,
					"internalType": "uint256",
					"name": "accRewardPerShare",
					"type": "uint256"
				}
			],
			"name": "PoolUpdate",
			"type": "event"
		},
		{
			"anonymous": false,
			"inputs": [
				{
					"indexed": true,
					"internalType": "address",
					"name": "user",
					"type": "address"
				},
				{
					"indexed": true,
					"internalType": "uint256",
					"name": "pid",
					"type": "uint256"
				},
				{
					"indexed": false,
					"internalType": "uint256",
					"name": "amount",
					"type": "uint256"
				},
				{
					"indexed": true,
					"internalType": "address",
					"name": "to",
					"type": "address"
				}
			],
			"name": "Withdraw",
			"type": "event"
		},
		{
			"inputs": [],
			"name": "REWARD",
			"outputs": [
				{
					"internalType": "contract IERC20",
					"name": "",
					"type": "address"
				}
			],
			"stateMutability": "view",
			"type": "function"
		},
		{
			"inputs": [
				{
					"internalType": "address",
					"name": "_funder",
					"type": "address"
				}
			],
			"name": "addFunder",
			"outputs": [],
			"stateMutability": "nonpayable",
			"type": "function"
		},
		{
			"inputs": [
				{
					"internalType": "uint256",
					"name": "_allocPoint",
					"type": "uint256"
				},
				{
					"internalType": "contract IERC20",
					"name": "_lpToken",
					"type": "address"
				},
				{
					"internalType": "contract IRewarder",
					"name": "_rewarder",
					"type": "address"
				}
			],
			"name": "addPool",
			"outputs": [],
			"stateMutability": "nonpayable",
			"type": "function"
		},
		{
			"inputs": [
				{
					"internalType": "uint256[]",
					"name": "_allocPoints",
					"type": "uint256[]"
				},
				{
					"internalType": "contract IERC20[]",
					"name": "_lpTokens",
					"type": "address[]"
				},
				{
					"internalType": "contract IRewarder[]",
					"name": "_rewarders",
					"type": "address[]"
				}
			],
			"name": "addPools",
			"outputs": [],
			"stateMutability": "nonpayable",
			"type": "function"
		},
		{
			"inputs": [
				{
					"internalType": "address",
					"name": "",
					"type": "address"
				}
			],
			"name": "addedTokens",
			"outputs": [
				{
					"internalType": "bool",
					"name": "",
					"type": "bool"
				}
			],
			"stateMutability": "view",
			"type": "function"
		},
		{
			"inputs": [
				{
					"internalType": "uint256",
					"name": "pid",
					"type": "uint256"
				},
				{
					"internalType": "uint256",
					"name": "amount",
					"type": "uint256"
				},
				{
					"internalType": "address",
					"name": "to",
					"type": "address"
				}
			],
			"name": "deposit",
			"outputs": [],
			"stateMutability": "nonpayable",
			"type": "function"
		},
		{
			"inputs": [
				{
					"internalType": "uint256",
					"name": "pid",
					"type": "uint256"
				},
				{
					"internalType": "uint256",
					"name": "amount",
					"type": "uint256"
				},
				{
					"internalType": "address",
					"name": "to",
					"type": "address"
				},
				{
					"internalType": "uint256",
					"name": "deadline",
					"type": "uint256"
				},
				{
					"internalType": "uint8",
					"name": "v",
					"type": "uint8"
				},
				{
					"internalType": "bytes32",
					"name": "r",
					"type": "bytes32"
				},
				{
					"internalType": "bytes32",
					"name": "s",
					"type": "bytes32"
				}
			],
			"name": "depositWithPermit",
			"outputs": [],
			"stateMutability": "nonpayable",
			"type": "function"
		},
		{
			"inputs": [],
			"name": "disableMigrator",
			"outputs": [],
			"stateMutability": "nonpayable",
			"type": "function"
		},
		{
			"inputs": [
				{
					"internalType": "uint256",
					"name": "pid",
					"type": "uint256"
				},
				{
					"internalType": "address",
					"name": "to",
					"type": "address"
				}
			],
			"name": "emergencyWithdraw",
			"outputs": [],
			"stateMutability": "nonpayable",
			"type": "function"
		},
		{
			"inputs": [
				{
					"internalType": "uint256",
					"name": "extension",
					"type": "uint256"
				},
				{
					"internalType": "uint256",
					"name": "maxFunding",
					"type": "uint256"
				}
			],
			"name": "extendRewardsViaDuration",
			"outputs": [],
			"stateMutability": "nonpayable",
			"type": "function"
		},
		{
			"inputs": [
				{
					"internalType": "uint256",
					"name": "funding",
					"type": "uint256"
				},
				{
					"internalType": "uint256",
					"name": "minExtension",
					"type": "uint256"
				}
			],
			"name": "extendRewardsViaFunding",
			"outputs": [],
			"stateMutability": "nonpayable",
			"type": "function"
		},
		{
			"inputs": [
				{
					"internalType": "uint256",
					"name": "funding",
					"type": "uint256"
				},
				{
					"internalType": "uint256",
					"name": "duration",
					"type": "uint256"
				}
			],
			"name": "fundRewards",
			"outputs": [],
			"stateMutability": "nonpayable",
			"type": "function"
		},
		{
			"inputs": [
				{
					"internalType": "uint256",
					"name": "pid",
					"type": "uint256"
				},
				{
					"internalType": "address",
					"name": "to",
					"type": "address"
				}
			],
			"name": "harvest",
			"outputs": [],
			"stateMutability": "nonpayable",
			"type": "function"
		},
		{
			"inputs": [
				{
					"internalType": "address",
					"name": "_funder",
					"type": "address"
				}
			],
			"name": "isFunder",
			"outputs": [
				{
					"internalType": "bool",
					"name": "allowed",
					"type": "bool"
				}
			],
			"stateMutability": "view",
			"type": "function"
		},
		{
			"inputs": [
				{
					"internalType": "uint256",
					"name": "",
					"type": "uint256"
				}
			],
			"name": "lpToken",
			"outputs": [
				{
					"internalType": "contract IERC20",
					"name": "",
					"type": "address"
				}
			],
			"stateMutability": "view",
			"type": "function"
		},
		{
			"inputs": [],
			"name": "lpTokens",
			"outputs": [
				{
					"internalType": "contract IERC20[]",
					"name": "",
					"type": "address[]"
				}
			],
			"stateMutability": "view",
			"type": "function"
		},
		{
			"inputs": [],
			"name": "massUpdateAllPools",
			"outputs": [],
			"stateMutability": "nonpayable",
			"type": "function"
		},
		{
			"inputs": [
				{
					"internalType": "uint256[]",
					"name": "pids",
					"type": "uint256[]"
				}
			],
			"name": "massUpdatePools",
			"outputs": [],
			"stateMutability": "nonpayable",
			"type": "function"
		},
		{
			"inputs": [
				{
					"internalType": "uint256",
					"name": "_pid",
					"type": "uint256"
				}
			],
			"name": "migrate",
			"outputs": [],
			"stateMutability": "nonpayable",
			"type": "function"
		},
		{
			"inputs": [],
			"name": "migrationDisabled",
			"outputs": [
				{
					"internalType": "bool",
					"name": "",
					"type": "bool"
				}
			],
			"stateMutability": "view",
			"type": "function"
		},
		{
			"inputs": [],
			"name": "migrator",
			"outputs": [
				{
					"internalType": "contract IMigratorChef",
					"name": "",
					"type": "address"
				}
			],
			"stateMutability": "view",
			"type": "function"
		},
		{
			"inputs": [],
			"name": "owner",
			"outputs": [
				{
					"internalType": "address",
					"name": "",
					"type": "address"
				}
			],
			"stateMutability": "view",
			"type": "function"
		},
		{
			"inputs": [
				{
					"internalType": "uint256",
					"name": "_pid",
					"type": "uint256"
				},
				{
					"internalType": "address",
					"name": "_user",
					"type": "address"
				}
			],
			"name": "pendingReward",
			"outputs": [
				{
					"internalType": "uint256",
					"name": "pending",
					"type": "uint256"
				}
			],
			"stateMutability": "view",
			"type": "function"
		},
		{
			"inputs": [
				{
					"internalType": "uint256",
					"name": "",
					"type": "uint256"
				}
			],
			"name": "poolInfo",
			"outputs": [
				{
					"internalType": "uint128",
					"name": "accRewardPerShare",
					"type": "uint128"
				},
				{
					"internalType": "uint64",
					"name": "lastRewardTime",
					"type": "uint64"
				},
				{
					"internalType": "uint64",
					"name": "allocPoint",
					"type": "uint64"
				}
			],
			"stateMutability": "view",
			"type": "function"
		},
		{
			"inputs": [],
			"name": "poolInfos",
			"outputs": [
				{
					"components": [
						{
							"internalType": "uint128",
							"name": "accRewardPerShare",
							"type": "uint128"
						},
						{
							"internalType": "uint64",
							"name": "lastRewardTime",
							"type": "uint64"
						},
						{
							"internalType": "uint64",
							"name": "allocPoint",
							"type": "uint64"
						}
					],
					"internalType": "struct MiniChefV2.PoolInfo[]",
					"name": "",
					"type": "tuple[]"
				}
			],
			"stateMutability": "view",
			"type": "function"
		},
		{
			"inputs": [],
			"name": "poolLength",
			"outputs": [
				{
					"internalType": "uint256",
					"name": "pools",
					"type": "uint256"
				}
			],
			"stateMutability": "view",
			"type": "function"
		},
		{
			"inputs": [
				{
					"internalType": "address",
					"name": "_funder",
					"type": "address"
				}
			],
			"name": "removeFunder",
			"outputs": [],
			"stateMutability": "nonpayable",
			"type": "function"
		},
		{
			"inputs": [],
			"name": "renounceOwnership",
			"outputs": [],
			"stateMutability": "nonpayable",
			"type": "function"
		},
		{
			"inputs": [
				{
					"internalType": "uint256",
					"name": "duration",
					"type": "uint256"
				}
			],
			"name": "resetRewardsDuration",
			"outputs": [],
			"stateMutability": "nonpayable",
			"type": "function"
		},
		{
			"inputs": [],
			"name": "rewardPerSecond",
			"outputs": [
				{
					"internalType": "uint256",
					"name": "",
					"type": "uint256"
				}
			],
			"stateMutability": "view",
			"type": "function"
		},
		{
			"inputs": [
				{
					"internalType": "uint256",
					"name": "",
					"type": "uint256"
				}
			],
			"name": "rewarder",
			"outputs": [
				{
					"internalType": "contract IRewarder",
					"name": "",
					"type": "address"
				}
			],
			"stateMutability": "view",
			"type": "function"
		},
		{
			"inputs": [],
			"name": "rewardsExpiration",
			"outputs": [
				{
					"internalType": "uint256",
					"name": "",
					"type": "uint256"
				}
			],
			"stateMutability": "view",
			"type": "function"
		},
		{
			"inputs": [
				{
					"internalType": "contract IMigratorChef",
					"name": "_migrator",
					"type": "address"
				}
			],
			"name": "setMigrator",
			"outputs": [],
			"stateMutability": "nonpayable",
			"type": "function"
		},
		{
			"inputs": [
				{
					"internalType": "uint256",
					"name": "_pid",
					"type": "uint256"
				},
				{
					"internalType": "uint256",
					"name": "_allocPoint",
					"type": "uint256"
				},
				{
					"internalType": "contract IRewarder",
					"name": "_rewarder",
					"type": "address"
				},
				{
					"internalType": "bool",
					"name": "overwrite",
					"type": "bool"
				}
			],
			"name": "setPool",
			"outputs": [],
			"stateMutability": "nonpayable",
			"type": "function"
		},
		{
			"inputs": [
				{
					"internalType": "uint256[]",
					"name": "pids",
					"type": "uint256[]"
				},
				{
					"internalType": "uint256[]",
					"name": "allocPoints",
					"type": "uint256[]"
				},
				{
					"internalType": "contract IRewarder[]",
					"name": "rewarders",
					"type": "address[]"
				},
				{
					"internalType": "bool[]",
					"name": "overwrites",
					"type": "bool[]"
				}
			],
			"name": "setPools",
			"outputs": [],
			"stateMutability": "nonpayable",
			"type": "function"
		},
		{
			"inputs": [],
			"name": "totalAllocPoint",
			"outputs": [
				{
					"internalType": "uint256",
					"name": "",
					"type": "uint256"
				}
			],
			"stateMutability": "view",
			"type": "function"
		},
		{
			"inputs": [
				{
					"internalType": "address",
					"name": "newOwner",
					"type": "address"
				}
			],
			"name": "transferOwnership",
			"outputs": [],
			"stateMutability": "nonpayable",
			"type": "function"
		},
		{
			"inputs": [
				{
					"internalType": "uint256",
					"name": "pid",
					"type": "uint256"
				}
			],
			"name": "updatePool",
			"outputs": [
				{
					"components": [
						{
							"internalType": "uint128",
							"name": "accRewardPerShare",
							"type": "uint128"
						},
						{
							"internalType": "uint64",
							"name": "lastRewardTime",
							"type": "uint64"
						},
						{
							"internalType": "uint64",
							"name": "allocPoint",
							"type": "uint64"
						}
					],
					"internalType": "struct MiniChefV2.PoolInfo",
					"name": "pool",
					"type": "tuple"
				}
			],
			"stateMutability": "nonpayable",
			"type": "function"
		},
		{
			"inputs": [
				{
					"internalType": "uint256",
					"name": "",
					"type": "uint256"
				},
				{
					"internalType": "address",
					"name": "",
					"type": "address"
				}
			],
			"name": "userInfo",
			"outputs": [
				{
					"internalType": "uint256",
					"name": "amount",
					"type": "uint256"
				},
				{
					"internalType": "int256",
					"name": "rewardDebt",
					"type": "int256"
				}
			],
			"stateMutability": "view",
			"type": "function"
		},
		{
			"inputs": [
				{
					"internalType": "uint256",
					"name": "pid",
					"type": "uint256"
				},
				{
					"internalType": "uint256",
					"name": "amount",
					"type": "uint256"
				},
				{
					"internalType": "address",
					"name": "to",
					"type": "address"
				}
			],
			"name": "withdraw",
			"outputs": [],
			"stateMutability": "nonpayable",
			"type": "function"
		},
		{
			"inputs": [
				{
					"internalType": "uint256",
					"name": "pid",
					"type": "uint256"
				},
				{
					"internalType": "uint256",
					"name": "amount",
					"type": "uint256"
				},
				{
					"internalType": "address",
					"name": "to",
					"type": "address"
				}
			],
			"name": "withdrawAndHarvest",
			"outputs": [],
			"stateMutability": "nonpayable",
			"type": "function"
		}
	]
}