{
	"data": {
		"bytecode": {
			"linkReferences": {},
			"object": "608060405234801561001057600080fd5b50610a36806100206000396000f3fe608060405234801561001057600080fd5b50600436106100625760003560e01c80631688f0b9146100675780632500510e1461009057806353e5d935146100a357806361b69abd146100b8578063addacc0f146100cb578063d18af54d146100d3575b600080fd5b61007a61007536600461059d565b6100e6565b60405161008791906106f7565b60405180910390f35b61007a61009e3660046104c9565b610158565b6100ab6101de565b604051610087919061070b565b61007a6100c636600461054f565b610208565b6100ab6102a2565b61007a6100e13660046105f4565b6102b4565b60006100f384848461036f565b8351909150156101185760008060008551602087016000865af1141561011857600080fd5b7f4f51faf6c4561ff95f067657e43439f0f856d97c04d9ec9070a6199ad418e2358185604051610149929190610725565b60405180910390a19392505050565b600061019c8585858080601f01602080910402602001604051908101604052809392919081815260200183838082843760009201919091525087925061036f915050565b9050806040516020016101af91906106ba565b60408051601f198184030181529082905262461bcd60e51b82526101d59160040161070b565b60405180910390fd5b6060604051806020016101f09061042f565b601f1982820381018352601f90910116604052905090565b6000826040516102179061042f565b61022191906106f7565b604051809103906000f08015801561023d573d6000803e3d6000fd5b508251909150156102635760008060008451602086016000865af1141561026357600080fd5b7f4f51faf6c4561ff95f067657e43439f0f856d97c04d9ec9070a6199ad418e2358184604051610294929190610725565b60405180910390a192915050565b6060604051806020016101f09061043c565b60008083836040516020016102ca9291906106d7565b6040516020818303038152906040528051906020012060001c90506102f08686836100e6565b91506001600160a01b03831615610366576040516303ca56a360e31b81526001600160a01b03841690631e52b518906103339085908a908a908a9060040161073f565b600060405180830381600087803b15801561034d57600080fd5b505af1158015610361573d6000803e3d6000fd5b505050505b50949350505050565b60008083805190602001208360405160200161038c92919061068a565b6040516020818303038152906040528051906020012090506000604051806020016103b69061042f565b601f1982820381018352601f9091011660408190526103e391906001600160a01b03891690602001610698565b6040516020818303038152906040529050818151826020016000f592506001600160a01b0383166104265760405162461bcd60e51b81526004016101d59061077c565b50509392505050565b61017d8061080883390190565b607c8061098583390190565b600082601f830112610458578081fd5b813567ffffffffffffffff80821115610473576104736107d9565b604051601f8301601f191681016020018281118282101715610497576104976107d9565b6040528281528483016020018610156104ae578384fd5b82602086016020830137918201602001929092529392505050565b600080600080606085870312156104de578384fd5b84356104e9816107ef565b9350602085013567ffffffffffffffff80821115610505578485fd5b818701915087601f830112610518578485fd5b813581811115610526578586fd5b886020828501011115610537578586fd5b95986020929092019750949560400135945092505050565b60008060408385031215610561578182fd5b823561056c816107ef565b9150602083013567ffffffffffffffff811115610587578182fd5b61059385828601610448565b9150509250929050565b6000806000606084860312156105b1578283fd5b83356105bc816107ef565b9250602084013567ffffffffffffffff8111156105d7578283fd5b6105e386828701610448565b925050604084013590509250925092565b60008060008060808587031215610609578384fd5b8435610614816107ef565b9350602085013567ffffffffffffffff81111561062f578384fd5b61063b87828801610448565b935050604085013591506060850135610653816107ef565b939692955090935050565b600081518084526106768160208601602086016107a9565b601f01601f19169290920160200192915050565b918252602082015260400190565b600083516106aa8184602088016107a9565b9190910191825250602001919050565b60609190911b6bffffffffffffffffffffffff1916815260140190565b91825260601b6bffffffffffffffffffffffff1916602082015260340190565b6001600160a01b0391909116815260200190565b60006020825261071e602083018461065e565b9392505050565b6001600160a01b0392831681529116602082015260400190565b6001600160a01b0385811682528416602082015260806040820181905260009061076b9083018561065e565b905082606083015295945050505050565b60208082526013908201527210dc99585d194c8818d85b1b0819985a5b1959606a1b604082015260600190565b60005b838110156107c45781810151838201526020016107ac565b838111156107d3576000848401525b50505050565b634e487b7160e01b600052604160045260246000fd5b6001600160a01b038116811461080457600080fd5b5056fe608060405234801561001057600080fd5b5060405161017d38038061017d83398101604081905261002f91610083565b6001600160a01b03811661005e5760405162461bcd60e51b8152600401610055906100b1565b60405180910390fd5b600080546001600160a01b0319166001600160a01b03929092169190911790556100f3565b600060208284031215610094578081fd5b81516001600160a01b03811681146100aa578182fd5b9392505050565b60208082526022908201527f496e76616c69642073696e676c65746f6e20616464726573732070726f766964604082015261195960f21b606082015260800190565b607c806101016000396000f3fe6080604052600080546001600160a01b0316813563530ca43760e11b1415602857808252602082f35b3682833781823684845af490503d82833e806041573d82fd5b503d81f3fea2646970667358221220933537d90275cfbb9962d96957aee653ed372240999151f8c26a9426a06c183c64736f6c634300080000336080604052600080546001600160a01b0316813563530ca43760e11b1415602857808252602082f35b3682833781823684845af490503d82833e806041573d82fd5b503d81f3fea2646970667358221220933537d90275cfbb9962d96957aee653ed372240999151f8c26a9426a06c183c64736f6c63430008000033a2646970667358221220df483018393a41e868860d1d9d2bec4ace87e65e6443c17c33dee393bcf015b164736f6c63430008000033",
			"opcodes": "PUSH1 0x80 PUSH1 0x40 MSTORE CALLVALUE DUP1 ISZERO PUSH2 0x10 JUMPI PUSH1 0x0 DUP1 REVERT JUMPDEST POP PUSH2 0xA36 DUP1 PUSH2 0x20 PUSH1 0x0 CODECOPY PUSH1 0x0 RETURN INVALID PUSH1 0x80 PUSH1 0x40 MSTORE CALLVALUE DUP1 ISZERO PUSH2 0x10 JUMPI PUSH1 0x0 DUP1 REVERT JUMPDEST POP PUSH1 0x4 CALLDATASIZE LT PUSH2 0x62 JUMPI PUSH1 0x0 CALLDATALOAD PUSH1 0xE0 SHR DUP1 PUSH4 0x1688F0B9 EQ PUSH2 0x67 JUMPI DUP1 PUSH4 0x2500510E EQ PUSH2 0x90 JUMPI DUP1 PUSH4 0x53E5D935 EQ PUSH2 0xA3 JUMPI DUP1 PUSH4 0x61B69ABD EQ PUSH2 0xB8 JUMPI DUP1 PUSH4 0xADDACC0F EQ PUSH2 0xCB JUMPI DUP1 PUSH4 0xD18AF54D EQ PUSH2 0xD3 JUMPI JUMPDEST PUSH1 0x0 DUP1 REVERT JUMPDEST PUSH2 0x7A PUSH2 0x75 CALLDATASIZE PUSH1 0x4 PUSH2 0x59D JUMP JUMPDEST PUSH2 0xE6 JUMP JUMPDEST PUSH1 0x40 MLOAD PUSH2 0x87 SWAP2 SWAP1 PUSH2 0x6F7 JUMP JUMPDEST PUSH1 0x40 MLOAD DUP1 SWAP2 SUB SWAP1 RETURN JUMPDEST PUSH2 0x7A PUSH2 0x9E CALLDATASIZE PUSH1 0x4 PUSH2 0x4C9 JUMP JUMPDEST PUSH2 0x158 JUMP JUMPDEST PUSH2 0xAB PUSH2 0x1DE JUMP JUMPDEST PUSH1 0x40 MLOAD PUSH2 0x87 SWAP2 SWAP1 PUSH2 0x70B JUMP JUMPDEST PUSH2 0x7A PUSH2 0xC6 CALLDATASIZE PUSH1 0x4 PUSH2 0x54F JUMP JUMPDEST PUSH2 0x208 JUMP JUMPDEST PUSH2 0xAB PUSH2 0x2A2 JUMP JUMPDEST PUSH2 0x7A PUSH2 0xE1 CALLDATASIZE PUSH1 0x4 PUSH2 0x5F4 JUMP JUMPDEST PUSH2 0x2B4 JUMP JUMPDEST PUSH1 0x0 PUSH2 0xF3 DUP5 DUP5 DUP5 PUSH2 0x36F JUMP JUMPDEST DUP4 MLOAD SWAP1 SWAP2 POP ISZERO PUSH2 0x118 JUMPI PUSH1 0x0 DUP1 PUSH1 0x0 DUP6 MLOAD PUSH1 0x20 DUP8 ADD PUSH1 0x0 DUP7 GAS CALL EQ ISZERO PUSH2 0x118 JUMPI PUSH1 0x0 DUP1 REVERT JUMPDEST PUSH32 0x4F51FAF6C4561FF95F067657E43439F0F856D97C04D9EC9070A6199AD418E235 DUP2 DUP6 PUSH1 0x40 MLOAD PUSH2 0x149 SWAP3 SWAP2 SWAP1 PUSH2 0x725 JUMP JUMPDEST PUSH1 0x40 MLOAD DUP1 SWAP2 SUB SWAP1 LOG1 SWAP4 SWAP3 POP POP POP JUMP JUMPDEST PUSH1 0x0 PUSH2 0x19C DUP6 DUP6 DUP6 DUP1 DUP1 PUSH1 0x1F ADD PUSH1 0x20 DUP1 SWAP2 DIV MUL PUSH1 0x20 ADD PUSH1 0x40 MLOAD SWAP1 DUP2 ADD PUSH1 0x40 MSTORE DUP1 SWAP4 SWAP3 SWAP2 SWAP1 DUP2 DUP2 MSTORE PUSH1 0x20 ADD DUP4 DUP4 DUP1 DUP3 DUP5 CALLDATACOPY PUSH1 0x0 SWAP3 ADD SWAP2 SWAP1 SWAP2 MSTORE POP DUP8 SWAP3 POP PUSH2 0x36F SWAP2 POP POP JUMP JUMPDEST SWAP1 POP DUP1 PUSH1 0x40 MLOAD PUSH1 0x20 ADD PUSH2 0x1AF SWAP2 SWAP1 PUSH2 0x6BA JUMP JUMPDEST PUSH1 0x40 DUP1 MLOAD PUSH1 0x1F NOT DUP2 DUP5 SUB ADD DUP2 MSTORE SWAP1 DUP3 SWAP1 MSTORE PUSH3 0x461BCD PUSH1 0xE5 SHL DUP3 MSTORE PUSH2 0x1D5 SWAP2 PUSH1 0x4 ADD PUSH2 0x70B JUMP JUMPDEST PUSH1 0x40 MLOAD DUP1 SWAP2 SUB SWAP1 REVERT JUMPDEST PUSH1 0x60 PUSH1 0x40 MLOAD DUP1 PUSH1 0x20 ADD PUSH2 0x1F0 SWAP1 PUSH2 0x42F JUMP JUMPDEST PUSH1 0x1F NOT DUP3 DUP3 SUB DUP2 ADD DUP4 MSTORE PUSH1 0x1F SWAP1 SWAP2 ADD AND PUSH1 0x40 MSTORE SWAP1 POP SWAP1 JUMP JUMPDEST PUSH1 0x0 DUP3 PUSH1 0x40 MLOAD PUSH2 0x217 SWAP1 PUSH2 0x42F JUMP JUMPDEST PUSH2 0x221 SWAP2 SWAP1 PUSH2 0x6F7 JUMP JUMPDEST PUSH1 0x40 MLOAD DUP1 SWAP2 SUB SWAP1 PUSH1 0x0 CREATE DUP1 ISZERO DUP1 ISZERO PUSH2 0x23D JUMPI RETURNDATASIZE PUSH1 0x0 DUP1 RETURNDATACOPY RETURNDATASIZE PUSH1 0x0 REVERT JUMPDEST POP DUP3 MLOAD SWAP1 SWAP2 POP ISZERO PUSH2 0x263 JUMPI PUSH1 0x0 DUP1 PUSH1 0x0 DUP5 MLOAD PUSH1 0x20 DUP7 ADD PUSH1 0x0 DUP7 GAS CALL EQ ISZERO PUSH2 0x263 JUMPI PUSH1 0x0 DUP1 REVERT JUMPDEST PUSH32 0x4F51FAF6C4561FF95F067657E43439F0F856D97C04D9EC9070A6199AD418E235 DUP2 DUP5 PUSH1 0x40 MLOAD PUSH2 0x294 SWAP3 SWAP2 SWAP1 PUSH2 0x725 JUMP JUMPDEST PUSH1 0x40 MLOAD DUP1 SWAP2 SUB SWAP1 LOG1 SWAP3 SWAP2 POP POP JUMP JUMPDEST PUSH1 0x60 PUSH1 0x40 MLOAD DUP1 PUSH1 0x20 ADD PUSH2 0x1F0 SWAP1 PUSH2 0x43C JUMP JUMPDEST PUSH1 0x0 DUP1 DUP4 DUP4 PUSH1 0x40 MLOAD PUSH1 0x20 ADD PUSH2 0x2CA SWAP3 SWAP2 SWAP1 PUSH2 0x6D7 JUMP JUMPDEST PUSH1 0x40 MLOAD PUSH1 0x20 DUP2 DUP4 SUB SUB DUP2 MSTORE SWAP1 PUSH1 0x40 MSTORE DUP1 MLOAD SWAP1 PUSH1 0x20 ADD KECCAK256 PUSH1 0x0 SHR SWAP1 POP PUSH2 0x2F0 DUP7 DUP7 DUP4 PUSH2 0xE6 JUMP JUMPDEST SWAP2 POP PUSH1 0x1 PUSH1 0x1 PUSH1 0xA0 SHL SUB DUP4 AND ISZERO PUSH2 0x366 JUMPI PUSH1 0x40 MLOAD PUSH4 0x3CA56A3 PUSH1 0xE3 SHL DUP2 MSTORE PUSH1 0x1 PUSH1 0x1 PUSH1 0xA0 SHL SUB DUP5 AND SWAP1 PUSH4 0x1E52B518 SWAP1 PUSH2 0x333 SWAP1 DUP6 SWAP1 DUP11 SWAP1 DUP11 SWAP1 DUP11 SWAP1 PUSH1 0x4 ADD PUSH2 0x73F JUMP JUMPDEST PUSH1 0x0 PUSH1 0x40 MLOAD DUP1 DUP4 SUB DUP2 PUSH1 0x0 DUP8 DUP1 EXTCODESIZE ISZERO DUP1 ISZERO PUSH2 0x34D JUMPI PUSH1 0x0 DUP1 REVERT JUMPDEST POP GAS CALL ISZERO DUP1 ISZERO PUSH2 0x361 JUMPI RETURNDATASIZE PUSH1 0x0 DUP1 RETURNDATACOPY RETURNDATASIZE PUSH1 0x0 REVERT JUMPDEST POP POP POP POP JUMPDEST POP SWAP5 SWAP4 POP POP POP POP JUMP JUMPDEST PUSH1 0x0 DUP1 DUP4 DUP1 MLOAD SWAP1 PUSH1 0x20 ADD KECCAK256 DUP4 PUSH1 0x40 MLOAD PUSH1 0x20 ADD PUSH2 0x38C SWAP3 SWAP2 SWAP1 PUSH2 0x68A JUMP JUMPDEST PUSH1 0x40 MLOAD PUSH1 0x20 DUP2 DUP4 SUB SUB DUP2 MSTORE SWAP1 PUSH1 0x40 MSTORE DUP1 MLOAD SWAP1 PUSH1 0x20 ADD KECCAK256 SWAP1 POP PUSH1 0x0 PUSH1 0x40 MLOAD DUP1 PUSH1 0x20 ADD PUSH2 0x3B6 SWAP1 PUSH2 0x42F JUMP JUMPDEST PUSH1 0x1F NOT DUP3 DUP3 SUB DUP2 ADD DUP4 MSTORE PUSH1 0x1F SWAP1 SWAP2 ADD AND PUSH1 0x40 DUP2 SWAP1 MSTORE PUSH2 0x3E3 SWAP2 SWAP1 PUSH1 0x1 PUSH1 0x1 PUSH1 0xA0 SHL SUB DUP10 AND SWAP1 PUSH1 0x20 ADD PUSH2 0x698 JUMP JUMPDEST PUSH1 0x40 MLOAD PUSH1 0x20 DUP2 DUP4 SUB SUB DUP2 MSTORE SWAP1 PUSH1 0x40 MSTORE SWAP1 POP DUP2 DUP2 MLOAD DUP3 PUSH1 0x20 ADD PUSH1 0x0 CREATE2 SWAP3 POP PUSH1 0x1 PUSH1 0x1 PUSH1 0xA0 SHL SUB DUP4 AND PUSH2 0x426 JUMPI PUSH1 0x40 MLOAD PUSH3 0x461BCD PUSH1 0xE5 SHL DUP2 MSTORE PUSH1 0x4 ADD PUSH2 0x1D5 SWAP1 PUSH2 0x77C JUMP JUMPDEST POP POP SWAP4 SWAP3 POP POP POP JUMP JUMPDEST PUSH2 0x17D DUP1 PUSH2 0x808 DUP4 CODECOPY ADD SWAP1 JUMP JUMPDEST PUSH1 0x7C DUP1 PUSH2 0x985 DUP4 CODECOPY ADD SWAP1 JUMP JUMPDEST PUSH1 0x0 DUP3 PUSH1 0x1F DUP4 ADD SLT PUSH2 0x458 JUMPI DUP1 DUP2 REVERT JUMPDEST DUP2 CALLDATALOAD PUSH8 0xFFFFFFFFFFFFFFFF DUP1 DUP3 GT ISZERO PUSH2 0x473 JUMPI PUSH2 0x473 PUSH2 0x7D9 JUMP JUMPDEST PUSH1 0x40 MLOAD PUSH1 0x1F DUP4 ADD PUSH1 0x1F NOT AND DUP2 ADD PUSH1 0x20 ADD DUP3 DUP2 GT DUP3 DUP3 LT OR ISZERO PUSH2 0x497 JUMPI PUSH2 0x497 PUSH2 0x7D9 JUMP JUMPDEST PUSH1 0x40 MSTORE DUP3 DUP2 MSTORE DUP5 DUP4 ADD PUSH1 0x20 ADD DUP7 LT ISZERO PUSH2 0x4AE JUMPI DUP4 DUP5 REVERT JUMPDEST DUP3 PUSH1 0x20 DUP7 ADD PUSH1 0x20 DUP4 ADD CALLDATACOPY SWAP2 DUP3 ADD PUSH1 0x20 ADD SWAP3 SWAP1 SWAP3 MSTORE SWAP4 SWAP3 POP POP POP JUMP JUMPDEST PUSH1 0x0 DUP1 PUSH1 0x0 DUP1 PUSH1 0x60 DUP6 DUP8 SUB SLT ISZERO PUSH2 0x4DE JUMPI DUP4 DUP5 REVERT JUMPDEST DUP5 CALLDATALOAD PUSH2 0x4E9 DUP2 PUSH2 0x7EF JUMP JUMPDEST SWAP4 POP PUSH1 0x20 DUP6 ADD CALLDATALOAD PUSH8 0xFFFFFFFFFFFFFFFF DUP1 DUP3 GT ISZERO PUSH2 0x505 JUMPI DUP5 DUP6 REVERT JUMPDEST DUP2 DUP8 ADD SWAP2 POP DUP8 PUSH1 0x1F DUP4 ADD SLT PUSH2 0x518 JUMPI DUP5 DUP6 REVERT JUMPDEST DUP2 CALLDATALOAD DUP2 DUP2 GT ISZERO PUSH2 0x526 JUMPI DUP6 DUP7 REVERT JUMPDEST DUP9 PUSH1 0x20 DUP3 DUP6 ADD ADD GT ISZERO PUSH2 0x537 JUMPI DUP6 DUP7 REVERT JUMPDEST SWAP6 SWAP9 PUSH1 0x20 SWAP3 SWAP1 SWAP3 ADD SWAP8 POP SWAP5 SWAP6 PUSH1 0x40 ADD CALLDATALOAD SWAP5 POP SWAP3 POP POP POP JUMP JUMPDEST PUSH1 0x0 DUP1 PUSH1 0x40 DUP4 DUP6 SUB SLT ISZERO PUSH2 0x561 JUMPI DUP2 DUP3 REVERT JUMPDEST DUP3 CALLDATALOAD PUSH2 0x56C DUP2 PUSH2 0x7EF JUMP JUMPDEST SWAP2 POP PUSH1 0x20 DUP4 ADD CALLDATALOAD PUSH8 0xFFFFFFFFFFFFFFFF DUP2 GT ISZERO PUSH2 0x587 JUMPI DUP2 DUP3 REVERT JUMPDEST PUSH2 0x593 DUP6 DUP3 DUP7 ADD PUSH2 0x448 JUMP JUMPDEST SWAP2 POP POP SWAP3 POP SWAP3 SWAP1 POP JUMP JUMPDEST PUSH1 0x0 DUP1 PUSH1 0x0 PUSH1 0x60 DUP5 DUP7 SUB SLT ISZERO PUSH2 0x5B1 JUMPI DUP3 DUP4 REVERT JUMPDEST DUP4 CALLDATALOAD PUSH2 0x5BC DUP2 PUSH2 0x7EF JUMP JUMPDEST SWAP3 POP PUSH1 0x20 DUP5 ADD CALLDATALOAD PUSH8 0xFFFFFFFFFFFFFFFF DUP2 GT ISZERO PUSH2 0x5D7 JUMPI DUP3 DUP4 REVERT JUMPDEST PUSH2 0x5E3 DUP7 DUP3 DUP8 ADD PUSH2 0x448 JUMP JUMPDEST SWAP3 POP POP PUSH1 0x40 DUP5 ADD CALLDATALOAD SWAP1 POP SWAP3 POP SWAP3 POP SWAP3 JUMP JUMPDEST PUSH1 0x0 DUP1 PUSH1 0x0 DUP1 PUSH1 0x80 DUP6 DUP8 SUB SLT ISZERO PUSH2 0x609 JUMPI DUP4 DUP5 REVERT JUMPDEST DUP5 CALLDATALOAD PUSH2 0x614 DUP2 PUSH2 0x7EF JUMP JUMPDEST SWAP4 POP PUSH1 0x20 DUP6 ADD CALLDATALOAD PUSH8 0xFFFFFFFFFFFFFFFF DUP2 GT ISZERO PUSH2 0x62F JUMPI DUP4 DUP5 REVERT JUMPDEST PUSH2 0x63B DUP8 DUP3 DUP9 ADD PUSH2 0x448 JUMP JUMPDEST SWAP4 POP POP PUSH1 0x40 DUP6 ADD CALLDATALOAD SWAP2 POP PUSH1 0x60 DUP6 ADD CALLDATALOAD PUSH2 0x653 DUP2 PUSH2 0x7EF JUMP JUMPDEST SWAP4 SWAP7 SWAP3 SWAP6 POP SWAP1 SWAP4 POP POP JUMP JUMPDEST PUSH1 0x0 DUP2 MLOAD DUP1 DUP5 MSTORE PUSH2 0x676 DUP2 PUSH1 0x20 DUP7 ADD PUSH1 0x20 DUP7 ADD PUSH2 0x7A9 JUMP JUMPDEST PUSH1 0x1F ADD PUSH1 0x1F NOT AND SWAP3 SWAP1 SWAP3 ADD PUSH1 0x20 ADD SWAP3 SWAP2 POP POP JUMP JUMPDEST SWAP2 DUP3 MSTORE PUSH1 0x20 DUP3 ADD MSTORE PUSH1 0x40 ADD SWAP1 JUMP JUMPDEST PUSH1 0x0 DUP4 MLOAD PUSH2 0x6AA DUP2 DUP5 PUSH1 0x20 DUP9 ADD PUSH2 0x7A9 JUMP JUMPDEST SWAP2 SWAP1 SWAP2 ADD SWAP2 DUP3 MSTORE POP PUSH1 0x20 ADD SWAP2 SWAP1 POP JUMP JUMPDEST PUSH1 0x60 SWAP2 SWAP1 SWAP2 SHL PUSH12 0xFFFFFFFFFFFFFFFFFFFFFFFF NOT AND DUP2 MSTORE PUSH1 0x14 ADD SWAP1 JUMP JUMPDEST SWAP2 DUP3 MSTORE PUSH1 0x60 SHL PUSH12 0xFFFFFFFFFFFFFFFFFFFFFFFF NOT AND PUSH1 0x20 DUP3 ADD MSTORE PUSH1 0x34 ADD SWAP1 JUMP JUMPDEST PUSH1 0x1 PUSH1 0x1 PUSH1 0xA0 SHL SUB SWAP2 SWAP1 SWAP2 AND DUP2 MSTORE PUSH1 0x20 ADD SWAP1 JUMP JUMPDEST PUSH1 0x0 PUSH1 0x20 DUP3 MSTORE PUSH2 0x71E PUSH1 0x20 DUP4 ADD DUP5 PUSH2 0x65E JUMP JUMPDEST SWAP4 SWAP3 POP POP POP JUMP JUMPDEST PUSH1 0x1 PUSH1 0x1 PUSH1 0xA0 SHL SUB SWAP3 DUP4 AND DUP2 MSTORE SWAP2 AND PUSH1 0x20 DUP3 ADD MSTORE PUSH1 0x40 ADD SWAP1 JUMP JUMPDEST PUSH1 0x1 PUSH1 0x1 PUSH1 0xA0 SHL SUB DUP6 DUP2 AND DUP3 MSTORE DUP5 AND PUSH1 0x20 DUP3 ADD MSTORE PUSH1 0x80 PUSH1 0x40 DUP3 ADD DUP2 SWAP1 MSTORE PUSH1 0x0 SWAP1 PUSH2 0x76B SWAP1 DUP4 ADD DUP6 PUSH2 0x65E JUMP JUMPDEST SWAP1 POP DUP3 PUSH1 0x60 DUP4 ADD MSTORE SWAP6 SWAP5 POP POP POP POP POP JUMP JUMPDEST PUSH1 0x20 DUP1 DUP3 MSTORE PUSH1 0x13 SWAP1 DUP3 ADD MSTORE PUSH19 0x10DC99585D194C8818D85B1B0819985A5B1959 PUSH1 0x6A SHL PUSH1 0x40 DUP3 ADD MSTORE PUSH1 0x60 ADD SWAP1 JUMP JUMPDEST PUSH1 0x0 JUMPDEST DUP4 DUP2 LT ISZERO PUSH2 0x7C4 JUMPI DUP2 DUP2 ADD MLOAD DUP4 DUP3 ADD MSTORE PUSH1 0x20 ADD PUSH2 0x7AC JUMP JUMPDEST DUP4 DUP2 GT ISZERO PUSH2 0x7D3 JUMPI PUSH1 0x0 DUP5 DUP5 ADD MSTORE JUMPDEST POP POP POP POP JUMP JUMPDEST PUSH4 0x4E487B71 PUSH1 0xE0 SHL PUSH1 0x0 MSTORE PUSH1 0x41 PUSH1 0x4 MSTORE PUSH1 0x24 PUSH1 0x0 REVERT JUMPDEST PUSH1 0x1 PUSH1 0x1 PUSH1 0xA0 SHL SUB DUP2 AND DUP2 EQ PUSH2 0x804 JUMPI PUSH1 0x0 DUP1 REVERT JUMPDEST POP JUMP INVALID PUSH1 0x80 PUSH1 0x40 MSTORE CALLVALUE DUP1 ISZERO PUSH2 0x10 JUMPI PUSH1 0x0 DUP1 REVERT JUMPDEST POP PUSH1 0x40 MLOAD PUSH2 0x17D CODESIZE SUB DUP1 PUSH2 0x17D DUP4 CODECOPY DUP2 ADD PUSH1 0x40 DUP2 SWAP1 MSTORE PUSH2 0x2F SWAP2 PUSH2 0x83 JUMP JUMPDEST PUSH1 0x1 PUSH1 0x1 PUSH1 0xA0 SHL SUB DUP2 AND PUSH2 0x5E JUMPI PUSH1 0x40 MLOAD PUSH3 0x461BCD PUSH1 0xE5 SHL DUP2 MSTORE PUSH1 0x4 ADD PUSH2 0x55 SWAP1 PUSH2 0xB1 JUMP JUMPDEST PUSH1 0x40 MLOAD DUP1 SWAP2 SUB SWAP1 REVERT JUMPDEST PUSH1 0x0 DUP1 SLOAD PUSH1 0x1 PUSH1 0x1 PUSH1 0xA0 SHL SUB NOT AND PUSH1 0x1 PUSH1 0x1 PUSH1 0xA0 SHL SUB SWAP3 SWAP1 SWAP3 AND SWAP2 SWAP1 SWAP2 OR SWAP1 SSTORE PUSH2 0xF3 JUMP JUMPDEST PUSH1 0x0 PUSH1 0x20 DUP3 DUP5 SUB SLT ISZERO PUSH2 0x94 JUMPI DUP1 DUP2 REVERT JUMPDEST DUP2 MLOAD PUSH1 0x1 PUSH1 0x1 PUSH1 0xA0 SHL SUB DUP2 AND DUP2 EQ PUSH2 0xAA JUMPI DUP2 DUP3 REVERT JUMPDEST SWAP4 SWAP3 POP POP POP JUMP JUMPDEST PUSH1 0x20 DUP1 DUP3 MSTORE PUSH1 0x22 SWAP1 DUP3 ADD MSTORE PUSH32 0x496E76616C69642073696E676C65746F6E20616464726573732070726F766964 PUSH1 0x40 DUP3 ADD MSTORE PUSH2 0x1959 PUSH1 0xF2 SHL PUSH1 0x60 DUP3 ADD MSTORE PUSH1 0x80 ADD SWAP1 JUMP JUMPDEST PUSH1 0x7C DUP1 PUSH2 0x101 PUSH1 0x0 CODECOPY PUSH1 0x0 RETURN INVALID PUSH1 0x80 PUSH1 0x40 MSTORE PUSH1 0x0 DUP1 SLOAD PUSH1 0x1 PUSH1 0x1 PUSH1 0xA0 SHL SUB AND DUP2 CALLDATALOAD PUSH4 0x530CA437 PUSH1 0xE1 SHL EQ ISZERO PUSH1 0x28 JUMPI DUP1 DUP3 MSTORE PUSH1 0x20 DUP3 RETURN JUMPDEST CALLDATASIZE DUP3 DUP4 CALLDATACOPY DUP2 DUP3 CALLDATASIZE DUP5 DUP5 GAS DELEGATECALL SWAP1 POP RETURNDATASIZE DUP3 DUP4 RETURNDATACOPY DUP1 PUSH1 0x41 JUMPI RETURNDATASIZE DUP3 REVERT JUMPDEST POP RETURNDATASIZE DUP2 RETURN INVALID LOG2 PUSH5 0x6970667358 0x22 SLT KECCAK256 SWAP4 CALLDATALOAD CALLDATACOPY 0xD9 MUL PUSH22 0xCFBB9962D96957AEE653ED372240999151F8C26A9426 LOG0 PUSH13 0x183C64736F6C63430008000033 PUSH1 0x80 PUSH1 0x40 MSTORE PUSH1 0x0 DUP1 SLOAD PUSH1 0x1 PUSH1 0x1 PUSH1 0xA0 SHL SUB AND DUP2 CALLDATALOAD PUSH4 0x530CA437 PUSH1 0xE1 SHL EQ ISZERO PUSH1 0x28 JUMPI DUP1 DUP3 MSTORE PUSH1 0x20 DUP3 RETURN JUMPDEST CALLDATASIZE DUP3 DUP4 CALLDATACOPY DUP2 DUP3 CALLDATASIZE DUP5 DUP5 GAS DELEGATECALL SWAP1 POP RETURNDATASIZE DUP3 DUP4 RETURNDATACOPY DUP1 PUSH1 0x41 JUMPI RETURNDATASIZE DUP3 REVERT JUMPDEST POP RETURNDATASIZE DUP2 RETURN INVALID LOG2 PUSH5 0x6970667358 0x22 SLT KECCAK256 SWAP4 CALLDATALOAD CALLDATACOPY 0xD9 MUL PUSH22 0xCFBB9962D96957AEE653ED372240999151F8C26A9426 LOG0 PUSH13 0x183C64736F6C63430008000033 LOG2 PUSH5 0x6970667358 0x22 SLT KECCAK256 0xDF 0x48 ADDRESS XOR CODECOPY GASPRICE COINBASE 0xE8 PUSH9 0x860D1D9D2BEC4ACE87 0xE6 0x5E PUSH5 0x43C17C33DE 0xE3 SWAP4 0xBC CREATE ISZERO 0xB1 PUSH5 0x736F6C6343 STOP ADDMOD STOP STOP CALLER "
		},
		"gasEstimates": {
			"creation": {
				"codeDepositCost": "522800",
				"executionCost": "556",
				"totalCost": "523356"
			},
			"external": {
				"calculateCreateProxyWithNonceAddress(address,bytes,uint256)": "infinite",
				"createProxy(address,bytes)": "infinite",
				"createProxyWithCallback(address,bytes,uint256,address)": "infinite",
				"createProxyWithNonce(address,bytes,uint256)": "infinite",
				"proxyCreationCode()": "infinite",
				"proxyRuntimeCode()": "infinite"
			},
			"internal": {
				"deployProxyWithNonce(address,bytes memory,uint256)": "infinite"
			}
		},
		"methodIdentifiers": {
			"calculateCreateProxyWithNonceAddress(address,bytes,uint256)": "2500510e",
			"createProxy(address,bytes)": "61b69abd",
			"createProxyWithCallback(address,bytes,uint256,address)": "d18af54d",
			"createProxyWithNonce(address,bytes,uint256)": "1688f0b9",
			"proxyCreationCode()": "53e5d935",
			"proxyRuntimeCode()": "addacc0f"
		}
	},
	"abi": [
		{
			"anonymous": false,
			"inputs": [
				{
					"indexed": false,
					"internalType": "contract GnosisSafeProxy",
					"name": "proxy",
					"type": "address"
				},
				{
					"indexed": false,
					"internalType": "address",
					"name": "singleton",
					"type": "address"
				}
			],
			"name": "ProxyCreation",
			"type": "event"
		},
		{
			"inputs": [
				{
					"internalType": "address",
					"name": "_singleton",
					"type": "address"
				},
				{
					"internalType": "bytes",
					"name": "initializer",
					"type": "bytes"
				},
				{
					"internalType": "uint256",
					"name": "saltNonce",
					"type": "uint256"
				}
			],
			"name": "calculateCreateProxyWithNonceAddress",
			"outputs": [
				{
					"internalType": "contract GnosisSafeProxy",
					"name": "proxy",
					"type": "address"
				}
			],
			"stateMutability": "nonpayable",
			"type": "function"
		},
		{
			"inputs": [
				{
					"internalType": "address",
					"name": "singleton",
					"type": "address"
				},
				{
					"internalType": "bytes",
					"name": "data",
					"type": "bytes"
				}
			],
			"name": "createProxy",
			"outputs": [
				{
					"internalType": "contract GnosisSafeProxy",
					"name": "proxy",
					"type": "address"
				}
			],
			"stateMutability": "nonpayable",
			"type": "function"
		},
		{
			"inputs": [
				{
					"internalType": "address",
					"name": "_singleton",
					"type": "address"
				},
				{
					"internalType": "bytes",
					"name": "initializer",
					"type": "bytes"
				},
				{
					"internalType": "uint256",
					"name": "saltNonce",
					"type": "uint256"
				},
				{
					"internalType": "contract IProxyCreationCallback",
					"name": "callback",
					"type": "address"
				}
			],
			"name": "createProxyWithCallback",
			"outputs": [
				{
					"internalType": "contract GnosisSafeProxy",
					"name": "proxy",
					"type": "address"
				}
			],
			"stateMutability": "nonpayable",
			"type": "function"
		},
		{
			"inputs": [
				{
					"internalType": "address",
					"name": "_singleton",
					"type": "address"
				},
				{
					"internalType": "bytes",
					"name": "initializer",
					"type": "bytes"
				},
				{
					"internalType": "uint256",
					"name": "saltNonce",
					"type": "uint256"
				}
			],
			"name": "createProxyWithNonce",
			"outputs": [
				{
					"internalType": "contract GnosisSafeProxy",
					"name": "proxy",
					"type": "address"
				}
			],
			"stateMutability": "nonpayable",
			"type": "function"
		},
		{
			"inputs": [],
			"name": "proxyCreationCode",
			"outputs": [
				{
					"internalType": "bytes",
					"name": "",
					"type": "bytes"
				}
			],
			"stateMutability": "pure",
			"type": "function"
		},
		{
			"inputs": [],
			"name": "proxyRuntimeCode",
			"outputs": [
				{
					"internalType": "bytes",
					"name": "",
					"type": "bytes"
				}
			],
			"stateMutability": "pure",
			"type": "function"
		}
	]
}