{
	"contracts/MultiSigWalletWithDailyLimit.sol": {
		"MultiSigWallet": {
			"abi": [
				{
					"constant": true,
					"inputs": [
						{
							"name": "",
							"type": "uint256"
						}
					],
					"name": "owners",
					"outputs": [
						{
							"name": "",
							"type": "address"
						}
					],
					"payable": false,
					"stateMutability": "view",
					"type": "function"
				},
				{
					"constant": false,
					"inputs": [
						{
							"name": "owner",
							"type": "address"
						}
					],
					"name": "removeOwner",
					"outputs": [],
					"payable": false,
					"stateMutability": "nonpayable",
					"type": "function"
				},
				{
					"constant": false,
					"inputs": [
						{
							"name": "transactionId",
							"type": "uint256"
						}
					],
					"name": "revokeConfirmation",
					"outputs": [],
					"payable": false,
					"stateMutability": "nonpayable",
					"type": "function"
				},
				{
					"constant": true,
					"inputs": [
						{
							"name": "",
							"type": "address"
						}
					],
					"name": "isOwner",
					"outputs": [
						{
							"name": "",
							"type": "bool"
						}
					],
					"payable": false,
					"stateMutability": "view",
					"type": "function"
				},
				{
					"constant": true,
					"inputs": [
						{
							"name": "",
							"type": "uint256"
						},
						{
							"name": "",
							"type": "address"
						}
					],
					"name": "confirmations",
					"outputs": [
						{
							"name": "",
							"type": "bool"
						}
					],
					"payable": false,
					"stateMutability": "view",
					"type": "function"
				},
				{
					"constant": true,
					"inputs": [
						{
							"name": "pending",
							"type": "bool"
						},
						{
							"name": "executed",
							"type": "bool"
						}
					],
					"name": "getTransactionCount",
					"outputs": [
						{
							"name": "count",
							"type": "uint256"
						}
					],
					"payable": false,
					"stateMutability": "view",
					"type": "function"
				},
				{
					"constant": false,
					"inputs": [
						{
							"name": "owner",
							"type": "address"
						}
					],
					"name": "addOwner",
					"outputs": [],
					"payable": false,
					"stateMutability": "nonpayable",
					"type": "function"
				},
				{
					"constant": true,
					"inputs": [
						{
							"name": "transactionId",
							"type": "uint256"
						}
					],
					"name": "isConfirmed",
					"outputs": [
						{
							"name": "",
							"type": "bool"
						}
					],
					"payable": false,
					"stateMutability": "view",
					"type": "function"
				},
				{
					"constant": true,
					"inputs": [
						{
							"name": "transactionId",
							"type": "uint256"
						}
					],
					"name": "getConfirmationCount",
					"outputs": [
						{
							"name": "count",
							"type": "uint256"
						}
					],
					"payable": false,
					"stateMutability": "view",
					"type": "function"
				},
				{
					"constant": true,
					"inputs": [
						{
							"name": "",
							"type": "uint256"
						}
					],
					"name": "transactions",
					"outputs": [
						{
							"name": "destination",
							"type": "address"
						},
						{
							"name": "value",
							"type": "uint256"
						},
						{
							"name": "data",
							"type": "bytes"
						},
						{
							"name": "executed",
							"type": "bool"
						}
					],
					"payable": false,
					"stateMutability": "view",
					"type": "function"
				},
				{
					"constant": true,
					"inputs": [],
					"name": "getOwners",
					"outputs": [
						{
							"name": "",
							"type": "address[]"
						}
					],
					"payable": false,
					"stateMutability": "view",
					"type": "function"
				},
				{
					"constant": true,
					"inputs": [
						{
							"name": "from",
							"type": "uint256"
						},
						{
							"name": "to",
							"type": "uint256"
						},
						{
							"name": "pending",
							"type": "bool"
						},
						{
							"name": "executed",
							"type": "bool"
						}
					],
					"name": "getTransactionIds",
					"outputs": [
						{
							"name": "_transactionIds",
							"type": "uint256[]"
						}
					],
					"payable": false,
					"stateMutability": "view",
					"type": "function"
				},
				{
					"constant": true,
					"inputs": [
						{
							"name": "transactionId",
							"type": "uint256"
						}
					],
					"name": "getConfirmations",
					"outputs": [
						{
							"name": "_confirmations",
							"type": "address[]"
						}
					],
					"payable": false,
					"stateMutability": "view",
					"type": "function"
				},
				{
					"constant": true,
					"inputs": [],
					"name": "transactionCount",
					"outputs": [
						{
							"name": "",
							"type": "uint256"
						}
					],
					"payable": false,
					"stateMutability": "view",
					"type": "function"
				},
				{
					"constant": false,
					"inputs": [
						{
							"name": "_required",
							"type": "uint256"
						}
					],
					"name": "changeRequirement",
					"outputs": [],
					"payable": false,
					"stateMutability": "nonpayable",
					"type": "function"
				},
				{
					"constant": false,
					"inputs": [
						{
							"name": "transactionId",
							"type": "uint256"
						}
					],
					"name": "confirmTransaction",
					"outputs": [],
					"payable": false,
					"stateMutability": "nonpayable",
					"type": "function"
				},
				{
					"constant": false,
					"inputs": [
						{
							"name": "destination",
							"type": "address"
						},
						{
							"name": "value",
							"type": "uint256"
						},
						{
							"name": "data",
							"type": "bytes"
						}
					],
					"name": "submitTransaction",
					"outputs": [
						{
							"name": "transactionId",
							"type": "uint256"
						}
					],
					"payable": false,
					"stateMutability": "nonpayable",
					"type": "function"
				},
				{
					"constant": true,
					"inputs": [],
					"name": "MAX_OWNER_COUNT",
					"outputs": [
						{
							"name": "",
							"type": "uint256"
						}
					],
					"payable": false,
					"stateMutability": "view",
					"type": "function"
				},
				{
					"constant": true,
					"inputs": [],
					"name": "required",
					"outputs": [
						{
							"name": "",
							"type": "uint256"
						}
					],
					"payable": false,
					"stateMutability": "view",
					"type": "function"
				},
				{
					"constant": false,
					"inputs": [
						{
							"name": "owner",
							"type": "address"
						},
						{
							"name": "newOwner",
							"type": "address"
						}
					],
					"name": "replaceOwner",
					"outputs": [],
					"payable": false,
					"stateMutability": "nonpayable",
					"type": "function"
				},
				{
					"constant": false,
					"inputs": [
						{
							"name": "transactionId",
							"type": "uint256"
						}
					],
					"name": "executeTransaction",
					"outputs": [],
					"payable": false,
					"stateMutability": "nonpayable",
					"type": "function"
				},
				{
					"inputs": [
						{
							"name": "_owners",
							"type": "address[]"
						},
						{
							"name": "_required",
							"type": "uint256"
						}
					],
					"payable": false,
					"stateMutability": "nonpayable",
					"type": "constructor"
				},
				{
					"payable": true,
					"stateMutability": "payable",
					"type": "fallback"
				},
				{
					"anonymous": false,
					"inputs": [
						{
							"indexed": true,
							"name": "sender",
							"type": "address"
						},
						{
							"indexed": true,
							"name": "transactionId",
							"type": "uint256"
						}
					],
					"name": "Confirmation",
					"type": "event"
				},
				{
					"anonymous": false,
					"inputs": [
						{
							"indexed": true,
							"name": "sender",
							"type": "address"
						},
						{
							"indexed": true,
							"name": "transactionId",
							"type": "uint256"
						}
					],
					"name": "Revocation",
					"type": "event"
				},
				{
					"anonymous": false,
					"inputs": [
						{
							"indexed": true,
							"name": "transactionId",
							"type": "uint256"
						}
					],
					"name": "Submission",
					"type": "event"
				},
				{
					"anonymous": false,
					"inputs": [
						{
							"indexed": true,
							"name": "transactionId",
							"type": "uint256"
						}
					],
					"name": "Execution",
					"type": "event"
				},
				{
					"anonymous": false,
					"inputs": [
						{
							"indexed": true,
							"name": "transactionId",
							"type": "uint256"
						}
					],
					"name": "ExecutionFailure",
					"type": "event"
				},
				{
					"anonymous": false,
					"inputs": [
						{
							"indexed": true,
							"name": "sender",
							"type": "address"
						},
						{
							"indexed": false,
							"name": "value",
							"type": "uint256"
						}
					],
					"name": "Deposit",
					"type": "event"
				},
				{
					"anonymous": false,
					"inputs": [
						{
							"indexed": true,
							"name": "owner",
							"type": "address"
						}
					],
					"name": "OwnerAddition",
					"type": "event"
				},
				{
					"anonymous": false,
					"inputs": [
						{
							"indexed": true,
							"name": "owner",
							"type": "address"
						}
					],
					"name": "OwnerRemoval",
					"type": "event"
				},
				{
					"anonymous": false,
					"inputs": [
						{
							"indexed": false,
							"name": "required",
							"type": "uint256"
						}
					],
					"name": "RequirementChange",
					"type": "event"
				}
			],
			"devdoc": {
				"author": "Stefan George - <stefan.george@consensys.net>",
				"methods": {
					"addOwner(address)": {
						"details": "Allows to add a new owner. Transaction has to be sent by wallet.",
						"params": {
							"owner": "Address of new owner."
						}
					},
					"changeRequirement(uint256)": {
						"details": "Allows to change the number of required confirmations. Transaction has to be sent by wallet.",
						"params": {
							"_required": "Number of required confirmations."
						}
					},
					"confirmTransaction(uint256)": {
						"details": "Allows an owner to confirm a transaction.",
						"params": {
							"transactionId": "Transaction ID."
						}
					},
					"executeTransaction(uint256)": {
						"details": "Allows anyone to execute a confirmed transaction.",
						"params": {
							"transactionId": "Transaction ID."
						}
					},
					"getConfirmationCount(uint256)": {
						"details": "Returns number of confirmations of a transaction.",
						"params": {
							"transactionId": "Transaction ID."
						},
						"return": "Number of confirmations."
					},
					"getConfirmations(uint256)": {
						"details": "Returns array with owner addresses, which confirmed transaction.",
						"params": {
							"transactionId": "Transaction ID."
						},
						"return": "Returns array of owner addresses."
					},
					"getOwners()": {
						"details": "Returns list of owners.",
						"return": "List of owner addresses."
					},
					"getTransactionCount(bool,bool)": {
						"details": "Returns total number of transactions after filers are applied.",
						"params": {
							"executed": "Include executed transactions.",
							"pending": "Include pending transactions."
						},
						"return": "Total number of transactions after filters are applied."
					},
					"getTransactionIds(uint256,uint256,bool,bool)": {
						"details": "Returns list of transaction IDs in defined range.",
						"params": {
							"executed": "Include executed transactions.",
							"from": "Index start position of transaction array.",
							"pending": "Include pending transactions.",
							"to": "Index end position of transaction array."
						},
						"return": "Returns array of transaction IDs."
					},
					"isConfirmed(uint256)": {
						"details": "Returns the confirmation status of a transaction.",
						"params": {
							"transactionId": "Transaction ID."
						},
						"return": "Confirmation status."
					},
					"removeOwner(address)": {
						"details": "Allows to remove an owner. Transaction has to be sent by wallet.",
						"params": {
							"owner": "Address of owner."
						}
					},
					"replaceOwner(address,address)": {
						"details": "Allows to replace an owner with a new owner. Transaction has to be sent by wallet.",
						"params": {
							"newOwner": "Address of new owner.",
							"owner": "Address of owner to be replaced."
						}
					},
					"revokeConfirmation(uint256)": {
						"details": "Allows an owner to revoke a confirmation for a transaction.",
						"params": {
							"transactionId": "Transaction ID."
						}
					},
					"submitTransaction(address,uint256,bytes)": {
						"details": "Allows an owner to submit and confirm a transaction.",
						"params": {
							"data": "Transaction data payload.",
							"destination": "Transaction target address.",
							"value": "Transaction ether value."
						},
						"return": "Returns transaction ID."
					}
				},
				"title": "Multisignature wallet - Allows multiple parties to agree on transactions before execution."
			},
			"evm": {
				"assembly": "    /* \"contracts/MultiSigWalletWithDailyLimit.sol\":228:12856  contract MultiSigWallet {... */\n  mstore(0x40, 0x80)\n    /* \"contracts/MultiSigWalletWithDailyLimit.sol\":2857:3210  function MultiSigWallet(address[] _owners, uint _required)... */\n  callvalue\n    /* \"--CODEGEN--\":8:17   */\n  dup1\n    /* \"--CODEGEN--\":5:7   */\n  iszero\n  tag_1\n  jumpi\n    /* \"--CODEGEN--\":30:31   */\n  0x0\n    /* \"--CODEGEN--\":27:28   */\n  dup1\n    /* \"--CODEGEN--\":20:32   */\n  revert\n    /* \"--CODEGEN--\":5:7   */\ntag_1:\n    /* \"contracts/MultiSigWalletWithDailyLimit.sol\":2857:3210  function MultiSigWallet(address[] _owners, uint _required)... */\n  pop\n  mload(0x40)\n  sub(codesize, bytecodeSize)\n  dup1\n  bytecodeSize\n  dup4\n  codecopy\n  dup2\n  add\n  0x40\n  mstore\n  dup1\n  mload\n  0x20\n  dup3\n  add\n  mload\n  swap2\n  add\n    /* \"contracts/MultiSigWalletWithDailyLimit.sol\":2956:2970  _owners.length */\n  dup1\n  mload\n    /* \"contracts/MultiSigWalletWithDailyLimit.sol\":2857:3210  function MultiSigWallet(address[] _owners, uint _required)... */\n  swap1\n  swap2\n  swap1\n    /* \"contracts/MultiSigWalletWithDailyLimit.sol\":3002:3008  uint i */\n  0x0\n  swap1\n    /* \"contracts/MultiSigWalletWithDailyLimit.sol\":2857:3210  function MultiSigWallet(address[] _owners, uint _required)... */\n  dup3\n    /* \"contracts/MultiSigWalletWithDailyLimit.sol\":861:863  50 */\n  0x32\n    /* \"contracts/MultiSigWalletWithDailyLimit.sol\":2295:2324  ownerCount <= MAX_OWNER_COUNT */\n  dup3\n  gt\n  dup1\n  iszero\n  swap1\n    /* \"contracts/MultiSigWalletWithDailyLimit.sol\":2295:2363  ownerCount <= MAX_OWNER_COUNT... */\n  tag_4\n  jumpi\n  pop\n    /* \"contracts/MultiSigWalletWithDailyLimit.sol\":2353:2363  ownerCount */\n  dup2\n    /* \"contracts/MultiSigWalletWithDailyLimit.sol\":2340:2349  _required */\n  dup2\n    /* \"contracts/MultiSigWalletWithDailyLimit.sol\":2340:2363  _required <= ownerCount */\n  gt\n  iszero\n    /* \"contracts/MultiSigWalletWithDailyLimit.sol\":2295:2363  ownerCount <= MAX_OWNER_COUNT... */\ntag_4:\n    /* \"contracts/MultiSigWalletWithDailyLimit.sol\":2295:2393  ownerCount <= MAX_OWNER_COUNT... */\n  dup1\n  iszero\n  tag_5\n  jumpi\n  pop\n    /* \"contracts/MultiSigWalletWithDailyLimit.sol\":2379:2393  _required != 0 */\n  dup1\n  iszero\n  iszero\n    /* \"contracts/MultiSigWalletWithDailyLimit.sol\":2295:2393  ownerCount <= MAX_OWNER_COUNT... */\ntag_5:\n    /* \"contracts/MultiSigWalletWithDailyLimit.sol\":2295:2424  ownerCount <= MAX_OWNER_COUNT... */\n  dup1\n  iszero\n  tag_6\n  jumpi\n  pop\n    /* \"contracts/MultiSigWalletWithDailyLimit.sol\":2409:2424  ownerCount != 0 */\n  dup2\n  iszero\n  iszero\n    /* \"contracts/MultiSigWalletWithDailyLimit.sol\":2295:2424  ownerCount <= MAX_OWNER_COUNT... */\ntag_6:\n    /* \"contracts/MultiSigWalletWithDailyLimit.sol\":2287:2425  require(ownerCount <= MAX_OWNER_COUNT... */\n  iszero\n  iszero\n  tag_7\n  jumpi\n  0x0\n  dup1\n  revert\ntag_7:\n    /* \"contracts/MultiSigWalletWithDailyLimit.sol\":3009:3010  0 */\n  0x0\n    /* \"contracts/MultiSigWalletWithDailyLimit.sol\":3002:3010  uint i=0 */\n  swap3\n  pop\n    /* \"contracts/MultiSigWalletWithDailyLimit.sol\":2997:3148  for (uint i=0; i<_owners.length; i++) {... */\ntag_9:\n    /* \"contracts/MultiSigWalletWithDailyLimit.sol\":3014:3021  _owners */\n  dup5\n    /* \"contracts/MultiSigWalletWithDailyLimit.sol\":3014:3028  _owners.length */\n  mload\n    /* \"contracts/MultiSigWalletWithDailyLimit.sol\":3012:3013  i */\n  dup4\n    /* \"contracts/MultiSigWalletWithDailyLimit.sol\":3012:3028  i<_owners.length */\n  lt\n    /* \"contracts/MultiSigWalletWithDailyLimit.sol\":2997:3148  for (uint i=0; i<_owners.length; i++) {... */\n  iszero\n  tag_10\n  jumpi\n    /* \"contracts/MultiSigWalletWithDailyLimit.sol\":3058:3065  isOwner */\n  0x2\n    /* \"contracts/MultiSigWalletWithDailyLimit.sol\":3058:3077  isOwner[_owners[i]] */\n  0x0\n    /* \"contracts/MultiSigWalletWithDailyLimit.sol\":3066:3073  _owners */\n  dup7\n    /* \"contracts/MultiSigWalletWithDailyLimit.sol\":3074:3075  i */\n  dup6\n    /* \"contracts/MultiSigWalletWithDailyLimit.sol\":3066:3076  _owners[i] */\n  dup2\n  mload\n  dup2\n  lt\n  iszero\n  iszero\n  tag_12\n  jumpi\n  invalid\ntag_12:\n  0x20\n  swap1\n  dup2\n  mul\n  swap1\n  swap2\n  add\n  dup2\n  add\n  mload\n  sub(exp(0x2, 0xa0), 0x1)\n    /* \"contracts/MultiSigWalletWithDailyLimit.sol\":3058:3077  isOwner[_owners[i]] */\n  and\n  dup3\n  mstore\n  dup2\n  add\n  swap2\n  swap1\n  swap2\n  mstore\n  0x40\n  add\n  0x0\n  keccak256\n  sload\n  0xff\n  and\n    /* \"contracts/MultiSigWalletWithDailyLimit.sol\":3057:3077  !isOwner[_owners[i]] */\n  iszero\n    /* \"contracts/MultiSigWalletWithDailyLimit.sol\":3057:3096  !isOwner[_owners[i]] && _owners[i] != 0 */\n  dup1\n  iszero\n  tag_13\n  jumpi\n  pop\n    /* \"contracts/MultiSigWalletWithDailyLimit.sol\":3081:3088  _owners */\n  dup5\n    /* \"contracts/MultiSigWalletWithDailyLimit.sol\":3089:3090  i */\n  dup4\n    /* \"contracts/MultiSigWalletWithDailyLimit.sol\":3081:3091  _owners[i] */\n  dup2\n  mload\n  dup2\n  lt\n  iszero\n  iszero\n  tag_14\n  jumpi\n  invalid\ntag_14:\n  swap1\n  0x20\n  add\n  swap1\n  0x20\n  mul\n  add\n  mload\n  sub(exp(0x2, 0xa0), 0x1)\n    /* \"contracts/MultiSigWalletWithDailyLimit.sol\":3081:3096  _owners[i] != 0 */\n  and\n    /* \"contracts/MultiSigWalletWithDailyLimit.sol\":3095:3096  0 */\n  0x0\n    /* \"contracts/MultiSigWalletWithDailyLimit.sol\":3081:3096  _owners[i] != 0 */\n  eq\n  iszero\n    /* \"contracts/MultiSigWalletWithDailyLimit.sol\":3057:3096  !isOwner[_owners[i]] && _owners[i] != 0 */\ntag_13:\n    /* \"contracts/MultiSigWalletWithDailyLimit.sol\":3049:3097  require(!isOwner[_owners[i]] && _owners[i] != 0) */\n  iszero\n  iszero\n  tag_15\n  jumpi\n  0x0\n  dup1\n  revert\ntag_15:\n    /* \"contracts/MultiSigWalletWithDailyLimit.sol\":3133:3137  true */\n  0x1\n    /* \"contracts/MultiSigWalletWithDailyLimit.sol\":3111:3118  isOwner */\n  0x2\n    /* \"contracts/MultiSigWalletWithDailyLimit.sol\":3111:3130  isOwner[_owners[i]] */\n  0x0\n    /* \"contracts/MultiSigWalletWithDailyLimit.sol\":3119:3126  _owners */\n  dup8\n    /* \"contracts/MultiSigWalletWithDailyLimit.sol\":3127:3128  i */\n  dup7\n    /* \"contracts/MultiSigWalletWithDailyLimit.sol\":3119:3129  _owners[i] */\n  dup2\n  mload\n  dup2\n  lt\n  iszero\n  iszero\n  tag_16\n  jumpi\n  invalid\ntag_16:\n  0x20\n  swap1\n  dup2\n  mul\n  swap2\n  swap1\n  swap2\n  add\n  dup2\n  add\n  mload\n  sub(exp(0x2, 0xa0), 0x1)\n    /* \"contracts/MultiSigWalletWithDailyLimit.sol\":3111:3130  isOwner[_owners[i]] */\n  and\n  dup3\n  mstore\n  dup2\n  add\n  swap2\n  swap1\n  swap2\n  mstore\n  0x40\n  add\n  0x0\n  keccak256\n    /* \"contracts/MultiSigWalletWithDailyLimit.sol\":3111:3137  isOwner[_owners[i]] = true */\n  dup1\n  sload\n  not(0xff)\n  and\n  swap2\n  iszero\n  iszero\n  swap2\n  swap1\n  swap2\n  or\n  swap1\n  sstore\n  0x1\n    /* \"contracts/MultiSigWalletWithDailyLimit.sol\":3030:3033  i++ */\n  swap3\n  swap1\n  swap3\n  add\n  swap2\n    /* \"contracts/MultiSigWalletWithDailyLimit.sol\":2997:3148  for (uint i=0; i<_owners.length; i++) {... */\n  jump(tag_9)\ntag_10:\n    /* \"contracts/MultiSigWalletWithDailyLimit.sol\":3157:3173  owners = _owners */\n  dup5\n  mload\n  tag_17\n  swap1\n    /* \"contracts/MultiSigWalletWithDailyLimit.sol\":3157:3163  owners */\n  0x3\n  swap1\n    /* \"contracts/MultiSigWalletWithDailyLimit.sol\":3157:3173  owners = _owners */\n  0x20\n  dup9\n  add\n  swap1\n  jump\t// in(tag_18)\ntag_17:\n  pop\n  pop\n  pop\n    /* \"contracts/MultiSigWalletWithDailyLimit.sol\":3183:3191  required */\n  0x4\n    /* \"contracts/MultiSigWalletWithDailyLimit.sol\":3183:3203  required = _required */\n  swap2\n  swap1\n  swap2\n  sstore\n  pop\n    /* \"contracts/MultiSigWalletWithDailyLimit.sol\":228:12856  contract MultiSigWallet {... */\n  tag_19\n  swap1\n  pop\n  jump\ntag_18:\n  dup3\n  dup1\n  sload\n  dup3\n  dup3\n  sstore\n  swap1\n  0x0\n  mstore\n  keccak256(0x0, 0x20)\n  swap1\n  dup2\n  add\n  swap3\n  dup3\n  iszero\n  tag_22\n  jumpi\n  swap2\n  0x20\n  mul\n  dup3\n  add\ntag_21:\n  dup3\n  dup2\n  gt\n  iszero\n  tag_22\n  jumpi\n  dup3\n  mload\n  dup3\n  sload\n  not(sub(exp(0x2, 0xa0), 0x1))\n  and\n  sub(exp(0x2, 0xa0), 0x1)\n  swap1\n  swap2\n  and\n  or\n  dup3\n  sstore\n  0x20\n  swap1\n  swap3\n  add\n  swap2\n  0x1\n  swap1\n  swap2\n  add\n  swap1\n  jump(tag_21)\ntag_22:\n  pop\n  tag_23\n  swap3\n  swap2\n  pop\n  jump\t// in(tag_24)\ntag_23:\n  pop\n  swap1\n  jump\t// out\ntag_24:\n  tag_25\n  swap2\n  swap1\ntag_26:\n  dup1\n  dup3\n  gt\n  iszero\n  tag_23\n  jumpi\n  dup1\n  sload\n  not(sub(exp(0x2, 0xa0), 0x1))\n  and\n  dup2\n  sstore\n  0x1\n  add\n  jump(tag_26)\ntag_25:\n  swap1\n  jump\t// out\ntag_19:\n  dataSize(sub_0)\n  dup1\n  dataOffset(sub_0)\n  0x0\n  codecopy\n  0x0\n  return\nstop\n\nsub_0: assembly {\n        /* \"contracts/MultiSigWalletWithDailyLimit.sol\":228:12856  contract MultiSigWallet {... */\n      mstore(0x40, 0x80)\n      jumpi(tag_1, lt(calldatasize, 0x4))\n      and(div(calldataload(0x0), 0x100000000000000000000000000000000000000000000000000000000), 0xffffffff)\n      0x25e7c27\n      dup2\n      eq\n      tag_2\n      jumpi\n      dup1\n      0x173825d9\n      eq\n      tag_3\n      jumpi\n      dup1\n      0x20ea8d86\n      eq\n      tag_4\n      jumpi\n      dup1\n      0x2f54bf6e\n      eq\n      tag_5\n      jumpi\n      dup1\n      0x3411c81c\n      eq\n      tag_6\n      jumpi\n      dup1\n      0x54741525\n      eq\n      tag_7\n      jumpi\n      dup1\n      0x7065cb48\n      eq\n      tag_8\n      jumpi\n      dup1\n      0x784547a7\n      eq\n      tag_9\n      jumpi\n      dup1\n      0x8b51d13f\n      eq\n      tag_10\n      jumpi\n      dup1\n      0x9ace38c2\n      eq\n      tag_11\n      jumpi\n      dup1\n      0xa0e67e2b\n      eq\n      tag_12\n      jumpi\n      dup1\n      0xa8abe69a\n      eq\n      tag_13\n      jumpi\n      dup1\n      0xb5dc40c3\n      eq\n      tag_14\n      jumpi\n      dup1\n      0xb77bf600\n      eq\n      tag_15\n      jumpi\n      dup1\n      0xba51a6df\n      eq\n      tag_16\n      jumpi\n      dup1\n      0xc01a8c84\n      eq\n      tag_17\n      jumpi\n      dup1\n      0xc6427474\n      eq\n      tag_18\n      jumpi\n      dup1\n      0xd74f8edd\n      eq\n      tag_19\n      jumpi\n      dup1\n      0xdc8452cd\n      eq\n      tag_20\n      jumpi\n      dup1\n      0xe20056e6\n      eq\n      tag_21\n      jumpi\n      dup1\n      0xee22610b\n      eq\n      tag_22\n      jumpi\n    tag_1:\n        /* \"contracts/MultiSigWalletWithDailyLimit.sol\":2562:2563  0 */\n      0x0\n        /* \"contracts/MultiSigWalletWithDailyLimit.sol\":2550:2559  msg.value */\n      callvalue\n        /* \"contracts/MultiSigWalletWithDailyLimit.sol\":2550:2563  msg.value > 0 */\n      gt\n        /* \"contracts/MultiSigWalletWithDailyLimit.sol\":2546:2607  if (msg.value > 0)... */\n      iszero\n      tag_25\n      jumpi\n        /* \"contracts/MultiSigWalletWithDailyLimit.sol\":2577:2607  Deposit(msg.sender, msg.value) */\n      0x40\n      dup1\n      mload\n        /* \"contracts/MultiSigWalletWithDailyLimit.sol\":2597:2606  msg.value */\n      callvalue\n        /* \"contracts/MultiSigWalletWithDailyLimit.sol\":2577:2607  Deposit(msg.sender, msg.value) */\n      dup2\n      mstore\n      swap1\n      mload\n        /* \"contracts/MultiSigWalletWithDailyLimit.sol\":2585:2595  msg.sender */\n      caller\n      swap2\n        /* \"contracts/MultiSigWalletWithDailyLimit.sol\":2577:2607  Deposit(msg.sender, msg.value) */\n      0xe1fffcc4923d04b559f4d29a8bfc6cda04eb5b0d3c460751c2402c5c5cc9109c\n      swap2\n      swap1\n      dup2\n      swap1\n      sub\n      0x20\n      add\n      swap1\n      log2\n        /* \"contracts/MultiSigWalletWithDailyLimit.sol\":2546:2607  if (msg.value > 0)... */\n    tag_25:\n        /* \"contracts/MultiSigWalletWithDailyLimit.sol\":228:12856  contract MultiSigWallet {... */\n      stop\n        /* \"contracts/MultiSigWalletWithDailyLimit.sol\":1072:1095  address[] public owners */\n    tag_2:\n      callvalue\n        /* \"--CODEGEN--\":8:17   */\n      dup1\n        /* \"--CODEGEN--\":5:7   */\n      iszero\n      tag_26\n      jumpi\n        /* \"--CODEGEN--\":30:31   */\n      0x0\n        /* \"--CODEGEN--\":27:28   */\n      dup1\n        /* \"--CODEGEN--\":20:32   */\n      revert\n        /* \"--CODEGEN--\":5:7   */\n    tag_26:\n      pop\n        /* \"contracts/MultiSigWalletWithDailyLimit.sol\":1072:1095  address[] public owners */\n      tag_27\n      calldataload(0x4)\n      jump(tag_28)\n    tag_27:\n      0x40\n      dup1\n      mload\n      sub(exp(0x2, 0xa0), 0x1)\n      swap1\n      swap3\n      and\n      dup3\n      mstore\n      mload\n      swap1\n      dup2\n      swap1\n      sub\n      0x20\n      add\n      swap1\n      return\n        /* \"contracts/MultiSigWalletWithDailyLimit.sol\":3737:4197  function removeOwner(address owner)... */\n    tag_3:\n      callvalue\n        /* \"--CODEGEN--\":8:17   */\n      dup1\n        /* \"--CODEGEN--\":5:7   */\n      iszero\n      tag_29\n      jumpi\n        /* \"--CODEGEN--\":30:31   */\n      0x0\n        /* \"--CODEGEN--\":27:28   */\n      dup1\n        /* \"--CODEGEN--\":20:32   */\n      revert\n        /* \"--CODEGEN--\":5:7   */\n    tag_29:\n      pop\n        /* \"contracts/MultiSigWalletWithDailyLimit.sol\":3737:4197  function removeOwner(address owner)... */\n      tag_25\n      and(calldataload(0x4), sub(exp(0x2, 0xa0), 0x1))\n      jump(tag_31)\n        /* \"contracts/MultiSigWalletWithDailyLimit.sol\":6303:6594  function revokeConfirmation(uint transactionId)... */\n    tag_4:\n      callvalue\n        /* \"--CODEGEN--\":8:17   */\n      dup1\n        /* \"--CODEGEN--\":5:7   */\n      iszero\n      tag_32\n      jumpi\n        /* \"--CODEGEN--\":30:31   */\n      0x0\n        /* \"--CODEGEN--\":27:28   */\n      dup1\n        /* \"--CODEGEN--\":20:32   */\n      revert\n        /* \"--CODEGEN--\":5:7   */\n    tag_32:\n      pop\n        /* \"contracts/MultiSigWalletWithDailyLimit.sol\":6303:6594  function revokeConfirmation(uint transactionId)... */\n      tag_25\n      calldataload(0x4)\n      jump(tag_34)\n        /* \"contracts/MultiSigWalletWithDailyLimit.sol\":1026:1066  mapping (address => bool) public isOwner */\n    tag_5:\n      callvalue\n        /* \"--CODEGEN--\":8:17   */\n      dup1\n        /* \"--CODEGEN--\":5:7   */\n      iszero\n      tag_35\n      jumpi\n        /* \"--CODEGEN--\":30:31   */\n      0x0\n        /* \"--CODEGEN--\":27:28   */\n      dup1\n        /* \"--CODEGEN--\":20:32   */\n      revert\n        /* \"--CODEGEN--\":5:7   */\n    tag_35:\n      pop\n        /* \"contracts/MultiSigWalletWithDailyLimit.sol\":1026:1066  mapping (address => bool) public isOwner */\n      tag_36\n      and(calldataload(0x4), sub(exp(0x2, 0xa0), 0x1))\n      jump(tag_37)\n    tag_36:\n      0x40\n      dup1\n      mload\n      swap2\n      iszero\n      iszero\n      dup3\n      mstore\n      mload\n      swap1\n      dup2\n      swap1\n      sub\n      0x20\n      add\n      swap1\n      return\n        /* \"contracts/MultiSigWalletWithDailyLimit.sol\":956:1020  mapping (uint => mapping (address => bool)) public confirmations */\n    tag_6:\n      callvalue\n        /* \"--CODEGEN--\":8:17   */\n      dup1\n        /* \"--CODEGEN--\":5:7   */\n      iszero\n      tag_38\n      jumpi\n        /* \"--CODEGEN--\":30:31   */\n      0x0\n        /* \"--CODEGEN--\":27:28   */\n      dup1\n        /* \"--CODEGEN--\":20:32   */\n      revert\n        /* \"--CODEGEN--\":5:7   */\n    tag_38:\n      pop\n        /* \"contracts/MultiSigWalletWithDailyLimit.sol\":956:1020  mapping (uint => mapping (address => bool)) public confirmations */\n      tag_36\n      calldataload(0x4)\n      and(calldataload(0x24), sub(exp(0x2, 0xa0), 0x1))\n      jump(tag_40)\n        /* \"contracts/MultiSigWalletWithDailyLimit.sol\":10557:10876  function getTransactionCount(bool pending, bool executed)... */\n    tag_7:\n      callvalue\n        /* \"--CODEGEN--\":8:17   */\n      dup1\n        /* \"--CODEGEN--\":5:7   */\n      iszero\n      tag_41\n      jumpi\n        /* \"--CODEGEN--\":30:31   */\n      0x0\n        /* \"--CODEGEN--\":27:28   */\n      dup1\n        /* \"--CODEGEN--\":20:32   */\n      revert\n        /* \"--CODEGEN--\":5:7   */\n    tag_41:\n      pop\n        /* \"contracts/MultiSigWalletWithDailyLimit.sol\":10557:10876  function getTransactionCount(bool pending, bool executed)... */\n      tag_42\n      iszero(iszero(calldataload(0x4)))\n      iszero(iszero(calldataload(0x24)))\n      jump(tag_43)\n    tag_42:\n      0x40\n      dup1\n      mload\n      swap2\n      dup3\n      mstore\n      mload\n      swap1\n      dup2\n      swap1\n      sub\n      0x20\n      add\n      swap1\n      return\n        /* \"contracts/MultiSigWalletWithDailyLimit.sol\":3337:3614  function addOwner(address owner)... */\n    tag_8:\n      callvalue\n        /* \"--CODEGEN--\":8:17   */\n      dup1\n        /* \"--CODEGEN--\":5:7   */\n      iszero\n      tag_44\n      jumpi\n        /* \"--CODEGEN--\":30:31   */\n      0x0\n        /* \"--CODEGEN--\":27:28   */\n      dup1\n        /* \"--CODEGEN--\":20:32   */\n      revert\n        /* \"--CODEGEN--\":5:7   */\n    tag_44:\n      pop\n        /* \"contracts/MultiSigWalletWithDailyLimit.sol\":3337:3614  function addOwner(address owner)... */\n      tag_25\n      and(calldataload(0x4), sub(exp(0x2, 0xa0), 0x1))\n      jump(tag_46)\n        /* \"contracts/MultiSigWalletWithDailyLimit.sol\":8725:9062  function isConfirmed(uint transactionId)... */\n    tag_9:\n      callvalue\n        /* \"--CODEGEN--\":8:17   */\n      dup1\n        /* \"--CODEGEN--\":5:7   */\n      iszero\n      tag_47\n      jumpi\n        /* \"--CODEGEN--\":30:31   */\n      0x0\n        /* \"--CODEGEN--\":27:28   */\n      dup1\n        /* \"--CODEGEN--\":20:32   */\n      revert\n        /* \"--CODEGEN--\":5:7   */\n    tag_47:\n      pop\n        /* \"contracts/MultiSigWalletWithDailyLimit.sol\":8725:9062  function isConfirmed(uint transactionId)... */\n      tag_36\n      calldataload(0x4)\n      jump(tag_49)\n        /* \"contracts/MultiSigWalletWithDailyLimit.sol\":10043:10295  function getConfirmationCount(uint transactionId)... */\n    tag_10:\n      callvalue\n        /* \"--CODEGEN--\":8:17   */\n      dup1\n        /* \"--CODEGEN--\":5:7   */\n      iszero\n      tag_50\n      jumpi\n        /* \"--CODEGEN--\":30:31   */\n      0x0\n        /* \"--CODEGEN--\":27:28   */\n      dup1\n        /* \"--CODEGEN--\":20:32   */\n      revert\n        /* \"--CODEGEN--\":5:7   */\n    tag_50:\n      pop\n        /* \"contracts/MultiSigWalletWithDailyLimit.sol\":10043:10295  function getConfirmationCount(uint transactionId)... */\n      tag_42\n      calldataload(0x4)\n      jump(tag_52)\n        /* \"contracts/MultiSigWalletWithDailyLimit.sol\":901:950  mapping (uint => Transaction) public transactions */\n    tag_11:\n      callvalue\n        /* \"--CODEGEN--\":8:17   */\n      dup1\n        /* \"--CODEGEN--\":5:7   */\n      iszero\n      tag_53\n      jumpi\n        /* \"--CODEGEN--\":30:31   */\n      0x0\n        /* \"--CODEGEN--\":27:28   */\n      dup1\n        /* \"--CODEGEN--\":20:32   */\n      revert\n        /* \"--CODEGEN--\":5:7   */\n    tag_53:\n      pop\n        /* \"contracts/MultiSigWalletWithDailyLimit.sol\":901:950  mapping (uint => Transaction) public transactions */\n      tag_54\n      calldataload(0x4)\n      jump(tag_55)\n    tag_54:\n      mload(0x40)\n      dup1\n      dup6\n      sub(exp(0x2, 0xa0), 0x1)\n      and\n      sub(exp(0x2, 0xa0), 0x1)\n      and\n      dup2\n      mstore\n      0x20\n      add\n      dup5\n      dup2\n      mstore\n      0x20\n      add\n      dup1\n      0x20\n      add\n      dup4\n      iszero\n      iszero\n      iszero\n      iszero\n      dup2\n      mstore\n      0x20\n      add\n      dup3\n      dup2\n      sub\n      dup3\n      mstore\n      dup5\n      dup2\n      dup2\n      mload\n      dup2\n      mstore\n      0x20\n      add\n      swap2\n      pop\n      dup1\n      mload\n      swap1\n      0x20\n      add\n      swap1\n      dup1\n      dup4\n      dup4\n        /* \"--CODEGEN--\":23:24   */\n      0x0\n        /* \"--CODEGEN--\":8:108   */\n    tag_56:\n        /* \"--CODEGEN--\":33:36   */\n      dup4\n        /* \"--CODEGEN--\":30:31   */\n      dup2\n        /* \"--CODEGEN--\":27:37   */\n      lt\n        /* \"--CODEGEN--\":8:108   */\n      iszero\n      tag_57\n      jumpi\n        /* \"--CODEGEN--\":90:101   */\n      dup2\n      dup2\n      add\n        /* \"--CODEGEN--\":84:102   */\n      mload\n        /* \"--CODEGEN--\":71:82   */\n      dup4\n      dup3\n      add\n        /* \"--CODEGEN--\":64:103   */\n      mstore\n        /* \"--CODEGEN--\":52:54   */\n      0x20\n        /* \"--CODEGEN--\":45:55   */\n      add\n        /* \"--CODEGEN--\":8:108   */\n      jump(tag_56)\n    tag_57:\n        /* \"--CODEGEN--\":12:26   */\n      pop\n        /* \"contracts/MultiSigWalletWithDailyLimit.sol\":901:950  mapping (uint => Transaction) public transactions */\n      pop\n      pop\n      pop\n      swap1\n      pop\n      swap1\n      dup2\n      add\n      swap1\n      0x1f\n      and\n      dup1\n      iszero\n      tag_59\n      jumpi\n      dup1\n      dup3\n      sub\n      dup1\n      mload\n      0x1\n      dup4\n      0x20\n      sub\n      0x100\n      exp\n      sub\n      not\n      and\n      dup2\n      mstore\n      0x20\n      add\n      swap2\n      pop\n    tag_59:\n      pop\n      swap6\n      pop\n      pop\n      pop\n      pop\n      pop\n      pop\n      mload(0x40)\n      dup1\n      swap2\n      sub\n      swap1\n      return\n        /* \"contracts/MultiSigWalletWithDailyLimit.sol\":10960:11075  function getOwners()... */\n    tag_12:\n      callvalue\n        /* \"--CODEGEN--\":8:17   */\n      dup1\n        /* \"--CODEGEN--\":5:7   */\n      iszero\n      tag_60\n      jumpi\n        /* \"--CODEGEN--\":30:31   */\n      0x0\n        /* \"--CODEGEN--\":27:28   */\n      dup1\n        /* \"--CODEGEN--\":20:32   */\n      revert\n        /* \"--CODEGEN--\":5:7   */\n    tag_60:\n        /* \"contracts/MultiSigWalletWithDailyLimit.sol\":10960:11075  function getOwners()... */\n      pop\n      tag_61\n      jump(tag_62)\n    tag_61:\n      0x40\n      dup1\n      mload\n      0x20\n      dup1\n      dup3\n      mstore\n      dup4\n      mload\n      dup2\n      dup4\n      add\n      mstore\n      dup4\n      mload\n      swap2\n      swap3\n      dup4\n      swap3\n      swap1\n      dup4\n      add\n      swap2\n      dup6\n      dup2\n      add\n      swap2\n      mul\n      dup1\n      dup4\n      dup4\n      0x0\n        /* \"--CODEGEN--\":8:108   */\n    tag_63:\n        /* \"--CODEGEN--\":33:36   */\n      dup4\n        /* \"--CODEGEN--\":30:31   */\n      dup2\n        /* \"--CODEGEN--\":27:37   */\n      lt\n        /* \"--CODEGEN--\":8:108   */\n      iszero\n      tag_64\n      jumpi\n        /* \"--CODEGEN--\":90:101   */\n      dup2\n      dup2\n      add\n        /* \"--CODEGEN--\":84:102   */\n      mload\n        /* \"--CODEGEN--\":71:82   */\n      dup4\n      dup3\n      add\n        /* \"--CODEGEN--\":64:103   */\n      mstore\n        /* \"--CODEGEN--\":52:54   */\n      0x20\n        /* \"--CODEGEN--\":45:55   */\n      add\n        /* \"--CODEGEN--\":8:108   */\n      jump(tag_63)\n    tag_64:\n        /* \"--CODEGEN--\":12:26   */\n      pop\n        /* \"contracts/MultiSigWalletWithDailyLimit.sol\":10960:11075  function getOwners()... */\n      pop\n      pop\n      pop\n      swap1\n      pop\n      add\n      swap3\n      pop\n      pop\n      pop\n      mload(0x40)\n      dup1\n      swap2\n      sub\n      swap1\n      return\n        /* \"contracts/MultiSigWalletWithDailyLimit.sol\":12178:12854  function getTransactionIds(uint from, uint to, bool pending, bool executed)... */\n    tag_13:\n      callvalue\n        /* \"--CODEGEN--\":8:17   */\n      dup1\n        /* \"--CODEGEN--\":5:7   */\n      iszero\n      tag_66\n      jumpi\n        /* \"--CODEGEN--\":30:31   */\n      0x0\n        /* \"--CODEGEN--\":27:28   */\n      dup1\n        /* \"--CODEGEN--\":20:32   */\n      revert\n        /* \"--CODEGEN--\":5:7   */\n    tag_66:\n      pop\n        /* \"contracts/MultiSigWalletWithDailyLimit.sol\":12178:12854  function getTransactionIds(uint from, uint to, bool pending, bool executed)... */\n      tag_61\n      calldataload(0x4)\n      calldataload(0x24)\n      iszero(iszero(calldataload(0x44)))\n      iszero(iszero(calldataload(0x64)))\n      jump(tag_68)\n        /* \"contracts/MultiSigWalletWithDailyLimit.sol\":11254:11829  function getConfirmations(uint transactionId)... */\n    tag_14:\n      callvalue\n        /* \"--CODEGEN--\":8:17   */\n      dup1\n        /* \"--CODEGEN--\":5:7   */\n      iszero\n      tag_72\n      jumpi\n        /* \"--CODEGEN--\":30:31   */\n      0x0\n        /* \"--CODEGEN--\":27:28   */\n      dup1\n        /* \"--CODEGEN--\":20:32   */\n      revert\n        /* \"--CODEGEN--\":5:7   */\n    tag_72:\n      pop\n        /* \"contracts/MultiSigWalletWithDailyLimit.sol\":11254:11829  function getConfirmations(uint transactionId)... */\n      tag_61\n      calldataload(0x4)\n      jump(tag_74)\n        /* \"contracts/MultiSigWalletWithDailyLimit.sol\":1127:1155  uint public transactionCount */\n    tag_15:\n      callvalue\n        /* \"--CODEGEN--\":8:17   */\n      dup1\n        /* \"--CODEGEN--\":5:7   */\n      iszero\n      tag_78\n      jumpi\n        /* \"--CODEGEN--\":30:31   */\n      0x0\n        /* \"--CODEGEN--\":27:28   */\n      dup1\n        /* \"--CODEGEN--\":20:32   */\n      revert\n        /* \"--CODEGEN--\":5:7   */\n    tag_78:\n        /* \"contracts/MultiSigWalletWithDailyLimit.sol\":1127:1155  uint public transactionCount */\n      pop\n      tag_42\n      jump(tag_80)\n        /* \"contracts/MultiSigWalletWithDailyLimit.sol\":5019:5226  function changeRequirement(uint _required)... */\n    tag_16:\n      callvalue\n        /* \"--CODEGEN--\":8:17   */\n      dup1\n        /* \"--CODEGEN--\":5:7   */\n      iszero\n      tag_81\n      jumpi\n        /* \"--CODEGEN--\":30:31   */\n      0x0\n        /* \"--CODEGEN--\":27:28   */\n      dup1\n        /* \"--CODEGEN--\":20:32   */\n      revert\n        /* \"--CODEGEN--\":5:7   */\n    tag_81:\n      pop\n        /* \"contracts/MultiSigWalletWithDailyLimit.sol\":5019:5226  function changeRequirement(uint _required)... */\n      tag_25\n      calldataload(0x4)\n      jump(tag_83)\n        /* \"contracts/MultiSigWalletWithDailyLimit.sol\":5835:6179  function confirmTransaction(uint transactionId)... */\n    tag_17:\n      callvalue\n        /* \"--CODEGEN--\":8:17   */\n      dup1\n        /* \"--CODEGEN--\":5:7   */\n      iszero\n      tag_84\n      jumpi\n        /* \"--CODEGEN--\":30:31   */\n      0x0\n        /* \"--CODEGEN--\":27:28   */\n      dup1\n        /* \"--CODEGEN--\":20:32   */\n      revert\n        /* \"--CODEGEN--\":5:7   */\n    tag_84:\n      pop\n        /* \"contracts/MultiSigWalletWithDailyLimit.sol\":5835:6179  function confirmTransaction(uint transactionId)... */\n      tag_25\n      calldataload(0x4)\n      jump(tag_86)\n        /* \"contracts/MultiSigWalletWithDailyLimit.sol\":5485:5729  function submitTransaction(address destination, uint value, bytes data)... */\n    tag_18:\n      callvalue\n        /* \"--CODEGEN--\":8:17   */\n      dup1\n        /* \"--CODEGEN--\":5:7   */\n      iszero\n      tag_87\n      jumpi\n        /* \"--CODEGEN--\":30:31   */\n      0x0\n        /* \"--CODEGEN--\":27:28   */\n      dup1\n        /* \"--CODEGEN--\":20:32   */\n      revert\n        /* \"--CODEGEN--\":5:7   */\n    tag_87:\n      pop\n        /* \"contracts/MultiSigWalletWithDailyLimit.sol\":5485:5729  function submitTransaction(address destination, uint value, bytes data)... */\n      0x40\n      dup1\n      mload\n      0x20\n      0x4\n      calldataload(0x44)\n      dup2\n      dup2\n      add\n      calldataload\n      0x1f\n      dup2\n      add\n      dup5\n      swap1\n      div\n      dup5\n      mul\n      dup6\n      add\n      dup5\n      add\n      swap1\n      swap6\n      mstore\n      dup5\n      dup5\n      mstore\n      tag_42\n      swap5\n      dup3\n      calldataload\n      sub(exp(0x2, 0xa0), 0x1)\n      and\n      swap5\n      0x24\n      dup1\n      calldataload\n      swap6\n      calldatasize\n      swap6\n      swap5\n      0x64\n      swap5\n      swap3\n      add\n      swap2\n      swap1\n      dup2\n      swap1\n      dup5\n      add\n      dup4\n      dup3\n      dup1\n      dup3\n      dup5\n      calldatacopy\n      pop\n      swap5\n      swap8\n      pop\n      tag_89\n      swap7\n      pop\n      pop\n      pop\n      pop\n      pop\n      pop\n      pop\n      jump\n        /* \"contracts/MultiSigWalletWithDailyLimit.sol\":822:863  uint constant public MAX_OWNER_COUNT = 50 */\n    tag_19:\n      callvalue\n        /* \"--CODEGEN--\":8:17   */\n      dup1\n        /* \"--CODEGEN--\":5:7   */\n      iszero\n      tag_90\n      jumpi\n        /* \"--CODEGEN--\":30:31   */\n      0x0\n        /* \"--CODEGEN--\":27:28   */\n      dup1\n        /* \"--CODEGEN--\":20:32   */\n      revert\n        /* \"--CODEGEN--\":5:7   */\n    tag_90:\n        /* \"contracts/MultiSigWalletWithDailyLimit.sol\":822:863  uint constant public MAX_OWNER_COUNT = 50 */\n      pop\n      tag_42\n      jump(tag_92)\n        /* \"contracts/MultiSigWalletWithDailyLimit.sol\":1101:1121  uint public required */\n    tag_20:\n      callvalue\n        /* \"--CODEGEN--\":8:17   */\n      dup1\n        /* \"--CODEGEN--\":5:7   */\n      iszero\n      tag_93\n      jumpi\n        /* \"--CODEGEN--\":30:31   */\n      0x0\n        /* \"--CODEGEN--\":27:28   */\n      dup1\n        /* \"--CODEGEN--\":20:32   */\n      revert\n        /* \"--CODEGEN--\":5:7   */\n    tag_93:\n        /* \"contracts/MultiSigWalletWithDailyLimit.sol\":1101:1121  uint public required */\n      pop\n      tag_42\n      jump(tag_95)\n        /* \"contracts/MultiSigWalletWithDailyLimit.sol\":4399:4848  function replaceOwner(address owner, address newOwner)... */\n    tag_21:\n      callvalue\n        /* \"--CODEGEN--\":8:17   */\n      dup1\n        /* \"--CODEGEN--\":5:7   */\n      iszero\n      tag_96\n      jumpi\n        /* \"--CODEGEN--\":30:31   */\n      0x0\n        /* \"--CODEGEN--\":27:28   */\n      dup1\n        /* \"--CODEGEN--\":20:32   */\n      revert\n        /* \"--CODEGEN--\":5:7   */\n    tag_96:\n      pop\n        /* \"contracts/MultiSigWalletWithDailyLimit.sol\":4399:4848  function replaceOwner(address owner, address newOwner)... */\n      tag_25\n      sub(exp(0x2, 0xa0), 0x1)\n      calldataload(0x4)\n      dup2\n      and\n      swap1\n      calldataload(0x24)\n      and\n      jump(tag_98)\n        /* \"contracts/MultiSigWalletWithDailyLimit.sol\":6708:7294  function executeTransaction(uint transactionId)... */\n    tag_22:\n      callvalue\n        /* \"--CODEGEN--\":8:17   */\n      dup1\n        /* \"--CODEGEN--\":5:7   */\n      iszero\n      tag_99\n      jumpi\n        /* \"--CODEGEN--\":30:31   */\n      0x0\n        /* \"--CODEGEN--\":27:28   */\n      dup1\n        /* \"--CODEGEN--\":20:32   */\n      revert\n        /* \"--CODEGEN--\":5:7   */\n    tag_99:\n      pop\n        /* \"contracts/MultiSigWalletWithDailyLimit.sol\":6708:7294  function executeTransaction(uint transactionId)... */\n      tag_25\n      calldataload(0x4)\n      jump(tag_101)\n        /* \"contracts/MultiSigWalletWithDailyLimit.sol\":1072:1095  address[] public owners */\n    tag_28:\n      0x3\n      dup1\n      sload\n      dup3\n      swap1\n      dup2\n      lt\n      tag_102\n      jumpi\n      invalid\n    tag_102:\n      0x0\n      swap2\n      dup3\n      mstore\n      0x20\n      swap1\n      swap2\n      keccak256\n      add\n      sload\n      sub(exp(0x2, 0xa0), 0x1)\n      and\n      swap1\n      pop\n      dup2\n      jump\t// out\n        /* \"contracts/MultiSigWalletWithDailyLimit.sol\":3737:4197  function removeOwner(address owner)... */\n    tag_31:\n        /* \"contracts/MultiSigWalletWithDailyLimit.sol\":3885:3891  uint i */\n      0x0\n        /* \"contracts/MultiSigWalletWithDailyLimit.sol\":1359:1369  msg.sender */\n      caller\n        /* \"contracts/MultiSigWalletWithDailyLimit.sol\":1381:1385  this */\n      address\n        /* \"contracts/MultiSigWalletWithDailyLimit.sol\":1359:1386  msg.sender == address(this) */\n      eq\n        /* \"contracts/MultiSigWalletWithDailyLimit.sol\":1351:1387  require(msg.sender == address(this)) */\n      tag_105\n      jumpi\n      0x0\n      dup1\n      revert\n    tag_105:\n      sub(exp(0x2, 0xa0), 0x1)\n        /* \"contracts/MultiSigWalletWithDailyLimit.sol\":1565:1579  isOwner[owner] */\n      dup3\n      and\n      0x0\n      swap1\n      dup2\n      mstore\n        /* \"contracts/MultiSigWalletWithDailyLimit.sol\":1565:1572  isOwner */\n      0x2\n        /* \"contracts/MultiSigWalletWithDailyLimit.sol\":1565:1579  isOwner[owner] */\n      0x20\n      mstore\n      0x40\n      swap1\n      keccak256\n      sload\n        /* \"contracts/MultiSigWalletWithDailyLimit.sol\":3827:3832  owner */\n      dup3\n      swap1\n        /* \"contracts/MultiSigWalletWithDailyLimit.sol\":1565:1579  isOwner[owner] */\n      0xff\n      and\n        /* \"contracts/MultiSigWalletWithDailyLimit.sol\":1557:1580  require(isOwner[owner]) */\n      iszero\n      iszero\n      tag_107\n      jumpi\n      0x0\n      dup1\n      revert\n    tag_107:\n      sub(exp(0x2, 0xa0), 0x1)\n        /* \"contracts/MultiSigWalletWithDailyLimit.sol\":3848:3862  isOwner[owner] */\n      dup4\n      and\n        /* \"contracts/MultiSigWalletWithDailyLimit.sol\":3865:3870  false */\n      0x0\n        /* \"contracts/MultiSigWalletWithDailyLimit.sol\":3848:3862  isOwner[owner] */\n      swap1\n      dup2\n      mstore\n        /* \"contracts/MultiSigWalletWithDailyLimit.sol\":3848:3855  isOwner */\n      0x2\n        /* \"contracts/MultiSigWalletWithDailyLimit.sol\":3848:3862  isOwner[owner] */\n      0x20\n      mstore\n      0x40\n      dup2\n      keccak256\n        /* \"contracts/MultiSigWalletWithDailyLimit.sol\":3848:3870  isOwner[owner] = false */\n      dup1\n      sload\n      not(0xff)\n      and\n      swap1\n      sstore\n        /* \"contracts/MultiSigWalletWithDailyLimit.sol\":3865:3870  false */\n      swap2\n      pop\n        /* \"contracts/MultiSigWalletWithDailyLimit.sol\":3880:4050  for (uint i=0; i<owners.length - 1; i++)... */\n    tag_109:\n        /* \"contracts/MultiSigWalletWithDailyLimit.sol\":3897:3903  owners */\n      0x3\n        /* \"contracts/MultiSigWalletWithDailyLimit.sol\":3897:3910  owners.length */\n      sload\n      not(0x0)\n        /* \"contracts/MultiSigWalletWithDailyLimit.sol\":3897:3914  owners.length - 1 */\n      add\n        /* \"contracts/MultiSigWalletWithDailyLimit.sol\":3895:3914  i<owners.length - 1 */\n      dup3\n      lt\n        /* \"contracts/MultiSigWalletWithDailyLimit.sol\":3880:4050  for (uint i=0; i<owners.length - 1; i++)... */\n      iszero\n      tag_110\n      jumpi\n        /* \"contracts/MultiSigWalletWithDailyLimit.sol\":3950:3955  owner */\n      dup3\n      sub(exp(0x2, 0xa0), 0x1)\n        /* \"contracts/MultiSigWalletWithDailyLimit.sol\":3937:3955  owners[i] == owner */\n      and\n        /* \"contracts/MultiSigWalletWithDailyLimit.sol\":3937:3943  owners */\n      0x3\n        /* \"contracts/MultiSigWalletWithDailyLimit.sol\":3944:3945  i */\n      dup4\n        /* \"contracts/MultiSigWalletWithDailyLimit.sol\":3937:3946  owners[i] */\n      dup2\n      sload\n      dup2\n      lt\n      iszero\n      iszero\n      tag_112\n      jumpi\n      invalid\n    tag_112:\n      0x0\n      swap2\n      dup3\n      mstore\n      0x20\n      swap1\n      swap2\n      keccak256\n      add\n      sload\n      sub(exp(0x2, 0xa0), 0x1)\n      and\n        /* \"contracts/MultiSigWalletWithDailyLimit.sol\":3937:3955  owners[i] == owner */\n      eq\n        /* \"contracts/MultiSigWalletWithDailyLimit.sol\":3933:4050  if (owners[i] == owner) {... */\n      iszero\n      tag_114\n      jumpi\n        /* \"contracts/MultiSigWalletWithDailyLimit.sol\":3987:3993  owners */\n      0x3\n        /* \"contracts/MultiSigWalletWithDailyLimit.sol\":3994:4007  owners.length */\n      dup1\n      sload\n      not(0x0)\n        /* \"contracts/MultiSigWalletWithDailyLimit.sol\":3994:4011  owners.length - 1 */\n      dup2\n      add\n      swap1\n        /* \"contracts/MultiSigWalletWithDailyLimit.sol\":3987:4012  owners[owners.length - 1] */\n      dup2\n      lt\n      tag_115\n      jumpi\n      invalid\n    tag_115:\n      0x0\n      swap2\n      dup3\n      mstore\n      0x20\n      swap1\n      swap2\n      keccak256\n      add\n      sload\n        /* \"contracts/MultiSigWalletWithDailyLimit.sol\":3975:3981  owners */\n      0x3\n        /* \"contracts/MultiSigWalletWithDailyLimit.sol\":3975:3984  owners[i] */\n      dup1\n      sload\n      sub(exp(0x2, 0xa0), 0x1)\n        /* \"contracts/MultiSigWalletWithDailyLimit.sol\":3987:4012  owners[owners.length - 1] */\n      swap1\n      swap3\n      and\n      swap2\n        /* \"contracts/MultiSigWalletWithDailyLimit.sol\":3982:3983  i */\n      dup5\n      swap1\n        /* \"contracts/MultiSigWalletWithDailyLimit.sol\":3975:3984  owners[i] */\n      dup2\n      lt\n      tag_117\n      jumpi\n      invalid\n    tag_117:\n      swap1\n      0x0\n      mstore\n      keccak256(0x0, 0x20)\n      add\n      0x0\n        /* \"contracts/MultiSigWalletWithDailyLimit.sol\":3975:4012  owners[i] = owners[owners.length - 1] */\n      0x100\n      exp\n      dup2\n      sload\n      dup2\n      sub(exp(0x2, 0xa0), 0x1)\n      mul\n      not\n      and\n      swap1\n      dup4\n      sub(exp(0x2, 0xa0), 0x1)\n      and\n      mul\n      or\n      swap1\n      sstore\n      pop\n        /* \"contracts/MultiSigWalletWithDailyLimit.sol\":4030:4035  break */\n      jump(tag_110)\n        /* \"contracts/MultiSigWalletWithDailyLimit.sol\":3933:4050  if (owners[i] == owner) {... */\n    tag_114:\n        /* \"contracts/MultiSigWalletWithDailyLimit.sol\":3916:3919  i++ */\n      0x1\n      swap1\n      swap2\n      add\n      swap1\n        /* \"contracts/MultiSigWalletWithDailyLimit.sol\":3880:4050  for (uint i=0; i<owners.length - 1; i++)... */\n      jump(tag_109)\n    tag_110:\n        /* \"contracts/MultiSigWalletWithDailyLimit.sol\":4059:4065  owners */\n      0x3\n        /* \"contracts/MultiSigWalletWithDailyLimit.sol\":4059:4077  owners.length -= 1 */\n      dup1\n      sload\n      not(0x0)\n      add\n      swap1\n      tag_119\n      swap1\n      dup3\n      jump\t// in(tag_120)\n    tag_119:\n      pop\n        /* \"contracts/MultiSigWalletWithDailyLimit.sol\":4102:4108  owners */\n      0x3\n        /* \"contracts/MultiSigWalletWithDailyLimit.sol\":4102:4115  owners.length */\n      sload\n        /* \"contracts/MultiSigWalletWithDailyLimit.sol\":4091:4099  required */\n      sload(0x4)\n        /* \"contracts/MultiSigWalletWithDailyLimit.sol\":4091:4115  required > owners.length */\n      gt\n        /* \"contracts/MultiSigWalletWithDailyLimit.sol\":4087:4161  if (required > owners.length)... */\n      iszero\n      tag_122\n      jumpi\n        /* \"contracts/MultiSigWalletWithDailyLimit.sol\":4147:4153  owners */\n      0x3\n        /* \"contracts/MultiSigWalletWithDailyLimit.sol\":4147:4160  owners.length */\n      sload\n        /* \"contracts/MultiSigWalletWithDailyLimit.sol\":4129:4161  changeRequirement(owners.length) */\n      tag_122\n      swap1\n        /* \"contracts/MultiSigWalletWithDailyLimit.sol\":4129:4146  changeRequirement */\n      tag_83\n        /* \"contracts/MultiSigWalletWithDailyLimit.sol\":4129:4161  changeRequirement(owners.length) */\n      jump\t// in\n    tag_122:\n        /* \"contracts/MultiSigWalletWithDailyLimit.sol\":4171:4190  OwnerRemoval(owner) */\n      mload(0x40)\n      sub(exp(0x2, 0xa0), 0x1)\n      dup5\n      and\n      swap1\n      0x8001553a916ef2f495d26a907cc54d96ed840d7bda71e73194bf5a9df7a76b90\n      swap1\n      0x0\n      swap1\n      log2\n        /* \"contracts/MultiSigWalletWithDailyLimit.sol\":1397:1398  _ */\n      pop\n        /* \"contracts/MultiSigWalletWithDailyLimit.sol\":3737:4197  function removeOwner(address owner)... */\n      pop\n      pop\n      jump\t// out\n        /* \"contracts/MultiSigWalletWithDailyLimit.sol\":6303:6594  function revokeConfirmation(uint transactionId)... */\n    tag_34:\n        /* \"contracts/MultiSigWalletWithDailyLimit.sol\":6386:6396  msg.sender */\n      caller\n        /* \"contracts/MultiSigWalletWithDailyLimit.sol\":1565:1579  isOwner[owner] */\n      0x0\n      dup2\n      dup2\n      mstore\n        /* \"contracts/MultiSigWalletWithDailyLimit.sol\":1565:1572  isOwner */\n      0x2\n        /* \"contracts/MultiSigWalletWithDailyLimit.sol\":1565:1579  isOwner[owner] */\n      0x20\n      mstore\n      0x40\n      swap1\n      keccak256\n      sload\n      0xff\n      and\n        /* \"contracts/MultiSigWalletWithDailyLimit.sol\":1557:1580  require(isOwner[owner]) */\n      iszero\n      iszero\n      tag_124\n      jumpi\n      0x0\n      dup1\n      revert\n    tag_124:\n        /* \"contracts/MultiSigWalletWithDailyLimit.sol\":1810:1838  confirmations[transactionId] */\n      0x0\n      dup3\n      dup2\n      mstore\n        /* \"contracts/MultiSigWalletWithDailyLimit.sol\":1810:1823  confirmations */\n      0x1\n        /* \"contracts/MultiSigWalletWithDailyLimit.sol\":1810:1838  confirmations[transactionId] */\n      0x20\n      swap1\n      dup2\n      mstore\n      0x40\n      dup1\n      dup4\n      keccak256\n        /* \"contracts/MultiSigWalletWithDailyLimit.sol\":6431:6441  msg.sender */\n      caller\n        /* \"contracts/MultiSigWalletWithDailyLimit.sol\":1810:1845  confirmations[transactionId][owner] */\n      dup1\n      dup6\n      mstore\n      swap3\n      mstore\n      swap1\n      swap2\n      keccak256\n      sload\n        /* \"contracts/MultiSigWalletWithDailyLimit.sol\":6416:6429  transactionId */\n      dup4\n      swap2\n        /* \"contracts/MultiSigWalletWithDailyLimit.sol\":6431:6441  msg.sender */\n      swap1\n        /* \"contracts/MultiSigWalletWithDailyLimit.sol\":1810:1845  confirmations[transactionId][owner] */\n      0xff\n      and\n        /* \"contracts/MultiSigWalletWithDailyLimit.sol\":1802:1846  require(confirmations[transactionId][owner]) */\n      iszero\n      iszero\n      tag_126\n      jumpi\n      0x0\n      dup1\n      revert\n    tag_126:\n        /* \"contracts/MultiSigWalletWithDailyLimit.sol\":2066:2078  transactions */\n      0x0\n        /* \"contracts/MultiSigWalletWithDailyLimit.sol\":2066:2093  transactions[transactionId] */\n      dup5\n      dup2\n      mstore\n      0x20\n      dup2\n      swap1\n      mstore\n      0x40\n      swap1\n      keccak256\n        /* \"contracts/MultiSigWalletWithDailyLimit.sol\":2066:2102  transactions[transactionId].executed */\n      0x3\n      add\n      sload\n        /* \"contracts/MultiSigWalletWithDailyLimit.sol\":6463:6476  transactionId */\n      dup5\n      swap1\n        /* \"contracts/MultiSigWalletWithDailyLimit.sol\":2066:2102  transactions[transactionId].executed */\n      0xff\n      and\n        /* \"contracts/MultiSigWalletWithDailyLimit.sol\":2065:2102  !transactions[transactionId].executed */\n      iszero\n        /* \"contracts/MultiSigWalletWithDailyLimit.sol\":2057:2103  require(!transactions[transactionId].executed) */\n      tag_128\n      jumpi\n      0x0\n      dup1\n      revert\n    tag_128:\n        /* \"contracts/MultiSigWalletWithDailyLimit.sol\":6535:6540  false */\n      0x0\n        /* \"contracts/MultiSigWalletWithDailyLimit.sol\":6492:6520  confirmations[transactionId] */\n      dup6\n      dup2\n      mstore\n        /* \"contracts/MultiSigWalletWithDailyLimit.sol\":6492:6505  confirmations */\n      0x1\n        /* \"contracts/MultiSigWalletWithDailyLimit.sol\":6492:6520  confirmations[transactionId] */\n      0x20\n      swap1\n      dup2\n      mstore\n      0x40\n      dup1\n      dup4\n      keccak256\n        /* \"contracts/MultiSigWalletWithDailyLimit.sol\":6521:6531  msg.sender */\n      caller\n        /* \"contracts/MultiSigWalletWithDailyLimit.sol\":6492:6532  confirmations[transactionId][msg.sender] */\n      dup1\n      dup6\n      mstore\n      swap3\n      mstore\n      dup1\n      dup4\n      keccak256\n        /* \"contracts/MultiSigWalletWithDailyLimit.sol\":6492:6540  confirmations[transactionId][msg.sender] = false */\n      dup1\n      sload\n      not(0xff)\n      and\n      swap1\n      sstore\n        /* \"contracts/MultiSigWalletWithDailyLimit.sol\":6550:6587  Revocation(msg.sender, transactionId) */\n      mload\n        /* \"contracts/MultiSigWalletWithDailyLimit.sol\":6506:6519  transactionId */\n      dup8\n      swap3\n        /* \"contracts/MultiSigWalletWithDailyLimit.sol\":6550:6587  Revocation(msg.sender, transactionId) */\n      0xf6a317157440607f36269043eb55f1287a5a19ba2216afeab88cd46cbcfb88e9\n      swap2\n      log3\n        /* \"contracts/MultiSigWalletWithDailyLimit.sol\":1856:1857  _ */\n      pop\n        /* \"contracts/MultiSigWalletWithDailyLimit.sol\":1590:1591  _ */\n      pop\n      pop\n        /* \"contracts/MultiSigWalletWithDailyLimit.sol\":6303:6594  function revokeConfirmation(uint transactionId)... */\n      pop\n      pop\n      jump\t// out\n        /* \"contracts/MultiSigWalletWithDailyLimit.sol\":1026:1066  mapping (address => bool) public isOwner */\n    tag_37:\n      mstore(0x20, 0x2)\n      0x0\n      swap1\n      dup2\n      mstore\n      0x40\n      swap1\n      keccak256\n      sload\n      0xff\n      and\n      dup2\n      jump\t// out\n        /* \"contracts/MultiSigWalletWithDailyLimit.sol\":956:1020  mapping (uint => mapping (address => bool)) public confirmations */\n    tag_40:\n      0x1\n      0x20\n      swap1\n      dup2\n      mstore\n      0x0\n      swap3\n      dup4\n      mstore\n      0x40\n      dup1\n      dup5\n      keccak256\n      swap1\n      swap2\n      mstore\n      swap1\n      dup3\n      mstore\n      swap1\n      keccak256\n      sload\n      0xff\n      and\n      dup2\n      jump\t// out\n        /* \"contracts/MultiSigWalletWithDailyLimit.sol\":10557:10876  function getTransactionCount(bool pending, bool executed)... */\n    tag_43:\n        /* \"contracts/MultiSigWalletWithDailyLimit.sol\":10664:10674  uint count */\n      0x0\n      dup1\n        /* \"contracts/MultiSigWalletWithDailyLimit.sol\":10690:10869  for (uint i=0; i<transactionCount; i++)... */\n    tag_131:\n        /* \"contracts/MultiSigWalletWithDailyLimit.sol\":10707:10723  transactionCount */\n      sload(0x5)\n        /* \"contracts/MultiSigWalletWithDailyLimit.sol\":10705:10706  i */\n      dup2\n        /* \"contracts/MultiSigWalletWithDailyLimit.sol\":10705:10723  i<transactionCount */\n      lt\n        /* \"contracts/MultiSigWalletWithDailyLimit.sol\":10690:10869  for (uint i=0; i<transactionCount; i++)... */\n      iszero\n      tag_132\n      jumpi\n        /* \"contracts/MultiSigWalletWithDailyLimit.sol\":10749:10756  pending */\n      dup4\n        /* \"contracts/MultiSigWalletWithDailyLimit.sol\":10749:10785  pending && !transactions[i].executed */\n      dup1\n      iszero\n      tag_134\n      jumpi\n      pop\n        /* \"contracts/MultiSigWalletWithDailyLimit.sol\":10761:10773  transactions */\n      0x0\n        /* \"contracts/MultiSigWalletWithDailyLimit.sol\":10761:10776  transactions[i] */\n      dup2\n      dup2\n      mstore\n      0x20\n      dup2\n      swap1\n      mstore\n      0x40\n      swap1\n      keccak256\n        /* \"contracts/MultiSigWalletWithDailyLimit.sol\":10761:10785  transactions[i].executed */\n      0x3\n      add\n      sload\n      0xff\n      and\n        /* \"contracts/MultiSigWalletWithDailyLimit.sol\":10760:10785  !transactions[i].executed */\n      iszero\n        /* \"contracts/MultiSigWalletWithDailyLimit.sol\":10749:10785  pending && !transactions[i].executed */\n    tag_134:\n        /* \"contracts/MultiSigWalletWithDailyLimit.sol\":10749:10841  pending && !transactions[i].executed... */\n      dup1\n      tag_136\n      jumpi\n      pop\n        /* \"contracts/MultiSigWalletWithDailyLimit.sol\":10805:10813  executed */\n      dup3\n        /* \"contracts/MultiSigWalletWithDailyLimit.sol\":10805:10841  executed && transactions[i].executed */\n      dup1\n      iszero\n      tag_136\n      jumpi\n      pop\n        /* \"contracts/MultiSigWalletWithDailyLimit.sol\":10817:10829  transactions */\n      0x0\n        /* \"contracts/MultiSigWalletWithDailyLimit.sol\":10817:10832  transactions[i] */\n      dup2\n      dup2\n      mstore\n      0x20\n      dup2\n      swap1\n      mstore\n      0x40\n      swap1\n      keccak256\n        /* \"contracts/MultiSigWalletWithDailyLimit.sol\":10817:10841  transactions[i].executed */\n      0x3\n      add\n      sload\n      0xff\n      and\n        /* \"contracts/MultiSigWalletWithDailyLimit.sol\":10805:10841  executed && transactions[i].executed */\n    tag_136:\n        /* \"contracts/MultiSigWalletWithDailyLimit.sol\":10742:10869  if (   pending && !transactions[i].executed... */\n      iszero\n      tag_137\n      jumpi\n        /* \"contracts/MultiSigWalletWithDailyLimit.sol\":10868:10869  1 */\n      0x1\n        /* \"contracts/MultiSigWalletWithDailyLimit.sol\":10859:10869  count += 1 */\n      dup3\n      add\n      swap2\n      pop\n        /* \"contracts/MultiSigWalletWithDailyLimit.sol\":10742:10869  if (   pending && !transactions[i].executed... */\n    tag_137:\n        /* \"contracts/MultiSigWalletWithDailyLimit.sol\":10725:10728  i++ */\n      0x1\n      add\n        /* \"contracts/MultiSigWalletWithDailyLimit.sol\":10690:10869  for (uint i=0; i<transactionCount; i++)... */\n      jump(tag_131)\n    tag_132:\n        /* \"contracts/MultiSigWalletWithDailyLimit.sol\":10557:10876  function getTransactionCount(bool pending, bool executed)... */\n      pop\n      swap3\n      swap2\n      pop\n      pop\n      jump\t// out\n        /* \"contracts/MultiSigWalletWithDailyLimit.sol\":3337:3614  function addOwner(address owner)... */\n    tag_46:\n        /* \"contracts/MultiSigWalletWithDailyLimit.sol\":1359:1369  msg.sender */\n      caller\n        /* \"contracts/MultiSigWalletWithDailyLimit.sol\":1381:1385  this */\n      address\n        /* \"contracts/MultiSigWalletWithDailyLimit.sol\":1359:1386  msg.sender == address(this) */\n      eq\n        /* \"contracts/MultiSigWalletWithDailyLimit.sol\":1351:1387  require(msg.sender == address(this)) */\n      tag_139\n      jumpi\n      0x0\n      dup1\n      revert\n    tag_139:\n      sub(exp(0x2, 0xa0), 0x1)\n        /* \"contracts/MultiSigWalletWithDailyLimit.sol\":1472:1486  isOwner[owner] */\n      dup2\n      and\n      0x0\n      swap1\n      dup2\n      mstore\n        /* \"contracts/MultiSigWalletWithDailyLimit.sol\":1472:1479  isOwner */\n      0x2\n        /* \"contracts/MultiSigWalletWithDailyLimit.sol\":1472:1486  isOwner[owner] */\n      0x20\n      mstore\n      0x40\n      swap1\n      keccak256\n      sload\n        /* \"contracts/MultiSigWalletWithDailyLimit.sol\":3430:3435  owner */\n      dup2\n      swap1\n        /* \"contracts/MultiSigWalletWithDailyLimit.sol\":1472:1486  isOwner[owner] */\n      0xff\n      and\n        /* \"contracts/MultiSigWalletWithDailyLimit.sol\":1471:1486  !isOwner[owner] */\n      iszero\n        /* \"contracts/MultiSigWalletWithDailyLimit.sol\":1463:1487  require(!isOwner[owner]) */\n      tag_141\n      jumpi\n      0x0\n      dup1\n      revert\n    tag_141:\n        /* \"contracts/MultiSigWalletWithDailyLimit.sol\":3453:3458  owner */\n      dup2\n      sub(exp(0x2, 0xa0), 0x1)\n        /* \"contracts/MultiSigWalletWithDailyLimit.sol\":2180:2193  _address != 0 */\n      dup2\n      and\n      iszero\n      iszero\n        /* \"contracts/MultiSigWalletWithDailyLimit.sol\":2172:2194  require(_address != 0) */\n      tag_143\n      jumpi\n      0x0\n      dup1\n      revert\n    tag_143:\n        /* \"contracts/MultiSigWalletWithDailyLimit.sol\":3485:3491  owners */\n      0x3\n        /* \"contracts/MultiSigWalletWithDailyLimit.sol\":3485:3498  owners.length */\n      dup1\n      sload\n      swap1\n      pop\n        /* \"contracts/MultiSigWalletWithDailyLimit.sol\":3501:3502  1 */\n      0x1\n        /* \"contracts/MultiSigWalletWithDailyLimit.sol\":3485:3502  owners.length + 1 */\n      add\n        /* \"contracts/MultiSigWalletWithDailyLimit.sol\":3504:3512  required */\n      sload(0x4)\n        /* \"contracts/MultiSigWalletWithDailyLimit.sol\":861:863  50 */\n      0x32\n        /* \"contracts/MultiSigWalletWithDailyLimit.sol\":2295:2305  ownerCount */\n      dup3\n        /* \"contracts/MultiSigWalletWithDailyLimit.sol\":2295:2324  ownerCount <= MAX_OWNER_COUNT */\n      gt\n      iszero\n        /* \"contracts/MultiSigWalletWithDailyLimit.sol\":2295:2363  ownerCount <= MAX_OWNER_COUNT... */\n      dup1\n      iszero\n      tag_145\n      jumpi\n      pop\n        /* \"contracts/MultiSigWalletWithDailyLimit.sol\":2353:2363  ownerCount */\n      dup2\n        /* \"contracts/MultiSigWalletWithDailyLimit.sol\":2340:2349  _required */\n      dup2\n        /* \"contracts/MultiSigWalletWithDailyLimit.sol\":2340:2363  _required <= ownerCount */\n      gt\n      iszero\n        /* \"contracts/MultiSigWalletWithDailyLimit.sol\":2295:2363  ownerCount <= MAX_OWNER_COUNT... */\n    tag_145:\n        /* \"contracts/MultiSigWalletWithDailyLimit.sol\":2295:2393  ownerCount <= MAX_OWNER_COUNT... */\n      dup1\n      iszero\n      tag_146\n      jumpi\n      pop\n        /* \"contracts/MultiSigWalletWithDailyLimit.sol\":2379:2393  _required != 0 */\n      dup1\n      iszero\n      iszero\n        /* \"contracts/MultiSigWalletWithDailyLimit.sol\":2295:2393  ownerCount <= MAX_OWNER_COUNT... */\n    tag_146:\n        /* \"contracts/MultiSigWalletWithDailyLimit.sol\":2295:2424  ownerCount <= MAX_OWNER_COUNT... */\n      dup1\n      iszero\n      tag_147\n      jumpi\n      pop\n        /* \"contracts/MultiSigWalletWithDailyLimit.sol\":2409:2424  ownerCount != 0 */\n      dup2\n      iszero\n      iszero\n        /* \"contracts/MultiSigWalletWithDailyLimit.sol\":2295:2424  ownerCount <= MAX_OWNER_COUNT... */\n    tag_147:\n        /* \"contracts/MultiSigWalletWithDailyLimit.sol\":2287:2425  require(ownerCount <= MAX_OWNER_COUNT... */\n      iszero\n      iszero\n      tag_148\n      jumpi\n      0x0\n      dup1\n      revert\n    tag_148:\n      sub(exp(0x2, 0xa0), 0x1)\n        /* \"contracts/MultiSigWalletWithDailyLimit.sol\":3528:3542  isOwner[owner] */\n      dup6\n      and\n      0x0\n      dup2\n      dup2\n      mstore\n        /* \"contracts/MultiSigWalletWithDailyLimit.sol\":3528:3535  isOwner */\n      0x2\n        /* \"contracts/MultiSigWalletWithDailyLimit.sol\":3528:3542  isOwner[owner] */\n      0x20\n      mstore\n      0x40\n      dup1\n      dup3\n      keccak256\n        /* \"contracts/MultiSigWalletWithDailyLimit.sol\":3528:3549  isOwner[owner] = true */\n      dup1\n      sload\n      not(0xff)\n      and\n        /* \"contracts/MultiSigWalletWithDailyLimit.sol\":3545:3549  true */\n      0x1\n        /* \"contracts/MultiSigWalletWithDailyLimit.sol\":3528:3549  isOwner[owner] = true */\n      swap1\n      dup2\n      or\n      swap1\n      swap2\n      sstore\n        /* \"contracts/MultiSigWalletWithDailyLimit.sol\":3559:3565  owners */\n      0x3\n        /* \"--CODEGEN--\":27:37   */\n      dup1\n      sload\n        /* \"--CODEGEN--\":23:41   */\n      swap2\n      dup3\n      add\n        /* \"--CODEGEN--\":45:68   */\n      dup2\n      sstore\n        /* \"contracts/MultiSigWalletWithDailyLimit.sol\":3559:3577  owners.push(owner) */\n      dup4\n      mstore\n      0xc2575a0e9e593c00f959f8c92f12db2869c3395a3b0502d05e2516446f71f85b\n      add\n      dup1\n      sload\n      not(0xffffffffffffffffffffffffffffffffffffffff)\n      and\n      dup5\n      or\n      swap1\n      sstore\n        /* \"contracts/MultiSigWalletWithDailyLimit.sol\":3587:3607  OwnerAddition(owner) */\n      mload\n      0xf39e6e1eb0edcf53c221607b54b00cd28f3196fed0a24994dc308b8f611b682d\n      swap2\n        /* \"contracts/MultiSigWalletWithDailyLimit.sol\":3528:3542  isOwner[owner] */\n      swap1\n        /* \"contracts/MultiSigWalletWithDailyLimit.sol\":3587:3607  OwnerAddition(owner) */\n      log2\n        /* \"contracts/MultiSigWalletWithDailyLimit.sol\":2204:2205  _ */\n      pop\n      pop\n        /* \"contracts/MultiSigWalletWithDailyLimit.sol\":1497:1498  _ */\n      pop\n        /* \"contracts/MultiSigWalletWithDailyLimit.sol\":1397:1398  _ */\n      pop\n        /* \"contracts/MultiSigWalletWithDailyLimit.sol\":3337:3614  function addOwner(address owner)... */\n      pop\n      jump\t// out\n        /* \"contracts/MultiSigWalletWithDailyLimit.sol\":8725:9062  function isConfirmed(uint transactionId)... */\n    tag_49:\n        /* \"contracts/MultiSigWalletWithDailyLimit.sol\":8815:8819  bool */\n      0x0\n      dup1\n      dup1\n        /* \"contracts/MultiSigWalletWithDailyLimit.sol\":8859:9056  for (uint i=0; i<owners.length; i++) {... */\n    tag_152:\n        /* \"contracts/MultiSigWalletWithDailyLimit.sol\":8876:8882  owners */\n      0x3\n        /* \"contracts/MultiSigWalletWithDailyLimit.sol\":8876:8889  owners.length */\n      sload\n        /* \"contracts/MultiSigWalletWithDailyLimit.sol\":8874:8889  i<owners.length */\n      dup2\n      lt\n        /* \"contracts/MultiSigWalletWithDailyLimit.sol\":8859:9056  for (uint i=0; i<owners.length; i++) {... */\n      iszero\n      tag_153\n      jumpi\n        /* \"contracts/MultiSigWalletWithDailyLimit.sol\":8914:8942  confirmations[transactionId] */\n      0x0\n      dup5\n      dup2\n      mstore\n        /* \"contracts/MultiSigWalletWithDailyLimit.sol\":8914:8927  confirmations */\n      0x1\n        /* \"contracts/MultiSigWalletWithDailyLimit.sol\":8914:8942  confirmations[transactionId] */\n      0x20\n      mstore\n      0x40\n      dup2\n      keccak256\n        /* \"contracts/MultiSigWalletWithDailyLimit.sol\":8943:8949  owners */\n      0x3\n        /* \"contracts/MultiSigWalletWithDailyLimit.sol\":8943:8952  owners[i] */\n      dup1\n      sload\n        /* \"contracts/MultiSigWalletWithDailyLimit.sol\":8914:8942  confirmations[transactionId] */\n      swap2\n      swap3\n      swap2\n        /* \"contracts/MultiSigWalletWithDailyLimit.sol\":8950:8951  i */\n      dup5\n      swap1\n        /* \"contracts/MultiSigWalletWithDailyLimit.sol\":8943:8952  owners[i] */\n      dup2\n      lt\n      tag_155\n      jumpi\n      invalid\n    tag_155:\n      0x0\n      swap2\n      dup3\n      mstore\n      0x20\n      dup1\n      dup4\n      keccak256\n      swap1\n      swap2\n      add\n      sload\n      sub(exp(0x2, 0xa0), 0x1)\n      and\n        /* \"contracts/MultiSigWalletWithDailyLimit.sol\":8914:8953  confirmations[transactionId][owners[i]] */\n      dup4\n      mstore\n      dup3\n      add\n      swap3\n      swap1\n      swap3\n      mstore\n      0x40\n      add\n      swap1\n      keccak256\n      sload\n      0xff\n      and\n        /* \"contracts/MultiSigWalletWithDailyLimit.sol\":8910:8981  if (confirmations[transactionId][owners[i]])... */\n      iszero\n      tag_157\n      jumpi\n        /* \"contracts/MultiSigWalletWithDailyLimit.sol\":8980:8981  1 */\n      0x1\n        /* \"contracts/MultiSigWalletWithDailyLimit.sol\":8971:8981  count += 1 */\n      dup3\n      add\n      swap2\n      pop\n        /* \"contracts/MultiSigWalletWithDailyLimit.sol\":8910:8981  if (confirmations[transactionId][owners[i]])... */\n    tag_157:\n        /* \"contracts/MultiSigWalletWithDailyLimit.sol\":9008:9016  required */\n      sload(0x4)\n        /* \"contracts/MultiSigWalletWithDailyLimit.sol\":8999:9004  count */\n      dup3\n        /* \"contracts/MultiSigWalletWithDailyLimit.sol\":8999:9016  count == required */\n      eq\n        /* \"contracts/MultiSigWalletWithDailyLimit.sol\":8995:9045  if (count == required)... */\n      iszero\n      tag_158\n      jumpi\n        /* \"contracts/MultiSigWalletWithDailyLimit.sol\":9041:9045  true */\n      0x1\n        /* \"contracts/MultiSigWalletWithDailyLimit.sol\":9034:9045  return true */\n      swap3\n      pop\n      jump(tag_153)\n        /* \"contracts/MultiSigWalletWithDailyLimit.sol\":8995:9045  if (count == required)... */\n    tag_158:\n        /* \"contracts/MultiSigWalletWithDailyLimit.sol\":8891:8894  i++ */\n      0x1\n      add\n        /* \"contracts/MultiSigWalletWithDailyLimit.sol\":8859:9056  for (uint i=0; i<owners.length; i++) {... */\n      jump(tag_152)\n    tag_153:\n        /* \"contracts/MultiSigWalletWithDailyLimit.sol\":8725:9062  function isConfirmed(uint transactionId)... */\n      pop\n      pop\n      swap2\n      swap1\n      pop\n      jump\t// out\n        /* \"contracts/MultiSigWalletWithDailyLimit.sol\":10043:10295  function getConfirmationCount(uint transactionId)... */\n    tag_52:\n        /* \"contracts/MultiSigWalletWithDailyLimit.sol\":10142:10152  uint count */\n      0x0\n      dup1\n        /* \"contracts/MultiSigWalletWithDailyLimit.sol\":10168:10288  for (uint i=0; i<owners.length; i++)... */\n    tag_160:\n        /* \"contracts/MultiSigWalletWithDailyLimit.sol\":10185:10191  owners */\n      0x3\n        /* \"contracts/MultiSigWalletWithDailyLimit.sol\":10185:10198  owners.length */\n      sload\n        /* \"contracts/MultiSigWalletWithDailyLimit.sol\":10183:10198  i<owners.length */\n      dup2\n      lt\n        /* \"contracts/MultiSigWalletWithDailyLimit.sol\":10168:10288  for (uint i=0; i<owners.length; i++)... */\n      iszero\n      tag_161\n      jumpi\n        /* \"contracts/MultiSigWalletWithDailyLimit.sol\":10221:10249  confirmations[transactionId] */\n      0x0\n      dup4\n      dup2\n      mstore\n        /* \"contracts/MultiSigWalletWithDailyLimit.sol\":10221:10234  confirmations */\n      0x1\n        /* \"contracts/MultiSigWalletWithDailyLimit.sol\":10221:10249  confirmations[transactionId] */\n      0x20\n      mstore\n      0x40\n      dup2\n      keccak256\n        /* \"contracts/MultiSigWalletWithDailyLimit.sol\":10250:10256  owners */\n      0x3\n        /* \"contracts/MultiSigWalletWithDailyLimit.sol\":10250:10259  owners[i] */\n      dup1\n      sload\n        /* \"contracts/MultiSigWalletWithDailyLimit.sol\":10221:10249  confirmations[transactionId] */\n      swap2\n      swap3\n      swap2\n        /* \"contracts/MultiSigWalletWithDailyLimit.sol\":10257:10258  i */\n      dup5\n      swap1\n        /* \"contracts/MultiSigWalletWithDailyLimit.sol\":10250:10259  owners[i] */\n      dup2\n      lt\n      tag_163\n      jumpi\n      invalid\n    tag_163:\n      0x0\n      swap2\n      dup3\n      mstore\n      0x20\n      dup1\n      dup4\n      keccak256\n      swap1\n      swap2\n      add\n      sload\n      sub(exp(0x2, 0xa0), 0x1)\n      and\n        /* \"contracts/MultiSigWalletWithDailyLimit.sol\":10221:10260  confirmations[transactionId][owners[i]] */\n      dup4\n      mstore\n      dup3\n      add\n      swap3\n      swap1\n      swap3\n      mstore\n      0x40\n      add\n      swap1\n      keccak256\n      sload\n      0xff\n      and\n        /* \"contracts/MultiSigWalletWithDailyLimit.sol\":10217:10288  if (confirmations[transactionId][owners[i]])... */\n      iszero\n      tag_165\n      jumpi\n        /* \"contracts/MultiSigWalletWithDailyLimit.sol\":10287:10288  1 */\n      0x1\n        /* \"contracts/MultiSigWalletWithDailyLimit.sol\":10278:10288  count += 1 */\n      dup3\n      add\n      swap2\n      pop\n        /* \"contracts/MultiSigWalletWithDailyLimit.sol\":10217:10288  if (confirmations[transactionId][owners[i]])... */\n    tag_165:\n        /* \"contracts/MultiSigWalletWithDailyLimit.sol\":10200:10203  i++ */\n      0x1\n      add\n        /* \"contracts/MultiSigWalletWithDailyLimit.sol\":10168:10288  for (uint i=0; i<owners.length; i++)... */\n      jump(tag_160)\n    tag_161:\n        /* \"contracts/MultiSigWalletWithDailyLimit.sol\":10043:10295  function getConfirmationCount(uint transactionId)... */\n      pop\n      swap2\n      swap1\n      pop\n      jump\t// out\n        /* \"contracts/MultiSigWalletWithDailyLimit.sol\":901:950  mapping (uint => Transaction) public transactions */\n    tag_55:\n      0x0\n      0x20\n      dup2\n      dup2\n      mstore\n      swap2\n      dup2\n      mstore\n      0x40\n      swap1\n      dup2\n      swap1\n      keccak256\n      dup1\n      sload\n      0x1\n      dup1\n      dup4\n      add\n      sload\n      0x2\n      dup1\n      dup6\n      add\n      dup1\n      sload\n      dup8\n      mload\n      0x100\n      swap6\n      dup3\n      and\n      iszero\n      swap6\n      swap1\n      swap6\n      mul\n      not(0x0)\n      add\n      and\n      swap2\n      swap1\n      swap2\n      div\n      0x1f\n      dup2\n      add\n      dup9\n      swap1\n      div\n      dup9\n      mul\n      dup5\n      add\n      dup9\n      add\n      swap1\n      swap7\n      mstore\n      dup6\n      dup4\n      mstore\n      sub(exp(0x2, 0xa0), 0x1)\n      swap1\n      swap4\n      and\n      swap6\n      swap1\n      swap5\n      swap2\n      swap3\n      swap2\n      swap1\n      dup4\n      add\n      dup3\n      dup3\n      dup1\n      iszero\n      tag_166\n      jumpi\n      dup1\n      0x1f\n      lt\n      tag_167\n      jumpi\n      0x100\n      dup1\n      dup4\n      sload\n      div\n      mul\n      dup4\n      mstore\n      swap2\n      0x20\n      add\n      swap2\n      jump(tag_166)\n    tag_167:\n      dup3\n      add\n      swap2\n      swap1\n      0x0\n      mstore\n      keccak256(0x0, 0x20)\n      swap1\n    tag_168:\n      dup2\n      sload\n      dup2\n      mstore\n      swap1\n      0x1\n      add\n      swap1\n      0x20\n      add\n      dup1\n      dup4\n      gt\n      tag_168\n      jumpi\n      dup3\n      swap1\n      sub\n      0x1f\n      and\n      dup3\n      add\n      swap2\n    tag_166:\n      pop\n      pop\n      pop\n      0x3\n      swap1\n      swap4\n      add\n      sload\n      swap2\n      swap3\n      pop\n      pop\n      0xff\n      and\n      dup5\n      jump\t// out\n        /* \"contracts/MultiSigWalletWithDailyLimit.sol\":10960:11075  function getOwners()... */\n    tag_62:\n        /* \"contracts/MultiSigWalletWithDailyLimit.sol\":11030:11039  address[] */\n      0x60\n        /* \"contracts/MultiSigWalletWithDailyLimit.sol\":11062:11068  owners */\n      0x3\n        /* \"contracts/MultiSigWalletWithDailyLimit.sol\":11055:11068  return owners */\n      dup1\n      sload\n      dup1\n      0x20\n      mul\n      0x20\n      add\n      mload(0x40)\n      swap1\n      dup2\n      add\n      0x40\n      mstore\n      dup1\n      swap3\n      swap2\n      swap1\n      dup2\n      dup2\n      mstore\n      0x20\n      add\n      dup3\n      dup1\n      sload\n      dup1\n      iszero\n      tag_170\n      jumpi\n      0x20\n      mul\n      dup3\n      add\n      swap2\n      swap1\n      0x0\n      mstore\n      keccak256(0x0, 0x20)\n      swap1\n    tag_171:\n      dup2\n      sload\n      sub(exp(0x2, 0xa0), 0x1)\n      and\n      dup2\n      mstore\n      0x1\n      swap1\n      swap2\n      add\n      swap1\n      0x20\n      add\n      dup1\n      dup4\n      gt\n      tag_171\n      jumpi\n    tag_170:\n      pop\n      pop\n      pop\n      pop\n      pop\n      swap1\n      pop\n        /* \"contracts/MultiSigWalletWithDailyLimit.sol\":10960:11075  function getOwners()... */\n    tag_169:\n      swap1\n      jump\t// out\n        /* \"contracts/MultiSigWalletWithDailyLimit.sol\":12178:12854  function getTransactionIds(uint from, uint to, bool pending, bool executed)... */\n    tag_68:\n        /* \"contracts/MultiSigWalletWithDailyLimit.sol\":12303:12325  uint[] _transactionIds */\n      0x60\n        /* \"contracts/MultiSigWalletWithDailyLimit.sol\":12341:12373  uint[] memory transactionIdsTemp */\n      dup1\n        /* \"contracts/MultiSigWalletWithDailyLimit.sol\":12414:12424  uint count */\n      0x0\n        /* \"contracts/MultiSigWalletWithDailyLimit.sol\":12438:12444  uint i */\n      dup1\n        /* \"contracts/MultiSigWalletWithDailyLimit.sol\":12387:12403  transactionCount */\n      sload(0x5)\n        /* \"contracts/MultiSigWalletWithDailyLimit.sol\":12376:12404  new uint[](transactionCount) */\n      mload(0x40)\n      swap1\n      dup1\n      dup3\n      mstore\n      dup1\n      0x20\n      mul\n      0x20\n      add\n      dup3\n      add\n      0x40\n      mstore\n      dup1\n      iszero\n      tag_173\n      jumpi\n      dup2\n      0x20\n      add\n        /* \"--CODEGEN--\":29:31   */\n      0x20\n        /* \"--CODEGEN--\":21:27   */\n      dup3\n        /* \"--CODEGEN--\":17:32   */\n      mul\n        /* \"--CODEGEN--\":117:121   */\n      dup1\n        /* \"--CODEGEN--\":105:115   */\n      codesize\n        /* \"--CODEGEN--\":97:103   */\n      dup4\n        /* \"--CODEGEN--\":88:122   */\n      codecopy\n        /* \"--CODEGEN--\":136:153   */\n      add\n      swap1\n      pop\n        /* \"contracts/MultiSigWalletWithDailyLimit.sol\":12376:12404  new uint[](transactionCount) */\n    tag_173:\n      pop\n        /* \"contracts/MultiSigWalletWithDailyLimit.sol\":12341:12404  uint[] memory transactionIdsTemp = new uint[](transactionCount) */\n      swap3\n      pop\n        /* \"contracts/MultiSigWalletWithDailyLimit.sol\":12427:12428  0 */\n      0x0\n        /* \"contracts/MultiSigWalletWithDailyLimit.sol\":12414:12428  uint count = 0 */\n      swap2\n      pop\n        /* \"contracts/MultiSigWalletWithDailyLimit.sol\":12461:12462  0 */\n      0x0\n        /* \"contracts/MultiSigWalletWithDailyLimit.sol\":12459:12462  i=0 */\n      swap1\n      pop\n        /* \"contracts/MultiSigWalletWithDailyLimit.sol\":12454:12704  for (i=0; i<transactionCount; i++)... */\n    tag_174:\n        /* \"contracts/MultiSigWalletWithDailyLimit.sol\":12466:12482  transactionCount */\n      sload(0x5)\n        /* \"contracts/MultiSigWalletWithDailyLimit.sol\":12464:12465  i */\n      dup2\n        /* \"contracts/MultiSigWalletWithDailyLimit.sol\":12464:12482  i<transactionCount */\n      lt\n        /* \"contracts/MultiSigWalletWithDailyLimit.sol\":12454:12704  for (i=0; i<transactionCount; i++)... */\n      iszero\n      tag_175\n      jumpi\n        /* \"contracts/MultiSigWalletWithDailyLimit.sol\":12508:12515  pending */\n      dup6\n        /* \"contracts/MultiSigWalletWithDailyLimit.sol\":12508:12544  pending && !transactions[i].executed */\n      dup1\n      iszero\n      tag_177\n      jumpi\n      pop\n        /* \"contracts/MultiSigWalletWithDailyLimit.sol\":12520:12532  transactions */\n      0x0\n        /* \"contracts/MultiSigWalletWithDailyLimit.sol\":12520:12535  transactions[i] */\n      dup2\n      dup2\n      mstore\n      0x20\n      dup2\n      swap1\n      mstore\n      0x40\n      swap1\n      keccak256\n        /* \"contracts/MultiSigWalletWithDailyLimit.sol\":12520:12544  transactions[i].executed */\n      0x3\n      add\n      sload\n      0xff\n      and\n        /* \"contracts/MultiSigWalletWithDailyLimit.sol\":12519:12544  !transactions[i].executed */\n      iszero\n        /* \"contracts/MultiSigWalletWithDailyLimit.sol\":12508:12544  pending && !transactions[i].executed */\n    tag_177:\n        /* \"contracts/MultiSigWalletWithDailyLimit.sol\":12508:12600  pending && !transactions[i].executed... */\n      dup1\n      tag_179\n      jumpi\n      pop\n        /* \"contracts/MultiSigWalletWithDailyLimit.sol\":12564:12572  executed */\n      dup5\n        /* \"contracts/MultiSigWalletWithDailyLimit.sol\":12564:12600  executed && transactions[i].executed */\n      dup1\n      iszero\n      tag_179\n      jumpi\n      pop\n        /* \"contracts/MultiSigWalletWithDailyLimit.sol\":12576:12588  transactions */\n      0x0\n        /* \"contracts/MultiSigWalletWithDailyLimit.sol\":12576:12591  transactions[i] */\n      dup2\n      dup2\n      mstore\n      0x20\n      dup2\n      swap1\n      mstore\n      0x40\n      swap1\n      keccak256\n        /* \"contracts/MultiSigWalletWithDailyLimit.sol\":12576:12600  transactions[i].executed */\n      0x3\n      add\n      sload\n      0xff\n      and\n        /* \"contracts/MultiSigWalletWithDailyLimit.sol\":12564:12600  executed && transactions[i].executed */\n    tag_179:\n        /* \"contracts/MultiSigWalletWithDailyLimit.sol\":12501:12704  if (   pending && !transactions[i].executed... */\n      iszero\n      tag_180\n      jumpi\n        /* \"contracts/MultiSigWalletWithDailyLimit.sol\":12660:12661  i */\n      dup1\n        /* \"contracts/MultiSigWalletWithDailyLimit.sol\":12632:12650  transactionIdsTemp */\n      dup4\n        /* \"contracts/MultiSigWalletWithDailyLimit.sol\":12651:12656  count */\n      dup4\n        /* \"contracts/MultiSigWalletWithDailyLimit.sol\":12632:12657  transactionIdsTemp[count] */\n      dup2\n      mload\n      dup2\n      lt\n      iszero\n      iszero\n      tag_181\n      jumpi\n      invalid\n    tag_181:\n      0x20\n      swap1\n      dup2\n      mul\n      swap1\n      swap2\n      add\n      add\n        /* \"contracts/MultiSigWalletWithDailyLimit.sol\":12632:12661  transactionIdsTemp[count] = i */\n      mstore\n        /* \"contracts/MultiSigWalletWithDailyLimit.sol\":12688:12689  1 */\n      0x1\n        /* \"contracts/MultiSigWalletWithDailyLimit.sol\":12679:12689  count += 1 */\n      swap2\n      swap1\n      swap2\n      add\n      swap1\n        /* \"contracts/MultiSigWalletWithDailyLimit.sol\":12501:12704  if (   pending && !transactions[i].executed... */\n    tag_180:\n        /* \"contracts/MultiSigWalletWithDailyLimit.sol\":12484:12487  i++ */\n      0x1\n      add\n        /* \"contracts/MultiSigWalletWithDailyLimit.sol\":12454:12704  for (i=0; i<transactionCount; i++)... */\n      jump(tag_174)\n    tag_175:\n        /* \"contracts/MultiSigWalletWithDailyLimit.sol\":12747:12751  from */\n      dup8\n        /* \"contracts/MultiSigWalletWithDailyLimit.sol\":12742:12744  to */\n      dup8\n        /* \"contracts/MultiSigWalletWithDailyLimit.sol\":12742:12751  to - from */\n      sub\n        /* \"contracts/MultiSigWalletWithDailyLimit.sol\":12731:12752  new uint[](to - from) */\n      mload(0x40)\n      swap1\n      dup1\n      dup3\n      mstore\n      dup1\n      0x20\n      mul\n      0x20\n      add\n      dup3\n      add\n      0x40\n      mstore\n      dup1\n      iszero\n      tag_182\n      jumpi\n      dup2\n      0x20\n      add\n        /* \"--CODEGEN--\":29:31   */\n      0x20\n        /* \"--CODEGEN--\":21:27   */\n      dup3\n        /* \"--CODEGEN--\":17:32   */\n      mul\n        /* \"--CODEGEN--\":117:121   */\n      dup1\n        /* \"--CODEGEN--\":105:115   */\n      codesize\n        /* \"--CODEGEN--\":97:103   */\n      dup4\n        /* \"--CODEGEN--\":88:122   */\n      codecopy\n        /* \"--CODEGEN--\":136:153   */\n      add\n      swap1\n      pop\n        /* \"contracts/MultiSigWalletWithDailyLimit.sol\":12731:12752  new uint[](to - from) */\n    tag_182:\n      pop\n        /* \"contracts/MultiSigWalletWithDailyLimit.sol\":12713:12752  _transactionIds = new uint[](to - from) */\n      swap4\n      pop\n        /* \"contracts/MultiSigWalletWithDailyLimit.sol\":12769:12773  from */\n      dup8\n        /* \"contracts/MultiSigWalletWithDailyLimit.sol\":12767:12773  i=from */\n      swap1\n      pop\n        /* \"contracts/MultiSigWalletWithDailyLimit.sol\":12762:12847  for (i=from; i<to; i++)... */\n    tag_183:\n        /* \"contracts/MultiSigWalletWithDailyLimit.sol\":12777:12779  to */\n      dup7\n        /* \"contracts/MultiSigWalletWithDailyLimit.sol\":12775:12776  i */\n      dup2\n        /* \"contracts/MultiSigWalletWithDailyLimit.sol\":12775:12779  i<to */\n      lt\n        /* \"contracts/MultiSigWalletWithDailyLimit.sol\":12762:12847  for (i=from; i<to; i++)... */\n      iszero\n      tag_184\n      jumpi\n        /* \"contracts/MultiSigWalletWithDailyLimit.sol\":12826:12844  transactionIdsTemp */\n      dup3\n        /* \"contracts/MultiSigWalletWithDailyLimit.sol\":12845:12846  i */\n      dup2\n        /* \"contracts/MultiSigWalletWithDailyLimit.sol\":12826:12847  transactionIdsTemp[i] */\n      dup2\n      mload\n      dup2\n      lt\n      iszero\n      iszero\n      tag_186\n      jumpi\n      invalid\n    tag_186:\n      swap1\n      0x20\n      add\n      swap1\n      0x20\n      mul\n      add\n      mload\n        /* \"contracts/MultiSigWalletWithDailyLimit.sol\":12798:12813  _transactionIds */\n      dup5\n        /* \"contracts/MultiSigWalletWithDailyLimit.sol\":12818:12822  from */\n      dup10\n        /* \"contracts/MultiSigWalletWithDailyLimit.sol\":12814:12815  i */\n      dup4\n        /* \"contracts/MultiSigWalletWithDailyLimit.sol\":12814:12822  i - from */\n      sub\n        /* \"contracts/MultiSigWalletWithDailyLimit.sol\":12798:12823  _transactionIds[i - from] */\n      dup2\n      mload\n      dup2\n      lt\n      iszero\n      iszero\n      tag_187\n      jumpi\n      invalid\n    tag_187:\n      0x20\n      swap1\n      dup2\n      mul\n      swap1\n      swap2\n      add\n      add\n        /* \"contracts/MultiSigWalletWithDailyLimit.sol\":12798:12847  _transactionIds[i - from] = transactionIdsTemp[i] */\n      mstore\n        /* \"contracts/MultiSigWalletWithDailyLimit.sol\":12781:12784  i++ */\n      0x1\n      add\n        /* \"contracts/MultiSigWalletWithDailyLimit.sol\":12762:12847  for (i=from; i<to; i++)... */\n      jump(tag_183)\n    tag_184:\n        /* \"contracts/MultiSigWalletWithDailyLimit.sol\":12178:12854  function getTransactionIds(uint from, uint to, bool pending, bool executed)... */\n      pop\n      pop\n      pop\n      swap5\n      swap4\n      pop\n      pop\n      pop\n      pop\n      jump\t// out\n        /* \"contracts/MultiSigWalletWithDailyLimit.sol\":11254:11829  function getConfirmations(uint transactionId)... */\n    tag_74:\n        /* \"contracts/MultiSigWalletWithDailyLimit.sol\":11349:11373  address[] _confirmations */\n      0x60\n        /* \"contracts/MultiSigWalletWithDailyLimit.sol\":11389:11423  address[] memory confirmationsTemp */\n      dup1\n        /* \"contracts/MultiSigWalletWithDailyLimit.sol\":11464:11474  uint count */\n      0x0\n        /* \"contracts/MultiSigWalletWithDailyLimit.sol\":11488:11494  uint i */\n      dup1\n        /* \"contracts/MultiSigWalletWithDailyLimit.sol\":11440:11446  owners */\n      0x3\n        /* \"contracts/MultiSigWalletWithDailyLimit.sol\":11440:11453  owners.length */\n      dup1\n      sload\n      swap1\n      pop\n        /* \"contracts/MultiSigWalletWithDailyLimit.sol\":11426:11454  new address[](owners.length) */\n      mload(0x40)\n      swap1\n      dup1\n      dup3\n      mstore\n      dup1\n      0x20\n      mul\n      0x20\n      add\n      dup3\n      add\n      0x40\n      mstore\n      dup1\n      iszero\n      tag_189\n      jumpi\n      dup2\n      0x20\n      add\n        /* \"--CODEGEN--\":29:31   */\n      0x20\n        /* \"--CODEGEN--\":21:27   */\n      dup3\n        /* \"--CODEGEN--\":17:32   */\n      mul\n        /* \"--CODEGEN--\":117:121   */\n      dup1\n        /* \"--CODEGEN--\":105:115   */\n      codesize\n        /* \"--CODEGEN--\":97:103   */\n      dup4\n        /* \"--CODEGEN--\":88:122   */\n      codecopy\n        /* \"--CODEGEN--\":136:153   */\n      add\n      swap1\n      pop\n        /* \"contracts/MultiSigWalletWithDailyLimit.sol\":11426:11454  new address[](owners.length) */\n    tag_189:\n      pop\n        /* \"contracts/MultiSigWalletWithDailyLimit.sol\":11389:11454  address[] memory confirmationsTemp = new address[](owners.length) */\n      swap3\n      pop\n        /* \"contracts/MultiSigWalletWithDailyLimit.sol\":11477:11478  0 */\n      0x0\n        /* \"contracts/MultiSigWalletWithDailyLimit.sol\":11464:11478  uint count = 0 */\n      swap2\n      pop\n        /* \"contracts/MultiSigWalletWithDailyLimit.sol\":11511:11512  0 */\n      0x0\n        /* \"contracts/MultiSigWalletWithDailyLimit.sol\":11509:11512  i=0 */\n      swap1\n      pop\n        /* \"contracts/MultiSigWalletWithDailyLimit.sol\":11504:11690  for (i=0; i<owners.length; i++)... */\n    tag_190:\n        /* \"contracts/MultiSigWalletWithDailyLimit.sol\":11516:11522  owners */\n      0x3\n        /* \"contracts/MultiSigWalletWithDailyLimit.sol\":11516:11529  owners.length */\n      sload\n        /* \"contracts/MultiSigWalletWithDailyLimit.sol\":11514:11529  i<owners.length */\n      dup2\n      lt\n        /* \"contracts/MultiSigWalletWithDailyLimit.sol\":11504:11690  for (i=0; i<owners.length; i++)... */\n      iszero\n      tag_191\n      jumpi\n        /* \"contracts/MultiSigWalletWithDailyLimit.sol\":11552:11580  confirmations[transactionId] */\n      0x0\n      dup6\n      dup2\n      mstore\n        /* \"contracts/MultiSigWalletWithDailyLimit.sol\":11552:11565  confirmations */\n      0x1\n        /* \"contracts/MultiSigWalletWithDailyLimit.sol\":11552:11580  confirmations[transactionId] */\n      0x20\n      mstore\n      0x40\n      dup2\n      keccak256\n        /* \"contracts/MultiSigWalletWithDailyLimit.sol\":11581:11587  owners */\n      0x3\n        /* \"contracts/MultiSigWalletWithDailyLimit.sol\":11581:11590  owners[i] */\n      dup1\n      sload\n        /* \"contracts/MultiSigWalletWithDailyLimit.sol\":11552:11580  confirmations[transactionId] */\n      swap2\n      swap3\n      swap2\n        /* \"contracts/MultiSigWalletWithDailyLimit.sol\":11588:11589  i */\n      dup5\n      swap1\n        /* \"contracts/MultiSigWalletWithDailyLimit.sol\":11581:11590  owners[i] */\n      dup2\n      lt\n      tag_193\n      jumpi\n      invalid\n    tag_193:\n      0x0\n      swap2\n      dup3\n      mstore\n      0x20\n      dup1\n      dup4\n      keccak256\n      swap1\n      swap2\n      add\n      sload\n      sub(exp(0x2, 0xa0), 0x1)\n      and\n        /* \"contracts/MultiSigWalletWithDailyLimit.sol\":11552:11591  confirmations[transactionId][owners[i]] */\n      dup4\n      mstore\n      dup3\n      add\n      swap3\n      swap1\n      swap3\n      mstore\n      0x40\n      add\n      swap1\n      keccak256\n      sload\n      0xff\n      and\n        /* \"contracts/MultiSigWalletWithDailyLimit.sol\":11548:11690  if (confirmations[transactionId][owners[i]]) {... */\n      iszero\n      tag_195\n      jumpi\n        /* \"contracts/MultiSigWalletWithDailyLimit.sol\":11638:11644  owners */\n      0x3\n        /* \"contracts/MultiSigWalletWithDailyLimit.sol\":11638:11647  owners[i] */\n      dup1\n      sload\n        /* \"contracts/MultiSigWalletWithDailyLimit.sol\":11645:11646  i */\n      dup3\n      swap1\n        /* \"contracts/MultiSigWalletWithDailyLimit.sol\":11638:11647  owners[i] */\n      dup2\n      lt\n      tag_196\n      jumpi\n      invalid\n    tag_196:\n      0x0\n      swap2\n      dup3\n      mstore\n      0x20\n      swap1\n      swap2\n      keccak256\n      add\n      sload\n        /* \"contracts/MultiSigWalletWithDailyLimit.sol\":11611:11635  confirmationsTemp[count] */\n      dup4\n      mload\n      sub(exp(0x2, 0xa0), 0x1)\n        /* \"contracts/MultiSigWalletWithDailyLimit.sol\":11638:11647  owners[i] */\n      swap1\n      swap2\n      and\n      swap1\n        /* \"contracts/MultiSigWalletWithDailyLimit.sol\":11611:11628  confirmationsTemp */\n      dup5\n      swap1\n        /* \"contracts/MultiSigWalletWithDailyLimit.sol\":11629:11634  count */\n      dup5\n      swap1\n        /* \"contracts/MultiSigWalletWithDailyLimit.sol\":11611:11635  confirmationsTemp[count] */\n      dup2\n      lt\n      tag_198\n      jumpi\n      invalid\n    tag_198:\n      sub(exp(0x2, 0xa0), 0x1)\n        /* \"contracts/MultiSigWalletWithDailyLimit.sol\":11611:11647  confirmationsTemp[count] = owners[i] */\n      swap1\n      swap3\n      and\n        /* \"contracts/MultiSigWalletWithDailyLimit.sol\":11611:11635  confirmationsTemp[count] */\n      0x20\n      swap3\n      dup4\n      mul\n      swap1\n      swap2\n      add\n      swap1\n      swap2\n      add\n        /* \"contracts/MultiSigWalletWithDailyLimit.sol\":11611:11647  confirmationsTemp[count] = owners[i] */\n      mstore\n        /* \"contracts/MultiSigWalletWithDailyLimit.sol\":11674:11675  1 */\n      0x1\n        /* \"contracts/MultiSigWalletWithDailyLimit.sol\":11665:11675  count += 1 */\n      swap2\n      swap1\n      swap2\n      add\n      swap1\n        /* \"contracts/MultiSigWalletWithDailyLimit.sol\":11548:11690  if (confirmations[transactionId][owners[i]]) {... */\n    tag_195:\n        /* \"contracts/MultiSigWalletWithDailyLimit.sol\":11531:11534  i++ */\n      0x1\n      add\n        /* \"contracts/MultiSigWalletWithDailyLimit.sol\":11504:11690  for (i=0; i<owners.length; i++)... */\n      jump(tag_190)\n    tag_191:\n        /* \"contracts/MultiSigWalletWithDailyLimit.sol\":11730:11735  count */\n      dup2\n        /* \"contracts/MultiSigWalletWithDailyLimit.sol\":11716:11736  new address[](count) */\n      mload(0x40)\n      swap1\n      dup1\n      dup3\n      mstore\n      dup1\n      0x20\n      mul\n      0x20\n      add\n      dup3\n      add\n      0x40\n      mstore\n      dup1\n      iszero\n      tag_199\n      jumpi\n      dup2\n      0x20\n      add\n        /* \"--CODEGEN--\":29:31   */\n      0x20\n        /* \"--CODEGEN--\":21:27   */\n      dup3\n        /* \"--CODEGEN--\":17:32   */\n      mul\n        /* \"--CODEGEN--\":117:121   */\n      dup1\n        /* \"--CODEGEN--\":105:115   */\n      codesize\n        /* \"--CODEGEN--\":97:103   */\n      dup4\n        /* \"--CODEGEN--\":88:122   */\n      codecopy\n        /* \"--CODEGEN--\":136:153   */\n      add\n      swap1\n      pop\n        /* \"contracts/MultiSigWalletWithDailyLimit.sol\":11716:11736  new address[](count) */\n    tag_199:\n      pop\n        /* \"contracts/MultiSigWalletWithDailyLimit.sol\":11699:11736  _confirmations = new address[](count) */\n      swap4\n      pop\n        /* \"contracts/MultiSigWalletWithDailyLimit.sol\":11753:11754  0 */\n      0x0\n        /* \"contracts/MultiSigWalletWithDailyLimit.sol\":11751:11754  i=0 */\n      swap1\n      pop\n        /* \"contracts/MultiSigWalletWithDailyLimit.sol\":11746:11822  for (i=0; i<count; i++)... */\n    tag_200:\n        /* \"contracts/MultiSigWalletWithDailyLimit.sol\":11758:11763  count */\n      dup2\n        /* \"contracts/MultiSigWalletWithDailyLimit.sol\":11756:11757  i */\n      dup2\n        /* \"contracts/MultiSigWalletWithDailyLimit.sol\":11756:11763  i<count */\n      lt\n        /* \"contracts/MultiSigWalletWithDailyLimit.sol\":11746:11822  for (i=0; i<count; i++)... */\n      iszero\n      tag_201\n      jumpi\n        /* \"contracts/MultiSigWalletWithDailyLimit.sol\":11802:11819  confirmationsTemp */\n      dup3\n        /* \"contracts/MultiSigWalletWithDailyLimit.sol\":11820:11821  i */\n      dup2\n        /* \"contracts/MultiSigWalletWithDailyLimit.sol\":11802:11822  confirmationsTemp[i] */\n      dup2\n      mload\n      dup2\n      lt\n      iszero\n      iszero\n      tag_203\n      jumpi\n      invalid\n    tag_203:\n      swap1\n      0x20\n      add\n      swap1\n      0x20\n      mul\n      add\n      mload\n        /* \"contracts/MultiSigWalletWithDailyLimit.sol\":11782:11796  _confirmations */\n      dup5\n        /* \"contracts/MultiSigWalletWithDailyLimit.sol\":11797:11798  i */\n      dup3\n        /* \"contracts/MultiSigWalletWithDailyLimit.sol\":11782:11799  _confirmations[i] */\n      dup2\n      mload\n      dup2\n      lt\n      iszero\n      iszero\n      tag_204\n      jumpi\n      invalid\n    tag_204:\n      sub(exp(0x2, 0xa0), 0x1)\n        /* \"contracts/MultiSigWalletWithDailyLimit.sol\":11782:11822  _confirmations[i] = confirmationsTemp[i] */\n      swap1\n      swap3\n      and\n        /* \"contracts/MultiSigWalletWithDailyLimit.sol\":11782:11799  _confirmations[i] */\n      0x20\n      swap3\n      dup4\n      mul\n      swap1\n      swap2\n      add\n      swap1\n      swap2\n      add\n        /* \"contracts/MultiSigWalletWithDailyLimit.sol\":11782:11822  _confirmations[i] = confirmationsTemp[i] */\n      mstore\n        /* \"contracts/MultiSigWalletWithDailyLimit.sol\":11765:11768  i++ */\n      0x1\n      add\n        /* \"contracts/MultiSigWalletWithDailyLimit.sol\":11746:11822  for (i=0; i<count; i++)... */\n      jump(tag_200)\n    tag_201:\n        /* \"contracts/MultiSigWalletWithDailyLimit.sol\":11254:11829  function getConfirmations(uint transactionId)... */\n      pop\n      pop\n      pop\n      swap2\n      swap1\n      pop\n      jump\t// out\n        /* \"contracts/MultiSigWalletWithDailyLimit.sol\":1127:1155  uint public transactionCount */\n    tag_80:\n      sload(0x5)\n      dup2\n      jump\t// out\n        /* \"contracts/MultiSigWalletWithDailyLimit.sol\":5019:5226  function changeRequirement(uint _required)... */\n    tag_83:\n        /* \"contracts/MultiSigWalletWithDailyLimit.sol\":1359:1369  msg.sender */\n      caller\n        /* \"contracts/MultiSigWalletWithDailyLimit.sol\":1381:1385  this */\n      address\n        /* \"contracts/MultiSigWalletWithDailyLimit.sol\":1359:1386  msg.sender == address(this) */\n      eq\n        /* \"contracts/MultiSigWalletWithDailyLimit.sol\":1351:1387  require(msg.sender == address(this)) */\n      tag_206\n      jumpi\n      0x0\n      dup1\n      revert\n    tag_206:\n        /* \"contracts/MultiSigWalletWithDailyLimit.sol\":5121:5127  owners */\n      0x3\n        /* \"contracts/MultiSigWalletWithDailyLimit.sol\":5121:5134  owners.length */\n      sload\n        /* \"contracts/MultiSigWalletWithDailyLimit.sol\":5136:5145  _required */\n      dup2\n        /* \"contracts/MultiSigWalletWithDailyLimit.sol\":861:863  50 */\n      0x32\n        /* \"contracts/MultiSigWalletWithDailyLimit.sol\":2295:2324  ownerCount <= MAX_OWNER_COUNT */\n      dup3\n      gt\n      dup1\n      iszero\n      swap1\n        /* \"contracts/MultiSigWalletWithDailyLimit.sol\":2295:2363  ownerCount <= MAX_OWNER_COUNT... */\n      tag_208\n      jumpi\n      pop\n        /* \"contracts/MultiSigWalletWithDailyLimit.sol\":2353:2363  ownerCount */\n      dup2\n        /* \"contracts/MultiSigWalletWithDailyLimit.sol\":2340:2349  _required */\n      dup2\n        /* \"contracts/MultiSigWalletWithDailyLimit.sol\":2340:2363  _required <= ownerCount */\n      gt\n      iszero\n        /* \"contracts/MultiSigWalletWithDailyLimit.sol\":2295:2363  ownerCount <= MAX_OWNER_COUNT... */\n    tag_208:\n        /* \"contracts/MultiSigWalletWithDailyLimit.sol\":2295:2393  ownerCount <= MAX_OWNER_COUNT... */\n      dup1\n      iszero\n      tag_209\n      jumpi\n      pop\n        /* \"contracts/MultiSigWalletWithDailyLimit.sol\":2379:2393  _required != 0 */\n      dup1\n      iszero\n      iszero\n        /* \"contracts/MultiSigWalletWithDailyLimit.sol\":2295:2393  ownerCount <= MAX_OWNER_COUNT... */\n    tag_209:\n        /* \"contracts/MultiSigWalletWithDailyLimit.sol\":2295:2424  ownerCount <= MAX_OWNER_COUNT... */\n      dup1\n      iszero\n      tag_210\n      jumpi\n      pop\n        /* \"contracts/MultiSigWalletWithDailyLimit.sol\":2409:2424  ownerCount != 0 */\n      dup2\n      iszero\n      iszero\n        /* \"contracts/MultiSigWalletWithDailyLimit.sol\":2295:2424  ownerCount <= MAX_OWNER_COUNT... */\n    tag_210:\n        /* \"contracts/MultiSigWalletWithDailyLimit.sol\":2287:2425  require(ownerCount <= MAX_OWNER_COUNT... */\n      iszero\n      iszero\n      tag_211\n      jumpi\n      0x0\n      dup1\n      revert\n    tag_211:\n        /* \"contracts/MultiSigWalletWithDailyLimit.sol\":5161:5169  required */\n      0x4\n        /* \"contracts/MultiSigWalletWithDailyLimit.sol\":5161:5181  required = _required */\n      dup4\n      swap1\n      sstore\n        /* \"contracts/MultiSigWalletWithDailyLimit.sol\":5191:5219  RequirementChange(_required) */\n      0x40\n      dup1\n      mload\n      dup5\n      dup2\n      mstore\n      swap1\n      mload\n      0xa3f1ee9126a074d9326c682f561767f710e927faa811f7a99829d49dc421797a\n      swap2\n      dup2\n      swap1\n      sub\n      0x20\n      add\n      swap1\n      log1\n        /* \"contracts/MultiSigWalletWithDailyLimit.sol\":1397:1398  _ */\n      pop\n      pop\n        /* \"contracts/MultiSigWalletWithDailyLimit.sol\":5019:5226  function changeRequirement(uint _required)... */\n      pop\n      jump\t// out\n        /* \"contracts/MultiSigWalletWithDailyLimit.sol\":5835:6179  function confirmTransaction(uint transactionId)... */\n    tag_86:\n        /* \"contracts/MultiSigWalletWithDailyLimit.sol\":5918:5928  msg.sender */\n      caller\n        /* \"contracts/MultiSigWalletWithDailyLimit.sol\":1565:1579  isOwner[owner] */\n      0x0\n      dup2\n      dup2\n      mstore\n        /* \"contracts/MultiSigWalletWithDailyLimit.sol\":1565:1572  isOwner */\n      0x2\n        /* \"contracts/MultiSigWalletWithDailyLimit.sol\":1565:1579  isOwner[owner] */\n      0x20\n      mstore\n      0x40\n      swap1\n      keccak256\n      sload\n      0xff\n      and\n        /* \"contracts/MultiSigWalletWithDailyLimit.sol\":1557:1580  require(isOwner[owner]) */\n      iszero\n      iszero\n      tag_214\n      jumpi\n      0x0\n      dup1\n      revert\n    tag_214:\n        /* \"contracts/MultiSigWalletWithDailyLimit.sol\":1669:1681  transactions */\n      0x0\n        /* \"contracts/MultiSigWalletWithDailyLimit.sol\":1669:1696  transactions[transactionId] */\n      dup3\n      dup2\n      mstore\n      0x20\n      dup2\n      swap1\n      mstore\n      0x40\n      swap1\n      keccak256\n        /* \"contracts/MultiSigWalletWithDailyLimit.sol\":1669:1708  transactions[transactionId].destination */\n      sload\n        /* \"contracts/MultiSigWalletWithDailyLimit.sol\":5956:5969  transactionId */\n      dup3\n      swap1\n      sub(exp(0x2, 0xa0), 0x1)\n        /* \"contracts/MultiSigWalletWithDailyLimit.sol\":1669:1708  transactions[transactionId].destination */\n      and\n        /* \"contracts/MultiSigWalletWithDailyLimit.sol\":1669:1713  transactions[transactionId].destination != 0 */\n      iszero\n      iszero\n        /* \"contracts/MultiSigWalletWithDailyLimit.sol\":1661:1714  require(transactions[transactionId].destination != 0) */\n      tag_216\n      jumpi\n      0x0\n      dup1\n      revert\n    tag_216:\n        /* \"contracts/MultiSigWalletWithDailyLimit.sol\":1946:1974  confirmations[transactionId] */\n      0x0\n      dup4\n      dup2\n      mstore\n        /* \"contracts/MultiSigWalletWithDailyLimit.sol\":1946:1959  confirmations */\n      0x1\n        /* \"contracts/MultiSigWalletWithDailyLimit.sol\":1946:1974  confirmations[transactionId] */\n      0x20\n      swap1\n      dup2\n      mstore\n      0x40\n      dup1\n      dup4\n      keccak256\n        /* \"contracts/MultiSigWalletWithDailyLimit.sol\":6007:6017  msg.sender */\n      caller\n        /* \"contracts/MultiSigWalletWithDailyLimit.sol\":1946:1981  confirmations[transactionId][owner] */\n      dup1\n      dup6\n      mstore\n      swap3\n      mstore\n      swap1\n      swap2\n      keccak256\n      sload\n        /* \"contracts/MultiSigWalletWithDailyLimit.sol\":5992:6005  transactionId */\n      dup5\n      swap2\n        /* \"contracts/MultiSigWalletWithDailyLimit.sol\":6007:6017  msg.sender */\n      swap1\n        /* \"contracts/MultiSigWalletWithDailyLimit.sol\":1946:1981  confirmations[transactionId][owner] */\n      0xff\n      and\n        /* \"contracts/MultiSigWalletWithDailyLimit.sol\":1945:1981  !confirmations[transactionId][owner] */\n      iszero\n        /* \"contracts/MultiSigWalletWithDailyLimit.sol\":1937:1982  require(!confirmations[transactionId][owner]) */\n      tag_218\n      jumpi\n      0x0\n      dup1\n      revert\n    tag_218:\n        /* \"contracts/MultiSigWalletWithDailyLimit.sol\":6033:6061  confirmations[transactionId] */\n      0x0\n      dup6\n      dup2\n      mstore\n        /* \"contracts/MultiSigWalletWithDailyLimit.sol\":6076:6080  true */\n      0x1\n        /* \"contracts/MultiSigWalletWithDailyLimit.sol\":6033:6061  confirmations[transactionId] */\n      0x20\n      dup2\n      dup2\n      mstore\n      0x40\n      dup1\n      dup5\n      keccak256\n        /* \"contracts/MultiSigWalletWithDailyLimit.sol\":6062:6072  msg.sender */\n      caller\n        /* \"contracts/MultiSigWalletWithDailyLimit.sol\":6033:6073  confirmations[transactionId][msg.sender] */\n      dup1\n      dup7\n      mstore\n      swap3\n      mstore\n      dup1\n      dup5\n      keccak256\n        /* \"contracts/MultiSigWalletWithDailyLimit.sol\":6033:6080  confirmations[transactionId][msg.sender] = true */\n      dup1\n      sload\n      not(0xff)\n      and\n      swap1\n      swap4\n      or\n      swap1\n      swap3\n      sstore\n        /* \"contracts/MultiSigWalletWithDailyLimit.sol\":6090:6129  Confirmation(msg.sender, transactionId) */\n      swap1\n      mload\n        /* \"contracts/MultiSigWalletWithDailyLimit.sol\":6047:6060  transactionId */\n      dup8\n      swap3\n        /* \"contracts/MultiSigWalletWithDailyLimit.sol\":6090:6129  Confirmation(msg.sender, transactionId) */\n      0x4a504a94899432a9846e1aa406dceb1bcfd538bb839071d49d1e5e23f5be30ef\n      swap2\n      log3\n        /* \"contracts/MultiSigWalletWithDailyLimit.sol\":6139:6172  executeTransaction(transactionId) */\n      tag_220\n        /* \"contracts/MultiSigWalletWithDailyLimit.sol\":6158:6171  transactionId */\n      dup6\n        /* \"contracts/MultiSigWalletWithDailyLimit.sol\":6139:6157  executeTransaction */\n      tag_101\n        /* \"contracts/MultiSigWalletWithDailyLimit.sol\":6139:6172  executeTransaction(transactionId) */\n      jump\t// in\n    tag_220:\n        /* \"contracts/MultiSigWalletWithDailyLimit.sol\":1724:1725  _ */\n      pop\n      pop\n        /* \"contracts/MultiSigWalletWithDailyLimit.sol\":1590:1591  _ */\n      pop\n        /* \"contracts/MultiSigWalletWithDailyLimit.sol\":5835:6179  function confirmTransaction(uint transactionId)... */\n      pop\n      pop\n      jump\t// out\n        /* \"contracts/MultiSigWalletWithDailyLimit.sol\":5485:5729  function submitTransaction(address destination, uint value, bytes data)... */\n    tag_89:\n        /* \"contracts/MultiSigWalletWithDailyLimit.sol\":5589:5607  uint transactionId */\n      0x0\n        /* \"contracts/MultiSigWalletWithDailyLimit.sol\":5639:5679  addTransaction(destination, value, data) */\n      tag_222\n        /* \"contracts/MultiSigWalletWithDailyLimit.sol\":5654:5665  destination */\n      dup5\n        /* \"contracts/MultiSigWalletWithDailyLimit.sol\":5667:5672  value */\n      dup5\n        /* \"contracts/MultiSigWalletWithDailyLimit.sol\":5674:5678  data */\n      dup5\n        /* \"contracts/MultiSigWalletWithDailyLimit.sol\":5639:5653  addTransaction */\n      tag_223\n        /* \"contracts/MultiSigWalletWithDailyLimit.sol\":5639:5679  addTransaction(destination, value, data) */\n      jump\t// in\n    tag_222:\n        /* \"contracts/MultiSigWalletWithDailyLimit.sol\":5623:5679  transactionId = addTransaction(destination, value, data) */\n      swap1\n      pop\n        /* \"contracts/MultiSigWalletWithDailyLimit.sol\":5689:5722  confirmTransaction(transactionId) */\n      tag_224\n        /* \"contracts/MultiSigWalletWithDailyLimit.sol\":5708:5721  transactionId */\n      dup2\n        /* \"contracts/MultiSigWalletWithDailyLimit.sol\":5689:5707  confirmTransaction */\n      tag_86\n        /* \"contracts/MultiSigWalletWithDailyLimit.sol\":5689:5722  confirmTransaction(transactionId) */\n      jump\t// in\n    tag_224:\n        /* \"contracts/MultiSigWalletWithDailyLimit.sol\":5485:5729  function submitTransaction(address destination, uint value, bytes data)... */\n      swap4\n      swap3\n      pop\n      pop\n      pop\n      jump\t// out\n        /* \"contracts/MultiSigWalletWithDailyLimit.sol\":822:863  uint constant public MAX_OWNER_COUNT = 50 */\n    tag_92:\n        /* \"contracts/MultiSigWalletWithDailyLimit.sol\":861:863  50 */\n      0x32\n        /* \"contracts/MultiSigWalletWithDailyLimit.sol\":822:863  uint constant public MAX_OWNER_COUNT = 50 */\n      dup2\n      jump\t// out\n        /* \"contracts/MultiSigWalletWithDailyLimit.sol\":1101:1121  uint public required */\n    tag_95:\n      sload(0x4)\n      dup2\n      jump\t// out\n        /* \"contracts/MultiSigWalletWithDailyLimit.sol\":4399:4848  function replaceOwner(address owner, address newOwner)... */\n    tag_98:\n        /* \"contracts/MultiSigWalletWithDailyLimit.sol\":4570:4576  uint i */\n      0x0\n        /* \"contracts/MultiSigWalletWithDailyLimit.sol\":1359:1369  msg.sender */\n      caller\n        /* \"contracts/MultiSigWalletWithDailyLimit.sol\":1381:1385  this */\n      address\n        /* \"contracts/MultiSigWalletWithDailyLimit.sol\":1359:1386  msg.sender == address(this) */\n      eq\n        /* \"contracts/MultiSigWalletWithDailyLimit.sol\":1351:1387  require(msg.sender == address(this)) */\n      tag_226\n      jumpi\n      0x0\n      dup1\n      revert\n    tag_226:\n      sub(exp(0x2, 0xa0), 0x1)\n        /* \"contracts/MultiSigWalletWithDailyLimit.sol\":1565:1579  isOwner[owner] */\n      dup4\n      and\n      0x0\n      swap1\n      dup2\n      mstore\n        /* \"contracts/MultiSigWalletWithDailyLimit.sol\":1565:1572  isOwner */\n      0x2\n        /* \"contracts/MultiSigWalletWithDailyLimit.sol\":1565:1579  isOwner[owner] */\n      0x20\n      mstore\n      0x40\n      swap1\n      keccak256\n      sload\n        /* \"contracts/MultiSigWalletWithDailyLimit.sol\":4508:4513  owner */\n      dup4\n      swap1\n        /* \"contracts/MultiSigWalletWithDailyLimit.sol\":1565:1579  isOwner[owner] */\n      0xff\n      and\n        /* \"contracts/MultiSigWalletWithDailyLimit.sol\":1557:1580  require(isOwner[owner]) */\n      iszero\n      iszero\n      tag_228\n      jumpi\n      0x0\n      dup1\n      revert\n    tag_228:\n      sub(exp(0x2, 0xa0), 0x1)\n        /* \"contracts/MultiSigWalletWithDailyLimit.sol\":1472:1486  isOwner[owner] */\n      dup4\n      and\n      0x0\n      swap1\n      dup2\n      mstore\n        /* \"contracts/MultiSigWalletWithDailyLimit.sol\":1472:1479  isOwner */\n      0x2\n        /* \"contracts/MultiSigWalletWithDailyLimit.sol\":1472:1486  isOwner[owner] */\n      0x20\n      mstore\n      0x40\n      swap1\n      keccak256\n      sload\n        /* \"contracts/MultiSigWalletWithDailyLimit.sol\":4541:4549  newOwner */\n      dup4\n      swap1\n        /* \"contracts/MultiSigWalletWithDailyLimit.sol\":1472:1486  isOwner[owner] */\n      0xff\n      and\n        /* \"contracts/MultiSigWalletWithDailyLimit.sol\":1471:1486  !isOwner[owner] */\n      iszero\n        /* \"contracts/MultiSigWalletWithDailyLimit.sol\":1463:1487  require(!isOwner[owner]) */\n      tag_230\n      jumpi\n      0x0\n      dup1\n      revert\n    tag_230:\n        /* \"contracts/MultiSigWalletWithDailyLimit.sol\":4577:4578  0 */\n      0x0\n        /* \"contracts/MultiSigWalletWithDailyLimit.sol\":4570:4578  uint i=0 */\n      swap3\n      pop\n        /* \"contracts/MultiSigWalletWithDailyLimit.sol\":4565:4714  for (uint i=0; i<owners.length; i++)... */\n    tag_232:\n        /* \"contracts/MultiSigWalletWithDailyLimit.sol\":4582:4588  owners */\n      0x3\n        /* \"contracts/MultiSigWalletWithDailyLimit.sol\":4582:4595  owners.length */\n      sload\n        /* \"contracts/MultiSigWalletWithDailyLimit.sol\":4580:4595  i<owners.length */\n      dup4\n      lt\n        /* \"contracts/MultiSigWalletWithDailyLimit.sol\":4565:4714  for (uint i=0; i<owners.length; i++)... */\n      iszero\n      tag_233\n      jumpi\n        /* \"contracts/MultiSigWalletWithDailyLimit.sol\":4631:4636  owner */\n      dup5\n      sub(exp(0x2, 0xa0), 0x1)\n        /* \"contracts/MultiSigWalletWithDailyLimit.sol\":4618:4636  owners[i] == owner */\n      and\n        /* \"contracts/MultiSigWalletWithDailyLimit.sol\":4618:4624  owners */\n      0x3\n        /* \"contracts/MultiSigWalletWithDailyLimit.sol\":4625:4626  i */\n      dup5\n        /* \"contracts/MultiSigWalletWithDailyLimit.sol\":4618:4627  owners[i] */\n      dup2\n      sload\n      dup2\n      lt\n      iszero\n      iszero\n      tag_235\n      jumpi\n      invalid\n    tag_235:\n      0x0\n      swap2\n      dup3\n      mstore\n      0x20\n      swap1\n      swap2\n      keccak256\n      add\n      sload\n      sub(exp(0x2, 0xa0), 0x1)\n      and\n        /* \"contracts/MultiSigWalletWithDailyLimit.sol\":4618:4636  owners[i] == owner */\n      eq\n        /* \"contracts/MultiSigWalletWithDailyLimit.sol\":4614:4714  if (owners[i] == owner) {... */\n      iszero\n      tag_237\n      jumpi\n        /* \"contracts/MultiSigWalletWithDailyLimit.sol\":4668:4676  newOwner */\n      dup4\n        /* \"contracts/MultiSigWalletWithDailyLimit.sol\":4656:4662  owners */\n      0x3\n        /* \"contracts/MultiSigWalletWithDailyLimit.sol\":4663:4664  i */\n      dup5\n        /* \"contracts/MultiSigWalletWithDailyLimit.sol\":4656:4665  owners[i] */\n      dup2\n      sload\n      dup2\n      lt\n      iszero\n      iszero\n      tag_238\n      jumpi\n      invalid\n    tag_238:\n      swap1\n      0x0\n      mstore\n      keccak256(0x0, 0x20)\n      add\n      0x0\n        /* \"contracts/MultiSigWalletWithDailyLimit.sol\":4656:4676  owners[i] = newOwner */\n      0x100\n      exp\n      dup2\n      sload\n      dup2\n      sub(exp(0x2, 0xa0), 0x1)\n      mul\n      not\n      and\n      swap1\n      dup4\n      sub(exp(0x2, 0xa0), 0x1)\n      and\n      mul\n      or\n      swap1\n      sstore\n      pop\n        /* \"contracts/MultiSigWalletWithDailyLimit.sol\":4694:4699  break */\n      jump(tag_233)\n        /* \"contracts/MultiSigWalletWithDailyLimit.sol\":4614:4714  if (owners[i] == owner) {... */\n    tag_237:\n        /* \"contracts/MultiSigWalletWithDailyLimit.sol\":4597:4600  i++ */\n      0x1\n      swap1\n      swap3\n      add\n      swap2\n        /* \"contracts/MultiSigWalletWithDailyLimit.sol\":4565:4714  for (uint i=0; i<owners.length; i++)... */\n      jump(tag_232)\n    tag_233:\n      sub(exp(0x2, 0xa0), 0x1)\n        /* \"contracts/MultiSigWalletWithDailyLimit.sol\":4723:4737  isOwner[owner] */\n      dup1\n      dup7\n      and\n        /* \"contracts/MultiSigWalletWithDailyLimit.sol\":4740:4745  false */\n      0x0\n        /* \"contracts/MultiSigWalletWithDailyLimit.sol\":4723:4737  isOwner[owner] */\n      dup2\n      dup2\n      mstore\n        /* \"contracts/MultiSigWalletWithDailyLimit.sol\":4723:4730  isOwner */\n      0x2\n        /* \"contracts/MultiSigWalletWithDailyLimit.sol\":4723:4737  isOwner[owner] */\n      0x20\n      mstore\n      0x40\n      dup1\n      dup3\n      keccak256\n        /* \"contracts/MultiSigWalletWithDailyLimit.sol\":4723:4745  isOwner[owner] = false */\n      dup1\n      sload\n      not(0xff)\n      swap1\n      dup2\n      and\n      swap1\n      swap2\n      sstore\n        /* \"contracts/MultiSigWalletWithDailyLimit.sol\":4755:4772  isOwner[newOwner] */\n      swap4\n      dup9\n      and\n      dup3\n      mstore\n      dup1\n      dup3\n      keccak256\n        /* \"contracts/MultiSigWalletWithDailyLimit.sol\":4755:4779  isOwner[newOwner] = true */\n      dup1\n      sload\n      swap1\n      swap5\n      and\n        /* \"contracts/MultiSigWalletWithDailyLimit.sol\":4723:4745  isOwner[owner] = false */\n      0x1\n        /* \"contracts/MultiSigWalletWithDailyLimit.sol\":4755:4779  isOwner[newOwner] = true */\n      or\n      swap1\n      swap4\n      sstore\n        /* \"contracts/MultiSigWalletWithDailyLimit.sol\":4789:4808  OwnerRemoval(owner) */\n      swap2\n      mload\n        /* \"contracts/MultiSigWalletWithDailyLimit.sol\":4723:4737  isOwner[owner] */\n      swap1\n      swap2\n        /* \"contracts/MultiSigWalletWithDailyLimit.sol\":4789:4808  OwnerRemoval(owner) */\n      0x8001553a916ef2f495d26a907cc54d96ed840d7bda71e73194bf5a9df7a76b90\n      swap2\n      log2\n        /* \"contracts/MultiSigWalletWithDailyLimit.sol\":4818:4841  OwnerAddition(newOwner) */\n      mload(0x40)\n      sub(exp(0x2, 0xa0), 0x1)\n      dup6\n      and\n      swap1\n      0xf39e6e1eb0edcf53c221607b54b00cd28f3196fed0a24994dc308b8f611b682d\n      swap1\n      0x0\n      swap1\n      log2\n        /* \"contracts/MultiSigWalletWithDailyLimit.sol\":1590:1591  _ */\n      pop\n        /* \"contracts/MultiSigWalletWithDailyLimit.sol\":1397:1398  _ */\n      pop\n        /* \"contracts/MultiSigWalletWithDailyLimit.sol\":4399:4848  function replaceOwner(address owner, address newOwner)... */\n      pop\n      pop\n      pop\n      jump\t// out\n        /* \"contracts/MultiSigWalletWithDailyLimit.sol\":6708:7294  function executeTransaction(uint transactionId)... */\n    tag_101:\n        /* \"contracts/MultiSigWalletWithDailyLimit.sol\":6791:6801  msg.sender */\n      caller\n        /* \"contracts/MultiSigWalletWithDailyLimit.sol\":6943:6966  Transaction storage txn */\n      0x0\n        /* \"contracts/MultiSigWalletWithDailyLimit.sol\":1565:1579  isOwner[owner] */\n      dup2\n      dup2\n      mstore\n        /* \"contracts/MultiSigWalletWithDailyLimit.sol\":1565:1572  isOwner */\n      0x2\n        /* \"contracts/MultiSigWalletWithDailyLimit.sol\":1565:1579  isOwner[owner] */\n      0x20\n      mstore\n      0x40\n      dup2\n      keccak256\n      sload\n        /* \"contracts/MultiSigWalletWithDailyLimit.sol\":6943:6966  Transaction storage txn */\n      swap1\n      swap2\n        /* \"contracts/MultiSigWalletWithDailyLimit.sol\":6791:6801  msg.sender */\n      swap1\n        /* \"contracts/MultiSigWalletWithDailyLimit.sol\":1565:1579  isOwner[owner] */\n      0xff\n      and\n        /* \"contracts/MultiSigWalletWithDailyLimit.sol\":1557:1580  require(isOwner[owner]) */\n      iszero\n      iszero\n      tag_241\n      jumpi\n      0x0\n      dup1\n      revert\n    tag_241:\n        /* \"contracts/MultiSigWalletWithDailyLimit.sol\":1810:1838  confirmations[transactionId] */\n      0x0\n      dup4\n      dup2\n      mstore\n        /* \"contracts/MultiSigWalletWithDailyLimit.sol\":1810:1823  confirmations */\n      0x1\n        /* \"contracts/MultiSigWalletWithDailyLimit.sol\":1810:1838  confirmations[transactionId] */\n      0x20\n      swap1\n      dup2\n      mstore\n      0x40\n      dup1\n      dup4\n      keccak256\n        /* \"contracts/MultiSigWalletWithDailyLimit.sol\":6836:6846  msg.sender */\n      caller\n        /* \"contracts/MultiSigWalletWithDailyLimit.sol\":1810:1845  confirmations[transactionId][owner] */\n      dup1\n      dup6\n      mstore\n      swap3\n      mstore\n      swap1\n      swap2\n      keccak256\n      sload\n        /* \"contracts/MultiSigWalletWithDailyLimit.sol\":6821:6834  transactionId */\n      dup5\n      swap2\n        /* \"contracts/MultiSigWalletWithDailyLimit.sol\":6836:6846  msg.sender */\n      swap1\n        /* \"contracts/MultiSigWalletWithDailyLimit.sol\":1810:1845  confirmations[transactionId][owner] */\n      0xff\n      and\n        /* \"contracts/MultiSigWalletWithDailyLimit.sol\":1802:1846  require(confirmations[transactionId][owner]) */\n      iszero\n      iszero\n      tag_243\n      jumpi\n      0x0\n      dup1\n      revert\n    tag_243:\n        /* \"contracts/MultiSigWalletWithDailyLimit.sol\":2066:2078  transactions */\n      0x0\n        /* \"contracts/MultiSigWalletWithDailyLimit.sol\":2066:2093  transactions[transactionId] */\n      dup6\n      dup2\n      mstore\n      0x20\n      dup2\n      swap1\n      mstore\n      0x40\n      swap1\n      keccak256\n        /* \"contracts/MultiSigWalletWithDailyLimit.sol\":2066:2102  transactions[transactionId].executed */\n      0x3\n      add\n      sload\n        /* \"contracts/MultiSigWalletWithDailyLimit.sol\":6868:6881  transactionId */\n      dup6\n      swap1\n        /* \"contracts/MultiSigWalletWithDailyLimit.sol\":2066:2102  transactions[transactionId].executed */\n      0xff\n      and\n        /* \"contracts/MultiSigWalletWithDailyLimit.sol\":2065:2102  !transactions[transactionId].executed */\n      iszero\n        /* \"contracts/MultiSigWalletWithDailyLimit.sol\":2057:2103  require(!transactions[transactionId].executed) */\n      tag_245\n      jumpi\n      0x0\n      dup1\n      revert\n    tag_245:\n        /* \"contracts/MultiSigWalletWithDailyLimit.sol\":6901:6927  isConfirmed(transactionId) */\n      tag_247\n        /* \"contracts/MultiSigWalletWithDailyLimit.sol\":6913:6926  transactionId */\n      dup7\n        /* \"contracts/MultiSigWalletWithDailyLimit.sol\":6901:6912  isConfirmed */\n      tag_49\n        /* \"contracts/MultiSigWalletWithDailyLimit.sol\":6901:6927  isConfirmed(transactionId) */\n      jump\t// in\n    tag_247:\n        /* \"contracts/MultiSigWalletWithDailyLimit.sol\":6897:7288  if (isConfirmed(transactionId)) {... */\n      iszero\n      tag_255\n      jumpi\n        /* \"contracts/MultiSigWalletWithDailyLimit.sol\":6969:6981  transactions */\n      0x0\n        /* \"contracts/MultiSigWalletWithDailyLimit.sol\":6969:6996  transactions[transactionId] */\n      dup7\n      dup2\n      mstore\n      0x20\n      dup2\n      dup2\n      mstore\n      0x40\n      swap2\n      dup3\n      swap1\n      keccak256\n        /* \"contracts/MultiSigWalletWithDailyLimit.sol\":7010:7022  txn.executed */\n      0x3\n      dup2\n      add\n        /* \"contracts/MultiSigWalletWithDailyLimit.sol\":7010:7029  txn.executed = true */\n      dup1\n      sload\n      not(0xff)\n      and\n        /* \"contracts/MultiSigWalletWithDailyLimit.sol\":7025:7029  true */\n      0x1\n        /* \"contracts/MultiSigWalletWithDailyLimit.sol\":7010:7029  txn.executed = true */\n      swap1\n      dup2\n      or\n      swap1\n      swap2\n      sstore\n        /* \"contracts/MultiSigWalletWithDailyLimit.sol\":7061:7076  txn.destination */\n      dup2\n      sload\n        /* \"contracts/MultiSigWalletWithDailyLimit.sol\":7078:7087  txn.value */\n      dup2\n      dup4\n      add\n      sload\n        /* \"contracts/MultiSigWalletWithDailyLimit.sol\":7089:7097  txn.data */\n      0x2\n      dup1\n      dup6\n      add\n        /* \"contracts/MultiSigWalletWithDailyLimit.sol\":7089:7104  txn.data.length */\n      dup1\n      sload\n        /* \"contracts/MultiSigWalletWithDailyLimit.sol\":7047:7115  external_call(txn.destination, txn.value, txn.data.length, txn.data) */\n      dup9\n      mload\n      0x1f\n      not(0x0)\n        /* \"contracts/MultiSigWalletWithDailyLimit.sol\":7089:7104  txn.data.length */\n      swap8\n      dup4\n      and\n      iszero\n        /* \"contracts/MultiSigWalletWithDailyLimit.sol\":7010:7029  txn.executed = true */\n      0x100\n        /* \"contracts/MultiSigWalletWithDailyLimit.sol\":7089:7104  txn.data.length */\n      mul\n      swap8\n      swap1\n      swap8\n      add\n      swap1\n      swap2\n      and\n      swap3\n      swap1\n      swap3\n      div\n        /* \"contracts/MultiSigWalletWithDailyLimit.sol\":7047:7115  external_call(txn.destination, txn.value, txn.data.length, txn.data) */\n      swap5\n      dup6\n      add\n      dup8\n      swap1\n      div\n      dup8\n      mul\n      dup3\n      add\n      dup8\n      add\n      swap1\n      swap8\n      mstore\n      dup4\n      dup2\n      mstore\n        /* \"contracts/MultiSigWalletWithDailyLimit.sol\":6969:6996  transactions[transactionId] */\n      swap4\n      swap11\n      pop\n        /* \"contracts/MultiSigWalletWithDailyLimit.sol\":7047:7115  external_call(txn.destination, txn.value, txn.data.length, txn.data) */\n      tag_249\n      swap6\n      sub(exp(0x2, 0xa0), 0x1)\n        /* \"contracts/MultiSigWalletWithDailyLimit.sol\":7061:7076  txn.destination */\n      swap1\n      swap3\n      and\n      swap5\n        /* \"contracts/MultiSigWalletWithDailyLimit.sol\":7078:7087  txn.value */\n      swap1\n      swap4\n        /* \"contracts/MultiSigWalletWithDailyLimit.sol\":7047:7115  external_call(txn.destination, txn.value, txn.data.length, txn.data) */\n      swap2\n        /* \"contracts/MultiSigWalletWithDailyLimit.sol\":7089:7097  txn.data */\n      swap1\n        /* \"contracts/MultiSigWalletWithDailyLimit.sol\":7089:7104  txn.data.length */\n      dup4\n      swap1\n        /* \"contracts/MultiSigWalletWithDailyLimit.sol\":7047:7115  external_call(txn.destination, txn.value, txn.data.length, txn.data) */\n      dup4\n      add\n        /* \"contracts/MultiSigWalletWithDailyLimit.sol\":7089:7097  txn.data */\n      dup3\n        /* \"contracts/MultiSigWalletWithDailyLimit.sol\":7089:7104  txn.data.length */\n      dup3\n        /* \"contracts/MultiSigWalletWithDailyLimit.sol\":7047:7115  external_call(txn.destination, txn.value, txn.data.length, txn.data) */\n      dup1\n      iszero\n      tag_250\n      jumpi\n      dup1\n      0x1f\n      lt\n      tag_251\n      jumpi\n      0x100\n      dup1\n      dup4\n      sload\n      div\n      mul\n      dup4\n      mstore\n      swap2\n      0x20\n      add\n      swap2\n      jump(tag_250)\n    tag_251:\n      dup3\n      add\n      swap2\n      swap1\n      0x0\n      mstore\n      keccak256(0x0, 0x20)\n      swap1\n    tag_252:\n      dup2\n      sload\n      dup2\n      mstore\n      swap1\n      0x1\n      add\n      swap1\n      0x20\n      add\n      dup1\n      dup4\n      gt\n      tag_252\n      jumpi\n      dup3\n      swap1\n      sub\n      0x1f\n      and\n      dup3\n      add\n      swap2\n    tag_250:\n      pop\n      pop\n      pop\n      pop\n      pop\n        /* \"contracts/MultiSigWalletWithDailyLimit.sol\":7047:7060  external_call */\n      tag_253\n        /* \"contracts/MultiSigWalletWithDailyLimit.sol\":7047:7115  external_call(txn.destination, txn.value, txn.data.length, txn.data) */\n      jump\t// in\n    tag_249:\n        /* \"contracts/MultiSigWalletWithDailyLimit.sol\":7043:7278  if (external_call(txn.destination, txn.value, txn.data.length, txn.data))... */\n      iszero\n      tag_254\n      jumpi\n        /* \"contracts/MultiSigWalletWithDailyLimit.sol\":7133:7157  Execution(transactionId) */\n      mload(0x40)\n        /* \"contracts/MultiSigWalletWithDailyLimit.sol\":7143:7156  transactionId */\n      dup7\n      swap1\n        /* \"contracts/MultiSigWalletWithDailyLimit.sol\":7133:7157  Execution(transactionId) */\n      0x33e13ecb54c3076d8e8bb8c2881800a4d972b792045ffae98fdf46df365fed75\n      swap1\n      0x0\n      swap1\n      log2\n        /* \"contracts/MultiSigWalletWithDailyLimit.sol\":7043:7278  if (external_call(txn.destination, txn.value, txn.data.length, txn.data))... */\n      jump(tag_255)\n    tag_254:\n        /* \"contracts/MultiSigWalletWithDailyLimit.sol\":7194:7225  ExecutionFailure(transactionId) */\n      mload(0x40)\n        /* \"contracts/MultiSigWalletWithDailyLimit.sol\":7211:7224  transactionId */\n      dup7\n      swap1\n        /* \"contracts/MultiSigWalletWithDailyLimit.sol\":7194:7225  ExecutionFailure(transactionId) */\n      0x526441bb6c1aba3c9a4a6ca1d6545da9c2333c8c48343ef398eb858d72b79236\n      swap1\n      0x0\n      swap1\n      log2\n        /* \"contracts/MultiSigWalletWithDailyLimit.sol\":7243:7255  txn.executed */\n      0x3\n      dup6\n      add\n        /* \"contracts/MultiSigWalletWithDailyLimit.sol\":7243:7263  txn.executed = false */\n      dup1\n      sload\n      not(0xff)\n      and\n      swap1\n      sstore\n        /* \"contracts/MultiSigWalletWithDailyLimit.sol\":7043:7278  if (external_call(txn.destination, txn.value, txn.data.length, txn.data))... */\n    tag_255:\n        /* \"contracts/MultiSigWalletWithDailyLimit.sol\":1856:1857  _ */\n      pop\n        /* \"contracts/MultiSigWalletWithDailyLimit.sol\":1590:1591  _ */\n      pop\n      pop\n        /* \"contracts/MultiSigWalletWithDailyLimit.sol\":6708:7294  function executeTransaction(uint transactionId)... */\n      pop\n      pop\n      pop\n      jump\t// out\n        /* \"contracts/MultiSigWalletWithDailyLimit.sol\":9395:9846  function addTransaction(address destination, uint value, bytes data)... */\n    tag_223:\n        /* \"contracts/MultiSigWalletWithDailyLimit.sol\":9527:9545  uint transactionId */\n      0x0\n        /* \"contracts/MultiSigWalletWithDailyLimit.sol\":9497:9508  destination */\n      dup4\n      sub(exp(0x2, 0xa0), 0x1)\n        /* \"contracts/MultiSigWalletWithDailyLimit.sol\":2180:2193  _address != 0 */\n      dup2\n      and\n      iszero\n      iszero\n        /* \"contracts/MultiSigWalletWithDailyLimit.sol\":2172:2194  require(_address != 0) */\n      tag_257\n      jumpi\n      0x0\n      dup1\n      revert\n    tag_257:\n        /* \"contracts/MultiSigWalletWithDailyLimit.sol\":9577:9593  transactionCount */\n      sload(0x5)\n        /* \"contracts/MultiSigWalletWithDailyLimit.sol\":9633:9773  Transaction({... */\n      0x40\n      dup1\n      mload\n      0x80\n      dup2\n      add\n      dup3\n      mstore\n      sub(exp(0x2, 0xa0), 0x1)\n      dup9\n      dup2\n      and\n      dup3\n      mstore\n      0x20\n      dup1\n      dup4\n      add\n      dup10\n      dup2\n      mstore\n      dup4\n      dup6\n      add\n      dup10\n      dup2\n      mstore\n      0x0\n      0x60\n      dup7\n      add\n      dup2\n      swap1\n      mstore\n        /* \"contracts/MultiSigWalletWithDailyLimit.sol\":9603:9630  transactions[transactionId] */\n      dup8\n      dup2\n      mstore\n      dup1\n      dup5\n      mstore\n      swap6\n      swap1\n      swap6\n      keccak256\n        /* \"contracts/MultiSigWalletWithDailyLimit.sol\":9603:9773  transactions[transactionId] = Transaction({... */\n      dup5\n      mload\n      dup2\n      sload\n      not(0xffffffffffffffffffffffffffffffffffffffff)\n      and\n      swap5\n      and\n      swap4\n      swap1\n      swap4\n      or\n      dup4\n      sstore\n      mload\n      0x1\n      dup4\n      add\n      sstore\n      swap3\n      mload\n      dup1\n      mload\n        /* \"contracts/MultiSigWalletWithDailyLimit.sol\":9577:9593  transactionCount */\n      swap5\n      swap7\n      pop\n        /* \"contracts/MultiSigWalletWithDailyLimit.sol\":9633:9773  Transaction({... */\n      swap2\n      swap4\n        /* \"contracts/MultiSigWalletWithDailyLimit.sol\":9603:9630  transactions[transactionId] */\n      swap1\n      swap3\n        /* \"contracts/MultiSigWalletWithDailyLimit.sol\":9603:9773  transactions[transactionId] = Transaction({... */\n      tag_259\n      swap3\n      0x2\n      dup6\n      add\n      swap3\n      swap2\n      add\n      swap1\n      jump\t// in(tag_260)\n    tag_259:\n      pop\n      0x60\n      swap2\n      swap1\n      swap2\n      add\n      mload\n      0x3\n      swap1\n      swap2\n      add\n      dup1\n      sload\n      not(0xff)\n      and\n      swap2\n      iszero\n      iszero\n      swap2\n      swap1\n      swap2\n      or\n      swap1\n      sstore\n        /* \"contracts/MultiSigWalletWithDailyLimit.sol\":9783:9799  transactionCount */\n      0x5\n        /* \"contracts/MultiSigWalletWithDailyLimit.sol\":9783:9804  transactionCount += 1 */\n      dup1\n      sload\n      0x1\n      add\n      swap1\n      sstore\n        /* \"contracts/MultiSigWalletWithDailyLimit.sol\":9814:9839  Submission(transactionId) */\n      mload(0x40)\n        /* \"contracts/MultiSigWalletWithDailyLimit.sol\":9825:9838  transactionId */\n      dup3\n      swap1\n        /* \"contracts/MultiSigWalletWithDailyLimit.sol\":9814:9839  Submission(transactionId) */\n      0xc0ba8fe4b176c1714197d43b9cc6bcf797a4a7461c5fe8d0ef6e184ae7601e51\n      swap1\n      0x0\n      swap1\n      log2\n        /* \"contracts/MultiSigWalletWithDailyLimit.sol\":9395:9846  function addTransaction(address destination, uint value, bytes data)... */\n      pop\n      swap4\n      swap3\n      pop\n      pop\n      pop\n      jump\t// out\n        /* \"contracts/MultiSigWalletWithDailyLimit.sol\":7471:8574  function external_call(address destination, uint value, uint dataLength, bytes data) internal returns (bool) {... */\n    tag_253:\n        /* \"contracts/MultiSigWalletWithDailyLimit.sol\":7574:7578  bool */\n      0x0\n        /* \"contracts/MultiSigWalletWithDailyLimit.sol\":7590:7601  bool result */\n      dup1\n        /* \"contracts/MultiSigWalletWithDailyLimit.sol\":7649:7653  0x40 */\n      0x40\n        /* \"contracts/MultiSigWalletWithDailyLimit.sol\":7643:7654  mload(0x40) */\n      mload\n        /* \"contracts/MultiSigWalletWithDailyLimit.sol\":7782:7784  32 */\n      0x20\n        /* \"contracts/MultiSigWalletWithDailyLimit.sol\":7776:7780  data */\n      dup5\n        /* \"contracts/MultiSigWalletWithDailyLimit.sol\":7772:7785  add(data, 32) */\n      add\n        /* \"contracts/MultiSigWalletWithDailyLimit.sol\":8447:8448  0 */\n      0x0\n        /* \"contracts/MultiSigWalletWithDailyLimit.sol\":8428:8429  x */\n      dup3\n        /* \"contracts/MultiSigWalletWithDailyLimit.sol\":8320:8330  dataLength */\n      dup8\n        /* \"contracts/MultiSigWalletWithDailyLimit.sol\":8301:8302  d */\n      dup4\n        /* \"contracts/MultiSigWalletWithDailyLimit.sol\":8278:8283  value */\n      dup11\n        /* \"contracts/MultiSigWalletWithDailyLimit.sol\":8249:8260  destination */\n      dup13\n        /* \"contracts/MultiSigWalletWithDailyLimit.sol\":7904:7909  34710 */\n      0x8796\n        /* \"contracts/MultiSigWalletWithDailyLimit.sol\":7899:7902  gas */\n      gas\n        /* \"contracts/MultiSigWalletWithDailyLimit.sol\":7895:7910  sub(gas, 34710) */\n      sub\n        /* \"contracts/MultiSigWalletWithDailyLimit.sol\":7873:8535  call(... */\n      call\n        /* \"contracts/MultiSigWalletWithDailyLimit.sol\":7863:8535  result := call(... */\n      swap9\n        /* \"contracts/MultiSigWalletWithDailyLimit.sol\":7471:8574  function external_call(address destination, uint value, uint dataLength, bytes data) internal returns (bool) {... */\n      swap8\n      pop\n      pop\n      pop\n      pop\n      pop\n      pop\n      pop\n      pop\n      jump\t// out\n        /* \"contracts/MultiSigWalletWithDailyLimit.sol\":228:12856  contract MultiSigWallet {... */\n    tag_120:\n      dup2\n      sload\n      dup2\n      dup4\n      sstore\n      dup2\n      dup2\n      gt\n      iszero\n      tag_263\n      jumpi\n      0x0\n      dup4\n      dup2\n      mstore\n      0x20\n      swap1\n      keccak256\n      tag_263\n      swap2\n      dup2\n      add\n      swap1\n      dup4\n      add\n      jump\t// in(tag_264)\n    tag_263:\n      pop\n      pop\n      pop\n      jump\t// out\n    tag_260:\n      dup3\n      dup1\n      sload\n      0x1\n      dup2\n      0x1\n      and\n      iszero\n      0x100\n      mul\n      sub\n      and\n      0x2\n      swap1\n      div\n      swap1\n      0x0\n      mstore\n      keccak256(0x0, 0x20)\n      swap1\n      0x1f\n      add\n      0x20\n      swap1\n      div\n      dup2\n      add\n      swap3\n      dup3\n      0x1f\n      lt\n      tag_266\n      jumpi\n      dup1\n      mload\n      not(0xff)\n      and\n      dup4\n      dup1\n      add\n      or\n      dup6\n      sstore\n      jump(tag_268)\n    tag_266:\n      dup3\n      dup1\n      add\n      0x1\n      add\n      dup6\n      sstore\n      dup3\n      iszero\n      tag_268\n      jumpi\n      swap2\n      dup3\n      add\n    tag_267:\n      dup3\n      dup2\n      gt\n      iszero\n      tag_268\n      jumpi\n      dup3\n      mload\n      dup3\n      sstore\n      swap2\n      0x20\n      add\n      swap2\n      swap1\n      0x1\n      add\n      swap1\n      jump(tag_267)\n    tag_268:\n      pop\n      tag_269\n      swap3\n      swap2\n      pop\n      jump\t// in(tag_264)\n    tag_269:\n      pop\n      swap1\n      jump\t// out\n    tag_264:\n      tag_169\n      swap2\n      swap1\n    tag_271:\n      dup1\n      dup3\n      gt\n      iszero\n      tag_269\n      jumpi\n      0x0\n      dup2\n      sstore\n      0x1\n      add\n      jump(tag_271)\n\n    auxdata: 0xa165627a7a72305820b7796912fa278f4923f7f242cf4b7ec16f03cb2b2b4e9e05e3fccb53df1949f50029\n}\n",
				"bytecode": {
					"linkReferences": {},
					"object": "60806040523480156200001157600080fd5b50604051620016d5380380620016d583398101604052805160208201519101805190919060009082603282118015906200004b5750818111155b80156200005757508015155b80156200006357508115155b15156200006f57600080fd5b600092505b845183101562000147576002600086858151811015156200009157fe5b6020908102909101810151600160a060020a031682528101919091526040016000205460ff16158015620000e757508483815181101515620000cf57fe5b90602001906020020151600160a060020a0316600014155b1515620000f357600080fd5b60016002600087868151811015156200010857fe5b602090810291909101810151600160a060020a03168252810191909152604001600020805460ff19169115159190911790556001929092019162000074565b84516200015c9060039060208801906200016e565b50505060049190915550620002029050565b828054828255906000526020600020908101928215620001c6579160200282015b82811115620001c65782518254600160a060020a031916600160a060020a039091161782556020909201916001909101906200018f565b50620001d4929150620001d8565b5090565b620001ff91905b80821115620001d4578054600160a060020a0319168155600101620001df565b90565b6114c380620002126000396000f30060806040526004361061011c5763ffffffff7c0100000000000000000000000000000000000000000000000000000000600035041663025e7c27811461015e578063173825d91461019257806320ea8d86146101b35780632f54bf6e146101cb5780633411c81c1461020057806354741525146102245780637065cb4814610255578063784547a7146102765780638b51d13f1461028e5780639ace38c2146102a6578063a0e67e2b14610361578063a8abe69a146103c6578063b5dc40c3146103eb578063b77bf60014610403578063ba51a6df14610418578063c01a8c8414610430578063c642747414610448578063d74f8edd146104b1578063dc8452cd146104c6578063e20056e6146104db578063ee22610b14610502575b600034111561015c5760408051348152905133917fe1fffcc4923d04b559f4d29a8bfc6cda04eb5b0d3c460751c2402c5c5cc9109c919081900360200190a25b005b34801561016a57600080fd5b5061017660043561051a565b60408051600160a060020a039092168252519081900360200190f35b34801561019e57600080fd5b5061015c600160a060020a0360043516610542565b3480156101bf57600080fd5b5061015c6004356106b9565b3480156101d757600080fd5b506101ec600160a060020a0360043516610773565b604080519115158252519081900360200190f35b34801561020c57600080fd5b506101ec600435600160a060020a0360243516610788565b34801561023057600080fd5b50610243600435151560243515156107a8565b60408051918252519081900360200190f35b34801561026157600080fd5b5061015c600160a060020a0360043516610814565b34801561028257600080fd5b506101ec600435610939565b34801561029a57600080fd5b506102436004356109bd565b3480156102b257600080fd5b506102be600435610a2c565b6040518085600160a060020a0316600160a060020a031681526020018481526020018060200183151515158152602001828103825284818151815260200191508051906020019080838360005b8381101561032357818101518382015260200161030b565b50505050905090810190601f1680156103505780820380516001836020036101000a031916815260200191505b509550505050505060405180910390f35b34801561036d57600080fd5b50610376610aea565b60408051602080825283518183015283519192839290830191858101910280838360005b838110156103b257818101518382015260200161039a565b505050509050019250505060405180910390f35b3480156103d257600080fd5b5061037660043560243560443515156064351515610b4d565b3480156103f757600080fd5b50610376600435610c86565b34801561040f57600080fd5b50610243610dff565b34801561042457600080fd5b5061015c600435610e05565b34801561043c57600080fd5b5061015c600435610e84565b34801561045457600080fd5b50604080516020600460443581810135601f8101849004840285018401909552848452610243948235600160a060020a0316946024803595369594606494920191908190840183828082843750949750610f4f9650505050505050565b3480156104bd57600080fd5b50610243610f6e565b3480156104d257600080fd5b50610243610f73565b3480156104e757600080fd5b5061015c600160a060020a0360043581169060243516610f79565b34801561050e57600080fd5b5061015c600435611103565b600380548290811061052857fe5b600091825260209091200154600160a060020a0316905081565b600033301461055057600080fd5b600160a060020a038216600090815260026020526040902054829060ff16151561057957600080fd5b600160a060020a0383166000908152600260205260408120805460ff1916905591505b600354600019018210156106545782600160a060020a03166003838154811015156105c357fe5b600091825260209091200154600160a060020a03161415610649576003805460001981019081106105f057fe5b60009182526020909120015460038054600160a060020a03909216918490811061061657fe5b9060005260206000200160006101000a815481600160a060020a030219169083600160a060020a03160217905550610654565b60019091019061059c565b60038054600019019061066790826113d6565b5060035460045411156106805760035461068090610e05565b604051600160a060020a038416907f8001553a916ef2f495d26a907cc54d96ed840d7bda71e73194bf5a9df7a76b9090600090a2505050565b3360008181526002602052604090205460ff1615156106d757600080fd5b60008281526001602090815260408083203380855292529091205483919060ff16151561070357600080fd5b600084815260208190526040902060030154849060ff161561072457600080fd5b6000858152600160209081526040808320338085529252808320805460ff191690555187927ff6a317157440607f36269043eb55f1287a5a19ba2216afeab88cd46cbcfb88e991a35050505050565b60026020526000908152604090205460ff1681565b600160209081526000928352604080842090915290825290205460ff1681565b6000805b60055481101561080d578380156107d5575060008181526020819052604090206003015460ff16155b806107f957508280156107f9575060008181526020819052604090206003015460ff165b15610805576001820191505b6001016107ac565b5092915050565b33301461082057600080fd5b600160a060020a038116600090815260026020526040902054819060ff161561084857600080fd5b81600160a060020a038116151561085e57600080fd5b6003805490506001016004546032821115801561087b5750818111155b801561088657508015155b801561089157508115155b151561089c57600080fd5b600160a060020a038516600081815260026020526040808220805460ff1916600190811790915560038054918201815583527fc2575a0e9e593c00f959f8c92f12db2869c3395a3b0502d05e2516446f71f85b01805473ffffffffffffffffffffffffffffffffffffffff191684179055517ff39e6e1eb0edcf53c221607b54b00cd28f3196fed0a24994dc308b8f611b682d9190a25050505050565b600080805b6003548110156109b6576000848152600160205260408120600380549192918490811061096757fe5b6000918252602080832090910154600160a060020a0316835282019290925260400190205460ff161561099b576001820191505b6004548214156109ae57600192506109b6565b60010161093e565b5050919050565b6000805b600354811015610a2657600083815260016020526040812060038054919291849081106109ea57fe5b6000918252602080832090910154600160a060020a0316835282019290925260400190205460ff1615610a1e576001820191505b6001016109c1565b50919050565b6000602081815291815260409081902080546001808301546002808501805487516101009582161595909502600019011691909104601f8101889004880284018801909652858352600160a060020a0390931695909491929190830182828015610ad75780601f10610aac57610100808354040283529160200191610ad7565b820191906000526020600020905b815481529060010190602001808311610aba57829003601f168201915b5050506003909301549192505060ff1684565b60606003805480602002602001604051908101604052809291908181526020018280548015610b4257602002820191906000526020600020905b8154600160a060020a03168152600190910190602001808311610b24575b505050505090505b90565b606080600080600554604051908082528060200260200182016040528015610b7f578160200160208202803883390190505b50925060009150600090505b600554811015610c0657858015610bb4575060008181526020819052604090206003015460ff16155b80610bd85750848015610bd8575060008181526020819052604090206003015460ff165b15610bfe57808383815181101515610bec57fe5b60209081029091010152600191909101905b600101610b8b565b878703604051908082528060200260200182016040528015610c32578160200160208202803883390190505b5093508790505b86811015610c7b578281815181101515610c4f57fe5b9060200190602002015184898303815181101515610c6957fe5b60209081029091010152600101610c39565b505050949350505050565b606080600080600380549050604051908082528060200260200182016040528015610cbb578160200160208202803883390190505b50925060009150600090505b600354811015610d785760008581526001602052604081206003805491929184908110610cf057fe5b6000918252602080832090910154600160a060020a0316835282019290925260400190205460ff1615610d70576003805482908110610d2b57fe5b6000918252602090912001548351600160a060020a0390911690849084908110610d5157fe5b600160a060020a03909216602092830290910190910152600191909101905b600101610cc7565b81604051908082528060200260200182016040528015610da2578160200160208202803883390190505b509350600090505b81811015610df7578281815181101515610dc057fe5b906020019060200201518482815181101515610dd857fe5b600160a060020a03909216602092830290910190910152600101610daa565b505050919050565b60055481565b333014610e1157600080fd5b6003548160328211801590610e265750818111155b8015610e3157508015155b8015610e3c57508115155b1515610e4757600080fd5b60048390556040805184815290517fa3f1ee9126a074d9326c682f561767f710e927faa811f7a99829d49dc421797a9181900360200190a1505050565b3360008181526002602052604090205460ff161515610ea257600080fd5b6000828152602081905260409020548290600160a060020a03161515610ec757600080fd5b60008381526001602090815260408083203380855292529091205484919060ff1615610ef257600080fd5b6000858152600160208181526040808420338086529252808420805460ff1916909317909255905187927f4a504a94899432a9846e1aa406dceb1bcfd538bb839071d49d1e5e23f5be30ef91a3610f4885611103565b5050505050565b6000610f5c8484846112c3565b9050610f6781610e84565b9392505050565b603281565b60045481565b6000333014610f8757600080fd5b600160a060020a038316600090815260026020526040902054839060ff161515610fb057600080fd5b600160a060020a038316600090815260026020526040902054839060ff1615610fd857600080fd5b600092505b6003548310156110695784600160a060020a031660038481548110151561100057fe5b600091825260209091200154600160a060020a0316141561105e578360038481548110151561102b57fe5b9060005260206000200160006101000a815481600160a060020a030219169083600160a060020a03160217905550611069565b600190920191610fdd565b600160a060020a03808616600081815260026020526040808220805460ff1990811690915593881682528082208054909416600117909355915190917f8001553a916ef2f495d26a907cc54d96ed840d7bda71e73194bf5a9df7a76b9091a2604051600160a060020a038516907ff39e6e1eb0edcf53c221607b54b00cd28f3196fed0a24994dc308b8f611b682d90600090a25050505050565b3360008181526002602052604081205490919060ff16151561112457600080fd5b60008381526001602090815260408083203380855292529091205484919060ff16151561115057600080fd5b600085815260208190526040902060030154859060ff161561117157600080fd5b61117a86610939565b156112bb576000868152602081815260409182902060038101805460ff19166001908117909155815481830154600280850180548851601f60001997831615610100029790970190911692909204948501879004870282018701909752838152939a5061124e95600160a060020a03909216949093919083908301828280156112445780601f1061121957610100808354040283529160200191611244565b820191906000526020600020905b81548152906001019060200180831161122757829003601f168201915b50505050506113b3565b156112835760405186907f33e13ecb54c3076d8e8bb8c2881800a4d972b792045ffae98fdf46df365fed7590600090a26112bb565b60405186907f526441bb6c1aba3c9a4a6ca1d6545da9c2333c8c48343ef398eb858d72b7923690600090a260038501805460ff191690555b505050505050565b600083600160a060020a03811615156112db57600080fd5b60055460408051608081018252600160a060020a0388811682526020808301898152838501898152600060608601819052878152808452959095208451815473ffffffffffffffffffffffffffffffffffffffff19169416939093178355516001830155925180519496509193909261135b9260028501929101906113ff565b50606091909101516003909101805460ff191691151591909117905560058054600101905560405182907fc0ba8fe4b176c1714197d43b9cc6bcf797a4a7461c5fe8d0ef6e184ae7601e5190600090a2509392505050565b6000806040516020840160008287838a8c6187965a03f198975050505050505050565b8154818355818111156113fa576000838152602090206113fa91810190830161147d565b505050565b828054600181600116156101000203166002900490600052602060002090601f016020900481019282601f1061144057805160ff191683800117855561146d565b8280016001018555821561146d579182015b8281111561146d578251825591602001919060010190611452565b5061147992915061147d565b5090565b610b4a91905b8082111561147957600081556001016114835600a165627a7a72305820b7796912fa278f4923f7f242cf4b7ec16f03cb2b2b4e9e05e3fccb53df1949f50029",
					"opcodes": "PUSH1 0x80 PUSH1 0x40 MSTORE CALLVALUE DUP1 ISZERO PUSH3 0x11 JUMPI PUSH1 0x0 DUP1 REVERT JUMPDEST POP PUSH1 0x40 MLOAD PUSH3 0x16D5 CODESIZE SUB DUP1 PUSH3 0x16D5 DUP4 CODECOPY DUP2 ADD PUSH1 0x40 MSTORE DUP1 MLOAD PUSH1 0x20 DUP3 ADD MLOAD SWAP2 ADD DUP1 MLOAD SWAP1 SWAP2 SWAP1 PUSH1 0x0 SWAP1 DUP3 PUSH1 0x32 DUP3 GT DUP1 ISZERO SWAP1 PUSH3 0x4B JUMPI POP DUP2 DUP2 GT ISZERO JUMPDEST DUP1 ISZERO PUSH3 0x57 JUMPI POP DUP1 ISZERO ISZERO JUMPDEST DUP1 ISZERO PUSH3 0x63 JUMPI POP DUP2 ISZERO ISZERO JUMPDEST ISZERO ISZERO PUSH3 0x6F JUMPI PUSH1 0x0 DUP1 REVERT JUMPDEST PUSH1 0x0 SWAP3 POP JUMPDEST DUP5 MLOAD DUP4 LT ISZERO PUSH3 0x147 JUMPI PUSH1 0x2 PUSH1 0x0 DUP7 DUP6 DUP2 MLOAD DUP2 LT ISZERO ISZERO PUSH3 0x91 JUMPI INVALID JUMPDEST PUSH1 0x20 SWAP1 DUP2 MUL SWAP1 SWAP2 ADD DUP2 ADD MLOAD PUSH1 0x1 PUSH1 0xA0 PUSH1 0x2 EXP SUB AND DUP3 MSTORE DUP2 ADD SWAP2 SWAP1 SWAP2 MSTORE PUSH1 0x40 ADD PUSH1 0x0 KECCAK256 SLOAD PUSH1 0xFF AND ISZERO DUP1 ISZERO PUSH3 0xE7 JUMPI POP DUP5 DUP4 DUP2 MLOAD DUP2 LT ISZERO ISZERO PUSH3 0xCF JUMPI INVALID JUMPDEST SWAP1 PUSH1 0x20 ADD SWAP1 PUSH1 0x20 MUL ADD MLOAD PUSH1 0x1 PUSH1 0xA0 PUSH1 0x2 EXP SUB AND PUSH1 0x0 EQ ISZERO JUMPDEST ISZERO ISZERO PUSH3 0xF3 JUMPI PUSH1 0x0 DUP1 REVERT JUMPDEST PUSH1 0x1 PUSH1 0x2 PUSH1 0x0 DUP8 DUP7 DUP2 MLOAD DUP2 LT ISZERO ISZERO PUSH3 0x108 JUMPI INVALID JUMPDEST PUSH1 0x20 SWAP1 DUP2 MUL SWAP2 SWAP1 SWAP2 ADD DUP2 ADD MLOAD PUSH1 0x1 PUSH1 0xA0 PUSH1 0x2 EXP SUB AND DUP3 MSTORE DUP2 ADD SWAP2 SWAP1 SWAP2 MSTORE PUSH1 0x40 ADD PUSH1 0x0 KECCAK256 DUP1 SLOAD PUSH1 0xFF NOT AND SWAP2 ISZERO ISZERO SWAP2 SWAP1 SWAP2 OR SWAP1 SSTORE PUSH1 0x1 SWAP3 SWAP1 SWAP3 ADD SWAP2 PUSH3 0x74 JUMP JUMPDEST DUP5 MLOAD PUSH3 0x15C SWAP1 PUSH1 0x3 SWAP1 PUSH1 0x20 DUP9 ADD SWAP1 PUSH3 0x16E JUMP JUMPDEST POP POP POP PUSH1 0x4 SWAP2 SWAP1 SWAP2 SSTORE POP PUSH3 0x202 SWAP1 POP JUMP JUMPDEST DUP3 DUP1 SLOAD DUP3 DUP3 SSTORE SWAP1 PUSH1 0x0 MSTORE PUSH1 0x20 PUSH1 0x0 KECCAK256 SWAP1 DUP2 ADD SWAP3 DUP3 ISZERO PUSH3 0x1C6 JUMPI SWAP2 PUSH1 0x20 MUL DUP3 ADD JUMPDEST DUP3 DUP2 GT ISZERO PUSH3 0x1C6 JUMPI DUP3 MLOAD DUP3 SLOAD PUSH1 0x1 PUSH1 0xA0 PUSH1 0x2 EXP SUB NOT AND PUSH1 0x1 PUSH1 0xA0 PUSH1 0x2 EXP SUB SWAP1 SWAP2 AND OR DUP3 SSTORE PUSH1 0x20 SWAP1 SWAP3 ADD SWAP2 PUSH1 0x1 SWAP1 SWAP2 ADD SWAP1 PUSH3 0x18F JUMP JUMPDEST POP PUSH3 0x1D4 SWAP3 SWAP2 POP PUSH3 0x1D8 JUMP JUMPDEST POP SWAP1 JUMP JUMPDEST PUSH3 0x1FF SWAP2 SWAP1 JUMPDEST DUP1 DUP3 GT ISZERO PUSH3 0x1D4 JUMPI DUP1 SLOAD PUSH1 0x1 PUSH1 0xA0 PUSH1 0x2 EXP SUB NOT AND DUP2 SSTORE PUSH1 0x1 ADD PUSH3 0x1DF JUMP JUMPDEST SWAP1 JUMP JUMPDEST PUSH2 0x14C3 DUP1 PUSH3 0x212 PUSH1 0x0 CODECOPY PUSH1 0x0 RETURN STOP PUSH1 0x80 PUSH1 0x40 MSTORE PUSH1 0x4 CALLDATASIZE LT PUSH2 0x11C JUMPI PUSH4 0xFFFFFFFF PUSH29 0x100000000000000000000000000000000000000000000000000000000 PUSH1 0x0 CALLDATALOAD DIV AND PUSH4 0x25E7C27 DUP2 EQ PUSH2 0x15E JUMPI DUP1 PUSH4 0x173825D9 EQ PUSH2 0x192 JUMPI DUP1 PUSH4 0x20EA8D86 EQ PUSH2 0x1B3 JUMPI DUP1 PUSH4 0x2F54BF6E EQ PUSH2 0x1CB JUMPI DUP1 PUSH4 0x3411C81C EQ PUSH2 0x200 JUMPI DUP1 PUSH4 0x54741525 EQ PUSH2 0x224 JUMPI DUP1 PUSH4 0x7065CB48 EQ PUSH2 0x255 JUMPI DUP1 PUSH4 0x784547A7 EQ PUSH2 0x276 JUMPI DUP1 PUSH4 0x8B51D13F EQ PUSH2 0x28E JUMPI DUP1 PUSH4 0x9ACE38C2 EQ PUSH2 0x2A6 JUMPI DUP1 PUSH4 0xA0E67E2B EQ PUSH2 0x361 JUMPI DUP1 PUSH4 0xA8ABE69A EQ PUSH2 0x3C6 JUMPI DUP1 PUSH4 0xB5DC40C3 EQ PUSH2 0x3EB JUMPI DUP1 PUSH4 0xB77BF600 EQ PUSH2 0x403 JUMPI DUP1 PUSH4 0xBA51A6DF EQ PUSH2 0x418 JUMPI DUP1 PUSH4 0xC01A8C84 EQ PUSH2 0x430 JUMPI DUP1 PUSH4 0xC6427474 EQ PUSH2 0x448 JUMPI DUP1 PUSH4 0xD74F8EDD EQ PUSH2 0x4B1 JUMPI DUP1 PUSH4 0xDC8452CD EQ PUSH2 0x4C6 JUMPI DUP1 PUSH4 0xE20056E6 EQ PUSH2 0x4DB JUMPI DUP1 PUSH4 0xEE22610B EQ PUSH2 0x502 JUMPI JUMPDEST PUSH1 0x0 CALLVALUE GT ISZERO PUSH2 0x15C JUMPI PUSH1 0x40 DUP1 MLOAD CALLVALUE DUP2 MSTORE SWAP1 MLOAD CALLER SWAP2 PUSH32 0xE1FFFCC4923D04B559F4D29A8BFC6CDA04EB5B0D3C460751C2402C5C5CC9109C SWAP2 SWAP1 DUP2 SWAP1 SUB PUSH1 0x20 ADD SWAP1 LOG2 JUMPDEST STOP JUMPDEST CALLVALUE DUP1 ISZERO PUSH2 0x16A JUMPI PUSH1 0x0 DUP1 REVERT JUMPDEST POP PUSH2 0x176 PUSH1 0x4 CALLDATALOAD PUSH2 0x51A JUMP JUMPDEST PUSH1 0x40 DUP1 MLOAD PUSH1 0x1 PUSH1 0xA0 PUSH1 0x2 EXP SUB SWAP1 SWAP3 AND DUP3 MSTORE MLOAD SWAP1 DUP2 SWAP1 SUB PUSH1 0x20 ADD SWAP1 RETURN JUMPDEST CALLVALUE DUP1 ISZERO PUSH2 0x19E JUMPI PUSH1 0x0 DUP1 REVERT JUMPDEST POP PUSH2 0x15C PUSH1 0x1 PUSH1 0xA0 PUSH1 0x2 EXP SUB PUSH1 0x4 CALLDATALOAD AND PUSH2 0x542 JUMP JUMPDEST CALLVALUE DUP1 ISZERO PUSH2 0x1BF JUMPI PUSH1 0x0 DUP1 REVERT JUMPDEST POP PUSH2 0x15C PUSH1 0x4 CALLDATALOAD PUSH2 0x6B9 JUMP JUMPDEST CALLVALUE DUP1 ISZERO PUSH2 0x1D7 JUMPI PUSH1 0x0 DUP1 REVERT JUMPDEST POP PUSH2 0x1EC PUSH1 0x1 PUSH1 0xA0 PUSH1 0x2 EXP SUB PUSH1 0x4 CALLDATALOAD AND PUSH2 0x773 JUMP JUMPDEST PUSH1 0x40 DUP1 MLOAD SWAP2 ISZERO ISZERO DUP3 MSTORE MLOAD SWAP1 DUP2 SWAP1 SUB PUSH1 0x20 ADD SWAP1 RETURN JUMPDEST CALLVALUE DUP1 ISZERO PUSH2 0x20C JUMPI PUSH1 0x0 DUP1 REVERT JUMPDEST POP PUSH2 0x1EC PUSH1 0x4 CALLDATALOAD PUSH1 0x1 PUSH1 0xA0 PUSH1 0x2 EXP SUB PUSH1 0x24 CALLDATALOAD AND PUSH2 0x788 JUMP JUMPDEST CALLVALUE DUP1 ISZERO PUSH2 0x230 JUMPI PUSH1 0x0 DUP1 REVERT JUMPDEST POP PUSH2 0x243 PUSH1 0x4 CALLDATALOAD ISZERO ISZERO PUSH1 0x24 CALLDATALOAD ISZERO ISZERO PUSH2 0x7A8 JUMP JUMPDEST PUSH1 0x40 DUP1 MLOAD SWAP2 DUP3 MSTORE MLOAD SWAP1 DUP2 SWAP1 SUB PUSH1 0x20 ADD SWAP1 RETURN JUMPDEST CALLVALUE DUP1 ISZERO PUSH2 0x261 JUMPI PUSH1 0x0 DUP1 REVERT JUMPDEST POP PUSH2 0x15C PUSH1 0x1 PUSH1 0xA0 PUSH1 0x2 EXP SUB PUSH1 0x4 CALLDATALOAD AND PUSH2 0x814 JUMP JUMPDEST CALLVALUE DUP1 ISZERO PUSH2 0x282 JUMPI PUSH1 0x0 DUP1 REVERT JUMPDEST POP PUSH2 0x1EC PUSH1 0x4 CALLDATALOAD PUSH2 0x939 JUMP JUMPDEST CALLVALUE DUP1 ISZERO PUSH2 0x29A JUMPI PUSH1 0x0 DUP1 REVERT JUMPDEST POP PUSH2 0x243 PUSH1 0x4 CALLDATALOAD PUSH2 0x9BD JUMP JUMPDEST CALLVALUE DUP1 ISZERO PUSH2 0x2B2 JUMPI PUSH1 0x0 DUP1 REVERT JUMPDEST POP PUSH2 0x2BE PUSH1 0x4 CALLDATALOAD PUSH2 0xA2C JUMP JUMPDEST PUSH1 0x40 MLOAD DUP1 DUP6 PUSH1 0x1 PUSH1 0xA0 PUSH1 0x2 EXP SUB AND PUSH1 0x1 PUSH1 0xA0 PUSH1 0x2 EXP SUB AND DUP2 MSTORE PUSH1 0x20 ADD DUP5 DUP2 MSTORE PUSH1 0x20 ADD DUP1 PUSH1 0x20 ADD DUP4 ISZERO ISZERO ISZERO ISZERO DUP2 MSTORE PUSH1 0x20 ADD DUP3 DUP2 SUB DUP3 MSTORE DUP5 DUP2 DUP2 MLOAD DUP2 MSTORE PUSH1 0x20 ADD SWAP2 POP DUP1 MLOAD SWAP1 PUSH1 0x20 ADD SWAP1 DUP1 DUP4 DUP4 PUSH1 0x0 JUMPDEST DUP4 DUP2 LT ISZERO PUSH2 0x323 JUMPI DUP2 DUP2 ADD MLOAD DUP4 DUP3 ADD MSTORE PUSH1 0x20 ADD PUSH2 0x30B JUMP JUMPDEST POP POP POP POP SWAP1 POP SWAP1 DUP2 ADD SWAP1 PUSH1 0x1F AND DUP1 ISZERO PUSH2 0x350 JUMPI DUP1 DUP3 SUB DUP1 MLOAD PUSH1 0x1 DUP4 PUSH1 0x20 SUB PUSH2 0x100 EXP SUB NOT AND DUP2 MSTORE PUSH1 0x20 ADD SWAP2 POP JUMPDEST POP SWAP6 POP POP POP POP POP POP PUSH1 0x40 MLOAD DUP1 SWAP2 SUB SWAP1 RETURN JUMPDEST CALLVALUE DUP1 ISZERO PUSH2 0x36D JUMPI PUSH1 0x0 DUP1 REVERT JUMPDEST POP PUSH2 0x376 PUSH2 0xAEA JUMP JUMPDEST PUSH1 0x40 DUP1 MLOAD PUSH1 0x20 DUP1 DUP3 MSTORE DUP4 MLOAD DUP2 DUP4 ADD MSTORE DUP4 MLOAD SWAP2 SWAP3 DUP4 SWAP3 SWAP1 DUP4 ADD SWAP2 DUP6 DUP2 ADD SWAP2 MUL DUP1 DUP4 DUP4 PUSH1 0x0 JUMPDEST DUP4 DUP2 LT ISZERO PUSH2 0x3B2 JUMPI DUP2 DUP2 ADD MLOAD DUP4 DUP3 ADD MSTORE PUSH1 0x20 ADD PUSH2 0x39A JUMP JUMPDEST POP POP POP POP SWAP1 POP ADD SWAP3 POP POP POP PUSH1 0x40 MLOAD DUP1 SWAP2 SUB SWAP1 RETURN JUMPDEST CALLVALUE DUP1 ISZERO PUSH2 0x3D2 JUMPI PUSH1 0x0 DUP1 REVERT JUMPDEST POP PUSH2 0x376 PUSH1 0x4 CALLDATALOAD PUSH1 0x24 CALLDATALOAD PUSH1 0x44 CALLDATALOAD ISZERO ISZERO PUSH1 0x64 CALLDATALOAD ISZERO ISZERO PUSH2 0xB4D JUMP JUMPDEST CALLVALUE DUP1 ISZERO PUSH2 0x3F7 JUMPI PUSH1 0x0 DUP1 REVERT JUMPDEST POP PUSH2 0x376 PUSH1 0x4 CALLDATALOAD PUSH2 0xC86 JUMP JUMPDEST CALLVALUE DUP1 ISZERO PUSH2 0x40F JUMPI PUSH1 0x0 DUP1 REVERT JUMPDEST POP PUSH2 0x243 PUSH2 0xDFF JUMP JUMPDEST CALLVALUE DUP1 ISZERO PUSH2 0x424 JUMPI PUSH1 0x0 DUP1 REVERT JUMPDEST POP PUSH2 0x15C PUSH1 0x4 CALLDATALOAD PUSH2 0xE05 JUMP JUMPDEST CALLVALUE DUP1 ISZERO PUSH2 0x43C JUMPI PUSH1 0x0 DUP1 REVERT JUMPDEST POP PUSH2 0x15C PUSH1 0x4 CALLDATALOAD PUSH2 0xE84 JUMP JUMPDEST CALLVALUE DUP1 ISZERO PUSH2 0x454 JUMPI PUSH1 0x0 DUP1 REVERT JUMPDEST POP PUSH1 0x40 DUP1 MLOAD PUSH1 0x20 PUSH1 0x4 PUSH1 0x44 CALLDATALOAD DUP2 DUP2 ADD CALLDATALOAD PUSH1 0x1F DUP2 ADD DUP5 SWAP1 DIV DUP5 MUL DUP6 ADD DUP5 ADD SWAP1 SWAP6 MSTORE DUP5 DUP5 MSTORE PUSH2 0x243 SWAP5 DUP3 CALLDATALOAD PUSH1 0x1 PUSH1 0xA0 PUSH1 0x2 EXP SUB AND SWAP5 PUSH1 0x24 DUP1 CALLDATALOAD SWAP6 CALLDATASIZE SWAP6 SWAP5 PUSH1 0x64 SWAP5 SWAP3 ADD SWAP2 SWAP1 DUP2 SWAP1 DUP5 ADD DUP4 DUP3 DUP1 DUP3 DUP5 CALLDATACOPY POP SWAP5 SWAP8 POP PUSH2 0xF4F SWAP7 POP POP POP POP POP POP POP JUMP JUMPDEST CALLVALUE DUP1 ISZERO PUSH2 0x4BD JUMPI PUSH1 0x0 DUP1 REVERT JUMPDEST POP PUSH2 0x243 PUSH2 0xF6E JUMP JUMPDEST CALLVALUE DUP1 ISZERO PUSH2 0x4D2 JUMPI PUSH1 0x0 DUP1 REVERT JUMPDEST POP PUSH2 0x243 PUSH2 0xF73 JUMP JUMPDEST CALLVALUE DUP1 ISZERO PUSH2 0x4E7 JUMPI PUSH1 0x0 DUP1 REVERT JUMPDEST POP PUSH2 0x15C PUSH1 0x1 PUSH1 0xA0 PUSH1 0x2 EXP SUB PUSH1 0x4 CALLDATALOAD DUP2 AND SWAP1 PUSH1 0x24 CALLDATALOAD AND PUSH2 0xF79 JUMP JUMPDEST CALLVALUE DUP1 ISZERO PUSH2 0x50E JUMPI PUSH1 0x0 DUP1 REVERT JUMPDEST POP PUSH2 0x15C PUSH1 0x4 CALLDATALOAD PUSH2 0x1103 JUMP JUMPDEST PUSH1 0x3 DUP1 SLOAD DUP3 SWAP1 DUP2 LT PUSH2 0x528 JUMPI INVALID JUMPDEST PUSH1 0x0 SWAP2 DUP3 MSTORE PUSH1 0x20 SWAP1 SWAP2 KECCAK256 ADD SLOAD PUSH1 0x1 PUSH1 0xA0 PUSH1 0x2 EXP SUB AND SWAP1 POP DUP2 JUMP JUMPDEST PUSH1 0x0 CALLER ADDRESS EQ PUSH2 0x550 JUMPI PUSH1 0x0 DUP1 REVERT JUMPDEST PUSH1 0x1 PUSH1 0xA0 PUSH1 0x2 EXP SUB DUP3 AND PUSH1 0x0 SWAP1 DUP2 MSTORE PUSH1 0x2 PUSH1 0x20 MSTORE PUSH1 0x40 SWAP1 KECCAK256 SLOAD DUP3 SWAP1 PUSH1 0xFF AND ISZERO ISZERO PUSH2 0x579 JUMPI PUSH1 0x0 DUP1 REVERT JUMPDEST PUSH1 0x1 PUSH1 0xA0 PUSH1 0x2 EXP SUB DUP4 AND PUSH1 0x0 SWAP1 DUP2 MSTORE PUSH1 0x2 PUSH1 0x20 MSTORE PUSH1 0x40 DUP2 KECCAK256 DUP1 SLOAD PUSH1 0xFF NOT AND SWAP1 SSTORE SWAP2 POP JUMPDEST PUSH1 0x3 SLOAD PUSH1 0x0 NOT ADD DUP3 LT ISZERO PUSH2 0x654 JUMPI DUP3 PUSH1 0x1 PUSH1 0xA0 PUSH1 0x2 EXP SUB AND PUSH1 0x3 DUP4 DUP2 SLOAD DUP2 LT ISZERO ISZERO PUSH2 0x5C3 JUMPI INVALID JUMPDEST PUSH1 0x0 SWAP2 DUP3 MSTORE PUSH1 0x20 SWAP1 SWAP2 KECCAK256 ADD SLOAD PUSH1 0x1 PUSH1 0xA0 PUSH1 0x2 EXP SUB AND EQ ISZERO PUSH2 0x649 JUMPI PUSH1 0x3 DUP1 SLOAD PUSH1 0x0 NOT DUP2 ADD SWAP1 DUP2 LT PUSH2 0x5F0 JUMPI INVALID JUMPDEST PUSH1 0x0 SWAP2 DUP3 MSTORE PUSH1 0x20 SWAP1 SWAP2 KECCAK256 ADD SLOAD PUSH1 0x3 DUP1 SLOAD PUSH1 0x1 PUSH1 0xA0 PUSH1 0x2 EXP SUB SWAP1 SWAP3 AND SWAP2 DUP5 SWAP1 DUP2 LT PUSH2 0x616 JUMPI INVALID JUMPDEST SWAP1 PUSH1 0x0 MSTORE PUSH1 0x20 PUSH1 0x0 KECCAK256 ADD PUSH1 0x0 PUSH2 0x100 EXP DUP2 SLOAD DUP2 PUSH1 0x1 PUSH1 0xA0 PUSH1 0x2 EXP SUB MUL NOT AND SWAP1 DUP4 PUSH1 0x1 PUSH1 0xA0 PUSH1 0x2 EXP SUB AND MUL OR SWAP1 SSTORE POP PUSH2 0x654 JUMP JUMPDEST PUSH1 0x1 SWAP1 SWAP2 ADD SWAP1 PUSH2 0x59C JUMP JUMPDEST PUSH1 0x3 DUP1 SLOAD PUSH1 0x0 NOT ADD SWAP1 PUSH2 0x667 SWAP1 DUP3 PUSH2 0x13D6 JUMP JUMPDEST POP PUSH1 0x3 SLOAD PUSH1 0x4 SLOAD GT ISZERO PUSH2 0x680 JUMPI PUSH1 0x3 SLOAD PUSH2 0x680 SWAP1 PUSH2 0xE05 JUMP JUMPDEST PUSH1 0x40 MLOAD PUSH1 0x1 PUSH1 0xA0 PUSH1 0x2 EXP SUB DUP5 AND SWAP1 PUSH32 0x8001553A916EF2F495D26A907CC54D96ED840D7BDA71E73194BF5A9DF7A76B90 SWAP1 PUSH1 0x0 SWAP1 LOG2 POP POP POP JUMP JUMPDEST CALLER PUSH1 0x0 DUP2 DUP2 MSTORE PUSH1 0x2 PUSH1 0x20 MSTORE PUSH1 0x40 SWAP1 KECCAK256 SLOAD PUSH1 0xFF AND ISZERO ISZERO PUSH2 0x6D7 JUMPI PUSH1 0x0 DUP1 REVERT JUMPDEST PUSH1 0x0 DUP3 DUP2 MSTORE PUSH1 0x1 PUSH1 0x20 SWAP1 DUP2 MSTORE PUSH1 0x40 DUP1 DUP4 KECCAK256 CALLER DUP1 DUP6 MSTORE SWAP3 MSTORE SWAP1 SWAP2 KECCAK256 SLOAD DUP4 SWAP2 SWAP1 PUSH1 0xFF AND ISZERO ISZERO PUSH2 0x703 JUMPI PUSH1 0x0 DUP1 REVERT JUMPDEST PUSH1 0x0 DUP5 DUP2 MSTORE PUSH1 0x20 DUP2 SWAP1 MSTORE PUSH1 0x40 SWAP1 KECCAK256 PUSH1 0x3 ADD SLOAD DUP5 SWAP1 PUSH1 0xFF AND ISZERO PUSH2 0x724 JUMPI PUSH1 0x0 DUP1 REVERT JUMPDEST PUSH1 0x0 DUP6 DUP2 MSTORE PUSH1 0x1 PUSH1 0x20 SWAP1 DUP2 MSTORE PUSH1 0x40 DUP1 DUP4 KECCAK256 CALLER DUP1 DUP6 MSTORE SWAP3 MSTORE DUP1 DUP4 KECCAK256 DUP1 SLOAD PUSH1 0xFF NOT AND SWAP1 SSTORE MLOAD DUP8 SWAP3 PUSH32 0xF6A317157440607F36269043EB55F1287A5A19BA2216AFEAB88CD46CBCFB88E9 SWAP2 LOG3 POP POP POP POP POP JUMP JUMPDEST PUSH1 0x2 PUSH1 0x20 MSTORE PUSH1 0x0 SWAP1 DUP2 MSTORE PUSH1 0x40 SWAP1 KECCAK256 SLOAD PUSH1 0xFF AND DUP2 JUMP JUMPDEST PUSH1 0x1 PUSH1 0x20 SWAP1 DUP2 MSTORE PUSH1 0x0 SWAP3 DUP4 MSTORE PUSH1 0x40 DUP1 DUP5 KECCAK256 SWAP1 SWAP2 MSTORE SWAP1 DUP3 MSTORE SWAP1 KECCAK256 SLOAD PUSH1 0xFF AND DUP2 JUMP JUMPDEST PUSH1 0x0 DUP1 JUMPDEST PUSH1 0x5 SLOAD DUP2 LT ISZERO PUSH2 0x80D JUMPI DUP4 DUP1 ISZERO PUSH2 0x7D5 JUMPI POP PUSH1 0x0 DUP2 DUP2 MSTORE PUSH1 0x20 DUP2 SWAP1 MSTORE PUSH1 0x40 SWAP1 KECCAK256 PUSH1 0x3 ADD SLOAD PUSH1 0xFF AND ISZERO JUMPDEST DUP1 PUSH2 0x7F9 JUMPI POP DUP3 DUP1 ISZERO PUSH2 0x7F9 JUMPI POP PUSH1 0x0 DUP2 DUP2 MSTORE PUSH1 0x20 DUP2 SWAP1 MSTORE PUSH1 0x40 SWAP1 KECCAK256 PUSH1 0x3 ADD SLOAD PUSH1 0xFF AND JUMPDEST ISZERO PUSH2 0x805 JUMPI PUSH1 0x1 DUP3 ADD SWAP2 POP JUMPDEST PUSH1 0x1 ADD PUSH2 0x7AC JUMP JUMPDEST POP SWAP3 SWAP2 POP POP JUMP JUMPDEST CALLER ADDRESS EQ PUSH2 0x820 JUMPI PUSH1 0x0 DUP1 REVERT JUMPDEST PUSH1 0x1 PUSH1 0xA0 PUSH1 0x2 EXP SUB DUP2 AND PUSH1 0x0 SWAP1 DUP2 MSTORE PUSH1 0x2 PUSH1 0x20 MSTORE PUSH1 0x40 SWAP1 KECCAK256 SLOAD DUP2 SWAP1 PUSH1 0xFF AND ISZERO PUSH2 0x848 JUMPI PUSH1 0x0 DUP1 REVERT JUMPDEST DUP2 PUSH1 0x1 PUSH1 0xA0 PUSH1 0x2 EXP SUB DUP2 AND ISZERO ISZERO PUSH2 0x85E JUMPI PUSH1 0x0 DUP1 REVERT JUMPDEST PUSH1 0x3 DUP1 SLOAD SWAP1 POP PUSH1 0x1 ADD PUSH1 0x4 SLOAD PUSH1 0x32 DUP3 GT ISZERO DUP1 ISZERO PUSH2 0x87B JUMPI POP DUP2 DUP2 GT ISZERO JUMPDEST DUP1 ISZERO PUSH2 0x886 JUMPI POP DUP1 ISZERO ISZERO JUMPDEST DUP1 ISZERO PUSH2 0x891 JUMPI POP DUP2 ISZERO ISZERO JUMPDEST ISZERO ISZERO PUSH2 0x89C JUMPI PUSH1 0x0 DUP1 REVERT JUMPDEST PUSH1 0x1 PUSH1 0xA0 PUSH1 0x2 EXP SUB DUP6 AND PUSH1 0x0 DUP2 DUP2 MSTORE PUSH1 0x2 PUSH1 0x20 MSTORE PUSH1 0x40 DUP1 DUP3 KECCAK256 DUP1 SLOAD PUSH1 0xFF NOT AND PUSH1 0x1 SWAP1 DUP2 OR SWAP1 SWAP2 SSTORE PUSH1 0x3 DUP1 SLOAD SWAP2 DUP3 ADD DUP2 SSTORE DUP4 MSTORE PUSH32 0xC2575A0E9E593C00F959F8C92F12DB2869C3395A3B0502D05E2516446F71F85B ADD DUP1 SLOAD PUSH20 0xFFFFFFFFFFFFFFFFFFFFFFFFFFFFFFFFFFFFFFFF NOT AND DUP5 OR SWAP1 SSTORE MLOAD PUSH32 0xF39E6E1EB0EDCF53C221607B54B00CD28F3196FED0A24994DC308B8F611B682D SWAP2 SWAP1 LOG2 POP POP POP POP POP JUMP JUMPDEST PUSH1 0x0 DUP1 DUP1 JUMPDEST PUSH1 0x3 SLOAD DUP2 LT ISZERO PUSH2 0x9B6 JUMPI PUSH1 0x0 DUP5 DUP2 MSTORE PUSH1 0x1 PUSH1 0x20 MSTORE PUSH1 0x40 DUP2 KECCAK256 PUSH1 0x3 DUP1 SLOAD SWAP2 SWAP3 SWAP2 DUP5 SWAP1 DUP2 LT PUSH2 0x967 JUMPI INVALID JUMPDEST PUSH1 0x0 SWAP2 DUP3 MSTORE PUSH1 0x20 DUP1 DUP4 KECCAK256 SWAP1 SWAP2 ADD SLOAD PUSH1 0x1 PUSH1 0xA0 PUSH1 0x2 EXP SUB AND DUP4 MSTORE DUP3 ADD SWAP3 SWAP1 SWAP3 MSTORE PUSH1 0x40 ADD SWAP1 KECCAK256 SLOAD PUSH1 0xFF AND ISZERO PUSH2 0x99B JUMPI PUSH1 0x1 DUP3 ADD SWAP2 POP JUMPDEST PUSH1 0x4 SLOAD DUP3 EQ ISZERO PUSH2 0x9AE JUMPI PUSH1 0x1 SWAP3 POP PUSH2 0x9B6 JUMP JUMPDEST PUSH1 0x1 ADD PUSH2 0x93E JUMP JUMPDEST POP POP SWAP2 SWAP1 POP JUMP JUMPDEST PUSH1 0x0 DUP1 JUMPDEST PUSH1 0x3 SLOAD DUP2 LT ISZERO PUSH2 0xA26 JUMPI PUSH1 0x0 DUP4 DUP2 MSTORE PUSH1 0x1 PUSH1 0x20 MSTORE PUSH1 0x40 DUP2 KECCAK256 PUSH1 0x3 DUP1 SLOAD SWAP2 SWAP3 SWAP2 DUP5 SWAP1 DUP2 LT PUSH2 0x9EA JUMPI INVALID JUMPDEST PUSH1 0x0 SWAP2 DUP3 MSTORE PUSH1 0x20 DUP1 DUP4 KECCAK256 SWAP1 SWAP2 ADD SLOAD PUSH1 0x1 PUSH1 0xA0 PUSH1 0x2 EXP SUB AND DUP4 MSTORE DUP3 ADD SWAP3 SWAP1 SWAP3 MSTORE PUSH1 0x40 ADD SWAP1 KECCAK256 SLOAD PUSH1 0xFF AND ISZERO PUSH2 0xA1E JUMPI PUSH1 0x1 DUP3 ADD SWAP2 POP JUMPDEST PUSH1 0x1 ADD PUSH2 0x9C1 JUMP JUMPDEST POP SWAP2 SWAP1 POP JUMP JUMPDEST PUSH1 0x0 PUSH1 0x20 DUP2 DUP2 MSTORE SWAP2 DUP2 MSTORE PUSH1 0x40 SWAP1 DUP2 SWAP1 KECCAK256 DUP1 SLOAD PUSH1 0x1 DUP1 DUP4 ADD SLOAD PUSH1 0x2 DUP1 DUP6 ADD DUP1 SLOAD DUP8 MLOAD PUSH2 0x100 SWAP6 DUP3 AND ISZERO SWAP6 SWAP1 SWAP6 MUL PUSH1 0x0 NOT ADD AND SWAP2 SWAP1 SWAP2 DIV PUSH1 0x1F DUP2 ADD DUP9 SWAP1 DIV DUP9 MUL DUP5 ADD DUP9 ADD SWAP1 SWAP7 MSTORE DUP6 DUP4 MSTORE PUSH1 0x1 PUSH1 0xA0 PUSH1 0x2 EXP SUB SWAP1 SWAP4 AND SWAP6 SWAP1 SWAP5 SWAP2 SWAP3 SWAP2 SWAP1 DUP4 ADD DUP3 DUP3 DUP1 ISZERO PUSH2 0xAD7 JUMPI DUP1 PUSH1 0x1F LT PUSH2 0xAAC JUMPI PUSH2 0x100 DUP1 DUP4 SLOAD DIV MUL DUP4 MSTORE SWAP2 PUSH1 0x20 ADD SWAP2 PUSH2 0xAD7 JUMP JUMPDEST DUP3 ADD SWAP2 SWAP1 PUSH1 0x0 MSTORE PUSH1 0x20 PUSH1 0x0 KECCAK256 SWAP1 JUMPDEST DUP2 SLOAD DUP2 MSTORE SWAP1 PUSH1 0x1 ADD SWAP1 PUSH1 0x20 ADD DUP1 DUP4 GT PUSH2 0xABA JUMPI DUP3 SWAP1 SUB PUSH1 0x1F AND DUP3 ADD SWAP2 JUMPDEST POP POP POP PUSH1 0x3 SWAP1 SWAP4 ADD SLOAD SWAP2 SWAP3 POP POP PUSH1 0xFF AND DUP5 JUMP JUMPDEST PUSH1 0x60 PUSH1 0x3 DUP1 SLOAD DUP1 PUSH1 0x20 MUL PUSH1 0x20 ADD PUSH1 0x40 MLOAD SWAP1 DUP2 ADD PUSH1 0x40 MSTORE DUP1 SWAP3 SWAP2 SWAP1 DUP2 DUP2 MSTORE PUSH1 0x20 ADD DUP3 DUP1 SLOAD DUP1 ISZERO PUSH2 0xB42 JUMPI PUSH1 0x20 MUL DUP3 ADD SWAP2 SWAP1 PUSH1 0x0 MSTORE PUSH1 0x20 PUSH1 0x0 KECCAK256 SWAP1 JUMPDEST DUP2 SLOAD PUSH1 0x1 PUSH1 0xA0 PUSH1 0x2 EXP SUB AND DUP2 MSTORE PUSH1 0x1 SWAP1 SWAP2 ADD SWAP1 PUSH1 0x20 ADD DUP1 DUP4 GT PUSH2 0xB24 JUMPI JUMPDEST POP POP POP POP POP SWAP1 POP JUMPDEST SWAP1 JUMP JUMPDEST PUSH1 0x60 DUP1 PUSH1 0x0 DUP1 PUSH1 0x5 SLOAD PUSH1 0x40 MLOAD SWAP1 DUP1 DUP3 MSTORE DUP1 PUSH1 0x20 MUL PUSH1 0x20 ADD DUP3 ADD PUSH1 0x40 MSTORE DUP1 ISZERO PUSH2 0xB7F JUMPI DUP2 PUSH1 0x20 ADD PUSH1 0x20 DUP3 MUL DUP1 CODESIZE DUP4 CODECOPY ADD SWAP1 POP JUMPDEST POP SWAP3 POP PUSH1 0x0 SWAP2 POP PUSH1 0x0 SWAP1 POP JUMPDEST PUSH1 0x5 SLOAD DUP2 LT ISZERO PUSH2 0xC06 JUMPI DUP6 DUP1 ISZERO PUSH2 0xBB4 JUMPI POP PUSH1 0x0 DUP2 DUP2 MSTORE PUSH1 0x20 DUP2 SWAP1 MSTORE PUSH1 0x40 SWAP1 KECCAK256 PUSH1 0x3 ADD SLOAD PUSH1 0xFF AND ISZERO JUMPDEST DUP1 PUSH2 0xBD8 JUMPI POP DUP5 DUP1 ISZERO PUSH2 0xBD8 JUMPI POP PUSH1 0x0 DUP2 DUP2 MSTORE PUSH1 0x20 DUP2 SWAP1 MSTORE PUSH1 0x40 SWAP1 KECCAK256 PUSH1 0x3 ADD SLOAD PUSH1 0xFF AND JUMPDEST ISZERO PUSH2 0xBFE JUMPI DUP1 DUP4 DUP4 DUP2 MLOAD DUP2 LT ISZERO ISZERO PUSH2 0xBEC JUMPI INVALID JUMPDEST PUSH1 0x20 SWAP1 DUP2 MUL SWAP1 SWAP2 ADD ADD MSTORE PUSH1 0x1 SWAP2 SWAP1 SWAP2 ADD SWAP1 JUMPDEST PUSH1 0x1 ADD PUSH2 0xB8B JUMP JUMPDEST DUP8 DUP8 SUB PUSH1 0x40 MLOAD SWAP1 DUP1 DUP3 MSTORE DUP1 PUSH1 0x20 MUL PUSH1 0x20 ADD DUP3 ADD PUSH1 0x40 MSTORE DUP1 ISZERO PUSH2 0xC32 JUMPI DUP2 PUSH1 0x20 ADD PUSH1 0x20 DUP3 MUL DUP1 CODESIZE DUP4 CODECOPY ADD SWAP1 POP JUMPDEST POP SWAP4 POP DUP8 SWAP1 POP JUMPDEST DUP7 DUP2 LT ISZERO PUSH2 0xC7B JUMPI DUP3 DUP2 DUP2 MLOAD DUP2 LT ISZERO ISZERO PUSH2 0xC4F JUMPI INVALID JUMPDEST SWAP1 PUSH1 0x20 ADD SWAP1 PUSH1 0x20 MUL ADD MLOAD DUP5 DUP10 DUP4 SUB DUP2 MLOAD DUP2 LT ISZERO ISZERO PUSH2 0xC69 JUMPI INVALID JUMPDEST PUSH1 0x20 SWAP1 DUP2 MUL SWAP1 SWAP2 ADD ADD MSTORE PUSH1 0x1 ADD PUSH2 0xC39 JUMP JUMPDEST POP POP POP SWAP5 SWAP4 POP POP POP POP JUMP JUMPDEST PUSH1 0x60 DUP1 PUSH1 0x0 DUP1 PUSH1 0x3 DUP1 SLOAD SWAP1 POP PUSH1 0x40 MLOAD SWAP1 DUP1 DUP3 MSTORE DUP1 PUSH1 0x20 MUL PUSH1 0x20 ADD DUP3 ADD PUSH1 0x40 MSTORE DUP1 ISZERO PUSH2 0xCBB JUMPI DUP2 PUSH1 0x20 ADD PUSH1 0x20 DUP3 MUL DUP1 CODESIZE DUP4 CODECOPY ADD SWAP1 POP JUMPDEST POP SWAP3 POP PUSH1 0x0 SWAP2 POP PUSH1 0x0 SWAP1 POP JUMPDEST PUSH1 0x3 SLOAD DUP2 LT ISZERO PUSH2 0xD78 JUMPI PUSH1 0x0 DUP6 DUP2 MSTORE PUSH1 0x1 PUSH1 0x20 MSTORE PUSH1 0x40 DUP2 KECCAK256 PUSH1 0x3 DUP1 SLOAD SWAP2 SWAP3 SWAP2 DUP5 SWAP1 DUP2 LT PUSH2 0xCF0 JUMPI INVALID JUMPDEST PUSH1 0x0 SWAP2 DUP3 MSTORE PUSH1 0x20 DUP1 DUP4 KECCAK256 SWAP1 SWAP2 ADD SLOAD PUSH1 0x1 PUSH1 0xA0 PUSH1 0x2 EXP SUB AND DUP4 MSTORE DUP3 ADD SWAP3 SWAP1 SWAP3 MSTORE PUSH1 0x40 ADD SWAP1 KECCAK256 SLOAD PUSH1 0xFF AND ISZERO PUSH2 0xD70 JUMPI PUSH1 0x3 DUP1 SLOAD DUP3 SWAP1 DUP2 LT PUSH2 0xD2B JUMPI INVALID JUMPDEST PUSH1 0x0 SWAP2 DUP3 MSTORE PUSH1 0x20 SWAP1 SWAP2 KECCAK256 ADD SLOAD DUP4 MLOAD PUSH1 0x1 PUSH1 0xA0 PUSH1 0x2 EXP SUB SWAP1 SWAP2 AND SWAP1 DUP5 SWAP1 DUP5 SWAP1 DUP2 LT PUSH2 0xD51 JUMPI INVALID JUMPDEST PUSH1 0x1 PUSH1 0xA0 PUSH1 0x2 EXP SUB SWAP1 SWAP3 AND PUSH1 0x20 SWAP3 DUP4 MUL SWAP1 SWAP2 ADD SWAP1 SWAP2 ADD MSTORE PUSH1 0x1 SWAP2 SWAP1 SWAP2 ADD SWAP1 JUMPDEST PUSH1 0x1 ADD PUSH2 0xCC7 JUMP JUMPDEST DUP2 PUSH1 0x40 MLOAD SWAP1 DUP1 DUP3 MSTORE DUP1 PUSH1 0x20 MUL PUSH1 0x20 ADD DUP3 ADD PUSH1 0x40 MSTORE DUP1 ISZERO PUSH2 0xDA2 JUMPI DUP2 PUSH1 0x20 ADD PUSH1 0x20 DUP3 MUL DUP1 CODESIZE DUP4 CODECOPY ADD SWAP1 POP JUMPDEST POP SWAP4 POP PUSH1 0x0 SWAP1 POP JUMPDEST DUP2 DUP2 LT ISZERO PUSH2 0xDF7 JUMPI DUP3 DUP2 DUP2 MLOAD DUP2 LT ISZERO ISZERO PUSH2 0xDC0 JUMPI INVALID JUMPDEST SWAP1 PUSH1 0x20 ADD SWAP1 PUSH1 0x20 MUL ADD MLOAD DUP5 DUP3 DUP2 MLOAD DUP2 LT ISZERO ISZERO PUSH2 0xDD8 JUMPI INVALID JUMPDEST PUSH1 0x1 PUSH1 0xA0 PUSH1 0x2 EXP SUB SWAP1 SWAP3 AND PUSH1 0x20 SWAP3 DUP4 MUL SWAP1 SWAP2 ADD SWAP1 SWAP2 ADD MSTORE PUSH1 0x1 ADD PUSH2 0xDAA JUMP JUMPDEST POP POP POP SWAP2 SWAP1 POP JUMP JUMPDEST PUSH1 0x5 SLOAD DUP2 JUMP JUMPDEST CALLER ADDRESS EQ PUSH2 0xE11 JUMPI PUSH1 0x0 DUP1 REVERT JUMPDEST PUSH1 0x3 SLOAD DUP2 PUSH1 0x32 DUP3 GT DUP1 ISZERO SWAP1 PUSH2 0xE26 JUMPI POP DUP2 DUP2 GT ISZERO JUMPDEST DUP1 ISZERO PUSH2 0xE31 JUMPI POP DUP1 ISZERO ISZERO JUMPDEST DUP1 ISZERO PUSH2 0xE3C JUMPI POP DUP2 ISZERO ISZERO JUMPDEST ISZERO ISZERO PUSH2 0xE47 JUMPI PUSH1 0x0 DUP1 REVERT JUMPDEST PUSH1 0x4 DUP4 SWAP1 SSTORE PUSH1 0x40 DUP1 MLOAD DUP5 DUP2 MSTORE SWAP1 MLOAD PUSH32 0xA3F1EE9126A074D9326C682F561767F710E927FAA811F7A99829D49DC421797A SWAP2 DUP2 SWAP1 SUB PUSH1 0x20 ADD SWAP1 LOG1 POP POP POP JUMP JUMPDEST CALLER PUSH1 0x0 DUP2 DUP2 MSTORE PUSH1 0x2 PUSH1 0x20 MSTORE PUSH1 0x40 SWAP1 KECCAK256 SLOAD PUSH1 0xFF AND ISZERO ISZERO PUSH2 0xEA2 JUMPI PUSH1 0x0 DUP1 REVERT JUMPDEST PUSH1 0x0 DUP3 DUP2 MSTORE PUSH1 0x20 DUP2 SWAP1 MSTORE PUSH1 0x40 SWAP1 KECCAK256 SLOAD DUP3 SWAP1 PUSH1 0x1 PUSH1 0xA0 PUSH1 0x2 EXP SUB AND ISZERO ISZERO PUSH2 0xEC7 JUMPI PUSH1 0x0 DUP1 REVERT JUMPDEST PUSH1 0x0 DUP4 DUP2 MSTORE PUSH1 0x1 PUSH1 0x20 SWAP1 DUP2 MSTORE PUSH1 0x40 DUP1 DUP4 KECCAK256 CALLER DUP1 DUP6 MSTORE SWAP3 MSTORE SWAP1 SWAP2 KECCAK256 SLOAD DUP5 SWAP2 SWAP1 PUSH1 0xFF AND ISZERO PUSH2 0xEF2 JUMPI PUSH1 0x0 DUP1 REVERT JUMPDEST PUSH1 0x0 DUP6 DUP2 MSTORE PUSH1 0x1 PUSH1 0x20 DUP2 DUP2 MSTORE PUSH1 0x40 DUP1 DUP5 KECCAK256 CALLER DUP1 DUP7 MSTORE SWAP3 MSTORE DUP1 DUP5 KECCAK256 DUP1 SLOAD PUSH1 0xFF NOT AND SWAP1 SWAP4 OR SWAP1 SWAP3 SSTORE SWAP1 MLOAD DUP8 SWAP3 PUSH32 0x4A504A94899432A9846E1AA406DCEB1BCFD538BB839071D49D1E5E23F5BE30EF SWAP2 LOG3 PUSH2 0xF48 DUP6 PUSH2 0x1103 JUMP JUMPDEST POP POP POP POP POP JUMP JUMPDEST PUSH1 0x0 PUSH2 0xF5C DUP5 DUP5 DUP5 PUSH2 0x12C3 JUMP JUMPDEST SWAP1 POP PUSH2 0xF67 DUP2 PUSH2 0xE84 JUMP JUMPDEST SWAP4 SWAP3 POP POP POP JUMP JUMPDEST PUSH1 0x32 DUP2 JUMP JUMPDEST PUSH1 0x4 SLOAD DUP2 JUMP JUMPDEST PUSH1 0x0 CALLER ADDRESS EQ PUSH2 0xF87 JUMPI PUSH1 0x0 DUP1 REVERT JUMPDEST PUSH1 0x1 PUSH1 0xA0 PUSH1 0x2 EXP SUB DUP4 AND PUSH1 0x0 SWAP1 DUP2 MSTORE PUSH1 0x2 PUSH1 0x20 MSTORE PUSH1 0x40 SWAP1 KECCAK256 SLOAD DUP4 SWAP1 PUSH1 0xFF AND ISZERO ISZERO PUSH2 0xFB0 JUMPI PUSH1 0x0 DUP1 REVERT JUMPDEST PUSH1 0x1 PUSH1 0xA0 PUSH1 0x2 EXP SUB DUP4 AND PUSH1 0x0 SWAP1 DUP2 MSTORE PUSH1 0x2 PUSH1 0x20 MSTORE PUSH1 0x40 SWAP1 KECCAK256 SLOAD DUP4 SWAP1 PUSH1 0xFF AND ISZERO PUSH2 0xFD8 JUMPI PUSH1 0x0 DUP1 REVERT JUMPDEST PUSH1 0x0 SWAP3 POP JUMPDEST PUSH1 0x3 SLOAD DUP4 LT ISZERO PUSH2 0x1069 JUMPI DUP5 PUSH1 0x1 PUSH1 0xA0 PUSH1 0x2 EXP SUB AND PUSH1 0x3 DUP5 DUP2 SLOAD DUP2 LT ISZERO ISZERO PUSH2 0x1000 JUMPI INVALID JUMPDEST PUSH1 0x0 SWAP2 DUP3 MSTORE PUSH1 0x20 SWAP1 SWAP2 KECCAK256 ADD SLOAD PUSH1 0x1 PUSH1 0xA0 PUSH1 0x2 EXP SUB AND EQ ISZERO PUSH2 0x105E JUMPI DUP4 PUSH1 0x3 DUP5 DUP2 SLOAD DUP2 LT ISZERO ISZERO PUSH2 0x102B JUMPI INVALID JUMPDEST SWAP1 PUSH1 0x0 MSTORE PUSH1 0x20 PUSH1 0x0 KECCAK256 ADD PUSH1 0x0 PUSH2 0x100 EXP DUP2 SLOAD DUP2 PUSH1 0x1 PUSH1 0xA0 PUSH1 0x2 EXP SUB MUL NOT AND SWAP1 DUP4 PUSH1 0x1 PUSH1 0xA0 PUSH1 0x2 EXP SUB AND MUL OR SWAP1 SSTORE POP PUSH2 0x1069 JUMP JUMPDEST PUSH1 0x1 SWAP1 SWAP3 ADD SWAP2 PUSH2 0xFDD JUMP JUMPDEST PUSH1 0x1 PUSH1 0xA0 PUSH1 0x2 EXP SUB DUP1 DUP7 AND PUSH1 0x0 DUP2 DUP2 MSTORE PUSH1 0x2 PUSH1 0x20 MSTORE PUSH1 0x40 DUP1 DUP3 KECCAK256 DUP1 SLOAD PUSH1 0xFF NOT SWAP1 DUP2 AND SWAP1 SWAP2 SSTORE SWAP4 DUP9 AND DUP3 MSTORE DUP1 DUP3 KECCAK256 DUP1 SLOAD SWAP1 SWAP5 AND PUSH1 0x1 OR SWAP1 SWAP4 SSTORE SWAP2 MLOAD SWAP1 SWAP2 PUSH32 0x8001553A916EF2F495D26A907CC54D96ED840D7BDA71E73194BF5A9DF7A76B90 SWAP2 LOG2 PUSH1 0x40 MLOAD PUSH1 0x1 PUSH1 0xA0 PUSH1 0x2 EXP SUB DUP6 AND SWAP1 PUSH32 0xF39E6E1EB0EDCF53C221607B54B00CD28F3196FED0A24994DC308B8F611B682D SWAP1 PUSH1 0x0 SWAP1 LOG2 POP POP POP POP POP JUMP JUMPDEST CALLER PUSH1 0x0 DUP2 DUP2 MSTORE PUSH1 0x2 PUSH1 0x20 MSTORE PUSH1 0x40 DUP2 KECCAK256 SLOAD SWAP1 SWAP2 SWAP1 PUSH1 0xFF AND ISZERO ISZERO PUSH2 0x1124 JUMPI PUSH1 0x0 DUP1 REVERT JUMPDEST PUSH1 0x0 DUP4 DUP2 MSTORE PUSH1 0x1 PUSH1 0x20 SWAP1 DUP2 MSTORE PUSH1 0x40 DUP1 DUP4 KECCAK256 CALLER DUP1 DUP6 MSTORE SWAP3 MSTORE SWAP1 SWAP2 KECCAK256 SLOAD DUP5 SWAP2 SWAP1 PUSH1 0xFF AND ISZERO ISZERO PUSH2 0x1150 JUMPI PUSH1 0x0 DUP1 REVERT JUMPDEST PUSH1 0x0 DUP6 DUP2 MSTORE PUSH1 0x20 DUP2 SWAP1 MSTORE PUSH1 0x40 SWAP1 KECCAK256 PUSH1 0x3 ADD SLOAD DUP6 SWAP1 PUSH1 0xFF AND ISZERO PUSH2 0x1171 JUMPI PUSH1 0x0 DUP1 REVERT JUMPDEST PUSH2 0x117A DUP7 PUSH2 0x939 JUMP JUMPDEST ISZERO PUSH2 0x12BB JUMPI PUSH1 0x0 DUP7 DUP2 MSTORE PUSH1 0x20 DUP2 DUP2 MSTORE PUSH1 0x40 SWAP2 DUP3 SWAP1 KECCAK256 PUSH1 0x3 DUP2 ADD DUP1 SLOAD PUSH1 0xFF NOT AND PUSH1 0x1 SWAP1 DUP2 OR SWAP1 SWAP2 SSTORE DUP2 SLOAD DUP2 DUP4 ADD SLOAD PUSH1 0x2 DUP1 DUP6 ADD DUP1 SLOAD DUP9 MLOAD PUSH1 0x1F PUSH1 0x0 NOT SWAP8 DUP4 AND ISZERO PUSH2 0x100 MUL SWAP8 SWAP1 SWAP8 ADD SWAP1 SWAP2 AND SWAP3 SWAP1 SWAP3 DIV SWAP5 DUP6 ADD DUP8 SWAP1 DIV DUP8 MUL DUP3 ADD DUP8 ADD SWAP1 SWAP8 MSTORE DUP4 DUP2 MSTORE SWAP4 SWAP11 POP PUSH2 0x124E SWAP6 PUSH1 0x1 PUSH1 0xA0 PUSH1 0x2 EXP SUB SWAP1 SWAP3 AND SWAP5 SWAP1 SWAP4 SWAP2 SWAP1 DUP4 SWAP1 DUP4 ADD DUP3 DUP3 DUP1 ISZERO PUSH2 0x1244 JUMPI DUP1 PUSH1 0x1F LT PUSH2 0x1219 JUMPI PUSH2 0x100 DUP1 DUP4 SLOAD DIV MUL DUP4 MSTORE SWAP2 PUSH1 0x20 ADD SWAP2 PUSH2 0x1244 JUMP JUMPDEST DUP3 ADD SWAP2 SWAP1 PUSH1 0x0 MSTORE PUSH1 0x20 PUSH1 0x0 KECCAK256 SWAP1 JUMPDEST DUP2 SLOAD DUP2 MSTORE SWAP1 PUSH1 0x1 ADD SWAP1 PUSH1 0x20 ADD DUP1 DUP4 GT PUSH2 0x1227 JUMPI DUP3 SWAP1 SUB PUSH1 0x1F AND DUP3 ADD SWAP2 JUMPDEST POP POP POP POP POP PUSH2 0x13B3 JUMP JUMPDEST ISZERO PUSH2 0x1283 JUMPI PUSH1 0x40 MLOAD DUP7 SWAP1 PUSH32 0x33E13ECB54C3076D8E8BB8C2881800A4D972B792045FFAE98FDF46DF365FED75 SWAP1 PUSH1 0x0 SWAP1 LOG2 PUSH2 0x12BB JUMP JUMPDEST PUSH1 0x40 MLOAD DUP7 SWAP1 PUSH32 0x526441BB6C1ABA3C9A4A6CA1D6545DA9C2333C8C48343EF398EB858D72B79236 SWAP1 PUSH1 0x0 SWAP1 LOG2 PUSH1 0x3 DUP6 ADD DUP1 SLOAD PUSH1 0xFF NOT AND SWAP1 SSTORE JUMPDEST POP POP POP POP POP POP JUMP JUMPDEST PUSH1 0x0 DUP4 PUSH1 0x1 PUSH1 0xA0 PUSH1 0x2 EXP SUB DUP2 AND ISZERO ISZERO PUSH2 0x12DB JUMPI PUSH1 0x0 DUP1 REVERT JUMPDEST PUSH1 0x5 SLOAD PUSH1 0x40 DUP1 MLOAD PUSH1 0x80 DUP2 ADD DUP3 MSTORE PUSH1 0x1 PUSH1 0xA0 PUSH1 0x2 EXP SUB DUP9 DUP2 AND DUP3 MSTORE PUSH1 0x20 DUP1 DUP4 ADD DUP10 DUP2 MSTORE DUP4 DUP6 ADD DUP10 DUP2 MSTORE PUSH1 0x0 PUSH1 0x60 DUP7 ADD DUP2 SWAP1 MSTORE DUP8 DUP2 MSTORE DUP1 DUP5 MSTORE SWAP6 SWAP1 SWAP6 KECCAK256 DUP5 MLOAD DUP2 SLOAD PUSH20 0xFFFFFFFFFFFFFFFFFFFFFFFFFFFFFFFFFFFFFFFF NOT AND SWAP5 AND SWAP4 SWAP1 SWAP4 OR DUP4 SSTORE MLOAD PUSH1 0x1 DUP4 ADD SSTORE SWAP3 MLOAD DUP1 MLOAD SWAP5 SWAP7 POP SWAP2 SWAP4 SWAP1 SWAP3 PUSH2 0x135B SWAP3 PUSH1 0x2 DUP6 ADD SWAP3 SWAP2 ADD SWAP1 PUSH2 0x13FF JUMP JUMPDEST POP PUSH1 0x60 SWAP2 SWAP1 SWAP2 ADD MLOAD PUSH1 0x3 SWAP1 SWAP2 ADD DUP1 SLOAD PUSH1 0xFF NOT AND SWAP2 ISZERO ISZERO SWAP2 SWAP1 SWAP2 OR SWAP1 SSTORE PUSH1 0x5 DUP1 SLOAD PUSH1 0x1 ADD SWAP1 SSTORE PUSH1 0x40 MLOAD DUP3 SWAP1 PUSH32 0xC0BA8FE4B176C1714197D43B9CC6BCF797A4A7461C5FE8D0EF6E184AE7601E51 SWAP1 PUSH1 0x0 SWAP1 LOG2 POP SWAP4 SWAP3 POP POP POP JUMP JUMPDEST PUSH1 0x0 DUP1 PUSH1 0x40 MLOAD PUSH1 0x20 DUP5 ADD PUSH1 0x0 DUP3 DUP8 DUP4 DUP11 DUP13 PUSH2 0x8796 GAS SUB CALL SWAP9 SWAP8 POP POP POP POP POP POP POP POP JUMP JUMPDEST DUP2 SLOAD DUP2 DUP4 SSTORE DUP2 DUP2 GT ISZERO PUSH2 0x13FA JUMPI PUSH1 0x0 DUP4 DUP2 MSTORE PUSH1 0x20 SWAP1 KECCAK256 PUSH2 0x13FA SWAP2 DUP2 ADD SWAP1 DUP4 ADD PUSH2 0x147D JUMP JUMPDEST POP POP POP JUMP JUMPDEST DUP3 DUP1 SLOAD PUSH1 0x1 DUP2 PUSH1 0x1 AND ISZERO PUSH2 0x100 MUL SUB AND PUSH1 0x2 SWAP1 DIV SWAP1 PUSH1 0x0 MSTORE PUSH1 0x20 PUSH1 0x0 KECCAK256 SWAP1 PUSH1 0x1F ADD PUSH1 0x20 SWAP1 DIV DUP2 ADD SWAP3 DUP3 PUSH1 0x1F LT PUSH2 0x1440 JUMPI DUP1 MLOAD PUSH1 0xFF NOT AND DUP4 DUP1 ADD OR DUP6 SSTORE PUSH2 0x146D JUMP JUMPDEST DUP3 DUP1 ADD PUSH1 0x1 ADD DUP6 SSTORE DUP3 ISZERO PUSH2 0x146D JUMPI SWAP2 DUP3 ADD JUMPDEST DUP3 DUP2 GT ISZERO PUSH2 0x146D JUMPI DUP3 MLOAD DUP3 SSTORE SWAP2 PUSH1 0x20 ADD SWAP2 SWAP1 PUSH1 0x1 ADD SWAP1 PUSH2 0x1452 JUMP JUMPDEST POP PUSH2 0x1479 SWAP3 SWAP2 POP PUSH2 0x147D JUMP JUMPDEST POP SWAP1 JUMP JUMPDEST PUSH2 0xB4A SWAP2 SWAP1 JUMPDEST DUP1 DUP3 GT ISZERO PUSH2 0x1479 JUMPI PUSH1 0x0 DUP2 SSTORE PUSH1 0x1 ADD PUSH2 0x1483 JUMP STOP LOG1 PUSH6 0x627A7A723058 KECCAK256 0xb7 PUSH26 0x6912FA278F4923F7F242CF4B7EC16F03CB2B2B4E9E05E3FCCB53 0xdf NOT 0x49 0xf5 STOP 0x29 "
				},
				"gasEstimates": {
					"creation": {
						"codeDepositCost": "1063000",
						"executionCost": "infinite",
						"totalCost": "infinite"
					},
					"external": {
						"": "1989",
						"MAX_OWNER_COUNT()": "558",
						"addOwner(address)": "63367",
						"changeRequirement(uint256)": "21874",
						"confirmTransaction(uint256)": "infinite",
						"confirmations(uint256,address)": "709",
						"executeTransaction(uint256)": "infinite",
						"getConfirmationCount(uint256)": "infinite",
						"getConfirmations(uint256)": "infinite",
						"getOwners()": "infinite",
						"getTransactionCount(bool,bool)": "infinite",
						"getTransactionIds(uint256,uint256,bool,bool)": "infinite",
						"isConfirmed(uint256)": "infinite",
						"isOwner(address)": "609",
						"owners(uint256)": "837",
						"removeOwner(address)": "infinite",
						"replaceOwner(address,address)": "infinite",
						"required()": "780",
						"revokeConfirmation(uint256)": "23045",
						"submitTransaction(address,uint256,bytes)": "infinite",
						"transactionCount()": "670",
						"transactions(uint256)": "infinite"
					},
					"internal": {
						"addTransaction(address,uint256,bytes memory)": "infinite",
						"external_call(address,uint256,uint256,bytes memory)": "infinite"
					}
				},
				"methodIdentifiers": {
					"MAX_OWNER_COUNT()": "d74f8edd",
					"addOwner(address)": "7065cb48",
					"changeRequirement(uint256)": "ba51a6df",
					"confirmTransaction(uint256)": "c01a8c84",
					"confirmations(uint256,address)": "3411c81c",
					"executeTransaction(uint256)": "ee22610b",
					"getConfirmationCount(uint256)": "8b51d13f",
					"getConfirmations(uint256)": "b5dc40c3",
					"getOwners()": "a0e67e2b",
					"getTransactionCount(bool,bool)": "54741525",
					"getTransactionIds(uint256,uint256,bool,bool)": "a8abe69a",
					"isConfirmed(uint256)": "784547a7",
					"isOwner(address)": "2f54bf6e",
					"owners(uint256)": "025e7c27",
					"removeOwner(address)": "173825d9",
					"replaceOwner(address,address)": "e20056e6",
					"required()": "dc8452cd",
					"revokeConfirmation(uint256)": "20ea8d86",
					"submitTransaction(address,uint256,bytes)": "c6427474",
					"transactionCount()": "b77bf600",
					"transactions(uint256)": "9ace38c2"
				}
			},
			"userdoc": {
				"methods": {}
			}
		}
	}
}