{
	"contracts/GnosisSafeProxyFactory.sol": {
		"GnosisSafeProxyFactory": {
			"abi": [
				{
					"anonymous": false,
					"inputs": [
						{
							"indexed": false,
							"internalType": "contract GnosisSafeProxy",
							"name": "proxy",
							"type": "address"
						},
						{
							"indexed": false,
							"internalType": "address",
							"name": "singleton",
							"type": "address"
						}
					],
					"name": "ProxyCreation",
					"type": "event"
				},
				{
					"inputs": [
						{
							"internalType": "address",
							"name": "_singleton",
							"type": "address"
						},
						{
							"internalType": "bytes",
							"name": "initializer",
							"type": "bytes"
						},
						{
							"internalType": "uint256",
							"name": "saltNonce",
							"type": "uint256"
						}
					],
					"name": "calculateCreateProxyWithNonceAddress",
					"outputs": [
						{
							"internalType": "contract GnosisSafeProxy",
							"name": "proxy",
							"type": "address"
						}
					],
					"stateMutability": "nonpayable",
					"type": "function"
				},
				{
					"inputs": [
						{
							"internalType": "address",
							"name": "singleton",
							"type": "address"
						},
						{
							"internalType": "bytes",
							"name": "data",
							"type": "bytes"
						}
					],
					"name": "createProxy",
					"outputs": [
						{
							"internalType": "contract GnosisSafeProxy",
							"name": "proxy",
							"type": "address"
						}
					],
					"stateMutability": "nonpayable",
					"type": "function"
				},
				{
					"inputs": [
						{
							"internalType": "address",
							"name": "_singleton",
							"type": "address"
						},
						{
							"internalType": "bytes",
							"name": "initializer",
							"type": "bytes"
						},
						{
							"internalType": "uint256",
							"name": "saltNonce",
							"type": "uint256"
						},
						{
							"internalType": "contract IProxyCreationCallback",
							"name": "callback",
							"type": "address"
						}
					],
					"name": "createProxyWithCallback",
					"outputs": [
						{
							"internalType": "contract GnosisSafeProxy",
							"name": "proxy",
							"type": "address"
						}
					],
					"stateMutability": "nonpayable",
					"type": "function"
				},
				{
					"inputs": [
						{
							"internalType": "address",
							"name": "_singleton",
							"type": "address"
						},
						{
							"internalType": "bytes",
							"name": "initializer",
							"type": "bytes"
						},
						{
							"internalType": "uint256",
							"name": "saltNonce",
							"type": "uint256"
						}
					],
					"name": "createProxyWithNonce",
					"outputs": [
						{
							"internalType": "contract GnosisSafeProxy",
							"name": "proxy",
							"type": "address"
						}
					],
					"stateMutability": "nonpayable",
					"type": "function"
				},
				{
					"inputs": [],
					"name": "proxyCreationCode",
					"outputs": [
						{
							"internalType": "bytes",
							"name": "",
							"type": "bytes"
						}
					],
					"stateMutability": "pure",
					"type": "function"
				},
				{
					"inputs": [],
					"name": "proxyRuntimeCode",
					"outputs": [
						{
							"internalType": "bytes",
							"name": "",
							"type": "bytes"
						}
					],
					"stateMutability": "pure",
					"type": "function"
				}
			],
			"devdoc": {
				"author": "Stefan George - <stefan@gnosis.pm>",
				"kind": "dev",
				"methods": {
					"calculateCreateProxyWithNonceAddress(address,bytes,uint256)": {
						"details": "Allows to get the address for a new proxy contact created via `createProxyWithNonce`      This method is only meant for address calculation purpose when you use an initializer that would revert,      therefore the response is returned with a revert. When calling this method set `from` to the address of the proxy factory.",
						"params": {
							"_singleton": "Address of singleton contract.",
							"initializer": "Payload for message call sent to new proxy contract.",
							"saltNonce": "Nonce that will be used to generate the salt to calculate the address of the new proxy contract."
						}
					},
					"createProxy(address,bytes)": {
						"details": "Allows to create new proxy contact and execute a message call to the new proxy within one transaction.",
						"params": {
							"data": "Payload for message call sent to new proxy contract.",
							"singleton": "Address of singleton contract."
						}
					},
					"createProxyWithCallback(address,bytes,uint256,address)": {
						"details": "Allows to create new proxy contact, execute a message call to the new proxy and call a specified callback within one transaction",
						"params": {
							"_singleton": "Address of singleton contract.",
							"callback": "Callback that will be invoced after the new proxy contract has been successfully deployed and initialized.",
							"initializer": "Payload for message call sent to new proxy contract.",
							"saltNonce": "Nonce that will be used to generate the salt to calculate the address of the new proxy contract."
						}
					},
					"createProxyWithNonce(address,bytes,uint256)": {
						"details": "Allows to create new proxy contact and execute a message call to the new proxy within one transaction.",
						"params": {
							"_singleton": "Address of singleton contract.",
							"initializer": "Payload for message call sent to new proxy contract.",
							"saltNonce": "Nonce that will be used to generate the salt to calculate the address of the new proxy contract."
						}
					},
					"proxyCreationCode()": {
						"details": "Allows to retrieve the creation code used for the Proxy deployment. With this it is easily possible to calculate predicted address."
					},
					"proxyRuntimeCode()": {
						"details": "Allows to retrieve the runtime code of a deployed Proxy. This can be used to check that the expected Proxy was deployed."
					}
				},
				"title": "Proxy Factory - Allows to create new proxy contact and execute a message call to the new proxy within one transaction.",
				"version": 1
			},
			"evm": {
				"assembly": "    /* \"contracts/GnosisSafeProxyFactory.sol\":2390:7892  contract GnosisSafeProxyFactory {... */\n  mstore(0x40, 0x80)\n  callvalue\n  dup1\n  iszero\n  tag_1\n  jumpi\n  0x00\n  dup1\n  revert\ntag_1:\n  pop\n  dataSize(sub_0)\n  dup1\n  dataOffset(sub_0)\n  0x00\n  codecopy\n  0x00\n  return\nstop\n\nsub_0: assembly {\n        /* \"contracts/GnosisSafeProxyFactory.sol\":2390:7892  contract GnosisSafeProxyFactory {... */\n      mstore(0x40, 0x80)\n      callvalue\n      dup1\n      iszero\n      tag_1\n      jumpi\n      0x00\n      dup1\n      revert\n    tag_1:\n      pop\n      jumpi(tag_2, lt(calldatasize, 0x04))\n      shr(0xe0, calldataload(0x00))\n      dup1\n      0x1688f0b9\n      eq\n      tag_3\n      jumpi\n      dup1\n      0x2500510e\n      eq\n      tag_4\n      jumpi\n      dup1\n      0x53e5d935\n      eq\n      tag_5\n      jumpi\n      dup1\n      0x61b69abd\n      eq\n      tag_6\n      jumpi\n      dup1\n      0xaddacc0f\n      eq\n      tag_7\n      jumpi\n      dup1\n      0xd18af54d\n      eq\n      tag_8\n      jumpi\n    tag_2:\n      0x00\n      dup1\n      revert\n        /* \"contracts/GnosisSafeProxyFactory.sol\":5334:5910  function createProxyWithNonce(... */\n    tag_3:\n      tag_9\n      tag_10\n      calldatasize\n      0x04\n      tag_11\n      jump\t// in\n    tag_10:\n      tag_12\n      jump\t// in\n    tag_9:\n      mload(0x40)\n      tag_13\n      swap2\n      swap1\n      tag_56\n      jump\t// in\n    tag_13:\n      mload(0x40)\n      dup1\n      swap2\n      sub\n      swap1\n      return\n        /* \"contracts/GnosisSafeProxyFactory.sol\":7576:7890  function calculateCreateProxyWithNonceAddress(... */\n    tag_4:\n      tag_9\n      tag_16\n      calldatasize\n      0x04\n      tag_17\n      jump\t// in\n    tag_16:\n      tag_18\n      jump\t// in\n        /* \"contracts/GnosisSafeProxyFactory.sol\":3614:3736  function proxyCreationCode() public pure returns (bytes memory) {... */\n    tag_5:\n      tag_20\n      tag_21\n      jump\t// in\n    tag_20:\n      mload(0x40)\n      tag_13\n      swap2\n      swap1\n      tag_23\n      jump\t// in\n        /* \"contracts/GnosisSafeProxyFactory.sol\":2741:3203  function createProxy(address singleton, bytes memory data) public returns (GnosisSafeProxy proxy) {... */\n    tag_6:\n      tag_9\n      tag_25\n      calldatasize\n      0x04\n      tag_26\n      jump\t// in\n    tag_25:\n      tag_27\n      jump\t// in\n        /* \"contracts/GnosisSafeProxyFactory.sol\":3343:3463  function proxyRuntimeCode() public pure returns (bytes memory) {... */\n    tag_7:\n      tag_20\n      tag_30\n      jump\t// in\n        /* \"contracts/GnosisSafeProxyFactory.sol\":6448:6959  function createProxyWithCallback(... */\n    tag_8:\n      tag_9\n      tag_33\n      calldatasize\n      0x04\n      tag_34\n      jump\t// in\n    tag_33:\n      tag_35\n      jump\t// in\n        /* \"contracts/GnosisSafeProxyFactory.sol\":5334:5910  function createProxyWithNonce(... */\n    tag_12:\n        /* \"contracts/GnosisSafeProxyFactory.sol\":5475:5496  GnosisSafeProxy proxy */\n      0x00\n        /* \"contracts/GnosisSafeProxyFactory.sol\":5516:5572  deployProxyWithNonce(_singleton, initializer, saltNonce) */\n      tag_38\n        /* \"contracts/GnosisSafeProxyFactory.sol\":5537:5547  _singleton */\n      dup5\n        /* \"contracts/GnosisSafeProxyFactory.sol\":5549:5560  initializer */\n      dup5\n        /* \"contracts/GnosisSafeProxyFactory.sol\":5562:5571  saltNonce */\n      dup5\n        /* \"contracts/GnosisSafeProxyFactory.sol\":5516:5536  deployProxyWithNonce */\n      tag_39\n        /* \"contracts/GnosisSafeProxyFactory.sol\":5516:5572  deployProxyWithNonce(_singleton, initializer, saltNonce) */\n      jump\t// in\n    tag_38:\n        /* \"contracts/GnosisSafeProxyFactory.sol\":5586:5604  initializer.length */\n      dup4\n      mload\n        /* \"contracts/GnosisSafeProxyFactory.sol\":5508:5572  proxy = deployProxyWithNonce(_singleton, initializer, saltNonce) */\n      swap1\n      swap2\n      pop\n        /* \"contracts/GnosisSafeProxyFactory.sol\":5586:5608  initializer.length > 0 */\n      iszero\n        /* \"contracts/GnosisSafeProxyFactory.sol\":5582:5857  if (initializer.length > 0)... */\n      tag_41\n      jumpi\n        /* \"contracts/GnosisSafeProxyFactory.sol\":5788:5789  0 */\n      0x00\n        /* \"contracts/GnosisSafeProxyFactory.sol\":5784:5785  0 */\n      dup1\n        /* \"contracts/GnosisSafeProxyFactory.sol\":5781:5782  0 */\n      0x00\n        /* \"contracts/GnosisSafeProxyFactory.sol\":5767:5778  initializer */\n      dup6\n        /* \"contracts/GnosisSafeProxyFactory.sol\":5761:5779  mload(initializer) */\n      mload\n        /* \"contracts/GnosisSafeProxyFactory.sol\":5754:5758  0x20 */\n      0x20\n        /* \"contracts/GnosisSafeProxyFactory.sol\":5741:5752  initializer */\n      dup8\n        /* \"contracts/GnosisSafeProxyFactory.sol\":5737:5759  add(initializer, 0x20) */\n      add\n        /* \"contracts/GnosisSafeProxyFactory.sol\":5734:5735  0 */\n      0x00\n        /* \"contracts/GnosisSafeProxyFactory.sol\":5727:5732  proxy */\n      dup7\n        /* \"contracts/GnosisSafeProxyFactory.sol\":5720:5725  gas() */\n      gas\n        /* \"contracts/GnosisSafeProxyFactory.sol\":5715:5786  call(gas(), proxy, 0, add(initializer, 0x20), mload(initializer), 0, 0) */\n      call\n        /* \"contracts/GnosisSafeProxyFactory.sol\":5712:5790  eq(call(gas(), proxy, 0, add(initializer, 0x20), mload(initializer), 0, 0), 0) */\n      eq\n        /* \"contracts/GnosisSafeProxyFactory.sol\":5709:5711  if */\n      iszero\n      tag_41\n      jumpi\n        /* \"contracts/GnosisSafeProxyFactory.sol\":5823:5824  0 */\n      0x00\n        /* \"contracts/GnosisSafeProxyFactory.sol\":5820:5821  0 */\n      dup1\n        /* \"contracts/GnosisSafeProxyFactory.sol\":5813:5825  revert(0, 0) */\n      revert\n        /* \"contracts/GnosisSafeProxyFactory.sol\":5709:5711  if */\n    tag_41:\n        /* \"contracts/GnosisSafeProxyFactory.sol\":5871:5903  ProxyCreation(proxy, _singleton) */\n      0x4f51faf6c4561ff95f067657e43439f0f856d97c04d9ec9070a6199ad418e235\n        /* \"contracts/GnosisSafeProxyFactory.sol\":5885:5890  proxy */\n      dup2\n        /* \"contracts/GnosisSafeProxyFactory.sol\":5892:5902  _singleton */\n      dup6\n        /* \"contracts/GnosisSafeProxyFactory.sol\":5871:5903  ProxyCreation(proxy, _singleton) */\n      mload(0x40)\n      tag_42\n      swap3\n      swap2\n      swap1\n      tag_43\n      jump\t// in\n    tag_42:\n      mload(0x40)\n      dup1\n      swap2\n      sub\n      swap1\n      log1\n        /* \"contracts/GnosisSafeProxyFactory.sol\":5334:5910  function createProxyWithNonce(... */\n      swap4\n      swap3\n      pop\n      pop\n      pop\n      jump\t// out\n        /* \"contracts/GnosisSafeProxyFactory.sol\":7576:7890  function calculateCreateProxyWithNonceAddress(... */\n    tag_18:\n        /* \"contracts/GnosisSafeProxyFactory.sol\":7737:7758  GnosisSafeProxy proxy */\n      0x00\n        /* \"contracts/GnosisSafeProxyFactory.sol\":7778:7834  deployProxyWithNonce(_singleton, initializer, saltNonce) */\n      tag_45\n        /* \"contracts/GnosisSafeProxyFactory.sol\":7799:7809  _singleton */\n      dup6\n        /* \"contracts/GnosisSafeProxyFactory.sol\":7811:7822  initializer */\n      dup6\n      dup6\n        /* \"contracts/GnosisSafeProxyFactory.sol\":7778:7834  deployProxyWithNonce(_singleton, initializer, saltNonce) */\n      dup1\n      dup1\n      0x1f\n      add\n      0x20\n      dup1\n      swap2\n      div\n      mul\n      0x20\n      add\n      mload(0x40)\n      swap1\n      dup2\n      add\n      0x40\n      mstore\n      dup1\n      swap4\n      swap3\n      swap2\n      swap1\n      dup2\n      dup2\n      mstore\n      0x20\n      add\n      dup4\n      dup4\n      dup1\n      dup3\n      dup5\n      calldatacopy\n      0x00\n      swap3\n      add\n      swap2\n      swap1\n      swap2\n      mstore\n      pop\n        /* \"contracts/GnosisSafeProxyFactory.sol\":7824:7833  saltNonce */\n      dup8\n      swap3\n      pop\n        /* \"contracts/GnosisSafeProxyFactory.sol\":7778:7798  deployProxyWithNonce */\n      tag_39\n      swap2\n      pop\n      pop\n        /* \"contracts/GnosisSafeProxyFactory.sol\":7778:7834  deployProxyWithNonce(_singleton, initializer, saltNonce) */\n      jump\t// in\n    tag_45:\n        /* \"contracts/GnosisSafeProxyFactory.sol\":7770:7834  proxy = deployProxyWithNonce(_singleton, initializer, saltNonce) */\n      swap1\n      pop\n        /* \"contracts/GnosisSafeProxyFactory.sol\":7875:7880  proxy */\n      dup1\n        /* \"contracts/GnosisSafeProxyFactory.sol\":7858:7881  abi.encodePacked(proxy) */\n      add(0x20, mload(0x40))\n      tag_46\n      swap2\n      swap1\n      tag_47\n      jump\t// in\n    tag_46:\n      0x40\n      dup1\n      mload\n      not(0x1f)\n      dup2\n      dup5\n      sub\n      add\n      dup2\n      mstore\n      swap1\n      dup3\n      swap1\n      mstore\n      shl(0xe5, 0x461bcd)\n        /* \"contracts/GnosisSafeProxyFactory.sol\":7844:7883  revert(string(abi.encodePacked(proxy))) */\n      dup3\n      mstore\n      tag_48\n      swap2\n      0x04\n      add\n      tag_23\n      jump\t// in\n    tag_48:\n      mload(0x40)\n      dup1\n      swap2\n      sub\n      swap1\n      revert\n        /* \"contracts/GnosisSafeProxyFactory.sol\":3614:3736  function proxyCreationCode() public pure returns (bytes memory) {... */\n    tag_21:\n        /* \"contracts/GnosisSafeProxyFactory.sol\":3664:3676  bytes memory */\n      0x60\n        /* \"contracts/GnosisSafeProxyFactory.sol\":3695:3729  type(GnosisSafeProxy).creationCode */\n      mload(0x40)\n      dup1\n      0x20\n      add\n      tag_51\n      swap1\n      tag_52\n      jump\t// in\n    tag_51:\n      not(0x1f)\n      dup3\n      dup3\n      sub\n      dup2\n      add\n      dup4\n      mstore\n      0x1f\n      swap1\n      swap2\n      add\n      and\n      0x40\n      mstore\n      swap1\n      pop\n        /* \"contracts/GnosisSafeProxyFactory.sol\":3614:3736  function proxyCreationCode() public pure returns (bytes memory) {... */\n      swap1\n      jump\t// out\n        /* \"contracts/GnosisSafeProxyFactory.sol\":2741:3203  function createProxy(address singleton, bytes memory data) public returns (GnosisSafeProxy proxy) {... */\n    tag_27:\n        /* \"contracts/GnosisSafeProxyFactory.sol\":2816:2837  GnosisSafeProxy proxy */\n      0x00\n        /* \"contracts/GnosisSafeProxyFactory.sol\":2877:2886  singleton */\n      dup3\n        /* \"contracts/GnosisSafeProxyFactory.sol\":2857:2887  new GnosisSafeProxy(singleton) */\n      mload(0x40)\n      tag_54\n      swap1\n      tag_52\n      jump\t// in\n    tag_54:\n      tag_55\n      swap2\n      swap1\n      tag_56\n      jump\t// in\n    tag_55:\n      mload(0x40)\n      dup1\n      swap2\n      sub\n      swap1\n      0x00\n      create\n      dup1\n      iszero\n      dup1\n      iszero\n      tag_57\n      jumpi\n      returndatasize\n      0x00\n      dup1\n      returndatacopy\n      revert(0x00, returndatasize)\n    tag_57:\n      pop\n        /* \"contracts/GnosisSafeProxyFactory.sol\":2901:2912  data.length */\n      dup3\n      mload\n        /* \"contracts/GnosisSafeProxyFactory.sol\":2849:2887  proxy = new GnosisSafeProxy(singleton) */\n      swap1\n      swap2\n      pop\n        /* \"contracts/GnosisSafeProxyFactory.sol\":2901:2916  data.length > 0 */\n      iszero\n        /* \"contracts/GnosisSafeProxyFactory.sol\":2897:3151  if (data.length > 0)... */\n      tag_59\n      jumpi\n        /* \"contracts/GnosisSafeProxyFactory.sol\":3082:3083  0 */\n      0x00\n        /* \"contracts/GnosisSafeProxyFactory.sol\":3078:3079  0 */\n      dup1\n        /* \"contracts/GnosisSafeProxyFactory.sol\":3075:3076  0 */\n      0x00\n        /* \"contracts/GnosisSafeProxyFactory.sol\":3068:3072  data */\n      dup5\n        /* \"contracts/GnosisSafeProxyFactory.sol\":3062:3073  mload(data) */\n      mload\n        /* \"contracts/GnosisSafeProxyFactory.sol\":3055:3059  0x20 */\n      0x20\n        /* \"contracts/GnosisSafeProxyFactory.sol\":3049:3053  data */\n      dup7\n        /* \"contracts/GnosisSafeProxyFactory.sol\":3045:3060  add(data, 0x20) */\n      add\n        /* \"contracts/GnosisSafeProxyFactory.sol\":3042:3043  0 */\n      0x00\n        /* \"contracts/GnosisSafeProxyFactory.sol\":3035:3040  proxy */\n      dup7\n        /* \"contracts/GnosisSafeProxyFactory.sol\":3028:3033  gas() */\n      gas\n        /* \"contracts/GnosisSafeProxyFactory.sol\":3023:3080  call(gas(), proxy, 0, add(data, 0x20), mload(data), 0, 0) */\n      call\n        /* \"contracts/GnosisSafeProxyFactory.sol\":3020:3084  eq(call(gas(), proxy, 0, add(data, 0x20), mload(data), 0, 0), 0) */\n      eq\n        /* \"contracts/GnosisSafeProxyFactory.sol\":3017:3019  if */\n      iszero\n      tag_59\n      jumpi\n        /* \"contracts/GnosisSafeProxyFactory.sol\":3117:3118  0 */\n      0x00\n        /* \"contracts/GnosisSafeProxyFactory.sol\":3114:3115  0 */\n      dup1\n        /* \"contracts/GnosisSafeProxyFactory.sol\":3107:3119  revert(0, 0) */\n      revert\n        /* \"contracts/GnosisSafeProxyFactory.sol\":3017:3019  if */\n    tag_59:\n        /* \"contracts/GnosisSafeProxyFactory.sol\":3165:3196  ProxyCreation(proxy, singleton) */\n      0x4f51faf6c4561ff95f067657e43439f0f856d97c04d9ec9070a6199ad418e235\n        /* \"contracts/GnosisSafeProxyFactory.sol\":3179:3184  proxy */\n      dup2\n        /* \"contracts/GnosisSafeProxyFactory.sol\":3186:3195  singleton */\n      dup5\n        /* \"contracts/GnosisSafeProxyFactory.sol\":3165:3196  ProxyCreation(proxy, singleton) */\n      mload(0x40)\n      tag_60\n      swap3\n      swap2\n      swap1\n      tag_43\n      jump\t// in\n    tag_60:\n      mload(0x40)\n      dup1\n      swap2\n      sub\n      swap1\n      log1\n        /* \"contracts/GnosisSafeProxyFactory.sol\":2741:3203  function createProxy(address singleton, bytes memory data) public returns (GnosisSafeProxy proxy) {... */\n      swap3\n      swap2\n      pop\n      pop\n      jump\t// out\n        /* \"contracts/GnosisSafeProxyFactory.sol\":3343:3463  function proxyRuntimeCode() public pure returns (bytes memory) {... */\n    tag_30:\n        /* \"contracts/GnosisSafeProxyFactory.sol\":3392:3404  bytes memory */\n      0x60\n        /* \"contracts/GnosisSafeProxyFactory.sol\":3423:3456  type(GnosisSafeProxy).runtimeCode */\n      mload(0x40)\n      dup1\n      0x20\n      add\n      tag_51\n      swap1\n      tag_63\n      jump\t// in\n        /* \"contracts/GnosisSafeProxyFactory.sol\":6448:6959  function createProxyWithCallback(... */\n    tag_35:\n        /* \"contracts/GnosisSafeProxyFactory.sol\":6633:6654  GnosisSafeProxy proxy */\n      0x00\n        /* \"contracts/GnosisSafeProxyFactory.sol\":6666:6695  uint256 saltNonceWithCallback */\n      dup1\n        /* \"contracts/GnosisSafeProxyFactory.sol\":6733:6742  saltNonce */\n      dup4\n        /* \"contracts/GnosisSafeProxyFactory.sol\":6744:6752  callback */\n      dup4\n        /* \"contracts/GnosisSafeProxyFactory.sol\":6716:6753  abi.encodePacked(saltNonce, callback) */\n      add(0x20, mload(0x40))\n      tag_65\n      swap3\n      swap2\n      swap1\n      tag_66\n      jump\t// in\n    tag_65:\n      mload(0x40)\n      0x20\n      dup2\n      dup4\n      sub\n      sub\n      dup2\n      mstore\n      swap1\n      0x40\n      mstore\n        /* \"contracts/GnosisSafeProxyFactory.sol\":6706:6754  keccak256(abi.encodePacked(saltNonce, callback)) */\n      dup1\n      mload\n      swap1\n      0x20\n      add\n      keccak256\n        /* \"contracts/GnosisSafeProxyFactory.sol\":6698:6755  uint256(keccak256(abi.encodePacked(saltNonce, callback))) */\n      0x00\n      shr\n        /* \"contracts/GnosisSafeProxyFactory.sol\":6666:6755  uint256 saltNonceWithCallback = uint256(keccak256(abi.encodePacked(saltNonce, callback))) */\n      swap1\n      pop\n        /* \"contracts/GnosisSafeProxyFactory.sol\":6773:6841  createProxyWithNonce(_singleton, initializer, saltNonceWithCallback) */\n      tag_67\n        /* \"contracts/GnosisSafeProxyFactory.sol\":6794:6804  _singleton */\n      dup7\n        /* \"contracts/GnosisSafeProxyFactory.sol\":6806:6817  initializer */\n      dup7\n        /* \"contracts/GnosisSafeProxyFactory.sol\":6819:6840  saltNonceWithCallback */\n      dup4\n        /* \"contracts/GnosisSafeProxyFactory.sol\":6773:6793  createProxyWithNonce */\n      tag_12\n        /* \"contracts/GnosisSafeProxyFactory.sol\":6773:6841  createProxyWithNonce(_singleton, initializer, saltNonceWithCallback) */\n      jump\t// in\n    tag_67:\n        /* \"contracts/GnosisSafeProxyFactory.sol\":6765:6841  proxy = createProxyWithNonce(_singleton, initializer, saltNonceWithCallback) */\n      swap2\n      pop\n      sub(shl(0xa0, 0x01), 0x01)\n        /* \"contracts/GnosisSafeProxyFactory.sol\":6855:6886  address(callback) != address(0) */\n      dup4\n      and\n      iszero\n        /* \"contracts/GnosisSafeProxyFactory.sol\":6851:6952  if (address(callback) != address(0)) callback.proxyCreated(proxy, _singleton, initializer, saltNonce) */\n      tag_68\n      jumpi\n        /* \"contracts/GnosisSafeProxyFactory.sol\":6888:6952  callback.proxyCreated(proxy, _singleton, initializer, saltNonce) */\n      mload(0x40)\n      shl(0xe3, 0x03ca56a3)\n      dup2\n      mstore\n      sub(shl(0xa0, 0x01), 0x01)\n        /* \"contracts/GnosisSafeProxyFactory.sol\":6888:6909  callback.proxyCreated */\n      dup5\n      and\n      swap1\n      0x1e52b518\n      swap1\n        /* \"contracts/GnosisSafeProxyFactory.sol\":6888:6952  callback.proxyCreated(proxy, _singleton, initializer, saltNonce) */\n      tag_69\n      swap1\n        /* \"contracts/GnosisSafeProxyFactory.sol\":6910:6915  proxy */\n      dup6\n      swap1\n        /* \"contracts/GnosisSafeProxyFactory.sol\":6917:6927  _singleton */\n      dup11\n      swap1\n        /* \"contracts/GnosisSafeProxyFactory.sol\":6929:6940  initializer */\n      dup11\n      swap1\n        /* \"contracts/GnosisSafeProxyFactory.sol\":6942:6951  saltNonce */\n      dup11\n      swap1\n        /* \"contracts/GnosisSafeProxyFactory.sol\":6888:6952  callback.proxyCreated(proxy, _singleton, initializer, saltNonce) */\n      0x04\n      add\n      tag_70\n      jump\t// in\n    tag_69:\n      0x00\n      mload(0x40)\n      dup1\n      dup4\n      sub\n      dup2\n      0x00\n      dup8\n      dup1\n      extcodesize\n      iszero\n      dup1\n      iszero\n      tag_71\n      jumpi\n      0x00\n      dup1\n      revert\n    tag_71:\n      pop\n      gas\n      call\n      iszero\n      dup1\n      iszero\n      tag_73\n      jumpi\n      returndatasize\n      0x00\n      dup1\n      returndatacopy\n      revert(0x00, returndatasize)\n    tag_73:\n      pop\n      pop\n      pop\n      pop\n        /* \"contracts/GnosisSafeProxyFactory.sol\":6851:6952  if (address(callback) != address(0)) callback.proxyCreated(proxy, _singleton, initializer, saltNonce) */\n    tag_68:\n        /* \"contracts/GnosisSafeProxyFactory.sol\":6448:6959  function createProxyWithCallback(... */\n      pop\n      swap5\n      swap4\n      pop\n      pop\n      pop\n      pop\n      jump\t// out\n        /* \"contracts/GnosisSafeProxyFactory.sol\":4184:4953  function deployProxyWithNonce(... */\n    tag_39:\n        /* \"contracts/GnosisSafeProxyFactory.sol\":4327:4348  GnosisSafeProxy proxy */\n      0x00\n        /* \"contracts/GnosisSafeProxyFactory.sol\":4502:4514  bytes32 salt */\n      dup1\n        /* \"contracts/GnosisSafeProxyFactory.sol\":4554:4565  initializer */\n      dup4\n        /* \"contracts/GnosisSafeProxyFactory.sol\":4544:4566  keccak256(initializer) */\n      dup1\n      mload\n      swap1\n      0x20\n      add\n      keccak256\n        /* \"contracts/GnosisSafeProxyFactory.sol\":4568:4577  saltNonce */\n      dup4\n        /* \"contracts/GnosisSafeProxyFactory.sol\":4527:4578  abi.encodePacked(keccak256(initializer), saltNonce) */\n      add(0x20, mload(0x40))\n      tag_75\n      swap3\n      swap2\n      swap1\n      tag_76\n      jump\t// in\n    tag_75:\n      mload(0x40)\n      0x20\n      dup2\n      dup4\n      sub\n      sub\n      dup2\n      mstore\n      swap1\n      0x40\n      mstore\n        /* \"contracts/GnosisSafeProxyFactory.sol\":4517:4579  keccak256(abi.encodePacked(keccak256(initializer), saltNonce)) */\n      dup1\n      mload\n      swap1\n      0x20\n      add\n      keccak256\n        /* \"contracts/GnosisSafeProxyFactory.sol\":4502:4579  bytes32 salt = keccak256(abi.encodePacked(keccak256(initializer), saltNonce)) */\n      swap1\n      pop\n        /* \"contracts/GnosisSafeProxyFactory.sol\":4589:4616  bytes memory deploymentData */\n      0x00\n        /* \"contracts/GnosisSafeProxyFactory.sol\":4636:4670  type(GnosisSafeProxy).creationCode */\n      mload(0x40)\n      dup1\n      0x20\n      add\n      tag_77\n      swap1\n      tag_52\n      jump\t// in\n    tag_77:\n      not(0x1f)\n      dup3\n      dup3\n      sub\n      dup2\n      add\n      dup4\n      mstore\n      0x1f\n      swap1\n      swap2\n      add\n      and\n      0x40\n      dup2\n      swap1\n      mstore\n        /* \"contracts/GnosisSafeProxyFactory.sol\":4619:4701  abi.encodePacked(type(GnosisSafeProxy).creationCode, uint256(uint160(_singleton))) */\n      tag_78\n      swap2\n        /* \"contracts/GnosisSafeProxyFactory.sol\":4636:4670  type(GnosisSafeProxy).creationCode */\n      swap1\n      sub(shl(0xa0, 0x01), 0x01)\n        /* \"contracts/GnosisSafeProxyFactory.sol\":4672:4700  uint256(uint160(_singleton)) */\n      dup10\n      and\n      swap1\n        /* \"contracts/GnosisSafeProxyFactory.sol\":4636:4670  type(GnosisSafeProxy).creationCode */\n      0x20\n        /* \"contracts/GnosisSafeProxyFactory.sol\":4619:4701  abi.encodePacked(type(GnosisSafeProxy).creationCode, uint256(uint160(_singleton))) */\n      add\n      tag_79\n      jump\t// in\n    tag_78:\n      mload(0x40)\n      0x20\n      dup2\n      dup4\n      sub\n      sub\n      dup2\n      mstore\n      swap1\n      0x40\n      mstore\n        /* \"contracts/GnosisSafeProxyFactory.sol\":4589:4701  bytes memory deploymentData = abi.encodePacked(type(GnosisSafeProxy).creationCode, uint256(uint160(_singleton))) */\n      swap1\n      pop\n        /* \"contracts/GnosisSafeProxyFactory.sol\":4862:4866  salt */\n      dup2\n        /* \"contracts/GnosisSafeProxyFactory.sol\":4845:4859  deploymentData */\n      dup2\n        /* \"contracts/GnosisSafeProxyFactory.sol\":4839:4860  mload(deploymentData) */\n      mload\n        /* \"contracts/GnosisSafeProxyFactory.sol\":4822:4836  deploymentData */\n      dup3\n        /* \"contracts/GnosisSafeProxyFactory.sol\":4816:4820  0x20 */\n      0x20\n        /* \"contracts/GnosisSafeProxyFactory.sol\":4812:4837  add(0x20, deploymentData) */\n      add\n        /* \"contracts/GnosisSafeProxyFactory.sol\":4807:4810  0x0 */\n      0x00\n        /* \"contracts/GnosisSafeProxyFactory.sol\":4799:4867  create2(0x0, add(0x20, deploymentData), mload(deploymentData), salt) */\n      create2\n        /* \"contracts/GnosisSafeProxyFactory.sol\":4790:4867  proxy := create2(0x0, add(0x20, deploymentData), mload(deploymentData), salt) */\n      swap3\n      pop\n      sub(shl(0xa0, 0x01), 0x01)\n        /* \"contracts/GnosisSafeProxyFactory.sol\":4894:4922  address(proxy) != address(0) */\n      dup4\n      and\n        /* \"contracts/GnosisSafeProxyFactory.sol\":4886:4946  require(address(proxy) != address(0), \"Create2 call failed\") */\n      tag_80\n      jumpi\n      mload(0x40)\n      shl(0xe5, 0x461bcd)\n      dup2\n      mstore\n      0x04\n      add\n      tag_48\n      swap1\n      tag_82\n      jump\t// in\n    tag_80:\n        /* \"contracts/GnosisSafeProxyFactory.sol\":4184:4953  function deployProxyWithNonce(... */\n      pop\n      pop\n      swap4\n      swap3\n      pop\n      pop\n      pop\n      jump\t// out\n    tag_52:\n      dataSize(sub_0)\n      dup1\n      dataOffset(sub_0)\n      dup4\n      codecopy\n      add\n      swap1\n      jump\t// out\n    tag_63:\n      dataSize(sub_1)\n      dup1\n      dataOffset(sub_1)\n      dup4\n      codecopy\n      add\n      swap1\n      jump\t// out\n        /* \"#utility.yul\":14:726   */\n    tag_84:\n      0x00\n        /* \"#utility.yul\":111:114   */\n      dup3\n        /* \"#utility.yul\":104:108   */\n      0x1f\n        /* \"#utility.yul\":96:102   */\n      dup4\n        /* \"#utility.yul\":92:109   */\n      add\n        /* \"#utility.yul\":88:115   */\n      slt\n        /* \"#utility.yul\":78:80   */\n      tag_86\n      jumpi\n        /* \"#utility.yul\":133:138   */\n      dup1\n        /* \"#utility.yul\":126:131   */\n      dup2\n        /* \"#utility.yul\":119:139   */\n      revert\n        /* \"#utility.yul\":78:80   */\n    tag_86:\n        /* \"#utility.yul\":173:179   */\n      dup2\n        /* \"#utility.yul\":160:180   */\n      calldataload\n        /* \"#utility.yul\":199:217   */\n      0xffffffffffffffff\n        /* \"#utility.yul\":236:238   */\n      dup1\n        /* \"#utility.yul\":232:234   */\n      dup3\n        /* \"#utility.yul\":229:239   */\n      gt\n        /* \"#utility.yul\":226:228   */\n      iszero\n      tag_88\n      jumpi\n        /* \"#utility.yul\":242:260   */\n      tag_88\n      tag_89\n      jump\t// in\n    tag_88:\n        /* \"#utility.yul\":291:293   */\n      0x40\n        /* \"#utility.yul\":285:294   */\n      mload\n        /* \"#utility.yul\":360:362   */\n      0x1f\n        /* \"#utility.yul\":341:354   */\n      dup4\n      add\n      not(0x1f)\n        /* \"#utility.yul\":337:364   */\n      and\n        /* \"#utility.yul\":325:365   */\n      dup2\n      add\n        /* \"#utility.yul\":367:371   */\n      0x20\n        /* \"#utility.yul\":321:372   */\n      add\n        /* \"#utility.yul\":387:405   */\n      dup3\n      dup2\n      gt\n        /* \"#utility.yul\":407:429   */\n      dup3\n      dup3\n      lt\n        /* \"#utility.yul\":384:430   */\n      or\n        /* \"#utility.yul\":381:383   */\n      iszero\n      tag_91\n      jumpi\n        /* \"#utility.yul\":433:451   */\n      tag_91\n      tag_89\n      jump\t// in\n    tag_91:\n        /* \"#utility.yul\":469:471   */\n      0x40\n        /* \"#utility.yul\":462:484   */\n      mstore\n        /* \"#utility.yul\":493:511   */\n      dup3\n      dup2\n      mstore\n        /* \"#utility.yul\":530:545   */\n      dup5\n      dup4\n      add\n        /* \"#utility.yul\":547:551   */\n      0x20\n        /* \"#utility.yul\":526:552   */\n      add\n        /* \"#utility.yul\":523:558   */\n      dup7\n      lt\n        /* \"#utility.yul\":520:522   */\n      iszero\n      tag_92\n      jumpi\n        /* \"#utility.yul\":575:580   */\n      dup4\n        /* \"#utility.yul\":568:573   */\n      dup5\n        /* \"#utility.yul\":561:581   */\n      revert\n        /* \"#utility.yul\":520:522   */\n    tag_92:\n        /* \"#utility.yul\":643:645   */\n      dup3\n        /* \"#utility.yul\":636:640   */\n      0x20\n        /* \"#utility.yul\":628:634   */\n      dup7\n        /* \"#utility.yul\":624:641   */\n      add\n        /* \"#utility.yul\":617:621   */\n      0x20\n        /* \"#utility.yul\":609:615   */\n      dup4\n        /* \"#utility.yul\":605:622   */\n      add\n        /* \"#utility.yul\":592:646   */\n      calldatacopy\n        /* \"#utility.yul\":666:681   */\n      swap2\n      dup3\n      add\n        /* \"#utility.yul\":683:687   */\n      0x20\n        /* \"#utility.yul\":662:688   */\n      add\n        /* \"#utility.yul\":655:696   */\n      swap3\n      swap1\n      swap3\n      mstore\n        /* \"#utility.yul\":670:676   */\n      swap4\n        /* \"#utility.yul\":68:726   */\n      swap3\n      pop\n      pop\n      pop\n      jump\t// out\n        /* \"#utility.yul\":731:1577   */\n    tag_17:\n      0x00\n      dup1\n      0x00\n      dup1\n        /* \"#utility.yul\":896:898   */\n      0x60\n        /* \"#utility.yul\":884:893   */\n      dup6\n        /* \"#utility.yul\":875:882   */\n      dup8\n        /* \"#utility.yul\":871:894   */\n      sub\n        /* \"#utility.yul\":867:899   */\n      slt\n        /* \"#utility.yul\":864:866   */\n      iszero\n      tag_94\n      jumpi\n        /* \"#utility.yul\":917:923   */\n      dup4\n        /* \"#utility.yul\":909:915   */\n      dup5\n        /* \"#utility.yul\":902:924   */\n      revert\n        /* \"#utility.yul\":864:866   */\n    tag_94:\n        /* \"#utility.yul\":961:970   */\n      dup5\n        /* \"#utility.yul\":948:971   */\n      calldataload\n        /* \"#utility.yul\":980:1013   */\n      tag_95\n        /* \"#utility.yul\":1007:1012   */\n      dup2\n        /* \"#utility.yul\":980:1013   */\n      tag_96\n      jump\t// in\n    tag_95:\n        /* \"#utility.yul\":1032:1037   */\n      swap4\n      pop\n        /* \"#utility.yul\":1088:1090   */\n      0x20\n        /* \"#utility.yul\":1073:1091   */\n      dup6\n      add\n        /* \"#utility.yul\":1060:1092   */\n      calldataload\n        /* \"#utility.yul\":1111:1129   */\n      0xffffffffffffffff\n        /* \"#utility.yul\":1141:1155   */\n      dup1\n      dup3\n      gt\n        /* \"#utility.yul\":1138:1140   */\n      iszero\n      tag_97\n      jumpi\n        /* \"#utility.yul\":1173:1179   */\n      dup5\n        /* \"#utility.yul\":1165:1171   */\n      dup6\n        /* \"#utility.yul\":1158:1180   */\n      revert\n        /* \"#utility.yul\":1138:1140   */\n    tag_97:\n        /* \"#utility.yul\":1216:1222   */\n      dup2\n        /* \"#utility.yul\":1205:1214   */\n      dup8\n        /* \"#utility.yul\":1201:1223   */\n      add\n        /* \"#utility.yul\":1191:1223   */\n      swap2\n      pop\n        /* \"#utility.yul\":1261:1268   */\n      dup8\n        /* \"#utility.yul\":1254:1258   */\n      0x1f\n        /* \"#utility.yul\":1250:1252   */\n      dup4\n        /* \"#utility.yul\":1246:1259   */\n      add\n        /* \"#utility.yul\":1242:1269   */\n      slt\n        /* \"#utility.yul\":1232:1234   */\n      tag_98\n      jumpi\n        /* \"#utility.yul\":1288:1294   */\n      dup5\n        /* \"#utility.yul\":1280:1286   */\n      dup6\n        /* \"#utility.yul\":1273:1295   */\n      revert\n        /* \"#utility.yul\":1232:1234   */\n    tag_98:\n        /* \"#utility.yul\":1333:1335   */\n      dup2\n        /* \"#utility.yul\":1320:1336   */\n      calldataload\n        /* \"#utility.yul\":1359:1361   */\n      dup2\n        /* \"#utility.yul\":1351:1357   */\n      dup2\n        /* \"#utility.yul\":1348:1362   */\n      gt\n        /* \"#utility.yul\":1345:1347   */\n      iszero\n      tag_99\n      jumpi\n        /* \"#utility.yul\":1380:1386   */\n      dup6\n        /* \"#utility.yul\":1372:1378   */\n      dup7\n        /* \"#utility.yul\":1365:1387   */\n      revert\n        /* \"#utility.yul\":1345:1347   */\n    tag_99:\n        /* \"#utility.yul\":1430:1437   */\n      dup9\n        /* \"#utility.yul\":1425:1427   */\n      0x20\n        /* \"#utility.yul\":1416:1422   */\n      dup3\n        /* \"#utility.yul\":1412:1414   */\n      dup6\n        /* \"#utility.yul\":1408:1423   */\n      add\n        /* \"#utility.yul\":1404:1428   */\n      add\n        /* \"#utility.yul\":1401:1438   */\n      gt\n        /* \"#utility.yul\":1398:1400   */\n      iszero\n      tag_100\n      jumpi\n        /* \"#utility.yul\":1456:1462   */\n      dup6\n        /* \"#utility.yul\":1448:1454   */\n      dup7\n        /* \"#utility.yul\":1441:1463   */\n      revert\n        /* \"#utility.yul\":1398:1400   */\n    tag_100:\n        /* \"#utility.yul\":854:1577   */\n      swap6\n      swap9\n        /* \"#utility.yul\":1492:1494   */\n      0x20\n        /* \"#utility.yul\":1484:1495   */\n      swap3\n      swap1\n      swap3\n      add\n      swap8\n      pop\n        /* \"#utility.yul\":1514:1520   */\n      swap5\n      swap6\n        /* \"#utility.yul\":1567:1569   */\n      0x40\n        /* \"#utility.yul\":1552:1570   */\n      add\n        /* \"#utility.yul\":1539:1571   */\n      calldataload\n      swap5\n      pop\n        /* \"#utility.yul\":854:1577   */\n      swap3\n      pop\n      pop\n      pop\n      jump\t// out\n        /* \"#utility.yul\":1582:2061   */\n    tag_26:\n      0x00\n      dup1\n        /* \"#utility.yul\":1720:1722   */\n      0x40\n        /* \"#utility.yul\":1708:1717   */\n      dup4\n        /* \"#utility.yul\":1699:1706   */\n      dup6\n        /* \"#utility.yul\":1695:1718   */\n      sub\n        /* \"#utility.yul\":1691:1723   */\n      slt\n        /* \"#utility.yul\":1688:1690   */\n      iszero\n      tag_102\n      jumpi\n        /* \"#utility.yul\":1741:1747   */\n      dup2\n        /* \"#utility.yul\":1733:1739   */\n      dup3\n        /* \"#utility.yul\":1726:1748   */\n      revert\n        /* \"#utility.yul\":1688:1690   */\n    tag_102:\n        /* \"#utility.yul\":1785:1794   */\n      dup3\n        /* \"#utility.yul\":1772:1795   */\n      calldataload\n        /* \"#utility.yul\":1804:1837   */\n      tag_103\n        /* \"#utility.yul\":1831:1836   */\n      dup2\n        /* \"#utility.yul\":1804:1837   */\n      tag_96\n      jump\t// in\n    tag_103:\n        /* \"#utility.yul\":1856:1861   */\n      swap2\n      pop\n        /* \"#utility.yul\":1912:1914   */\n      0x20\n        /* \"#utility.yul\":1897:1915   */\n      dup4\n      add\n        /* \"#utility.yul\":1884:1916   */\n      calldataload\n        /* \"#utility.yul\":1939:1957   */\n      0xffffffffffffffff\n        /* \"#utility.yul\":1928:1958   */\n      dup2\n      gt\n        /* \"#utility.yul\":1925:1927   */\n      iszero\n      tag_104\n      jumpi\n        /* \"#utility.yul\":1976:1982   */\n      dup2\n        /* \"#utility.yul\":1968:1974   */\n      dup3\n        /* \"#utility.yul\":1961:1983   */\n      revert\n        /* \"#utility.yul\":1925:1927   */\n    tag_104:\n        /* \"#utility.yul\":2004:2055   */\n      tag_105\n        /* \"#utility.yul\":2047:2054   */\n      dup6\n        /* \"#utility.yul\":2038:2044   */\n      dup3\n        /* \"#utility.yul\":2027:2036   */\n      dup7\n        /* \"#utility.yul\":2023:2045   */\n      add\n        /* \"#utility.yul\":2004:2055   */\n      tag_84\n      jump\t// in\n    tag_105:\n        /* \"#utility.yul\":1994:2055   */\n      swap2\n      pop\n      pop\n        /* \"#utility.yul\":1678:2061   */\n      swap3\n      pop\n      swap3\n      swap1\n      pop\n      jump\t// out\n        /* \"#utility.yul\":2066:2613   */\n    tag_11:\n      0x00\n      dup1\n      0x00\n        /* \"#utility.yul\":2221:2223   */\n      0x60\n        /* \"#utility.yul\":2209:2218   */\n      dup5\n        /* \"#utility.yul\":2200:2207   */\n      dup7\n        /* \"#utility.yul\":2196:2219   */\n      sub\n        /* \"#utility.yul\":2192:2224   */\n      slt\n        /* \"#utility.yul\":2189:2191   */\n      iszero\n      tag_107\n      jumpi\n        /* \"#utility.yul\":2242:2248   */\n      dup3\n        /* \"#utility.yul\":2234:2240   */\n      dup4\n        /* \"#utility.yul\":2227:2249   */\n      revert\n        /* \"#utility.yul\":2189:2191   */\n    tag_107:\n        /* \"#utility.yul\":2286:2295   */\n      dup4\n        /* \"#utility.yul\":2273:2296   */\n      calldataload\n        /* \"#utility.yul\":2305:2338   */\n      tag_108\n        /* \"#utility.yul\":2332:2337   */\n      dup2\n        /* \"#utility.yul\":2305:2338   */\n      tag_96\n      jump\t// in\n    tag_108:\n        /* \"#utility.yul\":2357:2362   */\n      swap3\n      pop\n        /* \"#utility.yul\":2413:2415   */\n      0x20\n        /* \"#utility.yul\":2398:2416   */\n      dup5\n      add\n        /* \"#utility.yul\":2385:2417   */\n      calldataload\n        /* \"#utility.yul\":2440:2458   */\n      0xffffffffffffffff\n        /* \"#utility.yul\":2429:2459   */\n      dup2\n      gt\n        /* \"#utility.yul\":2426:2428   */\n      iszero\n      tag_109\n      jumpi\n        /* \"#utility.yul\":2477:2483   */\n      dup3\n        /* \"#utility.yul\":2469:2475   */\n      dup4\n        /* \"#utility.yul\":2462:2484   */\n      revert\n        /* \"#utility.yul\":2426:2428   */\n    tag_109:\n        /* \"#utility.yul\":2505:2556   */\n      tag_110\n        /* \"#utility.yul\":2548:2555   */\n      dup7\n        /* \"#utility.yul\":2539:2545   */\n      dup3\n        /* \"#utility.yul\":2528:2537   */\n      dup8\n        /* \"#utility.yul\":2524:2546   */\n      add\n        /* \"#utility.yul\":2505:2556   */\n      tag_84\n      jump\t// in\n    tag_110:\n        /* \"#utility.yul\":2495:2556   */\n      swap3\n      pop\n      pop\n        /* \"#utility.yul\":2603:2605   */\n      0x40\n        /* \"#utility.yul\":2592:2601   */\n      dup5\n        /* \"#utility.yul\":2588:2606   */\n      add\n        /* \"#utility.yul\":2575:2607   */\n      calldataload\n        /* \"#utility.yul\":2565:2607   */\n      swap1\n      pop\n        /* \"#utility.yul\":2179:2613   */\n      swap3\n      pop\n      swap3\n      pop\n      swap3\n      jump\t// out\n        /* \"#utility.yul\":2618:3338   */\n    tag_34:\n      0x00\n      dup1\n      0x00\n      dup1\n        /* \"#utility.yul\":2819:2822   */\n      0x80\n        /* \"#utility.yul\":2807:2816   */\n      dup6\n        /* \"#utility.yul\":2798:2805   */\n      dup8\n        /* \"#utility.yul\":2794:2817   */\n      sub\n        /* \"#utility.yul\":2790:2823   */\n      slt\n        /* \"#utility.yul\":2787:2789   */\n      iszero\n      tag_112\n      jumpi\n        /* \"#utility.yul\":2841:2847   */\n      dup4\n        /* \"#utility.yul\":2833:2839   */\n      dup5\n        /* \"#utility.yul\":2826:2848   */\n      revert\n        /* \"#utility.yul\":2787:2789   */\n    tag_112:\n        /* \"#utility.yul\":2885:2894   */\n      dup5\n        /* \"#utility.yul\":2872:2895   */\n      calldataload\n        /* \"#utility.yul\":2904:2937   */\n      tag_113\n        /* \"#utility.yul\":2931:2936   */\n      dup2\n        /* \"#utility.yul\":2904:2937   */\n      tag_96\n      jump\t// in\n    tag_113:\n        /* \"#utility.yul\":2956:2961   */\n      swap4\n      pop\n        /* \"#utility.yul\":3012:3014   */\n      0x20\n        /* \"#utility.yul\":2997:3015   */\n      dup6\n      add\n        /* \"#utility.yul\":2984:3016   */\n      calldataload\n        /* \"#utility.yul\":3039:3057   */\n      0xffffffffffffffff\n        /* \"#utility.yul\":3028:3058   */\n      dup2\n      gt\n        /* \"#utility.yul\":3025:3027   */\n      iszero\n      tag_114\n      jumpi\n        /* \"#utility.yul\":3076:3082   */\n      dup4\n        /* \"#utility.yul\":3068:3074   */\n      dup5\n        /* \"#utility.yul\":3061:3083   */\n      revert\n        /* \"#utility.yul\":3025:3027   */\n    tag_114:\n        /* \"#utility.yul\":3104:3155   */\n      tag_115\n        /* \"#utility.yul\":3147:3154   */\n      dup8\n        /* \"#utility.yul\":3138:3144   */\n      dup3\n        /* \"#utility.yul\":3127:3136   */\n      dup9\n        /* \"#utility.yul\":3123:3145   */\n      add\n        /* \"#utility.yul\":3104:3155   */\n      tag_84\n      jump\t// in\n    tag_115:\n        /* \"#utility.yul\":3094:3155   */\n      swap4\n      pop\n      pop\n        /* \"#utility.yul\":3202:3204   */\n      0x40\n        /* \"#utility.yul\":3191:3200   */\n      dup6\n        /* \"#utility.yul\":3187:3205   */\n      add\n        /* \"#utility.yul\":3174:3206   */\n      calldataload\n        /* \"#utility.yul\":3164:3206   */\n      swap2\n      pop\n        /* \"#utility.yul\":3258:3260   */\n      0x60\n        /* \"#utility.yul\":3247:3256   */\n      dup6\n        /* \"#utility.yul\":3243:3261   */\n      add\n        /* \"#utility.yul\":3230:3262   */\n      calldataload\n        /* \"#utility.yul\":3271:3306   */\n      tag_116\n        /* \"#utility.yul\":3298:3305   */\n      dup2\n        /* \"#utility.yul\":3271:3306   */\n      tag_96\n      jump\t// in\n    tag_116:\n        /* \"#utility.yul\":2777:3338   */\n      swap4\n      swap7\n      swap3\n      swap6\n      pop\n      swap1\n      swap4\n      pop\n      pop\n      jump\t// out\n        /* \"#utility.yul\":3343:3602   */\n    tag_117:\n      0x00\n        /* \"#utility.yul\":3424:3429   */\n      dup2\n        /* \"#utility.yul\":3418:3430   */\n      mload\n        /* \"#utility.yul\":3451:3457   */\n      dup1\n        /* \"#utility.yul\":3446:3449   */\n      dup5\n        /* \"#utility.yul\":3439:3458   */\n      mstore\n        /* \"#utility.yul\":3467:3530   */\n      tag_119\n        /* \"#utility.yul\":3523:3529   */\n      dup2\n        /* \"#utility.yul\":3516:3520   */\n      0x20\n        /* \"#utility.yul\":3511:3514   */\n      dup7\n        /* \"#utility.yul\":3507:3521   */\n      add\n        /* \"#utility.yul\":3500:3504   */\n      0x20\n        /* \"#utility.yul\":3493:3498   */\n      dup7\n        /* \"#utility.yul\":3489:3505   */\n      add\n        /* \"#utility.yul\":3467:3530   */\n      tag_120\n      jump\t// in\n    tag_119:\n        /* \"#utility.yul\":3584:3586   */\n      0x1f\n        /* \"#utility.yul\":3563:3578   */\n      add\n      not(0x1f)\n        /* \"#utility.yul\":3559:3588   */\n      and\n        /* \"#utility.yul\":3550:3589   */\n      swap3\n      swap1\n      swap3\n      add\n        /* \"#utility.yul\":3591:3595   */\n      0x20\n        /* \"#utility.yul\":3546:3596   */\n      add\n      swap3\n        /* \"#utility.yul\":3394:3602   */\n      swap2\n      pop\n      pop\n      jump\t// out\n        /* \"#utility.yul\":3607:3854   */\n    tag_76:\n        /* \"#utility.yul\":3764:3783   */\n      swap2\n      dup3\n      mstore\n        /* \"#utility.yul\":3808:3810   */\n      0x20\n        /* \"#utility.yul\":3799:3811   */\n      dup3\n      add\n        /* \"#utility.yul\":3792:3820   */\n      mstore\n        /* \"#utility.yul\":3845:3847   */\n      0x40\n        /* \"#utility.yul\":3836:3848   */\n      add\n      swap1\n        /* \"#utility.yul\":3754:3854   */\n      jump\t// out\n        /* \"#utility.yul\":3859:4229   */\n    tag_79:\n      0x00\n        /* \"#utility.yul\":4054:4060   */\n      dup4\n        /* \"#utility.yul\":4048:4061   */\n      mload\n        /* \"#utility.yul\":4070:4123   */\n      tag_123\n        /* \"#utility.yul\":4116:4122   */\n      dup2\n        /* \"#utility.yul\":4111:4114   */\n      dup5\n        /* \"#utility.yul\":4104:4108   */\n      0x20\n        /* \"#utility.yul\":4096:4102   */\n      dup9\n        /* \"#utility.yul\":4092:4109   */\n      add\n        /* \"#utility.yul\":4070:4123   */\n      tag_120\n      jump\t// in\n    tag_123:\n        /* \"#utility.yul\":4145:4161   */\n      swap2\n      swap1\n      swap2\n      add\n        /* \"#utility.yul\":4170:4191   */\n      swap2\n      dup3\n      mstore\n      pop\n        /* \"#utility.yul\":4218:4222   */\n      0x20\n        /* \"#utility.yul\":4207:4223   */\n      add\n      swap2\n        /* \"#utility.yul\":4024:4229   */\n      swap1\n      pop\n      jump\t// out\n        /* \"#utility.yul\":4234:4493   */\n    tag_47:\n        /* \"#utility.yul\":4413:4415   */\n      0x60\n        /* \"#utility.yul\":4409:4424   */\n      swap2\n      swap1\n      swap2\n      shl\n      not(0xffffffffffffffffffffffff)\n        /* \"#utility.yul\":4405:4458   */\n      and\n        /* \"#utility.yul\":4393:4459   */\n      dup2\n      mstore\n        /* \"#utility.yul\":4484:4486   */\n      0x14\n        /* \"#utility.yul\":4475:4487   */\n      add\n      swap1\n        /* \"#utility.yul\":4383:4493   */\n      jump\t// out\n        /* \"#utility.yul\":4498:4821   */\n    tag_66:\n        /* \"#utility.yul\":4684:4703   */\n      swap2\n      dup3\n      mstore\n        /* \"#utility.yul\":4741:4743   */\n      0x60\n        /* \"#utility.yul\":4737:4752   */\n      shl\n      not(0xffffffffffffffffffffffff)\n        /* \"#utility.yul\":4733:4786   */\n      and\n        /* \"#utility.yul\":4728:4730   */\n      0x20\n        /* \"#utility.yul\":4719:4731   */\n      dup3\n      add\n        /* \"#utility.yul\":4712:4787   */\n      mstore\n        /* \"#utility.yul\":4812:4814   */\n      0x34\n        /* \"#utility.yul\":4803:4815   */\n      add\n      swap1\n        /* \"#utility.yul\":4674:4821   */\n      jump\t// out\n        /* \"#utility.yul\":4826:5029   */\n    tag_56:\n      sub(shl(0xa0, 0x01), 0x01)\n        /* \"#utility.yul\":4990:5022   */\n      swap2\n      swap1\n      swap2\n      and\n        /* \"#utility.yul\":4972:5023   */\n      dup2\n      mstore\n        /* \"#utility.yul\":4960:4962   */\n      0x20\n        /* \"#utility.yul\":4945:4963   */\n      add\n      swap1\n        /* \"#utility.yul\":4927:5029   */\n      jump\t// out\n        /* \"#utility.yul\":5034:5253   */\n    tag_23:\n      0x00\n        /* \"#utility.yul\":5181:5183   */\n      0x20\n        /* \"#utility.yul\":5170:5179   */\n      dup3\n        /* \"#utility.yul\":5163:5184   */\n      mstore\n        /* \"#utility.yul\":5201:5247   */\n      tag_128\n        /* \"#utility.yul\":5243:5245   */\n      0x20\n        /* \"#utility.yul\":5232:5241   */\n      dup4\n        /* \"#utility.yul\":5228:5246   */\n      add\n        /* \"#utility.yul\":5220:5226   */\n      dup5\n        /* \"#utility.yul\":5201:5247   */\n      tag_117\n      jump\t// in\n    tag_128:\n        /* \"#utility.yul\":5193:5247   */\n      swap4\n        /* \"#utility.yul\":5153:5253   */\n      swap3\n      pop\n      pop\n      pop\n      jump\t// out\n        /* \"#utility.yul\":5496:5830   */\n    tag_43:\n      sub(shl(0xa0, 0x01), 0x01)\n        /* \"#utility.yul\":5756:5771   */\n      swap3\n      dup4\n      and\n        /* \"#utility.yul\":5738:5772   */\n      dup2\n      mstore\n        /* \"#utility.yul\":5808:5823   */\n      swap2\n      and\n        /* \"#utility.yul\":5803:5805   */\n      0x20\n        /* \"#utility.yul\":5788:5806   */\n      dup3\n      add\n        /* \"#utility.yul\":5781:5824   */\n      mstore\n        /* \"#utility.yul\":5688:5690   */\n      0x40\n        /* \"#utility.yul\":5673:5691   */\n      add\n      swap1\n        /* \"#utility.yul\":5655:5830   */\n      jump\t// out\n        /* \"#utility.yul\":5835:6355   */\n    tag_70:\n      sub(shl(0xa0, 0x01), 0x01)\n        /* \"#utility.yul\":6134:6149   */\n      dup6\n      dup2\n      and\n        /* \"#utility.yul\":6116:6150   */\n      dup3\n      mstore\n        /* \"#utility.yul\":6186:6201   */\n      dup5\n      and\n        /* \"#utility.yul\":6181:6183   */\n      0x20\n        /* \"#utility.yul\":6166:6184   */\n      dup3\n      add\n        /* \"#utility.yul\":6159:6202   */\n      mstore\n        /* \"#utility.yul\":6238:6241   */\n      0x80\n        /* \"#utility.yul\":6233:6235   */\n      0x40\n        /* \"#utility.yul\":6218:6236   */\n      dup3\n      add\n        /* \"#utility.yul\":6211:6242   */\n      dup2\n      swap1\n      mstore\n        /* \"#utility.yul\":5835:6355   */\n      0x00\n      swap1\n        /* \"#utility.yul\":6259:6306   */\n      tag_132\n      swap1\n        /* \"#utility.yul\":6286:6305   */\n      dup4\n      add\n        /* \"#utility.yul\":6278:6284   */\n      dup6\n        /* \"#utility.yul\":6259:6306   */\n      tag_117\n      jump\t// in\n    tag_132:\n        /* \"#utility.yul\":6251:6306   */\n      swap1\n      pop\n        /* \"#utility.yul\":6342:6348   */\n      dup3\n        /* \"#utility.yul\":6337:6339   */\n      0x60\n        /* \"#utility.yul\":6326:6335   */\n      dup4\n        /* \"#utility.yul\":6322:6340   */\n      add\n        /* \"#utility.yul\":6315:6349   */\n      mstore\n        /* \"#utility.yul\":6068:6355   */\n      swap6\n      swap5\n      pop\n      pop\n      pop\n      pop\n      pop\n      jump\t// out\n        /* \"#utility.yul\":6586:6929   */\n    tag_82:\n        /* \"#utility.yul\":6788:6790   */\n      0x20\n        /* \"#utility.yul\":6770:6791   */\n      dup1\n      dup3\n      mstore\n        /* \"#utility.yul\":6827:6829   */\n      0x13\n        /* \"#utility.yul\":6807:6825   */\n      swap1\n      dup3\n      add\n        /* \"#utility.yul\":6800:6830   */\n      mstore\n      shl(0x6a, 0x10dc99585d194c8818d85b1b0819985a5b1959)\n        /* \"#utility.yul\":6861:6863   */\n      0x40\n        /* \"#utility.yul\":6846:6864   */\n      dup3\n      add\n        /* \"#utility.yul\":6839:6888   */\n      mstore\n        /* \"#utility.yul\":6920:6922   */\n      0x60\n        /* \"#utility.yul\":6905:6923   */\n      add\n      swap1\n        /* \"#utility.yul\":6760:6929   */\n      jump\t// out\n        /* \"#utility.yul\":6934:7192   */\n    tag_120:\n        /* \"#utility.yul\":7006:7007   */\n      0x00\n        /* \"#utility.yul\":7016:7129   */\n    tag_137:\n        /* \"#utility.yul\":7030:7036   */\n      dup4\n        /* \"#utility.yul\":7027:7028   */\n      dup2\n        /* \"#utility.yul\":7024:7037   */\n      lt\n        /* \"#utility.yul\":7016:7129   */\n      iszero\n      tag_139\n      jumpi\n        /* \"#utility.yul\":7106:7117   */\n      dup2\n      dup2\n      add\n        /* \"#utility.yul\":7100:7118   */\n      mload\n        /* \"#utility.yul\":7087:7098   */\n      dup4\n      dup3\n      add\n        /* \"#utility.yul\":7080:7119   */\n      mstore\n        /* \"#utility.yul\":7052:7054   */\n      0x20\n        /* \"#utility.yul\":7045:7055   */\n      add\n        /* \"#utility.yul\":7016:7129   */\n      jump(tag_137)\n    tag_139:\n        /* \"#utility.yul\":7147:7153   */\n      dup4\n        /* \"#utility.yul\":7144:7145   */\n      dup2\n        /* \"#utility.yul\":7141:7154   */\n      gt\n        /* \"#utility.yul\":7138:7140   */\n      iszero\n      tag_140\n      jumpi\n        /* \"#utility.yul\":7182:7183   */\n      0x00\n        /* \"#utility.yul\":7173:7179   */\n      dup5\n        /* \"#utility.yul\":7168:7171   */\n      dup5\n        /* \"#utility.yul\":7164:7180   */\n      add\n        /* \"#utility.yul\":7157:7184   */\n      mstore\n        /* \"#utility.yul\":7138:7140   */\n    tag_140:\n      pop\n        /* \"#utility.yul\":6987:7192   */\n      pop\n      pop\n      pop\n      jump\t// out\n        /* \"#utility.yul\":7197:7324   */\n    tag_89:\n        /* \"#utility.yul\":7258:7268   */\n      0x4e487b71\n        /* \"#utility.yul\":7253:7256   */\n      0xe0\n        /* \"#utility.yul\":7249:7269   */\n      shl\n        /* \"#utility.yul\":7246:7247   */\n      0x00\n        /* \"#utility.yul\":7239:7270   */\n      mstore\n        /* \"#utility.yul\":7289:7293   */\n      0x41\n        /* \"#utility.yul\":7286:7287   */\n      0x04\n        /* \"#utility.yul\":7279:7294   */\n      mstore\n        /* \"#utility.yul\":7313:7317   */\n      0x24\n        /* \"#utility.yul\":7310:7311   */\n      0x00\n        /* \"#utility.yul\":7303:7318   */\n      revert\n        /* \"#utility.yul\":7329:7462   */\n    tag_96:\n      sub(shl(0xa0, 0x01), 0x01)\n        /* \"#utility.yul\":7406:7437   */\n      dup2\n      and\n        /* \"#utility.yul\":7396:7438   */\n      dup2\n      eq\n        /* \"#utility.yul\":7386:7388   */\n      tag_143\n      jumpi\n        /* \"#utility.yul\":7452:7453   */\n      0x00\n        /* \"#utility.yul\":7449:7450   */\n      dup1\n        /* \"#utility.yul\":7442:7454   */\n      revert\n        /* \"#utility.yul\":7386:7388   */\n    tag_143:\n        /* \"#utility.yul\":7376:7462   */\n      pop\n      jump\t// out\n    stop\n\n    sub_0: assembly {\n            /* \"contracts/GnosisSafeProxyFactory.sol\":512:2009  contract GnosisSafeProxy {... */\n          mstore(0x40, 0x80)\n            /* \"contracts/GnosisSafeProxyFactory.sol\":946:1098  constructor(address _singleton) {... */\n          callvalue\n          dup1\n          iszero\n          tag_1\n          jumpi\n          0x00\n          dup1\n          revert\n        tag_1:\n          pop\n          mload(0x40)\n          sub(codesize, bytecodeSize)\n          dup1\n          bytecodeSize\n          dup4\n          codecopy\n          dup2\n          add\n          0x40\n          dup2\n          swap1\n          mstore\n          tag_2\n          swap2\n          tag_3\n          jump\t// in\n        tag_2:\n          sub(shl(0xa0, 0x01), 0x01)\n            /* \"contracts/GnosisSafeProxyFactory.sol\":996:1020  _singleton != address(0) */\n          dup2\n          and\n            /* \"contracts/GnosisSafeProxyFactory.sol\":988:1059  require(_singleton != address(0), \"Invalid singleton address provided\") */\n          tag_6\n          jumpi\n          mload(0x40)\n          shl(0xe5, 0x461bcd)\n          dup2\n          mstore\n          tag_7\n          swap1\n          0x04\n          add\n          tag_8\n          jump\t// in\n        tag_7:\n          mload(0x40)\n          dup1\n          swap2\n          sub\n          swap1\n          revert\n        tag_6:\n            /* \"contracts/GnosisSafeProxyFactory.sol\":1069:1078  singleton */\n          0x00\n            /* \"contracts/GnosisSafeProxyFactory.sol\":1069:1091  singleton = _singleton */\n          dup1\n          sload\n          not(sub(shl(0xa0, 0x01), 0x01))\n          and\n          sub(shl(0xa0, 0x01), 0x01)\n          swap3\n          swap1\n          swap3\n          and\n          swap2\n          swap1\n          swap2\n          or\n          swap1\n          sstore\n            /* \"contracts/GnosisSafeProxyFactory.sol\":512:2009  contract GnosisSafeProxy {... */\n          jump(tag_10)\n            /* \"#utility.yul\":14:324   */\n        tag_3:\n          0x00\n            /* \"#utility.yul\":137:139   */\n          0x20\n            /* \"#utility.yul\":125:134   */\n          dup3\n            /* \"#utility.yul\":116:123   */\n          dup5\n            /* \"#utility.yul\":112:135   */\n          sub\n            /* \"#utility.yul\":108:140   */\n          slt\n            /* \"#utility.yul\":105:107   */\n          iszero\n          tag_12\n          jumpi\n            /* \"#utility.yul\":158:164   */\n          dup1\n            /* \"#utility.yul\":150:156   */\n          dup2\n            /* \"#utility.yul\":143:165   */\n          revert\n            /* \"#utility.yul\":105:107   */\n        tag_12:\n            /* \"#utility.yul\":189:205   */\n          dup2\n          mload\n          sub(shl(0xa0, 0x01), 0x01)\n            /* \"#utility.yul\":234:265   */\n          dup2\n          and\n            /* \"#utility.yul\":224:266   */\n          dup2\n          eq\n            /* \"#utility.yul\":214:216   */\n          tag_13\n          jumpi\n            /* \"#utility.yul\":285:291   */\n          dup2\n            /* \"#utility.yul\":277:283   */\n          dup3\n            /* \"#utility.yul\":270:292   */\n          revert\n            /* \"#utility.yul\":214:216   */\n        tag_13:\n            /* \"#utility.yul\":313:318   */\n          swap4\n            /* \"#utility.yul\":95:324   */\n          swap3\n          pop\n          pop\n          pop\n          jump\t// out\n            /* \"#utility.yul\":329:727   */\n        tag_8:\n            /* \"#utility.yul\":531:533   */\n          0x20\n            /* \"#utility.yul\":513:534   */\n          dup1\n          dup3\n          mstore\n            /* \"#utility.yul\":570:572   */\n          0x22\n            /* \"#utility.yul\":550:568   */\n          swap1\n          dup3\n          add\n            /* \"#utility.yul\":543:573   */\n          mstore\n            /* \"#utility.yul\":609:643   */\n          0x496e76616c69642073696e676c65746f6e20616464726573732070726f766964\n            /* \"#utility.yul\":604:606   */\n          0x40\n            /* \"#utility.yul\":589:607   */\n          dup3\n          add\n            /* \"#utility.yul\":582:644   */\n          mstore\n          shl(0xf2, 0x1959)\n            /* \"#utility.yul\":675:677   */\n          0x60\n            /* \"#utility.yul\":660:678   */\n          dup3\n          add\n            /* \"#utility.yul\":653:685   */\n          mstore\n            /* \"#utility.yul\":717:720   */\n          0x80\n            /* \"#utility.yul\":702:721   */\n          add\n          swap1\n            /* \"#utility.yul\":503:727   */\n          jump\t// out\n        tag_10:\n            /* \"contracts/GnosisSafeProxyFactory.sol\":512:2009  contract GnosisSafeProxy {... */\n          dataSize(sub_0)\n          dup1\n          dataOffset(sub_0)\n          0x00\n          codecopy\n          0x00\n          return\n        stop\n\n        sub_0: assembly {\n                /* \"contracts/GnosisSafeProxyFactory.sol\":512:2009  contract GnosisSafeProxy {... */\n              mstore(0x40, 0x80)\n                /* \"contracts/GnosisSafeProxyFactory.sol\":1344:1345  0 */\n              0x00\n                /* \"contracts/GnosisSafeProxyFactory.sol\":1338:1346  sload(0) */\n              dup1\n              sload\n              sub(shl(0xa0, 0x01), 0x01)\n                /* \"contracts/GnosisSafeProxyFactory.sol\":1334:1391  and(sload(0), 0xffffffffffffffffffffffffffffffffffffffff) */\n              and\n                /* \"contracts/GnosisSafeProxyFactory.sol\":1509:1524  calldataload(0) */\n              dup2\n              calldataload\n              shl(0xe1, 0x530ca437)\n                /* \"contracts/GnosisSafeProxyFactory.sol\":1506:1593  eq(calldataload(0), 0xa619486e00000000000000000000000000000000000000000000000000000000) */\n              eq\n                /* \"contracts/GnosisSafeProxyFactory.sol\":1503:1505  if */\n              iszero\n              tag_5\n              jumpi\n                /* \"contracts/GnosisSafeProxyFactory.sol\":1622:1632  _singleton */\n              dup1\n                /* \"contracts/GnosisSafeProxyFactory.sol\":1344:1345  0 */\n              dup3\n                /* \"contracts/GnosisSafeProxyFactory.sol\":1612:1633  mstore(0, _singleton) */\n              mstore\n                /* \"contracts/GnosisSafeProxyFactory.sol\":1660:1664  0x20 */\n              0x20\n                /* \"contracts/GnosisSafeProxyFactory.sol\":1344:1345  0 */\n              dup3\n                /* \"contracts/GnosisSafeProxyFactory.sol\":1650:1665  return(0, 0x20) */\n              return\n                /* \"contracts/GnosisSafeProxyFactory.sol\":1503:1505  if */\n            tag_5:\n                /* \"contracts/GnosisSafeProxyFactory.sol\":1711:1725  calldatasize() */\n              calldatasize\n                /* \"contracts/GnosisSafeProxyFactory.sol\":1344:1345  0 */\n              dup3\n              dup4\n                /* \"contracts/GnosisSafeProxyFactory.sol\":1692:1726  calldatacopy(0, 0, calldatasize()) */\n              calldatacopy\n                /* \"contracts/GnosisSafeProxyFactory.sol\":1344:1345  0 */\n              dup2\n              dup3\n                /* \"contracts/GnosisSafeProxyFactory.sol\":1711:1725  calldatasize() */\n              calldatasize\n                /* \"contracts/GnosisSafeProxyFactory.sol\":1344:1345  0 */\n              dup5\n                /* \"contracts/GnosisSafeProxyFactory.sol\":1774:1784  _singleton */\n              dup5\n                /* \"contracts/GnosisSafeProxyFactory.sol\":1767:1772  gas() */\n              gas\n                /* \"contracts/GnosisSafeProxyFactory.sol\":1754:1810  delegatecall(gas(), _singleton, 0, calldatasize(), 0, 0) */\n              delegatecall\n                /* \"contracts/GnosisSafeProxyFactory.sol\":1739:1810  let success := delegatecall(gas(), _singleton, 0, calldatasize(), 0, 0) */\n              swap1\n              pop\n                /* \"contracts/GnosisSafeProxyFactory.sol\":1844:1860  returndatasize() */\n              returndatasize\n                /* \"contracts/GnosisSafeProxyFactory.sol\":1344:1345  0 */\n              dup3\n              dup4\n                /* \"contracts/GnosisSafeProxyFactory.sol\":1823:1861  returndatacopy(0, 0, returndatasize()) */\n              returndatacopy\n                /* \"contracts/GnosisSafeProxyFactory.sol\":1880:1887  success */\n              dup1\n                /* \"contracts/GnosisSafeProxyFactory.sol\":1874:1876  if */\n              tag_6\n              jumpi\n                /* \"contracts/GnosisSafeProxyFactory.sol\":1920:1936  returndatasize() */\n              returndatasize\n                /* \"contracts/GnosisSafeProxyFactory.sol\":1344:1345  0 */\n              dup3\n                /* \"contracts/GnosisSafeProxyFactory.sol\":1910:1937  revert(0, returndatasize()) */\n              revert\n                /* \"contracts/GnosisSafeProxyFactory.sol\":1874:1876  if */\n            tag_6:\n              pop\n                /* \"contracts/GnosisSafeProxyFactory.sol\":1974:1990  returndatasize() */\n              returndatasize\n                /* \"contracts/GnosisSafeProxyFactory.sol\":1344:1345  0 */\n              dup2\n                /* \"contracts/GnosisSafeProxyFactory.sol\":1964:1991  return(0, returndatasize()) */\n              return\n\n            auxdata: 0xa2646970667358221220933537d90275cfbb9962d96957aee653ed372240999151f8c26a9426a06c183c64736f6c63430008000033\n        }\n    }\n\n    sub_1: assembly {\n            /* \"contracts/GnosisSafeProxyFactory.sol\":512:2009  contract GnosisSafeProxy {... */\n          mstore(0x40, 0x80)\n            /* \"contracts/GnosisSafeProxyFactory.sol\":1344:1345  0 */\n          0x00\n            /* \"contracts/GnosisSafeProxyFactory.sol\":1338:1346  sload(0) */\n          dup1\n          sload\n          sub(shl(0xa0, 0x01), 0x01)\n            /* \"contracts/GnosisSafeProxyFactory.sol\":1334:1391  and(sload(0), 0xffffffffffffffffffffffffffffffffffffffff) */\n          and\n            /* \"contracts/GnosisSafeProxyFactory.sol\":1509:1524  calldataload(0) */\n          dup2\n          calldataload\n          shl(0xe1, 0x530ca437)\n            /* \"contracts/GnosisSafeProxyFactory.sol\":1506:1593  eq(calldataload(0), 0xa619486e00000000000000000000000000000000000000000000000000000000) */\n          eq\n            /* \"contracts/GnosisSafeProxyFactory.sol\":1503:1505  if */\n          iszero\n          tag_5\n          jumpi\n            /* \"contracts/GnosisSafeProxyFactory.sol\":1622:1632  _singleton */\n          dup1\n            /* \"contracts/GnosisSafeProxyFactory.sol\":1344:1345  0 */\n          dup3\n            /* \"contracts/GnosisSafeProxyFactory.sol\":1612:1633  mstore(0, _singleton) */\n          mstore\n            /* \"contracts/GnosisSafeProxyFactory.sol\":1660:1664  0x20 */\n          0x20\n            /* \"contracts/GnosisSafeProxyFactory.sol\":1344:1345  0 */\n          dup3\n            /* \"contracts/GnosisSafeProxyFactory.sol\":1650:1665  return(0, 0x20) */\n          return\n            /* \"contracts/GnosisSafeProxyFactory.sol\":1503:1505  if */\n        tag_5:\n            /* \"contracts/GnosisSafeProxyFactory.sol\":1711:1725  calldatasize() */\n          calldatasize\n            /* \"contracts/GnosisSafeProxyFactory.sol\":1344:1345  0 */\n          dup3\n          dup4\n            /* \"contracts/GnosisSafeProxyFactory.sol\":1692:1726  calldatacopy(0, 0, calldatasize()) */\n          calldatacopy\n            /* \"contracts/GnosisSafeProxyFactory.sol\":1344:1345  0 */\n          dup2\n          dup3\n            /* \"contracts/GnosisSafeProxyFactory.sol\":1711:1725  calldatasize() */\n          calldatasize\n            /* \"contracts/GnosisSafeProxyFactory.sol\":1344:1345  0 */\n          dup5\n            /* \"contracts/GnosisSafeProxyFactory.sol\":1774:1784  _singleton */\n          dup5\n            /* \"contracts/GnosisSafeProxyFactory.sol\":1767:1772  gas() */\n          gas\n            /* \"contracts/GnosisSafeProxyFactory.sol\":1754:1810  delegatecall(gas(), _singleton, 0, calldatasize(), 0, 0) */\n          delegatecall\n            /* \"contracts/GnosisSafeProxyFactory.sol\":1739:1810  let success := delegatecall(gas(), _singleton, 0, calldatasize(), 0, 0) */\n          swap1\n          pop\n            /* \"contracts/GnosisSafeProxyFactory.sol\":1844:1860  returndatasize() */\n          returndatasize\n            /* \"contracts/GnosisSafeProxyFactory.sol\":1344:1345  0 */\n          dup3\n          dup4\n            /* \"contracts/GnosisSafeProxyFactory.sol\":1823:1861  returndatacopy(0, 0, returndatasize()) */\n          returndatacopy\n            /* \"contracts/GnosisSafeProxyFactory.sol\":1880:1887  success */\n          dup1\n            /* \"contracts/GnosisSafeProxyFactory.sol\":1874:1876  if */\n          tag_6\n          jumpi\n            /* \"contracts/GnosisSafeProxyFactory.sol\":1920:1936  returndatasize() */\n          returndatasize\n            /* \"contracts/GnosisSafeProxyFactory.sol\":1344:1345  0 */\n          dup3\n            /* \"contracts/GnosisSafeProxyFactory.sol\":1910:1937  revert(0, returndatasize()) */\n          revert\n            /* \"contracts/GnosisSafeProxyFactory.sol\":1874:1876  if */\n        tag_6:\n          pop\n            /* \"contracts/GnosisSafeProxyFactory.sol\":1974:1990  returndatasize() */\n          returndatasize\n            /* \"contracts/GnosisSafeProxyFactory.sol\":1344:1345  0 */\n          dup2\n            /* \"contracts/GnosisSafeProxyFactory.sol\":1964:1991  return(0, returndatasize()) */\n          return\n\n        auxdata: 0xa2646970667358221220933537d90275cfbb9962d96957aee653ed372240999151f8c26a9426a06c183c64736f6c63430008000033\n    }\n\n    auxdata: 0xa2646970667358221220df483018393a41e868860d1d9d2bec4ace87e65e6443c17c33dee393bcf015b164736f6c63430008000033\n}\n",
				"bytecode": {
					"linkReferences": {},
					"object": "608060405234801561001057600080fd5b50610a36806100206000396000f3fe608060405234801561001057600080fd5b50600436106100625760003560e01c80631688f0b9146100675780632500510e1461009057806353e5d935146100a357806361b69abd146100b8578063addacc0f146100cb578063d18af54d146100d3575b600080fd5b61007a61007536600461059d565b6100e6565b60405161008791906106f7565b60405180910390f35b61007a61009e3660046104c9565b610158565b6100ab6101de565b604051610087919061070b565b61007a6100c636600461054f565b610208565b6100ab6102a2565b61007a6100e13660046105f4565b6102b4565b60006100f384848461036f565b8351909150156101185760008060008551602087016000865af1141561011857600080fd5b7f4f51faf6c4561ff95f067657e43439f0f856d97c04d9ec9070a6199ad418e2358185604051610149929190610725565b60405180910390a19392505050565b600061019c8585858080601f01602080910402602001604051908101604052809392919081815260200183838082843760009201919091525087925061036f915050565b9050806040516020016101af91906106ba565b60408051601f198184030181529082905262461bcd60e51b82526101d59160040161070b565b60405180910390fd5b6060604051806020016101f09061042f565b601f1982820381018352601f90910116604052905090565b6000826040516102179061042f565b61022191906106f7565b604051809103906000f08015801561023d573d6000803e3d6000fd5b508251909150156102635760008060008451602086016000865af1141561026357600080fd5b7f4f51faf6c4561ff95f067657e43439f0f856d97c04d9ec9070a6199ad418e2358184604051610294929190610725565b60405180910390a192915050565b6060604051806020016101f09061043c565b60008083836040516020016102ca9291906106d7565b6040516020818303038152906040528051906020012060001c90506102f08686836100e6565b91506001600160a01b03831615610366576040516303ca56a360e31b81526001600160a01b03841690631e52b518906103339085908a908a908a9060040161073f565b600060405180830381600087803b15801561034d57600080fd5b505af1158015610361573d6000803e3d6000fd5b505050505b50949350505050565b60008083805190602001208360405160200161038c92919061068a565b6040516020818303038152906040528051906020012090506000604051806020016103b69061042f565b601f1982820381018352601f9091011660408190526103e391906001600160a01b03891690602001610698565b6040516020818303038152906040529050818151826020016000f592506001600160a01b0383166104265760405162461bcd60e51b81526004016101d59061077c565b50509392505050565b61017d8061080883390190565b607c8061098583390190565b600082601f830112610458578081fd5b813567ffffffffffffffff80821115610473576104736107d9565b604051601f8301601f191681016020018281118282101715610497576104976107d9565b6040528281528483016020018610156104ae578384fd5b82602086016020830137918201602001929092529392505050565b600080600080606085870312156104de578384fd5b84356104e9816107ef565b9350602085013567ffffffffffffffff80821115610505578485fd5b818701915087601f830112610518578485fd5b813581811115610526578586fd5b886020828501011115610537578586fd5b95986020929092019750949560400135945092505050565b60008060408385031215610561578182fd5b823561056c816107ef565b9150602083013567ffffffffffffffff811115610587578182fd5b61059385828601610448565b9150509250929050565b6000806000606084860312156105b1578283fd5b83356105bc816107ef565b9250602084013567ffffffffffffffff8111156105d7578283fd5b6105e386828701610448565b925050604084013590509250925092565b60008060008060808587031215610609578384fd5b8435610614816107ef565b9350602085013567ffffffffffffffff81111561062f578384fd5b61063b87828801610448565b935050604085013591506060850135610653816107ef565b939692955090935050565b600081518084526106768160208601602086016107a9565b601f01601f19169290920160200192915050565b918252602082015260400190565b600083516106aa8184602088016107a9565b9190910191825250602001919050565b60609190911b6bffffffffffffffffffffffff1916815260140190565b91825260601b6bffffffffffffffffffffffff1916602082015260340190565b6001600160a01b0391909116815260200190565b60006020825261071e602083018461065e565b9392505050565b6001600160a01b0392831681529116602082015260400190565b6001600160a01b0385811682528416602082015260806040820181905260009061076b9083018561065e565b905082606083015295945050505050565b60208082526013908201527210dc99585d194c8818d85b1b0819985a5b1959606a1b604082015260600190565b60005b838110156107c45781810151838201526020016107ac565b838111156107d3576000848401525b50505050565b634e487b7160e01b600052604160045260246000fd5b6001600160a01b038116811461080457600080fd5b5056fe608060405234801561001057600080fd5b5060405161017d38038061017d83398101604081905261002f91610083565b6001600160a01b03811661005e5760405162461bcd60e51b8152600401610055906100b1565b60405180910390fd5b600080546001600160a01b0319166001600160a01b03929092169190911790556100f3565b600060208284031215610094578081fd5b81516001600160a01b03811681146100aa578182fd5b9392505050565b60208082526022908201527f496e76616c69642073696e676c65746f6e20616464726573732070726f766964604082015261195960f21b606082015260800190565b607c806101016000396000f3fe6080604052600080546001600160a01b0316813563530ca43760e11b1415602857808252602082f35b3682833781823684845af490503d82833e806041573d82fd5b503d81f3fea2646970667358221220933537d90275cfbb9962d96957aee653ed372240999151f8c26a9426a06c183c64736f6c634300080000336080604052600080546001600160a01b0316813563530ca43760e11b1415602857808252602082f35b3682833781823684845af490503d82833e806041573d82fd5b503d81f3fea2646970667358221220933537d90275cfbb9962d96957aee653ed372240999151f8c26a9426a06c183c64736f6c63430008000033a2646970667358221220df483018393a41e868860d1d9d2bec4ace87e65e6443c17c33dee393bcf015b164736f6c63430008000033",
					"opcodes": "PUSH1 0x80 PUSH1 0x40 MSTORE CALLVALUE DUP1 ISZERO PUSH2 0x10 JUMPI PUSH1 0x0 DUP1 REVERT JUMPDEST POP PUSH2 0xA36 DUP1 PUSH2 0x20 PUSH1 0x0 CODECOPY PUSH1 0x0 RETURN INVALID PUSH1 0x80 PUSH1 0x40 MSTORE CALLVALUE DUP1 ISZERO PUSH2 0x10 JUMPI PUSH1 0x0 DUP1 REVERT JUMPDEST POP PUSH1 0x4 CALLDATASIZE LT PUSH2 0x62 JUMPI PUSH1 0x0 CALLDATALOAD PUSH1 0xE0 SHR DUP1 PUSH4 0x1688F0B9 EQ PUSH2 0x67 JUMPI DUP1 PUSH4 0x2500510E EQ PUSH2 0x90 JUMPI DUP1 PUSH4 0x53E5D935 EQ PUSH2 0xA3 JUMPI DUP1 PUSH4 0x61B69ABD EQ PUSH2 0xB8 JUMPI DUP1 PUSH4 0xADDACC0F EQ PUSH2 0xCB JUMPI DUP1 PUSH4 0xD18AF54D EQ PUSH2 0xD3 JUMPI JUMPDEST PUSH1 0x0 DUP1 REVERT JUMPDEST PUSH2 0x7A PUSH2 0x75 CALLDATASIZE PUSH1 0x4 PUSH2 0x59D JUMP JUMPDEST PUSH2 0xE6 JUMP JUMPDEST PUSH1 0x40 MLOAD PUSH2 0x87 SWAP2 SWAP1 PUSH2 0x6F7 JUMP JUMPDEST PUSH1 0x40 MLOAD DUP1 SWAP2 SUB SWAP1 RETURN JUMPDEST PUSH2 0x7A PUSH2 0x9E CALLDATASIZE PUSH1 0x4 PUSH2 0x4C9 JUMP JUMPDEST PUSH2 0x158 JUMP JUMPDEST PUSH2 0xAB PUSH2 0x1DE JUMP JUMPDEST PUSH1 0x40 MLOAD PUSH2 0x87 SWAP2 SWAP1 PUSH2 0x70B JUMP JUMPDEST PUSH2 0x7A PUSH2 0xC6 CALLDATASIZE PUSH1 0x4 PUSH2 0x54F JUMP JUMPDEST PUSH2 0x208 JUMP JUMPDEST PUSH2 0xAB PUSH2 0x2A2 JUMP JUMPDEST PUSH2 0x7A PUSH2 0xE1 CALLDATASIZE PUSH1 0x4 PUSH2 0x5F4 JUMP JUMPDEST PUSH2 0x2B4 JUMP JUMPDEST PUSH1 0x0 PUSH2 0xF3 DUP5 DUP5 DUP5 PUSH2 0x36F JUMP JUMPDEST DUP4 MLOAD SWAP1 SWAP2 POP ISZERO PUSH2 0x118 JUMPI PUSH1 0x0 DUP1 PUSH1 0x0 DUP6 MLOAD PUSH1 0x20 DUP8 ADD PUSH1 0x0 DUP7 GAS CALL EQ ISZERO PUSH2 0x118 JUMPI PUSH1 0x0 DUP1 REVERT JUMPDEST PUSH32 0x4F51FAF6C4561FF95F067657E43439F0F856D97C04D9EC9070A6199AD418E235 DUP2 DUP6 PUSH1 0x40 MLOAD PUSH2 0x149 SWAP3 SWAP2 SWAP1 PUSH2 0x725 JUMP JUMPDEST PUSH1 0x40 MLOAD DUP1 SWAP2 SUB SWAP1 LOG1 SWAP4 SWAP3 POP POP POP JUMP JUMPDEST PUSH1 0x0 PUSH2 0x19C DUP6 DUP6 DUP6 DUP1 DUP1 PUSH1 0x1F ADD PUSH1 0x20 DUP1 SWAP2 DIV MUL PUSH1 0x20 ADD PUSH1 0x40 MLOAD SWAP1 DUP2 ADD PUSH1 0x40 MSTORE DUP1 SWAP4 SWAP3 SWAP2 SWAP1 DUP2 DUP2 MSTORE PUSH1 0x20 ADD DUP4 DUP4 DUP1 DUP3 DUP5 CALLDATACOPY PUSH1 0x0 SWAP3 ADD SWAP2 SWAP1 SWAP2 MSTORE POP DUP8 SWAP3 POP PUSH2 0x36F SWAP2 POP POP JUMP JUMPDEST SWAP1 POP DUP1 PUSH1 0x40 MLOAD PUSH1 0x20 ADD PUSH2 0x1AF SWAP2 SWAP1 PUSH2 0x6BA JUMP JUMPDEST PUSH1 0x40 DUP1 MLOAD PUSH1 0x1F NOT DUP2 DUP5 SUB ADD DUP2 MSTORE SWAP1 DUP3 SWAP1 MSTORE PUSH3 0x461BCD PUSH1 0xE5 SHL DUP3 MSTORE PUSH2 0x1D5 SWAP2 PUSH1 0x4 ADD PUSH2 0x70B JUMP JUMPDEST PUSH1 0x40 MLOAD DUP1 SWAP2 SUB SWAP1 REVERT JUMPDEST PUSH1 0x60 PUSH1 0x40 MLOAD DUP1 PUSH1 0x20 ADD PUSH2 0x1F0 SWAP1 PUSH2 0x42F JUMP JUMPDEST PUSH1 0x1F NOT DUP3 DUP3 SUB DUP2 ADD DUP4 MSTORE PUSH1 0x1F SWAP1 SWAP2 ADD AND PUSH1 0x40 MSTORE SWAP1 POP SWAP1 JUMP JUMPDEST PUSH1 0x0 DUP3 PUSH1 0x40 MLOAD PUSH2 0x217 SWAP1 PUSH2 0x42F JUMP JUMPDEST PUSH2 0x221 SWAP2 SWAP1 PUSH2 0x6F7 JUMP JUMPDEST PUSH1 0x40 MLOAD DUP1 SWAP2 SUB SWAP1 PUSH1 0x0 CREATE DUP1 ISZERO DUP1 ISZERO PUSH2 0x23D JUMPI RETURNDATASIZE PUSH1 0x0 DUP1 RETURNDATACOPY RETURNDATASIZE PUSH1 0x0 REVERT JUMPDEST POP DUP3 MLOAD SWAP1 SWAP2 POP ISZERO PUSH2 0x263 JUMPI PUSH1 0x0 DUP1 PUSH1 0x0 DUP5 MLOAD PUSH1 0x20 DUP7 ADD PUSH1 0x0 DUP7 GAS CALL EQ ISZERO PUSH2 0x263 JUMPI PUSH1 0x0 DUP1 REVERT JUMPDEST PUSH32 0x4F51FAF6C4561FF95F067657E43439F0F856D97C04D9EC9070A6199AD418E235 DUP2 DUP5 PUSH1 0x40 MLOAD PUSH2 0x294 SWAP3 SWAP2 SWAP1 PUSH2 0x725 JUMP JUMPDEST PUSH1 0x40 MLOAD DUP1 SWAP2 SUB SWAP1 LOG1 SWAP3 SWAP2 POP POP JUMP JUMPDEST PUSH1 0x60 PUSH1 0x40 MLOAD DUP1 PUSH1 0x20 ADD PUSH2 0x1F0 SWAP1 PUSH2 0x43C JUMP JUMPDEST PUSH1 0x0 DUP1 DUP4 DUP4 PUSH1 0x40 MLOAD PUSH1 0x20 ADD PUSH2 0x2CA SWAP3 SWAP2 SWAP1 PUSH2 0x6D7 JUMP JUMPDEST PUSH1 0x40 MLOAD PUSH1 0x20 DUP2 DUP4 SUB SUB DUP2 MSTORE SWAP1 PUSH1 0x40 MSTORE DUP1 MLOAD SWAP1 PUSH1 0x20 ADD KECCAK256 PUSH1 0x0 SHR SWAP1 POP PUSH2 0x2F0 DUP7 DUP7 DUP4 PUSH2 0xE6 JUMP JUMPDEST SWAP2 POP PUSH1 0x1 PUSH1 0x1 PUSH1 0xA0 SHL SUB DUP4 AND ISZERO PUSH2 0x366 JUMPI PUSH1 0x40 MLOAD PUSH4 0x3CA56A3 PUSH1 0xE3 SHL DUP2 MSTORE PUSH1 0x1 PUSH1 0x1 PUSH1 0xA0 SHL SUB DUP5 AND SWAP1 PUSH4 0x1E52B518 SWAP1 PUSH2 0x333 SWAP1 DUP6 SWAP1 DUP11 SWAP1 DUP11 SWAP1 DUP11 SWAP1 PUSH1 0x4 ADD PUSH2 0x73F JUMP JUMPDEST PUSH1 0x0 PUSH1 0x40 MLOAD DUP1 DUP4 SUB DUP2 PUSH1 0x0 DUP8 DUP1 EXTCODESIZE ISZERO DUP1 ISZERO PUSH2 0x34D JUMPI PUSH1 0x0 DUP1 REVERT JUMPDEST POP GAS CALL ISZERO DUP1 ISZERO PUSH2 0x361 JUMPI RETURNDATASIZE PUSH1 0x0 DUP1 RETURNDATACOPY RETURNDATASIZE PUSH1 0x0 REVERT JUMPDEST POP POP POP POP JUMPDEST POP SWAP5 SWAP4 POP POP POP POP JUMP JUMPDEST PUSH1 0x0 DUP1 DUP4 DUP1 MLOAD SWAP1 PUSH1 0x20 ADD KECCAK256 DUP4 PUSH1 0x40 MLOAD PUSH1 0x20 ADD PUSH2 0x38C SWAP3 SWAP2 SWAP1 PUSH2 0x68A JUMP JUMPDEST PUSH1 0x40 MLOAD PUSH1 0x20 DUP2 DUP4 SUB SUB DUP2 MSTORE SWAP1 PUSH1 0x40 MSTORE DUP1 MLOAD SWAP1 PUSH1 0x20 ADD KECCAK256 SWAP1 POP PUSH1 0x0 PUSH1 0x40 MLOAD DUP1 PUSH1 0x20 ADD PUSH2 0x3B6 SWAP1 PUSH2 0x42F JUMP JUMPDEST PUSH1 0x1F NOT DUP3 DUP3 SUB DUP2 ADD DUP4 MSTORE PUSH1 0x1F SWAP1 SWAP2 ADD AND PUSH1 0x40 DUP2 SWAP1 MSTORE PUSH2 0x3E3 SWAP2 SWAP1 PUSH1 0x1 PUSH1 0x1 PUSH1 0xA0 SHL SUB DUP10 AND SWAP1 PUSH1 0x20 ADD PUSH2 0x698 JUMP JUMPDEST PUSH1 0x40 MLOAD PUSH1 0x20 DUP2 DUP4 SUB SUB DUP2 MSTORE SWAP1 PUSH1 0x40 MSTORE SWAP1 POP DUP2 DUP2 MLOAD DUP3 PUSH1 0x20 ADD PUSH1 0x0 CREATE2 SWAP3 POP PUSH1 0x1 PUSH1 0x1 PUSH1 0xA0 SHL SUB DUP4 AND PUSH2 0x426 JUMPI PUSH1 0x40 MLOAD PUSH3 0x461BCD PUSH1 0xE5 SHL DUP2 MSTORE PUSH1 0x4 ADD PUSH2 0x1D5 SWAP1 PUSH2 0x77C JUMP JUMPDEST POP POP SWAP4 SWAP3 POP POP POP JUMP JUMPDEST PUSH2 0x17D DUP1 PUSH2 0x808 DUP4 CODECOPY ADD SWAP1 JUMP JUMPDEST PUSH1 0x7C DUP1 PUSH2 0x985 DUP4 CODECOPY ADD SWAP1 JUMP JUMPDEST PUSH1 0x0 DUP3 PUSH1 0x1F DUP4 ADD SLT PUSH2 0x458 JUMPI DUP1 DUP2 REVERT JUMPDEST DUP2 CALLDATALOAD PUSH8 0xFFFFFFFFFFFFFFFF DUP1 DUP3 GT ISZERO PUSH2 0x473 JUMPI PUSH2 0x473 PUSH2 0x7D9 JUMP JUMPDEST PUSH1 0x40 MLOAD PUSH1 0x1F DUP4 ADD PUSH1 0x1F NOT AND DUP2 ADD PUSH1 0x20 ADD DUP3 DUP2 GT DUP3 DUP3 LT OR ISZERO PUSH2 0x497 JUMPI PUSH2 0x497 PUSH2 0x7D9 JUMP JUMPDEST PUSH1 0x40 MSTORE DUP3 DUP2 MSTORE DUP5 DUP4 ADD PUSH1 0x20 ADD DUP7 LT ISZERO PUSH2 0x4AE JUMPI DUP4 DUP5 REVERT JUMPDEST DUP3 PUSH1 0x20 DUP7 ADD PUSH1 0x20 DUP4 ADD CALLDATACOPY SWAP2 DUP3 ADD PUSH1 0x20 ADD SWAP3 SWAP1 SWAP3 MSTORE SWAP4 SWAP3 POP POP POP JUMP JUMPDEST PUSH1 0x0 DUP1 PUSH1 0x0 DUP1 PUSH1 0x60 DUP6 DUP8 SUB SLT ISZERO PUSH2 0x4DE JUMPI DUP4 DUP5 REVERT JUMPDEST DUP5 CALLDATALOAD PUSH2 0x4E9 DUP2 PUSH2 0x7EF JUMP JUMPDEST SWAP4 POP PUSH1 0x20 DUP6 ADD CALLDATALOAD PUSH8 0xFFFFFFFFFFFFFFFF DUP1 DUP3 GT ISZERO PUSH2 0x505 JUMPI DUP5 DUP6 REVERT JUMPDEST DUP2 DUP8 ADD SWAP2 POP DUP8 PUSH1 0x1F DUP4 ADD SLT PUSH2 0x518 JUMPI DUP5 DUP6 REVERT JUMPDEST DUP2 CALLDATALOAD DUP2 DUP2 GT ISZERO PUSH2 0x526 JUMPI DUP6 DUP7 REVERT JUMPDEST DUP9 PUSH1 0x20 DUP3 DUP6 ADD ADD GT ISZERO PUSH2 0x537 JUMPI DUP6 DUP7 REVERT JUMPDEST SWAP6 SWAP9 PUSH1 0x20 SWAP3 SWAP1 SWAP3 ADD SWAP8 POP SWAP5 SWAP6 PUSH1 0x40 ADD CALLDATALOAD SWAP5 POP SWAP3 POP POP POP JUMP JUMPDEST PUSH1 0x0 DUP1 PUSH1 0x40 DUP4 DUP6 SUB SLT ISZERO PUSH2 0x561 JUMPI DUP2 DUP3 REVERT JUMPDEST DUP3 CALLDATALOAD PUSH2 0x56C DUP2 PUSH2 0x7EF JUMP JUMPDEST SWAP2 POP PUSH1 0x20 DUP4 ADD CALLDATALOAD PUSH8 0xFFFFFFFFFFFFFFFF DUP2 GT ISZERO PUSH2 0x587 JUMPI DUP2 DUP3 REVERT JUMPDEST PUSH2 0x593 DUP6 DUP3 DUP7 ADD PUSH2 0x448 JUMP JUMPDEST SWAP2 POP POP SWAP3 POP SWAP3 SWAP1 POP JUMP JUMPDEST PUSH1 0x0 DUP1 PUSH1 0x0 PUSH1 0x60 DUP5 DUP7 SUB SLT ISZERO PUSH2 0x5B1 JUMPI DUP3 DUP4 REVERT JUMPDEST DUP4 CALLDATALOAD PUSH2 0x5BC DUP2 PUSH2 0x7EF JUMP JUMPDEST SWAP3 POP PUSH1 0x20 DUP5 ADD CALLDATALOAD PUSH8 0xFFFFFFFFFFFFFFFF DUP2 GT ISZERO PUSH2 0x5D7 JUMPI DUP3 DUP4 REVERT JUMPDEST PUSH2 0x5E3 DUP7 DUP3 DUP8 ADD PUSH2 0x448 JUMP JUMPDEST SWAP3 POP POP PUSH1 0x40 DUP5 ADD CALLDATALOAD SWAP1 POP SWAP3 POP SWAP3 POP SWAP3 JUMP JUMPDEST PUSH1 0x0 DUP1 PUSH1 0x0 DUP1 PUSH1 0x80 DUP6 DUP8 SUB SLT ISZERO PUSH2 0x609 JUMPI DUP4 DUP5 REVERT JUMPDEST DUP5 CALLDATALOAD PUSH2 0x614 DUP2 PUSH2 0x7EF JUMP JUMPDEST SWAP4 POP PUSH1 0x20 DUP6 ADD CALLDATALOAD PUSH8 0xFFFFFFFFFFFFFFFF DUP2 GT ISZERO PUSH2 0x62F JUMPI DUP4 DUP5 REVERT JUMPDEST PUSH2 0x63B DUP8 DUP3 DUP9 ADD PUSH2 0x448 JUMP JUMPDEST SWAP4 POP POP PUSH1 0x40 DUP6 ADD CALLDATALOAD SWAP2 POP PUSH1 0x60 DUP6 ADD CALLDATALOAD PUSH2 0x653 DUP2 PUSH2 0x7EF JUMP JUMPDEST SWAP4 SWAP7 SWAP3 SWAP6 POP SWAP1 SWAP4 POP POP JUMP JUMPDEST PUSH1 0x0 DUP2 MLOAD DUP1 DUP5 MSTORE PUSH2 0x676 DUP2 PUSH1 0x20 DUP7 ADD PUSH1 0x20 DUP7 ADD PUSH2 0x7A9 JUMP JUMPDEST PUSH1 0x1F ADD PUSH1 0x1F NOT AND SWAP3 SWAP1 SWAP3 ADD PUSH1 0x20 ADD SWAP3 SWAP2 POP POP JUMP JUMPDEST SWAP2 DUP3 MSTORE PUSH1 0x20 DUP3 ADD MSTORE PUSH1 0x40 ADD SWAP1 JUMP JUMPDEST PUSH1 0x0 DUP4 MLOAD PUSH2 0x6AA DUP2 DUP5 PUSH1 0x20 DUP9 ADD PUSH2 0x7A9 JUMP JUMPDEST SWAP2 SWAP1 SWAP2 ADD SWAP2 DUP3 MSTORE POP PUSH1 0x20 ADD SWAP2 SWAP1 POP JUMP JUMPDEST PUSH1 0x60 SWAP2 SWAP1 SWAP2 SHL PUSH12 0xFFFFFFFFFFFFFFFFFFFFFFFF NOT AND DUP2 MSTORE PUSH1 0x14 ADD SWAP1 JUMP JUMPDEST SWAP2 DUP3 MSTORE PUSH1 0x60 SHL PUSH12 0xFFFFFFFFFFFFFFFFFFFFFFFF NOT AND PUSH1 0x20 DUP3 ADD MSTORE PUSH1 0x34 ADD SWAP1 JUMP JUMPDEST PUSH1 0x1 PUSH1 0x1 PUSH1 0xA0 SHL SUB SWAP2 SWAP1 SWAP2 AND DUP2 MSTORE PUSH1 0x20 ADD SWAP1 JUMP JUMPDEST PUSH1 0x0 PUSH1 0x20 DUP3 MSTORE PUSH2 0x71E PUSH1 0x20 DUP4 ADD DUP5 PUSH2 0x65E JUMP JUMPDEST SWAP4 SWAP3 POP POP POP JUMP JUMPDEST PUSH1 0x1 PUSH1 0x1 PUSH1 0xA0 SHL SUB SWAP3 DUP4 AND DUP2 MSTORE SWAP2 AND PUSH1 0x20 DUP3 ADD MSTORE PUSH1 0x40 ADD SWAP1 JUMP JUMPDEST PUSH1 0x1 PUSH1 0x1 PUSH1 0xA0 SHL SUB DUP6 DUP2 AND DUP3 MSTORE DUP5 AND PUSH1 0x20 DUP3 ADD MSTORE PUSH1 0x80 PUSH1 0x40 DUP3 ADD DUP2 SWAP1 MSTORE PUSH1 0x0 SWAP1 PUSH2 0x76B SWAP1 DUP4 ADD DUP6 PUSH2 0x65E JUMP JUMPDEST SWAP1 POP DUP3 PUSH1 0x60 DUP4 ADD MSTORE SWAP6 SWAP5 POP POP POP POP POP JUMP JUMPDEST PUSH1 0x20 DUP1 DUP3 MSTORE PUSH1 0x13 SWAP1 DUP3 ADD MSTORE PUSH19 0x10DC99585D194C8818D85B1B0819985A5B1959 PUSH1 0x6A SHL PUSH1 0x40 DUP3 ADD MSTORE PUSH1 0x60 ADD SWAP1 JUMP JUMPDEST PUSH1 0x0 JUMPDEST DUP4 DUP2 LT ISZERO PUSH2 0x7C4 JUMPI DUP2 DUP2 ADD MLOAD DUP4 DUP3 ADD MSTORE PUSH1 0x20 ADD PUSH2 0x7AC JUMP JUMPDEST DUP4 DUP2 GT ISZERO PUSH2 0x7D3 JUMPI PUSH1 0x0 DUP5 DUP5 ADD MSTORE JUMPDEST POP POP POP POP JUMP JUMPDEST PUSH4 0x4E487B71 PUSH1 0xE0 SHL PUSH1 0x0 MSTORE PUSH1 0x41 PUSH1 0x4 MSTORE PUSH1 0x24 PUSH1 0x0 REVERT JUMPDEST PUSH1 0x1 PUSH1 0x1 PUSH1 0xA0 SHL SUB DUP2 AND DUP2 EQ PUSH2 0x804 JUMPI PUSH1 0x0 DUP1 REVERT JUMPDEST POP JUMP INVALID PUSH1 0x80 PUSH1 0x40 MSTORE CALLVALUE DUP1 ISZERO PUSH2 0x10 JUMPI PUSH1 0x0 DUP1 REVERT JUMPDEST POP PUSH1 0x40 MLOAD PUSH2 0x17D CODESIZE SUB DUP1 PUSH2 0x17D DUP4 CODECOPY DUP2 ADD PUSH1 0x40 DUP2 SWAP1 MSTORE PUSH2 0x2F SWAP2 PUSH2 0x83 JUMP JUMPDEST PUSH1 0x1 PUSH1 0x1 PUSH1 0xA0 SHL SUB DUP2 AND PUSH2 0x5E JUMPI PUSH1 0x40 MLOAD PUSH3 0x461BCD PUSH1 0xE5 SHL DUP2 MSTORE PUSH1 0x4 ADD PUSH2 0x55 SWAP1 PUSH2 0xB1 JUMP JUMPDEST PUSH1 0x40 MLOAD DUP1 SWAP2 SUB SWAP1 REVERT JUMPDEST PUSH1 0x0 DUP1 SLOAD PUSH1 0x1 PUSH1 0x1 PUSH1 0xA0 SHL SUB NOT AND PUSH1 0x1 PUSH1 0x1 PUSH1 0xA0 SHL SUB SWAP3 SWAP1 SWAP3 AND SWAP2 SWAP1 SWAP2 OR SWAP1 SSTORE PUSH2 0xF3 JUMP JUMPDEST PUSH1 0x0 PUSH1 0x20 DUP3 DUP5 SUB SLT ISZERO PUSH2 0x94 JUMPI DUP1 DUP2 REVERT JUMPDEST DUP2 MLOAD PUSH1 0x1 PUSH1 0x1 PUSH1 0xA0 SHL SUB DUP2 AND DUP2 EQ PUSH2 0xAA JUMPI DUP2 DUP3 REVERT JUMPDEST SWAP4 SWAP3 POP POP POP JUMP JUMPDEST PUSH1 0x20 DUP1 DUP3 MSTORE PUSH1 0x22 SWAP1 DUP3 ADD MSTORE PUSH32 0x496E76616C69642073696E676C65746F6E20616464726573732070726F766964 PUSH1 0x40 DUP3 ADD MSTORE PUSH2 0x1959 PUSH1 0xF2 SHL PUSH1 0x60 DUP3 ADD MSTORE PUSH1 0x80 ADD SWAP1 JUMP JUMPDEST PUSH1 0x7C DUP1 PUSH2 0x101 PUSH1 0x0 CODECOPY PUSH1 0x0 RETURN INVALID PUSH1 0x80 PUSH1 0x40 MSTORE PUSH1 0x0 DUP1 SLOAD PUSH1 0x1 PUSH1 0x1 PUSH1 0xA0 SHL SUB AND DUP2 CALLDATALOAD PUSH4 0x530CA437 PUSH1 0xE1 SHL EQ ISZERO PUSH1 0x28 JUMPI DUP1 DUP3 MSTORE PUSH1 0x20 DUP3 RETURN JUMPDEST CALLDATASIZE DUP3 DUP4 CALLDATACOPY DUP2 DUP3 CALLDATASIZE DUP5 DUP5 GAS DELEGATECALL SWAP1 POP RETURNDATASIZE DUP3 DUP4 RETURNDATACOPY DUP1 PUSH1 0x41 JUMPI RETURNDATASIZE DUP3 REVERT JUMPDEST POP RETURNDATASIZE DUP2 RETURN INVALID LOG2 PUSH5 0x6970667358 0x22 SLT KECCAK256 SWAP4 CALLDATALOAD CALLDATACOPY 0xD9 MUL PUSH22 0xCFBB9962D96957AEE653ED372240999151F8C26A9426 LOG0 PUSH13 0x183C64736F6C63430008000033 PUSH1 0x80 PUSH1 0x40 MSTORE PUSH1 0x0 DUP1 SLOAD PUSH1 0x1 PUSH1 0x1 PUSH1 0xA0 SHL SUB AND DUP2 CALLDATALOAD PUSH4 0x530CA437 PUSH1 0xE1 SHL EQ ISZERO PUSH1 0x28 JUMPI DUP1 DUP3 MSTORE PUSH1 0x20 DUP3 RETURN JUMPDEST CALLDATASIZE DUP3 DUP4 CALLDATACOPY DUP2 DUP3 CALLDATASIZE DUP5 DUP5 GAS DELEGATECALL SWAP1 POP RETURNDATASIZE DUP3 DUP4 RETURNDATACOPY DUP1 PUSH1 0x41 JUMPI RETURNDATASIZE DUP3 REVERT JUMPDEST POP RETURNDATASIZE DUP2 RETURN INVALID LOG2 PUSH5 0x6970667358 0x22 SLT KECCAK256 SWAP4 CALLDATALOAD CALLDATACOPY 0xD9 MUL PUSH22 0xCFBB9962D96957AEE653ED372240999151F8C26A9426 LOG0 PUSH13 0x183C64736F6C63430008000033 LOG2 PUSH5 0x6970667358 0x22 SLT KECCAK256 0xDF 0x48 ADDRESS XOR CODECOPY GASPRICE COINBASE 0xE8 PUSH9 0x860D1D9D2BEC4ACE87 0xE6 0x5E PUSH5 0x43C17C33DE 0xE3 SWAP4 0xBC CREATE ISZERO 0xB1 PUSH5 0x736F6C6343 STOP ADDMOD STOP STOP CALLER "
				},
				"gasEstimates": {
					"creation": {
						"codeDepositCost": "522800",
						"executionCost": "556",
						"totalCost": "523356"
					},
					"external": {
						"calculateCreateProxyWithNonceAddress(address,bytes,uint256)": "infinite",
						"createProxy(address,bytes)": "infinite",
						"createProxyWithCallback(address,bytes,uint256,address)": "infinite",
						"createProxyWithNonce(address,bytes,uint256)": "infinite",
						"proxyCreationCode()": "infinite",
						"proxyRuntimeCode()": "infinite"
					},
					"internal": {
						"deployProxyWithNonce(address,bytes memory,uint256)": "infinite"
					}
				},
				"methodIdentifiers": {
					"calculateCreateProxyWithNonceAddress(address,bytes,uint256)": "2500510e",
					"createProxy(address,bytes)": "61b69abd",
					"createProxyWithCallback(address,bytes,uint256,address)": "d18af54d",
					"createProxyWithNonce(address,bytes,uint256)": "1688f0b9",
					"proxyCreationCode()": "53e5d935",
					"proxyRuntimeCode()": "addacc0f"
				}
			},
			"storageLayout": {
				"storage": [],
				"types": null
			},
			"userdoc": {
				"kind": "user",
				"methods": {},
				"version": 1
			}
		}
	}
}