{
	"CoreContracts/StakingRewards.sol": {
		"StakingRewards": {
			"abi": [
				{
					"inputs": [
						{
							"internalType": "address",
							"name": "_rewardsToken",
							"type": "address"
						},
						{
							"internalType": "address",
							"name": "_stakingToken",
							"type": "address"
						}
					],
					"stateMutability": "nonpayable",
					"type": "constructor"
				},
				{
					"anonymous": false,
					"inputs": [
						{
							"indexed": true,
							"internalType": "address",
							"name": "previousOwner",
							"type": "address"
						},
						{
							"indexed": true,
							"internalType": "address",
							"name": "newOwner",
							"type": "address"
						}
					],
					"name": "OwnershipTransferred",
					"type": "event"
				},
				{
					"anonymous": false,
					"inputs": [
						{
							"indexed": false,
							"internalType": "address",
							"name": "token",
							"type": "address"
						},
						{
							"indexed": false,
							"internalType": "uint256",
							"name": "amount",
							"type": "uint256"
						}
					],
					"name": "Recovered",
					"type": "event"
				},
				{
					"anonymous": false,
					"inputs": [
						{
							"indexed": false,
							"internalType": "uint256",
							"name": "reward",
							"type": "uint256"
						}
					],
					"name": "RewardAdded",
					"type": "event"
				},
				{
					"anonymous": false,
					"inputs": [
						{
							"indexed": true,
							"internalType": "address",
							"name": "user",
							"type": "address"
						},
						{
							"indexed": false,
							"internalType": "uint256",
							"name": "reward",
							"type": "uint256"
						}
					],
					"name": "RewardPaid",
					"type": "event"
				},
				{
					"anonymous": false,
					"inputs": [
						{
							"indexed": false,
							"internalType": "uint256",
							"name": "newDuration",
							"type": "uint256"
						}
					],
					"name": "RewardsDurationUpdated",
					"type": "event"
				},
				{
					"anonymous": false,
					"inputs": [
						{
							"indexed": true,
							"internalType": "address",
							"name": "user",
							"type": "address"
						},
						{
							"indexed": false,
							"internalType": "uint256",
							"name": "amount",
							"type": "uint256"
						}
					],
					"name": "Staked",
					"type": "event"
				},
				{
					"anonymous": false,
					"inputs": [
						{
							"indexed": true,
							"internalType": "address",
							"name": "user",
							"type": "address"
						},
						{
							"indexed": false,
							"internalType": "uint256",
							"name": "amount",
							"type": "uint256"
						}
					],
					"name": "Withdrawn",
					"type": "event"
				},
				{
					"inputs": [
						{
							"internalType": "address",
							"name": "account",
							"type": "address"
						}
					],
					"name": "balanceOf",
					"outputs": [
						{
							"internalType": "uint256",
							"name": "",
							"type": "uint256"
						}
					],
					"stateMutability": "view",
					"type": "function"
				},
				{
					"inputs": [
						{
							"internalType": "address",
							"name": "account",
							"type": "address"
						}
					],
					"name": "earned",
					"outputs": [
						{
							"internalType": "uint256",
							"name": "",
							"type": "uint256"
						}
					],
					"stateMutability": "view",
					"type": "function"
				},
				{
					"inputs": [],
					"name": "exit",
					"outputs": [],
					"stateMutability": "nonpayable",
					"type": "function"
				},
				{
					"inputs": [],
					"name": "getReward",
					"outputs": [],
					"stateMutability": "nonpayable",
					"type": "function"
				},
				{
					"inputs": [],
					"name": "getRewardForDuration",
					"outputs": [
						{
							"internalType": "uint256",
							"name": "",
							"type": "uint256"
						}
					],
					"stateMutability": "view",
					"type": "function"
				},
				{
					"inputs": [],
					"name": "lastTimeRewardApplicable",
					"outputs": [
						{
							"internalType": "uint256",
							"name": "",
							"type": "uint256"
						}
					],
					"stateMutability": "view",
					"type": "function"
				},
				{
					"inputs": [],
					"name": "lastUpdateTime",
					"outputs": [
						{
							"internalType": "uint256",
							"name": "",
							"type": "uint256"
						}
					],
					"stateMutability": "view",
					"type": "function"
				},
				{
					"inputs": [
						{
							"internalType": "uint256",
							"name": "reward",
							"type": "uint256"
						}
					],
					"name": "notifyRewardAmount",
					"outputs": [],
					"stateMutability": "nonpayable",
					"type": "function"
				},
				{
					"inputs": [],
					"name": "owner",
					"outputs": [
						{
							"internalType": "address",
							"name": "",
							"type": "address"
						}
					],
					"stateMutability": "view",
					"type": "function"
				},
				{
					"inputs": [],
					"name": "periodFinish",
					"outputs": [
						{
							"internalType": "uint256",
							"name": "",
							"type": "uint256"
						}
					],
					"stateMutability": "view",
					"type": "function"
				},
				{
					"inputs": [
						{
							"internalType": "address",
							"name": "tokenAddress",
							"type": "address"
						},
						{
							"internalType": "uint256",
							"name": "tokenAmount",
							"type": "uint256"
						}
					],
					"name": "recoverERC20",
					"outputs": [],
					"stateMutability": "nonpayable",
					"type": "function"
				},
				{
					"inputs": [],
					"name": "renounceOwnership",
					"outputs": [],
					"stateMutability": "nonpayable",
					"type": "function"
				},
				{
					"inputs": [],
					"name": "rewardPerToken",
					"outputs": [
						{
							"internalType": "uint256",
							"name": "",
							"type": "uint256"
						}
					],
					"stateMutability": "view",
					"type": "function"
				},
				{
					"inputs": [],
					"name": "rewardPerTokenStored",
					"outputs": [
						{
							"internalType": "uint256",
							"name": "",
							"type": "uint256"
						}
					],
					"stateMutability": "view",
					"type": "function"
				},
				{
					"inputs": [],
					"name": "rewardRate",
					"outputs": [
						{
							"internalType": "uint256",
							"name": "",
							"type": "uint256"
						}
					],
					"stateMutability": "view",
					"type": "function"
				},
				{
					"inputs": [
						{
							"internalType": "address",
							"name": "",
							"type": "address"
						}
					],
					"name": "rewards",
					"outputs": [
						{
							"internalType": "uint256",
							"name": "",
							"type": "uint256"
						}
					],
					"stateMutability": "view",
					"type": "function"
				},
				{
					"inputs": [],
					"name": "rewardsDuration",
					"outputs": [
						{
							"internalType": "uint256",
							"name": "",
							"type": "uint256"
						}
					],
					"stateMutability": "view",
					"type": "function"
				},
				{
					"inputs": [],
					"name": "rewardsToken",
					"outputs": [
						{
							"internalType": "contract IERC20",
							"name": "",
							"type": "address"
						}
					],
					"stateMutability": "view",
					"type": "function"
				},
				{
					"inputs": [
						{
							"internalType": "uint256",
							"name": "_rewardsDuration",
							"type": "uint256"
						}
					],
					"name": "setRewardsDuration",
					"outputs": [],
					"stateMutability": "nonpayable",
					"type": "function"
				},
				{
					"inputs": [
						{
							"internalType": "uint256",
							"name": "amount",
							"type": "uint256"
						}
					],
					"name": "stake",
					"outputs": [],
					"stateMutability": "nonpayable",
					"type": "function"
				},
				{
					"inputs": [
						{
							"internalType": "uint256",
							"name": "amount",
							"type": "uint256"
						},
						{
							"internalType": "uint256",
							"name": "deadline",
							"type": "uint256"
						},
						{
							"internalType": "uint8",
							"name": "v",
							"type": "uint8"
						},
						{
							"internalType": "bytes32",
							"name": "r",
							"type": "bytes32"
						},
						{
							"internalType": "bytes32",
							"name": "s",
							"type": "bytes32"
						}
					],
					"name": "stakeWithPermit",
					"outputs": [],
					"stateMutability": "nonpayable",
					"type": "function"
				},
				{
					"inputs": [],
					"name": "stakingToken",
					"outputs": [
						{
							"internalType": "contract IERC20",
							"name": "",
							"type": "address"
						}
					],
					"stateMutability": "view",
					"type": "function"
				},
				{
					"inputs": [],
					"name": "totalSupply",
					"outputs": [
						{
							"internalType": "uint256",
							"name": "",
							"type": "uint256"
						}
					],
					"stateMutability": "view",
					"type": "function"
				},
				{
					"inputs": [
						{
							"internalType": "address",
							"name": "newOwner",
							"type": "address"
						}
					],
					"name": "transferOwnership",
					"outputs": [],
					"stateMutability": "nonpayable",
					"type": "function"
				},
				{
					"inputs": [
						{
							"internalType": "address",
							"name": "",
							"type": "address"
						}
					],
					"name": "userRewardPerTokenPaid",
					"outputs": [
						{
							"internalType": "uint256",
							"name": "",
							"type": "uint256"
						}
					],
					"stateMutability": "view",
					"type": "function"
				},
				{
					"inputs": [
						{
							"internalType": "uint256",
							"name": "amount",
							"type": "uint256"
						}
					],
					"name": "withdraw",
					"outputs": [],
					"stateMutability": "nonpayable",
					"type": "function"
				}
			],
			"devdoc": {
				"kind": "dev",
				"methods": {
					"owner()": {
						"details": "Returns the address of the current owner."
					},
					"renounceOwnership()": {
						"details": "Leaves the contract without owner. It will not be possible to call `onlyOwner` functions anymore. Can only be called by the current owner. NOTE: Renouncing ownership will leave the contract without an owner, thereby removing any functionality that is only available to the owner."
					},
					"transferOwnership(address)": {
						"details": "Transfers ownership of the contract to a new account (`newOwner`). Can only be called by the current owner."
					}
				},
				"version": 1
			},
			"evm": {
				"assembly": "    /* \"CoreContracts/StakingRewards.sol\":26736:33158  contract StakingRewards is ReentrancyGuard, Ownable {... */\n  mstore(0x40, 0x80)\n    /* \"CoreContracts/StakingRewards.sol\":27002:27003  0 */\n  0x00\n    /* \"CoreContracts/StakingRewards.sol\":26972:27003  uint256 public periodFinish = 0 */\n  0x04\n  sstore\n    /* \"CoreContracts/StakingRewards.sol\":27037:27038  0 */\n  0x00\n    /* \"CoreContracts/StakingRewards.sol\":27009:27038  uint256 public rewardRate = 0 */\n  0x05\n  sstore\n    /* \"CoreContracts/StakingRewards.sol\":27077:27083  1 days */\n  0x015180\n    /* \"CoreContracts/StakingRewards.sol\":27044:27083  uint256 public rewardsDuration = 1 days */\n  0x06\n  sstore\n    /* \"CoreContracts/StakingRewards.sol\":27409:27595  constructor(... */\n  callvalue\n  dup1\n  iszero\n  tag_1\n  jumpi\n  0x00\n  dup1\n  revert\ntag_1:\n  pop\n  mload(0x40)\n  sub(codesize, bytecodeSize)\n  dup1\n  bytecodeSize\n  dup4\n  codecopy\n  dup2\n  dup2\n  add\n  0x40\n  mstore\n  0x40\n  dup2\n  lt\n  iszero\n  tag_2\n  jumpi\n  0x00\n  dup1\n  revert\ntag_2:\n  pop\n  dup1\n  mload\n  0x20\n  swap1\n  swap2\n  add\n  mload\n    /* \"CoreContracts/StakingRewards.sol\":24374:24375  1 */\n  0x01\n    /* \"CoreContracts/StakingRewards.sol\":24489:24496  _status */\n  0x00\n    /* \"CoreContracts/StakingRewards.sol\":24489:24511  _status = _NOT_ENTERED */\n  swap1\n  dup2\n  sstore\n    /* \"CoreContracts/StakingRewards.sol\":1973:1985  _msgSender() */\n  tag_8\n    /* \"CoreContracts/StakingRewards.sol\":1973:1983  _msgSender */\n  tag_9\n    /* \"CoreContracts/StakingRewards.sol\":1973:1985  _msgSender() */\n  jump\t// in\ntag_8:\n    /* \"CoreContracts/StakingRewards.sol\":1995:2001  _owner */\n  0x01\n    /* \"CoreContracts/StakingRewards.sol\":1995:2013  _owner = msgSender */\n  dup1\n  sload\n  not(sub(shl(0xa0, 0x01), 0x01))\n  and\n  sub(shl(0xa0, 0x01), 0x01)\n  dup4\n  and\n  swap1\n  dup2\n  or\n  swap1\n  swap2\n  sstore\n    /* \"CoreContracts/StakingRewards.sol\":2028:2071  OwnershipTransferred(address(0), msgSender) */\n  mload(0x40)\n    /* \"CoreContracts/StakingRewards.sol\":1995:2013  _owner = msgSender */\n  swap2\n  swap3\n  pop\n  swap1\n  0x00\n  swap1\n    /* \"CoreContracts/StakingRewards.sol\":2028:2071  OwnershipTransferred(address(0), msgSender) */\n  0x8be0079c531659141344cd1fd0a4f28419497f9722a3daafe3b4186f6b6457e0\n  swap1\n  dup3\n  swap1\n  log3\n  pop\n    /* \"CoreContracts/StakingRewards.sol\":27506:27518  rewardsToken */\n  0x02\n    /* \"CoreContracts/StakingRewards.sol\":27506:27542  rewardsToken = IERC20(_rewardsToken) */\n  dup1\n  sload\n  sub(shl(0xa0, 0x01), 0x01)\n  swap4\n  dup5\n  and\n  not(sub(shl(0xa0, 0x01), 0x01))\n  swap2\n  dup3\n  and\n  or\n  swap1\n  swap2\n  sstore\n    /* \"CoreContracts/StakingRewards.sol\":27552:27564  stakingToken */\n  0x03\n    /* \"CoreContracts/StakingRewards.sol\":27552:27588  stakingToken = IERC20(_stakingToken) */\n  dup1\n  sload\n  swap3\n  swap1\n  swap4\n  and\n  swap2\n  and\n  or\n  swap1\n  sstore\n    /* \"CoreContracts/StakingRewards.sol\":26736:33158  contract StakingRewards is ReentrancyGuard, Ownable {... */\n  jump(tag_11)\n    /* \"CoreContracts/StakingRewards.sol\":723:827  function _msgSender() internal view virtual returns (address payable) {... */\ntag_9:\n    /* \"CoreContracts/StakingRewards.sol\":810:820  msg.sender */\n  caller\n    /* \"CoreContracts/StakingRewards.sol\":723:827  function _msgSender() internal view virtual returns (address payable) {... */\n  swap1\n  jump\t// out\n    /* \"CoreContracts/StakingRewards.sol\":26736:33158  contract StakingRewards is ReentrancyGuard, Ownable {... */\ntag_11:\n  dataSize(sub_0)\n  dup1\n  dataOffset(sub_0)\n  0x00\n  codecopy\n  0x00\n  return\nstop\n\nsub_0: assembly {\n        /* \"CoreContracts/StakingRewards.sol\":26736:33158  contract StakingRewards is ReentrancyGuard, Ownable {... */\n      mstore(0x40, 0x80)\n      callvalue\n      dup1\n      iszero\n      tag_1\n      jumpi\n      0x00\n      dup1\n      revert\n    tag_1:\n      pop\n      jumpi(tag_2, lt(calldatasize, 0x04))\n      shr(0xe0, calldataload(0x00))\n      dup1\n      0x8980f11f\n      gt\n      tag_29\n      jumpi\n      dup1\n      0xcd3daf9d\n      gt\n      tag_30\n      jumpi\n      dup1\n      0xe9fad8ee\n      gt\n      tag_31\n      jumpi\n      dup1\n      0xe9fad8ee\n      eq\n      tag_25\n      jumpi\n      dup1\n      0xebe2b12b\n      eq\n      tag_26\n      jumpi\n      dup1\n      0xecd9ba82\n      eq\n      tag_27\n      jumpi\n      dup1\n      0xf2fde38b\n      eq\n      tag_28\n      jumpi\n      jump(tag_2)\n    tag_31:\n      dup1\n      0xcd3daf9d\n      eq\n      tag_22\n      jumpi\n      dup1\n      0xd1af0c7d\n      eq\n      tag_23\n      jumpi\n      dup1\n      0xdf136d65\n      eq\n      tag_24\n      jumpi\n      jump(tag_2)\n    tag_30:\n      dup1\n      0xa694fc3a\n      gt\n      tag_32\n      jumpi\n      dup1\n      0xa694fc3a\n      eq\n      tag_19\n      jumpi\n      dup1\n      0xc8f33c91\n      eq\n      tag_20\n      jumpi\n      dup1\n      0xcc1a378f\n      eq\n      tag_21\n      jumpi\n      jump(tag_2)\n    tag_32:\n      dup1\n      0x8980f11f\n      eq\n      tag_16\n      jumpi\n      dup1\n      0x8b876347\n      eq\n      tag_17\n      jumpi\n      dup1\n      0x8da5cb5b\n      eq\n      tag_18\n      jumpi\n      jump(tag_2)\n    tag_29:\n      dup1\n      0x3c6b16ab\n      gt\n      tag_33\n      jumpi\n      dup1\n      0x715018a6\n      gt\n      tag_34\n      jumpi\n      dup1\n      0x715018a6\n      eq\n      tag_12\n      jumpi\n      dup1\n      0x72f702f3\n      eq\n      tag_13\n      jumpi\n      dup1\n      0x7b0a47ee\n      eq\n      tag_14\n      jumpi\n      dup1\n      0x80faa57d\n      eq\n      tag_15\n      jumpi\n      jump(tag_2)\n    tag_34:\n      dup1\n      0x3c6b16ab\n      eq\n      tag_9\n      jumpi\n      dup1\n      0x3d18b912\n      eq\n      tag_10\n      jumpi\n      dup1\n      0x70a08231\n      eq\n      tag_11\n      jumpi\n      jump(tag_2)\n    tag_33:\n      dup1\n      0x1c1f78eb\n      gt\n      tag_35\n      jumpi\n      dup1\n      0x1c1f78eb\n      eq\n      tag_6\n      jumpi\n      dup1\n      0x2e1a7d4d\n      eq\n      tag_7\n      jumpi\n      dup1\n      0x386a9525\n      eq\n      tag_8\n      jumpi\n      jump(tag_2)\n    tag_35:\n      dup1\n      0x8cc262\n      eq\n      tag_3\n      jumpi\n      dup1\n      0x0700037d\n      eq\n      tag_4\n      jumpi\n      dup1\n      0x18160ddd\n      eq\n      tag_5\n      jumpi\n    tag_2:\n      0x00\n      dup1\n      revert\n        /* \"CoreContracts/StakingRewards.sol\":28316:28512  function earned(address account) public view returns (uint256) {... */\n    tag_3:\n      tag_36\n      0x04\n      dup1\n      calldatasize\n      sub\n      0x20\n      dup2\n      lt\n      iszero\n      tag_37\n      jumpi\n      0x00\n      dup1\n      revert\n    tag_37:\n      pop\n      calldataload\n      sub(shl(0xa0, 0x01), 0x01)\n      and\n      tag_38\n      jump\t// in\n    tag_36:\n      0x40\n      dup1\n      mload\n      swap2\n      dup3\n      mstore\n      mload\n      swap1\n      dup2\n      swap1\n      sub\n      0x20\n      add\n      swap1\n      return\n        /* \"CoreContracts/StakingRewards.sol\":27229:27271  mapping(address => uint256) public rewards */\n    tag_4:\n      tag_36\n      0x04\n      dup1\n      calldatasize\n      sub\n      0x20\n      dup2\n      lt\n      iszero\n      tag_40\n      jumpi\n      0x00\n      dup1\n      revert\n    tag_40:\n      pop\n      calldataload\n      sub(shl(0xa0, 0x01), 0x01)\n      and\n      tag_41\n      jump\t// in\n        /* \"CoreContracts/StakingRewards.sol\":27640:27731  function totalSupply() external view returns (uint256) {... */\n    tag_5:\n      tag_36\n      tag_43\n      jump\t// in\n        /* \"CoreContracts/StakingRewards.sol\":28518:28637  function getRewardForDuration() external view returns (uint256) {... */\n    tag_6:\n      tag_36\n      tag_45\n      jump\t// in\n        /* \"CoreContracts/StakingRewards.sol\":29617:29968  function withdraw(uint256 amount) public nonReentrant updateReward(msg.sender) {... */\n    tag_7:\n      tag_46\n      0x04\n      dup1\n      calldatasize\n      sub\n      0x20\n      dup2\n      lt\n      iszero\n      tag_47\n      jumpi\n      0x00\n      dup1\n      revert\n    tag_47:\n      pop\n      calldataload\n      tag_48\n      jump\t// in\n    tag_46:\n      stop\n        /* \"CoreContracts/StakingRewards.sol\":27044:27083  uint256 public rewardsDuration = 1 days */\n    tag_8:\n      tag_36\n      tag_50\n      jump\t// in\n        /* \"CoreContracts/StakingRewards.sol\":30517:31567  function notifyRewardAmount(uint256 reward) external onlyOwner updateReward(address(0)) {... */\n    tag_9:\n      tag_46\n      0x04\n      dup1\n      calldatasize\n      sub\n      0x20\n      dup2\n      lt\n      iszero\n      tag_52\n      jumpi\n      0x00\n      dup1\n      revert\n    tag_52:\n      pop\n      calldataload\n      tag_53\n      jump\t// in\n        /* \"CoreContracts/StakingRewards.sol\":29974:30274  function getReward() public nonReentrant updateReward(msg.sender) {... */\n    tag_10:\n      tag_46\n      tag_55\n      jump\t// in\n        /* \"CoreContracts/StakingRewards.sol\":27737:27847  function balanceOf(address account) external view returns (uint256) {... */\n    tag_11:\n      tag_36\n      0x04\n      dup1\n      calldatasize\n      sub\n      0x20\n      dup2\n      lt\n      iszero\n      tag_57\n      jumpi\n      0x00\n      dup1\n      revert\n    tag_57:\n      pop\n      calldataload\n      sub(shl(0xa0, 0x01), 0x01)\n      and\n      tag_58\n      jump\t// in\n        /* \"CoreContracts/StakingRewards.sol\":2777:2922  function renounceOwnership() public virtual onlyOwner {... */\n    tag_12:\n      tag_46\n      tag_60\n      jump\t// in\n        /* \"CoreContracts/StakingRewards.sol\":26940:26966  IERC20 public stakingToken */\n    tag_13:\n      tag_61\n      tag_62\n      jump\t// in\n    tag_61:\n      0x40\n      dup1\n      mload\n      sub(shl(0xa0, 0x01), 0x01)\n      swap1\n      swap3\n      and\n      dup3\n      mstore\n      mload\n      swap1\n      dup2\n      swap1\n      sub\n      0x20\n      add\n      swap1\n      return\n        /* \"CoreContracts/StakingRewards.sol\":27009:27038  uint256 public rewardRate = 0 */\n    tag_14:\n      tag_36\n      tag_64\n      jump\t// in\n        /* \"CoreContracts/StakingRewards.sol\":27853:27982  function lastTimeRewardApplicable() public view returns (uint256) {... */\n    tag_15:\n      tag_36\n      tag_66\n      jump\t// in\n        /* \"CoreContracts/StakingRewards.sol\":31679:31992  function recoverERC20(address tokenAddress, uint256 tokenAmount) external onlyOwner nonReentrant {... */\n    tag_16:\n      tag_46\n      0x04\n      dup1\n      calldatasize\n      sub\n      0x40\n      dup2\n      lt\n      iszero\n      tag_68\n      jumpi\n      0x00\n      dup1\n      revert\n    tag_68:\n      pop\n      sub(shl(0xa0, 0x01), 0x01)\n      dup2\n      calldataload\n      and\n      swap1\n      0x20\n      add\n      calldataload\n      tag_69\n      jump\t// in\n        /* \"CoreContracts/StakingRewards.sol\":27166:27223  mapping(address => uint256) public userRewardPerTokenPaid */\n    tag_17:\n      tag_36\n      0x04\n      dup1\n      calldatasize\n      sub\n      0x20\n      dup2\n      lt\n      iszero\n      tag_71\n      jumpi\n      0x00\n      dup1\n      revert\n    tag_71:\n      pop\n      calldataload\n      sub(shl(0xa0, 0x01), 0x01)\n      and\n      tag_72\n      jump\t// in\n        /* \"CoreContracts/StakingRewards.sol\":2154:2231  function owner() public view returns (address) {... */\n    tag_18:\n      tag_61\n      tag_74\n      jump\t// in\n        /* \"CoreContracts/StakingRewards.sol\":29248:29611  function stake(uint256 amount) external nonReentrant updateReward(msg.sender) {... */\n    tag_19:\n      tag_46\n      0x04\n      dup1\n      calldatasize\n      sub\n      0x20\n      dup2\n      lt\n      iszero\n      tag_76\n      jumpi\n      0x00\n      dup1\n      revert\n    tag_76:\n      pop\n      calldataload\n      tag_77\n      jump\t// in\n        /* \"CoreContracts/StakingRewards.sol\":27089:27118  uint256 public lastUpdateTime */\n    tag_20:\n      tag_36\n      tag_79\n      jump\t// in\n        /* \"CoreContracts/StakingRewards.sol\":31998:32423  function setRewardsDuration(uint256 _rewardsDuration) external onlyOwner {... */\n    tag_21:\n      tag_46\n      0x04\n      dup1\n      calldatasize\n      sub\n      0x20\n      dup2\n      lt\n      iszero\n      tag_81\n      jumpi\n      0x00\n      dup1\n      revert\n    tag_81:\n      pop\n      calldataload\n      tag_82\n      jump\t// in\n        /* \"CoreContracts/StakingRewards.sol\":27988:28310  function rewardPerToken() public view returns (uint256) {... */\n    tag_22:\n      tag_36\n      tag_84\n      jump\t// in\n        /* \"CoreContracts/StakingRewards.sol\":26908:26934  IERC20 public rewardsToken */\n    tag_23:\n      tag_61\n      tag_86\n      jump\t// in\n        /* \"CoreContracts/StakingRewards.sol\":27124:27159  uint256 public rewardPerTokenStored */\n    tag_24:\n      tag_36\n      tag_88\n      jump\t// in\n        /* \"CoreContracts/StakingRewards.sol\":30280:30374  function exit() external {... */\n    tag_25:\n      tag_46\n      tag_90\n      jump\t// in\n        /* \"CoreContracts/StakingRewards.sol\":26972:27003  uint256 public periodFinish = 0 */\n    tag_26:\n      tag_36\n      tag_92\n      jump\t// in\n        /* \"CoreContracts/StakingRewards.sol\":28695:29242  function stakeWithPermit(uint256 amount, uint deadline, uint8 v, bytes32 r, bytes32 s) external nonReentrant updateReward(msg.sender) {... */\n    tag_27:\n      tag_46\n      0x04\n      dup1\n      calldatasize\n      sub\n      0xa0\n      dup2\n      lt\n      iszero\n      tag_94\n      jumpi\n      0x00\n      dup1\n      revert\n    tag_94:\n      pop\n      dup1\n      calldataload\n      swap1\n      0x20\n      dup2\n      add\n      calldataload\n      swap1\n      0xff\n      0x40\n      dup3\n      add\n      calldataload\n      and\n      swap1\n      0x60\n      dup2\n      add\n      calldataload\n      swap1\n      0x80\n      add\n      calldataload\n      tag_95\n      jump\t// in\n        /* \"CoreContracts/StakingRewards.sol\":3071:3311  function transferOwnership(address newOwner) public virtual onlyOwner {... */\n    tag_28:\n      tag_46\n      0x04\n      dup1\n      calldatasize\n      sub\n      0x20\n      dup2\n      lt\n      iszero\n      tag_97\n      jumpi\n      0x00\n      dup1\n      revert\n    tag_97:\n      pop\n      calldataload\n      sub(shl(0xa0, 0x01), 0x01)\n      and\n      tag_98\n      jump\t// in\n        /* \"CoreContracts/StakingRewards.sol\":28316:28512  function earned(address account) public view returns (uint256) {... */\n    tag_38:\n      sub(shl(0xa0, 0x01), 0x01)\n        /* \"CoreContracts/StakingRewards.sol\":28488:28504  rewards[account] */\n      dup2\n      and\n        /* \"CoreContracts/StakingRewards.sol\":28370:28377  uint256 */\n      0x00\n        /* \"CoreContracts/StakingRewards.sol\":28488:28504  rewards[account] */\n      swap1\n      dup2\n      mstore\n        /* \"CoreContracts/StakingRewards.sol\":28488:28495  rewards */\n      0x0a\n        /* \"CoreContracts/StakingRewards.sol\":28488:28504  rewards[account] */\n      0x20\n      swap1\n      dup2\n      mstore\n      0x40\n      dup1\n      dup4\n      keccak256\n      sload\n        /* \"CoreContracts/StakingRewards.sol\":28440:28462  userRewardPerTokenPaid */\n      0x09\n        /* \"CoreContracts/StakingRewards.sol\":28440:28471  userRewardPerTokenPaid[account] */\n      swap1\n      swap3\n      mstore\n      dup3\n      keccak256\n      sload\n        /* \"CoreContracts/StakingRewards.sol\":28396:28505  _balances[account].mul(rewardPerToken().sub(userRewardPerTokenPaid[account])).div(1e18).add(rewards[account]) */\n      tag_100\n      swap2\n        /* \"CoreContracts/StakingRewards.sol\":28488:28504  rewards[account] */\n      swap1\n        /* \"CoreContracts/StakingRewards.sol\":28396:28483  _balances[account].mul(rewardPerToken().sub(userRewardPerTokenPaid[account])).div(1e18) */\n      tag_101\n      swap1\n        /* \"CoreContracts/StakingRewards.sol\":28478:28482  1e18 */\n      0x0de0b6b3a7640000\n      swap1\n        /* \"CoreContracts/StakingRewards.sol\":28396:28473  _balances[account].mul(rewardPerToken().sub(userRewardPerTokenPaid[account])) */\n      tag_102\n      swap1\n        /* \"CoreContracts/StakingRewards.sol\":28419:28472  rewardPerToken().sub(userRewardPerTokenPaid[account]) */\n      tag_103\n      swap1\n        /* \"CoreContracts/StakingRewards.sol\":28419:28435  rewardPerToken() */\n      tag_104\n        /* \"CoreContracts/StakingRewards.sol\":28419:28433  rewardPerToken */\n      tag_84\n        /* \"CoreContracts/StakingRewards.sol\":28419:28435  rewardPerToken() */\n      jump\t// in\n    tag_104:\n        /* \"CoreContracts/StakingRewards.sol\":28419:28439  rewardPerToken().sub */\n      swap1\n      tag_105\n        /* \"CoreContracts/StakingRewards.sol\":28419:28472  rewardPerToken().sub(userRewardPerTokenPaid[account]) */\n      jump\t// in\n    tag_103:\n      sub(shl(0xa0, 0x01), 0x01)\n        /* \"CoreContracts/StakingRewards.sol\":28396:28414  _balances[account] */\n      dup9\n      and\n      0x00\n      swap1\n      dup2\n      mstore\n        /* \"CoreContracts/StakingRewards.sol\":28396:28405  _balances */\n      0x0c\n        /* \"CoreContracts/StakingRewards.sol\":28396:28414  _balances[account] */\n      0x20\n      mstore\n      0x40\n      swap1\n      keccak256\n      sload\n      swap1\n        /* \"CoreContracts/StakingRewards.sol\":28396:28418  _balances[account].mul */\n      tag_106\n        /* \"CoreContracts/StakingRewards.sol\":28396:28473  _balances[account].mul(rewardPerToken().sub(userRewardPerTokenPaid[account])) */\n      jump\t// in\n    tag_102:\n        /* \"CoreContracts/StakingRewards.sol\":28396:28477  _balances[account].mul(rewardPerToken().sub(userRewardPerTokenPaid[account])).div */\n      swap1\n      tag_107\n        /* \"CoreContracts/StakingRewards.sol\":28396:28483  _balances[account].mul(rewardPerToken().sub(userRewardPerTokenPaid[account])).div(1e18) */\n      jump\t// in\n    tag_101:\n        /* \"CoreContracts/StakingRewards.sol\":28396:28487  _balances[account].mul(rewardPerToken().sub(userRewardPerTokenPaid[account])).div(1e18).add */\n      swap1\n      tag_108\n        /* \"CoreContracts/StakingRewards.sol\":28396:28505  _balances[account].mul(rewardPerToken().sub(userRewardPerTokenPaid[account])).div(1e18).add(rewards[account]) */\n      jump\t// in\n    tag_100:\n        /* \"CoreContracts/StakingRewards.sol\":28389:28505  return _balances[account].mul(rewardPerToken().sub(userRewardPerTokenPaid[account])).div(1e18).add(rewards[account]) */\n      swap3\n        /* \"CoreContracts/StakingRewards.sol\":28316:28512  function earned(address account) public view returns (uint256) {... */\n      swap2\n      pop\n      pop\n      jump\t// out\n        /* \"CoreContracts/StakingRewards.sol\":27229:27271  mapping(address => uint256) public rewards */\n    tag_41:\n      mstore(0x20, 0x0a)\n      0x00\n      swap1\n      dup2\n      mstore\n      0x40\n      swap1\n      keccak256\n      sload\n      dup2\n      jump\t// out\n        /* \"CoreContracts/StakingRewards.sol\":27640:27731  function totalSupply() external view returns (uint256) {... */\n    tag_43:\n        /* \"CoreContracts/StakingRewards.sol\":27712:27724  _totalSupply */\n      sload(0x0b)\n        /* \"CoreContracts/StakingRewards.sol\":27640:27731  function totalSupply() external view returns (uint256) {... */\n    tag_109:\n      swap1\n      jump\t// out\n        /* \"CoreContracts/StakingRewards.sol\":28518:28637  function getRewardForDuration() external view returns (uint256) {... */\n    tag_45:\n        /* \"CoreContracts/StakingRewards.sol\":28573:28580  uint256 */\n      0x00\n        /* \"CoreContracts/StakingRewards.sol\":28599:28630  rewardRate.mul(rewardsDuration) */\n      tag_111\n        /* \"CoreContracts/StakingRewards.sol\":28614:28629  rewardsDuration */\n      sload(0x06)\n        /* \"CoreContracts/StakingRewards.sol\":28599:28609  rewardRate */\n      sload(0x05)\n        /* \"CoreContracts/StakingRewards.sol\":28599:28613  rewardRate.mul */\n      tag_106\n      swap1\n        /* \"CoreContracts/StakingRewards.sol\":28599:28630  rewardRate.mul(rewardsDuration) */\n      swap2\n      swap1\n      0xffffffff\n      and\n      jump\t// in\n    tag_111:\n        /* \"CoreContracts/StakingRewards.sol\":28592:28630  return rewardRate.mul(rewardsDuration) */\n      swap1\n      pop\n        /* \"CoreContracts/StakingRewards.sol\":28518:28637  function getRewardForDuration() external view returns (uint256) {... */\n      swap1\n      jump\t// out\n        /* \"CoreContracts/StakingRewards.sol\":29617:29968  function withdraw(uint256 amount) public nonReentrant updateReward(msg.sender) {... */\n    tag_48:\n        /* \"CoreContracts/StakingRewards.sol\":24417:24418  2 */\n      0x02\n        /* \"CoreContracts/StakingRewards.sol\":25006:25013  _status */\n      sload(0x00)\n        /* \"CoreContracts/StakingRewards.sol\":25006:25025  _status != _ENTERED */\n      eq\n      iszero\n        /* \"CoreContracts/StakingRewards.sol\":24998:25061  require(_status != _ENTERED, \"ReentrancyGuard: reentrant call\") */\n      tag_113\n      jumpi\n      0x40\n      dup1\n      mload\n      shl(0xe5, 0x461bcd)\n      dup2\n      mstore\n      0x20\n      0x04\n      dup3\n      add\n      mstore\n      0x1f\n      0x24\n      dup3\n      add\n      mstore\n      0x5265656e7472616e637947756172643a207265656e7472616e742063616c6c00\n      0x44\n      dup3\n      add\n      mstore\n      swap1\n      mload\n      swap1\n      dup2\n      swap1\n      sub\n      0x64\n      add\n      swap1\n      revert\n    tag_113:\n        /* \"CoreContracts/StakingRewards.sol\":24417:24418  2 */\n      0x02\n        /* \"CoreContracts/StakingRewards.sol\":25136:25143  _status */\n      0x00\n        /* \"CoreContracts/StakingRewards.sol\":25136:25154  _status = _ENTERED */\n      sstore\n        /* \"CoreContracts/StakingRewards.sol\":29684:29694  msg.sender */\n      caller\n        /* \"CoreContracts/StakingRewards.sol\":32544:32560  rewardPerToken() */\n      tag_115\n        /* \"CoreContracts/StakingRewards.sol\":32544:32558  rewardPerToken */\n      tag_84\n        /* \"CoreContracts/StakingRewards.sol\":32544:32560  rewardPerToken() */\n      jump\t// in\n    tag_115:\n        /* \"CoreContracts/StakingRewards.sol\":32521:32541  rewardPerTokenStored */\n      0x08\n        /* \"CoreContracts/StakingRewards.sol\":32521:32560  rewardPerTokenStored = rewardPerToken() */\n      sstore\n        /* \"CoreContracts/StakingRewards.sol\":32587:32613  lastTimeRewardApplicable() */\n      tag_116\n        /* \"CoreContracts/StakingRewards.sol\":32587:32611  lastTimeRewardApplicable */\n      tag_66\n        /* \"CoreContracts/StakingRewards.sol\":32587:32613  lastTimeRewardApplicable() */\n      jump\t// in\n    tag_116:\n        /* \"CoreContracts/StakingRewards.sol\":32570:32584  lastUpdateTime */\n      0x07\n        /* \"CoreContracts/StakingRewards.sol\":32570:32613  lastUpdateTime = lastTimeRewardApplicable() */\n      sstore\n      sub(shl(0xa0, 0x01), 0x01)\n        /* \"CoreContracts/StakingRewards.sol\":32627:32648  account != address(0) */\n      dup2\n      and\n      iszero\n        /* \"CoreContracts/StakingRewards.sol\":32623:32777  if (account != address(0)) {... */\n      tag_117\n      jumpi\n        /* \"CoreContracts/StakingRewards.sol\":32683:32698  earned(account) */\n      tag_118\n        /* \"CoreContracts/StakingRewards.sol\":32690:32697  account */\n      dup2\n        /* \"CoreContracts/StakingRewards.sol\":32683:32689  earned */\n      tag_38\n        /* \"CoreContracts/StakingRewards.sol\":32683:32698  earned(account) */\n      jump\t// in\n    tag_118:\n      sub(shl(0xa0, 0x01), 0x01)\n        /* \"CoreContracts/StakingRewards.sol\":32664:32680  rewards[account] */\n      dup3\n      and\n      0x00\n      swap1\n      dup2\n      mstore\n        /* \"CoreContracts/StakingRewards.sol\":32664:32671  rewards */\n      0x0a\n        /* \"CoreContracts/StakingRewards.sol\":32664:32680  rewards[account] */\n      0x20\n      swap1\n      dup2\n      mstore\n      0x40\n      dup1\n      dup4\n      keccak256\n        /* \"CoreContracts/StakingRewards.sol\":32664:32698  rewards[account] = earned(account) */\n      swap4\n      swap1\n      swap4\n      sstore\n        /* \"CoreContracts/StakingRewards.sol\":32746:32766  rewardPerTokenStored */\n      sload(0x08)\n        /* \"CoreContracts/StakingRewards.sol\":32712:32734  userRewardPerTokenPaid */\n      0x09\n        /* \"CoreContracts/StakingRewards.sol\":32712:32743  userRewardPerTokenPaid[account] */\n      swap1\n      swap2\n      mstore\n      swap2\n      swap1\n      keccak256\n        /* \"CoreContracts/StakingRewards.sol\":32712:32766  userRewardPerTokenPaid[account] = rewardPerTokenStored */\n      sstore\n        /* \"CoreContracts/StakingRewards.sol\":32623:32777  if (account != address(0)) {... */\n    tag_117:\n        /* \"CoreContracts/StakingRewards.sol\":29723:29724  0 */\n      0x00\n        /* \"CoreContracts/StakingRewards.sol\":29714:29720  amount */\n      dup3\n        /* \"CoreContracts/StakingRewards.sol\":29714:29724  amount > 0 */\n      gt\n        /* \"CoreContracts/StakingRewards.sol\":29706:29746  require(amount > 0, \"Cannot withdraw 0\") */\n      tag_120\n      jumpi\n      0x40\n      dup1\n      mload\n      shl(0xe5, 0x461bcd)\n      dup2\n      mstore\n      0x20\n      0x04\n      dup3\n      add\n      mstore\n      0x11\n      0x24\n      dup3\n      add\n      mstore\n      0x43616e6e6f742077697468647261772030000000000000000000000000000000\n      0x44\n      dup3\n      add\n      mstore\n      swap1\n      mload\n      swap1\n      dup2\n      swap1\n      sub\n      0x64\n      add\n      swap1\n      revert\n    tag_120:\n        /* \"CoreContracts/StakingRewards.sol\":29771:29783  _totalSupply */\n      sload(0x0b)\n        /* \"CoreContracts/StakingRewards.sol\":29771:29795  _totalSupply.sub(amount) */\n      tag_121\n      swap1\n        /* \"CoreContracts/StakingRewards.sol\":29788:29794  amount */\n      dup4\n        /* \"CoreContracts/StakingRewards.sol\":29771:29787  _totalSupply.sub */\n      tag_105\n        /* \"CoreContracts/StakingRewards.sol\":29771:29795  _totalSupply.sub(amount) */\n      jump\t// in\n    tag_121:\n        /* \"CoreContracts/StakingRewards.sol\":29756:29768  _totalSupply */\n      0x0b\n        /* \"CoreContracts/StakingRewards.sol\":29756:29795  _totalSupply = _totalSupply.sub(amount) */\n      sstore\n        /* \"CoreContracts/StakingRewards.sol\":29839:29849  msg.sender */\n      caller\n        /* \"CoreContracts/StakingRewards.sol\":29829:29850  _balances[msg.sender] */\n      0x00\n      swap1\n      dup2\n      mstore\n        /* \"CoreContracts/StakingRewards.sol\":29829:29838  _balances */\n      0x0c\n        /* \"CoreContracts/StakingRewards.sol\":29829:29850  _balances[msg.sender] */\n      0x20\n      mstore\n      0x40\n      swap1\n      keccak256\n      sload\n        /* \"CoreContracts/StakingRewards.sol\":29829:29862  _balances[msg.sender].sub(amount) */\n      tag_122\n      swap1\n        /* \"CoreContracts/StakingRewards.sol\":29855:29861  amount */\n      dup4\n        /* \"CoreContracts/StakingRewards.sol\":29829:29854  _balances[msg.sender].sub */\n      tag_105\n        /* \"CoreContracts/StakingRewards.sol\":29829:29862  _balances[msg.sender].sub(amount) */\n      jump\t// in\n    tag_122:\n        /* \"CoreContracts/StakingRewards.sol\":29815:29825  msg.sender */\n      caller\n        /* \"CoreContracts/StakingRewards.sol\":29805:29826  _balances[msg.sender] */\n      0x00\n      dup2\n      dup2\n      mstore\n        /* \"CoreContracts/StakingRewards.sol\":29805:29814  _balances */\n      0x0c\n        /* \"CoreContracts/StakingRewards.sol\":29805:29826  _balances[msg.sender] */\n      0x20\n      mstore\n      0x40\n      swap1\n      keccak256\n        /* \"CoreContracts/StakingRewards.sol\":29805:29862  _balances[msg.sender] = _balances[msg.sender].sub(amount) */\n      swap2\n      swap1\n      swap2\n      sstore\n        /* \"CoreContracts/StakingRewards.sol\":29872:29884  stakingToken */\n      sload(0x03)\n        /* \"CoreContracts/StakingRewards.sol\":29872:29917  stakingToken.safeTransfer(msg.sender, amount) */\n      tag_123\n      swap2\n      sub(shl(0xa0, 0x01), 0x01)\n        /* \"CoreContracts/StakingRewards.sol\":29872:29884  stakingToken */\n      swap1\n      swap2\n      and\n      swap1\n        /* \"CoreContracts/StakingRewards.sol\":29910:29916  amount */\n      dup5\n        /* \"CoreContracts/StakingRewards.sol\":29872:29897  stakingToken.safeTransfer */\n      tag_124\n        /* \"CoreContracts/StakingRewards.sol\":29872:29917  stakingToken.safeTransfer(msg.sender, amount) */\n      jump\t// in\n    tag_123:\n        /* \"CoreContracts/StakingRewards.sol\":29932:29961  Withdrawn(msg.sender, amount) */\n      0x40\n      dup1\n      mload\n      dup4\n      dup2\n      mstore\n      swap1\n      mload\n        /* \"CoreContracts/StakingRewards.sol\":29942:29952  msg.sender */\n      caller\n      swap2\n        /* \"CoreContracts/StakingRewards.sol\":29932:29961  Withdrawn(msg.sender, amount) */\n      0x7084f5476618d8e60b11ef0d7d3f06914655adb8793e28ff7f018d4c76d505d5\n      swap2\n      swap1\n      dup2\n      swap1\n      sub\n      0x20\n      add\n      swap1\n      log2\n      pop\n      pop\n        /* \"CoreContracts/StakingRewards.sol\":24374:24375  1 */\n      0x01\n        /* \"CoreContracts/StakingRewards.sol\":25309:25316  _status */\n      0x00\n        /* \"CoreContracts/StakingRewards.sol\":25309:25331  _status = _NOT_ENTERED */\n      sstore\n        /* \"CoreContracts/StakingRewards.sol\":29617:29968  function withdraw(uint256 amount) public nonReentrant updateReward(msg.sender) {... */\n      jump\t// out\n        /* \"CoreContracts/StakingRewards.sol\":27044:27083  uint256 public rewardsDuration = 1 days */\n    tag_50:\n      sload(0x06)\n      dup2\n      jump\t// out\n        /* \"CoreContracts/StakingRewards.sol\":30517:31567  function notifyRewardAmount(uint256 reward) external onlyOwner updateReward(address(0)) {... */\n    tag_53:\n        /* \"CoreContracts/StakingRewards.sol\":2368:2380  _msgSender() */\n      tag_126\n        /* \"CoreContracts/StakingRewards.sol\":2368:2378  _msgSender */\n      tag_127\n        /* \"CoreContracts/StakingRewards.sol\":2368:2380  _msgSender() */\n      jump\t// in\n    tag_126:\n        /* \"CoreContracts/StakingRewards.sol\":2358:2364  _owner */\n      sload(0x01)\n      sub(shl(0xa0, 0x01), 0x01)\n      swap1\n      dup2\n      and\n        /* \"CoreContracts/StakingRewards.sol\":2358:2380  _owner == _msgSender() */\n      swap2\n      and\n      eq\n        /* \"CoreContracts/StakingRewards.sol\":2350:2417  require(_owner == _msgSender(), \"Ownable: caller is not the owner\") */\n      tag_128\n      jumpi\n      0x40\n      dup1\n      mload\n      shl(0xe5, 0x461bcd)\n      dup2\n      mstore\n      0x20\n      0x04\n      dup3\n      add\n      dup2\n      swap1\n      mstore\n      0x24\n      dup3\n      add\n      mstore\n      0x4f776e61626c653a2063616c6c6572206973206e6f7420746865206f776e6572\n      0x44\n      dup3\n      add\n      mstore\n      swap1\n      mload\n      swap1\n      dup2\n      swap1\n      sub\n      0x64\n      add\n      swap1\n      revert\n    tag_128:\n        /* \"CoreContracts/StakingRewards.sol\":30601:30602  0 */\n      0x00\n        /* \"CoreContracts/StakingRewards.sol\":32544:32560  rewardPerToken() */\n      tag_130\n        /* \"CoreContracts/StakingRewards.sol\":32544:32558  rewardPerToken */\n      tag_84\n        /* \"CoreContracts/StakingRewards.sol\":32544:32560  rewardPerToken() */\n      jump\t// in\n    tag_130:\n        /* \"CoreContracts/StakingRewards.sol\":32521:32541  rewardPerTokenStored */\n      0x08\n        /* \"CoreContracts/StakingRewards.sol\":32521:32560  rewardPerTokenStored = rewardPerToken() */\n      sstore\n        /* \"CoreContracts/StakingRewards.sol\":32587:32613  lastTimeRewardApplicable() */\n      tag_131\n        /* \"CoreContracts/StakingRewards.sol\":32587:32611  lastTimeRewardApplicable */\n      tag_66\n        /* \"CoreContracts/StakingRewards.sol\":32587:32613  lastTimeRewardApplicable() */\n      jump\t// in\n    tag_131:\n        /* \"CoreContracts/StakingRewards.sol\":32570:32584  lastUpdateTime */\n      0x07\n        /* \"CoreContracts/StakingRewards.sol\":32570:32613  lastUpdateTime = lastTimeRewardApplicable() */\n      sstore\n      sub(shl(0xa0, 0x01), 0x01)\n        /* \"CoreContracts/StakingRewards.sol\":32627:32648  account != address(0) */\n      dup2\n      and\n      iszero\n        /* \"CoreContracts/StakingRewards.sol\":32623:32777  if (account != address(0)) {... */\n      tag_132\n      jumpi\n        /* \"CoreContracts/StakingRewards.sol\":32683:32698  earned(account) */\n      tag_133\n        /* \"CoreContracts/StakingRewards.sol\":32690:32697  account */\n      dup2\n        /* \"CoreContracts/StakingRewards.sol\":32683:32689  earned */\n      tag_38\n        /* \"CoreContracts/StakingRewards.sol\":32683:32698  earned(account) */\n      jump\t// in\n    tag_133:\n      sub(shl(0xa0, 0x01), 0x01)\n        /* \"CoreContracts/StakingRewards.sol\":32664:32680  rewards[account] */\n      dup3\n      and\n      0x00\n      swap1\n      dup2\n      mstore\n        /* \"CoreContracts/StakingRewards.sol\":32664:32671  rewards */\n      0x0a\n        /* \"CoreContracts/StakingRewards.sol\":32664:32680  rewards[account] */\n      0x20\n      swap1\n      dup2\n      mstore\n      0x40\n      dup1\n      dup4\n      keccak256\n        /* \"CoreContracts/StakingRewards.sol\":32664:32698  rewards[account] = earned(account) */\n      swap4\n      swap1\n      swap4\n      sstore\n        /* \"CoreContracts/StakingRewards.sol\":32746:32766  rewardPerTokenStored */\n      sload(0x08)\n        /* \"CoreContracts/StakingRewards.sol\":32712:32734  userRewardPerTokenPaid */\n      0x09\n        /* \"CoreContracts/StakingRewards.sol\":32712:32743  userRewardPerTokenPaid[account] */\n      swap1\n      swap2\n      mstore\n      swap2\n      swap1\n      keccak256\n        /* \"CoreContracts/StakingRewards.sol\":32712:32766  userRewardPerTokenPaid[account] = rewardPerTokenStored */\n      sstore\n        /* \"CoreContracts/StakingRewards.sol\":32623:32777  if (account != address(0)) {... */\n    tag_132:\n        /* \"CoreContracts/StakingRewards.sol\":30638:30650  periodFinish */\n      sload(0x04)\n        /* \"CoreContracts/StakingRewards.sol\":30619:30634  block.timestamp */\n      timestamp\n        /* \"CoreContracts/StakingRewards.sol\":30619:30650  block.timestamp >= periodFinish */\n      lt\n        /* \"CoreContracts/StakingRewards.sol\":30615:30927  if (block.timestamp >= periodFinish) {... */\n      tag_135\n      jumpi\n        /* \"CoreContracts/StakingRewards.sol\":30690:30705  rewardsDuration */\n      sload(0x06)\n        /* \"CoreContracts/StakingRewards.sol\":30679:30706  reward.div(rewardsDuration) */\n      tag_136\n      swap1\n        /* \"CoreContracts/StakingRewards.sol\":30679:30685  reward */\n      dup4\n      swap1\n        /* \"CoreContracts/StakingRewards.sol\":30679:30689  reward.div */\n      tag_107\n        /* \"CoreContracts/StakingRewards.sol\":30679:30706  reward.div(rewardsDuration) */\n      jump\t// in\n    tag_136:\n        /* \"CoreContracts/StakingRewards.sol\":30666:30676  rewardRate */\n      0x05\n        /* \"CoreContracts/StakingRewards.sol\":30666:30706  rewardRate = reward.div(rewardsDuration) */\n      sstore\n        /* \"CoreContracts/StakingRewards.sol\":30615:30927  if (block.timestamp >= periodFinish) {... */\n      jump(tag_137)\n    tag_135:\n        /* \"CoreContracts/StakingRewards.sol\":30757:30769  periodFinish */\n      sload(0x04)\n        /* \"CoreContracts/StakingRewards.sol\":30737:30754  uint256 remaining */\n      0x00\n      swap1\n        /* \"CoreContracts/StakingRewards.sol\":30757:30790  periodFinish.sub(block.timestamp) */\n      tag_138\n      swap1\n        /* \"CoreContracts/StakingRewards.sol\":30774:30789  block.timestamp */\n      timestamp\n        /* \"CoreContracts/StakingRewards.sol\":30757:30773  periodFinish.sub */\n      tag_105\n        /* \"CoreContracts/StakingRewards.sol\":30757:30790  periodFinish.sub(block.timestamp) */\n      jump\t// in\n    tag_138:\n        /* \"CoreContracts/StakingRewards.sol\":30737:30790  uint256 remaining = periodFinish.sub(block.timestamp) */\n      swap1\n      pop\n        /* \"CoreContracts/StakingRewards.sol\":30804:30820  uint256 leftover */\n      0x00\n        /* \"CoreContracts/StakingRewards.sol\":30823:30848  remaining.mul(rewardRate) */\n      tag_139\n        /* \"CoreContracts/StakingRewards.sol\":30837:30847  rewardRate */\n      sload(0x05)\n        /* \"CoreContracts/StakingRewards.sol\":30823:30832  remaining */\n      dup4\n        /* \"CoreContracts/StakingRewards.sol\":30823:30836  remaining.mul */\n      tag_106\n      swap1\n        /* \"CoreContracts/StakingRewards.sol\":30823:30848  remaining.mul(rewardRate) */\n      swap2\n      swap1\n      0xffffffff\n      and\n      jump\t// in\n    tag_139:\n        /* \"CoreContracts/StakingRewards.sol\":30900:30915  rewardsDuration */\n      sload(0x06)\n        /* \"CoreContracts/StakingRewards.sol\":30804:30848  uint256 leftover = remaining.mul(rewardRate) */\n      swap1\n      swap2\n      pop\n        /* \"CoreContracts/StakingRewards.sol\":30875:30916  reward.add(leftover).div(rewardsDuration) */\n      tag_140\n      swap1\n        /* \"CoreContracts/StakingRewards.sol\":30875:30895  reward.add(leftover) */\n      tag_102\n        /* \"CoreContracts/StakingRewards.sol\":30875:30881  reward */\n      dup7\n        /* \"CoreContracts/StakingRewards.sol\":30804:30848  uint256 leftover = remaining.mul(rewardRate) */\n      dup5\n        /* \"CoreContracts/StakingRewards.sol\":30875:30885  reward.add */\n      tag_108\n        /* \"CoreContracts/StakingRewards.sol\":30875:30895  reward.add(leftover) */\n      jump\t// in\n        /* \"CoreContracts/StakingRewards.sol\":30875:30916  reward.add(leftover).div(rewardsDuration) */\n    tag_140:\n        /* \"CoreContracts/StakingRewards.sol\":30862:30872  rewardRate */\n      0x05\n        /* \"CoreContracts/StakingRewards.sol\":30862:30916  rewardRate = reward.add(leftover).div(rewardsDuration) */\n      sstore\n      pop\n      pop\n        /* \"CoreContracts/StakingRewards.sol\":30615:30927  if (block.timestamp >= periodFinish) {... */\n    tag_137:\n        /* \"CoreContracts/StakingRewards.sol\":31296:31308  rewardsToken */\n      sload(0x02)\n        /* \"CoreContracts/StakingRewards.sol\":31296:31333  rewardsToken.balanceOf(address(this)) */\n      0x40\n      dup1\n      mload\n      0x70a0823100000000000000000000000000000000000000000000000000000000\n      dup2\n      mstore\n        /* \"CoreContracts/StakingRewards.sol\":31327:31331  this */\n      address\n        /* \"CoreContracts/StakingRewards.sol\":31296:31333  rewardsToken.balanceOf(address(this)) */\n      0x04\n      dup3\n      add\n      mstore\n      swap1\n      mload\n        /* \"CoreContracts/StakingRewards.sol\":31281:31293  uint balance */\n      0x00\n      swap3\n      sub(shl(0xa0, 0x01), 0x01)\n        /* \"CoreContracts/StakingRewards.sol\":31296:31308  rewardsToken */\n      and\n      swap2\n        /* \"CoreContracts/StakingRewards.sol\":31296:31318  rewardsToken.balanceOf */\n      0x70a08231\n      swap2\n        /* \"CoreContracts/StakingRewards.sol\":31296:31333  rewardsToken.balanceOf(address(this)) */\n      0x24\n      dup1\n      dup4\n      add\n      swap3\n      0x20\n      swap3\n      swap2\n      swap1\n      dup3\n      swap1\n      sub\n      add\n      dup2\n        /* \"CoreContracts/StakingRewards.sol\":31296:31308  rewardsToken */\n      dup7\n        /* \"CoreContracts/StakingRewards.sol\":31296:31333  rewardsToken.balanceOf(address(this)) */\n      dup1\n      extcodesize\n      iszero\n      dup1\n      iszero\n      tag_142\n      jumpi\n      0x00\n      dup1\n      revert\n    tag_142:\n      pop\n      gas\n      staticcall\n      iszero\n      dup1\n      iszero\n      tag_144\n      jumpi\n      returndatasize\n      0x00\n      dup1\n      returndatacopy\n      revert(0x00, returndatasize)\n    tag_144:\n      pop\n      pop\n      pop\n      pop\n      mload(0x40)\n      returndatasize\n      0x20\n      dup2\n      lt\n      iszero\n      tag_145\n      jumpi\n      0x00\n      dup1\n      revert\n    tag_145:\n      pop\n      mload\n        /* \"CoreContracts/StakingRewards.sol\":31377:31392  rewardsDuration */\n      sload(0x06)\n        /* \"CoreContracts/StakingRewards.sol\":31296:31333  rewardsToken.balanceOf(address(this)) */\n      swap1\n      swap2\n      pop\n        /* \"CoreContracts/StakingRewards.sol\":31365:31393  balance.div(rewardsDuration) */\n      tag_146\n      swap1\n        /* \"CoreContracts/StakingRewards.sol\":31296:31333  rewardsToken.balanceOf(address(this)) */\n      dup3\n      swap1\n        /* \"CoreContracts/StakingRewards.sol\":31365:31376  balance.div */\n      tag_107\n        /* \"CoreContracts/StakingRewards.sol\":31365:31393  balance.div(rewardsDuration) */\n      jump\t// in\n    tag_146:\n        /* \"CoreContracts/StakingRewards.sol\":31351:31361  rewardRate */\n      sload(0x05)\n        /* \"CoreContracts/StakingRewards.sol\":31351:31393  rewardRate <= balance.div(rewardsDuration) */\n      gt\n      iszero\n        /* \"CoreContracts/StakingRewards.sol\":31343:31422  require(rewardRate <= balance.div(rewardsDuration), \"Provided reward too high\") */\n      tag_147\n      jumpi\n      0x40\n      dup1\n      mload\n      shl(0xe5, 0x461bcd)\n      dup2\n      mstore\n      0x20\n      0x04\n      dup3\n      add\n      mstore\n      0x18\n      0x24\n      dup3\n      add\n      mstore\n      0x50726f76696465642072657761726420746f6f20686967680000000000000000\n      0x44\n      dup3\n      add\n      mstore\n      swap1\n      mload\n      swap1\n      dup2\n      swap1\n      sub\n      0x64\n      add\n      swap1\n      revert\n    tag_147:\n        /* \"CoreContracts/StakingRewards.sol\":31450:31465  block.timestamp */\n      timestamp\n        /* \"CoreContracts/StakingRewards.sol\":31433:31447  lastUpdateTime */\n      0x07\n        /* \"CoreContracts/StakingRewards.sol\":31433:31465  lastUpdateTime = block.timestamp */\n      dup2\n      swap1\n      sstore\n        /* \"CoreContracts/StakingRewards.sol\":31510:31525  rewardsDuration */\n      sload(0x06)\n        /* \"CoreContracts/StakingRewards.sol\":31490:31526  block.timestamp.add(rewardsDuration) */\n      tag_148\n      swap2\n        /* \"CoreContracts/StakingRewards.sol\":31450:31465  block.timestamp */\n      swap1\n        /* \"CoreContracts/StakingRewards.sol\":31490:31509  block.timestamp.add */\n      tag_108\n        /* \"CoreContracts/StakingRewards.sol\":31490:31526  block.timestamp.add(rewardsDuration) */\n      jump\t// in\n    tag_148:\n        /* \"CoreContracts/StakingRewards.sol\":31475:31487  periodFinish */\n      0x04\n        /* \"CoreContracts/StakingRewards.sol\":31475:31526  periodFinish = block.timestamp.add(rewardsDuration) */\n      sstore\n        /* \"CoreContracts/StakingRewards.sol\":31541:31560  RewardAdded(reward) */\n      0x40\n      dup1\n      mload\n      dup5\n      dup2\n      mstore\n      swap1\n      mload\n      0xde88a922e0d3b88b24e9623efeb464919c6bf9f66857a65e2bfcf2ce87a9433d\n      swap2\n      dup2\n      swap1\n      sub\n      0x20\n      add\n      swap1\n      log1\n        /* \"CoreContracts/StakingRewards.sol\":32786:32787  _ */\n      pop\n        /* \"CoreContracts/StakingRewards.sol\":2427:2428  _ */\n      pop\n        /* \"CoreContracts/StakingRewards.sol\":30517:31567  function notifyRewardAmount(uint256 reward) external onlyOwner updateReward(address(0)) {... */\n      pop\n      jump\t// out\n        /* \"CoreContracts/StakingRewards.sol\":29974:30274  function getReward() public nonReentrant updateReward(msg.sender) {... */\n    tag_55:\n        /* \"CoreContracts/StakingRewards.sol\":24417:24418  2 */\n      0x02\n        /* \"CoreContracts/StakingRewards.sol\":25006:25013  _status */\n      sload(0x00)\n        /* \"CoreContracts/StakingRewards.sol\":25006:25025  _status != _ENTERED */\n      eq\n      iszero\n        /* \"CoreContracts/StakingRewards.sol\":24998:25061  require(_status != _ENTERED, \"ReentrancyGuard: reentrant call\") */\n      tag_150\n      jumpi\n      0x40\n      dup1\n      mload\n      shl(0xe5, 0x461bcd)\n      dup2\n      mstore\n      0x20\n      0x04\n      dup3\n      add\n      mstore\n      0x1f\n      0x24\n      dup3\n      add\n      mstore\n      0x5265656e7472616e637947756172643a207265656e7472616e742063616c6c00\n      0x44\n      dup3\n      add\n      mstore\n      swap1\n      mload\n      swap1\n      dup2\n      swap1\n      sub\n      0x64\n      add\n      swap1\n      revert\n    tag_150:\n        /* \"CoreContracts/StakingRewards.sol\":24417:24418  2 */\n      0x02\n        /* \"CoreContracts/StakingRewards.sol\":25136:25143  _status */\n      0x00\n        /* \"CoreContracts/StakingRewards.sol\":25136:25154  _status = _ENTERED */\n      sstore\n        /* \"CoreContracts/StakingRewards.sol\":30028:30038  msg.sender */\n      caller\n        /* \"CoreContracts/StakingRewards.sol\":32544:32560  rewardPerToken() */\n      tag_152\n        /* \"CoreContracts/StakingRewards.sol\":32544:32558  rewardPerToken */\n      tag_84\n        /* \"CoreContracts/StakingRewards.sol\":32544:32560  rewardPerToken() */\n      jump\t// in\n    tag_152:\n        /* \"CoreContracts/StakingRewards.sol\":32521:32541  rewardPerTokenStored */\n      0x08\n        /* \"CoreContracts/StakingRewards.sol\":32521:32560  rewardPerTokenStored = rewardPerToken() */\n      sstore\n        /* \"CoreContracts/StakingRewards.sol\":32587:32613  lastTimeRewardApplicable() */\n      tag_153\n        /* \"CoreContracts/StakingRewards.sol\":32587:32611  lastTimeRewardApplicable */\n      tag_66\n        /* \"CoreContracts/StakingRewards.sol\":32587:32613  lastTimeRewardApplicable() */\n      jump\t// in\n    tag_153:\n        /* \"CoreContracts/StakingRewards.sol\":32570:32584  lastUpdateTime */\n      0x07\n        /* \"CoreContracts/StakingRewards.sol\":32570:32613  lastUpdateTime = lastTimeRewardApplicable() */\n      sstore\n      sub(shl(0xa0, 0x01), 0x01)\n        /* \"CoreContracts/StakingRewards.sol\":32627:32648  account != address(0) */\n      dup2\n      and\n      iszero\n        /* \"CoreContracts/StakingRewards.sol\":32623:32777  if (account != address(0)) {... */\n      tag_154\n      jumpi\n        /* \"CoreContracts/StakingRewards.sol\":32683:32698  earned(account) */\n      tag_155\n        /* \"CoreContracts/StakingRewards.sol\":32690:32697  account */\n      dup2\n        /* \"CoreContracts/StakingRewards.sol\":32683:32689  earned */\n      tag_38\n        /* \"CoreContracts/StakingRewards.sol\":32683:32698  earned(account) */\n      jump\t// in\n    tag_155:\n      sub(shl(0xa0, 0x01), 0x01)\n        /* \"CoreContracts/StakingRewards.sol\":32664:32680  rewards[account] */\n      dup3\n      and\n      0x00\n      swap1\n      dup2\n      mstore\n        /* \"CoreContracts/StakingRewards.sol\":32664:32671  rewards */\n      0x0a\n        /* \"CoreContracts/StakingRewards.sol\":32664:32680  rewards[account] */\n      0x20\n      swap1\n      dup2\n      mstore\n      0x40\n      dup1\n      dup4\n      keccak256\n        /* \"CoreContracts/StakingRewards.sol\":32664:32698  rewards[account] = earned(account) */\n      swap4\n      swap1\n      swap4\n      sstore\n        /* \"CoreContracts/StakingRewards.sol\":32746:32766  rewardPerTokenStored */\n      sload(0x08)\n        /* \"CoreContracts/StakingRewards.sol\":32712:32734  userRewardPerTokenPaid */\n      0x09\n        /* \"CoreContracts/StakingRewards.sol\":32712:32743  userRewardPerTokenPaid[account] */\n      swap1\n      swap2\n      mstore\n      swap2\n      swap1\n      keccak256\n        /* \"CoreContracts/StakingRewards.sol\":32712:32766  userRewardPerTokenPaid[account] = rewardPerTokenStored */\n      sstore\n        /* \"CoreContracts/StakingRewards.sol\":32623:32777  if (account != address(0)) {... */\n    tag_154:\n        /* \"CoreContracts/StakingRewards.sol\":30075:30085  msg.sender */\n      caller\n        /* \"CoreContracts/StakingRewards.sol\":30050:30064  uint256 reward */\n      0x00\n        /* \"CoreContracts/StakingRewards.sol\":30067:30086  rewards[msg.sender] */\n      swap1\n      dup2\n      mstore\n        /* \"CoreContracts/StakingRewards.sol\":30067:30074  rewards */\n      0x0a\n        /* \"CoreContracts/StakingRewards.sol\":30067:30086  rewards[msg.sender] */\n      0x20\n      mstore\n      0x40\n      swap1\n      keccak256\n      sload\n        /* \"CoreContracts/StakingRewards.sol\":30100:30110  reward > 0 */\n      dup1\n      iszero\n        /* \"CoreContracts/StakingRewards.sol\":30096:30268  if (reward > 0) {... */\n      tag_157\n      jumpi\n        /* \"CoreContracts/StakingRewards.sol\":30134:30144  msg.sender */\n      caller\n        /* \"CoreContracts/StakingRewards.sol\":30148:30149  0 */\n      0x00\n        /* \"CoreContracts/StakingRewards.sol\":30126:30145  rewards[msg.sender] */\n      dup2\n      dup2\n      mstore\n        /* \"CoreContracts/StakingRewards.sol\":30126:30133  rewards */\n      0x0a\n        /* \"CoreContracts/StakingRewards.sol\":30126:30145  rewards[msg.sender] */\n      0x20\n      mstore\n      0x40\n      dup2\n      keccak256\n        /* \"CoreContracts/StakingRewards.sol\":30126:30149  rewards[msg.sender] = 0 */\n      sstore\n        /* \"CoreContracts/StakingRewards.sol\":30163:30175  rewardsToken */\n      sload(0x02)\n        /* \"CoreContracts/StakingRewards.sol\":30163:30208  rewardsToken.safeTransfer(msg.sender, reward) */\n      tag_158\n      swap2\n      sub(shl(0xa0, 0x01), 0x01)\n        /* \"CoreContracts/StakingRewards.sol\":30163:30175  rewardsToken */\n      swap1\n      swap2\n      and\n      swap1\n        /* \"CoreContracts/StakingRewards.sol\":30201:30207  reward */\n      dup4\n        /* \"CoreContracts/StakingRewards.sol\":30163:30188  rewardsToken.safeTransfer */\n      tag_124\n        /* \"CoreContracts/StakingRewards.sol\":30163:30208  rewardsToken.safeTransfer(msg.sender, reward) */\n      jump\t// in\n    tag_158:\n        /* \"CoreContracts/StakingRewards.sol\":30227:30257  RewardPaid(msg.sender, reward) */\n      0x40\n      dup1\n      mload\n      dup3\n      dup2\n      mstore\n      swap1\n      mload\n        /* \"CoreContracts/StakingRewards.sol\":30238:30248  msg.sender */\n      caller\n      swap2\n        /* \"CoreContracts/StakingRewards.sol\":30227:30257  RewardPaid(msg.sender, reward) */\n      0xe2403640ba68fed3a2f88b7557551d1993f84b99bb10ff833f0cf8db0c5e0486\n      swap2\n      swap1\n      dup2\n      swap1\n      sub\n      0x20\n      add\n      swap1\n      log2\n        /* \"CoreContracts/StakingRewards.sol\":30096:30268  if (reward > 0) {... */\n    tag_157:\n      pop\n      pop\n        /* \"CoreContracts/StakingRewards.sol\":24374:24375  1 */\n      0x01\n        /* \"CoreContracts/StakingRewards.sol\":25309:25316  _status */\n      0x00\n        /* \"CoreContracts/StakingRewards.sol\":25309:25331  _status = _NOT_ENTERED */\n      sstore\n        /* \"CoreContracts/StakingRewards.sol\":29974:30274  function getReward() public nonReentrant updateReward(msg.sender) {... */\n      jump\t// out\n        /* \"CoreContracts/StakingRewards.sol\":27737:27847  function balanceOf(address account) external view returns (uint256) {... */\n    tag_58:\n      sub(shl(0xa0, 0x01), 0x01)\n        /* \"CoreContracts/StakingRewards.sol\":27822:27840  _balances[account] */\n      and\n        /* \"CoreContracts/StakingRewards.sol\":27796:27803  uint256 */\n      0x00\n        /* \"CoreContracts/StakingRewards.sol\":27822:27840  _balances[account] */\n      swap1\n      dup2\n      mstore\n        /* \"CoreContracts/StakingRewards.sol\":27822:27831  _balances */\n      0x0c\n        /* \"CoreContracts/StakingRewards.sol\":27822:27840  _balances[account] */\n      0x20\n      mstore\n      0x40\n      swap1\n      keccak256\n      sload\n      swap1\n        /* \"CoreContracts/StakingRewards.sol\":27737:27847  function balanceOf(address account) external view returns (uint256) {... */\n      jump\t// out\n        /* \"CoreContracts/StakingRewards.sol\":2777:2922  function renounceOwnership() public virtual onlyOwner {... */\n    tag_60:\n        /* \"CoreContracts/StakingRewards.sol\":2368:2380  _msgSender() */\n      tag_161\n        /* \"CoreContracts/StakingRewards.sol\":2368:2378  _msgSender */\n      tag_127\n        /* \"CoreContracts/StakingRewards.sol\":2368:2380  _msgSender() */\n      jump\t// in\n    tag_161:\n        /* \"CoreContracts/StakingRewards.sol\":2358:2364  _owner */\n      sload(0x01)\n      sub(shl(0xa0, 0x01), 0x01)\n      swap1\n      dup2\n      and\n        /* \"CoreContracts/StakingRewards.sol\":2358:2380  _owner == _msgSender() */\n      swap2\n      and\n      eq\n        /* \"CoreContracts/StakingRewards.sol\":2350:2417  require(_owner == _msgSender(), \"Ownable: caller is not the owner\") */\n      tag_162\n      jumpi\n      0x40\n      dup1\n      mload\n      shl(0xe5, 0x461bcd)\n      dup2\n      mstore\n      0x20\n      0x04\n      dup3\n      add\n      dup2\n      swap1\n      mstore\n      0x24\n      dup3\n      add\n      mstore\n      0x4f776e61626c653a2063616c6c6572206973206e6f7420746865206f776e6572\n      0x44\n      dup3\n      add\n      mstore\n      swap1\n      mload\n      swap1\n      dup2\n      swap1\n      sub\n      0x64\n      add\n      swap1\n      revert\n    tag_162:\n        /* \"CoreContracts/StakingRewards.sol\":2867:2873  _owner */\n      sload(0x01)\n        /* \"CoreContracts/StakingRewards.sol\":2846:2886  OwnershipTransferred(_owner, address(0)) */\n      mload(0x40)\n        /* \"CoreContracts/StakingRewards.sol\":2883:2884  0 */\n      0x00\n      swap2\n      sub(shl(0xa0, 0x01), 0x01)\n        /* \"CoreContracts/StakingRewards.sol\":2867:2873  _owner */\n      and\n      swap1\n        /* \"CoreContracts/StakingRewards.sol\":2846:2886  OwnershipTransferred(_owner, address(0)) */\n      0x8be0079c531659141344cd1fd0a4f28419497f9722a3daafe3b4186f6b6457e0\n      swap1\n        /* \"CoreContracts/StakingRewards.sol\":2883:2884  0 */\n      dup4\n      swap1\n        /* \"CoreContracts/StakingRewards.sol\":2846:2886  OwnershipTransferred(_owner, address(0)) */\n      log3\n        /* \"CoreContracts/StakingRewards.sol\":2896:2902  _owner */\n      0x01\n        /* \"CoreContracts/StakingRewards.sol\":2896:2915  _owner = address(0) */\n      dup1\n      sload\n      not(0xffffffffffffffffffffffffffffffffffffffff)\n      and\n      swap1\n      sstore\n        /* \"CoreContracts/StakingRewards.sol\":2777:2922  function renounceOwnership() public virtual onlyOwner {... */\n      jump\t// out\n        /* \"CoreContracts/StakingRewards.sol\":26940:26966  IERC20 public stakingToken */\n    tag_62:\n      and(sub(shl(0xa0, 0x01), 0x01), sload(0x03))\n      dup2\n      jump\t// out\n        /* \"CoreContracts/StakingRewards.sol\":27009:27038  uint256 public rewardRate = 0 */\n    tag_64:\n      sload(0x05)\n      dup2\n      jump\t// out\n        /* \"CoreContracts/StakingRewards.sol\":27853:27982  function lastTimeRewardApplicable() public view returns (uint256) {... */\n    tag_66:\n        /* \"CoreContracts/StakingRewards.sol\":27910:27917  uint256 */\n      0x00\n        /* \"CoreContracts/StakingRewards.sol\":27936:27975  Math.min(block.timestamp, periodFinish) */\n      tag_111\n        /* \"CoreContracts/StakingRewards.sol\":27945:27960  block.timestamp */\n      timestamp\n        /* \"CoreContracts/StakingRewards.sol\":27962:27974  periodFinish */\n      sload(0x04)\n        /* \"CoreContracts/StakingRewards.sol\":27936:27944  Math.min */\n      tag_166\n        /* \"CoreContracts/StakingRewards.sol\":27936:27975  Math.min(block.timestamp, periodFinish) */\n      jump\t// in\n        /* \"CoreContracts/StakingRewards.sol\":31679:31992  function recoverERC20(address tokenAddress, uint256 tokenAmount) external onlyOwner nonReentrant {... */\n    tag_69:\n        /* \"CoreContracts/StakingRewards.sol\":2368:2380  _msgSender() */\n      tag_168\n        /* \"CoreContracts/StakingRewards.sol\":2368:2378  _msgSender */\n      tag_127\n        /* \"CoreContracts/StakingRewards.sol\":2368:2380  _msgSender() */\n      jump\t// in\n    tag_168:\n        /* \"CoreContracts/StakingRewards.sol\":2358:2364  _owner */\n      sload(0x01)\n      sub(shl(0xa0, 0x01), 0x01)\n      swap1\n      dup2\n      and\n        /* \"CoreContracts/StakingRewards.sol\":2358:2380  _owner == _msgSender() */\n      swap2\n      and\n      eq\n        /* \"CoreContracts/StakingRewards.sol\":2350:2417  require(_owner == _msgSender(), \"Ownable: caller is not the owner\") */\n      tag_169\n      jumpi\n      0x40\n      dup1\n      mload\n      shl(0xe5, 0x461bcd)\n      dup2\n      mstore\n      0x20\n      0x04\n      dup3\n      add\n      dup2\n      swap1\n      mstore\n      0x24\n      dup3\n      add\n      mstore\n      0x4f776e61626c653a2063616c6c6572206973206e6f7420746865206f776e6572\n      0x44\n      dup3\n      add\n      mstore\n      swap1\n      mload\n      swap1\n      dup2\n      swap1\n      sub\n      0x64\n      add\n      swap1\n      revert\n    tag_169:\n        /* \"CoreContracts/StakingRewards.sol\":24417:24418  2 */\n      0x02\n        /* \"CoreContracts/StakingRewards.sol\":25006:25013  _status */\n      sload(0x00)\n        /* \"CoreContracts/StakingRewards.sol\":25006:25025  _status != _ENTERED */\n      eq\n      iszero\n        /* \"CoreContracts/StakingRewards.sol\":24998:25061  require(_status != _ENTERED, \"ReentrancyGuard: reentrant call\") */\n      tag_171\n      jumpi\n      0x40\n      dup1\n      mload\n      shl(0xe5, 0x461bcd)\n      dup2\n      mstore\n      0x20\n      0x04\n      dup3\n      add\n      mstore\n      0x1f\n      0x24\n      dup3\n      add\n      mstore\n      0x5265656e7472616e637947756172643a207265656e7472616e742063616c6c00\n      0x44\n      dup3\n      add\n      mstore\n      swap1\n      mload\n      swap1\n      dup2\n      swap1\n      sub\n      0x64\n      add\n      swap1\n      revert\n    tag_171:\n        /* \"CoreContracts/StakingRewards.sol\":24417:24418  2 */\n      0x02\n        /* \"CoreContracts/StakingRewards.sol\":25136:25143  _status */\n      0x00\n        /* \"CoreContracts/StakingRewards.sol\":25136:25154  _status = _ENTERED */\n      sstore\n        /* \"CoreContracts/StakingRewards.sol\":31818:31830  stakingToken */\n      sload(0x03)\n      sub(shl(0xa0, 0x01), 0x01)\n        /* \"CoreContracts/StakingRewards.sol\":31794:31831  tokenAddress != address(stakingToken) */\n      dup4\n      dup2\n      and\n        /* \"CoreContracts/StakingRewards.sol\":31818:31830  stakingToken */\n      swap2\n      and\n        /* \"CoreContracts/StakingRewards.sol\":31794:31831  tokenAddress != address(stakingToken) */\n      eq\n      iszero\n        /* \"CoreContracts/StakingRewards.sol\":31786:31869  require(tokenAddress != address(stakingToken), \"Cannot withdraw the staking token\") */\n      tag_173\n      jumpi\n      mload(0x40)\n      shl(0xe5, 0x461bcd)\n      dup2\n      mstore\n      0x04\n      add\n      dup1\n      dup1\n      0x20\n      add\n      dup3\n      dup2\n      sub\n      dup3\n      mstore\n      0x21\n      dup2\n      mstore\n      0x20\n      add\n      dup1\n      data_f43de9f2a3539b2ac9cf1844588e9cc0acd1b2bdb1ec43734f76440993ede0a9\n      0x21\n      swap2\n      codecopy\n      0x40\n      add\n      swap2\n      pop\n      pop\n      mload(0x40)\n      dup1\n      swap2\n      sub\n      swap1\n      revert\n    tag_173:\n        /* \"CoreContracts/StakingRewards.sol\":31879:31934  IERC20(tokenAddress).safeTransfer(owner(), tokenAmount) */\n      tag_174\n        /* \"CoreContracts/StakingRewards.sol\":31913:31920  owner() */\n      tag_175\n        /* \"CoreContracts/StakingRewards.sol\":31913:31918  owner */\n      tag_74\n        /* \"CoreContracts/StakingRewards.sol\":31913:31920  owner() */\n      jump\t// in\n    tag_175:\n      sub(shl(0xa0, 0x01), 0x01)\n        /* \"CoreContracts/StakingRewards.sol\":31879:31912  IERC20(tokenAddress).safeTransfer */\n      dup5\n      and\n      swap1\n        /* \"CoreContracts/StakingRewards.sol\":31922:31933  tokenAmount */\n      dup4\n        /* \"CoreContracts/StakingRewards.sol\":31879:31912  IERC20(tokenAddress).safeTransfer */\n      tag_124\n        /* \"CoreContracts/StakingRewards.sol\":31879:31934  IERC20(tokenAddress).safeTransfer(owner(), tokenAmount) */\n      jump\t// in\n    tag_174:\n        /* \"CoreContracts/StakingRewards.sol\":31949:31985  Recovered(tokenAddress, tokenAmount) */\n      0x40\n      dup1\n      mload\n      sub(shl(0xa0, 0x01), 0x01)\n      dup5\n      and\n      dup2\n      mstore\n      0x20\n      dup2\n      add\n      dup4\n      swap1\n      mstore\n      dup2\n      mload\n      0x8c1256b8896378cd5044f80c202f9772b9d77dc85c8a6eb51967210b09bfaa28\n      swap3\n      swap2\n      dup2\n      swap1\n      sub\n      swap1\n      swap2\n      add\n      swap1\n      log1\n      pop\n      pop\n        /* \"CoreContracts/StakingRewards.sol\":24374:24375  1 */\n      0x01\n        /* \"CoreContracts/StakingRewards.sol\":25309:25316  _status */\n      0x00\n        /* \"CoreContracts/StakingRewards.sol\":25309:25331  _status = _NOT_ENTERED */\n      sstore\n        /* \"CoreContracts/StakingRewards.sol\":31679:31992  function recoverERC20(address tokenAddress, uint256 tokenAmount) external onlyOwner nonReentrant {... */\n      jump\t// out\n        /* \"CoreContracts/StakingRewards.sol\":27166:27223  mapping(address => uint256) public userRewardPerTokenPaid */\n    tag_72:\n      mstore(0x20, 0x09)\n      0x00\n      swap1\n      dup2\n      mstore\n      0x40\n      swap1\n      keccak256\n      sload\n      dup2\n      jump\t// out\n        /* \"CoreContracts/StakingRewards.sol\":2154:2231  function owner() public view returns (address) {... */\n    tag_74:\n        /* \"CoreContracts/StakingRewards.sol\":2218:2224  _owner */\n      and(sub(shl(0xa0, 0x01), 0x01), sload(0x01))\n        /* \"CoreContracts/StakingRewards.sol\":2154:2231  function owner() public view returns (address) {... */\n      swap1\n      jump\t// out\n        /* \"CoreContracts/StakingRewards.sol\":29248:29611  function stake(uint256 amount) external nonReentrant updateReward(msg.sender) {... */\n    tag_77:\n        /* \"CoreContracts/StakingRewards.sol\":24417:24418  2 */\n      0x02\n        /* \"CoreContracts/StakingRewards.sol\":25006:25013  _status */\n      sload(0x00)\n        /* \"CoreContracts/StakingRewards.sol\":25006:25025  _status != _ENTERED */\n      eq\n      iszero\n        /* \"CoreContracts/StakingRewards.sol\":24998:25061  require(_status != _ENTERED, \"ReentrancyGuard: reentrant call\") */\n      tag_178\n      jumpi\n      0x40\n      dup1\n      mload\n      shl(0xe5, 0x461bcd)\n      dup2\n      mstore\n      0x20\n      0x04\n      dup3\n      add\n      mstore\n      0x1f\n      0x24\n      dup3\n      add\n      mstore\n      0x5265656e7472616e637947756172643a207265656e7472616e742063616c6c00\n      0x44\n      dup3\n      add\n      mstore\n      swap1\n      mload\n      swap1\n      dup2\n      swap1\n      sub\n      0x64\n      add\n      swap1\n      revert\n    tag_178:\n        /* \"CoreContracts/StakingRewards.sol\":24417:24418  2 */\n      0x02\n        /* \"CoreContracts/StakingRewards.sol\":25136:25143  _status */\n      0x00\n        /* \"CoreContracts/StakingRewards.sol\":25136:25154  _status = _ENTERED */\n      sstore\n        /* \"CoreContracts/StakingRewards.sol\":29314:29324  msg.sender */\n      caller\n        /* \"CoreContracts/StakingRewards.sol\":32544:32560  rewardPerToken() */\n      tag_180\n        /* \"CoreContracts/StakingRewards.sol\":32544:32558  rewardPerToken */\n      tag_84\n        /* \"CoreContracts/StakingRewards.sol\":32544:32560  rewardPerToken() */\n      jump\t// in\n    tag_180:\n        /* \"CoreContracts/StakingRewards.sol\":32521:32541  rewardPerTokenStored */\n      0x08\n        /* \"CoreContracts/StakingRewards.sol\":32521:32560  rewardPerTokenStored = rewardPerToken() */\n      sstore\n        /* \"CoreContracts/StakingRewards.sol\":32587:32613  lastTimeRewardApplicable() */\n      tag_181\n        /* \"CoreContracts/StakingRewards.sol\":32587:32611  lastTimeRewardApplicable */\n      tag_66\n        /* \"CoreContracts/StakingRewards.sol\":32587:32613  lastTimeRewardApplicable() */\n      jump\t// in\n    tag_181:\n        /* \"CoreContracts/StakingRewards.sol\":32570:32584  lastUpdateTime */\n      0x07\n        /* \"CoreContracts/StakingRewards.sol\":32570:32613  lastUpdateTime = lastTimeRewardApplicable() */\n      sstore\n      sub(shl(0xa0, 0x01), 0x01)\n        /* \"CoreContracts/StakingRewards.sol\":32627:32648  account != address(0) */\n      dup2\n      and\n      iszero\n        /* \"CoreContracts/StakingRewards.sol\":32623:32777  if (account != address(0)) {... */\n      tag_182\n      jumpi\n        /* \"CoreContracts/StakingRewards.sol\":32683:32698  earned(account) */\n      tag_183\n        /* \"CoreContracts/StakingRewards.sol\":32690:32697  account */\n      dup2\n        /* \"CoreContracts/StakingRewards.sol\":32683:32689  earned */\n      tag_38\n        /* \"CoreContracts/StakingRewards.sol\":32683:32698  earned(account) */\n      jump\t// in\n    tag_183:\n      sub(shl(0xa0, 0x01), 0x01)\n        /* \"CoreContracts/StakingRewards.sol\":32664:32680  rewards[account] */\n      dup3\n      and\n      0x00\n      swap1\n      dup2\n      mstore\n        /* \"CoreContracts/StakingRewards.sol\":32664:32671  rewards */\n      0x0a\n        /* \"CoreContracts/StakingRewards.sol\":32664:32680  rewards[account] */\n      0x20\n      swap1\n      dup2\n      mstore\n      0x40\n      dup1\n      dup4\n      keccak256\n        /* \"CoreContracts/StakingRewards.sol\":32664:32698  rewards[account] = earned(account) */\n      swap4\n      swap1\n      swap4\n      sstore\n        /* \"CoreContracts/StakingRewards.sol\":32746:32766  rewardPerTokenStored */\n      sload(0x08)\n        /* \"CoreContracts/StakingRewards.sol\":32712:32734  userRewardPerTokenPaid */\n      0x09\n        /* \"CoreContracts/StakingRewards.sol\":32712:32743  userRewardPerTokenPaid[account] */\n      swap1\n      swap2\n      mstore\n      swap2\n      swap1\n      keccak256\n        /* \"CoreContracts/StakingRewards.sol\":32712:32766  userRewardPerTokenPaid[account] = rewardPerTokenStored */\n      sstore\n        /* \"CoreContracts/StakingRewards.sol\":32623:32777  if (account != address(0)) {... */\n    tag_182:\n        /* \"CoreContracts/StakingRewards.sol\":29353:29354  0 */\n      0x00\n        /* \"CoreContracts/StakingRewards.sol\":29344:29350  amount */\n      dup3\n        /* \"CoreContracts/StakingRewards.sol\":29344:29354  amount > 0 */\n      gt\n        /* \"CoreContracts/StakingRewards.sol\":29336:29373  require(amount > 0, \"Cannot stake 0\") */\n      tag_185\n      jumpi\n      0x40\n      dup1\n      mload\n      shl(0xe5, 0x461bcd)\n      dup2\n      mstore\n      0x20\n      0x04\n      dup3\n      add\n      mstore\n      0x0e\n      0x24\n      dup3\n      add\n      mstore\n      0x43616e6e6f74207374616b652030000000000000000000000000000000000000\n      0x44\n      dup3\n      add\n      mstore\n      swap1\n      mload\n      swap1\n      dup2\n      swap1\n      sub\n      0x64\n      add\n      swap1\n      revert\n    tag_185:\n        /* \"CoreContracts/StakingRewards.sol\":29398:29410  _totalSupply */\n      sload(0x0b)\n        /* \"CoreContracts/StakingRewards.sol\":29398:29422  _totalSupply.add(amount) */\n      tag_186\n      swap1\n        /* \"CoreContracts/StakingRewards.sol\":29415:29421  amount */\n      dup4\n        /* \"CoreContracts/StakingRewards.sol\":29398:29414  _totalSupply.add */\n      tag_108\n        /* \"CoreContracts/StakingRewards.sol\":29398:29422  _totalSupply.add(amount) */\n      jump\t// in\n    tag_186:\n        /* \"CoreContracts/StakingRewards.sol\":29383:29395  _totalSupply */\n      0x0b\n        /* \"CoreContracts/StakingRewards.sol\":29383:29422  _totalSupply = _totalSupply.add(amount) */\n      sstore\n        /* \"CoreContracts/StakingRewards.sol\":29466:29476  msg.sender */\n      caller\n        /* \"CoreContracts/StakingRewards.sol\":29456:29477  _balances[msg.sender] */\n      0x00\n      swap1\n      dup2\n      mstore\n        /* \"CoreContracts/StakingRewards.sol\":29456:29465  _balances */\n      0x0c\n        /* \"CoreContracts/StakingRewards.sol\":29456:29477  _balances[msg.sender] */\n      0x20\n      mstore\n      0x40\n      swap1\n      keccak256\n      sload\n        /* \"CoreContracts/StakingRewards.sol\":29456:29489  _balances[msg.sender].add(amount) */\n      tag_187\n      swap1\n        /* \"CoreContracts/StakingRewards.sol\":29482:29488  amount */\n      dup4\n        /* \"CoreContracts/StakingRewards.sol\":29456:29481  _balances[msg.sender].add */\n      tag_108\n        /* \"CoreContracts/StakingRewards.sol\":29456:29489  _balances[msg.sender].add(amount) */\n      jump\t// in\n    tag_187:\n        /* \"CoreContracts/StakingRewards.sol\":29442:29452  msg.sender */\n      caller\n        /* \"CoreContracts/StakingRewards.sol\":29432:29453  _balances[msg.sender] */\n      0x00\n      dup2\n      dup2\n      mstore\n        /* \"CoreContracts/StakingRewards.sol\":29432:29441  _balances */\n      0x0c\n        /* \"CoreContracts/StakingRewards.sol\":29432:29453  _balances[msg.sender] */\n      0x20\n      mstore\n      0x40\n      swap1\n      keccak256\n        /* \"CoreContracts/StakingRewards.sol\":29432:29489  _balances[msg.sender] = _balances[msg.sender].add(amount) */\n      swap2\n      swap1\n      swap2\n      sstore\n        /* \"CoreContracts/StakingRewards.sol\":29499:29511  stakingToken */\n      sload(0x03)\n        /* \"CoreContracts/StakingRewards.sol\":29499:29563  stakingToken.safeTransferFrom(msg.sender, address(this), amount) */\n      tag_188\n      swap2\n      sub(shl(0xa0, 0x01), 0x01)\n        /* \"CoreContracts/StakingRewards.sol\":29499:29511  stakingToken */\n      swap1\n      swap2\n      and\n      swap1\n        /* \"CoreContracts/StakingRewards.sol\":29549:29553  this */\n      address\n        /* \"CoreContracts/StakingRewards.sol\":29556:29562  amount */\n      dup6\n        /* \"CoreContracts/StakingRewards.sol\":29499:29528  stakingToken.safeTransferFrom */\n      tag_189\n        /* \"CoreContracts/StakingRewards.sol\":29499:29563  stakingToken.safeTransferFrom(msg.sender, address(this), amount) */\n      jump\t// in\n    tag_188:\n        /* \"CoreContracts/StakingRewards.sol\":29578:29604  Staked(msg.sender, amount) */\n      0x40\n      dup1\n      mload\n      dup4\n      dup2\n      mstore\n      swap1\n      mload\n        /* \"CoreContracts/StakingRewards.sol\":29585:29595  msg.sender */\n      caller\n      swap2\n        /* \"CoreContracts/StakingRewards.sol\":29578:29604  Staked(msg.sender, amount) */\n      0x9e71bc8eea02a63969f509818f2dafb9254532904319f9dbda79b67bd34a5f3d\n      swap2\n      swap1\n      dup2\n      swap1\n      sub\n      0x20\n      add\n      swap1\n      log2\n      pop\n      pop\n        /* \"CoreContracts/StakingRewards.sol\":24374:24375  1 */\n      0x01\n        /* \"CoreContracts/StakingRewards.sol\":25309:25316  _status */\n      0x00\n        /* \"CoreContracts/StakingRewards.sol\":25309:25331  _status = _NOT_ENTERED */\n      sstore\n        /* \"CoreContracts/StakingRewards.sol\":29248:29611  function stake(uint256 amount) external nonReentrant updateReward(msg.sender) {... */\n      jump\t// out\n        /* \"CoreContracts/StakingRewards.sol\":27089:27118  uint256 public lastUpdateTime */\n    tag_79:\n      sload(0x07)\n      dup2\n      jump\t// out\n        /* \"CoreContracts/StakingRewards.sol\":31998:32423  function setRewardsDuration(uint256 _rewardsDuration) external onlyOwner {... */\n    tag_82:\n        /* \"CoreContracts/StakingRewards.sol\":2368:2380  _msgSender() */\n      tag_191\n        /* \"CoreContracts/StakingRewards.sol\":2368:2378  _msgSender */\n      tag_127\n        /* \"CoreContracts/StakingRewards.sol\":2368:2380  _msgSender() */\n      jump\t// in\n    tag_191:\n        /* \"CoreContracts/StakingRewards.sol\":2358:2364  _owner */\n      sload(0x01)\n      sub(shl(0xa0, 0x01), 0x01)\n      swap1\n      dup2\n      and\n        /* \"CoreContracts/StakingRewards.sol\":2358:2380  _owner == _msgSender() */\n      swap2\n      and\n      eq\n        /* \"CoreContracts/StakingRewards.sol\":2350:2417  require(_owner == _msgSender(), \"Ownable: caller is not the owner\") */\n      tag_192\n      jumpi\n      0x40\n      dup1\n      mload\n      shl(0xe5, 0x461bcd)\n      dup2\n      mstore\n      0x20\n      0x04\n      dup3\n      add\n      dup2\n      swap1\n      mstore\n      0x24\n      dup3\n      add\n      mstore\n      0x4f776e61626c653a2063616c6c6572206973206e6f7420746865206f776e6572\n      0x44\n      dup3\n      add\n      mstore\n      swap1\n      mload\n      swap1\n      dup2\n      swap1\n      sub\n      0x64\n      add\n      swap1\n      revert\n    tag_192:\n        /* \"CoreContracts/StakingRewards.sol\":32120:32132  periodFinish */\n      sload(0x04)\n        /* \"CoreContracts/StakingRewards.sol\":32102:32117  block.timestamp */\n      timestamp\n        /* \"CoreContracts/StakingRewards.sol\":32102:32132  block.timestamp > periodFinish */\n      gt\n        /* \"CoreContracts/StakingRewards.sol\":32081:32246  require(... */\n      tag_194\n      jumpi\n      mload(0x40)\n      shl(0xe5, 0x461bcd)\n      dup2\n      mstore\n      0x04\n      add\n      dup1\n      dup1\n      0x20\n      add\n      dup3\n      dup2\n      sub\n      dup3\n      mstore\n      0x58\n      dup2\n      mstore\n      0x20\n      add\n      dup1\n      data_07f2725172f5941b576a01ec7036d341e0c837e280f27b110cb3e6fd2f2c4a56\n      0x58\n      swap2\n      codecopy\n      0x60\n      add\n      swap2\n      pop\n      pop\n      mload(0x40)\n      dup1\n      swap2\n      sub\n      swap1\n      revert\n    tag_194:\n        /* \"CoreContracts/StakingRewards.sol\":32283:32284  0 */\n      0x00\n        /* \"CoreContracts/StakingRewards.sol\":32264:32280  _rewardsDuration */\n      dup2\n        /* \"CoreContracts/StakingRewards.sol\":32264:32284  _rewardsDuration > 0 */\n      gt\n        /* \"CoreContracts/StakingRewards.sol\":32256:32318  require(_rewardsDuration > 0, \"Reward duration can't be zero\") */\n      tag_195\n      jumpi\n      0x40\n      dup1\n      mload\n      shl(0xe5, 0x461bcd)\n      dup2\n      mstore\n      0x20\n      0x04\n      dup3\n      add\n      mstore\n      0x1d\n      0x24\n      dup3\n      add\n      mstore\n      0x526577617264206475726174696f6e2063616e2774206265207a65726f000000\n      0x44\n      dup3\n      add\n      mstore\n      swap1\n      mload\n      swap1\n      dup2\n      swap1\n      sub\n      0x64\n      add\n      swap1\n      revert\n    tag_195:\n        /* \"CoreContracts/StakingRewards.sol\":32328:32343  rewardsDuration */\n      0x06\n        /* \"CoreContracts/StakingRewards.sol\":32328:32362  rewardsDuration = _rewardsDuration */\n      dup2\n      swap1\n      sstore\n        /* \"CoreContracts/StakingRewards.sol\":32377:32416  RewardsDurationUpdated(rewardsDuration) */\n      0x40\n      dup1\n      mload\n      dup3\n      dup2\n      mstore\n      swap1\n      mload\n      0xfb46ca5a5e06d4540d6387b930a7c978bce0db5f449ec6b3f5d07c6e1d44f2d3\n      swap2\n      dup2\n      swap1\n      sub\n      0x20\n      add\n      swap1\n      log1\n        /* \"CoreContracts/StakingRewards.sol\":31998:32423  function setRewardsDuration(uint256 _rewardsDuration) external onlyOwner {... */\n      pop\n      jump\t// out\n        /* \"CoreContracts/StakingRewards.sol\":27988:28310  function rewardPerToken() public view returns (uint256) {... */\n    tag_84:\n        /* \"CoreContracts/StakingRewards.sol\":28035:28042  uint256 */\n      0x00\n        /* \"CoreContracts/StakingRewards.sol\":28058:28070  _totalSupply */\n      sload(0x0b)\n        /* \"CoreContracts/StakingRewards.sol\":28074:28075  0 */\n      0x00\n        /* \"CoreContracts/StakingRewards.sol\":28058:28075  _totalSupply == 0 */\n      eq\n        /* \"CoreContracts/StakingRewards.sol\":28054:28129  if (_totalSupply == 0) {... */\n      iszero\n      tag_197\n      jumpi\n      pop\n        /* \"CoreContracts/StakingRewards.sol\":28098:28118  rewardPerTokenStored */\n      sload(0x08)\n        /* \"CoreContracts/StakingRewards.sol\":28091:28118  return rewardPerTokenStored */\n      jump(tag_109)\n        /* \"CoreContracts/StakingRewards.sol\":28054:28129  if (_totalSupply == 0) {... */\n    tag_197:\n        /* \"CoreContracts/StakingRewards.sol\":28157:28303  rewardPerTokenStored.add(... */\n      tag_111\n        /* \"CoreContracts/StakingRewards.sol\":28199:28289  lastTimeRewardApplicable().sub(lastUpdateTime).mul(rewardRate).mul(1e18).div(_totalSupply) */\n      tag_199\n        /* \"CoreContracts/StakingRewards.sol\":28276:28288  _totalSupply */\n      sload(0x0b)\n        /* \"CoreContracts/StakingRewards.sol\":28199:28271  lastTimeRewardApplicable().sub(lastUpdateTime).mul(rewardRate).mul(1e18) */\n      tag_102\n        /* \"CoreContracts/StakingRewards.sol\":28266:28270  1e18 */\n      0x0de0b6b3a7640000\n        /* \"CoreContracts/StakingRewards.sol\":28199:28261  lastTimeRewardApplicable().sub(lastUpdateTime).mul(rewardRate) */\n      tag_202\n        /* \"CoreContracts/StakingRewards.sol\":28250:28260  rewardRate */\n      sload(0x05)\n        /* \"CoreContracts/StakingRewards.sol\":28199:28245  lastTimeRewardApplicable().sub(lastUpdateTime) */\n      tag_202\n        /* \"CoreContracts/StakingRewards.sol\":28230:28244  lastUpdateTime */\n      sload(0x07)\n        /* \"CoreContracts/StakingRewards.sol\":28199:28225  lastTimeRewardApplicable() */\n      tag_104\n        /* \"CoreContracts/StakingRewards.sol\":28199:28223  lastTimeRewardApplicable */\n      tag_66\n        /* \"CoreContracts/StakingRewards.sol\":28199:28225  lastTimeRewardApplicable() */\n      jump\t// in\n        /* \"CoreContracts/StakingRewards.sol\":28199:28245  lastTimeRewardApplicable().sub(lastUpdateTime) */\n    tag_202:\n        /* \"CoreContracts/StakingRewards.sol\":28199:28249  lastTimeRewardApplicable().sub(lastUpdateTime).mul */\n      swap1\n      tag_106\n        /* \"CoreContracts/StakingRewards.sol\":28199:28261  lastTimeRewardApplicable().sub(lastUpdateTime).mul(rewardRate) */\n      jump\t// in\n        /* \"CoreContracts/StakingRewards.sol\":28199:28289  lastTimeRewardApplicable().sub(lastUpdateTime).mul(rewardRate).mul(1e18).div(_totalSupply) */\n    tag_199:\n        /* \"CoreContracts/StakingRewards.sol\":28157:28177  rewardPerTokenStored */\n      sload(0x08)\n      swap1\n        /* \"CoreContracts/StakingRewards.sol\":28157:28181  rewardPerTokenStored.add */\n      tag_108\n        /* \"CoreContracts/StakingRewards.sol\":28157:28303  rewardPerTokenStored.add(... */\n      jump\t// in\n        /* \"CoreContracts/StakingRewards.sol\":26908:26934  IERC20 public rewardsToken */\n    tag_86:\n      and(sub(shl(0xa0, 0x01), 0x01), sload(0x02))\n      dup2\n      jump\t// out\n        /* \"CoreContracts/StakingRewards.sol\":27124:27159  uint256 public rewardPerTokenStored */\n    tag_88:\n      sload(0x08)\n      dup2\n      jump\t// out\n        /* \"CoreContracts/StakingRewards.sol\":30280:30374  function exit() external {... */\n    tag_90:\n        /* \"CoreContracts/StakingRewards.sol\":30334:30344  msg.sender */\n      caller\n        /* \"CoreContracts/StakingRewards.sol\":30324:30345  _balances[msg.sender] */\n      0x00\n      swap1\n      dup2\n      mstore\n        /* \"CoreContracts/StakingRewards.sol\":30324:30333  _balances */\n      0x0c\n        /* \"CoreContracts/StakingRewards.sol\":30324:30345  _balances[msg.sender] */\n      0x20\n      mstore\n      0x40\n      swap1\n      keccak256\n      sload\n        /* \"CoreContracts/StakingRewards.sol\":30315:30346  withdraw(_balances[msg.sender]) */\n      tag_205\n      swap1\n        /* \"CoreContracts/StakingRewards.sol\":30315:30323  withdraw */\n      tag_48\n        /* \"CoreContracts/StakingRewards.sol\":30315:30346  withdraw(_balances[msg.sender]) */\n      jump\t// in\n    tag_205:\n        /* \"CoreContracts/StakingRewards.sol\":30356:30367  getReward() */\n      tag_206\n        /* \"CoreContracts/StakingRewards.sol\":30356:30365  getReward */\n      tag_55\n        /* \"CoreContracts/StakingRewards.sol\":30356:30367  getReward() */\n      jump\t// in\n    tag_206:\n        /* \"CoreContracts/StakingRewards.sol\":30280:30374  function exit() external {... */\n      jump\t// out\n        /* \"CoreContracts/StakingRewards.sol\":26972:27003  uint256 public periodFinish = 0 */\n    tag_92:\n      sload(0x04)\n      dup2\n      jump\t// out\n        /* \"CoreContracts/StakingRewards.sol\":28695:29242  function stakeWithPermit(uint256 amount, uint deadline, uint8 v, bytes32 r, bytes32 s) external nonReentrant updateReward(msg.sender) {... */\n    tag_95:\n        /* \"CoreContracts/StakingRewards.sol\":24417:24418  2 */\n      0x02\n        /* \"CoreContracts/StakingRewards.sol\":25006:25013  _status */\n      sload(0x00)\n        /* \"CoreContracts/StakingRewards.sol\":25006:25025  _status != _ENTERED */\n      eq\n      iszero\n        /* \"CoreContracts/StakingRewards.sol\":24998:25061  require(_status != _ENTERED, \"ReentrancyGuard: reentrant call\") */\n      tag_208\n      jumpi\n      0x40\n      dup1\n      mload\n      shl(0xe5, 0x461bcd)\n      dup2\n      mstore\n      0x20\n      0x04\n      dup3\n      add\n      mstore\n      0x1f\n      0x24\n      dup3\n      add\n      mstore\n      0x5265656e7472616e637947756172643a207265656e7472616e742063616c6c00\n      0x44\n      dup3\n      add\n      mstore\n      swap1\n      mload\n      swap1\n      dup2\n      swap1\n      sub\n      0x64\n      add\n      swap1\n      revert\n    tag_208:\n        /* \"CoreContracts/StakingRewards.sol\":24417:24418  2 */\n      0x02\n        /* \"CoreContracts/StakingRewards.sol\":25136:25143  _status */\n      0x00\n        /* \"CoreContracts/StakingRewards.sol\":25136:25154  _status = _ENTERED */\n      sstore\n        /* \"CoreContracts/StakingRewards.sol\":28817:28827  msg.sender */\n      caller\n        /* \"CoreContracts/StakingRewards.sol\":32544:32560  rewardPerToken() */\n      tag_210\n        /* \"CoreContracts/StakingRewards.sol\":32544:32558  rewardPerToken */\n      tag_84\n        /* \"CoreContracts/StakingRewards.sol\":32544:32560  rewardPerToken() */\n      jump\t// in\n    tag_210:\n        /* \"CoreContracts/StakingRewards.sol\":32521:32541  rewardPerTokenStored */\n      0x08\n        /* \"CoreContracts/StakingRewards.sol\":32521:32560  rewardPerTokenStored = rewardPerToken() */\n      sstore\n        /* \"CoreContracts/StakingRewards.sol\":32587:32613  lastTimeRewardApplicable() */\n      tag_211\n        /* \"CoreContracts/StakingRewards.sol\":32587:32611  lastTimeRewardApplicable */\n      tag_66\n        /* \"CoreContracts/StakingRewards.sol\":32587:32613  lastTimeRewardApplicable() */\n      jump\t// in\n    tag_211:\n        /* \"CoreContracts/StakingRewards.sol\":32570:32584  lastUpdateTime */\n      0x07\n        /* \"CoreContracts/StakingRewards.sol\":32570:32613  lastUpdateTime = lastTimeRewardApplicable() */\n      sstore\n      sub(shl(0xa0, 0x01), 0x01)\n        /* \"CoreContracts/StakingRewards.sol\":32627:32648  account != address(0) */\n      dup2\n      and\n      iszero\n        /* \"CoreContracts/StakingRewards.sol\":32623:32777  if (account != address(0)) {... */\n      tag_212\n      jumpi\n        /* \"CoreContracts/StakingRewards.sol\":32683:32698  earned(account) */\n      tag_213\n        /* \"CoreContracts/StakingRewards.sol\":32690:32697  account */\n      dup2\n        /* \"CoreContracts/StakingRewards.sol\":32683:32689  earned */\n      tag_38\n        /* \"CoreContracts/StakingRewards.sol\":32683:32698  earned(account) */\n      jump\t// in\n    tag_213:\n      sub(shl(0xa0, 0x01), 0x01)\n        /* \"CoreContracts/StakingRewards.sol\":32664:32680  rewards[account] */\n      dup3\n      and\n      0x00\n      swap1\n      dup2\n      mstore\n        /* \"CoreContracts/StakingRewards.sol\":32664:32671  rewards */\n      0x0a\n        /* \"CoreContracts/StakingRewards.sol\":32664:32680  rewards[account] */\n      0x20\n      swap1\n      dup2\n      mstore\n      0x40\n      dup1\n      dup4\n      keccak256\n        /* \"CoreContracts/StakingRewards.sol\":32664:32698  rewards[account] = earned(account) */\n      swap4\n      swap1\n      swap4\n      sstore\n        /* \"CoreContracts/StakingRewards.sol\":32746:32766  rewardPerTokenStored */\n      sload(0x08)\n        /* \"CoreContracts/StakingRewards.sol\":32712:32734  userRewardPerTokenPaid */\n      0x09\n        /* \"CoreContracts/StakingRewards.sol\":32712:32743  userRewardPerTokenPaid[account] */\n      swap1\n      swap2\n      mstore\n      swap2\n      swap1\n      keccak256\n        /* \"CoreContracts/StakingRewards.sol\":32712:32766  userRewardPerTokenPaid[account] = rewardPerTokenStored */\n      sstore\n        /* \"CoreContracts/StakingRewards.sol\":32623:32777  if (account != address(0)) {... */\n    tag_212:\n        /* \"CoreContracts/StakingRewards.sol\":28856:28857  0 */\n      0x00\n        /* \"CoreContracts/StakingRewards.sol\":28847:28853  amount */\n      dup7\n        /* \"CoreContracts/StakingRewards.sol\":28847:28857  amount > 0 */\n      gt\n        /* \"CoreContracts/StakingRewards.sol\":28839:28876  require(amount > 0, \"Cannot stake 0\") */\n      tag_215\n      jumpi\n      0x40\n      dup1\n      mload\n      shl(0xe5, 0x461bcd)\n      dup2\n      mstore\n      0x20\n      0x04\n      dup3\n      add\n      mstore\n      0x0e\n      0x24\n      dup3\n      add\n      mstore\n      0x43616e6e6f74207374616b652030000000000000000000000000000000000000\n      0x44\n      dup3\n      add\n      mstore\n      swap1\n      mload\n      swap1\n      dup2\n      swap1\n      sub\n      0x64\n      add\n      swap1\n      revert\n    tag_215:\n        /* \"CoreContracts/StakingRewards.sol\":28901:28913  _totalSupply */\n      sload(0x0b)\n        /* \"CoreContracts/StakingRewards.sol\":28901:28925  _totalSupply.add(amount) */\n      tag_216\n      swap1\n        /* \"CoreContracts/StakingRewards.sol\":28918:28924  amount */\n      dup8\n        /* \"CoreContracts/StakingRewards.sol\":28901:28917  _totalSupply.add */\n      tag_108\n        /* \"CoreContracts/StakingRewards.sol\":28901:28925  _totalSupply.add(amount) */\n      jump\t// in\n    tag_216:\n        /* \"CoreContracts/StakingRewards.sol\":28886:28898  _totalSupply */\n      0x0b\n        /* \"CoreContracts/StakingRewards.sol\":28886:28925  _totalSupply = _totalSupply.add(amount) */\n      sstore\n        /* \"CoreContracts/StakingRewards.sol\":28969:28979  msg.sender */\n      caller\n        /* \"CoreContracts/StakingRewards.sol\":28959:28980  _balances[msg.sender] */\n      0x00\n      swap1\n      dup2\n      mstore\n        /* \"CoreContracts/StakingRewards.sol\":28959:28968  _balances */\n      0x0c\n        /* \"CoreContracts/StakingRewards.sol\":28959:28980  _balances[msg.sender] */\n      0x20\n      mstore\n      0x40\n      swap1\n      keccak256\n      sload\n        /* \"CoreContracts/StakingRewards.sol\":28959:28992  _balances[msg.sender].add(amount) */\n      tag_217\n      swap1\n        /* \"CoreContracts/StakingRewards.sol\":28985:28991  amount */\n      dup8\n        /* \"CoreContracts/StakingRewards.sol\":28959:28984  _balances[msg.sender].add */\n      tag_108\n        /* \"CoreContracts/StakingRewards.sol\":28959:28992  _balances[msg.sender].add(amount) */\n      jump\t// in\n    tag_217:\n        /* \"CoreContracts/StakingRewards.sol\":28945:28955  msg.sender */\n      caller\n        /* \"CoreContracts/StakingRewards.sol\":28935:28956  _balances[msg.sender] */\n      0x00\n      dup2\n      dup2\n      mstore\n        /* \"CoreContracts/StakingRewards.sol\":28935:28944  _balances */\n      0x0c\n        /* \"CoreContracts/StakingRewards.sol\":28935:28956  _balances[msg.sender] */\n      0x20\n      mstore\n      0x40\n      dup1\n      dup3\n      keccak256\n        /* \"CoreContracts/StakingRewards.sol\":28935:28992  _balances[msg.sender] = _balances[msg.sender].add(amount) */\n      swap4\n      swap1\n      swap4\n      sstore\n        /* \"CoreContracts/StakingRewards.sol\":29044:29056  stakingToken */\n      sload(0x03)\n        /* \"CoreContracts/StakingRewards.sol\":29021:29119  IKalyswapERC20(address(stakingToken)).permit(msg.sender, address(this), amount, deadline, v, r, s) */\n      dup4\n      mload\n      0xd505accf00000000000000000000000000000000000000000000000000000000\n      dup2\n      mstore\n      0x04\n      dup2\n      add\n      swap4\n      swap1\n      swap4\n      mstore\n        /* \"CoreContracts/StakingRewards.sol\":29086:29090  this */\n      address\n        /* \"CoreContracts/StakingRewards.sol\":29021:29119  IKalyswapERC20(address(stakingToken)).permit(msg.sender, address(this), amount, deadline, v, r, s) */\n      0x24\n      dup5\n      add\n      mstore\n      0x44\n      dup4\n      add\n      dup11\n      swap1\n      mstore\n      0x64\n      dup4\n      add\n      dup10\n      swap1\n      mstore\n      0xff\n      dup9\n      and\n      0x84\n      dup5\n      add\n      mstore\n      0xa4\n      dup4\n      add\n      dup8\n      swap1\n      mstore\n      0xc4\n      dup4\n      add\n      dup7\n      swap1\n      mstore\n      swap3\n      mload\n      sub(shl(0xa0, 0x01), 0x01)\n        /* \"CoreContracts/StakingRewards.sol\":29044:29056  stakingToken */\n      swap1\n      swap4\n      and\n      swap3\n        /* \"CoreContracts/StakingRewards.sol\":29021:29065  IKalyswapERC20(address(stakingToken)).permit */\n      0xd505accf\n      swap3\n        /* \"CoreContracts/StakingRewards.sol\":29021:29119  IKalyswapERC20(address(stakingToken)).permit(msg.sender, address(this), amount, deadline, v, r, s) */\n      0xe4\n      dup1\n      dup3\n      add\n      swap4\n        /* \"CoreContracts/StakingRewards.sol\":28935:28956  _balances[msg.sender] */\n      swap3\n        /* \"CoreContracts/StakingRewards.sol\":29021:29119  IKalyswapERC20(address(stakingToken)).permit(msg.sender, address(this), amount, deadline, v, r, s) */\n      swap2\n      dup3\n      swap1\n      sub\n      add\n      dup2\n        /* \"CoreContracts/StakingRewards.sol\":28935:28956  _balances[msg.sender] */\n      dup4\n        /* \"CoreContracts/StakingRewards.sol\":29044:29056  stakingToken */\n      dup8\n        /* \"CoreContracts/StakingRewards.sol\":29021:29119  IKalyswapERC20(address(stakingToken)).permit(msg.sender, address(this), amount, deadline, v, r, s) */\n      dup1\n      extcodesize\n      iszero\n      dup1\n      iszero\n      tag_218\n      jumpi\n      0x00\n      dup1\n      revert\n    tag_218:\n      pop\n      gas\n      call\n      iszero\n      dup1\n      iszero\n      tag_220\n      jumpi\n      returndatasize\n      0x00\n      dup1\n      returndatacopy\n      revert(0x00, returndatasize)\n    tag_220:\n      pop\n      pop\n        /* \"CoreContracts/StakingRewards.sol\":29130:29142  stakingToken */\n      sload(0x03)\n        /* \"CoreContracts/StakingRewards.sol\":29130:29194  stakingToken.safeTransferFrom(msg.sender, address(this), amount) */\n      tag_221\n      swap3\n      pop\n      sub(shl(0xa0, 0x01), 0x01)\n        /* \"CoreContracts/StakingRewards.sol\":29130:29142  stakingToken */\n      and\n      swap1\n      pop\n        /* \"CoreContracts/StakingRewards.sol\":29160:29170  msg.sender */\n      caller\n        /* \"CoreContracts/StakingRewards.sol\":29180:29184  this */\n      address\n        /* \"CoreContracts/StakingRewards.sol\":29187:29193  amount */\n      dup10\n        /* \"CoreContracts/StakingRewards.sol\":29130:29159  stakingToken.safeTransferFrom */\n      tag_189\n        /* \"CoreContracts/StakingRewards.sol\":29130:29194  stakingToken.safeTransferFrom(msg.sender, address(this), amount) */\n      jump\t// in\n    tag_221:\n        /* \"CoreContracts/StakingRewards.sol\":29209:29235  Staked(msg.sender, amount) */\n      0x40\n      dup1\n      mload\n      dup8\n      dup2\n      mstore\n      swap1\n      mload\n        /* \"CoreContracts/StakingRewards.sol\":29216:29226  msg.sender */\n      caller\n      swap2\n        /* \"CoreContracts/StakingRewards.sol\":29209:29235  Staked(msg.sender, amount) */\n      0x9e71bc8eea02a63969f509818f2dafb9254532904319f9dbda79b67bd34a5f3d\n      swap2\n      swap1\n      dup2\n      swap1\n      sub\n      0x20\n      add\n      swap1\n      log2\n      pop\n      pop\n        /* \"CoreContracts/StakingRewards.sol\":24374:24375  1 */\n      0x01\n        /* \"CoreContracts/StakingRewards.sol\":25309:25316  _status */\n      0x00\n        /* \"CoreContracts/StakingRewards.sol\":25309:25331  _status = _NOT_ENTERED */\n      sstore\n      pop\n      pop\n      pop\n      pop\n        /* \"CoreContracts/StakingRewards.sol\":28695:29242  function stakeWithPermit(uint256 amount, uint deadline, uint8 v, bytes32 r, bytes32 s) external nonReentrant updateReward(msg.sender) {... */\n      jump\t// out\n        /* \"CoreContracts/StakingRewards.sol\":3071:3311  function transferOwnership(address newOwner) public virtual onlyOwner {... */\n    tag_98:\n        /* \"CoreContracts/StakingRewards.sol\":2368:2380  _msgSender() */\n      tag_223\n        /* \"CoreContracts/StakingRewards.sol\":2368:2378  _msgSender */\n      tag_127\n        /* \"CoreContracts/StakingRewards.sol\":2368:2380  _msgSender() */\n      jump\t// in\n    tag_223:\n        /* \"CoreContracts/StakingRewards.sol\":2358:2364  _owner */\n      sload(0x01)\n      sub(shl(0xa0, 0x01), 0x01)\n      swap1\n      dup2\n      and\n        /* \"CoreContracts/StakingRewards.sol\":2358:2380  _owner == _msgSender() */\n      swap2\n      and\n      eq\n        /* \"CoreContracts/StakingRewards.sol\":2350:2417  require(_owner == _msgSender(), \"Ownable: caller is not the owner\") */\n      tag_224\n      jumpi\n      0x40\n      dup1\n      mload\n      shl(0xe5, 0x461bcd)\n      dup2\n      mstore\n      0x20\n      0x04\n      dup3\n      add\n      dup2\n      swap1\n      mstore\n      0x24\n      dup3\n      add\n      mstore\n      0x4f776e61626c653a2063616c6c6572206973206e6f7420746865206f776e6572\n      0x44\n      dup3\n      add\n      mstore\n      swap1\n      mload\n      swap1\n      dup2\n      swap1\n      sub\n      0x64\n      add\n      swap1\n      revert\n    tag_224:\n      sub(shl(0xa0, 0x01), 0x01)\n        /* \"CoreContracts/StakingRewards.sol\":3159:3181  newOwner != address(0) */\n      dup2\n      and\n        /* \"CoreContracts/StakingRewards.sol\":3151:3224  require(newOwner != address(0), \"Ownable: new owner is the zero address\") */\n      tag_226\n      jumpi\n      mload(0x40)\n      shl(0xe5, 0x461bcd)\n      dup2\n      mstore\n      0x04\n      add\n      dup1\n      dup1\n      0x20\n      add\n      dup3\n      dup2\n      sub\n      dup3\n      mstore\n      0x26\n      dup2\n      mstore\n      0x20\n      add\n      dup1\n      data_245f15ff17f551913a7a18385165551503906a406f905ac1c2437281a7cd0cfe\n      0x26\n      swap2\n      codecopy\n      0x40\n      add\n      swap2\n      pop\n      pop\n      mload(0x40)\n      dup1\n      swap2\n      sub\n      swap1\n      revert\n    tag_226:\n        /* \"CoreContracts/StakingRewards.sol\":3260:3266  _owner */\n      sload(0x01)\n        /* \"CoreContracts/StakingRewards.sol\":3239:3277  OwnershipTransferred(_owner, newOwner) */\n      mload(0x40)\n      sub(shl(0xa0, 0x01), 0x01)\n      dup1\n      dup5\n      and\n      swap3\n        /* \"CoreContracts/StakingRewards.sol\":3260:3266  _owner */\n      and\n      swap1\n        /* \"CoreContracts/StakingRewards.sol\":3239:3277  OwnershipTransferred(_owner, newOwner) */\n      0x8be0079c531659141344cd1fd0a4f28419497f9722a3daafe3b4186f6b6457e0\n      swap1\n        /* \"CoreContracts/StakingRewards.sol\":3260:3266  _owner */\n      0x00\n      swap1\n        /* \"CoreContracts/StakingRewards.sol\":3239:3277  OwnershipTransferred(_owner, newOwner) */\n      log3\n        /* \"CoreContracts/StakingRewards.sol\":3287:3293  _owner */\n      0x01\n        /* \"CoreContracts/StakingRewards.sol\":3287:3304  _owner = newOwner */\n      dup1\n      sload\n      not(0xffffffffffffffffffffffffffffffffffffffff)\n      and\n      sub(shl(0xa0, 0x01), 0x01)\n      swap3\n      swap1\n      swap3\n      and\n      swap2\n      swap1\n      swap2\n      or\n      swap1\n      sstore\n        /* \"CoreContracts/StakingRewards.sol\":3071:3311  function transferOwnership(address newOwner) public virtual onlyOwner {... */\n      jump\t// out\n        /* \"CoreContracts/StakingRewards.sol\":5514:5648  function sub(uint256 a, uint256 b) internal pure returns (uint256) {... */\n    tag_105:\n        /* \"CoreContracts/StakingRewards.sol\":5572:5579  uint256 */\n      0x00\n        /* \"CoreContracts/StakingRewards.sol\":5598:5641  sub(a, b, \"SafeMath: subtraction overflow\") */\n      tag_228\n        /* \"CoreContracts/StakingRewards.sol\":5602:5603  a */\n      dup4\n        /* \"CoreContracts/StakingRewards.sol\":5605:5606  b */\n      dup4\n        /* \"CoreContracts/StakingRewards.sol\":5598:5641  sub(a, b, \"SafeMath: subtraction overflow\") */\n      mload(0x40)\n      dup1\n      0x40\n      add\n      0x40\n      mstore\n      dup1\n      0x1e\n      dup2\n      mstore\n      0x20\n      add\n      0x536166654d6174683a207375627472616374696f6e206f766572666c6f770000\n      dup2\n      mstore\n      pop\n        /* \"CoreContracts/StakingRewards.sol\":5598:5601  sub */\n      tag_229\n        /* \"CoreContracts/StakingRewards.sol\":5598:5641  sub(a, b, \"SafeMath: subtraction overflow\") */\n      jump\t// in\n    tag_228:\n        /* \"CoreContracts/StakingRewards.sol\":5591:5641  return sub(a, b, \"SafeMath: subtraction overflow\") */\n      swap4\n        /* \"CoreContracts/StakingRewards.sol\":5514:5648  function sub(uint256 a, uint256 b) internal pure returns (uint256) {... */\n      swap3\n      pop\n      pop\n      pop\n      jump\t// out\n        /* \"CoreContracts/StakingRewards.sol\":6373:6832  function mul(uint256 a, uint256 b) internal pure returns (uint256) {... */\n    tag_106:\n        /* \"CoreContracts/StakingRewards.sol\":6431:6438  uint256 */\n      0x00\n        /* \"CoreContracts/StakingRewards.sol\":6672:6678  a == 0 */\n      dup3\n        /* \"CoreContracts/StakingRewards.sol\":6668:6713  if (a == 0) {... */\n      tag_231\n      jumpi\n      pop\n        /* \"CoreContracts/StakingRewards.sol\":6701:6702  0 */\n      0x00\n        /* \"CoreContracts/StakingRewards.sol\":6694:6702  return 0 */\n      jump(tag_100)\n        /* \"CoreContracts/StakingRewards.sol\":6668:6713  if (a == 0) {... */\n    tag_231:\n        /* \"CoreContracts/StakingRewards.sol\":6735:6740  a * b */\n      dup3\n      dup3\n      mul\n        /* \"CoreContracts/StakingRewards.sol\":6739:6740  b */\n      dup3\n        /* \"CoreContracts/StakingRewards.sol\":6735:6736  a */\n      dup5\n        /* \"CoreContracts/StakingRewards.sol\":6735:6740  a * b */\n      dup3\n        /* \"CoreContracts/StakingRewards.sol\":6735:6736  a */\n      dup2\n        /* \"CoreContracts/StakingRewards.sol\":6758:6763  c / a */\n      tag_232\n      jumpi\n      invalid\n    tag_232:\n      div\n        /* \"CoreContracts/StakingRewards.sol\":6758:6768  c / a == b */\n      eq\n        /* \"CoreContracts/StakingRewards.sol\":6750:6806  require(c / a == b, \"SafeMath: multiplication overflow\") */\n      tag_228\n      jumpi\n      mload(0x40)\n      shl(0xe5, 0x461bcd)\n      dup2\n      mstore\n      0x04\n      add\n      dup1\n      dup1\n      0x20\n      add\n      dup3\n      dup2\n      sub\n      dup3\n      mstore\n      0x21\n      dup2\n      mstore\n      0x20\n      add\n      dup1\n      data_9113bb53c2876a3805b2c9242029423fc540a728243ce887ab24c82cf119fba3\n      0x21\n      swap2\n      codecopy\n      0x40\n      add\n      swap2\n      pop\n      pop\n      mload(0x40)\n      dup1\n      swap2\n      sub\n      swap1\n      revert\n        /* \"CoreContracts/StakingRewards.sol\":7294:7424  function div(uint256 a, uint256 b) internal pure returns (uint256) {... */\n    tag_107:\n        /* \"CoreContracts/StakingRewards.sol\":7352:7359  uint256 */\n      0x00\n        /* \"CoreContracts/StakingRewards.sol\":7378:7417  div(a, b, \"SafeMath: division by zero\") */\n      tag_228\n        /* \"CoreContracts/StakingRewards.sol\":7382:7383  a */\n      dup4\n        /* \"CoreContracts/StakingRewards.sol\":7385:7386  b */\n      dup4\n        /* \"CoreContracts/StakingRewards.sol\":7378:7417  div(a, b, \"SafeMath: division by zero\") */\n      mload(0x40)\n      dup1\n      0x40\n      add\n      0x40\n      mstore\n      dup1\n      0x1a\n      dup2\n      mstore\n      0x20\n      add\n      0x536166654d6174683a206469766973696f6e206279207a65726f000000000000\n      dup2\n      mstore\n      pop\n        /* \"CoreContracts/StakingRewards.sol\":7378:7381  div */\n      tag_236\n        /* \"CoreContracts/StakingRewards.sol\":7378:7417  div(a, b, \"SafeMath: division by zero\") */\n      jump\t// in\n        /* \"CoreContracts/StakingRewards.sol\":5067:5243  function add(uint256 a, uint256 b) internal pure returns (uint256) {... */\n    tag_108:\n        /* \"CoreContracts/StakingRewards.sol\":5125:5132  uint256 */\n      0x00\n        /* \"CoreContracts/StakingRewards.sol\":5156:5161  a + b */\n      dup3\n      dup3\n      add\n        /* \"CoreContracts/StakingRewards.sol\":5179:5185  c >= a */\n      dup4\n      dup2\n      lt\n      iszero\n        /* \"CoreContracts/StakingRewards.sol\":5171:5217  require(c >= a, \"SafeMath: addition overflow\") */\n      tag_228\n      jumpi\n      0x40\n      dup1\n      mload\n      shl(0xe5, 0x461bcd)\n      dup2\n      mstore\n      0x20\n      0x04\n      dup3\n      add\n      mstore\n      0x1b\n      0x24\n      dup3\n      add\n      mstore\n      0x536166654d6174683a206164646974696f6e206f766572666c6f770000000000\n      0x44\n      dup3\n      add\n      mstore\n      swap1\n      mload\n      swap1\n      dup2\n      swap1\n      sub\n      0x64\n      add\n      swap1\n      revert\n        /* \"CoreContracts/StakingRewards.sol\":19669:19844  function safeTransfer(IERC20 token, address to, uint256 value) internal {... */\n    tag_124:\n        /* \"CoreContracts/StakingRewards.sol\":19778:19836  abi.encodeWithSelector(token.transfer.selector, to, value) */\n      0x40\n      dup1\n      mload\n      sub(shl(0xa0, 0x01), 0x01)\n      dup5\n      and\n      0x24\n      dup3\n      add\n      mstore\n      0x44\n      dup1\n      dup3\n      add\n      dup5\n      swap1\n      mstore\n      dup3\n      mload\n      dup1\n      dup4\n      sub\n      swap1\n      swap2\n      add\n      dup2\n      mstore\n      0x64\n      swap1\n      swap2\n      add\n      swap1\n      swap2\n      mstore\n      0x20\n      dup2\n      add\n      dup1\n      mload\n      0xffffffffffffffffffffffffffffffffffffffffffffffffffffffff\n      and\n        /* \"CoreContracts/StakingRewards.sol\":19801:19824  token.transfer.selector */\n      0xa9059cbb00000000000000000000000000000000000000000000000000000000\n        /* \"CoreContracts/StakingRewards.sol\":19778:19836  abi.encodeWithSelector(token.transfer.selector, to, value) */\n      or\n      swap1\n      mstore\n        /* \"CoreContracts/StakingRewards.sol\":19751:19837  _callOptionalReturn(token, abi.encodeWithSelector(token.transfer.selector, to, value)) */\n      tag_240\n      swap1\n        /* \"CoreContracts/StakingRewards.sol\":19771:19776  token */\n      dup5\n      swap1\n        /* \"CoreContracts/StakingRewards.sol\":19751:19770  _callOptionalReturn */\n      tag_241\n        /* \"CoreContracts/StakingRewards.sol\":19751:19837  _callOptionalReturn(token, abi.encodeWithSelector(token.transfer.selector, to, value)) */\n      jump\t// in\n    tag_240:\n        /* \"CoreContracts/StakingRewards.sol\":19669:19844  function safeTransfer(IERC20 token, address to, uint256 value) internal {... */\n      pop\n      pop\n      pop\n      jump\t// out\n        /* \"CoreContracts/StakingRewards.sol\":723:827  function _msgSender() internal view virtual returns (address payable) {... */\n    tag_127:\n        /* \"CoreContracts/StakingRewards.sol\":810:820  msg.sender */\n      caller\n        /* \"CoreContracts/StakingRewards.sol\":723:827  function _msgSender() internal view virtual returns (address payable) {... */\n      swap1\n      jump\t// out\n        /* \"CoreContracts/StakingRewards.sol\":3742:3846  function min(uint256 a, uint256 b) internal pure returns (uint256) {... */\n    tag_166:\n        /* \"CoreContracts/StakingRewards.sol\":3800:3807  uint256 */\n      0x00\n        /* \"CoreContracts/StakingRewards.sol\":3830:3831  b */\n      dup2\n        /* \"CoreContracts/StakingRewards.sol\":3826:3827  a */\n      dup4\n        /* \"CoreContracts/StakingRewards.sol\":3826:3831  a < b */\n      lt\n        /* \"CoreContracts/StakingRewards.sol\":3826:3839  a < b ? a : b */\n      tag_244\n      jumpi\n        /* \"CoreContracts/StakingRewards.sol\":3838:3839  b */\n      dup2\n        /* \"CoreContracts/StakingRewards.sol\":3826:3839  a < b ? a : b */\n      jump(tag_228)\n    tag_244:\n      pop\n        /* \"CoreContracts/StakingRewards.sol\":3834:3835  a */\n      swap1\n      swap2\n        /* \"CoreContracts/StakingRewards.sol\":3742:3846  function min(uint256 a, uint256 b) internal pure returns (uint256) {... */\n      swap1\n      pop\n      jump\t// out\n        /* \"CoreContracts/StakingRewards.sol\":19850:20053  function safeTransferFrom(IERC20 token, address from, address to, uint256 value) internal {... */\n    tag_189:\n        /* \"CoreContracts/StakingRewards.sol\":19977:20045  abi.encodeWithSelector(token.transferFrom.selector, from, to, value) */\n      0x40\n      dup1\n      mload\n      sub(shl(0xa0, 0x01), 0x01)\n      dup1\n      dup7\n      and\n      0x24\n      dup4\n      add\n      mstore\n      dup5\n      and\n      0x44\n      dup3\n      add\n      mstore\n      0x64\n      dup1\n      dup3\n      add\n      dup5\n      swap1\n      mstore\n      dup3\n      mload\n      dup1\n      dup4\n      sub\n      swap1\n      swap2\n      add\n      dup2\n      mstore\n      0x84\n      swap1\n      swap2\n      add\n      swap1\n      swap2\n      mstore\n      0x20\n      dup2\n      add\n      dup1\n      mload\n      0xffffffffffffffffffffffffffffffffffffffffffffffffffffffff\n      and\n        /* \"CoreContracts/StakingRewards.sol\":20000:20027  token.transferFrom.selector */\n      0x23b872dd00000000000000000000000000000000000000000000000000000000\n        /* \"CoreContracts/StakingRewards.sol\":19977:20045  abi.encodeWithSelector(token.transferFrom.selector, from, to, value) */\n      or\n      swap1\n      mstore\n        /* \"CoreContracts/StakingRewards.sol\":19950:20046  _callOptionalReturn(token, abi.encodeWithSelector(token.transferFrom.selector, from, to, value)) */\n      tag_247\n      swap1\n        /* \"CoreContracts/StakingRewards.sol\":19970:19975  token */\n      dup6\n      swap1\n        /* \"CoreContracts/StakingRewards.sol\":19950:19969  _callOptionalReturn */\n      tag_241\n        /* \"CoreContracts/StakingRewards.sol\":19950:20046  _callOptionalReturn(token, abi.encodeWithSelector(token.transferFrom.selector, from, to, value)) */\n      jump\t// in\n    tag_247:\n        /* \"CoreContracts/StakingRewards.sol\":19850:20053  function safeTransferFrom(IERC20 token, address from, address to, uint256 value) internal {... */\n      pop\n      pop\n      pop\n      pop\n      jump\t// out\n        /* \"CoreContracts/StakingRewards.sol\":5939:6126  function sub(uint256 a, uint256 b, string memory errorMessage) internal pure returns (uint256) {... */\n    tag_229:\n        /* \"CoreContracts/StakingRewards.sol\":6025:6032  uint256 */\n      0x00\n        /* \"CoreContracts/StakingRewards.sol\":6060:6072  errorMessage */\n      dup2\n        /* \"CoreContracts/StakingRewards.sol\":6052:6058  b <= a */\n      dup5\n      dup5\n      gt\n      iszero\n        /* \"CoreContracts/StakingRewards.sol\":6044:6073  require(b <= a, errorMessage) */\n      tag_249\n      jumpi\n      mload(0x40)\n      shl(0xe5, 0x461bcd)\n      dup2\n      mstore\n      0x04\n      add\n      dup1\n      dup1\n      0x20\n      add\n      dup3\n      dup2\n      sub\n      dup3\n      mstore\n      dup4\n      dup2\n      dup2\n      mload\n      dup2\n      mstore\n      0x20\n      add\n      swap2\n      pop\n      dup1\n      mload\n      swap1\n      0x20\n      add\n      swap1\n      dup1\n      dup4\n      dup4\n      0x00\n    tag_250:\n      dup4\n      dup2\n      lt\n      iszero\n      tag_252\n      jumpi\n      dup2\n      dup2\n      add\n      mload\n      dup4\n      dup3\n      add\n      mstore\n      0x20\n      add\n      jump(tag_250)\n    tag_252:\n      pop\n      pop\n      pop\n      pop\n      swap1\n      pop\n      swap1\n      dup2\n      add\n      swap1\n      0x1f\n      and\n      dup1\n      iszero\n      tag_253\n      jumpi\n      dup1\n      dup3\n      sub\n      dup1\n      mload\n      0x01\n      dup4\n      0x20\n      sub\n      0x0100\n      exp\n      sub\n      not\n      and\n      dup2\n      mstore\n      0x20\n      add\n      swap2\n      pop\n    tag_253:\n      pop\n      swap3\n      pop\n      pop\n      pop\n      mload(0x40)\n      dup1\n      swap2\n      sub\n      swap1\n      revert\n    tag_249:\n      pop\n      pop\n      pop\n        /* \"CoreContracts/StakingRewards.sol\":6095:6100  a - b */\n      swap1\n      sub\n      swap1\n        /* \"CoreContracts/StakingRewards.sol\":5939:6126  function sub(uint256 a, uint256 b, string memory errorMessage) internal pure returns (uint256) {... */\n      jump\t// out\n        /* \"CoreContracts/StakingRewards.sol\":7906:8178  function div(uint256 a, uint256 b, string memory errorMessage) internal pure returns (uint256) {... */\n    tag_236:\n        /* \"CoreContracts/StakingRewards.sol\":7992:7999  uint256 */\n      0x00\n        /* \"CoreContracts/StakingRewards.sol\":8026:8038  errorMessage */\n      dup2\n        /* \"CoreContracts/StakingRewards.sol\":8019:8024  b > 0 */\n      dup4\n        /* \"CoreContracts/StakingRewards.sol\":8011:8039  require(b > 0, errorMessage) */\n      tag_255\n      jumpi\n      mload(0x40)\n      shl(0xe5, 0x461bcd)\n      dup2\n      mstore\n      0x20\n      0x04\n      dup3\n      add\n      dup2\n      dup2\n      mstore\n      dup4\n      mload\n      0x24\n      dup5\n      add\n      mstore\n      dup4\n      mload\n      swap1\n      swap3\n      dup4\n      swap3\n      0x44\n      swap1\n      swap2\n      add\n      swap2\n      swap1\n      dup6\n      add\n      swap1\n      dup1\n      dup4\n      dup4\n      0x00\n      dup4\n      iszero\n      tag_252\n      jumpi\n      dup2\n      dup2\n      add\n      mload\n      dup4\n      dup3\n      add\n      mstore\n      0x20\n      add\n      jump(tag_250)\n    tag_255:\n      pop\n        /* \"CoreContracts/StakingRewards.sol\":8049:8058  uint256 c */\n      0x00\n        /* \"CoreContracts/StakingRewards.sol\":8065:8066  b */\n      dup4\n        /* \"CoreContracts/StakingRewards.sol\":8061:8062  a */\n      dup6\n        /* \"CoreContracts/StakingRewards.sol\":8061:8066  a / b */\n      dup2\n      tag_260\n      jumpi\n      invalid\n    tag_260:\n      div\n      swap6\n        /* \"CoreContracts/StakingRewards.sol\":7906:8178  function div(uint256 a, uint256 b, string memory errorMessage) internal pure returns (uint256) {... */\n      swap5\n      pop\n      pop\n      pop\n      pop\n      pop\n      jump\t// out\n        /* \"CoreContracts/StakingRewards.sol\":21932:22683  function _callOptionalReturn(IERC20 token, bytes memory data) private {... */\n    tag_241:\n        /* \"CoreContracts/StakingRewards.sol\":22351:22374  bytes memory returndata */\n      0x00\n        /* \"CoreContracts/StakingRewards.sol\":22377:22446  address(token).functionCall(data, \"SafeERC20: low-level call failed\") */\n      tag_262\n        /* \"CoreContracts/StakingRewards.sol\":22405:22409  data */\n      dup3\n        /* \"CoreContracts/StakingRewards.sol\":22377:22446  address(token).functionCall(data, \"SafeERC20: low-level call failed\") */\n      mload(0x40)\n      dup1\n      0x40\n      add\n      0x40\n      mstore\n      dup1\n      0x20\n      dup2\n      mstore\n      0x20\n      add\n      0x5361666545524332303a206c6f772d6c6576656c2063616c6c206661696c6564\n      dup2\n      mstore\n      pop\n        /* \"CoreContracts/StakingRewards.sol\":22385:22390  token */\n      dup6\n      sub(shl(0xa0, 0x01), 0x01)\n        /* \"CoreContracts/StakingRewards.sol\":22377:22404  address(token).functionCall */\n      and\n      tag_263\n      swap1\n        /* \"CoreContracts/StakingRewards.sol\":22377:22446  address(token).functionCall(data, \"SafeERC20: low-level call failed\") */\n      swap3\n      swap2\n      swap1\n      0xffffffff\n      and\n      jump\t// in\n    tag_262:\n        /* \"CoreContracts/StakingRewards.sol\":22460:22477  returndata.length */\n      dup1\n      mload\n        /* \"CoreContracts/StakingRewards.sol\":22351:22446  bytes memory returndata = address(token).functionCall(data, \"SafeERC20: low-level call failed\") */\n      swap1\n      swap2\n      pop\n        /* \"CoreContracts/StakingRewards.sol\":22460:22481  returndata.length > 0 */\n      iszero\n        /* \"CoreContracts/StakingRewards.sol\":22456:22677  if (returndata.length > 0) { // Return data is optional... */\n      tag_240\n      jumpi\n        /* \"CoreContracts/StakingRewards.sol\":22600:22610  returndata */\n      dup1\n        /* \"CoreContracts/StakingRewards.sol\":22589:22619  abi.decode(returndata, (bool)) */\n      dup1\n      0x20\n      add\n      swap1\n      mload\n      0x20\n      dup2\n      lt\n      iszero\n      tag_265\n      jumpi\n      0x00\n      dup1\n      revert\n    tag_265:\n      pop\n      mload\n        /* \"CoreContracts/StakingRewards.sol\":22581:22666  require(abi.decode(returndata, (bool)), \"SafeERC20: ERC20 operation did not succeed\") */\n      tag_240\n      jumpi\n      mload(0x40)\n      shl(0xe5, 0x461bcd)\n      dup2\n      mstore\n      0x04\n      add\n      dup1\n      dup1\n      0x20\n      add\n      dup3\n      dup2\n      sub\n      dup3\n      mstore\n      0x2a\n      dup2\n      mstore\n      0x20\n      add\n      dup1\n      data_e11ad79d1e4a7f2e5f376964cb99e8e8f7904e3fc16a109f7a7ecb9aa7956dcd\n      0x2a\n      swap2\n      codecopy\n      0x40\n      add\n      swap2\n      pop\n      pop\n      mload(0x40)\n      dup1\n      swap2\n      sub\n      swap1\n      revert\n        /* \"CoreContracts/StakingRewards.sol\":15754:15947  function functionCall(address target, bytes memory data, string memory errorMessage) internal returns (bytes memory) {... */\n    tag_263:\n        /* \"CoreContracts/StakingRewards.sol\":15857:15869  bytes memory */\n      0x60\n        /* \"CoreContracts/StakingRewards.sol\":15888:15940  functionCallWithValue(target, data, 0, errorMessage) */\n      tag_268\n        /* \"CoreContracts/StakingRewards.sol\":15910:15916  target */\n      dup5\n        /* \"CoreContracts/StakingRewards.sol\":15918:15922  data */\n      dup5\n        /* \"CoreContracts/StakingRewards.sol\":15924:15925  0 */\n      0x00\n        /* \"CoreContracts/StakingRewards.sol\":15927:15939  errorMessage */\n      dup6\n        /* \"CoreContracts/StakingRewards.sol\":15888:15909  functionCallWithValue */\n      tag_269\n        /* \"CoreContracts/StakingRewards.sol\":15888:15940  functionCallWithValue(target, data, 0, errorMessage) */\n      jump\t// in\n    tag_268:\n        /* \"CoreContracts/StakingRewards.sol\":15881:15940  return functionCallWithValue(target, data, 0, errorMessage) */\n      swap5\n        /* \"CoreContracts/StakingRewards.sol\":15754:15947  function functionCall(address target, bytes memory data, string memory errorMessage) internal returns (bytes memory) {... */\n      swap4\n      pop\n      pop\n      pop\n      pop\n      jump\t// out\n        /* \"CoreContracts/StakingRewards.sol\":16781:17304  function functionCallWithValue(address target, bytes memory data, uint256 value, string memory errorMessage) internal returns (bytes memory) {... */\n    tag_269:\n        /* \"CoreContracts/StakingRewards.sol\":16908:16920  bytes memory */\n      0x60\n        /* \"CoreContracts/StakingRewards.sol\":16965:16970  value */\n      dup3\n        /* \"CoreContracts/StakingRewards.sol\":16940:16961  address(this).balance */\n      selfbalance\n        /* \"CoreContracts/StakingRewards.sol\":16940:16970  address(this).balance >= value */\n      lt\n      iszero\n        /* \"CoreContracts/StakingRewards.sol\":16932:17013  require(address(this).balance >= value, \"Address: insufficient balance for call\") */\n      tag_271\n      jumpi\n      mload(0x40)\n      shl(0xe5, 0x461bcd)\n      dup2\n      mstore\n      0x04\n      add\n      dup1\n      dup1\n      0x20\n      add\n      dup3\n      dup2\n      sub\n      dup3\n      mstore\n      0x26\n      dup2\n      mstore\n      0x20\n      add\n      dup1\n      data_565f1a77334fc4792800921178c71e4521acffab18ff9e7885b49377ee80ab4c\n      0x26\n      swap2\n      codecopy\n      0x40\n      add\n      swap2\n      pop\n      pop\n      mload(0x40)\n      dup1\n      swap2\n      sub\n      swap1\n      revert\n    tag_271:\n        /* \"CoreContracts/StakingRewards.sol\":17031:17049  isContract(target) */\n      tag_272\n        /* \"CoreContracts/StakingRewards.sol\":17042:17048  target */\n      dup6\n        /* \"CoreContracts/StakingRewards.sol\":17031:17041  isContract */\n      tag_273\n        /* \"CoreContracts/StakingRewards.sol\":17031:17049  isContract(target) */\n      jump\t// in\n    tag_272:\n        /* \"CoreContracts/StakingRewards.sol\":17023:17083  require(isContract(target), \"Address: call to non-contract\") */\n      tag_274\n      jumpi\n      0x40\n      dup1\n      mload\n      shl(0xe5, 0x461bcd)\n      dup2\n      mstore\n      0x20\n      0x04\n      dup3\n      add\n      mstore\n      0x1d\n      0x24\n      dup3\n      add\n      mstore\n      0x416464726573733a2063616c6c20746f206e6f6e2d636f6e7472616374000000\n      0x44\n      dup3\n      add\n      mstore\n      swap1\n      mload\n      swap1\n      dup2\n      swap1\n      sub\n      0x64\n      add\n      swap1\n      revert\n    tag_274:\n        /* \"CoreContracts/StakingRewards.sol\":17154:17166  bool success */\n      0x00\n        /* \"CoreContracts/StakingRewards.sol\":17168:17191  bytes memory returndata */\n      dup1\n        /* \"CoreContracts/StakingRewards.sol\":17195:17201  target */\n      dup7\n      sub(shl(0xa0, 0x01), 0x01)\n        /* \"CoreContracts/StakingRewards.sol\":17195:17206  target.call */\n      and\n        /* \"CoreContracts/StakingRewards.sol\":17215:17220  value */\n      dup6\n        /* \"CoreContracts/StakingRewards.sol\":17223:17227  data */\n      dup8\n        /* \"CoreContracts/StakingRewards.sol\":17195:17228  target.call{ value: value }(data) */\n      mload(0x40)\n      dup1\n      dup3\n      dup1\n      mload\n      swap1\n      0x20\n      add\n      swap1\n      dup1\n      dup4\n      dup4\n    tag_275:\n      0x20\n      dup4\n      lt\n      tag_277\n      jumpi\n      dup1\n      mload\n      dup3\n      mstore\n      not(0x1f)\n      swap1\n      swap3\n      add\n      swap2\n      0x20\n      swap2\n      dup3\n      add\n      swap2\n      add\n      jump(tag_275)\n    tag_277:\n      0x01\n      dup4\n      0x20\n      sub\n      0x0100\n      exp\n      sub\n      dup1\n      not\n      dup3\n      mload\n      and\n      dup2\n      dup5\n      mload\n      and\n      dup1\n      dup3\n      or\n      dup6\n      mstore\n      pop\n      pop\n      pop\n      pop\n      pop\n      pop\n      swap1\n      pop\n      add\n      swap2\n      pop\n      pop\n      0x00\n      mload(0x40)\n      dup1\n      dup4\n      sub\n      dup2\n      dup6\n      dup8\n      gas\n      call\n      swap3\n      pop\n      pop\n      pop\n      returndatasize\n      dup1\n      0x00\n      dup2\n      eq\n      tag_280\n      jumpi\n      mload(0x40)\n      swap2\n      pop\n      and(add(returndatasize, 0x3f), not(0x1f))\n      dup3\n      add\n      0x40\n      mstore\n      returndatasize\n      dup3\n      mstore\n      returndatasize\n      0x00\n      0x20\n      dup5\n      add\n      returndatacopy\n      jump(tag_279)\n    tag_280:\n      0x60\n      swap2\n      pop\n    tag_279:\n      pop\n        /* \"CoreContracts/StakingRewards.sol\":17153:17228  (bool success, bytes memory returndata) = target.call{ value: value }(data) */\n      swap2\n      pop\n      swap2\n      pop\n        /* \"CoreContracts/StakingRewards.sol\":17245:17297  _verifyCallResult(success, returndata, errorMessage) */\n      tag_281\n        /* \"CoreContracts/StakingRewards.sol\":17263:17270  success */\n      dup3\n        /* \"CoreContracts/StakingRewards.sol\":17272:17282  returndata */\n      dup3\n        /* \"CoreContracts/StakingRewards.sol\":17284:17296  errorMessage */\n      dup7\n        /* \"CoreContracts/StakingRewards.sol\":17245:17262  _verifyCallResult */\n      tag_282\n        /* \"CoreContracts/StakingRewards.sol\":17245:17297  _verifyCallResult(success, returndata, errorMessage) */\n      jump\t// in\n    tag_281:\n        /* \"CoreContracts/StakingRewards.sol\":17238:17297  return _verifyCallResult(success, returndata, errorMessage) */\n      swap8\n        /* \"CoreContracts/StakingRewards.sol\":16781:17304  function functionCallWithValue(address target, bytes memory data, uint256 value, string memory errorMessage) internal returns (bytes memory) {... */\n      swap7\n      pop\n      pop\n      pop\n      pop\n      pop\n      pop\n      pop\n      jump\t// out\n        /* \"CoreContracts/StakingRewards.sol\":12899:13312  function isContract(address account) internal view returns (bool) {... */\n    tag_273:\n        /* \"CoreContracts/StakingRewards.sol\":13259:13279  extcodesize(account) */\n      extcodesize\n        /* \"CoreContracts/StakingRewards.sol\":13297:13305  size > 0 */\n      iszero\n      iszero\n      swap1\n        /* \"CoreContracts/StakingRewards.sol\":12899:13312  function isContract(address account) internal view returns (bool) {... */\n      jump\t// out\n        /* \"CoreContracts/StakingRewards.sol\":18284:19009  function _verifyCallResult(bool success, bytes memory returndata, string memory errorMessage) private pure returns(bytes memory) {... */\n    tag_282:\n        /* \"CoreContracts/StakingRewards.sol\":18399:18411  bytes memory */\n      0x60\n        /* \"CoreContracts/StakingRewards.sol\":18427:18434  success */\n      dup4\n        /* \"CoreContracts/StakingRewards.sol\":18423:19003  if (success) {... */\n      iszero\n      tag_285\n      jumpi\n      pop\n        /* \"CoreContracts/StakingRewards.sol\":18457:18467  returndata */\n      dup2\n        /* \"CoreContracts/StakingRewards.sol\":18450:18467  return returndata */\n      jump(tag_228)\n        /* \"CoreContracts/StakingRewards.sol\":18423:19003  if (success) {... */\n    tag_285:\n        /* \"CoreContracts/StakingRewards.sol\":18568:18585  returndata.length */\n      dup3\n      mload\n        /* \"CoreContracts/StakingRewards.sol\":18568:18589  returndata.length > 0 */\n      iszero\n        /* \"CoreContracts/StakingRewards.sol\":18564:18993  if (returndata.length > 0) {... */\n      tag_287\n      jumpi\n        /* \"CoreContracts/StakingRewards.sol\":18826:18836  returndata */\n      dup3\n        /* \"CoreContracts/StakingRewards.sol\":18820:18837  mload(returndata) */\n      mload\n        /* \"CoreContracts/StakingRewards.sol\":18886:18901  returndata_size */\n      dup1\n        /* \"CoreContracts/StakingRewards.sol\":18873:18883  returndata */\n      dup5\n        /* \"CoreContracts/StakingRewards.sol\":18869:18871  32 */\n      0x20\n        /* \"CoreContracts/StakingRewards.sol\":18865:18884  add(32, returndata) */\n      add\n        /* \"CoreContracts/StakingRewards.sol\":18858:18902  revert(add(32, returndata), returndata_size) */\n      revert\n        /* \"CoreContracts/StakingRewards.sol\":18775:18920  {... */\n    tag_287:\n        /* \"CoreContracts/StakingRewards.sol\":18958:18978  revert(errorMessage) */\n      mload(0x40)\n      shl(0xe5, 0x461bcd)\n      dup2\n      mstore\n      0x20\n      0x04\n      dup3\n      add\n      dup2\n      dup2\n      mstore\n      dup5\n      mload\n      0x24\n      dup5\n      add\n      mstore\n      dup5\n      mload\n        /* \"CoreContracts/StakingRewards.sol\":18965:18977  errorMessage */\n      dup6\n      swap4\n        /* \"CoreContracts/StakingRewards.sol\":18958:18978  revert(errorMessage) */\n      swap2\n      swap3\n      dup4\n      swap3\n      0x44\n      add\n      swap2\n      swap1\n      dup6\n      add\n      swap1\n      dup1\n      dup4\n      dup4\n      0x00\n      dup4\n      iszero\n      tag_252\n      jumpi\n      dup2\n      dup2\n      add\n      mload\n      dup4\n      dup3\n      add\n      mstore\n      0x20\n      add\n      jump(tag_250)\n    stop\n    data_07f2725172f5941b576a01ec7036d341e0c837e280f27b110cb3e6fd2f2c4a56 50726576696f7573207265776172647320706572696f64206d75737420626520636f6d706c657465206265666f7265206368616e67696e6720746865206475726174696f6e20666f7220746865206e657720706572696f64\n    data_245f15ff17f551913a7a18385165551503906a406f905ac1c2437281a7cd0cfe 4f776e61626c653a206e6577206f776e657220697320746865207a65726f2061646472657373\n    data_565f1a77334fc4792800921178c71e4521acffab18ff9e7885b49377ee80ab4c 416464726573733a20696e73756666696369656e742062616c616e636520666f722063616c6c\n    data_9113bb53c2876a3805b2c9242029423fc540a728243ce887ab24c82cf119fba3 536166654d6174683a206d756c7469706c69636174696f6e206f766572666c6f77\n    data_e11ad79d1e4a7f2e5f376964cb99e8e8f7904e3fc16a109f7a7ecb9aa7956dcd 5361666545524332303a204552433230206f7065726174696f6e20646964206e6f742073756363656564\n    data_f43de9f2a3539b2ac9cf1844588e9cc0acd1b2bdb1ec43734f76440993ede0a9 43616e6e6f7420776974686472617720746865207374616b696e6720746f6b656e\n\n    auxdata: 0xa2646970667358221220bfa5b2869e65e714faf1cd7309f0c87d8d4eb6a3bc1fc992421b724c62cd72e764736f6c63430007060033\n}\n",
				"bytecode": {
					"linkReferences": {},
					"object": "6080604052600060045560006005556201518060065534801561002157600080fd5b50604051611b8a380380611b8a8339818101604052604081101561004457600080fd5b5080516020909101516001600090815561005c6100db565b600180546001600160a01b0319166001600160a01b038316908117909155604051919250906000907f8be0079c531659141344cd1fd0a4f28419497f9722a3daafe3b4186f6b6457e0908290a350600280546001600160a01b039384166001600160a01b031991821617909155600380549290931691161790556100df565b3390565b611a9c806100ee6000396000f3fe608060405234801561001057600080fd5b50600436106101ad5760003560e01c80638980f11f116100ee578063cd3daf9d11610097578063e9fad8ee11610071578063e9fad8ee14610382578063ebe2b12b1461038a578063ecd9ba8214610392578063f2fde38b146103ca576101ad565b8063cd3daf9d1461036a578063d1af0c7d14610372578063df136d651461037a576101ad565b8063a694fc3a116100c8578063a694fc3a14610328578063c8f33c9114610345578063cc1a378f1461034d576101ad565b80638980f11f146102ce5780638b876347146102fa5780638da5cb5b14610320576101ad565b80633c6b16ab1161015b578063715018a611610135578063715018a61461029257806372f702f31461029a5780637b0a47ee146102be57806380faa57d146102c6576101ad565b80633c6b16ab146102475780633d18b9121461026457806370a082311461026c576101ad565b80631c1f78eb1161018c5780631c1f78eb146102185780632e1a7d4d14610220578063386a95251461023f576101ad565b80628cc262146101b25780630700037d146101ea57806318160ddd14610210575b600080fd5b6101d8600480360360208110156101c857600080fd5b50356001600160a01b03166103f0565b60408051918252519081900360200190f35b6101d86004803603602081101561020057600080fd5b50356001600160a01b031661046e565b6101d8610480565b6101d8610487565b61023d6004803603602081101561023657600080fd5b50356104a5565b005b6101d8610647565b61023d6004803603602081101561025d57600080fd5b503561064d565b61023d6108ba565b6101d86004803603602081101561028257600080fd5b50356001600160a01b03166109f1565b61023d610a0c565b6102a2610acd565b604080516001600160a01b039092168252519081900360200190f35b6101d8610adc565b6101d8610ae2565b61023d600480360360408110156102e457600080fd5b506001600160a01b038135169060200135610af0565b6101d86004803603602081101561031057600080fd5b50356001600160a01b0316610c6d565b6102a2610c7f565b61023d6004803603602081101561033e57600080fd5b5035610c8e565b6101d8610e31565b61023d6004803603602081101561036357600080fd5b5035610e37565b6101d8610f71565b6102a2610fbf565b6101d8610fce565b61023d610fd4565b6101d8610ff7565b61023d600480360360a08110156103a857600080fd5b5080359060208101359060ff6040820135169060608101359060800135610ffd565b61023d600480360360208110156103e057600080fd5b50356001600160a01b0316611248565b6001600160a01b0381166000908152600a60209081526040808320546009909252822054610468919061046290670de0b6b3a76400009061045c9061043d90610437610f71565b90611360565b6001600160a01b0388166000908152600c6020526040902054906113a9565b90611402565b90611444565b92915050565b600a6020526000908152604090205481565b600b545b90565b60006104a06006546005546113a990919063ffffffff16565b905090565b600260005414156104fd576040805162461bcd60e51b815260206004820152601f60248201527f5265656e7472616e637947756172643a207265656e7472616e742063616c6c00604482015290519081900360640190fd5b60026000553361050b610f71565b600855610516610ae2565b6007556001600160a01b0381161561055d57610531816103f0565b6001600160a01b0382166000908152600a60209081526040808320939093556008546009909152919020555b600082116105b2576040805162461bcd60e51b815260206004820152601160248201527f43616e6e6f742077697468647261772030000000000000000000000000000000604482015290519081900360640190fd5b600b546105bf9083611360565b600b55336000908152600c60205260409020546105dc9083611360565b336000818152600c6020526040902091909155600354610608916001600160a01b03909116908461149e565b60408051838152905133917f7084f5476618d8e60b11ef0d7d3f06914655adb8793e28ff7f018d4c76d505d5919081900360200190a250506001600055565b60065481565b610655611523565b6001546001600160a01b039081169116146106b7576040805162461bcd60e51b815260206004820181905260248201527f4f776e61626c653a2063616c6c6572206973206e6f7420746865206f776e6572604482015290519081900360640190fd5b60006106c1610f71565b6008556106cc610ae2565b6007556001600160a01b03811615610713576106e7816103f0565b6001600160a01b0382166000908152600a60209081526040808320939093556008546009909152919020555b60045442106107325760065461072a908390611402565b600555610775565b6004546000906107429042611360565b9050600061075b600554836113a990919063ffffffff16565b60065490915061076f9061045c8684611444565b60055550505b600254604080517f70a0823100000000000000000000000000000000000000000000000000000000815230600482015290516000926001600160a01b0316916370a08231916024808301926020929190829003018186803b1580156107d957600080fd5b505afa1580156107ed573d6000803e3d6000fd5b505050506040513d602081101561080357600080fd5b5051600654909150610816908290611402565b600554111561086c576040805162461bcd60e51b815260206004820152601860248201527f50726f76696465642072657761726420746f6f20686967680000000000000000604482015290519081900360640190fd5b42600781905560065461087f9190611444565b6004556040805184815290517fde88a922e0d3b88b24e9623efeb464919c6bf9f66857a65e2bfcf2ce87a9433d9181900360200190a1505050565b60026000541415610912576040805162461bcd60e51b815260206004820152601f60248201527f5265656e7472616e637947756172643a207265656e7472616e742063616c6c00604482015290519081900360640190fd5b600260005533610920610f71565b60085561092b610ae2565b6007556001600160a01b0381161561097257610946816103f0565b6001600160a01b0382166000908152600a60209081526040808320939093556008546009909152919020555b336000908152600a602052604090205480156109e857336000818152600a60205260408120556002546109b1916001600160a01b03909116908361149e565b60408051828152905133917fe2403640ba68fed3a2f88b7557551d1993f84b99bb10ff833f0cf8db0c5e0486919081900360200190a25b50506001600055565b6001600160a01b03166000908152600c602052604090205490565b610a14611523565b6001546001600160a01b03908116911614610a76576040805162461bcd60e51b815260206004820181905260248201527f4f776e61626c653a2063616c6c6572206973206e6f7420746865206f776e6572604482015290519081900360640190fd5b6001546040516000916001600160a01b0316907f8be0079c531659141344cd1fd0a4f28419497f9722a3daafe3b4186f6b6457e0908390a36001805473ffffffffffffffffffffffffffffffffffffffff19169055565b6003546001600160a01b031681565b60055481565b60006104a042600454611527565b610af8611523565b6001546001600160a01b03908116911614610b5a576040805162461bcd60e51b815260206004820181905260248201527f4f776e61626c653a2063616c6c6572206973206e6f7420746865206f776e6572604482015290519081900360640190fd5b60026000541415610bb2576040805162461bcd60e51b815260206004820152601f60248201527f5265656e7472616e637947756172643a207265656e7472616e742063616c6c00604482015290519081900360640190fd5b60026000556003546001600160a01b0383811691161415610c045760405162461bcd60e51b8152600401808060200182810382526021815260200180611a466021913960400191505060405180910390fd5b610c20610c0f610c7f565b6001600160a01b038416908361149e565b604080516001600160a01b03841681526020810183905281517f8c1256b8896378cd5044f80c202f9772b9d77dc85c8a6eb51967210b09bfaa28929181900390910190a150506001600055565b60096020526000908152604090205481565b6001546001600160a01b031690565b60026000541415610ce6576040805162461bcd60e51b815260206004820152601f60248201527f5265656e7472616e637947756172643a207265656e7472616e742063616c6c00604482015290519081900360640190fd5b600260005533610cf4610f71565b600855610cff610ae2565b6007556001600160a01b03811615610d4657610d1a816103f0565b6001600160a01b0382166000908152600a60209081526040808320939093556008546009909152919020555b60008211610d9b576040805162461bcd60e51b815260206004820152600e60248201527f43616e6e6f74207374616b652030000000000000000000000000000000000000604482015290519081900360640190fd5b600b54610da89083611444565b600b55336000908152600c6020526040902054610dc59083611444565b336000818152600c6020526040902091909155600354610df2916001600160a01b0390911690308561153d565b60408051838152905133917f9e71bc8eea02a63969f509818f2dafb9254532904319f9dbda79b67bd34a5f3d919081900360200190a250506001600055565b60075481565b610e3f611523565b6001546001600160a01b03908116911614610ea1576040805162461bcd60e51b815260206004820181905260248201527f4f776e61626c653a2063616c6c6572206973206e6f7420746865206f776e6572604482015290519081900360640190fd5b6004544211610ee15760405162461bcd60e51b81526004018080602001828103825260588152602001806119576058913960600191505060405180910390fd5b60008111610f36576040805162461bcd60e51b815260206004820152601d60248201527f526577617264206475726174696f6e2063616e2774206265207a65726f000000604482015290519081900360640190fd5b60068190556040805182815290517ffb46ca5a5e06d4540d6387b930a7c978bce0db5f449ec6b3f5d07c6e1d44f2d39181900360200190a150565b6000600b5460001415610f875750600854610484565b6104a0610fb6600b5461045c670de0b6b3a7640000610fb0600554610fb0600754610437610ae2565b906113a9565b60085490611444565b6002546001600160a01b031681565b60085481565b336000908152600c6020526040902054610fed906104a5565b610ff56108ba565b565b60045481565b60026000541415611055576040805162461bcd60e51b815260206004820152601f60248201527f5265656e7472616e637947756172643a207265656e7472616e742063616c6c00604482015290519081900360640190fd5b600260005533611063610f71565b60085561106e610ae2565b6007556001600160a01b038116156110b557611089816103f0565b6001600160a01b0382166000908152600a60209081526040808320939093556008546009909152919020555b6000861161110a576040805162461bcd60e51b815260206004820152600e60248201527f43616e6e6f74207374616b652030000000000000000000000000000000000000604482015290519081900360640190fd5b600b546111179087611444565b600b55336000908152600c60205260409020546111349087611444565b336000818152600c60205260408082209390935560035483517fd505accf0000000000000000000000000000000000000000000000000000000081526004810193909352306024840152604483018a90526064830189905260ff8816608484015260a4830187905260c4830186905292516001600160a01b039093169263d505accf9260e480820193929182900301818387803b1580156111d457600080fd5b505af11580156111e8573d6000803e3d6000fd5b505060035461120592506001600160a01b0316905033308961153d565b60408051878152905133917f9e71bc8eea02a63969f509818f2dafb9254532904319f9dbda79b67bd34a5f3d919081900360200190a25050600160005550505050565b611250611523565b6001546001600160a01b039081169116146112b2576040805162461bcd60e51b815260206004820181905260248201527f4f776e61626c653a2063616c6c6572206973206e6f7420746865206f776e6572604482015290519081900360640190fd5b6001600160a01b0381166112f75760405162461bcd60e51b81526004018080602001828103825260268152602001806119af6026913960400191505060405180910390fd5b6001546040516001600160a01b038084169216907f8be0079c531659141344cd1fd0a4f28419497f9722a3daafe3b4186f6b6457e090600090a36001805473ffffffffffffffffffffffffffffffffffffffff19166001600160a01b0392909216919091179055565b60006113a283836040518060400160405280601e81526020017f536166654d6174683a207375627472616374696f6e206f766572666c6f7700008152506115cb565b9392505050565b6000826113b857506000610468565b828202828482816113c557fe5b04146113a25760405162461bcd60e51b81526004018080602001828103825260218152602001806119fb6021913960400191505060405180910390fd5b60006113a283836040518060400160405280601a81526020017f536166654d6174683a206469766973696f6e206279207a65726f000000000000815250611662565b6000828201838110156113a2576040805162461bcd60e51b815260206004820152601b60248201527f536166654d6174683a206164646974696f6e206f766572666c6f770000000000604482015290519081900360640190fd5b604080516001600160a01b038416602482015260448082018490528251808303909101815260649091019091526020810180517bffffffffffffffffffffffffffffffffffffffffffffffffffffffff167fa9059cbb0000000000000000000000000000000000000000000000000000000017905261151e9084906116c7565b505050565b3390565b600081831061153657816113a2565b5090919050565b604080516001600160a01b0380861660248301528416604482015260648082018490528251808303909101815260849091019091526020810180517bffffffffffffffffffffffffffffffffffffffffffffffffffffffff167f23b872dd000000000000000000000000000000000000000000000000000000001790526115c59085906116c7565b50505050565b6000818484111561165a5760405162461bcd60e51b81526004018080602001828103825283818151815260200191508051906020019080838360005b8381101561161f578181015183820152602001611607565b50505050905090810190601f16801561164c5780820380516001836020036101000a031916815260200191505b509250505060405180910390fd5b505050900390565b600081836116b15760405162461bcd60e51b815260206004820181815283516024840152835190928392604490910191908501908083836000831561161f578181015183820152602001611607565b5060008385816116bd57fe5b0495945050505050565b600061171c826040518060400160405280602081526020017f5361666545524332303a206c6f772d6c6576656c2063616c6c206661696c6564815250856001600160a01b03166117789092919063ffffffff16565b80519091501561151e5780806020019051602081101561173b57600080fd5b505161151e5760405162461bcd60e51b815260040180806020018281038252602a815260200180611a1c602a913960400191505060405180910390fd5b6060611787848460008561178f565b949350505050565b6060824710156117d05760405162461bcd60e51b81526004018080602001828103825260268152602001806119d56026913960400191505060405180910390fd5b6117d9856118ea565b61182a576040805162461bcd60e51b815260206004820152601d60248201527f416464726573733a2063616c6c20746f206e6f6e2d636f6e7472616374000000604482015290519081900360640190fd5b600080866001600160a01b031685876040518082805190602001908083835b602083106118685780518252601f199092019160209182019101611849565b6001836020036101000a03801982511681845116808217855250505050505090500191505060006040518083038185875af1925050503d80600081146118ca576040519150601f19603f3d011682016040523d82523d6000602084013e6118cf565b606091505b50915091506118df8282866118f0565b979650505050505050565b3b151590565b606083156118ff5750816113a2565b82511561190f5782518084602001fd5b60405162461bcd60e51b815260206004820181815284516024840152845185939192839260440191908501908083836000831561161f57818101518382015260200161160756fe50726576696f7573207265776172647320706572696f64206d75737420626520636f6d706c657465206265666f7265206368616e67696e6720746865206475726174696f6e20666f7220746865206e657720706572696f644f776e61626c653a206e6577206f776e657220697320746865207a65726f2061646472657373416464726573733a20696e73756666696369656e742062616c616e636520666f722063616c6c536166654d6174683a206d756c7469706c69636174696f6e206f766572666c6f775361666545524332303a204552433230206f7065726174696f6e20646964206e6f74207375636365656443616e6e6f7420776974686472617720746865207374616b696e6720746f6b656ea2646970667358221220bfa5b2869e65e714faf1cd7309f0c87d8d4eb6a3bc1fc992421b724c62cd72e764736f6c63430007060033",
					"opcodes": "PUSH1 0x80 PUSH1 0x40 MSTORE PUSH1 0x0 PUSH1 0x4 SSTORE PUSH1 0x0 PUSH1 0x5 SSTORE PUSH3 0x15180 PUSH1 0x6 SSTORE CALLVALUE DUP1 ISZERO PUSH2 0x21 JUMPI PUSH1 0x0 DUP1 REVERT JUMPDEST POP PUSH1 0x40 MLOAD PUSH2 0x1B8A CODESIZE SUB DUP1 PUSH2 0x1B8A DUP4 CODECOPY DUP2 DUP2 ADD PUSH1 0x40 MSTORE PUSH1 0x40 DUP2 LT ISZERO PUSH2 0x44 JUMPI PUSH1 0x0 DUP1 REVERT JUMPDEST POP DUP1 MLOAD PUSH1 0x20 SWAP1 SWAP2 ADD MLOAD PUSH1 0x1 PUSH1 0x0 SWAP1 DUP2 SSTORE PUSH2 0x5C PUSH2 0xDB JUMP JUMPDEST PUSH1 0x1 DUP1 SLOAD PUSH1 0x1 PUSH1 0x1 PUSH1 0xA0 SHL SUB NOT AND PUSH1 0x1 PUSH1 0x1 PUSH1 0xA0 SHL SUB DUP4 AND SWAP1 DUP2 OR SWAP1 SWAP2 SSTORE PUSH1 0x40 MLOAD SWAP2 SWAP3 POP SWAP1 PUSH1 0x0 SWAP1 PUSH32 0x8BE0079C531659141344CD1FD0A4F28419497F9722A3DAAFE3B4186F6B6457E0 SWAP1 DUP3 SWAP1 LOG3 POP PUSH1 0x2 DUP1 SLOAD PUSH1 0x1 PUSH1 0x1 PUSH1 0xA0 SHL SUB SWAP4 DUP5 AND PUSH1 0x1 PUSH1 0x1 PUSH1 0xA0 SHL SUB NOT SWAP2 DUP3 AND OR SWAP1 SWAP2 SSTORE PUSH1 0x3 DUP1 SLOAD SWAP3 SWAP1 SWAP4 AND SWAP2 AND OR SWAP1 SSTORE PUSH2 0xDF JUMP JUMPDEST CALLER SWAP1 JUMP JUMPDEST PUSH2 0x1A9C DUP1 PUSH2 0xEE PUSH1 0x0 CODECOPY PUSH1 0x0 RETURN INVALID PUSH1 0x80 PUSH1 0x40 MSTORE CALLVALUE DUP1 ISZERO PUSH2 0x10 JUMPI PUSH1 0x0 DUP1 REVERT JUMPDEST POP PUSH1 0x4 CALLDATASIZE LT PUSH2 0x1AD JUMPI PUSH1 0x0 CALLDATALOAD PUSH1 0xE0 SHR DUP1 PUSH4 0x8980F11F GT PUSH2 0xEE JUMPI DUP1 PUSH4 0xCD3DAF9D GT PUSH2 0x97 JUMPI DUP1 PUSH4 0xE9FAD8EE GT PUSH2 0x71 JUMPI DUP1 PUSH4 0xE9FAD8EE EQ PUSH2 0x382 JUMPI DUP1 PUSH4 0xEBE2B12B EQ PUSH2 0x38A JUMPI DUP1 PUSH4 0xECD9BA82 EQ PUSH2 0x392 JUMPI DUP1 PUSH4 0xF2FDE38B EQ PUSH2 0x3CA JUMPI PUSH2 0x1AD JUMP JUMPDEST DUP1 PUSH4 0xCD3DAF9D EQ PUSH2 0x36A JUMPI DUP1 PUSH4 0xD1AF0C7D EQ PUSH2 0x372 JUMPI DUP1 PUSH4 0xDF136D65 EQ PUSH2 0x37A JUMPI PUSH2 0x1AD JUMP JUMPDEST DUP1 PUSH4 0xA694FC3A GT PUSH2 0xC8 JUMPI DUP1 PUSH4 0xA694FC3A EQ PUSH2 0x328 JUMPI DUP1 PUSH4 0xC8F33C91 EQ PUSH2 0x345 JUMPI DUP1 PUSH4 0xCC1A378F EQ PUSH2 0x34D JUMPI PUSH2 0x1AD JUMP JUMPDEST DUP1 PUSH4 0x8980F11F EQ PUSH2 0x2CE JUMPI DUP1 PUSH4 0x8B876347 EQ PUSH2 0x2FA JUMPI DUP1 PUSH4 0x8DA5CB5B EQ PUSH2 0x320 JUMPI PUSH2 0x1AD JUMP JUMPDEST DUP1 PUSH4 0x3C6B16AB GT PUSH2 0x15B JUMPI DUP1 PUSH4 0x715018A6 GT PUSH2 0x135 JUMPI DUP1 PUSH4 0x715018A6 EQ PUSH2 0x292 JUMPI DUP1 PUSH4 0x72F702F3 EQ PUSH2 0x29A JUMPI DUP1 PUSH4 0x7B0A47EE EQ PUSH2 0x2BE JUMPI DUP1 PUSH4 0x80FAA57D EQ PUSH2 0x2C6 JUMPI PUSH2 0x1AD JUMP JUMPDEST DUP1 PUSH4 0x3C6B16AB EQ PUSH2 0x247 JUMPI DUP1 PUSH4 0x3D18B912 EQ PUSH2 0x264 JUMPI DUP1 PUSH4 0x70A08231 EQ PUSH2 0x26C JUMPI PUSH2 0x1AD JUMP JUMPDEST DUP1 PUSH4 0x1C1F78EB GT PUSH2 0x18C JUMPI DUP1 PUSH4 0x1C1F78EB EQ PUSH2 0x218 JUMPI DUP1 PUSH4 0x2E1A7D4D EQ PUSH2 0x220 JUMPI DUP1 PUSH4 0x386A9525 EQ PUSH2 0x23F JUMPI PUSH2 0x1AD JUMP JUMPDEST DUP1 PUSH3 0x8CC262 EQ PUSH2 0x1B2 JUMPI DUP1 PUSH4 0x700037D EQ PUSH2 0x1EA JUMPI DUP1 PUSH4 0x18160DDD EQ PUSH2 0x210 JUMPI JUMPDEST PUSH1 0x0 DUP1 REVERT JUMPDEST PUSH2 0x1D8 PUSH1 0x4 DUP1 CALLDATASIZE SUB PUSH1 0x20 DUP2 LT ISZERO PUSH2 0x1C8 JUMPI PUSH1 0x0 DUP1 REVERT JUMPDEST POP CALLDATALOAD PUSH1 0x1 PUSH1 0x1 PUSH1 0xA0 SHL SUB AND PUSH2 0x3F0 JUMP JUMPDEST PUSH1 0x40 DUP1 MLOAD SWAP2 DUP3 MSTORE MLOAD SWAP1 DUP2 SWAP1 SUB PUSH1 0x20 ADD SWAP1 RETURN JUMPDEST PUSH2 0x1D8 PUSH1 0x4 DUP1 CALLDATASIZE SUB PUSH1 0x20 DUP2 LT ISZERO PUSH2 0x200 JUMPI PUSH1 0x0 DUP1 REVERT JUMPDEST POP CALLDATALOAD PUSH1 0x1 PUSH1 0x1 PUSH1 0xA0 SHL SUB AND PUSH2 0x46E JUMP JUMPDEST PUSH2 0x1D8 PUSH2 0x480 JUMP JUMPDEST PUSH2 0x1D8 PUSH2 0x487 JUMP JUMPDEST PUSH2 0x23D PUSH1 0x4 DUP1 CALLDATASIZE SUB PUSH1 0x20 DUP2 LT ISZERO PUSH2 0x236 JUMPI PUSH1 0x0 DUP1 REVERT JUMPDEST POP CALLDATALOAD PUSH2 0x4A5 JUMP JUMPDEST STOP JUMPDEST PUSH2 0x1D8 PUSH2 0x647 JUMP JUMPDEST PUSH2 0x23D PUSH1 0x4 DUP1 CALLDATASIZE SUB PUSH1 0x20 DUP2 LT ISZERO PUSH2 0x25D JUMPI PUSH1 0x0 DUP1 REVERT JUMPDEST POP CALLDATALOAD PUSH2 0x64D JUMP JUMPDEST PUSH2 0x23D PUSH2 0x8BA JUMP JUMPDEST PUSH2 0x1D8 PUSH1 0x4 DUP1 CALLDATASIZE SUB PUSH1 0x20 DUP2 LT ISZERO PUSH2 0x282 JUMPI PUSH1 0x0 DUP1 REVERT JUMPDEST POP CALLDATALOAD PUSH1 0x1 PUSH1 0x1 PUSH1 0xA0 SHL SUB AND PUSH2 0x9F1 JUMP JUMPDEST PUSH2 0x23D PUSH2 0xA0C JUMP JUMPDEST PUSH2 0x2A2 PUSH2 0xACD JUMP JUMPDEST PUSH1 0x40 DUP1 MLOAD PUSH1 0x1 PUSH1 0x1 PUSH1 0xA0 SHL SUB SWAP1 SWAP3 AND DUP3 MSTORE MLOAD SWAP1 DUP2 SWAP1 SUB PUSH1 0x20 ADD SWAP1 RETURN JUMPDEST PUSH2 0x1D8 PUSH2 0xADC JUMP JUMPDEST PUSH2 0x1D8 PUSH2 0xAE2 JUMP JUMPDEST PUSH2 0x23D PUSH1 0x4 DUP1 CALLDATASIZE SUB PUSH1 0x40 DUP2 LT ISZERO PUSH2 0x2E4 JUMPI PUSH1 0x0 DUP1 REVERT JUMPDEST POP PUSH1 0x1 PUSH1 0x1 PUSH1 0xA0 SHL SUB DUP2 CALLDATALOAD AND SWAP1 PUSH1 0x20 ADD CALLDATALOAD PUSH2 0xAF0 JUMP JUMPDEST PUSH2 0x1D8 PUSH1 0x4 DUP1 CALLDATASIZE SUB PUSH1 0x20 DUP2 LT ISZERO PUSH2 0x310 JUMPI PUSH1 0x0 DUP1 REVERT JUMPDEST POP CALLDATALOAD PUSH1 0x1 PUSH1 0x1 PUSH1 0xA0 SHL SUB AND PUSH2 0xC6D JUMP JUMPDEST PUSH2 0x2A2 PUSH2 0xC7F JUMP JUMPDEST PUSH2 0x23D PUSH1 0x4 DUP1 CALLDATASIZE SUB PUSH1 0x20 DUP2 LT ISZERO PUSH2 0x33E JUMPI PUSH1 0x0 DUP1 REVERT JUMPDEST POP CALLDATALOAD PUSH2 0xC8E JUMP JUMPDEST PUSH2 0x1D8 PUSH2 0xE31 JUMP JUMPDEST PUSH2 0x23D PUSH1 0x4 DUP1 CALLDATASIZE SUB PUSH1 0x20 DUP2 LT ISZERO PUSH2 0x363 JUMPI PUSH1 0x0 DUP1 REVERT JUMPDEST POP CALLDATALOAD PUSH2 0xE37 JUMP JUMPDEST PUSH2 0x1D8 PUSH2 0xF71 JUMP JUMPDEST PUSH2 0x2A2 PUSH2 0xFBF JUMP JUMPDEST PUSH2 0x1D8 PUSH2 0xFCE JUMP JUMPDEST PUSH2 0x23D PUSH2 0xFD4 JUMP JUMPDEST PUSH2 0x1D8 PUSH2 0xFF7 JUMP JUMPDEST PUSH2 0x23D PUSH1 0x4 DUP1 CALLDATASIZE SUB PUSH1 0xA0 DUP2 LT ISZERO PUSH2 0x3A8 JUMPI PUSH1 0x0 DUP1 REVERT JUMPDEST POP DUP1 CALLDATALOAD SWAP1 PUSH1 0x20 DUP2 ADD CALLDATALOAD SWAP1 PUSH1 0xFF PUSH1 0x40 DUP3 ADD CALLDATALOAD AND SWAP1 PUSH1 0x60 DUP2 ADD CALLDATALOAD SWAP1 PUSH1 0x80 ADD CALLDATALOAD PUSH2 0xFFD JUMP JUMPDEST PUSH2 0x23D PUSH1 0x4 DUP1 CALLDATASIZE SUB PUSH1 0x20 DUP2 LT ISZERO PUSH2 0x3E0 JUMPI PUSH1 0x0 DUP1 REVERT JUMPDEST POP CALLDATALOAD PUSH1 0x1 PUSH1 0x1 PUSH1 0xA0 SHL SUB AND PUSH2 0x1248 JUMP JUMPDEST PUSH1 0x1 PUSH1 0x1 PUSH1 0xA0 SHL SUB DUP2 AND PUSH1 0x0 SWAP1 DUP2 MSTORE PUSH1 0xA PUSH1 0x20 SWAP1 DUP2 MSTORE PUSH1 0x40 DUP1 DUP4 KECCAK256 SLOAD PUSH1 0x9 SWAP1 SWAP3 MSTORE DUP3 KECCAK256 SLOAD PUSH2 0x468 SWAP2 SWAP1 PUSH2 0x462 SWAP1 PUSH8 0xDE0B6B3A7640000 SWAP1 PUSH2 0x45C SWAP1 PUSH2 0x43D SWAP1 PUSH2 0x437 PUSH2 0xF71 JUMP JUMPDEST SWAP1 PUSH2 0x1360 JUMP JUMPDEST PUSH1 0x1 PUSH1 0x1 PUSH1 0xA0 SHL SUB DUP9 AND PUSH1 0x0 SWAP1 DUP2 MSTORE PUSH1 0xC PUSH1 0x20 MSTORE PUSH1 0x40 SWAP1 KECCAK256 SLOAD SWAP1 PUSH2 0x13A9 JUMP JUMPDEST SWAP1 PUSH2 0x1402 JUMP JUMPDEST SWAP1 PUSH2 0x1444 JUMP JUMPDEST SWAP3 SWAP2 POP POP JUMP JUMPDEST PUSH1 0xA PUSH1 0x20 MSTORE PUSH1 0x0 SWAP1 DUP2 MSTORE PUSH1 0x40 SWAP1 KECCAK256 SLOAD DUP2 JUMP JUMPDEST PUSH1 0xB SLOAD JUMPDEST SWAP1 JUMP JUMPDEST PUSH1 0x0 PUSH2 0x4A0 PUSH1 0x6 SLOAD PUSH1 0x5 SLOAD PUSH2 0x13A9 SWAP1 SWAP2 SWAP1 PUSH4 0xFFFFFFFF AND JUMP JUMPDEST SWAP1 POP SWAP1 JUMP JUMPDEST PUSH1 0x2 PUSH1 0x0 SLOAD EQ ISZERO PUSH2 0x4FD JUMPI PUSH1 0x40 DUP1 MLOAD PUSH3 0x461BCD PUSH1 0xE5 SHL DUP2 MSTORE PUSH1 0x20 PUSH1 0x4 DUP3 ADD MSTORE PUSH1 0x1F PUSH1 0x24 DUP3 ADD MSTORE PUSH32 0x5265656E7472616E637947756172643A207265656E7472616E742063616C6C00 PUSH1 0x44 DUP3 ADD MSTORE SWAP1 MLOAD SWAP1 DUP2 SWAP1 SUB PUSH1 0x64 ADD SWAP1 REVERT JUMPDEST PUSH1 0x2 PUSH1 0x0 SSTORE CALLER PUSH2 0x50B PUSH2 0xF71 JUMP JUMPDEST PUSH1 0x8 SSTORE PUSH2 0x516 PUSH2 0xAE2 JUMP JUMPDEST PUSH1 0x7 SSTORE PUSH1 0x1 PUSH1 0x1 PUSH1 0xA0 SHL SUB DUP2 AND ISZERO PUSH2 0x55D JUMPI PUSH2 0x531 DUP2 PUSH2 0x3F0 JUMP JUMPDEST PUSH1 0x1 PUSH1 0x1 PUSH1 0xA0 SHL SUB DUP3 AND PUSH1 0x0 SWAP1 DUP2 MSTORE PUSH1 0xA PUSH1 0x20 SWAP1 DUP2 MSTORE PUSH1 0x40 DUP1 DUP4 KECCAK256 SWAP4 SWAP1 SWAP4 SSTORE PUSH1 0x8 SLOAD PUSH1 0x9 SWAP1 SWAP2 MSTORE SWAP2 SWAP1 KECCAK256 SSTORE JUMPDEST PUSH1 0x0 DUP3 GT PUSH2 0x5B2 JUMPI PUSH1 0x40 DUP1 MLOAD PUSH3 0x461BCD PUSH1 0xE5 SHL DUP2 MSTORE PUSH1 0x20 PUSH1 0x4 DUP3 ADD MSTORE PUSH1 0x11 PUSH1 0x24 DUP3 ADD MSTORE PUSH32 0x43616E6E6F742077697468647261772030000000000000000000000000000000 PUSH1 0x44 DUP3 ADD MSTORE SWAP1 MLOAD SWAP1 DUP2 SWAP1 SUB PUSH1 0x64 ADD SWAP1 REVERT JUMPDEST PUSH1 0xB SLOAD PUSH2 0x5BF SWAP1 DUP4 PUSH2 0x1360 JUMP JUMPDEST PUSH1 0xB SSTORE CALLER PUSH1 0x0 SWAP1 DUP2 MSTORE PUSH1 0xC PUSH1 0x20 MSTORE PUSH1 0x40 SWAP1 KECCAK256 SLOAD PUSH2 0x5DC SWAP1 DUP4 PUSH2 0x1360 JUMP JUMPDEST CALLER PUSH1 0x0 DUP2 DUP2 MSTORE PUSH1 0xC PUSH1 0x20 MSTORE PUSH1 0x40 SWAP1 KECCAK256 SWAP2 SWAP1 SWAP2 SSTORE PUSH1 0x3 SLOAD PUSH2 0x608 SWAP2 PUSH1 0x1 PUSH1 0x1 PUSH1 0xA0 SHL SUB SWAP1 SWAP2 AND SWAP1 DUP5 PUSH2 0x149E JUMP JUMPDEST PUSH1 0x40 DUP1 MLOAD DUP4 DUP2 MSTORE SWAP1 MLOAD CALLER SWAP2 PUSH32 0x7084F5476618D8E60B11EF0D7D3F06914655ADB8793E28FF7F018D4C76D505D5 SWAP2 SWAP1 DUP2 SWAP1 SUB PUSH1 0x20 ADD SWAP1 LOG2 POP POP PUSH1 0x1 PUSH1 0x0 SSTORE JUMP JUMPDEST PUSH1 0x6 SLOAD DUP2 JUMP JUMPDEST PUSH2 0x655 PUSH2 0x1523 JUMP JUMPDEST PUSH1 0x1 SLOAD PUSH1 0x1 PUSH1 0x1 PUSH1 0xA0 SHL SUB SWAP1 DUP2 AND SWAP2 AND EQ PUSH2 0x6B7 JUMPI PUSH1 0x40 DUP1 MLOAD PUSH3 0x461BCD PUSH1 0xE5 SHL DUP2 MSTORE PUSH1 0x20 PUSH1 0x4 DUP3 ADD DUP2 SWAP1 MSTORE PUSH1 0x24 DUP3 ADD MSTORE PUSH32 0x4F776E61626C653A2063616C6C6572206973206E6F7420746865206F776E6572 PUSH1 0x44 DUP3 ADD MSTORE SWAP1 MLOAD SWAP1 DUP2 SWAP1 SUB PUSH1 0x64 ADD SWAP1 REVERT JUMPDEST PUSH1 0x0 PUSH2 0x6C1 PUSH2 0xF71 JUMP JUMPDEST PUSH1 0x8 SSTORE PUSH2 0x6CC PUSH2 0xAE2 JUMP JUMPDEST PUSH1 0x7 SSTORE PUSH1 0x1 PUSH1 0x1 PUSH1 0xA0 SHL SUB DUP2 AND ISZERO PUSH2 0x713 JUMPI PUSH2 0x6E7 DUP2 PUSH2 0x3F0 JUMP JUMPDEST PUSH1 0x1 PUSH1 0x1 PUSH1 0xA0 SHL SUB DUP3 AND PUSH1 0x0 SWAP1 DUP2 MSTORE PUSH1 0xA PUSH1 0x20 SWAP1 DUP2 MSTORE PUSH1 0x40 DUP1 DUP4 KECCAK256 SWAP4 SWAP1 SWAP4 SSTORE PUSH1 0x8 SLOAD PUSH1 0x9 SWAP1 SWAP2 MSTORE SWAP2 SWAP1 KECCAK256 SSTORE JUMPDEST PUSH1 0x4 SLOAD TIMESTAMP LT PUSH2 0x732 JUMPI PUSH1 0x6 SLOAD PUSH2 0x72A SWAP1 DUP4 SWAP1 PUSH2 0x1402 JUMP JUMPDEST PUSH1 0x5 SSTORE PUSH2 0x775 JUMP JUMPDEST PUSH1 0x4 SLOAD PUSH1 0x0 SWAP1 PUSH2 0x742 SWAP1 TIMESTAMP PUSH2 0x1360 JUMP JUMPDEST SWAP1 POP PUSH1 0x0 PUSH2 0x75B PUSH1 0x5 SLOAD DUP4 PUSH2 0x13A9 SWAP1 SWAP2 SWAP1 PUSH4 0xFFFFFFFF AND JUMP JUMPDEST PUSH1 0x6 SLOAD SWAP1 SWAP2 POP PUSH2 0x76F SWAP1 PUSH2 0x45C DUP7 DUP5 PUSH2 0x1444 JUMP JUMPDEST PUSH1 0x5 SSTORE POP POP JUMPDEST PUSH1 0x2 SLOAD PUSH1 0x40 DUP1 MLOAD PUSH32 0x70A0823100000000000000000000000000000000000000000000000000000000 DUP2 MSTORE ADDRESS PUSH1 0x4 DUP3 ADD MSTORE SWAP1 MLOAD PUSH1 0x0 SWAP3 PUSH1 0x1 PUSH1 0x1 PUSH1 0xA0 SHL SUB AND SWAP2 PUSH4 0x70A08231 SWAP2 PUSH1 0x24 DUP1 DUP4 ADD SWAP3 PUSH1 0x20 SWAP3 SWAP2 SWAP1 DUP3 SWAP1 SUB ADD DUP2 DUP7 DUP1 EXTCODESIZE ISZERO DUP1 ISZERO PUSH2 0x7D9 JUMPI PUSH1 0x0 DUP1 REVERT JUMPDEST POP GAS STATICCALL ISZERO DUP1 ISZERO PUSH2 0x7ED JUMPI RETURNDATASIZE PUSH1 0x0 DUP1 RETURNDATACOPY RETURNDATASIZE PUSH1 0x0 REVERT JUMPDEST POP POP POP POP PUSH1 0x40 MLOAD RETURNDATASIZE PUSH1 0x20 DUP2 LT ISZERO PUSH2 0x803 JUMPI PUSH1 0x0 DUP1 REVERT JUMPDEST POP MLOAD PUSH1 0x6 SLOAD SWAP1 SWAP2 POP PUSH2 0x816 SWAP1 DUP3 SWAP1 PUSH2 0x1402 JUMP JUMPDEST PUSH1 0x5 SLOAD GT ISZERO PUSH2 0x86C JUMPI PUSH1 0x40 DUP1 MLOAD PUSH3 0x461BCD PUSH1 0xE5 SHL DUP2 MSTORE PUSH1 0x20 PUSH1 0x4 DUP3 ADD MSTORE PUSH1 0x18 PUSH1 0x24 DUP3 ADD MSTORE PUSH32 0x50726F76696465642072657761726420746F6F20686967680000000000000000 PUSH1 0x44 DUP3 ADD MSTORE SWAP1 MLOAD SWAP1 DUP2 SWAP1 SUB PUSH1 0x64 ADD SWAP1 REVERT JUMPDEST TIMESTAMP PUSH1 0x7 DUP2 SWAP1 SSTORE PUSH1 0x6 SLOAD PUSH2 0x87F SWAP2 SWAP1 PUSH2 0x1444 JUMP JUMPDEST PUSH1 0x4 SSTORE PUSH1 0x40 DUP1 MLOAD DUP5 DUP2 MSTORE SWAP1 MLOAD PUSH32 0xDE88A922E0D3B88B24E9623EFEB464919C6BF9F66857A65E2BFCF2CE87A9433D SWAP2 DUP2 SWAP1 SUB PUSH1 0x20 ADD SWAP1 LOG1 POP POP POP JUMP JUMPDEST PUSH1 0x2 PUSH1 0x0 SLOAD EQ ISZERO PUSH2 0x912 JUMPI PUSH1 0x40 DUP1 MLOAD PUSH3 0x461BCD PUSH1 0xE5 SHL DUP2 MSTORE PUSH1 0x20 PUSH1 0x4 DUP3 ADD MSTORE PUSH1 0x1F PUSH1 0x24 DUP3 ADD MSTORE PUSH32 0x5265656E7472616E637947756172643A207265656E7472616E742063616C6C00 PUSH1 0x44 DUP3 ADD MSTORE SWAP1 MLOAD SWAP1 DUP2 SWAP1 SUB PUSH1 0x64 ADD SWAP1 REVERT JUMPDEST PUSH1 0x2 PUSH1 0x0 SSTORE CALLER PUSH2 0x920 PUSH2 0xF71 JUMP JUMPDEST PUSH1 0x8 SSTORE PUSH2 0x92B PUSH2 0xAE2 JUMP JUMPDEST PUSH1 0x7 SSTORE PUSH1 0x1 PUSH1 0x1 PUSH1 0xA0 SHL SUB DUP2 AND ISZERO PUSH2 0x972 JUMPI PUSH2 0x946 DUP2 PUSH2 0x3F0 JUMP JUMPDEST PUSH1 0x1 PUSH1 0x1 PUSH1 0xA0 SHL SUB DUP3 AND PUSH1 0x0 SWAP1 DUP2 MSTORE PUSH1 0xA PUSH1 0x20 SWAP1 DUP2 MSTORE PUSH1 0x40 DUP1 DUP4 KECCAK256 SWAP4 SWAP1 SWAP4 SSTORE PUSH1 0x8 SLOAD PUSH1 0x9 SWAP1 SWAP2 MSTORE SWAP2 SWAP1 KECCAK256 SSTORE JUMPDEST CALLER PUSH1 0x0 SWAP1 DUP2 MSTORE PUSH1 0xA PUSH1 0x20 MSTORE PUSH1 0x40 SWAP1 KECCAK256 SLOAD DUP1 ISZERO PUSH2 0x9E8 JUMPI CALLER PUSH1 0x0 DUP2 DUP2 MSTORE PUSH1 0xA PUSH1 0x20 MSTORE PUSH1 0x40 DUP2 KECCAK256 SSTORE PUSH1 0x2 SLOAD PUSH2 0x9B1 SWAP2 PUSH1 0x1 PUSH1 0x1 PUSH1 0xA0 SHL SUB SWAP1 SWAP2 AND SWAP1 DUP4 PUSH2 0x149E JUMP JUMPDEST PUSH1 0x40 DUP1 MLOAD DUP3 DUP2 MSTORE SWAP1 MLOAD CALLER SWAP2 PUSH32 0xE2403640BA68FED3A2F88B7557551D1993F84B99BB10FF833F0CF8DB0C5E0486 SWAP2 SWAP1 DUP2 SWAP1 SUB PUSH1 0x20 ADD SWAP1 LOG2 JUMPDEST POP POP PUSH1 0x1 PUSH1 0x0 SSTORE JUMP JUMPDEST PUSH1 0x1 PUSH1 0x1 PUSH1 0xA0 SHL SUB AND PUSH1 0x0 SWAP1 DUP2 MSTORE PUSH1 0xC PUSH1 0x20 MSTORE PUSH1 0x40 SWAP1 KECCAK256 SLOAD SWAP1 JUMP JUMPDEST PUSH2 0xA14 PUSH2 0x1523 JUMP JUMPDEST PUSH1 0x1 SLOAD PUSH1 0x1 PUSH1 0x1 PUSH1 0xA0 SHL SUB SWAP1 DUP2 AND SWAP2 AND EQ PUSH2 0xA76 JUMPI PUSH1 0x40 DUP1 MLOAD PUSH3 0x461BCD PUSH1 0xE5 SHL DUP2 MSTORE PUSH1 0x20 PUSH1 0x4 DUP3 ADD DUP2 SWAP1 MSTORE PUSH1 0x24 DUP3 ADD MSTORE PUSH32 0x4F776E61626C653A2063616C6C6572206973206E6F7420746865206F776E6572 PUSH1 0x44 DUP3 ADD MSTORE SWAP1 MLOAD SWAP1 DUP2 SWAP1 SUB PUSH1 0x64 ADD SWAP1 REVERT JUMPDEST PUSH1 0x1 SLOAD PUSH1 0x40 MLOAD PUSH1 0x0 SWAP2 PUSH1 0x1 PUSH1 0x1 PUSH1 0xA0 SHL SUB AND SWAP1 PUSH32 0x8BE0079C531659141344CD1FD0A4F28419497F9722A3DAAFE3B4186F6B6457E0 SWAP1 DUP4 SWAP1 LOG3 PUSH1 0x1 DUP1 SLOAD PUSH20 0xFFFFFFFFFFFFFFFFFFFFFFFFFFFFFFFFFFFFFFFF NOT AND SWAP1 SSTORE JUMP JUMPDEST PUSH1 0x3 SLOAD PUSH1 0x1 PUSH1 0x1 PUSH1 0xA0 SHL SUB AND DUP2 JUMP JUMPDEST PUSH1 0x5 SLOAD DUP2 JUMP JUMPDEST PUSH1 0x0 PUSH2 0x4A0 TIMESTAMP PUSH1 0x4 SLOAD PUSH2 0x1527 JUMP JUMPDEST PUSH2 0xAF8 PUSH2 0x1523 JUMP JUMPDEST PUSH1 0x1 SLOAD PUSH1 0x1 PUSH1 0x1 PUSH1 0xA0 SHL SUB SWAP1 DUP2 AND SWAP2 AND EQ PUSH2 0xB5A JUMPI PUSH1 0x40 DUP1 MLOAD PUSH3 0x461BCD PUSH1 0xE5 SHL DUP2 MSTORE PUSH1 0x20 PUSH1 0x4 DUP3 ADD DUP2 SWAP1 MSTORE PUSH1 0x24 DUP3 ADD MSTORE PUSH32 0x4F776E61626C653A2063616C6C6572206973206E6F7420746865206F776E6572 PUSH1 0x44 DUP3 ADD MSTORE SWAP1 MLOAD SWAP1 DUP2 SWAP1 SUB PUSH1 0x64 ADD SWAP1 REVERT JUMPDEST PUSH1 0x2 PUSH1 0x0 SLOAD EQ ISZERO PUSH2 0xBB2 JUMPI PUSH1 0x40 DUP1 MLOAD PUSH3 0x461BCD PUSH1 0xE5 SHL DUP2 MSTORE PUSH1 0x20 PUSH1 0x4 DUP3 ADD MSTORE PUSH1 0x1F PUSH1 0x24 DUP3 ADD MSTORE PUSH32 0x5265656E7472616E637947756172643A207265656E7472616E742063616C6C00 PUSH1 0x44 DUP3 ADD MSTORE SWAP1 MLOAD SWAP1 DUP2 SWAP1 SUB PUSH1 0x64 ADD SWAP1 REVERT JUMPDEST PUSH1 0x2 PUSH1 0x0 SSTORE PUSH1 0x3 SLOAD PUSH1 0x1 PUSH1 0x1 PUSH1 0xA0 SHL SUB DUP4 DUP2 AND SWAP2 AND EQ ISZERO PUSH2 0xC04 JUMPI PUSH1 0x40 MLOAD PUSH3 0x461BCD PUSH1 0xE5 SHL DUP2 MSTORE PUSH1 0x4 ADD DUP1 DUP1 PUSH1 0x20 ADD DUP3 DUP2 SUB DUP3 MSTORE PUSH1 0x21 DUP2 MSTORE PUSH1 0x20 ADD DUP1 PUSH2 0x1A46 PUSH1 0x21 SWAP2 CODECOPY PUSH1 0x40 ADD SWAP2 POP POP PUSH1 0x40 MLOAD DUP1 SWAP2 SUB SWAP1 REVERT JUMPDEST PUSH2 0xC20 PUSH2 0xC0F PUSH2 0xC7F JUMP JUMPDEST PUSH1 0x1 PUSH1 0x1 PUSH1 0xA0 SHL SUB DUP5 AND SWAP1 DUP4 PUSH2 0x149E JUMP JUMPDEST PUSH1 0x40 DUP1 MLOAD PUSH1 0x1 PUSH1 0x1 PUSH1 0xA0 SHL SUB DUP5 AND DUP2 MSTORE PUSH1 0x20 DUP2 ADD DUP4 SWAP1 MSTORE DUP2 MLOAD PUSH32 0x8C1256B8896378CD5044F80C202F9772B9D77DC85C8A6EB51967210B09BFAA28 SWAP3 SWAP2 DUP2 SWAP1 SUB SWAP1 SWAP2 ADD SWAP1 LOG1 POP POP PUSH1 0x1 PUSH1 0x0 SSTORE JUMP JUMPDEST PUSH1 0x9 PUSH1 0x20 MSTORE PUSH1 0x0 SWAP1 DUP2 MSTORE PUSH1 0x40 SWAP1 KECCAK256 SLOAD DUP2 JUMP JUMPDEST PUSH1 0x1 SLOAD PUSH1 0x1 PUSH1 0x1 PUSH1 0xA0 SHL SUB AND SWAP1 JUMP JUMPDEST PUSH1 0x2 PUSH1 0x0 SLOAD EQ ISZERO PUSH2 0xCE6 JUMPI PUSH1 0x40 DUP1 MLOAD PUSH3 0x461BCD PUSH1 0xE5 SHL DUP2 MSTORE PUSH1 0x20 PUSH1 0x4 DUP3 ADD MSTORE PUSH1 0x1F PUSH1 0x24 DUP3 ADD MSTORE PUSH32 0x5265656E7472616E637947756172643A207265656E7472616E742063616C6C00 PUSH1 0x44 DUP3 ADD MSTORE SWAP1 MLOAD SWAP1 DUP2 SWAP1 SUB PUSH1 0x64 ADD SWAP1 REVERT JUMPDEST PUSH1 0x2 PUSH1 0x0 SSTORE CALLER PUSH2 0xCF4 PUSH2 0xF71 JUMP JUMPDEST PUSH1 0x8 SSTORE PUSH2 0xCFF PUSH2 0xAE2 JUMP JUMPDEST PUSH1 0x7 SSTORE PUSH1 0x1 PUSH1 0x1 PUSH1 0xA0 SHL SUB DUP2 AND ISZERO PUSH2 0xD46 JUMPI PUSH2 0xD1A DUP2 PUSH2 0x3F0 JUMP JUMPDEST PUSH1 0x1 PUSH1 0x1 PUSH1 0xA0 SHL SUB DUP3 AND PUSH1 0x0 SWAP1 DUP2 MSTORE PUSH1 0xA PUSH1 0x20 SWAP1 DUP2 MSTORE PUSH1 0x40 DUP1 DUP4 KECCAK256 SWAP4 SWAP1 SWAP4 SSTORE PUSH1 0x8 SLOAD PUSH1 0x9 SWAP1 SWAP2 MSTORE SWAP2 SWAP1 KECCAK256 SSTORE JUMPDEST PUSH1 0x0 DUP3 GT PUSH2 0xD9B JUMPI PUSH1 0x40 DUP1 MLOAD PUSH3 0x461BCD PUSH1 0xE5 SHL DUP2 MSTORE PUSH1 0x20 PUSH1 0x4 DUP3 ADD MSTORE PUSH1 0xE PUSH1 0x24 DUP3 ADD MSTORE PUSH32 0x43616E6E6F74207374616B652030000000000000000000000000000000000000 PUSH1 0x44 DUP3 ADD MSTORE SWAP1 MLOAD SWAP1 DUP2 SWAP1 SUB PUSH1 0x64 ADD SWAP1 REVERT JUMPDEST PUSH1 0xB SLOAD PUSH2 0xDA8 SWAP1 DUP4 PUSH2 0x1444 JUMP JUMPDEST PUSH1 0xB SSTORE CALLER PUSH1 0x0 SWAP1 DUP2 MSTORE PUSH1 0xC PUSH1 0x20 MSTORE PUSH1 0x40 SWAP1 KECCAK256 SLOAD PUSH2 0xDC5 SWAP1 DUP4 PUSH2 0x1444 JUMP JUMPDEST CALLER PUSH1 0x0 DUP2 DUP2 MSTORE PUSH1 0xC PUSH1 0x20 MSTORE PUSH1 0x40 SWAP1 KECCAK256 SWAP2 SWAP1 SWAP2 SSTORE PUSH1 0x3 SLOAD PUSH2 0xDF2 SWAP2 PUSH1 0x1 PUSH1 0x1 PUSH1 0xA0 SHL SUB SWAP1 SWAP2 AND SWAP1 ADDRESS DUP6 PUSH2 0x153D JUMP JUMPDEST PUSH1 0x40 DUP1 MLOAD DUP4 DUP2 MSTORE SWAP1 MLOAD CALLER SWAP2 PUSH32 0x9E71BC8EEA02A63969F509818F2DAFB9254532904319F9DBDA79B67BD34A5F3D SWAP2 SWAP1 DUP2 SWAP1 SUB PUSH1 0x20 ADD SWAP1 LOG2 POP POP PUSH1 0x1 PUSH1 0x0 SSTORE JUMP JUMPDEST PUSH1 0x7 SLOAD DUP2 JUMP JUMPDEST PUSH2 0xE3F PUSH2 0x1523 JUMP JUMPDEST PUSH1 0x1 SLOAD PUSH1 0x1 PUSH1 0x1 PUSH1 0xA0 SHL SUB SWAP1 DUP2 AND SWAP2 AND EQ PUSH2 0xEA1 JUMPI PUSH1 0x40 DUP1 MLOAD PUSH3 0x461BCD PUSH1 0xE5 SHL DUP2 MSTORE PUSH1 0x20 PUSH1 0x4 DUP3 ADD DUP2 SWAP1 MSTORE PUSH1 0x24 DUP3 ADD MSTORE PUSH32 0x4F776E61626C653A2063616C6C6572206973206E6F7420746865206F776E6572 PUSH1 0x44 DUP3 ADD MSTORE SWAP1 MLOAD SWAP1 DUP2 SWAP1 SUB PUSH1 0x64 ADD SWAP1 REVERT JUMPDEST PUSH1 0x4 SLOAD TIMESTAMP GT PUSH2 0xEE1 JUMPI PUSH1 0x40 MLOAD PUSH3 0x461BCD PUSH1 0xE5 SHL DUP2 MSTORE PUSH1 0x4 ADD DUP1 DUP1 PUSH1 0x20 ADD DUP3 DUP2 SUB DUP3 MSTORE PUSH1 0x58 DUP2 MSTORE PUSH1 0x20 ADD DUP1 PUSH2 0x1957 PUSH1 0x58 SWAP2 CODECOPY PUSH1 0x60 ADD SWAP2 POP POP PUSH1 0x40 MLOAD DUP1 SWAP2 SUB SWAP1 REVERT JUMPDEST PUSH1 0x0 DUP2 GT PUSH2 0xF36 JUMPI PUSH1 0x40 DUP1 MLOAD PUSH3 0x461BCD PUSH1 0xE5 SHL DUP2 MSTORE PUSH1 0x20 PUSH1 0x4 DUP3 ADD MSTORE PUSH1 0x1D PUSH1 0x24 DUP3 ADD MSTORE PUSH32 0x526577617264206475726174696F6E2063616E2774206265207A65726F000000 PUSH1 0x44 DUP3 ADD MSTORE SWAP1 MLOAD SWAP1 DUP2 SWAP1 SUB PUSH1 0x64 ADD SWAP1 REVERT JUMPDEST PUSH1 0x6 DUP2 SWAP1 SSTORE PUSH1 0x40 DUP1 MLOAD DUP3 DUP2 MSTORE SWAP1 MLOAD PUSH32 0xFB46CA5A5E06D4540D6387B930A7C978BCE0DB5F449EC6B3F5D07C6E1D44F2D3 SWAP2 DUP2 SWAP1 SUB PUSH1 0x20 ADD SWAP1 LOG1 POP JUMP JUMPDEST PUSH1 0x0 PUSH1 0xB SLOAD PUSH1 0x0 EQ ISZERO PUSH2 0xF87 JUMPI POP PUSH1 0x8 SLOAD PUSH2 0x484 JUMP JUMPDEST PUSH2 0x4A0 PUSH2 0xFB6 PUSH1 0xB SLOAD PUSH2 0x45C PUSH8 0xDE0B6B3A7640000 PUSH2 0xFB0 PUSH1 0x5 SLOAD PUSH2 0xFB0 PUSH1 0x7 SLOAD PUSH2 0x437 PUSH2 0xAE2 JUMP JUMPDEST SWAP1 PUSH2 0x13A9 JUMP JUMPDEST PUSH1 0x8 SLOAD SWAP1 PUSH2 0x1444 JUMP JUMPDEST PUSH1 0x2 SLOAD PUSH1 0x1 PUSH1 0x1 PUSH1 0xA0 SHL SUB AND DUP2 JUMP JUMPDEST PUSH1 0x8 SLOAD DUP2 JUMP JUMPDEST CALLER PUSH1 0x0 SWAP1 DUP2 MSTORE PUSH1 0xC PUSH1 0x20 MSTORE PUSH1 0x40 SWAP1 KECCAK256 SLOAD PUSH2 0xFED SWAP1 PUSH2 0x4A5 JUMP JUMPDEST PUSH2 0xFF5 PUSH2 0x8BA JUMP JUMPDEST JUMP JUMPDEST PUSH1 0x4 SLOAD DUP2 JUMP JUMPDEST PUSH1 0x2 PUSH1 0x0 SLOAD EQ ISZERO PUSH2 0x1055 JUMPI PUSH1 0x40 DUP1 MLOAD PUSH3 0x461BCD PUSH1 0xE5 SHL DUP2 MSTORE PUSH1 0x20 PUSH1 0x4 DUP3 ADD MSTORE PUSH1 0x1F PUSH1 0x24 DUP3 ADD MSTORE PUSH32 0x5265656E7472616E637947756172643A207265656E7472616E742063616C6C00 PUSH1 0x44 DUP3 ADD MSTORE SWAP1 MLOAD SWAP1 DUP2 SWAP1 SUB PUSH1 0x64 ADD SWAP1 REVERT JUMPDEST PUSH1 0x2 PUSH1 0x0 SSTORE CALLER PUSH2 0x1063 PUSH2 0xF71 JUMP JUMPDEST PUSH1 0x8 SSTORE PUSH2 0x106E PUSH2 0xAE2 JUMP JUMPDEST PUSH1 0x7 SSTORE PUSH1 0x1 PUSH1 0x1 PUSH1 0xA0 SHL SUB DUP2 AND ISZERO PUSH2 0x10B5 JUMPI PUSH2 0x1089 DUP2 PUSH2 0x3F0 JUMP JUMPDEST PUSH1 0x1 PUSH1 0x1 PUSH1 0xA0 SHL SUB DUP3 AND PUSH1 0x0 SWAP1 DUP2 MSTORE PUSH1 0xA PUSH1 0x20 SWAP1 DUP2 MSTORE PUSH1 0x40 DUP1 DUP4 KECCAK256 SWAP4 SWAP1 SWAP4 SSTORE PUSH1 0x8 SLOAD PUSH1 0x9 SWAP1 SWAP2 MSTORE SWAP2 SWAP1 KECCAK256 SSTORE JUMPDEST PUSH1 0x0 DUP7 GT PUSH2 0x110A JUMPI PUSH1 0x40 DUP1 MLOAD PUSH3 0x461BCD PUSH1 0xE5 SHL DUP2 MSTORE PUSH1 0x20 PUSH1 0x4 DUP3 ADD MSTORE PUSH1 0xE PUSH1 0x24 DUP3 ADD MSTORE PUSH32 0x43616E6E6F74207374616B652030000000000000000000000000000000000000 PUSH1 0x44 DUP3 ADD MSTORE SWAP1 MLOAD SWAP1 DUP2 SWAP1 SUB PUSH1 0x64 ADD SWAP1 REVERT JUMPDEST PUSH1 0xB SLOAD PUSH2 0x1117 SWAP1 DUP8 PUSH2 0x1444 JUMP JUMPDEST PUSH1 0xB SSTORE CALLER PUSH1 0x0 SWAP1 DUP2 MSTORE PUSH1 0xC PUSH1 0x20 MSTORE PUSH1 0x40 SWAP1 KECCAK256 SLOAD PUSH2 0x1134 SWAP1 DUP8 PUSH2 0x1444 JUMP JUMPDEST CALLER PUSH1 0x0 DUP2 DUP2 MSTORE PUSH1 0xC PUSH1 0x20 MSTORE PUSH1 0x40 DUP1 DUP3 KECCAK256 SWAP4 SWAP1 SWAP4 SSTORE PUSH1 0x3 SLOAD DUP4 MLOAD PUSH32 0xD505ACCF00000000000000000000000000000000000000000000000000000000 DUP2 MSTORE PUSH1 0x4 DUP2 ADD SWAP4 SWAP1 SWAP4 MSTORE ADDRESS PUSH1 0x24 DUP5 ADD MSTORE PUSH1 0x44 DUP4 ADD DUP11 SWAP1 MSTORE PUSH1 0x64 DUP4 ADD DUP10 SWAP1 MSTORE PUSH1 0xFF DUP9 AND PUSH1 0x84 DUP5 ADD MSTORE PUSH1 0xA4 DUP4 ADD DUP8 SWAP1 MSTORE PUSH1 0xC4 DUP4 ADD DUP7 SWAP1 MSTORE SWAP3 MLOAD PUSH1 0x1 PUSH1 0x1 PUSH1 0xA0 SHL SUB SWAP1 SWAP4 AND SWAP3 PUSH4 0xD505ACCF SWAP3 PUSH1 0xE4 DUP1 DUP3 ADD SWAP4 SWAP3 SWAP2 DUP3 SWAP1 SUB ADD DUP2 DUP4 DUP8 DUP1 EXTCODESIZE ISZERO DUP1 ISZERO PUSH2 0x11D4 JUMPI PUSH1 0x0 DUP1 REVERT JUMPDEST POP GAS CALL ISZERO DUP1 ISZERO PUSH2 0x11E8 JUMPI RETURNDATASIZE PUSH1 0x0 DUP1 RETURNDATACOPY RETURNDATASIZE PUSH1 0x0 REVERT JUMPDEST POP POP PUSH1 0x3 SLOAD PUSH2 0x1205 SWAP3 POP PUSH1 0x1 PUSH1 0x1 PUSH1 0xA0 SHL SUB AND SWAP1 POP CALLER ADDRESS DUP10 PUSH2 0x153D JUMP JUMPDEST PUSH1 0x40 DUP1 MLOAD DUP8 DUP2 MSTORE SWAP1 MLOAD CALLER SWAP2 PUSH32 0x9E71BC8EEA02A63969F509818F2DAFB9254532904319F9DBDA79B67BD34A5F3D SWAP2 SWAP1 DUP2 SWAP1 SUB PUSH1 0x20 ADD SWAP1 LOG2 POP POP PUSH1 0x1 PUSH1 0x0 SSTORE POP POP POP POP JUMP JUMPDEST PUSH2 0x1250 PUSH2 0x1523 JUMP JUMPDEST PUSH1 0x1 SLOAD PUSH1 0x1 PUSH1 0x1 PUSH1 0xA0 SHL SUB SWAP1 DUP2 AND SWAP2 AND EQ PUSH2 0x12B2 JUMPI PUSH1 0x40 DUP1 MLOAD PUSH3 0x461BCD PUSH1 0xE5 SHL DUP2 MSTORE PUSH1 0x20 PUSH1 0x4 DUP3 ADD DUP2 SWAP1 MSTORE PUSH1 0x24 DUP3 ADD MSTORE PUSH32 0x4F776E61626C653A2063616C6C6572206973206E6F7420746865206F776E6572 PUSH1 0x44 DUP3 ADD MSTORE SWAP1 MLOAD SWAP1 DUP2 SWAP1 SUB PUSH1 0x64 ADD SWAP1 REVERT JUMPDEST PUSH1 0x1 PUSH1 0x1 PUSH1 0xA0 SHL SUB DUP2 AND PUSH2 0x12F7 JUMPI PUSH1 0x40 MLOAD PUSH3 0x461BCD PUSH1 0xE5 SHL DUP2 MSTORE PUSH1 0x4 ADD DUP1 DUP1 PUSH1 0x20 ADD DUP3 DUP2 SUB DUP3 MSTORE PUSH1 0x26 DUP2 MSTORE PUSH1 0x20 ADD DUP1 PUSH2 0x19AF PUSH1 0x26 SWAP2 CODECOPY PUSH1 0x40 ADD SWAP2 POP POP PUSH1 0x40 MLOAD DUP1 SWAP2 SUB SWAP1 REVERT JUMPDEST PUSH1 0x1 SLOAD PUSH1 0x40 MLOAD PUSH1 0x1 PUSH1 0x1 PUSH1 0xA0 SHL SUB DUP1 DUP5 AND SWAP3 AND SWAP1 PUSH32 0x8BE0079C531659141344CD1FD0A4F28419497F9722A3DAAFE3B4186F6B6457E0 SWAP1 PUSH1 0x0 SWAP1 LOG3 PUSH1 0x1 DUP1 SLOAD PUSH20 0xFFFFFFFFFFFFFFFFFFFFFFFFFFFFFFFFFFFFFFFF NOT AND PUSH1 0x1 PUSH1 0x1 PUSH1 0xA0 SHL SUB SWAP3 SWAP1 SWAP3 AND SWAP2 SWAP1 SWAP2 OR SWAP1 SSTORE JUMP JUMPDEST PUSH1 0x0 PUSH2 0x13A2 DUP4 DUP4 PUSH1 0x40 MLOAD DUP1 PUSH1 0x40 ADD PUSH1 0x40 MSTORE DUP1 PUSH1 0x1E DUP2 MSTORE PUSH1 0x20 ADD PUSH32 0x536166654D6174683A207375627472616374696F6E206F766572666C6F770000 DUP2 MSTORE POP PUSH2 0x15CB JUMP JUMPDEST SWAP4 SWAP3 POP POP POP JUMP JUMPDEST PUSH1 0x0 DUP3 PUSH2 0x13B8 JUMPI POP PUSH1 0x0 PUSH2 0x468 JUMP JUMPDEST DUP3 DUP3 MUL DUP3 DUP5 DUP3 DUP2 PUSH2 0x13C5 JUMPI INVALID JUMPDEST DIV EQ PUSH2 0x13A2 JUMPI PUSH1 0x40 MLOAD PUSH3 0x461BCD PUSH1 0xE5 SHL DUP2 MSTORE PUSH1 0x4 ADD DUP1 DUP1 PUSH1 0x20 ADD DUP3 DUP2 SUB DUP3 MSTORE PUSH1 0x21 DUP2 MSTORE PUSH1 0x20 ADD DUP1 PUSH2 0x19FB PUSH1 0x21 SWAP2 CODECOPY PUSH1 0x40 ADD SWAP2 POP POP PUSH1 0x40 MLOAD DUP1 SWAP2 SUB SWAP1 REVERT JUMPDEST PUSH1 0x0 PUSH2 0x13A2 DUP4 DUP4 PUSH1 0x40 MLOAD DUP1 PUSH1 0x40 ADD PUSH1 0x40 MSTORE DUP1 PUSH1 0x1A DUP2 MSTORE PUSH1 0x20 ADD PUSH32 0x536166654D6174683A206469766973696F6E206279207A65726F000000000000 DUP2 MSTORE POP PUSH2 0x1662 JUMP JUMPDEST PUSH1 0x0 DUP3 DUP3 ADD DUP4 DUP2 LT ISZERO PUSH2 0x13A2 JUMPI PUSH1 0x40 DUP1 MLOAD PUSH3 0x461BCD PUSH1 0xE5 SHL DUP2 MSTORE PUSH1 0x20 PUSH1 0x4 DUP3 ADD MSTORE PUSH1 0x1B PUSH1 0x24 DUP3 ADD MSTORE PUSH32 0x536166654D6174683A206164646974696F6E206F766572666C6F770000000000 PUSH1 0x44 DUP3 ADD MSTORE SWAP1 MLOAD SWAP1 DUP2 SWAP1 SUB PUSH1 0x64 ADD SWAP1 REVERT JUMPDEST PUSH1 0x40 DUP1 MLOAD PUSH1 0x1 PUSH1 0x1 PUSH1 0xA0 SHL SUB DUP5 AND PUSH1 0x24 DUP3 ADD MSTORE PUSH1 0x44 DUP1 DUP3 ADD DUP5 SWAP1 MSTORE DUP3 MLOAD DUP1 DUP4 SUB SWAP1 SWAP2 ADD DUP2 MSTORE PUSH1 0x64 SWAP1 SWAP2 ADD SWAP1 SWAP2 MSTORE PUSH1 0x20 DUP2 ADD DUP1 MLOAD PUSH28 0xFFFFFFFFFFFFFFFFFFFFFFFFFFFFFFFFFFFFFFFFFFFFFFFFFFFFFFFF AND PUSH32 0xA9059CBB00000000000000000000000000000000000000000000000000000000 OR SWAP1 MSTORE PUSH2 0x151E SWAP1 DUP5 SWAP1 PUSH2 0x16C7 JUMP JUMPDEST POP POP POP JUMP JUMPDEST CALLER SWAP1 JUMP JUMPDEST PUSH1 0x0 DUP2 DUP4 LT PUSH2 0x1536 JUMPI DUP2 PUSH2 0x13A2 JUMP JUMPDEST POP SWAP1 SWAP2 SWAP1 POP JUMP JUMPDEST PUSH1 0x40 DUP1 MLOAD PUSH1 0x1 PUSH1 0x1 PUSH1 0xA0 SHL SUB DUP1 DUP7 AND PUSH1 0x24 DUP4 ADD MSTORE DUP5 AND PUSH1 0x44 DUP3 ADD MSTORE PUSH1 0x64 DUP1 DUP3 ADD DUP5 SWAP1 MSTORE DUP3 MLOAD DUP1 DUP4 SUB SWAP1 SWAP2 ADD DUP2 MSTORE PUSH1 0x84 SWAP1 SWAP2 ADD SWAP1 SWAP2 MSTORE PUSH1 0x20 DUP2 ADD DUP1 MLOAD PUSH28 0xFFFFFFFFFFFFFFFFFFFFFFFFFFFFFFFFFFFFFFFFFFFFFFFFFFFFFFFF AND PUSH32 0x23B872DD00000000000000000000000000000000000000000000000000000000 OR SWAP1 MSTORE PUSH2 0x15C5 SWAP1 DUP6 SWAP1 PUSH2 0x16C7 JUMP JUMPDEST POP POP POP POP JUMP JUMPDEST PUSH1 0x0 DUP2 DUP5 DUP5 GT ISZERO PUSH2 0x165A JUMPI PUSH1 0x40 MLOAD PUSH3 0x461BCD PUSH1 0xE5 SHL DUP2 MSTORE PUSH1 0x4 ADD DUP1 DUP1 PUSH1 0x20 ADD DUP3 DUP2 SUB DUP3 MSTORE DUP4 DUP2 DUP2 MLOAD DUP2 MSTORE PUSH1 0x20 ADD SWAP2 POP DUP1 MLOAD SWAP1 PUSH1 0x20 ADD SWAP1 DUP1 DUP4 DUP4 PUSH1 0x0 JUMPDEST DUP4 DUP2 LT ISZERO PUSH2 0x161F JUMPI DUP2 DUP2 ADD MLOAD DUP4 DUP3 ADD MSTORE PUSH1 0x20 ADD PUSH2 0x1607 JUMP JUMPDEST POP POP POP POP SWAP1 POP SWAP1 DUP2 ADD SWAP1 PUSH1 0x1F AND DUP1 ISZERO PUSH2 0x164C JUMPI DUP1 DUP3 SUB DUP1 MLOAD PUSH1 0x1 DUP4 PUSH1 0x20 SUB PUSH2 0x100 EXP SUB NOT AND DUP2 MSTORE PUSH1 0x20 ADD SWAP2 POP JUMPDEST POP SWAP3 POP POP POP PUSH1 0x40 MLOAD DUP1 SWAP2 SUB SWAP1 REVERT JUMPDEST POP POP POP SWAP1 SUB SWAP1 JUMP JUMPDEST PUSH1 0x0 DUP2 DUP4 PUSH2 0x16B1 JUMPI PUSH1 0x40 MLOAD PUSH3 0x461BCD PUSH1 0xE5 SHL DUP2 MSTORE PUSH1 0x20 PUSH1 0x4 DUP3 ADD DUP2 DUP2 MSTORE DUP4 MLOAD PUSH1 0x24 DUP5 ADD MSTORE DUP4 MLOAD SWAP1 SWAP3 DUP4 SWAP3 PUSH1 0x44 SWAP1 SWAP2 ADD SWAP2 SWAP1 DUP6 ADD SWAP1 DUP1 DUP4 DUP4 PUSH1 0x0 DUP4 ISZERO PUSH2 0x161F JUMPI DUP2 DUP2 ADD MLOAD DUP4 DUP3 ADD MSTORE PUSH1 0x20 ADD PUSH2 0x1607 JUMP JUMPDEST POP PUSH1 0x0 DUP4 DUP6 DUP2 PUSH2 0x16BD JUMPI INVALID JUMPDEST DIV SWAP6 SWAP5 POP POP POP POP POP JUMP JUMPDEST PUSH1 0x0 PUSH2 0x171C DUP3 PUSH1 0x40 MLOAD DUP1 PUSH1 0x40 ADD PUSH1 0x40 MSTORE DUP1 PUSH1 0x20 DUP2 MSTORE PUSH1 0x20 ADD PUSH32 0x5361666545524332303A206C6F772D6C6576656C2063616C6C206661696C6564 DUP2 MSTORE POP DUP6 PUSH1 0x1 PUSH1 0x1 PUSH1 0xA0 SHL SUB AND PUSH2 0x1778 SWAP1 SWAP3 SWAP2 SWAP1 PUSH4 0xFFFFFFFF AND JUMP JUMPDEST DUP1 MLOAD SWAP1 SWAP2 POP ISZERO PUSH2 0x151E JUMPI DUP1 DUP1 PUSH1 0x20 ADD SWAP1 MLOAD PUSH1 0x20 DUP2 LT ISZERO PUSH2 0x173B JUMPI PUSH1 0x0 DUP1 REVERT JUMPDEST POP MLOAD PUSH2 0x151E JUMPI PUSH1 0x40 MLOAD PUSH3 0x461BCD PUSH1 0xE5 SHL DUP2 MSTORE PUSH1 0x4 ADD DUP1 DUP1 PUSH1 0x20 ADD DUP3 DUP2 SUB DUP3 MSTORE PUSH1 0x2A DUP2 MSTORE PUSH1 0x20 ADD DUP1 PUSH2 0x1A1C PUSH1 0x2A SWAP2 CODECOPY PUSH1 0x40 ADD SWAP2 POP POP PUSH1 0x40 MLOAD DUP1 SWAP2 SUB SWAP1 REVERT JUMPDEST PUSH1 0x60 PUSH2 0x1787 DUP5 DUP5 PUSH1 0x0 DUP6 PUSH2 0x178F JUMP JUMPDEST SWAP5 SWAP4 POP POP POP POP JUMP JUMPDEST PUSH1 0x60 DUP3 SELFBALANCE LT ISZERO PUSH2 0x17D0 JUMPI PUSH1 0x40 MLOAD PUSH3 0x461BCD PUSH1 0xE5 SHL DUP2 MSTORE PUSH1 0x4 ADD DUP1 DUP1 PUSH1 0x20 ADD DUP3 DUP2 SUB DUP3 MSTORE PUSH1 0x26 DUP2 MSTORE PUSH1 0x20 ADD DUP1 PUSH2 0x19D5 PUSH1 0x26 SWAP2 CODECOPY PUSH1 0x40 ADD SWAP2 POP POP PUSH1 0x40 MLOAD DUP1 SWAP2 SUB SWAP1 REVERT JUMPDEST PUSH2 0x17D9 DUP6 PUSH2 0x18EA JUMP JUMPDEST PUSH2 0x182A JUMPI PUSH1 0x40 DUP1 MLOAD PUSH3 0x461BCD PUSH1 0xE5 SHL DUP2 MSTORE PUSH1 0x20 PUSH1 0x4 DUP3 ADD MSTORE PUSH1 0x1D PUSH1 0x24 DUP3 ADD MSTORE PUSH32 0x416464726573733A2063616C6C20746F206E6F6E2D636F6E7472616374000000 PUSH1 0x44 DUP3 ADD MSTORE SWAP1 MLOAD SWAP1 DUP2 SWAP1 SUB PUSH1 0x64 ADD SWAP1 REVERT JUMPDEST PUSH1 0x0 DUP1 DUP7 PUSH1 0x1 PUSH1 0x1 PUSH1 0xA0 SHL SUB AND DUP6 DUP8 PUSH1 0x40 MLOAD DUP1 DUP3 DUP1 MLOAD SWAP1 PUSH1 0x20 ADD SWAP1 DUP1 DUP4 DUP4 JUMPDEST PUSH1 0x20 DUP4 LT PUSH2 0x1868 JUMPI DUP1 MLOAD DUP3 MSTORE PUSH1 0x1F NOT SWAP1 SWAP3 ADD SWAP2 PUSH1 0x20 SWAP2 DUP3 ADD SWAP2 ADD PUSH2 0x1849 JUMP JUMPDEST PUSH1 0x1 DUP4 PUSH1 0x20 SUB PUSH2 0x100 EXP SUB DUP1 NOT DUP3 MLOAD AND DUP2 DUP5 MLOAD AND DUP1 DUP3 OR DUP6 MSTORE POP POP POP POP POP POP SWAP1 POP ADD SWAP2 POP POP PUSH1 0x0 PUSH1 0x40 MLOAD DUP1 DUP4 SUB DUP2 DUP6 DUP8 GAS CALL SWAP3 POP POP POP RETURNDATASIZE DUP1 PUSH1 0x0 DUP2 EQ PUSH2 0x18CA JUMPI PUSH1 0x40 MLOAD SWAP2 POP PUSH1 0x1F NOT PUSH1 0x3F RETURNDATASIZE ADD AND DUP3 ADD PUSH1 0x40 MSTORE RETURNDATASIZE DUP3 MSTORE RETURNDATASIZE PUSH1 0x0 PUSH1 0x20 DUP5 ADD RETURNDATACOPY PUSH2 0x18CF JUMP JUMPDEST PUSH1 0x60 SWAP2 POP JUMPDEST POP SWAP2 POP SWAP2 POP PUSH2 0x18DF DUP3 DUP3 DUP7 PUSH2 0x18F0 JUMP JUMPDEST SWAP8 SWAP7 POP POP POP POP POP POP POP JUMP JUMPDEST EXTCODESIZE ISZERO ISZERO SWAP1 JUMP JUMPDEST PUSH1 0x60 DUP4 ISZERO PUSH2 0x18FF JUMPI POP DUP2 PUSH2 0x13A2 JUMP JUMPDEST DUP3 MLOAD ISZERO PUSH2 0x190F JUMPI DUP3 MLOAD DUP1 DUP5 PUSH1 0x20 ADD REVERT JUMPDEST PUSH1 0x40 MLOAD PUSH3 0x461BCD PUSH1 0xE5 SHL DUP2 MSTORE PUSH1 0x20 PUSH1 0x4 DUP3 ADD DUP2 DUP2 MSTORE DUP5 MLOAD PUSH1 0x24 DUP5 ADD MSTORE DUP5 MLOAD DUP6 SWAP4 SWAP2 SWAP3 DUP4 SWAP3 PUSH1 0x44 ADD SWAP2 SWAP1 DUP6 ADD SWAP1 DUP1 DUP4 DUP4 PUSH1 0x0 DUP4 ISZERO PUSH2 0x161F JUMPI DUP2 DUP2 ADD MLOAD DUP4 DUP3 ADD MSTORE PUSH1 0x20 ADD PUSH2 0x1607 JUMP INVALID POP PUSH19 0x6576696F757320726577617264732070657269 PUSH16 0x64206D75737420626520636F6D706C65 PUSH21 0x65206265666F7265206368616E67696E6720746865 KECCAK256 PUSH5 0x7572617469 PUSH16 0x6E20666F7220746865206E6577207065 PUSH19 0x696F644F776E61626C653A206E6577206F776E PUSH6 0x722069732074 PUSH9 0x65207A65726F206164 PUSH5 0x7265737341 PUSH5 0x6472657373 GASPRICE KECCAK256 PUSH10 0x6E73756666696369656E PUSH21 0x2062616C616E636520666F722063616C6C53616665 0x4D PUSH2 0x7468 GASPRICE KECCAK256 PUSH14 0x756C7469706C69636174696F6E20 PUSH16 0x766572666C6F77536166654552433230 GASPRICE KECCAK256 GASLIMIT MSTORE NUMBER ORIGIN ADDRESS KECCAK256 PUSH16 0x7065726174696F6E20646964206E6F74 KECCAK256 PUSH20 0x75636365656443616E6E6F742077697468647261 PUSH24 0x20746865207374616B696E6720746F6B656EA26469706673 PC 0x22 SLT KECCAK256 0xBF 0xA5 0xB2 DUP7 SWAP15 PUSH6 0xE714FAF1CD73 MULMOD CREATE 0xC8 PUSH30 0x8D4EB6A3BC1FC992421B724C62CD72E764736F6C63430007060033000000 "
				},
				"gasEstimates": {
					"creation": {
						"codeDepositCost": "1362400",
						"executionCost": "infinite",
						"totalCost": "infinite"
					},
					"external": {
						"balanceOf(address)": "1232",
						"earned(address)": "infinite",
						"exit()": "infinite",
						"getReward()": "infinite",
						"getRewardForDuration()": "infinite",
						"lastTimeRewardApplicable()": "1195",
						"lastUpdateTime()": "1065",
						"notifyRewardAmount(uint256)": "infinite",
						"owner()": "1127",
						"periodFinish()": "1064",
						"recoverERC20(address,uint256)": "infinite",
						"renounceOwnership()": "24234",
						"rewardPerToken()": "infinite",
						"rewardPerTokenStored()": "1087",
						"rewardRate()": "1087",
						"rewards(address)": "1193",
						"rewardsDuration()": "1088",
						"rewardsToken()": "1104",
						"setRewardsDuration(uint256)": "infinite",
						"stake(uint256)": "infinite",
						"stakeWithPermit(uint256,uint256,uint8,bytes32,bytes32)": "infinite",
						"stakingToken()": "1104",
						"totalSupply()": "1090",
						"transferOwnership(address)": "infinite",
						"userRewardPerTokenPaid(address)": "1192",
						"withdraw(uint256)": "infinite"
					}
				},
				"methodIdentifiers": {
					"balanceOf(address)": "70a08231",
					"earned(address)": "008cc262",
					"exit()": "e9fad8ee",
					"getReward()": "3d18b912",
					"getRewardForDuration()": "1c1f78eb",
					"lastTimeRewardApplicable()": "80faa57d",
					"lastUpdateTime()": "c8f33c91",
					"notifyRewardAmount(uint256)": "3c6b16ab",
					"owner()": "8da5cb5b",
					"periodFinish()": "ebe2b12b",
					"recoverERC20(address,uint256)": "8980f11f",
					"renounceOwnership()": "715018a6",
					"rewardPerToken()": "cd3daf9d",
					"rewardPerTokenStored()": "df136d65",
					"rewardRate()": "7b0a47ee",
					"rewards(address)": "0700037d",
					"rewardsDuration()": "386a9525",
					"rewardsToken()": "d1af0c7d",
					"setRewardsDuration(uint256)": "cc1a378f",
					"stake(uint256)": "a694fc3a",
					"stakeWithPermit(uint256,uint256,uint8,bytes32,bytes32)": "ecd9ba82",
					"stakingToken()": "72f702f3",
					"totalSupply()": "18160ddd",
					"transferOwnership(address)": "f2fde38b",
					"userRewardPerTokenPaid(address)": "8b876347",
					"withdraw(uint256)": "2e1a7d4d"
				}
			},
			"storageLayout": {
				"storage": [
					{
						"astId": 935,
						"contract": "CoreContracts/StakingRewards.sol:StakingRewards",
						"label": "_status",
						"offset": 0,
						"slot": "0",
						"type": "t_uint256"
					},
					{
						"astId": 28,
						"contract": "CoreContracts/StakingRewards.sol:StakingRewards",
						"label": "_owner",
						"offset": 0,
						"slot": "1",
						"type": "t_address"
					},
					{
						"astId": 1094,
						"contract": "CoreContracts/StakingRewards.sol:StakingRewards",
						"label": "rewardsToken",
						"offset": 0,
						"slot": "2",
						"type": "t_contract(IERC20)473"
					},
					{
						"astId": 1096,
						"contract": "CoreContracts/StakingRewards.sol:StakingRewards",
						"label": "stakingToken",
						"offset": 0,
						"slot": "3",
						"type": "t_contract(IERC20)473"
					},
					{
						"astId": 1099,
						"contract": "CoreContracts/StakingRewards.sol:StakingRewards",
						"label": "periodFinish",
						"offset": 0,
						"slot": "4",
						"type": "t_uint256"
					},
					{
						"astId": 1102,
						"contract": "CoreContracts/StakingRewards.sol:StakingRewards",
						"label": "rewardRate",
						"offset": 0,
						"slot": "5",
						"type": "t_uint256"
					},
					{
						"astId": 1105,
						"contract": "CoreContracts/StakingRewards.sol:StakingRewards",
						"label": "rewardsDuration",
						"offset": 0,
						"slot": "6",
						"type": "t_uint256"
					},
					{
						"astId": 1107,
						"contract": "CoreContracts/StakingRewards.sol:StakingRewards",
						"label": "lastUpdateTime",
						"offset": 0,
						"slot": "7",
						"type": "t_uint256"
					},
					{
						"astId": 1109,
						"contract": "CoreContracts/StakingRewards.sol:StakingRewards",
						"label": "rewardPerTokenStored",
						"offset": 0,
						"slot": "8",
						"type": "t_uint256"
					},
					{
						"astId": 1113,
						"contract": "CoreContracts/StakingRewards.sol:StakingRewards",
						"label": "userRewardPerTokenPaid",
						"offset": 0,
						"slot": "9",
						"type": "t_mapping(t_address,t_uint256)"
					},
					{
						"astId": 1117,
						"contract": "CoreContracts/StakingRewards.sol:StakingRewards",
						"label": "rewards",
						"offset": 0,
						"slot": "10",
						"type": "t_mapping(t_address,t_uint256)"
					},
					{
						"astId": 1119,
						"contract": "CoreContracts/StakingRewards.sol:StakingRewards",
						"label": "_totalSupply",
						"offset": 0,
						"slot": "11",
						"type": "t_uint256"
					},
					{
						"astId": 1123,
						"contract": "CoreContracts/StakingRewards.sol:StakingRewards",
						"label": "_balances",
						"offset": 0,
						"slot": "12",
						"type": "t_mapping(t_address,t_uint256)"
					}
				],
				"types": {
					"t_address": {
						"encoding": "inplace",
						"label": "address",
						"numberOfBytes": "20"
					},
					"t_contract(IERC20)473": {
						"encoding": "inplace",
						"label": "contract IERC20",
						"numberOfBytes": "20"
					},
					"t_mapping(t_address,t_uint256)": {
						"encoding": "mapping",
						"key": "t_address",
						"label": "mapping(address => uint256)",
						"numberOfBytes": "32",
						"value": "t_uint256"
					},
					"t_uint256": {
						"encoding": "inplace",
						"label": "uint256",
						"numberOfBytes": "32"
					}
				}
			},
			"userdoc": {
				"kind": "user",
				"methods": {},
				"version": 1
			}
		}
	}
}