{
	"CoreContracts/kalyswap-periphery/KalyswapRouter.sol": {
		"KalyswapRouter": {
			"abi": [
				{
					"inputs": [
						{
							"internalType": "address",
							"name": "_factory",
							"type": "address"
						},
						{
							"internalType": "address",
							"name": "_WKLC",
							"type": "address"
						}
					],
					"stateMutability": "nonpayable",
					"type": "constructor"
				},
				{
					"inputs": [],
					"name": "WKLC",
					"outputs": [
						{
							"internalType": "address",
							"name": "",
							"type": "address"
						}
					],
					"stateMutability": "view",
					"type": "function"
				},
				{
					"inputs": [
						{
							"internalType": "address",
							"name": "tokenA",
							"type": "address"
						},
						{
							"internalType": "address",
							"name": "tokenB",
							"type": "address"
						},
						{
							"internalType": "uint256",
							"name": "amountADesired",
							"type": "uint256"
						},
						{
							"internalType": "uint256",
							"name": "amountBDesired",
							"type": "uint256"
						},
						{
							"internalType": "uint256",
							"name": "amountAMin",
							"type": "uint256"
						},
						{
							"internalType": "uint256",
							"name": "amountBMin",
							"type": "uint256"
						},
						{
							"internalType": "address",
							"name": "to",
							"type": "address"
						},
						{
							"internalType": "uint256",
							"name": "deadline",
							"type": "uint256"
						}
					],
					"name": "addLiquidity",
					"outputs": [
						{
							"internalType": "uint256",
							"name": "amountA",
							"type": "uint256"
						},
						{
							"internalType": "uint256",
							"name": "amountB",
							"type": "uint256"
						},
						{
							"internalType": "uint256",
							"name": "liquidity",
							"type": "uint256"
						}
					],
					"stateMutability": "nonpayable",
					"type": "function"
				},
				{
					"inputs": [
						{
							"internalType": "address",
							"name": "token",
							"type": "address"
						},
						{
							"internalType": "uint256",
							"name": "amountTokenDesired",
							"type": "uint256"
						},
						{
							"internalType": "uint256",
							"name": "amountTokenMin",
							"type": "uint256"
						},
						{
							"internalType": "uint256",
							"name": "amountKLCMin",
							"type": "uint256"
						},
						{
							"internalType": "address",
							"name": "to",
							"type": "address"
						},
						{
							"internalType": "uint256",
							"name": "deadline",
							"type": "uint256"
						}
					],
					"name": "addLiquidityKLC",
					"outputs": [
						{
							"internalType": "uint256",
							"name": "amountToken",
							"type": "uint256"
						},
						{
							"internalType": "uint256",
							"name": "amountKLC",
							"type": "uint256"
						},
						{
							"internalType": "uint256",
							"name": "liquidity",
							"type": "uint256"
						}
					],
					"stateMutability": "payable",
					"type": "function"
				},
				{
					"inputs": [],
					"name": "factory",
					"outputs": [
						{
							"internalType": "address",
							"name": "",
							"type": "address"
						}
					],
					"stateMutability": "view",
					"type": "function"
				},
				{
					"inputs": [
						{
							"internalType": "uint256",
							"name": "amountOut",
							"type": "uint256"
						},
						{
							"internalType": "uint256",
							"name": "reserveIn",
							"type": "uint256"
						},
						{
							"internalType": "uint256",
							"name": "reserveOut",
							"type": "uint256"
						}
					],
					"name": "getAmountIn",
					"outputs": [
						{
							"internalType": "uint256",
							"name": "amountIn",
							"type": "uint256"
						}
					],
					"stateMutability": "pure",
					"type": "function"
				},
				{
					"inputs": [
						{
							"internalType": "uint256",
							"name": "amountIn",
							"type": "uint256"
						},
						{
							"internalType": "uint256",
							"name": "reserveIn",
							"type": "uint256"
						},
						{
							"internalType": "uint256",
							"name": "reserveOut",
							"type": "uint256"
						}
					],
					"name": "getAmountOut",
					"outputs": [
						{
							"internalType": "uint256",
							"name": "amountOut",
							"type": "uint256"
						}
					],
					"stateMutability": "pure",
					"type": "function"
				},
				{
					"inputs": [
						{
							"internalType": "uint256",
							"name": "amountOut",
							"type": "uint256"
						},
						{
							"internalType": "address[]",
							"name": "path",
							"type": "address[]"
						}
					],
					"name": "getAmountsIn",
					"outputs": [
						{
							"internalType": "uint256[]",
							"name": "amounts",
							"type": "uint256[]"
						}
					],
					"stateMutability": "view",
					"type": "function"
				},
				{
					"inputs": [
						{
							"internalType": "uint256",
							"name": "amountIn",
							"type": "uint256"
						},
						{
							"internalType": "address[]",
							"name": "path",
							"type": "address[]"
						}
					],
					"name": "getAmountsOut",
					"outputs": [
						{
							"internalType": "uint256[]",
							"name": "amounts",
							"type": "uint256[]"
						}
					],
					"stateMutability": "view",
					"type": "function"
				},
				{
					"inputs": [
						{
							"internalType": "uint256",
							"name": "amountA",
							"type": "uint256"
						},
						{
							"internalType": "uint256",
							"name": "reserveA",
							"type": "uint256"
						},
						{
							"internalType": "uint256",
							"name": "reserveB",
							"type": "uint256"
						}
					],
					"name": "quote",
					"outputs": [
						{
							"internalType": "uint256",
							"name": "amountB",
							"type": "uint256"
						}
					],
					"stateMutability": "pure",
					"type": "function"
				},
				{
					"inputs": [
						{
							"internalType": "address",
							"name": "tokenA",
							"type": "address"
						},
						{
							"internalType": "address",
							"name": "tokenB",
							"type": "address"
						},
						{
							"internalType": "uint256",
							"name": "liquidity",
							"type": "uint256"
						},
						{
							"internalType": "uint256",
							"name": "amountAMin",
							"type": "uint256"
						},
						{
							"internalType": "uint256",
							"name": "amountBMin",
							"type": "uint256"
						},
						{
							"internalType": "address",
							"name": "to",
							"type": "address"
						},
						{
							"internalType": "uint256",
							"name": "deadline",
							"type": "uint256"
						}
					],
					"name": "removeLiquidity",
					"outputs": [
						{
							"internalType": "uint256",
							"name": "amountA",
							"type": "uint256"
						},
						{
							"internalType": "uint256",
							"name": "amountB",
							"type": "uint256"
						}
					],
					"stateMutability": "nonpayable",
					"type": "function"
				},
				{
					"inputs": [
						{
							"internalType": "address",
							"name": "token",
							"type": "address"
						},
						{
							"internalType": "uint256",
							"name": "liquidity",
							"type": "uint256"
						},
						{
							"internalType": "uint256",
							"name": "amountTokenMin",
							"type": "uint256"
						},
						{
							"internalType": "uint256",
							"name": "amountKLCMin",
							"type": "uint256"
						},
						{
							"internalType": "address",
							"name": "to",
							"type": "address"
						},
						{
							"internalType": "uint256",
							"name": "deadline",
							"type": "uint256"
						}
					],
					"name": "removeLiquidityKLC",
					"outputs": [
						{
							"internalType": "uint256",
							"name": "amountToken",
							"type": "uint256"
						},
						{
							"internalType": "uint256",
							"name": "amountKLC",
							"type": "uint256"
						}
					],
					"stateMutability": "nonpayable",
					"type": "function"
				},
				{
					"inputs": [
						{
							"internalType": "address",
							"name": "token",
							"type": "address"
						},
						{
							"internalType": "uint256",
							"name": "liquidity",
							"type": "uint256"
						},
						{
							"internalType": "uint256",
							"name": "amountTokenMin",
							"type": "uint256"
						},
						{
							"internalType": "uint256",
							"name": "amountKLCMin",
							"type": "uint256"
						},
						{
							"internalType": "address",
							"name": "to",
							"type": "address"
						},
						{
							"internalType": "uint256",
							"name": "deadline",
							"type": "uint256"
						}
					],
					"name": "removeLiquidityKLCSupportingFeeOnTransferTokens",
					"outputs": [
						{
							"internalType": "uint256",
							"name": "amountKLC",
							"type": "uint256"
						}
					],
					"stateMutability": "nonpayable",
					"type": "function"
				},
				{
					"inputs": [
						{
							"internalType": "address",
							"name": "token",
							"type": "address"
						},
						{
							"internalType": "uint256",
							"name": "liquidity",
							"type": "uint256"
						},
						{
							"internalType": "uint256",
							"name": "amountTokenMin",
							"type": "uint256"
						},
						{
							"internalType": "uint256",
							"name": "amountKLCMin",
							"type": "uint256"
						},
						{
							"internalType": "address",
							"name": "to",
							"type": "address"
						},
						{
							"internalType": "uint256",
							"name": "deadline",
							"type": "uint256"
						},
						{
							"internalType": "bool",
							"name": "approveMax",
							"type": "bool"
						},
						{
							"internalType": "uint8",
							"name": "v",
							"type": "uint8"
						},
						{
							"internalType": "bytes32",
							"name": "r",
							"type": "bytes32"
						},
						{
							"internalType": "bytes32",
							"name": "s",
							"type": "bytes32"
						}
					],
					"name": "removeLiquidityKLCWithPermit",
					"outputs": [
						{
							"internalType": "uint256",
							"name": "amountToken",
							"type": "uint256"
						},
						{
							"internalType": "uint256",
							"name": "amountKLC",
							"type": "uint256"
						}
					],
					"stateMutability": "nonpayable",
					"type": "function"
				},
				{
					"inputs": [
						{
							"internalType": "address",
							"name": "token",
							"type": "address"
						},
						{
							"internalType": "uint256",
							"name": "liquidity",
							"type": "uint256"
						},
						{
							"internalType": "uint256",
							"name": "amountTokenMin",
							"type": "uint256"
						},
						{
							"internalType": "uint256",
							"name": "amountKLCMin",
							"type": "uint256"
						},
						{
							"internalType": "address",
							"name": "to",
							"type": "address"
						},
						{
							"internalType": "uint256",
							"name": "deadline",
							"type": "uint256"
						},
						{
							"internalType": "bool",
							"name": "approveMax",
							"type": "bool"
						},
						{
							"internalType": "uint8",
							"name": "v",
							"type": "uint8"
						},
						{
							"internalType": "bytes32",
							"name": "r",
							"type": "bytes32"
						},
						{
							"internalType": "bytes32",
							"name": "s",
							"type": "bytes32"
						}
					],
					"name": "removeLiquidityKLCWithPermitSupportingFeeOnTransferTokens",
					"outputs": [
						{
							"internalType": "uint256",
							"name": "amountKLC",
							"type": "uint256"
						}
					],
					"stateMutability": "nonpayable",
					"type": "function"
				},
				{
					"inputs": [
						{
							"internalType": "address",
							"name": "tokenA",
							"type": "address"
						},
						{
							"internalType": "address",
							"name": "tokenB",
							"type": "address"
						},
						{
							"internalType": "uint256",
							"name": "liquidity",
							"type": "uint256"
						},
						{
							"internalType": "uint256",
							"name": "amountAMin",
							"type": "uint256"
						},
						{
							"internalType": "uint256",
							"name": "amountBMin",
							"type": "uint256"
						},
						{
							"internalType": "address",
							"name": "to",
							"type": "address"
						},
						{
							"internalType": "uint256",
							"name": "deadline",
							"type": "uint256"
						},
						{
							"internalType": "bool",
							"name": "approveMax",
							"type": "bool"
						},
						{
							"internalType": "uint8",
							"name": "v",
							"type": "uint8"
						},
						{
							"internalType": "bytes32",
							"name": "r",
							"type": "bytes32"
						},
						{
							"internalType": "bytes32",
							"name": "s",
							"type": "bytes32"
						}
					],
					"name": "removeLiquidityWithPermit",
					"outputs": [
						{
							"internalType": "uint256",
							"name": "amountA",
							"type": "uint256"
						},
						{
							"internalType": "uint256",
							"name": "amountB",
							"type": "uint256"
						}
					],
					"stateMutability": "nonpayable",
					"type": "function"
				},
				{
					"inputs": [
						{
							"internalType": "uint256",
							"name": "amountOutMin",
							"type": "uint256"
						},
						{
							"internalType": "address[]",
							"name": "path",
							"type": "address[]"
						},
						{
							"internalType": "address",
							"name": "to",
							"type": "address"
						},
						{
							"internalType": "uint256",
							"name": "deadline",
							"type": "uint256"
						}
					],
					"name": "swapExactKLCForTokens",
					"outputs": [
						{
							"internalType": "uint256[]",
							"name": "amounts",
							"type": "uint256[]"
						}
					],
					"stateMutability": "payable",
					"type": "function"
				},
				{
					"inputs": [
						{
							"internalType": "uint256",
							"name": "amountOutMin",
							"type": "uint256"
						},
						{
							"internalType": "address[]",
							"name": "path",
							"type": "address[]"
						},
						{
							"internalType": "address",
							"name": "to",
							"type": "address"
						},
						{
							"internalType": "uint256",
							"name": "deadline",
							"type": "uint256"
						}
					],
					"name": "swapExactKLCForTokensSupportingFeeOnTransferTokens",
					"outputs": [],
					"stateMutability": "payable",
					"type": "function"
				},
				{
					"inputs": [
						{
							"internalType": "uint256",
							"name": "amountIn",
							"type": "uint256"
						},
						{
							"internalType": "uint256",
							"name": "amountOutMin",
							"type": "uint256"
						},
						{
							"internalType": "address[]",
							"name": "path",
							"type": "address[]"
						},
						{
							"internalType": "address",
							"name": "to",
							"type": "address"
						},
						{
							"internalType": "uint256",
							"name": "deadline",
							"type": "uint256"
						}
					],
					"name": "swapExactTokensForKLC",
					"outputs": [
						{
							"internalType": "uint256[]",
							"name": "amounts",
							"type": "uint256[]"
						}
					],
					"stateMutability": "nonpayable",
					"type": "function"
				},
				{
					"inputs": [
						{
							"internalType": "uint256",
							"name": "amountIn",
							"type": "uint256"
						},
						{
							"internalType": "uint256",
							"name": "amountOutMin",
							"type": "uint256"
						},
						{
							"internalType": "address[]",
							"name": "path",
							"type": "address[]"
						},
						{
							"internalType": "address",
							"name": "to",
							"type": "address"
						},
						{
							"internalType": "uint256",
							"name": "deadline",
							"type": "uint256"
						}
					],
					"name": "swapExactTokensForKLCSupportingFeeOnTransferTokens",
					"outputs": [],
					"stateMutability": "nonpayable",
					"type": "function"
				},
				{
					"inputs": [
						{
							"internalType": "uint256",
							"name": "amountIn",
							"type": "uint256"
						},
						{
							"internalType": "uint256",
							"name": "amountOutMin",
							"type": "uint256"
						},
						{
							"internalType": "address[]",
							"name": "path",
							"type": "address[]"
						},
						{
							"internalType": "address",
							"name": "to",
							"type": "address"
						},
						{
							"internalType": "uint256",
							"name": "deadline",
							"type": "uint256"
						}
					],
					"name": "swapExactTokensForTokens",
					"outputs": [
						{
							"internalType": "uint256[]",
							"name": "amounts",
							"type": "uint256[]"
						}
					],
					"stateMutability": "nonpayable",
					"type": "function"
				},
				{
					"inputs": [
						{
							"internalType": "uint256",
							"name": "amountIn",
							"type": "uint256"
						},
						{
							"internalType": "uint256",
							"name": "amountOutMin",
							"type": "uint256"
						},
						{
							"internalType": "address[]",
							"name": "path",
							"type": "address[]"
						},
						{
							"internalType": "address",
							"name": "to",
							"type": "address"
						},
						{
							"internalType": "uint256",
							"name": "deadline",
							"type": "uint256"
						}
					],
					"name": "swapExactTokensForTokensSupportingFeeOnTransferTokens",
					"outputs": [],
					"stateMutability": "nonpayable",
					"type": "function"
				},
				{
					"inputs": [
						{
							"internalType": "uint256",
							"name": "amountOut",
							"type": "uint256"
						},
						{
							"internalType": "address[]",
							"name": "path",
							"type": "address[]"
						},
						{
							"internalType": "address",
							"name": "to",
							"type": "address"
						},
						{
							"internalType": "uint256",
							"name": "deadline",
							"type": "uint256"
						}
					],
					"name": "swapKLCForExactTokens",
					"outputs": [
						{
							"internalType": "uint256[]",
							"name": "amounts",
							"type": "uint256[]"
						}
					],
					"stateMutability": "payable",
					"type": "function"
				},
				{
					"inputs": [
						{
							"internalType": "uint256",
							"name": "amountOut",
							"type": "uint256"
						},
						{
							"internalType": "uint256",
							"name": "amountInMax",
							"type": "uint256"
						},
						{
							"internalType": "address[]",
							"name": "path",
							"type": "address[]"
						},
						{
							"internalType": "address",
							"name": "to",
							"type": "address"
						},
						{
							"internalType": "uint256",
							"name": "deadline",
							"type": "uint256"
						}
					],
					"name": "swapTokensForExactKLC",
					"outputs": [
						{
							"internalType": "uint256[]",
							"name": "amounts",
							"type": "uint256[]"
						}
					],
					"stateMutability": "nonpayable",
					"type": "function"
				},
				{
					"inputs": [
						{
							"internalType": "uint256",
							"name": "amountOut",
							"type": "uint256"
						},
						{
							"internalType": "uint256",
							"name": "amountInMax",
							"type": "uint256"
						},
						{
							"internalType": "address[]",
							"name": "path",
							"type": "address[]"
						},
						{
							"internalType": "address",
							"name": "to",
							"type": "address"
						},
						{
							"internalType": "uint256",
							"name": "deadline",
							"type": "uint256"
						}
					],
					"name": "swapTokensForExactTokens",
					"outputs": [
						{
							"internalType": "uint256[]",
							"name": "amounts",
							"type": "uint256[]"
						}
					],
					"stateMutability": "nonpayable",
					"type": "function"
				},
				{
					"stateMutability": "payable",
					"type": "receive"
				}
			],
			"devdoc": {
				"methods": {}
			},
			"evm": {
				"assembly": "    /* \"CoreContracts/kalyswap-periphery/KalyswapRouter.sol\":328:18368  contract KalyswapRouter is IKalyswapRouter {... */\n  mstore(0x40, 0xc0)\n    /* \"CoreContracts/kalyswap-periphery/KalyswapRouter.sol\":627:736  constructor(address _factory, address _WKLC) public {... */\n  callvalue\n    /* \"--CODEGEN--\":5:14   */\n  dup1\n    /* \"--CODEGEN--\":2:4   */\n  iszero\n  tag_1\n  jumpi\n    /* \"--CODEGEN--\":27:28   */\n  0x00\n    /* \"--CODEGEN--\":24:25   */\n  dup1\n    /* \"--CODEGEN--\":17:29   */\n  revert\n    /* \"--CODEGEN--\":2:4   */\ntag_1:\n    /* \"CoreContracts/kalyswap-periphery/KalyswapRouter.sol\":627:736  constructor(address _factory, address _WKLC) public {... */\n  pop\n  mload(0x40)\n  sub(codesize, bytecodeSize)\n  dup1\n  bytecodeSize\n  dup4\n  codecopy\n  dup2\n  dup2\n  add\n  0x40\n  mstore\n    /* \"--CODEGEN--\":15:17   */\n  0x40\n    /* \"--CODEGEN--\":10:13   */\n  dup2\n    /* \"--CODEGEN--\":7:18   */\n  lt\n    /* \"--CODEGEN--\":4:6   */\n  iszero\n  tag_2\n  jumpi\n    /* \"--CODEGEN--\":31:32   */\n  0x00\n    /* \"--CODEGEN--\":28:29   */\n  dup1\n    /* \"--CODEGEN--\":21:33   */\n  revert\n    /* \"--CODEGEN--\":4:6   */\ntag_2:\n  pop\n    /* \"CoreContracts/kalyswap-periphery/KalyswapRouter.sol\":627:736  constructor(address _factory, address _WKLC) public {... */\n  dup1\n  mload\n  0x20\n  swap1\n  swap2\n  add\n  mload\n  not(sub(shl(0x60, 0x01), 0x01))\n    /* \"CoreContracts/kalyswap-periphery/KalyswapRouter.sol\":689:707  factory = _factory */\n  0x60\n  swap3\n  dup4\n  shl\n  dup2\n  and\n  0x80\n  mstore\n    /* \"CoreContracts/kalyswap-periphery/KalyswapRouter.sol\":717:729  WKLC = _WKLC */\n  swap2\n  shl\n  and\n  0xa0\n  mstore\n    /* \"CoreContracts/kalyswap-periphery/KalyswapRouter.sol\":328:18368  contract KalyswapRouter is IKalyswapRouter {... */\n  shr(0x60, mload(0x80))\n  shr(0x60, mload(0xa0))\n  codecopy(0x00, dataOffset(sub_0), dataSize(sub_0))\n  assignImmutable(\"0xe96cc20f241c05b09b05be99fa40d483e0c60480c24cfabd29fea373217f3b30\")\n  assignImmutable(\"0x59ec111d9d8ceec2ab223a1d5004f35d19292b31c8f02c623d83a90888216dda\")\n  return(0x00, dataSize(sub_0))\nstop\n\nsub_0: assembly {\n        /* \"CoreContracts/kalyswap-periphery/KalyswapRouter.sol\":328:18368  contract KalyswapRouter is IKalyswapRouter {... */\n      mstore(0x40, 0x80)\n      jumpi(tag_1, lt(calldatasize, 0x04))\n      shr(0xe0, calldataload(0x00))\n      dup1\n      0xad477b4d\n      gt\n      tag_27\n      jumpi\n      dup1\n      0xbaa2abde\n      gt\n      tag_28\n      jumpi\n      dup1\n      0xd3b5b4c8\n      gt\n      tag_29\n      jumpi\n      dup1\n      0xd3b5b4c8\n      eq\n      tag_24\n      jumpi\n      dup1\n      0xd53a791e\n      eq\n      tag_25\n      jumpi\n      dup1\n      0xe8e33700\n      eq\n      tag_26\n      jumpi\n      jump(tag_2)\n    tag_29:\n      dup1\n      0xbaa2abde\n      eq\n      tag_21\n      jumpi\n      dup1\n      0xc45a0155\n      eq\n      tag_22\n      jumpi\n      dup1\n      0xd06ca61f\n      eq\n      tag_23\n      jumpi\n      jump(tag_2)\n    tag_28:\n      dup1\n      0xb6124cc7\n      gt\n      tag_30\n      jumpi\n      dup1\n      0xb6124cc7\n      eq\n      tag_18\n      jumpi\n      dup1\n      0xb6e1d024\n      eq\n      tag_19\n      jumpi\n      dup1\n      0xb6f315e9\n      eq\n      tag_20\n      jumpi\n      jump(tag_2)\n    tag_30:\n      dup1\n      0xad477b4d\n      eq\n      tag_15\n      jumpi\n      dup1\n      0xad615dec\n      eq\n      tag_16\n      jumpi\n      dup1\n      0xad87fb0a\n      eq\n      tag_17\n      jumpi\n      jump(tag_2)\n    tag_27:\n      dup1\n      0x2195995c\n      gt\n      tag_31\n      jumpi\n      dup1\n      0x801ef55d\n      gt\n      tag_32\n      jumpi\n      dup1\n      0x801ef55d\n      eq\n      tag_12\n      jumpi\n      dup1\n      0x85f8c259\n      eq\n      tag_13\n      jumpi\n      dup1\n      0x8803dbee\n      eq\n      tag_14\n      jumpi\n      jump(tag_2)\n    tag_32:\n      dup1\n      0x2195995c\n      eq\n      tag_9\n      jumpi\n      dup1\n      0x38ed1739\n      eq\n      tag_10\n      jumpi\n      dup1\n      0x5c11d795\n      eq\n      tag_11\n      jumpi\n      jump(tag_2)\n    tag_31:\n      dup1\n      0x114445f9\n      gt\n      tag_33\n      jumpi\n      dup1\n      0x114445f9\n      eq\n      tag_6\n      jumpi\n      dup1\n      0x173dab80\n      eq\n      tag_7\n      jumpi\n      dup1\n      0x1f00ca74\n      eq\n      tag_8\n      jumpi\n      jump(tag_2)\n    tag_33:\n      dup1\n      0x054d50d4\n      eq\n      tag_3\n      jumpi\n      dup1\n      0x056d9505\n      eq\n      tag_4\n      jumpi\n      dup1\n      0x105e4308\n      eq\n      tag_5\n      jumpi\n      jump(tag_2)\n    tag_1:\n      jumpi(tag_2, calldatasize)\n        /* \"CoreContracts/kalyswap-periphery/KalyswapRouter.sol\":786:796  msg.sender */\n      caller\n      sub(shl(0xa0, 0x01), 0x01)\n        /* \"CoreContracts/kalyswap-periphery/KalyswapRouter.sol\":800:804  WKLC */\n      immutable(\"0xe96cc20f241c05b09b05be99fa40d483e0c60480c24cfabd29fea373217f3b30\")\n        /* \"CoreContracts/kalyswap-periphery/KalyswapRouter.sol\":786:804  msg.sender == WKLC */\n      and\n      eq\n        /* \"CoreContracts/kalyswap-periphery/KalyswapRouter.sol\":779:805  assert(msg.sender == WKLC) */\n      tag_36\n      jumpi\n      invalid\n    tag_36:\n        /* \"CoreContracts/kalyswap-periphery/KalyswapRouter.sol\":328:18368  contract KalyswapRouter is IKalyswapRouter {... */\n      stop\n    tag_2:\n        /* \"--CODEGEN--\":12:13   */\n      0x00\n        /* \"--CODEGEN--\":9:10   */\n      dup1\n        /* \"--CODEGEN--\":2:14   */\n      revert\n        /* \"CoreContracts/kalyswap-periphery/KalyswapRouter.sol\":17355:17608  function getAmountOut(uint amountIn, uint reserveIn, uint reserveOut)... */\n    tag_3:\n      callvalue\n        /* \"--CODEGEN--\":5:14   */\n      dup1\n        /* \"--CODEGEN--\":2:4   */\n      iszero\n      tag_37\n      jumpi\n        /* \"--CODEGEN--\":27:28   */\n      0x00\n        /* \"--CODEGEN--\":24:25   */\n      dup1\n        /* \"--CODEGEN--\":17:29   */\n      revert\n        /* \"--CODEGEN--\":2:4   */\n    tag_37:\n        /* \"CoreContracts/kalyswap-periphery/KalyswapRouter.sol\":17355:17608  function getAmountOut(uint amountIn, uint reserveIn, uint reserveOut)... */\n      pop\n      tag_38\n      0x04\n      dup1\n      calldatasize\n      sub\n        /* \"--CODEGEN--\":15:17   */\n      0x60\n        /* \"--CODEGEN--\":10:13   */\n      dup2\n        /* \"--CODEGEN--\":7:18   */\n      lt\n        /* \"--CODEGEN--\":4:6   */\n      iszero\n      tag_39\n      jumpi\n        /* \"--CODEGEN--\":31:32   */\n      0x00\n        /* \"--CODEGEN--\":28:29   */\n      dup1\n        /* \"--CODEGEN--\":21:33   */\n      revert\n        /* \"--CODEGEN--\":4:6   */\n    tag_39:\n      pop\n        /* \"CoreContracts/kalyswap-periphery/KalyswapRouter.sol\":17355:17608  function getAmountOut(uint amountIn, uint reserveIn, uint reserveOut)... */\n      dup1\n      calldataload\n      swap1\n      0x20\n      dup2\n      add\n      calldataload\n      swap1\n      0x40\n      add\n      calldataload\n      tag_40\n      jump\t// in\n    tag_38:\n      0x40\n      dup1\n      mload\n      swap2\n      dup3\n      mstore\n      mload\n      swap1\n      dup2\n      swap1\n      sub\n      0x20\n      add\n      swap1\n      return\n        /* \"CoreContracts/kalyswap-periphery/KalyswapRouter.sol\":10996:11804  function swapTokensForExactKLC(uint amountOut, uint amountInMax, address[] calldata path, address to, uint deadline)... */\n    tag_4:\n      callvalue\n        /* \"--CODEGEN--\":5:14   */\n      dup1\n        /* \"--CODEGEN--\":2:4   */\n      iszero\n      tag_41\n      jumpi\n        /* \"--CODEGEN--\":27:28   */\n      0x00\n        /* \"--CODEGEN--\":24:25   */\n      dup1\n        /* \"--CODEGEN--\":17:29   */\n      revert\n        /* \"--CODEGEN--\":2:4   */\n    tag_41:\n        /* \"CoreContracts/kalyswap-periphery/KalyswapRouter.sol\":10996:11804  function swapTokensForExactKLC(uint amountOut, uint amountInMax, address[] calldata path, address to, uint deadline)... */\n      pop\n      tag_42\n      0x04\n      dup1\n      calldatasize\n      sub\n        /* \"--CODEGEN--\":15:18   */\n      0xa0\n        /* \"--CODEGEN--\":10:13   */\n      dup2\n        /* \"--CODEGEN--\":7:19   */\n      lt\n        /* \"--CODEGEN--\":4:6   */\n      iszero\n      tag_43\n      jumpi\n        /* \"--CODEGEN--\":32:33   */\n      0x00\n        /* \"--CODEGEN--\":29:30   */\n      dup1\n        /* \"--CODEGEN--\":22:34   */\n      revert\n        /* \"--CODEGEN--\":4:6   */\n    tag_43:\n        /* \"CoreContracts/kalyswap-periphery/KalyswapRouter.sol\":10996:11804  function swapTokensForExactKLC(uint amountOut, uint amountInMax, address[] calldata path, address to, uint deadline)... */\n      dup2\n      calldataload\n      swap2\n      0x20\n      dup2\n      add\n      calldataload\n      swap2\n      dup2\n      add\n      swap1\n      0x60\n      dup2\n      add\n      0x40\n      dup3\n      add\n      calldataload\n        /* \"--CODEGEN--\":27:38   */\n      0x0100000000\n        /* \"--CODEGEN--\":11:39   */\n      dup2\n      gt\n        /* \"--CODEGEN--\":8:10   */\n      iszero\n      tag_44\n      jumpi\n        /* \"--CODEGEN--\":52:53   */\n      0x00\n        /* \"--CODEGEN--\":49:50   */\n      dup1\n        /* \"--CODEGEN--\":42:54   */\n      revert\n        /* \"--CODEGEN--\":8:10   */\n    tag_44:\n        /* \"CoreContracts/kalyswap-periphery/KalyswapRouter.sol\":10996:11804  function swapTokensForExactKLC(uint amountOut, uint amountInMax, address[] calldata path, address to, uint deadline)... */\n      dup3\n      add\n        /* \"--CODEGEN--\":41:50   */\n      dup4\n        /* \"--CODEGEN--\":34:38   */\n      0x20\n        /* \"--CODEGEN--\":18:32   */\n      dup3\n        /* \"--CODEGEN--\":14:39   */\n      add\n        /* \"--CODEGEN--\":11:51   */\n      gt\n        /* \"--CODEGEN--\":8:10   */\n      iszero\n      tag_45\n      jumpi\n        /* \"--CODEGEN--\":64:65   */\n      0x00\n        /* \"--CODEGEN--\":61:62   */\n      dup1\n        /* \"--CODEGEN--\":54:66   */\n      revert\n        /* \"--CODEGEN--\":8:10   */\n    tag_45:\n        /* \"CoreContracts/kalyswap-periphery/KalyswapRouter.sol\":10996:11804  function swapTokensForExactKLC(uint amountOut, uint amountInMax, address[] calldata path, address to, uint deadline)... */\n      dup1\n      calldataload\n      swap1\n      0x20\n      add\n      swap2\n        /* \"--CODEGEN--\":101:110   */\n      dup5\n        /* \"--CODEGEN--\":95:97   */\n      0x20\n        /* \"--CODEGEN--\":81:93   */\n      dup4\n        /* \"--CODEGEN--\":77:98   */\n      mul\n        /* \"--CODEGEN--\":67:75   */\n      dup5\n        /* \"--CODEGEN--\":63:99   */\n      add\n        /* \"--CODEGEN--\":60:111   */\n      gt\n        /* \"--CODEGEN--\":39:50   */\n      0x0100000000\n        /* \"--CODEGEN--\":25:37   */\n      dup4\n        /* \"--CODEGEN--\":22:51   */\n      gt\n        /* \"--CODEGEN--\":11:119   */\n      or\n        /* \"--CODEGEN--\":8:10   */\n      iszero\n      tag_46\n      jumpi\n        /* \"--CODEGEN--\":132:133   */\n      0x00\n        /* \"--CODEGEN--\":129:130   */\n      dup1\n        /* \"--CODEGEN--\":122:134   */\n      revert\n        /* \"--CODEGEN--\":8:10   */\n    tag_46:\n        /* \"CoreContracts/kalyswap-periphery/KalyswapRouter.sol\":10996:11804  function swapTokensForExactKLC(uint amountOut, uint amountInMax, address[] calldata path, address to, uint deadline)... */\n      swap2\n      swap4\n      pop\n      swap2\n      pop\n      sub(shl(0xa0, 0x01), 0x01)\n      dup2\n      calldataload\n      and\n      swap1\n      0x20\n      add\n      calldataload\n      tag_47\n      jump\t// in\n    tag_42:\n      0x40\n      dup1\n      mload\n      0x20\n      dup1\n      dup3\n      mstore\n      dup4\n      mload\n      dup2\n      dup4\n      add\n      mstore\n      dup4\n      mload\n      swap2\n      swap3\n      dup4\n      swap3\n      swap1\n      dup4\n      add\n      swap2\n      dup6\n      dup2\n      add\n      swap2\n      mul\n      dup1\n      dup4\n      dup4\n      0x00\n        /* \"--CODEGEN--\":8:108   */\n    tag_48:\n        /* \"--CODEGEN--\":33:36   */\n      dup4\n        /* \"--CODEGEN--\":30:31   */\n      dup2\n        /* \"--CODEGEN--\":27:37   */\n      lt\n        /* \"--CODEGEN--\":8:108   */\n      iszero\n      tag_50\n      jumpi\n        /* \"--CODEGEN--\":90:101   */\n      dup2\n      dup2\n      add\n        /* \"--CODEGEN--\":84:102   */\n      mload\n        /* \"--CODEGEN--\":71:82   */\n      dup4\n      dup3\n      add\n        /* \"--CODEGEN--\":64:103   */\n      mstore\n        /* \"--CODEGEN--\":52:54   */\n      0x20\n        /* \"--CODEGEN--\":45:55   */\n      add\n        /* \"--CODEGEN--\":8:108   */\n      jump(tag_48)\n    tag_50:\n        /* \"--CODEGEN--\":12:26   */\n      pop\n        /* \"CoreContracts/kalyswap-periphery/KalyswapRouter.sol\":10996:11804  function swapTokensForExactKLC(uint amountOut, uint amountInMax, address[] calldata path, address to, uint deadline)... */\n      pop\n      pop\n      pop\n      swap1\n      pop\n      add\n      swap3\n      pop\n      pop\n      pop\n      mload(0x40)\n      dup1\n      swap2\n      sub\n      swap1\n      return\n        /* \"CoreContracts/kalyswap-periphery/KalyswapRouter.sol\":454:492  address public immutable override WKLC */\n    tag_5:\n      callvalue\n        /* \"--CODEGEN--\":5:14   */\n      dup1\n        /* \"--CODEGEN--\":2:4   */\n      iszero\n      tag_51\n      jumpi\n        /* \"--CODEGEN--\":27:28   */\n      0x00\n        /* \"--CODEGEN--\":24:25   */\n      dup1\n        /* \"--CODEGEN--\":17:29   */\n      revert\n        /* \"--CODEGEN--\":2:4   */\n    tag_51:\n        /* \"CoreContracts/kalyswap-periphery/KalyswapRouter.sol\":454:492  address public immutable override WKLC */\n      pop\n      tag_52\n      tag_53\n      jump\t// in\n    tag_52:\n      0x40\n      dup1\n      mload\n      sub(shl(0xa0, 0x01), 0x01)\n      swap1\n      swap3\n      and\n      dup3\n      mstore\n      mload\n      swap1\n      dup2\n      swap1\n      sub\n      0x20\n      add\n      swap1\n      return\n        /* \"CoreContracts/kalyswap-periphery/KalyswapRouter.sol\":6152:6806  function removeLiquidityKLCWithPermit(... */\n    tag_6:\n      callvalue\n        /* \"--CODEGEN--\":5:14   */\n      dup1\n        /* \"--CODEGEN--\":2:4   */\n      iszero\n      tag_54\n      jumpi\n        /* \"--CODEGEN--\":27:28   */\n      0x00\n        /* \"--CODEGEN--\":24:25   */\n      dup1\n        /* \"--CODEGEN--\":17:29   */\n      revert\n        /* \"--CODEGEN--\":2:4   */\n    tag_54:\n        /* \"CoreContracts/kalyswap-periphery/KalyswapRouter.sol\":6152:6806  function removeLiquidityKLCWithPermit(... */\n      pop\n      tag_55\n      0x04\n      dup1\n      calldatasize\n      sub\n        /* \"--CODEGEN--\":15:18   */\n      0x0140\n        /* \"--CODEGEN--\":10:13   */\n      dup2\n        /* \"--CODEGEN--\":7:19   */\n      lt\n        /* \"--CODEGEN--\":4:6   */\n      iszero\n      tag_56\n      jumpi\n        /* \"--CODEGEN--\":32:33   */\n      0x00\n        /* \"--CODEGEN--\":29:30   */\n      dup1\n        /* \"--CODEGEN--\":22:34   */\n      revert\n        /* \"--CODEGEN--\":4:6   */\n    tag_56:\n      pop\n      sub(shl(0xa0, 0x01), 0x01)\n        /* \"CoreContracts/kalyswap-periphery/KalyswapRouter.sol\":6152:6806  function removeLiquidityKLCWithPermit(... */\n      dup2\n      calldataload\n      dup2\n      and\n      swap2\n      0x20\n      dup2\n      add\n      calldataload\n      swap2\n      0x40\n      dup3\n      add\n      calldataload\n      swap2\n      0x60\n      dup2\n      add\n      calldataload\n      swap2\n      0x80\n      dup3\n      add\n      calldataload\n      and\n      swap1\n      0xa0\n      dup2\n      add\n      calldataload\n      swap1\n      0xc0\n      dup2\n      add\n      calldataload\n      iszero\n      iszero\n      swap1\n      0xff\n      0xe0\n      dup3\n      add\n      calldataload\n      and\n      swap1\n      0x0100\n      dup2\n      add\n      calldataload\n      swap1\n      0x0120\n      add\n      calldataload\n      tag_57\n      jump\t// in\n    tag_55:\n      0x40\n      dup1\n      mload\n      swap3\n      dup4\n      mstore\n      0x20\n      dup4\n      add\n      swap2\n      swap1\n      swap2\n      mstore\n      dup1\n      mload\n      swap2\n      dup3\n      swap1\n      sub\n      add\n      swap1\n      return\n        /* \"CoreContracts/kalyswap-periphery/KalyswapRouter.sol\":6882:7562  function removeLiquidityKLCSupportingFeeOnTransferTokens(... */\n    tag_7:\n      callvalue\n        /* \"--CODEGEN--\":5:14   */\n      dup1\n        /* \"--CODEGEN--\":2:4   */\n      iszero\n      tag_58\n      jumpi\n        /* \"--CODEGEN--\":27:28   */\n      0x00\n        /* \"--CODEGEN--\":24:25   */\n      dup1\n        /* \"--CODEGEN--\":17:29   */\n      revert\n        /* \"--CODEGEN--\":2:4   */\n    tag_58:\n        /* \"CoreContracts/kalyswap-periphery/KalyswapRouter.sol\":6882:7562  function removeLiquidityKLCSupportingFeeOnTransferTokens(... */\n      pop\n      tag_38\n      0x04\n      dup1\n      calldatasize\n      sub\n        /* \"--CODEGEN--\":15:18   */\n      0xc0\n        /* \"--CODEGEN--\":10:13   */\n      dup2\n        /* \"--CODEGEN--\":7:19   */\n      lt\n        /* \"--CODEGEN--\":4:6   */\n      iszero\n      tag_60\n      jumpi\n        /* \"--CODEGEN--\":32:33   */\n      0x00\n        /* \"--CODEGEN--\":29:30   */\n      dup1\n        /* \"--CODEGEN--\":22:34   */\n      revert\n        /* \"--CODEGEN--\":4:6   */\n    tag_60:\n      pop\n      sub(shl(0xa0, 0x01), 0x01)\n        /* \"CoreContracts/kalyswap-periphery/KalyswapRouter.sol\":6882:7562  function removeLiquidityKLCSupportingFeeOnTransferTokens(... */\n      dup2\n      calldataload\n      dup2\n      and\n      swap2\n      0x20\n      dup2\n      add\n      calldataload\n      swap2\n      0x40\n      dup3\n      add\n      calldataload\n      swap2\n      0x60\n      dup2\n      add\n      calldataload\n      swap2\n      0x80\n      dup3\n      add\n      calldataload\n      and\n      swap1\n      0xa0\n      add\n      calldataload\n      tag_61\n      jump\t// in\n        /* \"CoreContracts/kalyswap-periphery/KalyswapRouter.sol\":18122:18366  function getAmountsIn(uint amountOut, address[] memory path)... */\n    tag_8:\n      callvalue\n        /* \"--CODEGEN--\":5:14   */\n      dup1\n        /* \"--CODEGEN--\":2:4   */\n      iszero\n      tag_62\n      jumpi\n        /* \"--CODEGEN--\":27:28   */\n      0x00\n        /* \"--CODEGEN--\":24:25   */\n      dup1\n        /* \"--CODEGEN--\":17:29   */\n      revert\n        /* \"--CODEGEN--\":2:4   */\n    tag_62:\n        /* \"CoreContracts/kalyswap-periphery/KalyswapRouter.sol\":18122:18366  function getAmountsIn(uint amountOut, address[] memory path)... */\n      pop\n      tag_42\n      0x04\n      dup1\n      calldatasize\n      sub\n        /* \"--CODEGEN--\":15:17   */\n      0x40\n        /* \"--CODEGEN--\":10:13   */\n      dup2\n        /* \"--CODEGEN--\":7:18   */\n      lt\n        /* \"--CODEGEN--\":4:6   */\n      iszero\n      tag_64\n      jumpi\n        /* \"--CODEGEN--\":31:32   */\n      0x00\n        /* \"--CODEGEN--\":28:29   */\n      dup1\n        /* \"--CODEGEN--\":21:33   */\n      revert\n        /* \"--CODEGEN--\":4:6   */\n    tag_64:\n        /* \"CoreContracts/kalyswap-periphery/KalyswapRouter.sol\":18122:18366  function getAmountsIn(uint amountOut, address[] memory path)... */\n      dup2\n      calldataload\n      swap2\n      swap1\n      dup2\n      add\n      swap1\n      0x40\n      dup2\n      add\n      0x20\n      dup3\n      add\n      calldataload\n        /* \"--CODEGEN--\":27:38   */\n      0x0100000000\n        /* \"--CODEGEN--\":11:39   */\n      dup2\n      gt\n        /* \"--CODEGEN--\":8:10   */\n      iszero\n      tag_65\n      jumpi\n        /* \"--CODEGEN--\":52:53   */\n      0x00\n        /* \"--CODEGEN--\":49:50   */\n      dup1\n        /* \"--CODEGEN--\":42:54   */\n      revert\n        /* \"--CODEGEN--\":8:10   */\n    tag_65:\n        /* \"CoreContracts/kalyswap-periphery/KalyswapRouter.sol\":18122:18366  function getAmountsIn(uint amountOut, address[] memory path)... */\n      dup3\n      add\n        /* \"--CODEGEN--\":41:50   */\n      dup4\n        /* \"--CODEGEN--\":34:38   */\n      0x20\n        /* \"--CODEGEN--\":18:32   */\n      dup3\n        /* \"--CODEGEN--\":14:39   */\n      add\n        /* \"--CODEGEN--\":11:51   */\n      gt\n        /* \"--CODEGEN--\":8:10   */\n      iszero\n      tag_66\n      jumpi\n        /* \"--CODEGEN--\":64:65   */\n      0x00\n        /* \"--CODEGEN--\":61:62   */\n      dup1\n        /* \"--CODEGEN--\":54:66   */\n      revert\n        /* \"--CODEGEN--\":8:10   */\n    tag_66:\n        /* \"CoreContracts/kalyswap-periphery/KalyswapRouter.sol\":18122:18366  function getAmountsIn(uint amountOut, address[] memory path)... */\n      dup1\n      calldataload\n      swap1\n      0x20\n      add\n      swap2\n        /* \"--CODEGEN--\":101:110   */\n      dup5\n        /* \"--CODEGEN--\":95:97   */\n      0x20\n        /* \"--CODEGEN--\":81:93   */\n      dup4\n        /* \"--CODEGEN--\":77:98   */\n      mul\n        /* \"--CODEGEN--\":67:75   */\n      dup5\n        /* \"--CODEGEN--\":63:99   */\n      add\n        /* \"--CODEGEN--\":60:111   */\n      gt\n        /* \"--CODEGEN--\":39:50   */\n      0x0100000000\n        /* \"--CODEGEN--\":25:37   */\n      dup4\n        /* \"--CODEGEN--\":22:51   */\n      gt\n        /* \"--CODEGEN--\":11:119   */\n      or\n        /* \"--CODEGEN--\":8:10   */\n      iszero\n      tag_67\n      jumpi\n        /* \"--CODEGEN--\":132:133   */\n      0x00\n        /* \"--CODEGEN--\":129:130   */\n      dup1\n        /* \"--CODEGEN--\":122:134   */\n      revert\n        /* \"--CODEGEN--\":8:10   */\n    tag_67:\n        /* \"CoreContracts/kalyswap-periphery/KalyswapRouter.sol\":18122:18366  function getAmountsIn(uint amountOut, address[] memory path)... */\n      swap2\n      swap1\n      dup1\n      dup1\n      0x20\n      mul\n      0x20\n      add\n      mload(0x40)\n      swap1\n      dup2\n      add\n      0x40\n      mstore\n      dup1\n      swap4\n      swap3\n      swap2\n      swap1\n      dup2\n      dup2\n      mstore\n      0x20\n      add\n      dup4\n      dup4\n      0x20\n      mul\n        /* \"--CODEGEN--\":30:33   */\n      dup1\n        /* \"--CODEGEN--\":22:28   */\n      dup3\n        /* \"--CODEGEN--\":14:20   */\n      dup5\n        /* \"--CODEGEN--\":1:34   */\n      calldatacopy\n        /* \"--CODEGEN--\":99:100   */\n      0x00\n        /* \"--CODEGEN--\":81:97   */\n      swap3\n      add\n        /* \"--CODEGEN--\":74:101   */\n      swap2\n      swap1\n      swap2\n      mstore\n      pop\n        /* \"CoreContracts/kalyswap-periphery/KalyswapRouter.sol\":18122:18366  function getAmountsIn(uint amountOut, address[] memory path)... */\n      swap3\n      swap6\n      pop\n      tag_68\n      swap5\n      pop\n      pop\n      pop\n      pop\n      pop\n      jump\t// in\n        /* \"CoreContracts/kalyswap-periphery/KalyswapRouter.sol\":5486:6147  function removeLiquidityWithPermit(... */\n    tag_9:\n      callvalue\n        /* \"--CODEGEN--\":5:14   */\n      dup1\n        /* \"--CODEGEN--\":2:4   */\n      iszero\n      tag_72\n      jumpi\n        /* \"--CODEGEN--\":27:28   */\n      0x00\n        /* \"--CODEGEN--\":24:25   */\n      dup1\n        /* \"--CODEGEN--\":17:29   */\n      revert\n        /* \"--CODEGEN--\":2:4   */\n    tag_72:\n        /* \"CoreContracts/kalyswap-periphery/KalyswapRouter.sol\":5486:6147  function removeLiquidityWithPermit(... */\n      pop\n      tag_55\n      0x04\n      dup1\n      calldatasize\n      sub\n        /* \"--CODEGEN--\":15:18   */\n      0x0160\n        /* \"--CODEGEN--\":10:13   */\n      dup2\n        /* \"--CODEGEN--\":7:19   */\n      lt\n        /* \"--CODEGEN--\":4:6   */\n      iszero\n      tag_74\n      jumpi\n        /* \"--CODEGEN--\":32:33   */\n      0x00\n        /* \"--CODEGEN--\":29:30   */\n      dup1\n        /* \"--CODEGEN--\":22:34   */\n      revert\n        /* \"--CODEGEN--\":4:6   */\n    tag_74:\n      pop\n      sub(shl(0xa0, 0x01), 0x01)\n        /* \"CoreContracts/kalyswap-periphery/KalyswapRouter.sol\":5486:6147  function removeLiquidityWithPermit(... */\n      dup2\n      calldataload\n      dup2\n      and\n      swap2\n      0x20\n      dup2\n      add\n      calldataload\n      dup3\n      and\n      swap2\n      0x40\n      dup3\n      add\n      calldataload\n      swap2\n      0x60\n      dup2\n      add\n      calldataload\n      swap2\n      0x80\n      dup3\n      add\n      calldataload\n      swap2\n      0xa0\n      dup2\n      add\n      calldataload\n      swap1\n      swap2\n      and\n      swap1\n      0xc0\n      dup2\n      add\n      calldataload\n      swap1\n      0xe0\n      dup2\n      add\n      calldataload\n      iszero\n      iszero\n      swap1\n      0xff\n      0x0100\n      dup3\n      add\n      calldataload\n      and\n      swap1\n      0x0120\n      dup2\n      add\n      calldataload\n      swap1\n      0x0140\n      add\n      calldataload\n      tag_75\n      jump\t// in\n        /* \"CoreContracts/kalyswap-periphery/KalyswapRouter.sol\":9100:9712  function swapExactTokensForTokens(... */\n    tag_10:\n      callvalue\n        /* \"--CODEGEN--\":5:14   */\n      dup1\n        /* \"--CODEGEN--\":2:4   */\n      iszero\n      tag_76\n      jumpi\n        /* \"--CODEGEN--\":27:28   */\n      0x00\n        /* \"--CODEGEN--\":24:25   */\n      dup1\n        /* \"--CODEGEN--\":17:29   */\n      revert\n        /* \"--CODEGEN--\":2:4   */\n    tag_76:\n        /* \"CoreContracts/kalyswap-periphery/KalyswapRouter.sol\":9100:9712  function swapExactTokensForTokens(... */\n      pop\n      tag_42\n      0x04\n      dup1\n      calldatasize\n      sub\n        /* \"--CODEGEN--\":15:18   */\n      0xa0\n        /* \"--CODEGEN--\":10:13   */\n      dup2\n        /* \"--CODEGEN--\":7:19   */\n      lt\n        /* \"--CODEGEN--\":4:6   */\n      iszero\n      tag_78\n      jumpi\n        /* \"--CODEGEN--\":32:33   */\n      0x00\n        /* \"--CODEGEN--\":29:30   */\n      dup1\n        /* \"--CODEGEN--\":22:34   */\n      revert\n        /* \"--CODEGEN--\":4:6   */\n    tag_78:\n        /* \"CoreContracts/kalyswap-periphery/KalyswapRouter.sol\":9100:9712  function swapExactTokensForTokens(... */\n      dup2\n      calldataload\n      swap2\n      0x20\n      dup2\n      add\n      calldataload\n      swap2\n      dup2\n      add\n      swap1\n      0x60\n      dup2\n      add\n      0x40\n      dup3\n      add\n      calldataload\n        /* \"--CODEGEN--\":27:38   */\n      0x0100000000\n        /* \"--CODEGEN--\":11:39   */\n      dup2\n      gt\n        /* \"--CODEGEN--\":8:10   */\n      iszero\n      tag_79\n      jumpi\n        /* \"--CODEGEN--\":52:53   */\n      0x00\n        /* \"--CODEGEN--\":49:50   */\n      dup1\n        /* \"--CODEGEN--\":42:54   */\n      revert\n        /* \"--CODEGEN--\":8:10   */\n    tag_79:\n        /* \"CoreContracts/kalyswap-periphery/KalyswapRouter.sol\":9100:9712  function swapExactTokensForTokens(... */\n      dup3\n      add\n        /* \"--CODEGEN--\":41:50   */\n      dup4\n        /* \"--CODEGEN--\":34:38   */\n      0x20\n        /* \"--CODEGEN--\":18:32   */\n      dup3\n        /* \"--CODEGEN--\":14:39   */\n      add\n        /* \"--CODEGEN--\":11:51   */\n      gt\n        /* \"--CODEGEN--\":8:10   */\n      iszero\n      tag_80\n      jumpi\n        /* \"--CODEGEN--\":64:65   */\n      0x00\n        /* \"--CODEGEN--\":61:62   */\n      dup1\n        /* \"--CODEGEN--\":54:66   */\n      revert\n        /* \"--CODEGEN--\":8:10   */\n    tag_80:\n        /* \"CoreContracts/kalyswap-periphery/KalyswapRouter.sol\":9100:9712  function swapExactTokensForTokens(... */\n      dup1\n      calldataload\n      swap1\n      0x20\n      add\n      swap2\n        /* \"--CODEGEN--\":101:110   */\n      dup5\n        /* \"--CODEGEN--\":95:97   */\n      0x20\n        /* \"--CODEGEN--\":81:93   */\n      dup4\n        /* \"--CODEGEN--\":77:98   */\n      mul\n        /* \"--CODEGEN--\":67:75   */\n      dup5\n        /* \"--CODEGEN--\":63:99   */\n      add\n        /* \"--CODEGEN--\":60:111   */\n      gt\n        /* \"--CODEGEN--\":39:50   */\n      0x0100000000\n        /* \"--CODEGEN--\":25:37   */\n      dup4\n        /* \"--CODEGEN--\":22:51   */\n      gt\n        /* \"--CODEGEN--\":11:119   */\n      or\n        /* \"--CODEGEN--\":8:10   */\n      iszero\n      tag_81\n      jumpi\n        /* \"--CODEGEN--\":132:133   */\n      0x00\n        /* \"--CODEGEN--\":129:130   */\n      dup1\n        /* \"--CODEGEN--\":122:134   */\n      revert\n        /* \"--CODEGEN--\":8:10   */\n    tag_81:\n        /* \"CoreContracts/kalyswap-periphery/KalyswapRouter.sol\":9100:9712  function swapExactTokensForTokens(... */\n      swap2\n      swap4\n      pop\n      swap2\n      pop\n      sub(shl(0xa0, 0x01), 0x01)\n      dup2\n      calldataload\n      and\n      swap1\n      0x20\n      add\n      calldataload\n      tag_82\n      jump\t// in\n        /* \"CoreContracts/kalyswap-periphery/KalyswapRouter.sol\":14773:15469  function swapExactTokensForTokensSupportingFeeOnTransferTokens(... */\n    tag_11:\n      callvalue\n        /* \"--CODEGEN--\":5:14   */\n      dup1\n        /* \"--CODEGEN--\":2:4   */\n      iszero\n      tag_86\n      jumpi\n        /* \"--CODEGEN--\":27:28   */\n      0x00\n        /* \"--CODEGEN--\":24:25   */\n      dup1\n        /* \"--CODEGEN--\":17:29   */\n      revert\n        /* \"--CODEGEN--\":2:4   */\n    tag_86:\n        /* \"CoreContracts/kalyswap-periphery/KalyswapRouter.sol\":14773:15469  function swapExactTokensForTokensSupportingFeeOnTransferTokens(... */\n      pop\n      tag_36\n      0x04\n      dup1\n      calldatasize\n      sub\n        /* \"--CODEGEN--\":15:18   */\n      0xa0\n        /* \"--CODEGEN--\":10:13   */\n      dup2\n        /* \"--CODEGEN--\":7:19   */\n      lt\n        /* \"--CODEGEN--\":4:6   */\n      iszero\n      tag_88\n      jumpi\n        /* \"--CODEGEN--\":32:33   */\n      0x00\n        /* \"--CODEGEN--\":29:30   */\n      dup1\n        /* \"--CODEGEN--\":22:34   */\n      revert\n        /* \"--CODEGEN--\":4:6   */\n    tag_88:\n        /* \"CoreContracts/kalyswap-periphery/KalyswapRouter.sol\":14773:15469  function swapExactTokensForTokensSupportingFeeOnTransferTokens(... */\n      dup2\n      calldataload\n      swap2\n      0x20\n      dup2\n      add\n      calldataload\n      swap2\n      dup2\n      add\n      swap1\n      0x60\n      dup2\n      add\n      0x40\n      dup3\n      add\n      calldataload\n        /* \"--CODEGEN--\":27:38   */\n      0x0100000000\n        /* \"--CODEGEN--\":11:39   */\n      dup2\n      gt\n        /* \"--CODEGEN--\":8:10   */\n      iszero\n      tag_89\n      jumpi\n        /* \"--CODEGEN--\":52:53   */\n      0x00\n        /* \"--CODEGEN--\":49:50   */\n      dup1\n        /* \"--CODEGEN--\":42:54   */\n      revert\n        /* \"--CODEGEN--\":8:10   */\n    tag_89:\n        /* \"CoreContracts/kalyswap-periphery/KalyswapRouter.sol\":14773:15469  function swapExactTokensForTokensSupportingFeeOnTransferTokens(... */\n      dup3\n      add\n        /* \"--CODEGEN--\":41:50   */\n      dup4\n        /* \"--CODEGEN--\":34:38   */\n      0x20\n        /* \"--CODEGEN--\":18:32   */\n      dup3\n        /* \"--CODEGEN--\":14:39   */\n      add\n        /* \"--CODEGEN--\":11:51   */\n      gt\n        /* \"--CODEGEN--\":8:10   */\n      iszero\n      tag_90\n      jumpi\n        /* \"--CODEGEN--\":64:65   */\n      0x00\n        /* \"--CODEGEN--\":61:62   */\n      dup1\n        /* \"--CODEGEN--\":54:66   */\n      revert\n        /* \"--CODEGEN--\":8:10   */\n    tag_90:\n        /* \"CoreContracts/kalyswap-periphery/KalyswapRouter.sol\":14773:15469  function swapExactTokensForTokensSupportingFeeOnTransferTokens(... */\n      dup1\n      calldataload\n      swap1\n      0x20\n      add\n      swap2\n        /* \"--CODEGEN--\":101:110   */\n      dup5\n        /* \"--CODEGEN--\":95:97   */\n      0x20\n        /* \"--CODEGEN--\":81:93   */\n      dup4\n        /* \"--CODEGEN--\":77:98   */\n      mul\n        /* \"--CODEGEN--\":67:75   */\n      dup5\n        /* \"--CODEGEN--\":63:99   */\n      add\n        /* \"--CODEGEN--\":60:111   */\n      gt\n        /* \"--CODEGEN--\":39:50   */\n      0x0100000000\n        /* \"--CODEGEN--\":25:37   */\n      dup4\n        /* \"--CODEGEN--\":22:51   */\n      gt\n        /* \"--CODEGEN--\":11:119   */\n      or\n        /* \"--CODEGEN--\":8:10   */\n      iszero\n      tag_91\n      jumpi\n        /* \"--CODEGEN--\":132:133   */\n      0x00\n        /* \"--CODEGEN--\":129:130   */\n      dup1\n        /* \"--CODEGEN--\":122:134   */\n      revert\n        /* \"--CODEGEN--\":8:10   */\n    tag_91:\n        /* \"CoreContracts/kalyswap-periphery/KalyswapRouter.sol\":14773:15469  function swapExactTokensForTokensSupportingFeeOnTransferTokens(... */\n      swap2\n      swap4\n      pop\n      swap2\n      pop\n      sub(shl(0xa0, 0x01), 0x01)\n      dup2\n      calldataload\n      and\n      swap1\n      0x20\n      add\n      calldataload\n      tag_92\n      jump\t// in\n        /* \"CoreContracts/kalyswap-periphery/KalyswapRouter.sol\":2991:3940  function addLiquidityKLC(... */\n    tag_12:\n      tag_93\n      0x04\n      dup1\n      calldatasize\n      sub\n        /* \"--CODEGEN--\":15:18   */\n      0xc0\n        /* \"--CODEGEN--\":10:13   */\n      dup2\n        /* \"--CODEGEN--\":7:19   */\n      lt\n        /* \"--CODEGEN--\":4:6   */\n      iszero\n      tag_94\n      jumpi\n        /* \"--CODEGEN--\":32:33   */\n      0x00\n        /* \"--CODEGEN--\":29:30   */\n      dup1\n        /* \"--CODEGEN--\":22:34   */\n      revert\n        /* \"--CODEGEN--\":4:6   */\n    tag_94:\n      pop\n      sub(shl(0xa0, 0x01), 0x01)\n        /* \"CoreContracts/kalyswap-periphery/KalyswapRouter.sol\":2991:3940  function addLiquidityKLC(... */\n      dup2\n      calldataload\n      dup2\n      and\n      swap2\n      0x20\n      dup2\n      add\n      calldataload\n      swap2\n      0x40\n      dup3\n      add\n      calldataload\n      swap2\n      0x60\n      dup2\n      add\n      calldataload\n      swap2\n      0x80\n      dup3\n      add\n      calldataload\n      and\n      swap1\n      0xa0\n      add\n      calldataload\n      tag_95\n      jump\t// in\n    tag_93:\n      0x40\n      dup1\n      mload\n      swap4\n      dup5\n      mstore\n      0x20\n      dup5\n      add\n      swap3\n      swap1\n      swap3\n      mstore\n      dup3\n      dup3\n      add\n      mstore\n      mload\n      swap1\n      dup2\n      swap1\n      sub\n      0x60\n      add\n      swap1\n      return\n        /* \"CoreContracts/kalyswap-periphery/KalyswapRouter.sol\":17614:17866  function getAmountIn(uint amountOut, uint reserveIn, uint reserveOut)... */\n    tag_13:\n      callvalue\n        /* \"--CODEGEN--\":5:14   */\n      dup1\n        /* \"--CODEGEN--\":2:4   */\n      iszero\n      tag_96\n      jumpi\n        /* \"--CODEGEN--\":27:28   */\n      0x00\n        /* \"--CODEGEN--\":24:25   */\n      dup1\n        /* \"--CODEGEN--\":17:29   */\n      revert\n        /* \"--CODEGEN--\":2:4   */\n    tag_96:\n        /* \"CoreContracts/kalyswap-periphery/KalyswapRouter.sol\":17614:17866  function getAmountIn(uint amountOut, uint reserveIn, uint reserveOut)... */\n      pop\n      tag_38\n      0x04\n      dup1\n      calldatasize\n      sub\n        /* \"--CODEGEN--\":15:17   */\n      0x60\n        /* \"--CODEGEN--\":10:13   */\n      dup2\n        /* \"--CODEGEN--\":7:18   */\n      lt\n        /* \"--CODEGEN--\":4:6   */\n      iszero\n      tag_98\n      jumpi\n        /* \"--CODEGEN--\":31:32   */\n      0x00\n        /* \"--CODEGEN--\":28:29   */\n      dup1\n        /* \"--CODEGEN--\":21:33   */\n      revert\n        /* \"--CODEGEN--\":4:6   */\n    tag_98:\n      pop\n        /* \"CoreContracts/kalyswap-periphery/KalyswapRouter.sol\":17614:17866  function getAmountIn(uint amountOut, uint reserveIn, uint reserveOut)... */\n      dup1\n      calldataload\n      swap1\n      0x20\n      dup2\n      add\n      calldataload\n      swap1\n      0x40\n      add\n      calldataload\n      tag_99\n      jump\t// in\n        /* \"CoreContracts/kalyswap-periphery/KalyswapRouter.sol\":9717:10307  function swapTokensForExactTokens(... */\n    tag_14:\n      callvalue\n        /* \"--CODEGEN--\":5:14   */\n      dup1\n        /* \"--CODEGEN--\":2:4   */\n      iszero\n      tag_100\n      jumpi\n        /* \"--CODEGEN--\":27:28   */\n      0x00\n        /* \"--CODEGEN--\":24:25   */\n      dup1\n        /* \"--CODEGEN--\":17:29   */\n      revert\n        /* \"--CODEGEN--\":2:4   */\n    tag_100:\n        /* \"CoreContracts/kalyswap-periphery/KalyswapRouter.sol\":9717:10307  function swapTokensForExactTokens(... */\n      pop\n      tag_42\n      0x04\n      dup1\n      calldatasize\n      sub\n        /* \"--CODEGEN--\":15:18   */\n      0xa0\n        /* \"--CODEGEN--\":10:13   */\n      dup2\n        /* \"--CODEGEN--\":7:19   */\n      lt\n        /* \"--CODEGEN--\":4:6   */\n      iszero\n      tag_102\n      jumpi\n        /* \"--CODEGEN--\":32:33   */\n      0x00\n        /* \"--CODEGEN--\":29:30   */\n      dup1\n        /* \"--CODEGEN--\":22:34   */\n      revert\n        /* \"--CODEGEN--\":4:6   */\n    tag_102:\n        /* \"CoreContracts/kalyswap-periphery/KalyswapRouter.sol\":9717:10307  function swapTokensForExactTokens(... */\n      dup2\n      calldataload\n      swap2\n      0x20\n      dup2\n      add\n      calldataload\n      swap2\n      dup2\n      add\n      swap1\n      0x60\n      dup2\n      add\n      0x40\n      dup3\n      add\n      calldataload\n        /* \"--CODEGEN--\":27:38   */\n      0x0100000000\n        /* \"--CODEGEN--\":11:39   */\n      dup2\n      gt\n        /* \"--CODEGEN--\":8:10   */\n      iszero\n      tag_103\n      jumpi\n        /* \"--CODEGEN--\":52:53   */\n      0x00\n        /* \"--CODEGEN--\":49:50   */\n      dup1\n        /* \"--CODEGEN--\":42:54   */\n      revert\n        /* \"--CODEGEN--\":8:10   */\n    tag_103:\n        /* \"CoreContracts/kalyswap-periphery/KalyswapRouter.sol\":9717:10307  function swapTokensForExactTokens(... */\n      dup3\n      add\n        /* \"--CODEGEN--\":41:50   */\n      dup4\n        /* \"--CODEGEN--\":34:38   */\n      0x20\n        /* \"--CODEGEN--\":18:32   */\n      dup3\n        /* \"--CODEGEN--\":14:39   */\n      add\n        /* \"--CODEGEN--\":11:51   */\n      gt\n        /* \"--CODEGEN--\":8:10   */\n      iszero\n      tag_104\n      jumpi\n        /* \"--CODEGEN--\":64:65   */\n      0x00\n        /* \"--CODEGEN--\":61:62   */\n      dup1\n        /* \"--CODEGEN--\":54:66   */\n      revert\n        /* \"--CODEGEN--\":8:10   */\n    tag_104:\n        /* \"CoreContracts/kalyswap-periphery/KalyswapRouter.sol\":9717:10307  function swapTokensForExactTokens(... */\n      dup1\n      calldataload\n      swap1\n      0x20\n      add\n      swap2\n        /* \"--CODEGEN--\":101:110   */\n      dup5\n        /* \"--CODEGEN--\":95:97   */\n      0x20\n        /* \"--CODEGEN--\":81:93   */\n      dup4\n        /* \"--CODEGEN--\":77:98   */\n      mul\n        /* \"--CODEGEN--\":67:75   */\n      dup5\n        /* \"--CODEGEN--\":63:99   */\n      add\n        /* \"--CODEGEN--\":60:111   */\n      gt\n        /* \"--CODEGEN--\":39:50   */\n      0x0100000000\n        /* \"--CODEGEN--\":25:37   */\n      dup4\n        /* \"--CODEGEN--\":22:51   */\n      gt\n        /* \"--CODEGEN--\":11:119   */\n      or\n        /* \"--CODEGEN--\":8:10   */\n      iszero\n      tag_105\n      jumpi\n        /* \"--CODEGEN--\":132:133   */\n      0x00\n        /* \"--CODEGEN--\":129:130   */\n      dup1\n        /* \"--CODEGEN--\":122:134   */\n      revert\n        /* \"--CODEGEN--\":8:10   */\n    tag_105:\n        /* \"CoreContracts/kalyswap-periphery/KalyswapRouter.sol\":9717:10307  function swapTokensForExactTokens(... */\n      swap2\n      swap4\n      pop\n      swap2\n      pop\n      sub(shl(0xa0, 0x01), 0x01)\n      dup2\n      calldataload\n      and\n      swap1\n      0x20\n      add\n      calldataload\n      tag_106\n      jump\t// in\n        /* \"CoreContracts/kalyswap-periphery/KalyswapRouter.sol\":4828:5481  function removeLiquidityKLC(... */\n    tag_15:\n      callvalue\n        /* \"--CODEGEN--\":5:14   */\n      dup1\n        /* \"--CODEGEN--\":2:4   */\n      iszero\n      tag_110\n      jumpi\n        /* \"--CODEGEN--\":27:28   */\n      0x00\n        /* \"--CODEGEN--\":24:25   */\n      dup1\n        /* \"--CODEGEN--\":17:29   */\n      revert\n        /* \"--CODEGEN--\":2:4   */\n    tag_110:\n        /* \"CoreContracts/kalyswap-periphery/KalyswapRouter.sol\":4828:5481  function removeLiquidityKLC(... */\n      pop\n      tag_55\n      0x04\n      dup1\n      calldatasize\n      sub\n        /* \"--CODEGEN--\":15:18   */\n      0xc0\n        /* \"--CODEGEN--\":10:13   */\n      dup2\n        /* \"--CODEGEN--\":7:19   */\n      lt\n        /* \"--CODEGEN--\":4:6   */\n      iszero\n      tag_112\n      jumpi\n        /* \"--CODEGEN--\":32:33   */\n      0x00\n        /* \"--CODEGEN--\":29:30   */\n      dup1\n        /* \"--CODEGEN--\":22:34   */\n      revert\n        /* \"--CODEGEN--\":4:6   */\n    tag_112:\n      pop\n      sub(shl(0xa0, 0x01), 0x01)\n        /* \"CoreContracts/kalyswap-periphery/KalyswapRouter.sol\":4828:5481  function removeLiquidityKLC(... */\n      dup2\n      calldataload\n      dup2\n      and\n      swap2\n      0x20\n      dup2\n      add\n      calldataload\n      swap2\n      0x40\n      dup3\n      add\n      calldataload\n      swap2\n      0x60\n      dup2\n      add\n      calldataload\n      swap2\n      0x80\n      dup3\n      add\n      calldataload\n      and\n      swap1\n      0xa0\n      add\n      calldataload\n      tag_113\n      jump\t// in\n        /* \"CoreContracts/kalyswap-periphery/KalyswapRouter.sol\":17164:17349  function quote(uint amountA, uint reserveA, uint reserveB) public pure virtual override returns (uint amountB) {... */\n    tag_16:\n      callvalue\n        /* \"--CODEGEN--\":5:14   */\n      dup1\n        /* \"--CODEGEN--\":2:4   */\n      iszero\n      tag_114\n      jumpi\n        /* \"--CODEGEN--\":27:28   */\n      0x00\n        /* \"--CODEGEN--\":24:25   */\n      dup1\n        /* \"--CODEGEN--\":17:29   */\n      revert\n        /* \"--CODEGEN--\":2:4   */\n    tag_114:\n        /* \"CoreContracts/kalyswap-periphery/KalyswapRouter.sol\":17164:17349  function quote(uint amountA, uint reserveA, uint reserveB) public pure virtual override returns (uint amountB) {... */\n      pop\n      tag_38\n      0x04\n      dup1\n      calldatasize\n      sub\n        /* \"--CODEGEN--\":15:17   */\n      0x60\n        /* \"--CODEGEN--\":10:13   */\n      dup2\n        /* \"--CODEGEN--\":7:18   */\n      lt\n        /* \"--CODEGEN--\":4:6   */\n      iszero\n      tag_116\n      jumpi\n        /* \"--CODEGEN--\":31:32   */\n      0x00\n        /* \"--CODEGEN--\":28:29   */\n      dup1\n        /* \"--CODEGEN--\":21:33   */\n      revert\n        /* \"--CODEGEN--\":4:6   */\n    tag_116:\n      pop\n        /* \"CoreContracts/kalyswap-periphery/KalyswapRouter.sol\":17164:17349  function quote(uint amountA, uint reserveA, uint reserveB) public pure virtual override returns (uint amountB) {... */\n      dup1\n      calldataload\n      swap1\n      0x20\n      dup2\n      add\n      calldataload\n      swap1\n      0x40\n      add\n      calldataload\n      tag_117\n      jump\t// in\n        /* \"CoreContracts/kalyswap-periphery/KalyswapRouter.sol\":12644:13434  function swapKLCForExactTokens(uint amountOut, address[] calldata path, address to, uint deadline)... */\n    tag_17:\n      tag_42\n      0x04\n      dup1\n      calldatasize\n      sub\n        /* \"--CODEGEN--\":15:18   */\n      0x80\n        /* \"--CODEGEN--\":10:13   */\n      dup2\n        /* \"--CODEGEN--\":7:19   */\n      lt\n        /* \"--CODEGEN--\":4:6   */\n      iszero\n      tag_119\n      jumpi\n        /* \"--CODEGEN--\":32:33   */\n      0x00\n        /* \"--CODEGEN--\":29:30   */\n      dup1\n        /* \"--CODEGEN--\":22:34   */\n      revert\n        /* \"--CODEGEN--\":4:6   */\n    tag_119:\n        /* \"CoreContracts/kalyswap-periphery/KalyswapRouter.sol\":12644:13434  function swapKLCForExactTokens(uint amountOut, address[] calldata path, address to, uint deadline)... */\n      dup2\n      calldataload\n      swap2\n      swap1\n      dup2\n      add\n      swap1\n      0x40\n      dup2\n      add\n      0x20\n      dup3\n      add\n      calldataload\n        /* \"--CODEGEN--\":27:38   */\n      0x0100000000\n        /* \"--CODEGEN--\":11:39   */\n      dup2\n      gt\n        /* \"--CODEGEN--\":8:10   */\n      iszero\n      tag_120\n      jumpi\n        /* \"--CODEGEN--\":52:53   */\n      0x00\n        /* \"--CODEGEN--\":49:50   */\n      dup1\n        /* \"--CODEGEN--\":42:54   */\n      revert\n        /* \"--CODEGEN--\":8:10   */\n    tag_120:\n        /* \"CoreContracts/kalyswap-periphery/KalyswapRouter.sol\":12644:13434  function swapKLCForExactTokens(uint amountOut, address[] calldata path, address to, uint deadline)... */\n      dup3\n      add\n        /* \"--CODEGEN--\":41:50   */\n      dup4\n        /* \"--CODEGEN--\":34:38   */\n      0x20\n        /* \"--CODEGEN--\":18:32   */\n      dup3\n        /* \"--CODEGEN--\":14:39   */\n      add\n        /* \"--CODEGEN--\":11:51   */\n      gt\n        /* \"--CODEGEN--\":8:10   */\n      iszero\n      tag_121\n      jumpi\n        /* \"--CODEGEN--\":64:65   */\n      0x00\n        /* \"--CODEGEN--\":61:62   */\n      dup1\n        /* \"--CODEGEN--\":54:66   */\n      revert\n        /* \"--CODEGEN--\":8:10   */\n    tag_121:\n        /* \"CoreContracts/kalyswap-periphery/KalyswapRouter.sol\":12644:13434  function swapKLCForExactTokens(uint amountOut, address[] calldata path, address to, uint deadline)... */\n      dup1\n      calldataload\n      swap1\n      0x20\n      add\n      swap2\n        /* \"--CODEGEN--\":101:110   */\n      dup5\n        /* \"--CODEGEN--\":95:97   */\n      0x20\n        /* \"--CODEGEN--\":81:93   */\n      dup4\n        /* \"--CODEGEN--\":77:98   */\n      mul\n        /* \"--CODEGEN--\":67:75   */\n      dup5\n        /* \"--CODEGEN--\":63:99   */\n      add\n        /* \"--CODEGEN--\":60:111   */\n      gt\n        /* \"--CODEGEN--\":39:50   */\n      0x0100000000\n        /* \"--CODEGEN--\":25:37   */\n      dup4\n        /* \"--CODEGEN--\":22:51   */\n      gt\n        /* \"--CODEGEN--\":11:119   */\n      or\n        /* \"--CODEGEN--\":8:10   */\n      iszero\n      tag_122\n      jumpi\n        /* \"--CODEGEN--\":132:133   */\n      0x00\n        /* \"--CODEGEN--\":129:130   */\n      dup1\n        /* \"--CODEGEN--\":122:134   */\n      revert\n        /* \"--CODEGEN--\":8:10   */\n    tag_122:\n        /* \"CoreContracts/kalyswap-periphery/KalyswapRouter.sol\":12644:13434  function swapKLCForExactTokens(uint amountOut, address[] calldata path, address to, uint deadline)... */\n      swap2\n      swap4\n      pop\n      swap2\n      pop\n      sub(shl(0xa0, 0x01), 0x01)\n      dup2\n      calldataload\n      and\n      swap1\n      0x20\n      add\n      calldataload\n      tag_123\n      jump\t// in\n        /* \"CoreContracts/kalyswap-periphery/KalyswapRouter.sol\":10312:10991  function swapExactKLCForTokens(uint amountOutMin, address[] calldata path, address to, uint deadline)... */\n    tag_18:\n      tag_42\n      0x04\n      dup1\n      calldatasize\n      sub\n        /* \"--CODEGEN--\":15:18   */\n      0x80\n        /* \"--CODEGEN--\":10:13   */\n      dup2\n        /* \"--CODEGEN--\":7:19   */\n      lt\n        /* \"--CODEGEN--\":4:6   */\n      iszero\n      tag_128\n      jumpi\n        /* \"--CODEGEN--\":32:33   */\n      0x00\n        /* \"--CODEGEN--\":29:30   */\n      dup1\n        /* \"--CODEGEN--\":22:34   */\n      revert\n        /* \"--CODEGEN--\":4:6   */\n    tag_128:\n        /* \"CoreContracts/kalyswap-periphery/KalyswapRouter.sol\":10312:10991  function swapExactKLCForTokens(uint amountOutMin, address[] calldata path, address to, uint deadline)... */\n      dup2\n      calldataload\n      swap2\n      swap1\n      dup2\n      add\n      swap1\n      0x40\n      dup2\n      add\n      0x20\n      dup3\n      add\n      calldataload\n        /* \"--CODEGEN--\":27:38   */\n      0x0100000000\n        /* \"--CODEGEN--\":11:39   */\n      dup2\n      gt\n        /* \"--CODEGEN--\":8:10   */\n      iszero\n      tag_129\n      jumpi\n        /* \"--CODEGEN--\":52:53   */\n      0x00\n        /* \"--CODEGEN--\":49:50   */\n      dup1\n        /* \"--CODEGEN--\":42:54   */\n      revert\n        /* \"--CODEGEN--\":8:10   */\n    tag_129:\n        /* \"CoreContracts/kalyswap-periphery/KalyswapRouter.sol\":10312:10991  function swapExactKLCForTokens(uint amountOutMin, address[] calldata path, address to, uint deadline)... */\n      dup3\n      add\n        /* \"--CODEGEN--\":41:50   */\n      dup4\n        /* \"--CODEGEN--\":34:38   */\n      0x20\n        /* \"--CODEGEN--\":18:32   */\n      dup3\n        /* \"--CODEGEN--\":14:39   */\n      add\n        /* \"--CODEGEN--\":11:51   */\n      gt\n        /* \"--CODEGEN--\":8:10   */\n      iszero\n      tag_130\n      jumpi\n        /* \"--CODEGEN--\":64:65   */\n      0x00\n        /* \"--CODEGEN--\":61:62   */\n      dup1\n        /* \"--CODEGEN--\":54:66   */\n      revert\n        /* \"--CODEGEN--\":8:10   */\n    tag_130:\n        /* \"CoreContracts/kalyswap-periphery/KalyswapRouter.sol\":10312:10991  function swapExactKLCForTokens(uint amountOutMin, address[] calldata path, address to, uint deadline)... */\n      dup1\n      calldataload\n      swap1\n      0x20\n      add\n      swap2\n        /* \"--CODEGEN--\":101:110   */\n      dup5\n        /* \"--CODEGEN--\":95:97   */\n      0x20\n        /* \"--CODEGEN--\":81:93   */\n      dup4\n        /* \"--CODEGEN--\":77:98   */\n      mul\n        /* \"--CODEGEN--\":67:75   */\n      dup5\n        /* \"--CODEGEN--\":63:99   */\n      add\n        /* \"--CODEGEN--\":60:111   */\n      gt\n        /* \"--CODEGEN--\":39:50   */\n      0x0100000000\n        /* \"--CODEGEN--\":25:37   */\n      dup4\n        /* \"--CODEGEN--\":22:51   */\n      gt\n        /* \"--CODEGEN--\":11:119   */\n      or\n        /* \"--CODEGEN--\":8:10   */\n      iszero\n      tag_131\n      jumpi\n        /* \"--CODEGEN--\":132:133   */\n      0x00\n        /* \"--CODEGEN--\":129:130   */\n      dup1\n        /* \"--CODEGEN--\":122:134   */\n      revert\n        /* \"--CODEGEN--\":8:10   */\n    tag_131:\n        /* \"CoreContracts/kalyswap-periphery/KalyswapRouter.sol\":10312:10991  function swapExactKLCForTokens(uint amountOutMin, address[] calldata path, address to, uint deadline)... */\n      swap2\n      swap4\n      pop\n      swap2\n      pop\n      sub(shl(0xa0, 0x01), 0x01)\n      dup2\n      calldataload\n      and\n      swap1\n      0x20\n      add\n      calldataload\n      tag_132\n      jump\t// in\n        /* \"CoreContracts/kalyswap-periphery/KalyswapRouter.sol\":16304:17123  function swapExactTokensForKLCSupportingFeeOnTransferTokens(... */\n    tag_19:\n      callvalue\n        /* \"--CODEGEN--\":5:14   */\n      dup1\n        /* \"--CODEGEN--\":2:4   */\n      iszero\n      tag_136\n      jumpi\n        /* \"--CODEGEN--\":27:28   */\n      0x00\n        /* \"--CODEGEN--\":24:25   */\n      dup1\n        /* \"--CODEGEN--\":17:29   */\n      revert\n        /* \"--CODEGEN--\":2:4   */\n    tag_136:\n        /* \"CoreContracts/kalyswap-periphery/KalyswapRouter.sol\":16304:17123  function swapExactTokensForKLCSupportingFeeOnTransferTokens(... */\n      pop\n      tag_36\n      0x04\n      dup1\n      calldatasize\n      sub\n        /* \"--CODEGEN--\":15:18   */\n      0xa0\n        /* \"--CODEGEN--\":10:13   */\n      dup2\n        /* \"--CODEGEN--\":7:19   */\n      lt\n        /* \"--CODEGEN--\":4:6   */\n      iszero\n      tag_138\n      jumpi\n        /* \"--CODEGEN--\":32:33   */\n      0x00\n        /* \"--CODEGEN--\":29:30   */\n      dup1\n        /* \"--CODEGEN--\":22:34   */\n      revert\n        /* \"--CODEGEN--\":4:6   */\n    tag_138:\n        /* \"CoreContracts/kalyswap-periphery/KalyswapRouter.sol\":16304:17123  function swapExactTokensForKLCSupportingFeeOnTransferTokens(... */\n      dup2\n      calldataload\n      swap2\n      0x20\n      dup2\n      add\n      calldataload\n      swap2\n      dup2\n      add\n      swap1\n      0x60\n      dup2\n      add\n      0x40\n      dup3\n      add\n      calldataload\n        /* \"--CODEGEN--\":27:38   */\n      0x0100000000\n        /* \"--CODEGEN--\":11:39   */\n      dup2\n      gt\n        /* \"--CODEGEN--\":8:10   */\n      iszero\n      tag_139\n      jumpi\n        /* \"--CODEGEN--\":52:53   */\n      0x00\n        /* \"--CODEGEN--\":49:50   */\n      dup1\n        /* \"--CODEGEN--\":42:54   */\n      revert\n        /* \"--CODEGEN--\":8:10   */\n    tag_139:\n        /* \"CoreContracts/kalyswap-periphery/KalyswapRouter.sol\":16304:17123  function swapExactTokensForKLCSupportingFeeOnTransferTokens(... */\n      dup3\n      add\n        /* \"--CODEGEN--\":41:50   */\n      dup4\n        /* \"--CODEGEN--\":34:38   */\n      0x20\n        /* \"--CODEGEN--\":18:32   */\n      dup3\n        /* \"--CODEGEN--\":14:39   */\n      add\n        /* \"--CODEGEN--\":11:51   */\n      gt\n        /* \"--CODEGEN--\":8:10   */\n      iszero\n      tag_140\n      jumpi\n        /* \"--CODEGEN--\":64:65   */\n      0x00\n        /* \"--CODEGEN--\":61:62   */\n      dup1\n        /* \"--CODEGEN--\":54:66   */\n      revert\n        /* \"--CODEGEN--\":8:10   */\n    tag_140:\n        /* \"CoreContracts/kalyswap-periphery/KalyswapRouter.sol\":16304:17123  function swapExactTokensForKLCSupportingFeeOnTransferTokens(... */\n      dup1\n      calldataload\n      swap1\n      0x20\n      add\n      swap2\n        /* \"--CODEGEN--\":101:110   */\n      dup5\n        /* \"--CODEGEN--\":95:97   */\n      0x20\n        /* \"--CODEGEN--\":81:93   */\n      dup4\n        /* \"--CODEGEN--\":77:98   */\n      mul\n        /* \"--CODEGEN--\":67:75   */\n      dup5\n        /* \"--CODEGEN--\":63:99   */\n      add\n        /* \"--CODEGEN--\":60:111   */\n      gt\n        /* \"--CODEGEN--\":39:50   */\n      0x0100000000\n        /* \"--CODEGEN--\":25:37   */\n      dup4\n        /* \"--CODEGEN--\":22:51   */\n      gt\n        /* \"--CODEGEN--\":11:119   */\n      or\n        /* \"--CODEGEN--\":8:10   */\n      iszero\n      tag_141\n      jumpi\n        /* \"--CODEGEN--\":132:133   */\n      0x00\n        /* \"--CODEGEN--\":129:130   */\n      dup1\n        /* \"--CODEGEN--\":122:134   */\n      revert\n        /* \"--CODEGEN--\":8:10   */\n    tag_141:\n        /* \"CoreContracts/kalyswap-periphery/KalyswapRouter.sol\":16304:17123  function swapExactTokensForKLCSupportingFeeOnTransferTokens(... */\n      swap2\n      swap4\n      pop\n      swap2\n      pop\n      sub(shl(0xa0, 0x01), 0x01)\n      dup2\n      calldataload\n      and\n      swap1\n      0x20\n      add\n      calldataload\n      tag_142\n      jump\t// in\n        /* \"CoreContracts/kalyswap-periphery/KalyswapRouter.sol\":15474:16299  function swapExactKLCForTokensSupportingFeeOnTransferTokens(... */\n    tag_20:\n      tag_36\n      0x04\n      dup1\n      calldatasize\n      sub\n        /* \"--CODEGEN--\":15:18   */\n      0x80\n        /* \"--CODEGEN--\":10:13   */\n      dup2\n        /* \"--CODEGEN--\":7:19   */\n      lt\n        /* \"--CODEGEN--\":4:6   */\n      iszero\n      tag_144\n      jumpi\n        /* \"--CODEGEN--\":32:33   */\n      0x00\n        /* \"--CODEGEN--\":29:30   */\n      dup1\n        /* \"--CODEGEN--\":22:34   */\n      revert\n        /* \"--CODEGEN--\":4:6   */\n    tag_144:\n        /* \"CoreContracts/kalyswap-periphery/KalyswapRouter.sol\":15474:16299  function swapExactKLCForTokensSupportingFeeOnTransferTokens(... */\n      dup2\n      calldataload\n      swap2\n      swap1\n      dup2\n      add\n      swap1\n      0x40\n      dup2\n      add\n      0x20\n      dup3\n      add\n      calldataload\n        /* \"--CODEGEN--\":27:38   */\n      0x0100000000\n        /* \"--CODEGEN--\":11:39   */\n      dup2\n      gt\n        /* \"--CODEGEN--\":8:10   */\n      iszero\n      tag_145\n      jumpi\n        /* \"--CODEGEN--\":52:53   */\n      0x00\n        /* \"--CODEGEN--\":49:50   */\n      dup1\n        /* \"--CODEGEN--\":42:54   */\n      revert\n        /* \"--CODEGEN--\":8:10   */\n    tag_145:\n        /* \"CoreContracts/kalyswap-periphery/KalyswapRouter.sol\":15474:16299  function swapExactKLCForTokensSupportingFeeOnTransferTokens(... */\n      dup3\n      add\n        /* \"--CODEGEN--\":41:50   */\n      dup4\n        /* \"--CODEGEN--\":34:38   */\n      0x20\n        /* \"--CODEGEN--\":18:32   */\n      dup3\n        /* \"--CODEGEN--\":14:39   */\n      add\n        /* \"--CODEGEN--\":11:51   */\n      gt\n        /* \"--CODEGEN--\":8:10   */\n      iszero\n      tag_146\n      jumpi\n        /* \"--CODEGEN--\":64:65   */\n      0x00\n        /* \"--CODEGEN--\":61:62   */\n      dup1\n        /* \"--CODEGEN--\":54:66   */\n      revert\n        /* \"--CODEGEN--\":8:10   */\n    tag_146:\n        /* \"CoreContracts/kalyswap-periphery/KalyswapRouter.sol\":15474:16299  function swapExactKLCForTokensSupportingFeeOnTransferTokens(... */\n      dup1\n      calldataload\n      swap1\n      0x20\n      add\n      swap2\n        /* \"--CODEGEN--\":101:110   */\n      dup5\n        /* \"--CODEGEN--\":95:97   */\n      0x20\n        /* \"--CODEGEN--\":81:93   */\n      dup4\n        /* \"--CODEGEN--\":77:98   */\n      mul\n        /* \"--CODEGEN--\":67:75   */\n      dup5\n        /* \"--CODEGEN--\":63:99   */\n      add\n        /* \"--CODEGEN--\":60:111   */\n      gt\n        /* \"--CODEGEN--\":39:50   */\n      0x0100000000\n        /* \"--CODEGEN--\":25:37   */\n      dup4\n        /* \"--CODEGEN--\":22:51   */\n      gt\n        /* \"--CODEGEN--\":11:119   */\n      or\n        /* \"--CODEGEN--\":8:10   */\n      iszero\n      tag_147\n      jumpi\n        /* \"--CODEGEN--\":132:133   */\n      0x00\n        /* \"--CODEGEN--\":129:130   */\n      dup1\n        /* \"--CODEGEN--\":122:134   */\n      revert\n        /* \"--CODEGEN--\":8:10   */\n    tag_147:\n        /* \"CoreContracts/kalyswap-periphery/KalyswapRouter.sol\":15474:16299  function swapExactKLCForTokensSupportingFeeOnTransferTokens(... */\n      swap2\n      swap4\n      pop\n      swap2\n      pop\n      sub(shl(0xa0, 0x01), 0x01)\n      dup2\n      calldataload\n      and\n      swap1\n      0x20\n      add\n      calldataload\n      tag_148\n      jump\t// in\n        /* \"CoreContracts/kalyswap-periphery/KalyswapRouter.sol\":3980:4823  function removeLiquidity(... */\n    tag_21:\n      callvalue\n        /* \"--CODEGEN--\":5:14   */\n      dup1\n        /* \"--CODEGEN--\":2:4   */\n      iszero\n      tag_149\n      jumpi\n        /* \"--CODEGEN--\":27:28   */\n      0x00\n        /* \"--CODEGEN--\":24:25   */\n      dup1\n        /* \"--CODEGEN--\":17:29   */\n      revert\n        /* \"--CODEGEN--\":2:4   */\n    tag_149:\n        /* \"CoreContracts/kalyswap-periphery/KalyswapRouter.sol\":3980:4823  function removeLiquidity(... */\n      pop\n      tag_55\n      0x04\n      dup1\n      calldatasize\n      sub\n        /* \"--CODEGEN--\":15:18   */\n      0xe0\n        /* \"--CODEGEN--\":10:13   */\n      dup2\n        /* \"--CODEGEN--\":7:19   */\n      lt\n        /* \"--CODEGEN--\":4:6   */\n      iszero\n      tag_151\n      jumpi\n        /* \"--CODEGEN--\":32:33   */\n      0x00\n        /* \"--CODEGEN--\":29:30   */\n      dup1\n        /* \"--CODEGEN--\":22:34   */\n      revert\n        /* \"--CODEGEN--\":4:6   */\n    tag_151:\n      pop\n      sub(shl(0xa0, 0x01), 0x01)\n        /* \"CoreContracts/kalyswap-periphery/KalyswapRouter.sol\":3980:4823  function removeLiquidity(... */\n      dup2\n      calldataload\n      dup2\n      and\n      swap2\n      0x20\n      dup2\n      add\n      calldataload\n      dup3\n      and\n      swap2\n      0x40\n      dup3\n      add\n      calldataload\n      swap2\n      0x60\n      dup2\n      add\n      calldataload\n      swap2\n      0x80\n      dup3\n      add\n      calldataload\n      swap2\n      0xa0\n      dup2\n      add\n      calldataload\n      swap1\n      swap2\n      and\n      swap1\n      0xc0\n      add\n      calldataload\n      tag_152\n      jump\t// in\n        /* \"CoreContracts/kalyswap-periphery/KalyswapRouter.sol\":407:448  address public immutable override factory */\n    tag_22:\n      callvalue\n        /* \"--CODEGEN--\":5:14   */\n      dup1\n        /* \"--CODEGEN--\":2:4   */\n      iszero\n      tag_153\n      jumpi\n        /* \"--CODEGEN--\":27:28   */\n      0x00\n        /* \"--CODEGEN--\":24:25   */\n      dup1\n        /* \"--CODEGEN--\":17:29   */\n      revert\n        /* \"--CODEGEN--\":2:4   */\n    tag_153:\n        /* \"CoreContracts/kalyswap-periphery/KalyswapRouter.sol\":407:448  address public immutable override factory */\n      pop\n      tag_52\n      tag_155\n      jump\t// in\n        /* \"CoreContracts/kalyswap-periphery/KalyswapRouter.sol\":17872:18116  function getAmountsOut(uint amountIn, address[] memory path)... */\n    tag_23:\n      callvalue\n        /* \"--CODEGEN--\":5:14   */\n      dup1\n        /* \"--CODEGEN--\":2:4   */\n      iszero\n      tag_156\n      jumpi\n        /* \"--CODEGEN--\":27:28   */\n      0x00\n        /* \"--CODEGEN--\":24:25   */\n      dup1\n        /* \"--CODEGEN--\":17:29   */\n      revert\n        /* \"--CODEGEN--\":2:4   */\n    tag_156:\n        /* \"CoreContracts/kalyswap-periphery/KalyswapRouter.sol\":17872:18116  function getAmountsOut(uint amountIn, address[] memory path)... */\n      pop\n      tag_42\n      0x04\n      dup1\n      calldatasize\n      sub\n        /* \"--CODEGEN--\":15:17   */\n      0x40\n        /* \"--CODEGEN--\":10:13   */\n      dup2\n        /* \"--CODEGEN--\":7:18   */\n      lt\n        /* \"--CODEGEN--\":4:6   */\n      iszero\n      tag_158\n      jumpi\n        /* \"--CODEGEN--\":31:32   */\n      0x00\n        /* \"--CODEGEN--\":28:29   */\n      dup1\n        /* \"--CODEGEN--\":21:33   */\n      revert\n        /* \"--CODEGEN--\":4:6   */\n    tag_158:\n        /* \"CoreContracts/kalyswap-periphery/KalyswapRouter.sol\":17872:18116  function getAmountsOut(uint amountIn, address[] memory path)... */\n      dup2\n      calldataload\n      swap2\n      swap1\n      dup2\n      add\n      swap1\n      0x40\n      dup2\n      add\n      0x20\n      dup3\n      add\n      calldataload\n        /* \"--CODEGEN--\":27:38   */\n      0x0100000000\n        /* \"--CODEGEN--\":11:39   */\n      dup2\n      gt\n        /* \"--CODEGEN--\":8:10   */\n      iszero\n      tag_159\n      jumpi\n        /* \"--CODEGEN--\":52:53   */\n      0x00\n        /* \"--CODEGEN--\":49:50   */\n      dup1\n        /* \"--CODEGEN--\":42:54   */\n      revert\n        /* \"--CODEGEN--\":8:10   */\n    tag_159:\n        /* \"CoreContracts/kalyswap-periphery/KalyswapRouter.sol\":17872:18116  function getAmountsOut(uint amountIn, address[] memory path)... */\n      dup3\n      add\n        /* \"--CODEGEN--\":41:50   */\n      dup4\n        /* \"--CODEGEN--\":34:38   */\n      0x20\n        /* \"--CODEGEN--\":18:32   */\n      dup3\n        /* \"--CODEGEN--\":14:39   */\n      add\n        /* \"--CODEGEN--\":11:51   */\n      gt\n        /* \"--CODEGEN--\":8:10   */\n      iszero\n      tag_160\n      jumpi\n        /* \"--CODEGEN--\":64:65   */\n      0x00\n        /* \"--CODEGEN--\":61:62   */\n      dup1\n        /* \"--CODEGEN--\":54:66   */\n      revert\n        /* \"--CODEGEN--\":8:10   */\n    tag_160:\n        /* \"CoreContracts/kalyswap-periphery/KalyswapRouter.sol\":17872:18116  function getAmountsOut(uint amountIn, address[] memory path)... */\n      dup1\n      calldataload\n      swap1\n      0x20\n      add\n      swap2\n        /* \"--CODEGEN--\":101:110   */\n      dup5\n        /* \"--CODEGEN--\":95:97   */\n      0x20\n        /* \"--CODEGEN--\":81:93   */\n      dup4\n        /* \"--CODEGEN--\":77:98   */\n      mul\n        /* \"--CODEGEN--\":67:75   */\n      dup5\n        /* \"--CODEGEN--\":63:99   */\n      add\n        /* \"--CODEGEN--\":60:111   */\n      gt\n        /* \"--CODEGEN--\":39:50   */\n      0x0100000000\n        /* \"--CODEGEN--\":25:37   */\n      dup4\n        /* \"--CODEGEN--\":22:51   */\n      gt\n        /* \"--CODEGEN--\":11:119   */\n      or\n        /* \"--CODEGEN--\":8:10   */\n      iszero\n      tag_161\n      jumpi\n        /* \"--CODEGEN--\":132:133   */\n      0x00\n        /* \"--CODEGEN--\":129:130   */\n      dup1\n        /* \"--CODEGEN--\":122:134   */\n      revert\n        /* \"--CODEGEN--\":8:10   */\n    tag_161:\n        /* \"CoreContracts/kalyswap-periphery/KalyswapRouter.sol\":17872:18116  function getAmountsOut(uint amountIn, address[] memory path)... */\n      swap2\n      swap1\n      dup1\n      dup1\n      0x20\n      mul\n      0x20\n      add\n      mload(0x40)\n      swap1\n      dup2\n      add\n      0x40\n      mstore\n      dup1\n      swap4\n      swap3\n      swap2\n      swap1\n      dup2\n      dup2\n      mstore\n      0x20\n      add\n      dup4\n      dup4\n      0x20\n      mul\n        /* \"--CODEGEN--\":30:33   */\n      dup1\n        /* \"--CODEGEN--\":22:28   */\n      dup3\n        /* \"--CODEGEN--\":14:20   */\n      dup5\n        /* \"--CODEGEN--\":1:34   */\n      calldatacopy\n        /* \"--CODEGEN--\":99:100   */\n      0x00\n        /* \"--CODEGEN--\":81:97   */\n      swap3\n      add\n        /* \"--CODEGEN--\":74:101   */\n      swap2\n      swap1\n      swap2\n      mstore\n      pop\n        /* \"CoreContracts/kalyswap-periphery/KalyswapRouter.sol\":17872:18116  function getAmountsOut(uint amountIn, address[] memory path)... */\n      swap3\n      swap6\n      pop\n      tag_162\n      swap5\n      pop\n      pop\n      pop\n      pop\n      pop\n      jump\t// in\n        /* \"CoreContracts/kalyswap-periphery/KalyswapRouter.sol\":7567:8268  function removeLiquidityKLCWithPermitSupportingFeeOnTransferTokens(... */\n    tag_24:\n      callvalue\n        /* \"--CODEGEN--\":5:14   */\n      dup1\n        /* \"--CODEGEN--\":2:4   */\n      iszero\n      tag_166\n      jumpi\n        /* \"--CODEGEN--\":27:28   */\n      0x00\n        /* \"--CODEGEN--\":24:25   */\n      dup1\n        /* \"--CODEGEN--\":17:29   */\n      revert\n        /* \"--CODEGEN--\":2:4   */\n    tag_166:\n        /* \"CoreContracts/kalyswap-periphery/KalyswapRouter.sol\":7567:8268  function removeLiquidityKLCWithPermitSupportingFeeOnTransferTokens(... */\n      pop\n      tag_38\n      0x04\n      dup1\n      calldatasize\n      sub\n        /* \"--CODEGEN--\":15:18   */\n      0x0140\n        /* \"--CODEGEN--\":10:13   */\n      dup2\n        /* \"--CODEGEN--\":7:19   */\n      lt\n        /* \"--CODEGEN--\":4:6   */\n      iszero\n      tag_168\n      jumpi\n        /* \"--CODEGEN--\":32:33   */\n      0x00\n        /* \"--CODEGEN--\":29:30   */\n      dup1\n        /* \"--CODEGEN--\":22:34   */\n      revert\n        /* \"--CODEGEN--\":4:6   */\n    tag_168:\n      pop\n      sub(shl(0xa0, 0x01), 0x01)\n        /* \"CoreContracts/kalyswap-periphery/KalyswapRouter.sol\":7567:8268  function removeLiquidityKLCWithPermitSupportingFeeOnTransferTokens(... */\n      dup2\n      calldataload\n      dup2\n      and\n      swap2\n      0x20\n      dup2\n      add\n      calldataload\n      swap2\n      0x40\n      dup3\n      add\n      calldataload\n      swap2\n      0x60\n      dup2\n      add\n      calldataload\n      swap2\n      0x80\n      dup3\n      add\n      calldataload\n      and\n      swap1\n      0xa0\n      dup2\n      add\n      calldataload\n      swap1\n      0xc0\n      dup2\n      add\n      calldataload\n      iszero\n      iszero\n      swap1\n      0xff\n      0xe0\n      dup3\n      add\n      calldataload\n      and\n      swap1\n      0x0100\n      dup2\n      add\n      calldataload\n      swap1\n      0x0120\n      add\n      calldataload\n      tag_169\n      jump\t// in\n        /* \"CoreContracts/kalyswap-periphery/KalyswapRouter.sol\":11809:12639  function swapExactTokensForKLC(uint amountIn, uint amountOutMin, address[] calldata path, address to, uint deadline)... */\n    tag_25:\n      callvalue\n        /* \"--CODEGEN--\":5:14   */\n      dup1\n        /* \"--CODEGEN--\":2:4   */\n      iszero\n      tag_170\n      jumpi\n        /* \"--CODEGEN--\":27:28   */\n      0x00\n        /* \"--CODEGEN--\":24:25   */\n      dup1\n        /* \"--CODEGEN--\":17:29   */\n      revert\n        /* \"--CODEGEN--\":2:4   */\n    tag_170:\n        /* \"CoreContracts/kalyswap-periphery/KalyswapRouter.sol\":11809:12639  function swapExactTokensForKLC(uint amountIn, uint amountOutMin, address[] calldata path, address to, uint deadline)... */\n      pop\n      tag_42\n      0x04\n      dup1\n      calldatasize\n      sub\n        /* \"--CODEGEN--\":15:18   */\n      0xa0\n        /* \"--CODEGEN--\":10:13   */\n      dup2\n        /* \"--CODEGEN--\":7:19   */\n      lt\n        /* \"--CODEGEN--\":4:6   */\n      iszero\n      tag_172\n      jumpi\n        /* \"--CODEGEN--\":32:33   */\n      0x00\n        /* \"--CODEGEN--\":29:30   */\n      dup1\n        /* \"--CODEGEN--\":22:34   */\n      revert\n        /* \"--CODEGEN--\":4:6   */\n    tag_172:\n        /* \"CoreContracts/kalyswap-periphery/KalyswapRouter.sol\":11809:12639  function swapExactTokensForKLC(uint amountIn, uint amountOutMin, address[] calldata path, address to, uint deadline)... */\n      dup2\n      calldataload\n      swap2\n      0x20\n      dup2\n      add\n      calldataload\n      swap2\n      dup2\n      add\n      swap1\n      0x60\n      dup2\n      add\n      0x40\n      dup3\n      add\n      calldataload\n        /* \"--CODEGEN--\":27:38   */\n      0x0100000000\n        /* \"--CODEGEN--\":11:39   */\n      dup2\n      gt\n        /* \"--CODEGEN--\":8:10   */\n      iszero\n      tag_173\n      jumpi\n        /* \"--CODEGEN--\":52:53   */\n      0x00\n        /* \"--CODEGEN--\":49:50   */\n      dup1\n        /* \"--CODEGEN--\":42:54   */\n      revert\n        /* \"--CODEGEN--\":8:10   */\n    tag_173:\n        /* \"CoreContracts/kalyswap-periphery/KalyswapRouter.sol\":11809:12639  function swapExactTokensForKLC(uint amountIn, uint amountOutMin, address[] calldata path, address to, uint deadline)... */\n      dup3\n      add\n        /* \"--CODEGEN--\":41:50   */\n      dup4\n        /* \"--CODEGEN--\":34:38   */\n      0x20\n        /* \"--CODEGEN--\":18:32   */\n      dup3\n        /* \"--CODEGEN--\":14:39   */\n      add\n        /* \"--CODEGEN--\":11:51   */\n      gt\n        /* \"--CODEGEN--\":8:10   */\n      iszero\n      tag_174\n      jumpi\n        /* \"--CODEGEN--\":64:65   */\n      0x00\n        /* \"--CODEGEN--\":61:62   */\n      dup1\n        /* \"--CODEGEN--\":54:66   */\n      revert\n        /* \"--CODEGEN--\":8:10   */\n    tag_174:\n        /* \"CoreContracts/kalyswap-periphery/KalyswapRouter.sol\":11809:12639  function swapExactTokensForKLC(uint amountIn, uint amountOutMin, address[] calldata path, address to, uint deadline)... */\n      dup1\n      calldataload\n      swap1\n      0x20\n      add\n      swap2\n        /* \"--CODEGEN--\":101:110   */\n      dup5\n        /* \"--CODEGEN--\":95:97   */\n      0x20\n        /* \"--CODEGEN--\":81:93   */\n      dup4\n        /* \"--CODEGEN--\":77:98   */\n      mul\n        /* \"--CODEGEN--\":67:75   */\n      dup5\n        /* \"--CODEGEN--\":63:99   */\n      add\n        /* \"--CODEGEN--\":60:111   */\n      gt\n        /* \"--CODEGEN--\":39:50   */\n      0x0100000000\n        /* \"--CODEGEN--\":25:37   */\n      dup4\n        /* \"--CODEGEN--\":22:51   */\n      gt\n        /* \"--CODEGEN--\":11:119   */\n      or\n        /* \"--CODEGEN--\":8:10   */\n      iszero\n      tag_175\n      jumpi\n        /* \"--CODEGEN--\":132:133   */\n      0x00\n        /* \"--CODEGEN--\":129:130   */\n      dup1\n        /* \"--CODEGEN--\":122:134   */\n      revert\n        /* \"--CODEGEN--\":8:10   */\n    tag_175:\n        /* \"CoreContracts/kalyswap-periphery/KalyswapRouter.sol\":11809:12639  function swapExactTokensForKLC(uint amountIn, uint amountOutMin, address[] calldata path, address to, uint deadline)... */\n      swap2\n      swap4\n      pop\n      swap2\n      pop\n      sub(shl(0xa0, 0x01), 0x01)\n      dup2\n      calldataload\n      and\n      swap1\n      0x20\n      add\n      calldataload\n      tag_176\n      jump\t// in\n        /* \"CoreContracts/kalyswap-periphery/KalyswapRouter.sol\":2265:2986  function addLiquidity(... */\n    tag_26:\n      callvalue\n        /* \"--CODEGEN--\":5:14   */\n      dup1\n        /* \"--CODEGEN--\":2:4   */\n      iszero\n      tag_180\n      jumpi\n        /* \"--CODEGEN--\":27:28   */\n      0x00\n        /* \"--CODEGEN--\":24:25   */\n      dup1\n        /* \"--CODEGEN--\":17:29   */\n      revert\n        /* \"--CODEGEN--\":2:4   */\n    tag_180:\n        /* \"CoreContracts/kalyswap-periphery/KalyswapRouter.sol\":2265:2986  function addLiquidity(... */\n      pop\n      tag_93\n      0x04\n      dup1\n      calldatasize\n      sub\n        /* \"--CODEGEN--\":15:18   */\n      0x0100\n        /* \"--CODEGEN--\":10:13   */\n      dup2\n        /* \"--CODEGEN--\":7:19   */\n      lt\n        /* \"--CODEGEN--\":4:6   */\n      iszero\n      tag_182\n      jumpi\n        /* \"--CODEGEN--\":32:33   */\n      0x00\n        /* \"--CODEGEN--\":29:30   */\n      dup1\n        /* \"--CODEGEN--\":22:34   */\n      revert\n        /* \"--CODEGEN--\":4:6   */\n    tag_182:\n      pop\n      sub(shl(0xa0, 0x01), 0x01)\n        /* \"CoreContracts/kalyswap-periphery/KalyswapRouter.sol\":2265:2986  function addLiquidity(... */\n      dup2\n      calldataload\n      dup2\n      and\n      swap2\n      0x20\n      dup2\n      add\n      calldataload\n      dup3\n      and\n      swap2\n      0x40\n      dup3\n      add\n      calldataload\n      swap2\n      0x60\n      dup2\n      add\n      calldataload\n      swap2\n      0x80\n      dup3\n      add\n      calldataload\n      swap2\n      0xa0\n      dup2\n      add\n      calldataload\n      swap2\n      0xc0\n      dup3\n      add\n      calldataload\n      and\n      swap1\n      0xe0\n      add\n      calldataload\n      tag_183\n      jump\t// in\n        /* \"CoreContracts/kalyswap-periphery/KalyswapRouter.sol\":17355:17608  function getAmountOut(uint amountIn, uint reserveIn, uint reserveOut)... */\n    tag_40:\n        /* \"CoreContracts/kalyswap-periphery/KalyswapRouter.sol\":17503:17517  uint amountOut */\n      0x00\n        /* \"CoreContracts/kalyswap-periphery/KalyswapRouter.sol\":17540:17601  KalyswapLibrary.getAmountOut(amountIn, reserveIn, reserveOut) */\n      tag_185\n        /* \"CoreContracts/kalyswap-periphery/KalyswapRouter.sol\":17569:17577  amountIn */\n      dup5\n        /* \"CoreContracts/kalyswap-periphery/KalyswapRouter.sol\":17579:17588  reserveIn */\n      dup5\n        /* \"CoreContracts/kalyswap-periphery/KalyswapRouter.sol\":17590:17600  reserveOut */\n      dup5\n        /* \"CoreContracts/kalyswap-periphery/KalyswapRouter.sol\":17540:17568  KalyswapLibrary.getAmountOut */\n      tag_186\n        /* \"CoreContracts/kalyswap-periphery/KalyswapRouter.sol\":17540:17601  KalyswapLibrary.getAmountOut(amountIn, reserveIn, reserveOut) */\n      jump\t// in\n    tag_185:\n        /* \"CoreContracts/kalyswap-periphery/KalyswapRouter.sol\":17533:17601  return KalyswapLibrary.getAmountOut(amountIn, reserveIn, reserveOut) */\n      swap5\n        /* \"CoreContracts/kalyswap-periphery/KalyswapRouter.sol\":17355:17608  function getAmountOut(uint amountIn, uint reserveIn, uint reserveOut)... */\n      swap4\n      pop\n      pop\n      pop\n      pop\n      jump\t// out\n        /* \"CoreContracts/kalyswap-periphery/KalyswapRouter.sol\":10996:11804  function swapTokensForExactKLC(uint amountOut, uint amountInMax, address[] calldata path, address to, uint deadline)... */\n    tag_47:\n        /* \"CoreContracts/kalyswap-periphery/KalyswapRouter.sol\":11205:11226  uint[] memory amounts */\n      0x60\n        /* \"CoreContracts/kalyswap-periphery/KalyswapRouter.sol\":11178:11186  deadline */\n      dup2\n        /* \"CoreContracts/kalyswap-periphery/KalyswapRouter.sol\":560:575  block.timestamp */\n      timestamp\n        /* \"CoreContracts/kalyswap-periphery/KalyswapRouter.sol\":548:556  deadline */\n      dup2\n        /* \"CoreContracts/kalyswap-periphery/KalyswapRouter.sol\":548:575  deadline >= block.timestamp */\n      lt\n      iszero\n        /* \"CoreContracts/kalyswap-periphery/KalyswapRouter.sol\":540:603  require(deadline >= block.timestamp, 'KalyswapRouter: EXPIRED') */\n      tag_188\n      jumpi\n      0x40\n      dup1\n      mload\n      shl(0xe5, 0x461bcd)\n      dup2\n      mstore\n      0x20\n      0x04\n      dup3\n      add\n      mstore\n      0x17\n      0x24\n      dup3\n      add\n      mstore\n      0x00\n      dup1\n      mload\n      0x20\n      data_c37a5828941e3f3d234159361fc5f20834c08e197405b7b4d61af4ea6dee60a5\n      dup4\n      codecopy\n      dup2\n      mload\n      swap2\n      mstore\n      0x44\n      dup3\n      add\n      mstore\n      swap1\n      mload\n      swap1\n      dup2\n      swap1\n      sub\n      0x64\n      add\n      swap1\n      revert\n    tag_188:\n      sub(shl(0xa0, 0x01), 0x01)\n        /* \"CoreContracts/kalyswap-periphery/KalyswapRouter.sol\":11275:11279  WKLC */\n      immutable(\"0xe96cc20f241c05b09b05be99fa40d483e0c60480c24cfabd29fea373217f3b30\")\n        /* \"CoreContracts/kalyswap-periphery/KalyswapRouter.sol\":11250:11279  path[path.length - 1] == WKLC */\n      and\n        /* \"CoreContracts/kalyswap-periphery/KalyswapRouter.sol\":11250:11254  path */\n      dup7\n      dup7\n      not(0x00)\n        /* \"CoreContracts/kalyswap-periphery/KalyswapRouter.sol\":11255:11270  path.length - 1 */\n      dup2\n      add\n        /* \"CoreContracts/kalyswap-periphery/KalyswapRouter.sol\":11250:11271  path[path.length - 1] */\n      dup2\n      dup2\n      lt\n      tag_190\n      jumpi\n      invalid\n    tag_190:\n      swap1\n      pop\n      0x20\n      mul\n      add\n      calldataload\n      sub(shl(0xa0, 0x01), 0x01)\n      and\n      sub(shl(0xa0, 0x01), 0x01)\n        /* \"CoreContracts/kalyswap-periphery/KalyswapRouter.sol\":11250:11279  path[path.length - 1] == WKLC */\n      and\n      eq\n        /* \"CoreContracts/kalyswap-periphery/KalyswapRouter.sol\":11242:11312  require(path[path.length - 1] == WKLC, 'KalyswapRouter: INVALID_PATH') */\n      tag_191\n      jumpi\n      0x40\n      dup1\n      mload\n      shl(0xe5, 0x461bcd)\n      dup2\n      mstore\n      0x20\n      0x04\n      dup3\n      add\n      mstore\n      0x1c\n      0x24\n      dup3\n      add\n      mstore\n      0x4b616c7973776170526f757465723a20494e56414c49445f5041544800000000\n      0x44\n      dup3\n      add\n      mstore\n      swap1\n      mload\n      swap1\n      dup2\n      swap1\n      sub\n      0x64\n      add\n      swap1\n      revert\n    tag_191:\n        /* \"CoreContracts/kalyswap-periphery/KalyswapRouter.sol\":11332:11386  KalyswapLibrary.getAmountsIn(factory, amountOut, path) */\n      tag_192\n        /* \"CoreContracts/kalyswap-periphery/KalyswapRouter.sol\":11361:11368  factory */\n      immutable(\"0x59ec111d9d8ceec2ab223a1d5004f35d19292b31c8f02c623d83a90888216dda\")\n        /* \"CoreContracts/kalyswap-periphery/KalyswapRouter.sol\":11370:11379  amountOut */\n      dup10\n        /* \"CoreContracts/kalyswap-periphery/KalyswapRouter.sol\":11381:11385  path */\n      dup9\n      dup9\n        /* \"CoreContracts/kalyswap-periphery/KalyswapRouter.sol\":11332:11386  KalyswapLibrary.getAmountsIn(factory, amountOut, path) */\n      dup1\n      dup1\n      0x20\n      mul\n      0x20\n      add\n      mload(0x40)\n      swap1\n      dup2\n      add\n      0x40\n      mstore\n      dup1\n      swap4\n      swap3\n      swap2\n      swap1\n      dup2\n      dup2\n      mstore\n      0x20\n      add\n      dup4\n      dup4\n      0x20\n      mul\n        /* \"--CODEGEN--\":30:33   */\n      dup1\n        /* \"--CODEGEN--\":22:28   */\n      dup3\n        /* \"--CODEGEN--\":14:20   */\n      dup5\n        /* \"--CODEGEN--\":1:34   */\n      calldatacopy\n        /* \"--CODEGEN--\":99:100   */\n      0x00\n        /* \"--CODEGEN--\":81:97   */\n      swap3\n      add\n        /* \"--CODEGEN--\":74:101   */\n      swap2\n      swap1\n      swap2\n      mstore\n      pop\n        /* \"CoreContracts/kalyswap-periphery/KalyswapRouter.sol\":11332:11360  KalyswapLibrary.getAmountsIn */\n      tag_193\n      swap3\n      pop\n      pop\n      pop\n        /* \"CoreContracts/kalyswap-periphery/KalyswapRouter.sol\":11332:11386  KalyswapLibrary.getAmountsIn(factory, amountOut, path) */\n      jump\t// in\n    tag_192:\n        /* \"CoreContracts/kalyswap-periphery/KalyswapRouter.sol\":11322:11386  amounts = KalyswapLibrary.getAmountsIn(factory, amountOut, path) */\n      swap2\n      pop\n        /* \"CoreContracts/kalyswap-periphery/KalyswapRouter.sol\":11418:11429  amountInMax */\n      dup7\n        /* \"CoreContracts/kalyswap-periphery/KalyswapRouter.sol\":11404:11411  amounts */\n      dup3\n        /* \"CoreContracts/kalyswap-periphery/KalyswapRouter.sol\":11412:11413  0 */\n      0x00\n        /* \"CoreContracts/kalyswap-periphery/KalyswapRouter.sol\":11404:11414  amounts[0] */\n      dup2\n      mload\n      dup2\n      lt\n      tag_194\n      jumpi\n      invalid\n    tag_194:\n      0x20\n      mul\n      0x20\n      add\n      add\n      mload\n        /* \"CoreContracts/kalyswap-periphery/KalyswapRouter.sol\":11404:11429  amounts[0] <= amountInMax */\n      gt\n      iszero\n        /* \"CoreContracts/kalyswap-periphery/KalyswapRouter.sol\":11396:11472  require(amounts[0] <= amountInMax, 'KalyswapRouter: EXCESSIVE_INPUT_AMOUNT') */\n      tag_195\n      jumpi\n      mload(0x40)\n      shl(0xe5, 0x461bcd)\n      dup2\n      mstore\n      0x04\n      add\n      dup1\n      dup1\n      0x20\n      add\n      dup3\n      dup2\n      sub\n      dup3\n      mstore\n      0x26\n      dup2\n      mstore\n      0x20\n      add\n      dup1\n      data_1129a09fdceed6d909941dc66391f1ae42b2f33eabad87c9f626e624f727698a\n      0x26\n      swap2\n      codecopy\n      0x40\n      add\n      swap2\n      pop\n      pop\n      mload(0x40)\n      dup1\n      swap2\n      sub\n      swap1\n      revert\n    tag_195:\n        /* \"CoreContracts/kalyswap-periphery/KalyswapRouter.sol\":11482:11620  TransferHelper.safeTransferFrom(... */\n      tag_196\n        /* \"CoreContracts/kalyswap-periphery/KalyswapRouter.sol\":11527:11531  path */\n      dup7\n      dup7\n        /* \"CoreContracts/kalyswap-periphery/KalyswapRouter.sol\":11532:11533  0 */\n      0x00\n        /* \"CoreContracts/kalyswap-periphery/KalyswapRouter.sol\":11527:11534  path[0] */\n      dup2\n      dup2\n      lt\n      tag_197\n      jumpi\n      invalid\n    tag_197:\n      swap1\n      pop\n      0x20\n      mul\n      add\n      calldataload\n      sub(shl(0xa0, 0x01), 0x01)\n      and\n        /* \"CoreContracts/kalyswap-periphery/KalyswapRouter.sol\":11536:11546  msg.sender */\n      caller\n        /* \"CoreContracts/kalyswap-periphery/KalyswapRouter.sol\":11548:11598  KalyswapLibrary.pairFor(factory, path[0], path[1]) */\n      tag_198\n        /* \"CoreContracts/kalyswap-periphery/KalyswapRouter.sol\":11572:11579  factory */\n      immutable(\"0x59ec111d9d8ceec2ab223a1d5004f35d19292b31c8f02c623d83a90888216dda\")\n        /* \"CoreContracts/kalyswap-periphery/KalyswapRouter.sol\":11581:11585  path */\n      dup11\n      dup11\n        /* \"CoreContracts/kalyswap-periphery/KalyswapRouter.sol\":11586:11587  0 */\n      0x00\n        /* \"CoreContracts/kalyswap-periphery/KalyswapRouter.sol\":11581:11588  path[0] */\n      dup2\n      dup2\n      lt\n      tag_199\n      jumpi\n      invalid\n    tag_199:\n      swap1\n      pop\n      0x20\n      mul\n      add\n      calldataload\n      sub(shl(0xa0, 0x01), 0x01)\n      and\n        /* \"CoreContracts/kalyswap-periphery/KalyswapRouter.sol\":11590:11594  path */\n      dup12\n      dup12\n        /* \"CoreContracts/kalyswap-periphery/KalyswapRouter.sol\":11595:11596  1 */\n      0x01\n        /* \"CoreContracts/kalyswap-periphery/KalyswapRouter.sol\":11590:11597  path[1] */\n      dup2\n      dup2\n      lt\n      tag_200\n      jumpi\n      invalid\n    tag_200:\n      swap1\n      pop\n      0x20\n      mul\n      add\n      calldataload\n      sub(shl(0xa0, 0x01), 0x01)\n      and\n        /* \"CoreContracts/kalyswap-periphery/KalyswapRouter.sol\":11548:11571  KalyswapLibrary.pairFor */\n      tag_201\n        /* \"CoreContracts/kalyswap-periphery/KalyswapRouter.sol\":11548:11598  KalyswapLibrary.pairFor(factory, path[0], path[1]) */\n      jump\t// in\n    tag_198:\n        /* \"CoreContracts/kalyswap-periphery/KalyswapRouter.sol\":11600:11607  amounts */\n      dup6\n        /* \"CoreContracts/kalyswap-periphery/KalyswapRouter.sol\":11608:11609  0 */\n      0x00\n        /* \"CoreContracts/kalyswap-periphery/KalyswapRouter.sol\":11600:11610  amounts[0] */\n      dup2\n      mload\n      dup2\n      lt\n      tag_202\n      jumpi\n      invalid\n    tag_202:\n      0x20\n      mul\n      0x20\n      add\n      add\n      mload\n        /* \"CoreContracts/kalyswap-periphery/KalyswapRouter.sol\":11482:11513  TransferHelper.safeTransferFrom */\n      tag_203\n        /* \"CoreContracts/kalyswap-periphery/KalyswapRouter.sol\":11482:11620  TransferHelper.safeTransferFrom(... */\n      jump\t// in\n    tag_196:\n        /* \"CoreContracts/kalyswap-periphery/KalyswapRouter.sol\":11630:11665  _swap(amounts, path, address(this)) */\n      tag_204\n        /* \"CoreContracts/kalyswap-periphery/KalyswapRouter.sol\":11636:11643  amounts */\n      dup3\n        /* \"CoreContracts/kalyswap-periphery/KalyswapRouter.sol\":11645:11649  path */\n      dup8\n      dup8\n        /* \"CoreContracts/kalyswap-periphery/KalyswapRouter.sol\":11630:11665  _swap(amounts, path, address(this)) */\n      dup1\n      dup1\n      0x20\n      mul\n      0x20\n      add\n      mload(0x40)\n      swap1\n      dup2\n      add\n      0x40\n      mstore\n      dup1\n      swap4\n      swap3\n      swap2\n      swap1\n      dup2\n      dup2\n      mstore\n      0x20\n      add\n      dup4\n      dup4\n      0x20\n      mul\n        /* \"--CODEGEN--\":30:33   */\n      dup1\n        /* \"--CODEGEN--\":22:28   */\n      dup3\n        /* \"--CODEGEN--\":14:20   */\n      dup5\n        /* \"--CODEGEN--\":1:34   */\n      calldatacopy\n        /* \"--CODEGEN--\":99:100   */\n      0x00\n        /* \"--CODEGEN--\":81:97   */\n      swap3\n      add\n        /* \"--CODEGEN--\":74:101   */\n      swap2\n      swap1\n      swap2\n      mstore\n      pop\n        /* \"CoreContracts/kalyswap-periphery/KalyswapRouter.sol\":11659:11663  this */\n      address\n      swap3\n      pop\n        /* \"CoreContracts/kalyswap-periphery/KalyswapRouter.sol\":11630:11635  _swap */\n      tag_205\n      swap2\n      pop\n      pop\n        /* \"CoreContracts/kalyswap-periphery/KalyswapRouter.sol\":11630:11665  _swap(amounts, path, address(this)) */\n      jump\t// in\n    tag_204:\n        /* \"CoreContracts/kalyswap-periphery/KalyswapRouter.sol\":11681:11685  WKLC */\n      immutable(\"0xe96cc20f241c05b09b05be99fa40d483e0c60480c24cfabd29fea373217f3b30\")\n      sub(shl(0xa0, 0x01), 0x01)\n        /* \"CoreContracts/kalyswap-periphery/KalyswapRouter.sol\":11675:11695  IWKLC(WKLC).withdraw */\n      and\n      0x2e1a7d4d\n        /* \"CoreContracts/kalyswap-periphery/KalyswapRouter.sol\":11696:11703  amounts */\n      dup4\n        /* \"CoreContracts/kalyswap-periphery/KalyswapRouter.sol\":11721:11722  1 */\n      0x01\n        /* \"CoreContracts/kalyswap-periphery/KalyswapRouter.sol\":11704:11711  amounts */\n      dup6\n        /* \"CoreContracts/kalyswap-periphery/KalyswapRouter.sol\":11704:11718  amounts.length */\n      mload\n        /* \"CoreContracts/kalyswap-periphery/KalyswapRouter.sol\":11704:11722  amounts.length - 1 */\n      sub\n        /* \"CoreContracts/kalyswap-periphery/KalyswapRouter.sol\":11696:11723  amounts[amounts.length - 1] */\n      dup2\n      mload\n      dup2\n      lt\n      tag_206\n      jumpi\n      invalid\n    tag_206:\n      0x20\n      mul\n      0x20\n      add\n      add\n      mload\n        /* \"CoreContracts/kalyswap-periphery/KalyswapRouter.sol\":11675:11724  IWKLC(WKLC).withdraw(amounts[amounts.length - 1]) */\n      mload(0x40)\n      dup3\n      0xffffffff\n      and\n      0xe0\n      shl\n      dup2\n      mstore\n      0x04\n      add\n      dup1\n      dup3\n      dup2\n      mstore\n      0x20\n      add\n      swap2\n      pop\n      pop\n      0x00\n      mload(0x40)\n      dup1\n      dup4\n      sub\n      dup2\n      0x00\n      dup8\n      dup1\n      extcodesize\n      iszero\n        /* \"--CODEGEN--\":5:14   */\n      dup1\n        /* \"--CODEGEN--\":2:4   */\n      iszero\n      tag_207\n      jumpi\n        /* \"--CODEGEN--\":27:28   */\n      0x00\n        /* \"--CODEGEN--\":24:25   */\n      dup1\n        /* \"--CODEGEN--\":17:29   */\n      revert\n        /* \"--CODEGEN--\":2:4   */\n    tag_207:\n        /* \"CoreContracts/kalyswap-periphery/KalyswapRouter.sol\":11675:11724  IWKLC(WKLC).withdraw(amounts[amounts.length - 1]) */\n      pop\n      gas\n      call\n      iszero\n        /* \"--CODEGEN--\":8:17   */\n      dup1\n        /* \"--CODEGEN--\":5:7   */\n      iszero\n      tag_209\n      jumpi\n        /* \"--CODEGEN--\":45:61   */\n      returndatasize\n        /* \"--CODEGEN--\":42:43   */\n      0x00\n        /* \"--CODEGEN--\":39:40   */\n      dup1\n        /* \"--CODEGEN--\":24:62   */\n      returndatacopy\n        /* \"--CODEGEN--\":77:93   */\n      returndatasize\n        /* \"--CODEGEN--\":74:75   */\n      0x00\n        /* \"--CODEGEN--\":67:94   */\n      revert\n        /* \"--CODEGEN--\":5:7   */\n    tag_209:\n        /* \"CoreContracts/kalyswap-periphery/KalyswapRouter.sol\":11675:11724  IWKLC(WKLC).withdraw(amounts[amounts.length - 1]) */\n      pop\n      pop\n      pop\n      pop\n        /* \"CoreContracts/kalyswap-periphery/KalyswapRouter.sol\":11734:11797  TransferHelper.safeTransferKLC(to, amounts[amounts.length - 1]) */\n      tag_210\n        /* \"CoreContracts/kalyswap-periphery/KalyswapRouter.sol\":11765:11767  to */\n      dup5\n        /* \"CoreContracts/kalyswap-periphery/KalyswapRouter.sol\":11769:11776  amounts */\n      dup4\n        /* \"CoreContracts/kalyswap-periphery/KalyswapRouter.sol\":11794:11795  1 */\n      0x01\n        /* \"CoreContracts/kalyswap-periphery/KalyswapRouter.sol\":11777:11784  amounts */\n      dup6\n        /* \"CoreContracts/kalyswap-periphery/KalyswapRouter.sol\":11777:11791  amounts.length */\n      mload\n        /* \"CoreContracts/kalyswap-periphery/KalyswapRouter.sol\":11777:11795  amounts.length - 1 */\n      sub\n        /* \"CoreContracts/kalyswap-periphery/KalyswapRouter.sol\":11769:11796  amounts[amounts.length - 1] */\n      dup2\n      mload\n      dup2\n      lt\n      tag_211\n      jumpi\n      invalid\n    tag_211:\n      0x20\n      mul\n      0x20\n      add\n      add\n      mload\n        /* \"CoreContracts/kalyswap-periphery/KalyswapRouter.sol\":11734:11764  TransferHelper.safeTransferKLC */\n      tag_212\n        /* \"CoreContracts/kalyswap-periphery/KalyswapRouter.sol\":11734:11797  TransferHelper.safeTransferKLC(to, amounts[amounts.length - 1]) */\n      jump\t// in\n    tag_210:\n        /* \"CoreContracts/kalyswap-periphery/KalyswapRouter.sol\":10996:11804  function swapTokensForExactKLC(uint amountOut, uint amountInMax, address[] calldata path, address to, uint deadline)... */\n      pop\n      swap7\n      swap6\n      pop\n      pop\n      pop\n      pop\n      pop\n      pop\n      jump\t// out\n        /* \"CoreContracts/kalyswap-periphery/KalyswapRouter.sol\":454:492  address public immutable override WKLC */\n    tag_53:\n      immutable(\"0xe96cc20f241c05b09b05be99fa40d483e0c60480c24cfabd29fea373217f3b30\")\n      dup2\n      jump\t// out\n        /* \"CoreContracts/kalyswap-periphery/KalyswapRouter.sol\":6152:6806  function removeLiquidityKLCWithPermit(... */\n    tag_57:\n        /* \"CoreContracts/kalyswap-periphery/KalyswapRouter.sol\":6433:6449  uint amountToken */\n      0x00\n        /* \"CoreContracts/kalyswap-periphery/KalyswapRouter.sol\":6451:6465  uint amountKLC */\n      dup1\n        /* \"CoreContracts/kalyswap-periphery/KalyswapRouter.sol\":6477:6489  address pair */\n      0x00\n        /* \"CoreContracts/kalyswap-periphery/KalyswapRouter.sol\":6492:6537  KalyswapLibrary.pairFor(factory, token, WKLC) */\n      tag_214\n        /* \"CoreContracts/kalyswap-periphery/KalyswapRouter.sol\":6516:6523  factory */\n      immutable(\"0x59ec111d9d8ceec2ab223a1d5004f35d19292b31c8f02c623d83a90888216dda\")\n        /* \"CoreContracts/kalyswap-periphery/KalyswapRouter.sol\":6525:6530  token */\n      dup15\n        /* \"CoreContracts/kalyswap-periphery/KalyswapRouter.sol\":6532:6536  WKLC */\n      immutable(\"0xe96cc20f241c05b09b05be99fa40d483e0c60480c24cfabd29fea373217f3b30\")\n        /* \"CoreContracts/kalyswap-periphery/KalyswapRouter.sol\":6492:6515  KalyswapLibrary.pairFor */\n      tag_201\n        /* \"CoreContracts/kalyswap-periphery/KalyswapRouter.sol\":6492:6537  KalyswapLibrary.pairFor(factory, token, WKLC) */\n      jump\t// in\n    tag_214:\n        /* \"CoreContracts/kalyswap-periphery/KalyswapRouter.sol\":6477:6537  address pair = KalyswapLibrary.pairFor(factory, token, WKLC) */\n      swap1\n      pop\n        /* \"CoreContracts/kalyswap-periphery/KalyswapRouter.sol\":6547:6557  uint value */\n      0x00\n        /* \"CoreContracts/kalyswap-periphery/KalyswapRouter.sol\":6560:6570  approveMax */\n      dup8\n        /* \"CoreContracts/kalyswap-periphery/KalyswapRouter.sol\":6560:6593  approveMax ? uint(-1) : liquidity */\n      tag_215\n      jumpi\n        /* \"CoreContracts/kalyswap-periphery/KalyswapRouter.sol\":6584:6593  liquidity */\n      dup13\n        /* \"CoreContracts/kalyswap-periphery/KalyswapRouter.sol\":6560:6593  approveMax ? uint(-1) : liquidity */\n      jump(tag_216)\n    tag_215:\n      not(0x00)\n    tag_216:\n        /* \"CoreContracts/kalyswap-periphery/KalyswapRouter.sol\":6603:6682  IKalyswapPair(pair).permit(msg.sender, address(this), value, deadline, v, r, s) */\n      0x40\n      dup1\n      mload\n      shl(0xe0, 0xd505accf)\n      dup2\n      mstore\n        /* \"CoreContracts/kalyswap-periphery/KalyswapRouter.sol\":6630:6640  msg.sender */\n      caller\n        /* \"CoreContracts/kalyswap-periphery/KalyswapRouter.sol\":6603:6682  IKalyswapPair(pair).permit(msg.sender, address(this), value, deadline, v, r, s) */\n      0x04\n      dup3\n      add\n      mstore\n        /* \"CoreContracts/kalyswap-periphery/KalyswapRouter.sol\":6650:6654  this */\n      address\n        /* \"CoreContracts/kalyswap-periphery/KalyswapRouter.sol\":6603:6682  IKalyswapPair(pair).permit(msg.sender, address(this), value, deadline, v, r, s) */\n      0x24\n      dup3\n      add\n      mstore\n      0x44\n      dup2\n      add\n      dup4\n      swap1\n      mstore\n      0x64\n      dup2\n      add\n      dup13\n      swap1\n      mstore\n      0xff\n      dup11\n      and\n      0x84\n      dup3\n      add\n      mstore\n      0xa4\n      dup2\n      add\n      dup10\n      swap1\n      mstore\n      0xc4\n      dup2\n      add\n      dup9\n      swap1\n      mstore\n      swap1\n      mload\n        /* \"CoreContracts/kalyswap-periphery/KalyswapRouter.sol\":6547:6593  uint value = approveMax ? uint(-1) : liquidity */\n      swap2\n      swap3\n      pop\n      sub(shl(0xa0, 0x01), 0x01)\n        /* \"CoreContracts/kalyswap-periphery/KalyswapRouter.sol\":6603:6629  IKalyswapPair(pair).permit */\n      dup5\n      and\n      swap2\n      0xd505accf\n      swap2\n        /* \"CoreContracts/kalyswap-periphery/KalyswapRouter.sol\":6603:6682  IKalyswapPair(pair).permit(msg.sender, address(this), value, deadline, v, r, s) */\n      0xe4\n      dup1\n      dup3\n      add\n      swap3\n      0x00\n      swap3\n      swap1\n      swap2\n      swap1\n      dup3\n      swap1\n      sub\n      add\n      dup2\n      dup4\n        /* \"CoreContracts/kalyswap-periphery/KalyswapRouter.sol\":6603:6629  IKalyswapPair(pair).permit */\n      dup8\n        /* \"CoreContracts/kalyswap-periphery/KalyswapRouter.sol\":6603:6682  IKalyswapPair(pair).permit(msg.sender, address(this), value, deadline, v, r, s) */\n      dup1\n      extcodesize\n      iszero\n        /* \"--CODEGEN--\":2:4   */\n      dup1\n      iszero\n      tag_217\n      jumpi\n        /* \"--CODEGEN--\":27:28   */\n      0x00\n        /* \"--CODEGEN--\":24:25   */\n      dup1\n        /* \"--CODEGEN--\":17:29   */\n      revert\n        /* \"--CODEGEN--\":2:4   */\n    tag_217:\n        /* \"CoreContracts/kalyswap-periphery/KalyswapRouter.sol\":6603:6682  IKalyswapPair(pair).permit(msg.sender, address(this), value, deadline, v, r, s) */\n      pop\n      gas\n      call\n      iszero\n        /* \"--CODEGEN--\":8:17   */\n      dup1\n        /* \"--CODEGEN--\":5:7   */\n      iszero\n      tag_219\n      jumpi\n        /* \"--CODEGEN--\":45:61   */\n      returndatasize\n        /* \"--CODEGEN--\":42:43   */\n      0x00\n        /* \"--CODEGEN--\":39:40   */\n      dup1\n        /* \"--CODEGEN--\":24:62   */\n      returndatacopy\n        /* \"--CODEGEN--\":77:93   */\n      returndatasize\n        /* \"--CODEGEN--\":74:75   */\n      0x00\n        /* \"--CODEGEN--\":67:94   */\n      revert\n        /* \"--CODEGEN--\":5:7   */\n    tag_219:\n        /* \"CoreContracts/kalyswap-periphery/KalyswapRouter.sol\":6603:6682  IKalyswapPair(pair).permit(msg.sender, address(this), value, deadline, v, r, s) */\n      pop\n      pop\n      pop\n      pop\n        /* \"CoreContracts/kalyswap-periphery/KalyswapRouter.sol\":6719:6799  removeLiquidityKLC(token, liquidity, amountTokenMin, amountKLCMin, to, deadline) */\n      tag_220\n        /* \"CoreContracts/kalyswap-periphery/KalyswapRouter.sol\":6738:6743  token */\n      dup15\n        /* \"CoreContracts/kalyswap-periphery/KalyswapRouter.sol\":6745:6754  liquidity */\n      dup15\n        /* \"CoreContracts/kalyswap-periphery/KalyswapRouter.sol\":6756:6770  amountTokenMin */\n      dup15\n        /* \"CoreContracts/kalyswap-periphery/KalyswapRouter.sol\":6772:6784  amountKLCMin */\n      dup15\n        /* \"CoreContracts/kalyswap-periphery/KalyswapRouter.sol\":6786:6788  to */\n      dup15\n        /* \"CoreContracts/kalyswap-periphery/KalyswapRouter.sol\":6790:6798  deadline */\n      dup15\n        /* \"CoreContracts/kalyswap-periphery/KalyswapRouter.sol\":6719:6737  removeLiquidityKLC */\n      tag_113\n        /* \"CoreContracts/kalyswap-periphery/KalyswapRouter.sol\":6719:6799  removeLiquidityKLC(token, liquidity, amountTokenMin, amountKLCMin, to, deadline) */\n      jump\t// in\n    tag_220:\n        /* \"CoreContracts/kalyswap-periphery/KalyswapRouter.sol\":6692:6799  (amountToken, amountKLC) = removeLiquidityKLC(token, liquidity, amountTokenMin, amountKLCMin, to, deadline) */\n      swap1\n      swap16\n      swap1\n      swap15\n      pop\n        /* \"CoreContracts/kalyswap-periphery/KalyswapRouter.sol\":6152:6806  function removeLiquidityKLCWithPermit(... */\n      swap13\n      pop\n      pop\n      pop\n      pop\n      pop\n      pop\n      pop\n      pop\n      pop\n      pop\n      pop\n      pop\n      pop\n      jump\t// out\n        /* \"CoreContracts/kalyswap-periphery/KalyswapRouter.sol\":6882:7562  function removeLiquidityKLCSupportingFeeOnTransferTokens(... */\n    tag_61:\n        /* \"CoreContracts/kalyswap-periphery/KalyswapRouter.sol\":7141:7155  uint amountKLC */\n      0x00\n        /* \"CoreContracts/kalyswap-periphery/KalyswapRouter.sol\":7122:7130  deadline */\n      dup2\n        /* \"CoreContracts/kalyswap-periphery/KalyswapRouter.sol\":560:575  block.timestamp */\n      timestamp\n        /* \"CoreContracts/kalyswap-periphery/KalyswapRouter.sol\":548:556  deadline */\n      dup2\n        /* \"CoreContracts/kalyswap-periphery/KalyswapRouter.sol\":548:575  deadline >= block.timestamp */\n      lt\n      iszero\n        /* \"CoreContracts/kalyswap-periphery/KalyswapRouter.sol\":540:603  require(deadline >= block.timestamp, 'KalyswapRouter: EXPIRED') */\n      tag_222\n      jumpi\n      0x40\n      dup1\n      mload\n      shl(0xe5, 0x461bcd)\n      dup2\n      mstore\n      0x20\n      0x04\n      dup3\n      add\n      mstore\n      0x17\n      0x24\n      dup3\n      add\n      mstore\n      0x00\n      dup1\n      mload\n      0x20\n      data_c37a5828941e3f3d234159361fc5f20834c08e197405b7b4d61af4ea6dee60a5\n      dup4\n      codecopy\n      dup2\n      mload\n      swap2\n      mstore\n      0x44\n      dup3\n      add\n      mstore\n      swap1\n      mload\n      swap1\n      dup2\n      swap1\n      sub\n      0x64\n      add\n      swap1\n      revert\n    tag_222:\n        /* \"CoreContracts/kalyswap-periphery/KalyswapRouter.sol\":7183:7371  removeLiquidity(... */\n      tag_224\n        /* \"CoreContracts/kalyswap-periphery/KalyswapRouter.sol\":7212:7217  token */\n      dup9\n        /* \"CoreContracts/kalyswap-periphery/KalyswapRouter.sol\":7231:7235  WKLC */\n      immutable(\"0xe96cc20f241c05b09b05be99fa40d483e0c60480c24cfabd29fea373217f3b30\")\n        /* \"CoreContracts/kalyswap-periphery/KalyswapRouter.sol\":7249:7258  liquidity */\n      dup10\n        /* \"CoreContracts/kalyswap-periphery/KalyswapRouter.sol\":7272:7286  amountTokenMin */\n      dup10\n        /* \"CoreContracts/kalyswap-periphery/KalyswapRouter.sol\":7300:7312  amountKLCMin */\n      dup10\n        /* \"CoreContracts/kalyswap-periphery/KalyswapRouter.sol\":7334:7338  this */\n      address\n        /* \"CoreContracts/kalyswap-periphery/KalyswapRouter.sol\":7353:7361  deadline */\n      dup10\n        /* \"CoreContracts/kalyswap-periphery/KalyswapRouter.sol\":7183:7198  removeLiquidity */\n      tag_152\n        /* \"CoreContracts/kalyswap-periphery/KalyswapRouter.sol\":7183:7371  removeLiquidity(... */\n      jump\t// in\n    tag_224:\n        /* \"CoreContracts/kalyswap-periphery/KalyswapRouter.sol\":7420:7458  IERC20(token).balanceOf(address(this)) */\n      0x40\n      dup1\n      mload\n      shl(0xe0, 0x70a08231)\n      dup2\n      mstore\n        /* \"CoreContracts/kalyswap-periphery/KalyswapRouter.sol\":7452:7456  this */\n      address\n        /* \"CoreContracts/kalyswap-periphery/KalyswapRouter.sol\":7420:7458  IERC20(token).balanceOf(address(this)) */\n      0x04\n      dup3\n      add\n      mstore\n      swap1\n      mload\n        /* \"CoreContracts/kalyswap-periphery/KalyswapRouter.sol\":7167:7371  (, amountKLC) = removeLiquidity(... */\n      swap2\n      swap5\n      pop\n        /* \"CoreContracts/kalyswap-periphery/KalyswapRouter.sol\":7381:7459  TransferHelper.safeTransfer(token, to, IERC20(token).balanceOf(address(this))) */\n      tag_225\n      swap3\n      pop\n        /* \"CoreContracts/kalyswap-periphery/KalyswapRouter.sol\":7409:7414  token */\n      dup11\n      swap2\n        /* \"CoreContracts/kalyswap-periphery/KalyswapRouter.sol\":7416:7418  to */\n      dup8\n      swap2\n      sub(shl(0xa0, 0x01), 0x01)\n        /* \"CoreContracts/kalyswap-periphery/KalyswapRouter.sol\":7420:7443  IERC20(token).balanceOf */\n      dup5\n      and\n      swap2\n      0x70a08231\n      swap2\n        /* \"CoreContracts/kalyswap-periphery/KalyswapRouter.sol\":7420:7458  IERC20(token).balanceOf(address(this)) */\n      0x24\n      dup1\n      dup3\n      add\n      swap3\n      0x20\n      swap3\n      swap1\n      swap2\n      swap1\n      dup3\n      swap1\n      sub\n      add\n      dup2\n        /* \"CoreContracts/kalyswap-periphery/KalyswapRouter.sol\":7420:7443  IERC20(token).balanceOf */\n      dup7\n        /* \"CoreContracts/kalyswap-periphery/KalyswapRouter.sol\":7420:7458  IERC20(token).balanceOf(address(this)) */\n      dup1\n      extcodesize\n      iszero\n        /* \"--CODEGEN--\":2:4   */\n      dup1\n      iszero\n      tag_226\n      jumpi\n        /* \"--CODEGEN--\":27:28   */\n      0x00\n        /* \"--CODEGEN--\":24:25   */\n      dup1\n        /* \"--CODEGEN--\":17:29   */\n      revert\n        /* \"--CODEGEN--\":2:4   */\n    tag_226:\n        /* \"CoreContracts/kalyswap-periphery/KalyswapRouter.sol\":7420:7458  IERC20(token).balanceOf(address(this)) */\n      pop\n      gas\n      staticcall\n      iszero\n        /* \"--CODEGEN--\":8:17   */\n      dup1\n        /* \"--CODEGEN--\":5:7   */\n      iszero\n      tag_228\n      jumpi\n        /* \"--CODEGEN--\":45:61   */\n      returndatasize\n        /* \"--CODEGEN--\":42:43   */\n      0x00\n        /* \"--CODEGEN--\":39:40   */\n      dup1\n        /* \"--CODEGEN--\":24:62   */\n      returndatacopy\n        /* \"--CODEGEN--\":77:93   */\n      returndatasize\n        /* \"--CODEGEN--\":74:75   */\n      0x00\n        /* \"--CODEGEN--\":67:94   */\n      revert\n        /* \"--CODEGEN--\":5:7   */\n    tag_228:\n        /* \"CoreContracts/kalyswap-periphery/KalyswapRouter.sol\":7420:7458  IERC20(token).balanceOf(address(this)) */\n      pop\n      pop\n      pop\n      pop\n      mload(0x40)\n      returndatasize\n        /* \"--CODEGEN--\":15:17   */\n      0x20\n        /* \"--CODEGEN--\":10:13   */\n      dup2\n        /* \"--CODEGEN--\":7:18   */\n      lt\n        /* \"--CODEGEN--\":4:6   */\n      iszero\n      tag_229\n      jumpi\n        /* \"--CODEGEN--\":31:32   */\n      0x00\n        /* \"--CODEGEN--\":28:29   */\n      dup1\n        /* \"--CODEGEN--\":21:33   */\n      revert\n        /* \"--CODEGEN--\":4:6   */\n    tag_229:\n      pop\n        /* \"CoreContracts/kalyswap-periphery/KalyswapRouter.sol\":7420:7458  IERC20(token).balanceOf(address(this)) */\n      mload\n        /* \"CoreContracts/kalyswap-periphery/KalyswapRouter.sol\":7381:7408  TransferHelper.safeTransfer */\n      tag_230\n        /* \"CoreContracts/kalyswap-periphery/KalyswapRouter.sol\":7381:7459  TransferHelper.safeTransfer(token, to, IERC20(token).balanceOf(address(this))) */\n      jump\t// in\n    tag_225:\n        /* \"CoreContracts/kalyswap-periphery/KalyswapRouter.sol\":7475:7479  WKLC */\n      immutable(\"0xe96cc20f241c05b09b05be99fa40d483e0c60480c24cfabd29fea373217f3b30\")\n      sub(shl(0xa0, 0x01), 0x01)\n        /* \"CoreContracts/kalyswap-periphery/KalyswapRouter.sol\":7469:7489  IWKLC(WKLC).withdraw */\n      and\n      0x2e1a7d4d\n        /* \"CoreContracts/kalyswap-periphery/KalyswapRouter.sol\":7490:7499  amountKLC */\n      dup4\n        /* \"CoreContracts/kalyswap-periphery/KalyswapRouter.sol\":7469:7500  IWKLC(WKLC).withdraw(amountKLC) */\n      mload(0x40)\n      dup3\n      0xffffffff\n      and\n      0xe0\n      shl\n      dup2\n      mstore\n      0x04\n      add\n      dup1\n      dup3\n      dup2\n      mstore\n      0x20\n      add\n      swap2\n      pop\n      pop\n      0x00\n      mload(0x40)\n      dup1\n      dup4\n      sub\n      dup2\n      0x00\n      dup8\n      dup1\n      extcodesize\n      iszero\n        /* \"--CODEGEN--\":5:14   */\n      dup1\n        /* \"--CODEGEN--\":2:4   */\n      iszero\n      tag_231\n      jumpi\n        /* \"--CODEGEN--\":27:28   */\n      0x00\n        /* \"--CODEGEN--\":24:25   */\n      dup1\n        /* \"--CODEGEN--\":17:29   */\n      revert\n        /* \"--CODEGEN--\":2:4   */\n    tag_231:\n        /* \"CoreContracts/kalyswap-periphery/KalyswapRouter.sol\":7469:7500  IWKLC(WKLC).withdraw(amountKLC) */\n      pop\n      gas\n      call\n      iszero\n        /* \"--CODEGEN--\":8:17   */\n      dup1\n        /* \"--CODEGEN--\":5:7   */\n      iszero\n      tag_233\n      jumpi\n        /* \"--CODEGEN--\":45:61   */\n      returndatasize\n        /* \"--CODEGEN--\":42:43   */\n      0x00\n        /* \"--CODEGEN--\":39:40   */\n      dup1\n        /* \"--CODEGEN--\":24:62   */\n      returndatacopy\n        /* \"--CODEGEN--\":77:93   */\n      returndatasize\n        /* \"--CODEGEN--\":74:75   */\n      0x00\n        /* \"--CODEGEN--\":67:94   */\n      revert\n        /* \"--CODEGEN--\":5:7   */\n    tag_233:\n        /* \"CoreContracts/kalyswap-periphery/KalyswapRouter.sol\":7469:7500  IWKLC(WKLC).withdraw(amountKLC) */\n      pop\n      pop\n      pop\n      pop\n        /* \"CoreContracts/kalyswap-periphery/KalyswapRouter.sol\":7510:7555  TransferHelper.safeTransferKLC(to, amountKLC) */\n      tag_210\n        /* \"CoreContracts/kalyswap-periphery/KalyswapRouter.sol\":7541:7543  to */\n      dup5\n        /* \"CoreContracts/kalyswap-periphery/KalyswapRouter.sol\":7545:7554  amountKLC */\n      dup4\n        /* \"CoreContracts/kalyswap-periphery/KalyswapRouter.sol\":7510:7540  TransferHelper.safeTransferKLC */\n      tag_212\n        /* \"CoreContracts/kalyswap-periphery/KalyswapRouter.sol\":7510:7555  TransferHelper.safeTransferKLC(to, amountKLC) */\n      jump\t// in\n        /* \"CoreContracts/kalyswap-periphery/KalyswapRouter.sol\":18122:18366  function getAmountsIn(uint amountOut, address[] memory path)... */\n    tag_68:\n        /* \"CoreContracts/kalyswap-periphery/KalyswapRouter.sol\":18261:18282  uint[] memory amounts */\n      0x60\n        /* \"CoreContracts/kalyswap-periphery/KalyswapRouter.sol\":18305:18359  KalyswapLibrary.getAmountsIn(factory, amountOut, path) */\n      tag_236\n        /* \"CoreContracts/kalyswap-periphery/KalyswapRouter.sol\":18334:18341  factory */\n      immutable(\"0x59ec111d9d8ceec2ab223a1d5004f35d19292b31c8f02c623d83a90888216dda\")\n        /* \"CoreContracts/kalyswap-periphery/KalyswapRouter.sol\":18343:18352  amountOut */\n      dup5\n        /* \"CoreContracts/kalyswap-periphery/KalyswapRouter.sol\":18354:18358  path */\n      dup5\n        /* \"CoreContracts/kalyswap-periphery/KalyswapRouter.sol\":18305:18333  KalyswapLibrary.getAmountsIn */\n      tag_193\n        /* \"CoreContracts/kalyswap-periphery/KalyswapRouter.sol\":18305:18359  KalyswapLibrary.getAmountsIn(factory, amountOut, path) */\n      jump\t// in\n    tag_236:\n        /* \"CoreContracts/kalyswap-periphery/KalyswapRouter.sol\":18298:18359  return KalyswapLibrary.getAmountsIn(factory, amountOut, path) */\n      swap1\n      pop\n        /* \"CoreContracts/kalyswap-periphery/KalyswapRouter.sol\":18122:18366  function getAmountsIn(uint amountOut, address[] memory path)... */\n    tag_235:\n      swap3\n      swap2\n      pop\n      pop\n      jump\t// out\n        /* \"CoreContracts/kalyswap-periphery/KalyswapRouter.sol\":5486:6147  function removeLiquidityWithPermit(... */\n    tag_75:\n        /* \"CoreContracts/kalyswap-periphery/KalyswapRouter.sol\":5783:5795  uint amountA */\n      0x00\n        /* \"CoreContracts/kalyswap-periphery/KalyswapRouter.sol\":5797:5809  uint amountB */\n      dup1\n        /* \"CoreContracts/kalyswap-periphery/KalyswapRouter.sol\":5821:5833  address pair */\n      0x00\n        /* \"CoreContracts/kalyswap-periphery/KalyswapRouter.sol\":5836:5884  KalyswapLibrary.pairFor(factory, tokenA, tokenB) */\n      tag_238\n        /* \"CoreContracts/kalyswap-periphery/KalyswapRouter.sol\":5860:5867  factory */\n      immutable(\"0x59ec111d9d8ceec2ab223a1d5004f35d19292b31c8f02c623d83a90888216dda\")\n        /* \"CoreContracts/kalyswap-periphery/KalyswapRouter.sol\":5869:5875  tokenA */\n      dup16\n        /* \"CoreContracts/kalyswap-periphery/KalyswapRouter.sol\":5877:5883  tokenB */\n      dup16\n        /* \"CoreContracts/kalyswap-periphery/KalyswapRouter.sol\":5836:5859  KalyswapLibrary.pairFor */\n      tag_201\n        /* \"CoreContracts/kalyswap-periphery/KalyswapRouter.sol\":5836:5884  KalyswapLibrary.pairFor(factory, tokenA, tokenB) */\n      jump\t// in\n    tag_238:\n        /* \"CoreContracts/kalyswap-periphery/KalyswapRouter.sol\":5821:5884  address pair = KalyswapLibrary.pairFor(factory, tokenA, tokenB) */\n      swap1\n      pop\n        /* \"CoreContracts/kalyswap-periphery/KalyswapRouter.sol\":5894:5904  uint value */\n      0x00\n        /* \"CoreContracts/kalyswap-periphery/KalyswapRouter.sol\":5907:5917  approveMax */\n      dup8\n        /* \"CoreContracts/kalyswap-periphery/KalyswapRouter.sol\":5907:5940  approveMax ? uint(-1) : liquidity */\n      tag_239\n      jumpi\n        /* \"CoreContracts/kalyswap-periphery/KalyswapRouter.sol\":5931:5940  liquidity */\n      dup13\n        /* \"CoreContracts/kalyswap-periphery/KalyswapRouter.sol\":5907:5940  approveMax ? uint(-1) : liquidity */\n      jump(tag_240)\n    tag_239:\n      not(0x00)\n    tag_240:\n        /* \"CoreContracts/kalyswap-periphery/KalyswapRouter.sol\":5950:6029  IKalyswapPair(pair).permit(msg.sender, address(this), value, deadline, v, r, s) */\n      0x40\n      dup1\n      mload\n      shl(0xe0, 0xd505accf)\n      dup2\n      mstore\n        /* \"CoreContracts/kalyswap-periphery/KalyswapRouter.sol\":5977:5987  msg.sender */\n      caller\n        /* \"CoreContracts/kalyswap-periphery/KalyswapRouter.sol\":5950:6029  IKalyswapPair(pair).permit(msg.sender, address(this), value, deadline, v, r, s) */\n      0x04\n      dup3\n      add\n      mstore\n        /* \"CoreContracts/kalyswap-periphery/KalyswapRouter.sol\":5997:6001  this */\n      address\n        /* \"CoreContracts/kalyswap-periphery/KalyswapRouter.sol\":5950:6029  IKalyswapPair(pair).permit(msg.sender, address(this), value, deadline, v, r, s) */\n      0x24\n      dup3\n      add\n      mstore\n      0x44\n      dup2\n      add\n      dup4\n      swap1\n      mstore\n      0x64\n      dup2\n      add\n      dup13\n      swap1\n      mstore\n      0xff\n      dup11\n      and\n      0x84\n      dup3\n      add\n      mstore\n      0xa4\n      dup2\n      add\n      dup10\n      swap1\n      mstore\n      0xc4\n      dup2\n      add\n      dup9\n      swap1\n      mstore\n      swap1\n      mload\n        /* \"CoreContracts/kalyswap-periphery/KalyswapRouter.sol\":5894:5940  uint value = approveMax ? uint(-1) : liquidity */\n      swap2\n      swap3\n      pop\n      sub(shl(0xa0, 0x01), 0x01)\n        /* \"CoreContracts/kalyswap-periphery/KalyswapRouter.sol\":5950:5976  IKalyswapPair(pair).permit */\n      dup5\n      and\n      swap2\n      0xd505accf\n      swap2\n        /* \"CoreContracts/kalyswap-periphery/KalyswapRouter.sol\":5950:6029  IKalyswapPair(pair).permit(msg.sender, address(this), value, deadline, v, r, s) */\n      0xe4\n      dup1\n      dup3\n      add\n      swap3\n      0x00\n      swap3\n      swap1\n      swap2\n      swap1\n      dup3\n      swap1\n      sub\n      add\n      dup2\n      dup4\n        /* \"CoreContracts/kalyswap-periphery/KalyswapRouter.sol\":5950:5976  IKalyswapPair(pair).permit */\n      dup8\n        /* \"CoreContracts/kalyswap-periphery/KalyswapRouter.sol\":5950:6029  IKalyswapPair(pair).permit(msg.sender, address(this), value, deadline, v, r, s) */\n      dup1\n      extcodesize\n      iszero\n        /* \"--CODEGEN--\":2:4   */\n      dup1\n      iszero\n      tag_241\n      jumpi\n        /* \"--CODEGEN--\":27:28   */\n      0x00\n        /* \"--CODEGEN--\":24:25   */\n      dup1\n        /* \"--CODEGEN--\":17:29   */\n      revert\n        /* \"--CODEGEN--\":2:4   */\n    tag_241:\n        /* \"CoreContracts/kalyswap-periphery/KalyswapRouter.sol\":5950:6029  IKalyswapPair(pair).permit(msg.sender, address(this), value, deadline, v, r, s) */\n      pop\n      gas\n      call\n      iszero\n        /* \"--CODEGEN--\":8:17   */\n      dup1\n        /* \"--CODEGEN--\":5:7   */\n      iszero\n      tag_243\n      jumpi\n        /* \"--CODEGEN--\":45:61   */\n      returndatasize\n        /* \"--CODEGEN--\":42:43   */\n      0x00\n        /* \"--CODEGEN--\":39:40   */\n      dup1\n        /* \"--CODEGEN--\":24:62   */\n      returndatacopy\n        /* \"--CODEGEN--\":77:93   */\n      returndatasize\n        /* \"--CODEGEN--\":74:75   */\n      0x00\n        /* \"--CODEGEN--\":67:94   */\n      revert\n        /* \"--CODEGEN--\":5:7   */\n    tag_243:\n        /* \"CoreContracts/kalyswap-periphery/KalyswapRouter.sol\":5950:6029  IKalyswapPair(pair).permit(msg.sender, address(this), value, deadline, v, r, s) */\n      pop\n      pop\n      pop\n      pop\n        /* \"CoreContracts/kalyswap-periphery/KalyswapRouter.sol\":6060:6140  removeLiquidity(tokenA, tokenB, liquidity, amountAMin, amountBMin, to, deadline) */\n      tag_244\n        /* \"CoreContracts/kalyswap-periphery/KalyswapRouter.sol\":6076:6082  tokenA */\n      dup16\n        /* \"CoreContracts/kalyswap-periphery/KalyswapRouter.sol\":6084:6090  tokenB */\n      dup16\n        /* \"CoreContracts/kalyswap-periphery/KalyswapRouter.sol\":6092:6101  liquidity */\n      dup16\n        /* \"CoreContracts/kalyswap-periphery/KalyswapRouter.sol\":6103:6113  amountAMin */\n      dup16\n        /* \"CoreContracts/kalyswap-periphery/KalyswapRouter.sol\":6115:6125  amountBMin */\n      dup16\n        /* \"CoreContracts/kalyswap-periphery/KalyswapRouter.sol\":6127:6129  to */\n      dup16\n        /* \"CoreContracts/kalyswap-periphery/KalyswapRouter.sol\":6131:6139  deadline */\n      dup16\n        /* \"CoreContracts/kalyswap-periphery/KalyswapRouter.sol\":6060:6075  removeLiquidity */\n      tag_152\n        /* \"CoreContracts/kalyswap-periphery/KalyswapRouter.sol\":6060:6140  removeLiquidity(tokenA, tokenB, liquidity, amountAMin, amountBMin, to, deadline) */\n      jump\t// in\n    tag_244:\n        /* \"CoreContracts/kalyswap-periphery/KalyswapRouter.sol\":6039:6140  (amountA, amountB) = removeLiquidity(tokenA, tokenB, liquidity, amountAMin, amountBMin, to, deadline) */\n      dup1\n      swap5\n      pop\n      dup2\n      swap6\n      pop\n      pop\n      pop\n        /* \"CoreContracts/kalyswap-periphery/KalyswapRouter.sol\":5486:6147  function removeLiquidityWithPermit(... */\n      pop\n      pop\n      swap12\n      pop\n      swap12\n      swap10\n      pop\n      pop\n      pop\n      pop\n      pop\n      pop\n      pop\n      pop\n      pop\n      pop\n      jump\t// out\n        /* \"CoreContracts/kalyswap-periphery/KalyswapRouter.sol\":9100:9712  function swapExactTokensForTokens(... */\n    tag_82:\n        /* \"CoreContracts/kalyswap-periphery/KalyswapRouter.sol\":9318:9339  uint[] memory amounts */\n      0x60\n        /* \"CoreContracts/kalyswap-periphery/KalyswapRouter.sol\":9299:9307  deadline */\n      dup2\n        /* \"CoreContracts/kalyswap-periphery/KalyswapRouter.sol\":560:575  block.timestamp */\n      timestamp\n        /* \"CoreContracts/kalyswap-periphery/KalyswapRouter.sol\":548:556  deadline */\n      dup2\n        /* \"CoreContracts/kalyswap-periphery/KalyswapRouter.sol\":548:575  deadline >= block.timestamp */\n      lt\n      iszero\n        /* \"CoreContracts/kalyswap-periphery/KalyswapRouter.sol\":540:603  require(deadline >= block.timestamp, 'KalyswapRouter: EXPIRED') */\n      tag_246\n      jumpi\n      0x40\n      dup1\n      mload\n      shl(0xe5, 0x461bcd)\n      dup2\n      mstore\n      0x20\n      0x04\n      dup3\n      add\n      mstore\n      0x17\n      0x24\n      dup3\n      add\n      mstore\n      0x00\n      dup1\n      mload\n      0x20\n      data_c37a5828941e3f3d234159361fc5f20834c08e197405b7b4d61af4ea6dee60a5\n      dup4\n      codecopy\n      dup2\n      mload\n      swap2\n      mstore\n      0x44\n      dup3\n      add\n      mstore\n      swap1\n      mload\n      swap1\n      dup2\n      swap1\n      sub\n      0x64\n      add\n      swap1\n      revert\n    tag_246:\n        /* \"CoreContracts/kalyswap-periphery/KalyswapRouter.sol\":9361:9415  KalyswapLibrary.getAmountsOut(factory, amountIn, path) */\n      tag_248\n        /* \"CoreContracts/kalyswap-periphery/KalyswapRouter.sol\":9391:9398  factory */\n      immutable(\"0x59ec111d9d8ceec2ab223a1d5004f35d19292b31c8f02c623d83a90888216dda\")\n        /* \"CoreContracts/kalyswap-periphery/KalyswapRouter.sol\":9400:9408  amountIn */\n      dup10\n        /* \"CoreContracts/kalyswap-periphery/KalyswapRouter.sol\":9410:9414  path */\n      dup9\n      dup9\n        /* \"CoreContracts/kalyswap-periphery/KalyswapRouter.sol\":9361:9415  KalyswapLibrary.getAmountsOut(factory, amountIn, path) */\n      dup1\n      dup1\n      0x20\n      mul\n      0x20\n      add\n      mload(0x40)\n      swap1\n      dup2\n      add\n      0x40\n      mstore\n      dup1\n      swap4\n      swap3\n      swap2\n      swap1\n      dup2\n      dup2\n      mstore\n      0x20\n      add\n      dup4\n      dup4\n      0x20\n      mul\n        /* \"--CODEGEN--\":30:33   */\n      dup1\n        /* \"--CODEGEN--\":22:28   */\n      dup3\n        /* \"--CODEGEN--\":14:20   */\n      dup5\n        /* \"--CODEGEN--\":1:34   */\n      calldatacopy\n        /* \"--CODEGEN--\":99:100   */\n      0x00\n        /* \"--CODEGEN--\":81:97   */\n      swap3\n      add\n        /* \"--CODEGEN--\":74:101   */\n      swap2\n      swap1\n      swap2\n      mstore\n      pop\n        /* \"CoreContracts/kalyswap-periphery/KalyswapRouter.sol\":9361:9390  KalyswapLibrary.getAmountsOut */\n      tag_249\n      swap3\n      pop\n      pop\n      pop\n        /* \"CoreContracts/kalyswap-periphery/KalyswapRouter.sol\":9361:9415  KalyswapLibrary.getAmountsOut(factory, amountIn, path) */\n      jump\t// in\n    tag_248:\n        /* \"CoreContracts/kalyswap-periphery/KalyswapRouter.sol\":9351:9415  amounts = KalyswapLibrary.getAmountsOut(factory, amountIn, path) */\n      swap2\n      pop\n        /* \"CoreContracts/kalyswap-periphery/KalyswapRouter.sol\":9464:9476  amountOutMin */\n      dup7\n        /* \"CoreContracts/kalyswap-periphery/KalyswapRouter.sol\":9433:9440  amounts */\n      dup3\n        /* \"CoreContracts/kalyswap-periphery/KalyswapRouter.sol\":9458:9459  1 */\n      0x01\n        /* \"CoreContracts/kalyswap-periphery/KalyswapRouter.sol\":9441:9448  amounts */\n      dup5\n        /* \"CoreContracts/kalyswap-periphery/KalyswapRouter.sol\":9441:9455  amounts.length */\n      mload\n        /* \"CoreContracts/kalyswap-periphery/KalyswapRouter.sol\":9441:9459  amounts.length - 1 */\n      sub\n        /* \"CoreContracts/kalyswap-periphery/KalyswapRouter.sol\":9433:9460  amounts[amounts.length - 1] */\n      dup2\n      mload\n      dup2\n      lt\n      tag_250\n      jumpi\n      invalid\n    tag_250:\n      0x20\n      mul\n      0x20\n      add\n      add\n      mload\n        /* \"CoreContracts/kalyswap-periphery/KalyswapRouter.sol\":9433:9476  amounts[amounts.length - 1] >= amountOutMin */\n      lt\n      iszero\n        /* \"CoreContracts/kalyswap-periphery/KalyswapRouter.sol\":9425:9523  require(amounts[amounts.length - 1] >= amountOutMin, 'KalyswapRouter: INSUFFICIENT_OUTPUT_AMOUNT') */\n      tag_251\n      jumpi\n      mload(0x40)\n      shl(0xe5, 0x461bcd)\n      dup2\n      mstore\n      0x04\n      add\n      dup1\n      dup1\n      0x20\n      add\n      dup3\n      dup2\n      sub\n      dup3\n      mstore\n      0x2a\n      dup2\n      mstore\n      0x20\n      add\n      dup1\n      data_69424968b2f941cdfb32abf1c018d39f661402aca14098785e89d085b08f7f30\n      0x2a\n      swap2\n      codecopy\n      0x40\n      add\n      swap2\n      pop\n      pop\n      mload(0x40)\n      dup1\n      swap2\n      sub\n      swap1\n      revert\n    tag_251:\n        /* \"CoreContracts/kalyswap-periphery/KalyswapRouter.sol\":9533:9671  TransferHelper.safeTransferFrom(... */\n      tag_252\n        /* \"CoreContracts/kalyswap-periphery/KalyswapRouter.sol\":9578:9582  path */\n      dup7\n      dup7\n        /* \"CoreContracts/kalyswap-periphery/KalyswapRouter.sol\":9583:9584  0 */\n      0x00\n        /* \"CoreContracts/kalyswap-periphery/KalyswapRouter.sol\":9578:9585  path[0] */\n      dup2\n      dup2\n      lt\n      tag_197\n      jumpi\n      invalid\n        /* \"CoreContracts/kalyswap-periphery/KalyswapRouter.sol\":9533:9671  TransferHelper.safeTransferFrom(... */\n    tag_252:\n        /* \"CoreContracts/kalyswap-periphery/KalyswapRouter.sol\":9681:9705  _swap(amounts, path, to) */\n      tag_210\n        /* \"CoreContracts/kalyswap-periphery/KalyswapRouter.sol\":9687:9694  amounts */\n      dup3\n        /* \"CoreContracts/kalyswap-periphery/KalyswapRouter.sol\":9696:9700  path */\n      dup8\n      dup8\n        /* \"CoreContracts/kalyswap-periphery/KalyswapRouter.sol\":9681:9705  _swap(amounts, path, to) */\n      dup1\n      dup1\n      0x20\n      mul\n      0x20\n      add\n      mload(0x40)\n      swap1\n      dup2\n      add\n      0x40\n      mstore\n      dup1\n      swap4\n      swap3\n      swap2\n      swap1\n      dup2\n      dup2\n      mstore\n      0x20\n      add\n      dup4\n      dup4\n      0x20\n      mul\n        /* \"--CODEGEN--\":30:33   */\n      dup1\n        /* \"--CODEGEN--\":22:28   */\n      dup3\n        /* \"--CODEGEN--\":14:20   */\n      dup5\n        /* \"--CODEGEN--\":1:34   */\n      calldatacopy\n        /* \"--CODEGEN--\":99:100   */\n      0x00\n        /* \"--CODEGEN--\":81:97   */\n      swap3\n      add\n        /* \"--CODEGEN--\":74:101   */\n      swap2\n      swap1\n      swap2\n      mstore\n      pop\n        /* \"CoreContracts/kalyswap-periphery/KalyswapRouter.sol\":9702:9704  to */\n      dup10\n      swap3\n      pop\n        /* \"CoreContracts/kalyswap-periphery/KalyswapRouter.sol\":9681:9686  _swap */\n      tag_205\n      swap2\n      pop\n      pop\n        /* \"CoreContracts/kalyswap-periphery/KalyswapRouter.sol\":9681:9705  _swap(amounts, path, to) */\n      jump\t// in\n        /* \"CoreContracts/kalyswap-periphery/KalyswapRouter.sol\":14773:15469  function swapExactTokensForTokensSupportingFeeOnTransferTokens(... */\n    tag_92:\n        /* \"CoreContracts/kalyswap-periphery/KalyswapRouter.sol\":15001:15009  deadline */\n      dup1\n        /* \"CoreContracts/kalyswap-periphery/KalyswapRouter.sol\":560:575  block.timestamp */\n      timestamp\n        /* \"CoreContracts/kalyswap-periphery/KalyswapRouter.sol\":548:556  deadline */\n      dup2\n        /* \"CoreContracts/kalyswap-periphery/KalyswapRouter.sol\":548:575  deadline >= block.timestamp */\n      lt\n      iszero\n        /* \"CoreContracts/kalyswap-periphery/KalyswapRouter.sol\":540:603  require(deadline >= block.timestamp, 'KalyswapRouter: EXPIRED') */\n      tag_260\n      jumpi\n      0x40\n      dup1\n      mload\n      shl(0xe5, 0x461bcd)\n      dup2\n      mstore\n      0x20\n      0x04\n      dup3\n      add\n      mstore\n      0x17\n      0x24\n      dup3\n      add\n      mstore\n      0x00\n      dup1\n      mload\n      0x20\n      data_c37a5828941e3f3d234159361fc5f20834c08e197405b7b4d61af4ea6dee60a5\n      dup4\n      codecopy\n      dup2\n      mload\n      swap2\n      mstore\n      0x44\n      dup3\n      add\n      mstore\n      swap1\n      mload\n      swap1\n      dup2\n      swap1\n      sub\n      0x64\n      add\n      swap1\n      revert\n    tag_260:\n        /* \"CoreContracts/kalyswap-periphery/KalyswapRouter.sol\":15021:15157  TransferHelper.safeTransferFrom(... */\n      tag_262\n        /* \"CoreContracts/kalyswap-periphery/KalyswapRouter.sol\":15066:15070  path */\n      dup6\n      dup6\n        /* \"CoreContracts/kalyswap-periphery/KalyswapRouter.sol\":15071:15072  0 */\n      0x00\n        /* \"CoreContracts/kalyswap-periphery/KalyswapRouter.sol\":15066:15073  path[0] */\n      dup2\n      dup2\n      lt\n      tag_263\n      jumpi\n      invalid\n    tag_263:\n      swap1\n      pop\n      0x20\n      mul\n      add\n      calldataload\n      sub(shl(0xa0, 0x01), 0x01)\n      and\n        /* \"CoreContracts/kalyswap-periphery/KalyswapRouter.sol\":15075:15085  msg.sender */\n      caller\n        /* \"CoreContracts/kalyswap-periphery/KalyswapRouter.sol\":15087:15137  KalyswapLibrary.pairFor(factory, path[0], path[1]) */\n      tag_264\n        /* \"CoreContracts/kalyswap-periphery/KalyswapRouter.sol\":15111:15118  factory */\n      immutable(\"0x59ec111d9d8ceec2ab223a1d5004f35d19292b31c8f02c623d83a90888216dda\")\n        /* \"CoreContracts/kalyswap-periphery/KalyswapRouter.sol\":15120:15124  path */\n      dup10\n      dup10\n        /* \"CoreContracts/kalyswap-periphery/KalyswapRouter.sol\":15125:15126  0 */\n      0x00\n        /* \"CoreContracts/kalyswap-periphery/KalyswapRouter.sol\":15120:15127  path[0] */\n      dup2\n      dup2\n      lt\n      tag_265\n      jumpi\n      invalid\n    tag_265:\n      swap1\n      pop\n      0x20\n      mul\n      add\n      calldataload\n      sub(shl(0xa0, 0x01), 0x01)\n      and\n        /* \"CoreContracts/kalyswap-periphery/KalyswapRouter.sol\":15129:15133  path */\n      dup11\n      dup11\n        /* \"CoreContracts/kalyswap-periphery/KalyswapRouter.sol\":15134:15135  1 */\n      0x01\n        /* \"CoreContracts/kalyswap-periphery/KalyswapRouter.sol\":15129:15136  path[1] */\n      dup2\n      dup2\n      lt\n      tag_200\n      jumpi\n      invalid\n        /* \"CoreContracts/kalyswap-periphery/KalyswapRouter.sol\":15087:15137  KalyswapLibrary.pairFor(factory, path[0], path[1]) */\n    tag_264:\n        /* \"CoreContracts/kalyswap-periphery/KalyswapRouter.sol\":15139:15147  amountIn */\n      dup11\n        /* \"CoreContracts/kalyswap-periphery/KalyswapRouter.sol\":15021:15052  TransferHelper.safeTransferFrom */\n      tag_203\n        /* \"CoreContracts/kalyswap-periphery/KalyswapRouter.sol\":15021:15157  TransferHelper.safeTransferFrom(... */\n      jump\t// in\n    tag_262:\n        /* \"CoreContracts/kalyswap-periphery/KalyswapRouter.sol\":15167:15185  uint balanceBefore */\n      0x00\n        /* \"CoreContracts/kalyswap-periphery/KalyswapRouter.sol\":15195:15199  path */\n      dup6\n      dup6\n      not(0x00)\n        /* \"CoreContracts/kalyswap-periphery/KalyswapRouter.sol\":15200:15215  path.length - 1 */\n      dup2\n      add\n        /* \"CoreContracts/kalyswap-periphery/KalyswapRouter.sol\":15195:15216  path[path.length - 1] */\n      dup2\n      dup2\n      lt\n      tag_267\n      jumpi\n      invalid\n    tag_267:\n      swap1\n      pop\n      0x20\n      mul\n      add\n      calldataload\n      sub(shl(0xa0, 0x01), 0x01)\n      and\n      sub(shl(0xa0, 0x01), 0x01)\n        /* \"CoreContracts/kalyswap-periphery/KalyswapRouter.sol\":15188:15227  IERC20(path[path.length - 1]).balanceOf */\n      and\n      0x70a08231\n        /* \"CoreContracts/kalyswap-periphery/KalyswapRouter.sol\":15228:15230  to */\n      dup6\n        /* \"CoreContracts/kalyswap-periphery/KalyswapRouter.sol\":15188:15231  IERC20(path[path.length - 1]).balanceOf(to) */\n      mload(0x40)\n      dup3\n      0xffffffff\n      and\n      0xe0\n      shl\n      dup2\n      mstore\n      0x04\n      add\n      dup1\n      dup3\n      sub(shl(0xa0, 0x01), 0x01)\n      and\n      sub(shl(0xa0, 0x01), 0x01)\n      and\n      dup2\n      mstore\n      0x20\n      add\n      swap2\n      pop\n      pop\n      0x20\n      mload(0x40)\n      dup1\n      dup4\n      sub\n      dup2\n      dup7\n      dup1\n      extcodesize\n      iszero\n        /* \"--CODEGEN--\":5:14   */\n      dup1\n        /* \"--CODEGEN--\":2:4   */\n      iszero\n      tag_268\n      jumpi\n        /* \"--CODEGEN--\":27:28   */\n      0x00\n        /* \"--CODEGEN--\":24:25   */\n      dup1\n        /* \"--CODEGEN--\":17:29   */\n      revert\n        /* \"--CODEGEN--\":2:4   */\n    tag_268:\n        /* \"CoreContracts/kalyswap-periphery/KalyswapRouter.sol\":15188:15231  IERC20(path[path.length - 1]).balanceOf(to) */\n      pop\n      gas\n      staticcall\n      iszero\n        /* \"--CODEGEN--\":8:17   */\n      dup1\n        /* \"--CODEGEN--\":5:7   */\n      iszero\n      tag_270\n      jumpi\n        /* \"--CODEGEN--\":45:61   */\n      returndatasize\n        /* \"--CODEGEN--\":42:43   */\n      0x00\n        /* \"--CODEGEN--\":39:40   */\n      dup1\n        /* \"--CODEGEN--\":24:62   */\n      returndatacopy\n        /* \"--CODEGEN--\":77:93   */\n      returndatasize\n        /* \"--CODEGEN--\":74:75   */\n      0x00\n        /* \"--CODEGEN--\":67:94   */\n      revert\n        /* \"--CODEGEN--\":5:7   */\n    tag_270:\n        /* \"CoreContracts/kalyswap-periphery/KalyswapRouter.sol\":15188:15231  IERC20(path[path.length - 1]).balanceOf(to) */\n      pop\n      pop\n      pop\n      pop\n      mload(0x40)\n      returndatasize\n        /* \"--CODEGEN--\":15:17   */\n      0x20\n        /* \"--CODEGEN--\":10:13   */\n      dup2\n        /* \"--CODEGEN--\":7:18   */\n      lt\n        /* \"--CODEGEN--\":4:6   */\n      iszero\n      tag_271\n      jumpi\n        /* \"--CODEGEN--\":31:32   */\n      0x00\n        /* \"--CODEGEN--\":28:29   */\n      dup1\n        /* \"--CODEGEN--\":21:33   */\n      revert\n        /* \"--CODEGEN--\":4:6   */\n    tag_271:\n      pop\n        /* \"CoreContracts/kalyswap-periphery/KalyswapRouter.sol\":15188:15231  IERC20(path[path.length - 1]).balanceOf(to) */\n      mload\n        /* \"CoreContracts/kalyswap-periphery/KalyswapRouter.sol\":15241:15285  _swapSupportingFeeOnTransferTokens(path, to) */\n      0x40\n      dup1\n      mload\n        /* \"CoreContracts/kalyswap-periphery/KalyswapRouter.sol\":15188:15231  IERC20(path[path.length - 1]).balanceOf(to) */\n      0x20\n        /* \"CoreContracts/kalyswap-periphery/KalyswapRouter.sol\":15241:15285  _swapSupportingFeeOnTransferTokens(path, to) */\n      dup9\n      dup2\n      mul\n      dup3\n      dup2\n      add\n      dup3\n      add\n      swap1\n      swap4\n      mstore\n      dup9\n      dup3\n      mstore\n        /* \"CoreContracts/kalyswap-periphery/KalyswapRouter.sol\":15188:15231  IERC20(path[path.length - 1]).balanceOf(to) */\n      swap3\n      swap4\n      pop\n        /* \"CoreContracts/kalyswap-periphery/KalyswapRouter.sol\":15241:15285  _swapSupportingFeeOnTransferTokens(path, to) */\n      tag_272\n      swap3\n      swap1\n      swap2\n        /* \"CoreContracts/kalyswap-periphery/KalyswapRouter.sol\":15276:15280  path */\n      dup10\n      swap2\n      dup10\n      swap2\n      dup3\n      swap2\n        /* \"CoreContracts/kalyswap-periphery/KalyswapRouter.sol\":15241:15285  _swapSupportingFeeOnTransferTokens(path, to) */\n      dup6\n      add\n      swap1\n        /* \"CoreContracts/kalyswap-periphery/KalyswapRouter.sol\":15276:15280  path */\n      dup5\n      swap1\n        /* \"CoreContracts/kalyswap-periphery/KalyswapRouter.sol\":15241:15285  _swapSupportingFeeOnTransferTokens(path, to) */\n      dup1\n        /* \"CoreContracts/kalyswap-periphery/KalyswapRouter.sol\":15276:15280  path */\n      dup3\n        /* \"CoreContracts/kalyswap-periphery/KalyswapRouter.sol\":15241:15285  _swapSupportingFeeOnTransferTokens(path, to) */\n      dup5\n        /* \"--CODEGEN--\":1:34   */\n      calldatacopy\n        /* \"--CODEGEN--\":99:100   */\n      0x00\n        /* \"--CODEGEN--\":81:97   */\n      swap3\n      add\n        /* \"--CODEGEN--\":74:101   */\n      swap2\n      swap1\n      swap2\n      mstore\n      pop\n        /* \"CoreContracts/kalyswap-periphery/KalyswapRouter.sol\":15282:15284  to */\n      dup9\n      swap3\n      pop\n        /* \"CoreContracts/kalyswap-periphery/KalyswapRouter.sol\":15241:15275  _swapSupportingFeeOnTransferTokens */\n      tag_273\n      swap2\n      pop\n      pop\n        /* \"CoreContracts/kalyswap-periphery/KalyswapRouter.sol\":15241:15285  _swapSupportingFeeOnTransferTokens(path, to) */\n      jump\t// in\n    tag_272:\n        /* \"CoreContracts/kalyswap-periphery/KalyswapRouter.sol\":15382:15394  amountOutMin */\n      dup7\n        /* \"CoreContracts/kalyswap-periphery/KalyswapRouter.sol\":15316:15378  IERC20(path[path.length - 1]).balanceOf(to).sub(balanceBefore) */\n      tag_274\n        /* \"CoreContracts/kalyswap-periphery/KalyswapRouter.sol\":15364:15377  balanceBefore */\n      dup3\n        /* \"CoreContracts/kalyswap-periphery/KalyswapRouter.sol\":15323:15327  path */\n      dup9\n      dup9\n      not(0x00)\n        /* \"CoreContracts/kalyswap-periphery/KalyswapRouter.sol\":15328:15343  path.length - 1 */\n      dup2\n      add\n        /* \"CoreContracts/kalyswap-periphery/KalyswapRouter.sol\":15323:15344  path[path.length - 1] */\n      dup2\n      dup2\n      lt\n      tag_275\n      jumpi\n      invalid\n    tag_275:\n      swap1\n      pop\n      0x20\n      mul\n      add\n      calldataload\n      sub(shl(0xa0, 0x01), 0x01)\n      and\n      sub(shl(0xa0, 0x01), 0x01)\n        /* \"CoreContracts/kalyswap-periphery/KalyswapRouter.sol\":15316:15355  IERC20(path[path.length - 1]).balanceOf */\n      and\n      0x70a08231\n        /* \"CoreContracts/kalyswap-periphery/KalyswapRouter.sol\":15356:15358  to */\n      dup9\n        /* \"CoreContracts/kalyswap-periphery/KalyswapRouter.sol\":15316:15359  IERC20(path[path.length - 1]).balanceOf(to) */\n      mload(0x40)\n      dup3\n      0xffffffff\n      and\n      0xe0\n      shl\n      dup2\n      mstore\n      0x04\n      add\n      dup1\n      dup3\n      sub(shl(0xa0, 0x01), 0x01)\n      and\n      sub(shl(0xa0, 0x01), 0x01)\n      and\n      dup2\n      mstore\n      0x20\n      add\n      swap2\n      pop\n      pop\n      0x20\n      mload(0x40)\n      dup1\n      dup4\n      sub\n      dup2\n      dup7\n      dup1\n      extcodesize\n      iszero\n        /* \"--CODEGEN--\":5:14   */\n      dup1\n        /* \"--CODEGEN--\":2:4   */\n      iszero\n      tag_276\n      jumpi\n        /* \"--CODEGEN--\":27:28   */\n      0x00\n        /* \"--CODEGEN--\":24:25   */\n      dup1\n        /* \"--CODEGEN--\":17:29   */\n      revert\n        /* \"--CODEGEN--\":2:4   */\n    tag_276:\n        /* \"CoreContracts/kalyswap-periphery/KalyswapRouter.sol\":15316:15359  IERC20(path[path.length - 1]).balanceOf(to) */\n      pop\n      gas\n      staticcall\n      iszero\n        /* \"--CODEGEN--\":8:17   */\n      dup1\n        /* \"--CODEGEN--\":5:7   */\n      iszero\n      tag_278\n      jumpi\n        /* \"--CODEGEN--\":45:61   */\n      returndatasize\n        /* \"--CODEGEN--\":42:43   */\n      0x00\n        /* \"--CODEGEN--\":39:40   */\n      dup1\n        /* \"--CODEGEN--\":24:62   */\n      returndatacopy\n        /* \"--CODEGEN--\":77:93   */\n      returndatasize\n        /* \"--CODEGEN--\":74:75   */\n      0x00\n        /* \"--CODEGEN--\":67:94   */\n      revert\n        /* \"--CODEGEN--\":5:7   */\n    tag_278:\n        /* \"CoreContracts/kalyswap-periphery/KalyswapRouter.sol\":15316:15359  IERC20(path[path.length - 1]).balanceOf(to) */\n      pop\n      pop\n      pop\n      pop\n      mload(0x40)\n      returndatasize\n        /* \"--CODEGEN--\":15:17   */\n      0x20\n        /* \"--CODEGEN--\":10:13   */\n      dup2\n        /* \"--CODEGEN--\":7:18   */\n      lt\n        /* \"--CODEGEN--\":4:6   */\n      iszero\n      tag_279\n      jumpi\n        /* \"--CODEGEN--\":31:32   */\n      0x00\n        /* \"--CODEGEN--\":28:29   */\n      dup1\n        /* \"--CODEGEN--\":21:33   */\n      revert\n        /* \"--CODEGEN--\":4:6   */\n    tag_279:\n      pop\n        /* \"CoreContracts/kalyswap-periphery/KalyswapRouter.sol\":15316:15359  IERC20(path[path.length - 1]).balanceOf(to) */\n      mload\n      swap1\n        /* \"CoreContracts/kalyswap-periphery/KalyswapRouter.sol\":15316:15378  IERC20(path[path.length - 1]).balanceOf(to).sub(balanceBefore) */\n      0xffffffff\n        /* \"CoreContracts/kalyswap-periphery/KalyswapRouter.sol\":15316:15363  IERC20(path[path.length - 1]).balanceOf(to).sub */\n      tag_280\n        /* \"CoreContracts/kalyswap-periphery/KalyswapRouter.sol\":15316:15378  IERC20(path[path.length - 1]).balanceOf(to).sub(balanceBefore) */\n      and\n      jump\t// in\n    tag_274:\n        /* \"CoreContracts/kalyswap-periphery/KalyswapRouter.sol\":15316:15394  IERC20(path[path.length - 1]).balanceOf(to).sub(balanceBefore) >= amountOutMin */\n      lt\n      iszero\n        /* \"CoreContracts/kalyswap-periphery/KalyswapRouter.sol\":15295:15462  require(... */\n      tag_281\n      jumpi\n      mload(0x40)\n      shl(0xe5, 0x461bcd)\n      dup2\n      mstore\n      0x04\n      add\n      dup1\n      dup1\n      0x20\n      add\n      dup3\n      dup2\n      sub\n      dup3\n      mstore\n      0x2a\n      dup2\n      mstore\n      0x20\n      add\n      dup1\n      data_69424968b2f941cdfb32abf1c018d39f661402aca14098785e89d085b08f7f30\n      0x2a\n      swap2\n      codecopy\n      0x40\n      add\n      swap2\n      pop\n      pop\n      mload(0x40)\n      dup1\n      swap2\n      sub\n      swap1\n      revert\n    tag_281:\n        /* \"CoreContracts/kalyswap-periphery/KalyswapRouter.sol\":613:614  _ */\n      pop\n        /* \"CoreContracts/kalyswap-periphery/KalyswapRouter.sol\":14773:15469  function swapExactTokensForTokensSupportingFeeOnTransferTokens(... */\n      pop\n      pop\n      pop\n      pop\n      pop\n      pop\n      pop\n      jump\t// out\n        /* \"CoreContracts/kalyswap-periphery/KalyswapRouter.sol\":2991:3940  function addLiquidityKLC(... */\n    tag_95:\n        /* \"CoreContracts/kalyswap-periphery/KalyswapRouter.sol\":3237:3253  uint amountToken */\n      0x00\n        /* \"CoreContracts/kalyswap-periphery/KalyswapRouter.sol\":3255:3269  uint amountKLC */\n      dup1\n        /* \"CoreContracts/kalyswap-periphery/KalyswapRouter.sol\":3271:3285  uint liquidity */\n      0x00\n        /* \"CoreContracts/kalyswap-periphery/KalyswapRouter.sol\":3218:3226  deadline */\n      dup4\n        /* \"CoreContracts/kalyswap-periphery/KalyswapRouter.sol\":560:575  block.timestamp */\n      timestamp\n        /* \"CoreContracts/kalyswap-periphery/KalyswapRouter.sol\":548:556  deadline */\n      dup2\n        /* \"CoreContracts/kalyswap-periphery/KalyswapRouter.sol\":548:575  deadline >= block.timestamp */\n      lt\n      iszero\n        /* \"CoreContracts/kalyswap-periphery/KalyswapRouter.sol\":540:603  require(deadline >= block.timestamp, 'KalyswapRouter: EXPIRED') */\n      tag_283\n      jumpi\n      0x40\n      dup1\n      mload\n      shl(0xe5, 0x461bcd)\n      dup2\n      mstore\n      0x20\n      0x04\n      dup3\n      add\n      mstore\n      0x17\n      0x24\n      dup3\n      add\n      mstore\n      0x00\n      dup1\n      mload\n      0x20\n      data_c37a5828941e3f3d234159361fc5f20834c08e197405b7b4d61af4ea6dee60a5\n      dup4\n      codecopy\n      dup2\n      mload\n      swap2\n      mstore\n      0x44\n      dup3\n      add\n      mstore\n      swap1\n      mload\n      swap1\n      dup2\n      swap1\n      sub\n      0x64\n      add\n      swap1\n      revert\n    tag_283:\n        /* \"CoreContracts/kalyswap-periphery/KalyswapRouter.sol\":3324:3493  _addLiquidity(... */\n      tag_285\n        /* \"CoreContracts/kalyswap-periphery/KalyswapRouter.sol\":3351:3356  token */\n      dup11\n        /* \"CoreContracts/kalyswap-periphery/KalyswapRouter.sol\":3370:3374  WKLC */\n      immutable(\"0xe96cc20f241c05b09b05be99fa40d483e0c60480c24cfabd29fea373217f3b30\")\n        /* \"CoreContracts/kalyswap-periphery/KalyswapRouter.sol\":3388:3406  amountTokenDesired */\n      dup12\n        /* \"CoreContracts/kalyswap-periphery/KalyswapRouter.sol\":3420:3429  msg.value */\n      callvalue\n        /* \"CoreContracts/kalyswap-periphery/KalyswapRouter.sol\":3443:3457  amountTokenMin */\n      dup13\n        /* \"CoreContracts/kalyswap-periphery/KalyswapRouter.sol\":3471:3483  amountKLCMin */\n      dup13\n        /* \"CoreContracts/kalyswap-periphery/KalyswapRouter.sol\":3324:3337  _addLiquidity */\n      tag_286\n        /* \"CoreContracts/kalyswap-periphery/KalyswapRouter.sol\":3324:3493  _addLiquidity(... */\n      jump\t// in\n    tag_285:\n        /* \"CoreContracts/kalyswap-periphery/KalyswapRouter.sol\":3297:3493  (amountToken, amountKLC) = _addLiquidity(... */\n      swap1\n      swap5\n      pop\n      swap3\n      pop\n        /* \"CoreContracts/kalyswap-periphery/KalyswapRouter.sol\":3503:3515  address pair */\n      0x00\n        /* \"CoreContracts/kalyswap-periphery/KalyswapRouter.sol\":3518:3563  KalyswapLibrary.pairFor(factory, token, WKLC) */\n      tag_287\n        /* \"CoreContracts/kalyswap-periphery/KalyswapRouter.sol\":3542:3549  factory */\n      immutable(\"0x59ec111d9d8ceec2ab223a1d5004f35d19292b31c8f02c623d83a90888216dda\")\n        /* \"CoreContracts/kalyswap-periphery/KalyswapRouter.sol\":3551:3556  token */\n      dup13\n        /* \"CoreContracts/kalyswap-periphery/KalyswapRouter.sol\":3558:3562  WKLC */\n      immutable(\"0xe96cc20f241c05b09b05be99fa40d483e0c60480c24cfabd29fea373217f3b30\")\n        /* \"CoreContracts/kalyswap-periphery/KalyswapRouter.sol\":3518:3541  KalyswapLibrary.pairFor */\n      tag_201\n        /* \"CoreContracts/kalyswap-periphery/KalyswapRouter.sol\":3518:3563  KalyswapLibrary.pairFor(factory, token, WKLC) */\n      jump\t// in\n    tag_287:\n        /* \"CoreContracts/kalyswap-periphery/KalyswapRouter.sol\":3503:3563  address pair = KalyswapLibrary.pairFor(factory, token, WKLC) */\n      swap1\n      pop\n        /* \"CoreContracts/kalyswap-periphery/KalyswapRouter.sol\":3573:3642  TransferHelper.safeTransferFrom(token, msg.sender, pair, amountToken) */\n      tag_288\n        /* \"CoreContracts/kalyswap-periphery/KalyswapRouter.sol\":3605:3610  token */\n      dup12\n        /* \"CoreContracts/kalyswap-periphery/KalyswapRouter.sol\":3612:3622  msg.sender */\n      caller\n        /* \"CoreContracts/kalyswap-periphery/KalyswapRouter.sol\":3624:3628  pair */\n      dup4\n        /* \"CoreContracts/kalyswap-periphery/KalyswapRouter.sol\":3630:3641  amountToken */\n      dup9\n        /* \"CoreContracts/kalyswap-periphery/KalyswapRouter.sol\":3573:3604  TransferHelper.safeTransferFrom */\n      tag_203\n        /* \"CoreContracts/kalyswap-periphery/KalyswapRouter.sol\":3573:3642  TransferHelper.safeTransferFrom(token, msg.sender, pair, amountToken) */\n      jump\t// in\n    tag_288:\n        /* \"CoreContracts/kalyswap-periphery/KalyswapRouter.sol\":3658:3662  WKLC */\n      immutable(\"0xe96cc20f241c05b09b05be99fa40d483e0c60480c24cfabd29fea373217f3b30\")\n      sub(shl(0xa0, 0x01), 0x01)\n        /* \"CoreContracts/kalyswap-periphery/KalyswapRouter.sol\":3652:3671  IWKLC(WKLC).deposit */\n      and\n      0xd0e30db0\n        /* \"CoreContracts/kalyswap-periphery/KalyswapRouter.sol\":3679:3688  amountKLC */\n      dup6\n        /* \"CoreContracts/kalyswap-periphery/KalyswapRouter.sol\":3652:3691  IWKLC(WKLC).deposit{value: amountKLC}() */\n      mload(0x40)\n      dup3\n      0xffffffff\n      and\n      0xe0\n      shl\n      dup2\n      mstore\n      0x04\n      add\n      0x00\n      mload(0x40)\n      dup1\n      dup4\n      sub\n      dup2\n      dup6\n      dup9\n      dup1\n      extcodesize\n      iszero\n        /* \"--CODEGEN--\":5:14   */\n      dup1\n        /* \"--CODEGEN--\":2:4   */\n      iszero\n      tag_289\n      jumpi\n        /* \"--CODEGEN--\":27:28   */\n      0x00\n        /* \"--CODEGEN--\":24:25   */\n      dup1\n        /* \"--CODEGEN--\":17:29   */\n      revert\n        /* \"--CODEGEN--\":2:4   */\n    tag_289:\n        /* \"CoreContracts/kalyswap-periphery/KalyswapRouter.sol\":3652:3691  IWKLC(WKLC).deposit{value: amountKLC}() */\n      pop\n      gas\n      call\n      iszero\n        /* \"--CODEGEN--\":8:17   */\n      dup1\n        /* \"--CODEGEN--\":5:7   */\n      iszero\n      tag_291\n      jumpi\n        /* \"--CODEGEN--\":45:61   */\n      returndatasize\n        /* \"--CODEGEN--\":42:43   */\n      0x00\n        /* \"--CODEGEN--\":39:40   */\n      dup1\n        /* \"--CODEGEN--\":24:62   */\n      returndatacopy\n        /* \"--CODEGEN--\":77:93   */\n      returndatasize\n        /* \"--CODEGEN--\":74:75   */\n      0x00\n        /* \"--CODEGEN--\":67:94   */\n      revert\n        /* \"--CODEGEN--\":5:7   */\n    tag_291:\n        /* \"CoreContracts/kalyswap-periphery/KalyswapRouter.sol\":3652:3691  IWKLC(WKLC).deposit{value: amountKLC}() */\n      pop\n      pop\n      pop\n      pop\n      pop\n        /* \"CoreContracts/kalyswap-periphery/KalyswapRouter.sol\":3714:3718  WKLC */\n      immutable(\"0xe96cc20f241c05b09b05be99fa40d483e0c60480c24cfabd29fea373217f3b30\")\n      sub(shl(0xa0, 0x01), 0x01)\n        /* \"CoreContracts/kalyswap-periphery/KalyswapRouter.sol\":3708:3728  IWKLC(WKLC).transfer */\n      and\n      0xa9059cbb\n        /* \"CoreContracts/kalyswap-periphery/KalyswapRouter.sol\":3729:3733  pair */\n      dup3\n        /* \"CoreContracts/kalyswap-periphery/KalyswapRouter.sol\":3735:3744  amountKLC */\n      dup7\n        /* \"CoreContracts/kalyswap-periphery/KalyswapRouter.sol\":3708:3745  IWKLC(WKLC).transfer(pair, amountKLC) */\n      mload(0x40)\n      dup4\n      0xffffffff\n      and\n      0xe0\n      shl\n      dup2\n      mstore\n      0x04\n      add\n      dup1\n      dup4\n      sub(shl(0xa0, 0x01), 0x01)\n      and\n      sub(shl(0xa0, 0x01), 0x01)\n      and\n      dup2\n      mstore\n      0x20\n      add\n      dup3\n      dup2\n      mstore\n      0x20\n      add\n      swap3\n      pop\n      pop\n      pop\n      0x20\n      mload(0x40)\n      dup1\n      dup4\n      sub\n      dup2\n      0x00\n      dup8\n      dup1\n      extcodesize\n      iszero\n        /* \"--CODEGEN--\":5:14   */\n      dup1\n        /* \"--CODEGEN--\":2:4   */\n      iszero\n      tag_292\n      jumpi\n        /* \"--CODEGEN--\":27:28   */\n      0x00\n        /* \"--CODEGEN--\":24:25   */\n      dup1\n        /* \"--CODEGEN--\":17:29   */\n      revert\n        /* \"--CODEGEN--\":2:4   */\n    tag_292:\n        /* \"CoreContracts/kalyswap-periphery/KalyswapRouter.sol\":3708:3745  IWKLC(WKLC).transfer(pair, amountKLC) */\n      pop\n      gas\n      call\n      iszero\n        /* \"--CODEGEN--\":8:17   */\n      dup1\n        /* \"--CODEGEN--\":5:7   */\n      iszero\n      tag_294\n      jumpi\n        /* \"--CODEGEN--\":45:61   */\n      returndatasize\n        /* \"--CODEGEN--\":42:43   */\n      0x00\n        /* \"--CODEGEN--\":39:40   */\n      dup1\n        /* \"--CODEGEN--\":24:62   */\n      returndatacopy\n        /* \"--CODEGEN--\":77:93   */\n      returndatasize\n        /* \"--CODEGEN--\":74:75   */\n      0x00\n        /* \"--CODEGEN--\":67:94   */\n      revert\n        /* \"--CODEGEN--\":5:7   */\n    tag_294:\n        /* \"CoreContracts/kalyswap-periphery/KalyswapRouter.sol\":3708:3745  IWKLC(WKLC).transfer(pair, amountKLC) */\n      pop\n      pop\n      pop\n      pop\n      mload(0x40)\n      returndatasize\n        /* \"--CODEGEN--\":15:17   */\n      0x20\n        /* \"--CODEGEN--\":10:13   */\n      dup2\n        /* \"--CODEGEN--\":7:18   */\n      lt\n        /* \"--CODEGEN--\":4:6   */\n      iszero\n      tag_295\n      jumpi\n        /* \"--CODEGEN--\":31:32   */\n      0x00\n        /* \"--CODEGEN--\":28:29   */\n      dup1\n        /* \"--CODEGEN--\":21:33   */\n      revert\n        /* \"--CODEGEN--\":4:6   */\n    tag_295:\n      pop\n        /* \"CoreContracts/kalyswap-periphery/KalyswapRouter.sol\":3708:3745  IWKLC(WKLC).transfer(pair, amountKLC) */\n      mload\n        /* \"CoreContracts/kalyswap-periphery/KalyswapRouter.sol\":3701:3746  assert(IWKLC(WKLC).transfer(pair, amountKLC)) */\n      tag_296\n      jumpi\n      invalid\n    tag_296:\n        /* \"CoreContracts/kalyswap-periphery/KalyswapRouter.sol\":3782:3786  pair */\n      dup1\n      sub(shl(0xa0, 0x01), 0x01)\n        /* \"CoreContracts/kalyswap-periphery/KalyswapRouter.sol\":3768:3792  IKalyswapPair(pair).mint */\n      and\n      0x6a627842\n        /* \"CoreContracts/kalyswap-periphery/KalyswapRouter.sol\":3793:3795  to */\n      dup9\n        /* \"CoreContracts/kalyswap-periphery/KalyswapRouter.sol\":3768:3796  IKalyswapPair(pair).mint(to) */\n      mload(0x40)\n      dup3\n      0xffffffff\n      and\n      0xe0\n      shl\n      dup2\n      mstore\n      0x04\n      add\n      dup1\n      dup3\n      sub(shl(0xa0, 0x01), 0x01)\n      and\n      sub(shl(0xa0, 0x01), 0x01)\n      and\n      dup2\n      mstore\n      0x20\n      add\n      swap2\n      pop\n      pop\n      0x20\n      mload(0x40)\n      dup1\n      dup4\n      sub\n      dup2\n      0x00\n      dup8\n      dup1\n      extcodesize\n      iszero\n        /* \"--CODEGEN--\":5:14   */\n      dup1\n        /* \"--CODEGEN--\":2:4   */\n      iszero\n      tag_297\n      jumpi\n        /* \"--CODEGEN--\":27:28   */\n      0x00\n        /* \"--CODEGEN--\":24:25   */\n      dup1\n        /* \"--CODEGEN--\":17:29   */\n      revert\n        /* \"--CODEGEN--\":2:4   */\n    tag_297:\n        /* \"CoreContracts/kalyswap-periphery/KalyswapRouter.sol\":3768:3796  IKalyswapPair(pair).mint(to) */\n      pop\n      gas\n      call\n      iszero\n        /* \"--CODEGEN--\":8:17   */\n      dup1\n        /* \"--CODEGEN--\":5:7   */\n      iszero\n      tag_299\n      jumpi\n        /* \"--CODEGEN--\":45:61   */\n      returndatasize\n        /* \"--CODEGEN--\":42:43   */\n      0x00\n        /* \"--CODEGEN--\":39:40   */\n      dup1\n        /* \"--CODEGEN--\":24:62   */\n      returndatacopy\n        /* \"--CODEGEN--\":77:93   */\n      returndatasize\n        /* \"--CODEGEN--\":74:75   */\n      0x00\n        /* \"--CODEGEN--\":67:94   */\n      revert\n        /* \"--CODEGEN--\":5:7   */\n    tag_299:\n        /* \"CoreContracts/kalyswap-periphery/KalyswapRouter.sol\":3768:3796  IKalyswapPair(pair).mint(to) */\n      pop\n      pop\n      pop\n      pop\n      mload(0x40)\n      returndatasize\n        /* \"--CODEGEN--\":15:17   */\n      0x20\n        /* \"--CODEGEN--\":10:13   */\n      dup2\n        /* \"--CODEGEN--\":7:18   */\n      lt\n        /* \"--CODEGEN--\":4:6   */\n      iszero\n      tag_300\n      jumpi\n        /* \"--CODEGEN--\":31:32   */\n      0x00\n        /* \"--CODEGEN--\":28:29   */\n      dup1\n        /* \"--CODEGEN--\":21:33   */\n      revert\n        /* \"--CODEGEN--\":4:6   */\n    tag_300:\n      pop\n        /* \"CoreContracts/kalyswap-periphery/KalyswapRouter.sol\":3768:3796  IKalyswapPair(pair).mint(to) */\n      mload\n      swap3\n      pop\n        /* \"CoreContracts/kalyswap-periphery/KalyswapRouter.sol\":3845:3854  msg.value */\n      callvalue\n        /* \"CoreContracts/kalyswap-periphery/KalyswapRouter.sol\":3845:3866  msg.value > amountKLC */\n      dup5\n      lt\n        /* \"CoreContracts/kalyswap-periphery/KalyswapRouter.sol\":3841:3933  if (msg.value > amountKLC) TransferHelper.safeTransferKLC(msg.sender, msg.value - amountKLC) */\n      iszero\n      tag_302\n      jumpi\n        /* \"CoreContracts/kalyswap-periphery/KalyswapRouter.sol\":3868:3933  TransferHelper.safeTransferKLC(msg.sender, msg.value - amountKLC) */\n      tag_302\n        /* \"CoreContracts/kalyswap-periphery/KalyswapRouter.sol\":3899:3909  msg.sender */\n      caller\n        /* \"CoreContracts/kalyswap-periphery/KalyswapRouter.sol\":3923:3932  amountKLC */\n      dup6\n        /* \"CoreContracts/kalyswap-periphery/KalyswapRouter.sol\":3911:3920  msg.value */\n      callvalue\n        /* \"CoreContracts/kalyswap-periphery/KalyswapRouter.sol\":3911:3932  msg.value - amountKLC */\n      sub\n        /* \"CoreContracts/kalyswap-periphery/KalyswapRouter.sol\":3868:3898  TransferHelper.safeTransferKLC */\n      tag_212\n        /* \"CoreContracts/kalyswap-periphery/KalyswapRouter.sol\":3868:3933  TransferHelper.safeTransferKLC(msg.sender, msg.value - amountKLC) */\n      jump\t// in\n    tag_302:\n        /* \"CoreContracts/kalyswap-periphery/KalyswapRouter.sol\":613:614  _ */\n      pop\n        /* \"CoreContracts/kalyswap-periphery/KalyswapRouter.sol\":2991:3940  function addLiquidityKLC(... */\n      pop\n      swap7\n      pop\n      swap7\n      pop\n      swap7\n      swap4\n      pop\n      pop\n      pop\n      pop\n      jump\t// out\n        /* \"CoreContracts/kalyswap-periphery/KalyswapRouter.sol\":17614:17866  function getAmountIn(uint amountOut, uint reserveIn, uint reserveOut)... */\n    tag_99:\n        /* \"CoreContracts/kalyswap-periphery/KalyswapRouter.sol\":17762:17775  uint amountIn */\n      0x00\n        /* \"CoreContracts/kalyswap-periphery/KalyswapRouter.sol\":17798:17859  KalyswapLibrary.getAmountIn(amountOut, reserveIn, reserveOut) */\n      tag_185\n        /* \"CoreContracts/kalyswap-periphery/KalyswapRouter.sol\":17826:17835  amountOut */\n      dup5\n        /* \"CoreContracts/kalyswap-periphery/KalyswapRouter.sol\":17837:17846  reserveIn */\n      dup5\n        /* \"CoreContracts/kalyswap-periphery/KalyswapRouter.sol\":17848:17858  reserveOut */\n      dup5\n        /* \"CoreContracts/kalyswap-periphery/KalyswapRouter.sol\":17798:17825  KalyswapLibrary.getAmountIn */\n      tag_305\n        /* \"CoreContracts/kalyswap-periphery/KalyswapRouter.sol\":17798:17859  KalyswapLibrary.getAmountIn(amountOut, reserveIn, reserveOut) */\n      jump\t// in\n        /* \"CoreContracts/kalyswap-periphery/KalyswapRouter.sol\":9717:10307  function swapTokensForExactTokens(... */\n    tag_106:\n        /* \"CoreContracts/kalyswap-periphery/KalyswapRouter.sol\":9935:9956  uint[] memory amounts */\n      0x60\n        /* \"CoreContracts/kalyswap-periphery/KalyswapRouter.sol\":9916:9924  deadline */\n      dup2\n        /* \"CoreContracts/kalyswap-periphery/KalyswapRouter.sol\":560:575  block.timestamp */\n      timestamp\n        /* \"CoreContracts/kalyswap-periphery/KalyswapRouter.sol\":548:556  deadline */\n      dup2\n        /* \"CoreContracts/kalyswap-periphery/KalyswapRouter.sol\":548:575  deadline >= block.timestamp */\n      lt\n      iszero\n        /* \"CoreContracts/kalyswap-periphery/KalyswapRouter.sol\":540:603  require(deadline >= block.timestamp, 'KalyswapRouter: EXPIRED') */\n      tag_307\n      jumpi\n      0x40\n      dup1\n      mload\n      shl(0xe5, 0x461bcd)\n      dup2\n      mstore\n      0x20\n      0x04\n      dup3\n      add\n      mstore\n      0x17\n      0x24\n      dup3\n      add\n      mstore\n      0x00\n      dup1\n      mload\n      0x20\n      data_c37a5828941e3f3d234159361fc5f20834c08e197405b7b4d61af4ea6dee60a5\n      dup4\n      codecopy\n      dup2\n      mload\n      swap2\n      mstore\n      0x44\n      dup3\n      add\n      mstore\n      swap1\n      mload\n      swap1\n      dup2\n      swap1\n      sub\n      0x64\n      add\n      swap1\n      revert\n    tag_307:\n        /* \"CoreContracts/kalyswap-periphery/KalyswapRouter.sol\":9978:10032  KalyswapLibrary.getAmountsIn(factory, amountOut, path) */\n      tag_309\n        /* \"CoreContracts/kalyswap-periphery/KalyswapRouter.sol\":10007:10014  factory */\n      immutable(\"0x59ec111d9d8ceec2ab223a1d5004f35d19292b31c8f02c623d83a90888216dda\")\n        /* \"CoreContracts/kalyswap-periphery/KalyswapRouter.sol\":10016:10025  amountOut */\n      dup10\n        /* \"CoreContracts/kalyswap-periphery/KalyswapRouter.sol\":10027:10031  path */\n      dup9\n      dup9\n        /* \"CoreContracts/kalyswap-periphery/KalyswapRouter.sol\":9978:10032  KalyswapLibrary.getAmountsIn(factory, amountOut, path) */\n      dup1\n      dup1\n      0x20\n      mul\n      0x20\n      add\n      mload(0x40)\n      swap1\n      dup2\n      add\n      0x40\n      mstore\n      dup1\n      swap4\n      swap3\n      swap2\n      swap1\n      dup2\n      dup2\n      mstore\n      0x20\n      add\n      dup4\n      dup4\n      0x20\n      mul\n        /* \"--CODEGEN--\":30:33   */\n      dup1\n        /* \"--CODEGEN--\":22:28   */\n      dup3\n        /* \"--CODEGEN--\":14:20   */\n      dup5\n        /* \"--CODEGEN--\":1:34   */\n      calldatacopy\n        /* \"--CODEGEN--\":99:100   */\n      0x00\n        /* \"--CODEGEN--\":81:97   */\n      swap3\n      add\n        /* \"--CODEGEN--\":74:101   */\n      swap2\n      swap1\n      swap2\n      mstore\n      pop\n        /* \"CoreContracts/kalyswap-periphery/KalyswapRouter.sol\":9978:10006  KalyswapLibrary.getAmountsIn */\n      tag_193\n      swap3\n      pop\n      pop\n      pop\n        /* \"CoreContracts/kalyswap-periphery/KalyswapRouter.sol\":9978:10032  KalyswapLibrary.getAmountsIn(factory, amountOut, path) */\n      jump\t// in\n    tag_309:\n        /* \"CoreContracts/kalyswap-periphery/KalyswapRouter.sol\":9968:10032  amounts = KalyswapLibrary.getAmountsIn(factory, amountOut, path) */\n      swap2\n      pop\n        /* \"CoreContracts/kalyswap-periphery/KalyswapRouter.sol\":10064:10075  amountInMax */\n      dup7\n        /* \"CoreContracts/kalyswap-periphery/KalyswapRouter.sol\":10050:10057  amounts */\n      dup3\n        /* \"CoreContracts/kalyswap-periphery/KalyswapRouter.sol\":10058:10059  0 */\n      0x00\n        /* \"CoreContracts/kalyswap-periphery/KalyswapRouter.sol\":10050:10060  amounts[0] */\n      dup2\n      mload\n      dup2\n      lt\n      tag_310\n      jumpi\n      invalid\n    tag_310:\n      0x20\n      mul\n      0x20\n      add\n      add\n      mload\n        /* \"CoreContracts/kalyswap-periphery/KalyswapRouter.sol\":10050:10075  amounts[0] <= amountInMax */\n      gt\n      iszero\n        /* \"CoreContracts/kalyswap-periphery/KalyswapRouter.sol\":10042:10118  require(amounts[0] <= amountInMax, 'KalyswapRouter: EXCESSIVE_INPUT_AMOUNT') */\n      tag_251\n      jumpi\n      mload(0x40)\n      shl(0xe5, 0x461bcd)\n      dup2\n      mstore\n      0x04\n      add\n      dup1\n      dup1\n      0x20\n      add\n      dup3\n      dup2\n      sub\n      dup3\n      mstore\n      0x26\n      dup2\n      mstore\n      0x20\n      add\n      dup1\n      data_1129a09fdceed6d909941dc66391f1ae42b2f33eabad87c9f626e624f727698a\n      0x26\n      swap2\n      codecopy\n      0x40\n      add\n      swap2\n      pop\n      pop\n      mload(0x40)\n      dup1\n      swap2\n      sub\n      swap1\n      revert\n        /* \"CoreContracts/kalyswap-periphery/KalyswapRouter.sol\":4828:5481  function removeLiquidityKLC(... */\n    tag_113:\n        /* \"CoreContracts/kalyswap-periphery/KalyswapRouter.sol\":5058:5074  uint amountToken */\n      0x00\n        /* \"CoreContracts/kalyswap-periphery/KalyswapRouter.sol\":5076:5090  uint amountKLC */\n      dup1\n        /* \"CoreContracts/kalyswap-periphery/KalyswapRouter.sol\":5039:5047  deadline */\n      dup3\n        /* \"CoreContracts/kalyswap-periphery/KalyswapRouter.sol\":560:575  block.timestamp */\n      timestamp\n        /* \"CoreContracts/kalyswap-periphery/KalyswapRouter.sol\":548:556  deadline */\n      dup2\n        /* \"CoreContracts/kalyswap-periphery/KalyswapRouter.sol\":548:575  deadline >= block.timestamp */\n      lt\n      iszero\n        /* \"CoreContracts/kalyswap-periphery/KalyswapRouter.sol\":540:603  require(deadline >= block.timestamp, 'KalyswapRouter: EXPIRED') */\n      tag_320\n      jumpi\n      0x40\n      dup1\n      mload\n      shl(0xe5, 0x461bcd)\n      dup2\n      mstore\n      0x20\n      0x04\n      dup3\n      add\n      mstore\n      0x17\n      0x24\n      dup3\n      add\n      mstore\n      0x00\n      dup1\n      mload\n      0x20\n      data_c37a5828941e3f3d234159361fc5f20834c08e197405b7b4d61af4ea6dee60a5\n      dup4\n      codecopy\n      dup2\n      mload\n      swap2\n      mstore\n      0x44\n      dup3\n      add\n      mstore\n      swap1\n      mload\n      swap1\n      dup2\n      swap1\n      sub\n      0x64\n      add\n      swap1\n      revert\n    tag_320:\n        /* \"CoreContracts/kalyswap-periphery/KalyswapRouter.sol\":5129:5317  removeLiquidity(... */\n      tag_322\n        /* \"CoreContracts/kalyswap-periphery/KalyswapRouter.sol\":5158:5163  token */\n      dup10\n        /* \"CoreContracts/kalyswap-periphery/KalyswapRouter.sol\":5177:5181  WKLC */\n      immutable(\"0xe96cc20f241c05b09b05be99fa40d483e0c60480c24cfabd29fea373217f3b30\")\n        /* \"CoreContracts/kalyswap-periphery/KalyswapRouter.sol\":5195:5204  liquidity */\n      dup11\n        /* \"CoreContracts/kalyswap-periphery/KalyswapRouter.sol\":5218:5232  amountTokenMin */\n      dup11\n        /* \"CoreContracts/kalyswap-periphery/KalyswapRouter.sol\":5246:5258  amountKLCMin */\n      dup11\n        /* \"CoreContracts/kalyswap-periphery/KalyswapRouter.sol\":5280:5284  this */\n      address\n        /* \"CoreContracts/kalyswap-periphery/KalyswapRouter.sol\":5299:5307  deadline */\n      dup11\n        /* \"CoreContracts/kalyswap-periphery/KalyswapRouter.sol\":5129:5144  removeLiquidity */\n      tag_152\n        /* \"CoreContracts/kalyswap-periphery/KalyswapRouter.sol\":5129:5317  removeLiquidity(... */\n      jump\t// in\n    tag_322:\n        /* \"CoreContracts/kalyswap-periphery/KalyswapRouter.sol\":5102:5317  (amountToken, amountKLC) = removeLiquidity(... */\n      swap1\n      swap4\n      pop\n      swap2\n      pop\n        /* \"CoreContracts/kalyswap-periphery/KalyswapRouter.sol\":5327:5378  TransferHelper.safeTransfer(token, to, amountToken) */\n      tag_323\n        /* \"CoreContracts/kalyswap-periphery/KalyswapRouter.sol\":5355:5360  token */\n      dup10\n        /* \"CoreContracts/kalyswap-periphery/KalyswapRouter.sol\":5362:5364  to */\n      dup7\n        /* \"CoreContracts/kalyswap-periphery/KalyswapRouter.sol\":5102:5317  (amountToken, amountKLC) = removeLiquidity(... */\n      dup6\n        /* \"CoreContracts/kalyswap-periphery/KalyswapRouter.sol\":5327:5354  TransferHelper.safeTransfer */\n      tag_230\n        /* \"CoreContracts/kalyswap-periphery/KalyswapRouter.sol\":5327:5378  TransferHelper.safeTransfer(token, to, amountToken) */\n      jump\t// in\n    tag_323:\n        /* \"CoreContracts/kalyswap-periphery/KalyswapRouter.sol\":5394:5398  WKLC */\n      immutable(\"0xe96cc20f241c05b09b05be99fa40d483e0c60480c24cfabd29fea373217f3b30\")\n      sub(shl(0xa0, 0x01), 0x01)\n        /* \"CoreContracts/kalyswap-periphery/KalyswapRouter.sol\":5388:5408  IWKLC(WKLC).withdraw */\n      and\n      0x2e1a7d4d\n        /* \"CoreContracts/kalyswap-periphery/KalyswapRouter.sol\":5409:5418  amountKLC */\n      dup4\n        /* \"CoreContracts/kalyswap-periphery/KalyswapRouter.sol\":5388:5419  IWKLC(WKLC).withdraw(amountKLC) */\n      mload(0x40)\n      dup3\n      0xffffffff\n      and\n      0xe0\n      shl\n      dup2\n      mstore\n      0x04\n      add\n      dup1\n      dup3\n      dup2\n      mstore\n      0x20\n      add\n      swap2\n      pop\n      pop\n      0x00\n      mload(0x40)\n      dup1\n      dup4\n      sub\n      dup2\n      0x00\n      dup8\n      dup1\n      extcodesize\n      iszero\n        /* \"--CODEGEN--\":5:14   */\n      dup1\n        /* \"--CODEGEN--\":2:4   */\n      iszero\n      tag_324\n      jumpi\n        /* \"--CODEGEN--\":27:28   */\n      0x00\n        /* \"--CODEGEN--\":24:25   */\n      dup1\n        /* \"--CODEGEN--\":17:29   */\n      revert\n        /* \"--CODEGEN--\":2:4   */\n    tag_324:\n        /* \"CoreContracts/kalyswap-periphery/KalyswapRouter.sol\":5388:5419  IWKLC(WKLC).withdraw(amountKLC) */\n      pop\n      gas\n      call\n      iszero\n        /* \"--CODEGEN--\":8:17   */\n      dup1\n        /* \"--CODEGEN--\":5:7   */\n      iszero\n      tag_326\n      jumpi\n        /* \"--CODEGEN--\":45:61   */\n      returndatasize\n        /* \"--CODEGEN--\":42:43   */\n      0x00\n        /* \"--CODEGEN--\":39:40   */\n      dup1\n        /* \"--CODEGEN--\":24:62   */\n      returndatacopy\n        /* \"--CODEGEN--\":77:93   */\n      returndatasize\n        /* \"--CODEGEN--\":74:75   */\n      0x00\n        /* \"--CODEGEN--\":67:94   */\n      revert\n        /* \"--CODEGEN--\":5:7   */\n    tag_326:\n        /* \"CoreContracts/kalyswap-periphery/KalyswapRouter.sol\":5388:5419  IWKLC(WKLC).withdraw(amountKLC) */\n      pop\n      pop\n      pop\n      pop\n        /* \"CoreContracts/kalyswap-periphery/KalyswapRouter.sol\":5429:5474  TransferHelper.safeTransferKLC(to, amountKLC) */\n      tag_327\n        /* \"CoreContracts/kalyswap-periphery/KalyswapRouter.sol\":5460:5462  to */\n      dup6\n        /* \"CoreContracts/kalyswap-periphery/KalyswapRouter.sol\":5464:5473  amountKLC */\n      dup4\n        /* \"CoreContracts/kalyswap-periphery/KalyswapRouter.sol\":5429:5459  TransferHelper.safeTransferKLC */\n      tag_212\n        /* \"CoreContracts/kalyswap-periphery/KalyswapRouter.sol\":5429:5474  TransferHelper.safeTransferKLC(to, amountKLC) */\n      jump\t// in\n    tag_327:\n        /* \"CoreContracts/kalyswap-periphery/KalyswapRouter.sol\":4828:5481  function removeLiquidityKLC(... */\n      pop\n      swap7\n      pop\n      swap7\n      swap5\n      pop\n      pop\n      pop\n      pop\n      pop\n      jump\t// out\n        /* \"CoreContracts/kalyswap-periphery/KalyswapRouter.sol\":17164:17349  function quote(uint amountA, uint reserveA, uint reserveB) public pure virtual override returns (uint amountB) {... */\n    tag_117:\n        /* \"CoreContracts/kalyswap-periphery/KalyswapRouter.sol\":17261:17273  uint amountB */\n      0x00\n        /* \"CoreContracts/kalyswap-periphery/KalyswapRouter.sol\":17292:17342  KalyswapLibrary.quote(amountA, reserveA, reserveB) */\n      tag_185\n        /* \"CoreContracts/kalyswap-periphery/KalyswapRouter.sol\":17314:17321  amountA */\n      dup5\n        /* \"CoreContracts/kalyswap-periphery/KalyswapRouter.sol\":17323:17331  reserveA */\n      dup5\n        /* \"CoreContracts/kalyswap-periphery/KalyswapRouter.sol\":17333:17341  reserveB */\n      dup5\n        /* \"CoreContracts/kalyswap-periphery/KalyswapRouter.sol\":17292:17313  KalyswapLibrary.quote */\n      tag_330\n        /* \"CoreContracts/kalyswap-periphery/KalyswapRouter.sol\":17292:17342  KalyswapLibrary.quote(amountA, reserveA, reserveB) */\n      jump\t// in\n        /* \"CoreContracts/kalyswap-periphery/KalyswapRouter.sol\":12644:13434  function swapKLCForExactTokens(uint amountOut, address[] calldata path, address to, uint deadline)... */\n    tag_123:\n        /* \"CoreContracts/kalyswap-periphery/KalyswapRouter.sol\":12851:12872  uint[] memory amounts */\n      0x60\n        /* \"CoreContracts/kalyswap-periphery/KalyswapRouter.sol\":12824:12832  deadline */\n      dup2\n        /* \"CoreContracts/kalyswap-periphery/KalyswapRouter.sol\":560:575  block.timestamp */\n      timestamp\n        /* \"CoreContracts/kalyswap-periphery/KalyswapRouter.sol\":548:556  deadline */\n      dup2\n        /* \"CoreContracts/kalyswap-periphery/KalyswapRouter.sol\":548:575  deadline >= block.timestamp */\n      lt\n      iszero\n        /* \"CoreContracts/kalyswap-periphery/KalyswapRouter.sol\":540:603  require(deadline >= block.timestamp, 'KalyswapRouter: EXPIRED') */\n      tag_332\n      jumpi\n      0x40\n      dup1\n      mload\n      shl(0xe5, 0x461bcd)\n      dup2\n      mstore\n      0x20\n      0x04\n      dup3\n      add\n      mstore\n      0x17\n      0x24\n      dup3\n      add\n      mstore\n      0x00\n      dup1\n      mload\n      0x20\n      data_c37a5828941e3f3d234159361fc5f20834c08e197405b7b4d61af4ea6dee60a5\n      dup4\n      codecopy\n      dup2\n      mload\n      swap2\n      mstore\n      0x44\n      dup3\n      add\n      mstore\n      swap1\n      mload\n      swap1\n      dup2\n      swap1\n      sub\n      0x64\n      add\n      swap1\n      revert\n    tag_332:\n        /* \"CoreContracts/kalyswap-periphery/KalyswapRouter.sol\":12907:12911  WKLC */\n      immutable(\"0xe96cc20f241c05b09b05be99fa40d483e0c60480c24cfabd29fea373217f3b30\")\n      sub(shl(0xa0, 0x01), 0x01)\n        /* \"CoreContracts/kalyswap-periphery/KalyswapRouter.sol\":12896:12911  path[0] == WKLC */\n      and\n        /* \"CoreContracts/kalyswap-periphery/KalyswapRouter.sol\":12896:12900  path */\n      dup7\n      dup7\n        /* \"CoreContracts/kalyswap-periphery/KalyswapRouter.sol\":12901:12902  0 */\n      0x00\n        /* \"CoreContracts/kalyswap-periphery/KalyswapRouter.sol\":12896:12903  path[0] */\n      dup2\n      dup2\n      lt\n      tag_334\n      jumpi\n      invalid\n    tag_334:\n      swap1\n      pop\n      0x20\n      mul\n      add\n      calldataload\n      sub(shl(0xa0, 0x01), 0x01)\n      and\n      sub(shl(0xa0, 0x01), 0x01)\n        /* \"CoreContracts/kalyswap-periphery/KalyswapRouter.sol\":12896:12911  path[0] == WKLC */\n      and\n      eq\n        /* \"CoreContracts/kalyswap-periphery/KalyswapRouter.sol\":12888:12944  require(path[0] == WKLC, 'KalyswapRouter: INVALID_PATH') */\n      tag_335\n      jumpi\n      0x40\n      dup1\n      mload\n      shl(0xe5, 0x461bcd)\n      dup2\n      mstore\n      0x20\n      0x04\n      dup3\n      add\n      mstore\n      0x1c\n      0x24\n      dup3\n      add\n      mstore\n      0x4b616c7973776170526f757465723a20494e56414c49445f5041544800000000\n      0x44\n      dup3\n      add\n      mstore\n      swap1\n      mload\n      swap1\n      dup2\n      swap1\n      sub\n      0x64\n      add\n      swap1\n      revert\n    tag_335:\n        /* \"CoreContracts/kalyswap-periphery/KalyswapRouter.sol\":12964:13018  KalyswapLibrary.getAmountsIn(factory, amountOut, path) */\n      tag_336\n        /* \"CoreContracts/kalyswap-periphery/KalyswapRouter.sol\":12993:13000  factory */\n      immutable(\"0x59ec111d9d8ceec2ab223a1d5004f35d19292b31c8f02c623d83a90888216dda\")\n        /* \"CoreContracts/kalyswap-periphery/KalyswapRouter.sol\":13002:13011  amountOut */\n      dup9\n        /* \"CoreContracts/kalyswap-periphery/KalyswapRouter.sol\":13013:13017  path */\n      dup9\n      dup9\n        /* \"CoreContracts/kalyswap-periphery/KalyswapRouter.sol\":12964:13018  KalyswapLibrary.getAmountsIn(factory, amountOut, path) */\n      dup1\n      dup1\n      0x20\n      mul\n      0x20\n      add\n      mload(0x40)\n      swap1\n      dup2\n      add\n      0x40\n      mstore\n      dup1\n      swap4\n      swap3\n      swap2\n      swap1\n      dup2\n      dup2\n      mstore\n      0x20\n      add\n      dup4\n      dup4\n      0x20\n      mul\n        /* \"--CODEGEN--\":30:33   */\n      dup1\n        /* \"--CODEGEN--\":22:28   */\n      dup3\n        /* \"--CODEGEN--\":14:20   */\n      dup5\n        /* \"--CODEGEN--\":1:34   */\n      calldatacopy\n        /* \"--CODEGEN--\":99:100   */\n      0x00\n        /* \"--CODEGEN--\":81:97   */\n      swap3\n      add\n        /* \"--CODEGEN--\":74:101   */\n      swap2\n      swap1\n      swap2\n      mstore\n      pop\n        /* \"CoreContracts/kalyswap-periphery/KalyswapRouter.sol\":12964:12992  KalyswapLibrary.getAmountsIn */\n      tag_193\n      swap3\n      pop\n      pop\n      pop\n        /* \"CoreContracts/kalyswap-periphery/KalyswapRouter.sol\":12964:13018  KalyswapLibrary.getAmountsIn(factory, amountOut, path) */\n      jump\t// in\n    tag_336:\n        /* \"CoreContracts/kalyswap-periphery/KalyswapRouter.sol\":12954:13018  amounts = KalyswapLibrary.getAmountsIn(factory, amountOut, path) */\n      swap2\n      pop\n        /* \"CoreContracts/kalyswap-periphery/KalyswapRouter.sol\":13050:13059  msg.value */\n      callvalue\n        /* \"CoreContracts/kalyswap-periphery/KalyswapRouter.sol\":13036:13043  amounts */\n      dup3\n        /* \"CoreContracts/kalyswap-periphery/KalyswapRouter.sol\":13044:13045  0 */\n      0x00\n        /* \"CoreContracts/kalyswap-periphery/KalyswapRouter.sol\":13036:13046  amounts[0] */\n      dup2\n      mload\n      dup2\n      lt\n      tag_337\n      jumpi\n      invalid\n    tag_337:\n      0x20\n      mul\n      0x20\n      add\n      add\n      mload\n        /* \"CoreContracts/kalyswap-periphery/KalyswapRouter.sol\":13036:13059  amounts[0] <= msg.value */\n      gt\n      iszero\n        /* \"CoreContracts/kalyswap-periphery/KalyswapRouter.sol\":13028:13102  require(amounts[0] <= msg.value, 'KalyswapRouter: EXCESSIVE_INPUT_AMOUNT') */\n      tag_338\n      jumpi\n      mload(0x40)\n      shl(0xe5, 0x461bcd)\n      dup2\n      mstore\n      0x04\n      add\n      dup1\n      dup1\n      0x20\n      add\n      dup3\n      dup2\n      sub\n      dup3\n      mstore\n      0x26\n      dup2\n      mstore\n      0x20\n      add\n      dup1\n      data_1129a09fdceed6d909941dc66391f1ae42b2f33eabad87c9f626e624f727698a\n      0x26\n      swap2\n      codecopy\n      0x40\n      add\n      swap2\n      pop\n      pop\n      mload(0x40)\n      dup1\n      swap2\n      sub\n      swap1\n      revert\n    tag_338:\n        /* \"CoreContracts/kalyswap-periphery/KalyswapRouter.sol\":13118:13122  WKLC */\n      immutable(\"0xe96cc20f241c05b09b05be99fa40d483e0c60480c24cfabd29fea373217f3b30\")\n      sub(shl(0xa0, 0x01), 0x01)\n        /* \"CoreContracts/kalyswap-periphery/KalyswapRouter.sol\":13112:13131  IWKLC(WKLC).deposit */\n      and\n      0xd0e30db0\n        /* \"CoreContracts/kalyswap-periphery/KalyswapRouter.sol\":13139:13146  amounts */\n      dup4\n        /* \"CoreContracts/kalyswap-periphery/KalyswapRouter.sol\":13147:13148  0 */\n      0x00\n        /* \"CoreContracts/kalyswap-periphery/KalyswapRouter.sol\":13139:13149  amounts[0] */\n      dup2\n      mload\n      dup2\n      lt\n      tag_339\n      jumpi\n      invalid\n    tag_339:\n      0x20\n      mul\n      0x20\n      add\n      add\n      mload\n        /* \"CoreContracts/kalyswap-periphery/KalyswapRouter.sol\":13112:13152  IWKLC(WKLC).deposit{value: amounts[0]}() */\n      mload(0x40)\n      dup3\n      0xffffffff\n      and\n      0xe0\n      shl\n      dup2\n      mstore\n      0x04\n      add\n      0x00\n      mload(0x40)\n      dup1\n      dup4\n      sub\n      dup2\n      dup6\n      dup9\n      dup1\n      extcodesize\n      iszero\n        /* \"--CODEGEN--\":5:14   */\n      dup1\n        /* \"--CODEGEN--\":2:4   */\n      iszero\n      tag_340\n      jumpi\n        /* \"--CODEGEN--\":27:28   */\n      0x00\n        /* \"--CODEGEN--\":24:25   */\n      dup1\n        /* \"--CODEGEN--\":17:29   */\n      revert\n        /* \"--CODEGEN--\":2:4   */\n    tag_340:\n        /* \"CoreContracts/kalyswap-periphery/KalyswapRouter.sol\":13112:13152  IWKLC(WKLC).deposit{value: amounts[0]}() */\n      pop\n      gas\n      call\n      iszero\n        /* \"--CODEGEN--\":8:17   */\n      dup1\n        /* \"--CODEGEN--\":5:7   */\n      iszero\n      tag_342\n      jumpi\n        /* \"--CODEGEN--\":45:61   */\n      returndatasize\n        /* \"--CODEGEN--\":42:43   */\n      0x00\n        /* \"--CODEGEN--\":39:40   */\n      dup1\n        /* \"--CODEGEN--\":24:62   */\n      returndatacopy\n        /* \"--CODEGEN--\":77:93   */\n      returndatasize\n        /* \"--CODEGEN--\":74:75   */\n      0x00\n        /* \"--CODEGEN--\":67:94   */\n      revert\n        /* \"--CODEGEN--\":5:7   */\n    tag_342:\n        /* \"CoreContracts/kalyswap-periphery/KalyswapRouter.sol\":13112:13152  IWKLC(WKLC).deposit{value: amounts[0]}() */\n      pop\n      pop\n      pop\n      pop\n      pop\n        /* \"CoreContracts/kalyswap-periphery/KalyswapRouter.sol\":13175:13179  WKLC */\n      immutable(\"0xe96cc20f241c05b09b05be99fa40d483e0c60480c24cfabd29fea373217f3b30\")\n      sub(shl(0xa0, 0x01), 0x01)\n        /* \"CoreContracts/kalyswap-periphery/KalyswapRouter.sol\":13169:13189  IWKLC(WKLC).transfer */\n      and\n      0xa9059cbb\n        /* \"CoreContracts/kalyswap-periphery/KalyswapRouter.sol\":13190:13240  KalyswapLibrary.pairFor(factory, path[0], path[1]) */\n      tag_343\n        /* \"CoreContracts/kalyswap-periphery/KalyswapRouter.sol\":13214:13221  factory */\n      immutable(\"0x59ec111d9d8ceec2ab223a1d5004f35d19292b31c8f02c623d83a90888216dda\")\n        /* \"CoreContracts/kalyswap-periphery/KalyswapRouter.sol\":13223:13227  path */\n      dup10\n      dup10\n        /* \"CoreContracts/kalyswap-periphery/KalyswapRouter.sol\":13228:13229  0 */\n      0x00\n        /* \"CoreContracts/kalyswap-periphery/KalyswapRouter.sol\":13223:13230  path[0] */\n      dup2\n      dup2\n      lt\n      tag_265\n      jumpi\n      invalid\n        /* \"CoreContracts/kalyswap-periphery/KalyswapRouter.sol\":13190:13240  KalyswapLibrary.pairFor(factory, path[0], path[1]) */\n    tag_343:\n        /* \"CoreContracts/kalyswap-periphery/KalyswapRouter.sol\":13242:13249  amounts */\n      dup5\n        /* \"CoreContracts/kalyswap-periphery/KalyswapRouter.sol\":13250:13251  0 */\n      0x00\n        /* \"CoreContracts/kalyswap-periphery/KalyswapRouter.sol\":13242:13252  amounts[0] */\n      dup2\n      mload\n      dup2\n      lt\n      tag_346\n      jumpi\n      invalid\n    tag_346:\n      0x20\n      mul\n      0x20\n      add\n      add\n      mload\n        /* \"CoreContracts/kalyswap-periphery/KalyswapRouter.sol\":13169:13253  IWKLC(WKLC).transfer(KalyswapLibrary.pairFor(factory, path[0], path[1]), amounts[0]) */\n      mload(0x40)\n      dup4\n      0xffffffff\n      and\n      0xe0\n      shl\n      dup2\n      mstore\n      0x04\n      add\n      dup1\n      dup4\n      sub(shl(0xa0, 0x01), 0x01)\n      and\n      sub(shl(0xa0, 0x01), 0x01)\n      and\n      dup2\n      mstore\n      0x20\n      add\n      dup3\n      dup2\n      mstore\n      0x20\n      add\n      swap3\n      pop\n      pop\n      pop\n      0x20\n      mload(0x40)\n      dup1\n      dup4\n      sub\n      dup2\n      0x00\n      dup8\n      dup1\n      extcodesize\n      iszero\n        /* \"--CODEGEN--\":5:14   */\n      dup1\n        /* \"--CODEGEN--\":2:4   */\n      iszero\n      tag_347\n      jumpi\n        /* \"--CODEGEN--\":27:28   */\n      0x00\n        /* \"--CODEGEN--\":24:25   */\n      dup1\n        /* \"--CODEGEN--\":17:29   */\n      revert\n        /* \"--CODEGEN--\":2:4   */\n    tag_347:\n        /* \"CoreContracts/kalyswap-periphery/KalyswapRouter.sol\":13169:13253  IWKLC(WKLC).transfer(KalyswapLibrary.pairFor(factory, path[0], path[1]), amounts[0]) */\n      pop\n      gas\n      call\n      iszero\n        /* \"--CODEGEN--\":8:17   */\n      dup1\n        /* \"--CODEGEN--\":5:7   */\n      iszero\n      tag_349\n      jumpi\n        /* \"--CODEGEN--\":45:61   */\n      returndatasize\n        /* \"--CODEGEN--\":42:43   */\n      0x00\n        /* \"--CODEGEN--\":39:40   */\n      dup1\n        /* \"--CODEGEN--\":24:62   */\n      returndatacopy\n        /* \"--CODEGEN--\":77:93   */\n      returndatasize\n        /* \"--CODEGEN--\":74:75   */\n      0x00\n        /* \"--CODEGEN--\":67:94   */\n      revert\n        /* \"--CODEGEN--\":5:7   */\n    tag_349:\n        /* \"CoreContracts/kalyswap-periphery/KalyswapRouter.sol\":13169:13253  IWKLC(WKLC).transfer(KalyswapLibrary.pairFor(factory, path[0], path[1]), amounts[0]) */\n      pop\n      pop\n      pop\n      pop\n      mload(0x40)\n      returndatasize\n        /* \"--CODEGEN--\":15:17   */\n      0x20\n        /* \"--CODEGEN--\":10:13   */\n      dup2\n        /* \"--CODEGEN--\":7:18   */\n      lt\n        /* \"--CODEGEN--\":4:6   */\n      iszero\n      tag_350\n      jumpi\n        /* \"--CODEGEN--\":31:32   */\n      0x00\n        /* \"--CODEGEN--\":28:29   */\n      dup1\n        /* \"--CODEGEN--\":21:33   */\n      revert\n        /* \"--CODEGEN--\":4:6   */\n    tag_350:\n      pop\n        /* \"CoreContracts/kalyswap-periphery/KalyswapRouter.sol\":13169:13253  IWKLC(WKLC).transfer(KalyswapLibrary.pairFor(factory, path[0], path[1]), amounts[0]) */\n      mload\n        /* \"CoreContracts/kalyswap-periphery/KalyswapRouter.sol\":13162:13254  assert(IWKLC(WKLC).transfer(KalyswapLibrary.pairFor(factory, path[0], path[1]), amounts[0])) */\n      tag_351\n      jumpi\n      invalid\n    tag_351:\n        /* \"CoreContracts/kalyswap-periphery/KalyswapRouter.sol\":13264:13288  _swap(amounts, path, to) */\n      tag_352\n        /* \"CoreContracts/kalyswap-periphery/KalyswapRouter.sol\":13270:13277  amounts */\n      dup3\n        /* \"CoreContracts/kalyswap-periphery/KalyswapRouter.sol\":13279:13283  path */\n      dup8\n      dup8\n        /* \"CoreContracts/kalyswap-periphery/KalyswapRouter.sol\":13264:13288  _swap(amounts, path, to) */\n      dup1\n      dup1\n      0x20\n      mul\n      0x20\n      add\n      mload(0x40)\n      swap1\n      dup2\n      add\n      0x40\n      mstore\n      dup1\n      swap4\n      swap3\n      swap2\n      swap1\n      dup2\n      dup2\n      mstore\n      0x20\n      add\n      dup4\n      dup4\n      0x20\n      mul\n        /* \"--CODEGEN--\":30:33   */\n      dup1\n        /* \"--CODEGEN--\":22:28   */\n      dup3\n        /* \"--CODEGEN--\":14:20   */\n      dup5\n        /* \"--CODEGEN--\":1:34   */\n      calldatacopy\n        /* \"--CODEGEN--\":99:100   */\n      0x00\n        /* \"--CODEGEN--\":81:97   */\n      swap3\n      add\n        /* \"--CODEGEN--\":74:101   */\n      swap2\n      swap1\n      swap2\n      mstore\n      pop\n        /* \"CoreContracts/kalyswap-periphery/KalyswapRouter.sol\":13285:13287  to */\n      dup10\n      swap3\n      pop\n        /* \"CoreContracts/kalyswap-periphery/KalyswapRouter.sol\":13264:13269  _swap */\n      tag_205\n      swap2\n      pop\n      pop\n        /* \"CoreContracts/kalyswap-periphery/KalyswapRouter.sol\":13264:13288  _swap(amounts, path, to) */\n      jump\t// in\n    tag_352:\n        /* \"CoreContracts/kalyswap-periphery/KalyswapRouter.sol\":13349:13356  amounts */\n      dup2\n        /* \"CoreContracts/kalyswap-periphery/KalyswapRouter.sol\":13357:13358  0 */\n      0x00\n        /* \"CoreContracts/kalyswap-periphery/KalyswapRouter.sol\":13349:13359  amounts[0] */\n      dup2\n      mload\n      dup2\n      lt\n      tag_353\n      jumpi\n      invalid\n    tag_353:\n      0x20\n      mul\n      0x20\n      add\n      add\n      mload\n        /* \"CoreContracts/kalyswap-periphery/KalyswapRouter.sol\":13337:13346  msg.value */\n      callvalue\n        /* \"CoreContracts/kalyswap-periphery/KalyswapRouter.sol\":13337:13359  msg.value > amounts[0] */\n      gt\n        /* \"CoreContracts/kalyswap-periphery/KalyswapRouter.sol\":13333:13427  if (msg.value > amounts[0]) TransferHelper.safeTransferKLC(msg.sender, msg.value - amounts[0]) */\n      iszero\n      tag_355\n      jumpi\n        /* \"CoreContracts/kalyswap-periphery/KalyswapRouter.sol\":13361:13427  TransferHelper.safeTransferKLC(msg.sender, msg.value - amounts[0]) */\n      tag_355\n        /* \"CoreContracts/kalyswap-periphery/KalyswapRouter.sol\":13392:13402  msg.sender */\n      caller\n        /* \"CoreContracts/kalyswap-periphery/KalyswapRouter.sol\":13416:13423  amounts */\n      dup4\n        /* \"CoreContracts/kalyswap-periphery/KalyswapRouter.sol\":13424:13425  0 */\n      0x00\n        /* \"CoreContracts/kalyswap-periphery/KalyswapRouter.sol\":13416:13426  amounts[0] */\n      dup2\n      mload\n      dup2\n      lt\n      tag_356\n      jumpi\n      invalid\n    tag_356:\n      0x20\n      mul\n      0x20\n      add\n      add\n      mload\n        /* \"CoreContracts/kalyswap-periphery/KalyswapRouter.sol\":13404:13413  msg.value */\n      callvalue\n        /* \"CoreContracts/kalyswap-periphery/KalyswapRouter.sol\":13404:13426  msg.value - amounts[0] */\n      sub\n        /* \"CoreContracts/kalyswap-periphery/KalyswapRouter.sol\":13361:13391  TransferHelper.safeTransferKLC */\n      tag_212\n        /* \"CoreContracts/kalyswap-periphery/KalyswapRouter.sol\":13361:13427  TransferHelper.safeTransferKLC(msg.sender, msg.value - amounts[0]) */\n      jump\t// in\n    tag_355:\n        /* \"CoreContracts/kalyswap-periphery/KalyswapRouter.sol\":12644:13434  function swapKLCForExactTokens(uint amountOut, address[] calldata path, address to, uint deadline)... */\n      pop\n      swap6\n      swap5\n      pop\n      pop\n      pop\n      pop\n      pop\n      jump\t// out\n        /* \"CoreContracts/kalyswap-periphery/KalyswapRouter.sol\":10312:10991  function swapExactKLCForTokens(uint amountOutMin, address[] calldata path, address to, uint deadline)... */\n    tag_132:\n        /* \"CoreContracts/kalyswap-periphery/KalyswapRouter.sol\":10522:10543  uint[] memory amounts */\n      0x60\n        /* \"CoreContracts/kalyswap-periphery/KalyswapRouter.sol\":10495:10503  deadline */\n      dup2\n        /* \"CoreContracts/kalyswap-periphery/KalyswapRouter.sol\":560:575  block.timestamp */\n      timestamp\n        /* \"CoreContracts/kalyswap-periphery/KalyswapRouter.sol\":548:556  deadline */\n      dup2\n        /* \"CoreContracts/kalyswap-periphery/KalyswapRouter.sol\":548:575  deadline >= block.timestamp */\n      lt\n      iszero\n        /* \"CoreContracts/kalyswap-periphery/KalyswapRouter.sol\":540:603  require(deadline >= block.timestamp, 'KalyswapRouter: EXPIRED') */\n      tag_358\n      jumpi\n      0x40\n      dup1\n      mload\n      shl(0xe5, 0x461bcd)\n      dup2\n      mstore\n      0x20\n      0x04\n      dup3\n      add\n      mstore\n      0x17\n      0x24\n      dup3\n      add\n      mstore\n      0x00\n      dup1\n      mload\n      0x20\n      data_c37a5828941e3f3d234159361fc5f20834c08e197405b7b4d61af4ea6dee60a5\n      dup4\n      codecopy\n      dup2\n      mload\n      swap2\n      mstore\n      0x44\n      dup3\n      add\n      mstore\n      swap1\n      mload\n      swap1\n      dup2\n      swap1\n      sub\n      0x64\n      add\n      swap1\n      revert\n    tag_358:\n        /* \"CoreContracts/kalyswap-periphery/KalyswapRouter.sol\":10578:10582  WKLC */\n      immutable(\"0xe96cc20f241c05b09b05be99fa40d483e0c60480c24cfabd29fea373217f3b30\")\n      sub(shl(0xa0, 0x01), 0x01)\n        /* \"CoreContracts/kalyswap-periphery/KalyswapRouter.sol\":10567:10582  path[0] == WKLC */\n      and\n        /* \"CoreContracts/kalyswap-periphery/KalyswapRouter.sol\":10567:10571  path */\n      dup7\n      dup7\n        /* \"CoreContracts/kalyswap-periphery/KalyswapRouter.sol\":10572:10573  0 */\n      0x00\n        /* \"CoreContracts/kalyswap-periphery/KalyswapRouter.sol\":10567:10574  path[0] */\n      dup2\n      dup2\n      lt\n      tag_360\n      jumpi\n      invalid\n    tag_360:\n      swap1\n      pop\n      0x20\n      mul\n      add\n      calldataload\n      sub(shl(0xa0, 0x01), 0x01)\n      and\n      sub(shl(0xa0, 0x01), 0x01)\n        /* \"CoreContracts/kalyswap-periphery/KalyswapRouter.sol\":10567:10582  path[0] == WKLC */\n      and\n      eq\n        /* \"CoreContracts/kalyswap-periphery/KalyswapRouter.sol\":10559:10615  require(path[0] == WKLC, 'KalyswapRouter: INVALID_PATH') */\n      tag_361\n      jumpi\n      0x40\n      dup1\n      mload\n      shl(0xe5, 0x461bcd)\n      dup2\n      mstore\n      0x20\n      0x04\n      dup3\n      add\n      mstore\n      0x1c\n      0x24\n      dup3\n      add\n      mstore\n      0x4b616c7973776170526f757465723a20494e56414c49445f5041544800000000\n      0x44\n      dup3\n      add\n      mstore\n      swap1\n      mload\n      swap1\n      dup2\n      swap1\n      sub\n      0x64\n      add\n      swap1\n      revert\n    tag_361:\n        /* \"CoreContracts/kalyswap-periphery/KalyswapRouter.sol\":10635:10690  KalyswapLibrary.getAmountsOut(factory, msg.value, path) */\n      tag_362\n        /* \"CoreContracts/kalyswap-periphery/KalyswapRouter.sol\":10665:10672  factory */\n      immutable(\"0x59ec111d9d8ceec2ab223a1d5004f35d19292b31c8f02c623d83a90888216dda\")\n        /* \"CoreContracts/kalyswap-periphery/KalyswapRouter.sol\":10674:10683  msg.value */\n      callvalue\n        /* \"CoreContracts/kalyswap-periphery/KalyswapRouter.sol\":10685:10689  path */\n      dup9\n      dup9\n        /* \"CoreContracts/kalyswap-periphery/KalyswapRouter.sol\":10635:10690  KalyswapLibrary.getAmountsOut(factory, msg.value, path) */\n      dup1\n      dup1\n      0x20\n      mul\n      0x20\n      add\n      mload(0x40)\n      swap1\n      dup2\n      add\n      0x40\n      mstore\n      dup1\n      swap4\n      swap3\n      swap2\n      swap1\n      dup2\n      dup2\n      mstore\n      0x20\n      add\n      dup4\n      dup4\n      0x20\n      mul\n        /* \"--CODEGEN--\":30:33   */\n      dup1\n        /* \"--CODEGEN--\":22:28   */\n      dup3\n        /* \"--CODEGEN--\":14:20   */\n      dup5\n        /* \"--CODEGEN--\":1:34   */\n      calldatacopy\n        /* \"--CODEGEN--\":99:100   */\n      0x00\n        /* \"--CODEGEN--\":81:97   */\n      swap3\n      add\n        /* \"--CODEGEN--\":74:101   */\n      swap2\n      swap1\n      swap2\n      mstore\n      pop\n        /* \"CoreContracts/kalyswap-periphery/KalyswapRouter.sol\":10635:10664  KalyswapLibrary.getAmountsOut */\n      tag_249\n      swap3\n      pop\n      pop\n      pop\n        /* \"CoreContracts/kalyswap-periphery/KalyswapRouter.sol\":10635:10690  KalyswapLibrary.getAmountsOut(factory, msg.value, path) */\n      jump\t// in\n    tag_362:\n        /* \"CoreContracts/kalyswap-periphery/KalyswapRouter.sol\":10625:10690  amounts = KalyswapLibrary.getAmountsOut(factory, msg.value, path) */\n      swap2\n      pop\n        /* \"CoreContracts/kalyswap-periphery/KalyswapRouter.sol\":10739:10751  amountOutMin */\n      dup7\n        /* \"CoreContracts/kalyswap-periphery/KalyswapRouter.sol\":10708:10715  amounts */\n      dup3\n        /* \"CoreContracts/kalyswap-periphery/KalyswapRouter.sol\":10733:10734  1 */\n      0x01\n        /* \"CoreContracts/kalyswap-periphery/KalyswapRouter.sol\":10716:10723  amounts */\n      dup5\n        /* \"CoreContracts/kalyswap-periphery/KalyswapRouter.sol\":10716:10730  amounts.length */\n      mload\n        /* \"CoreContracts/kalyswap-periphery/KalyswapRouter.sol\":10716:10734  amounts.length - 1 */\n      sub\n        /* \"CoreContracts/kalyswap-periphery/KalyswapRouter.sol\":10708:10735  amounts[amounts.length - 1] */\n      dup2\n      mload\n      dup2\n      lt\n      tag_363\n      jumpi\n      invalid\n    tag_363:\n      0x20\n      mul\n      0x20\n      add\n      add\n      mload\n        /* \"CoreContracts/kalyswap-periphery/KalyswapRouter.sol\":10708:10751  amounts[amounts.length - 1] >= amountOutMin */\n      lt\n      iszero\n        /* \"CoreContracts/kalyswap-periphery/KalyswapRouter.sol\":10700:10798  require(amounts[amounts.length - 1] >= amountOutMin, 'KalyswapRouter: INSUFFICIENT_OUTPUT_AMOUNT') */\n      tag_364\n      jumpi\n      mload(0x40)\n      shl(0xe5, 0x461bcd)\n      dup2\n      mstore\n      0x04\n      add\n      dup1\n      dup1\n      0x20\n      add\n      dup3\n      dup2\n      sub\n      dup3\n      mstore\n      0x2a\n      dup2\n      mstore\n      0x20\n      add\n      dup1\n      data_69424968b2f941cdfb32abf1c018d39f661402aca14098785e89d085b08f7f30\n      0x2a\n      swap2\n      codecopy\n      0x40\n      add\n      swap2\n      pop\n      pop\n      mload(0x40)\n      dup1\n      swap2\n      sub\n      swap1\n      revert\n    tag_364:\n        /* \"CoreContracts/kalyswap-periphery/KalyswapRouter.sol\":10814:10818  WKLC */\n      immutable(\"0xe96cc20f241c05b09b05be99fa40d483e0c60480c24cfabd29fea373217f3b30\")\n      sub(shl(0xa0, 0x01), 0x01)\n        /* \"CoreContracts/kalyswap-periphery/KalyswapRouter.sol\":10808:10827  IWKLC(WKLC).deposit */\n      and\n      0xd0e30db0\n        /* \"CoreContracts/kalyswap-periphery/KalyswapRouter.sol\":10835:10842  amounts */\n      dup4\n        /* \"CoreContracts/kalyswap-periphery/KalyswapRouter.sol\":10843:10844  0 */\n      0x00\n        /* \"CoreContracts/kalyswap-periphery/KalyswapRouter.sol\":10835:10845  amounts[0] */\n      dup2\n      mload\n      dup2\n      lt\n      tag_365\n      jumpi\n      invalid\n    tag_365:\n      0x20\n      mul\n      0x20\n      add\n      add\n      mload\n        /* \"CoreContracts/kalyswap-periphery/KalyswapRouter.sol\":10808:10848  IWKLC(WKLC).deposit{value: amounts[0]}() */\n      mload(0x40)\n      dup3\n      0xffffffff\n      and\n      0xe0\n      shl\n      dup2\n      mstore\n      0x04\n      add\n      0x00\n      mload(0x40)\n      dup1\n      dup4\n      sub\n      dup2\n      dup6\n      dup9\n      dup1\n      extcodesize\n      iszero\n        /* \"--CODEGEN--\":5:14   */\n      dup1\n        /* \"--CODEGEN--\":2:4   */\n      iszero\n      tag_366\n      jumpi\n        /* \"--CODEGEN--\":27:28   */\n      0x00\n        /* \"--CODEGEN--\":24:25   */\n      dup1\n        /* \"--CODEGEN--\":17:29   */\n      revert\n        /* \"--CODEGEN--\":2:4   */\n    tag_366:\n        /* \"CoreContracts/kalyswap-periphery/KalyswapRouter.sol\":10808:10848  IWKLC(WKLC).deposit{value: amounts[0]}() */\n      pop\n      gas\n      call\n      iszero\n        /* \"--CODEGEN--\":8:17   */\n      dup1\n        /* \"--CODEGEN--\":5:7   */\n      iszero\n      tag_368\n      jumpi\n        /* \"--CODEGEN--\":45:61   */\n      returndatasize\n        /* \"--CODEGEN--\":42:43   */\n      0x00\n        /* \"--CODEGEN--\":39:40   */\n      dup1\n        /* \"--CODEGEN--\":24:62   */\n      returndatacopy\n        /* \"--CODEGEN--\":77:93   */\n      returndatasize\n        /* \"--CODEGEN--\":74:75   */\n      0x00\n        /* \"--CODEGEN--\":67:94   */\n      revert\n        /* \"--CODEGEN--\":5:7   */\n    tag_368:\n        /* \"CoreContracts/kalyswap-periphery/KalyswapRouter.sol\":10808:10848  IWKLC(WKLC).deposit{value: amounts[0]}() */\n      pop\n      pop\n      pop\n      pop\n      pop\n        /* \"CoreContracts/kalyswap-periphery/KalyswapRouter.sol\":10871:10875  WKLC */\n      immutable(\"0xe96cc20f241c05b09b05be99fa40d483e0c60480c24cfabd29fea373217f3b30\")\n      sub(shl(0xa0, 0x01), 0x01)\n        /* \"CoreContracts/kalyswap-periphery/KalyswapRouter.sol\":10865:10885  IWKLC(WKLC).transfer */\n      and\n      0xa9059cbb\n        /* \"CoreContracts/kalyswap-periphery/KalyswapRouter.sol\":10886:10936  KalyswapLibrary.pairFor(factory, path[0], path[1]) */\n      tag_369\n        /* \"CoreContracts/kalyswap-periphery/KalyswapRouter.sol\":10910:10917  factory */\n      immutable(\"0x59ec111d9d8ceec2ab223a1d5004f35d19292b31c8f02c623d83a90888216dda\")\n        /* \"CoreContracts/kalyswap-periphery/KalyswapRouter.sol\":10919:10923  path */\n      dup10\n      dup10\n        /* \"CoreContracts/kalyswap-periphery/KalyswapRouter.sol\":10924:10925  0 */\n      0x00\n        /* \"CoreContracts/kalyswap-periphery/KalyswapRouter.sol\":10919:10926  path[0] */\n      dup2\n      dup2\n      lt\n      tag_265\n      jumpi\n      invalid\n        /* \"CoreContracts/kalyswap-periphery/KalyswapRouter.sol\":10886:10936  KalyswapLibrary.pairFor(factory, path[0], path[1]) */\n    tag_369:\n        /* \"CoreContracts/kalyswap-periphery/KalyswapRouter.sol\":10938:10945  amounts */\n      dup5\n        /* \"CoreContracts/kalyswap-periphery/KalyswapRouter.sol\":10946:10947  0 */\n      0x00\n        /* \"CoreContracts/kalyswap-periphery/KalyswapRouter.sol\":10938:10948  amounts[0] */\n      dup2\n      mload\n      dup2\n      lt\n      tag_372\n      jumpi\n      invalid\n    tag_372:\n      0x20\n      mul\n      0x20\n      add\n      add\n      mload\n        /* \"CoreContracts/kalyswap-periphery/KalyswapRouter.sol\":10865:10949  IWKLC(WKLC).transfer(KalyswapLibrary.pairFor(factory, path[0], path[1]), amounts[0]) */\n      mload(0x40)\n      dup4\n      0xffffffff\n      and\n      0xe0\n      shl\n      dup2\n      mstore\n      0x04\n      add\n      dup1\n      dup4\n      sub(shl(0xa0, 0x01), 0x01)\n      and\n      sub(shl(0xa0, 0x01), 0x01)\n      and\n      dup2\n      mstore\n      0x20\n      add\n      dup3\n      dup2\n      mstore\n      0x20\n      add\n      swap3\n      pop\n      pop\n      pop\n      0x20\n      mload(0x40)\n      dup1\n      dup4\n      sub\n      dup2\n      0x00\n      dup8\n      dup1\n      extcodesize\n      iszero\n        /* \"--CODEGEN--\":5:14   */\n      dup1\n        /* \"--CODEGEN--\":2:4   */\n      iszero\n      tag_373\n      jumpi\n        /* \"--CODEGEN--\":27:28   */\n      0x00\n        /* \"--CODEGEN--\":24:25   */\n      dup1\n        /* \"--CODEGEN--\":17:29   */\n      revert\n        /* \"--CODEGEN--\":2:4   */\n    tag_373:\n        /* \"CoreContracts/kalyswap-periphery/KalyswapRouter.sol\":10865:10949  IWKLC(WKLC).transfer(KalyswapLibrary.pairFor(factory, path[0], path[1]), amounts[0]) */\n      pop\n      gas\n      call\n      iszero\n        /* \"--CODEGEN--\":8:17   */\n      dup1\n        /* \"--CODEGEN--\":5:7   */\n      iszero\n      tag_375\n      jumpi\n        /* \"--CODEGEN--\":45:61   */\n      returndatasize\n        /* \"--CODEGEN--\":42:43   */\n      0x00\n        /* \"--CODEGEN--\":39:40   */\n      dup1\n        /* \"--CODEGEN--\":24:62   */\n      returndatacopy\n        /* \"--CODEGEN--\":77:93   */\n      returndatasize\n        /* \"--CODEGEN--\":74:75   */\n      0x00\n        /* \"--CODEGEN--\":67:94   */\n      revert\n        /* \"--CODEGEN--\":5:7   */\n    tag_375:\n        /* \"CoreContracts/kalyswap-periphery/KalyswapRouter.sol\":10865:10949  IWKLC(WKLC).transfer(KalyswapLibrary.pairFor(factory, path[0], path[1]), amounts[0]) */\n      pop\n      pop\n      pop\n      pop\n      mload(0x40)\n      returndatasize\n        /* \"--CODEGEN--\":15:17   */\n      0x20\n        /* \"--CODEGEN--\":10:13   */\n      dup2\n        /* \"--CODEGEN--\":7:18   */\n      lt\n        /* \"--CODEGEN--\":4:6   */\n      iszero\n      tag_376\n      jumpi\n        /* \"--CODEGEN--\":31:32   */\n      0x00\n        /* \"--CODEGEN--\":28:29   */\n      dup1\n        /* \"--CODEGEN--\":21:33   */\n      revert\n        /* \"--CODEGEN--\":4:6   */\n    tag_376:\n      pop\n        /* \"CoreContracts/kalyswap-periphery/KalyswapRouter.sol\":10865:10949  IWKLC(WKLC).transfer(KalyswapLibrary.pairFor(factory, path[0], path[1]), amounts[0]) */\n      mload\n        /* \"CoreContracts/kalyswap-periphery/KalyswapRouter.sol\":10858:10950  assert(IWKLC(WKLC).transfer(KalyswapLibrary.pairFor(factory, path[0], path[1]), amounts[0])) */\n      tag_377\n      jumpi\n      invalid\n    tag_377:\n        /* \"CoreContracts/kalyswap-periphery/KalyswapRouter.sol\":10960:10984  _swap(amounts, path, to) */\n      tag_355\n        /* \"CoreContracts/kalyswap-periphery/KalyswapRouter.sol\":10966:10973  amounts */\n      dup3\n        /* \"CoreContracts/kalyswap-periphery/KalyswapRouter.sol\":10975:10979  path */\n      dup8\n      dup8\n        /* \"CoreContracts/kalyswap-periphery/KalyswapRouter.sol\":10960:10984  _swap(amounts, path, to) */\n      dup1\n      dup1\n      0x20\n      mul\n      0x20\n      add\n      mload(0x40)\n      swap1\n      dup2\n      add\n      0x40\n      mstore\n      dup1\n      swap4\n      swap3\n      swap2\n      swap1\n      dup2\n      dup2\n      mstore\n      0x20\n      add\n      dup4\n      dup4\n      0x20\n      mul\n        /* \"--CODEGEN--\":30:33   */\n      dup1\n        /* \"--CODEGEN--\":22:28   */\n      dup3\n        /* \"--CODEGEN--\":14:20   */\n      dup5\n        /* \"--CODEGEN--\":1:34   */\n      calldatacopy\n        /* \"--CODEGEN--\":99:100   */\n      0x00\n        /* \"--CODEGEN--\":81:97   */\n      swap3\n      add\n        /* \"--CODEGEN--\":74:101   */\n      swap2\n      swap1\n      swap2\n      mstore\n      pop\n        /* \"CoreContracts/kalyswap-periphery/KalyswapRouter.sol\":10981:10983  to */\n      dup10\n      swap3\n      pop\n        /* \"CoreContracts/kalyswap-periphery/KalyswapRouter.sol\":10960:10965  _swap */\n      tag_205\n      swap2\n      pop\n      pop\n        /* \"CoreContracts/kalyswap-periphery/KalyswapRouter.sol\":10960:10984  _swap(amounts, path, to) */\n      jump\t// in\n        /* \"CoreContracts/kalyswap-periphery/KalyswapRouter.sol\":16304:17123  function swapExactTokensForKLCSupportingFeeOnTransferTokens(... */\n    tag_142:\n        /* \"CoreContracts/kalyswap-periphery/KalyswapRouter.sol\":16561:16569  deadline */\n      dup1\n        /* \"CoreContracts/kalyswap-periphery/KalyswapRouter.sol\":560:575  block.timestamp */\n      timestamp\n        /* \"CoreContracts/kalyswap-periphery/KalyswapRouter.sol\":548:556  deadline */\n      dup2\n        /* \"CoreContracts/kalyswap-periphery/KalyswapRouter.sol\":548:575  deadline >= block.timestamp */\n      lt\n      iszero\n        /* \"CoreContracts/kalyswap-periphery/KalyswapRouter.sol\":540:603  require(deadline >= block.timestamp, 'KalyswapRouter: EXPIRED') */\n      tag_380\n      jumpi\n      0x40\n      dup1\n      mload\n      shl(0xe5, 0x461bcd)\n      dup2\n      mstore\n      0x20\n      0x04\n      dup3\n      add\n      mstore\n      0x17\n      0x24\n      dup3\n      add\n      mstore\n      0x00\n      dup1\n      mload\n      0x20\n      data_c37a5828941e3f3d234159361fc5f20834c08e197405b7b4d61af4ea6dee60a5\n      dup4\n      codecopy\n      dup2\n      mload\n      swap2\n      mstore\n      0x44\n      dup3\n      add\n      mstore\n      swap1\n      mload\n      swap1\n      dup2\n      swap1\n      sub\n      0x64\n      add\n      swap1\n      revert\n    tag_380:\n      sub(shl(0xa0, 0x01), 0x01)\n        /* \"CoreContracts/kalyswap-periphery/KalyswapRouter.sol\":16618:16622  WKLC */\n      immutable(\"0xe96cc20f241c05b09b05be99fa40d483e0c60480c24cfabd29fea373217f3b30\")\n        /* \"CoreContracts/kalyswap-periphery/KalyswapRouter.sol\":16593:16622  path[path.length - 1] == WKLC */\n      and\n        /* \"CoreContracts/kalyswap-periphery/KalyswapRouter.sol\":16593:16597  path */\n      dup6\n      dup6\n      not(0x00)\n        /* \"CoreContracts/kalyswap-periphery/KalyswapRouter.sol\":16598:16613  path.length - 1 */\n      dup2\n      add\n        /* \"CoreContracts/kalyswap-periphery/KalyswapRouter.sol\":16593:16614  path[path.length - 1] */\n      dup2\n      dup2\n      lt\n      tag_382\n      jumpi\n      invalid\n    tag_382:\n      swap1\n      pop\n      0x20\n      mul\n      add\n      calldataload\n      sub(shl(0xa0, 0x01), 0x01)\n      and\n      sub(shl(0xa0, 0x01), 0x01)\n        /* \"CoreContracts/kalyswap-periphery/KalyswapRouter.sol\":16593:16622  path[path.length - 1] == WKLC */\n      and\n      eq\n        /* \"CoreContracts/kalyswap-periphery/KalyswapRouter.sol\":16585:16655  require(path[path.length - 1] == WKLC, 'KalyswapRouter: INVALID_PATH') */\n      tag_383\n      jumpi\n      0x40\n      dup1\n      mload\n      shl(0xe5, 0x461bcd)\n      dup2\n      mstore\n      0x20\n      0x04\n      dup3\n      add\n      mstore\n      0x1c\n      0x24\n      dup3\n      add\n      mstore\n      0x4b616c7973776170526f757465723a20494e56414c49445f5041544800000000\n      0x44\n      dup3\n      add\n      mstore\n      swap1\n      mload\n      swap1\n      dup2\n      swap1\n      sub\n      0x64\n      add\n      swap1\n      revert\n    tag_383:\n        /* \"CoreContracts/kalyswap-periphery/KalyswapRouter.sol\":16665:16801  TransferHelper.safeTransferFrom(... */\n      tag_384\n        /* \"CoreContracts/kalyswap-periphery/KalyswapRouter.sol\":16710:16714  path */\n      dup6\n      dup6\n        /* \"CoreContracts/kalyswap-periphery/KalyswapRouter.sol\":16715:16716  0 */\n      0x00\n        /* \"CoreContracts/kalyswap-periphery/KalyswapRouter.sol\":16710:16717  path[0] */\n      dup2\n      dup2\n      lt\n      tag_263\n      jumpi\n      invalid\n        /* \"CoreContracts/kalyswap-periphery/KalyswapRouter.sol\":16665:16801  TransferHelper.safeTransferFrom(... */\n    tag_384:\n        /* \"CoreContracts/kalyswap-periphery/KalyswapRouter.sol\":16811:16866  _swapSupportingFeeOnTransferTokens(path, address(this)) */\n      tag_389\n        /* \"CoreContracts/kalyswap-periphery/KalyswapRouter.sol\":16846:16850  path */\n      dup6\n      dup6\n        /* \"CoreContracts/kalyswap-periphery/KalyswapRouter.sol\":16811:16866  _swapSupportingFeeOnTransferTokens(path, address(this)) */\n      dup1\n      dup1\n      0x20\n      mul\n      0x20\n      add\n      mload(0x40)\n      swap1\n      dup2\n      add\n      0x40\n      mstore\n      dup1\n      swap4\n      swap3\n      swap2\n      swap1\n      dup2\n      dup2\n      mstore\n      0x20\n      add\n      dup4\n      dup4\n      0x20\n      mul\n        /* \"--CODEGEN--\":30:33   */\n      dup1\n        /* \"--CODEGEN--\":22:28   */\n      dup3\n        /* \"--CODEGEN--\":14:20   */\n      dup5\n        /* \"--CODEGEN--\":1:34   */\n      calldatacopy\n        /* \"--CODEGEN--\":99:100   */\n      0x00\n        /* \"--CODEGEN--\":81:97   */\n      swap3\n      add\n        /* \"--CODEGEN--\":74:101   */\n      swap2\n      swap1\n      swap2\n      mstore\n      pop\n        /* \"CoreContracts/kalyswap-periphery/KalyswapRouter.sol\":16860:16864  this */\n      address\n      swap3\n      pop\n        /* \"CoreContracts/kalyswap-periphery/KalyswapRouter.sol\":16811:16845  _swapSupportingFeeOnTransferTokens */\n      tag_273\n      swap2\n      pop\n      pop\n        /* \"CoreContracts/kalyswap-periphery/KalyswapRouter.sol\":16811:16866  _swapSupportingFeeOnTransferTokens(path, address(this)) */\n      jump\t// in\n    tag_389:\n        /* \"CoreContracts/kalyswap-periphery/KalyswapRouter.sol\":16893:16930  IERC20(WKLC).balanceOf(address(this)) */\n      0x40\n      dup1\n      mload\n      shl(0xe0, 0x70a08231)\n      dup2\n      mstore\n        /* \"CoreContracts/kalyswap-periphery/KalyswapRouter.sol\":16924:16928  this */\n      address\n        /* \"CoreContracts/kalyswap-periphery/KalyswapRouter.sol\":16893:16930  IERC20(WKLC).balanceOf(address(this)) */\n      0x04\n      dup3\n      add\n      mstore\n      swap1\n      mload\n        /* \"CoreContracts/kalyswap-periphery/KalyswapRouter.sol\":16876:16890  uint amountOut */\n      0x00\n      swap2\n      sub(shl(0xa0, 0x01), 0x01)\n        /* \"CoreContracts/kalyswap-periphery/KalyswapRouter.sol\":16900:16904  WKLC */\n      immutable(\"0xe96cc20f241c05b09b05be99fa40d483e0c60480c24cfabd29fea373217f3b30\")\n        /* \"CoreContracts/kalyswap-periphery/KalyswapRouter.sol\":16893:16915  IERC20(WKLC).balanceOf */\n      and\n      swap2\n      0x70a08231\n      swap2\n        /* \"CoreContracts/kalyswap-periphery/KalyswapRouter.sol\":16893:16930  IERC20(WKLC).balanceOf(address(this)) */\n      0x24\n      dup1\n      dup3\n      add\n      swap3\n      0x20\n      swap3\n      swap1\n      swap2\n      swap1\n      dup3\n      swap1\n      sub\n      add\n      dup2\n        /* \"CoreContracts/kalyswap-periphery/KalyswapRouter.sol\":16893:16915  IERC20(WKLC).balanceOf */\n      dup7\n        /* \"CoreContracts/kalyswap-periphery/KalyswapRouter.sol\":16893:16930  IERC20(WKLC).balanceOf(address(this)) */\n      dup1\n      extcodesize\n      iszero\n        /* \"--CODEGEN--\":2:4   */\n      dup1\n      iszero\n      tag_390\n      jumpi\n        /* \"--CODEGEN--\":27:28   */\n      0x00\n        /* \"--CODEGEN--\":24:25   */\n      dup1\n        /* \"--CODEGEN--\":17:29   */\n      revert\n        /* \"--CODEGEN--\":2:4   */\n    tag_390:\n        /* \"CoreContracts/kalyswap-periphery/KalyswapRouter.sol\":16893:16930  IERC20(WKLC).balanceOf(address(this)) */\n      pop\n      gas\n      staticcall\n      iszero\n        /* \"--CODEGEN--\":8:17   */\n      dup1\n        /* \"--CODEGEN--\":5:7   */\n      iszero\n      tag_392\n      jumpi\n        /* \"--CODEGEN--\":45:61   */\n      returndatasize\n        /* \"--CODEGEN--\":42:43   */\n      0x00\n        /* \"--CODEGEN--\":39:40   */\n      dup1\n        /* \"--CODEGEN--\":24:62   */\n      returndatacopy\n        /* \"--CODEGEN--\":77:93   */\n      returndatasize\n        /* \"--CODEGEN--\":74:75   */\n      0x00\n        /* \"--CODEGEN--\":67:94   */\n      revert\n        /* \"--CODEGEN--\":5:7   */\n    tag_392:\n        /* \"CoreContracts/kalyswap-periphery/KalyswapRouter.sol\":16893:16930  IERC20(WKLC).balanceOf(address(this)) */\n      pop\n      pop\n      pop\n      pop\n      mload(0x40)\n      returndatasize\n        /* \"--CODEGEN--\":15:17   */\n      0x20\n        /* \"--CODEGEN--\":10:13   */\n      dup2\n        /* \"--CODEGEN--\":7:18   */\n      lt\n        /* \"--CODEGEN--\":4:6   */\n      iszero\n      tag_393\n      jumpi\n        /* \"--CODEGEN--\":31:32   */\n      0x00\n        /* \"--CODEGEN--\":28:29   */\n      dup1\n        /* \"--CODEGEN--\":21:33   */\n      revert\n        /* \"--CODEGEN--\":4:6   */\n    tag_393:\n      pop\n        /* \"CoreContracts/kalyswap-periphery/KalyswapRouter.sol\":16893:16930  IERC20(WKLC).balanceOf(address(this)) */\n      mload\n      swap1\n      pop\n        /* \"CoreContracts/kalyswap-periphery/KalyswapRouter.sol\":16948:16973  amountOut >= amountOutMin */\n      dup7\n      dup2\n      lt\n      iszero\n        /* \"CoreContracts/kalyswap-periphery/KalyswapRouter.sol\":16940:17020  require(amountOut >= amountOutMin, 'KalyswapRouter: INSUFFICIENT_OUTPUT_AMOUNT') */\n      tag_394\n      jumpi\n      mload(0x40)\n      shl(0xe5, 0x461bcd)\n      dup2\n      mstore\n      0x04\n      add\n      dup1\n      dup1\n      0x20\n      add\n      dup3\n      dup2\n      sub\n      dup3\n      mstore\n      0x2a\n      dup2\n      mstore\n      0x20\n      add\n      dup1\n      data_69424968b2f941cdfb32abf1c018d39f661402aca14098785e89d085b08f7f30\n      0x2a\n      swap2\n      codecopy\n      0x40\n      add\n      swap2\n      pop\n      pop\n      mload(0x40)\n      dup1\n      swap2\n      sub\n      swap1\n      revert\n    tag_394:\n        /* \"CoreContracts/kalyswap-periphery/KalyswapRouter.sol\":17036:17040  WKLC */\n      immutable(\"0xe96cc20f241c05b09b05be99fa40d483e0c60480c24cfabd29fea373217f3b30\")\n      sub(shl(0xa0, 0x01), 0x01)\n        /* \"CoreContracts/kalyswap-periphery/KalyswapRouter.sol\":17030:17050  IWKLC(WKLC).withdraw */\n      and\n      0x2e1a7d4d\n        /* \"CoreContracts/kalyswap-periphery/KalyswapRouter.sol\":17051:17060  amountOut */\n      dup3\n        /* \"CoreContracts/kalyswap-periphery/KalyswapRouter.sol\":17030:17061  IWKLC(WKLC).withdraw(amountOut) */\n      mload(0x40)\n      dup3\n      0xffffffff\n      and\n      0xe0\n      shl\n      dup2\n      mstore\n      0x04\n      add\n      dup1\n      dup3\n      dup2\n      mstore\n      0x20\n      add\n      swap2\n      pop\n      pop\n      0x00\n      mload(0x40)\n      dup1\n      dup4\n      sub\n      dup2\n      0x00\n      dup8\n      dup1\n      extcodesize\n      iszero\n        /* \"--CODEGEN--\":5:14   */\n      dup1\n        /* \"--CODEGEN--\":2:4   */\n      iszero\n      tag_395\n      jumpi\n        /* \"--CODEGEN--\":27:28   */\n      0x00\n        /* \"--CODEGEN--\":24:25   */\n      dup1\n        /* \"--CODEGEN--\":17:29   */\n      revert\n        /* \"--CODEGEN--\":2:4   */\n    tag_395:\n        /* \"CoreContracts/kalyswap-periphery/KalyswapRouter.sol\":17030:17061  IWKLC(WKLC).withdraw(amountOut) */\n      pop\n      gas\n      call\n      iszero\n        /* \"--CODEGEN--\":8:17   */\n      dup1\n        /* \"--CODEGEN--\":5:7   */\n      iszero\n      tag_397\n      jumpi\n        /* \"--CODEGEN--\":45:61   */\n      returndatasize\n        /* \"--CODEGEN--\":42:43   */\n      0x00\n        /* \"--CODEGEN--\":39:40   */\n      dup1\n        /* \"--CODEGEN--\":24:62   */\n      returndatacopy\n        /* \"--CODEGEN--\":77:93   */\n      returndatasize\n        /* \"--CODEGEN--\":74:75   */\n      0x00\n        /* \"--CODEGEN--\":67:94   */\n      revert\n        /* \"--CODEGEN--\":5:7   */\n    tag_397:\n        /* \"CoreContracts/kalyswap-periphery/KalyswapRouter.sol\":17030:17061  IWKLC(WKLC).withdraw(amountOut) */\n      pop\n      pop\n      pop\n      pop\n        /* \"CoreContracts/kalyswap-periphery/KalyswapRouter.sol\":17071:17116  TransferHelper.safeTransferKLC(to, amountOut) */\n      tag_281\n        /* \"CoreContracts/kalyswap-periphery/KalyswapRouter.sol\":17102:17104  to */\n      dup5\n        /* \"CoreContracts/kalyswap-periphery/KalyswapRouter.sol\":17106:17115  amountOut */\n      dup3\n        /* \"CoreContracts/kalyswap-periphery/KalyswapRouter.sol\":17071:17101  TransferHelper.safeTransferKLC */\n      tag_212\n        /* \"CoreContracts/kalyswap-periphery/KalyswapRouter.sol\":17071:17116  TransferHelper.safeTransferKLC(to, amountOut) */\n      jump\t// in\n        /* \"CoreContracts/kalyswap-periphery/KalyswapRouter.sol\":15474:16299  function swapExactKLCForTokensSupportingFeeOnTransferTokens(... */\n    tag_148:\n        /* \"CoreContracts/kalyswap-periphery/KalyswapRouter.sol\":15724:15732  deadline */\n      dup1\n        /* \"CoreContracts/kalyswap-periphery/KalyswapRouter.sol\":560:575  block.timestamp */\n      timestamp\n        /* \"CoreContracts/kalyswap-periphery/KalyswapRouter.sol\":548:556  deadline */\n      dup2\n        /* \"CoreContracts/kalyswap-periphery/KalyswapRouter.sol\":548:575  deadline >= block.timestamp */\n      lt\n      iszero\n        /* \"CoreContracts/kalyswap-periphery/KalyswapRouter.sol\":540:603  require(deadline >= block.timestamp, 'KalyswapRouter: EXPIRED') */\n      tag_400\n      jumpi\n      0x40\n      dup1\n      mload\n      shl(0xe5, 0x461bcd)\n      dup2\n      mstore\n      0x20\n      0x04\n      dup3\n      add\n      mstore\n      0x17\n      0x24\n      dup3\n      add\n      mstore\n      0x00\n      dup1\n      mload\n      0x20\n      data_c37a5828941e3f3d234159361fc5f20834c08e197405b7b4d61af4ea6dee60a5\n      dup4\n      codecopy\n      dup2\n      mload\n      swap2\n      mstore\n      0x44\n      dup3\n      add\n      mstore\n      swap1\n      mload\n      swap1\n      dup2\n      swap1\n      sub\n      0x64\n      add\n      swap1\n      revert\n    tag_400:\n        /* \"CoreContracts/kalyswap-periphery/KalyswapRouter.sol\":15767:15771  WKLC */\n      immutable(\"0xe96cc20f241c05b09b05be99fa40d483e0c60480c24cfabd29fea373217f3b30\")\n      sub(shl(0xa0, 0x01), 0x01)\n        /* \"CoreContracts/kalyswap-periphery/KalyswapRouter.sol\":15756:15771  path[0] == WKLC */\n      and\n        /* \"CoreContracts/kalyswap-periphery/KalyswapRouter.sol\":15756:15760  path */\n      dup6\n      dup6\n        /* \"CoreContracts/kalyswap-periphery/KalyswapRouter.sol\":15761:15762  0 */\n      0x00\n        /* \"CoreContracts/kalyswap-periphery/KalyswapRouter.sol\":15756:15763  path[0] */\n      dup2\n      dup2\n      lt\n      tag_402\n      jumpi\n      invalid\n    tag_402:\n      swap1\n      pop\n      0x20\n      mul\n      add\n      calldataload\n      sub(shl(0xa0, 0x01), 0x01)\n      and\n      sub(shl(0xa0, 0x01), 0x01)\n        /* \"CoreContracts/kalyswap-periphery/KalyswapRouter.sol\":15756:15771  path[0] == WKLC */\n      and\n      eq\n        /* \"CoreContracts/kalyswap-periphery/KalyswapRouter.sol\":15748:15804  require(path[0] == WKLC, 'KalyswapRouter: INVALID_PATH') */\n      tag_403\n      jumpi\n      0x40\n      dup1\n      mload\n      shl(0xe5, 0x461bcd)\n      dup2\n      mstore\n      0x20\n      0x04\n      dup3\n      add\n      mstore\n      0x1c\n      0x24\n      dup3\n      add\n      mstore\n      0x4b616c7973776170526f757465723a20494e56414c49445f5041544800000000\n      0x44\n      dup3\n      add\n      mstore\n      swap1\n      mload\n      swap1\n      dup2\n      swap1\n      sub\n      0x64\n      add\n      swap1\n      revert\n    tag_403:\n        /* \"CoreContracts/kalyswap-periphery/KalyswapRouter.sol\":15814:15827  uint amountIn */\n      0x00\n        /* \"CoreContracts/kalyswap-periphery/KalyswapRouter.sol\":15830:15839  msg.value */\n      callvalue\n        /* \"CoreContracts/kalyswap-periphery/KalyswapRouter.sol\":15814:15839  uint amountIn = msg.value */\n      swap1\n      pop\n        /* \"CoreContracts/kalyswap-periphery/KalyswapRouter.sol\":15855:15859  WKLC */\n      immutable(\"0xe96cc20f241c05b09b05be99fa40d483e0c60480c24cfabd29fea373217f3b30\")\n      sub(shl(0xa0, 0x01), 0x01)\n        /* \"CoreContracts/kalyswap-periphery/KalyswapRouter.sol\":15849:15868  IWKLC(WKLC).deposit */\n      and\n      0xd0e30db0\n        /* \"CoreContracts/kalyswap-periphery/KalyswapRouter.sol\":15876:15884  amountIn */\n      dup3\n        /* \"CoreContracts/kalyswap-periphery/KalyswapRouter.sol\":15849:15887  IWKLC(WKLC).deposit{value: amountIn}() */\n      mload(0x40)\n      dup3\n      0xffffffff\n      and\n      0xe0\n      shl\n      dup2\n      mstore\n      0x04\n      add\n      0x00\n      mload(0x40)\n      dup1\n      dup4\n      sub\n      dup2\n      dup6\n      dup9\n      dup1\n      extcodesize\n      iszero\n        /* \"--CODEGEN--\":5:14   */\n      dup1\n        /* \"--CODEGEN--\":2:4   */\n      iszero\n      tag_404\n      jumpi\n        /* \"--CODEGEN--\":27:28   */\n      0x00\n        /* \"--CODEGEN--\":24:25   */\n      dup1\n        /* \"--CODEGEN--\":17:29   */\n      revert\n        /* \"--CODEGEN--\":2:4   */\n    tag_404:\n        /* \"CoreContracts/kalyswap-periphery/KalyswapRouter.sol\":15849:15887  IWKLC(WKLC).deposit{value: amountIn}() */\n      pop\n      gas\n      call\n      iszero\n        /* \"--CODEGEN--\":8:17   */\n      dup1\n        /* \"--CODEGEN--\":5:7   */\n      iszero\n      tag_406\n      jumpi\n        /* \"--CODEGEN--\":45:61   */\n      returndatasize\n        /* \"--CODEGEN--\":42:43   */\n      0x00\n        /* \"--CODEGEN--\":39:40   */\n      dup1\n        /* \"--CODEGEN--\":24:62   */\n      returndatacopy\n        /* \"--CODEGEN--\":77:93   */\n      returndatasize\n        /* \"--CODEGEN--\":74:75   */\n      0x00\n        /* \"--CODEGEN--\":67:94   */\n      revert\n        /* \"--CODEGEN--\":5:7   */\n    tag_406:\n        /* \"CoreContracts/kalyswap-periphery/KalyswapRouter.sol\":15849:15887  IWKLC(WKLC).deposit{value: amountIn}() */\n      pop\n      pop\n      pop\n      pop\n      pop\n        /* \"CoreContracts/kalyswap-periphery/KalyswapRouter.sol\":15910:15914  WKLC */\n      immutable(\"0xe96cc20f241c05b09b05be99fa40d483e0c60480c24cfabd29fea373217f3b30\")\n      sub(shl(0xa0, 0x01), 0x01)\n        /* \"CoreContracts/kalyswap-periphery/KalyswapRouter.sol\":15904:15924  IWKLC(WKLC).transfer */\n      and\n      0xa9059cbb\n        /* \"CoreContracts/kalyswap-periphery/KalyswapRouter.sol\":15925:15975  KalyswapLibrary.pairFor(factory, path[0], path[1]) */\n      tag_407\n        /* \"CoreContracts/kalyswap-periphery/KalyswapRouter.sol\":15949:15956  factory */\n      immutable(\"0x59ec111d9d8ceec2ab223a1d5004f35d19292b31c8f02c623d83a90888216dda\")\n        /* \"CoreContracts/kalyswap-periphery/KalyswapRouter.sol\":15958:15962  path */\n      dup10\n      dup10\n        /* \"CoreContracts/kalyswap-periphery/KalyswapRouter.sol\":15963:15964  0 */\n      0x00\n        /* \"CoreContracts/kalyswap-periphery/KalyswapRouter.sol\":15958:15965  path[0] */\n      dup2\n      dup2\n      lt\n      tag_265\n      jumpi\n      invalid\n        /* \"CoreContracts/kalyswap-periphery/KalyswapRouter.sol\":15925:15975  KalyswapLibrary.pairFor(factory, path[0], path[1]) */\n    tag_407:\n        /* \"CoreContracts/kalyswap-periphery/KalyswapRouter.sol\":15977:15985  amountIn */\n      dup4\n        /* \"CoreContracts/kalyswap-periphery/KalyswapRouter.sol\":15904:15986  IWKLC(WKLC).transfer(KalyswapLibrary.pairFor(factory, path[0], path[1]), amountIn) */\n      mload(0x40)\n      dup4\n      0xffffffff\n      and\n      0xe0\n      shl\n      dup2\n      mstore\n      0x04\n      add\n      dup1\n      dup4\n      sub(shl(0xa0, 0x01), 0x01)\n      and\n      sub(shl(0xa0, 0x01), 0x01)\n      and\n      dup2\n      mstore\n      0x20\n      add\n      dup3\n      dup2\n      mstore\n      0x20\n      add\n      swap3\n      pop\n      pop\n      pop\n      0x20\n      mload(0x40)\n      dup1\n      dup4\n      sub\n      dup2\n      0x00\n      dup8\n      dup1\n      extcodesize\n      iszero\n        /* \"--CODEGEN--\":5:14   */\n      dup1\n        /* \"--CODEGEN--\":2:4   */\n      iszero\n      tag_410\n      jumpi\n        /* \"--CODEGEN--\":27:28   */\n      0x00\n        /* \"--CODEGEN--\":24:25   */\n      dup1\n        /* \"--CODEGEN--\":17:29   */\n      revert\n        /* \"--CODEGEN--\":2:4   */\n    tag_410:\n        /* \"CoreContracts/kalyswap-periphery/KalyswapRouter.sol\":15904:15986  IWKLC(WKLC).transfer(KalyswapLibrary.pairFor(factory, path[0], path[1]), amountIn) */\n      pop\n      gas\n      call\n      iszero\n        /* \"--CODEGEN--\":8:17   */\n      dup1\n        /* \"--CODEGEN--\":5:7   */\n      iszero\n      tag_412\n      jumpi\n        /* \"--CODEGEN--\":45:61   */\n      returndatasize\n        /* \"--CODEGEN--\":42:43   */\n      0x00\n        /* \"--CODEGEN--\":39:40   */\n      dup1\n        /* \"--CODEGEN--\":24:62   */\n      returndatacopy\n        /* \"--CODEGEN--\":77:93   */\n      returndatasize\n        /* \"--CODEGEN--\":74:75   */\n      0x00\n        /* \"--CODEGEN--\":67:94   */\n      revert\n        /* \"--CODEGEN--\":5:7   */\n    tag_412:\n        /* \"CoreContracts/kalyswap-periphery/KalyswapRouter.sol\":15904:15986  IWKLC(WKLC).transfer(KalyswapLibrary.pairFor(factory, path[0], path[1]), amountIn) */\n      pop\n      pop\n      pop\n      pop\n      mload(0x40)\n      returndatasize\n        /* \"--CODEGEN--\":15:17   */\n      0x20\n        /* \"--CODEGEN--\":10:13   */\n      dup2\n        /* \"--CODEGEN--\":7:18   */\n      lt\n        /* \"--CODEGEN--\":4:6   */\n      iszero\n      tag_413\n      jumpi\n        /* \"--CODEGEN--\":31:32   */\n      0x00\n        /* \"--CODEGEN--\":28:29   */\n      dup1\n        /* \"--CODEGEN--\":21:33   */\n      revert\n        /* \"--CODEGEN--\":4:6   */\n    tag_413:\n      pop\n        /* \"CoreContracts/kalyswap-periphery/KalyswapRouter.sol\":15904:15986  IWKLC(WKLC).transfer(KalyswapLibrary.pairFor(factory, path[0], path[1]), amountIn) */\n      mload\n        /* \"CoreContracts/kalyswap-periphery/KalyswapRouter.sol\":15897:15987  assert(IWKLC(WKLC).transfer(KalyswapLibrary.pairFor(factory, path[0], path[1]), amountIn)) */\n      tag_414\n      jumpi\n      invalid\n    tag_414:\n        /* \"CoreContracts/kalyswap-periphery/KalyswapRouter.sol\":15997:16015  uint balanceBefore */\n      0x00\n        /* \"CoreContracts/kalyswap-periphery/KalyswapRouter.sol\":16025:16029  path */\n      dup7\n      dup7\n      not(0x00)\n        /* \"CoreContracts/kalyswap-periphery/KalyswapRouter.sol\":16030:16045  path.length - 1 */\n      dup2\n      add\n        /* \"CoreContracts/kalyswap-periphery/KalyswapRouter.sol\":16025:16046  path[path.length - 1] */\n      dup2\n      dup2\n      lt\n      tag_415\n      jumpi\n      invalid\n    tag_415:\n      swap1\n      pop\n      0x20\n      mul\n      add\n      calldataload\n      sub(shl(0xa0, 0x01), 0x01)\n      and\n      sub(shl(0xa0, 0x01), 0x01)\n        /* \"CoreContracts/kalyswap-periphery/KalyswapRouter.sol\":16018:16057  IERC20(path[path.length - 1]).balanceOf */\n      and\n      0x70a08231\n        /* \"CoreContracts/kalyswap-periphery/KalyswapRouter.sol\":16058:16060  to */\n      dup7\n        /* \"CoreContracts/kalyswap-periphery/KalyswapRouter.sol\":16018:16061  IERC20(path[path.length - 1]).balanceOf(to) */\n      mload(0x40)\n      dup3\n      0xffffffff\n      and\n      0xe0\n      shl\n      dup2\n      mstore\n      0x04\n      add\n      dup1\n      dup3\n      sub(shl(0xa0, 0x01), 0x01)\n      and\n      sub(shl(0xa0, 0x01), 0x01)\n      and\n      dup2\n      mstore\n      0x20\n      add\n      swap2\n      pop\n      pop\n      0x20\n      mload(0x40)\n      dup1\n      dup4\n      sub\n      dup2\n      dup7\n      dup1\n      extcodesize\n      iszero\n        /* \"--CODEGEN--\":5:14   */\n      dup1\n        /* \"--CODEGEN--\":2:4   */\n      iszero\n      tag_416\n      jumpi\n        /* \"--CODEGEN--\":27:28   */\n      0x00\n        /* \"--CODEGEN--\":24:25   */\n      dup1\n        /* \"--CODEGEN--\":17:29   */\n      revert\n        /* \"--CODEGEN--\":2:4   */\n    tag_416:\n        /* \"CoreContracts/kalyswap-periphery/KalyswapRouter.sol\":16018:16061  IERC20(path[path.length - 1]).balanceOf(to) */\n      pop\n      gas\n      staticcall\n      iszero\n        /* \"--CODEGEN--\":8:17   */\n      dup1\n        /* \"--CODEGEN--\":5:7   */\n      iszero\n      tag_418\n      jumpi\n        /* \"--CODEGEN--\":45:61   */\n      returndatasize\n        /* \"--CODEGEN--\":42:43   */\n      0x00\n        /* \"--CODEGEN--\":39:40   */\n      dup1\n        /* \"--CODEGEN--\":24:62   */\n      returndatacopy\n        /* \"--CODEGEN--\":77:93   */\n      returndatasize\n        /* \"--CODEGEN--\":74:75   */\n      0x00\n        /* \"--CODEGEN--\":67:94   */\n      revert\n        /* \"--CODEGEN--\":5:7   */\n    tag_418:\n        /* \"CoreContracts/kalyswap-periphery/KalyswapRouter.sol\":16018:16061  IERC20(path[path.length - 1]).balanceOf(to) */\n      pop\n      pop\n      pop\n      pop\n      mload(0x40)\n      returndatasize\n        /* \"--CODEGEN--\":15:17   */\n      0x20\n        /* \"--CODEGEN--\":10:13   */\n      dup2\n        /* \"--CODEGEN--\":7:18   */\n      lt\n        /* \"--CODEGEN--\":4:6   */\n      iszero\n      tag_419\n      jumpi\n        /* \"--CODEGEN--\":31:32   */\n      0x00\n        /* \"--CODEGEN--\":28:29   */\n      dup1\n        /* \"--CODEGEN--\":21:33   */\n      revert\n        /* \"--CODEGEN--\":4:6   */\n    tag_419:\n      pop\n        /* \"CoreContracts/kalyswap-periphery/KalyswapRouter.sol\":16018:16061  IERC20(path[path.length - 1]).balanceOf(to) */\n      mload\n        /* \"CoreContracts/kalyswap-periphery/KalyswapRouter.sol\":16071:16115  _swapSupportingFeeOnTransferTokens(path, to) */\n      0x40\n      dup1\n      mload\n        /* \"CoreContracts/kalyswap-periphery/KalyswapRouter.sol\":16018:16061  IERC20(path[path.length - 1]).balanceOf(to) */\n      0x20\n        /* \"CoreContracts/kalyswap-periphery/KalyswapRouter.sol\":16071:16115  _swapSupportingFeeOnTransferTokens(path, to) */\n      dup10\n      dup2\n      mul\n      dup3\n      dup2\n      add\n      dup3\n      add\n      swap1\n      swap4\n      mstore\n      dup10\n      dup3\n      mstore\n        /* \"CoreContracts/kalyswap-periphery/KalyswapRouter.sol\":16018:16061  IERC20(path[path.length - 1]).balanceOf(to) */\n      swap3\n      swap4\n      pop\n        /* \"CoreContracts/kalyswap-periphery/KalyswapRouter.sol\":16071:16115  _swapSupportingFeeOnTransferTokens(path, to) */\n      tag_420\n      swap3\n      swap1\n      swap2\n        /* \"CoreContracts/kalyswap-periphery/KalyswapRouter.sol\":16106:16110  path */\n      dup11\n      swap2\n      dup11\n      swap2\n      dup3\n      swap2\n        /* \"CoreContracts/kalyswap-periphery/KalyswapRouter.sol\":16071:16115  _swapSupportingFeeOnTransferTokens(path, to) */\n      dup6\n      add\n      swap1\n        /* \"CoreContracts/kalyswap-periphery/KalyswapRouter.sol\":16106:16110  path */\n      dup5\n      swap1\n        /* \"CoreContracts/kalyswap-periphery/KalyswapRouter.sol\":16071:16115  _swapSupportingFeeOnTransferTokens(path, to) */\n      dup1\n        /* \"CoreContracts/kalyswap-periphery/KalyswapRouter.sol\":16106:16110  path */\n      dup3\n        /* \"CoreContracts/kalyswap-periphery/KalyswapRouter.sol\":16071:16115  _swapSupportingFeeOnTransferTokens(path, to) */\n      dup5\n        /* \"--CODEGEN--\":1:34   */\n      calldatacopy\n        /* \"--CODEGEN--\":99:100   */\n      0x00\n        /* \"--CODEGEN--\":81:97   */\n      swap3\n      add\n        /* \"--CODEGEN--\":74:101   */\n      swap2\n      swap1\n      swap2\n      mstore\n      pop\n        /* \"CoreContracts/kalyswap-periphery/KalyswapRouter.sol\":16112:16114  to */\n      dup10\n      swap3\n      pop\n        /* \"CoreContracts/kalyswap-periphery/KalyswapRouter.sol\":16071:16105  _swapSupportingFeeOnTransferTokens */\n      tag_273\n      swap2\n      pop\n      pop\n        /* \"CoreContracts/kalyswap-periphery/KalyswapRouter.sol\":16071:16115  _swapSupportingFeeOnTransferTokens(path, to) */\n      jump\t// in\n    tag_420:\n        /* \"CoreContracts/kalyswap-periphery/KalyswapRouter.sol\":16212:16224  amountOutMin */\n      dup8\n        /* \"CoreContracts/kalyswap-periphery/KalyswapRouter.sol\":16146:16208  IERC20(path[path.length - 1]).balanceOf(to).sub(balanceBefore) */\n      tag_274\n        /* \"CoreContracts/kalyswap-periphery/KalyswapRouter.sol\":16194:16207  balanceBefore */\n      dup3\n        /* \"CoreContracts/kalyswap-periphery/KalyswapRouter.sol\":16153:16157  path */\n      dup10\n      dup10\n      not(0x00)\n        /* \"CoreContracts/kalyswap-periphery/KalyswapRouter.sol\":16158:16173  path.length - 1 */\n      dup2\n      add\n        /* \"CoreContracts/kalyswap-periphery/KalyswapRouter.sol\":16153:16174  path[path.length - 1] */\n      dup2\n      dup2\n      lt\n      tag_422\n      jumpi\n      invalid\n    tag_422:\n      swap1\n      pop\n      0x20\n      mul\n      add\n      calldataload\n      sub(shl(0xa0, 0x01), 0x01)\n      and\n      sub(shl(0xa0, 0x01), 0x01)\n        /* \"CoreContracts/kalyswap-periphery/KalyswapRouter.sol\":16146:16185  IERC20(path[path.length - 1]).balanceOf */\n      and\n      0x70a08231\n        /* \"CoreContracts/kalyswap-periphery/KalyswapRouter.sol\":16186:16188  to */\n      dup10\n        /* \"CoreContracts/kalyswap-periphery/KalyswapRouter.sol\":16146:16189  IERC20(path[path.length - 1]).balanceOf(to) */\n      mload(0x40)\n      dup3\n      0xffffffff\n      and\n      0xe0\n      shl\n      dup2\n      mstore\n      0x04\n      add\n      dup1\n      dup3\n      sub(shl(0xa0, 0x01), 0x01)\n      and\n      sub(shl(0xa0, 0x01), 0x01)\n      and\n      dup2\n      mstore\n      0x20\n      add\n      swap2\n      pop\n      pop\n      0x20\n      mload(0x40)\n      dup1\n      dup4\n      sub\n      dup2\n      dup7\n      dup1\n      extcodesize\n      iszero\n        /* \"--CODEGEN--\":5:14   */\n      dup1\n        /* \"--CODEGEN--\":2:4   */\n      iszero\n      tag_276\n      jumpi\n        /* \"--CODEGEN--\":27:28   */\n      0x00\n        /* \"--CODEGEN--\":24:25   */\n      dup1\n        /* \"--CODEGEN--\":17:29   */\n      revert\n        /* \"CoreContracts/kalyswap-periphery/KalyswapRouter.sol\":3980:4823  function removeLiquidity(... */\n    tag_152:\n        /* \"CoreContracts/kalyswap-periphery/KalyswapRouter.sol\":4226:4238  uint amountA */\n      0x00\n        /* \"CoreContracts/kalyswap-periphery/KalyswapRouter.sol\":4240:4252  uint amountB */\n      dup1\n        /* \"CoreContracts/kalyswap-periphery/KalyswapRouter.sol\":4207:4215  deadline */\n      dup3\n        /* \"CoreContracts/kalyswap-periphery/KalyswapRouter.sol\":560:575  block.timestamp */\n      timestamp\n        /* \"CoreContracts/kalyswap-periphery/KalyswapRouter.sol\":548:556  deadline */\n      dup2\n        /* \"CoreContracts/kalyswap-periphery/KalyswapRouter.sol\":548:575  deadline >= block.timestamp */\n      lt\n      iszero\n        /* \"CoreContracts/kalyswap-periphery/KalyswapRouter.sol\":540:603  require(deadline >= block.timestamp, 'KalyswapRouter: EXPIRED') */\n      tag_429\n      jumpi\n      0x40\n      dup1\n      mload\n      shl(0xe5, 0x461bcd)\n      dup2\n      mstore\n      0x20\n      0x04\n      dup3\n      add\n      mstore\n      0x17\n      0x24\n      dup3\n      add\n      mstore\n      0x00\n      dup1\n      mload\n      0x20\n      data_c37a5828941e3f3d234159361fc5f20834c08e197405b7b4d61af4ea6dee60a5\n      dup4\n      codecopy\n      dup2\n      mload\n      swap2\n      mstore\n      0x44\n      dup3\n      add\n      mstore\n      swap1\n      mload\n      swap1\n      dup2\n      swap1\n      sub\n      0x64\n      add\n      swap1\n      revert\n    tag_429:\n        /* \"CoreContracts/kalyswap-periphery/KalyswapRouter.sol\":4264:4276  address pair */\n      0x00\n        /* \"CoreContracts/kalyswap-periphery/KalyswapRouter.sol\":4279:4327  KalyswapLibrary.pairFor(factory, tokenA, tokenB) */\n      tag_431\n        /* \"CoreContracts/kalyswap-periphery/KalyswapRouter.sol\":4303:4310  factory */\n      immutable(\"0x59ec111d9d8ceec2ab223a1d5004f35d19292b31c8f02c623d83a90888216dda\")\n        /* \"CoreContracts/kalyswap-periphery/KalyswapRouter.sol\":4312:4318  tokenA */\n      dup13\n        /* \"CoreContracts/kalyswap-periphery/KalyswapRouter.sol\":4320:4326  tokenB */\n      dup13\n        /* \"CoreContracts/kalyswap-periphery/KalyswapRouter.sol\":4279:4302  KalyswapLibrary.pairFor */\n      tag_201\n        /* \"CoreContracts/kalyswap-periphery/KalyswapRouter.sol\":4279:4327  KalyswapLibrary.pairFor(factory, tokenA, tokenB) */\n      jump\t// in\n    tag_431:\n        /* \"CoreContracts/kalyswap-periphery/KalyswapRouter.sol\":4337:4398  IKalyswapPair(pair).transferFrom(msg.sender, pair, liquidity) */\n      0x40\n      dup1\n      mload\n      shl(0xe0, 0x23b872dd)\n      dup2\n      mstore\n        /* \"CoreContracts/kalyswap-periphery/KalyswapRouter.sol\":4370:4380  msg.sender */\n      caller\n        /* \"CoreContracts/kalyswap-periphery/KalyswapRouter.sol\":4337:4398  IKalyswapPair(pair).transferFrom(msg.sender, pair, liquidity) */\n      0x04\n      dup3\n      add\n      mstore\n      sub(shl(0xa0, 0x01), 0x01)\n        /* \"CoreContracts/kalyswap-periphery/KalyswapRouter.sol\":4337:4369  IKalyswapPair(pair).transferFrom */\n      dup4\n      and\n        /* \"CoreContracts/kalyswap-periphery/KalyswapRouter.sol\":4337:4398  IKalyswapPair(pair).transferFrom(msg.sender, pair, liquidity) */\n      0x24\n      dup3\n      add\n      dup2\n      swap1\n      mstore\n      0x44\n      dup3\n      add\n      dup14\n      swap1\n      mstore\n      swap2\n      mload\n        /* \"CoreContracts/kalyswap-periphery/KalyswapRouter.sol\":4264:4327  address pair = KalyswapLibrary.pairFor(factory, tokenA, tokenB) */\n      swap3\n      swap4\n      pop\n        /* \"CoreContracts/kalyswap-periphery/KalyswapRouter.sol\":4337:4369  IKalyswapPair(pair).transferFrom */\n      swap1\n      swap2\n      0x23b872dd\n      swap2\n        /* \"CoreContracts/kalyswap-periphery/KalyswapRouter.sol\":4337:4398  IKalyswapPair(pair).transferFrom(msg.sender, pair, liquidity) */\n      0x64\n      dup1\n      dup3\n      add\n      swap3\n      0x20\n      swap3\n      swap1\n      swap2\n      swap1\n      dup3\n      swap1\n      sub\n      add\n      dup2\n      0x00\n        /* \"CoreContracts/kalyswap-periphery/KalyswapRouter.sol\":4337:4369  IKalyswapPair(pair).transferFrom */\n      dup8\n        /* \"CoreContracts/kalyswap-periphery/KalyswapRouter.sol\":4337:4398  IKalyswapPair(pair).transferFrom(msg.sender, pair, liquidity) */\n      dup1\n      extcodesize\n      iszero\n        /* \"--CODEGEN--\":2:4   */\n      dup1\n      iszero\n      tag_432\n      jumpi\n        /* \"--CODEGEN--\":27:28   */\n      0x00\n        /* \"--CODEGEN--\":24:25   */\n      dup1\n        /* \"--CODEGEN--\":17:29   */\n      revert\n        /* \"--CODEGEN--\":2:4   */\n    tag_432:\n        /* \"CoreContracts/kalyswap-periphery/KalyswapRouter.sol\":4337:4398  IKalyswapPair(pair).transferFrom(msg.sender, pair, liquidity) */\n      pop\n      gas\n      call\n      iszero\n        /* \"--CODEGEN--\":8:17   */\n      dup1\n        /* \"--CODEGEN--\":5:7   */\n      iszero\n      tag_434\n      jumpi\n        /* \"--CODEGEN--\":45:61   */\n      returndatasize\n        /* \"--CODEGEN--\":42:43   */\n      0x00\n        /* \"--CODEGEN--\":39:40   */\n      dup1\n        /* \"--CODEGEN--\":24:62   */\n      returndatacopy\n        /* \"--CODEGEN--\":77:93   */\n      returndatasize\n        /* \"--CODEGEN--\":74:75   */\n      0x00\n        /* \"--CODEGEN--\":67:94   */\n      revert\n        /* \"--CODEGEN--\":5:7   */\n    tag_434:\n        /* \"CoreContracts/kalyswap-periphery/KalyswapRouter.sol\":4337:4398  IKalyswapPair(pair).transferFrom(msg.sender, pair, liquidity) */\n      pop\n      pop\n      pop\n      pop\n      mload(0x40)\n      returndatasize\n        /* \"--CODEGEN--\":15:17   */\n      0x20\n        /* \"--CODEGEN--\":10:13   */\n      dup2\n        /* \"--CODEGEN--\":7:18   */\n      lt\n        /* \"--CODEGEN--\":4:6   */\n      iszero\n      tag_435\n      jumpi\n        /* \"--CODEGEN--\":31:32   */\n      0x00\n        /* \"--CODEGEN--\":28:29   */\n      dup1\n        /* \"--CODEGEN--\":21:33   */\n      revert\n        /* \"--CODEGEN--\":4:6   */\n    tag_435:\n      pop\n      pop\n        /* \"CoreContracts/kalyswap-periphery/KalyswapRouter.sol\":4465:4493  IKalyswapPair(pair).burn(to) */\n      0x40\n      dup1\n      mload\n      0x89afcb4400000000000000000000000000000000000000000000000000000000\n      dup2\n      mstore\n      sub(shl(0xa0, 0x01), 0x01)\n      dup9\n      dup2\n      and\n      0x04\n      dup4\n      add\n      mstore\n      dup3\n      mload\n        /* \"CoreContracts/kalyswap-periphery/KalyswapRouter.sol\":4435:4447  uint amount0 */\n      0x00\n      swap4\n      dup5\n      swap4\n        /* \"CoreContracts/kalyswap-periphery/KalyswapRouter.sol\":4465:4489  IKalyswapPair(pair).burn */\n      swap3\n      dup7\n      and\n      swap3\n      0x89afcb44\n      swap3\n        /* \"CoreContracts/kalyswap-periphery/KalyswapRouter.sol\":4465:4493  IKalyswapPair(pair).burn(to) */\n      0x24\n      dup1\n      dup4\n      add\n      swap4\n      swap3\n      dup3\n      swap1\n      sub\n      add\n      dup2\n        /* \"CoreContracts/kalyswap-periphery/KalyswapRouter.sol\":4435:4447  uint amount0 */\n      dup8\n        /* \"CoreContracts/kalyswap-periphery/KalyswapRouter.sol\":4465:4489  IKalyswapPair(pair).burn */\n      dup8\n        /* \"CoreContracts/kalyswap-periphery/KalyswapRouter.sol\":4465:4493  IKalyswapPair(pair).burn(to) */\n      dup1\n      extcodesize\n      iszero\n        /* \"--CODEGEN--\":2:4   */\n      dup1\n      iszero\n      tag_436\n      jumpi\n        /* \"--CODEGEN--\":27:28   */\n      0x00\n        /* \"--CODEGEN--\":24:25   */\n      dup1\n        /* \"--CODEGEN--\":17:29   */\n      revert\n        /* \"--CODEGEN--\":2:4   */\n    tag_436:\n        /* \"CoreContracts/kalyswap-periphery/KalyswapRouter.sol\":4465:4493  IKalyswapPair(pair).burn(to) */\n      pop\n      gas\n      call\n      iszero\n        /* \"--CODEGEN--\":8:17   */\n      dup1\n        /* \"--CODEGEN--\":5:7   */\n      iszero\n      tag_438\n      jumpi\n        /* \"--CODEGEN--\":45:61   */\n      returndatasize\n        /* \"--CODEGEN--\":42:43   */\n      0x00\n        /* \"--CODEGEN--\":39:40   */\n      dup1\n        /* \"--CODEGEN--\":24:62   */\n      returndatacopy\n        /* \"--CODEGEN--\":77:93   */\n      returndatasize\n        /* \"--CODEGEN--\":74:75   */\n      0x00\n        /* \"--CODEGEN--\":67:94   */\n      revert\n        /* \"--CODEGEN--\":5:7   */\n    tag_438:\n        /* \"CoreContracts/kalyswap-periphery/KalyswapRouter.sol\":4465:4493  IKalyswapPair(pair).burn(to) */\n      pop\n      pop\n      pop\n      pop\n      mload(0x40)\n      returndatasize\n        /* \"--CODEGEN--\":15:17   */\n      0x40\n        /* \"--CODEGEN--\":10:13   */\n      dup2\n        /* \"--CODEGEN--\":7:18   */\n      lt\n        /* \"--CODEGEN--\":4:6   */\n      iszero\n      tag_439\n      jumpi\n        /* \"--CODEGEN--\":31:32   */\n      0x00\n        /* \"--CODEGEN--\":28:29   */\n      dup1\n        /* \"--CODEGEN--\":21:33   */\n      revert\n        /* \"--CODEGEN--\":4:6   */\n    tag_439:\n      pop\n        /* \"CoreContracts/kalyswap-periphery/KalyswapRouter.sol\":4465:4493  IKalyswapPair(pair).burn(to) */\n      dup1\n      mload\n      0x20\n      swap1\n      swap2\n      add\n      mload\n      swap1\n      swap3\n      pop\n      swap1\n      pop\n        /* \"CoreContracts/kalyswap-periphery/KalyswapRouter.sol\":4504:4518  address token0 */\n      0x00\n        /* \"CoreContracts/kalyswap-periphery/KalyswapRouter.sol\":4523:4565  KalyswapLibrary.sortTokens(tokenA, tokenB) */\n      tag_440\n        /* \"CoreContracts/kalyswap-periphery/KalyswapRouter.sol\":4550:4556  tokenA */\n      dup15\n        /* \"CoreContracts/kalyswap-periphery/KalyswapRouter.sol\":4558:4564  tokenB */\n      dup15\n        /* \"CoreContracts/kalyswap-periphery/KalyswapRouter.sol\":4523:4549  KalyswapLibrary.sortTokens */\n      tag_441\n        /* \"CoreContracts/kalyswap-periphery/KalyswapRouter.sol\":4523:4565  KalyswapLibrary.sortTokens(tokenA, tokenB) */\n      jump\t// in\n    tag_440:\n        /* \"CoreContracts/kalyswap-periphery/KalyswapRouter.sol\":4503:4565  (address token0,) = KalyswapLibrary.sortTokens(tokenA, tokenB) */\n      pop\n      swap1\n      pop\n        /* \"CoreContracts/kalyswap-periphery/KalyswapRouter.sol\":4606:4612  token0 */\n      dup1\n      sub(shl(0xa0, 0x01), 0x01)\n        /* \"CoreContracts/kalyswap-periphery/KalyswapRouter.sol\":4596:4612  tokenA == token0 */\n      and\n        /* \"CoreContracts/kalyswap-periphery/KalyswapRouter.sol\":4596:4602  tokenA */\n      dup15\n      sub(shl(0xa0, 0x01), 0x01)\n        /* \"CoreContracts/kalyswap-periphery/KalyswapRouter.sol\":4596:4612  tokenA == token0 */\n      and\n      eq\n        /* \"CoreContracts/kalyswap-periphery/KalyswapRouter.sol\":4596:4654  tokenA == token0 ? (amount0, amount1) : (amount1, amount0) */\n      tag_442\n      jumpi\n        /* \"CoreContracts/kalyswap-periphery/KalyswapRouter.sol\":4637:4644  amount1 */\n      dup2\n        /* \"CoreContracts/kalyswap-periphery/KalyswapRouter.sol\":4646:4653  amount0 */\n      dup4\n        /* \"CoreContracts/kalyswap-periphery/KalyswapRouter.sol\":4596:4654  tokenA == token0 ? (amount0, amount1) : (amount1, amount0) */\n      jump(tag_443)\n    tag_442:\n        /* \"CoreContracts/kalyswap-periphery/KalyswapRouter.sol\":4616:4623  amount0 */\n      dup3\n        /* \"CoreContracts/kalyswap-periphery/KalyswapRouter.sol\":4625:4632  amount1 */\n      dup3\n        /* \"CoreContracts/kalyswap-periphery/KalyswapRouter.sol\":4596:4654  tokenA == token0 ? (amount0, amount1) : (amount1, amount0) */\n    tag_443:\n        /* \"CoreContracts/kalyswap-periphery/KalyswapRouter.sol\":4575:4654  (amountA, amountB) = tokenA == token0 ? (amount0, amount1) : (amount1, amount0) */\n      swap1\n      swap8\n      pop\n      swap6\n      pop\n        /* \"CoreContracts/kalyswap-periphery/KalyswapRouter.sol\":4672:4693  amountA >= amountAMin */\n      dup11\n      dup8\n      lt\n      iszero\n        /* \"CoreContracts/kalyswap-periphery/KalyswapRouter.sol\":4664:4735  require(amountA >= amountAMin, 'KalyswapRouter: INSUFFICIENT_A_AMOUNT') */\n      tag_444\n      jumpi\n      mload(0x40)\n      shl(0xe5, 0x461bcd)\n      dup2\n      mstore\n      0x04\n      add\n      dup1\n      dup1\n      0x20\n      add\n      dup3\n      dup2\n      sub\n      dup3\n      mstore\n      0x25\n      dup2\n      mstore\n      0x20\n      add\n      dup1\n      data_49c0cc17d4ead4e3576fd5821635b4dbcb380d28eacc0ec3224c9a50b423145d\n      0x25\n      swap2\n      codecopy\n      0x40\n      add\n      swap2\n      pop\n      pop\n      mload(0x40)\n      dup1\n      swap2\n      sub\n      swap1\n      revert\n    tag_444:\n        /* \"CoreContracts/kalyswap-periphery/KalyswapRouter.sol\":4764:4774  amountBMin */\n      dup10\n        /* \"CoreContracts/kalyswap-periphery/KalyswapRouter.sol\":4753:4760  amountB */\n      dup7\n        /* \"CoreContracts/kalyswap-periphery/KalyswapRouter.sol\":4753:4774  amountB >= amountBMin */\n      lt\n      iszero\n        /* \"CoreContracts/kalyswap-periphery/KalyswapRouter.sol\":4745:4816  require(amountB >= amountBMin, 'KalyswapRouter: INSUFFICIENT_B_AMOUNT') */\n      tag_445\n      jumpi\n      mload(0x40)\n      shl(0xe5, 0x461bcd)\n      dup2\n      mstore\n      0x04\n      add\n      dup1\n      dup1\n      0x20\n      add\n      dup3\n      dup2\n      sub\n      dup3\n      mstore\n      0x25\n      dup2\n      mstore\n      0x20\n      add\n      dup1\n      data_ab28017c087a4dba5dbee469b5894ce405ae562516de110c18f366f606b992f5\n      0x25\n      swap2\n      codecopy\n      0x40\n      add\n      swap2\n      pop\n      pop\n      mload(0x40)\n      dup1\n      swap2\n      sub\n      swap1\n      revert\n    tag_445:\n        /* \"CoreContracts/kalyswap-periphery/KalyswapRouter.sol\":613:614  _ */\n      pop\n      pop\n      pop\n      pop\n        /* \"CoreContracts/kalyswap-periphery/KalyswapRouter.sol\":3980:4823  function removeLiquidity(... */\n      pop\n      swap8\n      pop\n      swap8\n      swap6\n      pop\n      pop\n      pop\n      pop\n      pop\n      pop\n      jump\t// out\n        /* \"CoreContracts/kalyswap-periphery/KalyswapRouter.sol\":407:448  address public immutable override factory */\n    tag_155:\n      immutable(\"0x59ec111d9d8ceec2ab223a1d5004f35d19292b31c8f02c623d83a90888216dda\")\n      dup2\n      jump\t// out\n        /* \"CoreContracts/kalyswap-periphery/KalyswapRouter.sol\":17872:18116  function getAmountsOut(uint amountIn, address[] memory path)... */\n    tag_162:\n        /* \"CoreContracts/kalyswap-periphery/KalyswapRouter.sol\":18011:18032  uint[] memory amounts */\n      0x60\n        /* \"CoreContracts/kalyswap-periphery/KalyswapRouter.sol\":18055:18109  KalyswapLibrary.getAmountsOut(factory, amountIn, path) */\n      tag_236\n        /* \"CoreContracts/kalyswap-periphery/KalyswapRouter.sol\":18085:18092  factory */\n      immutable(\"0x59ec111d9d8ceec2ab223a1d5004f35d19292b31c8f02c623d83a90888216dda\")\n        /* \"CoreContracts/kalyswap-periphery/KalyswapRouter.sol\":18094:18102  amountIn */\n      dup5\n        /* \"CoreContracts/kalyswap-periphery/KalyswapRouter.sol\":18104:18108  path */\n      dup5\n        /* \"CoreContracts/kalyswap-periphery/KalyswapRouter.sol\":18055:18084  KalyswapLibrary.getAmountsOut */\n      tag_249\n        /* \"CoreContracts/kalyswap-periphery/KalyswapRouter.sol\":18055:18109  KalyswapLibrary.getAmountsOut(factory, amountIn, path) */\n      jump\t// in\n        /* \"CoreContracts/kalyswap-periphery/KalyswapRouter.sol\":7567:8268  function removeLiquidityKLCWithPermitSupportingFeeOnTransferTokens(... */\n    tag_169:\n        /* \"CoreContracts/kalyswap-periphery/KalyswapRouter.sol\":7877:7891  uint amountKLC */\n      0x00\n        /* \"CoreContracts/kalyswap-periphery/KalyswapRouter.sol\":7903:7915  address pair */\n      dup1\n        /* \"CoreContracts/kalyswap-periphery/KalyswapRouter.sol\":7918:7963  KalyswapLibrary.pairFor(factory, token, WKLC) */\n      tag_449\n        /* \"CoreContracts/kalyswap-periphery/KalyswapRouter.sol\":7942:7949  factory */\n      immutable(\"0x59ec111d9d8ceec2ab223a1d5004f35d19292b31c8f02c623d83a90888216dda\")\n        /* \"CoreContracts/kalyswap-periphery/KalyswapRouter.sol\":7951:7956  token */\n      dup14\n        /* \"CoreContracts/kalyswap-periphery/KalyswapRouter.sol\":7958:7962  WKLC */\n      immutable(\"0xe96cc20f241c05b09b05be99fa40d483e0c60480c24cfabd29fea373217f3b30\")\n        /* \"CoreContracts/kalyswap-periphery/KalyswapRouter.sol\":7918:7941  KalyswapLibrary.pairFor */\n      tag_201\n        /* \"CoreContracts/kalyswap-periphery/KalyswapRouter.sol\":7918:7963  KalyswapLibrary.pairFor(factory, token, WKLC) */\n      jump\t// in\n    tag_449:\n        /* \"CoreContracts/kalyswap-periphery/KalyswapRouter.sol\":7903:7963  address pair = KalyswapLibrary.pairFor(factory, token, WKLC) */\n      swap1\n      pop\n        /* \"CoreContracts/kalyswap-periphery/KalyswapRouter.sol\":7973:7983  uint value */\n      0x00\n        /* \"CoreContracts/kalyswap-periphery/KalyswapRouter.sol\":7986:7996  approveMax */\n      dup7\n        /* \"CoreContracts/kalyswap-periphery/KalyswapRouter.sol\":7986:8019  approveMax ? uint(-1) : liquidity */\n      tag_450\n      jumpi\n        /* \"CoreContracts/kalyswap-periphery/KalyswapRouter.sol\":8010:8019  liquidity */\n      dup12\n        /* \"CoreContracts/kalyswap-periphery/KalyswapRouter.sol\":7986:8019  approveMax ? uint(-1) : liquidity */\n      jump(tag_451)\n    tag_450:\n      not(0x00)\n    tag_451:\n        /* \"CoreContracts/kalyswap-periphery/KalyswapRouter.sol\":8029:8108  IKalyswapPair(pair).permit(msg.sender, address(this), value, deadline, v, r, s) */\n      0x40\n      dup1\n      mload\n      shl(0xe0, 0xd505accf)\n      dup2\n      mstore\n        /* \"CoreContracts/kalyswap-periphery/KalyswapRouter.sol\":8056:8066  msg.sender */\n      caller\n        /* \"CoreContracts/kalyswap-periphery/KalyswapRouter.sol\":8029:8108  IKalyswapPair(pair).permit(msg.sender, address(this), value, deadline, v, r, s) */\n      0x04\n      dup3\n      add\n      mstore\n        /* \"CoreContracts/kalyswap-periphery/KalyswapRouter.sol\":8076:8080  this */\n      address\n        /* \"CoreContracts/kalyswap-periphery/KalyswapRouter.sol\":8029:8108  IKalyswapPair(pair).permit(msg.sender, address(this), value, deadline, v, r, s) */\n      0x24\n      dup3\n      add\n      mstore\n      0x44\n      dup2\n      add\n      dup4\n      swap1\n      mstore\n      0x64\n      dup2\n      add\n      dup12\n      swap1\n      mstore\n      0xff\n      dup10\n      and\n      0x84\n      dup3\n      add\n      mstore\n      0xa4\n      dup2\n      add\n      dup9\n      swap1\n      mstore\n      0xc4\n      dup2\n      add\n      dup8\n      swap1\n      mstore\n      swap1\n      mload\n        /* \"CoreContracts/kalyswap-periphery/KalyswapRouter.sol\":7973:8019  uint value = approveMax ? uint(-1) : liquidity */\n      swap2\n      swap3\n      pop\n      sub(shl(0xa0, 0x01), 0x01)\n        /* \"CoreContracts/kalyswap-periphery/KalyswapRouter.sol\":8029:8055  IKalyswapPair(pair).permit */\n      dup5\n      and\n      swap2\n      0xd505accf\n      swap2\n        /* \"CoreContracts/kalyswap-periphery/KalyswapRouter.sol\":8029:8108  IKalyswapPair(pair).permit(msg.sender, address(this), value, deadline, v, r, s) */\n      0xe4\n      dup1\n      dup3\n      add\n      swap3\n      0x00\n      swap3\n      swap1\n      swap2\n      swap1\n      dup3\n      swap1\n      sub\n      add\n      dup2\n      dup4\n        /* \"CoreContracts/kalyswap-periphery/KalyswapRouter.sol\":8029:8055  IKalyswapPair(pair).permit */\n      dup8\n        /* \"CoreContracts/kalyswap-periphery/KalyswapRouter.sol\":8029:8108  IKalyswapPair(pair).permit(msg.sender, address(this), value, deadline, v, r, s) */\n      dup1\n      extcodesize\n      iszero\n        /* \"--CODEGEN--\":2:4   */\n      dup1\n      iszero\n      tag_452\n      jumpi\n        /* \"--CODEGEN--\":27:28   */\n      0x00\n        /* \"--CODEGEN--\":24:25   */\n      dup1\n        /* \"--CODEGEN--\":17:29   */\n      revert\n        /* \"--CODEGEN--\":2:4   */\n    tag_452:\n        /* \"CoreContracts/kalyswap-periphery/KalyswapRouter.sol\":8029:8108  IKalyswapPair(pair).permit(msg.sender, address(this), value, deadline, v, r, s) */\n      pop\n      gas\n      call\n      iszero\n        /* \"--CODEGEN--\":8:17   */\n      dup1\n        /* \"--CODEGEN--\":5:7   */\n      iszero\n      tag_454\n      jumpi\n        /* \"--CODEGEN--\":45:61   */\n      returndatasize\n        /* \"--CODEGEN--\":42:43   */\n      0x00\n        /* \"--CODEGEN--\":39:40   */\n      dup1\n        /* \"--CODEGEN--\":24:62   */\n      returndatacopy\n        /* \"--CODEGEN--\":77:93   */\n      returndatasize\n        /* \"--CODEGEN--\":74:75   */\n      0x00\n        /* \"--CODEGEN--\":67:94   */\n      revert\n        /* \"--CODEGEN--\":5:7   */\n    tag_454:\n        /* \"CoreContracts/kalyswap-periphery/KalyswapRouter.sol\":8029:8108  IKalyswapPair(pair).permit(msg.sender, address(this), value, deadline, v, r, s) */\n      pop\n      pop\n      pop\n      pop\n        /* \"CoreContracts/kalyswap-periphery/KalyswapRouter.sol\":8130:8261  removeLiquidityKLCSupportingFeeOnTransferTokens(... */\n      tag_455\n        /* \"CoreContracts/kalyswap-periphery/KalyswapRouter.sol\":8191:8196  token */\n      dup14\n        /* \"CoreContracts/kalyswap-periphery/KalyswapRouter.sol\":8198:8207  liquidity */\n      dup14\n        /* \"CoreContracts/kalyswap-periphery/KalyswapRouter.sol\":8209:8223  amountTokenMin */\n      dup14\n        /* \"CoreContracts/kalyswap-periphery/KalyswapRouter.sol\":8225:8237  amountKLCMin */\n      dup14\n        /* \"CoreContracts/kalyswap-periphery/KalyswapRouter.sol\":8239:8241  to */\n      dup14\n        /* \"CoreContracts/kalyswap-periphery/KalyswapRouter.sol\":8243:8251  deadline */\n      dup14\n        /* \"CoreContracts/kalyswap-periphery/KalyswapRouter.sol\":8130:8177  removeLiquidityKLCSupportingFeeOnTransferTokens */\n      tag_61\n        /* \"CoreContracts/kalyswap-periphery/KalyswapRouter.sol\":8130:8261  removeLiquidityKLCSupportingFeeOnTransferTokens(... */\n      jump\t// in\n    tag_455:\n        /* \"CoreContracts/kalyswap-periphery/KalyswapRouter.sol\":8118:8261  amountKLC = removeLiquidityKLCSupportingFeeOnTransferTokens(... */\n      swap14\n        /* \"CoreContracts/kalyswap-periphery/KalyswapRouter.sol\":7567:8268  function removeLiquidityKLCWithPermitSupportingFeeOnTransferTokens(... */\n      swap13\n      pop\n      pop\n      pop\n      pop\n      pop\n      pop\n      pop\n      pop\n      pop\n      pop\n      pop\n      pop\n      pop\n      jump\t// out\n        /* \"CoreContracts/kalyswap-periphery/KalyswapRouter.sol\":11809:12639  function swapExactTokensForKLC(uint amountIn, uint amountOutMin, address[] calldata path, address to, uint deadline)... */\n    tag_176:\n        /* \"CoreContracts/kalyswap-periphery/KalyswapRouter.sol\":12018:12039  uint[] memory amounts */\n      0x60\n        /* \"CoreContracts/kalyswap-periphery/KalyswapRouter.sol\":11991:11999  deadline */\n      dup2\n        /* \"CoreContracts/kalyswap-periphery/KalyswapRouter.sol\":560:575  block.timestamp */\n      timestamp\n        /* \"CoreContracts/kalyswap-periphery/KalyswapRouter.sol\":548:556  deadline */\n      dup2\n        /* \"CoreContracts/kalyswap-periphery/KalyswapRouter.sol\":548:575  deadline >= block.timestamp */\n      lt\n      iszero\n        /* \"CoreContracts/kalyswap-periphery/KalyswapRouter.sol\":540:603  require(deadline >= block.timestamp, 'KalyswapRouter: EXPIRED') */\n      tag_457\n      jumpi\n      0x40\n      dup1\n      mload\n      shl(0xe5, 0x461bcd)\n      dup2\n      mstore\n      0x20\n      0x04\n      dup3\n      add\n      mstore\n      0x17\n      0x24\n      dup3\n      add\n      mstore\n      0x00\n      dup1\n      mload\n      0x20\n      data_c37a5828941e3f3d234159361fc5f20834c08e197405b7b4d61af4ea6dee60a5\n      dup4\n      codecopy\n      dup2\n      mload\n      swap2\n      mstore\n      0x44\n      dup3\n      add\n      mstore\n      swap1\n      mload\n      swap1\n      dup2\n      swap1\n      sub\n      0x64\n      add\n      swap1\n      revert\n    tag_457:\n      sub(shl(0xa0, 0x01), 0x01)\n        /* \"CoreContracts/kalyswap-periphery/KalyswapRouter.sol\":12088:12092  WKLC */\n      immutable(\"0xe96cc20f241c05b09b05be99fa40d483e0c60480c24cfabd29fea373217f3b30\")\n        /* \"CoreContracts/kalyswap-periphery/KalyswapRouter.sol\":12063:12092  path[path.length - 1] == WKLC */\n      and\n        /* \"CoreContracts/kalyswap-periphery/KalyswapRouter.sol\":12063:12067  path */\n      dup7\n      dup7\n      not(0x00)\n        /* \"CoreContracts/kalyswap-periphery/KalyswapRouter.sol\":12068:12083  path.length - 1 */\n      dup2\n      add\n        /* \"CoreContracts/kalyswap-periphery/KalyswapRouter.sol\":12063:12084  path[path.length - 1] */\n      dup2\n      dup2\n      lt\n      tag_459\n      jumpi\n      invalid\n    tag_459:\n      swap1\n      pop\n      0x20\n      mul\n      add\n      calldataload\n      sub(shl(0xa0, 0x01), 0x01)\n      and\n      sub(shl(0xa0, 0x01), 0x01)\n        /* \"CoreContracts/kalyswap-periphery/KalyswapRouter.sol\":12063:12092  path[path.length - 1] == WKLC */\n      and\n      eq\n        /* \"CoreContracts/kalyswap-periphery/KalyswapRouter.sol\":12055:12125  require(path[path.length - 1] == WKLC, 'KalyswapRouter: INVALID_PATH') */\n      tag_460\n      jumpi\n      0x40\n      dup1\n      mload\n      shl(0xe5, 0x461bcd)\n      dup2\n      mstore\n      0x20\n      0x04\n      dup3\n      add\n      mstore\n      0x1c\n      0x24\n      dup3\n      add\n      mstore\n      0x4b616c7973776170526f757465723a20494e56414c49445f5041544800000000\n      0x44\n      dup3\n      add\n      mstore\n      swap1\n      mload\n      swap1\n      dup2\n      swap1\n      sub\n      0x64\n      add\n      swap1\n      revert\n    tag_460:\n        /* \"CoreContracts/kalyswap-periphery/KalyswapRouter.sol\":12145:12199  KalyswapLibrary.getAmountsOut(factory, amountIn, path) */\n      tag_461\n        /* \"CoreContracts/kalyswap-periphery/KalyswapRouter.sol\":12175:12182  factory */\n      immutable(\"0x59ec111d9d8ceec2ab223a1d5004f35d19292b31c8f02c623d83a90888216dda\")\n        /* \"CoreContracts/kalyswap-periphery/KalyswapRouter.sol\":12184:12192  amountIn */\n      dup10\n        /* \"CoreContracts/kalyswap-periphery/KalyswapRouter.sol\":12194:12198  path */\n      dup9\n      dup9\n        /* \"CoreContracts/kalyswap-periphery/KalyswapRouter.sol\":12145:12199  KalyswapLibrary.getAmountsOut(factory, amountIn, path) */\n      dup1\n      dup1\n      0x20\n      mul\n      0x20\n      add\n      mload(0x40)\n      swap1\n      dup2\n      add\n      0x40\n      mstore\n      dup1\n      swap4\n      swap3\n      swap2\n      swap1\n      dup2\n      dup2\n      mstore\n      0x20\n      add\n      dup4\n      dup4\n      0x20\n      mul\n        /* \"--CODEGEN--\":30:33   */\n      dup1\n        /* \"--CODEGEN--\":22:28   */\n      dup3\n        /* \"--CODEGEN--\":14:20   */\n      dup5\n        /* \"--CODEGEN--\":1:34   */\n      calldatacopy\n        /* \"--CODEGEN--\":99:100   */\n      0x00\n        /* \"--CODEGEN--\":81:97   */\n      swap3\n      add\n        /* \"--CODEGEN--\":74:101   */\n      swap2\n      swap1\n      swap2\n      mstore\n      pop\n        /* \"CoreContracts/kalyswap-periphery/KalyswapRouter.sol\":12145:12174  KalyswapLibrary.getAmountsOut */\n      tag_249\n      swap3\n      pop\n      pop\n      pop\n        /* \"CoreContracts/kalyswap-periphery/KalyswapRouter.sol\":12145:12199  KalyswapLibrary.getAmountsOut(factory, amountIn, path) */\n      jump\t// in\n    tag_461:\n        /* \"CoreContracts/kalyswap-periphery/KalyswapRouter.sol\":12135:12199  amounts = KalyswapLibrary.getAmountsOut(factory, amountIn, path) */\n      swap2\n      pop\n        /* \"CoreContracts/kalyswap-periphery/KalyswapRouter.sol\":12248:12260  amountOutMin */\n      dup7\n        /* \"CoreContracts/kalyswap-periphery/KalyswapRouter.sol\":12217:12224  amounts */\n      dup3\n        /* \"CoreContracts/kalyswap-periphery/KalyswapRouter.sol\":12242:12243  1 */\n      0x01\n        /* \"CoreContracts/kalyswap-periphery/KalyswapRouter.sol\":12225:12232  amounts */\n      dup5\n        /* \"CoreContracts/kalyswap-periphery/KalyswapRouter.sol\":12225:12239  amounts.length */\n      mload\n        /* \"CoreContracts/kalyswap-periphery/KalyswapRouter.sol\":12225:12243  amounts.length - 1 */\n      sub\n        /* \"CoreContracts/kalyswap-periphery/KalyswapRouter.sol\":12217:12244  amounts[amounts.length - 1] */\n      dup2\n      mload\n      dup2\n      lt\n      tag_462\n      jumpi\n      invalid\n    tag_462:\n      0x20\n      mul\n      0x20\n      add\n      add\n      mload\n        /* \"CoreContracts/kalyswap-periphery/KalyswapRouter.sol\":12217:12260  amounts[amounts.length - 1] >= amountOutMin */\n      lt\n      iszero\n        /* \"CoreContracts/kalyswap-periphery/KalyswapRouter.sol\":12209:12307  require(amounts[amounts.length - 1] >= amountOutMin, 'KalyswapRouter: INSUFFICIENT_OUTPUT_AMOUNT') */\n      tag_195\n      jumpi\n      mload(0x40)\n      shl(0xe5, 0x461bcd)\n      dup2\n      mstore\n      0x04\n      add\n      dup1\n      dup1\n      0x20\n      add\n      dup3\n      dup2\n      sub\n      dup3\n      mstore\n      0x2a\n      dup2\n      mstore\n      0x20\n      add\n      dup1\n      data_69424968b2f941cdfb32abf1c018d39f661402aca14098785e89d085b08f7f30\n      0x2a\n      swap2\n      codecopy\n      0x40\n      add\n      swap2\n      pop\n      pop\n      mload(0x40)\n      dup1\n      swap2\n      sub\n      swap1\n      revert\n        /* \"CoreContracts/kalyswap-periphery/KalyswapRouter.sol\":2265:2986  function addLiquidity(... */\n    tag_183:\n        /* \"CoreContracts/kalyswap-periphery/KalyswapRouter.sol\":2544:2556  uint amountA */\n      0x00\n        /* \"CoreContracts/kalyswap-periphery/KalyswapRouter.sol\":2558:2570  uint amountB */\n      dup1\n        /* \"CoreContracts/kalyswap-periphery/KalyswapRouter.sol\":2572:2586  uint liquidity */\n      0x00\n        /* \"CoreContracts/kalyswap-periphery/KalyswapRouter.sol\":2525:2533  deadline */\n      dup4\n        /* \"CoreContracts/kalyswap-periphery/KalyswapRouter.sol\":560:575  block.timestamp */\n      timestamp\n        /* \"CoreContracts/kalyswap-periphery/KalyswapRouter.sol\":548:556  deadline */\n      dup2\n        /* \"CoreContracts/kalyswap-periphery/KalyswapRouter.sol\":548:575  deadline >= block.timestamp */\n      lt\n      iszero\n        /* \"CoreContracts/kalyswap-periphery/KalyswapRouter.sol\":540:603  require(deadline >= block.timestamp, 'KalyswapRouter: EXPIRED') */\n      tag_478\n      jumpi\n      0x40\n      dup1\n      mload\n      shl(0xe5, 0x461bcd)\n      dup2\n      mstore\n      0x20\n      0x04\n      dup3\n      add\n      mstore\n      0x17\n      0x24\n      dup3\n      add\n      mstore\n      0x00\n      dup1\n      mload\n      0x20\n      data_c37a5828941e3f3d234159361fc5f20834c08e197405b7b4d61af4ea6dee60a5\n      dup4\n      codecopy\n      dup2\n      mload\n      swap2\n      mstore\n      0x44\n      dup3\n      add\n      mstore\n      swap1\n      mload\n      swap1\n      dup2\n      swap1\n      sub\n      0x64\n      add\n      swap1\n      revert\n    tag_478:\n        /* \"CoreContracts/kalyswap-periphery/KalyswapRouter.sol\":2619:2704  _addLiquidity(tokenA, tokenB, amountADesired, amountBDesired, amountAMin, amountBMin) */\n      tag_480\n        /* \"CoreContracts/kalyswap-periphery/KalyswapRouter.sol\":2633:2639  tokenA */\n      dup13\n        /* \"CoreContracts/kalyswap-periphery/KalyswapRouter.sol\":2641:2647  tokenB */\n      dup13\n        /* \"CoreContracts/kalyswap-periphery/KalyswapRouter.sol\":2649:2663  amountADesired */\n      dup13\n        /* \"CoreContracts/kalyswap-periphery/KalyswapRouter.sol\":2665:2679  amountBDesired */\n      dup13\n        /* \"CoreContracts/kalyswap-periphery/KalyswapRouter.sol\":2681:2691  amountAMin */\n      dup13\n        /* \"CoreContracts/kalyswap-periphery/KalyswapRouter.sol\":2693:2703  amountBMin */\n      dup13\n        /* \"CoreContracts/kalyswap-periphery/KalyswapRouter.sol\":2619:2632  _addLiquidity */\n      tag_286\n        /* \"CoreContracts/kalyswap-periphery/KalyswapRouter.sol\":2619:2704  _addLiquidity(tokenA, tokenB, amountADesired, amountBDesired, amountAMin, amountBMin) */\n      jump\t// in\n    tag_480:\n        /* \"CoreContracts/kalyswap-periphery/KalyswapRouter.sol\":2598:2704  (amountA, amountB) = _addLiquidity(tokenA, tokenB, amountADesired, amountBDesired, amountAMin, amountBMin) */\n      swap1\n      swap5\n      pop\n      swap3\n      pop\n        /* \"CoreContracts/kalyswap-periphery/KalyswapRouter.sol\":2714:2726  address pair */\n      0x00\n        /* \"CoreContracts/kalyswap-periphery/KalyswapRouter.sol\":2729:2777  KalyswapLibrary.pairFor(factory, tokenA, tokenB) */\n      tag_481\n        /* \"CoreContracts/kalyswap-periphery/KalyswapRouter.sol\":2753:2760  factory */\n      immutable(\"0x59ec111d9d8ceec2ab223a1d5004f35d19292b31c8f02c623d83a90888216dda\")\n        /* \"CoreContracts/kalyswap-periphery/KalyswapRouter.sol\":2762:2768  tokenA */\n      dup15\n        /* \"CoreContracts/kalyswap-periphery/KalyswapRouter.sol\":2770:2776  tokenB */\n      dup15\n        /* \"CoreContracts/kalyswap-periphery/KalyswapRouter.sol\":2729:2752  KalyswapLibrary.pairFor */\n      tag_201\n        /* \"CoreContracts/kalyswap-periphery/KalyswapRouter.sol\":2729:2777  KalyswapLibrary.pairFor(factory, tokenA, tokenB) */\n      jump\t// in\n    tag_481:\n        /* \"CoreContracts/kalyswap-periphery/KalyswapRouter.sol\":2714:2777  address pair = KalyswapLibrary.pairFor(factory, tokenA, tokenB) */\n      swap1\n      pop\n        /* \"CoreContracts/kalyswap-periphery/KalyswapRouter.sol\":2787:2853  TransferHelper.safeTransferFrom(tokenA, msg.sender, pair, amountA) */\n      tag_482\n        /* \"CoreContracts/kalyswap-periphery/KalyswapRouter.sol\":2819:2825  tokenA */\n      dup14\n        /* \"CoreContracts/kalyswap-periphery/KalyswapRouter.sol\":2827:2837  msg.sender */\n      caller\n        /* \"CoreContracts/kalyswap-periphery/KalyswapRouter.sol\":2839:2843  pair */\n      dup4\n        /* \"CoreContracts/kalyswap-periphery/KalyswapRouter.sol\":2845:2852  amountA */\n      dup9\n        /* \"CoreContracts/kalyswap-periphery/KalyswapRouter.sol\":2787:2818  TransferHelper.safeTransferFrom */\n      tag_203\n        /* \"CoreContracts/kalyswap-periphery/KalyswapRouter.sol\":2787:2853  TransferHelper.safeTransferFrom(tokenA, msg.sender, pair, amountA) */\n      jump\t// in\n    tag_482:\n        /* \"CoreContracts/kalyswap-periphery/KalyswapRouter.sol\":2863:2929  TransferHelper.safeTransferFrom(tokenB, msg.sender, pair, amountB) */\n      tag_483\n        /* \"CoreContracts/kalyswap-periphery/KalyswapRouter.sol\":2895:2901  tokenB */\n      dup13\n        /* \"CoreContracts/kalyswap-periphery/KalyswapRouter.sol\":2903:2913  msg.sender */\n      caller\n        /* \"CoreContracts/kalyswap-periphery/KalyswapRouter.sol\":2915:2919  pair */\n      dup4\n        /* \"CoreContracts/kalyswap-periphery/KalyswapRouter.sol\":2921:2928  amountB */\n      dup8\n        /* \"CoreContracts/kalyswap-periphery/KalyswapRouter.sol\":2863:2894  TransferHelper.safeTransferFrom */\n      tag_203\n        /* \"CoreContracts/kalyswap-periphery/KalyswapRouter.sol\":2863:2929  TransferHelper.safeTransferFrom(tokenB, msg.sender, pair, amountB) */\n      jump\t// in\n    tag_483:\n        /* \"CoreContracts/kalyswap-periphery/KalyswapRouter.sol\":2965:2969  pair */\n      dup1\n      sub(shl(0xa0, 0x01), 0x01)\n        /* \"CoreContracts/kalyswap-periphery/KalyswapRouter.sol\":2951:2975  IKalyswapPair(pair).mint */\n      and\n      0x6a627842\n        /* \"CoreContracts/kalyswap-periphery/KalyswapRouter.sol\":2976:2978  to */\n      dup9\n        /* \"CoreContracts/kalyswap-periphery/KalyswapRouter.sol\":2951:2979  IKalyswapPair(pair).mint(to) */\n      mload(0x40)\n      dup3\n      0xffffffff\n      and\n      0xe0\n      shl\n      dup2\n      mstore\n      0x04\n      add\n      dup1\n      dup3\n      sub(shl(0xa0, 0x01), 0x01)\n      and\n      sub(shl(0xa0, 0x01), 0x01)\n      and\n      dup2\n      mstore\n      0x20\n      add\n      swap2\n      pop\n      pop\n      0x20\n      mload(0x40)\n      dup1\n      dup4\n      sub\n      dup2\n      0x00\n      dup8\n      dup1\n      extcodesize\n      iszero\n        /* \"--CODEGEN--\":5:14   */\n      dup1\n        /* \"--CODEGEN--\":2:4   */\n      iszero\n      tag_484\n      jumpi\n        /* \"--CODEGEN--\":27:28   */\n      0x00\n        /* \"--CODEGEN--\":24:25   */\n      dup1\n        /* \"--CODEGEN--\":17:29   */\n      revert\n        /* \"--CODEGEN--\":2:4   */\n    tag_484:\n        /* \"CoreContracts/kalyswap-periphery/KalyswapRouter.sol\":2951:2979  IKalyswapPair(pair).mint(to) */\n      pop\n      gas\n      call\n      iszero\n        /* \"--CODEGEN--\":8:17   */\n      dup1\n        /* \"--CODEGEN--\":5:7   */\n      iszero\n      tag_486\n      jumpi\n        /* \"--CODEGEN--\":45:61   */\n      returndatasize\n        /* \"--CODEGEN--\":42:43   */\n      0x00\n        /* \"--CODEGEN--\":39:40   */\n      dup1\n        /* \"--CODEGEN--\":24:62   */\n      returndatacopy\n        /* \"--CODEGEN--\":77:93   */\n      returndatasize\n        /* \"--CODEGEN--\":74:75   */\n      0x00\n        /* \"--CODEGEN--\":67:94   */\n      revert\n        /* \"--CODEGEN--\":5:7   */\n    tag_486:\n        /* \"CoreContracts/kalyswap-periphery/KalyswapRouter.sol\":2951:2979  IKalyswapPair(pair).mint(to) */\n      pop\n      pop\n      pop\n      pop\n      mload(0x40)\n      returndatasize\n        /* \"--CODEGEN--\":15:17   */\n      0x20\n        /* \"--CODEGEN--\":10:13   */\n      dup2\n        /* \"--CODEGEN--\":7:18   */\n      lt\n        /* \"--CODEGEN--\":4:6   */\n      iszero\n      tag_487\n      jumpi\n        /* \"--CODEGEN--\":31:32   */\n      0x00\n        /* \"--CODEGEN--\":28:29   */\n      dup1\n        /* \"--CODEGEN--\":21:33   */\n      revert\n        /* \"--CODEGEN--\":4:6   */\n    tag_487:\n      pop\n        /* \"CoreContracts/kalyswap-periphery/KalyswapRouter.sol\":2951:2979  IKalyswapPair(pair).mint(to) */\n      mload\n        /* \"CoreContracts/kalyswap-periphery/KalyswapRouter.sol\":2265:2986  function addLiquidity(... */\n      swap5\n      swap14\n      swap4\n      swap13\n      pop\n        /* \"CoreContracts/kalyswap-periphery/KalyswapRouter.sol\":2951:2979  IKalyswapPair(pair).mint(to) */\n      swap4\n      swap11\n      pop\n        /* \"CoreContracts/kalyswap-periphery/KalyswapRouter.sol\":2265:2986  function addLiquidity(... */\n      swap2\n      swap9\n      pop\n      pop\n      pop\n      pop\n      pop\n      pop\n      pop\n      pop\n      pop\n      jump\t// out\n        /* \"CoreContracts/kalyswap-periphery/libraries/KalyswapLibrary.sol\":2221:2729  function getAmountOut(uint amountIn, uint reserveIn, uint reserveOut) internal pure returns (uint amountOut) {... */\n    tag_186:\n        /* \"CoreContracts/kalyswap-periphery/libraries/KalyswapLibrary.sol\":2314:2328  uint amountOut */\n      0x00\n        /* \"CoreContracts/kalyswap-periphery/libraries/KalyswapLibrary.sol\":2359:2360  0 */\n      dup1\n        /* \"CoreContracts/kalyswap-periphery/libraries/KalyswapLibrary.sol\":2348:2356  amountIn */\n      dup5\n        /* \"CoreContracts/kalyswap-periphery/libraries/KalyswapLibrary.sol\":2348:2360  amountIn > 0 */\n      gt\n        /* \"CoreContracts/kalyswap-periphery/libraries/KalyswapLibrary.sol\":2340:2407  require(amountIn > 0, 'KalyswapLibrary: INSUFFICIENT_INPUT_AMOUNT') */\n      tag_489\n      jumpi\n      mload(0x40)\n      shl(0xe5, 0x461bcd)\n      dup2\n      mstore\n      0x04\n      add\n      dup1\n      dup1\n      0x20\n      add\n      dup3\n      dup2\n      sub\n      dup3\n      mstore\n      0x2a\n      dup2\n      mstore\n      0x20\n      add\n      dup1\n      data_7e0c4f90e95b6476ec75f64011a8b45efc0942d23cfeb210d95b189260a1bd07\n      0x2a\n      swap2\n      codecopy\n      0x40\n      add\n      swap2\n      pop\n      pop\n      mload(0x40)\n      dup1\n      swap2\n      sub\n      swap1\n      revert\n    tag_489:\n        /* \"CoreContracts/kalyswap-periphery/libraries/KalyswapLibrary.sol\":2437:2438  0 */\n      0x00\n        /* \"CoreContracts/kalyswap-periphery/libraries/KalyswapLibrary.sol\":2425:2434  reserveIn */\n      dup4\n        /* \"CoreContracts/kalyswap-periphery/libraries/KalyswapLibrary.sol\":2425:2438  reserveIn > 0 */\n      gt\n        /* \"CoreContracts/kalyswap-periphery/libraries/KalyswapLibrary.sol\":2425:2456  reserveIn > 0 && reserveOut > 0 */\n      dup1\n      iszero\n      tag_490\n      jumpi\n      pop\n        /* \"CoreContracts/kalyswap-periphery/libraries/KalyswapLibrary.sol\":2455:2456  0 */\n      0x00\n        /* \"CoreContracts/kalyswap-periphery/libraries/KalyswapLibrary.sol\":2442:2452  reserveOut */\n      dup3\n        /* \"CoreContracts/kalyswap-periphery/libraries/KalyswapLibrary.sol\":2442:2456  reserveOut > 0 */\n      gt\n        /* \"CoreContracts/kalyswap-periphery/libraries/KalyswapLibrary.sol\":2425:2456  reserveIn > 0 && reserveOut > 0 */\n    tag_490:\n        /* \"CoreContracts/kalyswap-periphery/libraries/KalyswapLibrary.sol\":2417:2500  require(reserveIn > 0 && reserveOut > 0, 'KalyswapLibrary: INSUFFICIENT_LIQUIDITY') */\n      tag_491\n      jumpi\n      mload(0x40)\n      shl(0xe5, 0x461bcd)\n      dup2\n      mstore\n      0x04\n      add\n      dup1\n      dup1\n      0x20\n      add\n      dup3\n      dup2\n      sub\n      dup3\n      mstore\n      0x27\n      dup2\n      mstore\n      0x20\n      add\n      dup1\n      data_9074bfdb993f0f76350cad6ff16b034dab298eea08ad462e08506031f49a76e1\n      0x27\n      swap2\n      codecopy\n      0x40\n      add\n      swap2\n      pop\n      pop\n      mload(0x40)\n      dup1\n      swap2\n      sub\n      swap1\n      revert\n    tag_491:\n        /* \"CoreContracts/kalyswap-periphery/libraries/KalyswapLibrary.sol\":2510:2530  uint amountInWithFee */\n      0x00\n        /* \"CoreContracts/kalyswap-periphery/libraries/KalyswapLibrary.sol\":2533:2550  amountIn.mul(997) */\n      tag_492\n        /* \"CoreContracts/kalyswap-periphery/libraries/KalyswapLibrary.sol\":2533:2541  amountIn */\n      dup6\n        /* \"CoreContracts/kalyswap-periphery/libraries/KalyswapLibrary.sol\":2546:2549  997 */\n      0x03e5\n        /* \"CoreContracts/kalyswap-periphery/libraries/KalyswapLibrary.sol\":2533:2550  amountIn.mul(997) */\n      0xffffffff\n        /* \"CoreContracts/kalyswap-periphery/libraries/KalyswapLibrary.sol\":2533:2545  amountIn.mul */\n      tag_493\n        /* \"CoreContracts/kalyswap-periphery/libraries/KalyswapLibrary.sol\":2533:2550  amountIn.mul(997) */\n      and\n      jump\t// in\n    tag_492:\n        /* \"CoreContracts/kalyswap-periphery/libraries/KalyswapLibrary.sol\":2510:2550  uint amountInWithFee = amountIn.mul(997) */\n      swap1\n      pop\n        /* \"CoreContracts/kalyswap-periphery/libraries/KalyswapLibrary.sol\":2560:2574  uint numerator */\n      0x00\n        /* \"CoreContracts/kalyswap-periphery/libraries/KalyswapLibrary.sol\":2577:2608  amountInWithFee.mul(reserveOut) */\n      tag_494\n        /* \"CoreContracts/kalyswap-periphery/libraries/KalyswapLibrary.sol\":2510:2550  uint amountInWithFee = amountIn.mul(997) */\n      dup3\n        /* \"CoreContracts/kalyswap-periphery/libraries/KalyswapLibrary.sol\":2597:2607  reserveOut */\n      dup6\n        /* \"CoreContracts/kalyswap-periphery/libraries/KalyswapLibrary.sol\":2577:2608  amountInWithFee.mul(reserveOut) */\n      0xffffffff\n        /* \"CoreContracts/kalyswap-periphery/libraries/KalyswapLibrary.sol\":2577:2596  amountInWithFee.mul */\n      tag_493\n        /* \"CoreContracts/kalyswap-periphery/libraries/KalyswapLibrary.sol\":2577:2608  amountInWithFee.mul(reserveOut) */\n      and\n      jump\t// in\n    tag_494:\n        /* \"CoreContracts/kalyswap-periphery/libraries/KalyswapLibrary.sol\":2560:2608  uint numerator = amountInWithFee.mul(reserveOut) */\n      swap1\n      pop\n        /* \"CoreContracts/kalyswap-periphery/libraries/KalyswapLibrary.sol\":2618:2634  uint denominator */\n      0x00\n        /* \"CoreContracts/kalyswap-periphery/libraries/KalyswapLibrary.sol\":2637:2677  reserveIn.mul(1000).add(amountInWithFee) */\n      tag_495\n        /* \"CoreContracts/kalyswap-periphery/libraries/KalyswapLibrary.sol\":2661:2676  amountInWithFee */\n      dup4\n        /* \"CoreContracts/kalyswap-periphery/libraries/KalyswapLibrary.sol\":2637:2656  reserveIn.mul(1000) */\n      tag_496\n        /* \"CoreContracts/kalyswap-periphery/libraries/KalyswapLibrary.sol\":2637:2646  reserveIn */\n      dup9\n        /* \"CoreContracts/kalyswap-periphery/libraries/KalyswapLibrary.sol\":2651:2655  1000 */\n      0x03e8\n        /* \"CoreContracts/kalyswap-periphery/libraries/KalyswapLibrary.sol\":2637:2656  reserveIn.mul(1000) */\n      0xffffffff\n        /* \"CoreContracts/kalyswap-periphery/libraries/KalyswapLibrary.sol\":2637:2650  reserveIn.mul */\n      tag_493\n        /* \"CoreContracts/kalyswap-periphery/libraries/KalyswapLibrary.sol\":2637:2656  reserveIn.mul(1000) */\n      and\n      jump\t// in\n    tag_496:\n        /* \"CoreContracts/kalyswap-periphery/libraries/KalyswapLibrary.sol\":2637:2660  reserveIn.mul(1000).add */\n      swap1\n        /* \"CoreContracts/kalyswap-periphery/libraries/KalyswapLibrary.sol\":2637:2677  reserveIn.mul(1000).add(amountInWithFee) */\n      0xffffffff\n        /* \"CoreContracts/kalyswap-periphery/libraries/KalyswapLibrary.sol\":2637:2660  reserveIn.mul(1000).add */\n      tag_497\n        /* \"CoreContracts/kalyswap-periphery/libraries/KalyswapLibrary.sol\":2637:2677  reserveIn.mul(1000).add(amountInWithFee) */\n      and\n      jump\t// in\n    tag_495:\n        /* \"CoreContracts/kalyswap-periphery/libraries/KalyswapLibrary.sol\":2618:2677  uint denominator = reserveIn.mul(1000).add(amountInWithFee) */\n      swap1\n      pop\n        /* \"CoreContracts/kalyswap-periphery/libraries/KalyswapLibrary.sol\":2711:2722  denominator */\n      dup1\n        /* \"CoreContracts/kalyswap-periphery/libraries/KalyswapLibrary.sol\":2699:2708  numerator */\n      dup3\n        /* \"CoreContracts/kalyswap-periphery/libraries/KalyswapLibrary.sol\":2699:2722  numerator / denominator */\n      dup2\n      tag_498\n      jumpi\n      invalid\n    tag_498:\n      div\n      swap8\n        /* \"CoreContracts/kalyswap-periphery/libraries/KalyswapLibrary.sol\":2221:2729  function getAmountOut(uint amountIn, uint reserveIn, uint reserveOut) internal pure returns (uint amountOut) {... */\n      swap7\n      pop\n      pop\n      pop\n      pop\n      pop\n      pop\n      pop\n      jump\t// out\n        /* \"CoreContracts/kalyswap-periphery/libraries/KalyswapLibrary.sol\":3970:4493  function getAmountsIn(address factory, uint amountOut, address[] memory path) internal view returns (uint[] memory amounts) {... */\n    tag_193:\n        /* \"CoreContracts/kalyswap-periphery/libraries/KalyswapLibrary.sol\":4071:4092  uint[] memory amounts */\n      0x60\n        /* \"CoreContracts/kalyswap-periphery/libraries/KalyswapLibrary.sol\":4127:4128  2 */\n      0x02\n        /* \"CoreContracts/kalyswap-periphery/libraries/KalyswapLibrary.sol\":4112:4116  path */\n      dup3\n        /* \"CoreContracts/kalyswap-periphery/libraries/KalyswapLibrary.sol\":4112:4123  path.length */\n      mload\n        /* \"CoreContracts/kalyswap-periphery/libraries/KalyswapLibrary.sol\":4112:4128  path.length >= 2 */\n      lt\n      iszero\n        /* \"CoreContracts/kalyswap-periphery/libraries/KalyswapLibrary.sol\":4104:4162  require(path.length >= 2, 'KalyswapLibrary: INVALID_PATH') */\n      tag_500\n      jumpi\n      0x40\n      dup1\n      mload\n      shl(0xe5, 0x461bcd)\n      dup2\n      mstore\n      0x20\n      0x04\n      dup3\n      add\n      mstore\n      0x1d\n      0x24\n      dup3\n      add\n      mstore\n      0x4b616c79737761704c6962726172793a20494e56414c49445f50415448000000\n      0x44\n      dup3\n      add\n      mstore\n      swap1\n      mload\n      swap1\n      dup2\n      swap1\n      sub\n      0x64\n      add\n      swap1\n      revert\n    tag_500:\n        /* \"CoreContracts/kalyswap-periphery/libraries/KalyswapLibrary.sol\":4193:4197  path */\n      dup2\n        /* \"CoreContracts/kalyswap-periphery/libraries/KalyswapLibrary.sol\":4193:4204  path.length */\n      mload\n        /* \"CoreContracts/kalyswap-periphery/libraries/KalyswapLibrary.sol\":4182:4205  new uint[](path.length) */\n      0xffffffffffffffff\n      dup2\n      gt\n        /* \"--CODEGEN--\":5:14   */\n      dup1\n        /* \"--CODEGEN--\":2:4   */\n      iszero\n      tag_501\n      jumpi\n        /* \"--CODEGEN--\":27:28   */\n      0x00\n        /* \"--CODEGEN--\":24:25   */\n      dup1\n        /* \"--CODEGEN--\":17:29   */\n      revert\n        /* \"--CODEGEN--\":2:4   */\n    tag_501:\n        /* \"CoreContracts/kalyswap-periphery/libraries/KalyswapLibrary.sol\":4182:4205  new uint[](path.length) */\n      pop\n      mload(0x40)\n      swap1\n      dup1\n      dup3\n      mstore\n      dup1\n      0x20\n      mul\n      0x20\n      add\n      dup3\n      add\n      0x40\n      mstore\n      dup1\n      iszero\n      tag_502\n      jumpi\n      dup2\n      0x20\n      add\n        /* \"--CODEGEN--\":29:31   */\n      0x20\n        /* \"--CODEGEN--\":21:27   */\n      dup3\n        /* \"--CODEGEN--\":17:32   */\n      mul\n        /* \"--CODEGEN--\":125:129   */\n      dup1\n        /* \"--CODEGEN--\":109:123   */\n      calldatasize\n        /* \"--CODEGEN--\":101:107   */\n      dup4\n        /* \"--CODEGEN--\":88:130   */\n      calldatacopy\n        /* \"--CODEGEN--\":144:161   */\n      add\n      swap1\n      pop\n        /* \"CoreContracts/kalyswap-periphery/libraries/KalyswapLibrary.sol\":4182:4205  new uint[](path.length) */\n    tag_502:\n      pop\n        /* \"CoreContracts/kalyswap-periphery/libraries/KalyswapLibrary.sol\":4172:4205  amounts = new uint[](path.length) */\n      swap1\n      pop\n        /* \"CoreContracts/kalyswap-periphery/libraries/KalyswapLibrary.sol\":4245:4254  amountOut */\n      dup3\n        /* \"CoreContracts/kalyswap-periphery/libraries/KalyswapLibrary.sol\":4215:4222  amounts */\n      dup2\n        /* \"CoreContracts/kalyswap-periphery/libraries/KalyswapLibrary.sol\":4240:4241  1 */\n      0x01\n        /* \"CoreContracts/kalyswap-periphery/libraries/KalyswapLibrary.sol\":4223:4230  amounts */\n      dup4\n        /* \"CoreContracts/kalyswap-periphery/libraries/KalyswapLibrary.sol\":4223:4237  amounts.length */\n      mload\n        /* \"CoreContracts/kalyswap-periphery/libraries/KalyswapLibrary.sol\":4223:4241  amounts.length - 1 */\n      sub\n        /* \"CoreContracts/kalyswap-periphery/libraries/KalyswapLibrary.sol\":4215:4242  amounts[amounts.length - 1] */\n      dup2\n      mload\n      dup2\n      lt\n      tag_503\n      jumpi\n      invalid\n    tag_503:\n      0x20\n      swap1\n      dup2\n      mul\n      swap2\n      swap1\n      swap2\n      add\n      add\n        /* \"CoreContracts/kalyswap-periphery/libraries/KalyswapLibrary.sol\":4215:4254  amounts[amounts.length - 1] = amountOut */\n      mstore\n        /* \"CoreContracts/kalyswap-periphery/libraries/KalyswapLibrary.sol\":4278:4289  path.length */\n      dup2\n      mload\n      not(0x00)\n        /* \"CoreContracts/kalyswap-periphery/libraries/KalyswapLibrary.sol\":4278:4293  path.length - 1 */\n      add\n        /* \"CoreContracts/kalyswap-periphery/libraries/KalyswapLibrary.sol\":4264:4487  for (uint i = path.length - 1; i > 0; i--) {... */\n    tag_504:\n        /* \"CoreContracts/kalyswap-periphery/libraries/KalyswapLibrary.sol\":4295:4300  i > 0 */\n      dup1\n      iszero\n        /* \"CoreContracts/kalyswap-periphery/libraries/KalyswapLibrary.sol\":4264:4487  for (uint i = path.length - 1; i > 0; i--) {... */\n      tag_505\n      jumpi\n        /* \"CoreContracts/kalyswap-periphery/libraries/KalyswapLibrary.sol\":4322:4336  uint reserveIn */\n      0x00\n        /* \"CoreContracts/kalyswap-periphery/libraries/KalyswapLibrary.sol\":4338:4353  uint reserveOut */\n      dup1\n        /* \"CoreContracts/kalyswap-periphery/libraries/KalyswapLibrary.sol\":4357:4399  getReserves(factory, path[i - 1], path[i]) */\n      tag_507\n        /* \"CoreContracts/kalyswap-periphery/libraries/KalyswapLibrary.sol\":4369:4376  factory */\n      dup8\n        /* \"CoreContracts/kalyswap-periphery/libraries/KalyswapLibrary.sol\":4378:4382  path */\n      dup7\n        /* \"CoreContracts/kalyswap-periphery/libraries/KalyswapLibrary.sol\":4387:4388  1 */\n      0x01\n        /* \"CoreContracts/kalyswap-periphery/libraries/KalyswapLibrary.sol\":4383:4384  i */\n      dup7\n        /* \"CoreContracts/kalyswap-periphery/libraries/KalyswapLibrary.sol\":4383:4388  i - 1 */\n      sub\n        /* \"CoreContracts/kalyswap-periphery/libraries/KalyswapLibrary.sol\":4378:4389  path[i - 1] */\n      dup2\n      mload\n      dup2\n      lt\n      tag_508\n      jumpi\n      invalid\n    tag_508:\n      0x20\n      mul\n      0x20\n      add\n      add\n      mload\n        /* \"CoreContracts/kalyswap-periphery/libraries/KalyswapLibrary.sol\":4391:4395  path */\n      dup8\n        /* \"CoreContracts/kalyswap-periphery/libraries/KalyswapLibrary.sol\":4396:4397  i */\n      dup7\n        /* \"CoreContracts/kalyswap-periphery/libraries/KalyswapLibrary.sol\":4391:4398  path[i] */\n      dup2\n      mload\n      dup2\n      lt\n      tag_509\n      jumpi\n      invalid\n    tag_509:\n      0x20\n      mul\n      0x20\n      add\n      add\n      mload\n        /* \"CoreContracts/kalyswap-periphery/libraries/KalyswapLibrary.sol\":4357:4368  getReserves */\n      tag_510\n        /* \"CoreContracts/kalyswap-periphery/libraries/KalyswapLibrary.sol\":4357:4399  getReserves(factory, path[i - 1], path[i]) */\n      jump\t// in\n    tag_507:\n        /* \"CoreContracts/kalyswap-periphery/libraries/KalyswapLibrary.sol\":4321:4399  (uint reserveIn, uint reserveOut) = getReserves(factory, path[i - 1], path[i]) */\n      swap2\n      pop\n      swap2\n      pop\n        /* \"CoreContracts/kalyswap-periphery/libraries/KalyswapLibrary.sol\":4430:4476  getAmountIn(amounts[i], reserveIn, reserveOut) */\n      tag_511\n        /* \"CoreContracts/kalyswap-periphery/libraries/KalyswapLibrary.sol\":4442:4449  amounts */\n      dup5\n        /* \"CoreContracts/kalyswap-periphery/libraries/KalyswapLibrary.sol\":4450:4451  i */\n      dup5\n        /* \"CoreContracts/kalyswap-periphery/libraries/KalyswapLibrary.sol\":4442:4452  amounts[i] */\n      dup2\n      mload\n      dup2\n      lt\n      tag_512\n      jumpi\n      invalid\n    tag_512:\n      0x20\n      mul\n      0x20\n      add\n      add\n      mload\n        /* \"CoreContracts/kalyswap-periphery/libraries/KalyswapLibrary.sol\":4454:4463  reserveIn */\n      dup4\n        /* \"CoreContracts/kalyswap-periphery/libraries/KalyswapLibrary.sol\":4465:4475  reserveOut */\n      dup4\n        /* \"CoreContracts/kalyswap-periphery/libraries/KalyswapLibrary.sol\":4430:4441  getAmountIn */\n      tag_305\n        /* \"CoreContracts/kalyswap-periphery/libraries/KalyswapLibrary.sol\":4430:4476  getAmountIn(amounts[i], reserveIn, reserveOut) */\n      jump\t// in\n    tag_511:\n        /* \"CoreContracts/kalyswap-periphery/libraries/KalyswapLibrary.sol\":4413:4420  amounts */\n      dup5\n        /* \"CoreContracts/kalyswap-periphery/libraries/KalyswapLibrary.sol\":4425:4426  1 */\n      0x01\n        /* \"CoreContracts/kalyswap-periphery/libraries/KalyswapLibrary.sol\":4421:4422  i */\n      dup6\n        /* \"CoreContracts/kalyswap-periphery/libraries/KalyswapLibrary.sol\":4421:4426  i - 1 */\n      sub\n        /* \"CoreContracts/kalyswap-periphery/libraries/KalyswapLibrary.sol\":4413:4427  amounts[i - 1] */\n      dup2\n      mload\n      dup2\n      lt\n      tag_513\n      jumpi\n      invalid\n    tag_513:\n      0x20\n      swap1\n      dup2\n      mul\n      swap2\n      swap1\n      swap2\n      add\n      add\n        /* \"CoreContracts/kalyswap-periphery/libraries/KalyswapLibrary.sol\":4413:4476  amounts[i - 1] = getAmountIn(amounts[i], reserveIn, reserveOut) */\n      mstore\n      pop\n      pop\n      not(0x00)\n        /* \"CoreContracts/kalyswap-periphery/libraries/KalyswapLibrary.sol\":4302:4305  i-- */\n      add\n        /* \"CoreContracts/kalyswap-periphery/libraries/KalyswapLibrary.sol\":4264:4487  for (uint i = path.length - 1; i > 0; i--) {... */\n      jump(tag_504)\n    tag_505:\n      pop\n        /* \"CoreContracts/kalyswap-periphery/libraries/KalyswapLibrary.sol\":3970:4493  function getAmountsIn(address factory, uint amountOut, address[] memory path) internal view returns (uint[] memory amounts) {... */\n      swap4\n      swap3\n      pop\n      pop\n      pop\n      jump\t// out\n        /* \"CoreContracts/kalyswap-periphery/libraries/KalyswapLibrary.sol\":766:1236  function pairFor(address factory, address tokenA, address tokenB) internal pure returns (address pair) {... */\n    tag_201:\n        /* \"CoreContracts/kalyswap-periphery/libraries/KalyswapLibrary.sol\":855:867  address pair */\n      0x00\n        /* \"CoreContracts/kalyswap-periphery/libraries/KalyswapLibrary.sol\":880:894  address token0 */\n      dup1\n        /* \"CoreContracts/kalyswap-periphery/libraries/KalyswapLibrary.sol\":896:910  address token1 */\n      0x00\n        /* \"CoreContracts/kalyswap-periphery/libraries/KalyswapLibrary.sol\":914:940  sortTokens(tokenA, tokenB) */\n      tag_515\n        /* \"CoreContracts/kalyswap-periphery/libraries/KalyswapLibrary.sol\":925:931  tokenA */\n      dup6\n        /* \"CoreContracts/kalyswap-periphery/libraries/KalyswapLibrary.sol\":933:939  tokenB */\n      dup6\n        /* \"CoreContracts/kalyswap-periphery/libraries/KalyswapLibrary.sol\":914:924  sortTokens */\n      tag_441\n        /* \"CoreContracts/kalyswap-periphery/libraries/KalyswapLibrary.sol\":914:940  sortTokens(tokenA, tokenB) */\n      jump\t// in\n    tag_515:\n        /* \"CoreContracts/kalyswap-periphery/libraries/KalyswapLibrary.sol\":1074:1106  abi.encodePacked(token0, token1) */\n      0x40\n      dup1\n      mload\n      not(0xffffffffffffffffffffffff)\n      0x60\n      swap5\n      dup6\n      shl\n      dup2\n      and\n      0x20\n      dup1\n      dup5\n      add\n      swap2\n      swap1\n      swap2\n      mstore\n      swap4\n      dup6\n      shl\n      dup2\n      and\n      0x34\n      dup4\n      add\n      mstore\n      dup3\n      mload\n        /* \"--CODEGEN--\":22:54   */\n      0x28\n        /* \"--CODEGEN--\":26:47   */\n      dup2\n      dup5\n      sub\n        /* \"--CODEGEN--\":22:54   */\n      add\n        /* \"--CODEGEN--\":6:55   */\n      dup2\n      mstore\n        /* \"CoreContracts/kalyswap-periphery/libraries/KalyswapLibrary.sol\":1074:1106  abi.encodePacked(token0, token1) */\n      0x48\n      dup4\n      add\n      dup5\n      mstore\n        /* \"CoreContracts/kalyswap-periphery/libraries/KalyswapLibrary.sol\":1064:1107  keccak256(abi.encodePacked(token0, token1)) */\n      dup1\n      mload\n      swap1\n      dup6\n      add\n      keccak256\n        /* \"CoreContracts/kalyswap-periphery/libraries/KalyswapLibrary.sol\":980:1226  abi.encodePacked(... */\n      0xff00000000000000000000000000000000000000000000000000000000000000\n      0x68\n      dup5\n      add\n      mstore\n      swap11\n      swap1\n      swap5\n      shl\n      swap1\n      swap4\n      and\n      0x69\n      dup5\n      add\n      mstore\n      0x7d\n      dup4\n      add\n      swap9\n      swap1\n      swap9\n      mstore\n      0x7fec1b31c5902185cba102de1e1c0b6a4b20722338e61f0e56de83156ead44f6\n      0x9d\n      dup1\n      dup5\n      add\n      swap2\n      swap1\n      swap2\n      mstore\n      dup9\n      mload\n        /* \"--CODEGEN--\":26:47   */\n      dup1\n      dup5\n      sub\n        /* \"--CODEGEN--\":22:54   */\n      swap1\n      swap2\n      add\n        /* \"--CODEGEN--\":6:55   */\n      dup2\n      mstore\n        /* \"CoreContracts/kalyswap-periphery/libraries/KalyswapLibrary.sol\":980:1226  abi.encodePacked(... */\n      0xbd\n      swap1\n      swap3\n      add\n      swap1\n      swap8\n      mstore\n        /* \"CoreContracts/kalyswap-periphery/libraries/KalyswapLibrary.sol\":970:1227  keccak256(abi.encodePacked(... */\n      dup1\n      mload\n      swap7\n      add\n      swap6\n      swap1\n      swap6\n      keccak256\n      swap6\n        /* \"CoreContracts/kalyswap-periphery/libraries/KalyswapLibrary.sol\":766:1236  function pairFor(address factory, address tokenA, address tokenB) internal pure returns (address pair) {... */\n      swap5\n      pop\n      pop\n      pop\n      pop\n      pop\n      jump\t// out\n        /* \"CoreContracts/kalyswap-lib/libraries/TransferHelper.sol\":1001:1440  function safeTransferFrom(... */\n    tag_203:\n        /* \"CoreContracts/kalyswap-lib/libraries/TransferHelper.sol\":1265:1316  abi.encodeWithSelector(0x23b872dd, from, to, value) */\n      0x40\n      dup1\n      mload\n      sub(shl(0xa0, 0x01), 0x01)\n      dup6\n      dup2\n      and\n      0x24\n      dup4\n      add\n      mstore\n      dup5\n      dup2\n      and\n      0x44\n      dup4\n      add\n      mstore\n      0x64\n      dup1\n      dup4\n      add\n      dup6\n      swap1\n      mstore\n      dup4\n      mload\n        /* \"--CODEGEN--\":26:47   */\n      dup1\n      dup5\n      sub\n        /* \"--CODEGEN--\":22:54   */\n      swap1\n      swap2\n      add\n        /* \"--CODEGEN--\":6:55   */\n      dup2\n      mstore\n        /* \"CoreContracts/kalyswap-lib/libraries/TransferHelper.sol\":1265:1316  abi.encodeWithSelector(0x23b872dd, from, to, value) */\n      0x84\n      swap1\n      swap3\n      add\n      dup4\n      mstore\n      0x20\n        /* \"--CODEGEN--\":25:43   */\n      dup3\n      add\n        /* \"--CODEGEN--\":61:78   */\n      dup1\n      mload\n        /* \"--CODEGEN--\":96:154   */\n      0xffffffffffffffffffffffffffffffffffffffffffffffffffffffff\n        /* \"--CODEGEN--\":182:197   */\n      and\n      shl(0xe0, 0x23b872dd)\n        /* \"--CODEGEN--\":179:208   */\n      or\n        /* \"--CODEGEN--\":160:209   */\n      dup2\n      mstore\n        /* \"CoreContracts/kalyswap-lib/libraries/TransferHelper.sol\":1254:1317  token.call(abi.encodeWithSelector(0x23b872dd, from, to, value)) */\n      swap3\n      mload\n      dup3\n      mload\n        /* \"CoreContracts/kalyswap-lib/libraries/TransferHelper.sol\":1219:1231  bool success */\n      0x00\n      swap5\n        /* \"CoreContracts/kalyswap-lib/libraries/TransferHelper.sol\":1233:1250  bytes memory data */\n      0x60\n      swap5\n        /* \"CoreContracts/kalyswap-lib/libraries/TransferHelper.sol\":1254:1264  token.call */\n      swap4\n      dup11\n      and\n      swap4\n        /* \"CoreContracts/kalyswap-lib/libraries/TransferHelper.sol\":1265:1316  abi.encodeWithSelector(0x23b872dd, from, to, value) */\n      swap3\n        /* \"CoreContracts/kalyswap-lib/libraries/TransferHelper.sol\":1254:1317  token.call(abi.encodeWithSelector(0x23b872dd, from, to, value)) */\n      swap2\n      dup3\n      swap2\n        /* \"--CODEGEN--\":25:43   */\n      swap1\n        /* \"CoreContracts/kalyswap-lib/libraries/TransferHelper.sol\":1254:1317  token.call(abi.encodeWithSelector(0x23b872dd, from, to, value)) */\n      dup1\n      dup4\n        /* \"--CODEGEN--\":25:43   */\n      dup4\n        /* \"--CODEGEN--\":36:189   */\n    tag_517:\n        /* \"--CODEGEN--\":66:68   */\n      0x20\n        /* \"--CODEGEN--\":61:64   */\n      dup4\n        /* \"--CODEGEN--\":58:69   */\n      lt\n        /* \"--CODEGEN--\":36:189   */\n      tag_519\n      jumpi\n        /* \"--CODEGEN--\":176:186   */\n      dup1\n      mload\n        /* \"--CODEGEN--\":164:187   */\n      dup3\n      mstore\n      not(0x1f)\n        /* \"--CODEGEN--\":139:151   */\n      swap1\n      swap3\n      add\n      swap2\n        /* \"--CODEGEN--\":98:100   */\n      0x20\n        /* \"--CODEGEN--\":89:101   */\n      swap2\n      dup3\n      add\n      swap2\n        /* \"--CODEGEN--\":114:126   */\n      add\n        /* \"--CODEGEN--\":36:189   */\n      jump(tag_517)\n    tag_519:\n        /* \"--CODEGEN--\":274:275   */\n      0x01\n        /* \"--CODEGEN--\":267:270   */\n      dup4\n        /* \"--CODEGEN--\":263:265   */\n      0x20\n        /* \"--CODEGEN--\":259:271   */\n      sub\n        /* \"--CODEGEN--\":254:257   */\n      0x0100\n        /* \"--CODEGEN--\":250:272   */\n      exp\n        /* \"--CODEGEN--\":246:276   */\n      sub\n        /* \"--CODEGEN--\":315:319   */\n      dup1\n        /* \"--CODEGEN--\":311:320   */\n      not\n        /* \"--CODEGEN--\":305:308   */\n      dup3\n        /* \"--CODEGEN--\":299:309   */\n      mload\n        /* \"--CODEGEN--\":295:321   */\n      and\n        /* \"--CODEGEN--\":356:360   */\n      dup2\n        /* \"--CODEGEN--\":350:353   */\n      dup5\n        /* \"--CODEGEN--\":344:354   */\n      mload\n        /* \"--CODEGEN--\":340:361   */\n      and\n        /* \"--CODEGEN--\":389:396   */\n      dup1\n        /* \"--CODEGEN--\":380:387   */\n      dup3\n        /* \"--CODEGEN--\":377:397   */\n      or\n        /* \"--CODEGEN--\":372:375   */\n      dup6\n        /* \"--CODEGEN--\":365:398   */\n      mstore\n        /* \"--CODEGEN--\":3:402   */\n      pop\n      pop\n      pop\n        /* \"CoreContracts/kalyswap-lib/libraries/TransferHelper.sol\":1254:1317  token.call(abi.encodeWithSelector(0x23b872dd, from, to, value)) */\n      pop\n      pop\n      pop\n      swap1\n      pop\n      add\n      swap2\n      pop\n      pop\n      0x00\n      mload(0x40)\n      dup1\n      dup4\n      sub\n      dup2\n      0x00\n      dup7\n      gas\n      call\n      swap2\n      pop\n      pop\n      returndatasize\n        /* \"--CODEGEN--\":12:13   */\n      dup1\n        /* \"--CODEGEN--\":19:20   */\n      0x00\n        /* \"--CODEGEN--\":14:41   */\n      dup2\n      eq\n      tag_522\n      jumpi\n        /* \"--CODEGEN--\":67:71   */\n      0x40\n        /* \"--CODEGEN--\":61:72   */\n      mload\n        /* \"--CODEGEN--\":56:72   */\n      swap2\n      pop\n        /* \"--CODEGEN--\":134:138   */\n      0x1f\n        /* \"--CODEGEN--\":130:139   */\n      not\n        /* \"--CODEGEN--\":123:127   */\n      0x3f\n        /* \"--CODEGEN--\":105:121   */\n      returndatasize\n        /* \"--CODEGEN--\":101:128   */\n      add\n        /* \"--CODEGEN--\":97:140   */\n      and\n        /* \"--CODEGEN--\":94:95   */\n      dup3\n        /* \"--CODEGEN--\":90:141   */\n      add\n        /* \"--CODEGEN--\":84:88   */\n      0x40\n        /* \"--CODEGEN--\":77:142   */\n      mstore\n        /* \"--CODEGEN--\":157:173   */\n      returndatasize\n        /* \"--CODEGEN--\":154:155   */\n      dup3\n        /* \"--CODEGEN--\":147:174   */\n      mstore\n        /* \"--CODEGEN--\":211:227   */\n      returndatasize\n        /* \"--CODEGEN--\":208:209   */\n      0x00\n        /* \"--CODEGEN--\":201:205   */\n      0x20\n        /* \"--CODEGEN--\":198:199   */\n      dup5\n        /* \"--CODEGEN--\":194:206   */\n      add\n        /* \"--CODEGEN--\":179:228   */\n      returndatacopy\n        /* \"--CODEGEN--\":5:233   */\n      jump(tag_521)\n        /* \"--CODEGEN--\":14:41   */\n    tag_522:\n        /* \"--CODEGEN--\":32:36   */\n      0x60\n        /* \"--CODEGEN--\":27:36   */\n      swap2\n      pop\n        /* \"--CODEGEN--\":5:233   */\n    tag_521:\n      pop\n        /* \"CoreContracts/kalyswap-lib/libraries/TransferHelper.sol\":1218:1317  (bool success, bytes memory data) = token.call(abi.encodeWithSelector(0x23b872dd, from, to, value)) */\n      swap2\n      pop\n      swap2\n      pop\n        /* \"CoreContracts/kalyswap-lib/libraries/TransferHelper.sol\":1335:1342  success */\n      dup2\n        /* \"CoreContracts/kalyswap-lib/libraries/TransferHelper.sol\":1335:1392  success && (data.length == 0 || abi.decode(data, (bool))) */\n      dup1\n      iszero\n      tag_524\n      jumpi\n      pop\n        /* \"CoreContracts/kalyswap-lib/libraries/TransferHelper.sol\":1347:1358  data.length */\n      dup1\n      mload\n        /* \"CoreContracts/kalyswap-lib/libraries/TransferHelper.sol\":1347:1363  data.length == 0 */\n      iszero\n      dup1\n        /* \"CoreContracts/kalyswap-lib/libraries/TransferHelper.sol\":1347:1391  data.length == 0 || abi.decode(data, (bool)) */\n      tag_524\n      jumpi\n      pop\n        /* \"CoreContracts/kalyswap-lib/libraries/TransferHelper.sol\":1378:1382  data */\n      dup1\n        /* \"CoreContracts/kalyswap-lib/libraries/TransferHelper.sol\":1367:1391  abi.decode(data, (bool)) */\n      dup1\n      0x20\n      add\n      swap1\n      mload\n        /* \"--CODEGEN--\":15:17   */\n      0x20\n        /* \"--CODEGEN--\":10:13   */\n      dup2\n        /* \"--CODEGEN--\":7:18   */\n      lt\n        /* \"--CODEGEN--\":4:6   */\n      iszero\n      tag_525\n      jumpi\n        /* \"--CODEGEN--\":31:32   */\n      0x00\n        /* \"--CODEGEN--\":28:29   */\n      dup1\n        /* \"--CODEGEN--\":21:33   */\n      revert\n        /* \"--CODEGEN--\":4:6   */\n    tag_525:\n      pop\n        /* \"CoreContracts/kalyswap-lib/libraries/TransferHelper.sol\":1367:1391  abi.decode(data, (bool)) */\n      mload\n        /* \"CoreContracts/kalyswap-lib/libraries/TransferHelper.sol\":1347:1391  data.length == 0 || abi.decode(data, (bool)) */\n    tag_524:\n        /* \"CoreContracts/kalyswap-lib/libraries/TransferHelper.sol\":1327:1433  require(success && (data.length == 0 || abi.decode(data, (bool))), 'TransferHelper: TRANSFER_FROM_FAILED') */\n      tag_526\n      jumpi\n      mload(0x40)\n      shl(0xe5, 0x461bcd)\n      dup2\n      mstore\n      0x04\n      add\n      dup1\n      dup1\n      0x20\n      add\n      dup3\n      dup2\n      sub\n      dup3\n      mstore\n      0x24\n      dup2\n      mstore\n      0x20\n      add\n      dup1\n      data_eb2904bf3c0c9ae693b53eb0188a703c388998a9c405b7965ca678cef9a51d18\n      0x24\n      swap2\n      codecopy\n      0x40\n      add\n      swap2\n      pop\n      pop\n      mload(0x40)\n      dup1\n      swap2\n      sub\n      swap1\n      revert\n    tag_526:\n        /* \"CoreContracts/kalyswap-lib/libraries/TransferHelper.sol\":1001:1440  function safeTransferFrom(... */\n      pop\n      pop\n      pop\n      pop\n      pop\n      pop\n      jump\t// out\n        /* \"CoreContracts/kalyswap-periphery/KalyswapRouter.sol\":8375:9095  function _swap(uint[] memory amounts, address[] memory path, address _to) internal virtual {... */\n    tag_205:\n        /* \"CoreContracts/kalyswap-periphery/KalyswapRouter.sol\":8481:8487  uint i */\n      0x00\n        /* \"CoreContracts/kalyswap-periphery/KalyswapRouter.sol\":8476:9089  for (uint i; i < path.length - 1; i++) {... */\n    tag_528:\n        /* \"CoreContracts/kalyswap-periphery/KalyswapRouter.sol\":8507:8508  1 */\n      0x01\n        /* \"CoreContracts/kalyswap-periphery/KalyswapRouter.sol\":8493:8497  path */\n      dup4\n        /* \"CoreContracts/kalyswap-periphery/KalyswapRouter.sol\":8493:8504  path.length */\n      mload\n        /* \"CoreContracts/kalyswap-periphery/KalyswapRouter.sol\":8493:8508  path.length - 1 */\n      sub\n        /* \"CoreContracts/kalyswap-periphery/KalyswapRouter.sol\":8489:8490  i */\n      dup2\n        /* \"CoreContracts/kalyswap-periphery/KalyswapRouter.sol\":8489:8508  i < path.length - 1 */\n      lt\n        /* \"CoreContracts/kalyswap-periphery/KalyswapRouter.sol\":8476:9089  for (uint i; i < path.length - 1; i++) {... */\n      iszero\n      tag_529\n      jumpi\n        /* \"CoreContracts/kalyswap-periphery/KalyswapRouter.sol\":8530:8543  address input */\n      0x00\n        /* \"CoreContracts/kalyswap-periphery/KalyswapRouter.sol\":8545:8559  address output */\n      dup1\n        /* \"CoreContracts/kalyswap-periphery/KalyswapRouter.sol\":8564:8568  path */\n      dup5\n        /* \"CoreContracts/kalyswap-periphery/KalyswapRouter.sol\":8569:8570  i */\n      dup4\n        /* \"CoreContracts/kalyswap-periphery/KalyswapRouter.sol\":8564:8571  path[i] */\n      dup2\n      mload\n      dup2\n      lt\n      tag_531\n      jumpi\n      invalid\n    tag_531:\n      0x20\n      mul\n      0x20\n      add\n      add\n      mload\n        /* \"CoreContracts/kalyswap-periphery/KalyswapRouter.sol\":8573:8577  path */\n      dup6\n        /* \"CoreContracts/kalyswap-periphery/KalyswapRouter.sol\":8578:8579  i */\n      dup5\n        /* \"CoreContracts/kalyswap-periphery/KalyswapRouter.sol\":8582:8583  1 */\n      0x01\n        /* \"CoreContracts/kalyswap-periphery/KalyswapRouter.sol\":8578:8583  i + 1 */\n      add\n        /* \"CoreContracts/kalyswap-periphery/KalyswapRouter.sol\":8573:8584  path[i + 1] */\n      dup2\n      mload\n      dup2\n      lt\n      tag_532\n      jumpi\n      invalid\n    tag_532:\n      0x20\n      mul\n      0x20\n      add\n      add\n      mload\n        /* \"CoreContracts/kalyswap-periphery/KalyswapRouter.sol\":8529:8585  (address input, address output) = (path[i], path[i + 1]) */\n      swap2\n      pop\n      swap2\n      pop\n        /* \"CoreContracts/kalyswap-periphery/KalyswapRouter.sol\":8600:8614  address token0 */\n      0x00\n        /* \"CoreContracts/kalyswap-periphery/KalyswapRouter.sol\":8619:8660  KalyswapLibrary.sortTokens(input, output) */\n      tag_533\n        /* \"CoreContracts/kalyswap-periphery/KalyswapRouter.sol\":8646:8651  input */\n      dup4\n        /* \"CoreContracts/kalyswap-periphery/KalyswapRouter.sol\":8653:8659  output */\n      dup4\n        /* \"CoreContracts/kalyswap-periphery/KalyswapRouter.sol\":8619:8645  KalyswapLibrary.sortTokens */\n      tag_441\n        /* \"CoreContracts/kalyswap-periphery/KalyswapRouter.sol\":8619:8660  KalyswapLibrary.sortTokens(input, output) */\n      jump\t// in\n    tag_533:\n        /* \"CoreContracts/kalyswap-periphery/KalyswapRouter.sol\":8599:8660  (address token0,) = KalyswapLibrary.sortTokens(input, output) */\n      pop\n      swap1\n      pop\n        /* \"CoreContracts/kalyswap-periphery/KalyswapRouter.sol\":8674:8688  uint amountOut */\n      0x00\n        /* \"CoreContracts/kalyswap-periphery/KalyswapRouter.sol\":8691:8698  amounts */\n      dup8\n        /* \"CoreContracts/kalyswap-periphery/KalyswapRouter.sol\":8699:8700  i */\n      dup6\n        /* \"CoreContracts/kalyswap-periphery/KalyswapRouter.sol\":8703:8704  1 */\n      0x01\n        /* \"CoreContracts/kalyswap-periphery/KalyswapRouter.sol\":8699:8704  i + 1 */\n      add\n        /* \"CoreContracts/kalyswap-periphery/KalyswapRouter.sol\":8691:8705  amounts[i + 1] */\n      dup2\n      mload\n      dup2\n      lt\n      tag_534\n      jumpi\n      invalid\n    tag_534:\n      0x20\n      mul\n      0x20\n      add\n      add\n      mload\n        /* \"CoreContracts/kalyswap-periphery/KalyswapRouter.sol\":8674:8705  uint amountOut = amounts[i + 1] */\n      swap1\n      pop\n        /* \"CoreContracts/kalyswap-periphery/KalyswapRouter.sol\":8720:8735  uint amount0Out */\n      0x00\n        /* \"CoreContracts/kalyswap-periphery/KalyswapRouter.sol\":8737:8752  uint amount1Out */\n      dup1\n        /* \"CoreContracts/kalyswap-periphery/KalyswapRouter.sol\":8765:8771  token0 */\n      dup4\n      sub(shl(0xa0, 0x01), 0x01)\n        /* \"CoreContracts/kalyswap-periphery/KalyswapRouter.sol\":8756:8771  input == token0 */\n      and\n        /* \"CoreContracts/kalyswap-periphery/KalyswapRouter.sol\":8756:8761  input */\n      dup7\n      sub(shl(0xa0, 0x01), 0x01)\n        /* \"CoreContracts/kalyswap-periphery/KalyswapRouter.sol\":8756:8771  input == token0 */\n      and\n      eq\n        /* \"CoreContracts/kalyswap-periphery/KalyswapRouter.sol\":8756:8817  input == token0 ? (uint(0), amountOut) : (amountOut, uint(0)) */\n      tag_535\n      jumpi\n        /* \"CoreContracts/kalyswap-periphery/KalyswapRouter.sol\":8798:8807  amountOut */\n      dup3\n        /* \"CoreContracts/kalyswap-periphery/KalyswapRouter.sol\":8814:8815  0 */\n      0x00\n        /* \"CoreContracts/kalyswap-periphery/KalyswapRouter.sol\":8756:8817  input == token0 ? (uint(0), amountOut) : (amountOut, uint(0)) */\n      jump(tag_536)\n    tag_535:\n        /* \"CoreContracts/kalyswap-periphery/KalyswapRouter.sol\":8780:8781  0 */\n      0x00\n        /* \"CoreContracts/kalyswap-periphery/KalyswapRouter.sol\":8784:8793  amountOut */\n      dup4\n        /* \"CoreContracts/kalyswap-periphery/KalyswapRouter.sol\":8756:8817  input == token0 ? (uint(0), amountOut) : (amountOut, uint(0)) */\n    tag_536:\n        /* \"CoreContracts/kalyswap-periphery/KalyswapRouter.sol\":8719:8817  (uint amount0Out, uint amount1Out) = input == token0 ? (uint(0), amountOut) : (amountOut, uint(0)) */\n      swap2\n      pop\n      swap2\n      pop\n        /* \"CoreContracts/kalyswap-periphery/KalyswapRouter.sol\":8831:8841  address to */\n      0x00\n        /* \"CoreContracts/kalyswap-periphery/KalyswapRouter.sol\":8862:8863  2 */\n      0x02\n        /* \"CoreContracts/kalyswap-periphery/KalyswapRouter.sol\":8848:8852  path */\n      dup11\n        /* \"CoreContracts/kalyswap-periphery/KalyswapRouter.sol\":8848:8859  path.length */\n      mload\n        /* \"CoreContracts/kalyswap-periphery/KalyswapRouter.sol\":8848:8863  path.length - 2 */\n      sub\n        /* \"CoreContracts/kalyswap-periphery/KalyswapRouter.sol\":8844:8845  i */\n      dup9\n        /* \"CoreContracts/kalyswap-periphery/KalyswapRouter.sol\":8844:8863  i < path.length - 2 */\n      lt\n        /* \"CoreContracts/kalyswap-periphery/KalyswapRouter.sol\":8844:8925  i < path.length - 2 ? KalyswapLibrary.pairFor(factory, output, path[i + 2]) : _to */\n      tag_537\n      jumpi\n        /* \"CoreContracts/kalyswap-periphery/KalyswapRouter.sol\":8922:8925  _to */\n      dup9\n        /* \"CoreContracts/kalyswap-periphery/KalyswapRouter.sol\":8844:8925  i < path.length - 2 ? KalyswapLibrary.pairFor(factory, output, path[i + 2]) : _to */\n      jump(tag_539)\n    tag_537:\n        /* \"CoreContracts/kalyswap-periphery/KalyswapRouter.sol\":8866:8919  KalyswapLibrary.pairFor(factory, output, path[i + 2]) */\n      tag_539\n        /* \"CoreContracts/kalyswap-periphery/KalyswapRouter.sol\":8890:8897  factory */\n      immutable(\"0x59ec111d9d8ceec2ab223a1d5004f35d19292b31c8f02c623d83a90888216dda\")\n        /* \"CoreContracts/kalyswap-periphery/KalyswapRouter.sol\":8899:8905  output */\n      dup8\n        /* \"CoreContracts/kalyswap-periphery/KalyswapRouter.sol\":8907:8911  path */\n      dup13\n        /* \"CoreContracts/kalyswap-periphery/KalyswapRouter.sol\":8912:8913  i */\n      dup12\n        /* \"CoreContracts/kalyswap-periphery/KalyswapRouter.sol\":8916:8917  2 */\n      0x02\n        /* \"CoreContracts/kalyswap-periphery/KalyswapRouter.sol\":8912:8917  i + 2 */\n      add\n        /* \"CoreContracts/kalyswap-periphery/KalyswapRouter.sol\":8907:8918  path[i + 2] */\n      dup2\n      mload\n      dup2\n      lt\n      tag_540\n      jumpi\n      invalid\n    tag_540:\n      0x20\n      mul\n      0x20\n      add\n      add\n      mload\n        /* \"CoreContracts/kalyswap-periphery/KalyswapRouter.sol\":8866:8889  KalyswapLibrary.pairFor */\n      tag_201\n        /* \"CoreContracts/kalyswap-periphery/KalyswapRouter.sol\":8866:8919  KalyswapLibrary.pairFor(factory, output, path[i + 2]) */\n      jump\t// in\n    tag_539:\n        /* \"CoreContracts/kalyswap-periphery/KalyswapRouter.sol\":8831:8925  address to = i < path.length - 2 ? KalyswapLibrary.pairFor(factory, output, path[i + 2]) : _to */\n      swap1\n      pop\n        /* \"CoreContracts/kalyswap-periphery/KalyswapRouter.sol\":8953:9000  KalyswapLibrary.pairFor(factory, input, output) */\n      tag_541\n        /* \"CoreContracts/kalyswap-periphery/KalyswapRouter.sol\":8977:8984  factory */\n      immutable(\"0x59ec111d9d8ceec2ab223a1d5004f35d19292b31c8f02c623d83a90888216dda\")\n        /* \"CoreContracts/kalyswap-periphery/KalyswapRouter.sol\":8986:8991  input */\n      dup9\n        /* \"CoreContracts/kalyswap-periphery/KalyswapRouter.sol\":8993:8999  output */\n      dup9\n        /* \"CoreContracts/kalyswap-periphery/KalyswapRouter.sol\":8953:8976  KalyswapLibrary.pairFor */\n      tag_201\n        /* \"CoreContracts/kalyswap-periphery/KalyswapRouter.sol\":8953:9000  KalyswapLibrary.pairFor(factory, input, output) */\n      jump\t// in\n    tag_541:\n      sub(shl(0xa0, 0x01), 0x01)\n        /* \"CoreContracts/kalyswap-periphery/KalyswapRouter.sol\":8939:9006  IKalyswapPair(KalyswapLibrary.pairFor(factory, input, output)).swap */\n      and\n      0x022c0d9f\n        /* \"CoreContracts/kalyswap-periphery/KalyswapRouter.sol\":9024:9034  amount0Out */\n      dup5\n        /* \"CoreContracts/kalyswap-periphery/KalyswapRouter.sol\":9036:9046  amount1Out */\n      dup5\n        /* \"CoreContracts/kalyswap-periphery/KalyswapRouter.sol\":9048:9050  to */\n      dup5\n        /* \"CoreContracts/kalyswap-periphery/KalyswapRouter.sol\":9062:9063  0 */\n      0x00\n        /* \"CoreContracts/kalyswap-periphery/KalyswapRouter.sol\":9052:9064  new bytes(0) */\n      mload(0x40)\n      swap1\n      dup1\n      dup3\n      mstore\n      dup1\n      0x1f\n      add\n      not(0x1f)\n      and\n      0x20\n      add\n      dup3\n      add\n      0x40\n      mstore\n      dup1\n      iszero\n      tag_543\n      jumpi\n      0x20\n      dup3\n      add\n        /* \"--CODEGEN--\":21:27   */\n      dup2\n      dup1\n        /* \"--CODEGEN--\":108:122   */\n      calldatasize\n        /* \"CoreContracts/kalyswap-periphery/KalyswapRouter.sol\":9052:9064  new bytes(0) */\n      dup4\n        /* \"--CODEGEN--\":87:129   */\n      calldatacopy\n        /* \"--CODEGEN--\":143:160   */\n      add\n      swap1\n      pop\n        /* \"CoreContracts/kalyswap-periphery/KalyswapRouter.sol\":9052:9064  new bytes(0) */\n    tag_543:\n      pop\n        /* \"CoreContracts/kalyswap-periphery/KalyswapRouter.sol\":8939:9078  IKalyswapPair(KalyswapLibrary.pairFor(factory, input, output)).swap(... */\n      mload(0x40)\n      dup6\n      0xffffffff\n      and\n      0xe0\n      shl\n      dup2\n      mstore\n      0x04\n      add\n      dup1\n      dup6\n      dup2\n      mstore\n      0x20\n      add\n      dup5\n      dup2\n      mstore\n      0x20\n      add\n      dup4\n      sub(shl(0xa0, 0x01), 0x01)\n      and\n      sub(shl(0xa0, 0x01), 0x01)\n      and\n      dup2\n      mstore\n      0x20\n      add\n      dup1\n      0x20\n      add\n      dup3\n      dup2\n      sub\n      dup3\n      mstore\n      dup4\n      dup2\n      dup2\n      mload\n      dup2\n      mstore\n      0x20\n      add\n      swap2\n      pop\n      dup1\n      mload\n      swap1\n      0x20\n      add\n      swap1\n      dup1\n      dup4\n      dup4\n        /* \"--CODEGEN--\":23:24   */\n      0x00\n        /* \"--CODEGEN--\":8:108   */\n    tag_544:\n        /* \"--CODEGEN--\":33:36   */\n      dup4\n        /* \"--CODEGEN--\":30:31   */\n      dup2\n        /* \"--CODEGEN--\":27:37   */\n      lt\n        /* \"--CODEGEN--\":8:108   */\n      iszero\n      tag_546\n      jumpi\n        /* \"--CODEGEN--\":90:101   */\n      dup2\n      dup2\n      add\n        /* \"--CODEGEN--\":84:102   */\n      mload\n        /* \"--CODEGEN--\":71:82   */\n      dup4\n      dup3\n      add\n        /* \"--CODEGEN--\":64:103   */\n      mstore\n        /* \"--CODEGEN--\":52:54   */\n      0x20\n        /* \"--CODEGEN--\":45:55   */\n      add\n        /* \"--CODEGEN--\":8:108   */\n      jump(tag_544)\n    tag_546:\n        /* \"--CODEGEN--\":12:26   */\n      pop\n        /* \"CoreContracts/kalyswap-periphery/KalyswapRouter.sol\":8939:9078  IKalyswapPair(KalyswapLibrary.pairFor(factory, input, output)).swap(... */\n      pop\n      pop\n      pop\n      swap1\n      pop\n      swap1\n      dup2\n      add\n      swap1\n      0x1f\n      and\n      dup1\n      iszero\n      tag_547\n      jumpi\n      dup1\n      dup3\n      sub\n      dup1\n      mload\n      0x01\n      dup4\n      0x20\n      sub\n      0x0100\n      exp\n      sub\n      not\n      and\n      dup2\n      mstore\n      0x20\n      add\n      swap2\n      pop\n    tag_547:\n      pop\n      swap6\n      pop\n      pop\n      pop\n      pop\n      pop\n      pop\n      0x00\n      mload(0x40)\n      dup1\n      dup4\n      sub\n      dup2\n      0x00\n      dup8\n      dup1\n      extcodesize\n      iszero\n        /* \"--CODEGEN--\":5:14   */\n      dup1\n        /* \"--CODEGEN--\":2:4   */\n      iszero\n      tag_548\n      jumpi\n        /* \"--CODEGEN--\":27:28   */\n      0x00\n        /* \"--CODEGEN--\":24:25   */\n      dup1\n        /* \"--CODEGEN--\":17:29   */\n      revert\n        /* \"--CODEGEN--\":2:4   */\n    tag_548:\n        /* \"CoreContracts/kalyswap-periphery/KalyswapRouter.sol\":8939:9078  IKalyswapPair(KalyswapLibrary.pairFor(factory, input, output)).swap(... */\n      pop\n      gas\n      call\n      iszero\n        /* \"--CODEGEN--\":8:17   */\n      dup1\n        /* \"--CODEGEN--\":5:7   */\n      iszero\n      tag_550\n      jumpi\n        /* \"--CODEGEN--\":45:61   */\n      returndatasize\n        /* \"--CODEGEN--\":42:43   */\n      0x00\n        /* \"--CODEGEN--\":39:40   */\n      dup1\n        /* \"--CODEGEN--\":24:62   */\n      returndatacopy\n        /* \"--CODEGEN--\":77:93   */\n      returndatasize\n        /* \"--CODEGEN--\":74:75   */\n      0x00\n        /* \"--CODEGEN--\":67:94   */\n      revert\n        /* \"--CODEGEN--\":5:7   */\n    tag_550:\n      pop\n      pop\n        /* \"CoreContracts/kalyswap-periphery/KalyswapRouter.sol\":8510:8513  i++ */\n      0x01\n      swap1\n      swap10\n      add\n      swap9\n      pop\n        /* \"CoreContracts/kalyswap-periphery/KalyswapRouter.sol\":8476:9089  for (uint i; i < path.length - 1; i++) {... */\n      tag_528\n      swap8\n      pop\n      pop\n      pop\n      pop\n      pop\n      pop\n      pop\n      pop\n      jump\n    tag_529:\n      pop\n        /* \"CoreContracts/kalyswap-periphery/KalyswapRouter.sol\":8375:9095  function _swap(uint[] memory amounts, address[] memory path, address _to) internal virtual {... */\n      pop\n      pop\n      pop\n      jump\t// out\n        /* \"CoreContracts/kalyswap-lib/libraries/TransferHelper.sol\":1446:1643  function safeTransferKLC(address to, uint256 value) internal {... */\n    tag_212:\n        /* \"CoreContracts/kalyswap-lib/libraries/TransferHelper.sol\":1558:1570  new bytes(0) */\n      0x40\n      dup1\n      mload\n        /* \"CoreContracts/kalyswap-lib/libraries/TransferHelper.sol\":1518:1530  bool success */\n      0x00\n        /* \"CoreContracts/kalyswap-lib/libraries/TransferHelper.sol\":1558:1570  new bytes(0) */\n      dup1\n      dup3\n      mstore\n      0x20\n      dup3\n      add\n      swap1\n      swap3\n      mstore\n      sub(shl(0xa0, 0x01), 0x01)\n        /* \"CoreContracts/kalyswap-lib/libraries/TransferHelper.sol\":1536:1543  to.call */\n      dup5\n      and\n      swap1\n        /* \"CoreContracts/kalyswap-lib/libraries/TransferHelper.sol\":1551:1556  value */\n      dup4\n      swap1\n        /* \"CoreContracts/kalyswap-lib/libraries/TransferHelper.sol\":1536:1571  to.call{value: value}(new bytes(0)) */\n      mload(0x40)\n      dup1\n      dup3\n      dup1\n      mload\n      swap1\n      0x20\n      add\n      swap1\n      dup1\n      dup4\n      dup4\n        /* \"--CODEGEN--\":36:189   */\n    tag_554:\n        /* \"--CODEGEN--\":66:68   */\n      0x20\n        /* \"--CODEGEN--\":61:64   */\n      dup4\n        /* \"--CODEGEN--\":58:69   */\n      lt\n        /* \"--CODEGEN--\":36:189   */\n      tag_556\n      jumpi\n        /* \"--CODEGEN--\":176:186   */\n      dup1\n      mload\n        /* \"--CODEGEN--\":164:187   */\n      dup3\n      mstore\n      not(0x1f)\n        /* \"--CODEGEN--\":139:151   */\n      swap1\n      swap3\n      add\n      swap2\n        /* \"--CODEGEN--\":98:100   */\n      0x20\n        /* \"--CODEGEN--\":89:101   */\n      swap2\n      dup3\n      add\n      swap2\n        /* \"--CODEGEN--\":114:126   */\n      add\n        /* \"--CODEGEN--\":36:189   */\n      jump(tag_554)\n    tag_556:\n        /* \"--CODEGEN--\":274:275   */\n      0x01\n        /* \"--CODEGEN--\":267:270   */\n      dup4\n        /* \"--CODEGEN--\":263:265   */\n      0x20\n        /* \"--CODEGEN--\":259:271   */\n      sub\n        /* \"--CODEGEN--\":254:257   */\n      0x0100\n        /* \"--CODEGEN--\":250:272   */\n      exp\n        /* \"--CODEGEN--\":246:276   */\n      sub\n        /* \"--CODEGEN--\":315:319   */\n      dup1\n        /* \"--CODEGEN--\":311:320   */\n      not\n        /* \"--CODEGEN--\":305:308   */\n      dup3\n        /* \"--CODEGEN--\":299:309   */\n      mload\n        /* \"--CODEGEN--\":295:321   */\n      and\n        /* \"--CODEGEN--\":356:360   */\n      dup2\n        /* \"--CODEGEN--\":350:353   */\n      dup5\n        /* \"--CODEGEN--\":344:354   */\n      mload\n        /* \"--CODEGEN--\":340:361   */\n      and\n        /* \"--CODEGEN--\":389:396   */\n      dup1\n        /* \"--CODEGEN--\":380:387   */\n      dup3\n        /* \"--CODEGEN--\":377:397   */\n      or\n        /* \"--CODEGEN--\":372:375   */\n      dup6\n        /* \"--CODEGEN--\":365:398   */\n      mstore\n        /* \"--CODEGEN--\":3:402   */\n      pop\n      pop\n      pop\n        /* \"CoreContracts/kalyswap-lib/libraries/TransferHelper.sol\":1536:1571  to.call{value: value}(new bytes(0)) */\n      pop\n      pop\n      pop\n      swap1\n      pop\n      add\n      swap2\n      pop\n      pop\n      0x00\n      mload(0x40)\n      dup1\n      dup4\n      sub\n      dup2\n      dup6\n      dup8\n      gas\n      call\n      swap3\n      pop\n      pop\n      pop\n      returndatasize\n        /* \"--CODEGEN--\":12:13   */\n      dup1\n        /* \"--CODEGEN--\":19:20   */\n      0x00\n        /* \"--CODEGEN--\":14:41   */\n      dup2\n      eq\n      tag_559\n      jumpi\n        /* \"--CODEGEN--\":67:71   */\n      0x40\n        /* \"--CODEGEN--\":61:72   */\n      mload\n        /* \"--CODEGEN--\":56:72   */\n      swap2\n      pop\n        /* \"--CODEGEN--\":134:138   */\n      0x1f\n        /* \"--CODEGEN--\":130:139   */\n      not\n        /* \"--CODEGEN--\":123:127   */\n      0x3f\n        /* \"--CODEGEN--\":105:121   */\n      returndatasize\n        /* \"--CODEGEN--\":101:128   */\n      add\n        /* \"--CODEGEN--\":97:140   */\n      and\n        /* \"--CODEGEN--\":94:95   */\n      dup3\n        /* \"--CODEGEN--\":90:141   */\n      add\n        /* \"--CODEGEN--\":84:88   */\n      0x40\n        /* \"--CODEGEN--\":77:142   */\n      mstore\n        /* \"--CODEGEN--\":157:173   */\n      returndatasize\n        /* \"--CODEGEN--\":154:155   */\n      dup3\n        /* \"--CODEGEN--\":147:174   */\n      mstore\n        /* \"--CODEGEN--\":211:227   */\n      returndatasize\n        /* \"--CODEGEN--\":208:209   */\n      0x00\n        /* \"--CODEGEN--\":201:205   */\n      0x20\n        /* \"--CODEGEN--\":198:199   */\n      dup5\n        /* \"--CODEGEN--\":194:206   */\n      add\n        /* \"--CODEGEN--\":179:228   */\n      returndatacopy\n        /* \"--CODEGEN--\":5:233   */\n      jump(tag_558)\n        /* \"--CODEGEN--\":14:41   */\n    tag_559:\n        /* \"--CODEGEN--\":32:36   */\n      0x60\n        /* \"--CODEGEN--\":27:36   */\n      swap2\n      pop\n        /* \"--CODEGEN--\":5:233   */\n    tag_558:\n      pop\n        /* \"CoreContracts/kalyswap-lib/libraries/TransferHelper.sol\":1517:1571  (bool success, ) = to.call{value: value}(new bytes(0)) */\n      pop\n      swap1\n      pop\n        /* \"CoreContracts/kalyswap-lib/libraries/TransferHelper.sol\":1589:1596  success */\n      dup1\n        /* \"CoreContracts/kalyswap-lib/libraries/TransferHelper.sol\":1581:1636  require(success, 'TransferHelper: KLC_TRANSFER_FAILED') */\n      tag_560\n      jumpi\n      mload(0x40)\n      shl(0xe5, 0x461bcd)\n      dup2\n      mstore\n      0x04\n      add\n      dup1\n      dup1\n      0x20\n      add\n      dup3\n      dup2\n      sub\n      dup3\n      mstore\n      0x23\n      dup2\n      mstore\n      0x20\n      add\n      dup1\n      data_89fe9709b41c53d59ac0f653a160c86498d9f7113bebc11c040f6d84fe442ee6\n      0x23\n      swap2\n      codecopy\n      0x40\n      add\n      swap2\n      pop\n      pop\n      mload(0x40)\n      dup1\n      swap2\n      sub\n      swap1\n      revert\n    tag_560:\n        /* \"CoreContracts/kalyswap-lib/libraries/TransferHelper.sol\":1446:1643  function safeTransferKLC(address to, uint256 value) internal {... */\n      pop\n      pop\n      pop\n      jump\t// out\n        /* \"CoreContracts/kalyswap-lib/libraries/TransferHelper.sol\":605:995  function safeTransfer(... */\n    tag_230:\n        /* \"CoreContracts/kalyswap-lib/libraries/TransferHelper.sol\":831:876  abi.encodeWithSelector(0xa9059cbb, to, value) */\n      0x40\n      dup1\n      mload\n      sub(shl(0xa0, 0x01), 0x01)\n      dup5\n      dup2\n      and\n      0x24\n      dup4\n      add\n      mstore\n      0x44\n      dup1\n      dup4\n      add\n      dup6\n      swap1\n      mstore\n      dup4\n      mload\n        /* \"--CODEGEN--\":26:47   */\n      dup1\n      dup5\n      sub\n        /* \"--CODEGEN--\":22:54   */\n      swap1\n      swap2\n      add\n        /* \"--CODEGEN--\":6:55   */\n      dup2\n      mstore\n        /* \"CoreContracts/kalyswap-lib/libraries/TransferHelper.sol\":831:876  abi.encodeWithSelector(0xa9059cbb, to, value) */\n      0x64\n      swap1\n      swap3\n      add\n      dup4\n      mstore\n      0x20\n        /* \"--CODEGEN--\":25:43   */\n      dup3\n      add\n        /* \"--CODEGEN--\":61:78   */\n      dup1\n      mload\n        /* \"--CODEGEN--\":96:154   */\n      0xffffffffffffffffffffffffffffffffffffffffffffffffffffffff\n        /* \"--CODEGEN--\":182:197   */\n      and\n        /* \"CoreContracts/kalyswap-lib/libraries/TransferHelper.sol\":831:876  abi.encodeWithSelector(0xa9059cbb, to, value) */\n      0xa9059cbb00000000000000000000000000000000000000000000000000000000\n        /* \"--CODEGEN--\":179:208   */\n      or\n        /* \"--CODEGEN--\":160:209   */\n      dup2\n      mstore\n        /* \"CoreContracts/kalyswap-lib/libraries/TransferHelper.sol\":820:877  token.call(abi.encodeWithSelector(0xa9059cbb, to, value)) */\n      swap3\n      mload\n      dup3\n      mload\n        /* \"CoreContracts/kalyswap-lib/libraries/TransferHelper.sol\":785:797  bool success */\n      0x00\n      swap5\n        /* \"CoreContracts/kalyswap-lib/libraries/TransferHelper.sol\":799:816  bytes memory data */\n      0x60\n      swap5\n        /* \"CoreContracts/kalyswap-lib/libraries/TransferHelper.sol\":820:830  token.call */\n      swap4\n      dup10\n      and\n      swap4\n        /* \"CoreContracts/kalyswap-lib/libraries/TransferHelper.sol\":831:876  abi.encodeWithSelector(0xa9059cbb, to, value) */\n      swap3\n        /* \"CoreContracts/kalyswap-lib/libraries/TransferHelper.sol\":820:877  token.call(abi.encodeWithSelector(0xa9059cbb, to, value)) */\n      swap2\n      dup3\n      swap2\n        /* \"--CODEGEN--\":25:43   */\n      swap1\n        /* \"CoreContracts/kalyswap-lib/libraries/TransferHelper.sol\":820:877  token.call(abi.encodeWithSelector(0xa9059cbb, to, value)) */\n      dup1\n      dup4\n        /* \"--CODEGEN--\":25:43   */\n      dup4\n        /* \"--CODEGEN--\":36:189   */\n    tag_562:\n        /* \"--CODEGEN--\":66:68   */\n      0x20\n        /* \"--CODEGEN--\":61:64   */\n      dup4\n        /* \"--CODEGEN--\":58:69   */\n      lt\n        /* \"--CODEGEN--\":36:189   */\n      tag_564\n      jumpi\n        /* \"--CODEGEN--\":176:186   */\n      dup1\n      mload\n        /* \"--CODEGEN--\":164:187   */\n      dup3\n      mstore\n      not(0x1f)\n        /* \"--CODEGEN--\":139:151   */\n      swap1\n      swap3\n      add\n      swap2\n        /* \"--CODEGEN--\":98:100   */\n      0x20\n        /* \"--CODEGEN--\":89:101   */\n      swap2\n      dup3\n      add\n      swap2\n        /* \"--CODEGEN--\":114:126   */\n      add\n        /* \"--CODEGEN--\":36:189   */\n      jump(tag_562)\n    tag_564:\n        /* \"--CODEGEN--\":274:275   */\n      0x01\n        /* \"--CODEGEN--\":267:270   */\n      dup4\n        /* \"--CODEGEN--\":263:265   */\n      0x20\n        /* \"--CODEGEN--\":259:271   */\n      sub\n        /* \"--CODEGEN--\":254:257   */\n      0x0100\n        /* \"--CODEGEN--\":250:272   */\n      exp\n        /* \"--CODEGEN--\":246:276   */\n      sub\n        /* \"--CODEGEN--\":315:319   */\n      dup1\n        /* \"--CODEGEN--\":311:320   */\n      not\n        /* \"--CODEGEN--\":305:308   */\n      dup3\n        /* \"--CODEGEN--\":299:309   */\n      mload\n        /* \"--CODEGEN--\":295:321   */\n      and\n        /* \"--CODEGEN--\":356:360   */\n      dup2\n        /* \"--CODEGEN--\":350:353   */\n      dup5\n        /* \"--CODEGEN--\":344:354   */\n      mload\n        /* \"--CODEGEN--\":340:361   */\n      and\n        /* \"--CODEGEN--\":389:396   */\n      dup1\n        /* \"--CODEGEN--\":380:387   */\n      dup3\n        /* \"--CODEGEN--\":377:397   */\n      or\n        /* \"--CODEGEN--\":372:375   */\n      dup6\n        /* \"--CODEGEN--\":365:398   */\n      mstore\n        /* \"--CODEGEN--\":3:402   */\n      pop\n      pop\n      pop\n        /* \"CoreContracts/kalyswap-lib/libraries/TransferHelper.sol\":820:877  token.call(abi.encodeWithSelector(0xa9059cbb, to, value)) */\n      pop\n      pop\n      pop\n      swap1\n      pop\n      add\n      swap2\n      pop\n      pop\n      0x00\n      mload(0x40)\n      dup1\n      dup4\n      sub\n      dup2\n      0x00\n      dup7\n      gas\n      call\n      swap2\n      pop\n      pop\n      returndatasize\n        /* \"--CODEGEN--\":12:13   */\n      dup1\n        /* \"--CODEGEN--\":19:20   */\n      0x00\n        /* \"--CODEGEN--\":14:41   */\n      dup2\n      eq\n      tag_567\n      jumpi\n        /* \"--CODEGEN--\":67:71   */\n      0x40\n        /* \"--CODEGEN--\":61:72   */\n      mload\n        /* \"--CODEGEN--\":56:72   */\n      swap2\n      pop\n        /* \"--CODEGEN--\":134:138   */\n      0x1f\n        /* \"--CODEGEN--\":130:139   */\n      not\n        /* \"--CODEGEN--\":123:127   */\n      0x3f\n        /* \"--CODEGEN--\":105:121   */\n      returndatasize\n        /* \"--CODEGEN--\":101:128   */\n      add\n        /* \"--CODEGEN--\":97:140   */\n      and\n        /* \"--CODEGEN--\":94:95   */\n      dup3\n        /* \"--CODEGEN--\":90:141   */\n      add\n        /* \"--CODEGEN--\":84:88   */\n      0x40\n        /* \"--CODEGEN--\":77:142   */\n      mstore\n        /* \"--CODEGEN--\":157:173   */\n      returndatasize\n        /* \"--CODEGEN--\":154:155   */\n      dup3\n        /* \"--CODEGEN--\":147:174   */\n      mstore\n        /* \"--CODEGEN--\":211:227   */\n      returndatasize\n        /* \"--CODEGEN--\":208:209   */\n      0x00\n        /* \"--CODEGEN--\":201:205   */\n      0x20\n        /* \"--CODEGEN--\":198:199   */\n      dup5\n        /* \"--CODEGEN--\":194:206   */\n      add\n        /* \"--CODEGEN--\":179:228   */\n      returndatacopy\n        /* \"--CODEGEN--\":5:233   */\n      jump(tag_566)\n        /* \"--CODEGEN--\":14:41   */\n    tag_567:\n        /* \"--CODEGEN--\":32:36   */\n      0x60\n        /* \"--CODEGEN--\":27:36   */\n      swap2\n      pop\n        /* \"--CODEGEN--\":5:233   */\n    tag_566:\n      pop\n        /* \"CoreContracts/kalyswap-lib/libraries/TransferHelper.sol\":784:877  (bool success, bytes memory data) = token.call(abi.encodeWithSelector(0xa9059cbb, to, value)) */\n      swap2\n      pop\n      swap2\n      pop\n        /* \"CoreContracts/kalyswap-lib/libraries/TransferHelper.sol\":895:902  success */\n      dup2\n        /* \"CoreContracts/kalyswap-lib/libraries/TransferHelper.sol\":895:952  success && (data.length == 0 || abi.decode(data, (bool))) */\n      dup1\n      iszero\n      tag_569\n      jumpi\n      pop\n        /* \"CoreContracts/kalyswap-lib/libraries/TransferHelper.sol\":907:918  data.length */\n      dup1\n      mload\n        /* \"CoreContracts/kalyswap-lib/libraries/TransferHelper.sol\":907:923  data.length == 0 */\n      iszero\n      dup1\n        /* \"CoreContracts/kalyswap-lib/libraries/TransferHelper.sol\":907:951  data.length == 0 || abi.decode(data, (bool)) */\n      tag_569\n      jumpi\n      pop\n        /* \"CoreContracts/kalyswap-lib/libraries/TransferHelper.sol\":938:942  data */\n      dup1\n        /* \"CoreContracts/kalyswap-lib/libraries/TransferHelper.sol\":927:951  abi.decode(data, (bool)) */\n      dup1\n      0x20\n      add\n      swap1\n      mload\n        /* \"--CODEGEN--\":15:17   */\n      0x20\n        /* \"--CODEGEN--\":10:13   */\n      dup2\n        /* \"--CODEGEN--\":7:18   */\n      lt\n        /* \"--CODEGEN--\":4:6   */\n      iszero\n      tag_570\n      jumpi\n        /* \"--CODEGEN--\":31:32   */\n      0x00\n        /* \"--CODEGEN--\":28:29   */\n      dup1\n        /* \"--CODEGEN--\":21:33   */\n      revert\n        /* \"--CODEGEN--\":4:6   */\n    tag_570:\n      pop\n        /* \"CoreContracts/kalyswap-lib/libraries/TransferHelper.sol\":927:951  abi.decode(data, (bool)) */\n      mload\n        /* \"CoreContracts/kalyswap-lib/libraries/TransferHelper.sol\":907:951  data.length == 0 || abi.decode(data, (bool)) */\n    tag_569:\n        /* \"CoreContracts/kalyswap-lib/libraries/TransferHelper.sol\":887:988  require(success && (data.length == 0 || abi.decode(data, (bool))), 'TransferHelper: TRANSFER_FAILED') */\n      tag_571\n      jumpi\n      0x40\n      dup1\n      mload\n      shl(0xe5, 0x461bcd)\n      dup2\n      mstore\n      0x20\n      0x04\n      dup3\n      add\n      mstore\n      0x1f\n      0x24\n      dup3\n      add\n      mstore\n      0x5472616e7366657248656c7065723a205452414e534645525f4641494c454400\n      0x44\n      dup3\n      add\n      mstore\n      swap1\n      mload\n      swap1\n      dup2\n      swap1\n      sub\n      0x64\n      add\n      swap1\n      revert\n    tag_571:\n        /* \"CoreContracts/kalyswap-lib/libraries/TransferHelper.sol\":605:995  function safeTransfer(... */\n      pop\n      pop\n      pop\n      pop\n      pop\n      jump\t// out\n        /* \"CoreContracts/kalyswap-periphery/libraries/KalyswapLibrary.sol\":3390:3892  function getAmountsOut(address factory, uint amountIn, address[] memory path) internal view returns (uint[] memory amounts) {... */\n    tag_249:\n        /* \"CoreContracts/kalyswap-periphery/libraries/KalyswapLibrary.sol\":3491:3512  uint[] memory amounts */\n      0x60\n        /* \"CoreContracts/kalyswap-periphery/libraries/KalyswapLibrary.sol\":3547:3548  2 */\n      0x02\n        /* \"CoreContracts/kalyswap-periphery/libraries/KalyswapLibrary.sol\":3532:3536  path */\n      dup3\n        /* \"CoreContracts/kalyswap-periphery/libraries/KalyswapLibrary.sol\":3532:3543  path.length */\n      mload\n        /* \"CoreContracts/kalyswap-periphery/libraries/KalyswapLibrary.sol\":3532:3548  path.length >= 2 */\n      lt\n      iszero\n        /* \"CoreContracts/kalyswap-periphery/libraries/KalyswapLibrary.sol\":3524:3582  require(path.length >= 2, 'KalyswapLibrary: INVALID_PATH') */\n      tag_573\n      jumpi\n      0x40\n      dup1\n      mload\n      shl(0xe5, 0x461bcd)\n      dup2\n      mstore\n      0x20\n      0x04\n      dup3\n      add\n      mstore\n      0x1d\n      0x24\n      dup3\n      add\n      mstore\n      0x4b616c79737761704c6962726172793a20494e56414c49445f50415448000000\n      0x44\n      dup3\n      add\n      mstore\n      swap1\n      mload\n      swap1\n      dup2\n      swap1\n      sub\n      0x64\n      add\n      swap1\n      revert\n    tag_573:\n        /* \"CoreContracts/kalyswap-periphery/libraries/KalyswapLibrary.sol\":3613:3617  path */\n      dup2\n        /* \"CoreContracts/kalyswap-periphery/libraries/KalyswapLibrary.sol\":3613:3624  path.length */\n      mload\n        /* \"CoreContracts/kalyswap-periphery/libraries/KalyswapLibrary.sol\":3602:3625  new uint[](path.length) */\n      0xffffffffffffffff\n      dup2\n      gt\n        /* \"--CODEGEN--\":5:14   */\n      dup1\n        /* \"--CODEGEN--\":2:4   */\n      iszero\n      tag_574\n      jumpi\n        /* \"--CODEGEN--\":27:28   */\n      0x00\n        /* \"--CODEGEN--\":24:25   */\n      dup1\n        /* \"--CODEGEN--\":17:29   */\n      revert\n        /* \"--CODEGEN--\":2:4   */\n    tag_574:\n        /* \"CoreContracts/kalyswap-periphery/libraries/KalyswapLibrary.sol\":3602:3625  new uint[](path.length) */\n      pop\n      mload(0x40)\n      swap1\n      dup1\n      dup3\n      mstore\n      dup1\n      0x20\n      mul\n      0x20\n      add\n      dup3\n      add\n      0x40\n      mstore\n      dup1\n      iszero\n      tag_575\n      jumpi\n      dup2\n      0x20\n      add\n        /* \"--CODEGEN--\":29:31   */\n      0x20\n        /* \"--CODEGEN--\":21:27   */\n      dup3\n        /* \"--CODEGEN--\":17:32   */\n      mul\n        /* \"--CODEGEN--\":125:129   */\n      dup1\n        /* \"--CODEGEN--\":109:123   */\n      calldatasize\n        /* \"--CODEGEN--\":101:107   */\n      dup4\n        /* \"--CODEGEN--\":88:130   */\n      calldatacopy\n        /* \"--CODEGEN--\":144:161   */\n      add\n      swap1\n      pop\n        /* \"CoreContracts/kalyswap-periphery/libraries/KalyswapLibrary.sol\":3602:3625  new uint[](path.length) */\n    tag_575:\n      pop\n        /* \"CoreContracts/kalyswap-periphery/libraries/KalyswapLibrary.sol\":3592:3625  amounts = new uint[](path.length) */\n      swap1\n      pop\n        /* \"CoreContracts/kalyswap-periphery/libraries/KalyswapLibrary.sol\":3648:3656  amountIn */\n      dup3\n        /* \"CoreContracts/kalyswap-periphery/libraries/KalyswapLibrary.sol\":3635:3642  amounts */\n      dup2\n        /* \"CoreContracts/kalyswap-periphery/libraries/KalyswapLibrary.sol\":3643:3644  0 */\n      0x00\n        /* \"CoreContracts/kalyswap-periphery/libraries/KalyswapLibrary.sol\":3635:3645  amounts[0] */\n      dup2\n      mload\n      dup2\n      lt\n      tag_576\n      jumpi\n      invalid\n    tag_576:\n      0x20\n      mul\n      0x20\n      add\n      add\n        /* \"CoreContracts/kalyswap-periphery/libraries/KalyswapLibrary.sol\":3635:3656  amounts[0] = amountIn */\n      dup2\n      dup2\n      mstore\n      pop\n      pop\n        /* \"CoreContracts/kalyswap-periphery/libraries/KalyswapLibrary.sol\":3671:3677  uint i */\n      0x00\n        /* \"CoreContracts/kalyswap-periphery/libraries/KalyswapLibrary.sol\":3666:3886  for (uint i; i < path.length - 1; i++) {... */\n    tag_577:\n        /* \"CoreContracts/kalyswap-periphery/libraries/KalyswapLibrary.sol\":3697:3698  1 */\n      0x01\n        /* \"CoreContracts/kalyswap-periphery/libraries/KalyswapLibrary.sol\":3683:3687  path */\n      dup4\n        /* \"CoreContracts/kalyswap-periphery/libraries/KalyswapLibrary.sol\":3683:3694  path.length */\n      mload\n        /* \"CoreContracts/kalyswap-periphery/libraries/KalyswapLibrary.sol\":3683:3698  path.length - 1 */\n      sub\n        /* \"CoreContracts/kalyswap-periphery/libraries/KalyswapLibrary.sol\":3679:3680  i */\n      dup2\n        /* \"CoreContracts/kalyswap-periphery/libraries/KalyswapLibrary.sol\":3679:3698  i < path.length - 1 */\n      lt\n        /* \"CoreContracts/kalyswap-periphery/libraries/KalyswapLibrary.sol\":3666:3886  for (uint i; i < path.length - 1; i++) {... */\n      iszero\n      tag_505\n      jumpi\n        /* \"CoreContracts/kalyswap-periphery/libraries/KalyswapLibrary.sol\":3720:3734  uint reserveIn */\n      0x00\n        /* \"CoreContracts/kalyswap-periphery/libraries/KalyswapLibrary.sol\":3736:3751  uint reserveOut */\n      dup1\n        /* \"CoreContracts/kalyswap-periphery/libraries/KalyswapLibrary.sol\":3755:3797  getReserves(factory, path[i], path[i + 1]) */\n      tag_580\n        /* \"CoreContracts/kalyswap-periphery/libraries/KalyswapLibrary.sol\":3767:3774  factory */\n      dup8\n        /* \"CoreContracts/kalyswap-periphery/libraries/KalyswapLibrary.sol\":3776:3780  path */\n      dup7\n        /* \"CoreContracts/kalyswap-periphery/libraries/KalyswapLibrary.sol\":3781:3782  i */\n      dup6\n        /* \"CoreContracts/kalyswap-periphery/libraries/KalyswapLibrary.sol\":3776:3783  path[i] */\n      dup2\n      mload\n      dup2\n      lt\n      tag_581\n      jumpi\n      invalid\n    tag_581:\n      0x20\n      mul\n      0x20\n      add\n      add\n      mload\n        /* \"CoreContracts/kalyswap-periphery/libraries/KalyswapLibrary.sol\":3785:3789  path */\n      dup8\n        /* \"CoreContracts/kalyswap-periphery/libraries/KalyswapLibrary.sol\":3790:3791  i */\n      dup7\n        /* \"CoreContracts/kalyswap-periphery/libraries/KalyswapLibrary.sol\":3794:3795  1 */\n      0x01\n        /* \"CoreContracts/kalyswap-periphery/libraries/KalyswapLibrary.sol\":3790:3795  i + 1 */\n      add\n        /* \"CoreContracts/kalyswap-periphery/libraries/KalyswapLibrary.sol\":3785:3796  path[i + 1] */\n      dup2\n      mload\n      dup2\n      lt\n      tag_509\n      jumpi\n      invalid\n        /* \"CoreContracts/kalyswap-periphery/libraries/KalyswapLibrary.sol\":3755:3797  getReserves(factory, path[i], path[i + 1]) */\n    tag_580:\n        /* \"CoreContracts/kalyswap-periphery/libraries/KalyswapLibrary.sol\":3719:3797  (uint reserveIn, uint reserveOut) = getReserves(factory, path[i], path[i + 1]) */\n      swap2\n      pop\n      swap2\n      pop\n        /* \"CoreContracts/kalyswap-periphery/libraries/KalyswapLibrary.sol\":3828:3875  getAmountOut(amounts[i], reserveIn, reserveOut) */\n      tag_583\n        /* \"CoreContracts/kalyswap-periphery/libraries/KalyswapLibrary.sol\":3841:3848  amounts */\n      dup5\n        /* \"CoreContracts/kalyswap-periphery/libraries/KalyswapLibrary.sol\":3849:3850  i */\n      dup5\n        /* \"CoreContracts/kalyswap-periphery/libraries/KalyswapLibrary.sol\":3841:3851  amounts[i] */\n      dup2\n      mload\n      dup2\n      lt\n      tag_584\n      jumpi\n      invalid\n    tag_584:\n      0x20\n      mul\n      0x20\n      add\n      add\n      mload\n        /* \"CoreContracts/kalyswap-periphery/libraries/KalyswapLibrary.sol\":3853:3862  reserveIn */\n      dup4\n        /* \"CoreContracts/kalyswap-periphery/libraries/KalyswapLibrary.sol\":3864:3874  reserveOut */\n      dup4\n        /* \"CoreContracts/kalyswap-periphery/libraries/KalyswapLibrary.sol\":3828:3840  getAmountOut */\n      tag_186\n        /* \"CoreContracts/kalyswap-periphery/libraries/KalyswapLibrary.sol\":3828:3875  getAmountOut(amounts[i], reserveIn, reserveOut) */\n      jump\t// in\n    tag_583:\n        /* \"CoreContracts/kalyswap-periphery/libraries/KalyswapLibrary.sol\":3811:3818  amounts */\n      dup5\n        /* \"CoreContracts/kalyswap-periphery/libraries/KalyswapLibrary.sol\":3819:3820  i */\n      dup5\n        /* \"CoreContracts/kalyswap-periphery/libraries/KalyswapLibrary.sol\":3823:3824  1 */\n      0x01\n        /* \"CoreContracts/kalyswap-periphery/libraries/KalyswapLibrary.sol\":3819:3824  i + 1 */\n      add\n        /* \"CoreContracts/kalyswap-periphery/libraries/KalyswapLibrary.sol\":3811:3825  amounts[i + 1] */\n      dup2\n      mload\n      dup2\n      lt\n      tag_585\n      jumpi\n      invalid\n    tag_585:\n      0x20\n      swap1\n      dup2\n      mul\n      swap2\n      swap1\n      swap2\n      add\n      add\n        /* \"CoreContracts/kalyswap-periphery/libraries/KalyswapLibrary.sol\":3811:3875  amounts[i + 1] = getAmountOut(amounts[i], reserveIn, reserveOut) */\n      mstore\n      pop\n      pop\n        /* \"CoreContracts/kalyswap-periphery/libraries/KalyswapLibrary.sol\":3700:3703  i++ */\n      0x01\n      add\n        /* \"CoreContracts/kalyswap-periphery/libraries/KalyswapLibrary.sol\":3666:3886  for (uint i; i < path.length - 1; i++) {... */\n      jump(tag_577)\n        /* \"CoreContracts/kalyswap-periphery/KalyswapRouter.sol\":13577:14768  function _swapSupportingFeeOnTransferTokens(address[] memory path, address _to) internal virtual {... */\n    tag_273:\n        /* \"CoreContracts/kalyswap-periphery/KalyswapRouter.sol\":13689:13695  uint i */\n      0x00\n        /* \"CoreContracts/kalyswap-periphery/KalyswapRouter.sol\":13684:14762  for (uint i; i < path.length - 1; i++) {... */\n    tag_587:\n        /* \"CoreContracts/kalyswap-periphery/KalyswapRouter.sol\":13715:13716  1 */\n      0x01\n        /* \"CoreContracts/kalyswap-periphery/KalyswapRouter.sol\":13701:13705  path */\n      dup4\n        /* \"CoreContracts/kalyswap-periphery/KalyswapRouter.sol\":13701:13712  path.length */\n      mload\n        /* \"CoreContracts/kalyswap-periphery/KalyswapRouter.sol\":13701:13716  path.length - 1 */\n      sub\n        /* \"CoreContracts/kalyswap-periphery/KalyswapRouter.sol\":13697:13698  i */\n      dup2\n        /* \"CoreContracts/kalyswap-periphery/KalyswapRouter.sol\":13697:13716  i < path.length - 1 */\n      lt\n        /* \"CoreContracts/kalyswap-periphery/KalyswapRouter.sol\":13684:14762  for (uint i; i < path.length - 1; i++) {... */\n      iszero\n      tag_560\n      jumpi\n        /* \"CoreContracts/kalyswap-periphery/KalyswapRouter.sol\":13738:13751  address input */\n      0x00\n        /* \"CoreContracts/kalyswap-periphery/KalyswapRouter.sol\":13753:13767  address output */\n      dup1\n        /* \"CoreContracts/kalyswap-periphery/KalyswapRouter.sol\":13772:13776  path */\n      dup5\n        /* \"CoreContracts/kalyswap-periphery/KalyswapRouter.sol\":13777:13778  i */\n      dup4\n        /* \"CoreContracts/kalyswap-periphery/KalyswapRouter.sol\":13772:13779  path[i] */\n      dup2\n      mload\n      dup2\n      lt\n      tag_590\n      jumpi\n      invalid\n    tag_590:\n      0x20\n      mul\n      0x20\n      add\n      add\n      mload\n        /* \"CoreContracts/kalyswap-periphery/KalyswapRouter.sol\":13781:13785  path */\n      dup6\n        /* \"CoreContracts/kalyswap-periphery/KalyswapRouter.sol\":13786:13787  i */\n      dup5\n        /* \"CoreContracts/kalyswap-periphery/KalyswapRouter.sol\":13790:13791  1 */\n      0x01\n        /* \"CoreContracts/kalyswap-periphery/KalyswapRouter.sol\":13786:13791  i + 1 */\n      add\n        /* \"CoreContracts/kalyswap-periphery/KalyswapRouter.sol\":13781:13792  path[i + 1] */\n      dup2\n      mload\n      dup2\n      lt\n      tag_591\n      jumpi\n      invalid\n    tag_591:\n      0x20\n      mul\n      0x20\n      add\n      add\n      mload\n        /* \"CoreContracts/kalyswap-periphery/KalyswapRouter.sol\":13737:13793  (address input, address output) = (path[i], path[i + 1]) */\n      swap2\n      pop\n      swap2\n      pop\n        /* \"CoreContracts/kalyswap-periphery/KalyswapRouter.sol\":13808:13822  address token0 */\n      0x00\n        /* \"CoreContracts/kalyswap-periphery/KalyswapRouter.sol\":13827:13868  KalyswapLibrary.sortTokens(input, output) */\n      tag_592\n        /* \"CoreContracts/kalyswap-periphery/KalyswapRouter.sol\":13854:13859  input */\n      dup4\n        /* \"CoreContracts/kalyswap-periphery/KalyswapRouter.sol\":13861:13867  output */\n      dup4\n        /* \"CoreContracts/kalyswap-periphery/KalyswapRouter.sol\":13827:13853  KalyswapLibrary.sortTokens */\n      tag_441\n        /* \"CoreContracts/kalyswap-periphery/KalyswapRouter.sol\":13827:13868  KalyswapLibrary.sortTokens(input, output) */\n      jump\t// in\n    tag_592:\n        /* \"CoreContracts/kalyswap-periphery/KalyswapRouter.sol\":13807:13868  (address token0,) = KalyswapLibrary.sortTokens(input, output) */\n      pop\n      swap1\n      pop\n        /* \"CoreContracts/kalyswap-periphery/KalyswapRouter.sol\":13882:13900  IKalyswapPair pair */\n      0x00\n        /* \"CoreContracts/kalyswap-periphery/KalyswapRouter.sol\":13917:13964  KalyswapLibrary.pairFor(factory, input, output) */\n      tag_593\n        /* \"CoreContracts/kalyswap-periphery/KalyswapRouter.sol\":13941:13948  factory */\n      immutable(\"0x59ec111d9d8ceec2ab223a1d5004f35d19292b31c8f02c623d83a90888216dda\")\n        /* \"CoreContracts/kalyswap-periphery/KalyswapRouter.sol\":13950:13955  input */\n      dup6\n        /* \"CoreContracts/kalyswap-periphery/KalyswapRouter.sol\":13957:13963  output */\n      dup6\n        /* \"CoreContracts/kalyswap-periphery/KalyswapRouter.sol\":13917:13940  KalyswapLibrary.pairFor */\n      tag_201\n        /* \"CoreContracts/kalyswap-periphery/KalyswapRouter.sol\":13917:13964  KalyswapLibrary.pairFor(factory, input, output) */\n      jump\t// in\n    tag_593:\n        /* \"CoreContracts/kalyswap-periphery/KalyswapRouter.sol\":13882:13965  IKalyswapPair pair = IKalyswapPair(KalyswapLibrary.pairFor(factory, input, output)) */\n      swap1\n      pop\n        /* \"CoreContracts/kalyswap-periphery/KalyswapRouter.sol\":13979:13995  uint amountInput */\n      0x00\n        /* \"CoreContracts/kalyswap-periphery/KalyswapRouter.sol\":14009:14026  uint amountOutput */\n      dup1\n        /* \"CoreContracts/kalyswap-periphery/KalyswapRouter.sol\":14095:14108  uint reserve0 */\n      0x00\n        /* \"CoreContracts/kalyswap-periphery/KalyswapRouter.sol\":14110:14123  uint reserve1 */\n      dup1\n        /* \"CoreContracts/kalyswap-periphery/KalyswapRouter.sol\":14128:14132  pair */\n      dup5\n      sub(shl(0xa0, 0x01), 0x01)\n        /* \"CoreContracts/kalyswap-periphery/KalyswapRouter.sol\":14128:14144  pair.getReserves */\n      and\n      0x0902f1ac\n        /* \"CoreContracts/kalyswap-periphery/KalyswapRouter.sol\":14128:14146  pair.getReserves() */\n      mload(0x40)\n      dup2\n      0xffffffff\n      and\n      0xe0\n      shl\n      dup2\n      mstore\n      0x04\n      add\n      0x60\n      mload(0x40)\n      dup1\n      dup4\n      sub\n      dup2\n      dup7\n      dup1\n      extcodesize\n      iszero\n        /* \"--CODEGEN--\":5:14   */\n      dup1\n        /* \"--CODEGEN--\":2:4   */\n      iszero\n      tag_594\n      jumpi\n        /* \"--CODEGEN--\":27:28   */\n      0x00\n        /* \"--CODEGEN--\":24:25   */\n      dup1\n        /* \"--CODEGEN--\":17:29   */\n      revert\n        /* \"--CODEGEN--\":2:4   */\n    tag_594:\n        /* \"CoreContracts/kalyswap-periphery/KalyswapRouter.sol\":14128:14146  pair.getReserves() */\n      pop\n      gas\n      staticcall\n      iszero\n        /* \"--CODEGEN--\":8:17   */\n      dup1\n        /* \"--CODEGEN--\":5:7   */\n      iszero\n      tag_596\n      jumpi\n        /* \"--CODEGEN--\":45:61   */\n      returndatasize\n        /* \"--CODEGEN--\":42:43   */\n      0x00\n        /* \"--CODEGEN--\":39:40   */\n      dup1\n        /* \"--CODEGEN--\":24:62   */\n      returndatacopy\n        /* \"--CODEGEN--\":77:93   */\n      returndatasize\n        /* \"--CODEGEN--\":74:75   */\n      0x00\n        /* \"--CODEGEN--\":67:94   */\n      revert\n        /* \"--CODEGEN--\":5:7   */\n    tag_596:\n        /* \"CoreContracts/kalyswap-periphery/KalyswapRouter.sol\":14128:14146  pair.getReserves() */\n      pop\n      pop\n      pop\n      pop\n      mload(0x40)\n      returndatasize\n        /* \"--CODEGEN--\":15:17   */\n      0x60\n        /* \"--CODEGEN--\":10:13   */\n      dup2\n        /* \"--CODEGEN--\":7:18   */\n      lt\n        /* \"--CODEGEN--\":4:6   */\n      iszero\n      tag_597\n      jumpi\n        /* \"--CODEGEN--\":31:32   */\n      0x00\n        /* \"--CODEGEN--\":28:29   */\n      dup1\n        /* \"--CODEGEN--\":21:33   */\n      revert\n        /* \"--CODEGEN--\":4:6   */\n    tag_597:\n      pop\n        /* \"CoreContracts/kalyswap-periphery/KalyswapRouter.sol\":14128:14146  pair.getReserves() */\n      dup1\n      mload\n      0x20\n      swap1\n      swap2\n      add\n      mload\n        /* \"CoreContracts/kalyswap-periphery/KalyswapRouter.sol\":14094:14146  (uint reserve0, uint reserve1,) = pair.getReserves() */\n      0xffffffffffffffffffffffffffff\n      swap2\n      dup3\n      and\n      swap4\n      pop\n      and\n      swap1\n      pop\n        /* \"CoreContracts/kalyswap-periphery/KalyswapRouter.sol\":14161:14178  uint reserveInput */\n      0x00\n      dup1\n      sub(shl(0xa0, 0x01), 0x01)\n        /* \"CoreContracts/kalyswap-periphery/KalyswapRouter.sol\":14202:14217  input == token0 */\n      dup11\n      dup2\n      and\n      swap1\n      dup10\n      and\n      eq\n        /* \"CoreContracts/kalyswap-periphery/KalyswapRouter.sol\":14202:14263  input == token0 ? (reserve0, reserve1) : (reserve1, reserve0) */\n      tag_598\n      jumpi\n        /* \"CoreContracts/kalyswap-periphery/KalyswapRouter.sol\":14244:14252  reserve1 */\n      dup3\n        /* \"CoreContracts/kalyswap-periphery/KalyswapRouter.sol\":14254:14262  reserve0 */\n      dup5\n        /* \"CoreContracts/kalyswap-periphery/KalyswapRouter.sol\":14202:14263  input == token0 ? (reserve0, reserve1) : (reserve1, reserve0) */\n      jump(tag_599)\n    tag_598:\n        /* \"CoreContracts/kalyswap-periphery/KalyswapRouter.sol\":14221:14229  reserve0 */\n      dup4\n        /* \"CoreContracts/kalyswap-periphery/KalyswapRouter.sol\":14231:14239  reserve1 */\n      dup4\n        /* \"CoreContracts/kalyswap-periphery/KalyswapRouter.sol\":14202:14263  input == token0 ? (reserve0, reserve1) : (reserve1, reserve0) */\n    tag_599:\n        /* \"CoreContracts/kalyswap-periphery/KalyswapRouter.sol\":14160:14263  (uint reserveInput, uint reserveOutput) = input == token0 ? (reserve0, reserve1) : (reserve1, reserve0) */\n      swap2\n      pop\n      swap2\n      pop\n        /* \"CoreContracts/kalyswap-periphery/KalyswapRouter.sol\":14291:14347  IERC20(input).balanceOf(address(pair)).sub(reserveInput) */\n      tag_600\n        /* \"CoreContracts/kalyswap-periphery/KalyswapRouter.sol\":14334:14346  reserveInput */\n      dup3\n        /* \"CoreContracts/kalyswap-periphery/KalyswapRouter.sol\":14298:14303  input */\n      dup12\n      sub(shl(0xa0, 0x01), 0x01)\n        /* \"CoreContracts/kalyswap-periphery/KalyswapRouter.sol\":14291:14314  IERC20(input).balanceOf */\n      and\n      0x70a08231\n        /* \"CoreContracts/kalyswap-periphery/KalyswapRouter.sol\":14323:14327  pair */\n      dup11\n        /* \"CoreContracts/kalyswap-periphery/KalyswapRouter.sol\":14291:14329  IERC20(input).balanceOf(address(pair)) */\n      mload(0x40)\n      dup3\n      0xffffffff\n      and\n      0xe0\n      shl\n      dup2\n      mstore\n      0x04\n      add\n      dup1\n      dup3\n      sub(shl(0xa0, 0x01), 0x01)\n      and\n      sub(shl(0xa0, 0x01), 0x01)\n      and\n      dup2\n      mstore\n      0x20\n      add\n      swap2\n      pop\n      pop\n      0x20\n      mload(0x40)\n      dup1\n      dup4\n      sub\n      dup2\n      dup7\n      dup1\n      extcodesize\n      iszero\n        /* \"--CODEGEN--\":5:14   */\n      dup1\n        /* \"--CODEGEN--\":2:4   */\n      iszero\n      tag_276\n      jumpi\n        /* \"--CODEGEN--\":27:28   */\n      0x00\n        /* \"--CODEGEN--\":24:25   */\n      dup1\n        /* \"--CODEGEN--\":17:29   */\n      revert\n        /* \"CoreContracts/kalyswap-periphery/KalyswapRouter.sol\":14291:14347  IERC20(input).balanceOf(address(pair)).sub(reserveInput) */\n    tag_600:\n        /* \"CoreContracts/kalyswap-periphery/KalyswapRouter.sol\":14277:14347  amountInput = IERC20(input).balanceOf(address(pair)).sub(reserveInput) */\n      swap6\n      pop\n        /* \"CoreContracts/kalyswap-periphery/KalyswapRouter.sol\":14376:14446  KalyswapLibrary.getAmountOut(amountInput, reserveInput, reserveOutput) */\n      tag_605\n        /* \"CoreContracts/kalyswap-periphery/KalyswapRouter.sol\":14405:14416  amountInput */\n      dup7\n        /* \"CoreContracts/kalyswap-periphery/KalyswapRouter.sol\":14418:14430  reserveInput */\n      dup4\n        /* \"CoreContracts/kalyswap-periphery/KalyswapRouter.sol\":14432:14445  reserveOutput */\n      dup4\n        /* \"CoreContracts/kalyswap-periphery/KalyswapRouter.sol\":14376:14404  KalyswapLibrary.getAmountOut */\n      tag_186\n        /* \"CoreContracts/kalyswap-periphery/KalyswapRouter.sol\":14376:14446  KalyswapLibrary.getAmountOut(amountInput, reserveInput, reserveOutput) */\n      jump\t// in\n    tag_605:\n        /* \"CoreContracts/kalyswap-periphery/KalyswapRouter.sol\":14361:14446  amountOutput = KalyswapLibrary.getAmountOut(amountInput, reserveInput, reserveOutput) */\n      swap5\n      pop\n        /* \"CoreContracts/kalyswap-periphery/KalyswapRouter.sol\":13684:14762  for (uint i; i < path.length - 1; i++) {... */\n      pop\n      pop\n      pop\n      pop\n        /* \"CoreContracts/kalyswap-periphery/KalyswapRouter.sol\":14475:14490  uint amount0Out */\n      0x00\n        /* \"CoreContracts/kalyswap-periphery/KalyswapRouter.sol\":14492:14507  uint amount1Out */\n      dup1\n        /* \"CoreContracts/kalyswap-periphery/KalyswapRouter.sol\":14520:14526  token0 */\n      dup6\n      sub(shl(0xa0, 0x01), 0x01)\n        /* \"CoreContracts/kalyswap-periphery/KalyswapRouter.sol\":14511:14526  input == token0 */\n      and\n        /* \"CoreContracts/kalyswap-periphery/KalyswapRouter.sol\":14511:14516  input */\n      dup9\n      sub(shl(0xa0, 0x01), 0x01)\n        /* \"CoreContracts/kalyswap-periphery/KalyswapRouter.sol\":14511:14526  input == token0 */\n      and\n      eq\n        /* \"CoreContracts/kalyswap-periphery/KalyswapRouter.sol\":14511:14578  input == token0 ? (uint(0), amountOutput) : (amountOutput, uint(0)) */\n      tag_606\n      jumpi\n        /* \"CoreContracts/kalyswap-periphery/KalyswapRouter.sol\":14556:14568  amountOutput */\n      dup3\n        /* \"CoreContracts/kalyswap-periphery/KalyswapRouter.sol\":14575:14576  0 */\n      0x00\n        /* \"CoreContracts/kalyswap-periphery/KalyswapRouter.sol\":14511:14578  input == token0 ? (uint(0), amountOutput) : (amountOutput, uint(0)) */\n      jump(tag_607)\n    tag_606:\n        /* \"CoreContracts/kalyswap-periphery/KalyswapRouter.sol\":14535:14536  0 */\n      0x00\n        /* \"CoreContracts/kalyswap-periphery/KalyswapRouter.sol\":14539:14551  amountOutput */\n      dup4\n        /* \"CoreContracts/kalyswap-periphery/KalyswapRouter.sol\":14511:14578  input == token0 ? (uint(0), amountOutput) : (amountOutput, uint(0)) */\n    tag_607:\n        /* \"CoreContracts/kalyswap-periphery/KalyswapRouter.sol\":14474:14578  (uint amount0Out, uint amount1Out) = input == token0 ? (uint(0), amountOutput) : (amountOutput, uint(0)) */\n      swap2\n      pop\n      swap2\n      pop\n        /* \"CoreContracts/kalyswap-periphery/KalyswapRouter.sol\":14592:14602  address to */\n      0x00\n        /* \"CoreContracts/kalyswap-periphery/KalyswapRouter.sol\":14623:14624  2 */\n      0x02\n        /* \"CoreContracts/kalyswap-periphery/KalyswapRouter.sol\":14609:14613  path */\n      dup13\n        /* \"CoreContracts/kalyswap-periphery/KalyswapRouter.sol\":14609:14620  path.length */\n      mload\n        /* \"CoreContracts/kalyswap-periphery/KalyswapRouter.sol\":14609:14624  path.length - 2 */\n      sub\n        /* \"CoreContracts/kalyswap-periphery/KalyswapRouter.sol\":14605:14606  i */\n      dup11\n        /* \"CoreContracts/kalyswap-periphery/KalyswapRouter.sol\":14605:14624  i < path.length - 2 */\n      lt\n        /* \"CoreContracts/kalyswap-periphery/KalyswapRouter.sol\":14605:14686  i < path.length - 2 ? KalyswapLibrary.pairFor(factory, output, path[i + 2]) : _to */\n      tag_608\n      jumpi\n        /* \"CoreContracts/kalyswap-periphery/KalyswapRouter.sol\":14683:14686  _to */\n      dup11\n        /* \"CoreContracts/kalyswap-periphery/KalyswapRouter.sol\":14605:14686  i < path.length - 2 ? KalyswapLibrary.pairFor(factory, output, path[i + 2]) : _to */\n      jump(tag_610)\n    tag_608:\n        /* \"CoreContracts/kalyswap-periphery/KalyswapRouter.sol\":14627:14680  KalyswapLibrary.pairFor(factory, output, path[i + 2]) */\n      tag_610\n        /* \"CoreContracts/kalyswap-periphery/KalyswapRouter.sol\":14651:14658  factory */\n      immutable(\"0x59ec111d9d8ceec2ab223a1d5004f35d19292b31c8f02c623d83a90888216dda\")\n        /* \"CoreContracts/kalyswap-periphery/KalyswapRouter.sol\":14660:14666  output */\n      dup10\n        /* \"CoreContracts/kalyswap-periphery/KalyswapRouter.sol\":14668:14672  path */\n      dup15\n        /* \"CoreContracts/kalyswap-periphery/KalyswapRouter.sol\":14673:14674  i */\n      dup14\n        /* \"CoreContracts/kalyswap-periphery/KalyswapRouter.sol\":14677:14678  2 */\n      0x02\n        /* \"CoreContracts/kalyswap-periphery/KalyswapRouter.sol\":14673:14678  i + 2 */\n      add\n        /* \"CoreContracts/kalyswap-periphery/KalyswapRouter.sol\":14668:14679  path[i + 2] */\n      dup2\n      mload\n      dup2\n      lt\n      tag_540\n      jumpi\n      invalid\n        /* \"CoreContracts/kalyswap-periphery/KalyswapRouter.sol\":14627:14680  KalyswapLibrary.pairFor(factory, output, path[i + 2]) */\n    tag_610:\n        /* \"CoreContracts/kalyswap-periphery/KalyswapRouter.sol\":14738:14750  new bytes(0) */\n      0x40\n      dup1\n      mload\n        /* \"CoreContracts/kalyswap-periphery/KalyswapRouter.sol\":14748:14749  0 */\n      0x00\n        /* \"CoreContracts/kalyswap-periphery/KalyswapRouter.sol\":14738:14750  new bytes(0) */\n      dup1\n      dup3\n      mstore\n      0x20\n      dup3\n      add\n      swap3\n      dup4\n      swap1\n      mstore\n        /* \"CoreContracts/kalyswap-periphery/KalyswapRouter.sol\":14700:14751  pair.swap(amount0Out, amount1Out, to, new bytes(0)) */\n      0x022c0d9f00000000000000000000000000000000000000000000000000000000\n      dup4\n      mstore\n      0x24\n      dup3\n      add\n      dup8\n      dup2\n      mstore\n      0x44\n      dup4\n      add\n      dup8\n      swap1\n      mstore\n      sub(shl(0xa0, 0x01), 0x01)\n      dup1\n      dup7\n      and\n      0x64\n      dup6\n      add\n      mstore\n      0x80\n      0x84\n      dup6\n      add\n      swap1\n      dup2\n      mstore\n      dup5\n      mload\n      0xa4\n      dup7\n      add\n      dup2\n      swap1\n      mstore\n        /* \"CoreContracts/kalyswap-periphery/KalyswapRouter.sol\":14592:14686  address to = i < path.length - 2 ? KalyswapLibrary.pairFor(factory, output, path[i + 2]) : _to */\n      swap7\n      swap8\n      pop\n        /* \"CoreContracts/kalyswap-periphery/KalyswapRouter.sol\":14700:14709  pair.swap */\n      swap1\n      dup13\n      and\n      swap6\n      0x022c0d9f\n      swap6\n        /* \"CoreContracts/kalyswap-periphery/KalyswapRouter.sol\":14710:14720  amount0Out */\n      dup11\n      swap6\n        /* \"CoreContracts/kalyswap-periphery/KalyswapRouter.sol\":14722:14732  amount1Out */\n      dup11\n      swap6\n        /* \"CoreContracts/kalyswap-periphery/KalyswapRouter.sol\":14592:14686  address to = i < path.length - 2 ? KalyswapLibrary.pairFor(factory, output, path[i + 2]) : _to */\n      dup11\n      swap6\n        /* \"CoreContracts/kalyswap-periphery/KalyswapRouter.sol\":14738:14750  new bytes(0) */\n      swap2\n      swap5\n        /* \"CoreContracts/kalyswap-periphery/KalyswapRouter.sol\":14700:14751  pair.swap(amount0Out, amount1Out, to, new bytes(0)) */\n      swap2\n      swap4\n      swap2\n      swap3\n      0xc4\n      dup7\n      add\n      swap3\n        /* \"CoreContracts/kalyswap-periphery/KalyswapRouter.sol\":14738:14750  new bytes(0) */\n      swap1\n      swap2\n        /* \"CoreContracts/kalyswap-periphery/KalyswapRouter.sol\":14700:14751  pair.swap(amount0Out, amount1Out, to, new bytes(0)) */\n      dup2\n      swap1\n      dup5\n      swap1\n        /* \"CoreContracts/kalyswap-periphery/KalyswapRouter.sol\":14738:14750  new bytes(0) */\n      dup5\n      swap1\n        /* \"--CODEGEN--\":8:108   */\n    tag_614:\n        /* \"--CODEGEN--\":33:36   */\n      dup4\n        /* \"--CODEGEN--\":30:31   */\n      dup2\n        /* \"--CODEGEN--\":27:37   */\n      lt\n        /* \"--CODEGEN--\":8:108   */\n      iszero\n      tag_616\n      jumpi\n        /* \"--CODEGEN--\":90:101   */\n      dup2\n      dup2\n      add\n        /* \"--CODEGEN--\":84:102   */\n      mload\n        /* \"--CODEGEN--\":71:82   */\n      dup4\n      dup3\n      add\n        /* \"--CODEGEN--\":64:103   */\n      mstore\n        /* \"--CODEGEN--\":52:54   */\n      0x20\n        /* \"--CODEGEN--\":45:55   */\n      add\n        /* \"--CODEGEN--\":8:108   */\n      jump(tag_614)\n    tag_616:\n        /* \"--CODEGEN--\":12:26   */\n      pop\n        /* \"CoreContracts/kalyswap-periphery/KalyswapRouter.sol\":14700:14751  pair.swap(amount0Out, amount1Out, to, new bytes(0)) */\n      pop\n      pop\n      pop\n      swap1\n      pop\n      swap1\n      dup2\n      add\n      swap1\n      0x1f\n      and\n      dup1\n      iszero\n      tag_617\n      jumpi\n      dup1\n      dup3\n      sub\n      dup1\n      mload\n      0x01\n      dup4\n      0x20\n      sub\n      0x0100\n      exp\n      sub\n      not\n      and\n      dup2\n      mstore\n      0x20\n      add\n      swap2\n      pop\n    tag_617:\n      pop\n      swap6\n      pop\n      pop\n      pop\n      pop\n      pop\n      pop\n      0x00\n      mload(0x40)\n      dup1\n      dup4\n      sub\n      dup2\n      0x00\n      dup8\n      dup1\n      extcodesize\n      iszero\n        /* \"--CODEGEN--\":5:14   */\n      dup1\n        /* \"--CODEGEN--\":2:4   */\n      iszero\n      tag_618\n      jumpi\n        /* \"--CODEGEN--\":27:28   */\n      0x00\n        /* \"--CODEGEN--\":24:25   */\n      dup1\n        /* \"--CODEGEN--\":17:29   */\n      revert\n        /* \"--CODEGEN--\":2:4   */\n    tag_618:\n        /* \"CoreContracts/kalyswap-periphery/KalyswapRouter.sol\":14700:14751  pair.swap(amount0Out, amount1Out, to, new bytes(0)) */\n      pop\n      gas\n      call\n      iszero\n        /* \"--CODEGEN--\":8:17   */\n      dup1\n        /* \"--CODEGEN--\":5:7   */\n      iszero\n      tag_620\n      jumpi\n        /* \"--CODEGEN--\":45:61   */\n      returndatasize\n        /* \"--CODEGEN--\":42:43   */\n      0x00\n        /* \"--CODEGEN--\":39:40   */\n      dup1\n        /* \"--CODEGEN--\":24:62   */\n      returndatacopy\n        /* \"--CODEGEN--\":77:93   */\n      returndatasize\n        /* \"--CODEGEN--\":74:75   */\n      0x00\n        /* \"--CODEGEN--\":67:94   */\n      revert\n        /* \"--CODEGEN--\":5:7   */\n    tag_620:\n      pop\n      pop\n        /* \"CoreContracts/kalyswap-periphery/KalyswapRouter.sol\":13718:13721  i++ */\n      0x01\n      swap1\n      swap12\n      add\n      swap11\n      pop\n        /* \"CoreContracts/kalyswap-periphery/KalyswapRouter.sol\":13684:14762  for (uint i; i < path.length - 1; i++) {... */\n      tag_587\n      swap10\n      pop\n      pop\n      pop\n      pop\n      pop\n      pop\n      pop\n      pop\n      pop\n      pop\n      jump\n        /* \"CoreContracts/kalyswap-periphery/libraries/SafeMath.sol\":294:421  function sub(uint x, uint y) internal pure returns (uint z) {... */\n    tag_280:\n        /* \"CoreContracts/kalyswap-periphery/libraries/SafeMath.sol\":377:382  x - y */\n      dup1\n      dup3\n      sub\n        /* \"CoreContracts/kalyswap-periphery/libraries/SafeMath.sol\":372:388  (z = x - y) <= x */\n      dup3\n      dup2\n      gt\n      iszero\n        /* \"CoreContracts/kalyswap-periphery/libraries/SafeMath.sol\":364:414  require((z = x - y) <= x, 'ds-math-sub-underflow') */\n      tag_235\n      jumpi\n      0x40\n      dup1\n      mload\n      shl(0xe5, 0x461bcd)\n      dup2\n      mstore\n      0x20\n      0x04\n      dup3\n      add\n      mstore\n      0x15\n      0x24\n      dup3\n      add\n      mstore\n      0x64732d6d6174682d7375622d756e646572666c6f770000000000000000000000\n      0x44\n      dup3\n      add\n      mstore\n      swap1\n      mload\n      swap1\n      dup2\n      swap1\n      sub\n      0x64\n      add\n      swap1\n      revert\n        /* \"CoreContracts/kalyswap-periphery/KalyswapRouter.sol\":904:2260  function _addLiquidity(... */\n    tag_286:\n        /* \"CoreContracts/kalyswap-periphery/KalyswapRouter.sol\":1208:1257  IKalyswapFactory(factory).getPair(tokenA, tokenB) */\n      0x40\n      dup1\n      mload\n      0xe6a4390500000000000000000000000000000000000000000000000000000000\n      dup2\n      mstore\n      sub(shl(0xa0, 0x01), 0x01)\n      dup9\n      dup2\n      and\n      0x04\n      dup4\n      add\n      mstore\n      dup8\n      dup2\n      and\n      0x24\n      dup4\n      add\n      mstore\n      swap2\n      mload\n        /* \"CoreContracts/kalyswap-periphery/KalyswapRouter.sol\":1115:1127  uint amountA */\n      0x00\n      swap3\n      dup4\n      swap3\n      dup4\n      swap3\n        /* \"CoreContracts/kalyswap-periphery/KalyswapRouter.sol\":1225:1232  factory */\n      immutable(\"0x59ec111d9d8ceec2ab223a1d5004f35d19292b31c8f02c623d83a90888216dda\")\n        /* \"CoreContracts/kalyswap-periphery/KalyswapRouter.sol\":1208:1241  IKalyswapFactory(factory).getPair */\n      swap1\n      swap3\n      and\n      swap2\n      0xe6a43905\n      swap2\n        /* \"CoreContracts/kalyswap-periphery/KalyswapRouter.sol\":1208:1257  IKalyswapFactory(factory).getPair(tokenA, tokenB) */\n      0x44\n      dup1\n      dup3\n      add\n      swap3\n      0x20\n      swap3\n      swap1\n      swap2\n      swap1\n      dup3\n      swap1\n      sub\n      add\n      dup2\n        /* \"CoreContracts/kalyswap-periphery/KalyswapRouter.sol\":1208:1241  IKalyswapFactory(factory).getPair */\n      dup7\n        /* \"CoreContracts/kalyswap-periphery/KalyswapRouter.sol\":1208:1257  IKalyswapFactory(factory).getPair(tokenA, tokenB) */\n      dup1\n      extcodesize\n      iszero\n        /* \"--CODEGEN--\":2:4   */\n      dup1\n      iszero\n      tag_624\n      jumpi\n        /* \"--CODEGEN--\":27:28   */\n      0x00\n        /* \"--CODEGEN--\":24:25   */\n      dup1\n        /* \"--CODEGEN--\":17:29   */\n      revert\n        /* \"--CODEGEN--\":2:4   */\n    tag_624:\n        /* \"CoreContracts/kalyswap-periphery/KalyswapRouter.sol\":1208:1257  IKalyswapFactory(factory).getPair(tokenA, tokenB) */\n      pop\n      gas\n      staticcall\n      iszero\n        /* \"--CODEGEN--\":8:17   */\n      dup1\n        /* \"--CODEGEN--\":5:7   */\n      iszero\n      tag_626\n      jumpi\n        /* \"--CODEGEN--\":45:61   */\n      returndatasize\n        /* \"--CODEGEN--\":42:43   */\n      0x00\n        /* \"--CODEGEN--\":39:40   */\n      dup1\n        /* \"--CODEGEN--\":24:62   */\n      returndatacopy\n        /* \"--CODEGEN--\":77:93   */\n      returndatasize\n        /* \"--CODEGEN--\":74:75   */\n      0x00\n        /* \"--CODEGEN--\":67:94   */\n      revert\n        /* \"--CODEGEN--\":5:7   */\n    tag_626:\n        /* \"CoreContracts/kalyswap-periphery/KalyswapRouter.sol\":1208:1257  IKalyswapFactory(factory).getPair(tokenA, tokenB) */\n      pop\n      pop\n      pop\n      pop\n      mload(0x40)\n      returndatasize\n        /* \"--CODEGEN--\":15:17   */\n      0x20\n        /* \"--CODEGEN--\":10:13   */\n      dup2\n        /* \"--CODEGEN--\":7:18   */\n      lt\n        /* \"--CODEGEN--\":4:6   */\n      iszero\n      tag_627\n      jumpi\n        /* \"--CODEGEN--\":31:32   */\n      0x00\n        /* \"--CODEGEN--\":28:29   */\n      dup1\n        /* \"--CODEGEN--\":21:33   */\n      revert\n        /* \"--CODEGEN--\":4:6   */\n    tag_627:\n      pop\n        /* \"CoreContracts/kalyswap-periphery/KalyswapRouter.sol\":1208:1257  IKalyswapFactory(factory).getPair(tokenA, tokenB) */\n      mload\n      sub(shl(0xa0, 0x01), 0x01)\n        /* \"CoreContracts/kalyswap-periphery/KalyswapRouter.sol\":1208:1271  IKalyswapFactory(factory).getPair(tokenA, tokenB) == address(0) */\n      and\n      eq\n        /* \"CoreContracts/kalyswap-periphery/KalyswapRouter.sol\":1204:1350  if (IKalyswapFactory(factory).getPair(tokenA, tokenB) == address(0)) {... */\n      iszero\n      tag_628\n      jumpi\n        /* \"CoreContracts/kalyswap-periphery/KalyswapRouter.sol\":1287:1339  IKalyswapFactory(factory).createPair(tokenA, tokenB) */\n      0x40\n      dup1\n      mload\n      0xc9c6539600000000000000000000000000000000000000000000000000000000\n      dup2\n      mstore\n      sub(shl(0xa0, 0x01), 0x01)\n      dup11\n      dup2\n      and\n      0x04\n      dup4\n      add\n      mstore\n      dup10\n      dup2\n      and\n      0x24\n      dup4\n      add\n      mstore\n      swap2\n      mload\n        /* \"CoreContracts/kalyswap-periphery/KalyswapRouter.sol\":1304:1311  factory */\n      immutable(\"0x59ec111d9d8ceec2ab223a1d5004f35d19292b31c8f02c623d83a90888216dda\")\n        /* \"CoreContracts/kalyswap-periphery/KalyswapRouter.sol\":1287:1323  IKalyswapFactory(factory).createPair */\n      swap1\n      swap3\n      and\n      swap2\n      0xc9c65396\n      swap2\n        /* \"CoreContracts/kalyswap-periphery/KalyswapRouter.sol\":1287:1339  IKalyswapFactory(factory).createPair(tokenA, tokenB) */\n      0x44\n      dup1\n      dup3\n      add\n      swap3\n      0x20\n      swap3\n      swap1\n      swap2\n      swap1\n      dup3\n      swap1\n      sub\n      add\n      dup2\n      0x00\n        /* \"CoreContracts/kalyswap-periphery/KalyswapRouter.sol\":1287:1323  IKalyswapFactory(factory).createPair */\n      dup8\n        /* \"CoreContracts/kalyswap-periphery/KalyswapRouter.sol\":1287:1339  IKalyswapFactory(factory).createPair(tokenA, tokenB) */\n      dup1\n      extcodesize\n      iszero\n        /* \"--CODEGEN--\":2:4   */\n      dup1\n      iszero\n      tag_629\n      jumpi\n        /* \"--CODEGEN--\":27:28   */\n      0x00\n        /* \"--CODEGEN--\":24:25   */\n      dup1\n        /* \"--CODEGEN--\":17:29   */\n      revert\n        /* \"--CODEGEN--\":2:4   */\n    tag_629:\n        /* \"CoreContracts/kalyswap-periphery/KalyswapRouter.sol\":1287:1339  IKalyswapFactory(factory).createPair(tokenA, tokenB) */\n      pop\n      gas\n      call\n      iszero\n        /* \"--CODEGEN--\":8:17   */\n      dup1\n        /* \"--CODEGEN--\":5:7   */\n      iszero\n      tag_631\n      jumpi\n        /* \"--CODEGEN--\":45:61   */\n      returndatasize\n        /* \"--CODEGEN--\":42:43   */\n      0x00\n        /* \"--CODEGEN--\":39:40   */\n      dup1\n        /* \"--CODEGEN--\":24:62   */\n      returndatacopy\n        /* \"--CODEGEN--\":77:93   */\n      returndatasize\n        /* \"--CODEGEN--\":74:75   */\n      0x00\n        /* \"--CODEGEN--\":67:94   */\n      revert\n        /* \"--CODEGEN--\":5:7   */\n    tag_631:\n        /* \"CoreContracts/kalyswap-periphery/KalyswapRouter.sol\":1287:1339  IKalyswapFactory(factory).createPair(tokenA, tokenB) */\n      pop\n      pop\n      pop\n      pop\n      mload(0x40)\n      returndatasize\n        /* \"--CODEGEN--\":15:17   */\n      0x20\n        /* \"--CODEGEN--\":10:13   */\n      dup2\n        /* \"--CODEGEN--\":7:18   */\n      lt\n        /* \"--CODEGEN--\":4:6   */\n      iszero\n      tag_632\n      jumpi\n        /* \"--CODEGEN--\":31:32   */\n      0x00\n        /* \"--CODEGEN--\":28:29   */\n      dup1\n        /* \"--CODEGEN--\":21:33   */\n      revert\n        /* \"--CODEGEN--\":4:6   */\n    tag_632:\n      pop\n      pop\n        /* \"CoreContracts/kalyswap-periphery/KalyswapRouter.sol\":1204:1350  if (IKalyswapFactory(factory).getPair(tokenA, tokenB) == address(0)) {... */\n    tag_628:\n        /* \"CoreContracts/kalyswap-periphery/KalyswapRouter.sol\":1360:1373  uint reserveA */\n      0x00\n        /* \"CoreContracts/kalyswap-periphery/KalyswapRouter.sol\":1375:1388  uint reserveB */\n      dup1\n        /* \"CoreContracts/kalyswap-periphery/KalyswapRouter.sol\":1392:1444  KalyswapLibrary.getReserves(factory, tokenA, tokenB) */\n      tag_633\n        /* \"CoreContracts/kalyswap-periphery/KalyswapRouter.sol\":1420:1427  factory */\n      immutable(\"0x59ec111d9d8ceec2ab223a1d5004f35d19292b31c8f02c623d83a90888216dda\")\n        /* \"CoreContracts/kalyswap-periphery/KalyswapRouter.sol\":1429:1435  tokenA */\n      dup12\n        /* \"CoreContracts/kalyswap-periphery/KalyswapRouter.sol\":1437:1443  tokenB */\n      dup12\n        /* \"CoreContracts/kalyswap-periphery/KalyswapRouter.sol\":1392:1419  KalyswapLibrary.getReserves */\n      tag_510\n        /* \"CoreContracts/kalyswap-periphery/KalyswapRouter.sol\":1392:1444  KalyswapLibrary.getReserves(factory, tokenA, tokenB) */\n      jump\t// in\n    tag_633:\n        /* \"CoreContracts/kalyswap-periphery/KalyswapRouter.sol\":1359:1444  (uint reserveA, uint reserveB) = KalyswapLibrary.getReserves(factory, tokenA, tokenB) */\n      swap2\n      pop\n      swap2\n      pop\n        /* \"CoreContracts/kalyswap-periphery/KalyswapRouter.sol\":1458:1466  reserveA */\n      dup2\n        /* \"CoreContracts/kalyswap-periphery/KalyswapRouter.sol\":1470:1471  0 */\n      0x00\n        /* \"CoreContracts/kalyswap-periphery/KalyswapRouter.sol\":1458:1471  reserveA == 0 */\n      eq\n        /* \"CoreContracts/kalyswap-periphery/KalyswapRouter.sol\":1458:1488  reserveA == 0 && reserveB == 0 */\n      dup1\n      iszero\n      tag_634\n      jumpi\n      pop\n        /* \"CoreContracts/kalyswap-periphery/KalyswapRouter.sol\":1475:1488  reserveB == 0 */\n      dup1\n      iszero\n        /* \"CoreContracts/kalyswap-periphery/KalyswapRouter.sol\":1458:1488  reserveA == 0 && reserveB == 0 */\n    tag_634:\n        /* \"CoreContracts/kalyswap-periphery/KalyswapRouter.sol\":1454:2254  if (reserveA == 0 && reserveB == 0) {... */\n      iszero\n      tag_635\n      jumpi\n        /* \"CoreContracts/kalyswap-periphery/KalyswapRouter.sol\":1526:1540  amountADesired */\n      dup8\n      swap4\n      pop\n        /* \"CoreContracts/kalyswap-periphery/KalyswapRouter.sol\":1542:1556  amountBDesired */\n      dup7\n      swap3\n      pop\n        /* \"CoreContracts/kalyswap-periphery/KalyswapRouter.sol\":1454:2254  if (reserveA == 0 && reserveB == 0) {... */\n      jump(tag_636)\n    tag_635:\n        /* \"CoreContracts/kalyswap-periphery/KalyswapRouter.sol\":1588:1607  uint amountBOptimal */\n      0x00\n        /* \"CoreContracts/kalyswap-periphery/KalyswapRouter.sol\":1610:1667  KalyswapLibrary.quote(amountADesired, reserveA, reserveB) */\n      tag_637\n        /* \"CoreContracts/kalyswap-periphery/KalyswapRouter.sol\":1632:1646  amountADesired */\n      dup10\n        /* \"CoreContracts/kalyswap-periphery/KalyswapRouter.sol\":1648:1656  reserveA */\n      dup5\n        /* \"CoreContracts/kalyswap-periphery/KalyswapRouter.sol\":1658:1666  reserveB */\n      dup5\n        /* \"CoreContracts/kalyswap-periphery/KalyswapRouter.sol\":1610:1631  KalyswapLibrary.quote */\n      tag_330\n        /* \"CoreContracts/kalyswap-periphery/KalyswapRouter.sol\":1610:1667  KalyswapLibrary.quote(amountADesired, reserveA, reserveB) */\n      jump\t// in\n    tag_637:\n        /* \"CoreContracts/kalyswap-periphery/KalyswapRouter.sol\":1588:1667  uint amountBOptimal = KalyswapLibrary.quote(amountADesired, reserveA, reserveB) */\n      swap1\n      pop\n        /* \"CoreContracts/kalyswap-periphery/KalyswapRouter.sol\":1703:1717  amountBDesired */\n      dup8\n        /* \"CoreContracts/kalyswap-periphery/KalyswapRouter.sol\":1685:1699  amountBOptimal */\n      dup2\n        /* \"CoreContracts/kalyswap-periphery/KalyswapRouter.sol\":1685:1717  amountBOptimal <= amountBDesired */\n      gt\n        /* \"CoreContracts/kalyswap-periphery/KalyswapRouter.sol\":1681:2244  if (amountBOptimal <= amountBDesired) {... */\n      tag_638\n      jumpi\n        /* \"CoreContracts/kalyswap-periphery/KalyswapRouter.sol\":1763:1773  amountBMin */\n      dup6\n        /* \"CoreContracts/kalyswap-periphery/KalyswapRouter.sol\":1745:1759  amountBOptimal */\n      dup2\n        /* \"CoreContracts/kalyswap-periphery/KalyswapRouter.sol\":1745:1773  amountBOptimal >= amountBMin */\n      lt\n      iszero\n        /* \"CoreContracts/kalyswap-periphery/KalyswapRouter.sol\":1737:1815  require(amountBOptimal >= amountBMin, 'KalyswapRouter: INSUFFICIENT_B_AMOUNT') */\n      tag_639\n      jumpi\n      mload(0x40)\n      shl(0xe5, 0x461bcd)\n      dup2\n      mstore\n      0x04\n      add\n      dup1\n      dup1\n      0x20\n      add\n      dup3\n      dup2\n      sub\n      dup3\n      mstore\n      0x25\n      dup2\n      mstore\n      0x20\n      add\n      dup1\n      data_ab28017c087a4dba5dbee469b5894ce405ae562516de110c18f366f606b992f5\n      0x25\n      swap2\n      codecopy\n      0x40\n      add\n      swap2\n      pop\n      pop\n      mload(0x40)\n      dup1\n      swap2\n      sub\n      swap1\n      revert\n    tag_639:\n        /* \"CoreContracts/kalyswap-periphery/KalyswapRouter.sol\":1855:1869  amountADesired */\n      dup9\n      swap5\n      pop\n        /* \"CoreContracts/kalyswap-periphery/KalyswapRouter.sol\":1871:1885  amountBOptimal */\n      swap3\n      pop\n      dup3\n        /* \"CoreContracts/kalyswap-periphery/KalyswapRouter.sol\":1681:2244  if (amountBOptimal <= amountBDesired) {... */\n      jump(tag_640)\n    tag_638:\n        /* \"CoreContracts/kalyswap-periphery/KalyswapRouter.sol\":1925:1944  uint amountAOptimal */\n      0x00\n        /* \"CoreContracts/kalyswap-periphery/KalyswapRouter.sol\":1947:2004  KalyswapLibrary.quote(amountBDesired, reserveB, reserveA) */\n      tag_641\n        /* \"CoreContracts/kalyswap-periphery/KalyswapRouter.sol\":1969:1983  amountBDesired */\n      dup10\n        /* \"CoreContracts/kalyswap-periphery/KalyswapRouter.sol\":1985:1993  reserveB */\n      dup5\n        /* \"CoreContracts/kalyswap-periphery/KalyswapRouter.sol\":1995:2003  reserveA */\n      dup7\n        /* \"CoreContracts/kalyswap-periphery/KalyswapRouter.sol\":1947:1968  KalyswapLibrary.quote */\n      tag_330\n        /* \"CoreContracts/kalyswap-periphery/KalyswapRouter.sol\":1947:2004  KalyswapLibrary.quote(amountBDesired, reserveB, reserveA) */\n      jump\t// in\n    tag_641:\n        /* \"CoreContracts/kalyswap-periphery/KalyswapRouter.sol\":1925:2004  uint amountAOptimal = KalyswapLibrary.quote(amountBDesired, reserveB, reserveA) */\n      swap1\n      pop\n        /* \"CoreContracts/kalyswap-periphery/KalyswapRouter.sol\":2047:2061  amountADesired */\n      dup10\n        /* \"CoreContracts/kalyswap-periphery/KalyswapRouter.sol\":2029:2043  amountAOptimal */\n      dup2\n        /* \"CoreContracts/kalyswap-periphery/KalyswapRouter.sol\":2029:2061  amountAOptimal <= amountADesired */\n      gt\n      iszero\n        /* \"CoreContracts/kalyswap-periphery/KalyswapRouter.sol\":2022:2062  assert(amountAOptimal <= amountADesired) */\n      tag_642\n      jumpi\n      invalid\n    tag_642:\n        /* \"CoreContracts/kalyswap-periphery/KalyswapRouter.sol\":2106:2116  amountAMin */\n      dup8\n        /* \"CoreContracts/kalyswap-periphery/KalyswapRouter.sol\":2088:2102  amountAOptimal */\n      dup2\n        /* \"CoreContracts/kalyswap-periphery/KalyswapRouter.sol\":2088:2116  amountAOptimal >= amountAMin */\n      lt\n      iszero\n        /* \"CoreContracts/kalyswap-periphery/KalyswapRouter.sol\":2080:2158  require(amountAOptimal >= amountAMin, 'KalyswapRouter: INSUFFICIENT_A_AMOUNT') */\n      tag_643\n      jumpi\n      mload(0x40)\n      shl(0xe5, 0x461bcd)\n      dup2\n      mstore\n      0x04\n      add\n      dup1\n      dup1\n      0x20\n      add\n      dup3\n      dup2\n      sub\n      dup3\n      mstore\n      0x25\n      dup2\n      mstore\n      0x20\n      add\n      dup1\n      data_49c0cc17d4ead4e3576fd5821635b4dbcb380d28eacc0ec3224c9a50b423145d\n      0x25\n      swap2\n      codecopy\n      0x40\n      add\n      swap2\n      pop\n      pop\n      mload(0x40)\n      dup1\n      swap2\n      sub\n      swap1\n      revert\n    tag_643:\n        /* \"CoreContracts/kalyswap-periphery/KalyswapRouter.sol\":2198:2212  amountAOptimal */\n      swap5\n      pop\n        /* \"CoreContracts/kalyswap-periphery/KalyswapRouter.sol\":2214:2228  amountBDesired */\n      dup8\n      swap4\n      pop\n        /* \"CoreContracts/kalyswap-periphery/KalyswapRouter.sol\":1681:2244  if (amountBOptimal <= amountBDesired) {... */\n    tag_640:\n        /* \"CoreContracts/kalyswap-periphery/KalyswapRouter.sol\":1454:2254  if (reserveA == 0 && reserveB == 0) {... */\n      pop\n    tag_636:\n        /* \"CoreContracts/kalyswap-periphery/KalyswapRouter.sol\":904:2260  function _addLiquidity(... */\n      pop\n      pop\n      swap7\n      pop\n      swap7\n      swap5\n      pop\n      pop\n      pop\n      pop\n      pop\n      jump\t// out\n        /* \"CoreContracts/kalyswap-periphery/libraries/KalyswapLibrary.sol\":2847:3311  function getAmountIn(uint amountOut, uint reserveIn, uint reserveOut) internal pure returns (uint amountIn) {... */\n    tag_305:\n        /* \"CoreContracts/kalyswap-periphery/libraries/KalyswapLibrary.sol\":2940:2953  uint amountIn */\n      0x00\n        /* \"CoreContracts/kalyswap-periphery/libraries/KalyswapLibrary.sol\":2985:2986  0 */\n      dup1\n        /* \"CoreContracts/kalyswap-periphery/libraries/KalyswapLibrary.sol\":2973:2982  amountOut */\n      dup5\n        /* \"CoreContracts/kalyswap-periphery/libraries/KalyswapLibrary.sol\":2973:2986  amountOut > 0 */\n      gt\n        /* \"CoreContracts/kalyswap-periphery/libraries/KalyswapLibrary.sol\":2965:3034  require(amountOut > 0, 'KalyswapLibrary: INSUFFICIENT_OUTPUT_AMOUNT') */\n      tag_645\n      jumpi\n      mload(0x40)\n      shl(0xe5, 0x461bcd)\n      dup2\n      mstore\n      0x04\n      add\n      dup1\n      dup1\n      0x20\n      add\n      dup3\n      dup2\n      sub\n      dup3\n      mstore\n      0x2b\n      dup2\n      mstore\n      0x20\n      add\n      dup1\n      data_785ac6fdfe4b7e430b8722c678adce81c4a810e27d12d15fc32e44f8922088bf\n      0x2b\n      swap2\n      codecopy\n      0x40\n      add\n      swap2\n      pop\n      pop\n      mload(0x40)\n      dup1\n      swap2\n      sub\n      swap1\n      revert\n    tag_645:\n        /* \"CoreContracts/kalyswap-periphery/libraries/KalyswapLibrary.sol\":3064:3065  0 */\n      0x00\n        /* \"CoreContracts/kalyswap-periphery/libraries/KalyswapLibrary.sol\":3052:3061  reserveIn */\n      dup4\n        /* \"CoreContracts/kalyswap-periphery/libraries/KalyswapLibrary.sol\":3052:3065  reserveIn > 0 */\n      gt\n        /* \"CoreContracts/kalyswap-periphery/libraries/KalyswapLibrary.sol\":3052:3083  reserveIn > 0 && reserveOut > 0 */\n      dup1\n      iszero\n      tag_646\n      jumpi\n      pop\n        /* \"CoreContracts/kalyswap-periphery/libraries/KalyswapLibrary.sol\":3082:3083  0 */\n      0x00\n        /* \"CoreContracts/kalyswap-periphery/libraries/KalyswapLibrary.sol\":3069:3079  reserveOut */\n      dup3\n        /* \"CoreContracts/kalyswap-periphery/libraries/KalyswapLibrary.sol\":3069:3083  reserveOut > 0 */\n      gt\n        /* \"CoreContracts/kalyswap-periphery/libraries/KalyswapLibrary.sol\":3052:3083  reserveIn > 0 && reserveOut > 0 */\n    tag_646:\n        /* \"CoreContracts/kalyswap-periphery/libraries/KalyswapLibrary.sol\":3044:3127  require(reserveIn > 0 && reserveOut > 0, 'KalyswapLibrary: INSUFFICIENT_LIQUIDITY') */\n      tag_647\n      jumpi\n      mload(0x40)\n      shl(0xe5, 0x461bcd)\n      dup2\n      mstore\n      0x04\n      add\n      dup1\n      dup1\n      0x20\n      add\n      dup3\n      dup2\n      sub\n      dup3\n      mstore\n      0x27\n      dup2\n      mstore\n      0x20\n      add\n      dup1\n      data_9074bfdb993f0f76350cad6ff16b034dab298eea08ad462e08506031f49a76e1\n      0x27\n      swap2\n      codecopy\n      0x40\n      add\n      swap2\n      pop\n      pop\n      mload(0x40)\n      dup1\n      swap2\n      sub\n      swap1\n      revert\n    tag_647:\n        /* \"CoreContracts/kalyswap-periphery/libraries/KalyswapLibrary.sol\":3137:3151  uint numerator */\n      0x00\n        /* \"CoreContracts/kalyswap-periphery/libraries/KalyswapLibrary.sol\":3154:3188  reserveIn.mul(amountOut).mul(1000) */\n      tag_648\n        /* \"CoreContracts/kalyswap-periphery/libraries/KalyswapLibrary.sol\":3183:3187  1000 */\n      0x03e8\n        /* \"CoreContracts/kalyswap-periphery/libraries/KalyswapLibrary.sol\":3154:3178  reserveIn.mul(amountOut) */\n      tag_649\n        /* \"CoreContracts/kalyswap-periphery/libraries/KalyswapLibrary.sol\":3154:3163  reserveIn */\n      dup7\n        /* \"CoreContracts/kalyswap-periphery/libraries/KalyswapLibrary.sol\":3168:3177  amountOut */\n      dup9\n        /* \"CoreContracts/kalyswap-periphery/libraries/KalyswapLibrary.sol\":3154:3178  reserveIn.mul(amountOut) */\n      0xffffffff\n        /* \"CoreContracts/kalyswap-periphery/libraries/KalyswapLibrary.sol\":3154:3167  reserveIn.mul */\n      tag_493\n        /* \"CoreContracts/kalyswap-periphery/libraries/KalyswapLibrary.sol\":3154:3178  reserveIn.mul(amountOut) */\n      and\n      jump\t// in\n    tag_649:\n        /* \"CoreContracts/kalyswap-periphery/libraries/KalyswapLibrary.sol\":3154:3182  reserveIn.mul(amountOut).mul */\n      swap1\n        /* \"CoreContracts/kalyswap-periphery/libraries/KalyswapLibrary.sol\":3154:3188  reserveIn.mul(amountOut).mul(1000) */\n      0xffffffff\n        /* \"CoreContracts/kalyswap-periphery/libraries/KalyswapLibrary.sol\":3154:3182  reserveIn.mul(amountOut).mul */\n      tag_493\n        /* \"CoreContracts/kalyswap-periphery/libraries/KalyswapLibrary.sol\":3154:3188  reserveIn.mul(amountOut).mul(1000) */\n      and\n      jump\t// in\n    tag_648:\n        /* \"CoreContracts/kalyswap-periphery/libraries/KalyswapLibrary.sol\":3137:3188  uint numerator = reserveIn.mul(amountOut).mul(1000) */\n      swap1\n      pop\n        /* \"CoreContracts/kalyswap-periphery/libraries/KalyswapLibrary.sol\":3198:3214  uint denominator */\n      0x00\n        /* \"CoreContracts/kalyswap-periphery/libraries/KalyswapLibrary.sol\":3217:3251  reserveOut.sub(amountOut).mul(997) */\n      tag_650\n        /* \"CoreContracts/kalyswap-periphery/libraries/KalyswapLibrary.sol\":3247:3250  997 */\n      0x03e5\n        /* \"CoreContracts/kalyswap-periphery/libraries/KalyswapLibrary.sol\":3217:3242  reserveOut.sub(amountOut) */\n      tag_649\n        /* \"CoreContracts/kalyswap-periphery/libraries/KalyswapLibrary.sol\":3217:3227  reserveOut */\n      dup7\n        /* \"CoreContracts/kalyswap-periphery/libraries/KalyswapLibrary.sol\":3232:3241  amountOut */\n      dup10\n        /* \"CoreContracts/kalyswap-periphery/libraries/KalyswapLibrary.sol\":3217:3242  reserveOut.sub(amountOut) */\n      0xffffffff\n        /* \"CoreContracts/kalyswap-periphery/libraries/KalyswapLibrary.sol\":3217:3231  reserveOut.sub */\n      tag_280\n        /* \"CoreContracts/kalyswap-periphery/libraries/KalyswapLibrary.sol\":3217:3242  reserveOut.sub(amountOut) */\n      and\n      jump\t// in\n        /* \"CoreContracts/kalyswap-periphery/libraries/KalyswapLibrary.sol\":3217:3251  reserveOut.sub(amountOut).mul(997) */\n    tag_650:\n        /* \"CoreContracts/kalyswap-periphery/libraries/KalyswapLibrary.sol\":3198:3251  uint denominator = reserveOut.sub(amountOut).mul(997) */\n      swap1\n      pop\n        /* \"CoreContracts/kalyswap-periphery/libraries/KalyswapLibrary.sol\":3272:3304  (numerator / denominator).add(1) */\n      tag_652\n        /* \"CoreContracts/kalyswap-periphery/libraries/KalyswapLibrary.sol\":3302:3303  1 */\n      0x01\n        /* \"CoreContracts/kalyswap-periphery/libraries/KalyswapLibrary.sol\":3285:3296  denominator */\n      dup3\n        /* \"CoreContracts/kalyswap-periphery/libraries/KalyswapLibrary.sol\":3273:3282  numerator */\n      dup5\n        /* \"CoreContracts/kalyswap-periphery/libraries/KalyswapLibrary.sol\":3273:3296  numerator / denominator */\n      dup2\n      tag_653\n      jumpi\n      invalid\n    tag_653:\n      div\n      swap1\n        /* \"CoreContracts/kalyswap-periphery/libraries/KalyswapLibrary.sol\":3272:3304  (numerator / denominator).add(1) */\n      0xffffffff\n        /* \"CoreContracts/kalyswap-periphery/libraries/KalyswapLibrary.sol\":3272:3301  (numerator / denominator).add */\n      tag_497\n        /* \"CoreContracts/kalyswap-periphery/libraries/KalyswapLibrary.sol\":3272:3304  (numerator / denominator).add(1) */\n      and\n      jump\t// in\n    tag_652:\n        /* \"CoreContracts/kalyswap-periphery/libraries/KalyswapLibrary.sol\":3261:3304  amountIn = (numerator / denominator).add(1) */\n      swap7\n        /* \"CoreContracts/kalyswap-periphery/libraries/KalyswapLibrary.sol\":2847:3311  function getAmountIn(uint amountOut, uint reserveIn, uint reserveOut) internal pure returns (uint amountIn) {... */\n      swap6\n      pop\n      pop\n      pop\n      pop\n      pop\n      pop\n      jump\t// out\n        /* \"CoreContracts/kalyswap-periphery/libraries/KalyswapLibrary.sol\":1787:2102  function quote(uint amountA, uint reserveA, uint reserveB) internal pure returns (uint amountB) {... */\n    tag_330:\n        /* \"CoreContracts/kalyswap-periphery/libraries/KalyswapLibrary.sol\":1869:1881  uint amountB */\n      0x00\n        /* \"CoreContracts/kalyswap-periphery/libraries/KalyswapLibrary.sol\":1911:1912  0 */\n      dup1\n        /* \"CoreContracts/kalyswap-periphery/libraries/KalyswapLibrary.sol\":1901:1908  amountA */\n      dup5\n        /* \"CoreContracts/kalyswap-periphery/libraries/KalyswapLibrary.sol\":1901:1912  amountA > 0 */\n      gt\n        /* \"CoreContracts/kalyswap-periphery/libraries/KalyswapLibrary.sol\":1893:1953  require(amountA > 0, 'KalyswapLibrary: INSUFFICIENT_AMOUNT') */\n      tag_655\n      jumpi\n      mload(0x40)\n      shl(0xe5, 0x461bcd)\n      dup2\n      mstore\n      0x04\n      add\n      dup1\n      dup1\n      0x20\n      add\n      dup3\n      dup2\n      sub\n      dup3\n      mstore\n      0x24\n      dup2\n      mstore\n      0x20\n      add\n      dup1\n      data_78840e091b36f1ae3c2e726985d3fca034feef7c212a1c9737acba643adee0ed\n      0x24\n      swap2\n      codecopy\n      0x40\n      add\n      swap2\n      pop\n      pop\n      mload(0x40)\n      dup1\n      swap2\n      sub\n      swap1\n      revert\n    tag_655:\n        /* \"CoreContracts/kalyswap-periphery/libraries/KalyswapLibrary.sol\":1982:1983  0 */\n      0x00\n        /* \"CoreContracts/kalyswap-periphery/libraries/KalyswapLibrary.sol\":1971:1979  reserveA */\n      dup4\n        /* \"CoreContracts/kalyswap-periphery/libraries/KalyswapLibrary.sol\":1971:1983  reserveA > 0 */\n      gt\n        /* \"CoreContracts/kalyswap-periphery/libraries/KalyswapLibrary.sol\":1971:1999  reserveA > 0 && reserveB > 0 */\n      dup1\n      iszero\n      tag_656\n      jumpi\n      pop\n        /* \"CoreContracts/kalyswap-periphery/libraries/KalyswapLibrary.sol\":1998:1999  0 */\n      0x00\n        /* \"CoreContracts/kalyswap-periphery/libraries/KalyswapLibrary.sol\":1987:1995  reserveB */\n      dup3\n        /* \"CoreContracts/kalyswap-periphery/libraries/KalyswapLibrary.sol\":1987:1999  reserveB > 0 */\n      gt\n        /* \"CoreContracts/kalyswap-periphery/libraries/KalyswapLibrary.sol\":1971:1999  reserveA > 0 && reserveB > 0 */\n    tag_656:\n        /* \"CoreContracts/kalyswap-periphery/libraries/KalyswapLibrary.sol\":1963:2043  require(reserveA > 0 && reserveB > 0, 'KalyswapLibrary: INSUFFICIENT_LIQUIDITY') */\n      tag_657\n      jumpi\n      mload(0x40)\n      shl(0xe5, 0x461bcd)\n      dup2\n      mstore\n      0x04\n      add\n      dup1\n      dup1\n      0x20\n      add\n      dup3\n      dup2\n      sub\n      dup3\n      mstore\n      0x27\n      dup2\n      mstore\n      0x20\n      add\n      dup1\n      data_9074bfdb993f0f76350cad6ff16b034dab298eea08ad462e08506031f49a76e1\n      0x27\n      swap2\n      codecopy\n      0x40\n      add\n      swap2\n      pop\n      pop\n      mload(0x40)\n      dup1\n      swap2\n      sub\n      swap1\n      revert\n    tag_657:\n        /* \"CoreContracts/kalyswap-periphery/libraries/KalyswapLibrary.sol\":2087:2095  reserveA */\n      dup3\n        /* \"CoreContracts/kalyswap-periphery/libraries/KalyswapLibrary.sol\":2063:2084  amountA.mul(reserveB) */\n      tag_658\n        /* \"CoreContracts/kalyswap-periphery/libraries/KalyswapLibrary.sol\":2063:2070  amountA */\n      dup6\n        /* \"CoreContracts/kalyswap-periphery/libraries/KalyswapLibrary.sol\":2075:2083  reserveB */\n      dup5\n        /* \"CoreContracts/kalyswap-periphery/libraries/KalyswapLibrary.sol\":2063:2084  amountA.mul(reserveB) */\n      0xffffffff\n        /* \"CoreContracts/kalyswap-periphery/libraries/KalyswapLibrary.sol\":2063:2074  amountA.mul */\n      tag_493\n        /* \"CoreContracts/kalyswap-periphery/libraries/KalyswapLibrary.sol\":2063:2084  amountA.mul(reserveB) */\n      and\n      jump\t// in\n    tag_658:\n        /* \"CoreContracts/kalyswap-periphery/libraries/KalyswapLibrary.sol\":2063:2095  amountA.mul(reserveB) / reserveA */\n      dup2\n      tag_659\n      jumpi\n      invalid\n    tag_659:\n      div\n      swap5\n        /* \"CoreContracts/kalyswap-periphery/libraries/KalyswapLibrary.sol\":1787:2102  function quote(uint amountA, uint reserveA, uint reserveB) internal pure returns (uint amountB) {... */\n      swap4\n      pop\n      pop\n      pop\n      pop\n      jump\t// out\n        /* \"CoreContracts/kalyswap-periphery/libraries/KalyswapLibrary.sol\":334:677  function sortTokens(address tokenA, address tokenB) internal pure returns (address token0, address token1) {... */\n    tag_441:\n        /* \"CoreContracts/kalyswap-periphery/libraries/KalyswapLibrary.sol\":409:423  address token0 */\n      0x00\n        /* \"CoreContracts/kalyswap-periphery/libraries/KalyswapLibrary.sol\":425:439  address token1 */\n      dup1\n        /* \"CoreContracts/kalyswap-periphery/libraries/KalyswapLibrary.sol\":469:475  tokenB */\n      dup3\n      sub(shl(0xa0, 0x01), 0x01)\n        /* \"CoreContracts/kalyswap-periphery/libraries/KalyswapLibrary.sol\":459:475  tokenA != tokenB */\n      and\n        /* \"CoreContracts/kalyswap-periphery/libraries/KalyswapLibrary.sol\":459:465  tokenA */\n      dup5\n      sub(shl(0xa0, 0x01), 0x01)\n        /* \"CoreContracts/kalyswap-periphery/libraries/KalyswapLibrary.sol\":459:475  tokenA != tokenB */\n      and\n      eq\n      iszero\n        /* \"CoreContracts/kalyswap-periphery/libraries/KalyswapLibrary.sol\":451:516  require(tokenA != tokenB, 'KalyswapLibrary: IDENTICAL_ADDRESSES') */\n      tag_661\n      jumpi\n      mload(0x40)\n      shl(0xe5, 0x461bcd)\n      dup2\n      mstore\n      0x04\n      add\n      dup1\n      dup1\n      0x20\n      add\n      dup3\n      dup2\n      sub\n      dup3\n      mstore\n      0x24\n      dup2\n      mstore\n      0x20\n      add\n      dup1\n      data_affda7322f5b5be1ab629127c6ad763b2cc175da15e3282efd26f0280fcd8b37\n      0x24\n      swap2\n      codecopy\n      0x40\n      add\n      swap2\n      pop\n      pop\n      mload(0x40)\n      dup1\n      swap2\n      sub\n      swap1\n      revert\n    tag_661:\n        /* \"CoreContracts/kalyswap-periphery/libraries/KalyswapLibrary.sol\":554:560  tokenB */\n      dup3\n      sub(shl(0xa0, 0x01), 0x01)\n        /* \"CoreContracts/kalyswap-periphery/libraries/KalyswapLibrary.sol\":545:560  tokenA < tokenB */\n      and\n        /* \"CoreContracts/kalyswap-periphery/libraries/KalyswapLibrary.sol\":545:551  tokenA */\n      dup5\n      sub(shl(0xa0, 0x01), 0x01)\n        /* \"CoreContracts/kalyswap-periphery/libraries/KalyswapLibrary.sol\":545:560  tokenA < tokenB */\n      and\n      lt\n        /* \"CoreContracts/kalyswap-periphery/libraries/KalyswapLibrary.sol\":545:598  tokenA < tokenB ? (tokenA, tokenB) : (tokenB, tokenA) */\n      tag_662\n      jumpi\n        /* \"CoreContracts/kalyswap-periphery/libraries/KalyswapLibrary.sol\":583:589  tokenB */\n      dup3\n        /* \"CoreContracts/kalyswap-periphery/libraries/KalyswapLibrary.sol\":591:597  tokenA */\n      dup5\n        /* \"CoreContracts/kalyswap-periphery/libraries/KalyswapLibrary.sol\":545:598  tokenA < tokenB ? (tokenA, tokenB) : (tokenB, tokenA) */\n      jump(tag_663)\n    tag_662:\n        /* \"CoreContracts/kalyswap-periphery/libraries/KalyswapLibrary.sol\":564:570  tokenA */\n      dup4\n        /* \"CoreContracts/kalyswap-periphery/libraries/KalyswapLibrary.sol\":572:578  tokenB */\n      dup4\n        /* \"CoreContracts/kalyswap-periphery/libraries/KalyswapLibrary.sol\":545:598  tokenA < tokenB ? (tokenA, tokenB) : (tokenB, tokenA) */\n    tag_663:\n        /* \"CoreContracts/kalyswap-periphery/libraries/KalyswapLibrary.sol\":526:598  (token0, token1) = tokenA < tokenB ? (tokenA, tokenB) : (tokenB, tokenA) */\n      swap1\n      swap3\n      pop\n      swap1\n      pop\n      sub(shl(0xa0, 0x01), 0x01)\n        /* \"CoreContracts/kalyswap-periphery/libraries/KalyswapLibrary.sol\":616:636  token0 != address(0) */\n      dup3\n      and\n        /* \"CoreContracts/kalyswap-periphery/libraries/KalyswapLibrary.sol\":608:670  require(token0 != address(0), 'KalyswapLibrary: ZERO_ADDRESS') */\n      tag_664\n      jumpi\n      0x40\n      dup1\n      mload\n      shl(0xe5, 0x461bcd)\n      dup2\n      mstore\n      0x20\n      0x04\n      dup3\n      add\n      mstore\n      0x1d\n      0x24\n      dup3\n      add\n      mstore\n      0x4b616c79737761704c6962726172793a205a45524f5f41444452455353000000\n      0x44\n      dup3\n      add\n      mstore\n      swap1\n      mload\n      swap1\n      dup2\n      swap1\n      sub\n      0x64\n      add\n      swap1\n      revert\n    tag_664:\n        /* \"CoreContracts/kalyswap-periphery/libraries/KalyswapLibrary.sol\":334:677  function sortTokens(address tokenA, address tokenB) internal pure returns (address token0, address token1) {... */\n      swap3\n      pop\n      swap3\n      swap1\n      pop\n      jump\t// out\n        /* \"CoreContracts/kalyswap-periphery/libraries/SafeMath.sol\":427:567  function mul(uint x, uint y) internal pure returns (uint z) {... */\n    tag_493:\n        /* \"CoreContracts/kalyswap-periphery/libraries/SafeMath.sol\":479:485  uint z */\n      0x00\n        /* \"CoreContracts/kalyswap-periphery/libraries/SafeMath.sol\":505:511  y == 0 */\n      dup2\n      iszero\n      dup1\n        /* \"CoreContracts/kalyswap-periphery/libraries/SafeMath.sol\":505:535  y == 0 || (z = x * y) / y == x */\n      tag_666\n      jumpi\n      pop\n      pop\n        /* \"CoreContracts/kalyswap-periphery/libraries/SafeMath.sol\":520:525  x * y */\n      dup1\n      dup3\n      mul\n        /* \"CoreContracts/kalyswap-periphery/libraries/SafeMath.sol\":534:535  x */\n      dup3\n        /* \"CoreContracts/kalyswap-periphery/libraries/SafeMath.sol\":529:530  y */\n      dup3\n        /* \"CoreContracts/kalyswap-periphery/libraries/SafeMath.sol\":520:525  x * y */\n      dup3\n        /* \"CoreContracts/kalyswap-periphery/libraries/SafeMath.sol\":529:530  y */\n      dup2\n        /* \"CoreContracts/kalyswap-periphery/libraries/SafeMath.sol\":515:530  (z = x * y) / y */\n      tag_667\n      jumpi\n      invalid\n    tag_667:\n      div\n        /* \"CoreContracts/kalyswap-periphery/libraries/SafeMath.sol\":515:535  (z = x * y) / y == x */\n      eq\n        /* \"CoreContracts/kalyswap-periphery/libraries/SafeMath.sol\":505:535  y == 0 || (z = x * y) / y == x */\n    tag_666:\n        /* \"CoreContracts/kalyswap-periphery/libraries/SafeMath.sol\":497:560  require(y == 0 || (z = x * y) / y == x, 'ds-math-mul-overflow') */\n      tag_235\n      jumpi\n      0x40\n      dup1\n      mload\n      shl(0xe5, 0x461bcd)\n      dup2\n      mstore\n      0x20\n      0x04\n      dup3\n      add\n      mstore\n      0x14\n      0x24\n      dup3\n      add\n      mstore\n      0x64732d6d6174682d6d756c2d6f766572666c6f77000000000000000000000000\n      0x44\n      dup3\n      add\n      mstore\n      swap1\n      mload\n      swap1\n      dup2\n      swap1\n      sub\n      0x64\n      add\n      swap1\n      revert\n        /* \"CoreContracts/kalyswap-periphery/libraries/SafeMath.sol\":162:288  function add(uint x, uint y) internal pure returns (uint z) {... */\n    tag_497:\n        /* \"CoreContracts/kalyswap-periphery/libraries/SafeMath.sol\":245:250  x + y */\n      dup1\n      dup3\n      add\n        /* \"CoreContracts/kalyswap-periphery/libraries/SafeMath.sol\":240:256  (z = x + y) >= x */\n      dup3\n      dup2\n      lt\n      iszero\n        /* \"CoreContracts/kalyswap-periphery/libraries/SafeMath.sol\":232:281  require((z = x + y) >= x, 'ds-math-add-overflow') */\n      tag_235\n      jumpi\n      0x40\n      dup1\n      mload\n      shl(0xe5, 0x461bcd)\n      dup2\n      mstore\n      0x20\n      0x04\n      dup3\n      add\n      mstore\n      0x14\n      0x24\n      dup3\n      add\n      mstore\n      0x64732d6d6174682d6164642d6f766572666c6f77000000000000000000000000\n      0x44\n      dup3\n      add\n      mstore\n      swap1\n      mload\n      swap1\n      dup2\n      swap1\n      sub\n      0x64\n      add\n      swap1\n      revert\n        /* \"CoreContracts/kalyswap-periphery/libraries/KalyswapLibrary.sol\":1291:1677  function getReserves(address factory, address tokenA, address tokenB) internal view returns (uint reserveA, uint reserveB) {... */\n    tag_510:\n        /* \"CoreContracts/kalyswap-periphery/libraries/KalyswapLibrary.sol\":1384:1397  uint reserveA */\n      0x00\n        /* \"CoreContracts/kalyswap-periphery/libraries/KalyswapLibrary.sol\":1399:1412  uint reserveB */\n      dup1\n        /* \"CoreContracts/kalyswap-periphery/libraries/KalyswapLibrary.sol\":1425:1439  address token0 */\n      0x00\n        /* \"CoreContracts/kalyswap-periphery/libraries/KalyswapLibrary.sol\":1444:1470  sortTokens(tokenA, tokenB) */\n      tag_672\n        /* \"CoreContracts/kalyswap-periphery/libraries/KalyswapLibrary.sol\":1455:1461  tokenA */\n      dup6\n        /* \"CoreContracts/kalyswap-periphery/libraries/KalyswapLibrary.sol\":1463:1469  tokenB */\n      dup6\n        /* \"CoreContracts/kalyswap-periphery/libraries/KalyswapLibrary.sol\":1444:1454  sortTokens */\n      tag_441\n        /* \"CoreContracts/kalyswap-periphery/libraries/KalyswapLibrary.sol\":1444:1470  sortTokens(tokenA, tokenB) */\n      jump\t// in\n    tag_672:\n        /* \"CoreContracts/kalyswap-periphery/libraries/KalyswapLibrary.sol\":1424:1470  (address token0,) = sortTokens(tokenA, tokenB) */\n      pop\n      swap1\n      pop\n        /* \"CoreContracts/kalyswap-periphery/libraries/KalyswapLibrary.sol\":1481:1494  uint reserve0 */\n      0x00\n        /* \"CoreContracts/kalyswap-periphery/libraries/KalyswapLibrary.sol\":1496:1509  uint reserve1 */\n      dup1\n        /* \"CoreContracts/kalyswap-periphery/libraries/KalyswapLibrary.sol\":1528:1560  pairFor(factory, tokenA, tokenB) */\n      tag_673\n        /* \"CoreContracts/kalyswap-periphery/libraries/KalyswapLibrary.sol\":1536:1543  factory */\n      dup9\n        /* \"CoreContracts/kalyswap-periphery/libraries/KalyswapLibrary.sol\":1545:1551  tokenA */\n      dup9\n        /* \"CoreContracts/kalyswap-periphery/libraries/KalyswapLibrary.sol\":1553:1559  tokenB */\n      dup9\n        /* \"CoreContracts/kalyswap-periphery/libraries/KalyswapLibrary.sol\":1528:1535  pairFor */\n      tag_201\n        /* \"CoreContracts/kalyswap-periphery/libraries/KalyswapLibrary.sol\":1528:1560  pairFor(factory, tokenA, tokenB) */\n      jump\t// in\n    tag_673:\n      sub(shl(0xa0, 0x01), 0x01)\n        /* \"CoreContracts/kalyswap-periphery/libraries/KalyswapLibrary.sol\":1514:1573  IKalyswapPair(pairFor(factory, tokenA, tokenB)).getReserves */\n      and\n      0x0902f1ac\n        /* \"CoreContracts/kalyswap-periphery/libraries/KalyswapLibrary.sol\":1514:1575  IKalyswapPair(pairFor(factory, tokenA, tokenB)).getReserves() */\n      mload(0x40)\n      dup2\n      0xffffffff\n      and\n      0xe0\n      shl\n      dup2\n      mstore\n      0x04\n      add\n      0x60\n      mload(0x40)\n      dup1\n      dup4\n      sub\n      dup2\n      dup7\n      dup1\n      extcodesize\n      iszero\n        /* \"--CODEGEN--\":5:14   */\n      dup1\n        /* \"--CODEGEN--\":2:4   */\n      iszero\n      tag_674\n      jumpi\n        /* \"--CODEGEN--\":27:28   */\n      0x00\n        /* \"--CODEGEN--\":24:25   */\n      dup1\n        /* \"--CODEGEN--\":17:29   */\n      revert\n        /* \"--CODEGEN--\":2:4   */\n    tag_674:\n        /* \"CoreContracts/kalyswap-periphery/libraries/KalyswapLibrary.sol\":1514:1575  IKalyswapPair(pairFor(factory, tokenA, tokenB)).getReserves() */\n      pop\n      gas\n      staticcall\n      iszero\n        /* \"--CODEGEN--\":8:17   */\n      dup1\n        /* \"--CODEGEN--\":5:7   */\n      iszero\n      tag_676\n      jumpi\n        /* \"--CODEGEN--\":45:61   */\n      returndatasize\n        /* \"--CODEGEN--\":42:43   */\n      0x00\n        /* \"--CODEGEN--\":39:40   */\n      dup1\n        /* \"--CODEGEN--\":24:62   */\n      returndatacopy\n        /* \"--CODEGEN--\":77:93   */\n      returndatasize\n        /* \"--CODEGEN--\":74:75   */\n      0x00\n        /* \"--CODEGEN--\":67:94   */\n      revert\n        /* \"--CODEGEN--\":5:7   */\n    tag_676:\n        /* \"CoreContracts/kalyswap-periphery/libraries/KalyswapLibrary.sol\":1514:1575  IKalyswapPair(pairFor(factory, tokenA, tokenB)).getReserves() */\n      pop\n      pop\n      pop\n      pop\n      mload(0x40)\n      returndatasize\n        /* \"--CODEGEN--\":15:17   */\n      0x60\n        /* \"--CODEGEN--\":10:13   */\n      dup2\n        /* \"--CODEGEN--\":7:18   */\n      lt\n        /* \"--CODEGEN--\":4:6   */\n      iszero\n      tag_677\n      jumpi\n        /* \"--CODEGEN--\":31:32   */\n      0x00\n        /* \"--CODEGEN--\":28:29   */\n      dup1\n        /* \"--CODEGEN--\":21:33   */\n      revert\n        /* \"--CODEGEN--\":4:6   */\n    tag_677:\n      pop\n        /* \"CoreContracts/kalyswap-periphery/libraries/KalyswapLibrary.sol\":1514:1575  IKalyswapPair(pairFor(factory, tokenA, tokenB)).getReserves() */\n      dup1\n      mload\n      0x20\n      swap1\n      swap2\n      add\n      mload\n        /* \"CoreContracts/kalyswap-periphery/libraries/KalyswapLibrary.sol\":1480:1575  (uint reserve0, uint reserve1,) = IKalyswapPair(pairFor(factory, tokenA, tokenB)).getReserves() */\n      0xffffffffffffffffffffffffffff\n      swap2\n      dup3\n      and\n      swap4\n      pop\n      and\n      swap1\n      pop\n      sub(shl(0xa0, 0x01), 0x01)\n        /* \"CoreContracts/kalyswap-periphery/libraries/KalyswapLibrary.sol\":1608:1624  tokenA == token0 */\n      dup8\n      dup2\n      and\n      swap1\n      dup5\n      and\n      eq\n        /* \"CoreContracts/kalyswap-periphery/libraries/KalyswapLibrary.sol\":1608:1670  tokenA == token0 ? (reserve0, reserve1) : (reserve1, reserve0) */\n      tag_678\n      jumpi\n        /* \"CoreContracts/kalyswap-periphery/libraries/KalyswapLibrary.sol\":1651:1659  reserve1 */\n      dup1\n        /* \"CoreContracts/kalyswap-periphery/libraries/KalyswapLibrary.sol\":1661:1669  reserve0 */\n      dup3\n        /* \"CoreContracts/kalyswap-periphery/libraries/KalyswapLibrary.sol\":1608:1670  tokenA == token0 ? (reserve0, reserve1) : (reserve1, reserve0) */\n      jump(tag_679)\n    tag_678:\n        /* \"CoreContracts/kalyswap-periphery/libraries/KalyswapLibrary.sol\":1628:1636  reserve0 */\n      dup2\n        /* \"CoreContracts/kalyswap-periphery/libraries/KalyswapLibrary.sol\":1638:1646  reserve1 */\n      dup2\n        /* \"CoreContracts/kalyswap-periphery/libraries/KalyswapLibrary.sol\":1608:1670  tokenA == token0 ? (reserve0, reserve1) : (reserve1, reserve0) */\n    tag_679:\n        /* \"CoreContracts/kalyswap-periphery/libraries/KalyswapLibrary.sol\":1585:1670  (reserveA, reserveB) = tokenA == token0 ? (reserve0, reserve1) : (reserve1, reserve0) */\n      swap1\n      swap10\n      swap1\n      swap9\n      pop\n        /* \"CoreContracts/kalyswap-periphery/libraries/KalyswapLibrary.sol\":1291:1677  function getReserves(address factory, address tokenA, address tokenB) internal view returns (uint reserveA, uint reserveB) {... */\n      swap7\n      pop\n      pop\n      pop\n      pop\n      pop\n      pop\n      pop\n      jump\t// out\n    stop\n    data_1129a09fdceed6d909941dc66391f1ae42b2f33eabad87c9f626e624f727698a 4b616c7973776170526f757465723a204558434553534956455f494e5055545f414d4f554e54\n    data_49c0cc17d4ead4e3576fd5821635b4dbcb380d28eacc0ec3224c9a50b423145d 4b616c7973776170526f757465723a20494e53554646494349454e545f415f414d4f554e54\n    data_69424968b2f941cdfb32abf1c018d39f661402aca14098785e89d085b08f7f30 4b616c7973776170526f757465723a20494e53554646494349454e545f4f55545055545f414d4f554e54\n    data_785ac6fdfe4b7e430b8722c678adce81c4a810e27d12d15fc32e44f8922088bf 4b616c79737761704c6962726172793a20494e53554646494349454e545f4f55545055545f414d4f554e54\n    data_78840e091b36f1ae3c2e726985d3fca034feef7c212a1c9737acba643adee0ed 4b616c79737761704c6962726172793a20494e53554646494349454e545f414d4f554e54\n    data_7e0c4f90e95b6476ec75f64011a8b45efc0942d23cfeb210d95b189260a1bd07 4b616c79737761704c6962726172793a20494e53554646494349454e545f494e5055545f414d4f554e54\n    data_89fe9709b41c53d59ac0f653a160c86498d9f7113bebc11c040f6d84fe442ee6 5472616e7366657248656c7065723a204b4c435f5452414e534645525f4641494c4544\n    data_9074bfdb993f0f76350cad6ff16b034dab298eea08ad462e08506031f49a76e1 4b616c79737761704c6962726172793a20494e53554646494349454e545f4c4951554944495459\n    data_ab28017c087a4dba5dbee469b5894ce405ae562516de110c18f366f606b992f5 4b616c7973776170526f757465723a20494e53554646494349454e545f425f414d4f554e54\n    data_affda7322f5b5be1ab629127c6ad763b2cc175da15e3282efd26f0280fcd8b37 4b616c79737761704c6962726172793a204944454e544943414c5f414444524553534553\n    data_c37a5828941e3f3d234159361fc5f20834c08e197405b7b4d61af4ea6dee60a5 4b616c7973776170526f757465723a2045585049524544000000000000000000\n    data_eb2904bf3c0c9ae693b53eb0188a703c388998a9c405b7965ca678cef9a51d18 5472616e7366657248656c7065723a205452414e534645525f46524f4d5f4641494c4544\n\n    auxdata: 0xa26469706673582212204666fe029987a189ee2ea825ae0a6ad6161d6b1509748125a1f6f73ef4f3556964736f6c63430006060033\n}\n",
				"bytecode": {
					"linkReferences": {},
					"object": "60c060405234801561001057600080fd5b50604051620048e8380380620048e88339818101604052604081101561003557600080fd5b5080516020909101516001600160601b0319606092831b8116608052911b1660a05260805160601c60a05160601c614763620001856000398061019f5280610d525280610f7f5280611040528061108e52806111c25280611271528061185652806118ac52806118e052806119545280611bff5280611c3a5280611d215280611e765280611efe52806120bf5280612217528061229f5280612420528061252c52806125e252806126ae528061275552806127c95280612cde5280612e12525080610df25280610ec6528061106c52806112fe5280611337528061147252806115dc528061188a5280611b045280611dc65280611f30528061216452806122d152806127fb5280612a545280612c655280612c8e5280612cbc5280612eb25280612fc652806135d552806136185280613b8a5280613d105280613f005280613fc7528061404752506147636000f3fe60806040526004361061018f5760003560e01c8063ad477b4d116100d6578063baa2abde1161007f578063d3b5b4c811610059578063d3b5b4c814610b80578063d53a791e14610bf3578063e8e3370014610c8b576101c8565b8063baa2abde14610a57578063c45a015514610ab4578063d06ca61f14610ac9576101c8565b8063b6124cc7116100b0578063b6124cc7146108b3578063b6e1d02414610939578063b6f315e9146109d1576101c8565b8063ad477b4d146107a4578063ad615dec146107f7578063ad87fb0a1461082d576101c8565b80632195995c11610138578063801ef55d11610112578063801ef55d1461067257806385f8c259146106d65780638803dbee1461070c576101c8565b80632195995c146104c457806338ed1739146105425780635c11d795146105da576101c8565b8063114445f911610169578063114445f91461032e578063173dab80146103ba5780631f00ca741461040d576101c8565b8063054d50d4146101cd578063056d950514610215578063105e4308146102fd576101c8565b366101c857336001600160a01b037f000000000000000000000000000000000000000000000000000000000000000016146101c657fe5b005b600080fd5b3480156101d957600080fd5b50610203600480360360608110156101f057600080fd5b5080359060208101359060400135610ced565b60408051918252519081900360200190f35b34801561022157600080fd5b506102ad600480360360a081101561023857600080fd5b81359160208101359181019060608101604082013564010000000081111561025f57600080fd5b82018360208201111561027157600080fd5b8035906020019184602083028401116401000000008311171561029357600080fd5b91935091506001600160a01b038135169060200135610d02565b60408051602080825283518183015283519192839290830191858101910280838360005b838110156102e95781810151838201526020016102d1565b505050509050019250505060405180910390f35b34801561030957600080fd5b5061031261103e565b604080516001600160a01b039092168252519081900360200190f35b34801561033a57600080fd5b506103a1600480360361014081101561035257600080fd5b506001600160a01b0381358116916020810135916040820135916060810135916080820135169060a08101359060c081013515159060ff60e08201351690610100810135906101200135611062565b6040805192835260208301919091528051918290030190f35b3480156103c657600080fd5b50610203600480360360c08110156103dd57600080fd5b506001600160a01b0381358116916020810135916040820135916060810135916080820135169060a00135611176565b34801561041957600080fd5b506102ad6004803603604081101561043057600080fd5b8135919081019060408101602082013564010000000081111561045257600080fd5b82018360208201111561046457600080fd5b8035906020019184602083028401116401000000008311171561048657600080fd5b9190808060200260200160405190810160405280939291908181526020018383602002808284376000920191909152509295506112f7945050505050565b3480156104d057600080fd5b506103a160048036036101608110156104e857600080fd5b506001600160a01b038135811691602081013582169160408201359160608101359160808201359160a08101359091169060c08101359060e081013515159060ff610100820135169061012081013590610140013561132d565b34801561054e57600080fd5b506102ad600480360360a081101561056557600080fd5b81359160208101359181019060608101604082013564010000000081111561058c57600080fd5b82018360208201111561059e57600080fd5b803590602001918460208302840111640100000000831117156105c057600080fd5b91935091506001600160a01b038135169060200135611427565b3480156105e657600080fd5b506101c6600480360360a08110156105fd57600080fd5b81359160208101359181019060608101604082013564010000000081111561062457600080fd5b82018360208201111561063657600080fd5b8035906020019184602083028401116401000000008311171561065857600080fd5b91935091506001600160a01b038135169060200135611572565b6106b8600480360360c081101561068857600080fd5b506001600160a01b0381358116916020810135916040820135916060810135916080820135169060a00135611807565b60408051938452602084019290925282820152519081900360600190f35b3480156106e257600080fd5b50610203600480360360608110156106f957600080fd5b5080359060208101359060400135611aac565b34801561071857600080fd5b506102ad600480360360a081101561072f57600080fd5b81359160208101359181019060608101604082013564010000000081111561075657600080fd5b82018360208201111561076857600080fd5b8035906020019184602083028401116401000000008311171561078a57600080fd5b91935091506001600160a01b038135169060200135611ab9565b3480156107b057600080fd5b506103a1600480360360c08110156107c757600080fd5b506001600160a01b0381358116916020810135916040820135916060810135916080820135169060a00135611bb2565b34801561080357600080fd5b506102036004803603606081101561081a57600080fd5b5080359060208101359060400135611ccc565b6102ad6004803603608081101561084357600080fd5b8135919081019060408101602082013564010000000081111561086557600080fd5b82018360208201111561087757600080fd5b8035906020019184602083028401116401000000008311171561089957600080fd5b91935091506001600160a01b038135169060200135611cd9565b6102ad600480360360808110156108c957600080fd5b813591908101906040810160208201356401000000008111156108eb57600080fd5b8201836020820111156108fd57600080fd5b8035906020019184602083028401116401000000008311171561091f57600080fd5b91935091506001600160a01b038135169060200135612077565b34801561094557600080fd5b506101c6600480360360a081101561095c57600080fd5b81359160208101359181019060608101604082013564010000000081111561098357600080fd5b82018360208201111561099557600080fd5b803590602001918460208302840111640100000000831117156109b757600080fd5b91935091506001600160a01b0381351690602001356123d2565b6101c6600480360360808110156109e757600080fd5b81359190810190604081016020820135640100000000811115610a0957600080fd5b820183602082011115610a1b57600080fd5b80359060200191846020830284011164010000000083111715610a3d57600080fd5b91935091506001600160a01b038135169060200135612668565b348015610a6357600080fd5b506103a1600480360360e0811015610a7a57600080fd5b506001600160a01b038135811691602081013582169160408201359160608101359160808201359160a08101359091169060c00135612a06565b348015610ac057600080fd5b50610312612c63565b348015610ad557600080fd5b506102ad60048036036040811015610aec57600080fd5b81359190810190604081016020820135640100000000811115610b0e57600080fd5b820183602082011115610b2057600080fd5b80359060200191846020830284011164010000000083111715610b4257600080fd5b919080806020026020016040519081016040528093929190818152602001838360200280828437600092019190915250929550612c87945050505050565b348015610b8c57600080fd5b506102036004803603610140811015610ba457600080fd5b506001600160a01b0381358116916020810135916040820135916060810135916080820135169060a08101359060c081013515159060ff60e08201351690610100810135906101200135612cb4565b348015610bff57600080fd5b506102ad600480360360a0811015610c1657600080fd5b813591602081013591810190606081016040820135640100000000811115610c3d57600080fd5b820183602082011115610c4f57600080fd5b80359060200191846020830284011164010000000083111715610c7157600080fd5b91935091506001600160a01b038135169060200135612dc2565b348015610c9757600080fd5b506106b86004803603610100811015610caf57600080fd5b506001600160a01b038135811691602081013582169160408201359160608101359160808201359160a08101359160c0820135169060e00135612f63565b6000610cfa84848461309f565b949350505050565b60608142811015610d48576040805162461bcd60e51b815260206004820152601760248201526000805160206146ea833981519152604482015290519081900360640190fd5b6001600160a01b037f00000000000000000000000000000000000000000000000000000000000000001686866000198101818110610d8257fe5b905060200201356001600160a01b03166001600160a01b031614610ded576040805162461bcd60e51b815260206004820152601c60248201527f4b616c7973776170526f757465723a20494e56414c49445f5041544800000000604482015290519081900360640190fd5b610e4b7f00000000000000000000000000000000000000000000000000000000000000008988888080602002602001604051908101604052809392919081815260200183836020028082843760009201919091525061318f92505050565b91508682600081518110610e5b57fe5b60200260200101511115610ea05760405162461bcd60e51b81526004018080602001828103825260268152602001806145696026913960400191505060405180910390fd5b610f3e86866000818110610eb057fe5b905060200201356001600160a01b031633610f247f00000000000000000000000000000000000000000000000000000000000000008a8a6000818110610ef257fe5b905060200201356001600160a01b03168b8b6001818110610f0f57fe5b905060200201356001600160a01b03166132dc565b85600081518110610f3157fe5b60200260200101516133b4565b610f7d82878780806020026020016040519081016040528093929190818152602001838360200280828437600092019190915250309250613526915050565b7f00000000000000000000000000000000000000000000000000000000000000006001600160a01b0316632e1a7d4d83600185510381518110610fbc57fe5b60200260200101516040518263ffffffff1660e01b815260040180828152602001915050600060405180830381600087803b158015610ffa57600080fd5b505af115801561100e573d6000803e3d6000fd5b50505050611033848360018551038151811061102657fe5b602002602001015161376c565b509695505050505050565b7f000000000000000000000000000000000000000000000000000000000000000081565b60008060006110b27f00000000000000000000000000000000000000000000000000000000000000008e7f00000000000000000000000000000000000000000000000000000000000000006132dc565b90506000876110c1578c6110c5565b6000195b6040805163d505accf60e01b815233600482015230602482015260448101839052606481018c905260ff8a16608482015260a4810189905260c4810188905290519192506001600160a01b0384169163d505accf9160e48082019260009290919082900301818387803b15801561113b57600080fd5b505af115801561114f573d6000803e3d6000fd5b505050506111618e8e8e8e8e8e611bb2565b909f909e509c50505050505050505050505050565b600081428110156111bc576040805162461bcd60e51b815260206004820152601760248201526000805160206146ea833981519152604482015290519081900360640190fd5b6111eb887f00000000000000000000000000000000000000000000000000000000000000008989893089612a06565b604080516370a0823160e01b8152306004820152905191945061126f92508a9187916001600160a01b038416916370a0823191602480820192602092909190829003018186803b15801561123e57600080fd5b505afa158015611252573d6000803e3d6000fd5b505050506040513d602081101561126857600080fd5b5051613864565b7f00000000000000000000000000000000000000000000000000000000000000006001600160a01b0316632e1a7d4d836040518263ffffffff1660e01b815260040180828152602001915050600060405180830381600087803b1580156112d557600080fd5b505af11580156112e9573d6000803e3d6000fd5b50505050611033848361376c565b60606113247f0000000000000000000000000000000000000000000000000000000000000000848461318f565b90505b92915050565b600080600061135d7f00000000000000000000000000000000000000000000000000000000000000008f8f6132dc565b905060008761136c578c611370565b6000195b6040805163d505accf60e01b815233600482015230602482015260448101839052606481018c905260ff8a16608482015260a4810189905260c4810188905290519192506001600160a01b0384169163d505accf9160e48082019260009290919082900301818387803b1580156113e657600080fd5b505af11580156113fa573d6000803e3d6000fd5b5050505061140d8f8f8f8f8f8f8f612a06565b809450819550505050509b509b9950505050505050505050565b6060814281101561146d576040805162461bcd60e51b815260206004820152601760248201526000805160206146ea833981519152604482015290519081900360640190fd5b6114cb7f0000000000000000000000000000000000000000000000000000000000000000898888808060200260200160405190810160405280939291908181526020018383602002808284376000920191909152506139fc92505050565b915086826001845103815181106114de57fe5b602002602001015110156115235760405162461bcd60e51b815260040180806020018281038252602a8152602001806145b4602a913960400191505060405180910390fd5b61153386866000818110610eb057fe5b61103382878780806020026020016040519081016040528093929190818152602001838360200280828437600092019190915250899250613526915050565b80428110156115b6576040805162461bcd60e51b815260206004820152601760248201526000805160206146ea833981519152604482015290519081900360640190fd5b61162b858560008181106115c657fe5b905060200201356001600160a01b0316336116257f00000000000000000000000000000000000000000000000000000000000000008989600081811061160857fe5b905060200201356001600160a01b03168a8a6001818110610f0f57fe5b8a6133b4565b60008585600019810181811061163d57fe5b905060200201356001600160a01b03166001600160a01b03166370a08231856040518263ffffffff1660e01b815260040180826001600160a01b03166001600160a01b0316815260200191505060206040518083038186803b1580156116a257600080fd5b505afa1580156116b6573d6000803e3d6000fd5b505050506040513d60208110156116cc57600080fd5b5051604080516020888102828101820190935288825292935061170e929091899189918291850190849080828437600092019190915250889250613b33915050565b866117c0828888600019810181811061172357fe5b905060200201356001600160a01b03166001600160a01b03166370a08231886040518263ffffffff1660e01b815260040180826001600160a01b03166001600160a01b0316815260200191505060206040518083038186803b15801561178857600080fd5b505afa15801561179c573d6000803e3d6000fd5b505050506040513d60208110156117b257600080fd5b50519063ffffffff613e5e16565b10156117fd5760405162461bcd60e51b815260040180806020018281038252602a8152602001806145b4602a913960400191505060405180910390fd5b5050505050505050565b60008060008342811015611850576040805162461bcd60e51b815260206004820152601760248201526000805160206146ea833981519152604482015290519081900360640190fd5b61187e8a7f00000000000000000000000000000000000000000000000000000000000000008b348c8c613eb6565b909450925060006118d07f00000000000000000000000000000000000000000000000000000000000000008c7f00000000000000000000000000000000000000000000000000000000000000006132dc565b90506118de8b3383886133b4565b7f00000000000000000000000000000000000000000000000000000000000000006001600160a01b031663d0e30db0856040518263ffffffff1660e01b81526004016000604051808303818588803b15801561193957600080fd5b505af115801561194d573d6000803e3d6000fd5b50505050507f00000000000000000000000000000000000000000000000000000000000000006001600160a01b031663a9059cbb82866040518363ffffffff1660e01b815260040180836001600160a01b03166001600160a01b0316815260200182815260200192505050602060405180830381600087803b1580156119d257600080fd5b505af11580156119e6573d6000803e3d6000fd5b505050506040513d60208110156119fc57600080fd5b5051611a0457fe5b806001600160a01b0316636a627842886040518263ffffffff1660e01b815260040180826001600160a01b03166001600160a01b03168152602001915050602060405180830381600087803b158015611a5c57600080fd5b505af1158015611a70573d6000803e3d6000fd5b505050506040513d6020811015611a8657600080fd5b5051925034841015611a9e57611a9e3385340361376c565b505096509650969350505050565b6000610cfa84848461415c565b60608142811015611aff576040805162461bcd60e51b815260206004820152601760248201526000805160206146ea833981519152604482015290519081900360640190fd5b611b5d7f00000000000000000000000000000000000000000000000000000000000000008988888080602002602001604051908101604052809392919081815260200183836020028082843760009201919091525061318f92505050565b91508682600081518110611b6d57fe5b602002602001015111156115235760405162461bcd60e51b81526004018080602001828103825260268152602001806145696026913960400191505060405180910390fd5b6000808242811015611bf9576040805162461bcd60e51b815260206004820152601760248201526000805160206146ea833981519152604482015290519081900360640190fd5b611c28897f00000000000000000000000000000000000000000000000000000000000000008a8a8a308a612a06565b9093509150611c38898685613864565b7f00000000000000000000000000000000000000000000000000000000000000006001600160a01b0316632e1a7d4d836040518263ffffffff1660e01b815260040180828152602001915050600060405180830381600087803b158015611c9e57600080fd5b505af1158015611cb2573d6000803e3d6000fd5b50505050611cc0858361376c565b50965096945050505050565b6000610cfa84848461424c565b60608142811015611d1f576040805162461bcd60e51b815260206004820152601760248201526000805160206146ea833981519152604482015290519081900360640190fd5b7f00000000000000000000000000000000000000000000000000000000000000006001600160a01b031686866000818110611d5657fe5b905060200201356001600160a01b03166001600160a01b031614611dc1576040805162461bcd60e51b815260206004820152601c60248201527f4b616c7973776170526f757465723a20494e56414c49445f5041544800000000604482015290519081900360640190fd5b611e1f7f00000000000000000000000000000000000000000000000000000000000000008888888080602002602001604051908101604052809392919081815260200183836020028082843760009201919091525061318f92505050565b91503482600081518110611e2f57fe5b60200260200101511115611e745760405162461bcd60e51b81526004018080602001828103825260268152602001806145696026913960400191505060405180910390fd5b7f00000000000000000000000000000000000000000000000000000000000000006001600160a01b031663d0e30db083600081518110611eb057fe5b60200260200101516040518263ffffffff1660e01b81526004016000604051808303818588803b158015611ee357600080fd5b505af1158015611ef7573d6000803e3d6000fd5b50505050507f00000000000000000000000000000000000000000000000000000000000000006001600160a01b031663a9059cbb611f5c7f00000000000000000000000000000000000000000000000000000000000000008989600081811061160857fe5b84600081518110611f6957fe5b60200260200101516040518363ffffffff1660e01b815260040180836001600160a01b03166001600160a01b0316815260200182815260200192505050602060405180830381600087803b158015611fc057600080fd5b505af1158015611fd4573d6000803e3d6000fd5b505050506040513d6020811015611fea57600080fd5b5051611ff257fe5b61203182878780806020026020016040519081016040528093929190818152602001838360200280828437600092019190915250899250613526915050565b8160008151811061203e57fe5b602002602001015134111561206d5761206d338360008151811061205e57fe5b6020026020010151340361376c565b5095945050505050565b606081428110156120bd576040805162461bcd60e51b815260206004820152601760248201526000805160206146ea833981519152604482015290519081900360640190fd5b7f00000000000000000000000000000000000000000000000000000000000000006001600160a01b0316868660008181106120f457fe5b905060200201356001600160a01b03166001600160a01b03161461215f576040805162461bcd60e51b815260206004820152601c60248201527f4b616c7973776170526f757465723a20494e56414c49445f5041544800000000604482015290519081900360640190fd5b6121bd7f0000000000000000000000000000000000000000000000000000000000000000348888808060200260200160405190810160405280939291908181526020018383602002808284376000920191909152506139fc92505050565b915086826001845103815181106121d057fe5b602002602001015110156122155760405162461bcd60e51b815260040180806020018281038252602a8152602001806145b4602a913960400191505060405180910390fd5b7f00000000000000000000000000000000000000000000000000000000000000006001600160a01b031663d0e30db08360008151811061225157fe5b60200260200101516040518263ffffffff1660e01b81526004016000604051808303818588803b15801561228457600080fd5b505af1158015612298573d6000803e3d6000fd5b50505050507f00000000000000000000000000000000000000000000000000000000000000006001600160a01b031663a9059cbb6122fd7f00000000000000000000000000000000000000000000000000000000000000008989600081811061160857fe5b8460008151811061230a57fe5b60200260200101516040518363ffffffff1660e01b815260040180836001600160a01b03166001600160a01b0316815260200182815260200192505050602060405180830381600087803b15801561236157600080fd5b505af1158015612375573d6000803e3d6000fd5b505050506040513d602081101561238b57600080fd5b505161239357fe5b61206d82878780806020026020016040519081016040528093929190818152602001838360200280828437600092019190915250899250613526915050565b8042811015612416576040805162461bcd60e51b815260206004820152601760248201526000805160206146ea833981519152604482015290519081900360640190fd5b6001600160a01b037f0000000000000000000000000000000000000000000000000000000000000000168585600019810181811061245057fe5b905060200201356001600160a01b03166001600160a01b0316146124bb576040805162461bcd60e51b815260206004820152601c60248201527f4b616c7973776170526f757465723a20494e56414c49445f5041544800000000604482015290519081900360640190fd5b6124cb858560008181106115c657fe5b612509858580806020026020016040519081016040528093929190818152602001838360200280828437600092019190915250309250613b33915050565b604080516370a0823160e01b815230600482015290516000916001600160a01b037f000000000000000000000000000000000000000000000000000000000000000016916370a0823191602480820192602092909190829003018186803b15801561257357600080fd5b505afa158015612587573d6000803e3d6000fd5b505050506040513d602081101561259d57600080fd5b50519050868110156125e05760405162461bcd60e51b815260040180806020018281038252602a8152602001806145b4602a913960400191505060405180910390fd5b7f00000000000000000000000000000000000000000000000000000000000000006001600160a01b0316632e1a7d4d826040518263ffffffff1660e01b815260040180828152602001915050600060405180830381600087803b15801561264657600080fd5b505af115801561265a573d6000803e3d6000fd5b505050506117fd848261376c565b80428110156126ac576040805162461bcd60e51b815260206004820152601760248201526000805160206146ea833981519152604482015290519081900360640190fd5b7f00000000000000000000000000000000000000000000000000000000000000006001600160a01b0316858560008181106126e357fe5b905060200201356001600160a01b03166001600160a01b03161461274e576040805162461bcd60e51b815260206004820152601c60248201527f4b616c7973776170526f757465723a20494e56414c49445f5041544800000000604482015290519081900360640190fd5b60003490507f00000000000000000000000000000000000000000000000000000000000000006001600160a01b031663d0e30db0826040518263ffffffff1660e01b81526004016000604051808303818588803b1580156127ae57600080fd5b505af11580156127c2573d6000803e3d6000fd5b50505050507f00000000000000000000000000000000000000000000000000000000000000006001600160a01b031663a9059cbb6128277f00000000000000000000000000000000000000000000000000000000000000008989600081811061160857fe5b836040518363ffffffff1660e01b815260040180836001600160a01b03166001600160a01b0316815260200182815260200192505050602060405180830381600087803b15801561287757600080fd5b505af115801561288b573d6000803e3d6000fd5b505050506040513d60208110156128a157600080fd5b50516128a957fe5b6000868660001981018181106128bb57fe5b905060200201356001600160a01b03166001600160a01b03166370a08231866040518263ffffffff1660e01b815260040180826001600160a01b03166001600160a01b0316815260200191505060206040518083038186803b15801561292057600080fd5b505afa158015612934573d6000803e3d6000fd5b505050506040513d602081101561294a57600080fd5b5051604080516020898102828101820190935289825292935061298c9290918a918a918291850190849080828437600092019190915250899250613b33915050565b876117c082898960001981018181106129a157fe5b905060200201356001600160a01b03166001600160a01b03166370a08231896040518263ffffffff1660e01b815260040180826001600160a01b03166001600160a01b0316815260200191505060206040518083038186803b15801561178857600080fd5b6000808242811015612a4d576040805162461bcd60e51b815260206004820152601760248201526000805160206146ea833981519152604482015290519081900360640190fd5b6000612a7a7f00000000000000000000000000000000000000000000000000000000000000008c8c6132dc565b604080516323b872dd60e01b81523360048201526001600160a01b03831660248201819052604482018d9052915192935090916323b872dd916064808201926020929091908290030181600087803b158015612ad557600080fd5b505af1158015612ae9573d6000803e3d6000fd5b505050506040513d6020811015612aff57600080fd5b5050604080517f89afcb440000000000000000000000000000000000000000000000000000000081526001600160a01b03888116600483015282516000938493928616926389afcb44926024808301939282900301818787803b158015612b6557600080fd5b505af1158015612b79573d6000803e3d6000fd5b505050506040513d6040811015612b8f57600080fd5b50805160209091015190925090506000612ba98e8e6142f8565b509050806001600160a01b03168e6001600160a01b031614612bcc578183612bcf565b82825b90975095508a871015612c135760405162461bcd60e51b815260040180806020018281038252602581526020018061458f6025913960400191505060405180910390fd5b89861015612c525760405162461bcd60e51b81526004018080602001828103825260258152602001806146a16025913960400191505060405180910390fd5b505050505097509795505050505050565b7f000000000000000000000000000000000000000000000000000000000000000081565b60606113247f000000000000000000000000000000000000000000000000000000000000000084846139fc565b600080612d027f00000000000000000000000000000000000000000000000000000000000000008d7f00000000000000000000000000000000000000000000000000000000000000006132dc565b9050600086612d11578b612d15565b6000195b6040805163d505accf60e01b815233600482015230602482015260448101839052606481018b905260ff8916608482015260a4810188905260c4810187905290519192506001600160a01b0384169163d505accf9160e48082019260009290919082900301818387803b158015612d8b57600080fd5b505af1158015612d9f573d6000803e3d6000fd5b50505050612db18d8d8d8d8d8d611176565b9d9c50505050505050505050505050565b60608142811015612e08576040805162461bcd60e51b815260206004820152601760248201526000805160206146ea833981519152604482015290519081900360640190fd5b6001600160a01b037f00000000000000000000000000000000000000000000000000000000000000001686866000198101818110612e4257fe5b905060200201356001600160a01b03166001600160a01b031614612ead576040805162461bcd60e51b815260206004820152601c60248201527f4b616c7973776170526f757465723a20494e56414c49445f5041544800000000604482015290519081900360640190fd5b612f0b7f0000000000000000000000000000000000000000000000000000000000000000898888808060200260200160405190810160405280939291908181526020018383602002808284376000920191909152506139fc92505050565b91508682600184510381518110612f1e57fe5b60200260200101511015610ea05760405162461bcd60e51b815260040180806020018281038252602a8152602001806145b4602a913960400191505060405180910390fd5b60008060008342811015612fac576040805162461bcd60e51b815260206004820152601760248201526000805160206146ea833981519152604482015290519081900360640190fd5b612fba8c8c8c8c8c8c613eb6565b90945092506000612fec7f00000000000000000000000000000000000000000000000000000000000000008e8e6132dc565b9050612ffa8d3383886133b4565b6130068c3383876133b4565b806001600160a01b0316636a627842886040518263ffffffff1660e01b815260040180826001600160a01b03166001600160a01b03168152602001915050602060405180830381600087803b15801561305e57600080fd5b505af1158015613072573d6000803e3d6000fd5b505050506040513d602081101561308857600080fd5b5051949d939c50939a509198505050505050505050565b60008084116130df5760405162461bcd60e51b815260040180806020018281038252602a81526020018061462d602a913960400191505060405180910390fd5b6000831180156130ef5750600082115b61312a5760405162461bcd60e51b815260040180806020018281038252602781526020018061467a6027913960400191505060405180910390fd5b600061313e856103e563ffffffff6143d616565b90506000613152828563ffffffff6143d616565b905060006131788361316c886103e863ffffffff6143d616565b9063ffffffff61444216565b905080828161318357fe5b04979650505050505050565b60606002825110156131e8576040805162461bcd60e51b815260206004820152601d60248201527f4b616c79737761704c6962726172793a20494e56414c49445f50415448000000604482015290519081900360640190fd5b815167ffffffffffffffff8111801561320057600080fd5b5060405190808252806020026020018201604052801561322a578160200160208202803683370190505b509050828160018351038151811061323e57fe5b60209081029190910101528151600019015b80156132d45760008061328d8786600186038151811061326c57fe5b602002602001015187868151811061328057fe5b602002602001015161449a565b915091506132af8484815181106132a057fe5b6020026020010151838361415c565b8460018503815181106132be57fe5b6020908102919091010152505060001901613250565b509392505050565b60008060006132eb85856142f8565b604080516bffffffffffffffffffffffff19606094851b811660208084019190915293851b81166034830152825160288184030181526048830184528051908501207fff0000000000000000000000000000000000000000000000000000000000000060688401529a90941b9093166069840152607d8301989098527f7fec1b31c5902185cba102de1e1c0b6a4b20722338e61f0e56de83156ead44f6609d808401919091528851808403909101815260bd909201909752805196019590952095945050505050565b604080516001600160a01b0385811660248301528481166044830152606480830185905283518084039091018152608490920183526020820180517bffffffffffffffffffffffffffffffffffffffffffffffffffffffff166323b872dd60e01b17815292518251600094606094938a169392918291908083835b6020831061344e5780518252601f19909201916020918201910161342f565b6001836020036101000a0380198251168184511680821785525050505050509050019150506000604051808303816000865af19150503d80600081146134b0576040519150601f19603f3d011682016040523d82523d6000602084013e6134b5565b606091505b50915091508180156134e35750805115806134e357508080602001905160208110156134e057600080fd5b50515b61351e5760405162461bcd60e51b815260040180806020018281038252602481526020018061470a6024913960400191505060405180910390fd5b505050505050565b60005b60018351038110156137665760008084838151811061354457fe5b602002602001015185846001018151811061355b57fe5b602002602001015191509150600061357383836142f8565b509050600087856001018151811061358757fe5b60200260200101519050600080836001600160a01b0316866001600160a01b0316146135b5578260006135b9565b6000835b91509150600060028a510388106135d05788613611565b6136117f0000000000000000000000000000000000000000000000000000000000000000878c8b6002018151811061360457fe5b60200260200101516132dc565b905061363e7f000000000000000000000000000000000000000000000000000000000000000088886132dc565b6001600160a01b031663022c0d9f84848460006040519080825280601f01601f19166020018201604052801561367b576020820181803683370190505b506040518563ffffffff1660e01b815260040180858152602001848152602001836001600160a01b03166001600160a01b0316815260200180602001828103825283818151815260200191508051906020019080838360005b838110156136ec5781810151838201526020016136d4565b50505050905090810190601f1680156137195780820380516001836020036101000a031916815260200191505b5095505050505050600060405180830381600087803b15801561373b57600080fd5b505af115801561374f573d6000803e3d6000fd5b505060019099019850613529975050505050505050565b50505050565b604080516000808252602082019092526001600160a01b0384169083906040518082805190602001908083835b602083106137b85780518252601f199092019160209182019101613799565b6001836020036101000a03801982511681845116808217855250505050505090500191505060006040518083038185875af1925050503d806000811461381a576040519150601f19603f3d011682016040523d82523d6000602084013e61381f565b606091505b505090508061385f5760405162461bcd60e51b81526004018080602001828103825260238152602001806146576023913960400191505060405180910390fd5b505050565b604080516001600160a01b038481166024830152604480830185905283518084039091018152606490920183526020820180517bffffffffffffffffffffffffffffffffffffffffffffffffffffffff167fa9059cbb00000000000000000000000000000000000000000000000000000000178152925182516000946060949389169392918291908083835b6020831061390f5780518252601f1990920191602091820191016138f0565b6001836020036101000a0380198251168184511680821785525050505050509050019150506000604051808303816000865af19150503d8060008114613971576040519150601f19603f3d011682016040523d82523d6000602084013e613976565b606091505b50915091508180156139a45750805115806139a457508080602001905160208110156139a157600080fd5b50515b6139f5576040805162461bcd60e51b815260206004820152601f60248201527f5472616e7366657248656c7065723a205452414e534645525f4641494c454400604482015290519081900360640190fd5b5050505050565b6060600282511015613a55576040805162461bcd60e51b815260206004820152601d60248201527f4b616c79737761704c6962726172793a20494e56414c49445f50415448000000604482015290519081900360640190fd5b815167ffffffffffffffff81118015613a6d57600080fd5b50604051908082528060200260200182016040528015613a97578160200160208202803683370190505b5090508281600081518110613aa857fe5b60200260200101818152505060005b60018351038110156132d457600080613aed87868581518110613ad657fe5b602002602001015187866001018151811061328057fe5b91509150613b0f848481518110613b0057fe5b6020026020010151838361309f565b848460010181518110613b1e57fe5b60209081029190910101525050600101613ab7565b60005b600183510381101561385f57600080848381518110613b5157fe5b6020026020010151858460010181518110613b6857fe5b6020026020010151915091506000613b8083836142f8565b5090506000613bb07f000000000000000000000000000000000000000000000000000000000000000085856132dc565b9050600080600080846001600160a01b0316630902f1ac6040518163ffffffff1660e01b815260040160606040518083038186803b158015613bf157600080fd5b505afa158015613c05573d6000803e3d6000fd5b505050506040513d6060811015613c1b57600080fd5b5080516020909101516dffffffffffffffffffffffffffff91821693501690506000806001600160a01b038a811690891614613c58578284613c5b565b83835b91509150613cb9828b6001600160a01b03166370a082318a6040518263ffffffff1660e01b815260040180826001600160a01b03166001600160a01b0316815260200191505060206040518083038186803b15801561178857600080fd5b9550613cc686838361309f565b945050505050600080856001600160a01b0316886001600160a01b031614613cf057826000613cf4565b6000835b91509150600060028c51038a10613d0b578a613d3f565b613d3f7f0000000000000000000000000000000000000000000000000000000000000000898e8d6002018151811061360457fe5b60408051600080825260208201928390527f022c0d9f00000000000000000000000000000000000000000000000000000000835260248201878152604483018790526001600160a01b038086166064850152608060848501908152845160a48601819052969750908c169563022c0d9f958a958a958a9591949193919260c486019290918190849084905b83811015613de2578181015183820152602001613dca565b50505050905090810190601f168015613e0f5780820380516001836020036101000a031916815260200191505b5095505050505050600060405180830381600087803b158015613e3157600080fd5b505af1158015613e45573d6000803e3d6000fd5b50506001909b019a50613b369950505050505050505050565b80820382811115611327576040805162461bcd60e51b815260206004820152601560248201527f64732d6d6174682d7375622d756e646572666c6f770000000000000000000000604482015290519081900360640190fd5b604080517fe6a439050000000000000000000000000000000000000000000000000000000081526001600160a01b03888116600483015287811660248301529151600092839283927f00000000000000000000000000000000000000000000000000000000000000009092169163e6a4390591604480820192602092909190829003018186803b158015613f4957600080fd5b505afa158015613f5d573d6000803e3d6000fd5b505050506040513d6020811015613f7357600080fd5b50516001600160a01b0316141561403f57604080517fc9c653960000000000000000000000000000000000000000000000000000000081526001600160a01b038a81166004830152898116602483015291517f00000000000000000000000000000000000000000000000000000000000000009092169163c9c65396916044808201926020929091908290030181600087803b15801561401257600080fd5b505af1158015614026573d6000803e3d6000fd5b505050506040513d602081101561403c57600080fd5b50505b60008061406d7f00000000000000000000000000000000000000000000000000000000000000008b8b61449a565b9150915081600014801561407f575080155b1561408f5787935086925061414f565b600061409c89848461424c565b90508781116140ef57858110156140e45760405162461bcd60e51b81526004018080602001828103825260258152602001806146a16025913960400191505060405180910390fd5b88945092508261414d565b60006140fc89848661424c565b90508981111561410857fe5b878110156141475760405162461bcd60e51b815260040180806020018281038252602581526020018061458f6025913960400191505060405180910390fd5b94508793505b505b5050965096945050505050565b600080841161419c5760405162461bcd60e51b815260040180806020018281038252602b8152602001806145de602b913960400191505060405180910390fd5b6000831180156141ac5750600082115b6141e75760405162461bcd60e51b815260040180806020018281038252602781526020018061467a6027913960400191505060405180910390fd5b600061420b6103e86141ff868863ffffffff6143d616565b9063ffffffff6143d616565b905060006142256103e56141ff868963ffffffff613e5e16565b9050614242600182848161423557fe5b049063ffffffff61444216565b9695505050505050565b600080841161428c5760405162461bcd60e51b81526004018080602001828103825260248152602001806146096024913960400191505060405180910390fd5b60008311801561429c5750600082115b6142d75760405162461bcd60e51b815260040180806020018281038252602781526020018061467a6027913960400191505060405180910390fd5b826142e8858463ffffffff6143d616565b816142ef57fe5b04949350505050565b600080826001600160a01b0316846001600160a01b0316141561434c5760405162461bcd60e51b81526004018080602001828103825260248152602001806146c66024913960400191505060405180910390fd5b826001600160a01b0316846001600160a01b03161061436c57828461436f565b83835b90925090506001600160a01b0382166143cf576040805162461bcd60e51b815260206004820152601d60248201527f4b616c79737761704c6962726172793a205a45524f5f41444452455353000000604482015290519081900360640190fd5b9250929050565b60008115806143f1575050808202828282816143ee57fe5b04145b611327576040805162461bcd60e51b815260206004820152601460248201527f64732d6d6174682d6d756c2d6f766572666c6f77000000000000000000000000604482015290519081900360640190fd5b80820182811015611327576040805162461bcd60e51b815260206004820152601460248201527f64732d6d6174682d6164642d6f766572666c6f77000000000000000000000000604482015290519081900360640190fd5b60008060006144a985856142f8565b5090506000806144ba8888886132dc565b6001600160a01b0316630902f1ac6040518163ffffffff1660e01b815260040160606040518083038186803b1580156144f257600080fd5b505afa158015614506573d6000803e3d6000fd5b505050506040513d606081101561451c57600080fd5b5080516020909101516dffffffffffffffffffffffffffff91821693501690506001600160a01b0387811690841614614556578082614559565b81815b9099909850965050505050505056fe4b616c7973776170526f757465723a204558434553534956455f494e5055545f414d4f554e544b616c7973776170526f757465723a20494e53554646494349454e545f415f414d4f554e544b616c7973776170526f757465723a20494e53554646494349454e545f4f55545055545f414d4f554e544b616c79737761704c6962726172793a20494e53554646494349454e545f4f55545055545f414d4f554e544b616c79737761704c6962726172793a20494e53554646494349454e545f414d4f554e544b616c79737761704c6962726172793a20494e53554646494349454e545f494e5055545f414d4f554e545472616e7366657248656c7065723a204b4c435f5452414e534645525f4641494c45444b616c79737761704c6962726172793a20494e53554646494349454e545f4c49515549444954594b616c7973776170526f757465723a20494e53554646494349454e545f425f414d4f554e544b616c79737761704c6962726172793a204944454e544943414c5f4144445245535345534b616c7973776170526f757465723a20455850495245440000000000000000005472616e7366657248656c7065723a205452414e534645525f46524f4d5f4641494c4544a26469706673582212204666fe029987a189ee2ea825ae0a6ad6161d6b1509748125a1f6f73ef4f3556964736f6c63430006060033",
					"opcodes": "PUSH1 0xC0 PUSH1 0x40 MSTORE CALLVALUE DUP1 ISZERO PUSH2 0x10 JUMPI PUSH1 0x0 DUP1 REVERT JUMPDEST POP PUSH1 0x40 MLOAD PUSH3 0x48E8 CODESIZE SUB DUP1 PUSH3 0x48E8 DUP4 CODECOPY DUP2 DUP2 ADD PUSH1 0x40 MSTORE PUSH1 0x40 DUP2 LT ISZERO PUSH2 0x35 JUMPI PUSH1 0x0 DUP1 REVERT JUMPDEST POP DUP1 MLOAD PUSH1 0x20 SWAP1 SWAP2 ADD MLOAD PUSH1 0x1 PUSH1 0x1 PUSH1 0x60 SHL SUB NOT PUSH1 0x60 SWAP3 DUP4 SHL DUP2 AND PUSH1 0x80 MSTORE SWAP2 SHL AND PUSH1 0xA0 MSTORE PUSH1 0x80 MLOAD PUSH1 0x60 SHR PUSH1 0xA0 MLOAD PUSH1 0x60 SHR PUSH2 0x4763 PUSH3 0x185 PUSH1 0x0 CODECOPY DUP1 PUSH2 0x19F MSTORE DUP1 PUSH2 0xD52 MSTORE DUP1 PUSH2 0xF7F MSTORE DUP1 PUSH2 0x1040 MSTORE DUP1 PUSH2 0x108E MSTORE DUP1 PUSH2 0x11C2 MSTORE DUP1 PUSH2 0x1271 MSTORE DUP1 PUSH2 0x1856 MSTORE DUP1 PUSH2 0x18AC MSTORE DUP1 PUSH2 0x18E0 MSTORE DUP1 PUSH2 0x1954 MSTORE DUP1 PUSH2 0x1BFF MSTORE DUP1 PUSH2 0x1C3A MSTORE DUP1 PUSH2 0x1D21 MSTORE DUP1 PUSH2 0x1E76 MSTORE DUP1 PUSH2 0x1EFE MSTORE DUP1 PUSH2 0x20BF MSTORE DUP1 PUSH2 0x2217 MSTORE DUP1 PUSH2 0x229F MSTORE DUP1 PUSH2 0x2420 MSTORE DUP1 PUSH2 0x252C MSTORE DUP1 PUSH2 0x25E2 MSTORE DUP1 PUSH2 0x26AE MSTORE DUP1 PUSH2 0x2755 MSTORE DUP1 PUSH2 0x27C9 MSTORE DUP1 PUSH2 0x2CDE MSTORE DUP1 PUSH2 0x2E12 MSTORE POP DUP1 PUSH2 0xDF2 MSTORE DUP1 PUSH2 0xEC6 MSTORE DUP1 PUSH2 0x106C MSTORE DUP1 PUSH2 0x12FE MSTORE DUP1 PUSH2 0x1337 MSTORE DUP1 PUSH2 0x1472 MSTORE DUP1 PUSH2 0x15DC MSTORE DUP1 PUSH2 0x188A MSTORE DUP1 PUSH2 0x1B04 MSTORE DUP1 PUSH2 0x1DC6 MSTORE DUP1 PUSH2 0x1F30 MSTORE DUP1 PUSH2 0x2164 MSTORE DUP1 PUSH2 0x22D1 MSTORE DUP1 PUSH2 0x27FB MSTORE DUP1 PUSH2 0x2A54 MSTORE DUP1 PUSH2 0x2C65 MSTORE DUP1 PUSH2 0x2C8E MSTORE DUP1 PUSH2 0x2CBC MSTORE DUP1 PUSH2 0x2EB2 MSTORE DUP1 PUSH2 0x2FC6 MSTORE DUP1 PUSH2 0x35D5 MSTORE DUP1 PUSH2 0x3618 MSTORE DUP1 PUSH2 0x3B8A MSTORE DUP1 PUSH2 0x3D10 MSTORE DUP1 PUSH2 0x3F00 MSTORE DUP1 PUSH2 0x3FC7 MSTORE DUP1 PUSH2 0x4047 MSTORE POP PUSH2 0x4763 PUSH1 0x0 RETURN INVALID PUSH1 0x80 PUSH1 0x40 MSTORE PUSH1 0x4 CALLDATASIZE LT PUSH2 0x18F JUMPI PUSH1 0x0 CALLDATALOAD PUSH1 0xE0 SHR DUP1 PUSH4 0xAD477B4D GT PUSH2 0xD6 JUMPI DUP1 PUSH4 0xBAA2ABDE GT PUSH2 0x7F JUMPI DUP1 PUSH4 0xD3B5B4C8 GT PUSH2 0x59 JUMPI DUP1 PUSH4 0xD3B5B4C8 EQ PUSH2 0xB80 JUMPI DUP1 PUSH4 0xD53A791E EQ PUSH2 0xBF3 JUMPI DUP1 PUSH4 0xE8E33700 EQ PUSH2 0xC8B JUMPI PUSH2 0x1C8 JUMP JUMPDEST DUP1 PUSH4 0xBAA2ABDE EQ PUSH2 0xA57 JUMPI DUP1 PUSH4 0xC45A0155 EQ PUSH2 0xAB4 JUMPI DUP1 PUSH4 0xD06CA61F EQ PUSH2 0xAC9 JUMPI PUSH2 0x1C8 JUMP JUMPDEST DUP1 PUSH4 0xB6124CC7 GT PUSH2 0xB0 JUMPI DUP1 PUSH4 0xB6124CC7 EQ PUSH2 0x8B3 JUMPI DUP1 PUSH4 0xB6E1D024 EQ PUSH2 0x939 JUMPI DUP1 PUSH4 0xB6F315E9 EQ PUSH2 0x9D1 JUMPI PUSH2 0x1C8 JUMP JUMPDEST DUP1 PUSH4 0xAD477B4D EQ PUSH2 0x7A4 JUMPI DUP1 PUSH4 0xAD615DEC EQ PUSH2 0x7F7 JUMPI DUP1 PUSH4 0xAD87FB0A EQ PUSH2 0x82D JUMPI PUSH2 0x1C8 JUMP JUMPDEST DUP1 PUSH4 0x2195995C GT PUSH2 0x138 JUMPI DUP1 PUSH4 0x801EF55D GT PUSH2 0x112 JUMPI DUP1 PUSH4 0x801EF55D EQ PUSH2 0x672 JUMPI DUP1 PUSH4 0x85F8C259 EQ PUSH2 0x6D6 JUMPI DUP1 PUSH4 0x8803DBEE EQ PUSH2 0x70C JUMPI PUSH2 0x1C8 JUMP JUMPDEST DUP1 PUSH4 0x2195995C EQ PUSH2 0x4C4 JUMPI DUP1 PUSH4 0x38ED1739 EQ PUSH2 0x542 JUMPI DUP1 PUSH4 0x5C11D795 EQ PUSH2 0x5DA JUMPI PUSH2 0x1C8 JUMP JUMPDEST DUP1 PUSH4 0x114445F9 GT PUSH2 0x169 JUMPI DUP1 PUSH4 0x114445F9 EQ PUSH2 0x32E JUMPI DUP1 PUSH4 0x173DAB80 EQ PUSH2 0x3BA JUMPI DUP1 PUSH4 0x1F00CA74 EQ PUSH2 0x40D JUMPI PUSH2 0x1C8 JUMP JUMPDEST DUP1 PUSH4 0x54D50D4 EQ PUSH2 0x1CD JUMPI DUP1 PUSH4 0x56D9505 EQ PUSH2 0x215 JUMPI DUP1 PUSH4 0x105E4308 EQ PUSH2 0x2FD JUMPI PUSH2 0x1C8 JUMP JUMPDEST CALLDATASIZE PUSH2 0x1C8 JUMPI CALLER PUSH1 0x1 PUSH1 0x1 PUSH1 0xA0 SHL SUB PUSH32 0x0 AND EQ PUSH2 0x1C6 JUMPI INVALID JUMPDEST STOP JUMPDEST PUSH1 0x0 DUP1 REVERT JUMPDEST CALLVALUE DUP1 ISZERO PUSH2 0x1D9 JUMPI PUSH1 0x0 DUP1 REVERT JUMPDEST POP PUSH2 0x203 PUSH1 0x4 DUP1 CALLDATASIZE SUB PUSH1 0x60 DUP2 LT ISZERO PUSH2 0x1F0 JUMPI PUSH1 0x0 DUP1 REVERT JUMPDEST POP DUP1 CALLDATALOAD SWAP1 PUSH1 0x20 DUP2 ADD CALLDATALOAD SWAP1 PUSH1 0x40 ADD CALLDATALOAD PUSH2 0xCED JUMP JUMPDEST PUSH1 0x40 DUP1 MLOAD SWAP2 DUP3 MSTORE MLOAD SWAP1 DUP2 SWAP1 SUB PUSH1 0x20 ADD SWAP1 RETURN JUMPDEST CALLVALUE DUP1 ISZERO PUSH2 0x221 JUMPI PUSH1 0x0 DUP1 REVERT JUMPDEST POP PUSH2 0x2AD PUSH1 0x4 DUP1 CALLDATASIZE SUB PUSH1 0xA0 DUP2 LT ISZERO PUSH2 0x238 JUMPI PUSH1 0x0 DUP1 REVERT JUMPDEST DUP2 CALLDATALOAD SWAP2 PUSH1 0x20 DUP2 ADD CALLDATALOAD SWAP2 DUP2 ADD SWAP1 PUSH1 0x60 DUP2 ADD PUSH1 0x40 DUP3 ADD CALLDATALOAD PUSH5 0x100000000 DUP2 GT ISZERO PUSH2 0x25F JUMPI PUSH1 0x0 DUP1 REVERT JUMPDEST DUP3 ADD DUP4 PUSH1 0x20 DUP3 ADD GT ISZERO PUSH2 0x271 JUMPI PUSH1 0x0 DUP1 REVERT JUMPDEST DUP1 CALLDATALOAD SWAP1 PUSH1 0x20 ADD SWAP2 DUP5 PUSH1 0x20 DUP4 MUL DUP5 ADD GT PUSH5 0x100000000 DUP4 GT OR ISZERO PUSH2 0x293 JUMPI PUSH1 0x0 DUP1 REVERT JUMPDEST SWAP2 SWAP4 POP SWAP2 POP PUSH1 0x1 PUSH1 0x1 PUSH1 0xA0 SHL SUB DUP2 CALLDATALOAD AND SWAP1 PUSH1 0x20 ADD CALLDATALOAD PUSH2 0xD02 JUMP JUMPDEST PUSH1 0x40 DUP1 MLOAD PUSH1 0x20 DUP1 DUP3 MSTORE DUP4 MLOAD DUP2 DUP4 ADD MSTORE DUP4 MLOAD SWAP2 SWAP3 DUP4 SWAP3 SWAP1 DUP4 ADD SWAP2 DUP6 DUP2 ADD SWAP2 MUL DUP1 DUP4 DUP4 PUSH1 0x0 JUMPDEST DUP4 DUP2 LT ISZERO PUSH2 0x2E9 JUMPI DUP2 DUP2 ADD MLOAD DUP4 DUP3 ADD MSTORE PUSH1 0x20 ADD PUSH2 0x2D1 JUMP JUMPDEST POP POP POP POP SWAP1 POP ADD SWAP3 POP POP POP PUSH1 0x40 MLOAD DUP1 SWAP2 SUB SWAP1 RETURN JUMPDEST CALLVALUE DUP1 ISZERO PUSH2 0x309 JUMPI PUSH1 0x0 DUP1 REVERT JUMPDEST POP PUSH2 0x312 PUSH2 0x103E JUMP JUMPDEST PUSH1 0x40 DUP1 MLOAD PUSH1 0x1 PUSH1 0x1 PUSH1 0xA0 SHL SUB SWAP1 SWAP3 AND DUP3 MSTORE MLOAD SWAP1 DUP2 SWAP1 SUB PUSH1 0x20 ADD SWAP1 RETURN JUMPDEST CALLVALUE DUP1 ISZERO PUSH2 0x33A JUMPI PUSH1 0x0 DUP1 REVERT JUMPDEST POP PUSH2 0x3A1 PUSH1 0x4 DUP1 CALLDATASIZE SUB PUSH2 0x140 DUP2 LT ISZERO PUSH2 0x352 JUMPI PUSH1 0x0 DUP1 REVERT JUMPDEST POP PUSH1 0x1 PUSH1 0x1 PUSH1 0xA0 SHL SUB DUP2 CALLDATALOAD DUP2 AND SWAP2 PUSH1 0x20 DUP2 ADD CALLDATALOAD SWAP2 PUSH1 0x40 DUP3 ADD CALLDATALOAD SWAP2 PUSH1 0x60 DUP2 ADD CALLDATALOAD SWAP2 PUSH1 0x80 DUP3 ADD CALLDATALOAD AND SWAP1 PUSH1 0xA0 DUP2 ADD CALLDATALOAD SWAP1 PUSH1 0xC0 DUP2 ADD CALLDATALOAD ISZERO ISZERO SWAP1 PUSH1 0xFF PUSH1 0xE0 DUP3 ADD CALLDATALOAD AND SWAP1 PUSH2 0x100 DUP2 ADD CALLDATALOAD SWAP1 PUSH2 0x120 ADD CALLDATALOAD PUSH2 0x1062 JUMP JUMPDEST PUSH1 0x40 DUP1 MLOAD SWAP3 DUP4 MSTORE PUSH1 0x20 DUP4 ADD SWAP2 SWAP1 SWAP2 MSTORE DUP1 MLOAD SWAP2 DUP3 SWAP1 SUB ADD SWAP1 RETURN JUMPDEST CALLVALUE DUP1 ISZERO PUSH2 0x3C6 JUMPI PUSH1 0x0 DUP1 REVERT JUMPDEST POP PUSH2 0x203 PUSH1 0x4 DUP1 CALLDATASIZE SUB PUSH1 0xC0 DUP2 LT ISZERO PUSH2 0x3DD JUMPI PUSH1 0x0 DUP1 REVERT JUMPDEST POP PUSH1 0x1 PUSH1 0x1 PUSH1 0xA0 SHL SUB DUP2 CALLDATALOAD DUP2 AND SWAP2 PUSH1 0x20 DUP2 ADD CALLDATALOAD SWAP2 PUSH1 0x40 DUP3 ADD CALLDATALOAD SWAP2 PUSH1 0x60 DUP2 ADD CALLDATALOAD SWAP2 PUSH1 0x80 DUP3 ADD CALLDATALOAD AND SWAP1 PUSH1 0xA0 ADD CALLDATALOAD PUSH2 0x1176 JUMP JUMPDEST CALLVALUE DUP1 ISZERO PUSH2 0x419 JUMPI PUSH1 0x0 DUP1 REVERT JUMPDEST POP PUSH2 0x2AD PUSH1 0x4 DUP1 CALLDATASIZE SUB PUSH1 0x40 DUP2 LT ISZERO PUSH2 0x430 JUMPI PUSH1 0x0 DUP1 REVERT JUMPDEST DUP2 CALLDATALOAD SWAP2 SWAP1 DUP2 ADD SWAP1 PUSH1 0x40 DUP2 ADD PUSH1 0x20 DUP3 ADD CALLDATALOAD PUSH5 0x100000000 DUP2 GT ISZERO PUSH2 0x452 JUMPI PUSH1 0x0 DUP1 REVERT JUMPDEST DUP3 ADD DUP4 PUSH1 0x20 DUP3 ADD GT ISZERO PUSH2 0x464 JUMPI PUSH1 0x0 DUP1 REVERT JUMPDEST DUP1 CALLDATALOAD SWAP1 PUSH1 0x20 ADD SWAP2 DUP5 PUSH1 0x20 DUP4 MUL DUP5 ADD GT PUSH5 0x100000000 DUP4 GT OR ISZERO PUSH2 0x486 JUMPI PUSH1 0x0 DUP1 REVERT JUMPDEST SWAP2 SWAP1 DUP1 DUP1 PUSH1 0x20 MUL PUSH1 0x20 ADD PUSH1 0x40 MLOAD SWAP1 DUP2 ADD PUSH1 0x40 MSTORE DUP1 SWAP4 SWAP3 SWAP2 SWAP1 DUP2 DUP2 MSTORE PUSH1 0x20 ADD DUP4 DUP4 PUSH1 0x20 MUL DUP1 DUP3 DUP5 CALLDATACOPY PUSH1 0x0 SWAP3 ADD SWAP2 SWAP1 SWAP2 MSTORE POP SWAP3 SWAP6 POP PUSH2 0x12F7 SWAP5 POP POP POP POP POP JUMP JUMPDEST CALLVALUE DUP1 ISZERO PUSH2 0x4D0 JUMPI PUSH1 0x0 DUP1 REVERT JUMPDEST POP PUSH2 0x3A1 PUSH1 0x4 DUP1 CALLDATASIZE SUB PUSH2 0x160 DUP2 LT ISZERO PUSH2 0x4E8 JUMPI PUSH1 0x0 DUP1 REVERT JUMPDEST POP PUSH1 0x1 PUSH1 0x1 PUSH1 0xA0 SHL SUB DUP2 CALLDATALOAD DUP2 AND SWAP2 PUSH1 0x20 DUP2 ADD CALLDATALOAD DUP3 AND SWAP2 PUSH1 0x40 DUP3 ADD CALLDATALOAD SWAP2 PUSH1 0x60 DUP2 ADD CALLDATALOAD SWAP2 PUSH1 0x80 DUP3 ADD CALLDATALOAD SWAP2 PUSH1 0xA0 DUP2 ADD CALLDATALOAD SWAP1 SWAP2 AND SWAP1 PUSH1 0xC0 DUP2 ADD CALLDATALOAD SWAP1 PUSH1 0xE0 DUP2 ADD CALLDATALOAD ISZERO ISZERO SWAP1 PUSH1 0xFF PUSH2 0x100 DUP3 ADD CALLDATALOAD AND SWAP1 PUSH2 0x120 DUP2 ADD CALLDATALOAD SWAP1 PUSH2 0x140 ADD CALLDATALOAD PUSH2 0x132D JUMP JUMPDEST CALLVALUE DUP1 ISZERO PUSH2 0x54E JUMPI PUSH1 0x0 DUP1 REVERT JUMPDEST POP PUSH2 0x2AD PUSH1 0x4 DUP1 CALLDATASIZE SUB PUSH1 0xA0 DUP2 LT ISZERO PUSH2 0x565 JUMPI PUSH1 0x0 DUP1 REVERT JUMPDEST DUP2 CALLDATALOAD SWAP2 PUSH1 0x20 DUP2 ADD CALLDATALOAD SWAP2 DUP2 ADD SWAP1 PUSH1 0x60 DUP2 ADD PUSH1 0x40 DUP3 ADD CALLDATALOAD PUSH5 0x100000000 DUP2 GT ISZERO PUSH2 0x58C JUMPI PUSH1 0x0 DUP1 REVERT JUMPDEST DUP3 ADD DUP4 PUSH1 0x20 DUP3 ADD GT ISZERO PUSH2 0x59E JUMPI PUSH1 0x0 DUP1 REVERT JUMPDEST DUP1 CALLDATALOAD SWAP1 PUSH1 0x20 ADD SWAP2 DUP5 PUSH1 0x20 DUP4 MUL DUP5 ADD GT PUSH5 0x100000000 DUP4 GT OR ISZERO PUSH2 0x5C0 JUMPI PUSH1 0x0 DUP1 REVERT JUMPDEST SWAP2 SWAP4 POP SWAP2 POP PUSH1 0x1 PUSH1 0x1 PUSH1 0xA0 SHL SUB DUP2 CALLDATALOAD AND SWAP1 PUSH1 0x20 ADD CALLDATALOAD PUSH2 0x1427 JUMP JUMPDEST CALLVALUE DUP1 ISZERO PUSH2 0x5E6 JUMPI PUSH1 0x0 DUP1 REVERT JUMPDEST POP PUSH2 0x1C6 PUSH1 0x4 DUP1 CALLDATASIZE SUB PUSH1 0xA0 DUP2 LT ISZERO PUSH2 0x5FD JUMPI PUSH1 0x0 DUP1 REVERT JUMPDEST DUP2 CALLDATALOAD SWAP2 PUSH1 0x20 DUP2 ADD CALLDATALOAD SWAP2 DUP2 ADD SWAP1 PUSH1 0x60 DUP2 ADD PUSH1 0x40 DUP3 ADD CALLDATALOAD PUSH5 0x100000000 DUP2 GT ISZERO PUSH2 0x624 JUMPI PUSH1 0x0 DUP1 REVERT JUMPDEST DUP3 ADD DUP4 PUSH1 0x20 DUP3 ADD GT ISZERO PUSH2 0x636 JUMPI PUSH1 0x0 DUP1 REVERT JUMPDEST DUP1 CALLDATALOAD SWAP1 PUSH1 0x20 ADD SWAP2 DUP5 PUSH1 0x20 DUP4 MUL DUP5 ADD GT PUSH5 0x100000000 DUP4 GT OR ISZERO PUSH2 0x658 JUMPI PUSH1 0x0 DUP1 REVERT JUMPDEST SWAP2 SWAP4 POP SWAP2 POP PUSH1 0x1 PUSH1 0x1 PUSH1 0xA0 SHL SUB DUP2 CALLDATALOAD AND SWAP1 PUSH1 0x20 ADD CALLDATALOAD PUSH2 0x1572 JUMP JUMPDEST PUSH2 0x6B8 PUSH1 0x4 DUP1 CALLDATASIZE SUB PUSH1 0xC0 DUP2 LT ISZERO PUSH2 0x688 JUMPI PUSH1 0x0 DUP1 REVERT JUMPDEST POP PUSH1 0x1 PUSH1 0x1 PUSH1 0xA0 SHL SUB DUP2 CALLDATALOAD DUP2 AND SWAP2 PUSH1 0x20 DUP2 ADD CALLDATALOAD SWAP2 PUSH1 0x40 DUP3 ADD CALLDATALOAD SWAP2 PUSH1 0x60 DUP2 ADD CALLDATALOAD SWAP2 PUSH1 0x80 DUP3 ADD CALLDATALOAD AND SWAP1 PUSH1 0xA0 ADD CALLDATALOAD PUSH2 0x1807 JUMP JUMPDEST PUSH1 0x40 DUP1 MLOAD SWAP4 DUP5 MSTORE PUSH1 0x20 DUP5 ADD SWAP3 SWAP1 SWAP3 MSTORE DUP3 DUP3 ADD MSTORE MLOAD SWAP1 DUP2 SWAP1 SUB PUSH1 0x60 ADD SWAP1 RETURN JUMPDEST CALLVALUE DUP1 ISZERO PUSH2 0x6E2 JUMPI PUSH1 0x0 DUP1 REVERT JUMPDEST POP PUSH2 0x203 PUSH1 0x4 DUP1 CALLDATASIZE SUB PUSH1 0x60 DUP2 LT ISZERO PUSH2 0x6F9 JUMPI PUSH1 0x0 DUP1 REVERT JUMPDEST POP DUP1 CALLDATALOAD SWAP1 PUSH1 0x20 DUP2 ADD CALLDATALOAD SWAP1 PUSH1 0x40 ADD CALLDATALOAD PUSH2 0x1AAC JUMP JUMPDEST CALLVALUE DUP1 ISZERO PUSH2 0x718 JUMPI PUSH1 0x0 DUP1 REVERT JUMPDEST POP PUSH2 0x2AD PUSH1 0x4 DUP1 CALLDATASIZE SUB PUSH1 0xA0 DUP2 LT ISZERO PUSH2 0x72F JUMPI PUSH1 0x0 DUP1 REVERT JUMPDEST DUP2 CALLDATALOAD SWAP2 PUSH1 0x20 DUP2 ADD CALLDATALOAD SWAP2 DUP2 ADD SWAP1 PUSH1 0x60 DUP2 ADD PUSH1 0x40 DUP3 ADD CALLDATALOAD PUSH5 0x100000000 DUP2 GT ISZERO PUSH2 0x756 JUMPI PUSH1 0x0 DUP1 REVERT JUMPDEST DUP3 ADD DUP4 PUSH1 0x20 DUP3 ADD GT ISZERO PUSH2 0x768 JUMPI PUSH1 0x0 DUP1 REVERT JUMPDEST DUP1 CALLDATALOAD SWAP1 PUSH1 0x20 ADD SWAP2 DUP5 PUSH1 0x20 DUP4 MUL DUP5 ADD GT PUSH5 0x100000000 DUP4 GT OR ISZERO PUSH2 0x78A JUMPI PUSH1 0x0 DUP1 REVERT JUMPDEST SWAP2 SWAP4 POP SWAP2 POP PUSH1 0x1 PUSH1 0x1 PUSH1 0xA0 SHL SUB DUP2 CALLDATALOAD AND SWAP1 PUSH1 0x20 ADD CALLDATALOAD PUSH2 0x1AB9 JUMP JUMPDEST CALLVALUE DUP1 ISZERO PUSH2 0x7B0 JUMPI PUSH1 0x0 DUP1 REVERT JUMPDEST POP PUSH2 0x3A1 PUSH1 0x4 DUP1 CALLDATASIZE SUB PUSH1 0xC0 DUP2 LT ISZERO PUSH2 0x7C7 JUMPI PUSH1 0x0 DUP1 REVERT JUMPDEST POP PUSH1 0x1 PUSH1 0x1 PUSH1 0xA0 SHL SUB DUP2 CALLDATALOAD DUP2 AND SWAP2 PUSH1 0x20 DUP2 ADD CALLDATALOAD SWAP2 PUSH1 0x40 DUP3 ADD CALLDATALOAD SWAP2 PUSH1 0x60 DUP2 ADD CALLDATALOAD SWAP2 PUSH1 0x80 DUP3 ADD CALLDATALOAD AND SWAP1 PUSH1 0xA0 ADD CALLDATALOAD PUSH2 0x1BB2 JUMP JUMPDEST CALLVALUE DUP1 ISZERO PUSH2 0x803 JUMPI PUSH1 0x0 DUP1 REVERT JUMPDEST POP PUSH2 0x203 PUSH1 0x4 DUP1 CALLDATASIZE SUB PUSH1 0x60 DUP2 LT ISZERO PUSH2 0x81A JUMPI PUSH1 0x0 DUP1 REVERT JUMPDEST POP DUP1 CALLDATALOAD SWAP1 PUSH1 0x20 DUP2 ADD CALLDATALOAD SWAP1 PUSH1 0x40 ADD CALLDATALOAD PUSH2 0x1CCC JUMP JUMPDEST PUSH2 0x2AD PUSH1 0x4 DUP1 CALLDATASIZE SUB PUSH1 0x80 DUP2 LT ISZERO PUSH2 0x843 JUMPI PUSH1 0x0 DUP1 REVERT JUMPDEST DUP2 CALLDATALOAD SWAP2 SWAP1 DUP2 ADD SWAP1 PUSH1 0x40 DUP2 ADD PUSH1 0x20 DUP3 ADD CALLDATALOAD PUSH5 0x100000000 DUP2 GT ISZERO PUSH2 0x865 JUMPI PUSH1 0x0 DUP1 REVERT JUMPDEST DUP3 ADD DUP4 PUSH1 0x20 DUP3 ADD GT ISZERO PUSH2 0x877 JUMPI PUSH1 0x0 DUP1 REVERT JUMPDEST DUP1 CALLDATALOAD SWAP1 PUSH1 0x20 ADD SWAP2 DUP5 PUSH1 0x20 DUP4 MUL DUP5 ADD GT PUSH5 0x100000000 DUP4 GT OR ISZERO PUSH2 0x899 JUMPI PUSH1 0x0 DUP1 REVERT JUMPDEST SWAP2 SWAP4 POP SWAP2 POP PUSH1 0x1 PUSH1 0x1 PUSH1 0xA0 SHL SUB DUP2 CALLDATALOAD AND SWAP1 PUSH1 0x20 ADD CALLDATALOAD PUSH2 0x1CD9 JUMP JUMPDEST PUSH2 0x2AD PUSH1 0x4 DUP1 CALLDATASIZE SUB PUSH1 0x80 DUP2 LT ISZERO PUSH2 0x8C9 JUMPI PUSH1 0x0 DUP1 REVERT JUMPDEST DUP2 CALLDATALOAD SWAP2 SWAP1 DUP2 ADD SWAP1 PUSH1 0x40 DUP2 ADD PUSH1 0x20 DUP3 ADD CALLDATALOAD PUSH5 0x100000000 DUP2 GT ISZERO PUSH2 0x8EB JUMPI PUSH1 0x0 DUP1 REVERT JUMPDEST DUP3 ADD DUP4 PUSH1 0x20 DUP3 ADD GT ISZERO PUSH2 0x8FD JUMPI PUSH1 0x0 DUP1 REVERT JUMPDEST DUP1 CALLDATALOAD SWAP1 PUSH1 0x20 ADD SWAP2 DUP5 PUSH1 0x20 DUP4 MUL DUP5 ADD GT PUSH5 0x100000000 DUP4 GT OR ISZERO PUSH2 0x91F JUMPI PUSH1 0x0 DUP1 REVERT JUMPDEST SWAP2 SWAP4 POP SWAP2 POP PUSH1 0x1 PUSH1 0x1 PUSH1 0xA0 SHL SUB DUP2 CALLDATALOAD AND SWAP1 PUSH1 0x20 ADD CALLDATALOAD PUSH2 0x2077 JUMP JUMPDEST CALLVALUE DUP1 ISZERO PUSH2 0x945 JUMPI PUSH1 0x0 DUP1 REVERT JUMPDEST POP PUSH2 0x1C6 PUSH1 0x4 DUP1 CALLDATASIZE SUB PUSH1 0xA0 DUP2 LT ISZERO PUSH2 0x95C JUMPI PUSH1 0x0 DUP1 REVERT JUMPDEST DUP2 CALLDATALOAD SWAP2 PUSH1 0x20 DUP2 ADD CALLDATALOAD SWAP2 DUP2 ADD SWAP1 PUSH1 0x60 DUP2 ADD PUSH1 0x40 DUP3 ADD CALLDATALOAD PUSH5 0x100000000 DUP2 GT ISZERO PUSH2 0x983 JUMPI PUSH1 0x0 DUP1 REVERT JUMPDEST DUP3 ADD DUP4 PUSH1 0x20 DUP3 ADD GT ISZERO PUSH2 0x995 JUMPI PUSH1 0x0 DUP1 REVERT JUMPDEST DUP1 CALLDATALOAD SWAP1 PUSH1 0x20 ADD SWAP2 DUP5 PUSH1 0x20 DUP4 MUL DUP5 ADD GT PUSH5 0x100000000 DUP4 GT OR ISZERO PUSH2 0x9B7 JUMPI PUSH1 0x0 DUP1 REVERT JUMPDEST SWAP2 SWAP4 POP SWAP2 POP PUSH1 0x1 PUSH1 0x1 PUSH1 0xA0 SHL SUB DUP2 CALLDATALOAD AND SWAP1 PUSH1 0x20 ADD CALLDATALOAD PUSH2 0x23D2 JUMP JUMPDEST PUSH2 0x1C6 PUSH1 0x4 DUP1 CALLDATASIZE SUB PUSH1 0x80 DUP2 LT ISZERO PUSH2 0x9E7 JUMPI PUSH1 0x0 DUP1 REVERT JUMPDEST DUP2 CALLDATALOAD SWAP2 SWAP1 DUP2 ADD SWAP1 PUSH1 0x40 DUP2 ADD PUSH1 0x20 DUP3 ADD CALLDATALOAD PUSH5 0x100000000 DUP2 GT ISZERO PUSH2 0xA09 JUMPI PUSH1 0x0 DUP1 REVERT JUMPDEST DUP3 ADD DUP4 PUSH1 0x20 DUP3 ADD GT ISZERO PUSH2 0xA1B JUMPI PUSH1 0x0 DUP1 REVERT JUMPDEST DUP1 CALLDATALOAD SWAP1 PUSH1 0x20 ADD SWAP2 DUP5 PUSH1 0x20 DUP4 MUL DUP5 ADD GT PUSH5 0x100000000 DUP4 GT OR ISZERO PUSH2 0xA3D JUMPI PUSH1 0x0 DUP1 REVERT JUMPDEST SWAP2 SWAP4 POP SWAP2 POP PUSH1 0x1 PUSH1 0x1 PUSH1 0xA0 SHL SUB DUP2 CALLDATALOAD AND SWAP1 PUSH1 0x20 ADD CALLDATALOAD PUSH2 0x2668 JUMP JUMPDEST CALLVALUE DUP1 ISZERO PUSH2 0xA63 JUMPI PUSH1 0x0 DUP1 REVERT JUMPDEST POP PUSH2 0x3A1 PUSH1 0x4 DUP1 CALLDATASIZE SUB PUSH1 0xE0 DUP2 LT ISZERO PUSH2 0xA7A JUMPI PUSH1 0x0 DUP1 REVERT JUMPDEST POP PUSH1 0x1 PUSH1 0x1 PUSH1 0xA0 SHL SUB DUP2 CALLDATALOAD DUP2 AND SWAP2 PUSH1 0x20 DUP2 ADD CALLDATALOAD DUP3 AND SWAP2 PUSH1 0x40 DUP3 ADD CALLDATALOAD SWAP2 PUSH1 0x60 DUP2 ADD CALLDATALOAD SWAP2 PUSH1 0x80 DUP3 ADD CALLDATALOAD SWAP2 PUSH1 0xA0 DUP2 ADD CALLDATALOAD SWAP1 SWAP2 AND SWAP1 PUSH1 0xC0 ADD CALLDATALOAD PUSH2 0x2A06 JUMP JUMPDEST CALLVALUE DUP1 ISZERO PUSH2 0xAC0 JUMPI PUSH1 0x0 DUP1 REVERT JUMPDEST POP PUSH2 0x312 PUSH2 0x2C63 JUMP JUMPDEST CALLVALUE DUP1 ISZERO PUSH2 0xAD5 JUMPI PUSH1 0x0 DUP1 REVERT JUMPDEST POP PUSH2 0x2AD PUSH1 0x4 DUP1 CALLDATASIZE SUB PUSH1 0x40 DUP2 LT ISZERO PUSH2 0xAEC JUMPI PUSH1 0x0 DUP1 REVERT JUMPDEST DUP2 CALLDATALOAD SWAP2 SWAP1 DUP2 ADD SWAP1 PUSH1 0x40 DUP2 ADD PUSH1 0x20 DUP3 ADD CALLDATALOAD PUSH5 0x100000000 DUP2 GT ISZERO PUSH2 0xB0E JUMPI PUSH1 0x0 DUP1 REVERT JUMPDEST DUP3 ADD DUP4 PUSH1 0x20 DUP3 ADD GT ISZERO PUSH2 0xB20 JUMPI PUSH1 0x0 DUP1 REVERT JUMPDEST DUP1 CALLDATALOAD SWAP1 PUSH1 0x20 ADD SWAP2 DUP5 PUSH1 0x20 DUP4 MUL DUP5 ADD GT PUSH5 0x100000000 DUP4 GT OR ISZERO PUSH2 0xB42 JUMPI PUSH1 0x0 DUP1 REVERT JUMPDEST SWAP2 SWAP1 DUP1 DUP1 PUSH1 0x20 MUL PUSH1 0x20 ADD PUSH1 0x40 MLOAD SWAP1 DUP2 ADD PUSH1 0x40 MSTORE DUP1 SWAP4 SWAP3 SWAP2 SWAP1 DUP2 DUP2 MSTORE PUSH1 0x20 ADD DUP4 DUP4 PUSH1 0x20 MUL DUP1 DUP3 DUP5 CALLDATACOPY PUSH1 0x0 SWAP3 ADD SWAP2 SWAP1 SWAP2 MSTORE POP SWAP3 SWAP6 POP PUSH2 0x2C87 SWAP5 POP POP POP POP POP JUMP JUMPDEST CALLVALUE DUP1 ISZERO PUSH2 0xB8C JUMPI PUSH1 0x0 DUP1 REVERT JUMPDEST POP PUSH2 0x203 PUSH1 0x4 DUP1 CALLDATASIZE SUB PUSH2 0x140 DUP2 LT ISZERO PUSH2 0xBA4 JUMPI PUSH1 0x0 DUP1 REVERT JUMPDEST POP PUSH1 0x1 PUSH1 0x1 PUSH1 0xA0 SHL SUB DUP2 CALLDATALOAD DUP2 AND SWAP2 PUSH1 0x20 DUP2 ADD CALLDATALOAD SWAP2 PUSH1 0x40 DUP3 ADD CALLDATALOAD SWAP2 PUSH1 0x60 DUP2 ADD CALLDATALOAD SWAP2 PUSH1 0x80 DUP3 ADD CALLDATALOAD AND SWAP1 PUSH1 0xA0 DUP2 ADD CALLDATALOAD SWAP1 PUSH1 0xC0 DUP2 ADD CALLDATALOAD ISZERO ISZERO SWAP1 PUSH1 0xFF PUSH1 0xE0 DUP3 ADD CALLDATALOAD AND SWAP1 PUSH2 0x100 DUP2 ADD CALLDATALOAD SWAP1 PUSH2 0x120 ADD CALLDATALOAD PUSH2 0x2CB4 JUMP JUMPDEST CALLVALUE DUP1 ISZERO PUSH2 0xBFF JUMPI PUSH1 0x0 DUP1 REVERT JUMPDEST POP PUSH2 0x2AD PUSH1 0x4 DUP1 CALLDATASIZE SUB PUSH1 0xA0 DUP2 LT ISZERO PUSH2 0xC16 JUMPI PUSH1 0x0 DUP1 REVERT JUMPDEST DUP2 CALLDATALOAD SWAP2 PUSH1 0x20 DUP2 ADD CALLDATALOAD SWAP2 DUP2 ADD SWAP1 PUSH1 0x60 DUP2 ADD PUSH1 0x40 DUP3 ADD CALLDATALOAD PUSH5 0x100000000 DUP2 GT ISZERO PUSH2 0xC3D JUMPI PUSH1 0x0 DUP1 REVERT JUMPDEST DUP3 ADD DUP4 PUSH1 0x20 DUP3 ADD GT ISZERO PUSH2 0xC4F JUMPI PUSH1 0x0 DUP1 REVERT JUMPDEST DUP1 CALLDATALOAD SWAP1 PUSH1 0x20 ADD SWAP2 DUP5 PUSH1 0x20 DUP4 MUL DUP5 ADD GT PUSH5 0x100000000 DUP4 GT OR ISZERO PUSH2 0xC71 JUMPI PUSH1 0x0 DUP1 REVERT JUMPDEST SWAP2 SWAP4 POP SWAP2 POP PUSH1 0x1 PUSH1 0x1 PUSH1 0xA0 SHL SUB DUP2 CALLDATALOAD AND SWAP1 PUSH1 0x20 ADD CALLDATALOAD PUSH2 0x2DC2 JUMP JUMPDEST CALLVALUE DUP1 ISZERO PUSH2 0xC97 JUMPI PUSH1 0x0 DUP1 REVERT JUMPDEST POP PUSH2 0x6B8 PUSH1 0x4 DUP1 CALLDATASIZE SUB PUSH2 0x100 DUP2 LT ISZERO PUSH2 0xCAF JUMPI PUSH1 0x0 DUP1 REVERT JUMPDEST POP PUSH1 0x1 PUSH1 0x1 PUSH1 0xA0 SHL SUB DUP2 CALLDATALOAD DUP2 AND SWAP2 PUSH1 0x20 DUP2 ADD CALLDATALOAD DUP3 AND SWAP2 PUSH1 0x40 DUP3 ADD CALLDATALOAD SWAP2 PUSH1 0x60 DUP2 ADD CALLDATALOAD SWAP2 PUSH1 0x80 DUP3 ADD CALLDATALOAD SWAP2 PUSH1 0xA0 DUP2 ADD CALLDATALOAD SWAP2 PUSH1 0xC0 DUP3 ADD CALLDATALOAD AND SWAP1 PUSH1 0xE0 ADD CALLDATALOAD PUSH2 0x2F63 JUMP JUMPDEST PUSH1 0x0 PUSH2 0xCFA DUP5 DUP5 DUP5 PUSH2 0x309F JUMP JUMPDEST SWAP5 SWAP4 POP POP POP POP JUMP JUMPDEST PUSH1 0x60 DUP2 TIMESTAMP DUP2 LT ISZERO PUSH2 0xD48 JUMPI PUSH1 0x40 DUP1 MLOAD PUSH3 0x461BCD PUSH1 0xE5 SHL DUP2 MSTORE PUSH1 0x20 PUSH1 0x4 DUP3 ADD MSTORE PUSH1 0x17 PUSH1 0x24 DUP3 ADD MSTORE PUSH1 0x0 DUP1 MLOAD PUSH1 0x20 PUSH2 0x46EA DUP4 CODECOPY DUP2 MLOAD SWAP2 MSTORE PUSH1 0x44 DUP3 ADD MSTORE SWAP1 MLOAD SWAP1 DUP2 SWAP1 SUB PUSH1 0x64 ADD SWAP1 REVERT JUMPDEST PUSH1 0x1 PUSH1 0x1 PUSH1 0xA0 SHL SUB PUSH32 0x0 AND DUP7 DUP7 PUSH1 0x0 NOT DUP2 ADD DUP2 DUP2 LT PUSH2 0xD82 JUMPI INVALID JUMPDEST SWAP1 POP PUSH1 0x20 MUL ADD CALLDATALOAD PUSH1 0x1 PUSH1 0x1 PUSH1 0xA0 SHL SUB AND PUSH1 0x1 PUSH1 0x1 PUSH1 0xA0 SHL SUB AND EQ PUSH2 0xDED JUMPI PUSH1 0x40 DUP1 MLOAD PUSH3 0x461BCD PUSH1 0xE5 SHL DUP2 MSTORE PUSH1 0x20 PUSH1 0x4 DUP3 ADD MSTORE PUSH1 0x1C PUSH1 0x24 DUP3 ADD MSTORE PUSH32 0x4B616C7973776170526F757465723A20494E56414C49445F5041544800000000 PUSH1 0x44 DUP3 ADD MSTORE SWAP1 MLOAD SWAP1 DUP2 SWAP1 SUB PUSH1 0x64 ADD SWAP1 REVERT JUMPDEST PUSH2 0xE4B PUSH32 0x0 DUP10 DUP9 DUP9 DUP1 DUP1 PUSH1 0x20 MUL PUSH1 0x20 ADD PUSH1 0x40 MLOAD SWAP1 DUP2 ADD PUSH1 0x40 MSTORE DUP1 SWAP4 SWAP3 SWAP2 SWAP1 DUP2 DUP2 MSTORE PUSH1 0x20 ADD DUP4 DUP4 PUSH1 0x20 MUL DUP1 DUP3 DUP5 CALLDATACOPY PUSH1 0x0 SWAP3 ADD SWAP2 SWAP1 SWAP2 MSTORE POP PUSH2 0x318F SWAP3 POP POP POP JUMP JUMPDEST SWAP2 POP DUP7 DUP3 PUSH1 0x0 DUP2 MLOAD DUP2 LT PUSH2 0xE5B JUMPI INVALID JUMPDEST PUSH1 0x20 MUL PUSH1 0x20 ADD ADD MLOAD GT ISZERO PUSH2 0xEA0 JUMPI PUSH1 0x40 MLOAD PUSH3 0x461BCD PUSH1 0xE5 SHL DUP2 MSTORE PUSH1 0x4 ADD DUP1 DUP1 PUSH1 0x20 ADD DUP3 DUP2 SUB DUP3 MSTORE PUSH1 0x26 DUP2 MSTORE PUSH1 0x20 ADD DUP1 PUSH2 0x4569 PUSH1 0x26 SWAP2 CODECOPY PUSH1 0x40 ADD SWAP2 POP POP PUSH1 0x40 MLOAD DUP1 SWAP2 SUB SWAP1 REVERT JUMPDEST PUSH2 0xF3E DUP7 DUP7 PUSH1 0x0 DUP2 DUP2 LT PUSH2 0xEB0 JUMPI INVALID JUMPDEST SWAP1 POP PUSH1 0x20 MUL ADD CALLDATALOAD PUSH1 0x1 PUSH1 0x1 PUSH1 0xA0 SHL SUB AND CALLER PUSH2 0xF24 PUSH32 0x0 DUP11 DUP11 PUSH1 0x0 DUP2 DUP2 LT PUSH2 0xEF2 JUMPI INVALID JUMPDEST SWAP1 POP PUSH1 0x20 MUL ADD CALLDATALOAD PUSH1 0x1 PUSH1 0x1 PUSH1 0xA0 SHL SUB AND DUP12 DUP12 PUSH1 0x1 DUP2 DUP2 LT PUSH2 0xF0F JUMPI INVALID JUMPDEST SWAP1 POP PUSH1 0x20 MUL ADD CALLDATALOAD PUSH1 0x1 PUSH1 0x1 PUSH1 0xA0 SHL SUB AND PUSH2 0x32DC JUMP JUMPDEST DUP6 PUSH1 0x0 DUP2 MLOAD DUP2 LT PUSH2 0xF31 JUMPI INVALID JUMPDEST PUSH1 0x20 MUL PUSH1 0x20 ADD ADD MLOAD PUSH2 0x33B4 JUMP JUMPDEST PUSH2 0xF7D DUP3 DUP8 DUP8 DUP1 DUP1 PUSH1 0x20 MUL PUSH1 0x20 ADD PUSH1 0x40 MLOAD SWAP1 DUP2 ADD PUSH1 0x40 MSTORE DUP1 SWAP4 SWAP3 SWAP2 SWAP1 DUP2 DUP2 MSTORE PUSH1 0x20 ADD DUP4 DUP4 PUSH1 0x20 MUL DUP1 DUP3 DUP5 CALLDATACOPY PUSH1 0x0 SWAP3 ADD SWAP2 SWAP1 SWAP2 MSTORE POP ADDRESS SWAP3 POP PUSH2 0x3526 SWAP2 POP POP JUMP JUMPDEST PUSH32 0x0 PUSH1 0x1 PUSH1 0x1 PUSH1 0xA0 SHL SUB AND PUSH4 0x2E1A7D4D DUP4 PUSH1 0x1 DUP6 MLOAD SUB DUP2 MLOAD DUP2 LT PUSH2 0xFBC JUMPI INVALID JUMPDEST PUSH1 0x20 MUL PUSH1 0x20 ADD ADD MLOAD PUSH1 0x40 MLOAD DUP3 PUSH4 0xFFFFFFFF AND PUSH1 0xE0 SHL DUP2 MSTORE PUSH1 0x4 ADD DUP1 DUP3 DUP2 MSTORE PUSH1 0x20 ADD SWAP2 POP POP PUSH1 0x0 PUSH1 0x40 MLOAD DUP1 DUP4 SUB DUP2 PUSH1 0x0 DUP8 DUP1 EXTCODESIZE ISZERO DUP1 ISZERO PUSH2 0xFFA JUMPI PUSH1 0x0 DUP1 REVERT JUMPDEST POP GAS CALL ISZERO DUP1 ISZERO PUSH2 0x100E JUMPI RETURNDATASIZE PUSH1 0x0 DUP1 RETURNDATACOPY RETURNDATASIZE PUSH1 0x0 REVERT JUMPDEST POP POP POP POP PUSH2 0x1033 DUP5 DUP4 PUSH1 0x1 DUP6 MLOAD SUB DUP2 MLOAD DUP2 LT PUSH2 0x1026 JUMPI INVALID JUMPDEST PUSH1 0x20 MUL PUSH1 0x20 ADD ADD MLOAD PUSH2 0x376C JUMP JUMPDEST POP SWAP7 SWAP6 POP POP POP POP POP POP JUMP JUMPDEST PUSH32 0x0 DUP2 JUMP JUMPDEST PUSH1 0x0 DUP1 PUSH1 0x0 PUSH2 0x10B2 PUSH32 0x0 DUP15 PUSH32 0x0 PUSH2 0x32DC JUMP JUMPDEST SWAP1 POP PUSH1 0x0 DUP8 PUSH2 0x10C1 JUMPI DUP13 PUSH2 0x10C5 JUMP JUMPDEST PUSH1 0x0 NOT JUMPDEST PUSH1 0x40 DUP1 MLOAD PUSH4 0xD505ACCF PUSH1 0xE0 SHL DUP2 MSTORE CALLER PUSH1 0x4 DUP3 ADD MSTORE ADDRESS PUSH1 0x24 DUP3 ADD MSTORE PUSH1 0x44 DUP2 ADD DUP4 SWAP1 MSTORE PUSH1 0x64 DUP2 ADD DUP13 SWAP1 MSTORE PUSH1 0xFF DUP11 AND PUSH1 0x84 DUP3 ADD MSTORE PUSH1 0xA4 DUP2 ADD DUP10 SWAP1 MSTORE PUSH1 0xC4 DUP2 ADD DUP9 SWAP1 MSTORE SWAP1 MLOAD SWAP2 SWAP3 POP PUSH1 0x1 PUSH1 0x1 PUSH1 0xA0 SHL SUB DUP5 AND SWAP2 PUSH4 0xD505ACCF SWAP2 PUSH1 0xE4 DUP1 DUP3 ADD SWAP3 PUSH1 0x0 SWAP3 SWAP1 SWAP2 SWAP1 DUP3 SWAP1 SUB ADD DUP2 DUP4 DUP8 DUP1 EXTCODESIZE ISZERO DUP1 ISZERO PUSH2 0x113B JUMPI PUSH1 0x0 DUP1 REVERT JUMPDEST POP GAS CALL ISZERO DUP1 ISZERO PUSH2 0x114F JUMPI RETURNDATASIZE PUSH1 0x0 DUP1 RETURNDATACOPY RETURNDATASIZE PUSH1 0x0 REVERT JUMPDEST POP POP POP POP PUSH2 0x1161 DUP15 DUP15 DUP15 DUP15 DUP15 DUP15 PUSH2 0x1BB2 JUMP JUMPDEST SWAP1 SWAP16 SWAP1 SWAP15 POP SWAP13 POP POP POP POP POP POP POP POP POP POP POP POP POP JUMP JUMPDEST PUSH1 0x0 DUP2 TIMESTAMP DUP2 LT ISZERO PUSH2 0x11BC JUMPI PUSH1 0x40 DUP1 MLOAD PUSH3 0x461BCD PUSH1 0xE5 SHL DUP2 MSTORE PUSH1 0x20 PUSH1 0x4 DUP3 ADD MSTORE PUSH1 0x17 PUSH1 0x24 DUP3 ADD MSTORE PUSH1 0x0 DUP1 MLOAD PUSH1 0x20 PUSH2 0x46EA DUP4 CODECOPY DUP2 MLOAD SWAP2 MSTORE PUSH1 0x44 DUP3 ADD MSTORE SWAP1 MLOAD SWAP1 DUP2 SWAP1 SUB PUSH1 0x64 ADD SWAP1 REVERT JUMPDEST PUSH2 0x11EB DUP9 PUSH32 0x0 DUP10 DUP10 DUP10 ADDRESS DUP10 PUSH2 0x2A06 JUMP JUMPDEST PUSH1 0x40 DUP1 MLOAD PUSH4 0x70A08231 PUSH1 0xE0 SHL DUP2 MSTORE ADDRESS PUSH1 0x4 DUP3 ADD MSTORE SWAP1 MLOAD SWAP2 SWAP5 POP PUSH2 0x126F SWAP3 POP DUP11 SWAP2 DUP8 SWAP2 PUSH1 0x1 PUSH1 0x1 PUSH1 0xA0 SHL SUB DUP5 AND SWAP2 PUSH4 0x70A08231 SWAP2 PUSH1 0x24 DUP1 DUP3 ADD SWAP3 PUSH1 0x20 SWAP3 SWAP1 SWAP2 SWAP1 DUP3 SWAP1 SUB ADD DUP2 DUP7 DUP1 EXTCODESIZE ISZERO DUP1 ISZERO PUSH2 0x123E JUMPI PUSH1 0x0 DUP1 REVERT JUMPDEST POP GAS STATICCALL ISZERO DUP1 ISZERO PUSH2 0x1252 JUMPI RETURNDATASIZE PUSH1 0x0 DUP1 RETURNDATACOPY RETURNDATASIZE PUSH1 0x0 REVERT JUMPDEST POP POP POP POP PUSH1 0x40 MLOAD RETURNDATASIZE PUSH1 0x20 DUP2 LT ISZERO PUSH2 0x1268 JUMPI PUSH1 0x0 DUP1 REVERT JUMPDEST POP MLOAD PUSH2 0x3864 JUMP JUMPDEST PUSH32 0x0 PUSH1 0x1 PUSH1 0x1 PUSH1 0xA0 SHL SUB AND PUSH4 0x2E1A7D4D DUP4 PUSH1 0x40 MLOAD DUP3 PUSH4 0xFFFFFFFF AND PUSH1 0xE0 SHL DUP2 MSTORE PUSH1 0x4 ADD DUP1 DUP3 DUP2 MSTORE PUSH1 0x20 ADD SWAP2 POP POP PUSH1 0x0 PUSH1 0x40 MLOAD DUP1 DUP4 SUB DUP2 PUSH1 0x0 DUP8 DUP1 EXTCODESIZE ISZERO DUP1 ISZERO PUSH2 0x12D5 JUMPI PUSH1 0x0 DUP1 REVERT JUMPDEST POP GAS CALL ISZERO DUP1 ISZERO PUSH2 0x12E9 JUMPI RETURNDATASIZE PUSH1 0x0 DUP1 RETURNDATACOPY RETURNDATASIZE PUSH1 0x0 REVERT JUMPDEST POP POP POP POP PUSH2 0x1033 DUP5 DUP4 PUSH2 0x376C JUMP JUMPDEST PUSH1 0x60 PUSH2 0x1324 PUSH32 0x0 DUP5 DUP5 PUSH2 0x318F JUMP JUMPDEST SWAP1 POP JUMPDEST SWAP3 SWAP2 POP POP JUMP JUMPDEST PUSH1 0x0 DUP1 PUSH1 0x0 PUSH2 0x135D PUSH32 0x0 DUP16 DUP16 PUSH2 0x32DC JUMP JUMPDEST SWAP1 POP PUSH1 0x0 DUP8 PUSH2 0x136C JUMPI DUP13 PUSH2 0x1370 JUMP JUMPDEST PUSH1 0x0 NOT JUMPDEST PUSH1 0x40 DUP1 MLOAD PUSH4 0xD505ACCF PUSH1 0xE0 SHL DUP2 MSTORE CALLER PUSH1 0x4 DUP3 ADD MSTORE ADDRESS PUSH1 0x24 DUP3 ADD MSTORE PUSH1 0x44 DUP2 ADD DUP4 SWAP1 MSTORE PUSH1 0x64 DUP2 ADD DUP13 SWAP1 MSTORE PUSH1 0xFF DUP11 AND PUSH1 0x84 DUP3 ADD MSTORE PUSH1 0xA4 DUP2 ADD DUP10 SWAP1 MSTORE PUSH1 0xC4 DUP2 ADD DUP9 SWAP1 MSTORE SWAP1 MLOAD SWAP2 SWAP3 POP PUSH1 0x1 PUSH1 0x1 PUSH1 0xA0 SHL SUB DUP5 AND SWAP2 PUSH4 0xD505ACCF SWAP2 PUSH1 0xE4 DUP1 DUP3 ADD SWAP3 PUSH1 0x0 SWAP3 SWAP1 SWAP2 SWAP1 DUP3 SWAP1 SUB ADD DUP2 DUP4 DUP8 DUP1 EXTCODESIZE ISZERO DUP1 ISZERO PUSH2 0x13E6 JUMPI PUSH1 0x0 DUP1 REVERT JUMPDEST POP GAS CALL ISZERO DUP1 ISZERO PUSH2 0x13FA JUMPI RETURNDATASIZE PUSH1 0x0 DUP1 RETURNDATACOPY RETURNDATASIZE PUSH1 0x0 REVERT JUMPDEST POP POP POP POP PUSH2 0x140D DUP16 DUP16 DUP16 DUP16 DUP16 DUP16 DUP16 PUSH2 0x2A06 JUMP JUMPDEST DUP1 SWAP5 POP DUP2 SWAP6 POP POP POP POP POP SWAP12 POP SWAP12 SWAP10 POP POP POP POP POP POP POP POP POP POP JUMP JUMPDEST PUSH1 0x60 DUP2 TIMESTAMP DUP2 LT ISZERO PUSH2 0x146D JUMPI PUSH1 0x40 DUP1 MLOAD PUSH3 0x461BCD PUSH1 0xE5 SHL DUP2 MSTORE PUSH1 0x20 PUSH1 0x4 DUP3 ADD MSTORE PUSH1 0x17 PUSH1 0x24 DUP3 ADD MSTORE PUSH1 0x0 DUP1 MLOAD PUSH1 0x20 PUSH2 0x46EA DUP4 CODECOPY DUP2 MLOAD SWAP2 MSTORE PUSH1 0x44 DUP3 ADD MSTORE SWAP1 MLOAD SWAP1 DUP2 SWAP1 SUB PUSH1 0x64 ADD SWAP1 REVERT JUMPDEST PUSH2 0x14CB PUSH32 0x0 DUP10 DUP9 DUP9 DUP1 DUP1 PUSH1 0x20 MUL PUSH1 0x20 ADD PUSH1 0x40 MLOAD SWAP1 DUP2 ADD PUSH1 0x40 MSTORE DUP1 SWAP4 SWAP3 SWAP2 SWAP1 DUP2 DUP2 MSTORE PUSH1 0x20 ADD DUP4 DUP4 PUSH1 0x20 MUL DUP1 DUP3 DUP5 CALLDATACOPY PUSH1 0x0 SWAP3 ADD SWAP2 SWAP1 SWAP2 MSTORE POP PUSH2 0x39FC SWAP3 POP POP POP JUMP JUMPDEST SWAP2 POP DUP7 DUP3 PUSH1 0x1 DUP5 MLOAD SUB DUP2 MLOAD DUP2 LT PUSH2 0x14DE JUMPI INVALID JUMPDEST PUSH1 0x20 MUL PUSH1 0x20 ADD ADD MLOAD LT ISZERO PUSH2 0x1523 JUMPI PUSH1 0x40 MLOAD PUSH3 0x461BCD PUSH1 0xE5 SHL DUP2 MSTORE PUSH1 0x4 ADD DUP1 DUP1 PUSH1 0x20 ADD DUP3 DUP2 SUB DUP3 MSTORE PUSH1 0x2A DUP2 MSTORE PUSH1 0x20 ADD DUP1 PUSH2 0x45B4 PUSH1 0x2A SWAP2 CODECOPY PUSH1 0x40 ADD SWAP2 POP POP PUSH1 0x40 MLOAD DUP1 SWAP2 SUB SWAP1 REVERT JUMPDEST PUSH2 0x1533 DUP7 DUP7 PUSH1 0x0 DUP2 DUP2 LT PUSH2 0xEB0 JUMPI INVALID JUMPDEST PUSH2 0x1033 DUP3 DUP8 DUP8 DUP1 DUP1 PUSH1 0x20 MUL PUSH1 0x20 ADD PUSH1 0x40 MLOAD SWAP1 DUP2 ADD PUSH1 0x40 MSTORE DUP1 SWAP4 SWAP3 SWAP2 SWAP1 DUP2 DUP2 MSTORE PUSH1 0x20 ADD DUP4 DUP4 PUSH1 0x20 MUL DUP1 DUP3 DUP5 CALLDATACOPY PUSH1 0x0 SWAP3 ADD SWAP2 SWAP1 SWAP2 MSTORE POP DUP10 SWAP3 POP PUSH2 0x3526 SWAP2 POP POP JUMP JUMPDEST DUP1 TIMESTAMP DUP2 LT ISZERO PUSH2 0x15B6 JUMPI PUSH1 0x40 DUP1 MLOAD PUSH3 0x461BCD PUSH1 0xE5 SHL DUP2 MSTORE PUSH1 0x20 PUSH1 0x4 DUP3 ADD MSTORE PUSH1 0x17 PUSH1 0x24 DUP3 ADD MSTORE PUSH1 0x0 DUP1 MLOAD PUSH1 0x20 PUSH2 0x46EA DUP4 CODECOPY DUP2 MLOAD SWAP2 MSTORE PUSH1 0x44 DUP3 ADD MSTORE SWAP1 MLOAD SWAP1 DUP2 SWAP1 SUB PUSH1 0x64 ADD SWAP1 REVERT JUMPDEST PUSH2 0x162B DUP6 DUP6 PUSH1 0x0 DUP2 DUP2 LT PUSH2 0x15C6 JUMPI INVALID JUMPDEST SWAP1 POP PUSH1 0x20 MUL ADD CALLDATALOAD PUSH1 0x1 PUSH1 0x1 PUSH1 0xA0 SHL SUB AND CALLER PUSH2 0x1625 PUSH32 0x0 DUP10 DUP10 PUSH1 0x0 DUP2 DUP2 LT PUSH2 0x1608 JUMPI INVALID JUMPDEST SWAP1 POP PUSH1 0x20 MUL ADD CALLDATALOAD PUSH1 0x1 PUSH1 0x1 PUSH1 0xA0 SHL SUB AND DUP11 DUP11 PUSH1 0x1 DUP2 DUP2 LT PUSH2 0xF0F JUMPI INVALID JUMPDEST DUP11 PUSH2 0x33B4 JUMP JUMPDEST PUSH1 0x0 DUP6 DUP6 PUSH1 0x0 NOT DUP2 ADD DUP2 DUP2 LT PUSH2 0x163D JUMPI INVALID JUMPDEST SWAP1 POP PUSH1 0x20 MUL ADD CALLDATALOAD PUSH1 0x1 PUSH1 0x1 PUSH1 0xA0 SHL SUB AND PUSH1 0x1 PUSH1 0x1 PUSH1 0xA0 SHL SUB AND PUSH4 0x70A08231 DUP6 PUSH1 0x40 MLOAD DUP3 PUSH4 0xFFFFFFFF AND PUSH1 0xE0 SHL DUP2 MSTORE PUSH1 0x4 ADD DUP1 DUP3 PUSH1 0x1 PUSH1 0x1 PUSH1 0xA0 SHL SUB AND PUSH1 0x1 PUSH1 0x1 PUSH1 0xA0 SHL SUB AND DUP2 MSTORE PUSH1 0x20 ADD SWAP2 POP POP PUSH1 0x20 PUSH1 0x40 MLOAD DUP1 DUP4 SUB DUP2 DUP7 DUP1 EXTCODESIZE ISZERO DUP1 ISZERO PUSH2 0x16A2 JUMPI PUSH1 0x0 DUP1 REVERT JUMPDEST POP GAS STATICCALL ISZERO DUP1 ISZERO PUSH2 0x16B6 JUMPI RETURNDATASIZE PUSH1 0x0 DUP1 RETURNDATACOPY RETURNDATASIZE PUSH1 0x0 REVERT JUMPDEST POP POP POP POP PUSH1 0x40 MLOAD RETURNDATASIZE PUSH1 0x20 DUP2 LT ISZERO PUSH2 0x16CC JUMPI PUSH1 0x0 DUP1 REVERT JUMPDEST POP MLOAD PUSH1 0x40 DUP1 MLOAD PUSH1 0x20 DUP9 DUP2 MUL DUP3 DUP2 ADD DUP3 ADD SWAP1 SWAP4 MSTORE DUP9 DUP3 MSTORE SWAP3 SWAP4 POP PUSH2 0x170E SWAP3 SWAP1 SWAP2 DUP10 SWAP2 DUP10 SWAP2 DUP3 SWAP2 DUP6 ADD SWAP1 DUP5 SWAP1 DUP1 DUP3 DUP5 CALLDATACOPY PUSH1 0x0 SWAP3 ADD SWAP2 SWAP1 SWAP2 MSTORE POP DUP9 SWAP3 POP PUSH2 0x3B33 SWAP2 POP POP JUMP JUMPDEST DUP7 PUSH2 0x17C0 DUP3 DUP9 DUP9 PUSH1 0x0 NOT DUP2 ADD DUP2 DUP2 LT PUSH2 0x1723 JUMPI INVALID JUMPDEST SWAP1 POP PUSH1 0x20 MUL ADD CALLDATALOAD PUSH1 0x1 PUSH1 0x1 PUSH1 0xA0 SHL SUB AND PUSH1 0x1 PUSH1 0x1 PUSH1 0xA0 SHL SUB AND PUSH4 0x70A08231 DUP9 PUSH1 0x40 MLOAD DUP3 PUSH4 0xFFFFFFFF AND PUSH1 0xE0 SHL DUP2 MSTORE PUSH1 0x4 ADD DUP1 DUP3 PUSH1 0x1 PUSH1 0x1 PUSH1 0xA0 SHL SUB AND PUSH1 0x1 PUSH1 0x1 PUSH1 0xA0 SHL SUB AND DUP2 MSTORE PUSH1 0x20 ADD SWAP2 POP POP PUSH1 0x20 PUSH1 0x40 MLOAD DUP1 DUP4 SUB DUP2 DUP7 DUP1 EXTCODESIZE ISZERO DUP1 ISZERO PUSH2 0x1788 JUMPI PUSH1 0x0 DUP1 REVERT JUMPDEST POP GAS STATICCALL ISZERO DUP1 ISZERO PUSH2 0x179C JUMPI RETURNDATASIZE PUSH1 0x0 DUP1 RETURNDATACOPY RETURNDATASIZE PUSH1 0x0 REVERT JUMPDEST POP POP POP POP PUSH1 0x40 MLOAD RETURNDATASIZE PUSH1 0x20 DUP2 LT ISZERO PUSH2 0x17B2 JUMPI PUSH1 0x0 DUP1 REVERT JUMPDEST POP MLOAD SWAP1 PUSH4 0xFFFFFFFF PUSH2 0x3E5E AND JUMP JUMPDEST LT ISZERO PUSH2 0x17FD JUMPI PUSH1 0x40 MLOAD PUSH3 0x461BCD PUSH1 0xE5 SHL DUP2 MSTORE PUSH1 0x4 ADD DUP1 DUP1 PUSH1 0x20 ADD DUP3 DUP2 SUB DUP3 MSTORE PUSH1 0x2A DUP2 MSTORE PUSH1 0x20 ADD DUP1 PUSH2 0x45B4 PUSH1 0x2A SWAP2 CODECOPY PUSH1 0x40 ADD SWAP2 POP POP PUSH1 0x40 MLOAD DUP1 SWAP2 SUB SWAP1 REVERT JUMPDEST POP POP POP POP POP POP POP POP JUMP JUMPDEST PUSH1 0x0 DUP1 PUSH1 0x0 DUP4 TIMESTAMP DUP2 LT ISZERO PUSH2 0x1850 JUMPI PUSH1 0x40 DUP1 MLOAD PUSH3 0x461BCD PUSH1 0xE5 SHL DUP2 MSTORE PUSH1 0x20 PUSH1 0x4 DUP3 ADD MSTORE PUSH1 0x17 PUSH1 0x24 DUP3 ADD MSTORE PUSH1 0x0 DUP1 MLOAD PUSH1 0x20 PUSH2 0x46EA DUP4 CODECOPY DUP2 MLOAD SWAP2 MSTORE PUSH1 0x44 DUP3 ADD MSTORE SWAP1 MLOAD SWAP1 DUP2 SWAP1 SUB PUSH1 0x64 ADD SWAP1 REVERT JUMPDEST PUSH2 0x187E DUP11 PUSH32 0x0 DUP12 CALLVALUE DUP13 DUP13 PUSH2 0x3EB6 JUMP JUMPDEST SWAP1 SWAP5 POP SWAP3 POP PUSH1 0x0 PUSH2 0x18D0 PUSH32 0x0 DUP13 PUSH32 0x0 PUSH2 0x32DC JUMP JUMPDEST SWAP1 POP PUSH2 0x18DE DUP12 CALLER DUP4 DUP9 PUSH2 0x33B4 JUMP JUMPDEST PUSH32 0x0 PUSH1 0x1 PUSH1 0x1 PUSH1 0xA0 SHL SUB AND PUSH4 0xD0E30DB0 DUP6 PUSH1 0x40 MLOAD DUP3 PUSH4 0xFFFFFFFF AND PUSH1 0xE0 SHL DUP2 MSTORE PUSH1 0x4 ADD PUSH1 0x0 PUSH1 0x40 MLOAD DUP1 DUP4 SUB DUP2 DUP6 DUP9 DUP1 EXTCODESIZE ISZERO DUP1 ISZERO PUSH2 0x1939 JUMPI PUSH1 0x0 DUP1 REVERT JUMPDEST POP GAS CALL ISZERO DUP1 ISZERO PUSH2 0x194D JUMPI RETURNDATASIZE PUSH1 0x0 DUP1 RETURNDATACOPY RETURNDATASIZE PUSH1 0x0 REVERT JUMPDEST POP POP POP POP POP PUSH32 0x0 PUSH1 0x1 PUSH1 0x1 PUSH1 0xA0 SHL SUB AND PUSH4 0xA9059CBB DUP3 DUP7 PUSH1 0x40 MLOAD DUP4 PUSH4 0xFFFFFFFF AND PUSH1 0xE0 SHL DUP2 MSTORE PUSH1 0x4 ADD DUP1 DUP4 PUSH1 0x1 PUSH1 0x1 PUSH1 0xA0 SHL SUB AND PUSH1 0x1 PUSH1 0x1 PUSH1 0xA0 SHL SUB AND DUP2 MSTORE PUSH1 0x20 ADD DUP3 DUP2 MSTORE PUSH1 0x20 ADD SWAP3 POP POP POP PUSH1 0x20 PUSH1 0x40 MLOAD DUP1 DUP4 SUB DUP2 PUSH1 0x0 DUP8 DUP1 EXTCODESIZE ISZERO DUP1 ISZERO PUSH2 0x19D2 JUMPI PUSH1 0x0 DUP1 REVERT JUMPDEST POP GAS CALL ISZERO DUP1 ISZERO PUSH2 0x19E6 JUMPI RETURNDATASIZE PUSH1 0x0 DUP1 RETURNDATACOPY RETURNDATASIZE PUSH1 0x0 REVERT JUMPDEST POP POP POP POP PUSH1 0x40 MLOAD RETURNDATASIZE PUSH1 0x20 DUP2 LT ISZERO PUSH2 0x19FC JUMPI PUSH1 0x0 DUP1 REVERT JUMPDEST POP MLOAD PUSH2 0x1A04 JUMPI INVALID JUMPDEST DUP1 PUSH1 0x1 PUSH1 0x1 PUSH1 0xA0 SHL SUB AND PUSH4 0x6A627842 DUP9 PUSH1 0x40 MLOAD DUP3 PUSH4 0xFFFFFFFF AND PUSH1 0xE0 SHL DUP2 MSTORE PUSH1 0x4 ADD DUP1 DUP3 PUSH1 0x1 PUSH1 0x1 PUSH1 0xA0 SHL SUB AND PUSH1 0x1 PUSH1 0x1 PUSH1 0xA0 SHL SUB AND DUP2 MSTORE PUSH1 0x20 ADD SWAP2 POP POP PUSH1 0x20 PUSH1 0x40 MLOAD DUP1 DUP4 SUB DUP2 PUSH1 0x0 DUP8 DUP1 EXTCODESIZE ISZERO DUP1 ISZERO PUSH2 0x1A5C JUMPI PUSH1 0x0 DUP1 REVERT JUMPDEST POP GAS CALL ISZERO DUP1 ISZERO PUSH2 0x1A70 JUMPI RETURNDATASIZE PUSH1 0x0 DUP1 RETURNDATACOPY RETURNDATASIZE PUSH1 0x0 REVERT JUMPDEST POP POP POP POP PUSH1 0x40 MLOAD RETURNDATASIZE PUSH1 0x20 DUP2 LT ISZERO PUSH2 0x1A86 JUMPI PUSH1 0x0 DUP1 REVERT JUMPDEST POP MLOAD SWAP3 POP CALLVALUE DUP5 LT ISZERO PUSH2 0x1A9E JUMPI PUSH2 0x1A9E CALLER DUP6 CALLVALUE SUB PUSH2 0x376C JUMP JUMPDEST POP POP SWAP7 POP SWAP7 POP SWAP7 SWAP4 POP POP POP POP JUMP JUMPDEST PUSH1 0x0 PUSH2 0xCFA DUP5 DUP5 DUP5 PUSH2 0x415C JUMP JUMPDEST PUSH1 0x60 DUP2 TIMESTAMP DUP2 LT ISZERO PUSH2 0x1AFF JUMPI PUSH1 0x40 DUP1 MLOAD PUSH3 0x461BCD PUSH1 0xE5 SHL DUP2 MSTORE PUSH1 0x20 PUSH1 0x4 DUP3 ADD MSTORE PUSH1 0x17 PUSH1 0x24 DUP3 ADD MSTORE PUSH1 0x0 DUP1 MLOAD PUSH1 0x20 PUSH2 0x46EA DUP4 CODECOPY DUP2 MLOAD SWAP2 MSTORE PUSH1 0x44 DUP3 ADD MSTORE SWAP1 MLOAD SWAP1 DUP2 SWAP1 SUB PUSH1 0x64 ADD SWAP1 REVERT JUMPDEST PUSH2 0x1B5D PUSH32 0x0 DUP10 DUP9 DUP9 DUP1 DUP1 PUSH1 0x20 MUL PUSH1 0x20 ADD PUSH1 0x40 MLOAD SWAP1 DUP2 ADD PUSH1 0x40 MSTORE DUP1 SWAP4 SWAP3 SWAP2 SWAP1 DUP2 DUP2 MSTORE PUSH1 0x20 ADD DUP4 DUP4 PUSH1 0x20 MUL DUP1 DUP3 DUP5 CALLDATACOPY PUSH1 0x0 SWAP3 ADD SWAP2 SWAP1 SWAP2 MSTORE POP PUSH2 0x318F SWAP3 POP POP POP JUMP JUMPDEST SWAP2 POP DUP7 DUP3 PUSH1 0x0 DUP2 MLOAD DUP2 LT PUSH2 0x1B6D JUMPI INVALID JUMPDEST PUSH1 0x20 MUL PUSH1 0x20 ADD ADD MLOAD GT ISZERO PUSH2 0x1523 JUMPI PUSH1 0x40 MLOAD PUSH3 0x461BCD PUSH1 0xE5 SHL DUP2 MSTORE PUSH1 0x4 ADD DUP1 DUP1 PUSH1 0x20 ADD DUP3 DUP2 SUB DUP3 MSTORE PUSH1 0x26 DUP2 MSTORE PUSH1 0x20 ADD DUP1 PUSH2 0x4569 PUSH1 0x26 SWAP2 CODECOPY PUSH1 0x40 ADD SWAP2 POP POP PUSH1 0x40 MLOAD DUP1 SWAP2 SUB SWAP1 REVERT JUMPDEST PUSH1 0x0 DUP1 DUP3 TIMESTAMP DUP2 LT ISZERO PUSH2 0x1BF9 JUMPI PUSH1 0x40 DUP1 MLOAD PUSH3 0x461BCD PUSH1 0xE5 SHL DUP2 MSTORE PUSH1 0x20 PUSH1 0x4 DUP3 ADD MSTORE PUSH1 0x17 PUSH1 0x24 DUP3 ADD MSTORE PUSH1 0x0 DUP1 MLOAD PUSH1 0x20 PUSH2 0x46EA DUP4 CODECOPY DUP2 MLOAD SWAP2 MSTORE PUSH1 0x44 DUP3 ADD MSTORE SWAP1 MLOAD SWAP1 DUP2 SWAP1 SUB PUSH1 0x64 ADD SWAP1 REVERT JUMPDEST PUSH2 0x1C28 DUP10 PUSH32 0x0 DUP11 DUP11 DUP11 ADDRESS DUP11 PUSH2 0x2A06 JUMP JUMPDEST SWAP1 SWAP4 POP SWAP2 POP PUSH2 0x1C38 DUP10 DUP7 DUP6 PUSH2 0x3864 JUMP JUMPDEST PUSH32 0x0 PUSH1 0x1 PUSH1 0x1 PUSH1 0xA0 SHL SUB AND PUSH4 0x2E1A7D4D DUP4 PUSH1 0x40 MLOAD DUP3 PUSH4 0xFFFFFFFF AND PUSH1 0xE0 SHL DUP2 MSTORE PUSH1 0x4 ADD DUP1 DUP3 DUP2 MSTORE PUSH1 0x20 ADD SWAP2 POP POP PUSH1 0x0 PUSH1 0x40 MLOAD DUP1 DUP4 SUB DUP2 PUSH1 0x0 DUP8 DUP1 EXTCODESIZE ISZERO DUP1 ISZERO PUSH2 0x1C9E JUMPI PUSH1 0x0 DUP1 REVERT JUMPDEST POP GAS CALL ISZERO DUP1 ISZERO PUSH2 0x1CB2 JUMPI RETURNDATASIZE PUSH1 0x0 DUP1 RETURNDATACOPY RETURNDATASIZE PUSH1 0x0 REVERT JUMPDEST POP POP POP POP PUSH2 0x1CC0 DUP6 DUP4 PUSH2 0x376C JUMP JUMPDEST POP SWAP7 POP SWAP7 SWAP5 POP POP POP POP POP JUMP JUMPDEST PUSH1 0x0 PUSH2 0xCFA DUP5 DUP5 DUP5 PUSH2 0x424C JUMP JUMPDEST PUSH1 0x60 DUP2 TIMESTAMP DUP2 LT ISZERO PUSH2 0x1D1F JUMPI PUSH1 0x40 DUP1 MLOAD PUSH3 0x461BCD PUSH1 0xE5 SHL DUP2 MSTORE PUSH1 0x20 PUSH1 0x4 DUP3 ADD MSTORE PUSH1 0x17 PUSH1 0x24 DUP3 ADD MSTORE PUSH1 0x0 DUP1 MLOAD PUSH1 0x20 PUSH2 0x46EA DUP4 CODECOPY DUP2 MLOAD SWAP2 MSTORE PUSH1 0x44 DUP3 ADD MSTORE SWAP1 MLOAD SWAP1 DUP2 SWAP1 SUB PUSH1 0x64 ADD SWAP1 REVERT JUMPDEST PUSH32 0x0 PUSH1 0x1 PUSH1 0x1 PUSH1 0xA0 SHL SUB AND DUP7 DUP7 PUSH1 0x0 DUP2 DUP2 LT PUSH2 0x1D56 JUMPI INVALID JUMPDEST SWAP1 POP PUSH1 0x20 MUL ADD CALLDATALOAD PUSH1 0x1 PUSH1 0x1 PUSH1 0xA0 SHL SUB AND PUSH1 0x1 PUSH1 0x1 PUSH1 0xA0 SHL SUB AND EQ PUSH2 0x1DC1 JUMPI PUSH1 0x40 DUP1 MLOAD PUSH3 0x461BCD PUSH1 0xE5 SHL DUP2 MSTORE PUSH1 0x20 PUSH1 0x4 DUP3 ADD MSTORE PUSH1 0x1C PUSH1 0x24 DUP3 ADD MSTORE PUSH32 0x4B616C7973776170526F757465723A20494E56414C49445F5041544800000000 PUSH1 0x44 DUP3 ADD MSTORE SWAP1 MLOAD SWAP1 DUP2 SWAP1 SUB PUSH1 0x64 ADD SWAP1 REVERT JUMPDEST PUSH2 0x1E1F PUSH32 0x0 DUP9 DUP9 DUP9 DUP1 DUP1 PUSH1 0x20 MUL PUSH1 0x20 ADD PUSH1 0x40 MLOAD SWAP1 DUP2 ADD PUSH1 0x40 MSTORE DUP1 SWAP4 SWAP3 SWAP2 SWAP1 DUP2 DUP2 MSTORE PUSH1 0x20 ADD DUP4 DUP4 PUSH1 0x20 MUL DUP1 DUP3 DUP5 CALLDATACOPY PUSH1 0x0 SWAP3 ADD SWAP2 SWAP1 SWAP2 MSTORE POP PUSH2 0x318F SWAP3 POP POP POP JUMP JUMPDEST SWAP2 POP CALLVALUE DUP3 PUSH1 0x0 DUP2 MLOAD DUP2 LT PUSH2 0x1E2F JUMPI INVALID JUMPDEST PUSH1 0x20 MUL PUSH1 0x20 ADD ADD MLOAD GT ISZERO PUSH2 0x1E74 JUMPI PUSH1 0x40 MLOAD PUSH3 0x461BCD PUSH1 0xE5 SHL DUP2 MSTORE PUSH1 0x4 ADD DUP1 DUP1 PUSH1 0x20 ADD DUP3 DUP2 SUB DUP3 MSTORE PUSH1 0x26 DUP2 MSTORE PUSH1 0x20 ADD DUP1 PUSH2 0x4569 PUSH1 0x26 SWAP2 CODECOPY PUSH1 0x40 ADD SWAP2 POP POP PUSH1 0x40 MLOAD DUP1 SWAP2 SUB SWAP1 REVERT JUMPDEST PUSH32 0x0 PUSH1 0x1 PUSH1 0x1 PUSH1 0xA0 SHL SUB AND PUSH4 0xD0E30DB0 DUP4 PUSH1 0x0 DUP2 MLOAD DUP2 LT PUSH2 0x1EB0 JUMPI INVALID JUMPDEST PUSH1 0x20 MUL PUSH1 0x20 ADD ADD MLOAD PUSH1 0x40 MLOAD DUP3 PUSH4 0xFFFFFFFF AND PUSH1 0xE0 SHL DUP2 MSTORE PUSH1 0x4 ADD PUSH1 0x0 PUSH1 0x40 MLOAD DUP1 DUP4 SUB DUP2 DUP6 DUP9 DUP1 EXTCODESIZE ISZERO DUP1 ISZERO PUSH2 0x1EE3 JUMPI PUSH1 0x0 DUP1 REVERT JUMPDEST POP GAS CALL ISZERO DUP1 ISZERO PUSH2 0x1EF7 JUMPI RETURNDATASIZE PUSH1 0x0 DUP1 RETURNDATACOPY RETURNDATASIZE PUSH1 0x0 REVERT JUMPDEST POP POP POP POP POP PUSH32 0x0 PUSH1 0x1 PUSH1 0x1 PUSH1 0xA0 SHL SUB AND PUSH4 0xA9059CBB PUSH2 0x1F5C PUSH32 0x0 DUP10 DUP10 PUSH1 0x0 DUP2 DUP2 LT PUSH2 0x1608 JUMPI INVALID JUMPDEST DUP5 PUSH1 0x0 DUP2 MLOAD DUP2 LT PUSH2 0x1F69 JUMPI INVALID JUMPDEST PUSH1 0x20 MUL PUSH1 0x20 ADD ADD MLOAD PUSH1 0x40 MLOAD DUP4 PUSH4 0xFFFFFFFF AND PUSH1 0xE0 SHL DUP2 MSTORE PUSH1 0x4 ADD DUP1 DUP4 PUSH1 0x1 PUSH1 0x1 PUSH1 0xA0 SHL SUB AND PUSH1 0x1 PUSH1 0x1 PUSH1 0xA0 SHL SUB AND DUP2 MSTORE PUSH1 0x20 ADD DUP3 DUP2 MSTORE PUSH1 0x20 ADD SWAP3 POP POP POP PUSH1 0x20 PUSH1 0x40 MLOAD DUP1 DUP4 SUB DUP2 PUSH1 0x0 DUP8 DUP1 EXTCODESIZE ISZERO DUP1 ISZERO PUSH2 0x1FC0 JUMPI PUSH1 0x0 DUP1 REVERT JUMPDEST POP GAS CALL ISZERO DUP1 ISZERO PUSH2 0x1FD4 JUMPI RETURNDATASIZE PUSH1 0x0 DUP1 RETURNDATACOPY RETURNDATASIZE PUSH1 0x0 REVERT JUMPDEST POP POP POP POP PUSH1 0x40 MLOAD RETURNDATASIZE PUSH1 0x20 DUP2 LT ISZERO PUSH2 0x1FEA JUMPI PUSH1 0x0 DUP1 REVERT JUMPDEST POP MLOAD PUSH2 0x1FF2 JUMPI INVALID JUMPDEST PUSH2 0x2031 DUP3 DUP8 DUP8 DUP1 DUP1 PUSH1 0x20 MUL PUSH1 0x20 ADD PUSH1 0x40 MLOAD SWAP1 DUP2 ADD PUSH1 0x40 MSTORE DUP1 SWAP4 SWAP3 SWAP2 SWAP1 DUP2 DUP2 MSTORE PUSH1 0x20 ADD DUP4 DUP4 PUSH1 0x20 MUL DUP1 DUP3 DUP5 CALLDATACOPY PUSH1 0x0 SWAP3 ADD SWAP2 SWAP1 SWAP2 MSTORE POP DUP10 SWAP3 POP PUSH2 0x3526 SWAP2 POP POP JUMP JUMPDEST DUP2 PUSH1 0x0 DUP2 MLOAD DUP2 LT PUSH2 0x203E JUMPI INVALID JUMPDEST PUSH1 0x20 MUL PUSH1 0x20 ADD ADD MLOAD CALLVALUE GT ISZERO PUSH2 0x206D JUMPI PUSH2 0x206D CALLER DUP4 PUSH1 0x0 DUP2 MLOAD DUP2 LT PUSH2 0x205E JUMPI INVALID JUMPDEST PUSH1 0x20 MUL PUSH1 0x20 ADD ADD MLOAD CALLVALUE SUB PUSH2 0x376C JUMP JUMPDEST POP SWAP6 SWAP5 POP POP POP POP POP JUMP JUMPDEST PUSH1 0x60 DUP2 TIMESTAMP DUP2 LT ISZERO PUSH2 0x20BD JUMPI PUSH1 0x40 DUP1 MLOAD PUSH3 0x461BCD PUSH1 0xE5 SHL DUP2 MSTORE PUSH1 0x20 PUSH1 0x4 DUP3 ADD MSTORE PUSH1 0x17 PUSH1 0x24 DUP3 ADD MSTORE PUSH1 0x0 DUP1 MLOAD PUSH1 0x20 PUSH2 0x46EA DUP4 CODECOPY DUP2 MLOAD SWAP2 MSTORE PUSH1 0x44 DUP3 ADD MSTORE SWAP1 MLOAD SWAP1 DUP2 SWAP1 SUB PUSH1 0x64 ADD SWAP1 REVERT JUMPDEST PUSH32 0x0 PUSH1 0x1 PUSH1 0x1 PUSH1 0xA0 SHL SUB AND DUP7 DUP7 PUSH1 0x0 DUP2 DUP2 LT PUSH2 0x20F4 JUMPI INVALID JUMPDEST SWAP1 POP PUSH1 0x20 MUL ADD CALLDATALOAD PUSH1 0x1 PUSH1 0x1 PUSH1 0xA0 SHL SUB AND PUSH1 0x1 PUSH1 0x1 PUSH1 0xA0 SHL SUB AND EQ PUSH2 0x215F JUMPI PUSH1 0x40 DUP1 MLOAD PUSH3 0x461BCD PUSH1 0xE5 SHL DUP2 MSTORE PUSH1 0x20 PUSH1 0x4 DUP3 ADD MSTORE PUSH1 0x1C PUSH1 0x24 DUP3 ADD MSTORE PUSH32 0x4B616C7973776170526F757465723A20494E56414C49445F5041544800000000 PUSH1 0x44 DUP3 ADD MSTORE SWAP1 MLOAD SWAP1 DUP2 SWAP1 SUB PUSH1 0x64 ADD SWAP1 REVERT JUMPDEST PUSH2 0x21BD PUSH32 0x0 CALLVALUE DUP9 DUP9 DUP1 DUP1 PUSH1 0x20 MUL PUSH1 0x20 ADD PUSH1 0x40 MLOAD SWAP1 DUP2 ADD PUSH1 0x40 MSTORE DUP1 SWAP4 SWAP3 SWAP2 SWAP1 DUP2 DUP2 MSTORE PUSH1 0x20 ADD DUP4 DUP4 PUSH1 0x20 MUL DUP1 DUP3 DUP5 CALLDATACOPY PUSH1 0x0 SWAP3 ADD SWAP2 SWAP1 SWAP2 MSTORE POP PUSH2 0x39FC SWAP3 POP POP POP JUMP JUMPDEST SWAP2 POP DUP7 DUP3 PUSH1 0x1 DUP5 MLOAD SUB DUP2 MLOAD DUP2 LT PUSH2 0x21D0 JUMPI INVALID JUMPDEST PUSH1 0x20 MUL PUSH1 0x20 ADD ADD MLOAD LT ISZERO PUSH2 0x2215 JUMPI PUSH1 0x40 MLOAD PUSH3 0x461BCD PUSH1 0xE5 SHL DUP2 MSTORE PUSH1 0x4 ADD DUP1 DUP1 PUSH1 0x20 ADD DUP3 DUP2 SUB DUP3 MSTORE PUSH1 0x2A DUP2 MSTORE PUSH1 0x20 ADD DUP1 PUSH2 0x45B4 PUSH1 0x2A SWAP2 CODECOPY PUSH1 0x40 ADD SWAP2 POP POP PUSH1 0x40 MLOAD DUP1 SWAP2 SUB SWAP1 REVERT JUMPDEST PUSH32 0x0 PUSH1 0x1 PUSH1 0x1 PUSH1 0xA0 SHL SUB AND PUSH4 0xD0E30DB0 DUP4 PUSH1 0x0 DUP2 MLOAD DUP2 LT PUSH2 0x2251 JUMPI INVALID JUMPDEST PUSH1 0x20 MUL PUSH1 0x20 ADD ADD MLOAD PUSH1 0x40 MLOAD DUP3 PUSH4 0xFFFFFFFF AND PUSH1 0xE0 SHL DUP2 MSTORE PUSH1 0x4 ADD PUSH1 0x0 PUSH1 0x40 MLOAD DUP1 DUP4 SUB DUP2 DUP6 DUP9 DUP1 EXTCODESIZE ISZERO DUP1 ISZERO PUSH2 0x2284 JUMPI PUSH1 0x0 DUP1 REVERT JUMPDEST POP GAS CALL ISZERO DUP1 ISZERO PUSH2 0x2298 JUMPI RETURNDATASIZE PUSH1 0x0 DUP1 RETURNDATACOPY RETURNDATASIZE PUSH1 0x0 REVERT JUMPDEST POP POP POP POP POP PUSH32 0x0 PUSH1 0x1 PUSH1 0x1 PUSH1 0xA0 SHL SUB AND PUSH4 0xA9059CBB PUSH2 0x22FD PUSH32 0x0 DUP10 DUP10 PUSH1 0x0 DUP2 DUP2 LT PUSH2 0x1608 JUMPI INVALID JUMPDEST DUP5 PUSH1 0x0 DUP2 MLOAD DUP2 LT PUSH2 0x230A JUMPI INVALID JUMPDEST PUSH1 0x20 MUL PUSH1 0x20 ADD ADD MLOAD PUSH1 0x40 MLOAD DUP4 PUSH4 0xFFFFFFFF AND PUSH1 0xE0 SHL DUP2 MSTORE PUSH1 0x4 ADD DUP1 DUP4 PUSH1 0x1 PUSH1 0x1 PUSH1 0xA0 SHL SUB AND PUSH1 0x1 PUSH1 0x1 PUSH1 0xA0 SHL SUB AND DUP2 MSTORE PUSH1 0x20 ADD DUP3 DUP2 MSTORE PUSH1 0x20 ADD SWAP3 POP POP POP PUSH1 0x20 PUSH1 0x40 MLOAD DUP1 DUP4 SUB DUP2 PUSH1 0x0 DUP8 DUP1 EXTCODESIZE ISZERO DUP1 ISZERO PUSH2 0x2361 JUMPI PUSH1 0x0 DUP1 REVERT JUMPDEST POP GAS CALL ISZERO DUP1 ISZERO PUSH2 0x2375 JUMPI RETURNDATASIZE PUSH1 0x0 DUP1 RETURNDATACOPY RETURNDATASIZE PUSH1 0x0 REVERT JUMPDEST POP POP POP POP PUSH1 0x40 MLOAD RETURNDATASIZE PUSH1 0x20 DUP2 LT ISZERO PUSH2 0x238B JUMPI PUSH1 0x0 DUP1 REVERT JUMPDEST POP MLOAD PUSH2 0x2393 JUMPI INVALID JUMPDEST PUSH2 0x206D DUP3 DUP8 DUP8 DUP1 DUP1 PUSH1 0x20 MUL PUSH1 0x20 ADD PUSH1 0x40 MLOAD SWAP1 DUP2 ADD PUSH1 0x40 MSTORE DUP1 SWAP4 SWAP3 SWAP2 SWAP1 DUP2 DUP2 MSTORE PUSH1 0x20 ADD DUP4 DUP4 PUSH1 0x20 MUL DUP1 DUP3 DUP5 CALLDATACOPY PUSH1 0x0 SWAP3 ADD SWAP2 SWAP1 SWAP2 MSTORE POP DUP10 SWAP3 POP PUSH2 0x3526 SWAP2 POP POP JUMP JUMPDEST DUP1 TIMESTAMP DUP2 LT ISZERO PUSH2 0x2416 JUMPI PUSH1 0x40 DUP1 MLOAD PUSH3 0x461BCD PUSH1 0xE5 SHL DUP2 MSTORE PUSH1 0x20 PUSH1 0x4 DUP3 ADD MSTORE PUSH1 0x17 PUSH1 0x24 DUP3 ADD MSTORE PUSH1 0x0 DUP1 MLOAD PUSH1 0x20 PUSH2 0x46EA DUP4 CODECOPY DUP2 MLOAD SWAP2 MSTORE PUSH1 0x44 DUP3 ADD MSTORE SWAP1 MLOAD SWAP1 DUP2 SWAP1 SUB PUSH1 0x64 ADD SWAP1 REVERT JUMPDEST PUSH1 0x1 PUSH1 0x1 PUSH1 0xA0 SHL SUB PUSH32 0x0 AND DUP6 DUP6 PUSH1 0x0 NOT DUP2 ADD DUP2 DUP2 LT PUSH2 0x2450 JUMPI INVALID JUMPDEST SWAP1 POP PUSH1 0x20 MUL ADD CALLDATALOAD PUSH1 0x1 PUSH1 0x1 PUSH1 0xA0 SHL SUB AND PUSH1 0x1 PUSH1 0x1 PUSH1 0xA0 SHL SUB AND EQ PUSH2 0x24BB JUMPI PUSH1 0x40 DUP1 MLOAD PUSH3 0x461BCD PUSH1 0xE5 SHL DUP2 MSTORE PUSH1 0x20 PUSH1 0x4 DUP3 ADD MSTORE PUSH1 0x1C PUSH1 0x24 DUP3 ADD MSTORE PUSH32 0x4B616C7973776170526F757465723A20494E56414C49445F5041544800000000 PUSH1 0x44 DUP3 ADD MSTORE SWAP1 MLOAD SWAP1 DUP2 SWAP1 SUB PUSH1 0x64 ADD SWAP1 REVERT JUMPDEST PUSH2 0x24CB DUP6 DUP6 PUSH1 0x0 DUP2 DUP2 LT PUSH2 0x15C6 JUMPI INVALID JUMPDEST PUSH2 0x2509 DUP6 DUP6 DUP1 DUP1 PUSH1 0x20 MUL PUSH1 0x20 ADD PUSH1 0x40 MLOAD SWAP1 DUP2 ADD PUSH1 0x40 MSTORE DUP1 SWAP4 SWAP3 SWAP2 SWAP1 DUP2 DUP2 MSTORE PUSH1 0x20 ADD DUP4 DUP4 PUSH1 0x20 MUL DUP1 DUP3 DUP5 CALLDATACOPY PUSH1 0x0 SWAP3 ADD SWAP2 SWAP1 SWAP2 MSTORE POP ADDRESS SWAP3 POP PUSH2 0x3B33 SWAP2 POP POP JUMP JUMPDEST PUSH1 0x40 DUP1 MLOAD PUSH4 0x70A08231 PUSH1 0xE0 SHL DUP2 MSTORE ADDRESS PUSH1 0x4 DUP3 ADD MSTORE SWAP1 MLOAD PUSH1 0x0 SWAP2 PUSH1 0x1 PUSH1 0x1 PUSH1 0xA0 SHL SUB PUSH32 0x0 AND SWAP2 PUSH4 0x70A08231 SWAP2 PUSH1 0x24 DUP1 DUP3 ADD SWAP3 PUSH1 0x20 SWAP3 SWAP1 SWAP2 SWAP1 DUP3 SWAP1 SUB ADD DUP2 DUP7 DUP1 EXTCODESIZE ISZERO DUP1 ISZERO PUSH2 0x2573 JUMPI PUSH1 0x0 DUP1 REVERT JUMPDEST POP GAS STATICCALL ISZERO DUP1 ISZERO PUSH2 0x2587 JUMPI RETURNDATASIZE PUSH1 0x0 DUP1 RETURNDATACOPY RETURNDATASIZE PUSH1 0x0 REVERT JUMPDEST POP POP POP POP PUSH1 0x40 MLOAD RETURNDATASIZE PUSH1 0x20 DUP2 LT ISZERO PUSH2 0x259D JUMPI PUSH1 0x0 DUP1 REVERT JUMPDEST POP MLOAD SWAP1 POP DUP7 DUP2 LT ISZERO PUSH2 0x25E0 JUMPI PUSH1 0x40 MLOAD PUSH3 0x461BCD PUSH1 0xE5 SHL DUP2 MSTORE PUSH1 0x4 ADD DUP1 DUP1 PUSH1 0x20 ADD DUP3 DUP2 SUB DUP3 MSTORE PUSH1 0x2A DUP2 MSTORE PUSH1 0x20 ADD DUP1 PUSH2 0x45B4 PUSH1 0x2A SWAP2 CODECOPY PUSH1 0x40 ADD SWAP2 POP POP PUSH1 0x40 MLOAD DUP1 SWAP2 SUB SWAP1 REVERT JUMPDEST PUSH32 0x0 PUSH1 0x1 PUSH1 0x1 PUSH1 0xA0 SHL SUB AND PUSH4 0x2E1A7D4D DUP3 PUSH1 0x40 MLOAD DUP3 PUSH4 0xFFFFFFFF AND PUSH1 0xE0 SHL DUP2 MSTORE PUSH1 0x4 ADD DUP1 DUP3 DUP2 MSTORE PUSH1 0x20 ADD SWAP2 POP POP PUSH1 0x0 PUSH1 0x40 MLOAD DUP1 DUP4 SUB DUP2 PUSH1 0x0 DUP8 DUP1 EXTCODESIZE ISZERO DUP1 ISZERO PUSH2 0x2646 JUMPI PUSH1 0x0 DUP1 REVERT JUMPDEST POP GAS CALL ISZERO DUP1 ISZERO PUSH2 0x265A JUMPI RETURNDATASIZE PUSH1 0x0 DUP1 RETURNDATACOPY RETURNDATASIZE PUSH1 0x0 REVERT JUMPDEST POP POP POP POP PUSH2 0x17FD DUP5 DUP3 PUSH2 0x376C JUMP JUMPDEST DUP1 TIMESTAMP DUP2 LT ISZERO PUSH2 0x26AC JUMPI PUSH1 0x40 DUP1 MLOAD PUSH3 0x461BCD PUSH1 0xE5 SHL DUP2 MSTORE PUSH1 0x20 PUSH1 0x4 DUP3 ADD MSTORE PUSH1 0x17 PUSH1 0x24 DUP3 ADD MSTORE PUSH1 0x0 DUP1 MLOAD PUSH1 0x20 PUSH2 0x46EA DUP4 CODECOPY DUP2 MLOAD SWAP2 MSTORE PUSH1 0x44 DUP3 ADD MSTORE SWAP1 MLOAD SWAP1 DUP2 SWAP1 SUB PUSH1 0x64 ADD SWAP1 REVERT JUMPDEST PUSH32 0x0 PUSH1 0x1 PUSH1 0x1 PUSH1 0xA0 SHL SUB AND DUP6 DUP6 PUSH1 0x0 DUP2 DUP2 LT PUSH2 0x26E3 JUMPI INVALID JUMPDEST SWAP1 POP PUSH1 0x20 MUL ADD CALLDATALOAD PUSH1 0x1 PUSH1 0x1 PUSH1 0xA0 SHL SUB AND PUSH1 0x1 PUSH1 0x1 PUSH1 0xA0 SHL SUB AND EQ PUSH2 0x274E JUMPI PUSH1 0x40 DUP1 MLOAD PUSH3 0x461BCD PUSH1 0xE5 SHL DUP2 MSTORE PUSH1 0x20 PUSH1 0x4 DUP3 ADD MSTORE PUSH1 0x1C PUSH1 0x24 DUP3 ADD MSTORE PUSH32 0x4B616C7973776170526F757465723A20494E56414C49445F5041544800000000 PUSH1 0x44 DUP3 ADD MSTORE SWAP1 MLOAD SWAP1 DUP2 SWAP1 SUB PUSH1 0x64 ADD SWAP1 REVERT JUMPDEST PUSH1 0x0 CALLVALUE SWAP1 POP PUSH32 0x0 PUSH1 0x1 PUSH1 0x1 PUSH1 0xA0 SHL SUB AND PUSH4 0xD0E30DB0 DUP3 PUSH1 0x40 MLOAD DUP3 PUSH4 0xFFFFFFFF AND PUSH1 0xE0 SHL DUP2 MSTORE PUSH1 0x4 ADD PUSH1 0x0 PUSH1 0x40 MLOAD DUP1 DUP4 SUB DUP2 DUP6 DUP9 DUP1 EXTCODESIZE ISZERO DUP1 ISZERO PUSH2 0x27AE JUMPI PUSH1 0x0 DUP1 REVERT JUMPDEST POP GAS CALL ISZERO DUP1 ISZERO PUSH2 0x27C2 JUMPI RETURNDATASIZE PUSH1 0x0 DUP1 RETURNDATACOPY RETURNDATASIZE PUSH1 0x0 REVERT JUMPDEST POP POP POP POP POP PUSH32 0x0 PUSH1 0x1 PUSH1 0x1 PUSH1 0xA0 SHL SUB AND PUSH4 0xA9059CBB PUSH2 0x2827 PUSH32 0x0 DUP10 DUP10 PUSH1 0x0 DUP2 DUP2 LT PUSH2 0x1608 JUMPI INVALID JUMPDEST DUP4 PUSH1 0x40 MLOAD DUP4 PUSH4 0xFFFFFFFF AND PUSH1 0xE0 SHL DUP2 MSTORE PUSH1 0x4 ADD DUP1 DUP4 PUSH1 0x1 PUSH1 0x1 PUSH1 0xA0 SHL SUB AND PUSH1 0x1 PUSH1 0x1 PUSH1 0xA0 SHL SUB AND DUP2 MSTORE PUSH1 0x20 ADD DUP3 DUP2 MSTORE PUSH1 0x20 ADD SWAP3 POP POP POP PUSH1 0x20 PUSH1 0x40 MLOAD DUP1 DUP4 SUB DUP2 PUSH1 0x0 DUP8 DUP1 EXTCODESIZE ISZERO DUP1 ISZERO PUSH2 0x2877 JUMPI PUSH1 0x0 DUP1 REVERT JUMPDEST POP GAS CALL ISZERO DUP1 ISZERO PUSH2 0x288B JUMPI RETURNDATASIZE PUSH1 0x0 DUP1 RETURNDATACOPY RETURNDATASIZE PUSH1 0x0 REVERT JUMPDEST POP POP POP POP PUSH1 0x40 MLOAD RETURNDATASIZE PUSH1 0x20 DUP2 LT ISZERO PUSH2 0x28A1 JUMPI PUSH1 0x0 DUP1 REVERT JUMPDEST POP MLOAD PUSH2 0x28A9 JUMPI INVALID JUMPDEST PUSH1 0x0 DUP7 DUP7 PUSH1 0x0 NOT DUP2 ADD DUP2 DUP2 LT PUSH2 0x28BB JUMPI INVALID JUMPDEST SWAP1 POP PUSH1 0x20 MUL ADD CALLDATALOAD PUSH1 0x1 PUSH1 0x1 PUSH1 0xA0 SHL SUB AND PUSH1 0x1 PUSH1 0x1 PUSH1 0xA0 SHL SUB AND PUSH4 0x70A08231 DUP7 PUSH1 0x40 MLOAD DUP3 PUSH4 0xFFFFFFFF AND PUSH1 0xE0 SHL DUP2 MSTORE PUSH1 0x4 ADD DUP1 DUP3 PUSH1 0x1 PUSH1 0x1 PUSH1 0xA0 SHL SUB AND PUSH1 0x1 PUSH1 0x1 PUSH1 0xA0 SHL SUB AND DUP2 MSTORE PUSH1 0x20 ADD SWAP2 POP POP PUSH1 0x20 PUSH1 0x40 MLOAD DUP1 DUP4 SUB DUP2 DUP7 DUP1 EXTCODESIZE ISZERO DUP1 ISZERO PUSH2 0x2920 JUMPI PUSH1 0x0 DUP1 REVERT JUMPDEST POP GAS STATICCALL ISZERO DUP1 ISZERO PUSH2 0x2934 JUMPI RETURNDATASIZE PUSH1 0x0 DUP1 RETURNDATACOPY RETURNDATASIZE PUSH1 0x0 REVERT JUMPDEST POP POP POP POP PUSH1 0x40 MLOAD RETURNDATASIZE PUSH1 0x20 DUP2 LT ISZERO PUSH2 0x294A JUMPI PUSH1 0x0 DUP1 REVERT JUMPDEST POP MLOAD PUSH1 0x40 DUP1 MLOAD PUSH1 0x20 DUP10 DUP2 MUL DUP3 DUP2 ADD DUP3 ADD SWAP1 SWAP4 MSTORE DUP10 DUP3 MSTORE SWAP3 SWAP4 POP PUSH2 0x298C SWAP3 SWAP1 SWAP2 DUP11 SWAP2 DUP11 SWAP2 DUP3 SWAP2 DUP6 ADD SWAP1 DUP5 SWAP1 DUP1 DUP3 DUP5 CALLDATACOPY PUSH1 0x0 SWAP3 ADD SWAP2 SWAP1 SWAP2 MSTORE POP DUP10 SWAP3 POP PUSH2 0x3B33 SWAP2 POP POP JUMP JUMPDEST DUP8 PUSH2 0x17C0 DUP3 DUP10 DUP10 PUSH1 0x0 NOT DUP2 ADD DUP2 DUP2 LT PUSH2 0x29A1 JUMPI INVALID JUMPDEST SWAP1 POP PUSH1 0x20 MUL ADD CALLDATALOAD PUSH1 0x1 PUSH1 0x1 PUSH1 0xA0 SHL SUB AND PUSH1 0x1 PUSH1 0x1 PUSH1 0xA0 SHL SUB AND PUSH4 0x70A08231 DUP10 PUSH1 0x40 MLOAD DUP3 PUSH4 0xFFFFFFFF AND PUSH1 0xE0 SHL DUP2 MSTORE PUSH1 0x4 ADD DUP1 DUP3 PUSH1 0x1 PUSH1 0x1 PUSH1 0xA0 SHL SUB AND PUSH1 0x1 PUSH1 0x1 PUSH1 0xA0 SHL SUB AND DUP2 MSTORE PUSH1 0x20 ADD SWAP2 POP POP PUSH1 0x20 PUSH1 0x40 MLOAD DUP1 DUP4 SUB DUP2 DUP7 DUP1 EXTCODESIZE ISZERO DUP1 ISZERO PUSH2 0x1788 JUMPI PUSH1 0x0 DUP1 REVERT JUMPDEST PUSH1 0x0 DUP1 DUP3 TIMESTAMP DUP2 LT ISZERO PUSH2 0x2A4D JUMPI PUSH1 0x40 DUP1 MLOAD PUSH3 0x461BCD PUSH1 0xE5 SHL DUP2 MSTORE PUSH1 0x20 PUSH1 0x4 DUP3 ADD MSTORE PUSH1 0x17 PUSH1 0x24 DUP3 ADD MSTORE PUSH1 0x0 DUP1 MLOAD PUSH1 0x20 PUSH2 0x46EA DUP4 CODECOPY DUP2 MLOAD SWAP2 MSTORE PUSH1 0x44 DUP3 ADD MSTORE SWAP1 MLOAD SWAP1 DUP2 SWAP1 SUB PUSH1 0x64 ADD SWAP1 REVERT JUMPDEST PUSH1 0x0 PUSH2 0x2A7A PUSH32 0x0 DUP13 DUP13 PUSH2 0x32DC JUMP JUMPDEST PUSH1 0x40 DUP1 MLOAD PUSH4 0x23B872DD PUSH1 0xE0 SHL DUP2 MSTORE CALLER PUSH1 0x4 DUP3 ADD MSTORE PUSH1 0x1 PUSH1 0x1 PUSH1 0xA0 SHL SUB DUP4 AND PUSH1 0x24 DUP3 ADD DUP2 SWAP1 MSTORE PUSH1 0x44 DUP3 ADD DUP14 SWAP1 MSTORE SWAP2 MLOAD SWAP3 SWAP4 POP SWAP1 SWAP2 PUSH4 0x23B872DD SWAP2 PUSH1 0x64 DUP1 DUP3 ADD SWAP3 PUSH1 0x20 SWAP3 SWAP1 SWAP2 SWAP1 DUP3 SWAP1 SUB ADD DUP2 PUSH1 0x0 DUP8 DUP1 EXTCODESIZE ISZERO DUP1 ISZERO PUSH2 0x2AD5 JUMPI PUSH1 0x0 DUP1 REVERT JUMPDEST POP GAS CALL ISZERO DUP1 ISZERO PUSH2 0x2AE9 JUMPI RETURNDATASIZE PUSH1 0x0 DUP1 RETURNDATACOPY RETURNDATASIZE PUSH1 0x0 REVERT JUMPDEST POP POP POP POP PUSH1 0x40 MLOAD RETURNDATASIZE PUSH1 0x20 DUP2 LT ISZERO PUSH2 0x2AFF JUMPI PUSH1 0x0 DUP1 REVERT JUMPDEST POP POP PUSH1 0x40 DUP1 MLOAD PUSH32 0x89AFCB4400000000000000000000000000000000000000000000000000000000 DUP2 MSTORE PUSH1 0x1 PUSH1 0x1 PUSH1 0xA0 SHL SUB DUP9 DUP2 AND PUSH1 0x4 DUP4 ADD MSTORE DUP3 MLOAD PUSH1 0x0 SWAP4 DUP5 SWAP4 SWAP3 DUP7 AND SWAP3 PUSH4 0x89AFCB44 SWAP3 PUSH1 0x24 DUP1 DUP4 ADD SWAP4 SWAP3 DUP3 SWAP1 SUB ADD DUP2 DUP8 DUP8 DUP1 EXTCODESIZE ISZERO DUP1 ISZERO PUSH2 0x2B65 JUMPI PUSH1 0x0 DUP1 REVERT JUMPDEST POP GAS CALL ISZERO DUP1 ISZERO PUSH2 0x2B79 JUMPI RETURNDATASIZE PUSH1 0x0 DUP1 RETURNDATACOPY RETURNDATASIZE PUSH1 0x0 REVERT JUMPDEST POP POP POP POP PUSH1 0x40 MLOAD RETURNDATASIZE PUSH1 0x40 DUP2 LT ISZERO PUSH2 0x2B8F JUMPI PUSH1 0x0 DUP1 REVERT JUMPDEST POP DUP1 MLOAD PUSH1 0x20 SWAP1 SWAP2 ADD MLOAD SWAP1 SWAP3 POP SWAP1 POP PUSH1 0x0 PUSH2 0x2BA9 DUP15 DUP15 PUSH2 0x42F8 JUMP JUMPDEST POP SWAP1 POP DUP1 PUSH1 0x1 PUSH1 0x1 PUSH1 0xA0 SHL SUB AND DUP15 PUSH1 0x1 PUSH1 0x1 PUSH1 0xA0 SHL SUB AND EQ PUSH2 0x2BCC JUMPI DUP2 DUP4 PUSH2 0x2BCF JUMP JUMPDEST DUP3 DUP3 JUMPDEST SWAP1 SWAP8 POP SWAP6 POP DUP11 DUP8 LT ISZERO PUSH2 0x2C13 JUMPI PUSH1 0x40 MLOAD PUSH3 0x461BCD PUSH1 0xE5 SHL DUP2 MSTORE PUSH1 0x4 ADD DUP1 DUP1 PUSH1 0x20 ADD DUP3 DUP2 SUB DUP3 MSTORE PUSH1 0x25 DUP2 MSTORE PUSH1 0x20 ADD DUP1 PUSH2 0x458F PUSH1 0x25 SWAP2 CODECOPY PUSH1 0x40 ADD SWAP2 POP POP PUSH1 0x40 MLOAD DUP1 SWAP2 SUB SWAP1 REVERT JUMPDEST DUP10 DUP7 LT ISZERO PUSH2 0x2C52 JUMPI PUSH1 0x40 MLOAD PUSH3 0x461BCD PUSH1 0xE5 SHL DUP2 MSTORE PUSH1 0x4 ADD DUP1 DUP1 PUSH1 0x20 ADD DUP3 DUP2 SUB DUP3 MSTORE PUSH1 0x25 DUP2 MSTORE PUSH1 0x20 ADD DUP1 PUSH2 0x46A1 PUSH1 0x25 SWAP2 CODECOPY PUSH1 0x40 ADD SWAP2 POP POP PUSH1 0x40 MLOAD DUP1 SWAP2 SUB SWAP1 REVERT JUMPDEST POP POP POP POP POP SWAP8 POP SWAP8 SWAP6 POP POP POP POP POP POP JUMP JUMPDEST PUSH32 0x0 DUP2 JUMP JUMPDEST PUSH1 0x60 PUSH2 0x1324 PUSH32 0x0 DUP5 DUP5 PUSH2 0x39FC JUMP JUMPDEST PUSH1 0x0 DUP1 PUSH2 0x2D02 PUSH32 0x0 DUP14 PUSH32 0x0 PUSH2 0x32DC JUMP JUMPDEST SWAP1 POP PUSH1 0x0 DUP7 PUSH2 0x2D11 JUMPI DUP12 PUSH2 0x2D15 JUMP JUMPDEST PUSH1 0x0 NOT JUMPDEST PUSH1 0x40 DUP1 MLOAD PUSH4 0xD505ACCF PUSH1 0xE0 SHL DUP2 MSTORE CALLER PUSH1 0x4 DUP3 ADD MSTORE ADDRESS PUSH1 0x24 DUP3 ADD MSTORE PUSH1 0x44 DUP2 ADD DUP4 SWAP1 MSTORE PUSH1 0x64 DUP2 ADD DUP12 SWAP1 MSTORE PUSH1 0xFF DUP10 AND PUSH1 0x84 DUP3 ADD MSTORE PUSH1 0xA4 DUP2 ADD DUP9 SWAP1 MSTORE PUSH1 0xC4 DUP2 ADD DUP8 SWAP1 MSTORE SWAP1 MLOAD SWAP2 SWAP3 POP PUSH1 0x1 PUSH1 0x1 PUSH1 0xA0 SHL SUB DUP5 AND SWAP2 PUSH4 0xD505ACCF SWAP2 PUSH1 0xE4 DUP1 DUP3 ADD SWAP3 PUSH1 0x0 SWAP3 SWAP1 SWAP2 SWAP1 DUP3 SWAP1 SUB ADD DUP2 DUP4 DUP8 DUP1 EXTCODESIZE ISZERO DUP1 ISZERO PUSH2 0x2D8B JUMPI PUSH1 0x0 DUP1 REVERT JUMPDEST POP GAS CALL ISZERO DUP1 ISZERO PUSH2 0x2D9F JUMPI RETURNDATASIZE PUSH1 0x0 DUP1 RETURNDATACOPY RETURNDATASIZE PUSH1 0x0 REVERT JUMPDEST POP POP POP POP PUSH2 0x2DB1 DUP14 DUP14 DUP14 DUP14 DUP14 DUP14 PUSH2 0x1176 JUMP JUMPDEST SWAP14 SWAP13 POP POP POP POP POP POP POP POP POP POP POP POP POP JUMP JUMPDEST PUSH1 0x60 DUP2 TIMESTAMP DUP2 LT ISZERO PUSH2 0x2E08 JUMPI PUSH1 0x40 DUP1 MLOAD PUSH3 0x461BCD PUSH1 0xE5 SHL DUP2 MSTORE PUSH1 0x20 PUSH1 0x4 DUP3 ADD MSTORE PUSH1 0x17 PUSH1 0x24 DUP3 ADD MSTORE PUSH1 0x0 DUP1 MLOAD PUSH1 0x20 PUSH2 0x46EA DUP4 CODECOPY DUP2 MLOAD SWAP2 MSTORE PUSH1 0x44 DUP3 ADD MSTORE SWAP1 MLOAD SWAP1 DUP2 SWAP1 SUB PUSH1 0x64 ADD SWAP1 REVERT JUMPDEST PUSH1 0x1 PUSH1 0x1 PUSH1 0xA0 SHL SUB PUSH32 0x0 AND DUP7 DUP7 PUSH1 0x0 NOT DUP2 ADD DUP2 DUP2 LT PUSH2 0x2E42 JUMPI INVALID JUMPDEST SWAP1 POP PUSH1 0x20 MUL ADD CALLDATALOAD PUSH1 0x1 PUSH1 0x1 PUSH1 0xA0 SHL SUB AND PUSH1 0x1 PUSH1 0x1 PUSH1 0xA0 SHL SUB AND EQ PUSH2 0x2EAD JUMPI PUSH1 0x40 DUP1 MLOAD PUSH3 0x461BCD PUSH1 0xE5 SHL DUP2 MSTORE PUSH1 0x20 PUSH1 0x4 DUP3 ADD MSTORE PUSH1 0x1C PUSH1 0x24 DUP3 ADD MSTORE PUSH32 0x4B616C7973776170526F757465723A20494E56414C49445F5041544800000000 PUSH1 0x44 DUP3 ADD MSTORE SWAP1 MLOAD SWAP1 DUP2 SWAP1 SUB PUSH1 0x64 ADD SWAP1 REVERT JUMPDEST PUSH2 0x2F0B PUSH32 0x0 DUP10 DUP9 DUP9 DUP1 DUP1 PUSH1 0x20 MUL PUSH1 0x20 ADD PUSH1 0x40 MLOAD SWAP1 DUP2 ADD PUSH1 0x40 MSTORE DUP1 SWAP4 SWAP3 SWAP2 SWAP1 DUP2 DUP2 MSTORE PUSH1 0x20 ADD DUP4 DUP4 PUSH1 0x20 MUL DUP1 DUP3 DUP5 CALLDATACOPY PUSH1 0x0 SWAP3 ADD SWAP2 SWAP1 SWAP2 MSTORE POP PUSH2 0x39FC SWAP3 POP POP POP JUMP JUMPDEST SWAP2 POP DUP7 DUP3 PUSH1 0x1 DUP5 MLOAD SUB DUP2 MLOAD DUP2 LT PUSH2 0x2F1E JUMPI INVALID JUMPDEST PUSH1 0x20 MUL PUSH1 0x20 ADD ADD MLOAD LT ISZERO PUSH2 0xEA0 JUMPI PUSH1 0x40 MLOAD PUSH3 0x461BCD PUSH1 0xE5 SHL DUP2 MSTORE PUSH1 0x4 ADD DUP1 DUP1 PUSH1 0x20 ADD DUP3 DUP2 SUB DUP3 MSTORE PUSH1 0x2A DUP2 MSTORE PUSH1 0x20 ADD DUP1 PUSH2 0x45B4 PUSH1 0x2A SWAP2 CODECOPY PUSH1 0x40 ADD SWAP2 POP POP PUSH1 0x40 MLOAD DUP1 SWAP2 SUB SWAP1 REVERT JUMPDEST PUSH1 0x0 DUP1 PUSH1 0x0 DUP4 TIMESTAMP DUP2 LT ISZERO PUSH2 0x2FAC JUMPI PUSH1 0x40 DUP1 MLOAD PUSH3 0x461BCD PUSH1 0xE5 SHL DUP2 MSTORE PUSH1 0x20 PUSH1 0x4 DUP3 ADD MSTORE PUSH1 0x17 PUSH1 0x24 DUP3 ADD MSTORE PUSH1 0x0 DUP1 MLOAD PUSH1 0x20 PUSH2 0x46EA DUP4 CODECOPY DUP2 MLOAD SWAP2 MSTORE PUSH1 0x44 DUP3 ADD MSTORE SWAP1 MLOAD SWAP1 DUP2 SWAP1 SUB PUSH1 0x64 ADD SWAP1 REVERT JUMPDEST PUSH2 0x2FBA DUP13 DUP13 DUP13 DUP13 DUP13 DUP13 PUSH2 0x3EB6 JUMP JUMPDEST SWAP1 SWAP5 POP SWAP3 POP PUSH1 0x0 PUSH2 0x2FEC PUSH32 0x0 DUP15 DUP15 PUSH2 0x32DC JUMP JUMPDEST SWAP1 POP PUSH2 0x2FFA DUP14 CALLER DUP4 DUP9 PUSH2 0x33B4 JUMP JUMPDEST PUSH2 0x3006 DUP13 CALLER DUP4 DUP8 PUSH2 0x33B4 JUMP JUMPDEST DUP1 PUSH1 0x1 PUSH1 0x1 PUSH1 0xA0 SHL SUB AND PUSH4 0x6A627842 DUP9 PUSH1 0x40 MLOAD DUP3 PUSH4 0xFFFFFFFF AND PUSH1 0xE0 SHL DUP2 MSTORE PUSH1 0x4 ADD DUP1 DUP3 PUSH1 0x1 PUSH1 0x1 PUSH1 0xA0 SHL SUB AND PUSH1 0x1 PUSH1 0x1 PUSH1 0xA0 SHL SUB AND DUP2 MSTORE PUSH1 0x20 ADD SWAP2 POP POP PUSH1 0x20 PUSH1 0x40 MLOAD DUP1 DUP4 SUB DUP2 PUSH1 0x0 DUP8 DUP1 EXTCODESIZE ISZERO DUP1 ISZERO PUSH2 0x305E JUMPI PUSH1 0x0 DUP1 REVERT JUMPDEST POP GAS CALL ISZERO DUP1 ISZERO PUSH2 0x3072 JUMPI RETURNDATASIZE PUSH1 0x0 DUP1 RETURNDATACOPY RETURNDATASIZE PUSH1 0x0 REVERT JUMPDEST POP POP POP POP PUSH1 0x40 MLOAD RETURNDATASIZE PUSH1 0x20 DUP2 LT ISZERO PUSH2 0x3088 JUMPI PUSH1 0x0 DUP1 REVERT JUMPDEST POP MLOAD SWAP5 SWAP14 SWAP4 SWAP13 POP SWAP4 SWAP11 POP SWAP2 SWAP9 POP POP POP POP POP POP POP POP POP JUMP JUMPDEST PUSH1 0x0 DUP1 DUP5 GT PUSH2 0x30DF JUMPI PUSH1 0x40 MLOAD PUSH3 0x461BCD PUSH1 0xE5 SHL DUP2 MSTORE PUSH1 0x4 ADD DUP1 DUP1 PUSH1 0x20 ADD DUP3 DUP2 SUB DUP3 MSTORE PUSH1 0x2A DUP2 MSTORE PUSH1 0x20 ADD DUP1 PUSH2 0x462D PUSH1 0x2A SWAP2 CODECOPY PUSH1 0x40 ADD SWAP2 POP POP PUSH1 0x40 MLOAD DUP1 SWAP2 SUB SWAP1 REVERT JUMPDEST PUSH1 0x0 DUP4 GT DUP1 ISZERO PUSH2 0x30EF JUMPI POP PUSH1 0x0 DUP3 GT JUMPDEST PUSH2 0x312A JUMPI PUSH1 0x40 MLOAD PUSH3 0x461BCD PUSH1 0xE5 SHL DUP2 MSTORE PUSH1 0x4 ADD DUP1 DUP1 PUSH1 0x20 ADD DUP3 DUP2 SUB DUP3 MSTORE PUSH1 0x27 DUP2 MSTORE PUSH1 0x20 ADD DUP1 PUSH2 0x467A PUSH1 0x27 SWAP2 CODECOPY PUSH1 0x40 ADD SWAP2 POP POP PUSH1 0x40 MLOAD DUP1 SWAP2 SUB SWAP1 REVERT JUMPDEST PUSH1 0x0 PUSH2 0x313E DUP6 PUSH2 0x3E5 PUSH4 0xFFFFFFFF PUSH2 0x43D6 AND JUMP JUMPDEST SWAP1 POP PUSH1 0x0 PUSH2 0x3152 DUP3 DUP6 PUSH4 0xFFFFFFFF PUSH2 0x43D6 AND JUMP JUMPDEST SWAP1 POP PUSH1 0x0 PUSH2 0x3178 DUP4 PUSH2 0x316C DUP9 PUSH2 0x3E8 PUSH4 0xFFFFFFFF PUSH2 0x43D6 AND JUMP JUMPDEST SWAP1 PUSH4 0xFFFFFFFF PUSH2 0x4442 AND JUMP JUMPDEST SWAP1 POP DUP1 DUP3 DUP2 PUSH2 0x3183 JUMPI INVALID JUMPDEST DIV SWAP8 SWAP7 POP POP POP POP POP POP POP JUMP JUMPDEST PUSH1 0x60 PUSH1 0x2 DUP3 MLOAD LT ISZERO PUSH2 0x31E8 JUMPI PUSH1 0x40 DUP1 MLOAD PUSH3 0x461BCD PUSH1 0xE5 SHL DUP2 MSTORE PUSH1 0x20 PUSH1 0x4 DUP3 ADD MSTORE PUSH1 0x1D PUSH1 0x24 DUP3 ADD MSTORE PUSH32 0x4B616C79737761704C6962726172793A20494E56414C49445F50415448000000 PUSH1 0x44 DUP3 ADD MSTORE SWAP1 MLOAD SWAP1 DUP2 SWAP1 SUB PUSH1 0x64 ADD SWAP1 REVERT JUMPDEST DUP2 MLOAD PUSH8 0xFFFFFFFFFFFFFFFF DUP2 GT DUP1 ISZERO PUSH2 0x3200 JUMPI PUSH1 0x0 DUP1 REVERT JUMPDEST POP PUSH1 0x40 MLOAD SWAP1 DUP1 DUP3 MSTORE DUP1 PUSH1 0x20 MUL PUSH1 0x20 ADD DUP3 ADD PUSH1 0x40 MSTORE DUP1 ISZERO PUSH2 0x322A JUMPI DUP2 PUSH1 0x20 ADD PUSH1 0x20 DUP3 MUL DUP1 CALLDATASIZE DUP4 CALLDATACOPY ADD SWAP1 POP JUMPDEST POP SWAP1 POP DUP3 DUP2 PUSH1 0x1 DUP4 MLOAD SUB DUP2 MLOAD DUP2 LT PUSH2 0x323E JUMPI INVALID JUMPDEST PUSH1 0x20 SWAP1 DUP2 MUL SWAP2 SWAP1 SWAP2 ADD ADD MSTORE DUP2 MLOAD PUSH1 0x0 NOT ADD JUMPDEST DUP1 ISZERO PUSH2 0x32D4 JUMPI PUSH1 0x0 DUP1 PUSH2 0x328D DUP8 DUP7 PUSH1 0x1 DUP7 SUB DUP2 MLOAD DUP2 LT PUSH2 0x326C JUMPI INVALID JUMPDEST PUSH1 0x20 MUL PUSH1 0x20 ADD ADD MLOAD DUP8 DUP7 DUP2 MLOAD DUP2 LT PUSH2 0x3280 JUMPI INVALID JUMPDEST PUSH1 0x20 MUL PUSH1 0x20 ADD ADD MLOAD PUSH2 0x449A JUMP JUMPDEST SWAP2 POP SWAP2 POP PUSH2 0x32AF DUP5 DUP5 DUP2 MLOAD DUP2 LT PUSH2 0x32A0 JUMPI INVALID JUMPDEST PUSH1 0x20 MUL PUSH1 0x20 ADD ADD MLOAD DUP4 DUP4 PUSH2 0x415C JUMP JUMPDEST DUP5 PUSH1 0x1 DUP6 SUB DUP2 MLOAD DUP2 LT PUSH2 0x32BE JUMPI INVALID JUMPDEST PUSH1 0x20 SWAP1 DUP2 MUL SWAP2 SWAP1 SWAP2 ADD ADD MSTORE POP POP PUSH1 0x0 NOT ADD PUSH2 0x3250 JUMP JUMPDEST POP SWAP4 SWAP3 POP POP POP JUMP JUMPDEST PUSH1 0x0 DUP1 PUSH1 0x0 PUSH2 0x32EB DUP6 DUP6 PUSH2 0x42F8 JUMP JUMPDEST PUSH1 0x40 DUP1 MLOAD PUSH12 0xFFFFFFFFFFFFFFFFFFFFFFFF NOT PUSH1 0x60 SWAP5 DUP6 SHL DUP2 AND PUSH1 0x20 DUP1 DUP5 ADD SWAP2 SWAP1 SWAP2 MSTORE SWAP4 DUP6 SHL DUP2 AND PUSH1 0x34 DUP4 ADD MSTORE DUP3 MLOAD PUSH1 0x28 DUP2 DUP5 SUB ADD DUP2 MSTORE PUSH1 0x48 DUP4 ADD DUP5 MSTORE DUP1 MLOAD SWAP1 DUP6 ADD KECCAK256 PUSH32 0xFF00000000000000000000000000000000000000000000000000000000000000 PUSH1 0x68 DUP5 ADD MSTORE SWAP11 SWAP1 SWAP5 SHL SWAP1 SWAP4 AND PUSH1 0x69 DUP5 ADD MSTORE PUSH1 0x7D DUP4 ADD SWAP9 SWAP1 SWAP9 MSTORE PUSH32 0x7FEC1B31C5902185CBA102DE1E1C0B6A4B20722338E61F0E56DE83156EAD44F6 PUSH1 0x9D DUP1 DUP5 ADD SWAP2 SWAP1 SWAP2 MSTORE DUP9 MLOAD DUP1 DUP5 SUB SWAP1 SWAP2 ADD DUP2 MSTORE PUSH1 0xBD SWAP1 SWAP3 ADD SWAP1 SWAP8 MSTORE DUP1 MLOAD SWAP7 ADD SWAP6 SWAP1 SWAP6 KECCAK256 SWAP6 SWAP5 POP POP POP POP POP JUMP JUMPDEST PUSH1 0x40 DUP1 MLOAD PUSH1 0x1 PUSH1 0x1 PUSH1 0xA0 SHL SUB DUP6 DUP2 AND PUSH1 0x24 DUP4 ADD MSTORE DUP5 DUP2 AND PUSH1 0x44 DUP4 ADD MSTORE PUSH1 0x64 DUP1 DUP4 ADD DUP6 SWAP1 MSTORE DUP4 MLOAD DUP1 DUP5 SUB SWAP1 SWAP2 ADD DUP2 MSTORE PUSH1 0x84 SWAP1 SWAP3 ADD DUP4 MSTORE PUSH1 0x20 DUP3 ADD DUP1 MLOAD PUSH28 0xFFFFFFFFFFFFFFFFFFFFFFFFFFFFFFFFFFFFFFFFFFFFFFFFFFFFFFFF AND PUSH4 0x23B872DD PUSH1 0xE0 SHL OR DUP2 MSTORE SWAP3 MLOAD DUP3 MLOAD PUSH1 0x0 SWAP5 PUSH1 0x60 SWAP5 SWAP4 DUP11 AND SWAP4 SWAP3 SWAP2 DUP3 SWAP2 SWAP1 DUP1 DUP4 DUP4 JUMPDEST PUSH1 0x20 DUP4 LT PUSH2 0x344E JUMPI DUP1 MLOAD DUP3 MSTORE PUSH1 0x1F NOT SWAP1 SWAP3 ADD SWAP2 PUSH1 0x20 SWAP2 DUP3 ADD SWAP2 ADD PUSH2 0x342F JUMP JUMPDEST PUSH1 0x1 DUP4 PUSH1 0x20 SUB PUSH2 0x100 EXP SUB DUP1 NOT DUP3 MLOAD AND DUP2 DUP5 MLOAD AND DUP1 DUP3 OR DUP6 MSTORE POP POP POP POP POP POP SWAP1 POP ADD SWAP2 POP POP PUSH1 0x0 PUSH1 0x40 MLOAD DUP1 DUP4 SUB DUP2 PUSH1 0x0 DUP7 GAS CALL SWAP2 POP POP RETURNDATASIZE DUP1 PUSH1 0x0 DUP2 EQ PUSH2 0x34B0 JUMPI PUSH1 0x40 MLOAD SWAP2 POP PUSH1 0x1F NOT PUSH1 0x3F RETURNDATASIZE ADD AND DUP3 ADD PUSH1 0x40 MSTORE RETURNDATASIZE DUP3 MSTORE RETURNDATASIZE PUSH1 0x0 PUSH1 0x20 DUP5 ADD RETURNDATACOPY PUSH2 0x34B5 JUMP JUMPDEST PUSH1 0x60 SWAP2 POP JUMPDEST POP SWAP2 POP SWAP2 POP DUP2 DUP1 ISZERO PUSH2 0x34E3 JUMPI POP DUP1 MLOAD ISZERO DUP1 PUSH2 0x34E3 JUMPI POP DUP1 DUP1 PUSH1 0x20 ADD SWAP1 MLOAD PUSH1 0x20 DUP2 LT ISZERO PUSH2 0x34E0 JUMPI PUSH1 0x0 DUP1 REVERT JUMPDEST POP MLOAD JUMPDEST PUSH2 0x351E JUMPI PUSH1 0x40 MLOAD PUSH3 0x461BCD PUSH1 0xE5 SHL DUP2 MSTORE PUSH1 0x4 ADD DUP1 DUP1 PUSH1 0x20 ADD DUP3 DUP2 SUB DUP3 MSTORE PUSH1 0x24 DUP2 MSTORE PUSH1 0x20 ADD DUP1 PUSH2 0x470A PUSH1 0x24 SWAP2 CODECOPY PUSH1 0x40 ADD SWAP2 POP POP PUSH1 0x40 MLOAD DUP1 SWAP2 SUB SWAP1 REVERT JUMPDEST POP POP POP POP POP POP JUMP JUMPDEST PUSH1 0x0 JUMPDEST PUSH1 0x1 DUP4 MLOAD SUB DUP2 LT ISZERO PUSH2 0x3766 JUMPI PUSH1 0x0 DUP1 DUP5 DUP4 DUP2 MLOAD DUP2 LT PUSH2 0x3544 JUMPI INVALID JUMPDEST PUSH1 0x20 MUL PUSH1 0x20 ADD ADD MLOAD DUP6 DUP5 PUSH1 0x1 ADD DUP2 MLOAD DUP2 LT PUSH2 0x355B JUMPI INVALID JUMPDEST PUSH1 0x20 MUL PUSH1 0x20 ADD ADD MLOAD SWAP2 POP SWAP2 POP PUSH1 0x0 PUSH2 0x3573 DUP4 DUP4 PUSH2 0x42F8 JUMP JUMPDEST POP SWAP1 POP PUSH1 0x0 DUP8 DUP6 PUSH1 0x1 ADD DUP2 MLOAD DUP2 LT PUSH2 0x3587 JUMPI INVALID JUMPDEST PUSH1 0x20 MUL PUSH1 0x20 ADD ADD MLOAD SWAP1 POP PUSH1 0x0 DUP1 DUP4 PUSH1 0x1 PUSH1 0x1 PUSH1 0xA0 SHL SUB AND DUP7 PUSH1 0x1 PUSH1 0x1 PUSH1 0xA0 SHL SUB AND EQ PUSH2 0x35B5 JUMPI DUP3 PUSH1 0x0 PUSH2 0x35B9 JUMP JUMPDEST PUSH1 0x0 DUP4 JUMPDEST SWAP2 POP SWAP2 POP PUSH1 0x0 PUSH1 0x2 DUP11 MLOAD SUB DUP9 LT PUSH2 0x35D0 JUMPI DUP9 PUSH2 0x3611 JUMP JUMPDEST PUSH2 0x3611 PUSH32 0x0 DUP8 DUP13 DUP12 PUSH1 0x2 ADD DUP2 MLOAD DUP2 LT PUSH2 0x3604 JUMPI INVALID JUMPDEST PUSH1 0x20 MUL PUSH1 0x20 ADD ADD MLOAD PUSH2 0x32DC JUMP JUMPDEST SWAP1 POP PUSH2 0x363E PUSH32 0x0 DUP9 DUP9 PUSH2 0x32DC JUMP JUMPDEST PUSH1 0x1 PUSH1 0x1 PUSH1 0xA0 SHL SUB AND PUSH4 0x22C0D9F DUP5 DUP5 DUP5 PUSH1 0x0 PUSH1 0x40 MLOAD SWAP1 DUP1 DUP3 MSTORE DUP1 PUSH1 0x1F ADD PUSH1 0x1F NOT AND PUSH1 0x20 ADD DUP3 ADD PUSH1 0x40 MSTORE DUP1 ISZERO PUSH2 0x367B JUMPI PUSH1 0x20 DUP3 ADD DUP2 DUP1 CALLDATASIZE DUP4 CALLDATACOPY ADD SWAP1 POP JUMPDEST POP PUSH1 0x40 MLOAD DUP6 PUSH4 0xFFFFFFFF AND PUSH1 0xE0 SHL DUP2 MSTORE PUSH1 0x4 ADD DUP1 DUP6 DUP2 MSTORE PUSH1 0x20 ADD DUP5 DUP2 MSTORE PUSH1 0x20 ADD DUP4 PUSH1 0x1 PUSH1 0x1 PUSH1 0xA0 SHL SUB AND PUSH1 0x1 PUSH1 0x1 PUSH1 0xA0 SHL SUB AND DUP2 MSTORE PUSH1 0x20 ADD DUP1 PUSH1 0x20 ADD DUP3 DUP2 SUB DUP3 MSTORE DUP4 DUP2 DUP2 MLOAD DUP2 MSTORE PUSH1 0x20 ADD SWAP2 POP DUP1 MLOAD SWAP1 PUSH1 0x20 ADD SWAP1 DUP1 DUP4 DUP4 PUSH1 0x0 JUMPDEST DUP4 DUP2 LT ISZERO PUSH2 0x36EC JUMPI DUP2 DUP2 ADD MLOAD DUP4 DUP3 ADD MSTORE PUSH1 0x20 ADD PUSH2 0x36D4 JUMP JUMPDEST POP POP POP POP SWAP1 POP SWAP1 DUP2 ADD SWAP1 PUSH1 0x1F AND DUP1 ISZERO PUSH2 0x3719 JUMPI DUP1 DUP3 SUB DUP1 MLOAD PUSH1 0x1 DUP4 PUSH1 0x20 SUB PUSH2 0x100 EXP SUB NOT AND DUP2 MSTORE PUSH1 0x20 ADD SWAP2 POP JUMPDEST POP SWAP6 POP POP POP POP POP POP PUSH1 0x0 PUSH1 0x40 MLOAD DUP1 DUP4 SUB DUP2 PUSH1 0x0 DUP8 DUP1 EXTCODESIZE ISZERO DUP1 ISZERO PUSH2 0x373B JUMPI PUSH1 0x0 DUP1 REVERT JUMPDEST POP GAS CALL ISZERO DUP1 ISZERO PUSH2 0x374F JUMPI RETURNDATASIZE PUSH1 0x0 DUP1 RETURNDATACOPY RETURNDATASIZE PUSH1 0x0 REVERT JUMPDEST POP POP PUSH1 0x1 SWAP1 SWAP10 ADD SWAP9 POP PUSH2 0x3529 SWAP8 POP POP POP POP POP POP POP POP JUMP JUMPDEST POP POP POP POP JUMP JUMPDEST PUSH1 0x40 DUP1 MLOAD PUSH1 0x0 DUP1 DUP3 MSTORE PUSH1 0x20 DUP3 ADD SWAP1 SWAP3 MSTORE PUSH1 0x1 PUSH1 0x1 PUSH1 0xA0 SHL SUB DUP5 AND SWAP1 DUP4 SWAP1 PUSH1 0x40 MLOAD DUP1 DUP3 DUP1 MLOAD SWAP1 PUSH1 0x20 ADD SWAP1 DUP1 DUP4 DUP4 JUMPDEST PUSH1 0x20 DUP4 LT PUSH2 0x37B8 JUMPI DUP1 MLOAD DUP3 MSTORE PUSH1 0x1F NOT SWAP1 SWAP3 ADD SWAP2 PUSH1 0x20 SWAP2 DUP3 ADD SWAP2 ADD PUSH2 0x3799 JUMP JUMPDEST PUSH1 0x1 DUP4 PUSH1 0x20 SUB PUSH2 0x100 EXP SUB DUP1 NOT DUP3 MLOAD AND DUP2 DUP5 MLOAD AND DUP1 DUP3 OR DUP6 MSTORE POP POP POP POP POP POP SWAP1 POP ADD SWAP2 POP POP PUSH1 0x0 PUSH1 0x40 MLOAD DUP1 DUP4 SUB DUP2 DUP6 DUP8 GAS CALL SWAP3 POP POP POP RETURNDATASIZE DUP1 PUSH1 0x0 DUP2 EQ PUSH2 0x381A JUMPI PUSH1 0x40 MLOAD SWAP2 POP PUSH1 0x1F NOT PUSH1 0x3F RETURNDATASIZE ADD AND DUP3 ADD PUSH1 0x40 MSTORE RETURNDATASIZE DUP3 MSTORE RETURNDATASIZE PUSH1 0x0 PUSH1 0x20 DUP5 ADD RETURNDATACOPY PUSH2 0x381F JUMP JUMPDEST PUSH1 0x60 SWAP2 POP JUMPDEST POP POP SWAP1 POP DUP1 PUSH2 0x385F JUMPI PUSH1 0x40 MLOAD PUSH3 0x461BCD PUSH1 0xE5 SHL DUP2 MSTORE PUSH1 0x4 ADD DUP1 DUP1 PUSH1 0x20 ADD DUP3 DUP2 SUB DUP3 MSTORE PUSH1 0x23 DUP2 MSTORE PUSH1 0x20 ADD DUP1 PUSH2 0x4657 PUSH1 0x23 SWAP2 CODECOPY PUSH1 0x40 ADD SWAP2 POP POP PUSH1 0x40 MLOAD DUP1 SWAP2 SUB SWAP1 REVERT JUMPDEST POP POP POP JUMP JUMPDEST PUSH1 0x40 DUP1 MLOAD PUSH1 0x1 PUSH1 0x1 PUSH1 0xA0 SHL SUB DUP5 DUP2 AND PUSH1 0x24 DUP4 ADD MSTORE PUSH1 0x44 DUP1 DUP4 ADD DUP6 SWAP1 MSTORE DUP4 MLOAD DUP1 DUP5 SUB SWAP1 SWAP2 ADD DUP2 MSTORE PUSH1 0x64 SWAP1 SWAP3 ADD DUP4 MSTORE PUSH1 0x20 DUP3 ADD DUP1 MLOAD PUSH28 0xFFFFFFFFFFFFFFFFFFFFFFFFFFFFFFFFFFFFFFFFFFFFFFFFFFFFFFFF AND PUSH32 0xA9059CBB00000000000000000000000000000000000000000000000000000000 OR DUP2 MSTORE SWAP3 MLOAD DUP3 MLOAD PUSH1 0x0 SWAP5 PUSH1 0x60 SWAP5 SWAP4 DUP10 AND SWAP4 SWAP3 SWAP2 DUP3 SWAP2 SWAP1 DUP1 DUP4 DUP4 JUMPDEST PUSH1 0x20 DUP4 LT PUSH2 0x390F JUMPI DUP1 MLOAD DUP3 MSTORE PUSH1 0x1F NOT SWAP1 SWAP3 ADD SWAP2 PUSH1 0x20 SWAP2 DUP3 ADD SWAP2 ADD PUSH2 0x38F0 JUMP JUMPDEST PUSH1 0x1 DUP4 PUSH1 0x20 SUB PUSH2 0x100 EXP SUB DUP1 NOT DUP3 MLOAD AND DUP2 DUP5 MLOAD AND DUP1 DUP3 OR DUP6 MSTORE POP POP POP POP POP POP SWAP1 POP ADD SWAP2 POP POP PUSH1 0x0 PUSH1 0x40 MLOAD DUP1 DUP4 SUB DUP2 PUSH1 0x0 DUP7 GAS CALL SWAP2 POP POP RETURNDATASIZE DUP1 PUSH1 0x0 DUP2 EQ PUSH2 0x3971 JUMPI PUSH1 0x40 MLOAD SWAP2 POP PUSH1 0x1F NOT PUSH1 0x3F RETURNDATASIZE ADD AND DUP3 ADD PUSH1 0x40 MSTORE RETURNDATASIZE DUP3 MSTORE RETURNDATASIZE PUSH1 0x0 PUSH1 0x20 DUP5 ADD RETURNDATACOPY PUSH2 0x3976 JUMP JUMPDEST PUSH1 0x60 SWAP2 POP JUMPDEST POP SWAP2 POP SWAP2 POP DUP2 DUP1 ISZERO PUSH2 0x39A4 JUMPI POP DUP1 MLOAD ISZERO DUP1 PUSH2 0x39A4 JUMPI POP DUP1 DUP1 PUSH1 0x20 ADD SWAP1 MLOAD PUSH1 0x20 DUP2 LT ISZERO PUSH2 0x39A1 JUMPI PUSH1 0x0 DUP1 REVERT JUMPDEST POP MLOAD JUMPDEST PUSH2 0x39F5 JUMPI PUSH1 0x40 DUP1 MLOAD PUSH3 0x461BCD PUSH1 0xE5 SHL DUP2 MSTORE PUSH1 0x20 PUSH1 0x4 DUP3 ADD MSTORE PUSH1 0x1F PUSH1 0x24 DUP3 ADD MSTORE PUSH32 0x5472616E7366657248656C7065723A205452414E534645525F4641494C454400 PUSH1 0x44 DUP3 ADD MSTORE SWAP1 MLOAD SWAP1 DUP2 SWAP1 SUB PUSH1 0x64 ADD SWAP1 REVERT JUMPDEST POP POP POP POP POP JUMP JUMPDEST PUSH1 0x60 PUSH1 0x2 DUP3 MLOAD LT ISZERO PUSH2 0x3A55 JUMPI PUSH1 0x40 DUP1 MLOAD PUSH3 0x461BCD PUSH1 0xE5 SHL DUP2 MSTORE PUSH1 0x20 PUSH1 0x4 DUP3 ADD MSTORE PUSH1 0x1D PUSH1 0x24 DUP3 ADD MSTORE PUSH32 0x4B616C79737761704C6962726172793A20494E56414C49445F50415448000000 PUSH1 0x44 DUP3 ADD MSTORE SWAP1 MLOAD SWAP1 DUP2 SWAP1 SUB PUSH1 0x64 ADD SWAP1 REVERT JUMPDEST DUP2 MLOAD PUSH8 0xFFFFFFFFFFFFFFFF DUP2 GT DUP1 ISZERO PUSH2 0x3A6D JUMPI PUSH1 0x0 DUP1 REVERT JUMPDEST POP PUSH1 0x40 MLOAD SWAP1 DUP1 DUP3 MSTORE DUP1 PUSH1 0x20 MUL PUSH1 0x20 ADD DUP3 ADD PUSH1 0x40 MSTORE DUP1 ISZERO PUSH2 0x3A97 JUMPI DUP2 PUSH1 0x20 ADD PUSH1 0x20 DUP3 MUL DUP1 CALLDATASIZE DUP4 CALLDATACOPY ADD SWAP1 POP JUMPDEST POP SWAP1 POP DUP3 DUP2 PUSH1 0x0 DUP2 MLOAD DUP2 LT PUSH2 0x3AA8 JUMPI INVALID JUMPDEST PUSH1 0x20 MUL PUSH1 0x20 ADD ADD DUP2 DUP2 MSTORE POP POP PUSH1 0x0 JUMPDEST PUSH1 0x1 DUP4 MLOAD SUB DUP2 LT ISZERO PUSH2 0x32D4 JUMPI PUSH1 0x0 DUP1 PUSH2 0x3AED DUP8 DUP7 DUP6 DUP2 MLOAD DUP2 LT PUSH2 0x3AD6 JUMPI INVALID JUMPDEST PUSH1 0x20 MUL PUSH1 0x20 ADD ADD MLOAD DUP8 DUP7 PUSH1 0x1 ADD DUP2 MLOAD DUP2 LT PUSH2 0x3280 JUMPI INVALID JUMPDEST SWAP2 POP SWAP2 POP PUSH2 0x3B0F DUP5 DUP5 DUP2 MLOAD DUP2 LT PUSH2 0x3B00 JUMPI INVALID JUMPDEST PUSH1 0x20 MUL PUSH1 0x20 ADD ADD MLOAD DUP4 DUP4 PUSH2 0x309F JUMP JUMPDEST DUP5 DUP5 PUSH1 0x1 ADD DUP2 MLOAD DUP2 LT PUSH2 0x3B1E JUMPI INVALID JUMPDEST PUSH1 0x20 SWAP1 DUP2 MUL SWAP2 SWAP1 SWAP2 ADD ADD MSTORE POP POP PUSH1 0x1 ADD PUSH2 0x3AB7 JUMP JUMPDEST PUSH1 0x0 JUMPDEST PUSH1 0x1 DUP4 MLOAD SUB DUP2 LT ISZERO PUSH2 0x385F JUMPI PUSH1 0x0 DUP1 DUP5 DUP4 DUP2 MLOAD DUP2 LT PUSH2 0x3B51 JUMPI INVALID JUMPDEST PUSH1 0x20 MUL PUSH1 0x20 ADD ADD MLOAD DUP6 DUP5 PUSH1 0x1 ADD DUP2 MLOAD DUP2 LT PUSH2 0x3B68 JUMPI INVALID JUMPDEST PUSH1 0x20 MUL PUSH1 0x20 ADD ADD MLOAD SWAP2 POP SWAP2 POP PUSH1 0x0 PUSH2 0x3B80 DUP4 DUP4 PUSH2 0x42F8 JUMP JUMPDEST POP SWAP1 POP PUSH1 0x0 PUSH2 0x3BB0 PUSH32 0x0 DUP6 DUP6 PUSH2 0x32DC JUMP JUMPDEST SWAP1 POP PUSH1 0x0 DUP1 PUSH1 0x0 DUP1 DUP5 PUSH1 0x1 PUSH1 0x1 PUSH1 0xA0 SHL SUB AND PUSH4 0x902F1AC PUSH1 0x40 MLOAD DUP2 PUSH4 0xFFFFFFFF AND PUSH1 0xE0 SHL DUP2 MSTORE PUSH1 0x4 ADD PUSH1 0x60 PUSH1 0x40 MLOAD DUP1 DUP4 SUB DUP2 DUP7 DUP1 EXTCODESIZE ISZERO DUP1 ISZERO PUSH2 0x3BF1 JUMPI PUSH1 0x0 DUP1 REVERT JUMPDEST POP GAS STATICCALL ISZERO DUP1 ISZERO PUSH2 0x3C05 JUMPI RETURNDATASIZE PUSH1 0x0 DUP1 RETURNDATACOPY RETURNDATASIZE PUSH1 0x0 REVERT JUMPDEST POP POP POP POP PUSH1 0x40 MLOAD RETURNDATASIZE PUSH1 0x60 DUP2 LT ISZERO PUSH2 0x3C1B JUMPI PUSH1 0x0 DUP1 REVERT JUMPDEST POP DUP1 MLOAD PUSH1 0x20 SWAP1 SWAP2 ADD MLOAD PUSH14 0xFFFFFFFFFFFFFFFFFFFFFFFFFFFF SWAP2 DUP3 AND SWAP4 POP AND SWAP1 POP PUSH1 0x0 DUP1 PUSH1 0x1 PUSH1 0x1 PUSH1 0xA0 SHL SUB DUP11 DUP2 AND SWAP1 DUP10 AND EQ PUSH2 0x3C58 JUMPI DUP3 DUP5 PUSH2 0x3C5B JUMP JUMPDEST DUP4 DUP4 JUMPDEST SWAP2 POP SWAP2 POP PUSH2 0x3CB9 DUP3 DUP12 PUSH1 0x1 PUSH1 0x1 PUSH1 0xA0 SHL SUB AND PUSH4 0x70A08231 DUP11 PUSH1 0x40 MLOAD DUP3 PUSH4 0xFFFFFFFF AND PUSH1 0xE0 SHL DUP2 MSTORE PUSH1 0x4 ADD DUP1 DUP3 PUSH1 0x1 PUSH1 0x1 PUSH1 0xA0 SHL SUB AND PUSH1 0x1 PUSH1 0x1 PUSH1 0xA0 SHL SUB AND DUP2 MSTORE PUSH1 0x20 ADD SWAP2 POP POP PUSH1 0x20 PUSH1 0x40 MLOAD DUP1 DUP4 SUB DUP2 DUP7 DUP1 EXTCODESIZE ISZERO DUP1 ISZERO PUSH2 0x1788 JUMPI PUSH1 0x0 DUP1 REVERT JUMPDEST SWAP6 POP PUSH2 0x3CC6 DUP7 DUP4 DUP4 PUSH2 0x309F JUMP JUMPDEST SWAP5 POP POP POP POP POP PUSH1 0x0 DUP1 DUP6 PUSH1 0x1 PUSH1 0x1 PUSH1 0xA0 SHL SUB AND DUP9 PUSH1 0x1 PUSH1 0x1 PUSH1 0xA0 SHL SUB AND EQ PUSH2 0x3CF0 JUMPI DUP3 PUSH1 0x0 PUSH2 0x3CF4 JUMP JUMPDEST PUSH1 0x0 DUP4 JUMPDEST SWAP2 POP SWAP2 POP PUSH1 0x0 PUSH1 0x2 DUP13 MLOAD SUB DUP11 LT PUSH2 0x3D0B JUMPI DUP11 PUSH2 0x3D3F JUMP JUMPDEST PUSH2 0x3D3F PUSH32 0x0 DUP10 DUP15 DUP14 PUSH1 0x2 ADD DUP2 MLOAD DUP2 LT PUSH2 0x3604 JUMPI INVALID JUMPDEST PUSH1 0x40 DUP1 MLOAD PUSH1 0x0 DUP1 DUP3 MSTORE PUSH1 0x20 DUP3 ADD SWAP3 DUP4 SWAP1 MSTORE PUSH32 0x22C0D9F00000000000000000000000000000000000000000000000000000000 DUP4 MSTORE PUSH1 0x24 DUP3 ADD DUP8 DUP2 MSTORE PUSH1 0x44 DUP4 ADD DUP8 SWAP1 MSTORE PUSH1 0x1 PUSH1 0x1 PUSH1 0xA0 SHL SUB DUP1 DUP7 AND PUSH1 0x64 DUP6 ADD MSTORE PUSH1 0x80 PUSH1 0x84 DUP6 ADD SWAP1 DUP2 MSTORE DUP5 MLOAD PUSH1 0xA4 DUP7 ADD DUP2 SWAP1 MSTORE SWAP7 SWAP8 POP SWAP1 DUP13 AND SWAP6 PUSH4 0x22C0D9F SWAP6 DUP11 SWAP6 DUP11 SWAP6 DUP11 SWAP6 SWAP2 SWAP5 SWAP2 SWAP4 SWAP2 SWAP3 PUSH1 0xC4 DUP7 ADD SWAP3 SWAP1 SWAP2 DUP2 SWAP1 DUP5 SWAP1 DUP5 SWAP1 JUMPDEST DUP4 DUP2 LT ISZERO PUSH2 0x3DE2 JUMPI DUP2 DUP2 ADD MLOAD DUP4 DUP3 ADD MSTORE PUSH1 0x20 ADD PUSH2 0x3DCA JUMP JUMPDEST POP POP POP POP SWAP1 POP SWAP1 DUP2 ADD SWAP1 PUSH1 0x1F AND DUP1 ISZERO PUSH2 0x3E0F JUMPI DUP1 DUP3 SUB DUP1 MLOAD PUSH1 0x1 DUP4 PUSH1 0x20 SUB PUSH2 0x100 EXP SUB NOT AND DUP2 MSTORE PUSH1 0x20 ADD SWAP2 POP JUMPDEST POP SWAP6 POP POP POP POP POP POP PUSH1 0x0 PUSH1 0x40 MLOAD DUP1 DUP4 SUB DUP2 PUSH1 0x0 DUP8 DUP1 EXTCODESIZE ISZERO DUP1 ISZERO PUSH2 0x3E31 JUMPI PUSH1 0x0 DUP1 REVERT JUMPDEST POP GAS CALL ISZERO DUP1 ISZERO PUSH2 0x3E45 JUMPI RETURNDATASIZE PUSH1 0x0 DUP1 RETURNDATACOPY RETURNDATASIZE PUSH1 0x0 REVERT JUMPDEST POP POP PUSH1 0x1 SWAP1 SWAP12 ADD SWAP11 POP PUSH2 0x3B36 SWAP10 POP POP POP POP POP POP POP POP POP POP JUMP JUMPDEST DUP1 DUP3 SUB DUP3 DUP2 GT ISZERO PUSH2 0x1327 JUMPI PUSH1 0x40 DUP1 MLOAD PUSH3 0x461BCD PUSH1 0xE5 SHL DUP2 MSTORE PUSH1 0x20 PUSH1 0x4 DUP3 ADD MSTORE PUSH1 0x15 PUSH1 0x24 DUP3 ADD MSTORE PUSH32 0x64732D6D6174682D7375622D756E646572666C6F770000000000000000000000 PUSH1 0x44 DUP3 ADD MSTORE SWAP1 MLOAD SWAP1 DUP2 SWAP1 SUB PUSH1 0x64 ADD SWAP1 REVERT JUMPDEST PUSH1 0x40 DUP1 MLOAD PUSH32 0xE6A4390500000000000000000000000000000000000000000000000000000000 DUP2 MSTORE PUSH1 0x1 PUSH1 0x1 PUSH1 0xA0 SHL SUB DUP9 DUP2 AND PUSH1 0x4 DUP4 ADD MSTORE DUP8 DUP2 AND PUSH1 0x24 DUP4 ADD MSTORE SWAP2 MLOAD PUSH1 0x0 SWAP3 DUP4 SWAP3 DUP4 SWAP3 PUSH32 0x0 SWAP1 SWAP3 AND SWAP2 PUSH4 0xE6A43905 SWAP2 PUSH1 0x44 DUP1 DUP3 ADD SWAP3 PUSH1 0x20 SWAP3 SWAP1 SWAP2 SWAP1 DUP3 SWAP1 SUB ADD DUP2 DUP7 DUP1 EXTCODESIZE ISZERO DUP1 ISZERO PUSH2 0x3F49 JUMPI PUSH1 0x0 DUP1 REVERT JUMPDEST POP GAS STATICCALL ISZERO DUP1 ISZERO PUSH2 0x3F5D JUMPI RETURNDATASIZE PUSH1 0x0 DUP1 RETURNDATACOPY RETURNDATASIZE PUSH1 0x0 REVERT JUMPDEST POP POP POP POP PUSH1 0x40 MLOAD RETURNDATASIZE PUSH1 0x20 DUP2 LT ISZERO PUSH2 0x3F73 JUMPI PUSH1 0x0 DUP1 REVERT JUMPDEST POP MLOAD PUSH1 0x1 PUSH1 0x1 PUSH1 0xA0 SHL SUB AND EQ ISZERO PUSH2 0x403F JUMPI PUSH1 0x40 DUP1 MLOAD PUSH32 0xC9C6539600000000000000000000000000000000000000000000000000000000 DUP2 MSTORE PUSH1 0x1 PUSH1 0x1 PUSH1 0xA0 SHL SUB DUP11 DUP2 AND PUSH1 0x4 DUP4 ADD MSTORE DUP10 DUP2 AND PUSH1 0x24 DUP4 ADD MSTORE SWAP2 MLOAD PUSH32 0x0 SWAP1 SWAP3 AND SWAP2 PUSH4 0xC9C65396 SWAP2 PUSH1 0x44 DUP1 DUP3 ADD SWAP3 PUSH1 0x20 SWAP3 SWAP1 SWAP2 SWAP1 DUP3 SWAP1 SUB ADD DUP2 PUSH1 0x0 DUP8 DUP1 EXTCODESIZE ISZERO DUP1 ISZERO PUSH2 0x4012 JUMPI PUSH1 0x0 DUP1 REVERT JUMPDEST POP GAS CALL ISZERO DUP1 ISZERO PUSH2 0x4026 JUMPI RETURNDATASIZE PUSH1 0x0 DUP1 RETURNDATACOPY RETURNDATASIZE PUSH1 0x0 REVERT JUMPDEST POP POP POP POP PUSH1 0x40 MLOAD RETURNDATASIZE PUSH1 0x20 DUP2 LT ISZERO PUSH2 0x403C JUMPI PUSH1 0x0 DUP1 REVERT JUMPDEST POP POP JUMPDEST PUSH1 0x0 DUP1 PUSH2 0x406D PUSH32 0x0 DUP12 DUP12 PUSH2 0x449A JUMP JUMPDEST SWAP2 POP SWAP2 POP DUP2 PUSH1 0x0 EQ DUP1 ISZERO PUSH2 0x407F JUMPI POP DUP1 ISZERO JUMPDEST ISZERO PUSH2 0x408F JUMPI DUP8 SWAP4 POP DUP7 SWAP3 POP PUSH2 0x414F JUMP JUMPDEST PUSH1 0x0 PUSH2 0x409C DUP10 DUP5 DUP5 PUSH2 0x424C JUMP JUMPDEST SWAP1 POP DUP8 DUP2 GT PUSH2 0x40EF JUMPI DUP6 DUP2 LT ISZERO PUSH2 0x40E4 JUMPI PUSH1 0x40 MLOAD PUSH3 0x461BCD PUSH1 0xE5 SHL DUP2 MSTORE PUSH1 0x4 ADD DUP1 DUP1 PUSH1 0x20 ADD DUP3 DUP2 SUB DUP3 MSTORE PUSH1 0x25 DUP2 MSTORE PUSH1 0x20 ADD DUP1 PUSH2 0x46A1 PUSH1 0x25 SWAP2 CODECOPY PUSH1 0x40 ADD SWAP2 POP POP PUSH1 0x40 MLOAD DUP1 SWAP2 SUB SWAP1 REVERT JUMPDEST DUP9 SWAP5 POP SWAP3 POP DUP3 PUSH2 0x414D JUMP JUMPDEST PUSH1 0x0 PUSH2 0x40FC DUP10 DUP5 DUP7 PUSH2 0x424C JUMP JUMPDEST SWAP1 POP DUP10 DUP2 GT ISZERO PUSH2 0x4108 JUMPI INVALID JUMPDEST DUP8 DUP2 LT ISZERO PUSH2 0x4147 JUMPI PUSH1 0x40 MLOAD PUSH3 0x461BCD PUSH1 0xE5 SHL DUP2 MSTORE PUSH1 0x4 ADD DUP1 DUP1 PUSH1 0x20 ADD DUP3 DUP2 SUB DUP3 MSTORE PUSH1 0x25 DUP2 MSTORE PUSH1 0x20 ADD DUP1 PUSH2 0x458F PUSH1 0x25 SWAP2 CODECOPY PUSH1 0x40 ADD SWAP2 POP POP PUSH1 0x40 MLOAD DUP1 SWAP2 SUB SWAP1 REVERT JUMPDEST SWAP5 POP DUP8 SWAP4 POP JUMPDEST POP JUMPDEST POP POP SWAP7 POP SWAP7 SWAP5 POP POP POP POP POP JUMP JUMPDEST PUSH1 0x0 DUP1 DUP5 GT PUSH2 0x419C JUMPI PUSH1 0x40 MLOAD PUSH3 0x461BCD PUSH1 0xE5 SHL DUP2 MSTORE PUSH1 0x4 ADD DUP1 DUP1 PUSH1 0x20 ADD DUP3 DUP2 SUB DUP3 MSTORE PUSH1 0x2B DUP2 MSTORE PUSH1 0x20 ADD DUP1 PUSH2 0x45DE PUSH1 0x2B SWAP2 CODECOPY PUSH1 0x40 ADD SWAP2 POP POP PUSH1 0x40 MLOAD DUP1 SWAP2 SUB SWAP1 REVERT JUMPDEST PUSH1 0x0 DUP4 GT DUP1 ISZERO PUSH2 0x41AC JUMPI POP PUSH1 0x0 DUP3 GT JUMPDEST PUSH2 0x41E7 JUMPI PUSH1 0x40 MLOAD PUSH3 0x461BCD PUSH1 0xE5 SHL DUP2 MSTORE PUSH1 0x4 ADD DUP1 DUP1 PUSH1 0x20 ADD DUP3 DUP2 SUB DUP3 MSTORE PUSH1 0x27 DUP2 MSTORE PUSH1 0x20 ADD DUP1 PUSH2 0x467A PUSH1 0x27 SWAP2 CODECOPY PUSH1 0x40 ADD SWAP2 POP POP PUSH1 0x40 MLOAD DUP1 SWAP2 SUB SWAP1 REVERT JUMPDEST PUSH1 0x0 PUSH2 0x420B PUSH2 0x3E8 PUSH2 0x41FF DUP7 DUP9 PUSH4 0xFFFFFFFF PUSH2 0x43D6 AND JUMP JUMPDEST SWAP1 PUSH4 0xFFFFFFFF PUSH2 0x43D6 AND JUMP JUMPDEST SWAP1 POP PUSH1 0x0 PUSH2 0x4225 PUSH2 0x3E5 PUSH2 0x41FF DUP7 DUP10 PUSH4 0xFFFFFFFF PUSH2 0x3E5E AND JUMP JUMPDEST SWAP1 POP PUSH2 0x4242 PUSH1 0x1 DUP3 DUP5 DUP2 PUSH2 0x4235 JUMPI INVALID JUMPDEST DIV SWAP1 PUSH4 0xFFFFFFFF PUSH2 0x4442 AND JUMP JUMPDEST SWAP7 SWAP6 POP POP POP POP POP POP JUMP JUMPDEST PUSH1 0x0 DUP1 DUP5 GT PUSH2 0x428C JUMPI PUSH1 0x40 MLOAD PUSH3 0x461BCD PUSH1 0xE5 SHL DUP2 MSTORE PUSH1 0x4 ADD DUP1 DUP1 PUSH1 0x20 ADD DUP3 DUP2 SUB DUP3 MSTORE PUSH1 0x24 DUP2 MSTORE PUSH1 0x20 ADD DUP1 PUSH2 0x4609 PUSH1 0x24 SWAP2 CODECOPY PUSH1 0x40 ADD SWAP2 POP POP PUSH1 0x40 MLOAD DUP1 SWAP2 SUB SWAP1 REVERT JUMPDEST PUSH1 0x0 DUP4 GT DUP1 ISZERO PUSH2 0x429C JUMPI POP PUSH1 0x0 DUP3 GT JUMPDEST PUSH2 0x42D7 JUMPI PUSH1 0x40 MLOAD PUSH3 0x461BCD PUSH1 0xE5 SHL DUP2 MSTORE PUSH1 0x4 ADD DUP1 DUP1 PUSH1 0x20 ADD DUP3 DUP2 SUB DUP3 MSTORE PUSH1 0x27 DUP2 MSTORE PUSH1 0x20 ADD DUP1 PUSH2 0x467A PUSH1 0x27 SWAP2 CODECOPY PUSH1 0x40 ADD SWAP2 POP POP PUSH1 0x40 MLOAD DUP1 SWAP2 SUB SWAP1 REVERT JUMPDEST DUP3 PUSH2 0x42E8 DUP6 DUP5 PUSH4 0xFFFFFFFF PUSH2 0x43D6 AND JUMP JUMPDEST DUP2 PUSH2 0x42EF JUMPI INVALID JUMPDEST DIV SWAP5 SWAP4 POP POP POP POP JUMP JUMPDEST PUSH1 0x0 DUP1 DUP3 PUSH1 0x1 PUSH1 0x1 PUSH1 0xA0 SHL SUB AND DUP5 PUSH1 0x1 PUSH1 0x1 PUSH1 0xA0 SHL SUB AND EQ ISZERO PUSH2 0x434C JUMPI PUSH1 0x40 MLOAD PUSH3 0x461BCD PUSH1 0xE5 SHL DUP2 MSTORE PUSH1 0x4 ADD DUP1 DUP1 PUSH1 0x20 ADD DUP3 DUP2 SUB DUP3 MSTORE PUSH1 0x24 DUP2 MSTORE PUSH1 0x20 ADD DUP1 PUSH2 0x46C6 PUSH1 0x24 SWAP2 CODECOPY PUSH1 0x40 ADD SWAP2 POP POP PUSH1 0x40 MLOAD DUP1 SWAP2 SUB SWAP1 REVERT JUMPDEST DUP3 PUSH1 0x1 PUSH1 0x1 PUSH1 0xA0 SHL SUB AND DUP5 PUSH1 0x1 PUSH1 0x1 PUSH1 0xA0 SHL SUB AND LT PUSH2 0x436C JUMPI DUP3 DUP5 PUSH2 0x436F JUMP JUMPDEST DUP4 DUP4 JUMPDEST SWAP1 SWAP3 POP SWAP1 POP PUSH1 0x1 PUSH1 0x1 PUSH1 0xA0 SHL SUB DUP3 AND PUSH2 0x43CF JUMPI PUSH1 0x40 DUP1 MLOAD PUSH3 0x461BCD PUSH1 0xE5 SHL DUP2 MSTORE PUSH1 0x20 PUSH1 0x4 DUP3 ADD MSTORE PUSH1 0x1D PUSH1 0x24 DUP3 ADD MSTORE PUSH32 0x4B616C79737761704C6962726172793A205A45524F5F41444452455353000000 PUSH1 0x44 DUP3 ADD MSTORE SWAP1 MLOAD SWAP1 DUP2 SWAP1 SUB PUSH1 0x64 ADD SWAP1 REVERT JUMPDEST SWAP3 POP SWAP3 SWAP1 POP JUMP JUMPDEST PUSH1 0x0 DUP2 ISZERO DUP1 PUSH2 0x43F1 JUMPI POP POP DUP1 DUP3 MUL DUP3 DUP3 DUP3 DUP2 PUSH2 0x43EE JUMPI INVALID JUMPDEST DIV EQ JUMPDEST PUSH2 0x1327 JUMPI PUSH1 0x40 DUP1 MLOAD PUSH3 0x461BCD PUSH1 0xE5 SHL DUP2 MSTORE PUSH1 0x20 PUSH1 0x4 DUP3 ADD MSTORE PUSH1 0x14 PUSH1 0x24 DUP3 ADD MSTORE PUSH32 0x64732D6D6174682D6D756C2D6F766572666C6F77000000000000000000000000 PUSH1 0x44 DUP3 ADD MSTORE SWAP1 MLOAD SWAP1 DUP2 SWAP1 SUB PUSH1 0x64 ADD SWAP1 REVERT JUMPDEST DUP1 DUP3 ADD DUP3 DUP2 LT ISZERO PUSH2 0x1327 JUMPI PUSH1 0x40 DUP1 MLOAD PUSH3 0x461BCD PUSH1 0xE5 SHL DUP2 MSTORE PUSH1 0x20 PUSH1 0x4 DUP3 ADD MSTORE PUSH1 0x14 PUSH1 0x24 DUP3 ADD MSTORE PUSH32 0x64732D6D6174682D6164642D6F766572666C6F77000000000000000000000000 PUSH1 0x44 DUP3 ADD MSTORE SWAP1 MLOAD SWAP1 DUP2 SWAP1 SUB PUSH1 0x64 ADD SWAP1 REVERT JUMPDEST PUSH1 0x0 DUP1 PUSH1 0x0 PUSH2 0x44A9 DUP6 DUP6 PUSH2 0x42F8 JUMP JUMPDEST POP SWAP1 POP PUSH1 0x0 DUP1 PUSH2 0x44BA DUP9 DUP9 DUP9 PUSH2 0x32DC JUMP JUMPDEST PUSH1 0x1 PUSH1 0x1 PUSH1 0xA0 SHL SUB AND PUSH4 0x902F1AC PUSH1 0x40 MLOAD DUP2 PUSH4 0xFFFFFFFF AND PUSH1 0xE0 SHL DUP2 MSTORE PUSH1 0x4 ADD PUSH1 0x60 PUSH1 0x40 MLOAD DUP1 DUP4 SUB DUP2 DUP7 DUP1 EXTCODESIZE ISZERO DUP1 ISZERO PUSH2 0x44F2 JUMPI PUSH1 0x0 DUP1 REVERT JUMPDEST POP GAS STATICCALL ISZERO DUP1 ISZERO PUSH2 0x4506 JUMPI RETURNDATASIZE PUSH1 0x0 DUP1 RETURNDATACOPY RETURNDATASIZE PUSH1 0x0 REVERT JUMPDEST POP POP POP POP PUSH1 0x40 MLOAD RETURNDATASIZE PUSH1 0x60 DUP2 LT ISZERO PUSH2 0x451C JUMPI PUSH1 0x0 DUP1 REVERT JUMPDEST POP DUP1 MLOAD PUSH1 0x20 SWAP1 SWAP2 ADD MLOAD PUSH14 0xFFFFFFFFFFFFFFFFFFFFFFFFFFFF SWAP2 DUP3 AND SWAP4 POP AND SWAP1 POP PUSH1 0x1 PUSH1 0x1 PUSH1 0xA0 SHL SUB DUP8 DUP2 AND SWAP1 DUP5 AND EQ PUSH2 0x4556 JUMPI DUP1 DUP3 PUSH2 0x4559 JUMP JUMPDEST DUP2 DUP2 JUMPDEST SWAP1 SWAP10 SWAP1 SWAP9 POP SWAP7 POP POP POP POP POP POP POP JUMP INVALID 0x4B PUSH2 0x6C79 PUSH20 0x776170526F757465723A20455843455353495645 0x5F 0x49 0x4E POP SSTORE SLOAD 0x5F COINBASE 0x4D 0x4F SSTORE 0x4E SLOAD 0x4B PUSH2 0x6C79 PUSH20 0x776170526F757465723A20494E53554646494349 GASLIMIT 0x4E SLOAD 0x5F COINBASE 0x5F COINBASE 0x4D 0x4F SSTORE 0x4E SLOAD 0x4B PUSH2 0x6C79 PUSH20 0x776170526F757465723A20494E53554646494349 GASLIMIT 0x4E SLOAD 0x5F 0x4F SSTORE SLOAD POP SSTORE SLOAD 0x5F COINBASE 0x4D 0x4F SSTORE 0x4E SLOAD 0x4B PUSH2 0x6C79 PUSH20 0x7761704C6962726172793A20494E535546464943 0x49 GASLIMIT 0x4E SLOAD 0x5F 0x4F SSTORE SLOAD POP SSTORE SLOAD 0x5F COINBASE 0x4D 0x4F SSTORE 0x4E SLOAD 0x4B PUSH2 0x6C79 PUSH20 0x7761704C6962726172793A20494E535546464943 0x49 GASLIMIT 0x4E SLOAD 0x5F COINBASE 0x4D 0x4F SSTORE 0x4E SLOAD 0x4B PUSH2 0x6C79 PUSH20 0x7761704C6962726172793A20494E535546464943 0x49 GASLIMIT 0x4E SLOAD 0x5F 0x49 0x4E POP SSTORE SLOAD 0x5F COINBASE 0x4D 0x4F SSTORE 0x4E SLOAD SLOAD PUSH19 0x616E7366657248656C7065723A204B4C435F54 MSTORE COINBASE 0x4E MSTORE8 CHAINID GASLIMIT MSTORE 0x5F CHAINID COINBASE 0x49 0x4C GASLIMIT DIFFICULTY 0x4B PUSH2 0x6C79 PUSH20 0x7761704C6962726172793A20494E535546464943 0x49 GASLIMIT 0x4E SLOAD 0x5F 0x4C 0x49 MLOAD SSTORE 0x49 DIFFICULTY 0x49 SLOAD MSIZE 0x4B PUSH2 0x6C79 PUSH20 0x776170526F757465723A20494E53554646494349 GASLIMIT 0x4E SLOAD 0x5F TIMESTAMP 0x5F COINBASE 0x4D 0x4F SSTORE 0x4E SLOAD 0x4B PUSH2 0x6C79 PUSH20 0x7761704C6962726172793A204944454E54494341 0x4C 0x5F COINBASE DIFFICULTY DIFFICULTY MSTORE GASLIMIT MSTORE8 MSTORE8 GASLIMIT MSTORE8 0x4B PUSH2 0x6C79 PUSH20 0x776170526F757465723A20455850495245440000 STOP STOP STOP STOP STOP STOP STOP SLOAD PUSH19 0x616E7366657248656C7065723A205452414E53 CHAINID GASLIMIT MSTORE 0x5F CHAINID MSTORE 0x4F 0x4D 0x5F CHAINID COINBASE 0x49 0x4C GASLIMIT DIFFICULTY LOG2 PUSH5 0x6970667358 0x22 SLT KECCAK256 CHAINID PUSH7 0xFE029987A189EE 0x2E 0xA8 0x25 0xAE EXP PUSH11 0xD6161D6B1509748125A1F6 0xF7 RETURNDATACOPY DELEGATECALL RETURN SSTORE PUSH10 0x64736F6C634300060600 CALLER "
				},
				"gasEstimates": {
					"creation": {
						"codeDepositCost": "3655000",
						"executionCost": "infinite",
						"totalCost": "infinite"
					},
					"external": {
						"WKLC()": "infinite",
						"addLiquidity(address,address,uint256,uint256,uint256,uint256,address,uint256)": "infinite",
						"addLiquidityKLC(address,uint256,uint256,uint256,address,uint256)": "infinite",
						"factory()": "infinite",
						"getAmountIn(uint256,uint256,uint256)": "infinite",
						"getAmountOut(uint256,uint256,uint256)": "infinite",
						"getAmountsIn(uint256,address[])": "infinite",
						"getAmountsOut(uint256,address[])": "infinite",
						"quote(uint256,uint256,uint256)": "infinite",
						"removeLiquidity(address,address,uint256,uint256,uint256,address,uint256)": "infinite",
						"removeLiquidityKLC(address,uint256,uint256,uint256,address,uint256)": "infinite",
						"removeLiquidityKLCSupportingFeeOnTransferTokens(address,uint256,uint256,uint256,address,uint256)": "infinite",
						"removeLiquidityKLCWithPermit(address,uint256,uint256,uint256,address,uint256,bool,uint8,bytes32,bytes32)": "infinite",
						"removeLiquidityKLCWithPermitSupportingFeeOnTransferTokens(address,uint256,uint256,uint256,address,uint256,bool,uint8,bytes32,bytes32)": "infinite",
						"removeLiquidityWithPermit(address,address,uint256,uint256,uint256,address,uint256,bool,uint8,bytes32,bytes32)": "infinite",
						"swapExactKLCForTokens(uint256,address[],address,uint256)": "infinite",
						"swapExactKLCForTokensSupportingFeeOnTransferTokens(uint256,address[],address,uint256)": "infinite",
						"swapExactTokensForKLC(uint256,uint256,address[],address,uint256)": "infinite",
						"swapExactTokensForKLCSupportingFeeOnTransferTokens(uint256,uint256,address[],address,uint256)": "infinite",
						"swapExactTokensForTokens(uint256,uint256,address[],address,uint256)": "infinite",
						"swapExactTokensForTokensSupportingFeeOnTransferTokens(uint256,uint256,address[],address,uint256)": "infinite",
						"swapKLCForExactTokens(uint256,address[],address,uint256)": "infinite",
						"swapTokensForExactKLC(uint256,uint256,address[],address,uint256)": "infinite",
						"swapTokensForExactTokens(uint256,uint256,address[],address,uint256)": "infinite"
					},
					"internal": {
						"_addLiquidity(address,address,uint256,uint256,uint256,uint256)": "infinite",
						"_swap(uint256[] memory,address[] memory,address)": "infinite",
						"_swapSupportingFeeOnTransferTokens(address[] memory,address)": "infinite"
					}
				},
				"methodIdentifiers": {
					"WKLC()": "105e4308",
					"addLiquidity(address,address,uint256,uint256,uint256,uint256,address,uint256)": "e8e33700",
					"addLiquidityKLC(address,uint256,uint256,uint256,address,uint256)": "801ef55d",
					"factory()": "c45a0155",
					"getAmountIn(uint256,uint256,uint256)": "85f8c259",
					"getAmountOut(uint256,uint256,uint256)": "054d50d4",
					"getAmountsIn(uint256,address[])": "1f00ca74",
					"getAmountsOut(uint256,address[])": "d06ca61f",
					"quote(uint256,uint256,uint256)": "ad615dec",
					"removeLiquidity(address,address,uint256,uint256,uint256,address,uint256)": "baa2abde",
					"removeLiquidityKLC(address,uint256,uint256,uint256,address,uint256)": "ad477b4d",
					"removeLiquidityKLCSupportingFeeOnTransferTokens(address,uint256,uint256,uint256,address,uint256)": "173dab80",
					"removeLiquidityKLCWithPermit(address,uint256,uint256,uint256,address,uint256,bool,uint8,bytes32,bytes32)": "114445f9",
					"removeLiquidityKLCWithPermitSupportingFeeOnTransferTokens(address,uint256,uint256,uint256,address,uint256,bool,uint8,bytes32,bytes32)": "d3b5b4c8",
					"removeLiquidityWithPermit(address,address,uint256,uint256,uint256,address,uint256,bool,uint8,bytes32,bytes32)": "2195995c",
					"swapExactKLCForTokens(uint256,address[],address,uint256)": "b6124cc7",
					"swapExactKLCForTokensSupportingFeeOnTransferTokens(uint256,address[],address,uint256)": "b6f315e9",
					"swapExactTokensForKLC(uint256,uint256,address[],address,uint256)": "d53a791e",
					"swapExactTokensForKLCSupportingFeeOnTransferTokens(uint256,uint256,address[],address,uint256)": "b6e1d024",
					"swapExactTokensForTokens(uint256,uint256,address[],address,uint256)": "38ed1739",
					"swapExactTokensForTokensSupportingFeeOnTransferTokens(uint256,uint256,address[],address,uint256)": "5c11d795",
					"swapKLCForExactTokens(uint256,address[],address,uint256)": "ad87fb0a",
					"swapTokensForExactKLC(uint256,uint256,address[],address,uint256)": "056d9505",
					"swapTokensForExactTokens(uint256,uint256,address[],address,uint256)": "8803dbee"
				}
			},
			"storageLayout": {
				"storage": [],
				"types": null
			},
			"userdoc": {
				"methods": {}
			}
		}
	}
}