{
	"CoreContracts/kalyswap-periphery/KalyswapBridgeMigrationRouter_flattened.sol": {
		"KalyswapBridgeMigrationRouter": {
			"abi": [
				{
					"inputs": [],
					"stateMutability": "nonpayable",
					"type": "constructor"
				},
				{
					"inputs": [
						{
							"internalType": "address",
							"name": "account",
							"type": "address"
						}
					],
					"name": "addAdmin",
					"outputs": [],
					"stateMutability": "nonpayable",
					"type": "function"
				},
				{
					"inputs": [
						{
							"internalType": "address",
							"name": "tokenAddress",
							"type": "address"
						},
						{
							"internalType": "address",
							"name": "migratorAddress",
							"type": "address"
						}
					],
					"name": "addMigrator",
					"outputs": [],
					"stateMutability": "nonpayable",
					"type": "function"
				},
				{
					"inputs": [
						{
							"internalType": "address",
							"name": "",
							"type": "address"
						}
					],
					"name": "bridgeMigrator",
					"outputs": [
						{
							"internalType": "address",
							"name": "",
							"type": "address"
						}
					],
					"stateMutability": "view",
					"type": "function"
				},
				{
					"inputs": [
						{
							"internalType": "address",
							"name": "liquidityPairFrom",
							"type": "address"
						},
						{
							"internalType": "address",
							"name": "liquidityPairTo",
							"type": "address"
						},
						{
							"internalType": "uint256",
							"name": "amount",
							"type": "uint256"
						}
					],
					"name": "calculateChargeBack",
					"outputs": [
						{
							"internalType": "uint256",
							"name": "amount0",
							"type": "uint256"
						},
						{
							"internalType": "uint256",
							"name": "amount1",
							"type": "uint256"
						}
					],
					"stateMutability": "view",
					"type": "function"
				},
				{
					"inputs": [
						{
							"internalType": "address",
							"name": "account",
							"type": "address"
						}
					],
					"name": "isAdmin",
					"outputs": [
						{
							"internalType": "bool",
							"name": "",
							"type": "bool"
						}
					],
					"stateMutability": "view",
					"type": "function"
				},
				{
					"inputs": [
						{
							"internalType": "address",
							"name": "liquidityPairFrom",
							"type": "address"
						},
						{
							"internalType": "address",
							"name": "liquidityPairTo",
							"type": "address"
						},
						{
							"internalType": "address",
							"name": "to",
							"type": "address"
						},
						{
							"internalType": "uint256",
							"name": "amount",
							"type": "uint256"
						},
						{
							"internalType": "uint256",
							"name": "deadline",
							"type": "uint256"
						}
					],
					"name": "migrateLiquidity",
					"outputs": [],
					"stateMutability": "nonpayable",
					"type": "function"
				},
				{
					"inputs": [
						{
							"internalType": "address",
							"name": "liquidityPairFrom",
							"type": "address"
						},
						{
							"internalType": "address",
							"name": "liquidityPairTo",
							"type": "address"
						},
						{
							"internalType": "address",
							"name": "to",
							"type": "address"
						},
						{
							"internalType": "uint256",
							"name": "amount",
							"type": "uint256"
						},
						{
							"internalType": "uint256",
							"name": "deadline",
							"type": "uint256"
						},
						{
							"internalType": "uint8",
							"name": "v",
							"type": "uint8"
						},
						{
							"internalType": "bytes32",
							"name": "r",
							"type": "bytes32"
						},
						{
							"internalType": "bytes32",
							"name": "s",
							"type": "bytes32"
						}
					],
					"name": "migrateLiquidityWithPermit",
					"outputs": [],
					"stateMutability": "nonpayable",
					"type": "function"
				},
				{
					"inputs": [
						{
							"internalType": "address",
							"name": "token",
							"type": "address"
						},
						{
							"internalType": "address",
							"name": "to",
							"type": "address"
						},
						{
							"internalType": "uint256",
							"name": "amount",
							"type": "uint256"
						},
						{
							"internalType": "uint256",
							"name": "deadline",
							"type": "uint256"
						}
					],
					"name": "migrateToken",
					"outputs": [],
					"stateMutability": "nonpayable",
					"type": "function"
				},
				{
					"inputs": [
						{
							"internalType": "address",
							"name": "account",
							"type": "address"
						}
					],
					"name": "removeAdmin",
					"outputs": [],
					"stateMutability": "nonpayable",
					"type": "function"
				}
			],
			"devdoc": {
				"kind": "dev",
				"methods": {
					"addAdmin(address)": {
						"details": "Any admin can add or remove other admins, careful.",
						"params": {
							"account": "The address of the account."
						}
					},
					"addMigrator(address,address)": {
						"params": {
							"migratorAddress": "The WrappedERC20 token address that will be migrate the token",
							"tokenAddress": "The ERC20 token address that will be migrated using the migrator"
						}
					},
					"calculateChargeBack(address,address,uint256)": {
						"details": "No need to be extra careful as this is only a view function",
						"params": {
							"amount": "The amount of the liquidity token to be migrated(simulated)",
							"liquidityPairFrom": "The pair address that will be migrated from(simulated)",
							"liquidityPairTo": "The pair address that will be migrated to(simulated)"
						},
						"returns": {
							"amount0": "Amount of token0 will be charged back after the migration",
							"amount1": "Amount of token1 will be charged back after the migration"
						}
					},
					"isAdmin(address)": {
						"params": {
							"account": "The address of the account."
						},
						"returns": {
							"_0": "Whether or not the account address is an admin."
						}
					},
					"migrateLiquidity(address,address,address,uint256,uint256)": {
						"details": "This function assumes sender already gave approval to move the assets",
						"params": {
							"amount": "The amount of token liquidityPairFrom that will be migrated",
							"deadline": "The deadline limit that should be met, otherwise revert to prevent front-run",
							"liquidityPairFrom": "The pair address to be migrated from",
							"liquidityPairTo": "The pair address to be migrated to",
							"to": "The address that will receive the liquidity and the charge backs"
						}
					},
					"migrateLiquidityWithPermit(address,address,address,uint256,uint256,uint8,bytes32,bytes32)": {
						"params": {
							"amount": "The amount of token liquidityPairFrom that will be migrated",
							"deadline": "The deadline limit that should be met, otherwise revert to prevent front-run",
							"liquidityPairFrom": "The pair address to be migrated from",
							"liquidityPairTo": "The pair address to be migrated to",
							"r": "by passing param for the permit validation",
							"s": "by passing param for the permit validation",
							"to": "The address that will receive the liquidity and the charge backs",
							"v": "by passing param for the permit validation"
						}
					},
					"migrateToken(address,address,uint256,uint256)": {
						"details": "This function includes important checks",
						"params": {
							"amount": "The amount of the token to be migrated",
							"deadline": "The deadline limit that should be met, otherwise revert to prevent front-run",
							"to": "The address of who's receiving the token",
							"token": "The ERC20 token address that will be migrated"
						}
					},
					"removeAdmin(address)": {
						"details": "Any admin can add or remove other admins, careful.",
						"params": {
							"account": "The address of the account."
						}
					}
				},
				"version": 1
			},
			"evm": {
				"assembly": "    /* \"CoreContracts/kalyswap-periphery/KalyswapBridgeMigrationRouter_flattened.sol\":12541:28750  contract KalyswapBridgeMigrationRouter {... */\n  mstore(0x40, 0x80)\n    /* \"CoreContracts/kalyswap-periphery/KalyswapBridgeMigrationRouter_flattened.sol\":12738:12801  constructor() public {... */\n  callvalue\n  dup1\n  iszero\n  tag_1\n  jumpi\n  0x00\n  dup1\n  revert\ntag_1:\n  pop\n    /* \"CoreContracts/kalyswap-periphery/KalyswapBridgeMigrationRouter_flattened.sol\":12769:12794  adminRole.add(msg.sender) */\n  tag_4\n    /* \"CoreContracts/kalyswap-periphery/KalyswapBridgeMigrationRouter_flattened.sol\":12783:12793  msg.sender */\n  caller\n    /* \"CoreContracts/kalyswap-periphery/KalyswapBridgeMigrationRouter_flattened.sol\":12769:12778  adminRole */\n  0x00\n    /* \"CoreContracts/kalyswap-periphery/KalyswapBridgeMigrationRouter_flattened.sol\":12769:12782  adminRole.add */\n  or(tag_0_41, shl(0x20, tag_5))\n  swap1\n    /* \"CoreContracts/kalyswap-periphery/KalyswapBridgeMigrationRouter_flattened.sol\":12769:12794  adminRole.add(msg.sender) */\n  swap2\n  swap1\n  0x20\n  shr\n  jump\t// in\ntag_4:\n    /* \"CoreContracts/kalyswap-periphery/KalyswapBridgeMigrationRouter_flattened.sol\":12541:28750  contract KalyswapBridgeMigrationRouter {... */\n  jump(tag_6)\n    /* \"CoreContracts/kalyswap-periphery/KalyswapBridgeMigrationRouter_flattened.sol\":8525:8700  function add(Role storage role, address account) internal {... */\ntag_5:\n    /* \"CoreContracts/kalyswap-periphery/KalyswapBridgeMigrationRouter_flattened.sol\":8602:8620  has(role, account) */\n  tag_8\n    /* \"CoreContracts/kalyswap-periphery/KalyswapBridgeMigrationRouter_flattened.sol\":8606:8610  role */\n  dup3\n    /* \"CoreContracts/kalyswap-periphery/KalyswapBridgeMigrationRouter_flattened.sol\":8612:8619  account */\n  dup3\n    /* \"CoreContracts/kalyswap-periphery/KalyswapBridgeMigrationRouter_flattened.sol\":8602:8605  has */\n  tag_9\n    /* \"CoreContracts/kalyswap-periphery/KalyswapBridgeMigrationRouter_flattened.sol\":8602:8620  has(role, account) */\n  jump\t// in\ntag_8:\n    /* \"CoreContracts/kalyswap-periphery/KalyswapBridgeMigrationRouter_flattened.sol\":8601:8620  !has(role, account) */\n  iszero\n    /* \"CoreContracts/kalyswap-periphery/KalyswapBridgeMigrationRouter_flattened.sol\":8593:8656  require(!has(role, account), \"Roles: account already has role\") */\n  tag_10\n  jumpi\n  0x40\n  dup1\n  mload\n  shl(0xe5, 0x461bcd)\n  dup2\n  mstore\n  0x20\n  0x04\n  dup3\n  add\n  mstore\n  0x1f\n  0x24\n  dup3\n  add\n  mstore\n  0x526f6c65733a206163636f756e7420616c72656164792068617320726f6c6500\n  0x44\n  dup3\n  add\n  mstore\n  swap1\n  mload\n  swap1\n  dup2\n  swap1\n  sub\n  0x64\n  add\n  swap1\n  revert\ntag_10:\n  sub(shl(0xa0, 0x01), 0x01)\n    /* \"CoreContracts/kalyswap-periphery/KalyswapBridgeMigrationRouter_flattened.sol\":8666:8686  role.bearer[account] */\n  and\n    /* \"CoreContracts/kalyswap-periphery/KalyswapBridgeMigrationRouter_flattened.sol\":8666:8677  role.bearer */\n  0x00\n    /* \"CoreContracts/kalyswap-periphery/KalyswapBridgeMigrationRouter_flattened.sol\":8666:8686  role.bearer[account] */\n  swap1\n  dup2\n  mstore\n  0x20\n  swap2\n  swap1\n  swap2\n  mstore\n  0x40\n  swap1\n  keccak256\n    /* \"CoreContracts/kalyswap-periphery/KalyswapBridgeMigrationRouter_flattened.sol\":8666:8693  role.bearer[account] = true */\n  dup1\n  sload\n  not(0xff)\n  and\n    /* \"CoreContracts/kalyswap-periphery/KalyswapBridgeMigrationRouter_flattened.sol\":8689:8693  true */\n  0x01\n    /* \"CoreContracts/kalyswap-periphery/KalyswapBridgeMigrationRouter_flattened.sol\":8666:8693  role.bearer[account] = true */\n  or\n  swap1\n  sstore\n    /* \"CoreContracts/kalyswap-periphery/KalyswapBridgeMigrationRouter_flattened.sol\":8525:8700  function add(Role storage role, address account) internal {... */\n  jump\t// out\n    /* \"CoreContracts/kalyswap-periphery/KalyswapBridgeMigrationRouter_flattened.sol\":9044:9272  function has(Role storage role, address account)... */\ntag_9:\n    /* \"CoreContracts/kalyswap-periphery/KalyswapBridgeMigrationRouter_flattened.sol\":9140:9144  bool */\n  0x00\n  sub(shl(0xa0, 0x01), 0x01)\n    /* \"CoreContracts/kalyswap-periphery/KalyswapBridgeMigrationRouter_flattened.sol\":9168:9189  account != address(0) */\n  dup3\n  and\n    /* \"CoreContracts/kalyswap-periphery/KalyswapBridgeMigrationRouter_flattened.sol\":9160:9228  require(account != address(0), \"Roles: account is the zero address\") */\n  tag_12\n  jumpi\n  mload(0x40)\n  shl(0xe5, 0x461bcd)\n  dup2\n  mstore\n  0x04\n  add\n  dup1\n  dup1\n  0x20\n  add\n  dup3\n  dup2\n  sub\n  dup3\n  mstore\n  0x22\n  dup2\n  mstore\n  0x20\n  add\n  dup1\n  data_9d214fa89563f4e6456a3929327e54500ea1cde2c0ba9fb2035ec106190d682f\n  0x22\n  swap2\n  codecopy\n  0x40\n  add\n  swap2\n  pop\n  pop\n  mload(0x40)\n  dup1\n  swap2\n  sub\n  swap1\n  revert\ntag_12:\n  pop\n  sub(shl(0xa0, 0x01), 0x01)\n    /* \"CoreContracts/kalyswap-periphery/KalyswapBridgeMigrationRouter_flattened.sol\":9245:9265  role.bearer[account] */\n  and\n    /* \"CoreContracts/kalyswap-periphery/KalyswapBridgeMigrationRouter_flattened.sol\":9245:9256  role.bearer */\n  0x00\n    /* \"CoreContracts/kalyswap-periphery/KalyswapBridgeMigrationRouter_flattened.sol\":9245:9265  role.bearer[account] */\n  swap1\n  dup2\n  mstore\n  0x20\n  swap2\n  swap1\n  swap2\n  mstore\n  0x40\n  swap1\n  keccak256\n  sload\n  0xff\n  and\n  swap1\n    /* \"CoreContracts/kalyswap-periphery/KalyswapBridgeMigrationRouter_flattened.sol\":9044:9272  function has(Role storage role, address account)... */\n  jump\t// out\n    /* \"CoreContracts/kalyswap-periphery/KalyswapBridgeMigrationRouter_flattened.sol\":12541:28750  contract KalyswapBridgeMigrationRouter {... */\ntag_6:\n  dataSize(sub_0)\n  dup1\n  dataOffset(sub_0)\n  0x00\n  codecopy\n  0x00\n  return\nstop\ndata_9d214fa89563f4e6456a3929327e54500ea1cde2c0ba9fb2035ec106190d682f 526f6c65733a206163636f756e7420697320746865207a65726f2061646472657373\n\nsub_0: assembly {\n        /* \"CoreContracts/kalyswap-periphery/KalyswapBridgeMigrationRouter_flattened.sol\":12541:28750  contract KalyswapBridgeMigrationRouter {... */\n      mstore(0x40, 0x80)\n      callvalue\n      dup1\n      iszero\n      tag_1\n      jumpi\n      0x00\n      dup1\n      revert\n    tag_1:\n      pop\n      jumpi(tag_2, lt(calldatasize, 0x04))\n      shr(0xe0, calldataload(0x00))\n      dup1\n      0x70480275\n      gt\n      tag_12\n      jumpi\n      dup1\n      0xb032fff7\n      gt\n      tag_13\n      jumpi\n      dup1\n      0xb032fff7\n      eq\n      tag_9\n      jumpi\n      dup1\n      0xf057d237\n      eq\n      tag_10\n      jumpi\n      dup1\n      0xffc50594\n      eq\n      tag_11\n      jumpi\n      jump(tag_2)\n    tag_13:\n      dup1\n      0x70480275\n      eq\n      tag_7\n      jumpi\n      dup1\n      0x99a0df82\n      eq\n      tag_8\n      jumpi\n      jump(tag_2)\n    tag_12:\n      dup1\n      0x1785f53c\n      eq\n      tag_3\n      jumpi\n      dup1\n      0x24d7806c\n      eq\n      tag_4\n      jumpi\n      dup1\n      0x495952f5\n      eq\n      tag_5\n      jumpi\n      dup1\n      0x4c389d26\n      eq\n      tag_6\n      jumpi\n    tag_2:\n      0x00\n      dup1\n      revert\n        /* \"CoreContracts/kalyswap-periphery/KalyswapBridgeMigrationRouter_flattened.sol\":13828:14027  function removeAdmin(address account) external onlyAdmin {... */\n    tag_3:\n      tag_14\n      0x04\n      dup1\n      calldatasize\n      sub\n      0x20\n      dup2\n      lt\n      iszero\n      tag_15\n      jumpi\n      0x00\n      dup1\n      revert\n    tag_15:\n      pop\n      calldataload\n      sub(shl(0xa0, 0x01), 0x01)\n      and\n      tag_16\n      jump\t// in\n    tag_14:\n      stop\n        /* \"CoreContracts/kalyswap-periphery/KalyswapBridgeMigrationRouter_flattened.sol\":14240:14348  function isAdmin(address account) external view returns(bool) {... */\n    tag_4:\n      tag_17\n      0x04\n      dup1\n      calldatasize\n      sub\n      0x20\n      dup2\n      lt\n      iszero\n      tag_18\n      jumpi\n      0x00\n      dup1\n      revert\n    tag_18:\n      pop\n      calldataload\n      sub(shl(0xa0, 0x01), 0x01)\n      and\n      tag_19\n      jump\t// in\n    tag_17:\n      0x40\n      dup1\n      mload\n      swap2\n      iszero\n      iszero\n      dup3\n      mstore\n      mload\n      swap1\n      dup2\n      swap1\n      sub\n      0x20\n      add\n      swap1\n      return\n        /* \"CoreContracts/kalyswap-periphery/KalyswapBridgeMigrationRouter_flattened.sol\":22891:23221  function migrateLiquidity(... */\n    tag_5:\n      tag_14\n      0x04\n      dup1\n      calldatasize\n      sub\n      0xa0\n      dup2\n      lt\n      iszero\n      tag_21\n      jumpi\n      0x00\n      dup1\n      revert\n    tag_21:\n      pop\n      sub(shl(0xa0, 0x01), 0x01)\n      dup2\n      calldataload\n      dup2\n      and\n      swap2\n      0x20\n      dup2\n      add\n      calldataload\n      dup3\n      and\n      swap2\n      0x40\n      dup3\n      add\n      calldataload\n      and\n      swap1\n      0x60\n      dup2\n      add\n      calldataload\n      swap1\n      0x80\n      add\n      calldataload\n      tag_22\n      jump\t// in\n        /* \"CoreContracts/kalyswap-periphery/KalyswapBridgeMigrationRouter_flattened.sol\":14655:15279  function addMigrator(address tokenAddress, address migratorAddress) external onlyAdmin {... */\n    tag_6:\n      tag_14\n      0x04\n      dup1\n      calldatasize\n      sub\n      0x40\n      dup2\n      lt\n      iszero\n      tag_24\n      jumpi\n      0x00\n      dup1\n      revert\n    tag_24:\n      pop\n      sub(shl(0xa0, 0x01), 0x01)\n      dup2\n      calldataload\n      dup2\n      and\n      swap2\n      0x20\n      add\n      calldataload\n      and\n      tag_25\n      jump\t// in\n        /* \"CoreContracts/kalyswap-periphery/KalyswapBridgeMigrationRouter_flattened.sol\":13427:13616  function addAdmin(address account) external onlyAdmin {... */\n    tag_7:\n      tag_14\n      0x04\n      dup1\n      calldatasize\n      sub\n      0x20\n      dup2\n      lt\n      iszero\n      tag_27\n      jumpi\n      0x00\n      dup1\n      revert\n    tag_27:\n      pop\n      calldataload\n      sub(shl(0xa0, 0x01), 0x01)\n      and\n      tag_28\n      jump\t// in\n        /* \"CoreContracts/kalyswap-periphery/KalyswapBridgeMigrationRouter_flattened.sol\":27510:28747  function calculateChargeBack(... */\n    tag_8:\n      tag_29\n      0x04\n      dup1\n      calldatasize\n      sub\n      0x60\n      dup2\n      lt\n      iszero\n      tag_30\n      jumpi\n      0x00\n      dup1\n      revert\n    tag_30:\n      pop\n      sub(shl(0xa0, 0x01), 0x01)\n      dup2\n      calldataload\n      dup2\n      and\n      swap2\n      0x20\n      dup2\n      add\n      calldataload\n      swap1\n      swap2\n      and\n      swap1\n      0x40\n      add\n      calldataload\n      tag_31\n      jump\t// in\n    tag_29:\n      0x40\n      dup1\n      mload\n      swap3\n      dup4\n      mstore\n      0x20\n      dup4\n      add\n      swap2\n      swap1\n      swap2\n      mstore\n      dup1\n      mload\n      swap2\n      dup3\n      swap1\n      sub\n      add\n      swap1\n      return\n        /* \"CoreContracts/kalyswap-periphery/KalyswapBridgeMigrationRouter_flattened.sol\":21843:22325  function migrateLiquidityWithPermit(... */\n    tag_9:\n      tag_14\n      0x04\n      dup1\n      calldatasize\n      sub\n      0x0100\n      dup2\n      lt\n      iszero\n      tag_33\n      jumpi\n      0x00\n      dup1\n      revert\n    tag_33:\n      pop\n      sub(shl(0xa0, 0x01), 0x01)\n      dup2\n      calldataload\n      dup2\n      and\n      swap2\n      0x20\n      dup2\n      add\n      calldataload\n      dup3\n      and\n      swap2\n      0x40\n      dup3\n      add\n      calldataload\n      and\n      swap1\n      0x60\n      dup2\n      add\n      calldataload\n      swap1\n      0x80\n      dup2\n      add\n      calldataload\n      swap1\n      0xff\n      0xa0\n      dup3\n      add\n      calldataload\n      and\n      swap1\n      0xc0\n      dup2\n      add\n      calldataload\n      swap1\n      0xe0\n      add\n      calldataload\n      tag_34\n      jump\t// in\n        /* \"CoreContracts/kalyswap-periphery/KalyswapBridgeMigrationRouter_flattened.sol\":20682:21169  function migrateToken(... */\n    tag_10:\n      tag_14\n      0x04\n      dup1\n      calldatasize\n      sub\n      0x80\n      dup2\n      lt\n      iszero\n      tag_36\n      jumpi\n      0x00\n      dup1\n      revert\n    tag_36:\n      pop\n      sub(shl(0xa0, 0x01), 0x01)\n      dup2\n      calldataload\n      dup2\n      and\n      swap2\n      0x20\n      dup2\n      add\n      calldataload\n      swap1\n      swap2\n      and\n      swap1\n      0x40\n      dup2\n      add\n      calldataload\n      swap1\n      0x60\n      add\n      calldataload\n      tag_37\n      jump\t// in\n        /* \"CoreContracts/kalyswap-periphery/KalyswapBridgeMigrationRouter_flattened.sol\":12682:12731  mapping(address => address) public bridgeMigrator */\n    tag_11:\n      tag_38\n      0x04\n      dup1\n      calldatasize\n      sub\n      0x20\n      dup2\n      lt\n      iszero\n      tag_39\n      jumpi\n      0x00\n      dup1\n      revert\n    tag_39:\n      pop\n      calldataload\n      sub(shl(0xa0, 0x01), 0x01)\n      and\n      tag_40\n      jump\t// in\n    tag_38:\n      0x40\n      dup1\n      mload\n      sub(shl(0xa0, 0x01), 0x01)\n      swap1\n      swap3\n      and\n      dup3\n      mstore\n      mload\n      swap1\n      dup2\n      swap1\n      sub\n      0x20\n      add\n      swap1\n      return\n        /* \"CoreContracts/kalyswap-periphery/KalyswapBridgeMigrationRouter_flattened.sol\":13828:14027  function removeAdmin(address account) external onlyAdmin {... */\n    tag_16:\n        /* \"CoreContracts/kalyswap-periphery/KalyswapBridgeMigrationRouter_flattened.sol\":13124:13149  adminRole.has(msg.sender) */\n      tag_43\n        /* \"CoreContracts/kalyswap-periphery/KalyswapBridgeMigrationRouter_flattened.sol\":13124:13133  adminRole */\n      0x00\n        /* \"CoreContracts/kalyswap-periphery/KalyswapBridgeMigrationRouter_flattened.sol\":13138:13148  msg.sender */\n      caller\n        /* \"CoreContracts/kalyswap-periphery/KalyswapBridgeMigrationRouter_flattened.sol\":13124:13137  adminRole.has */\n      tag_44\n        /* \"CoreContracts/kalyswap-periphery/KalyswapBridgeMigrationRouter_flattened.sol\":13124:13149  adminRole.has(msg.sender) */\n      jump\t// in\n    tag_43:\n        /* \"CoreContracts/kalyswap-periphery/KalyswapBridgeMigrationRouter_flattened.sol\":13116:13197  require(adminRole.has(msg.sender), 'KalyswapBridgeMigrationRouter: Unauthorized') */\n      tag_45\n      jumpi\n      mload(0x40)\n      shl(0xe5, 0x461bcd)\n      dup2\n      mstore\n      0x04\n      add\n      dup1\n      dup1\n      0x20\n      add\n      dup3\n      dup2\n      sub\n      dup3\n      mstore\n      0x2b\n      dup2\n      mstore\n      0x20\n      add\n      dup1\n      data_72bf313591ceddf754ca6a5c3bb1bce298c6ad13c15c3e899581c1b7df075c21\n      0x2b\n      swap2\n      codecopy\n      0x40\n      add\n      swap2\n      pop\n      pop\n      mload(0x40)\n      dup1\n      swap2\n      sub\n      swap1\n      revert\n    tag_45:\n        /* \"CoreContracts/kalyswap-periphery/KalyswapBridgeMigrationRouter_flattened.sol\":13903:13913  msg.sender */\n      caller\n      sub(shl(0xa0, 0x01), 0x01)\n        /* \"CoreContracts/kalyswap-periphery/KalyswapBridgeMigrationRouter_flattened.sol\":13903:13924  msg.sender != account */\n      dup3\n      and\n      eq\n      iszero\n        /* \"CoreContracts/kalyswap-periphery/KalyswapBridgeMigrationRouter_flattened.sol\":13895:13985  require(msg.sender != account, \"KalyswapBridgeMigrationRouter: You can't demote yourself\") */\n      tag_47\n      jumpi\n      mload(0x40)\n      shl(0xe5, 0x461bcd)\n      dup2\n      mstore\n      0x04\n      add\n      dup1\n      dup1\n      0x20\n      add\n      dup3\n      dup2\n      sub\n      dup3\n      mstore\n      0x38\n      dup2\n      mstore\n      0x20\n      add\n      dup1\n      data_e6c3cbc1b9cc3350f2defb4add44202bf98de183d551d772ba5896f5bb0d10cc\n      0x38\n      swap2\n      codecopy\n      0x40\n      add\n      swap2\n      pop\n      pop\n      mload(0x40)\n      dup1\n      swap2\n      sub\n      swap1\n      revert\n    tag_47:\n        /* \"CoreContracts/kalyswap-periphery/KalyswapBridgeMigrationRouter_flattened.sol\":13995:14020  adminRole.remove(account) */\n      tag_48\n        /* \"CoreContracts/kalyswap-periphery/KalyswapBridgeMigrationRouter_flattened.sol\":13995:14004  adminRole */\n      0x00\n        /* \"CoreContracts/kalyswap-periphery/KalyswapBridgeMigrationRouter_flattened.sol\":14012:14019  account */\n      dup3\n        /* \"CoreContracts/kalyswap-periphery/KalyswapBridgeMigrationRouter_flattened.sol\":13995:14011  adminRole.remove */\n      tag_49\n        /* \"CoreContracts/kalyswap-periphery/KalyswapBridgeMigrationRouter_flattened.sol\":13995:14020  adminRole.remove(account) */\n      jump\t// in\n    tag_48:\n        /* \"CoreContracts/kalyswap-periphery/KalyswapBridgeMigrationRouter_flattened.sol\":13828:14027  function removeAdmin(address account) external onlyAdmin {... */\n      pop\n      jump\t// out\n        /* \"CoreContracts/kalyswap-periphery/KalyswapBridgeMigrationRouter_flattened.sol\":14240:14348  function isAdmin(address account) external view returns(bool) {... */\n    tag_19:\n        /* \"CoreContracts/kalyswap-periphery/KalyswapBridgeMigrationRouter_flattened.sol\":14296:14300  bool */\n      0x00\n        /* \"CoreContracts/kalyswap-periphery/KalyswapBridgeMigrationRouter_flattened.sol\":14319:14341  adminRole.has(account) */\n      tag_51\n        /* \"CoreContracts/kalyswap-periphery/KalyswapBridgeMigrationRouter_flattened.sol\":14296:14300  bool */\n      dup2\n        /* \"CoreContracts/kalyswap-periphery/KalyswapBridgeMigrationRouter_flattened.sol\":14333:14340  account */\n      dup4\n        /* \"CoreContracts/kalyswap-periphery/KalyswapBridgeMigrationRouter_flattened.sol\":14319:14332  adminRole.has */\n      tag_44\n        /* \"CoreContracts/kalyswap-periphery/KalyswapBridgeMigrationRouter_flattened.sol\":14319:14341  adminRole.has(account) */\n      jump\t// in\n    tag_51:\n        /* \"CoreContracts/kalyswap-periphery/KalyswapBridgeMigrationRouter_flattened.sol\":14312:14341  return adminRole.has(account) */\n      swap3\n        /* \"CoreContracts/kalyswap-periphery/KalyswapBridgeMigrationRouter_flattened.sol\":14240:14348  function isAdmin(address account) external view returns(bool) {... */\n      swap2\n      pop\n      pop\n      jump\t// out\n        /* \"CoreContracts/kalyswap-periphery/KalyswapBridgeMigrationRouter_flattened.sol\":22891:23221  function migrateLiquidity(... */\n    tag_22:\n        /* \"CoreContracts/kalyswap-periphery/KalyswapBridgeMigrationRouter_flattened.sol\":23071:23079  deadline */\n      dup1\n        /* \"CoreContracts/kalyswap-periphery/KalyswapBridgeMigrationRouter_flattened.sol\":12938:12953  block.timestamp */\n      timestamp\n        /* \"CoreContracts/kalyswap-periphery/KalyswapBridgeMigrationRouter_flattened.sol\":12926:12934  deadline */\n      dup2\n        /* \"CoreContracts/kalyswap-periphery/KalyswapBridgeMigrationRouter_flattened.sol\":12926:12953  deadline >= block.timestamp */\n      lt\n      iszero\n        /* \"CoreContracts/kalyswap-periphery/KalyswapBridgeMigrationRouter_flattened.sol\":12918:12996  require(deadline >= block.timestamp, 'KalyswapBridgeMigrationRouter: EXPIRED') */\n      tag_53\n      jumpi\n      mload(0x40)\n      shl(0xe5, 0x461bcd)\n      dup2\n      mstore\n      0x04\n      add\n      dup1\n      dup1\n      0x20\n      add\n      dup3\n      dup2\n      sub\n      dup3\n      mstore\n      0x26\n      dup2\n      mstore\n      0x20\n      add\n      dup1\n      data_ab411b16b48c0dfc5a303ed96b1803938c6e2d0701b8085498de3b758ca25a98\n      0x26\n      swap2\n      codecopy\n      0x40\n      add\n      swap2\n      pop\n      pop\n      mload(0x40)\n      dup1\n      swap2\n      sub\n      swap1\n      revert\n    tag_53:\n        /* \"CoreContracts/kalyswap-periphery/KalyswapBridgeMigrationRouter_flattened.sol\":23091:23214  _migrateLiquidity(... */\n      tag_55\n        /* \"CoreContracts/kalyswap-periphery/KalyswapBridgeMigrationRouter_flattened.sol\":23122:23139  liquidityPairFrom */\n      dup7\n        /* \"CoreContracts/kalyswap-periphery/KalyswapBridgeMigrationRouter_flattened.sol\":23153:23168  liquidityPairTo */\n      dup7\n        /* \"CoreContracts/kalyswap-periphery/KalyswapBridgeMigrationRouter_flattened.sol\":23182:23184  to */\n      dup7\n        /* \"CoreContracts/kalyswap-periphery/KalyswapBridgeMigrationRouter_flattened.sol\":23198:23204  amount */\n      dup7\n        /* \"CoreContracts/kalyswap-periphery/KalyswapBridgeMigrationRouter_flattened.sol\":23091:23108  _migrateLiquidity */\n      tag_56\n        /* \"CoreContracts/kalyswap-periphery/KalyswapBridgeMigrationRouter_flattened.sol\":23091:23214  _migrateLiquidity(... */\n      jump\t// in\n    tag_55:\n        /* \"CoreContracts/kalyswap-periphery/KalyswapBridgeMigrationRouter_flattened.sol\":22891:23221  function migrateLiquidity(... */\n      pop\n      pop\n      pop\n      pop\n      pop\n      pop\n      jump\t// out\n        /* \"CoreContracts/kalyswap-periphery/KalyswapBridgeMigrationRouter_flattened.sol\":14655:15279  function addMigrator(address tokenAddress, address migratorAddress) external onlyAdmin {... */\n    tag_25:\n        /* \"CoreContracts/kalyswap-periphery/KalyswapBridgeMigrationRouter_flattened.sol\":13124:13149  adminRole.has(msg.sender) */\n      tag_58\n        /* \"CoreContracts/kalyswap-periphery/KalyswapBridgeMigrationRouter_flattened.sol\":13124:13133  adminRole */\n      0x00\n        /* \"CoreContracts/kalyswap-periphery/KalyswapBridgeMigrationRouter_flattened.sol\":13138:13148  msg.sender */\n      caller\n        /* \"CoreContracts/kalyswap-periphery/KalyswapBridgeMigrationRouter_flattened.sol\":13124:13137  adminRole.has */\n      tag_44\n        /* \"CoreContracts/kalyswap-periphery/KalyswapBridgeMigrationRouter_flattened.sol\":13124:13149  adminRole.has(msg.sender) */\n      jump\t// in\n    tag_58:\n        /* \"CoreContracts/kalyswap-periphery/KalyswapBridgeMigrationRouter_flattened.sol\":13116:13197  require(adminRole.has(msg.sender), 'KalyswapBridgeMigrationRouter: Unauthorized') */\n      tag_59\n      jumpi\n      mload(0x40)\n      shl(0xe5, 0x461bcd)\n      dup2\n      mstore\n      0x04\n      add\n      dup1\n      dup1\n      0x20\n      add\n      dup3\n      dup2\n      sub\n      dup3\n      mstore\n      0x2b\n      dup2\n      mstore\n      0x20\n      add\n      dup1\n      data_72bf313591ceddf754ca6a5c3bb1bce298c6ad13c15c3e899581c1b7df075c21\n      0x2b\n      swap2\n      codecopy\n      0x40\n      add\n      swap2\n      pop\n      pop\n      mload(0x40)\n      dup1\n      swap2\n      sub\n      swap1\n      revert\n    tag_59:\n      sub(shl(0xa0, 0x01), 0x01)\n        /* \"CoreContracts/kalyswap-periphery/KalyswapBridgeMigrationRouter_flattened.sol\":14760:14786  tokenAddress != address(0) */\n      dup3\n      and\n        /* \"CoreContracts/kalyswap-periphery/KalyswapBridgeMigrationRouter_flattened.sol\":14752:14850  require(tokenAddress != address(0), \"KalyswapBridgeMigrationRouter: tokenAddress 0 not supported\") */\n      tag_61\n      jumpi\n      mload(0x40)\n      shl(0xe5, 0x461bcd)\n      dup2\n      mstore\n      0x04\n      add\n      dup1\n      dup1\n      0x20\n      add\n      dup3\n      dup2\n      sub\n      dup3\n      mstore\n      0x3b\n      dup2\n      mstore\n      0x20\n      add\n      dup1\n      data_9d984e50f0a68e3b3b3f36266bdb577070edfb604f683a0d41f604c350418d44\n      0x3b\n      swap2\n      codecopy\n      0x40\n      add\n      swap2\n      pop\n      pop\n      mload(0x40)\n      dup1\n      swap2\n      sub\n      swap1\n      revert\n    tag_61:\n      sub(shl(0xa0, 0x01), 0x01)\n        /* \"CoreContracts/kalyswap-periphery/KalyswapBridgeMigrationRouter_flattened.sol\":14868:14897  migratorAddress != address(0) */\n      dup2\n      and\n        /* \"CoreContracts/kalyswap-periphery/KalyswapBridgeMigrationRouter_flattened.sol\":14860:14964  require(migratorAddress != address(0), \"KalyswapBridgeMigrationRouter: migratorAddress 0 not supported\") */\n      tag_62\n      jumpi\n      mload(0x40)\n      shl(0xe5, 0x461bcd)\n      dup2\n      mstore\n      0x04\n      add\n      dup1\n      dup1\n      0x20\n      add\n      dup3\n      dup2\n      sub\n      dup3\n      mstore\n      0x3e\n      dup2\n      mstore\n      0x20\n      add\n      dup1\n      data_1c7c659b1ae1b6657f6277780e3b866d18de2ae7bdb0795c710a1378deb7c207\n      0x3e\n      swap2\n      codecopy\n      0x40\n      add\n      swap2\n      pop\n      pop\n      mload(0x40)\n      dup1\n      swap2\n      sub\n      swap1\n      revert\n    tag_62:\n        /* \"CoreContracts/kalyswap-periphery/KalyswapBridgeMigrationRouter_flattened.sol\":14974:14988  uint256 amount */\n      0x00\n        /* \"CoreContracts/kalyswap-periphery/KalyswapBridgeMigrationRouter_flattened.sol\":15004:15019  migratorAddress */\n      dup2\n      sub(shl(0xa0, 0x01), 0x01)\n        /* \"CoreContracts/kalyswap-periphery/KalyswapBridgeMigrationRouter_flattened.sol\":14991:15031  IBridgeToken(migratorAddress).swapSupply */\n      and\n      0xab32dbb7\n        /* \"CoreContracts/kalyswap-periphery/KalyswapBridgeMigrationRouter_flattened.sol\":15032:15044  tokenAddress */\n      dup5\n        /* \"CoreContracts/kalyswap-periphery/KalyswapBridgeMigrationRouter_flattened.sol\":14991:15045  IBridgeToken(migratorAddress).swapSupply(tokenAddress) */\n      mload(0x40)\n      dup3\n      0xffffffff\n      and\n      0xe0\n      shl\n      dup2\n      mstore\n      0x04\n      add\n      dup1\n      dup3\n      sub(shl(0xa0, 0x01), 0x01)\n      and\n      dup2\n      mstore\n      0x20\n      add\n      swap2\n      pop\n      pop\n      0x20\n      mload(0x40)\n      dup1\n      dup4\n      sub\n      dup2\n      dup7\n      dup1\n      extcodesize\n      iszero\n      dup1\n      iszero\n      tag_63\n      jumpi\n      0x00\n      dup1\n      revert\n    tag_63:\n      pop\n      gas\n      staticcall\n      iszero\n      dup1\n      iszero\n      tag_65\n      jumpi\n      returndatasize\n      0x00\n      dup1\n      returndatacopy\n      revert(0x00, returndatasize)\n    tag_65:\n      pop\n      pop\n      pop\n      pop\n      mload(0x40)\n      returndatasize\n      0x20\n      dup2\n      lt\n      iszero\n      tag_66\n      jumpi\n      0x00\n      dup1\n      revert\n    tag_66:\n      pop\n      mload\n      swap1\n      pop\n        /* \"CoreContracts/kalyswap-periphery/KalyswapBridgeMigrationRouter_flattened.sol\":15076:15086  amount > 0 */\n      dup1\n        /* \"CoreContracts/kalyswap-periphery/KalyswapBridgeMigrationRouter_flattened.sol\":15055:15164  require(... */\n      tag_67\n      jumpi\n      mload(0x40)\n      shl(0xe5, 0x461bcd)\n      dup2\n      mstore\n      0x04\n      add\n      dup1\n      dup1\n      0x20\n      add\n      dup3\n      dup2\n      sub\n      dup3\n      mstore\n      0x34\n      dup2\n      mstore\n      0x20\n      add\n      dup1\n      data_67de629378f206179ef1573eeb90ada9b246d75587b16d0d1d34653b7fb2db45\n      0x34\n      swap2\n      codecopy\n      0x40\n      add\n      swap2\n      pop\n      pop\n      mload(0x40)\n      dup1\n      swap2\n      sub\n      swap1\n      revert\n    tag_67:\n        /* \"CoreContracts/kalyswap-periphery/KalyswapBridgeMigrationRouter_flattened.sol\":15174:15216  _allowToken(tokenAddress, migratorAddress) */\n      tag_68\n        /* \"CoreContracts/kalyswap-periphery/KalyswapBridgeMigrationRouter_flattened.sol\":15186:15198  tokenAddress */\n      dup4\n        /* \"CoreContracts/kalyswap-periphery/KalyswapBridgeMigrationRouter_flattened.sol\":15200:15215  migratorAddress */\n      dup4\n        /* \"CoreContracts/kalyswap-periphery/KalyswapBridgeMigrationRouter_flattened.sol\":15174:15185  _allowToken */\n      tag_69\n        /* \"CoreContracts/kalyswap-periphery/KalyswapBridgeMigrationRouter_flattened.sol\":15174:15216  _allowToken(tokenAddress, migratorAddress) */\n      jump\t// in\n    tag_68:\n      pop\n      sub(shl(0xa0, 0x01), 0x01)\n        /* \"CoreContracts/kalyswap-periphery/KalyswapBridgeMigrationRouter_flattened.sol\":15226:15254  bridgeMigrator[tokenAddress] */\n      swap2\n      dup3\n      and\n      0x00\n      swap1\n      dup2\n      mstore\n        /* \"CoreContracts/kalyswap-periphery/KalyswapBridgeMigrationRouter_flattened.sol\":15226:15240  bridgeMigrator */\n      0x01\n        /* \"CoreContracts/kalyswap-periphery/KalyswapBridgeMigrationRouter_flattened.sol\":15226:15254  bridgeMigrator[tokenAddress] */\n      0x20\n      mstore\n      0x40\n      swap1\n      keccak256\n        /* \"CoreContracts/kalyswap-periphery/KalyswapBridgeMigrationRouter_flattened.sol\":15226:15272  bridgeMigrator[tokenAddress] = migratorAddress */\n      dup1\n      sload\n      0xffffffffffffffffffffffff0000000000000000000000000000000000000000\n      and\n      swap2\n      swap1\n      swap3\n      and\n      or\n      swap1\n      sstore\n        /* \"CoreContracts/kalyswap-periphery/KalyswapBridgeMigrationRouter_flattened.sol\":14655:15279  function addMigrator(address tokenAddress, address migratorAddress) external onlyAdmin {... */\n      jump\t// out\n        /* \"CoreContracts/kalyswap-periphery/KalyswapBridgeMigrationRouter_flattened.sol\":13427:13616  function addAdmin(address account) external onlyAdmin {... */\n    tag_28:\n        /* \"CoreContracts/kalyswap-periphery/KalyswapBridgeMigrationRouter_flattened.sol\":13124:13149  adminRole.has(msg.sender) */\n      tag_71\n        /* \"CoreContracts/kalyswap-periphery/KalyswapBridgeMigrationRouter_flattened.sol\":13124:13133  adminRole */\n      0x00\n        /* \"CoreContracts/kalyswap-periphery/KalyswapBridgeMigrationRouter_flattened.sol\":13138:13148  msg.sender */\n      caller\n        /* \"CoreContracts/kalyswap-periphery/KalyswapBridgeMigrationRouter_flattened.sol\":13124:13137  adminRole.has */\n      tag_44\n        /* \"CoreContracts/kalyswap-periphery/KalyswapBridgeMigrationRouter_flattened.sol\":13124:13149  adminRole.has(msg.sender) */\n      jump\t// in\n    tag_71:\n        /* \"CoreContracts/kalyswap-periphery/KalyswapBridgeMigrationRouter_flattened.sol\":13116:13197  require(adminRole.has(msg.sender), 'KalyswapBridgeMigrationRouter: Unauthorized') */\n      tag_72\n      jumpi\n      mload(0x40)\n      shl(0xe5, 0x461bcd)\n      dup2\n      mstore\n      0x04\n      add\n      dup1\n      dup1\n      0x20\n      add\n      dup3\n      dup2\n      sub\n      dup3\n      mstore\n      0x2b\n      dup2\n      mstore\n      0x20\n      add\n      dup1\n      data_72bf313591ceddf754ca6a5c3bb1bce298c6ad13c15c3e899581c1b7df075c21\n      0x2b\n      swap2\n      codecopy\n      0x40\n      add\n      swap2\n      pop\n      pop\n      mload(0x40)\n      dup1\n      swap2\n      sub\n      swap1\n      revert\n    tag_72:\n      sub(shl(0xa0, 0x01), 0x01)\n        /* \"CoreContracts/kalyswap-periphery/KalyswapBridgeMigrationRouter_flattened.sol\":13499:13520  account != address(0) */\n      dup2\n      and\n        /* \"CoreContracts/kalyswap-periphery/KalyswapBridgeMigrationRouter_flattened.sol\":13491:13577  require(account != address(0), \"KalyswapBridgeMigrationRouter: Address 0 not allowed\") */\n      tag_74\n      jumpi\n      mload(0x40)\n      shl(0xe5, 0x461bcd)\n      dup2\n      mstore\n      0x04\n      add\n      dup1\n      dup1\n      0x20\n      add\n      dup3\n      dup2\n      sub\n      dup3\n      mstore\n      0x34\n      dup2\n      mstore\n      0x20\n      add\n      dup1\n      data_05cf0a3569a15a3c6d55134bc83c6e310486fc5d86c57fe969396f1673709115\n      0x34\n      swap2\n      codecopy\n      0x40\n      add\n      swap2\n      pop\n      pop\n      mload(0x40)\n      dup1\n      swap2\n      sub\n      swap1\n      revert\n    tag_74:\n        /* \"CoreContracts/kalyswap-periphery/KalyswapBridgeMigrationRouter_flattened.sol\":13587:13609  adminRole.add(account) */\n      tag_48\n        /* \"CoreContracts/kalyswap-periphery/KalyswapBridgeMigrationRouter_flattened.sol\":13587:13596  adminRole */\n      0x00\n        /* \"CoreContracts/kalyswap-periphery/KalyswapBridgeMigrationRouter_flattened.sol\":13601:13608  account */\n      dup3\n        /* \"CoreContracts/kalyswap-periphery/KalyswapBridgeMigrationRouter_flattened.sol\":13587:13600  adminRole.add */\n      tag_41\n        /* \"CoreContracts/kalyswap-periphery/KalyswapBridgeMigrationRouter_flattened.sol\":13587:13609  adminRole.add(account) */\n      jump\t// in\n        /* \"CoreContracts/kalyswap-periphery/KalyswapBridgeMigrationRouter_flattened.sol\":27510:28747  function calculateChargeBack(... */\n    tag_31:\n        /* \"CoreContracts/kalyswap-periphery/KalyswapBridgeMigrationRouter_flattened.sol\":27657:27669  uint amount0 */\n      0x00\n      dup1\n      sub(shl(0xa0, 0x01), 0x01)\n        /* \"CoreContracts/kalyswap-periphery/KalyswapBridgeMigrationRouter_flattened.sol\":27703:27734  liquidityPairFrom != address(0) */\n      dup6\n      and\n        /* \"CoreContracts/kalyswap-periphery/KalyswapBridgeMigrationRouter_flattened.sol\":27695:27811  require(liquidityPairFrom != address(0), \"KalyswapBridgeMigrationRouter: liquidityPairFrom address 0 not supported\") */\n      tag_77\n      jumpi\n      mload(0x40)\n      shl(0xe5, 0x461bcd)\n      dup2\n      mstore\n      0x04\n      add\n      dup1\n      dup1\n      0x20\n      add\n      dup3\n      dup2\n      sub\n      dup3\n      mstore\n      0x48\n      dup2\n      mstore\n      0x20\n      add\n      dup1\n      data_200248fc6ca52a59603938cda7204781ce09d1bfbab0ded816a7da12334c83d7\n      0x48\n      swap2\n      codecopy\n      0x60\n      add\n      swap2\n      pop\n      pop\n      mload(0x40)\n      dup1\n      swap2\n      sub\n      swap1\n      revert\n    tag_77:\n      sub(shl(0xa0, 0x01), 0x01)\n        /* \"CoreContracts/kalyswap-periphery/KalyswapBridgeMigrationRouter_flattened.sol\":27829:27858  liquidityPairTo != address(0) */\n      dup5\n      and\n        /* \"CoreContracts/kalyswap-periphery/KalyswapBridgeMigrationRouter_flattened.sol\":27821:27933  require(liquidityPairTo != address(0), \"KalyswapBridgeMigrationRouter: liquidityPairTo address 0 not supported\") */\n      tag_78\n      jumpi\n      mload(0x40)\n      shl(0xe5, 0x461bcd)\n      dup2\n      mstore\n      0x04\n      add\n      dup1\n      dup1\n      0x20\n      add\n      dup3\n      dup2\n      sub\n      dup3\n      mstore\n      0x46\n      dup2\n      mstore\n      0x20\n      add\n      dup1\n      data_55b0696d49f993eb1ace324d5663bb2fcaf6a2e9adf7d970b2aa88f8e8484c73\n      0x46\n      swap2\n      codecopy\n      0x60\n      add\n      swap2\n      pop\n      pop\n      mload(0x40)\n      dup1\n      swap2\n      sub\n      swap1\n      revert\n    tag_78:\n        /* \"CoreContracts/kalyswap-periphery/KalyswapBridgeMigrationRouter_flattened.sol\":27944:27958  uint amountIn0 */\n      0x00\n        /* \"CoreContracts/kalyswap-periphery/KalyswapBridgeMigrationRouter_flattened.sol\":27960:27974  uint amountIn1 */\n      dup1\n        /* \"CoreContracts/kalyswap-periphery/KalyswapBridgeMigrationRouter_flattened.sol\":27978:28030  _calculateRescueLiquidity(liquidityPairFrom, amount) */\n      tag_79\n        /* \"CoreContracts/kalyswap-periphery/KalyswapBridgeMigrationRouter_flattened.sol\":28004:28021  liquidityPairFrom */\n      dup8\n        /* \"CoreContracts/kalyswap-periphery/KalyswapBridgeMigrationRouter_flattened.sol\":28023:28029  amount */\n      dup7\n        /* \"CoreContracts/kalyswap-periphery/KalyswapBridgeMigrationRouter_flattened.sol\":27978:28003  _calculateRescueLiquidity */\n      tag_80\n        /* \"CoreContracts/kalyswap-periphery/KalyswapBridgeMigrationRouter_flattened.sol\":27978:28030  _calculateRescueLiquidity(liquidityPairFrom, amount) */\n      jump\t// in\n    tag_79:\n        /* \"CoreContracts/kalyswap-periphery/KalyswapBridgeMigrationRouter_flattened.sol\":27943:28030  (uint amountIn0, uint amountIn1) = _calculateRescueLiquidity(liquidityPairFrom, amount) */\n      swap2\n      pop\n      swap2\n      pop\n        /* \"CoreContracts/kalyswap-periphery/KalyswapBridgeMigrationRouter_flattened.sol\":28103:28118  liquidityPairTo */\n      dup6\n      sub(shl(0xa0, 0x01), 0x01)\n        /* \"CoreContracts/kalyswap-periphery/KalyswapBridgeMigrationRouter_flattened.sol\":28089:28126  IKalyswapPair(liquidityPairTo).token0 */\n      and\n      0x0dfe1681\n        /* \"CoreContracts/kalyswap-periphery/KalyswapBridgeMigrationRouter_flattened.sol\":28089:28128  IKalyswapPair(liquidityPairTo).token0() */\n      mload(0x40)\n      dup2\n      0xffffffff\n      and\n      0xe0\n      shl\n      dup2\n      mstore\n      0x04\n      add\n      0x20\n      mload(0x40)\n      dup1\n      dup4\n      sub\n      dup2\n      dup7\n      dup1\n      extcodesize\n      iszero\n      dup1\n      iszero\n      tag_81\n      jumpi\n      0x00\n      dup1\n      revert\n    tag_81:\n      pop\n      gas\n      staticcall\n      iszero\n      dup1\n      iszero\n      tag_83\n      jumpi\n      returndatasize\n      0x00\n      dup1\n      returndatacopy\n      revert(0x00, returndatasize)\n    tag_83:\n      pop\n      pop\n      pop\n      pop\n      mload(0x40)\n      returndatasize\n      0x20\n      dup2\n      lt\n      iszero\n      tag_84\n      jumpi\n      0x00\n      dup1\n      revert\n    tag_84:\n      pop\n      mload\n        /* \"CoreContracts/kalyswap-periphery/KalyswapBridgeMigrationRouter_flattened.sol\":28044:28085  IKalyswapPair(liquidityPairFrom).token0() */\n      0x40\n      dup1\n      mload\n      shl(0xe0, 0x0dfe1681)\n      dup2\n      mstore\n      swap1\n      mload\n      sub(shl(0xa0, 0x01), 0x01)\n        /* \"CoreContracts/kalyswap-periphery/KalyswapBridgeMigrationRouter_flattened.sol\":28044:28128  IKalyswapPair(liquidityPairFrom).token0() != IKalyswapPair(liquidityPairTo).token0() */\n      swap3\n      dup4\n      and\n      swap3\n        /* \"CoreContracts/kalyswap-periphery/KalyswapBridgeMigrationRouter_flattened.sol\":28044:28083  IKalyswapPair(liquidityPairFrom).token0 */\n      dup11\n      and\n      swap2\n      0x0dfe1681\n      swap2\n        /* \"CoreContracts/kalyswap-periphery/KalyswapBridgeMigrationRouter_flattened.sol\":28044:28085  IKalyswapPair(liquidityPairFrom).token0() */\n      0x04\n      dup1\n      dup4\n      add\n      swap3\n        /* \"CoreContracts/kalyswap-periphery/KalyswapBridgeMigrationRouter_flattened.sol\":28089:28128  IKalyswapPair(liquidityPairTo).token0() */\n      0x20\n      swap3\n        /* \"CoreContracts/kalyswap-periphery/KalyswapBridgeMigrationRouter_flattened.sol\":28044:28085  IKalyswapPair(liquidityPairFrom).token0() */\n      swap2\n      swap1\n      dup3\n      swap1\n      sub\n      add\n      dup2\n        /* \"CoreContracts/kalyswap-periphery/KalyswapBridgeMigrationRouter_flattened.sol\":28044:28083  IKalyswapPair(liquidityPairFrom).token0 */\n      dup7\n        /* \"CoreContracts/kalyswap-periphery/KalyswapBridgeMigrationRouter_flattened.sol\":28044:28085  IKalyswapPair(liquidityPairFrom).token0() */\n      dup1\n      extcodesize\n      iszero\n      dup1\n      iszero\n      tag_85\n      jumpi\n      0x00\n      dup1\n      revert\n    tag_85:\n      pop\n      gas\n      staticcall\n      iszero\n      dup1\n      iszero\n      tag_87\n      jumpi\n      returndatasize\n      0x00\n      dup1\n      returndatacopy\n      revert(0x00, returndatasize)\n    tag_87:\n      pop\n      pop\n      pop\n      pop\n      mload(0x40)\n      returndatasize\n      0x20\n      dup2\n      lt\n      iszero\n      tag_88\n      jumpi\n      0x00\n      dup1\n      revert\n    tag_88:\n      pop\n      mload\n      sub(shl(0xa0, 0x01), 0x01)\n        /* \"CoreContracts/kalyswap-periphery/KalyswapBridgeMigrationRouter_flattened.sol\":28044:28128  IKalyswapPair(liquidityPairFrom).token0() != IKalyswapPair(liquidityPairTo).token0() */\n      and\n      eq\n      dup1\n      iszero\n      swap1\n        /* \"CoreContracts/kalyswap-periphery/KalyswapBridgeMigrationRouter_flattened.sol\":28044:28228  IKalyswapPair(liquidityPairFrom).token0() != IKalyswapPair(liquidityPairTo).token0() &&... */\n      tag_89\n      jumpi\n      pop\n        /* \"CoreContracts/kalyswap-periphery/KalyswapBridgeMigrationRouter_flattened.sol\":28203:28218  liquidityPairTo */\n      dup6\n      sub(shl(0xa0, 0x01), 0x01)\n        /* \"CoreContracts/kalyswap-periphery/KalyswapBridgeMigrationRouter_flattened.sol\":28189:28226  IKalyswapPair(liquidityPairTo).token1 */\n      and\n      0xd21220a7\n        /* \"CoreContracts/kalyswap-periphery/KalyswapBridgeMigrationRouter_flattened.sol\":28189:28228  IKalyswapPair(liquidityPairTo).token1() */\n      mload(0x40)\n      dup2\n      0xffffffff\n      and\n      0xe0\n      shl\n      dup2\n      mstore\n      0x04\n      add\n      0x20\n      mload(0x40)\n      dup1\n      dup4\n      sub\n      dup2\n      dup7\n      dup1\n      extcodesize\n      iszero\n      dup1\n      iszero\n      tag_90\n      jumpi\n      0x00\n      dup1\n      revert\n    tag_90:\n      pop\n      gas\n      staticcall\n      iszero\n      dup1\n      iszero\n      tag_92\n      jumpi\n      returndatasize\n      0x00\n      dup1\n      returndatacopy\n      revert(0x00, returndatasize)\n    tag_92:\n      pop\n      pop\n      pop\n      pop\n      mload(0x40)\n      returndatasize\n      0x20\n      dup2\n      lt\n      iszero\n      tag_93\n      jumpi\n      0x00\n      dup1\n      revert\n    tag_93:\n      pop\n      mload\n        /* \"CoreContracts/kalyswap-periphery/KalyswapBridgeMigrationRouter_flattened.sol\":28144:28185  IKalyswapPair(liquidityPairFrom).token1() */\n      0x40\n      dup1\n      mload\n      shl(0xe0, 0xd21220a7)\n      dup2\n      mstore\n      swap1\n      mload\n      sub(shl(0xa0, 0x01), 0x01)\n        /* \"CoreContracts/kalyswap-periphery/KalyswapBridgeMigrationRouter_flattened.sol\":28144:28228  IKalyswapPair(liquidityPairFrom).token1() != IKalyswapPair(liquidityPairTo).token1() */\n      swap3\n      dup4\n      and\n      swap3\n        /* \"CoreContracts/kalyswap-periphery/KalyswapBridgeMigrationRouter_flattened.sol\":28144:28183  IKalyswapPair(liquidityPairFrom).token1 */\n      dup11\n      and\n      swap2\n      0xd21220a7\n      swap2\n        /* \"CoreContracts/kalyswap-periphery/KalyswapBridgeMigrationRouter_flattened.sol\":28144:28185  IKalyswapPair(liquidityPairFrom).token1() */\n      0x04\n      dup1\n      dup4\n      add\n      swap3\n        /* \"CoreContracts/kalyswap-periphery/KalyswapBridgeMigrationRouter_flattened.sol\":28189:28228  IKalyswapPair(liquidityPairTo).token1() */\n      0x20\n      swap3\n        /* \"CoreContracts/kalyswap-periphery/KalyswapBridgeMigrationRouter_flattened.sol\":28144:28185  IKalyswapPair(liquidityPairFrom).token1() */\n      swap2\n      swap1\n      dup3\n      swap1\n      sub\n      add\n      dup2\n        /* \"CoreContracts/kalyswap-periphery/KalyswapBridgeMigrationRouter_flattened.sol\":28144:28183  IKalyswapPair(liquidityPairFrom).token1 */\n      dup7\n        /* \"CoreContracts/kalyswap-periphery/KalyswapBridgeMigrationRouter_flattened.sol\":28144:28185  IKalyswapPair(liquidityPairFrom).token1() */\n      dup1\n      extcodesize\n      iszero\n      dup1\n      iszero\n      tag_94\n      jumpi\n      0x00\n      dup1\n      revert\n    tag_94:\n      pop\n      gas\n      staticcall\n      iszero\n      dup1\n      iszero\n      tag_96\n      jumpi\n      returndatasize\n      0x00\n      dup1\n      returndatacopy\n      revert(0x00, returndatasize)\n    tag_96:\n      pop\n      pop\n      pop\n      pop\n      mload(0x40)\n      returndatasize\n      0x20\n      dup2\n      lt\n      iszero\n      tag_97\n      jumpi\n      0x00\n      dup1\n      revert\n    tag_97:\n      pop\n      mload\n      sub(shl(0xa0, 0x01), 0x01)\n        /* \"CoreContracts/kalyswap-periphery/KalyswapBridgeMigrationRouter_flattened.sol\":28144:28228  IKalyswapPair(liquidityPairFrom).token1() != IKalyswapPair(liquidityPairTo).token1() */\n      and\n      eq\n      iszero\n        /* \"CoreContracts/kalyswap-periphery/KalyswapBridgeMigrationRouter_flattened.sol\":28044:28228  IKalyswapPair(liquidityPairFrom).token0() != IKalyswapPair(liquidityPairTo).token0() &&... */\n    tag_89:\n        /* \"CoreContracts/kalyswap-periphery/KalyswapBridgeMigrationRouter_flattened.sol\":28040:28311  if (IKalyswapPair(liquidityPairFrom).token0() != IKalyswapPair(liquidityPairTo).token0() &&... */\n      iszero\n      tag_98\n      jumpi\n        /* \"CoreContracts/kalyswap-periphery/KalyswapBridgeMigrationRouter_flattened.sol\":28279:28288  amountIn1 */\n      swap1\n        /* \"CoreContracts/kalyswap-periphery/KalyswapBridgeMigrationRouter_flattened.sol\":28040:28311  if (IKalyswapPair(liquidityPairFrom).token0() != IKalyswapPair(liquidityPairTo).token0() &&... */\n    tag_98:\n        /* \"CoreContracts/kalyswap-periphery/KalyswapBridgeMigrationRouter_flattened.sol\":28321:28337  uint112 reserve0 */\n      0x00\n        /* \"CoreContracts/kalyswap-periphery/KalyswapBridgeMigrationRouter_flattened.sol\":28339:28355  uint112 reserve1 */\n      dup1\n        /* \"CoreContracts/kalyswap-periphery/KalyswapBridgeMigrationRouter_flattened.sol\":28374:28389  liquidityPairTo */\n      dup8\n      sub(shl(0xa0, 0x01), 0x01)\n        /* \"CoreContracts/kalyswap-periphery/KalyswapBridgeMigrationRouter_flattened.sol\":28360:28402  IKalyswapPair(liquidityPairTo).getReserves */\n      and\n      0x0902f1ac\n        /* \"CoreContracts/kalyswap-periphery/KalyswapBridgeMigrationRouter_flattened.sol\":28360:28404  IKalyswapPair(liquidityPairTo).getReserves() */\n      mload(0x40)\n      dup2\n      0xffffffff\n      and\n      0xe0\n      shl\n      dup2\n      mstore\n      0x04\n      add\n      0x60\n      mload(0x40)\n      dup1\n      dup4\n      sub\n      dup2\n      dup7\n      dup1\n      extcodesize\n      iszero\n      dup1\n      iszero\n      tag_99\n      jumpi\n      0x00\n      dup1\n      revert\n    tag_99:\n      pop\n      gas\n      staticcall\n      iszero\n      dup1\n      iszero\n      tag_101\n      jumpi\n      returndatasize\n      0x00\n      dup1\n      returndatacopy\n      revert(0x00, returndatasize)\n    tag_101:\n      pop\n      pop\n      pop\n      pop\n      mload(0x40)\n      returndatasize\n      0x60\n      dup2\n      lt\n      iszero\n      tag_102\n      jumpi\n      0x00\n      dup1\n      revert\n    tag_102:\n      pop\n      dup1\n      mload\n      0x20\n      swap1\n      swap2\n      add\n      mload\n      swap1\n      swap3\n      pop\n      swap1\n      pop\n        /* \"CoreContracts/kalyswap-periphery/KalyswapBridgeMigrationRouter_flattened.sol\":28428:28437  amountIn0 */\n      dup4\n        /* \"CoreContracts/kalyswap-periphery/KalyswapBridgeMigrationRouter_flattened.sol\":28414:28425  uint quote0 */\n      0x00\n        /* \"CoreContracts/kalyswap-periphery/KalyswapBridgeMigrationRouter_flattened.sol\":28461:28513  KalyswapLibrary.quote(amountIn0, reserve0, reserve1) */\n      tag_103\n        /* \"CoreContracts/kalyswap-periphery/KalyswapBridgeMigrationRouter_flattened.sol\":28428:28437  amountIn0 */\n      dup3\n        /* \"CoreContracts/kalyswap-periphery/KalyswapBridgeMigrationRouter_flattened.sol\":28461:28513  KalyswapLibrary.quote(amountIn0, reserve0, reserve1) */\n      0xffffffffffffffffffffffffffff\n      dup1\n      dup8\n      and\n      swap1\n      dup7\n      and\n        /* \"CoreContracts/kalyswap-periphery/KalyswapBridgeMigrationRouter_flattened.sol\":28461:28482  KalyswapLibrary.quote */\n      tag_104\n        /* \"CoreContracts/kalyswap-periphery/KalyswapBridgeMigrationRouter_flattened.sol\":28461:28513  KalyswapLibrary.quote(amountIn0, reserve0, reserve1) */\n      jump\t// in\n    tag_103:\n        /* \"CoreContracts/kalyswap-periphery/KalyswapBridgeMigrationRouter_flattened.sol\":28447:28513  uint quote1 = KalyswapLibrary.quote(amountIn0, reserve0, reserve1) */\n      swap1\n      pop\n        /* \"CoreContracts/kalyswap-periphery/KalyswapBridgeMigrationRouter_flattened.sol\":28536:28545  amountIn1 */\n      dup5\n        /* \"CoreContracts/kalyswap-periphery/KalyswapBridgeMigrationRouter_flattened.sol\":28527:28533  quote1 */\n      dup2\n        /* \"CoreContracts/kalyswap-periphery/KalyswapBridgeMigrationRouter_flattened.sol\":28527:28545  quote1 > amountIn1 */\n      gt\n        /* \"CoreContracts/kalyswap-periphery/KalyswapBridgeMigrationRouter_flattened.sol\":28523:28665  if (quote1 > amountIn1) {... */\n      iszero\n      tag_105\n      jumpi\n        /* \"CoreContracts/kalyswap-periphery/KalyswapBridgeMigrationRouter_flattened.sol\":28570:28579  amountIn1 */\n      dup5\n        /* \"CoreContracts/kalyswap-periphery/KalyswapBridgeMigrationRouter_flattened.sol\":28561:28579  quote1 = amountIn1 */\n      swap1\n      pop\n        /* \"CoreContracts/kalyswap-periphery/KalyswapBridgeMigrationRouter_flattened.sol\":28602:28654  KalyswapLibrary.quote(amountIn1, reserve1, reserve0) */\n      tag_106\n        /* \"CoreContracts/kalyswap-periphery/KalyswapBridgeMigrationRouter_flattened.sol\":28624:28633  amountIn1 */\n      dup6\n        /* \"CoreContracts/kalyswap-periphery/KalyswapBridgeMigrationRouter_flattened.sol\":28635:28643  reserve1 */\n      dup5\n        /* \"CoreContracts/kalyswap-periphery/KalyswapBridgeMigrationRouter_flattened.sol\":28602:28654  KalyswapLibrary.quote(amountIn1, reserve1, reserve0) */\n      0xffffffffffffffffffffffffffff\n      and\n        /* \"CoreContracts/kalyswap-periphery/KalyswapBridgeMigrationRouter_flattened.sol\":28645:28653  reserve0 */\n      dup7\n        /* \"CoreContracts/kalyswap-periphery/KalyswapBridgeMigrationRouter_flattened.sol\":28602:28654  KalyswapLibrary.quote(amountIn1, reserve1, reserve0) */\n      0xffffffffffffffffffffffffffff\n      and\n        /* \"CoreContracts/kalyswap-periphery/KalyswapBridgeMigrationRouter_flattened.sol\":28602:28623  KalyswapLibrary.quote */\n      tag_104\n        /* \"CoreContracts/kalyswap-periphery/KalyswapBridgeMigrationRouter_flattened.sol\":28602:28654  KalyswapLibrary.quote(amountIn1, reserve1, reserve0) */\n      jump\t// in\n    tag_106:\n        /* \"CoreContracts/kalyswap-periphery/KalyswapBridgeMigrationRouter_flattened.sol\":28593:28654  quote0 = KalyswapLibrary.quote(amountIn1, reserve1, reserve0) */\n      swap2\n      pop\n        /* \"CoreContracts/kalyswap-periphery/KalyswapBridgeMigrationRouter_flattened.sol\":28523:28665  if (quote1 > amountIn1) {... */\n    tag_105:\n        /* \"CoreContracts/kalyswap-periphery/KalyswapBridgeMigrationRouter_flattened.sol\":28684:28702  amountIn0 - quote0 */\n      swap5\n      sub\n      swap10\n        /* \"CoreContracts/kalyswap-periphery/KalyswapBridgeMigrationRouter_flattened.sol\":28722:28740  amountIn1 - quote1 */\n      swap4\n      swap1\n      swap3\n      sub\n      swap8\n      pop\n        /* \"CoreContracts/kalyswap-periphery/KalyswapBridgeMigrationRouter_flattened.sol\":27510:28747  function calculateChargeBack(... */\n      swap2\n      swap6\n      pop\n      pop\n      pop\n      pop\n      pop\n      pop\n      jump\t// out\n        /* \"CoreContracts/kalyswap-periphery/KalyswapBridgeMigrationRouter_flattened.sol\":21843:22325  function migrateLiquidityWithPermit(... */\n    tag_34:\n        /* \"CoreContracts/kalyswap-periphery/KalyswapBridgeMigrationRouter_flattened.sol\":22072:22080  deadline */\n      dup4\n        /* \"CoreContracts/kalyswap-periphery/KalyswapBridgeMigrationRouter_flattened.sol\":12938:12953  block.timestamp */\n      timestamp\n        /* \"CoreContracts/kalyswap-periphery/KalyswapBridgeMigrationRouter_flattened.sol\":12926:12934  deadline */\n      dup2\n        /* \"CoreContracts/kalyswap-periphery/KalyswapBridgeMigrationRouter_flattened.sol\":12926:12953  deadline >= block.timestamp */\n      lt\n      iszero\n        /* \"CoreContracts/kalyswap-periphery/KalyswapBridgeMigrationRouter_flattened.sol\":12918:12996  require(deadline >= block.timestamp, 'KalyswapBridgeMigrationRouter: EXPIRED') */\n      tag_108\n      jumpi\n      mload(0x40)\n      shl(0xe5, 0x461bcd)\n      dup2\n      mstore\n      0x04\n      add\n      dup1\n      dup1\n      0x20\n      add\n      dup3\n      dup2\n      sub\n      dup3\n      mstore\n      0x26\n      dup2\n      mstore\n      0x20\n      add\n      dup1\n      data_ab411b16b48c0dfc5a303ed96b1803938c6e2d0701b8085498de3b758ca25a98\n      0x26\n      swap2\n      codecopy\n      0x40\n      add\n      swap2\n      pop\n      pop\n      mload(0x40)\n      dup1\n      swap2\n      sub\n      swap1\n      revert\n    tag_108:\n        /* \"CoreContracts/kalyswap-periphery/KalyswapBridgeMigrationRouter_flattened.sol\":22092:22185  IKalyswapPair(liquidityPairFrom).permit(msg.sender, address(this), amount, deadline, v, r, s) */\n      0x40\n      dup1\n      mload\n      0xd505accf00000000000000000000000000000000000000000000000000000000\n      dup2\n      mstore\n        /* \"CoreContracts/kalyswap-periphery/KalyswapBridgeMigrationRouter_flattened.sol\":22132:22142  msg.sender */\n      caller\n        /* \"CoreContracts/kalyswap-periphery/KalyswapBridgeMigrationRouter_flattened.sol\":22092:22185  IKalyswapPair(liquidityPairFrom).permit(msg.sender, address(this), amount, deadline, v, r, s) */\n      0x04\n      dup3\n      add\n      mstore\n        /* \"CoreContracts/kalyswap-periphery/KalyswapBridgeMigrationRouter_flattened.sol\":22152:22156  this */\n      address\n        /* \"CoreContracts/kalyswap-periphery/KalyswapBridgeMigrationRouter_flattened.sol\":22092:22185  IKalyswapPair(liquidityPairFrom).permit(msg.sender, address(this), amount, deadline, v, r, s) */\n      0x24\n      dup3\n      add\n      mstore\n      0x44\n      dup2\n      add\n      dup9\n      swap1\n      mstore\n      0x64\n      dup2\n      add\n      dup8\n      swap1\n      mstore\n      0xff\n      dup7\n      and\n      0x84\n      dup3\n      add\n      mstore\n      0xa4\n      dup2\n      add\n      dup6\n      swap1\n      mstore\n      0xc4\n      dup2\n      add\n      dup5\n      swap1\n      mstore\n      swap1\n      mload\n      sub(shl(0xa0, 0x01), 0x01)\n        /* \"CoreContracts/kalyswap-periphery/KalyswapBridgeMigrationRouter_flattened.sol\":22092:22131  IKalyswapPair(liquidityPairFrom).permit */\n      dup12\n      and\n      swap2\n      0xd505accf\n      swap2\n        /* \"CoreContracts/kalyswap-periphery/KalyswapBridgeMigrationRouter_flattened.sol\":22092:22185  IKalyswapPair(liquidityPairFrom).permit(msg.sender, address(this), amount, deadline, v, r, s) */\n      0xe4\n      dup1\n      dup4\n      add\n      swap3\n      0x00\n      swap3\n      swap2\n      swap1\n      dup3\n      swap1\n      sub\n      add\n      dup2\n      dup4\n        /* \"CoreContracts/kalyswap-periphery/KalyswapBridgeMigrationRouter_flattened.sol\":22092:22131  IKalyswapPair(liquidityPairFrom).permit */\n      dup8\n        /* \"CoreContracts/kalyswap-periphery/KalyswapBridgeMigrationRouter_flattened.sol\":22092:22185  IKalyswapPair(liquidityPairFrom).permit(msg.sender, address(this), amount, deadline, v, r, s) */\n      dup1\n      extcodesize\n      iszero\n      dup1\n      iszero\n      tag_110\n      jumpi\n      0x00\n      dup1\n      revert\n    tag_110:\n      pop\n      gas\n      call\n      iszero\n      dup1\n      iszero\n      tag_112\n      jumpi\n      returndatasize\n      0x00\n      dup1\n      returndatacopy\n      revert(0x00, returndatasize)\n    tag_112:\n      pop\n      pop\n      pop\n      pop\n        /* \"CoreContracts/kalyswap-periphery/KalyswapBridgeMigrationRouter_flattened.sol\":22195:22318  _migrateLiquidity(... */\n      tag_113\n        /* \"CoreContracts/kalyswap-periphery/KalyswapBridgeMigrationRouter_flattened.sol\":22226:22243  liquidityPairFrom */\n      dup10\n        /* \"CoreContracts/kalyswap-periphery/KalyswapBridgeMigrationRouter_flattened.sol\":22257:22272  liquidityPairTo */\n      dup10\n        /* \"CoreContracts/kalyswap-periphery/KalyswapBridgeMigrationRouter_flattened.sol\":22286:22288  to */\n      dup10\n        /* \"CoreContracts/kalyswap-periphery/KalyswapBridgeMigrationRouter_flattened.sol\":22302:22308  amount */\n      dup10\n        /* \"CoreContracts/kalyswap-periphery/KalyswapBridgeMigrationRouter_flattened.sol\":22195:22212  _migrateLiquidity */\n      tag_56\n        /* \"CoreContracts/kalyswap-periphery/KalyswapBridgeMigrationRouter_flattened.sol\":22195:22318  _migrateLiquidity(... */\n      jump\t// in\n    tag_113:\n        /* \"CoreContracts/kalyswap-periphery/KalyswapBridgeMigrationRouter_flattened.sol\":21843:22325  function migrateLiquidityWithPermit(... */\n      pop\n      pop\n      pop\n      pop\n      pop\n      pop\n      pop\n      pop\n      pop\n      jump\t// out\n        /* \"CoreContracts/kalyswap-periphery/KalyswapBridgeMigrationRouter_flattened.sol\":20682:21169  function migrateToken(... */\n    tag_37:\n        /* \"CoreContracts/kalyswap-periphery/KalyswapBridgeMigrationRouter_flattened.sol\":20813:20821  deadline */\n      dup1\n        /* \"CoreContracts/kalyswap-periphery/KalyswapBridgeMigrationRouter_flattened.sol\":12938:12953  block.timestamp */\n      timestamp\n        /* \"CoreContracts/kalyswap-periphery/KalyswapBridgeMigrationRouter_flattened.sol\":12926:12934  deadline */\n      dup2\n        /* \"CoreContracts/kalyswap-periphery/KalyswapBridgeMigrationRouter_flattened.sol\":12926:12953  deadline >= block.timestamp */\n      lt\n      iszero\n        /* \"CoreContracts/kalyswap-periphery/KalyswapBridgeMigrationRouter_flattened.sol\":12918:12996  require(deadline >= block.timestamp, 'KalyswapBridgeMigrationRouter: EXPIRED') */\n      tag_115\n      jumpi\n      mload(0x40)\n      shl(0xe5, 0x461bcd)\n      dup2\n      mstore\n      0x04\n      add\n      dup1\n      dup1\n      0x20\n      add\n      dup3\n      dup2\n      sub\n      dup3\n      mstore\n      0x26\n      dup2\n      mstore\n      0x20\n      add\n      dup1\n      data_ab411b16b48c0dfc5a303ed96b1803938c6e2d0701b8085498de3b758ca25a98\n      0x26\n      swap2\n      codecopy\n      0x40\n      add\n      swap2\n      pop\n      pop\n      mload(0x40)\n      dup1\n      swap2\n      sub\n      swap1\n      revert\n    tag_115:\n      sub(shl(0xa0, 0x01), 0x01)\n        /* \"CoreContracts/kalyswap-periphery/KalyswapBridgeMigrationRouter_flattened.sol\":20854:20875  bridgeMigrator[token] */\n      dup6\n      dup2\n      and\n        /* \"CoreContracts/kalyswap-periphery/KalyswapBridgeMigrationRouter_flattened.sol\":20887:20888  0 */\n      0x00\n        /* \"CoreContracts/kalyswap-periphery/KalyswapBridgeMigrationRouter_flattened.sol\":20854:20875  bridgeMigrator[token] */\n      swap1\n      dup2\n      mstore\n        /* \"CoreContracts/kalyswap-periphery/KalyswapBridgeMigrationRouter_flattened.sol\":20854:20868  bridgeMigrator */\n      0x01\n        /* \"CoreContracts/kalyswap-periphery/KalyswapBridgeMigrationRouter_flattened.sol\":20854:20875  bridgeMigrator[token] */\n      0x20\n      mstore\n      0x40\n      swap1\n      keccak256\n      sload\n      and\n        /* \"CoreContracts/kalyswap-periphery/KalyswapBridgeMigrationRouter_flattened.sol\":20833:20969  require(... */\n      tag_117\n      jumpi\n      mload(0x40)\n      shl(0xe5, 0x461bcd)\n      dup2\n      mstore\n      0x04\n      add\n      dup1\n      dup1\n      0x20\n      add\n      dup3\n      dup2\n      sub\n      dup3\n      mstore\n      0x36\n      dup2\n      mstore\n      0x20\n      add\n      dup1\n      data_ddde50f1cae8853e86ca4100759dc699a86a58cbbaac272e74d5c0bdd9991550\n      0x36\n      swap2\n      codecopy\n      0x40\n      add\n      swap2\n      pop\n      pop\n      mload(0x40)\n      dup1\n      swap2\n      sub\n      swap1\n      revert\n    tag_117:\n        /* \"CoreContracts/kalyswap-periphery/KalyswapBridgeMigrationRouter_flattened.sol\":20979:21052  TransferHelper.safeTransferFrom(token, msg.sender, address(this), amount) */\n      tag_118\n        /* \"CoreContracts/kalyswap-periphery/KalyswapBridgeMigrationRouter_flattened.sol\":21011:21016  token */\n      dup6\n        /* \"CoreContracts/kalyswap-periphery/KalyswapBridgeMigrationRouter_flattened.sol\":21018:21028  msg.sender */\n      caller\n        /* \"CoreContracts/kalyswap-periphery/KalyswapBridgeMigrationRouter_flattened.sol\":21038:21042  this */\n      address\n        /* \"CoreContracts/kalyswap-periphery/KalyswapBridgeMigrationRouter_flattened.sol\":21045:21051  amount */\n      dup7\n        /* \"CoreContracts/kalyswap-periphery/KalyswapBridgeMigrationRouter_flattened.sol\":20979:21010  TransferHelper.safeTransferFrom */\n      tag_119\n        /* \"CoreContracts/kalyswap-periphery/KalyswapBridgeMigrationRouter_flattened.sol\":20979:21052  TransferHelper.safeTransferFrom(token, msg.sender, address(this), amount) */\n      jump\t// in\n    tag_118:\n        /* \"CoreContracts/kalyswap-periphery/KalyswapBridgeMigrationRouter_flattened.sol\":21062:21090  _migrateToken(token, amount) */\n      tag_120\n        /* \"CoreContracts/kalyswap-periphery/KalyswapBridgeMigrationRouter_flattened.sol\":21076:21081  token */\n      dup6\n        /* \"CoreContracts/kalyswap-periphery/KalyswapBridgeMigrationRouter_flattened.sol\":21083:21089  amount */\n      dup5\n        /* \"CoreContracts/kalyswap-periphery/KalyswapBridgeMigrationRouter_flattened.sol\":21062:21075  _migrateToken */\n      tag_121\n        /* \"CoreContracts/kalyswap-periphery/KalyswapBridgeMigrationRouter_flattened.sol\":21062:21090  _migrateToken(token, amount) */\n      jump\t// in\n    tag_120:\n      sub(shl(0xa0, 0x01), 0x01)\n        /* \"CoreContracts/kalyswap-periphery/KalyswapBridgeMigrationRouter_flattened.sol\":21128:21149  bridgeMigrator[token] */\n      dup1\n      dup7\n      and\n      0x00\n      swap1\n      dup2\n      mstore\n        /* \"CoreContracts/kalyswap-periphery/KalyswapBridgeMigrationRouter_flattened.sol\":21128:21142  bridgeMigrator */\n      0x01\n        /* \"CoreContracts/kalyswap-periphery/KalyswapBridgeMigrationRouter_flattened.sol\":21128:21149  bridgeMigrator[token] */\n      0x20\n      mstore\n      0x40\n      swap1\n      keccak256\n      sload\n        /* \"CoreContracts/kalyswap-periphery/KalyswapBridgeMigrationRouter_flattened.sol\":21100:21162  TransferHelper.safeTransfer(bridgeMigrator[token], to, amount) */\n      tag_122\n      swap2\n        /* \"CoreContracts/kalyswap-periphery/KalyswapBridgeMigrationRouter_flattened.sol\":21128:21149  bridgeMigrator[token] */\n      and\n        /* \"CoreContracts/kalyswap-periphery/KalyswapBridgeMigrationRouter_flattened.sol\":21151:21153  to */\n      dup6\n        /* \"CoreContracts/kalyswap-periphery/KalyswapBridgeMigrationRouter_flattened.sol\":21155:21161  amount */\n      dup6\n        /* \"CoreContracts/kalyswap-periphery/KalyswapBridgeMigrationRouter_flattened.sol\":21100:21127  TransferHelper.safeTransfer */\n      tag_123\n        /* \"CoreContracts/kalyswap-periphery/KalyswapBridgeMigrationRouter_flattened.sol\":21100:21162  TransferHelper.safeTransfer(bridgeMigrator[token], to, amount) */\n      jump\t// in\n    tag_122:\n        /* \"CoreContracts/kalyswap-periphery/KalyswapBridgeMigrationRouter_flattened.sol\":20682:21169  function migrateToken(... */\n      pop\n      pop\n      pop\n      pop\n      pop\n      jump\t// out\n        /* \"CoreContracts/kalyswap-periphery/KalyswapBridgeMigrationRouter_flattened.sol\":12682:12731  mapping(address => address) public bridgeMigrator */\n    tag_40:\n      mstore(0x20, 0x01)\n      0x00\n      swap1\n      dup2\n      mstore\n      0x40\n      swap1\n      keccak256\n      sload\n      sub(shl(0xa0, 0x01), 0x01)\n      and\n      dup2\n      jump\t// out\n        /* \"CoreContracts/kalyswap-periphery/KalyswapBridgeMigrationRouter_flattened.sol\":8525:8700  function add(Role storage role, address account) internal {... */\n    tag_41:\n        /* \"CoreContracts/kalyswap-periphery/KalyswapBridgeMigrationRouter_flattened.sol\":8602:8620  has(role, account) */\n      tag_125\n        /* \"CoreContracts/kalyswap-periphery/KalyswapBridgeMigrationRouter_flattened.sol\":8606:8610  role */\n      dup3\n        /* \"CoreContracts/kalyswap-periphery/KalyswapBridgeMigrationRouter_flattened.sol\":8612:8619  account */\n      dup3\n        /* \"CoreContracts/kalyswap-periphery/KalyswapBridgeMigrationRouter_flattened.sol\":8602:8605  has */\n      tag_44\n        /* \"CoreContracts/kalyswap-periphery/KalyswapBridgeMigrationRouter_flattened.sol\":8602:8620  has(role, account) */\n      jump\t// in\n    tag_125:\n        /* \"CoreContracts/kalyswap-periphery/KalyswapBridgeMigrationRouter_flattened.sol\":8601:8620  !has(role, account) */\n      iszero\n        /* \"CoreContracts/kalyswap-periphery/KalyswapBridgeMigrationRouter_flattened.sol\":8593:8656  require(!has(role, account), \"Roles: account already has role\") */\n      tag_126\n      jumpi\n      0x40\n      dup1\n      mload\n      shl(0xe5, 0x461bcd)\n      dup2\n      mstore\n      0x20\n      0x04\n      dup3\n      add\n      mstore\n      0x1f\n      0x24\n      dup3\n      add\n      mstore\n      0x526f6c65733a206163636f756e7420616c72656164792068617320726f6c6500\n      0x44\n      dup3\n      add\n      mstore\n      swap1\n      mload\n      swap1\n      dup2\n      swap1\n      sub\n      0x64\n      add\n      swap1\n      revert\n    tag_126:\n      sub(shl(0xa0, 0x01), 0x01)\n        /* \"CoreContracts/kalyswap-periphery/KalyswapBridgeMigrationRouter_flattened.sol\":8666:8686  role.bearer[account] */\n      and\n        /* \"CoreContracts/kalyswap-periphery/KalyswapBridgeMigrationRouter_flattened.sol\":8666:8677  role.bearer */\n      0x00\n        /* \"CoreContracts/kalyswap-periphery/KalyswapBridgeMigrationRouter_flattened.sol\":8666:8686  role.bearer[account] */\n      swap1\n      dup2\n      mstore\n      0x20\n      swap2\n      swap1\n      swap2\n      mstore\n      0x40\n      swap1\n      keccak256\n        /* \"CoreContracts/kalyswap-periphery/KalyswapBridgeMigrationRouter_flattened.sol\":8666:8693  role.bearer[account] = true */\n      dup1\n      sload\n      not(0xff)\n      and\n        /* \"CoreContracts/kalyswap-periphery/KalyswapBridgeMigrationRouter_flattened.sol\":8689:8693  true */\n      0x01\n        /* \"CoreContracts/kalyswap-periphery/KalyswapBridgeMigrationRouter_flattened.sol\":8666:8693  role.bearer[account] = true */\n      or\n      swap1\n      sstore\n        /* \"CoreContracts/kalyswap-periphery/KalyswapBridgeMigrationRouter_flattened.sol\":8525:8700  function add(Role storage role, address account) internal {... */\n      jump\t// out\n        /* \"CoreContracts/kalyswap-periphery/KalyswapBridgeMigrationRouter_flattened.sol\":9044:9272  function has(Role storage role, address account)... */\n    tag_44:\n        /* \"CoreContracts/kalyswap-periphery/KalyswapBridgeMigrationRouter_flattened.sol\":9140:9144  bool */\n      0x00\n      sub(shl(0xa0, 0x01), 0x01)\n        /* \"CoreContracts/kalyswap-periphery/KalyswapBridgeMigrationRouter_flattened.sol\":9168:9189  account != address(0) */\n      dup3\n      and\n        /* \"CoreContracts/kalyswap-periphery/KalyswapBridgeMigrationRouter_flattened.sol\":9160:9228  require(account != address(0), \"Roles: account is the zero address\") */\n      tag_128\n      jumpi\n      mload(0x40)\n      shl(0xe5, 0x461bcd)\n      dup2\n      mstore\n      0x04\n      add\n      dup1\n      dup1\n      0x20\n      add\n      dup3\n      dup2\n      sub\n      dup3\n      mstore\n      0x22\n      dup2\n      mstore\n      0x20\n      add\n      dup1\n      data_9d214fa89563f4e6456a3929327e54500ea1cde2c0ba9fb2035ec106190d682f\n      0x22\n      swap2\n      codecopy\n      0x40\n      add\n      swap2\n      pop\n      pop\n      mload(0x40)\n      dup1\n      swap2\n      sub\n      swap1\n      revert\n    tag_128:\n      pop\n      sub(shl(0xa0, 0x01), 0x01)\n        /* \"CoreContracts/kalyswap-periphery/KalyswapBridgeMigrationRouter_flattened.sol\":9245:9265  role.bearer[account] */\n      and\n        /* \"CoreContracts/kalyswap-periphery/KalyswapBridgeMigrationRouter_flattened.sol\":9245:9256  role.bearer */\n      0x00\n        /* \"CoreContracts/kalyswap-periphery/KalyswapBridgeMigrationRouter_flattened.sol\":9245:9265  role.bearer[account] */\n      swap1\n      dup2\n      mstore\n      0x20\n      swap2\n      swap1\n      swap2\n      mstore\n      0x40\n      swap1\n      keccak256\n      sload\n      0xff\n      and\n      swap1\n        /* \"CoreContracts/kalyswap-periphery/KalyswapBridgeMigrationRouter_flattened.sol\":9044:9272  function has(Role storage role, address account)... */\n      jump\t// out\n        /* \"CoreContracts/kalyswap-periphery/KalyswapBridgeMigrationRouter_flattened.sol\":8775:8955  function remove(Role storage role, address account) internal {... */\n    tag_49:\n        /* \"CoreContracts/kalyswap-periphery/KalyswapBridgeMigrationRouter_flattened.sol\":8854:8872  has(role, account) */\n      tag_130\n        /* \"CoreContracts/kalyswap-periphery/KalyswapBridgeMigrationRouter_flattened.sol\":8858:8862  role */\n      dup3\n        /* \"CoreContracts/kalyswap-periphery/KalyswapBridgeMigrationRouter_flattened.sol\":8864:8871  account */\n      dup3\n        /* \"CoreContracts/kalyswap-periphery/KalyswapBridgeMigrationRouter_flattened.sol\":8854:8857  has */\n      tag_44\n        /* \"CoreContracts/kalyswap-periphery/KalyswapBridgeMigrationRouter_flattened.sol\":8854:8872  has(role, account) */\n      jump\t// in\n    tag_130:\n        /* \"CoreContracts/kalyswap-periphery/KalyswapBridgeMigrationRouter_flattened.sol\":8846:8910  require(has(role, account), \"Roles: account does not have role\") */\n      tag_131\n      jumpi\n      mload(0x40)\n      shl(0xe5, 0x461bcd)\n      dup2\n      mstore\n      0x04\n      add\n      dup1\n      dup1\n      0x20\n      add\n      dup3\n      dup2\n      sub\n      dup3\n      mstore\n      0x21\n      dup2\n      mstore\n      0x20\n      add\n      dup1\n      data_7bd893145ac435f339bb7c288622d270324b7033b011f693aca172f5cbc3c257\n      0x21\n      swap2\n      codecopy\n      0x40\n      add\n      swap2\n      pop\n      pop\n      mload(0x40)\n      dup1\n      swap2\n      sub\n      swap1\n      revert\n    tag_131:\n      sub(shl(0xa0, 0x01), 0x01)\n        /* \"CoreContracts/kalyswap-periphery/KalyswapBridgeMigrationRouter_flattened.sol\":8920:8940  role.bearer[account] */\n      and\n        /* \"CoreContracts/kalyswap-periphery/KalyswapBridgeMigrationRouter_flattened.sol\":8943:8948  false */\n      0x00\n        /* \"CoreContracts/kalyswap-periphery/KalyswapBridgeMigrationRouter_flattened.sol\":8920:8940  role.bearer[account] */\n      swap1\n      dup2\n      mstore\n      0x20\n      swap2\n      swap1\n      swap2\n      mstore\n      0x40\n      swap1\n      keccak256\n        /* \"CoreContracts/kalyswap-periphery/KalyswapBridgeMigrationRouter_flattened.sol\":8920:8948  role.bearer[account] = false */\n      dup1\n      sload\n      not(0xff)\n      and\n      swap1\n      sstore\n        /* \"CoreContracts/kalyswap-periphery/KalyswapBridgeMigrationRouter_flattened.sol\":8775:8955  function remove(Role storage role, address account) internal {... */\n      jump\t// out\n        /* \"CoreContracts/kalyswap-periphery/KalyswapBridgeMigrationRouter_flattened.sol\":23699:25961  function _migrateLiquidity(... */\n    tag_56:\n        /* \"CoreContracts/kalyswap-periphery/KalyswapBridgeMigrationRouter_flattened.sol\":23860:23915  _arePairsCompatible(liquidityPairFrom, liquidityPairTo) */\n      tag_133\n        /* \"CoreContracts/kalyswap-periphery/KalyswapBridgeMigrationRouter_flattened.sol\":23880:23897  liquidityPairFrom */\n      dup5\n        /* \"CoreContracts/kalyswap-periphery/KalyswapBridgeMigrationRouter_flattened.sol\":23899:23914  liquidityPairTo */\n      dup5\n        /* \"CoreContracts/kalyswap-periphery/KalyswapBridgeMigrationRouter_flattened.sol\":23860:23879  _arePairsCompatible */\n      tag_134\n        /* \"CoreContracts/kalyswap-periphery/KalyswapBridgeMigrationRouter_flattened.sol\":23860:23915  _arePairsCompatible(liquidityPairFrom, liquidityPairTo) */\n      jump\t// in\n    tag_133:\n        /* \"CoreContracts/kalyswap-periphery/KalyswapBridgeMigrationRouter_flattened.sol\":23925:23947  address tokenToMigrate */\n      0x00\n        /* \"CoreContracts/kalyswap-periphery/KalyswapBridgeMigrationRouter_flattened.sol\":23964:23981  liquidityPairFrom */\n      dup5\n      sub(shl(0xa0, 0x01), 0x01)\n        /* \"CoreContracts/kalyswap-periphery/KalyswapBridgeMigrationRouter_flattened.sol\":23950:23989  IKalyswapPair(liquidityPairFrom).token0 */\n      and\n      0x0dfe1681\n        /* \"CoreContracts/kalyswap-periphery/KalyswapBridgeMigrationRouter_flattened.sol\":23950:23991  IKalyswapPair(liquidityPairFrom).token0() */\n      mload(0x40)\n      dup2\n      0xffffffff\n      and\n      0xe0\n      shl\n      dup2\n      mstore\n      0x04\n      add\n      0x20\n      mload(0x40)\n      dup1\n      dup4\n      sub\n      dup2\n      dup7\n      dup1\n      extcodesize\n      iszero\n      dup1\n      iszero\n      tag_135\n      jumpi\n      0x00\n      dup1\n      revert\n    tag_135:\n      pop\n      gas\n      staticcall\n      iszero\n      dup1\n      iszero\n      tag_137\n      jumpi\n      returndatasize\n      0x00\n      dup1\n      returndatacopy\n      revert(0x00, returndatasize)\n    tag_137:\n      pop\n      pop\n      pop\n      pop\n      mload(0x40)\n      returndatasize\n      0x20\n      dup2\n      lt\n      iszero\n      tag_138\n      jumpi\n      0x00\n      dup1\n      revert\n    tag_138:\n      pop\n      mload\n        /* \"CoreContracts/kalyswap-periphery/KalyswapBridgeMigrationRouter_flattened.sol\":24063:24102  IKalyswapPair(liquidityPairTo).token0() */\n      0x40\n      dup1\n      mload\n      shl(0xe0, 0x0dfe1681)\n      dup2\n      mstore\n      swap1\n      mload\n        /* \"CoreContracts/kalyswap-periphery/KalyswapBridgeMigrationRouter_flattened.sol\":23950:23991  IKalyswapPair(liquidityPairFrom).token0() */\n      swap2\n      swap3\n      pop\n      sub(shl(0xa0, 0x01), 0x01)\n        /* \"CoreContracts/kalyswap-periphery/KalyswapBridgeMigrationRouter_flattened.sol\":24063:24100  IKalyswapPair(liquidityPairTo).token0 */\n      dup7\n      and\n      swap2\n      0x0dfe1681\n      swap2\n        /* \"CoreContracts/kalyswap-periphery/KalyswapBridgeMigrationRouter_flattened.sol\":24063:24102  IKalyswapPair(liquidityPairTo).token0() */\n      0x04\n      dup1\n      dup3\n      add\n      swap3\n        /* \"CoreContracts/kalyswap-periphery/KalyswapBridgeMigrationRouter_flattened.sol\":23950:23991  IKalyswapPair(liquidityPairFrom).token0() */\n      0x20\n      swap3\n        /* \"CoreContracts/kalyswap-periphery/KalyswapBridgeMigrationRouter_flattened.sol\":24063:24102  IKalyswapPair(liquidityPairTo).token0() */\n      swap1\n      swap2\n      swap1\n      dup3\n      swap1\n      sub\n      add\n      dup2\n        /* \"CoreContracts/kalyswap-periphery/KalyswapBridgeMigrationRouter_flattened.sol\":24063:24100  IKalyswapPair(liquidityPairTo).token0 */\n      dup7\n        /* \"CoreContracts/kalyswap-periphery/KalyswapBridgeMigrationRouter_flattened.sol\":24063:24102  IKalyswapPair(liquidityPairTo).token0() */\n      dup1\n      extcodesize\n      iszero\n      dup1\n      iszero\n      tag_139\n      jumpi\n      0x00\n      dup1\n      revert\n    tag_139:\n      pop\n      gas\n      staticcall\n      iszero\n      dup1\n      iszero\n      tag_141\n      jumpi\n      returndatasize\n      0x00\n      dup1\n      returndatacopy\n      revert(0x00, returndatasize)\n    tag_141:\n      pop\n      pop\n      pop\n      pop\n      mload(0x40)\n      returndatasize\n      0x20\n      dup2\n      lt\n      iszero\n      tag_142\n      jumpi\n      0x00\n      dup1\n      revert\n    tag_142:\n      pop\n      mload\n        /* \"CoreContracts/kalyswap-periphery/KalyswapBridgeMigrationRouter_flattened.sol\":24018:24059  IKalyswapPair(liquidityPairFrom).token0() */\n      0x40\n      dup1\n      mload\n      shl(0xe0, 0x0dfe1681)\n      dup2\n      mstore\n      swap1\n      mload\n      sub(shl(0xa0, 0x01), 0x01)\n        /* \"CoreContracts/kalyswap-periphery/KalyswapBridgeMigrationRouter_flattened.sol\":24018:24102  IKalyswapPair(liquidityPairFrom).token0() == IKalyswapPair(liquidityPairTo).token0() */\n      swap3\n      dup4\n      and\n      swap3\n        /* \"CoreContracts/kalyswap-periphery/KalyswapBridgeMigrationRouter_flattened.sol\":24018:24057  IKalyswapPair(liquidityPairFrom).token0 */\n      dup9\n      and\n      swap2\n      0x0dfe1681\n      swap2\n        /* \"CoreContracts/kalyswap-periphery/KalyswapBridgeMigrationRouter_flattened.sol\":24018:24059  IKalyswapPair(liquidityPairFrom).token0() */\n      0x04\n      dup1\n      dup4\n      add\n      swap3\n        /* \"CoreContracts/kalyswap-periphery/KalyswapBridgeMigrationRouter_flattened.sol\":24063:24102  IKalyswapPair(liquidityPairTo).token0() */\n      0x20\n      swap3\n        /* \"CoreContracts/kalyswap-periphery/KalyswapBridgeMigrationRouter_flattened.sol\":24018:24059  IKalyswapPair(liquidityPairFrom).token0() */\n      swap2\n      swap1\n      dup3\n      swap1\n      sub\n      add\n      dup2\n        /* \"CoreContracts/kalyswap-periphery/KalyswapBridgeMigrationRouter_flattened.sol\":24018:24057  IKalyswapPair(liquidityPairFrom).token0 */\n      dup7\n        /* \"CoreContracts/kalyswap-periphery/KalyswapBridgeMigrationRouter_flattened.sol\":24018:24059  IKalyswapPair(liquidityPairFrom).token0() */\n      dup1\n      extcodesize\n      iszero\n      dup1\n      iszero\n      tag_143\n      jumpi\n      0x00\n      dup1\n      revert\n    tag_143:\n      pop\n      gas\n      staticcall\n      iszero\n      dup1\n      iszero\n      tag_145\n      jumpi\n      returndatasize\n      0x00\n      dup1\n      returndatacopy\n      revert(0x00, returndatasize)\n    tag_145:\n      pop\n      pop\n      pop\n      pop\n      mload(0x40)\n      returndatasize\n      0x20\n      dup2\n      lt\n      iszero\n      tag_146\n      jumpi\n      0x00\n      dup1\n      revert\n    tag_146:\n      pop\n      mload\n      sub(shl(0xa0, 0x01), 0x01)\n        /* \"CoreContracts/kalyswap-periphery/KalyswapBridgeMigrationRouter_flattened.sol\":24018:24102  IKalyswapPair(liquidityPairFrom).token0() == IKalyswapPair(liquidityPairTo).token0() */\n      and\n      eq\n      dup1\n        /* \"CoreContracts/kalyswap-periphery/KalyswapBridgeMigrationRouter_flattened.sol\":24018:24202  IKalyswapPair(liquidityPairFrom).token0() == IKalyswapPair(liquidityPairTo).token0() ||... */\n      tag_147\n      jumpi\n      pop\n        /* \"CoreContracts/kalyswap-periphery/KalyswapBridgeMigrationRouter_flattened.sol\":24177:24192  liquidityPairTo */\n      dup4\n      sub(shl(0xa0, 0x01), 0x01)\n        /* \"CoreContracts/kalyswap-periphery/KalyswapBridgeMigrationRouter_flattened.sol\":24163:24200  IKalyswapPair(liquidityPairTo).token1 */\n      and\n      0xd21220a7\n        /* \"CoreContracts/kalyswap-periphery/KalyswapBridgeMigrationRouter_flattened.sol\":24163:24202  IKalyswapPair(liquidityPairTo).token1() */\n      mload(0x40)\n      dup2\n      0xffffffff\n      and\n      0xe0\n      shl\n      dup2\n      mstore\n      0x04\n      add\n      0x20\n      mload(0x40)\n      dup1\n      dup4\n      sub\n      dup2\n      dup7\n      dup1\n      extcodesize\n      iszero\n      dup1\n      iszero\n      tag_148\n      jumpi\n      0x00\n      dup1\n      revert\n    tag_148:\n      pop\n      gas\n      staticcall\n      iszero\n      dup1\n      iszero\n      tag_150\n      jumpi\n      returndatasize\n      0x00\n      dup1\n      returndatacopy\n      revert(0x00, returndatasize)\n    tag_150:\n      pop\n      pop\n      pop\n      pop\n      mload(0x40)\n      returndatasize\n      0x20\n      dup2\n      lt\n      iszero\n      tag_151\n      jumpi\n      0x00\n      dup1\n      revert\n    tag_151:\n      pop\n      mload\n        /* \"CoreContracts/kalyswap-periphery/KalyswapBridgeMigrationRouter_flattened.sol\":24118:24159  IKalyswapPair(liquidityPairFrom).token0() */\n      0x40\n      dup1\n      mload\n      shl(0xe0, 0x0dfe1681)\n      dup2\n      mstore\n      swap1\n      mload\n      sub(shl(0xa0, 0x01), 0x01)\n        /* \"CoreContracts/kalyswap-periphery/KalyswapBridgeMigrationRouter_flattened.sol\":24118:24202  IKalyswapPair(liquidityPairFrom).token0() == IKalyswapPair(liquidityPairTo).token1() */\n      swap3\n      dup4\n      and\n      swap3\n        /* \"CoreContracts/kalyswap-periphery/KalyswapBridgeMigrationRouter_flattened.sol\":24118:24157  IKalyswapPair(liquidityPairFrom).token0 */\n      dup9\n      and\n      swap2\n      0x0dfe1681\n      swap2\n        /* \"CoreContracts/kalyswap-periphery/KalyswapBridgeMigrationRouter_flattened.sol\":24118:24159  IKalyswapPair(liquidityPairFrom).token0() */\n      0x04\n      dup1\n      dup4\n      add\n      swap3\n        /* \"CoreContracts/kalyswap-periphery/KalyswapBridgeMigrationRouter_flattened.sol\":24163:24202  IKalyswapPair(liquidityPairTo).token1() */\n      0x20\n      swap3\n        /* \"CoreContracts/kalyswap-periphery/KalyswapBridgeMigrationRouter_flattened.sol\":24118:24159  IKalyswapPair(liquidityPairFrom).token0() */\n      swap2\n      swap1\n      dup3\n      swap1\n      sub\n      add\n      dup2\n        /* \"CoreContracts/kalyswap-periphery/KalyswapBridgeMigrationRouter_flattened.sol\":24118:24157  IKalyswapPair(liquidityPairFrom).token0 */\n      dup7\n        /* \"CoreContracts/kalyswap-periphery/KalyswapBridgeMigrationRouter_flattened.sol\":24118:24159  IKalyswapPair(liquidityPairFrom).token0() */\n      dup1\n      extcodesize\n      iszero\n      dup1\n      iszero\n      tag_152\n      jumpi\n      0x00\n      dup1\n      revert\n    tag_152:\n      pop\n      gas\n      staticcall\n      iszero\n      dup1\n      iszero\n      tag_154\n      jumpi\n      returndatasize\n      0x00\n      dup1\n      returndatacopy\n      revert(0x00, returndatasize)\n    tag_154:\n      pop\n      pop\n      pop\n      pop\n      mload(0x40)\n      returndatasize\n      0x20\n      dup2\n      lt\n      iszero\n      tag_155\n      jumpi\n      0x00\n      dup1\n      revert\n    tag_155:\n      pop\n      mload\n      sub(shl(0xa0, 0x01), 0x01)\n        /* \"CoreContracts/kalyswap-periphery/KalyswapBridgeMigrationRouter_flattened.sol\":24118:24202  IKalyswapPair(liquidityPairFrom).token0() == IKalyswapPair(liquidityPairTo).token1() */\n      and\n      eq\n        /* \"CoreContracts/kalyswap-periphery/KalyswapBridgeMigrationRouter_flattened.sol\":24018:24202  IKalyswapPair(liquidityPairFrom).token0() == IKalyswapPair(liquidityPairTo).token0() ||... */\n    tag_147:\n        /* \"CoreContracts/kalyswap-periphery/KalyswapBridgeMigrationRouter_flattened.sol\":24001:24296  if (... */\n      iszero\n      tag_156\n      jumpi\n        /* \"CoreContracts/kalyswap-periphery/KalyswapBridgeMigrationRouter_flattened.sol\":24258:24275  liquidityPairFrom */\n      dup5\n      sub(shl(0xa0, 0x01), 0x01)\n        /* \"CoreContracts/kalyswap-periphery/KalyswapBridgeMigrationRouter_flattened.sol\":24244:24283  IKalyswapPair(liquidityPairFrom).token1 */\n      and\n      0xd21220a7\n        /* \"CoreContracts/kalyswap-periphery/KalyswapBridgeMigrationRouter_flattened.sol\":24244:24285  IKalyswapPair(liquidityPairFrom).token1() */\n      mload(0x40)\n      dup2\n      0xffffffff\n      and\n      0xe0\n      shl\n      dup2\n      mstore\n      0x04\n      add\n      0x20\n      mload(0x40)\n      dup1\n      dup4\n      sub\n      dup2\n      dup7\n      dup1\n      extcodesize\n      iszero\n      dup1\n      iszero\n      tag_157\n      jumpi\n      0x00\n      dup1\n      revert\n    tag_157:\n      pop\n      gas\n      staticcall\n      iszero\n      dup1\n      iszero\n      tag_159\n      jumpi\n      returndatasize\n      0x00\n      dup1\n      returndatacopy\n      revert(0x00, returndatasize)\n    tag_159:\n      pop\n      pop\n      pop\n      pop\n      mload(0x40)\n      returndatasize\n      0x20\n      dup2\n      lt\n      iszero\n      tag_160\n      jumpi\n      0x00\n      dup1\n      revert\n    tag_160:\n      pop\n      mload\n      swap1\n      pop\n        /* \"CoreContracts/kalyswap-periphery/KalyswapBridgeMigrationRouter_flattened.sol\":24001:24296  if (... */\n    tag_156:\n      sub(shl(0xa0, 0x01), 0x01)\n        /* \"CoreContracts/kalyswap-periphery/KalyswapBridgeMigrationRouter_flattened.sol\":24331:24361  bridgeMigrator[tokenToMigrate] */\n      dup1\n      dup3\n      and\n        /* \"CoreContracts/kalyswap-periphery/KalyswapBridgeMigrationRouter_flattened.sol\":24305:24328  address newTokenAddress */\n      0x00\n        /* \"CoreContracts/kalyswap-periphery/KalyswapBridgeMigrationRouter_flattened.sol\":24331:24361  bridgeMigrator[tokenToMigrate] */\n      swap1\n      dup2\n      mstore\n        /* \"CoreContracts/kalyswap-periphery/KalyswapBridgeMigrationRouter_flattened.sol\":24331:24345  bridgeMigrator */\n      0x01\n        /* \"CoreContracts/kalyswap-periphery/KalyswapBridgeMigrationRouter_flattened.sol\":24331:24361  bridgeMigrator[tokenToMigrate] */\n      0x20\n      mstore\n      0x40\n      swap1\n      keccak256\n      sload\n      and\n        /* \"CoreContracts/kalyswap-periphery/KalyswapBridgeMigrationRouter_flattened.sol\":24392:24421  newTokenAddress != address(0) */\n      dup1\n        /* \"CoreContracts/kalyswap-periphery/KalyswapBridgeMigrationRouter_flattened.sol\":24371:24514  require(... */\n      tag_161\n      jumpi\n      mload(0x40)\n      shl(0xe5, 0x461bcd)\n      dup2\n      mstore\n      0x04\n      add\n      dup1\n      dup1\n      0x20\n      add\n      dup3\n      dup2\n      sub\n      dup3\n      mstore\n      0x43\n      dup2\n      mstore\n      0x20\n      add\n      dup1\n      data_c3ea15ec7964d97f4fca03ff0a261f494af166a8c1b012c373fddb2447a896d1\n      0x43\n      swap2\n      codecopy\n      0x60\n      add\n      swap2\n      pop\n      pop\n      mload(0x40)\n      dup1\n      swap2\n      sub\n      swap1\n      revert\n    tag_161:\n        /* \"CoreContracts/kalyswap-periphery/KalyswapBridgeMigrationRouter_flattened.sol\":24578:24593  liquidityPairTo */\n      dup5\n      sub(shl(0xa0, 0x01), 0x01)\n        /* \"CoreContracts/kalyswap-periphery/KalyswapBridgeMigrationRouter_flattened.sol\":24564:24601  IKalyswapPair(liquidityPairTo).token0 */\n      and\n      0x0dfe1681\n        /* \"CoreContracts/kalyswap-periphery/KalyswapBridgeMigrationRouter_flattened.sol\":24564:24603  IKalyswapPair(liquidityPairTo).token0() */\n      mload(0x40)\n      dup2\n      0xffffffff\n      and\n      0xe0\n      shl\n      dup2\n      mstore\n      0x04\n      add\n      0x20\n      mload(0x40)\n      dup1\n      dup4\n      sub\n      dup2\n      dup7\n      dup1\n      extcodesize\n      iszero\n      dup1\n      iszero\n      tag_162\n      jumpi\n      0x00\n      dup1\n      revert\n    tag_162:\n      pop\n      gas\n      staticcall\n      iszero\n      dup1\n      iszero\n      tag_164\n      jumpi\n      returndatasize\n      0x00\n      dup1\n      returndatacopy\n      revert(0x00, returndatasize)\n    tag_164:\n      pop\n      pop\n      pop\n      pop\n      mload(0x40)\n      returndatasize\n      0x20\n      dup2\n      lt\n      iszero\n      tag_165\n      jumpi\n      0x00\n      dup1\n      revert\n    tag_165:\n      pop\n      mload\n      sub(shl(0xa0, 0x01), 0x01)\n        /* \"CoreContracts/kalyswap-periphery/KalyswapBridgeMigrationRouter_flattened.sol\":24545:24603  newTokenAddress == IKalyswapPair(liquidityPairTo).token0() */\n      dup3\n      dup2\n      and\n      swap2\n      and\n      eq\n      dup1\n        /* \"CoreContracts/kalyswap-periphery/KalyswapBridgeMigrationRouter_flattened.sol\":24545:24677  newTokenAddress == IKalyswapPair(liquidityPairTo).token0() ||... */\n      tag_166\n      jumpi\n      pop\n        /* \"CoreContracts/kalyswap-periphery/KalyswapBridgeMigrationRouter_flattened.sol\":24652:24667  liquidityPairTo */\n      dup5\n      sub(shl(0xa0, 0x01), 0x01)\n        /* \"CoreContracts/kalyswap-periphery/KalyswapBridgeMigrationRouter_flattened.sol\":24638:24675  IKalyswapPair(liquidityPairTo).token1 */\n      and\n      0xd21220a7\n        /* \"CoreContracts/kalyswap-periphery/KalyswapBridgeMigrationRouter_flattened.sol\":24638:24677  IKalyswapPair(liquidityPairTo).token1() */\n      mload(0x40)\n      dup2\n      0xffffffff\n      and\n      0xe0\n      shl\n      dup2\n      mstore\n      0x04\n      add\n      0x20\n      mload(0x40)\n      dup1\n      dup4\n      sub\n      dup2\n      dup7\n      dup1\n      extcodesize\n      iszero\n      dup1\n      iszero\n      tag_167\n      jumpi\n      0x00\n      dup1\n      revert\n    tag_167:\n      pop\n      gas\n      staticcall\n      iszero\n      dup1\n      iszero\n      tag_169\n      jumpi\n      returndatasize\n      0x00\n      dup1\n      returndatacopy\n      revert(0x00, returndatasize)\n    tag_169:\n      pop\n      pop\n      pop\n      pop\n      mload(0x40)\n      returndatasize\n      0x20\n      dup2\n      lt\n      iszero\n      tag_170\n      jumpi\n      0x00\n      dup1\n      revert\n    tag_170:\n      pop\n      mload\n      sub(shl(0xa0, 0x01), 0x01)\n        /* \"CoreContracts/kalyswap-periphery/KalyswapBridgeMigrationRouter_flattened.sol\":24619:24677  newTokenAddress == IKalyswapPair(liquidityPairTo).token1() */\n      dup3\n      dup2\n      and\n      swap2\n      and\n      eq\n        /* \"CoreContracts/kalyswap-periphery/KalyswapBridgeMigrationRouter_flattened.sol\":24545:24677  newTokenAddress == IKalyswapPair(liquidityPairTo).token0() ||... */\n    tag_166:\n        /* \"CoreContracts/kalyswap-periphery/KalyswapBridgeMigrationRouter_flattened.sol\":24524:24772  require(... */\n      tag_171\n      jumpi\n      mload(0x40)\n      shl(0xe5, 0x461bcd)\n      dup2\n      mstore\n      0x04\n      add\n      dup1\n      dup1\n      0x20\n      add\n      dup3\n      dup2\n      sub\n      dup3\n      mstore\n      0x45\n      dup2\n      mstore\n      0x20\n      add\n      dup1\n      data_1d8ac38f6fc3450d3a0236480a1ba0d030f5fe1f648621299163fdf4fc11c5c7\n      0x45\n      swap2\n      codecopy\n      0x60\n      add\n      swap2\n      pop\n      pop\n      mload(0x40)\n      dup1\n      swap2\n      sub\n      swap1\n      revert\n    tag_171:\n        /* \"CoreContracts/kalyswap-periphery/KalyswapBridgeMigrationRouter_flattened.sol\":24784:24801  uint amountTokenA */\n      0x00\n        /* \"CoreContracts/kalyswap-periphery/KalyswapBridgeMigrationRouter_flattened.sol\":24803:24820  uint amountTokenB */\n      dup1\n        /* \"CoreContracts/kalyswap-periphery/KalyswapBridgeMigrationRouter_flattened.sol\":24824:24867  _rescueLiquidity(liquidityPairFrom, amount) */\n      tag_172\n        /* \"CoreContracts/kalyswap-periphery/KalyswapBridgeMigrationRouter_flattened.sol\":24841:24858  liquidityPairFrom */\n      dup9\n        /* \"CoreContracts/kalyswap-periphery/KalyswapBridgeMigrationRouter_flattened.sol\":24860:24866  amount */\n      dup7\n        /* \"CoreContracts/kalyswap-periphery/KalyswapBridgeMigrationRouter_flattened.sol\":24824:24840  _rescueLiquidity */\n      tag_173\n        /* \"CoreContracts/kalyswap-periphery/KalyswapBridgeMigrationRouter_flattened.sol\":24824:24867  _rescueLiquidity(liquidityPairFrom, amount) */\n      jump\t// in\n    tag_172:\n        /* \"CoreContracts/kalyswap-periphery/KalyswapBridgeMigrationRouter_flattened.sol\":24783:24867  (uint amountTokenA, uint amountTokenB) = _rescueLiquidity(liquidityPairFrom, amount) */\n      swap2\n      pop\n      swap2\n      pop\n        /* \"CoreContracts/kalyswap-periphery/KalyswapBridgeMigrationRouter_flattened.sol\":24891:24908  uint amountToSwap */\n      0x00\n        /* \"CoreContracts/kalyswap-periphery/KalyswapBridgeMigrationRouter_flattened.sol\":24911:24923  amountTokenA */\n      dup3\n        /* \"CoreContracts/kalyswap-periphery/KalyswapBridgeMigrationRouter_flattened.sol\":24891:24923  uint amountToSwap = amountTokenA */\n      swap1\n      pop\n        /* \"CoreContracts/kalyswap-periphery/KalyswapBridgeMigrationRouter_flattened.sol\":24973:24990  liquidityPairFrom */\n      dup9\n      sub(shl(0xa0, 0x01), 0x01)\n        /* \"CoreContracts/kalyswap-periphery/KalyswapBridgeMigrationRouter_flattened.sol\":24959:24998  IKalyswapPair(liquidityPairFrom).token0 */\n      and\n      0x0dfe1681\n        /* \"CoreContracts/kalyswap-periphery/KalyswapBridgeMigrationRouter_flattened.sol\":24959:25000  IKalyswapPair(liquidityPairFrom).token0() */\n      mload(0x40)\n      dup2\n      0xffffffff\n      and\n      0xe0\n      shl\n      dup2\n      mstore\n      0x04\n      add\n      0x20\n      mload(0x40)\n      dup1\n      dup4\n      sub\n      dup2\n      dup7\n      dup1\n      extcodesize\n      iszero\n      dup1\n      iszero\n      tag_174\n      jumpi\n      0x00\n      dup1\n      revert\n    tag_174:\n      pop\n      gas\n      staticcall\n      iszero\n      dup1\n      iszero\n      tag_176\n      jumpi\n      returndatasize\n      0x00\n      dup1\n      returndatacopy\n      revert(0x00, returndatasize)\n    tag_176:\n      pop\n      pop\n      pop\n      pop\n      mload(0x40)\n      returndatasize\n      0x20\n      dup2\n      lt\n      iszero\n      tag_177\n      jumpi\n      0x00\n      dup1\n      revert\n    tag_177:\n      pop\n      mload\n      sub(shl(0xa0, 0x01), 0x01)\n        /* \"CoreContracts/kalyswap-periphery/KalyswapBridgeMigrationRouter_flattened.sol\":24941:25000  tokenToMigrate != IKalyswapPair(liquidityPairFrom).token0() */\n      dup7\n      dup2\n      and\n      swap2\n      and\n      eq\n        /* \"CoreContracts/kalyswap-periphery/KalyswapBridgeMigrationRouter_flattened.sol\":24937:25062  if (tokenToMigrate != IKalyswapPair(liquidityPairFrom).token0()) {... */\n      tag_178\n      jumpi\n      pop\n        /* \"CoreContracts/kalyswap-periphery/KalyswapBridgeMigrationRouter_flattened.sol\":25035:25047  amountTokenB */\n      dup1\n        /* \"CoreContracts/kalyswap-periphery/KalyswapBridgeMigrationRouter_flattened.sol\":24937:25062  if (tokenToMigrate != IKalyswapPair(liquidityPairFrom).token0()) {... */\n    tag_178:\n        /* \"CoreContracts/kalyswap-periphery/KalyswapBridgeMigrationRouter_flattened.sol\":25075:25118  _migrateToken(tokenToMigrate, amountToSwap) */\n      tag_179\n        /* \"CoreContracts/kalyswap-periphery/KalyswapBridgeMigrationRouter_flattened.sol\":25089:25103  tokenToMigrate */\n      dup6\n        /* \"CoreContracts/kalyswap-periphery/KalyswapBridgeMigrationRouter_flattened.sol\":25105:25117  amountToSwap */\n      dup3\n        /* \"CoreContracts/kalyswap-periphery/KalyswapBridgeMigrationRouter_flattened.sol\":25075:25088  _migrateToken */\n      tag_121\n        /* \"CoreContracts/kalyswap-periphery/KalyswapBridgeMigrationRouter_flattened.sol\":25075:25118  _migrateToken(tokenToMigrate, amountToSwap) */\n      jump\t// in\n    tag_179:\n        /* \"CoreContracts/kalyswap-periphery/KalyswapBridgeMigrationRouter_flattened.sol\":23699:25961  function _migrateLiquidity(... */\n      pop\n        /* \"CoreContracts/kalyswap-periphery/KalyswapBridgeMigrationRouter_flattened.sol\":25201:25216  liquidityPairTo */\n      dup7\n      sub(shl(0xa0, 0x01), 0x01)\n        /* \"CoreContracts/kalyswap-periphery/KalyswapBridgeMigrationRouter_flattened.sol\":25187:25224  IKalyswapPair(liquidityPairTo).token0 */\n      and\n      0x0dfe1681\n        /* \"CoreContracts/kalyswap-periphery/KalyswapBridgeMigrationRouter_flattened.sol\":25187:25226  IKalyswapPair(liquidityPairTo).token0() */\n      mload(0x40)\n      dup2\n      0xffffffff\n      and\n      0xe0\n      shl\n      dup2\n      mstore\n      0x04\n      add\n      0x20\n      mload(0x40)\n      dup1\n      dup4\n      sub\n      dup2\n      dup7\n      dup1\n      extcodesize\n      iszero\n      dup1\n      iszero\n      tag_180\n      jumpi\n      0x00\n      dup1\n      revert\n    tag_180:\n      pop\n      gas\n      staticcall\n      iszero\n      dup1\n      iszero\n      tag_182\n      jumpi\n      returndatasize\n      0x00\n      dup1\n      returndatacopy\n      revert(0x00, returndatasize)\n    tag_182:\n      pop\n      pop\n      pop\n      pop\n      mload(0x40)\n      returndatasize\n      0x20\n      dup2\n      lt\n      iszero\n      tag_183\n      jumpi\n      0x00\n      dup1\n      revert\n    tag_183:\n      pop\n      mload\n        /* \"CoreContracts/kalyswap-periphery/KalyswapBridgeMigrationRouter_flattened.sol\":25142:25183  IKalyswapPair(liquidityPairFrom).token0() */\n      0x40\n      dup1\n      mload\n      shl(0xe0, 0x0dfe1681)\n      dup2\n      mstore\n      swap1\n      mload\n      sub(shl(0xa0, 0x01), 0x01)\n        /* \"CoreContracts/kalyswap-periphery/KalyswapBridgeMigrationRouter_flattened.sol\":25142:25226  IKalyswapPair(liquidityPairFrom).token0() != IKalyswapPair(liquidityPairTo).token0() */\n      swap3\n      dup4\n      and\n      swap3\n        /* \"CoreContracts/kalyswap-periphery/KalyswapBridgeMigrationRouter_flattened.sol\":25142:25181  IKalyswapPair(liquidityPairFrom).token0 */\n      dup12\n      and\n      swap2\n      0x0dfe1681\n      swap2\n        /* \"CoreContracts/kalyswap-periphery/KalyswapBridgeMigrationRouter_flattened.sol\":25142:25183  IKalyswapPair(liquidityPairFrom).token0() */\n      0x04\n      dup1\n      dup4\n      add\n      swap3\n        /* \"CoreContracts/kalyswap-periphery/KalyswapBridgeMigrationRouter_flattened.sol\":25187:25226  IKalyswapPair(liquidityPairTo).token0() */\n      0x20\n      swap3\n        /* \"CoreContracts/kalyswap-periphery/KalyswapBridgeMigrationRouter_flattened.sol\":25142:25183  IKalyswapPair(liquidityPairFrom).token0() */\n      swap2\n      swap1\n      dup3\n      swap1\n      sub\n      add\n      dup2\n        /* \"CoreContracts/kalyswap-periphery/KalyswapBridgeMigrationRouter_flattened.sol\":25142:25181  IKalyswapPair(liquidityPairFrom).token0 */\n      dup7\n        /* \"CoreContracts/kalyswap-periphery/KalyswapBridgeMigrationRouter_flattened.sol\":25142:25183  IKalyswapPair(liquidityPairFrom).token0() */\n      dup1\n      extcodesize\n      iszero\n      dup1\n      iszero\n      tag_184\n      jumpi\n      0x00\n      dup1\n      revert\n    tag_184:\n      pop\n      gas\n      staticcall\n      iszero\n      dup1\n      iszero\n      tag_186\n      jumpi\n      returndatasize\n      0x00\n      dup1\n      returndatacopy\n      revert(0x00, returndatasize)\n    tag_186:\n      pop\n      pop\n      pop\n      pop\n      mload(0x40)\n      returndatasize\n      0x20\n      dup2\n      lt\n      iszero\n      tag_187\n      jumpi\n      0x00\n      dup1\n      revert\n    tag_187:\n      pop\n      mload\n      sub(shl(0xa0, 0x01), 0x01)\n        /* \"CoreContracts/kalyswap-periphery/KalyswapBridgeMigrationRouter_flattened.sol\":25142:25226  IKalyswapPair(liquidityPairFrom).token0() != IKalyswapPair(liquidityPairTo).token0() */\n      and\n      eq\n      dup1\n      iszero\n      swap1\n        /* \"CoreContracts/kalyswap-periphery/KalyswapBridgeMigrationRouter_flattened.sol\":25142:25326  IKalyswapPair(liquidityPairFrom).token0() != IKalyswapPair(liquidityPairTo).token0() &&... */\n      tag_188\n      jumpi\n      pop\n        /* \"CoreContracts/kalyswap-periphery/KalyswapBridgeMigrationRouter_flattened.sol\":25301:25316  liquidityPairTo */\n      dup7\n      sub(shl(0xa0, 0x01), 0x01)\n        /* \"CoreContracts/kalyswap-periphery/KalyswapBridgeMigrationRouter_flattened.sol\":25287:25324  IKalyswapPair(liquidityPairTo).token1 */\n      and\n      0xd21220a7\n        /* \"CoreContracts/kalyswap-periphery/KalyswapBridgeMigrationRouter_flattened.sol\":25287:25326  IKalyswapPair(liquidityPairTo).token1() */\n      mload(0x40)\n      dup2\n      0xffffffff\n      and\n      0xe0\n      shl\n      dup2\n      mstore\n      0x04\n      add\n      0x20\n      mload(0x40)\n      dup1\n      dup4\n      sub\n      dup2\n      dup7\n      dup1\n      extcodesize\n      iszero\n      dup1\n      iszero\n      tag_189\n      jumpi\n      0x00\n      dup1\n      revert\n    tag_189:\n      pop\n      gas\n      staticcall\n      iszero\n      dup1\n      iszero\n      tag_191\n      jumpi\n      returndatasize\n      0x00\n      dup1\n      returndatacopy\n      revert(0x00, returndatasize)\n    tag_191:\n      pop\n      pop\n      pop\n      pop\n      mload(0x40)\n      returndatasize\n      0x20\n      dup2\n      lt\n      iszero\n      tag_192\n      jumpi\n      0x00\n      dup1\n      revert\n    tag_192:\n      pop\n      mload\n        /* \"CoreContracts/kalyswap-periphery/KalyswapBridgeMigrationRouter_flattened.sol\":25242:25283  IKalyswapPair(liquidityPairFrom).token1() */\n      0x40\n      dup1\n      mload\n      shl(0xe0, 0xd21220a7)\n      dup2\n      mstore\n      swap1\n      mload\n      sub(shl(0xa0, 0x01), 0x01)\n        /* \"CoreContracts/kalyswap-periphery/KalyswapBridgeMigrationRouter_flattened.sol\":25242:25326  IKalyswapPair(liquidityPairFrom).token1() != IKalyswapPair(liquidityPairTo).token1() */\n      swap3\n      dup4\n      and\n      swap3\n        /* \"CoreContracts/kalyswap-periphery/KalyswapBridgeMigrationRouter_flattened.sol\":25242:25281  IKalyswapPair(liquidityPairFrom).token1 */\n      dup12\n      and\n      swap2\n      0xd21220a7\n      swap2\n        /* \"CoreContracts/kalyswap-periphery/KalyswapBridgeMigrationRouter_flattened.sol\":25242:25283  IKalyswapPair(liquidityPairFrom).token1() */\n      0x04\n      dup1\n      dup4\n      add\n      swap3\n        /* \"CoreContracts/kalyswap-periphery/KalyswapBridgeMigrationRouter_flattened.sol\":25287:25326  IKalyswapPair(liquidityPairTo).token1() */\n      0x20\n      swap3\n        /* \"CoreContracts/kalyswap-periphery/KalyswapBridgeMigrationRouter_flattened.sol\":25242:25283  IKalyswapPair(liquidityPairFrom).token1() */\n      swap2\n      swap1\n      dup3\n      swap1\n      sub\n      add\n      dup2\n        /* \"CoreContracts/kalyswap-periphery/KalyswapBridgeMigrationRouter_flattened.sol\":25242:25281  IKalyswapPair(liquidityPairFrom).token1 */\n      dup7\n        /* \"CoreContracts/kalyswap-periphery/KalyswapBridgeMigrationRouter_flattened.sol\":25242:25283  IKalyswapPair(liquidityPairFrom).token1() */\n      dup1\n      extcodesize\n      iszero\n      dup1\n      iszero\n      tag_193\n      jumpi\n      0x00\n      dup1\n      revert\n    tag_193:\n      pop\n      gas\n      staticcall\n      iszero\n      dup1\n      iszero\n      tag_195\n      jumpi\n      returndatasize\n      0x00\n      dup1\n      returndatacopy\n      revert(0x00, returndatasize)\n    tag_195:\n      pop\n      pop\n      pop\n      pop\n      mload(0x40)\n      returndatasize\n      0x20\n      dup2\n      lt\n      iszero\n      tag_196\n      jumpi\n      0x00\n      dup1\n      revert\n    tag_196:\n      pop\n      mload\n      sub(shl(0xa0, 0x01), 0x01)\n        /* \"CoreContracts/kalyswap-periphery/KalyswapBridgeMigrationRouter_flattened.sol\":25242:25326  IKalyswapPair(liquidityPairFrom).token1() != IKalyswapPair(liquidityPairTo).token1() */\n      and\n      eq\n      iszero\n        /* \"CoreContracts/kalyswap-periphery/KalyswapBridgeMigrationRouter_flattened.sol\":25142:25326  IKalyswapPair(liquidityPairFrom).token0() != IKalyswapPair(liquidityPairTo).token0() &&... */\n    tag_188:\n        /* \"CoreContracts/kalyswap-periphery/KalyswapBridgeMigrationRouter_flattened.sol\":25138:25421  if (IKalyswapPair(liquidityPairFrom).token0() != IKalyswapPair(liquidityPairTo).token0() &&... */\n      iszero\n      tag_197\n      jumpi\n        /* \"CoreContracts/kalyswap-periphery/KalyswapBridgeMigrationRouter_flattened.sol\":25383:25395  amountTokenB */\n      swap1\n        /* \"CoreContracts/kalyswap-periphery/KalyswapBridgeMigrationRouter_flattened.sol\":25138:25421  if (IKalyswapPair(liquidityPairFrom).token0() != IKalyswapPair(liquidityPairTo).token0() &&... */\n    tag_197:\n        /* \"CoreContracts/kalyswap-periphery/KalyswapBridgeMigrationRouter_flattened.sol\":25432:25450  uint changeAmount0 */\n      0x00\n        /* \"CoreContracts/kalyswap-periphery/KalyswapBridgeMigrationRouter_flattened.sol\":25452:25470  uint changeAmount1 */\n      dup1\n        /* \"CoreContracts/kalyswap-periphery/KalyswapBridgeMigrationRouter_flattened.sol\":25476:25666  _addLiquidity(... */\n      tag_198\n        /* \"CoreContracts/kalyswap-periphery/KalyswapBridgeMigrationRouter_flattened.sol\":25503:25518  liquidityPairTo */\n      dup10\n        /* \"CoreContracts/kalyswap-periphery/KalyswapBridgeMigrationRouter_flattened.sol\":25546:25561  liquidityPairTo */\n      dup11\n      sub(shl(0xa0, 0x01), 0x01)\n        /* \"CoreContracts/kalyswap-periphery/KalyswapBridgeMigrationRouter_flattened.sol\":25532:25569  IKalyswapPair(liquidityPairTo).token0 */\n      and\n      0x0dfe1681\n        /* \"CoreContracts/kalyswap-periphery/KalyswapBridgeMigrationRouter_flattened.sol\":25532:25571  IKalyswapPair(liquidityPairTo).token0() */\n      mload(0x40)\n      dup2\n      0xffffffff\n      and\n      0xe0\n      shl\n      dup2\n      mstore\n      0x04\n      add\n      0x20\n      mload(0x40)\n      dup1\n      dup4\n      sub\n      dup2\n      dup7\n      dup1\n      extcodesize\n      iszero\n      dup1\n      iszero\n      tag_199\n      jumpi\n      0x00\n      dup1\n      revert\n    tag_199:\n      pop\n      gas\n      staticcall\n      iszero\n      dup1\n      iszero\n      tag_201\n      jumpi\n      returndatasize\n      0x00\n      dup1\n      returndatacopy\n      revert(0x00, returndatasize)\n    tag_201:\n      pop\n      pop\n      pop\n      pop\n      mload(0x40)\n      returndatasize\n      0x20\n      dup2\n      lt\n      iszero\n      tag_202\n      jumpi\n      0x00\n      dup1\n      revert\n    tag_202:\n      pop\n      mload\n        /* \"CoreContracts/kalyswap-periphery/KalyswapBridgeMigrationRouter_flattened.sol\":25573:25612  IKalyswapPair(liquidityPairTo).token1() */\n      0x40\n      dup1\n      mload\n      shl(0xe0, 0xd21220a7)\n      dup2\n      mstore\n      swap1\n      mload\n      sub(shl(0xa0, 0x01), 0x01)\n        /* \"CoreContracts/kalyswap-periphery/KalyswapBridgeMigrationRouter_flattened.sol\":25573:25610  IKalyswapPair(liquidityPairTo).token1 */\n      dup15\n      and\n      swap2\n      0xd21220a7\n      swap2\n        /* \"CoreContracts/kalyswap-periphery/KalyswapBridgeMigrationRouter_flattened.sol\":25573:25612  IKalyswapPair(liquidityPairTo).token1() */\n      0x04\n      dup1\n      dup4\n      add\n      swap3\n        /* \"CoreContracts/kalyswap-periphery/KalyswapBridgeMigrationRouter_flattened.sol\":25532:25571  IKalyswapPair(liquidityPairTo).token0() */\n      0x20\n      swap3\n        /* \"CoreContracts/kalyswap-periphery/KalyswapBridgeMigrationRouter_flattened.sol\":25573:25612  IKalyswapPair(liquidityPairTo).token1() */\n      swap2\n      swap1\n      dup3\n      swap1\n      sub\n      add\n      dup2\n        /* \"CoreContracts/kalyswap-periphery/KalyswapBridgeMigrationRouter_flattened.sol\":25573:25610  IKalyswapPair(liquidityPairTo).token1 */\n      dup7\n        /* \"CoreContracts/kalyswap-periphery/KalyswapBridgeMigrationRouter_flattened.sol\":25573:25612  IKalyswapPair(liquidityPairTo).token1() */\n      dup1\n      extcodesize\n      iszero\n      dup1\n      iszero\n      tag_203\n      jumpi\n      0x00\n      dup1\n      revert\n    tag_203:\n      pop\n      gas\n      staticcall\n      iszero\n      dup1\n      iszero\n      tag_205\n      jumpi\n      returndatasize\n      0x00\n      dup1\n      returndatacopy\n      revert(0x00, returndatasize)\n    tag_205:\n      pop\n      pop\n      pop\n      pop\n      mload(0x40)\n      returndatasize\n      0x20\n      dup2\n      lt\n      iszero\n      tag_206\n      jumpi\n      0x00\n      dup1\n      revert\n    tag_206:\n      pop\n      mload\n        /* \"CoreContracts/kalyswap-periphery/KalyswapBridgeMigrationRouter_flattened.sol\":25626:25638  amountTokenA */\n      dup8\n        /* \"CoreContracts/kalyswap-periphery/KalyswapBridgeMigrationRouter_flattened.sol\":25640:25652  amountTokenB */\n      dup8\n        /* \"CoreContracts/kalyswap-periphery/KalyswapBridgeMigrationRouter_flattened.sol\":25654:25656  to */\n      dup14\n        /* \"CoreContracts/kalyswap-periphery/KalyswapBridgeMigrationRouter_flattened.sol\":25476:25489  _addLiquidity */\n      tag_207\n        /* \"CoreContracts/kalyswap-periphery/KalyswapBridgeMigrationRouter_flattened.sol\":25476:25666  _addLiquidity(... */\n      jump\t// in\n    tag_198:\n      pop\n        /* \"CoreContracts/kalyswap-periphery/KalyswapBridgeMigrationRouter_flattened.sol\":25431:25666  (uint changeAmount0, uint changeAmount1, ) = _addLiquidity(... */\n      swap1\n      swap3\n      pop\n      swap1\n      pop\n        /* \"CoreContracts/kalyswap-periphery/KalyswapBridgeMigrationRouter_flattened.sol\":25680:25697  changeAmount0 > 0 */\n      dup2\n      iszero\n        /* \"CoreContracts/kalyswap-periphery/KalyswapBridgeMigrationRouter_flattened.sol\":25676:25811  if (changeAmount0 > 0) {... */\n      tag_209\n      jumpi\n        /* \"CoreContracts/kalyswap-periphery/KalyswapBridgeMigrationRouter_flattened.sol\":25713:25800  TransferHelper.safeTransfer(IKalyswapPair(liquidityPairTo).token0(), to, changeAmount0) */\n      tag_209\n        /* \"CoreContracts/kalyswap-periphery/KalyswapBridgeMigrationRouter_flattened.sol\":25755:25770  liquidityPairTo */\n      dup10\n      sub(shl(0xa0, 0x01), 0x01)\n        /* \"CoreContracts/kalyswap-periphery/KalyswapBridgeMigrationRouter_flattened.sol\":25741:25778  IKalyswapPair(liquidityPairTo).token0 */\n      and\n      0x0dfe1681\n        /* \"CoreContracts/kalyswap-periphery/KalyswapBridgeMigrationRouter_flattened.sol\":25741:25780  IKalyswapPair(liquidityPairTo).token0() */\n      mload(0x40)\n      dup2\n      0xffffffff\n      and\n      0xe0\n      shl\n      dup2\n      mstore\n      0x04\n      add\n      0x20\n      mload(0x40)\n      dup1\n      dup4\n      sub\n      dup2\n      dup7\n      dup1\n      extcodesize\n      iszero\n      dup1\n      iszero\n      tag_210\n      jumpi\n      0x00\n      dup1\n      revert\n    tag_210:\n      pop\n      gas\n      staticcall\n      iszero\n      dup1\n      iszero\n      tag_212\n      jumpi\n      returndatasize\n      0x00\n      dup1\n      returndatacopy\n      revert(0x00, returndatasize)\n    tag_212:\n      pop\n      pop\n      pop\n      pop\n      mload(0x40)\n      returndatasize\n      0x20\n      dup2\n      lt\n      iszero\n      tag_213\n      jumpi\n      0x00\n      dup1\n      revert\n    tag_213:\n      pop\n      mload\n        /* \"CoreContracts/kalyswap-periphery/KalyswapBridgeMigrationRouter_flattened.sol\":25782:25784  to */\n      dup10\n        /* \"CoreContracts/kalyswap-periphery/KalyswapBridgeMigrationRouter_flattened.sol\":25786:25799  changeAmount0 */\n      dup5\n        /* \"CoreContracts/kalyswap-periphery/KalyswapBridgeMigrationRouter_flattened.sol\":25713:25740  TransferHelper.safeTransfer */\n      tag_123\n        /* \"CoreContracts/kalyswap-periphery/KalyswapBridgeMigrationRouter_flattened.sol\":25713:25800  TransferHelper.safeTransfer(IKalyswapPair(liquidityPairTo).token0(), to, changeAmount0) */\n      jump\t// in\n    tag_209:\n        /* \"CoreContracts/kalyswap-periphery/KalyswapBridgeMigrationRouter_flattened.sol\":25824:25841  changeAmount1 > 0 */\n      dup1\n      iszero\n        /* \"CoreContracts/kalyswap-periphery/KalyswapBridgeMigrationRouter_flattened.sol\":25820:25955  if (changeAmount1 > 0) {... */\n      tag_215\n      jumpi\n        /* \"CoreContracts/kalyswap-periphery/KalyswapBridgeMigrationRouter_flattened.sol\":25857:25944  TransferHelper.safeTransfer(IKalyswapPair(liquidityPairTo).token1(), to, changeAmount1) */\n      tag_215\n        /* \"CoreContracts/kalyswap-periphery/KalyswapBridgeMigrationRouter_flattened.sol\":25899:25914  liquidityPairTo */\n      dup10\n      sub(shl(0xa0, 0x01), 0x01)\n        /* \"CoreContracts/kalyswap-periphery/KalyswapBridgeMigrationRouter_flattened.sol\":25885:25922  IKalyswapPair(liquidityPairTo).token1 */\n      and\n      0xd21220a7\n        /* \"CoreContracts/kalyswap-periphery/KalyswapBridgeMigrationRouter_flattened.sol\":25885:25924  IKalyswapPair(liquidityPairTo).token1() */\n      mload(0x40)\n      dup2\n      0xffffffff\n      and\n      0xe0\n      shl\n      dup2\n      mstore\n      0x04\n      add\n      0x20\n      mload(0x40)\n      dup1\n      dup4\n      sub\n      dup2\n      dup7\n      dup1\n      extcodesize\n      iszero\n      dup1\n      iszero\n      tag_216\n      jumpi\n      0x00\n      dup1\n      revert\n    tag_216:\n      pop\n      gas\n      staticcall\n      iszero\n      dup1\n      iszero\n      tag_218\n      jumpi\n      returndatasize\n      0x00\n      dup1\n      returndatacopy\n      revert(0x00, returndatasize)\n    tag_218:\n      pop\n      pop\n      pop\n      pop\n      mload(0x40)\n      returndatasize\n      0x20\n      dup2\n      lt\n      iszero\n      tag_219\n      jumpi\n      0x00\n      dup1\n      revert\n    tag_219:\n      pop\n      mload\n        /* \"CoreContracts/kalyswap-periphery/KalyswapBridgeMigrationRouter_flattened.sol\":25926:25928  to */\n      dup10\n        /* \"CoreContracts/kalyswap-periphery/KalyswapBridgeMigrationRouter_flattened.sol\":25930:25943  changeAmount1 */\n      dup4\n        /* \"CoreContracts/kalyswap-periphery/KalyswapBridgeMigrationRouter_flattened.sol\":25857:25884  TransferHelper.safeTransfer */\n      tag_123\n        /* \"CoreContracts/kalyswap-periphery/KalyswapBridgeMigrationRouter_flattened.sol\":25857:25944  TransferHelper.safeTransfer(IKalyswapPair(liquidityPairTo).token1(), to, changeAmount1) */\n      jump\t// in\n    tag_215:\n        /* \"CoreContracts/kalyswap-periphery/KalyswapBridgeMigrationRouter_flattened.sol\":23699:25961  function _migrateLiquidity(... */\n      pop\n      pop\n      pop\n      pop\n      pop\n      pop\n      pop\n      pop\n      pop\n      pop\n      jump\t// out\n        /* \"CoreContracts/kalyswap-periphery/KalyswapBridgeMigrationRouter_flattened.sol\":15546:15707  function _allowToken(address tokenAddress, address spenderAddress) internal {... */\n    tag_69:\n        /* \"CoreContracts/kalyswap-periphery/KalyswapBridgeMigrationRouter_flattened.sol\":15647:15659  tokenAddress */\n      dup2\n      sub(shl(0xa0, 0x01), 0x01)\n        /* \"CoreContracts/kalyswap-periphery/KalyswapBridgeMigrationRouter_flattened.sol\":15632:15668  IKalyswapERC20(tokenAddress).approve */\n      and\n      0x095ea7b3\n        /* \"CoreContracts/kalyswap-periphery/KalyswapBridgeMigrationRouter_flattened.sol\":15669:15683  spenderAddress */\n      dup3\n      not(0x00)\n        /* \"CoreContracts/kalyswap-periphery/KalyswapBridgeMigrationRouter_flattened.sol\":15632:15700  IKalyswapERC20(tokenAddress).approve(spenderAddress, type(uint).max) */\n      mload(0x40)\n      dup4\n      0xffffffff\n      and\n      0xe0\n      shl\n      dup2\n      mstore\n      0x04\n      add\n      dup1\n      dup4\n      sub(shl(0xa0, 0x01), 0x01)\n      and\n      dup2\n      mstore\n      0x20\n      add\n      dup3\n      dup2\n      mstore\n      0x20\n      add\n      swap3\n      pop\n      pop\n      pop\n      0x20\n      mload(0x40)\n      dup1\n      dup4\n      sub\n      dup2\n      0x00\n      dup8\n      dup1\n      extcodesize\n      iszero\n      dup1\n      iszero\n      tag_221\n      jumpi\n      0x00\n      dup1\n      revert\n    tag_221:\n      pop\n      gas\n      call\n      iszero\n      dup1\n      iszero\n      tag_223\n      jumpi\n      returndatasize\n      0x00\n      dup1\n      returndatacopy\n      revert(0x00, returndatasize)\n    tag_223:\n      pop\n      pop\n      pop\n      pop\n      mload(0x40)\n      returndatasize\n      0x20\n      dup2\n      lt\n      iszero\n      tag_224\n      jumpi\n      0x00\n      dup1\n      revert\n    tag_224:\n      pop\n      pop\n      pop\n      pop\n        /* \"CoreContracts/kalyswap-periphery/KalyswapBridgeMigrationRouter_flattened.sol\":15546:15707  function _allowToken(address tokenAddress, address spenderAddress) internal {... */\n      jump\t// out\n        /* \"CoreContracts/kalyswap-periphery/KalyswapBridgeMigrationRouter_flattened.sol\":26509:26908  function _calculateRescueLiquidity(address pairAddress, uint amount) internal view returns (uint amount0, uint amount1) {... */\n    tag_80:\n        /* \"CoreContracts/kalyswap-periphery/KalyswapBridgeMigrationRouter_flattened.sol\":26601:26613  uint amount0 */\n      0x00\n        /* \"CoreContracts/kalyswap-periphery/KalyswapBridgeMigrationRouter_flattened.sol\":26615:26627  uint amount1 */\n      dup1\n        /* \"CoreContracts/kalyswap-periphery/KalyswapBridgeMigrationRouter_flattened.sol\":26640:26657  uint112 reserves0 */\n      0x00\n        /* \"CoreContracts/kalyswap-periphery/KalyswapBridgeMigrationRouter_flattened.sol\":26659:26676  uint112 reserves1 */\n      dup1\n        /* \"CoreContracts/kalyswap-periphery/KalyswapBridgeMigrationRouter_flattened.sol\":26696:26707  pairAddress */\n      dup6\n      sub(shl(0xa0, 0x01), 0x01)\n        /* \"CoreContracts/kalyswap-periphery/KalyswapBridgeMigrationRouter_flattened.sol\":26682:26720  IKalyswapPair(pairAddress).getReserves */\n      and\n      0x0902f1ac\n        /* \"CoreContracts/kalyswap-periphery/KalyswapBridgeMigrationRouter_flattened.sol\":26682:26722  IKalyswapPair(pairAddress).getReserves() */\n      mload(0x40)\n      dup2\n      0xffffffff\n      and\n      0xe0\n      shl\n      dup2\n      mstore\n      0x04\n      add\n      0x60\n      mload(0x40)\n      dup1\n      dup4\n      sub\n      dup2\n      dup7\n      dup1\n      extcodesize\n      iszero\n      dup1\n      iszero\n      tag_226\n      jumpi\n      0x00\n      dup1\n      revert\n    tag_226:\n      pop\n      gas\n      staticcall\n      iszero\n      dup1\n      iszero\n      tag_228\n      jumpi\n      returndatasize\n      0x00\n      dup1\n      returndatacopy\n      revert(0x00, returndatasize)\n    tag_228:\n      pop\n      pop\n      pop\n      pop\n      mload(0x40)\n      returndatasize\n      0x60\n      dup2\n      lt\n      iszero\n      tag_229\n      jumpi\n      0x00\n      dup1\n      revert\n    tag_229:\n      pop\n      dup1\n      mload\n      0x20\n      swap2\n      dup3\n      add\n      mload\n      0x40\n        /* \"CoreContracts/kalyswap-periphery/KalyswapBridgeMigrationRouter_flattened.sol\":26751:26791  IKalyswapPair(pairAddress).totalSupply() */\n      dup1\n      mload\n      0x18160ddd00000000000000000000000000000000000000000000000000000000\n      dup2\n      mstore\n      swap1\n      mload\n        /* \"CoreContracts/kalyswap-periphery/KalyswapBridgeMigrationRouter_flattened.sol\":26682:26722  IKalyswapPair(pairAddress).getReserves() */\n      swap3\n      swap6\n      pop\n      swap1\n      swap4\n      pop\n        /* \"CoreContracts/kalyswap-periphery/KalyswapBridgeMigrationRouter_flattened.sol\":26732:26748  uint totalSupply */\n      0x00\n      swap3\n      sub(shl(0xa0, 0x01), 0x01)\n        /* \"CoreContracts/kalyswap-periphery/KalyswapBridgeMigrationRouter_flattened.sol\":26751:26789  IKalyswapPair(pairAddress).totalSupply */\n      dup11\n      and\n      swap3\n      0x18160ddd\n      swap3\n        /* \"CoreContracts/kalyswap-periphery/KalyswapBridgeMigrationRouter_flattened.sol\":26751:26791  IKalyswapPair(pairAddress).totalSupply() */\n      0x04\n      dup1\n      dup3\n      add\n      swap4\n        /* \"CoreContracts/kalyswap-periphery/KalyswapBridgeMigrationRouter_flattened.sol\":26682:26722  IKalyswapPair(pairAddress).getReserves() */\n      swap3\n        /* \"CoreContracts/kalyswap-periphery/KalyswapBridgeMigrationRouter_flattened.sol\":26751:26791  IKalyswapPair(pairAddress).totalSupply() */\n      swap2\n      dup3\n      swap1\n      sub\n      add\n      dup2\n        /* \"CoreContracts/kalyswap-periphery/KalyswapBridgeMigrationRouter_flattened.sol\":26751:26789  IKalyswapPair(pairAddress).totalSupply */\n      dup7\n        /* \"CoreContracts/kalyswap-periphery/KalyswapBridgeMigrationRouter_flattened.sol\":26751:26791  IKalyswapPair(pairAddress).totalSupply() */\n      dup1\n      extcodesize\n      iszero\n      dup1\n      iszero\n      tag_230\n      jumpi\n      0x00\n      dup1\n      revert\n    tag_230:\n      pop\n      gas\n      staticcall\n      iszero\n      dup1\n      iszero\n      tag_232\n      jumpi\n      returndatasize\n      0x00\n      dup1\n      returndatacopy\n      revert(0x00, returndatasize)\n    tag_232:\n      pop\n      pop\n      pop\n      pop\n      mload(0x40)\n      returndatasize\n      0x20\n      dup2\n      lt\n      iszero\n      tag_233\n      jumpi\n      0x00\n      dup1\n      revert\n    tag_233:\n      pop\n      mload\n      swap1\n      pop\n      dup1\n        /* \"CoreContracts/kalyswap-periphery/KalyswapBridgeMigrationRouter_flattened.sol\":26811:26832  amount.mul(reserves0) */\n      tag_234\n        /* \"CoreContracts/kalyswap-periphery/KalyswapBridgeMigrationRouter_flattened.sol\":26811:26817  amount */\n      dup8\n        /* \"CoreContracts/kalyswap-periphery/KalyswapBridgeMigrationRouter_flattened.sol\":26811:26832  amount.mul(reserves0) */\n      0xffffffffffffffffffffffffffff\n      dup7\n      and\n        /* \"CoreContracts/kalyswap-periphery/KalyswapBridgeMigrationRouter_flattened.sol\":26811:26821  amount.mul */\n      tag_235\n        /* \"CoreContracts/kalyswap-periphery/KalyswapBridgeMigrationRouter_flattened.sol\":26811:26832  amount.mul(reserves0) */\n      jump\t// in\n    tag_234:\n        /* \"CoreContracts/kalyswap-periphery/KalyswapBridgeMigrationRouter_flattened.sol\":26811:26846  amount.mul(reserves0) / totalSupply */\n      dup2\n      tag_236\n      jumpi\n      invalid\n    tag_236:\n      div\n      swap5\n      pop\n        /* \"CoreContracts/kalyswap-periphery/KalyswapBridgeMigrationRouter_flattened.sol\":26890:26901  totalSupply */\n      dup1\n        /* \"CoreContracts/kalyswap-periphery/KalyswapBridgeMigrationRouter_flattened.sol\":26866:26887  amount.mul(reserves1) */\n      tag_237\n        /* \"CoreContracts/kalyswap-periphery/KalyswapBridgeMigrationRouter_flattened.sol\":26866:26872  amount */\n      dup8\n        /* \"CoreContracts/kalyswap-periphery/KalyswapBridgeMigrationRouter_flattened.sol\":26866:26887  amount.mul(reserves1) */\n      0xffffffffffffffffffffffffffff\n      dup6\n      and\n        /* \"CoreContracts/kalyswap-periphery/KalyswapBridgeMigrationRouter_flattened.sol\":26866:26876  amount.mul */\n      tag_235\n        /* \"CoreContracts/kalyswap-periphery/KalyswapBridgeMigrationRouter_flattened.sol\":26866:26887  amount.mul(reserves1) */\n      jump\t// in\n    tag_237:\n        /* \"CoreContracts/kalyswap-periphery/KalyswapBridgeMigrationRouter_flattened.sol\":26866:26901  amount.mul(reserves1) / totalSupply */\n      dup2\n      tag_238\n      jumpi\n      invalid\n    tag_238:\n      div\n        /* \"CoreContracts/kalyswap-periphery/KalyswapBridgeMigrationRouter_flattened.sol\":26856:26901  amount1 = amount.mul(reserves1) / totalSupply */\n      swap4\n      pop\n        /* \"CoreContracts/kalyswap-periphery/KalyswapBridgeMigrationRouter_flattened.sol\":26509:26908  function _calculateRescueLiquidity(address pairAddress, uint amount) internal view returns (uint amount0, uint amount1) {... */\n      pop\n      pop\n      pop\n      swap3\n      pop\n      swap3\n      swap1\n      pop\n      jump\t// out\n        /* \"CoreContracts/kalyswap-periphery/KalyswapBridgeMigrationRouter_flattened.sol\":5575:5890  function quote(uint amountA, uint reserveA, uint reserveB) internal pure returns (uint amountB) {... */\n    tag_104:\n        /* \"CoreContracts/kalyswap-periphery/KalyswapBridgeMigrationRouter_flattened.sol\":5657:5669  uint amountB */\n      0x00\n        /* \"CoreContracts/kalyswap-periphery/KalyswapBridgeMigrationRouter_flattened.sol\":5699:5700  0 */\n      dup1\n        /* \"CoreContracts/kalyswap-periphery/KalyswapBridgeMigrationRouter_flattened.sol\":5689:5696  amountA */\n      dup5\n        /* \"CoreContracts/kalyswap-periphery/KalyswapBridgeMigrationRouter_flattened.sol\":5689:5700  amountA > 0 */\n      gt\n        /* \"CoreContracts/kalyswap-periphery/KalyswapBridgeMigrationRouter_flattened.sol\":5681:5741  require(amountA > 0, 'KalyswapLibrary: INSUFFICIENT_AMOUNT') */\n      tag_240\n      jumpi\n      mload(0x40)\n      shl(0xe5, 0x461bcd)\n      dup2\n      mstore\n      0x04\n      add\n      dup1\n      dup1\n      0x20\n      add\n      dup3\n      dup2\n      sub\n      dup3\n      mstore\n      0x24\n      dup2\n      mstore\n      0x20\n      add\n      dup1\n      data_78840e091b36f1ae3c2e726985d3fca034feef7c212a1c9737acba643adee0ed\n      0x24\n      swap2\n      codecopy\n      0x40\n      add\n      swap2\n      pop\n      pop\n      mload(0x40)\n      dup1\n      swap2\n      sub\n      swap1\n      revert\n    tag_240:\n        /* \"CoreContracts/kalyswap-periphery/KalyswapBridgeMigrationRouter_flattened.sol\":5770:5771  0 */\n      0x00\n        /* \"CoreContracts/kalyswap-periphery/KalyswapBridgeMigrationRouter_flattened.sol\":5759:5767  reserveA */\n      dup4\n        /* \"CoreContracts/kalyswap-periphery/KalyswapBridgeMigrationRouter_flattened.sol\":5759:5771  reserveA > 0 */\n      gt\n        /* \"CoreContracts/kalyswap-periphery/KalyswapBridgeMigrationRouter_flattened.sol\":5759:5787  reserveA > 0 && reserveB > 0 */\n      dup1\n      iszero\n      tag_241\n      jumpi\n      pop\n        /* \"CoreContracts/kalyswap-periphery/KalyswapBridgeMigrationRouter_flattened.sol\":5786:5787  0 */\n      0x00\n        /* \"CoreContracts/kalyswap-periphery/KalyswapBridgeMigrationRouter_flattened.sol\":5775:5783  reserveB */\n      dup3\n        /* \"CoreContracts/kalyswap-periphery/KalyswapBridgeMigrationRouter_flattened.sol\":5775:5787  reserveB > 0 */\n      gt\n        /* \"CoreContracts/kalyswap-periphery/KalyswapBridgeMigrationRouter_flattened.sol\":5759:5787  reserveA > 0 && reserveB > 0 */\n    tag_241:\n        /* \"CoreContracts/kalyswap-periphery/KalyswapBridgeMigrationRouter_flattened.sol\":5751:5831  require(reserveA > 0 && reserveB > 0, 'KalyswapLibrary: INSUFFICIENT_LIQUIDITY') */\n      tag_242\n      jumpi\n      mload(0x40)\n      shl(0xe5, 0x461bcd)\n      dup2\n      mstore\n      0x04\n      add\n      dup1\n      dup1\n      0x20\n      add\n      dup3\n      dup2\n      sub\n      dup3\n      mstore\n      0x27\n      dup2\n      mstore\n      0x20\n      add\n      dup1\n      data_9074bfdb993f0f76350cad6ff16b034dab298eea08ad462e08506031f49a76e1\n      0x27\n      swap2\n      codecopy\n      0x40\n      add\n      swap2\n      pop\n      pop\n      mload(0x40)\n      dup1\n      swap2\n      sub\n      swap1\n      revert\n    tag_242:\n        /* \"CoreContracts/kalyswap-periphery/KalyswapBridgeMigrationRouter_flattened.sol\":5875:5883  reserveA */\n      dup3\n        /* \"CoreContracts/kalyswap-periphery/KalyswapBridgeMigrationRouter_flattened.sol\":5851:5872  amountA.mul(reserveB) */\n      tag_243\n        /* \"CoreContracts/kalyswap-periphery/KalyswapBridgeMigrationRouter_flattened.sol\":5851:5858  amountA */\n      dup6\n        /* \"CoreContracts/kalyswap-periphery/KalyswapBridgeMigrationRouter_flattened.sol\":5863:5871  reserveB */\n      dup5\n        /* \"CoreContracts/kalyswap-periphery/KalyswapBridgeMigrationRouter_flattened.sol\":5851:5862  amountA.mul */\n      tag_235\n        /* \"CoreContracts/kalyswap-periphery/KalyswapBridgeMigrationRouter_flattened.sol\":5851:5872  amountA.mul(reserveB) */\n      jump\t// in\n    tag_243:\n        /* \"CoreContracts/kalyswap-periphery/KalyswapBridgeMigrationRouter_flattened.sol\":5851:5883  amountA.mul(reserveB) / reserveA */\n      dup2\n      tag_244\n      jumpi\n      invalid\n    tag_244:\n      div\n      swap5\n        /* \"CoreContracts/kalyswap-periphery/KalyswapBridgeMigrationRouter_flattened.sol\":5575:5890  function quote(uint amountA, uint reserveA, uint reserveB) internal pure returns (uint amountB) {... */\n      swap4\n      pop\n      pop\n      pop\n      pop\n      jump\t// out\n        /* \"CoreContracts/kalyswap-periphery/KalyswapBridgeMigrationRouter_flattened.sol\":10298:10737  function safeTransferFrom(... */\n    tag_119:\n        /* \"CoreContracts/kalyswap-periphery/KalyswapBridgeMigrationRouter_flattened.sol\":10562:10613  abi.encodeWithSelector(0x23b872dd, from, to, value) */\n      0x40\n      dup1\n      mload\n      sub(shl(0xa0, 0x01), 0x01)\n      dup6\n      dup2\n      and\n      0x24\n      dup4\n      add\n      mstore\n      dup5\n      dup2\n      and\n      0x44\n      dup4\n      add\n      mstore\n      0x64\n      dup1\n      dup4\n      add\n      dup6\n      swap1\n      mstore\n      dup4\n      mload\n      dup1\n      dup5\n      sub\n      swap1\n      swap2\n      add\n      dup2\n      mstore\n      0x84\n      swap1\n      swap3\n      add\n      dup4\n      mstore\n      0x20\n      dup3\n      add\n      dup1\n      mload\n      0xffffffffffffffffffffffffffffffffffffffffffffffffffffffff\n      and\n      0x23b872dd00000000000000000000000000000000000000000000000000000000\n      or\n      dup2\n      mstore\n        /* \"CoreContracts/kalyswap-periphery/KalyswapBridgeMigrationRouter_flattened.sol\":10551:10614  token.call(abi.encodeWithSelector(0x23b872dd, from, to, value)) */\n      swap3\n      mload\n      dup3\n      mload\n        /* \"CoreContracts/kalyswap-periphery/KalyswapBridgeMigrationRouter_flattened.sol\":10516:10528  bool success */\n      0x00\n      swap5\n      dup6\n      swap5\n        /* \"CoreContracts/kalyswap-periphery/KalyswapBridgeMigrationRouter_flattened.sol\":10551:10561  token.call */\n      swap4\n      dup11\n      and\n      swap4\n        /* \"CoreContracts/kalyswap-periphery/KalyswapBridgeMigrationRouter_flattened.sol\":10562:10613  abi.encodeWithSelector(0x23b872dd, from, to, value) */\n      swap3\n        /* \"CoreContracts/kalyswap-periphery/KalyswapBridgeMigrationRouter_flattened.sol\":10551:10614  token.call(abi.encodeWithSelector(0x23b872dd, from, to, value)) */\n      swap2\n      dup3\n      swap2\n        /* \"CoreContracts/kalyswap-periphery/KalyswapBridgeMigrationRouter_flattened.sol\":10562:10613  abi.encodeWithSelector(0x23b872dd, from, to, value) */\n      swap1\n        /* \"CoreContracts/kalyswap-periphery/KalyswapBridgeMigrationRouter_flattened.sol\":10551:10614  token.call(abi.encodeWithSelector(0x23b872dd, from, to, value)) */\n      dup1\n      dup4\n        /* \"CoreContracts/kalyswap-periphery/KalyswapBridgeMigrationRouter_flattened.sol\":10562:10613  abi.encodeWithSelector(0x23b872dd, from, to, value) */\n      dup4\n        /* \"CoreContracts/kalyswap-periphery/KalyswapBridgeMigrationRouter_flattened.sol\":10551:10614  token.call(abi.encodeWithSelector(0x23b872dd, from, to, value)) */\n    tag_246:\n      0x20\n      dup4\n      lt\n      tag_248\n      jumpi\n      dup1\n      mload\n      dup3\n      mstore\n      not(0x1f)\n      swap1\n      swap3\n      add\n      swap2\n      0x20\n      swap2\n      dup3\n      add\n      swap2\n      add\n      jump(tag_246)\n    tag_248:\n      0x01\n      dup4\n      0x20\n      sub\n      0x0100\n      exp\n      sub\n      dup1\n      not\n      dup3\n      mload\n      and\n      dup2\n      dup5\n      mload\n      and\n      dup1\n      dup3\n      or\n      dup6\n      mstore\n      pop\n      pop\n      pop\n      pop\n      pop\n      pop\n      swap1\n      pop\n      add\n      swap2\n      pop\n      pop\n      0x00\n      mload(0x40)\n      dup1\n      dup4\n      sub\n      dup2\n      0x00\n      dup7\n      gas\n      call\n      swap2\n      pop\n      pop\n      returndatasize\n      dup1\n      0x00\n      dup2\n      eq\n      tag_251\n      jumpi\n      mload(0x40)\n      swap2\n      pop\n      and(add(returndatasize, 0x3f), not(0x1f))\n      dup3\n      add\n      0x40\n      mstore\n      returndatasize\n      dup3\n      mstore\n      returndatasize\n      0x00\n      0x20\n      dup5\n      add\n      returndatacopy\n      jump(tag_250)\n    tag_251:\n      0x60\n      swap2\n      pop\n    tag_250:\n      pop\n        /* \"CoreContracts/kalyswap-periphery/KalyswapBridgeMigrationRouter_flattened.sol\":10515:10614  (bool success, bytes memory data) = token.call(abi.encodeWithSelector(0x23b872dd, from, to, value)) */\n      swap2\n      pop\n      swap2\n      pop\n        /* \"CoreContracts/kalyswap-periphery/KalyswapBridgeMigrationRouter_flattened.sol\":10632:10639  success */\n      dup2\n        /* \"CoreContracts/kalyswap-periphery/KalyswapBridgeMigrationRouter_flattened.sol\":10632:10689  success && (data.length == 0 || abi.decode(data, (bool))) */\n      dup1\n      iszero\n      tag_253\n      jumpi\n      pop\n        /* \"CoreContracts/kalyswap-periphery/KalyswapBridgeMigrationRouter_flattened.sol\":10644:10655  data.length */\n      dup1\n      mload\n        /* \"CoreContracts/kalyswap-periphery/KalyswapBridgeMigrationRouter_flattened.sol\":10644:10660  data.length == 0 */\n      iszero\n      dup1\n        /* \"CoreContracts/kalyswap-periphery/KalyswapBridgeMigrationRouter_flattened.sol\":10644:10688  data.length == 0 || abi.decode(data, (bool)) */\n      tag_253\n      jumpi\n      pop\n        /* \"CoreContracts/kalyswap-periphery/KalyswapBridgeMigrationRouter_flattened.sol\":10675:10679  data */\n      dup1\n        /* \"CoreContracts/kalyswap-periphery/KalyswapBridgeMigrationRouter_flattened.sol\":10664:10688  abi.decode(data, (bool)) */\n      dup1\n      0x20\n      add\n      swap1\n      mload\n      0x20\n      dup2\n      lt\n      iszero\n      tag_254\n      jumpi\n      0x00\n      dup1\n      revert\n    tag_254:\n      pop\n      mload\n        /* \"CoreContracts/kalyswap-periphery/KalyswapBridgeMigrationRouter_flattened.sol\":10644:10688  data.length == 0 || abi.decode(data, (bool)) */\n    tag_253:\n        /* \"CoreContracts/kalyswap-periphery/KalyswapBridgeMigrationRouter_flattened.sol\":10624:10730  require(success && (data.length == 0 || abi.decode(data, (bool))), 'TransferHelper: TRANSFER_FROM_FAILED') */\n      tag_55\n      jumpi\n      mload(0x40)\n      shl(0xe5, 0x461bcd)\n      dup2\n      mstore\n      0x04\n      add\n      dup1\n      dup1\n      0x20\n      add\n      dup3\n      dup2\n      sub\n      dup3\n      mstore\n      0x24\n      dup2\n      mstore\n      0x20\n      add\n      dup1\n      data_eb2904bf3c0c9ae693b53eb0188a703c388998a9c405b7965ca678cef9a51d18\n      0x24\n      swap2\n      codecopy\n      0x40\n      add\n      swap2\n      pop\n      pop\n      mload(0x40)\n      dup1\n      swap2\n      sub\n      swap1\n      revert\n        /* \"CoreContracts/kalyswap-periphery/KalyswapBridgeMigrationRouter_flattened.sol\":19784:20263  function _migrateToken(... */\n    tag_121:\n      sub(shl(0xa0, 0x01), 0x01)\n        /* \"CoreContracts/kalyswap-periphery/KalyswapBridgeMigrationRouter_flattened.sol\":19891:19917  tokenAddress != address(0) */\n      dup3\n      and\n        /* \"CoreContracts/kalyswap-periphery/KalyswapBridgeMigrationRouter_flattened.sol\":19883:19981  require(tokenAddress != address(0), \"KalyswapBridgeMigrationRouter: tokenAddress 0 not supported\") */\n      tag_257\n      jumpi\n      mload(0x40)\n      shl(0xe5, 0x461bcd)\n      dup2\n      mstore\n      0x04\n      add\n      dup1\n      dup1\n      0x20\n      add\n      dup3\n      dup2\n      sub\n      dup3\n      mstore\n      0x3b\n      dup2\n      mstore\n      0x20\n      add\n      dup1\n      data_9d984e50f0a68e3b3b3f36266bdb577070edfb604f683a0d41f604c350418d44\n      0x3b\n      swap2\n      codecopy\n      0x40\n      add\n      swap2\n      pop\n      pop\n      mload(0x40)\n      dup1\n      swap2\n      sub\n      swap1\n      revert\n    tag_257:\n      sub(shl(0xa0, 0x01), 0x01)\n        /* \"CoreContracts/kalyswap-periphery/KalyswapBridgeMigrationRouter_flattened.sol\":20004:20032  bridgeMigrator[tokenAddress] */\n      dup1\n      dup4\n      and\n      0x00\n      dup2\n      dup2\n      mstore\n        /* \"CoreContracts/kalyswap-periphery/KalyswapBridgeMigrationRouter_flattened.sol\":20004:20018  bridgeMigrator */\n      0x01\n        /* \"CoreContracts/kalyswap-periphery/KalyswapBridgeMigrationRouter_flattened.sol\":20004:20032  bridgeMigrator[tokenAddress] */\n      0x20\n      mstore\n      0x40\n      dup1\n      dup3\n      keccak256\n      sload\n        /* \"CoreContracts/kalyswap-periphery/KalyswapBridgeMigrationRouter_flattened.sol\":19991:20060  IBridgeToken(bridgeMigrator[tokenAddress]).swap(tokenAddress, amount) */\n      dup2\n      mload\n      0xd004f0f700000000000000000000000000000000000000000000000000000000\n      dup2\n      mstore\n      0x04\n      dup2\n      add\n      swap5\n      swap1\n      swap5\n      mstore\n      0x24\n      dup5\n      add\n      dup7\n      swap1\n      mstore\n      swap1\n      mload\n        /* \"CoreContracts/kalyswap-periphery/KalyswapBridgeMigrationRouter_flattened.sol\":20004:20032  bridgeMigrator[tokenAddress] */\n      swap4\n      and\n      swap3\n        /* \"CoreContracts/kalyswap-periphery/KalyswapBridgeMigrationRouter_flattened.sol\":19991:20038  IBridgeToken(bridgeMigrator[tokenAddress]).swap */\n      0xd004f0f7\n      swap3\n        /* \"CoreContracts/kalyswap-periphery/KalyswapBridgeMigrationRouter_flattened.sol\":19991:20060  IBridgeToken(bridgeMigrator[tokenAddress]).swap(tokenAddress, amount) */\n      0x44\n      dup1\n      dup3\n      add\n      swap4\n        /* \"CoreContracts/kalyswap-periphery/KalyswapBridgeMigrationRouter_flattened.sol\":20004:20032  bridgeMigrator[tokenAddress] */\n      swap3\n        /* \"CoreContracts/kalyswap-periphery/KalyswapBridgeMigrationRouter_flattened.sol\":19991:20060  IBridgeToken(bridgeMigrator[tokenAddress]).swap(tokenAddress, amount) */\n      swap2\n      dup3\n      swap1\n      sub\n      add\n      dup2\n        /* \"CoreContracts/kalyswap-periphery/KalyswapBridgeMigrationRouter_flattened.sol\":20004:20032  bridgeMigrator[tokenAddress] */\n      dup4\n      dup8\n        /* \"CoreContracts/kalyswap-periphery/KalyswapBridgeMigrationRouter_flattened.sol\":19991:20060  IBridgeToken(bridgeMigrator[tokenAddress]).swap(tokenAddress, amount) */\n      dup1\n      extcodesize\n      iszero\n      dup1\n      iszero\n      tag_258\n      jumpi\n      0x00\n      dup1\n      revert\n    tag_258:\n      pop\n      gas\n      call\n      iszero\n      dup1\n      iszero\n      tag_260\n      jumpi\n      returndatasize\n      0x00\n      dup1\n      returndatacopy\n      revert(0x00, returndatasize)\n    tag_260:\n      pop\n      pop\n      pop\n      sub(shl(0xa0, 0x01), 0x01)\n        /* \"CoreContracts/kalyswap-periphery/KalyswapBridgeMigrationRouter_flattened.sol\":20104:20132  bridgeMigrator[tokenAddress] */\n      dup1\n      dup5\n      and\n      0x00\n      swap1\n      dup2\n      mstore\n        /* \"CoreContracts/kalyswap-periphery/KalyswapBridgeMigrationRouter_flattened.sol\":20104:20118  bridgeMigrator */\n      0x01\n        /* \"CoreContracts/kalyswap-periphery/KalyswapBridgeMigrationRouter_flattened.sol\":20104:20132  bridgeMigrator[tokenAddress] */\n      0x20\n      swap1\n      dup2\n      mstore\n      0x40\n      swap2\n      dup3\n      swap1\n      keccak256\n      sload\n        /* \"CoreContracts/kalyswap-periphery/KalyswapBridgeMigrationRouter_flattened.sol\":20091:20158  IBridgeToken(bridgeMigrator[tokenAddress]).balanceOf(address(this)) */\n      dup3\n      mload\n      0x70a0823100000000000000000000000000000000000000000000000000000000\n      dup2\n      mstore\n        /* \"CoreContracts/kalyswap-periphery/KalyswapBridgeMigrationRouter_flattened.sol\":20152:20156  this */\n      address\n        /* \"CoreContracts/kalyswap-periphery/KalyswapBridgeMigrationRouter_flattened.sol\":20091:20158  IBridgeToken(bridgeMigrator[tokenAddress]).balanceOf(address(this)) */\n      0x04\n      dup3\n      add\n      mstore\n      swap3\n      mload\n        /* \"CoreContracts/kalyswap-periphery/KalyswapBridgeMigrationRouter_flattened.sol\":20162:20168  amount */\n      dup7\n      swap6\n      pop\n        /* \"CoreContracts/kalyswap-periphery/KalyswapBridgeMigrationRouter_flattened.sol\":20104:20132  bridgeMigrator[tokenAddress] */\n      swap4\n      and\n      swap3\n        /* \"CoreContracts/kalyswap-periphery/KalyswapBridgeMigrationRouter_flattened.sol\":20091:20143  IBridgeToken(bridgeMigrator[tokenAddress]).balanceOf */\n      0x70a08231\n      swap3\n        /* \"CoreContracts/kalyswap-periphery/KalyswapBridgeMigrationRouter_flattened.sol\":20091:20158  IBridgeToken(bridgeMigrator[tokenAddress]).balanceOf(address(this)) */\n      0x24\n      dup1\n      dup3\n      add\n      swap4\n        /* \"CoreContracts/kalyswap-periphery/KalyswapBridgeMigrationRouter_flattened.sol\":20104:20132  bridgeMigrator[tokenAddress] */\n      swap3\n        /* \"CoreContracts/kalyswap-periphery/KalyswapBridgeMigrationRouter_flattened.sol\":20091:20158  IBridgeToken(bridgeMigrator[tokenAddress]).balanceOf(address(this)) */\n      swap2\n      dup3\n      swap1\n      sub\n      add\n      dup2\n        /* \"CoreContracts/kalyswap-periphery/KalyswapBridgeMigrationRouter_flattened.sol\":20104:20132  bridgeMigrator[tokenAddress] */\n      dup7\n        /* \"CoreContracts/kalyswap-periphery/KalyswapBridgeMigrationRouter_flattened.sol\":20091:20158  IBridgeToken(bridgeMigrator[tokenAddress]).balanceOf(address(this)) */\n      dup1\n      extcodesize\n      iszero\n      dup1\n      iszero\n      tag_261\n      jumpi\n      0x00\n      dup1\n      revert\n    tag_261:\n      pop\n      gas\n      staticcall\n      iszero\n      dup1\n      iszero\n      tag_263\n      jumpi\n      returndatasize\n      0x00\n      dup1\n      returndatacopy\n      revert(0x00, returndatasize)\n    tag_263:\n      pop\n      pop\n      pop\n      pop\n      mload(0x40)\n      returndatasize\n      0x20\n      dup2\n      lt\n      iszero\n      tag_264\n      jumpi\n      0x00\n      dup1\n      revert\n    tag_264:\n      pop\n      mload\n        /* \"CoreContracts/kalyswap-periphery/KalyswapBridgeMigrationRouter_flattened.sol\":20091:20168  IBridgeToken(bridgeMigrator[tokenAddress]).balanceOf(address(this)) == amount */\n      eq\n        /* \"CoreContracts/kalyswap-periphery/KalyswapBridgeMigrationRouter_flattened.sol\":20070:20256  require(... */\n      tag_265\n      jumpi\n      mload(0x40)\n      shl(0xe5, 0x461bcd)\n      dup2\n      mstore\n      0x04\n      add\n      dup1\n      dup1\n      0x20\n      add\n      dup3\n      dup2\n      sub\n      dup3\n      mstore\n      0x3e\n      dup2\n      mstore\n      0x20\n      add\n      dup1\n      data_20f37cd99da92a5efeb292e424950a5326eaec74b790503092d9fc76b12f685f\n      0x3e\n      swap2\n      codecopy\n      0x40\n      add\n      swap2\n      pop\n      pop\n      mload(0x40)\n      dup1\n      swap2\n      sub\n      swap1\n      revert\n    tag_265:\n        /* \"CoreContracts/kalyswap-periphery/KalyswapBridgeMigrationRouter_flattened.sol\":19784:20263  function _migrateToken(... */\n      pop\n      pop\n      jump\t// out\n        /* \"CoreContracts/kalyswap-periphery/KalyswapBridgeMigrationRouter_flattened.sol\":9902:10292  function safeTransfer(... */\n    tag_123:\n        /* \"CoreContracts/kalyswap-periphery/KalyswapBridgeMigrationRouter_flattened.sol\":10128:10173  abi.encodeWithSelector(0xa9059cbb, to, value) */\n      0x40\n      dup1\n      mload\n      sub(shl(0xa0, 0x01), 0x01)\n      dup5\n      dup2\n      and\n      0x24\n      dup4\n      add\n      mstore\n      0x44\n      dup1\n      dup4\n      add\n      dup6\n      swap1\n      mstore\n      dup4\n      mload\n      dup1\n      dup5\n      sub\n      swap1\n      swap2\n      add\n      dup2\n      mstore\n      0x64\n      swap1\n      swap3\n      add\n      dup4\n      mstore\n      0x20\n      dup3\n      add\n      dup1\n      mload\n      0xffffffffffffffffffffffffffffffffffffffffffffffffffffffff\n      and\n      0xa9059cbb00000000000000000000000000000000000000000000000000000000\n      or\n      dup2\n      mstore\n        /* \"CoreContracts/kalyswap-periphery/KalyswapBridgeMigrationRouter_flattened.sol\":10117:10174  token.call(abi.encodeWithSelector(0xa9059cbb, to, value)) */\n      swap3\n      mload\n      dup3\n      mload\n        /* \"CoreContracts/kalyswap-periphery/KalyswapBridgeMigrationRouter_flattened.sol\":10082:10094  bool success */\n      0x00\n      swap5\n      dup6\n      swap5\n        /* \"CoreContracts/kalyswap-periphery/KalyswapBridgeMigrationRouter_flattened.sol\":10117:10127  token.call */\n      swap4\n      dup10\n      and\n      swap4\n        /* \"CoreContracts/kalyswap-periphery/KalyswapBridgeMigrationRouter_flattened.sol\":10128:10173  abi.encodeWithSelector(0xa9059cbb, to, value) */\n      swap3\n        /* \"CoreContracts/kalyswap-periphery/KalyswapBridgeMigrationRouter_flattened.sol\":10117:10174  token.call(abi.encodeWithSelector(0xa9059cbb, to, value)) */\n      swap2\n      dup3\n      swap2\n        /* \"CoreContracts/kalyswap-periphery/KalyswapBridgeMigrationRouter_flattened.sol\":10128:10173  abi.encodeWithSelector(0xa9059cbb, to, value) */\n      swap1\n        /* \"CoreContracts/kalyswap-periphery/KalyswapBridgeMigrationRouter_flattened.sol\":10117:10174  token.call(abi.encodeWithSelector(0xa9059cbb, to, value)) */\n      dup1\n      dup4\n        /* \"CoreContracts/kalyswap-periphery/KalyswapBridgeMigrationRouter_flattened.sol\":10128:10173  abi.encodeWithSelector(0xa9059cbb, to, value) */\n      dup4\n        /* \"CoreContracts/kalyswap-periphery/KalyswapBridgeMigrationRouter_flattened.sol\":10117:10174  token.call(abi.encodeWithSelector(0xa9059cbb, to, value)) */\n    tag_267:\n      0x20\n      dup4\n      lt\n      tag_269\n      jumpi\n      dup1\n      mload\n      dup3\n      mstore\n      not(0x1f)\n      swap1\n      swap3\n      add\n      swap2\n      0x20\n      swap2\n      dup3\n      add\n      swap2\n      add\n      jump(tag_267)\n    tag_269:\n      0x01\n      dup4\n      0x20\n      sub\n      0x0100\n      exp\n      sub\n      dup1\n      not\n      dup3\n      mload\n      and\n      dup2\n      dup5\n      mload\n      and\n      dup1\n      dup3\n      or\n      dup6\n      mstore\n      pop\n      pop\n      pop\n      pop\n      pop\n      pop\n      swap1\n      pop\n      add\n      swap2\n      pop\n      pop\n      0x00\n      mload(0x40)\n      dup1\n      dup4\n      sub\n      dup2\n      0x00\n      dup7\n      gas\n      call\n      swap2\n      pop\n      pop\n      returndatasize\n      dup1\n      0x00\n      dup2\n      eq\n      tag_272\n      jumpi\n      mload(0x40)\n      swap2\n      pop\n      and(add(returndatasize, 0x3f), not(0x1f))\n      dup3\n      add\n      0x40\n      mstore\n      returndatasize\n      dup3\n      mstore\n      returndatasize\n      0x00\n      0x20\n      dup5\n      add\n      returndatacopy\n      jump(tag_271)\n    tag_272:\n      0x60\n      swap2\n      pop\n    tag_271:\n      pop\n        /* \"CoreContracts/kalyswap-periphery/KalyswapBridgeMigrationRouter_flattened.sol\":10081:10174  (bool success, bytes memory data) = token.call(abi.encodeWithSelector(0xa9059cbb, to, value)) */\n      swap2\n      pop\n      swap2\n      pop\n        /* \"CoreContracts/kalyswap-periphery/KalyswapBridgeMigrationRouter_flattened.sol\":10192:10199  success */\n      dup2\n        /* \"CoreContracts/kalyswap-periphery/KalyswapBridgeMigrationRouter_flattened.sol\":10192:10249  success && (data.length == 0 || abi.decode(data, (bool))) */\n      dup1\n      iszero\n      tag_274\n      jumpi\n      pop\n        /* \"CoreContracts/kalyswap-periphery/KalyswapBridgeMigrationRouter_flattened.sol\":10204:10215  data.length */\n      dup1\n      mload\n        /* \"CoreContracts/kalyswap-periphery/KalyswapBridgeMigrationRouter_flattened.sol\":10204:10220  data.length == 0 */\n      iszero\n      dup1\n        /* \"CoreContracts/kalyswap-periphery/KalyswapBridgeMigrationRouter_flattened.sol\":10204:10248  data.length == 0 || abi.decode(data, (bool)) */\n      tag_274\n      jumpi\n      pop\n        /* \"CoreContracts/kalyswap-periphery/KalyswapBridgeMigrationRouter_flattened.sol\":10235:10239  data */\n      dup1\n        /* \"CoreContracts/kalyswap-periphery/KalyswapBridgeMigrationRouter_flattened.sol\":10224:10248  abi.decode(data, (bool)) */\n      dup1\n      0x20\n      add\n      swap1\n      mload\n      0x20\n      dup2\n      lt\n      iszero\n      tag_275\n      jumpi\n      0x00\n      dup1\n      revert\n    tag_275:\n      pop\n      mload\n        /* \"CoreContracts/kalyswap-periphery/KalyswapBridgeMigrationRouter_flattened.sol\":10204:10248  data.length == 0 || abi.decode(data, (bool)) */\n    tag_274:\n        /* \"CoreContracts/kalyswap-periphery/KalyswapBridgeMigrationRouter_flattened.sol\":10184:10285  require(success && (data.length == 0 || abi.decode(data, (bool))), 'TransferHelper: TRANSFER_FAILED') */\n      tag_122\n      jumpi\n      0x40\n      dup1\n      mload\n      shl(0xe5, 0x461bcd)\n      dup2\n      mstore\n      0x20\n      0x04\n      dup3\n      add\n      mstore\n      0x1f\n      0x24\n      dup3\n      add\n      mstore\n      0x5472616e7366657248656c7065723a205452414e534645525f4641494c454400\n      0x44\n      dup3\n      add\n      mstore\n      swap1\n      mload\n      swap1\n      dup2\n      swap1\n      sub\n      0x64\n      add\n      swap1\n      revert\n        /* \"CoreContracts/kalyswap-periphery/KalyswapBridgeMigrationRouter_flattened.sol\":18637:19444  function _arePairsCompatible(address pairA, address pairB) internal view {... */\n    tag_134:\n      sub(shl(0xa0, 0x01), 0x01)\n        /* \"CoreContracts/kalyswap-periphery/KalyswapBridgeMigrationRouter_flattened.sol\":18728:18747  pairA != address(0) */\n      dup3\n      and\n        /* \"CoreContracts/kalyswap-periphery/KalyswapBridgeMigrationRouter_flattened.sol\":18720:18810  require(pairA != address(0), \"KalyswapBridgeMigrationRouter: liquidityPairFrom address 0\") */\n      tag_278\n      jumpi\n      mload(0x40)\n      shl(0xe5, 0x461bcd)\n      dup2\n      mstore\n      0x04\n      add\n      dup1\n      dup1\n      0x20\n      add\n      dup3\n      dup2\n      sub\n      dup3\n      mstore\n      0x3a\n      dup2\n      mstore\n      0x20\n      add\n      dup1\n      data_2779eff898f898effcf0aa56dae8e93db6d4db04eea06f78f89cd9d6340eca68\n      0x3a\n      swap2\n      codecopy\n      0x40\n      add\n      swap2\n      pop\n      pop\n      mload(0x40)\n      dup1\n      swap2\n      sub\n      swap1\n      revert\n    tag_278:\n      sub(shl(0xa0, 0x01), 0x01)\n        /* \"CoreContracts/kalyswap-periphery/KalyswapBridgeMigrationRouter_flattened.sol\":18828:18847  pairA != address(0) */\n      dup3\n      and\n        /* \"CoreContracts/kalyswap-periphery/KalyswapBridgeMigrationRouter_flattened.sol\":18820:18908  require(pairA != address(0), \"KalyswapBridgeMigrationRouter: liquidityPairTo address 0\") */\n      tag_279\n      jumpi\n      mload(0x40)\n      shl(0xe5, 0x461bcd)\n      dup2\n      mstore\n      0x04\n      add\n      dup1\n      dup1\n      0x20\n      add\n      dup3\n      dup2\n      sub\n      dup3\n      mstore\n      0x38\n      dup2\n      mstore\n      0x20\n      add\n      dup1\n      data_d3644c735b72355dd1872214f8cef876b6ab448ac1dcde51a78aae8776c79ea0\n      0x38\n      swap2\n      codecopy\n      0x40\n      add\n      swap2\n      pop\n      pop\n      mload(0x40)\n      dup1\n      swap2\n      sub\n      swap1\n      revert\n    tag_279:\n        /* \"CoreContracts/kalyswap-periphery/KalyswapBridgeMigrationRouter_flattened.sol\":18935:18940  pairB */\n      dup1\n      sub(shl(0xa0, 0x01), 0x01)\n        /* \"CoreContracts/kalyswap-periphery/KalyswapBridgeMigrationRouter_flattened.sol\":18926:18940  pairA != pairB */\n      and\n        /* \"CoreContracts/kalyswap-periphery/KalyswapBridgeMigrationRouter_flattened.sol\":18926:18931  pairA */\n      dup3\n      sub(shl(0xa0, 0x01), 0x01)\n        /* \"CoreContracts/kalyswap-periphery/KalyswapBridgeMigrationRouter_flattened.sol\":18926:18940  pairA != pairB */\n      and\n      eq\n      iszero\n        /* \"CoreContracts/kalyswap-periphery/KalyswapBridgeMigrationRouter_flattened.sol\":18918:19016  require(pairA != pairB, \"KalyswapBridgeMigrationRouter: Cant convert to the same liquidity pairs\") */\n      tag_280\n      jumpi\n      mload(0x40)\n      shl(0xe5, 0x461bcd)\n      dup2\n      mstore\n      0x04\n      add\n      dup1\n      dup1\n      0x20\n      add\n      dup3\n      dup2\n      sub\n      dup3\n      mstore\n      0x47\n      dup2\n      mstore\n      0x20\n      add\n      dup1\n      data_2386eadbfa1ec37b2bd48e593f37c43c952d063ca4685d6d4e6b987ed53095cd\n      0x47\n      swap2\n      codecopy\n      0x60\n      add\n      swap2\n      pop\n      pop\n      mload(0x40)\n      dup1\n      swap2\n      sub\n      swap1\n      revert\n    tag_280:\n        /* \"CoreContracts/kalyswap-periphery/KalyswapBridgeMigrationRouter_flattened.sol\":19094:19099  pairB */\n      dup1\n      sub(shl(0xa0, 0x01), 0x01)\n        /* \"CoreContracts/kalyswap-periphery/KalyswapBridgeMigrationRouter_flattened.sol\":19080:19107  IKalyswapPair(pairB).token0 */\n      and\n      0x0dfe1681\n        /* \"CoreContracts/kalyswap-periphery/KalyswapBridgeMigrationRouter_flattened.sol\":19080:19109  IKalyswapPair(pairB).token0() */\n      mload(0x40)\n      dup2\n      0xffffffff\n      and\n      0xe0\n      shl\n      dup2\n      mstore\n      0x04\n      add\n      0x20\n      mload(0x40)\n      dup1\n      dup4\n      sub\n      dup2\n      dup7\n      dup1\n      extcodesize\n      iszero\n      dup1\n      iszero\n      tag_281\n      jumpi\n      0x00\n      dup1\n      revert\n    tag_281:\n      pop\n      gas\n      staticcall\n      iszero\n      dup1\n      iszero\n      tag_283\n      jumpi\n      returndatasize\n      0x00\n      dup1\n      returndatacopy\n      revert(0x00, returndatasize)\n    tag_283:\n      pop\n      pop\n      pop\n      pop\n      mload(0x40)\n      returndatasize\n      0x20\n      dup2\n      lt\n      iszero\n      tag_284\n      jumpi\n      0x00\n      dup1\n      revert\n    tag_284:\n      pop\n      mload\n        /* \"CoreContracts/kalyswap-periphery/KalyswapBridgeMigrationRouter_flattened.sol\":19047:19076  IKalyswapPair(pairA).token0() */\n      0x40\n      dup1\n      mload\n      shl(0xe0, 0x0dfe1681)\n      dup2\n      mstore\n      swap1\n      mload\n      sub(shl(0xa0, 0x01), 0x01)\n        /* \"CoreContracts/kalyswap-periphery/KalyswapBridgeMigrationRouter_flattened.sol\":19047:19109  IKalyswapPair(pairA).token0() == IKalyswapPair(pairB).token0() */\n      swap3\n      dup4\n      and\n      swap3\n        /* \"CoreContracts/kalyswap-periphery/KalyswapBridgeMigrationRouter_flattened.sol\":19047:19074  IKalyswapPair(pairA).token0 */\n      dup6\n      and\n      swap2\n      0x0dfe1681\n      swap2\n        /* \"CoreContracts/kalyswap-periphery/KalyswapBridgeMigrationRouter_flattened.sol\":19047:19076  IKalyswapPair(pairA).token0() */\n      0x04\n      dup1\n      dup4\n      add\n      swap3\n        /* \"CoreContracts/kalyswap-periphery/KalyswapBridgeMigrationRouter_flattened.sol\":19080:19109  IKalyswapPair(pairB).token0() */\n      0x20\n      swap3\n        /* \"CoreContracts/kalyswap-periphery/KalyswapBridgeMigrationRouter_flattened.sol\":19047:19076  IKalyswapPair(pairA).token0() */\n      swap2\n      swap1\n      dup3\n      swap1\n      sub\n      add\n      dup2\n        /* \"CoreContracts/kalyswap-periphery/KalyswapBridgeMigrationRouter_flattened.sol\":19047:19074  IKalyswapPair(pairA).token0 */\n      dup7\n        /* \"CoreContracts/kalyswap-periphery/KalyswapBridgeMigrationRouter_flattened.sol\":19047:19076  IKalyswapPair(pairA).token0() */\n      dup1\n      extcodesize\n      iszero\n      dup1\n      iszero\n      tag_285\n      jumpi\n      0x00\n      dup1\n      revert\n    tag_285:\n      pop\n      gas\n      staticcall\n      iszero\n      dup1\n      iszero\n      tag_287\n      jumpi\n      returndatasize\n      0x00\n      dup1\n      returndatacopy\n      revert(0x00, returndatasize)\n    tag_287:\n      pop\n      pop\n      pop\n      pop\n      mload(0x40)\n      returndatasize\n      0x20\n      dup2\n      lt\n      iszero\n      tag_288\n      jumpi\n      0x00\n      dup1\n      revert\n    tag_288:\n      pop\n      mload\n      sub(shl(0xa0, 0x01), 0x01)\n        /* \"CoreContracts/kalyswap-periphery/KalyswapBridgeMigrationRouter_flattened.sol\":19047:19109  IKalyswapPair(pairA).token0() == IKalyswapPair(pairB).token0() */\n      and\n      eq\n      dup1\n        /* \"CoreContracts/kalyswap-periphery/KalyswapBridgeMigrationRouter_flattened.sol\":19047:19187  IKalyswapPair(pairA).token0() == IKalyswapPair(pairB).token0() ||... */\n      tag_289\n      jumpi\n      pop\n        /* \"CoreContracts/kalyswap-periphery/KalyswapBridgeMigrationRouter_flattened.sol\":19172:19177  pairB */\n      dup1\n      sub(shl(0xa0, 0x01), 0x01)\n        /* \"CoreContracts/kalyswap-periphery/KalyswapBridgeMigrationRouter_flattened.sol\":19158:19185  IKalyswapPair(pairB).token1 */\n      and\n      0xd21220a7\n        /* \"CoreContracts/kalyswap-periphery/KalyswapBridgeMigrationRouter_flattened.sol\":19158:19187  IKalyswapPair(pairB).token1() */\n      mload(0x40)\n      dup2\n      0xffffffff\n      and\n      0xe0\n      shl\n      dup2\n      mstore\n      0x04\n      add\n      0x20\n      mload(0x40)\n      dup1\n      dup4\n      sub\n      dup2\n      dup7\n      dup1\n      extcodesize\n      iszero\n      dup1\n      iszero\n      tag_290\n      jumpi\n      0x00\n      dup1\n      revert\n    tag_290:\n      pop\n      gas\n      staticcall\n      iszero\n      dup1\n      iszero\n      tag_292\n      jumpi\n      returndatasize\n      0x00\n      dup1\n      returndatacopy\n      revert(0x00, returndatasize)\n    tag_292:\n      pop\n      pop\n      pop\n      pop\n      mload(0x40)\n      returndatasize\n      0x20\n      dup2\n      lt\n      iszero\n      tag_293\n      jumpi\n      0x00\n      dup1\n      revert\n    tag_293:\n      pop\n      mload\n        /* \"CoreContracts/kalyswap-periphery/KalyswapBridgeMigrationRouter_flattened.sol\":19125:19154  IKalyswapPair(pairA).token0() */\n      0x40\n      dup1\n      mload\n      shl(0xe0, 0x0dfe1681)\n      dup2\n      mstore\n      swap1\n      mload\n      sub(shl(0xa0, 0x01), 0x01)\n        /* \"CoreContracts/kalyswap-periphery/KalyswapBridgeMigrationRouter_flattened.sol\":19125:19187  IKalyswapPair(pairA).token0() == IKalyswapPair(pairB).token1() */\n      swap3\n      dup4\n      and\n      swap3\n        /* \"CoreContracts/kalyswap-periphery/KalyswapBridgeMigrationRouter_flattened.sol\":19125:19152  IKalyswapPair(pairA).token0 */\n      dup6\n      and\n      swap2\n      0x0dfe1681\n      swap2\n        /* \"CoreContracts/kalyswap-periphery/KalyswapBridgeMigrationRouter_flattened.sol\":19125:19154  IKalyswapPair(pairA).token0() */\n      0x04\n      dup1\n      dup4\n      add\n      swap3\n        /* \"CoreContracts/kalyswap-periphery/KalyswapBridgeMigrationRouter_flattened.sol\":19158:19187  IKalyswapPair(pairB).token1() */\n      0x20\n      swap3\n        /* \"CoreContracts/kalyswap-periphery/KalyswapBridgeMigrationRouter_flattened.sol\":19125:19154  IKalyswapPair(pairA).token0() */\n      swap2\n      swap1\n      dup3\n      swap1\n      sub\n      add\n      dup2\n        /* \"CoreContracts/kalyswap-periphery/KalyswapBridgeMigrationRouter_flattened.sol\":19125:19152  IKalyswapPair(pairA).token0 */\n      dup7\n        /* \"CoreContracts/kalyswap-periphery/KalyswapBridgeMigrationRouter_flattened.sol\":19125:19154  IKalyswapPair(pairA).token0() */\n      dup1\n      extcodesize\n      iszero\n      dup1\n      iszero\n      tag_294\n      jumpi\n      0x00\n      dup1\n      revert\n    tag_294:\n      pop\n      gas\n      staticcall\n      iszero\n      dup1\n      iszero\n      tag_296\n      jumpi\n      returndatasize\n      0x00\n      dup1\n      returndatacopy\n      revert(0x00, returndatasize)\n    tag_296:\n      pop\n      pop\n      pop\n      pop\n      mload(0x40)\n      returndatasize\n      0x20\n      dup2\n      lt\n      iszero\n      tag_297\n      jumpi\n      0x00\n      dup1\n      revert\n    tag_297:\n      pop\n      mload\n      sub(shl(0xa0, 0x01), 0x01)\n        /* \"CoreContracts/kalyswap-periphery/KalyswapBridgeMigrationRouter_flattened.sol\":19125:19187  IKalyswapPair(pairA).token0() == IKalyswapPair(pairB).token1() */\n      and\n      eq\n        /* \"CoreContracts/kalyswap-periphery/KalyswapBridgeMigrationRouter_flattened.sol\":19047:19187  IKalyswapPair(pairA).token0() == IKalyswapPair(pairB).token0() ||... */\n    tag_289:\n        /* \"CoreContracts/kalyswap-periphery/KalyswapBridgeMigrationRouter_flattened.sol\":19047:19265  IKalyswapPair(pairA).token0() == IKalyswapPair(pairB).token0() ||... */\n      dup1\n      tag_298\n      jumpi\n      pop\n        /* \"CoreContracts/kalyswap-periphery/KalyswapBridgeMigrationRouter_flattened.sol\":19250:19255  pairB */\n      dup1\n      sub(shl(0xa0, 0x01), 0x01)\n        /* \"CoreContracts/kalyswap-periphery/KalyswapBridgeMigrationRouter_flattened.sol\":19236:19263  IKalyswapPair(pairB).token0 */\n      and\n      0x0dfe1681\n        /* \"CoreContracts/kalyswap-periphery/KalyswapBridgeMigrationRouter_flattened.sol\":19236:19265  IKalyswapPair(pairB).token0() */\n      mload(0x40)\n      dup2\n      0xffffffff\n      and\n      0xe0\n      shl\n      dup2\n      mstore\n      0x04\n      add\n      0x20\n      mload(0x40)\n      dup1\n      dup4\n      sub\n      dup2\n      dup7\n      dup1\n      extcodesize\n      iszero\n      dup1\n      iszero\n      tag_299\n      jumpi\n      0x00\n      dup1\n      revert\n    tag_299:\n      pop\n      gas\n      staticcall\n      iszero\n      dup1\n      iszero\n      tag_301\n      jumpi\n      returndatasize\n      0x00\n      dup1\n      returndatacopy\n      revert(0x00, returndatasize)\n    tag_301:\n      pop\n      pop\n      pop\n      pop\n      mload(0x40)\n      returndatasize\n      0x20\n      dup2\n      lt\n      iszero\n      tag_302\n      jumpi\n      0x00\n      dup1\n      revert\n    tag_302:\n      pop\n      mload\n        /* \"CoreContracts/kalyswap-periphery/KalyswapBridgeMigrationRouter_flattened.sol\":19203:19232  IKalyswapPair(pairA).token1() */\n      0x40\n      dup1\n      mload\n      shl(0xe0, 0xd21220a7)\n      dup2\n      mstore\n      swap1\n      mload\n      sub(shl(0xa0, 0x01), 0x01)\n        /* \"CoreContracts/kalyswap-periphery/KalyswapBridgeMigrationRouter_flattened.sol\":19203:19265  IKalyswapPair(pairA).token1() == IKalyswapPair(pairB).token0() */\n      swap3\n      dup4\n      and\n      swap3\n        /* \"CoreContracts/kalyswap-periphery/KalyswapBridgeMigrationRouter_flattened.sol\":19203:19230  IKalyswapPair(pairA).token1 */\n      dup6\n      and\n      swap2\n      0xd21220a7\n      swap2\n        /* \"CoreContracts/kalyswap-periphery/KalyswapBridgeMigrationRouter_flattened.sol\":19203:19232  IKalyswapPair(pairA).token1() */\n      0x04\n      dup1\n      dup4\n      add\n      swap3\n        /* \"CoreContracts/kalyswap-periphery/KalyswapBridgeMigrationRouter_flattened.sol\":19236:19265  IKalyswapPair(pairB).token0() */\n      0x20\n      swap3\n        /* \"CoreContracts/kalyswap-periphery/KalyswapBridgeMigrationRouter_flattened.sol\":19203:19232  IKalyswapPair(pairA).token1() */\n      swap2\n      swap1\n      dup3\n      swap1\n      sub\n      add\n      dup2\n        /* \"CoreContracts/kalyswap-periphery/KalyswapBridgeMigrationRouter_flattened.sol\":19203:19230  IKalyswapPair(pairA).token1 */\n      dup7\n        /* \"CoreContracts/kalyswap-periphery/KalyswapBridgeMigrationRouter_flattened.sol\":19203:19232  IKalyswapPair(pairA).token1() */\n      dup1\n      extcodesize\n      iszero\n      dup1\n      iszero\n      tag_303\n      jumpi\n      0x00\n      dup1\n      revert\n    tag_303:\n      pop\n      gas\n      staticcall\n      iszero\n      dup1\n      iszero\n      tag_305\n      jumpi\n      returndatasize\n      0x00\n      dup1\n      returndatacopy\n      revert(0x00, returndatasize)\n    tag_305:\n      pop\n      pop\n      pop\n      pop\n      mload(0x40)\n      returndatasize\n      0x20\n      dup2\n      lt\n      iszero\n      tag_306\n      jumpi\n      0x00\n      dup1\n      revert\n    tag_306:\n      pop\n      mload\n      sub(shl(0xa0, 0x01), 0x01)\n        /* \"CoreContracts/kalyswap-periphery/KalyswapBridgeMigrationRouter_flattened.sol\":19203:19265  IKalyswapPair(pairA).token1() == IKalyswapPair(pairB).token0() */\n      and\n      eq\n        /* \"CoreContracts/kalyswap-periphery/KalyswapBridgeMigrationRouter_flattened.sol\":19047:19265  IKalyswapPair(pairA).token0() == IKalyswapPair(pairB).token0() ||... */\n    tag_298:\n        /* \"CoreContracts/kalyswap-periphery/KalyswapBridgeMigrationRouter_flattened.sol\":19047:19343  IKalyswapPair(pairA).token0() == IKalyswapPair(pairB).token0() ||... */\n      dup1\n      tag_307\n      jumpi\n      pop\n        /* \"CoreContracts/kalyswap-periphery/KalyswapBridgeMigrationRouter_flattened.sol\":19328:19333  pairB */\n      dup1\n      sub(shl(0xa0, 0x01), 0x01)\n        /* \"CoreContracts/kalyswap-periphery/KalyswapBridgeMigrationRouter_flattened.sol\":19314:19341  IKalyswapPair(pairB).token1 */\n      and\n      0xd21220a7\n        /* \"CoreContracts/kalyswap-periphery/KalyswapBridgeMigrationRouter_flattened.sol\":19314:19343  IKalyswapPair(pairB).token1() */\n      mload(0x40)\n      dup2\n      0xffffffff\n      and\n      0xe0\n      shl\n      dup2\n      mstore\n      0x04\n      add\n      0x20\n      mload(0x40)\n      dup1\n      dup4\n      sub\n      dup2\n      dup7\n      dup1\n      extcodesize\n      iszero\n      dup1\n      iszero\n      tag_308\n      jumpi\n      0x00\n      dup1\n      revert\n    tag_308:\n      pop\n      gas\n      staticcall\n      iszero\n      dup1\n      iszero\n      tag_310\n      jumpi\n      returndatasize\n      0x00\n      dup1\n      returndatacopy\n      revert(0x00, returndatasize)\n    tag_310:\n      pop\n      pop\n      pop\n      pop\n      mload(0x40)\n      returndatasize\n      0x20\n      dup2\n      lt\n      iszero\n      tag_311\n      jumpi\n      0x00\n      dup1\n      revert\n    tag_311:\n      pop\n      mload\n        /* \"CoreContracts/kalyswap-periphery/KalyswapBridgeMigrationRouter_flattened.sol\":19281:19310  IKalyswapPair(pairA).token1() */\n      0x40\n      dup1\n      mload\n      shl(0xe0, 0xd21220a7)\n      dup2\n      mstore\n      swap1\n      mload\n      sub(shl(0xa0, 0x01), 0x01)\n        /* \"CoreContracts/kalyswap-periphery/KalyswapBridgeMigrationRouter_flattened.sol\":19281:19343  IKalyswapPair(pairA).token1() == IKalyswapPair(pairB).token1() */\n      swap3\n      dup4\n      and\n      swap3\n        /* \"CoreContracts/kalyswap-periphery/KalyswapBridgeMigrationRouter_flattened.sol\":19281:19308  IKalyswapPair(pairA).token1 */\n      dup6\n      and\n      swap2\n      0xd21220a7\n      swap2\n        /* \"CoreContracts/kalyswap-periphery/KalyswapBridgeMigrationRouter_flattened.sol\":19281:19310  IKalyswapPair(pairA).token1() */\n      0x04\n      dup1\n      dup4\n      add\n      swap3\n        /* \"CoreContracts/kalyswap-periphery/KalyswapBridgeMigrationRouter_flattened.sol\":19314:19343  IKalyswapPair(pairB).token1() */\n      0x20\n      swap3\n        /* \"CoreContracts/kalyswap-periphery/KalyswapBridgeMigrationRouter_flattened.sol\":19281:19310  IKalyswapPair(pairA).token1() */\n      swap2\n      swap1\n      dup3\n      swap1\n      sub\n      add\n      dup2\n        /* \"CoreContracts/kalyswap-periphery/KalyswapBridgeMigrationRouter_flattened.sol\":19281:19308  IKalyswapPair(pairA).token1 */\n      dup7\n        /* \"CoreContracts/kalyswap-periphery/KalyswapBridgeMigrationRouter_flattened.sol\":19281:19310  IKalyswapPair(pairA).token1() */\n      dup1\n      extcodesize\n      iszero\n      dup1\n      iszero\n      tag_312\n      jumpi\n      0x00\n      dup1\n      revert\n    tag_312:\n      pop\n      gas\n      staticcall\n      iszero\n      dup1\n      iszero\n      tag_314\n      jumpi\n      returndatasize\n      0x00\n      dup1\n      returndatacopy\n      revert(0x00, returndatasize)\n    tag_314:\n      pop\n      pop\n      pop\n      pop\n      mload(0x40)\n      returndatasize\n      0x20\n      dup2\n      lt\n      iszero\n      tag_315\n      jumpi\n      0x00\n      dup1\n      revert\n    tag_315:\n      pop\n      mload\n      sub(shl(0xa0, 0x01), 0x01)\n        /* \"CoreContracts/kalyswap-periphery/KalyswapBridgeMigrationRouter_flattened.sol\":19281:19343  IKalyswapPair(pairA).token1() == IKalyswapPair(pairB).token1() */\n      and\n      eq\n        /* \"CoreContracts/kalyswap-periphery/KalyswapBridgeMigrationRouter_flattened.sol\":19047:19343  IKalyswapPair(pairA).token0() == IKalyswapPair(pairB).token0() ||... */\n    tag_307:\n        /* \"CoreContracts/kalyswap-periphery/KalyswapBridgeMigrationRouter_flattened.sol\":19026:19437  require(... */\n      tag_265\n      jumpi\n      mload(0x40)\n      shl(0xe5, 0x461bcd)\n      dup2\n      mstore\n      0x04\n      add\n      dup1\n      dup1\n      0x20\n      add\n      dup3\n      dup2\n      sub\n      dup3\n      mstore\n      0x44\n      dup2\n      mstore\n      0x20\n      add\n      dup1\n      data_b8ed0d259757db98fff877ed18290c2e4ef438aefbcbb3f6867ba133df0a875d\n      0x44\n      swap2\n      codecopy\n      0x60\n      add\n      swap2\n      pop\n      pop\n      mload(0x40)\n      dup1\n      swap2\n      sub\n      swap1\n      revert\n        /* \"CoreContracts/kalyswap-periphery/KalyswapBridgeMigrationRouter_flattened.sol\":17934:18261  function _rescueLiquidity(... */\n    tag_173:\n        /* \"CoreContracts/kalyswap-periphery/KalyswapBridgeMigrationRouter_flattened.sol\":18036:18053  uint amountTokenA */\n      0x00\n        /* \"CoreContracts/kalyswap-periphery/KalyswapBridgeMigrationRouter_flattened.sol\":18055:18072  uint amountTokenB */\n      dup1\n        /* \"CoreContracts/kalyswap-periphery/KalyswapBridgeMigrationRouter_flattened.sol\":18084:18165  TransferHelper.safeTransferFrom(liquidityPair, msg.sender, liquidityPair, amount) */\n      tag_318\n        /* \"CoreContracts/kalyswap-periphery/KalyswapBridgeMigrationRouter_flattened.sol\":18116:18129  liquidityPair */\n      dup5\n        /* \"CoreContracts/kalyswap-periphery/KalyswapBridgeMigrationRouter_flattened.sol\":18131:18141  msg.sender */\n      caller\n        /* \"CoreContracts/kalyswap-periphery/KalyswapBridgeMigrationRouter_flattened.sol\":18143:18156  liquidityPair */\n      dup7\n        /* \"CoreContracts/kalyswap-periphery/KalyswapBridgeMigrationRouter_flattened.sol\":18158:18164  amount */\n      dup7\n        /* \"CoreContracts/kalyswap-periphery/KalyswapBridgeMigrationRouter_flattened.sol\":18084:18115  TransferHelper.safeTransferFrom */\n      tag_119\n        /* \"CoreContracts/kalyswap-periphery/KalyswapBridgeMigrationRouter_flattened.sol\":18084:18165  TransferHelper.safeTransferFrom(liquidityPair, msg.sender, liquidityPair, amount) */\n      jump\t// in\n    tag_318:\n        /* \"CoreContracts/kalyswap-periphery/KalyswapBridgeMigrationRouter_flattened.sol\":18206:18254  IKalyswapPair(liquidityPair).burn(address(this)) */\n      0x40\n      dup1\n      mload\n      0x89afcb4400000000000000000000000000000000000000000000000000000000\n      dup2\n      mstore\n        /* \"CoreContracts/kalyswap-periphery/KalyswapBridgeMigrationRouter_flattened.sol\":18248:18252  this */\n      address\n        /* \"CoreContracts/kalyswap-periphery/KalyswapBridgeMigrationRouter_flattened.sol\":18206:18254  IKalyswapPair(liquidityPair).burn(address(this)) */\n      0x04\n      dup3\n      add\n      mstore\n      dup2\n      mload\n      sub(shl(0xa0, 0x01), 0x01)\n        /* \"CoreContracts/kalyswap-periphery/KalyswapBridgeMigrationRouter_flattened.sol\":18206:18239  IKalyswapPair(liquidityPair).burn */\n      dup8\n      and\n      swap3\n      0x89afcb44\n      swap3\n        /* \"CoreContracts/kalyswap-periphery/KalyswapBridgeMigrationRouter_flattened.sol\":18206:18254  IKalyswapPair(liquidityPair).burn(address(this)) */\n      0x24\n      dup1\n      dup3\n      add\n      swap4\n      swap2\n      dup3\n      swap1\n      sub\n      add\n      dup2\n      0x00\n        /* \"CoreContracts/kalyswap-periphery/KalyswapBridgeMigrationRouter_flattened.sol\":18206:18239  IKalyswapPair(liquidityPair).burn */\n      dup8\n        /* \"CoreContracts/kalyswap-periphery/KalyswapBridgeMigrationRouter_flattened.sol\":18206:18254  IKalyswapPair(liquidityPair).burn(address(this)) */\n      dup1\n      extcodesize\n      iszero\n      dup1\n      iszero\n      tag_319\n      jumpi\n      0x00\n      dup1\n      revert\n    tag_319:\n      pop\n      gas\n      call\n      iszero\n      dup1\n      iszero\n      tag_321\n      jumpi\n      returndatasize\n      0x00\n      dup1\n      returndatacopy\n      revert(0x00, returndatasize)\n    tag_321:\n      pop\n      pop\n      pop\n      pop\n      mload(0x40)\n      returndatasize\n      0x40\n      dup2\n      lt\n      iszero\n      tag_322\n      jumpi\n      0x00\n      dup1\n      revert\n    tag_322:\n      pop\n      dup1\n      mload\n      0x20\n      swap1\n      swap2\n      add\n      mload\n      swap1\n      swap6\n      swap1\n      swap5\n      pop\n        /* \"CoreContracts/kalyswap-periphery/KalyswapBridgeMigrationRouter_flattened.sol\":17934:18261  function _rescueLiquidity(... */\n      swap3\n      pop\n      pop\n      pop\n      jump\t// out\n        /* \"CoreContracts/kalyswap-periphery/KalyswapBridgeMigrationRouter_flattened.sol\":16528:17387  function _addLiquidity(... */\n    tag_207:\n        /* \"CoreContracts/kalyswap-periphery/KalyswapBridgeMigrationRouter_flattened.sol\":16717:16729  uint amount0 */\n      0x00\n        /* \"CoreContracts/kalyswap-periphery/KalyswapBridgeMigrationRouter_flattened.sol\":16731:16743  uint amount1 */\n      dup1\n        /* \"CoreContracts/kalyswap-periphery/KalyswapBridgeMigrationRouter_flattened.sol\":16745:16765  uint liquidityAmount */\n      0x00\n        /* \"CoreContracts/kalyswap-periphery/KalyswapBridgeMigrationRouter_flattened.sol\":16778:16794  uint112 reserve0 */\n      dup1\n        /* \"CoreContracts/kalyswap-periphery/KalyswapBridgeMigrationRouter_flattened.sol\":16796:16812  uint112 reserve1 */\n      0x00\n        /* \"CoreContracts/kalyswap-periphery/KalyswapBridgeMigrationRouter_flattened.sol\":16831:16840  pairToken */\n      dup11\n      sub(shl(0xa0, 0x01), 0x01)\n        /* \"CoreContracts/kalyswap-periphery/KalyswapBridgeMigrationRouter_flattened.sol\":16817:16853  IKalyswapPair(pairToken).getReserves */\n      and\n      0x0902f1ac\n        /* \"CoreContracts/kalyswap-periphery/KalyswapBridgeMigrationRouter_flattened.sol\":16817:16855  IKalyswapPair(pairToken).getReserves() */\n      mload(0x40)\n      dup2\n      0xffffffff\n      and\n      0xe0\n      shl\n      dup2\n      mstore\n      0x04\n      add\n      0x60\n      mload(0x40)\n      dup1\n      dup4\n      sub\n      dup2\n      dup7\n      dup1\n      extcodesize\n      iszero\n      dup1\n      iszero\n      tag_324\n      jumpi\n      0x00\n      dup1\n      revert\n    tag_324:\n      pop\n      gas\n      staticcall\n      iszero\n      dup1\n      iszero\n      tag_326\n      jumpi\n      returndatasize\n      0x00\n      dup1\n      returndatacopy\n      revert(0x00, returndatasize)\n    tag_326:\n      pop\n      pop\n      pop\n      pop\n      mload(0x40)\n      returndatasize\n      0x60\n      dup2\n      lt\n      iszero\n      tag_327\n      jumpi\n      0x00\n      dup1\n      revert\n    tag_327:\n      pop\n      dup1\n      mload\n      0x20\n      swap1\n      swap2\n      add\n      mload\n      swap1\n      swap3\n      pop\n      swap1\n      pop\n        /* \"CoreContracts/kalyswap-periphery/KalyswapBridgeMigrationRouter_flattened.sol\":16879:16888  amountIn0 */\n      dup8\n        /* \"CoreContracts/kalyswap-periphery/KalyswapBridgeMigrationRouter_flattened.sol\":16865:16876  uint quote0 */\n      0x00\n        /* \"CoreContracts/kalyswap-periphery/KalyswapBridgeMigrationRouter_flattened.sol\":16912:16964  KalyswapLibrary.quote(amountIn0, reserve0, reserve1) */\n      tag_328\n        /* \"CoreContracts/kalyswap-periphery/KalyswapBridgeMigrationRouter_flattened.sol\":16879:16888  amountIn0 */\n      dup3\n        /* \"CoreContracts/kalyswap-periphery/KalyswapBridgeMigrationRouter_flattened.sol\":16912:16964  KalyswapLibrary.quote(amountIn0, reserve0, reserve1) */\n      0xffffffffffffffffffffffffffff\n      dup1\n      dup8\n      and\n      swap1\n      dup7\n      and\n        /* \"CoreContracts/kalyswap-periphery/KalyswapBridgeMigrationRouter_flattened.sol\":16912:16933  KalyswapLibrary.quote */\n      tag_104\n        /* \"CoreContracts/kalyswap-periphery/KalyswapBridgeMigrationRouter_flattened.sol\":16912:16964  KalyswapLibrary.quote(amountIn0, reserve0, reserve1) */\n      jump\t// in\n    tag_328:\n        /* \"CoreContracts/kalyswap-periphery/KalyswapBridgeMigrationRouter_flattened.sol\":16898:16964  uint quote1 = KalyswapLibrary.quote(amountIn0, reserve0, reserve1) */\n      swap1\n      pop\n        /* \"CoreContracts/kalyswap-periphery/KalyswapBridgeMigrationRouter_flattened.sol\":16987:16996  amountIn1 */\n      dup9\n        /* \"CoreContracts/kalyswap-periphery/KalyswapBridgeMigrationRouter_flattened.sol\":16978:16984  quote1 */\n      dup2\n        /* \"CoreContracts/kalyswap-periphery/KalyswapBridgeMigrationRouter_flattened.sol\":16978:16996  quote1 > amountIn1 */\n      gt\n        /* \"CoreContracts/kalyswap-periphery/KalyswapBridgeMigrationRouter_flattened.sol\":16974:17116  if (quote1 > amountIn1) {... */\n      iszero\n      tag_329\n      jumpi\n        /* \"CoreContracts/kalyswap-periphery/KalyswapBridgeMigrationRouter_flattened.sol\":17021:17030  amountIn1 */\n      dup9\n        /* \"CoreContracts/kalyswap-periphery/KalyswapBridgeMigrationRouter_flattened.sol\":17012:17030  quote1 = amountIn1 */\n      swap1\n      pop\n        /* \"CoreContracts/kalyswap-periphery/KalyswapBridgeMigrationRouter_flattened.sol\":17053:17105  KalyswapLibrary.quote(amountIn1, reserve1, reserve0) */\n      tag_330\n        /* \"CoreContracts/kalyswap-periphery/KalyswapBridgeMigrationRouter_flattened.sol\":17075:17084  amountIn1 */\n      dup10\n        /* \"CoreContracts/kalyswap-periphery/KalyswapBridgeMigrationRouter_flattened.sol\":17086:17094  reserve1 */\n      dup5\n        /* \"CoreContracts/kalyswap-periphery/KalyswapBridgeMigrationRouter_flattened.sol\":17053:17105  KalyswapLibrary.quote(amountIn1, reserve1, reserve0) */\n      0xffffffffffffffffffffffffffff\n      and\n        /* \"CoreContracts/kalyswap-periphery/KalyswapBridgeMigrationRouter_flattened.sol\":17096:17104  reserve0 */\n      dup7\n        /* \"CoreContracts/kalyswap-periphery/KalyswapBridgeMigrationRouter_flattened.sol\":17053:17105  KalyswapLibrary.quote(amountIn1, reserve1, reserve0) */\n      0xffffffffffffffffffffffffffff\n      and\n        /* \"CoreContracts/kalyswap-periphery/KalyswapBridgeMigrationRouter_flattened.sol\":17053:17074  KalyswapLibrary.quote */\n      tag_104\n        /* \"CoreContracts/kalyswap-periphery/KalyswapBridgeMigrationRouter_flattened.sol\":17053:17105  KalyswapLibrary.quote(amountIn1, reserve1, reserve0) */\n      jump\t// in\n    tag_330:\n        /* \"CoreContracts/kalyswap-periphery/KalyswapBridgeMigrationRouter_flattened.sol\":17044:17105  quote0 = KalyswapLibrary.quote(amountIn1, reserve1, reserve0) */\n      swap2\n      pop\n        /* \"CoreContracts/kalyswap-periphery/KalyswapBridgeMigrationRouter_flattened.sol\":16974:17116  if (quote1 > amountIn1) {... */\n    tag_329:\n        /* \"CoreContracts/kalyswap-periphery/KalyswapBridgeMigrationRouter_flattened.sol\":17125:17179  TransferHelper.safeTransfer(token0, pairToken, quote0) */\n      tag_331\n        /* \"CoreContracts/kalyswap-periphery/KalyswapBridgeMigrationRouter_flattened.sol\":17153:17159  token0 */\n      dup13\n        /* \"CoreContracts/kalyswap-periphery/KalyswapBridgeMigrationRouter_flattened.sol\":17161:17170  pairToken */\n      dup15\n        /* \"CoreContracts/kalyswap-periphery/KalyswapBridgeMigrationRouter_flattened.sol\":17172:17178  quote0 */\n      dup5\n        /* \"CoreContracts/kalyswap-periphery/KalyswapBridgeMigrationRouter_flattened.sol\":17125:17152  TransferHelper.safeTransfer */\n      tag_123\n        /* \"CoreContracts/kalyswap-periphery/KalyswapBridgeMigrationRouter_flattened.sol\":17125:17179  TransferHelper.safeTransfer(token0, pairToken, quote0) */\n      jump\t// in\n    tag_331:\n        /* \"CoreContracts/kalyswap-periphery/KalyswapBridgeMigrationRouter_flattened.sol\":17189:17243  TransferHelper.safeTransfer(token1, pairToken, quote1) */\n      tag_332\n        /* \"CoreContracts/kalyswap-periphery/KalyswapBridgeMigrationRouter_flattened.sol\":17217:17223  token1 */\n      dup12\n        /* \"CoreContracts/kalyswap-periphery/KalyswapBridgeMigrationRouter_flattened.sol\":17225:17234  pairToken */\n      dup15\n        /* \"CoreContracts/kalyswap-periphery/KalyswapBridgeMigrationRouter_flattened.sol\":17236:17242  quote1 */\n      dup4\n        /* \"CoreContracts/kalyswap-periphery/KalyswapBridgeMigrationRouter_flattened.sol\":17189:17216  TransferHelper.safeTransfer */\n      tag_123\n        /* \"CoreContracts/kalyswap-periphery/KalyswapBridgeMigrationRouter_flattened.sol\":17189:17243  TransferHelper.safeTransfer(token1, pairToken, quote1) */\n      jump\t// in\n    tag_332:\n        /* \"CoreContracts/kalyswap-periphery/KalyswapBridgeMigrationRouter_flattened.sol\":17275:17281  quote0 */\n      dup2\n        /* \"CoreContracts/kalyswap-periphery/KalyswapBridgeMigrationRouter_flattened.sol\":17263:17272  amountIn0 */\n      dup11\n        /* \"CoreContracts/kalyswap-periphery/KalyswapBridgeMigrationRouter_flattened.sol\":17263:17281  amountIn0 - quote0 */\n      sub\n        /* \"CoreContracts/kalyswap-periphery/KalyswapBridgeMigrationRouter_flattened.sol\":17253:17281  amount0 = amountIn0 - quote0 */\n      swap7\n      pop\n        /* \"CoreContracts/kalyswap-periphery/KalyswapBridgeMigrationRouter_flattened.sol\":17313:17319  quote1 */\n      dup1\n        /* \"CoreContracts/kalyswap-periphery/KalyswapBridgeMigrationRouter_flattened.sol\":17301:17310  amountIn1 */\n      dup10\n        /* \"CoreContracts/kalyswap-periphery/KalyswapBridgeMigrationRouter_flattened.sol\":17301:17319  amountIn1 - quote1 */\n      sub\n        /* \"CoreContracts/kalyswap-periphery/KalyswapBridgeMigrationRouter_flattened.sol\":17291:17319  amount1 = amountIn1 - quote1 */\n      swap6\n      pop\n        /* \"CoreContracts/kalyswap-periphery/KalyswapBridgeMigrationRouter_flattened.sol\":17361:17370  pairToken */\n      dup13\n      sub(shl(0xa0, 0x01), 0x01)\n        /* \"CoreContracts/kalyswap-periphery/KalyswapBridgeMigrationRouter_flattened.sol\":17347:17376  IKalyswapPair(pairToken).mint */\n      and\n      0x6a627842\n        /* \"CoreContracts/kalyswap-periphery/KalyswapBridgeMigrationRouter_flattened.sol\":17377:17379  to */\n      dup10\n        /* \"CoreContracts/kalyswap-periphery/KalyswapBridgeMigrationRouter_flattened.sol\":17347:17380  IKalyswapPair(pairToken).mint(to) */\n      mload(0x40)\n      dup3\n      0xffffffff\n      and\n      0xe0\n      shl\n      dup2\n      mstore\n      0x04\n      add\n      dup1\n      dup3\n      sub(shl(0xa0, 0x01), 0x01)\n      and\n      dup2\n      mstore\n      0x20\n      add\n      swap2\n      pop\n      pop\n      0x20\n      mload(0x40)\n      dup1\n      dup4\n      sub\n      dup2\n      0x00\n      dup8\n      dup1\n      extcodesize\n      iszero\n      dup1\n      iszero\n      tag_333\n      jumpi\n      0x00\n      dup1\n      revert\n    tag_333:\n      pop\n      gas\n      call\n      iszero\n      dup1\n      iszero\n      tag_335\n      jumpi\n      returndatasize\n      0x00\n      dup1\n      returndatacopy\n      revert(0x00, returndatasize)\n    tag_335:\n      pop\n      pop\n      pop\n      pop\n      mload(0x40)\n      returndatasize\n      0x20\n      dup2\n      lt\n      iszero\n      tag_336\n      jumpi\n      0x00\n      dup1\n      revert\n    tag_336:\n      pop\n      mload\n        /* \"CoreContracts/kalyswap-periphery/KalyswapBridgeMigrationRouter_flattened.sol\":16528:17387  function _addLiquidity(... */\n      swap7\n      swap14\n      swap6\n      swap13\n      pop\n        /* \"CoreContracts/kalyswap-periphery/KalyswapBridgeMigrationRouter_flattened.sol\":17347:17380  IKalyswapPair(pairToken).mint(to) */\n      swap6\n      swap11\n      pop\n        /* \"CoreContracts/kalyswap-periphery/KalyswapBridgeMigrationRouter_flattened.sol\":16528:17387  function _addLiquidity(... */\n      swap4\n      swap9\n      pop\n      pop\n      pop\n      pop\n      pop\n      pop\n      pop\n      pop\n      pop\n      jump\t// out\n        /* \"CoreContracts/kalyswap-periphery/KalyswapBridgeMigrationRouter_flattened.sol\":494:634  function mul(uint x, uint y) internal pure returns (uint z) {... */\n    tag_235:\n        /* \"CoreContracts/kalyswap-periphery/KalyswapBridgeMigrationRouter_flattened.sol\":546:552  uint z */\n      0x00\n        /* \"CoreContracts/kalyswap-periphery/KalyswapBridgeMigrationRouter_flattened.sol\":572:578  y == 0 */\n      dup2\n      iszero\n      dup1\n        /* \"CoreContracts/kalyswap-periphery/KalyswapBridgeMigrationRouter_flattened.sol\":572:602  y == 0 || (z = x * y) / y == x */\n      tag_338\n      jumpi\n      pop\n      pop\n        /* \"CoreContracts/kalyswap-periphery/KalyswapBridgeMigrationRouter_flattened.sol\":587:592  x * y */\n      dup1\n      dup3\n      mul\n        /* \"CoreContracts/kalyswap-periphery/KalyswapBridgeMigrationRouter_flattened.sol\":601:602  x */\n      dup3\n        /* \"CoreContracts/kalyswap-periphery/KalyswapBridgeMigrationRouter_flattened.sol\":596:597  y */\n      dup3\n        /* \"CoreContracts/kalyswap-periphery/KalyswapBridgeMigrationRouter_flattened.sol\":587:592  x * y */\n      dup3\n        /* \"CoreContracts/kalyswap-periphery/KalyswapBridgeMigrationRouter_flattened.sol\":596:597  y */\n      dup2\n        /* \"CoreContracts/kalyswap-periphery/KalyswapBridgeMigrationRouter_flattened.sol\":582:597  (z = x * y) / y */\n      tag_339\n      jumpi\n      invalid\n    tag_339:\n      div\n        /* \"CoreContracts/kalyswap-periphery/KalyswapBridgeMigrationRouter_flattened.sol\":582:602  (z = x * y) / y == x */\n      eq\n        /* \"CoreContracts/kalyswap-periphery/KalyswapBridgeMigrationRouter_flattened.sol\":572:602  y == 0 || (z = x * y) / y == x */\n    tag_338:\n        /* \"CoreContracts/kalyswap-periphery/KalyswapBridgeMigrationRouter_flattened.sol\":564:627  require(y == 0 || (z = x * y) / y == x, 'ds-math-mul-overflow') */\n      tag_51\n      jumpi\n      0x40\n      dup1\n      mload\n      shl(0xe5, 0x461bcd)\n      dup2\n      mstore\n      0x20\n      0x04\n      dup3\n      add\n      mstore\n      0x14\n      0x24\n      dup3\n      add\n      mstore\n      0x64732d6d6174682d6d756c2d6f766572666c6f77000000000000000000000000\n      0x44\n      dup3\n      add\n      mstore\n      swap1\n      mload\n      swap1\n      dup2\n      swap1\n      sub\n      0x64\n      add\n      swap1\n      revert\n    stop\n    data_05cf0a3569a15a3c6d55134bc83c6e310486fc5d86c57fe969396f1673709115 4b616c79737761704272696467654d6967726174696f6e526f757465723a20416464726573732030206e6f7420616c6c6f776564\n    data_1c7c659b1ae1b6657f6277780e3b866d18de2ae7bdb0795c710a1378deb7c207 4b616c79737761704272696467654d6967726174696f6e526f757465723a206d69677261746f72416464726573732030206e6f7420737570706f72746564\n    data_1d8ac38f6fc3450d3a0236480a1ba0d030f5fe1f648621299163fdf4fc11c5c7 4b616c79737761704272696467654d6967726174696f6e526f757465723a205061697220646f65736e2774206d6174636820746865206d6967726174696f6e20746f6b656e\n    data_200248fc6ca52a59603938cda7204781ce09d1bfbab0ded816a7da12334c83d7 4b616c79737761704272696467654d6967726174696f6e526f757465723a206c69717569646974795061697246726f6d20616464726573732030206e6f7420737570706f72746564\n    data_20f37cd99da92a5efeb292e424950a5326eaec74b790503092d9fc76b12f685f 4b616c79737761704272696467654d6967726174696f6e526f757465723a204469646e2774207969656c642074686520636f727265637420616d6f756e74\n    data_2386eadbfa1ec37b2bd48e593f37c43c952d063ca4685d6d4e6b987ed53095cd 4b616c79737761704272696467654d6967726174696f6e526f757465723a2043616e7420636f6e7665727420746f207468652073616d65206c6971756964697479207061697273\n    data_2779eff898f898effcf0aa56dae8e93db6d4db04eea06f78f89cd9d6340eca68 4b616c79737761704272696467654d6967726174696f6e526f757465723a206c69717569646974795061697246726f6d20616464726573732030\n    data_55b0696d49f993eb1ace324d5663bb2fcaf6a2e9adf7d970b2aa88f8e8484c73 4b616c79737761704272696467654d6967726174696f6e526f757465723a206c697175696469747950616972546f20616464726573732030206e6f7420737570706f72746564\n    data_67de629378f206179ef1573eeb90ada9b246d75587b16d0d1d34653b7fb2db45 546865206d69677261746f7220646f65736e27742068617665207377617020737570706c7920666f72207468697320746f6b656e\n    data_72bf313591ceddf754ca6a5c3bb1bce298c6ad13c15c3e899581c1b7df075c21 4b616c79737761704272696467654d6967726174696f6e526f757465723a20556e617574686f72697a6564\n    data_78840e091b36f1ae3c2e726985d3fca034feef7c212a1c9737acba643adee0ed 4b616c79737761704c6962726172793a20494e53554646494349454e545f414d4f554e54\n    data_7bd893145ac435f339bb7c288622d270324b7033b011f693aca172f5cbc3c257 526f6c65733a206163636f756e7420646f6573206e6f74206861766520726f6c65\n    data_9074bfdb993f0f76350cad6ff16b034dab298eea08ad462e08506031f49a76e1 4b616c79737761704c6962726172793a20494e53554646494349454e545f4c4951554944495459\n    data_9d214fa89563f4e6456a3929327e54500ea1cde2c0ba9fb2035ec106190d682f 526f6c65733a206163636f756e7420697320746865207a65726f2061646472657373\n    data_9d984e50f0a68e3b3b3f36266bdb577070edfb604f683a0d41f604c350418d44 4b616c79737761704272696467654d6967726174696f6e526f757465723a20746f6b656e416464726573732030206e6f7420737570706f72746564\n    data_ab411b16b48c0dfc5a303ed96b1803938c6e2d0701b8085498de3b758ca25a98 4b616c79737761704272696467654d6967726174696f6e526f757465723a2045585049524544\n    data_b8ed0d259757db98fff877ed18290c2e4ef438aefbcbb3f6867ba133df0a875d 4b616c79737761704272696467654d6967726174696f6e526f757465723a205061697220646f6573206e6f742068617665206f6e6520746f6b656e206d61746368696e67\n    data_c3ea15ec7964d97f4fca03ff0a261f494af166a8c1b012c373fddb2447a896d1 4b616c79737761704272696467654d6967726174696f6e526f757465723a204d69677261746f72206e6f74207265676973746572656420666f72207468652070616972\n    data_d3644c735b72355dd1872214f8cef876b6ab448ac1dcde51a78aae8776c79ea0 4b616c79737761704272696467654d6967726174696f6e526f757465723a206c697175696469747950616972546f20616464726573732030\n    data_ddde50f1cae8853e86ca4100759dc699a86a58cbbaac272e74d5c0bdd9991550 4b616c79737761704272696467654d6967726174696f6e526f757465723a206d69677261746f72206e6f742072656769737465726564\n    data_e6c3cbc1b9cc3350f2defb4add44202bf98de183d551d772ba5896f5bb0d10cc 4b616c79737761704272696467654d6967726174696f6e526f757465723a20596f752063616e27742064656d6f746520796f757273656c66\n    data_eb2904bf3c0c9ae693b53eb0188a703c388998a9c405b7965ca678cef9a51d18 5472616e7366657248656c7065723a205452414e534645525f46524f4d5f4641494c4544\n\n    auxdata: 0xa26469706673582212201ea0e23c7e5e8d734f0178778f713202f67b07e43430df89de470075fc9488ba64736f6c63430007060033\n}\n",
				"bytecode": {
					"linkReferences": {},
					"object": "60806040523480156200001157600080fd5b506200002d3360006200003360201b62000b751790919060201c565b62000120565b6200003f8282620000b7565b1562000092576040805162461bcd60e51b815260206004820152601f60248201527f526f6c65733a206163636f756e7420616c72656164792068617320726f6c6500604482015290519081900360640190fd5b6001600160a01b0316600090815260209190915260409020805460ff19166001179055565b60006001600160a01b038216620001005760405162461bcd60e51b8152600401808060200182810382526022815260200180620029c86022913960400191505060405180910390fd5b506001600160a01b03166000908152602091909152604090205460ff1690565b61289880620001306000396000f3fe608060405234801561001057600080fd5b50600436106100a35760003560e01c80637048027511610076578063b032fff71161005b578063b032fff7146101ef578063f057d23714610247578063ffc5059414610283576100a3565b8063704802751461017a57806399a0df82146101a0576100a3565b80631785f53c146100a857806324d7806c146100d0578063495952f51461010a5780634c389d261461014c575b600080fd5b6100ce600480360360208110156100be57600080fd5b50356001600160a01b03166102c5565b005b6100f6600480360360208110156100e657600080fd5b50356001600160a01b0316610361565b604080519115158252519081900360200190f35b6100ce600480360360a081101561012057600080fd5b506001600160a01b03813581169160208101358216916040820135169060608101359060800135610373565b6100ce6004803603604081101561016257600080fd5b506001600160a01b03813581169160200135166103c7565b6100ce6004803603602081101561019057600080fd5b50356001600160a01b03166105a1565b6101d6600480360360608110156101b657600080fd5b506001600160a01b03813581169160208101359091169060400135610637565b6040805192835260208301919091528051918290030190f35b6100ce600480360361010081101561020657600080fd5b506001600160a01b03813581169160208101358216916040820135169060608101359060808101359060ff60a0820135169060c08101359060e00135610987565b6100ce6004803603608081101561025d57600080fd5b506001600160a01b03813581169160208101359091169060408101359060600135610a81565b6102a96004803603602081101561029957600080fd5b50356001600160a01b0316610b5a565b604080516001600160a01b039092168252519081900360200190f35b6102d0600033610bf6565b61030b5760405162461bcd60e51b815260040180806020018281038252602b8152602001806125f8602b913960400191505060405180910390fd5b336001600160a01b03821614156103535760405162461bcd60e51b81526004018080602001828103825260388152602001806128076038913960400191505060405180910390fd5b61035e600082610c5d565b50565b600061036d8183610bf6565b92915050565b80428110156103b35760405162461bcd60e51b81526004018080602001828103825260268152602001806126ec6026913960400191505060405180910390fd5b6103bf86868686610cc4565b505050505050565b6103d2600033610bf6565b61040d5760405162461bcd60e51b815260040180806020018281038252602b8152602001806125f8602b913960400191505060405180910390fd5b6001600160a01b0382166104525760405162461bcd60e51b815260040180806020018281038252603b8152602001806126b1603b913960400191505060405180910390fd5b6001600160a01b0381166104975760405162461bcd60e51b815260040180806020018281038252603e8152602001806123f4603e913960400191505060405180910390fd5b6000816001600160a01b031663ab32dbb7846040518263ffffffff1660e01b815260040180826001600160a01b0316815260200191505060206040518083038186803b1580156104e657600080fd5b505afa1580156104fa573d6000803e3d6000fd5b505050506040513d602081101561051057600080fd5b50519050806105505760405162461bcd60e51b81526004018080602001828103825260348152602001806125c46034913960400191505060405180910390fd5b61055a8383611537565b506001600160a01b03918216600090815260016020526040902080547fffffffffffffffffffffffff00000000000000000000000000000000000000001691909216179055565b6105ac600033610bf6565b6105e75760405162461bcd60e51b815260040180806020018281038252602b8152602001806125f8602b913960400191505060405180910390fd5b6001600160a01b03811661062c5760405162461bcd60e51b81526004018080602001828103825260348152602001806123c06034913960400191505060405180910390fd5b61035e600082610b75565b6000806001600160a01b03851661067f5760405162461bcd60e51b81526004018080602001828103825260488152602001806124776048913960600191505060405180910390fd5b6001600160a01b0384166106c45760405162461bcd60e51b815260040180806020018281038252604681526020018061257e6046913960600191505060405180910390fd5b6000806106d187866115c0565b91509150856001600160a01b0316630dfe16816040518163ffffffff1660e01b815260040160206040518083038186803b15801561070e57600080fd5b505afa158015610722573d6000803e3d6000fd5b505050506040513d602081101561073857600080fd5b505160408051630dfe168160e01b815290516001600160a01b03928316928a1691630dfe1681916004808301926020929190829003018186803b15801561077e57600080fd5b505afa158015610792573d6000803e3d6000fd5b505050506040513d60208110156107a857600080fd5b50516001600160a01b03161480159061089d5750856001600160a01b031663d21220a76040518163ffffffff1660e01b815260040160206040518083038186803b1580156107f557600080fd5b505afa158015610809573d6000803e3d6000fd5b505050506040513d602081101561081f57600080fd5b50516040805163d21220a760e01b815290516001600160a01b03928316928a169163d21220a7916004808301926020929190829003018186803b15801561086557600080fd5b505afa158015610879573d6000803e3d6000fd5b505050506040513d602081101561088f57600080fd5b50516001600160a01b031614155b156108a457905b600080876001600160a01b0316630902f1ac6040518163ffffffff1660e01b815260040160606040518083038186803b1580156108e057600080fd5b505afa1580156108f4573d6000803e3d6000fd5b505050506040513d606081101561090a57600080fd5b5080516020909101519092509050836000610939826dffffffffffffffffffffffffffff808716908616611713565b9050848111156109745784905061097185846dffffffffffffffffffffffffffff16866dffffffffffffffffffffffffffff16611713565b91505b9403999390920397509195505050505050565b83428110156109c75760405162461bcd60e51b81526004018080602001828103825260268152602001806126ec6026913960400191505060405180910390fd5b604080517fd505accf000000000000000000000000000000000000000000000000000000008152336004820152306024820152604481018890526064810187905260ff8616608482015260a4810185905260c4810184905290516001600160a01b038b169163d505accf9160e480830192600092919082900301818387803b158015610a5257600080fd5b505af1158015610a66573d6000803e3d6000fd5b50505050610a7689898989610cc4565b505050505050505050565b8042811015610ac15760405162461bcd60e51b81526004018080602001828103825260268152602001806126ec6026913960400191505060405180910390fd5b6001600160a01b0385811660009081526001602052604090205416610b175760405162461bcd60e51b81526004018080602001828103825260368152602001806127d16036913960400191505060405180910390fd5b610b23853330866117b9565b610b2d858461193b565b6001600160a01b03808616600090815260016020526040902054610b5391168585611aed565b5050505050565b6001602052600090815260409020546001600160a01b031681565b610b7f8282610bf6565b15610bd1576040805162461bcd60e51b815260206004820152601f60248201527f526f6c65733a206163636f756e7420616c72656164792068617320726f6c6500604482015290519081900360640190fd5b6001600160a01b0316600090815260209190915260409020805460ff19166001179055565b60006001600160a01b038216610c3d5760405162461bcd60e51b815260040180806020018281038252602281526020018061268f6022913960400191505060405180910390fd5b506001600160a01b03166000908152602091909152604090205460ff1690565b610c678282610bf6565b610ca25760405162461bcd60e51b81526004018080602001828103825260218152602001806126476021913960400191505060405180910390fd5b6001600160a01b0316600090815260209190915260409020805460ff19169055565b610cce8484611c7d565b6000846001600160a01b0316630dfe16816040518163ffffffff1660e01b815260040160206040518083038186803b158015610d0957600080fd5b505afa158015610d1d573d6000803e3d6000fd5b505050506040513d6020811015610d3357600080fd5b505160408051630dfe168160e01b815290519192506001600160a01b03861691630dfe168191600480820192602092909190829003018186803b158015610d7957600080fd5b505afa158015610d8d573d6000803e3d6000fd5b505050506040513d6020811015610da357600080fd5b505160408051630dfe168160e01b815290516001600160a01b0392831692881691630dfe1681916004808301926020929190829003018186803b158015610de957600080fd5b505afa158015610dfd573d6000803e3d6000fd5b505050506040513d6020811015610e1357600080fd5b50516001600160a01b03161480610f055750836001600160a01b031663d21220a76040518163ffffffff1660e01b815260040160206040518083038186803b158015610e5e57600080fd5b505afa158015610e72573d6000803e3d6000fd5b505050506040513d6020811015610e8857600080fd5b505160408051630dfe168160e01b815290516001600160a01b0392831692881691630dfe1681916004808301926020929190829003018186803b158015610ece57600080fd5b505afa158015610ee2573d6000803e3d6000fd5b505050506040513d6020811015610ef857600080fd5b50516001600160a01b0316145b15610f7257846001600160a01b031663d21220a76040518163ffffffff1660e01b815260040160206040518083038186803b158015610f4357600080fd5b505afa158015610f57573d6000803e3d6000fd5b505050506040513d6020811015610f6d57600080fd5b505190505b6001600160a01b038082166000908152600160205260409020541680610fc95760405162461bcd60e51b81526004018080602001828103825260438152602001806127566043913960600191505060405180910390fd5b846001600160a01b0316630dfe16816040518163ffffffff1660e01b815260040160206040518083038186803b15801561100257600080fd5b505afa158015611016573d6000803e3d6000fd5b505050506040513d602081101561102c57600080fd5b50516001600160a01b03828116911614806110b65750846001600160a01b031663d21220a76040518163ffffffff1660e01b815260040160206040518083038186803b15801561107b57600080fd5b505afa15801561108f573d6000803e3d6000fd5b505050506040513d60208110156110a557600080fd5b50516001600160a01b038281169116145b6110f15760405162461bcd60e51b81526004018080602001828103825260458152602001806124326045913960600191505060405180910390fd5b6000806110fe8886612124565b915091506000829050886001600160a01b0316630dfe16816040518163ffffffff1660e01b815260040160206040518083038186803b15801561114057600080fd5b505afa158015611154573d6000803e3d6000fd5b505050506040513d602081101561116a57600080fd5b50516001600160a01b038681169116146111815750805b61118b858261193b565b50866001600160a01b0316630dfe16816040518163ffffffff1660e01b815260040160206040518083038186803b1580156111c557600080fd5b505afa1580156111d9573d6000803e3d6000fd5b505050506040513d60208110156111ef57600080fd5b505160408051630dfe168160e01b815290516001600160a01b03928316928b1691630dfe1681916004808301926020929190829003018186803b15801561123557600080fd5b505afa158015611249573d6000803e3d6000fd5b505050506040513d602081101561125f57600080fd5b50516001600160a01b0316148015906113545750866001600160a01b031663d21220a76040518163ffffffff1660e01b815260040160206040518083038186803b1580156112ac57600080fd5b505afa1580156112c0573d6000803e3d6000fd5b505050506040513d60208110156112d657600080fd5b50516040805163d21220a760e01b815290516001600160a01b03928316928b169163d21220a7916004808301926020929190829003018186803b15801561131c57600080fd5b505afa158015611330573d6000803e3d6000fd5b505050506040513d602081101561134657600080fd5b50516001600160a01b031614155b1561135b57905b60008061143b898a6001600160a01b0316630dfe16816040518163ffffffff1660e01b815260040160206040518083038186803b15801561139b57600080fd5b505afa1580156113af573d6000803e3d6000fd5b505050506040513d60208110156113c557600080fd5b50516040805163d21220a760e01b815290516001600160a01b038e169163d21220a7916004808301926020929190829003018186803b15801561140757600080fd5b505afa15801561141b573d6000803e3d6000fd5b505050506040513d602081101561143157600080fd5b505187878d6121ce565b50909250905081156114b6576114b6896001600160a01b0316630dfe16816040518163ffffffff1660e01b815260040160206040518083038186803b15801561148357600080fd5b505afa158015611497573d6000803e3d6000fd5b505050506040513d60208110156114ad57600080fd5b50518984611aed565b801561152b5761152b896001600160a01b031663d21220a76040518163ffffffff1660e01b815260040160206040518083038186803b1580156114f857600080fd5b505afa15801561150c573d6000803e3d6000fd5b505050506040513d602081101561152257600080fd5b50518983611aed565b50505050505050505050565b816001600160a01b031663095ea7b3826000196040518363ffffffff1660e01b815260040180836001600160a01b0316815260200182815260200192505050602060405180830381600087803b15801561159057600080fd5b505af11580156115a4573d6000803e3d6000fd5b505050506040513d60208110156115ba57600080fd5b50505050565b600080600080856001600160a01b0316630902f1ac6040518163ffffffff1660e01b815260040160606040518083038186803b1580156115ff57600080fd5b505afa158015611613573d6000803e3d6000fd5b505050506040513d606081101561162957600080fd5b508051602091820151604080517f18160ddd00000000000000000000000000000000000000000000000000000000815290519295509093506000926001600160a01b038a16926318160ddd926004808201939291829003018186803b15801561169157600080fd5b505afa1580156116a5573d6000803e3d6000fd5b505050506040513d60208110156116bb57600080fd5b50519050806116da876dffffffffffffffffffffffffffff8616612353565b816116e157fe5b049450806116ff876dffffffffffffffffffffffffffff8516612353565b8161170657fe5b0493505050509250929050565b60008084116117535760405162461bcd60e51b81526004018080602001828103825260248152602001806126236024913960400191505060405180910390fd5b6000831180156117635750600082115b61179e5760405162461bcd60e51b81526004018080602001828103825260278152602001806126686027913960400191505060405180910390fd5b826117a98584612353565b816117b057fe5b04949350505050565b604080516001600160a01b0385811660248301528481166044830152606480830185905283518084039091018152608490920183526020820180517bffffffffffffffffffffffffffffffffffffffffffffffffffffffff167f23b872dd00000000000000000000000000000000000000000000000000000000178152925182516000948594938a169392918291908083835b6020831061186b5780518252601f19909201916020918201910161184c565b6001836020036101000a0380198251168184511680821785525050505050509050019150506000604051808303816000865af19150503d80600081146118cd576040519150601f19603f3d011682016040523d82523d6000602084013e6118d2565b606091505b509150915081801561190057508051158061190057508080602001905160208110156118fd57600080fd5b50515b6103bf5760405162461bcd60e51b815260040180806020018281038252602481526020018061283f6024913960400191505060405180910390fd5b6001600160a01b0382166119805760405162461bcd60e51b815260040180806020018281038252603b8152602001806126b1603b913960400191505060405180910390fd5b6001600160a01b038083166000818152600160205260408082205481517fd004f0f7000000000000000000000000000000000000000000000000000000008152600481019490945260248401869052905193169263d004f0f792604480820193929182900301818387803b1580156119f757600080fd5b505af1158015611a0b573d6000803e3d6000fd5b5050506001600160a01b038084166000908152600160209081526040918290205482517f70a0823100000000000000000000000000000000000000000000000000000000815230600482015292518695509316926370a08231926024808201939291829003018186803b158015611a8157600080fd5b505afa158015611a95573d6000803e3d6000fd5b505050506040513d6020811015611aab57600080fd5b505114611ae95760405162461bcd60e51b815260040180806020018281038252603e8152602001806124bf603e913960400191505060405180910390fd5b5050565b604080516001600160a01b038481166024830152604480830185905283518084039091018152606490920183526020820180517bffffffffffffffffffffffffffffffffffffffffffffffffffffffff167fa9059cbb000000000000000000000000000000000000000000000000000000001781529251825160009485949389169392918291908083835b60208310611b975780518252601f199092019160209182019101611b78565b6001836020036101000a0380198251168184511680821785525050505050509050019150506000604051808303816000865af19150503d8060008114611bf9576040519150601f19603f3d011682016040523d82523d6000602084013e611bfe565b606091505b5091509150818015611c2c575080511580611c2c5750808060200190516020811015611c2957600080fd5b50515b610b53576040805162461bcd60e51b815260206004820152601f60248201527f5472616e7366657248656c7065723a205452414e534645525f4641494c454400604482015290519081900360640190fd5b6001600160a01b038216611cc25760405162461bcd60e51b815260040180806020018281038252603a815260200180612544603a913960400191505060405180910390fd5b6001600160a01b038216611d075760405162461bcd60e51b81526004018080602001828103825260388152602001806127996038913960400191505060405180910390fd5b806001600160a01b0316826001600160a01b03161415611d585760405162461bcd60e51b81526004018080602001828103825260478152602001806124fd6047913960600191505060405180910390fd5b806001600160a01b0316630dfe16816040518163ffffffff1660e01b815260040160206040518083038186803b158015611d9157600080fd5b505afa158015611da5573d6000803e3d6000fd5b505050506040513d6020811015611dbb57600080fd5b505160408051630dfe168160e01b815290516001600160a01b0392831692851691630dfe1681916004808301926020929190829003018186803b158015611e0157600080fd5b505afa158015611e15573d6000803e3d6000fd5b505050506040513d6020811015611e2b57600080fd5b50516001600160a01b03161480611f1d5750806001600160a01b031663d21220a76040518163ffffffff1660e01b815260040160206040518083038186803b158015611e7657600080fd5b505afa158015611e8a573d6000803e3d6000fd5b505050506040513d6020811015611ea057600080fd5b505160408051630dfe168160e01b815290516001600160a01b0392831692851691630dfe1681916004808301926020929190829003018186803b158015611ee657600080fd5b505afa158015611efa573d6000803e3d6000fd5b505050506040513d6020811015611f1057600080fd5b50516001600160a01b0316145b806120035750806001600160a01b0316630dfe16816040518163ffffffff1660e01b815260040160206040518083038186803b158015611f5c57600080fd5b505afa158015611f70573d6000803e3d6000fd5b505050506040513d6020811015611f8657600080fd5b50516040805163d21220a760e01b815290516001600160a01b039283169285169163d21220a7916004808301926020929190829003018186803b158015611fcc57600080fd5b505afa158015611fe0573d6000803e3d6000fd5b505050506040513d6020811015611ff657600080fd5b50516001600160a01b0316145b806120e95750806001600160a01b031663d21220a76040518163ffffffff1660e01b815260040160206040518083038186803b15801561204257600080fd5b505afa158015612056573d6000803e3d6000fd5b505050506040513d602081101561206c57600080fd5b50516040805163d21220a760e01b815290516001600160a01b039283169285169163d21220a7916004808301926020929190829003018186803b1580156120b257600080fd5b505afa1580156120c6573d6000803e3d6000fd5b505050506040513d60208110156120dc57600080fd5b50516001600160a01b0316145b611ae95760405162461bcd60e51b81526004018080602001828103825260448152602001806127126044913960600191505060405180910390fd5b600080612133843386866117b9565b604080517f89afcb4400000000000000000000000000000000000000000000000000000000815230600482015281516001600160a01b038716926389afcb4492602480820193918290030181600087803b15801561219057600080fd5b505af11580156121a4573d6000803e3d6000fd5b505050506040513d60408110156121ba57600080fd5b508051602090910151909590945092505050565b60008060008060008a6001600160a01b0316630902f1ac6040518163ffffffff1660e01b815260040160606040518083038186803b15801561220f57600080fd5b505afa158015612223573d6000803e3d6000fd5b505050506040513d606081101561223957600080fd5b5080516020909101519092509050876000612268826dffffffffffffffffffffffffffff808716908616611713565b9050888111156122a3578890506122a089846dffffffffffffffffffffffffffff16866dffffffffffffffffffffffffffff16611713565b91505b6122ae8c8e84611aed565b6122b98b8e83611aed565b818a03965080890395508c6001600160a01b0316636a627842896040518263ffffffff1660e01b815260040180826001600160a01b03168152602001915050602060405180830381600087803b15801561231257600080fd5b505af1158015612326573d6000803e3d6000fd5b505050506040513d602081101561233c57600080fd5b5051969d959c50959a509398505050505050505050565b600081158061236e5750508082028282828161236b57fe5b04145b61036d576040805162461bcd60e51b815260206004820152601460248201527f64732d6d6174682d6d756c2d6f766572666c6f77000000000000000000000000604482015290519081900360640190fdfe4b616c79737761704272696467654d6967726174696f6e526f757465723a20416464726573732030206e6f7420616c6c6f7765644b616c79737761704272696467654d6967726174696f6e526f757465723a206d69677261746f72416464726573732030206e6f7420737570706f727465644b616c79737761704272696467654d6967726174696f6e526f757465723a205061697220646f65736e2774206d6174636820746865206d6967726174696f6e20746f6b656e4b616c79737761704272696467654d6967726174696f6e526f757465723a206c69717569646974795061697246726f6d20616464726573732030206e6f7420737570706f727465644b616c79737761704272696467654d6967726174696f6e526f757465723a204469646e2774207969656c642074686520636f727265637420616d6f756e744b616c79737761704272696467654d6967726174696f6e526f757465723a2043616e7420636f6e7665727420746f207468652073616d65206c69717569646974792070616972734b616c79737761704272696467654d6967726174696f6e526f757465723a206c69717569646974795061697246726f6d206164647265737320304b616c79737761704272696467654d6967726174696f6e526f757465723a206c697175696469747950616972546f20616464726573732030206e6f7420737570706f72746564546865206d69677261746f7220646f65736e27742068617665207377617020737570706c7920666f72207468697320746f6b656e4b616c79737761704272696467654d6967726174696f6e526f757465723a20556e617574686f72697a65644b616c79737761704c6962726172793a20494e53554646494349454e545f414d4f554e54526f6c65733a206163636f756e7420646f6573206e6f74206861766520726f6c654b616c79737761704c6962726172793a20494e53554646494349454e545f4c4951554944495459526f6c65733a206163636f756e7420697320746865207a65726f20616464726573734b616c79737761704272696467654d6967726174696f6e526f757465723a20746f6b656e416464726573732030206e6f7420737570706f727465644b616c79737761704272696467654d6967726174696f6e526f757465723a20455850495245444b616c79737761704272696467654d6967726174696f6e526f757465723a205061697220646f6573206e6f742068617665206f6e6520746f6b656e206d61746368696e674b616c79737761704272696467654d6967726174696f6e526f757465723a204d69677261746f72206e6f74207265676973746572656420666f722074686520706169724b616c79737761704272696467654d6967726174696f6e526f757465723a206c697175696469747950616972546f206164647265737320304b616c79737761704272696467654d6967726174696f6e526f757465723a206d69677261746f72206e6f7420726567697374657265644b616c79737761704272696467654d6967726174696f6e526f757465723a20596f752063616e27742064656d6f746520796f757273656c665472616e7366657248656c7065723a205452414e534645525f46524f4d5f4641494c4544a26469706673582212201ea0e23c7e5e8d734f0178778f713202f67b07e43430df89de470075fc9488ba64736f6c63430007060033526f6c65733a206163636f756e7420697320746865207a65726f2061646472657373",
					"opcodes": "PUSH1 0x80 PUSH1 0x40 MSTORE CALLVALUE DUP1 ISZERO PUSH3 0x11 JUMPI PUSH1 0x0 DUP1 REVERT JUMPDEST POP PUSH3 0x2D CALLER PUSH1 0x0 PUSH3 0x33 PUSH1 0x20 SHL PUSH3 0xB75 OR SWAP1 SWAP2 SWAP1 PUSH1 0x20 SHR JUMP JUMPDEST PUSH3 0x120 JUMP JUMPDEST PUSH3 0x3F DUP3 DUP3 PUSH3 0xB7 JUMP JUMPDEST ISZERO PUSH3 0x92 JUMPI PUSH1 0x40 DUP1 MLOAD PUSH3 0x461BCD PUSH1 0xE5 SHL DUP2 MSTORE PUSH1 0x20 PUSH1 0x4 DUP3 ADD MSTORE PUSH1 0x1F PUSH1 0x24 DUP3 ADD MSTORE PUSH32 0x526F6C65733A206163636F756E7420616C72656164792068617320726F6C6500 PUSH1 0x44 DUP3 ADD MSTORE SWAP1 MLOAD SWAP1 DUP2 SWAP1 SUB PUSH1 0x64 ADD SWAP1 REVERT JUMPDEST PUSH1 0x1 PUSH1 0x1 PUSH1 0xA0 SHL SUB AND PUSH1 0x0 SWAP1 DUP2 MSTORE PUSH1 0x20 SWAP2 SWAP1 SWAP2 MSTORE PUSH1 0x40 SWAP1 KECCAK256 DUP1 SLOAD PUSH1 0xFF NOT AND PUSH1 0x1 OR SWAP1 SSTORE JUMP JUMPDEST PUSH1 0x0 PUSH1 0x1 PUSH1 0x1 PUSH1 0xA0 SHL SUB DUP3 AND PUSH3 0x100 JUMPI PUSH1 0x40 MLOAD PUSH3 0x461BCD PUSH1 0xE5 SHL DUP2 MSTORE PUSH1 0x4 ADD DUP1 DUP1 PUSH1 0x20 ADD DUP3 DUP2 SUB DUP3 MSTORE PUSH1 0x22 DUP2 MSTORE PUSH1 0x20 ADD DUP1 PUSH3 0x29C8 PUSH1 0x22 SWAP2 CODECOPY PUSH1 0x40 ADD SWAP2 POP POP PUSH1 0x40 MLOAD DUP1 SWAP2 SUB SWAP1 REVERT JUMPDEST POP PUSH1 0x1 PUSH1 0x1 PUSH1 0xA0 SHL SUB AND PUSH1 0x0 SWAP1 DUP2 MSTORE PUSH1 0x20 SWAP2 SWAP1 SWAP2 MSTORE PUSH1 0x40 SWAP1 KECCAK256 SLOAD PUSH1 0xFF AND SWAP1 JUMP JUMPDEST PUSH2 0x2898 DUP1 PUSH3 0x130 PUSH1 0x0 CODECOPY PUSH1 0x0 RETURN INVALID PUSH1 0x80 PUSH1 0x40 MSTORE CALLVALUE DUP1 ISZERO PUSH2 0x10 JUMPI PUSH1 0x0 DUP1 REVERT JUMPDEST POP PUSH1 0x4 CALLDATASIZE LT PUSH2 0xA3 JUMPI PUSH1 0x0 CALLDATALOAD PUSH1 0xE0 SHR DUP1 PUSH4 0x70480275 GT PUSH2 0x76 JUMPI DUP1 PUSH4 0xB032FFF7 GT PUSH2 0x5B JUMPI DUP1 PUSH4 0xB032FFF7 EQ PUSH2 0x1EF JUMPI DUP1 PUSH4 0xF057D237 EQ PUSH2 0x247 JUMPI DUP1 PUSH4 0xFFC50594 EQ PUSH2 0x283 JUMPI PUSH2 0xA3 JUMP JUMPDEST DUP1 PUSH4 0x70480275 EQ PUSH2 0x17A JUMPI DUP1 PUSH4 0x99A0DF82 EQ PUSH2 0x1A0 JUMPI PUSH2 0xA3 JUMP JUMPDEST DUP1 PUSH4 0x1785F53C EQ PUSH2 0xA8 JUMPI DUP1 PUSH4 0x24D7806C EQ PUSH2 0xD0 JUMPI DUP1 PUSH4 0x495952F5 EQ PUSH2 0x10A JUMPI DUP1 PUSH4 0x4C389D26 EQ PUSH2 0x14C JUMPI JUMPDEST PUSH1 0x0 DUP1 REVERT JUMPDEST PUSH2 0xCE PUSH1 0x4 DUP1 CALLDATASIZE SUB PUSH1 0x20 DUP2 LT ISZERO PUSH2 0xBE JUMPI PUSH1 0x0 DUP1 REVERT JUMPDEST POP CALLDATALOAD PUSH1 0x1 PUSH1 0x1 PUSH1 0xA0 SHL SUB AND PUSH2 0x2C5 JUMP JUMPDEST STOP JUMPDEST PUSH2 0xF6 PUSH1 0x4 DUP1 CALLDATASIZE SUB PUSH1 0x20 DUP2 LT ISZERO PUSH2 0xE6 JUMPI PUSH1 0x0 DUP1 REVERT JUMPDEST POP CALLDATALOAD PUSH1 0x1 PUSH1 0x1 PUSH1 0xA0 SHL SUB AND PUSH2 0x361 JUMP JUMPDEST PUSH1 0x40 DUP1 MLOAD SWAP2 ISZERO ISZERO DUP3 MSTORE MLOAD SWAP1 DUP2 SWAP1 SUB PUSH1 0x20 ADD SWAP1 RETURN JUMPDEST PUSH2 0xCE PUSH1 0x4 DUP1 CALLDATASIZE SUB PUSH1 0xA0 DUP2 LT ISZERO PUSH2 0x120 JUMPI PUSH1 0x0 DUP1 REVERT JUMPDEST POP PUSH1 0x1 PUSH1 0x1 PUSH1 0xA0 SHL SUB DUP2 CALLDATALOAD DUP2 AND SWAP2 PUSH1 0x20 DUP2 ADD CALLDATALOAD DUP3 AND SWAP2 PUSH1 0x40 DUP3 ADD CALLDATALOAD AND SWAP1 PUSH1 0x60 DUP2 ADD CALLDATALOAD SWAP1 PUSH1 0x80 ADD CALLDATALOAD PUSH2 0x373 JUMP JUMPDEST PUSH2 0xCE PUSH1 0x4 DUP1 CALLDATASIZE SUB PUSH1 0x40 DUP2 LT ISZERO PUSH2 0x162 JUMPI PUSH1 0x0 DUP1 REVERT JUMPDEST POP PUSH1 0x1 PUSH1 0x1 PUSH1 0xA0 SHL SUB DUP2 CALLDATALOAD DUP2 AND SWAP2 PUSH1 0x20 ADD CALLDATALOAD AND PUSH2 0x3C7 JUMP JUMPDEST PUSH2 0xCE PUSH1 0x4 DUP1 CALLDATASIZE SUB PUSH1 0x20 DUP2 LT ISZERO PUSH2 0x190 JUMPI PUSH1 0x0 DUP1 REVERT JUMPDEST POP CALLDATALOAD PUSH1 0x1 PUSH1 0x1 PUSH1 0xA0 SHL SUB AND PUSH2 0x5A1 JUMP JUMPDEST PUSH2 0x1D6 PUSH1 0x4 DUP1 CALLDATASIZE SUB PUSH1 0x60 DUP2 LT ISZERO PUSH2 0x1B6 JUMPI PUSH1 0x0 DUP1 REVERT JUMPDEST POP PUSH1 0x1 PUSH1 0x1 PUSH1 0xA0 SHL SUB DUP2 CALLDATALOAD DUP2 AND SWAP2 PUSH1 0x20 DUP2 ADD CALLDATALOAD SWAP1 SWAP2 AND SWAP1 PUSH1 0x40 ADD CALLDATALOAD PUSH2 0x637 JUMP JUMPDEST PUSH1 0x40 DUP1 MLOAD SWAP3 DUP4 MSTORE PUSH1 0x20 DUP4 ADD SWAP2 SWAP1 SWAP2 MSTORE DUP1 MLOAD SWAP2 DUP3 SWAP1 SUB ADD SWAP1 RETURN JUMPDEST PUSH2 0xCE PUSH1 0x4 DUP1 CALLDATASIZE SUB PUSH2 0x100 DUP2 LT ISZERO PUSH2 0x206 JUMPI PUSH1 0x0 DUP1 REVERT JUMPDEST POP PUSH1 0x1 PUSH1 0x1 PUSH1 0xA0 SHL SUB DUP2 CALLDATALOAD DUP2 AND SWAP2 PUSH1 0x20 DUP2 ADD CALLDATALOAD DUP3 AND SWAP2 PUSH1 0x40 DUP3 ADD CALLDATALOAD AND SWAP1 PUSH1 0x60 DUP2 ADD CALLDATALOAD SWAP1 PUSH1 0x80 DUP2 ADD CALLDATALOAD SWAP1 PUSH1 0xFF PUSH1 0xA0 DUP3 ADD CALLDATALOAD AND SWAP1 PUSH1 0xC0 DUP2 ADD CALLDATALOAD SWAP1 PUSH1 0xE0 ADD CALLDATALOAD PUSH2 0x987 JUMP JUMPDEST PUSH2 0xCE PUSH1 0x4 DUP1 CALLDATASIZE SUB PUSH1 0x80 DUP2 LT ISZERO PUSH2 0x25D JUMPI PUSH1 0x0 DUP1 REVERT JUMPDEST POP PUSH1 0x1 PUSH1 0x1 PUSH1 0xA0 SHL SUB DUP2 CALLDATALOAD DUP2 AND SWAP2 PUSH1 0x20 DUP2 ADD CALLDATALOAD SWAP1 SWAP2 AND SWAP1 PUSH1 0x40 DUP2 ADD CALLDATALOAD SWAP1 PUSH1 0x60 ADD CALLDATALOAD PUSH2 0xA81 JUMP JUMPDEST PUSH2 0x2A9 PUSH1 0x4 DUP1 CALLDATASIZE SUB PUSH1 0x20 DUP2 LT ISZERO PUSH2 0x299 JUMPI PUSH1 0x0 DUP1 REVERT JUMPDEST POP CALLDATALOAD PUSH1 0x1 PUSH1 0x1 PUSH1 0xA0 SHL SUB AND PUSH2 0xB5A JUMP JUMPDEST PUSH1 0x40 DUP1 MLOAD PUSH1 0x1 PUSH1 0x1 PUSH1 0xA0 SHL SUB SWAP1 SWAP3 AND DUP3 MSTORE MLOAD SWAP1 DUP2 SWAP1 SUB PUSH1 0x20 ADD SWAP1 RETURN JUMPDEST PUSH2 0x2D0 PUSH1 0x0 CALLER PUSH2 0xBF6 JUMP JUMPDEST PUSH2 0x30B JUMPI PUSH1 0x40 MLOAD PUSH3 0x461BCD PUSH1 0xE5 SHL DUP2 MSTORE PUSH1 0x4 ADD DUP1 DUP1 PUSH1 0x20 ADD DUP3 DUP2 SUB DUP3 MSTORE PUSH1 0x2B DUP2 MSTORE PUSH1 0x20 ADD DUP1 PUSH2 0x25F8 PUSH1 0x2B SWAP2 CODECOPY PUSH1 0x40 ADD SWAP2 POP POP PUSH1 0x40 MLOAD DUP1 SWAP2 SUB SWAP1 REVERT JUMPDEST CALLER PUSH1 0x1 PUSH1 0x1 PUSH1 0xA0 SHL SUB DUP3 AND EQ ISZERO PUSH2 0x353 JUMPI PUSH1 0x40 MLOAD PUSH3 0x461BCD PUSH1 0xE5 SHL DUP2 MSTORE PUSH1 0x4 ADD DUP1 DUP1 PUSH1 0x20 ADD DUP3 DUP2 SUB DUP3 MSTORE PUSH1 0x38 DUP2 MSTORE PUSH1 0x20 ADD DUP1 PUSH2 0x2807 PUSH1 0x38 SWAP2 CODECOPY PUSH1 0x40 ADD SWAP2 POP POP PUSH1 0x40 MLOAD DUP1 SWAP2 SUB SWAP1 REVERT JUMPDEST PUSH2 0x35E PUSH1 0x0 DUP3 PUSH2 0xC5D JUMP JUMPDEST POP JUMP JUMPDEST PUSH1 0x0 PUSH2 0x36D DUP2 DUP4 PUSH2 0xBF6 JUMP JUMPDEST SWAP3 SWAP2 POP POP JUMP JUMPDEST DUP1 TIMESTAMP DUP2 LT ISZERO PUSH2 0x3B3 JUMPI PUSH1 0x40 MLOAD PUSH3 0x461BCD PUSH1 0xE5 SHL DUP2 MSTORE PUSH1 0x4 ADD DUP1 DUP1 PUSH1 0x20 ADD DUP3 DUP2 SUB DUP3 MSTORE PUSH1 0x26 DUP2 MSTORE PUSH1 0x20 ADD DUP1 PUSH2 0x26EC PUSH1 0x26 SWAP2 CODECOPY PUSH1 0x40 ADD SWAP2 POP POP PUSH1 0x40 MLOAD DUP1 SWAP2 SUB SWAP1 REVERT JUMPDEST PUSH2 0x3BF DUP7 DUP7 DUP7 DUP7 PUSH2 0xCC4 JUMP JUMPDEST POP POP POP POP POP POP JUMP JUMPDEST PUSH2 0x3D2 PUSH1 0x0 CALLER PUSH2 0xBF6 JUMP JUMPDEST PUSH2 0x40D JUMPI PUSH1 0x40 MLOAD PUSH3 0x461BCD PUSH1 0xE5 SHL DUP2 MSTORE PUSH1 0x4 ADD DUP1 DUP1 PUSH1 0x20 ADD DUP3 DUP2 SUB DUP3 MSTORE PUSH1 0x2B DUP2 MSTORE PUSH1 0x20 ADD DUP1 PUSH2 0x25F8 PUSH1 0x2B SWAP2 CODECOPY PUSH1 0x40 ADD SWAP2 POP POP PUSH1 0x40 MLOAD DUP1 SWAP2 SUB SWAP1 REVERT JUMPDEST PUSH1 0x1 PUSH1 0x1 PUSH1 0xA0 SHL SUB DUP3 AND PUSH2 0x452 JUMPI PUSH1 0x40 MLOAD PUSH3 0x461BCD PUSH1 0xE5 SHL DUP2 MSTORE PUSH1 0x4 ADD DUP1 DUP1 PUSH1 0x20 ADD DUP3 DUP2 SUB DUP3 MSTORE PUSH1 0x3B DUP2 MSTORE PUSH1 0x20 ADD DUP1 PUSH2 0x26B1 PUSH1 0x3B SWAP2 CODECOPY PUSH1 0x40 ADD SWAP2 POP POP PUSH1 0x40 MLOAD DUP1 SWAP2 SUB SWAP1 REVERT JUMPDEST PUSH1 0x1 PUSH1 0x1 PUSH1 0xA0 SHL SUB DUP2 AND PUSH2 0x497 JUMPI PUSH1 0x40 MLOAD PUSH3 0x461BCD PUSH1 0xE5 SHL DUP2 MSTORE PUSH1 0x4 ADD DUP1 DUP1 PUSH1 0x20 ADD DUP3 DUP2 SUB DUP3 MSTORE PUSH1 0x3E DUP2 MSTORE PUSH1 0x20 ADD DUP1 PUSH2 0x23F4 PUSH1 0x3E SWAP2 CODECOPY PUSH1 0x40 ADD SWAP2 POP POP PUSH1 0x40 MLOAD DUP1 SWAP2 SUB SWAP1 REVERT JUMPDEST PUSH1 0x0 DUP2 PUSH1 0x1 PUSH1 0x1 PUSH1 0xA0 SHL SUB AND PUSH4 0xAB32DBB7 DUP5 PUSH1 0x40 MLOAD DUP3 PUSH4 0xFFFFFFFF AND PUSH1 0xE0 SHL DUP2 MSTORE PUSH1 0x4 ADD DUP1 DUP3 PUSH1 0x1 PUSH1 0x1 PUSH1 0xA0 SHL SUB AND DUP2 MSTORE PUSH1 0x20 ADD SWAP2 POP POP PUSH1 0x20 PUSH1 0x40 MLOAD DUP1 DUP4 SUB DUP2 DUP7 DUP1 EXTCODESIZE ISZERO DUP1 ISZERO PUSH2 0x4E6 JUMPI PUSH1 0x0 DUP1 REVERT JUMPDEST POP GAS STATICCALL ISZERO DUP1 ISZERO PUSH2 0x4FA JUMPI RETURNDATASIZE PUSH1 0x0 DUP1 RETURNDATACOPY RETURNDATASIZE PUSH1 0x0 REVERT JUMPDEST POP POP POP POP PUSH1 0x40 MLOAD RETURNDATASIZE PUSH1 0x20 DUP2 LT ISZERO PUSH2 0x510 JUMPI PUSH1 0x0 DUP1 REVERT JUMPDEST POP MLOAD SWAP1 POP DUP1 PUSH2 0x550 JUMPI PUSH1 0x40 MLOAD PUSH3 0x461BCD PUSH1 0xE5 SHL DUP2 MSTORE PUSH1 0x4 ADD DUP1 DUP1 PUSH1 0x20 ADD DUP3 DUP2 SUB DUP3 MSTORE PUSH1 0x34 DUP2 MSTORE PUSH1 0x20 ADD DUP1 PUSH2 0x25C4 PUSH1 0x34 SWAP2 CODECOPY PUSH1 0x40 ADD SWAP2 POP POP PUSH1 0x40 MLOAD DUP1 SWAP2 SUB SWAP1 REVERT JUMPDEST PUSH2 0x55A DUP4 DUP4 PUSH2 0x1537 JUMP JUMPDEST POP PUSH1 0x1 PUSH1 0x1 PUSH1 0xA0 SHL SUB SWAP2 DUP3 AND PUSH1 0x0 SWAP1 DUP2 MSTORE PUSH1 0x1 PUSH1 0x20 MSTORE PUSH1 0x40 SWAP1 KECCAK256 DUP1 SLOAD PUSH32 0xFFFFFFFFFFFFFFFFFFFFFFFF0000000000000000000000000000000000000000 AND SWAP2 SWAP1 SWAP3 AND OR SWAP1 SSTORE JUMP JUMPDEST PUSH2 0x5AC PUSH1 0x0 CALLER PUSH2 0xBF6 JUMP JUMPDEST PUSH2 0x5E7 JUMPI PUSH1 0x40 MLOAD PUSH3 0x461BCD PUSH1 0xE5 SHL DUP2 MSTORE PUSH1 0x4 ADD DUP1 DUP1 PUSH1 0x20 ADD DUP3 DUP2 SUB DUP3 MSTORE PUSH1 0x2B DUP2 MSTORE PUSH1 0x20 ADD DUP1 PUSH2 0x25F8 PUSH1 0x2B SWAP2 CODECOPY PUSH1 0x40 ADD SWAP2 POP POP PUSH1 0x40 MLOAD DUP1 SWAP2 SUB SWAP1 REVERT JUMPDEST PUSH1 0x1 PUSH1 0x1 PUSH1 0xA0 SHL SUB DUP2 AND PUSH2 0x62C JUMPI PUSH1 0x40 MLOAD PUSH3 0x461BCD PUSH1 0xE5 SHL DUP2 MSTORE PUSH1 0x4 ADD DUP1 DUP1 PUSH1 0x20 ADD DUP3 DUP2 SUB DUP3 MSTORE PUSH1 0x34 DUP2 MSTORE PUSH1 0x20 ADD DUP1 PUSH2 0x23C0 PUSH1 0x34 SWAP2 CODECOPY PUSH1 0x40 ADD SWAP2 POP POP PUSH1 0x40 MLOAD DUP1 SWAP2 SUB SWAP1 REVERT JUMPDEST PUSH2 0x35E PUSH1 0x0 DUP3 PUSH2 0xB75 JUMP JUMPDEST PUSH1 0x0 DUP1 PUSH1 0x1 PUSH1 0x1 PUSH1 0xA0 SHL SUB DUP6 AND PUSH2 0x67F JUMPI PUSH1 0x40 MLOAD PUSH3 0x461BCD PUSH1 0xE5 SHL DUP2 MSTORE PUSH1 0x4 ADD DUP1 DUP1 PUSH1 0x20 ADD DUP3 DUP2 SUB DUP3 MSTORE PUSH1 0x48 DUP2 MSTORE PUSH1 0x20 ADD DUP1 PUSH2 0x2477 PUSH1 0x48 SWAP2 CODECOPY PUSH1 0x60 ADD SWAP2 POP POP PUSH1 0x40 MLOAD DUP1 SWAP2 SUB SWAP1 REVERT JUMPDEST PUSH1 0x1 PUSH1 0x1 PUSH1 0xA0 SHL SUB DUP5 AND PUSH2 0x6C4 JUMPI PUSH1 0x40 MLOAD PUSH3 0x461BCD PUSH1 0xE5 SHL DUP2 MSTORE PUSH1 0x4 ADD DUP1 DUP1 PUSH1 0x20 ADD DUP3 DUP2 SUB DUP3 MSTORE PUSH1 0x46 DUP2 MSTORE PUSH1 0x20 ADD DUP1 PUSH2 0x257E PUSH1 0x46 SWAP2 CODECOPY PUSH1 0x60 ADD SWAP2 POP POP PUSH1 0x40 MLOAD DUP1 SWAP2 SUB SWAP1 REVERT JUMPDEST PUSH1 0x0 DUP1 PUSH2 0x6D1 DUP8 DUP7 PUSH2 0x15C0 JUMP JUMPDEST SWAP2 POP SWAP2 POP DUP6 PUSH1 0x1 PUSH1 0x1 PUSH1 0xA0 SHL SUB AND PUSH4 0xDFE1681 PUSH1 0x40 MLOAD DUP2 PUSH4 0xFFFFFFFF AND PUSH1 0xE0 SHL DUP2 MSTORE PUSH1 0x4 ADD PUSH1 0x20 PUSH1 0x40 MLOAD DUP1 DUP4 SUB DUP2 DUP7 DUP1 EXTCODESIZE ISZERO DUP1 ISZERO PUSH2 0x70E JUMPI PUSH1 0x0 DUP1 REVERT JUMPDEST POP GAS STATICCALL ISZERO DUP1 ISZERO PUSH2 0x722 JUMPI RETURNDATASIZE PUSH1 0x0 DUP1 RETURNDATACOPY RETURNDATASIZE PUSH1 0x0 REVERT JUMPDEST POP POP POP POP PUSH1 0x40 MLOAD RETURNDATASIZE PUSH1 0x20 DUP2 LT ISZERO PUSH2 0x738 JUMPI PUSH1 0x0 DUP1 REVERT JUMPDEST POP MLOAD PUSH1 0x40 DUP1 MLOAD PUSH4 0xDFE1681 PUSH1 0xE0 SHL DUP2 MSTORE SWAP1 MLOAD PUSH1 0x1 PUSH1 0x1 PUSH1 0xA0 SHL SUB SWAP3 DUP4 AND SWAP3 DUP11 AND SWAP2 PUSH4 0xDFE1681 SWAP2 PUSH1 0x4 DUP1 DUP4 ADD SWAP3 PUSH1 0x20 SWAP3 SWAP2 SWAP1 DUP3 SWAP1 SUB ADD DUP2 DUP7 DUP1 EXTCODESIZE ISZERO DUP1 ISZERO PUSH2 0x77E JUMPI PUSH1 0x0 DUP1 REVERT JUMPDEST POP GAS STATICCALL ISZERO DUP1 ISZERO PUSH2 0x792 JUMPI RETURNDATASIZE PUSH1 0x0 DUP1 RETURNDATACOPY RETURNDATASIZE PUSH1 0x0 REVERT JUMPDEST POP POP POP POP PUSH1 0x40 MLOAD RETURNDATASIZE PUSH1 0x20 DUP2 LT ISZERO PUSH2 0x7A8 JUMPI PUSH1 0x0 DUP1 REVERT JUMPDEST POP MLOAD PUSH1 0x1 PUSH1 0x1 PUSH1 0xA0 SHL SUB AND EQ DUP1 ISZERO SWAP1 PUSH2 0x89D JUMPI POP DUP6 PUSH1 0x1 PUSH1 0x1 PUSH1 0xA0 SHL SUB AND PUSH4 0xD21220A7 PUSH1 0x40 MLOAD DUP2 PUSH4 0xFFFFFFFF AND PUSH1 0xE0 SHL DUP2 MSTORE PUSH1 0x4 ADD PUSH1 0x20 PUSH1 0x40 MLOAD DUP1 DUP4 SUB DUP2 DUP7 DUP1 EXTCODESIZE ISZERO DUP1 ISZERO PUSH2 0x7F5 JUMPI PUSH1 0x0 DUP1 REVERT JUMPDEST POP GAS STATICCALL ISZERO DUP1 ISZERO PUSH2 0x809 JUMPI RETURNDATASIZE PUSH1 0x0 DUP1 RETURNDATACOPY RETURNDATASIZE PUSH1 0x0 REVERT JUMPDEST POP POP POP POP PUSH1 0x40 MLOAD RETURNDATASIZE PUSH1 0x20 DUP2 LT ISZERO PUSH2 0x81F JUMPI PUSH1 0x0 DUP1 REVERT JUMPDEST POP MLOAD PUSH1 0x40 DUP1 MLOAD PUSH4 0xD21220A7 PUSH1 0xE0 SHL DUP2 MSTORE SWAP1 MLOAD PUSH1 0x1 PUSH1 0x1 PUSH1 0xA0 SHL SUB SWAP3 DUP4 AND SWAP3 DUP11 AND SWAP2 PUSH4 0xD21220A7 SWAP2 PUSH1 0x4 DUP1 DUP4 ADD SWAP3 PUSH1 0x20 SWAP3 SWAP2 SWAP1 DUP3 SWAP1 SUB ADD DUP2 DUP7 DUP1 EXTCODESIZE ISZERO DUP1 ISZERO PUSH2 0x865 JUMPI PUSH1 0x0 DUP1 REVERT JUMPDEST POP GAS STATICCALL ISZERO DUP1 ISZERO PUSH2 0x879 JUMPI RETURNDATASIZE PUSH1 0x0 DUP1 RETURNDATACOPY RETURNDATASIZE PUSH1 0x0 REVERT JUMPDEST POP POP POP POP PUSH1 0x40 MLOAD RETURNDATASIZE PUSH1 0x20 DUP2 LT ISZERO PUSH2 0x88F JUMPI PUSH1 0x0 DUP1 REVERT JUMPDEST POP MLOAD PUSH1 0x1 PUSH1 0x1 PUSH1 0xA0 SHL SUB AND EQ ISZERO JUMPDEST ISZERO PUSH2 0x8A4 JUMPI SWAP1 JUMPDEST PUSH1 0x0 DUP1 DUP8 PUSH1 0x1 PUSH1 0x1 PUSH1 0xA0 SHL SUB AND PUSH4 0x902F1AC PUSH1 0x40 MLOAD DUP2 PUSH4 0xFFFFFFFF AND PUSH1 0xE0 SHL DUP2 MSTORE PUSH1 0x4 ADD PUSH1 0x60 PUSH1 0x40 MLOAD DUP1 DUP4 SUB DUP2 DUP7 DUP1 EXTCODESIZE ISZERO DUP1 ISZERO PUSH2 0x8E0 JUMPI PUSH1 0x0 DUP1 REVERT JUMPDEST POP GAS STATICCALL ISZERO DUP1 ISZERO PUSH2 0x8F4 JUMPI RETURNDATASIZE PUSH1 0x0 DUP1 RETURNDATACOPY RETURNDATASIZE PUSH1 0x0 REVERT JUMPDEST POP POP POP POP PUSH1 0x40 MLOAD RETURNDATASIZE PUSH1 0x60 DUP2 LT ISZERO PUSH2 0x90A JUMPI PUSH1 0x0 DUP1 REVERT JUMPDEST POP DUP1 MLOAD PUSH1 0x20 SWAP1 SWAP2 ADD MLOAD SWAP1 SWAP3 POP SWAP1 POP DUP4 PUSH1 0x0 PUSH2 0x939 DUP3 PUSH14 0xFFFFFFFFFFFFFFFFFFFFFFFFFFFF DUP1 DUP8 AND SWAP1 DUP7 AND PUSH2 0x1713 JUMP JUMPDEST SWAP1 POP DUP5 DUP2 GT ISZERO PUSH2 0x974 JUMPI DUP5 SWAP1 POP PUSH2 0x971 DUP6 DUP5 PUSH14 0xFFFFFFFFFFFFFFFFFFFFFFFFFFFF AND DUP7 PUSH14 0xFFFFFFFFFFFFFFFFFFFFFFFFFFFF AND PUSH2 0x1713 JUMP JUMPDEST SWAP2 POP JUMPDEST SWAP5 SUB SWAP10 SWAP4 SWAP1 SWAP3 SUB SWAP8 POP SWAP2 SWAP6 POP POP POP POP POP POP JUMP JUMPDEST DUP4 TIMESTAMP DUP2 LT ISZERO PUSH2 0x9C7 JUMPI PUSH1 0x40 MLOAD PUSH3 0x461BCD PUSH1 0xE5 SHL DUP2 MSTORE PUSH1 0x4 ADD DUP1 DUP1 PUSH1 0x20 ADD DUP3 DUP2 SUB DUP3 MSTORE PUSH1 0x26 DUP2 MSTORE PUSH1 0x20 ADD DUP1 PUSH2 0x26EC PUSH1 0x26 SWAP2 CODECOPY PUSH1 0x40 ADD SWAP2 POP POP PUSH1 0x40 MLOAD DUP1 SWAP2 SUB SWAP1 REVERT JUMPDEST PUSH1 0x40 DUP1 MLOAD PUSH32 0xD505ACCF00000000000000000000000000000000000000000000000000000000 DUP2 MSTORE CALLER PUSH1 0x4 DUP3 ADD MSTORE ADDRESS PUSH1 0x24 DUP3 ADD MSTORE PUSH1 0x44 DUP2 ADD DUP9 SWAP1 MSTORE PUSH1 0x64 DUP2 ADD DUP8 SWAP1 MSTORE PUSH1 0xFF DUP7 AND PUSH1 0x84 DUP3 ADD MSTORE PUSH1 0xA4 DUP2 ADD DUP6 SWAP1 MSTORE PUSH1 0xC4 DUP2 ADD DUP5 SWAP1 MSTORE SWAP1 MLOAD PUSH1 0x1 PUSH1 0x1 PUSH1 0xA0 SHL SUB DUP12 AND SWAP2 PUSH4 0xD505ACCF SWAP2 PUSH1 0xE4 DUP1 DUP4 ADD SWAP3 PUSH1 0x0 SWAP3 SWAP2 SWAP1 DUP3 SWAP1 SUB ADD DUP2 DUP4 DUP8 DUP1 EXTCODESIZE ISZERO DUP1 ISZERO PUSH2 0xA52 JUMPI PUSH1 0x0 DUP1 REVERT JUMPDEST POP GAS CALL ISZERO DUP1 ISZERO PUSH2 0xA66 JUMPI RETURNDATASIZE PUSH1 0x0 DUP1 RETURNDATACOPY RETURNDATASIZE PUSH1 0x0 REVERT JUMPDEST POP POP POP POP PUSH2 0xA76 DUP10 DUP10 DUP10 DUP10 PUSH2 0xCC4 JUMP JUMPDEST POP POP POP POP POP POP POP POP POP JUMP JUMPDEST DUP1 TIMESTAMP DUP2 LT ISZERO PUSH2 0xAC1 JUMPI PUSH1 0x40 MLOAD PUSH3 0x461BCD PUSH1 0xE5 SHL DUP2 MSTORE PUSH1 0x4 ADD DUP1 DUP1 PUSH1 0x20 ADD DUP3 DUP2 SUB DUP3 MSTORE PUSH1 0x26 DUP2 MSTORE PUSH1 0x20 ADD DUP1 PUSH2 0x26EC PUSH1 0x26 SWAP2 CODECOPY PUSH1 0x40 ADD SWAP2 POP POP PUSH1 0x40 MLOAD DUP1 SWAP2 SUB SWAP1 REVERT JUMPDEST PUSH1 0x1 PUSH1 0x1 PUSH1 0xA0 SHL SUB DUP6 DUP2 AND PUSH1 0x0 SWAP1 DUP2 MSTORE PUSH1 0x1 PUSH1 0x20 MSTORE PUSH1 0x40 SWAP1 KECCAK256 SLOAD AND PUSH2 0xB17 JUMPI PUSH1 0x40 MLOAD PUSH3 0x461BCD PUSH1 0xE5 SHL DUP2 MSTORE PUSH1 0x4 ADD DUP1 DUP1 PUSH1 0x20 ADD DUP3 DUP2 SUB DUP3 MSTORE PUSH1 0x36 DUP2 MSTORE PUSH1 0x20 ADD DUP1 PUSH2 0x27D1 PUSH1 0x36 SWAP2 CODECOPY PUSH1 0x40 ADD SWAP2 POP POP PUSH1 0x40 MLOAD DUP1 SWAP2 SUB SWAP1 REVERT JUMPDEST PUSH2 0xB23 DUP6 CALLER ADDRESS DUP7 PUSH2 0x17B9 JUMP JUMPDEST PUSH2 0xB2D DUP6 DUP5 PUSH2 0x193B JUMP JUMPDEST PUSH1 0x1 PUSH1 0x1 PUSH1 0xA0 SHL SUB DUP1 DUP7 AND PUSH1 0x0 SWAP1 DUP2 MSTORE PUSH1 0x1 PUSH1 0x20 MSTORE PUSH1 0x40 SWAP1 KECCAK256 SLOAD PUSH2 0xB53 SWAP2 AND DUP6 DUP6 PUSH2 0x1AED JUMP JUMPDEST POP POP POP POP POP JUMP JUMPDEST PUSH1 0x1 PUSH1 0x20 MSTORE PUSH1 0x0 SWAP1 DUP2 MSTORE PUSH1 0x40 SWAP1 KECCAK256 SLOAD PUSH1 0x1 PUSH1 0x1 PUSH1 0xA0 SHL SUB AND DUP2 JUMP JUMPDEST PUSH2 0xB7F DUP3 DUP3 PUSH2 0xBF6 JUMP JUMPDEST ISZERO PUSH2 0xBD1 JUMPI PUSH1 0x40 DUP1 MLOAD PUSH3 0x461BCD PUSH1 0xE5 SHL DUP2 MSTORE PUSH1 0x20 PUSH1 0x4 DUP3 ADD MSTORE PUSH1 0x1F PUSH1 0x24 DUP3 ADD MSTORE PUSH32 0x526F6C65733A206163636F756E7420616C72656164792068617320726F6C6500 PUSH1 0x44 DUP3 ADD MSTORE SWAP1 MLOAD SWAP1 DUP2 SWAP1 SUB PUSH1 0x64 ADD SWAP1 REVERT JUMPDEST PUSH1 0x1 PUSH1 0x1 PUSH1 0xA0 SHL SUB AND PUSH1 0x0 SWAP1 DUP2 MSTORE PUSH1 0x20 SWAP2 SWAP1 SWAP2 MSTORE PUSH1 0x40 SWAP1 KECCAK256 DUP1 SLOAD PUSH1 0xFF NOT AND PUSH1 0x1 OR SWAP1 SSTORE JUMP JUMPDEST PUSH1 0x0 PUSH1 0x1 PUSH1 0x1 PUSH1 0xA0 SHL SUB DUP3 AND PUSH2 0xC3D JUMPI PUSH1 0x40 MLOAD PUSH3 0x461BCD PUSH1 0xE5 SHL DUP2 MSTORE PUSH1 0x4 ADD DUP1 DUP1 PUSH1 0x20 ADD DUP3 DUP2 SUB DUP3 MSTORE PUSH1 0x22 DUP2 MSTORE PUSH1 0x20 ADD DUP1 PUSH2 0x268F PUSH1 0x22 SWAP2 CODECOPY PUSH1 0x40 ADD SWAP2 POP POP PUSH1 0x40 MLOAD DUP1 SWAP2 SUB SWAP1 REVERT JUMPDEST POP PUSH1 0x1 PUSH1 0x1 PUSH1 0xA0 SHL SUB AND PUSH1 0x0 SWAP1 DUP2 MSTORE PUSH1 0x20 SWAP2 SWAP1 SWAP2 MSTORE PUSH1 0x40 SWAP1 KECCAK256 SLOAD PUSH1 0xFF AND SWAP1 JUMP JUMPDEST PUSH2 0xC67 DUP3 DUP3 PUSH2 0xBF6 JUMP JUMPDEST PUSH2 0xCA2 JUMPI PUSH1 0x40 MLOAD PUSH3 0x461BCD PUSH1 0xE5 SHL DUP2 MSTORE PUSH1 0x4 ADD DUP1 DUP1 PUSH1 0x20 ADD DUP3 DUP2 SUB DUP3 MSTORE PUSH1 0x21 DUP2 MSTORE PUSH1 0x20 ADD DUP1 PUSH2 0x2647 PUSH1 0x21 SWAP2 CODECOPY PUSH1 0x40 ADD SWAP2 POP POP PUSH1 0x40 MLOAD DUP1 SWAP2 SUB SWAP1 REVERT JUMPDEST PUSH1 0x1 PUSH1 0x1 PUSH1 0xA0 SHL SUB AND PUSH1 0x0 SWAP1 DUP2 MSTORE PUSH1 0x20 SWAP2 SWAP1 SWAP2 MSTORE PUSH1 0x40 SWAP1 KECCAK256 DUP1 SLOAD PUSH1 0xFF NOT AND SWAP1 SSTORE JUMP JUMPDEST PUSH2 0xCCE DUP5 DUP5 PUSH2 0x1C7D JUMP JUMPDEST PUSH1 0x0 DUP5 PUSH1 0x1 PUSH1 0x1 PUSH1 0xA0 SHL SUB AND PUSH4 0xDFE1681 PUSH1 0x40 MLOAD DUP2 PUSH4 0xFFFFFFFF AND PUSH1 0xE0 SHL DUP2 MSTORE PUSH1 0x4 ADD PUSH1 0x20 PUSH1 0x40 MLOAD DUP1 DUP4 SUB DUP2 DUP7 DUP1 EXTCODESIZE ISZERO DUP1 ISZERO PUSH2 0xD09 JUMPI PUSH1 0x0 DUP1 REVERT JUMPDEST POP GAS STATICCALL ISZERO DUP1 ISZERO PUSH2 0xD1D JUMPI RETURNDATASIZE PUSH1 0x0 DUP1 RETURNDATACOPY RETURNDATASIZE PUSH1 0x0 REVERT JUMPDEST POP POP POP POP PUSH1 0x40 MLOAD RETURNDATASIZE PUSH1 0x20 DUP2 LT ISZERO PUSH2 0xD33 JUMPI PUSH1 0x0 DUP1 REVERT JUMPDEST POP MLOAD PUSH1 0x40 DUP1 MLOAD PUSH4 0xDFE1681 PUSH1 0xE0 SHL DUP2 MSTORE SWAP1 MLOAD SWAP2 SWAP3 POP PUSH1 0x1 PUSH1 0x1 PUSH1 0xA0 SHL SUB DUP7 AND SWAP2 PUSH4 0xDFE1681 SWAP2 PUSH1 0x4 DUP1 DUP3 ADD SWAP3 PUSH1 0x20 SWAP3 SWAP1 SWAP2 SWAP1 DUP3 SWAP1 SUB ADD DUP2 DUP7 DUP1 EXTCODESIZE ISZERO DUP1 ISZERO PUSH2 0xD79 JUMPI PUSH1 0x0 DUP1 REVERT JUMPDEST POP GAS STATICCALL ISZERO DUP1 ISZERO PUSH2 0xD8D JUMPI RETURNDATASIZE PUSH1 0x0 DUP1 RETURNDATACOPY RETURNDATASIZE PUSH1 0x0 REVERT JUMPDEST POP POP POP POP PUSH1 0x40 MLOAD RETURNDATASIZE PUSH1 0x20 DUP2 LT ISZERO PUSH2 0xDA3 JUMPI PUSH1 0x0 DUP1 REVERT JUMPDEST POP MLOAD PUSH1 0x40 DUP1 MLOAD PUSH4 0xDFE1681 PUSH1 0xE0 SHL DUP2 MSTORE SWAP1 MLOAD PUSH1 0x1 PUSH1 0x1 PUSH1 0xA0 SHL SUB SWAP3 DUP4 AND SWAP3 DUP9 AND SWAP2 PUSH4 0xDFE1681 SWAP2 PUSH1 0x4 DUP1 DUP4 ADD SWAP3 PUSH1 0x20 SWAP3 SWAP2 SWAP1 DUP3 SWAP1 SUB ADD DUP2 DUP7 DUP1 EXTCODESIZE ISZERO DUP1 ISZERO PUSH2 0xDE9 JUMPI PUSH1 0x0 DUP1 REVERT JUMPDEST POP GAS STATICCALL ISZERO DUP1 ISZERO PUSH2 0xDFD JUMPI RETURNDATASIZE PUSH1 0x0 DUP1 RETURNDATACOPY RETURNDATASIZE PUSH1 0x0 REVERT JUMPDEST POP POP POP POP PUSH1 0x40 MLOAD RETURNDATASIZE PUSH1 0x20 DUP2 LT ISZERO PUSH2 0xE13 JUMPI PUSH1 0x0 DUP1 REVERT JUMPDEST POP MLOAD PUSH1 0x1 PUSH1 0x1 PUSH1 0xA0 SHL SUB AND EQ DUP1 PUSH2 0xF05 JUMPI POP DUP4 PUSH1 0x1 PUSH1 0x1 PUSH1 0xA0 SHL SUB AND PUSH4 0xD21220A7 PUSH1 0x40 MLOAD DUP2 PUSH4 0xFFFFFFFF AND PUSH1 0xE0 SHL DUP2 MSTORE PUSH1 0x4 ADD PUSH1 0x20 PUSH1 0x40 MLOAD DUP1 DUP4 SUB DUP2 DUP7 DUP1 EXTCODESIZE ISZERO DUP1 ISZERO PUSH2 0xE5E JUMPI PUSH1 0x0 DUP1 REVERT JUMPDEST POP GAS STATICCALL ISZERO DUP1 ISZERO PUSH2 0xE72 JUMPI RETURNDATASIZE PUSH1 0x0 DUP1 RETURNDATACOPY RETURNDATASIZE PUSH1 0x0 REVERT JUMPDEST POP POP POP POP PUSH1 0x40 MLOAD RETURNDATASIZE PUSH1 0x20 DUP2 LT ISZERO PUSH2 0xE88 JUMPI PUSH1 0x0 DUP1 REVERT JUMPDEST POP MLOAD PUSH1 0x40 DUP1 MLOAD PUSH4 0xDFE1681 PUSH1 0xE0 SHL DUP2 MSTORE SWAP1 MLOAD PUSH1 0x1 PUSH1 0x1 PUSH1 0xA0 SHL SUB SWAP3 DUP4 AND SWAP3 DUP9 AND SWAP2 PUSH4 0xDFE1681 SWAP2 PUSH1 0x4 DUP1 DUP4 ADD SWAP3 PUSH1 0x20 SWAP3 SWAP2 SWAP1 DUP3 SWAP1 SUB ADD DUP2 DUP7 DUP1 EXTCODESIZE ISZERO DUP1 ISZERO PUSH2 0xECE JUMPI PUSH1 0x0 DUP1 REVERT JUMPDEST POP GAS STATICCALL ISZERO DUP1 ISZERO PUSH2 0xEE2 JUMPI RETURNDATASIZE PUSH1 0x0 DUP1 RETURNDATACOPY RETURNDATASIZE PUSH1 0x0 REVERT JUMPDEST POP POP POP POP PUSH1 0x40 MLOAD RETURNDATASIZE PUSH1 0x20 DUP2 LT ISZERO PUSH2 0xEF8 JUMPI PUSH1 0x0 DUP1 REVERT JUMPDEST POP MLOAD PUSH1 0x1 PUSH1 0x1 PUSH1 0xA0 SHL SUB AND EQ JUMPDEST ISZERO PUSH2 0xF72 JUMPI DUP5 PUSH1 0x1 PUSH1 0x1 PUSH1 0xA0 SHL SUB AND PUSH4 0xD21220A7 PUSH1 0x40 MLOAD DUP2 PUSH4 0xFFFFFFFF AND PUSH1 0xE0 SHL DUP2 MSTORE PUSH1 0x4 ADD PUSH1 0x20 PUSH1 0x40 MLOAD DUP1 DUP4 SUB DUP2 DUP7 DUP1 EXTCODESIZE ISZERO DUP1 ISZERO PUSH2 0xF43 JUMPI PUSH1 0x0 DUP1 REVERT JUMPDEST POP GAS STATICCALL ISZERO DUP1 ISZERO PUSH2 0xF57 JUMPI RETURNDATASIZE PUSH1 0x0 DUP1 RETURNDATACOPY RETURNDATASIZE PUSH1 0x0 REVERT JUMPDEST POP POP POP POP PUSH1 0x40 MLOAD RETURNDATASIZE PUSH1 0x20 DUP2 LT ISZERO PUSH2 0xF6D JUMPI PUSH1 0x0 DUP1 REVERT JUMPDEST POP MLOAD SWAP1 POP JUMPDEST PUSH1 0x1 PUSH1 0x1 PUSH1 0xA0 SHL SUB DUP1 DUP3 AND PUSH1 0x0 SWAP1 DUP2 MSTORE PUSH1 0x1 PUSH1 0x20 MSTORE PUSH1 0x40 SWAP1 KECCAK256 SLOAD AND DUP1 PUSH2 0xFC9 JUMPI PUSH1 0x40 MLOAD PUSH3 0x461BCD PUSH1 0xE5 SHL DUP2 MSTORE PUSH1 0x4 ADD DUP1 DUP1 PUSH1 0x20 ADD DUP3 DUP2 SUB DUP3 MSTORE PUSH1 0x43 DUP2 MSTORE PUSH1 0x20 ADD DUP1 PUSH2 0x2756 PUSH1 0x43 SWAP2 CODECOPY PUSH1 0x60 ADD SWAP2 POP POP PUSH1 0x40 MLOAD DUP1 SWAP2 SUB SWAP1 REVERT JUMPDEST DUP5 PUSH1 0x1 PUSH1 0x1 PUSH1 0xA0 SHL SUB AND PUSH4 0xDFE1681 PUSH1 0x40 MLOAD DUP2 PUSH4 0xFFFFFFFF AND PUSH1 0xE0 SHL DUP2 MSTORE PUSH1 0x4 ADD PUSH1 0x20 PUSH1 0x40 MLOAD DUP1 DUP4 SUB DUP2 DUP7 DUP1 EXTCODESIZE ISZERO DUP1 ISZERO PUSH2 0x1002 JUMPI PUSH1 0x0 DUP1 REVERT JUMPDEST POP GAS STATICCALL ISZERO DUP1 ISZERO PUSH2 0x1016 JUMPI RETURNDATASIZE PUSH1 0x0 DUP1 RETURNDATACOPY RETURNDATASIZE PUSH1 0x0 REVERT JUMPDEST POP POP POP POP PUSH1 0x40 MLOAD RETURNDATASIZE PUSH1 0x20 DUP2 LT ISZERO PUSH2 0x102C JUMPI PUSH1 0x0 DUP1 REVERT JUMPDEST POP MLOAD PUSH1 0x1 PUSH1 0x1 PUSH1 0xA0 SHL SUB DUP3 DUP2 AND SWAP2 AND EQ DUP1 PUSH2 0x10B6 JUMPI POP DUP5 PUSH1 0x1 PUSH1 0x1 PUSH1 0xA0 SHL SUB AND PUSH4 0xD21220A7 PUSH1 0x40 MLOAD DUP2 PUSH4 0xFFFFFFFF AND PUSH1 0xE0 SHL DUP2 MSTORE PUSH1 0x4 ADD PUSH1 0x20 PUSH1 0x40 MLOAD DUP1 DUP4 SUB DUP2 DUP7 DUP1 EXTCODESIZE ISZERO DUP1 ISZERO PUSH2 0x107B JUMPI PUSH1 0x0 DUP1 REVERT JUMPDEST POP GAS STATICCALL ISZERO DUP1 ISZERO PUSH2 0x108F JUMPI RETURNDATASIZE PUSH1 0x0 DUP1 RETURNDATACOPY RETURNDATASIZE PUSH1 0x0 REVERT JUMPDEST POP POP POP POP PUSH1 0x40 MLOAD RETURNDATASIZE PUSH1 0x20 DUP2 LT ISZERO PUSH2 0x10A5 JUMPI PUSH1 0x0 DUP1 REVERT JUMPDEST POP MLOAD PUSH1 0x1 PUSH1 0x1 PUSH1 0xA0 SHL SUB DUP3 DUP2 AND SWAP2 AND EQ JUMPDEST PUSH2 0x10F1 JUMPI PUSH1 0x40 MLOAD PUSH3 0x461BCD PUSH1 0xE5 SHL DUP2 MSTORE PUSH1 0x4 ADD DUP1 DUP1 PUSH1 0x20 ADD DUP3 DUP2 SUB DUP3 MSTORE PUSH1 0x45 DUP2 MSTORE PUSH1 0x20 ADD DUP1 PUSH2 0x2432 PUSH1 0x45 SWAP2 CODECOPY PUSH1 0x60 ADD SWAP2 POP POP PUSH1 0x40 MLOAD DUP1 SWAP2 SUB SWAP1 REVERT JUMPDEST PUSH1 0x0 DUP1 PUSH2 0x10FE DUP9 DUP7 PUSH2 0x2124 JUMP JUMPDEST SWAP2 POP SWAP2 POP PUSH1 0x0 DUP3 SWAP1 POP DUP9 PUSH1 0x1 PUSH1 0x1 PUSH1 0xA0 SHL SUB AND PUSH4 0xDFE1681 PUSH1 0x40 MLOAD DUP2 PUSH4 0xFFFFFFFF AND PUSH1 0xE0 SHL DUP2 MSTORE PUSH1 0x4 ADD PUSH1 0x20 PUSH1 0x40 MLOAD DUP1 DUP4 SUB DUP2 DUP7 DUP1 EXTCODESIZE ISZERO DUP1 ISZERO PUSH2 0x1140 JUMPI PUSH1 0x0 DUP1 REVERT JUMPDEST POP GAS STATICCALL ISZERO DUP1 ISZERO PUSH2 0x1154 JUMPI RETURNDATASIZE PUSH1 0x0 DUP1 RETURNDATACOPY RETURNDATASIZE PUSH1 0x0 REVERT JUMPDEST POP POP POP POP PUSH1 0x40 MLOAD RETURNDATASIZE PUSH1 0x20 DUP2 LT ISZERO PUSH2 0x116A JUMPI PUSH1 0x0 DUP1 REVERT JUMPDEST POP MLOAD PUSH1 0x1 PUSH1 0x1 PUSH1 0xA0 SHL SUB DUP7 DUP2 AND SWAP2 AND EQ PUSH2 0x1181 JUMPI POP DUP1 JUMPDEST PUSH2 0x118B DUP6 DUP3 PUSH2 0x193B JUMP JUMPDEST POP DUP7 PUSH1 0x1 PUSH1 0x1 PUSH1 0xA0 SHL SUB AND PUSH4 0xDFE1681 PUSH1 0x40 MLOAD DUP2 PUSH4 0xFFFFFFFF AND PUSH1 0xE0 SHL DUP2 MSTORE PUSH1 0x4 ADD PUSH1 0x20 PUSH1 0x40 MLOAD DUP1 DUP4 SUB DUP2 DUP7 DUP1 EXTCODESIZE ISZERO DUP1 ISZERO PUSH2 0x11C5 JUMPI PUSH1 0x0 DUP1 REVERT JUMPDEST POP GAS STATICCALL ISZERO DUP1 ISZERO PUSH2 0x11D9 JUMPI RETURNDATASIZE PUSH1 0x0 DUP1 RETURNDATACOPY RETURNDATASIZE PUSH1 0x0 REVERT JUMPDEST POP POP POP POP PUSH1 0x40 MLOAD RETURNDATASIZE PUSH1 0x20 DUP2 LT ISZERO PUSH2 0x11EF JUMPI PUSH1 0x0 DUP1 REVERT JUMPDEST POP MLOAD PUSH1 0x40 DUP1 MLOAD PUSH4 0xDFE1681 PUSH1 0xE0 SHL DUP2 MSTORE SWAP1 MLOAD PUSH1 0x1 PUSH1 0x1 PUSH1 0xA0 SHL SUB SWAP3 DUP4 AND SWAP3 DUP12 AND SWAP2 PUSH4 0xDFE1681 SWAP2 PUSH1 0x4 DUP1 DUP4 ADD SWAP3 PUSH1 0x20 SWAP3 SWAP2 SWAP1 DUP3 SWAP1 SUB ADD DUP2 DUP7 DUP1 EXTCODESIZE ISZERO DUP1 ISZERO PUSH2 0x1235 JUMPI PUSH1 0x0 DUP1 REVERT JUMPDEST POP GAS STATICCALL ISZERO DUP1 ISZERO PUSH2 0x1249 JUMPI RETURNDATASIZE PUSH1 0x0 DUP1 RETURNDATACOPY RETURNDATASIZE PUSH1 0x0 REVERT JUMPDEST POP POP POP POP PUSH1 0x40 MLOAD RETURNDATASIZE PUSH1 0x20 DUP2 LT ISZERO PUSH2 0x125F JUMPI PUSH1 0x0 DUP1 REVERT JUMPDEST POP MLOAD PUSH1 0x1 PUSH1 0x1 PUSH1 0xA0 SHL SUB AND EQ DUP1 ISZERO SWAP1 PUSH2 0x1354 JUMPI POP DUP7 PUSH1 0x1 PUSH1 0x1 PUSH1 0xA0 SHL SUB AND PUSH4 0xD21220A7 PUSH1 0x40 MLOAD DUP2 PUSH4 0xFFFFFFFF AND PUSH1 0xE0 SHL DUP2 MSTORE PUSH1 0x4 ADD PUSH1 0x20 PUSH1 0x40 MLOAD DUP1 DUP4 SUB DUP2 DUP7 DUP1 EXTCODESIZE ISZERO DUP1 ISZERO PUSH2 0x12AC JUMPI PUSH1 0x0 DUP1 REVERT JUMPDEST POP GAS STATICCALL ISZERO DUP1 ISZERO PUSH2 0x12C0 JUMPI RETURNDATASIZE PUSH1 0x0 DUP1 RETURNDATACOPY RETURNDATASIZE PUSH1 0x0 REVERT JUMPDEST POP POP POP POP PUSH1 0x40 MLOAD RETURNDATASIZE PUSH1 0x20 DUP2 LT ISZERO PUSH2 0x12D6 JUMPI PUSH1 0x0 DUP1 REVERT JUMPDEST POP MLOAD PUSH1 0x40 DUP1 MLOAD PUSH4 0xD21220A7 PUSH1 0xE0 SHL DUP2 MSTORE SWAP1 MLOAD PUSH1 0x1 PUSH1 0x1 PUSH1 0xA0 SHL SUB SWAP3 DUP4 AND SWAP3 DUP12 AND SWAP2 PUSH4 0xD21220A7 SWAP2 PUSH1 0x4 DUP1 DUP4 ADD SWAP3 PUSH1 0x20 SWAP3 SWAP2 SWAP1 DUP3 SWAP1 SUB ADD DUP2 DUP7 DUP1 EXTCODESIZE ISZERO DUP1 ISZERO PUSH2 0x131C JUMPI PUSH1 0x0 DUP1 REVERT JUMPDEST POP GAS STATICCALL ISZERO DUP1 ISZERO PUSH2 0x1330 JUMPI RETURNDATASIZE PUSH1 0x0 DUP1 RETURNDATACOPY RETURNDATASIZE PUSH1 0x0 REVERT JUMPDEST POP POP POP POP PUSH1 0x40 MLOAD RETURNDATASIZE PUSH1 0x20 DUP2 LT ISZERO PUSH2 0x1346 JUMPI PUSH1 0x0 DUP1 REVERT JUMPDEST POP MLOAD PUSH1 0x1 PUSH1 0x1 PUSH1 0xA0 SHL SUB AND EQ ISZERO JUMPDEST ISZERO PUSH2 0x135B JUMPI SWAP1 JUMPDEST PUSH1 0x0 DUP1 PUSH2 0x143B DUP10 DUP11 PUSH1 0x1 PUSH1 0x1 PUSH1 0xA0 SHL SUB AND PUSH4 0xDFE1681 PUSH1 0x40 MLOAD DUP2 PUSH4 0xFFFFFFFF AND PUSH1 0xE0 SHL DUP2 MSTORE PUSH1 0x4 ADD PUSH1 0x20 PUSH1 0x40 MLOAD DUP1 DUP4 SUB DUP2 DUP7 DUP1 EXTCODESIZE ISZERO DUP1 ISZERO PUSH2 0x139B JUMPI PUSH1 0x0 DUP1 REVERT JUMPDEST POP GAS STATICCALL ISZERO DUP1 ISZERO PUSH2 0x13AF JUMPI RETURNDATASIZE PUSH1 0x0 DUP1 RETURNDATACOPY RETURNDATASIZE PUSH1 0x0 REVERT JUMPDEST POP POP POP POP PUSH1 0x40 MLOAD RETURNDATASIZE PUSH1 0x20 DUP2 LT ISZERO PUSH2 0x13C5 JUMPI PUSH1 0x0 DUP1 REVERT JUMPDEST POP MLOAD PUSH1 0x40 DUP1 MLOAD PUSH4 0xD21220A7 PUSH1 0xE0 SHL DUP2 MSTORE SWAP1 MLOAD PUSH1 0x1 PUSH1 0x1 PUSH1 0xA0 SHL SUB DUP15 AND SWAP2 PUSH4 0xD21220A7 SWAP2 PUSH1 0x4 DUP1 DUP4 ADD SWAP3 PUSH1 0x20 SWAP3 SWAP2 SWAP1 DUP3 SWAP1 SUB ADD DUP2 DUP7 DUP1 EXTCODESIZE ISZERO DUP1 ISZERO PUSH2 0x1407 JUMPI PUSH1 0x0 DUP1 REVERT JUMPDEST POP GAS STATICCALL ISZERO DUP1 ISZERO PUSH2 0x141B JUMPI RETURNDATASIZE PUSH1 0x0 DUP1 RETURNDATACOPY RETURNDATASIZE PUSH1 0x0 REVERT JUMPDEST POP POP POP POP PUSH1 0x40 MLOAD RETURNDATASIZE PUSH1 0x20 DUP2 LT ISZERO PUSH2 0x1431 JUMPI PUSH1 0x0 DUP1 REVERT JUMPDEST POP MLOAD DUP8 DUP8 DUP14 PUSH2 0x21CE JUMP JUMPDEST POP SWAP1 SWAP3 POP SWAP1 POP DUP2 ISZERO PUSH2 0x14B6 JUMPI PUSH2 0x14B6 DUP10 PUSH1 0x1 PUSH1 0x1 PUSH1 0xA0 SHL SUB AND PUSH4 0xDFE1681 PUSH1 0x40 MLOAD DUP2 PUSH4 0xFFFFFFFF AND PUSH1 0xE0 SHL DUP2 MSTORE PUSH1 0x4 ADD PUSH1 0x20 PUSH1 0x40 MLOAD DUP1 DUP4 SUB DUP2 DUP7 DUP1 EXTCODESIZE ISZERO DUP1 ISZERO PUSH2 0x1483 JUMPI PUSH1 0x0 DUP1 REVERT JUMPDEST POP GAS STATICCALL ISZERO DUP1 ISZERO PUSH2 0x1497 JUMPI RETURNDATASIZE PUSH1 0x0 DUP1 RETURNDATACOPY RETURNDATASIZE PUSH1 0x0 REVERT JUMPDEST POP POP POP POP PUSH1 0x40 MLOAD RETURNDATASIZE PUSH1 0x20 DUP2 LT ISZERO PUSH2 0x14AD JUMPI PUSH1 0x0 DUP1 REVERT JUMPDEST POP MLOAD DUP10 DUP5 PUSH2 0x1AED JUMP JUMPDEST DUP1 ISZERO PUSH2 0x152B JUMPI PUSH2 0x152B DUP10 PUSH1 0x1 PUSH1 0x1 PUSH1 0xA0 SHL SUB AND PUSH4 0xD21220A7 PUSH1 0x40 MLOAD DUP2 PUSH4 0xFFFFFFFF AND PUSH1 0xE0 SHL DUP2 MSTORE PUSH1 0x4 ADD PUSH1 0x20 PUSH1 0x40 MLOAD DUP1 DUP4 SUB DUP2 DUP7 DUP1 EXTCODESIZE ISZERO DUP1 ISZERO PUSH2 0x14F8 JUMPI PUSH1 0x0 DUP1 REVERT JUMPDEST POP GAS STATICCALL ISZERO DUP1 ISZERO PUSH2 0x150C JUMPI RETURNDATASIZE PUSH1 0x0 DUP1 RETURNDATACOPY RETURNDATASIZE PUSH1 0x0 REVERT JUMPDEST POP POP POP POP PUSH1 0x40 MLOAD RETURNDATASIZE PUSH1 0x20 DUP2 LT ISZERO PUSH2 0x1522 JUMPI PUSH1 0x0 DUP1 REVERT JUMPDEST POP MLOAD DUP10 DUP4 PUSH2 0x1AED JUMP JUMPDEST POP POP POP POP POP POP POP POP POP POP JUMP JUMPDEST DUP2 PUSH1 0x1 PUSH1 0x1 PUSH1 0xA0 SHL SUB AND PUSH4 0x95EA7B3 DUP3 PUSH1 0x0 NOT PUSH1 0x40 MLOAD DUP4 PUSH4 0xFFFFFFFF AND PUSH1 0xE0 SHL DUP2 MSTORE PUSH1 0x4 ADD DUP1 DUP4 PUSH1 0x1 PUSH1 0x1 PUSH1 0xA0 SHL SUB AND DUP2 MSTORE PUSH1 0x20 ADD DUP3 DUP2 MSTORE PUSH1 0x20 ADD SWAP3 POP POP POP PUSH1 0x20 PUSH1 0x40 MLOAD DUP1 DUP4 SUB DUP2 PUSH1 0x0 DUP8 DUP1 EXTCODESIZE ISZERO DUP1 ISZERO PUSH2 0x1590 JUMPI PUSH1 0x0 DUP1 REVERT JUMPDEST POP GAS CALL ISZERO DUP1 ISZERO PUSH2 0x15A4 JUMPI RETURNDATASIZE PUSH1 0x0 DUP1 RETURNDATACOPY RETURNDATASIZE PUSH1 0x0 REVERT JUMPDEST POP POP POP POP PUSH1 0x40 MLOAD RETURNDATASIZE PUSH1 0x20 DUP2 LT ISZERO PUSH2 0x15BA JUMPI PUSH1 0x0 DUP1 REVERT JUMPDEST POP POP POP POP JUMP JUMPDEST PUSH1 0x0 DUP1 PUSH1 0x0 DUP1 DUP6 PUSH1 0x1 PUSH1 0x1 PUSH1 0xA0 SHL SUB AND PUSH4 0x902F1AC PUSH1 0x40 MLOAD DUP2 PUSH4 0xFFFFFFFF AND PUSH1 0xE0 SHL DUP2 MSTORE PUSH1 0x4 ADD PUSH1 0x60 PUSH1 0x40 MLOAD DUP1 DUP4 SUB DUP2 DUP7 DUP1 EXTCODESIZE ISZERO DUP1 ISZERO PUSH2 0x15FF JUMPI PUSH1 0x0 DUP1 REVERT JUMPDEST POP GAS STATICCALL ISZERO DUP1 ISZERO PUSH2 0x1613 JUMPI RETURNDATASIZE PUSH1 0x0 DUP1 RETURNDATACOPY RETURNDATASIZE PUSH1 0x0 REVERT JUMPDEST POP POP POP POP PUSH1 0x40 MLOAD RETURNDATASIZE PUSH1 0x60 DUP2 LT ISZERO PUSH2 0x1629 JUMPI PUSH1 0x0 DUP1 REVERT JUMPDEST POP DUP1 MLOAD PUSH1 0x20 SWAP2 DUP3 ADD MLOAD PUSH1 0x40 DUP1 MLOAD PUSH32 0x18160DDD00000000000000000000000000000000000000000000000000000000 DUP2 MSTORE SWAP1 MLOAD SWAP3 SWAP6 POP SWAP1 SWAP4 POP PUSH1 0x0 SWAP3 PUSH1 0x1 PUSH1 0x1 PUSH1 0xA0 SHL SUB DUP11 AND SWAP3 PUSH4 0x18160DDD SWAP3 PUSH1 0x4 DUP1 DUP3 ADD SWAP4 SWAP3 SWAP2 DUP3 SWAP1 SUB ADD DUP2 DUP7 DUP1 EXTCODESIZE ISZERO DUP1 ISZERO PUSH2 0x1691 JUMPI PUSH1 0x0 DUP1 REVERT JUMPDEST POP GAS STATICCALL ISZERO DUP1 ISZERO PUSH2 0x16A5 JUMPI RETURNDATASIZE PUSH1 0x0 DUP1 RETURNDATACOPY RETURNDATASIZE PUSH1 0x0 REVERT JUMPDEST POP POP POP POP PUSH1 0x40 MLOAD RETURNDATASIZE PUSH1 0x20 DUP2 LT ISZERO PUSH2 0x16BB JUMPI PUSH1 0x0 DUP1 REVERT JUMPDEST POP MLOAD SWAP1 POP DUP1 PUSH2 0x16DA DUP8 PUSH14 0xFFFFFFFFFFFFFFFFFFFFFFFFFFFF DUP7 AND PUSH2 0x2353 JUMP JUMPDEST DUP2 PUSH2 0x16E1 JUMPI INVALID JUMPDEST DIV SWAP5 POP DUP1 PUSH2 0x16FF DUP8 PUSH14 0xFFFFFFFFFFFFFFFFFFFFFFFFFFFF DUP6 AND PUSH2 0x2353 JUMP JUMPDEST DUP2 PUSH2 0x1706 JUMPI INVALID JUMPDEST DIV SWAP4 POP POP POP POP SWAP3 POP SWAP3 SWAP1 POP JUMP JUMPDEST PUSH1 0x0 DUP1 DUP5 GT PUSH2 0x1753 JUMPI PUSH1 0x40 MLOAD PUSH3 0x461BCD PUSH1 0xE5 SHL DUP2 MSTORE PUSH1 0x4 ADD DUP1 DUP1 PUSH1 0x20 ADD DUP3 DUP2 SUB DUP3 MSTORE PUSH1 0x24 DUP2 MSTORE PUSH1 0x20 ADD DUP1 PUSH2 0x2623 PUSH1 0x24 SWAP2 CODECOPY PUSH1 0x40 ADD SWAP2 POP POP PUSH1 0x40 MLOAD DUP1 SWAP2 SUB SWAP1 REVERT JUMPDEST PUSH1 0x0 DUP4 GT DUP1 ISZERO PUSH2 0x1763 JUMPI POP PUSH1 0x0 DUP3 GT JUMPDEST PUSH2 0x179E JUMPI PUSH1 0x40 MLOAD PUSH3 0x461BCD PUSH1 0xE5 SHL DUP2 MSTORE PUSH1 0x4 ADD DUP1 DUP1 PUSH1 0x20 ADD DUP3 DUP2 SUB DUP3 MSTORE PUSH1 0x27 DUP2 MSTORE PUSH1 0x20 ADD DUP1 PUSH2 0x2668 PUSH1 0x27 SWAP2 CODECOPY PUSH1 0x40 ADD SWAP2 POP POP PUSH1 0x40 MLOAD DUP1 SWAP2 SUB SWAP1 REVERT JUMPDEST DUP3 PUSH2 0x17A9 DUP6 DUP5 PUSH2 0x2353 JUMP JUMPDEST DUP2 PUSH2 0x17B0 JUMPI INVALID JUMPDEST DIV SWAP5 SWAP4 POP POP POP POP JUMP JUMPDEST PUSH1 0x40 DUP1 MLOAD PUSH1 0x1 PUSH1 0x1 PUSH1 0xA0 SHL SUB DUP6 DUP2 AND PUSH1 0x24 DUP4 ADD MSTORE DUP5 DUP2 AND PUSH1 0x44 DUP4 ADD MSTORE PUSH1 0x64 DUP1 DUP4 ADD DUP6 SWAP1 MSTORE DUP4 MLOAD DUP1 DUP5 SUB SWAP1 SWAP2 ADD DUP2 MSTORE PUSH1 0x84 SWAP1 SWAP3 ADD DUP4 MSTORE PUSH1 0x20 DUP3 ADD DUP1 MLOAD PUSH28 0xFFFFFFFFFFFFFFFFFFFFFFFFFFFFFFFFFFFFFFFFFFFFFFFFFFFFFFFF AND PUSH32 0x23B872DD00000000000000000000000000000000000000000000000000000000 OR DUP2 MSTORE SWAP3 MLOAD DUP3 MLOAD PUSH1 0x0 SWAP5 DUP6 SWAP5 SWAP4 DUP11 AND SWAP4 SWAP3 SWAP2 DUP3 SWAP2 SWAP1 DUP1 DUP4 DUP4 JUMPDEST PUSH1 0x20 DUP4 LT PUSH2 0x186B JUMPI DUP1 MLOAD DUP3 MSTORE PUSH1 0x1F NOT SWAP1 SWAP3 ADD SWAP2 PUSH1 0x20 SWAP2 DUP3 ADD SWAP2 ADD PUSH2 0x184C JUMP JUMPDEST PUSH1 0x1 DUP4 PUSH1 0x20 SUB PUSH2 0x100 EXP SUB DUP1 NOT DUP3 MLOAD AND DUP2 DUP5 MLOAD AND DUP1 DUP3 OR DUP6 MSTORE POP POP POP POP POP POP SWAP1 POP ADD SWAP2 POP POP PUSH1 0x0 PUSH1 0x40 MLOAD DUP1 DUP4 SUB DUP2 PUSH1 0x0 DUP7 GAS CALL SWAP2 POP POP RETURNDATASIZE DUP1 PUSH1 0x0 DUP2 EQ PUSH2 0x18CD JUMPI PUSH1 0x40 MLOAD SWAP2 POP PUSH1 0x1F NOT PUSH1 0x3F RETURNDATASIZE ADD AND DUP3 ADD PUSH1 0x40 MSTORE RETURNDATASIZE DUP3 MSTORE RETURNDATASIZE PUSH1 0x0 PUSH1 0x20 DUP5 ADD RETURNDATACOPY PUSH2 0x18D2 JUMP JUMPDEST PUSH1 0x60 SWAP2 POP JUMPDEST POP SWAP2 POP SWAP2 POP DUP2 DUP1 ISZERO PUSH2 0x1900 JUMPI POP DUP1 MLOAD ISZERO DUP1 PUSH2 0x1900 JUMPI POP DUP1 DUP1 PUSH1 0x20 ADD SWAP1 MLOAD PUSH1 0x20 DUP2 LT ISZERO PUSH2 0x18FD JUMPI PUSH1 0x0 DUP1 REVERT JUMPDEST POP MLOAD JUMPDEST PUSH2 0x3BF JUMPI PUSH1 0x40 MLOAD PUSH3 0x461BCD PUSH1 0xE5 SHL DUP2 MSTORE PUSH1 0x4 ADD DUP1 DUP1 PUSH1 0x20 ADD DUP3 DUP2 SUB DUP3 MSTORE PUSH1 0x24 DUP2 MSTORE PUSH1 0x20 ADD DUP1 PUSH2 0x283F PUSH1 0x24 SWAP2 CODECOPY PUSH1 0x40 ADD SWAP2 POP POP PUSH1 0x40 MLOAD DUP1 SWAP2 SUB SWAP1 REVERT JUMPDEST PUSH1 0x1 PUSH1 0x1 PUSH1 0xA0 SHL SUB DUP3 AND PUSH2 0x1980 JUMPI PUSH1 0x40 MLOAD PUSH3 0x461BCD PUSH1 0xE5 SHL DUP2 MSTORE PUSH1 0x4 ADD DUP1 DUP1 PUSH1 0x20 ADD DUP3 DUP2 SUB DUP3 MSTORE PUSH1 0x3B DUP2 MSTORE PUSH1 0x20 ADD DUP1 PUSH2 0x26B1 PUSH1 0x3B SWAP2 CODECOPY PUSH1 0x40 ADD SWAP2 POP POP PUSH1 0x40 MLOAD DUP1 SWAP2 SUB SWAP1 REVERT JUMPDEST PUSH1 0x1 PUSH1 0x1 PUSH1 0xA0 SHL SUB DUP1 DUP4 AND PUSH1 0x0 DUP2 DUP2 MSTORE PUSH1 0x1 PUSH1 0x20 MSTORE PUSH1 0x40 DUP1 DUP3 KECCAK256 SLOAD DUP2 MLOAD PUSH32 0xD004F0F700000000000000000000000000000000000000000000000000000000 DUP2 MSTORE PUSH1 0x4 DUP2 ADD SWAP5 SWAP1 SWAP5 MSTORE PUSH1 0x24 DUP5 ADD DUP7 SWAP1 MSTORE SWAP1 MLOAD SWAP4 AND SWAP3 PUSH4 0xD004F0F7 SWAP3 PUSH1 0x44 DUP1 DUP3 ADD SWAP4 SWAP3 SWAP2 DUP3 SWAP1 SUB ADD DUP2 DUP4 DUP8 DUP1 EXTCODESIZE ISZERO DUP1 ISZERO PUSH2 0x19F7 JUMPI PUSH1 0x0 DUP1 REVERT JUMPDEST POP GAS CALL ISZERO DUP1 ISZERO PUSH2 0x1A0B JUMPI RETURNDATASIZE PUSH1 0x0 DUP1 RETURNDATACOPY RETURNDATASIZE PUSH1 0x0 REVERT JUMPDEST POP POP POP PUSH1 0x1 PUSH1 0x1 PUSH1 0xA0 SHL SUB DUP1 DUP5 AND PUSH1 0x0 SWAP1 DUP2 MSTORE PUSH1 0x1 PUSH1 0x20 SWAP1 DUP2 MSTORE PUSH1 0x40 SWAP2 DUP3 SWAP1 KECCAK256 SLOAD DUP3 MLOAD PUSH32 0x70A0823100000000000000000000000000000000000000000000000000000000 DUP2 MSTORE ADDRESS PUSH1 0x4 DUP3 ADD MSTORE SWAP3 MLOAD DUP7 SWAP6 POP SWAP4 AND SWAP3 PUSH4 0x70A08231 SWAP3 PUSH1 0x24 DUP1 DUP3 ADD SWAP4 SWAP3 SWAP2 DUP3 SWAP1 SUB ADD DUP2 DUP7 DUP1 EXTCODESIZE ISZERO DUP1 ISZERO PUSH2 0x1A81 JUMPI PUSH1 0x0 DUP1 REVERT JUMPDEST POP GAS STATICCALL ISZERO DUP1 ISZERO PUSH2 0x1A95 JUMPI RETURNDATASIZE PUSH1 0x0 DUP1 RETURNDATACOPY RETURNDATASIZE PUSH1 0x0 REVERT JUMPDEST POP POP POP POP PUSH1 0x40 MLOAD RETURNDATASIZE PUSH1 0x20 DUP2 LT ISZERO PUSH2 0x1AAB JUMPI PUSH1 0x0 DUP1 REVERT JUMPDEST POP MLOAD EQ PUSH2 0x1AE9 JUMPI PUSH1 0x40 MLOAD PUSH3 0x461BCD PUSH1 0xE5 SHL DUP2 MSTORE PUSH1 0x4 ADD DUP1 DUP1 PUSH1 0x20 ADD DUP3 DUP2 SUB DUP3 MSTORE PUSH1 0x3E DUP2 MSTORE PUSH1 0x20 ADD DUP1 PUSH2 0x24BF PUSH1 0x3E SWAP2 CODECOPY PUSH1 0x40 ADD SWAP2 POP POP PUSH1 0x40 MLOAD DUP1 SWAP2 SUB SWAP1 REVERT JUMPDEST POP POP JUMP JUMPDEST PUSH1 0x40 DUP1 MLOAD PUSH1 0x1 PUSH1 0x1 PUSH1 0xA0 SHL SUB DUP5 DUP2 AND PUSH1 0x24 DUP4 ADD MSTORE PUSH1 0x44 DUP1 DUP4 ADD DUP6 SWAP1 MSTORE DUP4 MLOAD DUP1 DUP5 SUB SWAP1 SWAP2 ADD DUP2 MSTORE PUSH1 0x64 SWAP1 SWAP3 ADD DUP4 MSTORE PUSH1 0x20 DUP3 ADD DUP1 MLOAD PUSH28 0xFFFFFFFFFFFFFFFFFFFFFFFFFFFFFFFFFFFFFFFFFFFFFFFFFFFFFFFF AND PUSH32 0xA9059CBB00000000000000000000000000000000000000000000000000000000 OR DUP2 MSTORE SWAP3 MLOAD DUP3 MLOAD PUSH1 0x0 SWAP5 DUP6 SWAP5 SWAP4 DUP10 AND SWAP4 SWAP3 SWAP2 DUP3 SWAP2 SWAP1 DUP1 DUP4 DUP4 JUMPDEST PUSH1 0x20 DUP4 LT PUSH2 0x1B97 JUMPI DUP1 MLOAD DUP3 MSTORE PUSH1 0x1F NOT SWAP1 SWAP3 ADD SWAP2 PUSH1 0x20 SWAP2 DUP3 ADD SWAP2 ADD PUSH2 0x1B78 JUMP JUMPDEST PUSH1 0x1 DUP4 PUSH1 0x20 SUB PUSH2 0x100 EXP SUB DUP1 NOT DUP3 MLOAD AND DUP2 DUP5 MLOAD AND DUP1 DUP3 OR DUP6 MSTORE POP POP POP POP POP POP SWAP1 POP ADD SWAP2 POP POP PUSH1 0x0 PUSH1 0x40 MLOAD DUP1 DUP4 SUB DUP2 PUSH1 0x0 DUP7 GAS CALL SWAP2 POP POP RETURNDATASIZE DUP1 PUSH1 0x0 DUP2 EQ PUSH2 0x1BF9 JUMPI PUSH1 0x40 MLOAD SWAP2 POP PUSH1 0x1F NOT PUSH1 0x3F RETURNDATASIZE ADD AND DUP3 ADD PUSH1 0x40 MSTORE RETURNDATASIZE DUP3 MSTORE RETURNDATASIZE PUSH1 0x0 PUSH1 0x20 DUP5 ADD RETURNDATACOPY PUSH2 0x1BFE JUMP JUMPDEST PUSH1 0x60 SWAP2 POP JUMPDEST POP SWAP2 POP SWAP2 POP DUP2 DUP1 ISZERO PUSH2 0x1C2C JUMPI POP DUP1 MLOAD ISZERO DUP1 PUSH2 0x1C2C JUMPI POP DUP1 DUP1 PUSH1 0x20 ADD SWAP1 MLOAD PUSH1 0x20 DUP2 LT ISZERO PUSH2 0x1C29 JUMPI PUSH1 0x0 DUP1 REVERT JUMPDEST POP MLOAD JUMPDEST PUSH2 0xB53 JUMPI PUSH1 0x40 DUP1 MLOAD PUSH3 0x461BCD PUSH1 0xE5 SHL DUP2 MSTORE PUSH1 0x20 PUSH1 0x4 DUP3 ADD MSTORE PUSH1 0x1F PUSH1 0x24 DUP3 ADD MSTORE PUSH32 0x5472616E7366657248656C7065723A205452414E534645525F4641494C454400 PUSH1 0x44 DUP3 ADD MSTORE SWAP1 MLOAD SWAP1 DUP2 SWAP1 SUB PUSH1 0x64 ADD SWAP1 REVERT JUMPDEST PUSH1 0x1 PUSH1 0x1 PUSH1 0xA0 SHL SUB DUP3 AND PUSH2 0x1CC2 JUMPI PUSH1 0x40 MLOAD PUSH3 0x461BCD PUSH1 0xE5 SHL DUP2 MSTORE PUSH1 0x4 ADD DUP1 DUP1 PUSH1 0x20 ADD DUP3 DUP2 SUB DUP3 MSTORE PUSH1 0x3A DUP2 MSTORE PUSH1 0x20 ADD DUP1 PUSH2 0x2544 PUSH1 0x3A SWAP2 CODECOPY PUSH1 0x40 ADD SWAP2 POP POP PUSH1 0x40 MLOAD DUP1 SWAP2 SUB SWAP1 REVERT JUMPDEST PUSH1 0x1 PUSH1 0x1 PUSH1 0xA0 SHL SUB DUP3 AND PUSH2 0x1D07 JUMPI PUSH1 0x40 MLOAD PUSH3 0x461BCD PUSH1 0xE5 SHL DUP2 MSTORE PUSH1 0x4 ADD DUP1 DUP1 PUSH1 0x20 ADD DUP3 DUP2 SUB DUP3 MSTORE PUSH1 0x38 DUP2 MSTORE PUSH1 0x20 ADD DUP1 PUSH2 0x2799 PUSH1 0x38 SWAP2 CODECOPY PUSH1 0x40 ADD SWAP2 POP POP PUSH1 0x40 MLOAD DUP1 SWAP2 SUB SWAP1 REVERT JUMPDEST DUP1 PUSH1 0x1 PUSH1 0x1 PUSH1 0xA0 SHL SUB AND DUP3 PUSH1 0x1 PUSH1 0x1 PUSH1 0xA0 SHL SUB AND EQ ISZERO PUSH2 0x1D58 JUMPI PUSH1 0x40 MLOAD PUSH3 0x461BCD PUSH1 0xE5 SHL DUP2 MSTORE PUSH1 0x4 ADD DUP1 DUP1 PUSH1 0x20 ADD DUP3 DUP2 SUB DUP3 MSTORE PUSH1 0x47 DUP2 MSTORE PUSH1 0x20 ADD DUP1 PUSH2 0x24FD PUSH1 0x47 SWAP2 CODECOPY PUSH1 0x60 ADD SWAP2 POP POP PUSH1 0x40 MLOAD DUP1 SWAP2 SUB SWAP1 REVERT JUMPDEST DUP1 PUSH1 0x1 PUSH1 0x1 PUSH1 0xA0 SHL SUB AND PUSH4 0xDFE1681 PUSH1 0x40 MLOAD DUP2 PUSH4 0xFFFFFFFF AND PUSH1 0xE0 SHL DUP2 MSTORE PUSH1 0x4 ADD PUSH1 0x20 PUSH1 0x40 MLOAD DUP1 DUP4 SUB DUP2 DUP7 DUP1 EXTCODESIZE ISZERO DUP1 ISZERO PUSH2 0x1D91 JUMPI PUSH1 0x0 DUP1 REVERT JUMPDEST POP GAS STATICCALL ISZERO DUP1 ISZERO PUSH2 0x1DA5 JUMPI RETURNDATASIZE PUSH1 0x0 DUP1 RETURNDATACOPY RETURNDATASIZE PUSH1 0x0 REVERT JUMPDEST POP POP POP POP PUSH1 0x40 MLOAD RETURNDATASIZE PUSH1 0x20 DUP2 LT ISZERO PUSH2 0x1DBB JUMPI PUSH1 0x0 DUP1 REVERT JUMPDEST POP MLOAD PUSH1 0x40 DUP1 MLOAD PUSH4 0xDFE1681 PUSH1 0xE0 SHL DUP2 MSTORE SWAP1 MLOAD PUSH1 0x1 PUSH1 0x1 PUSH1 0xA0 SHL SUB SWAP3 DUP4 AND SWAP3 DUP6 AND SWAP2 PUSH4 0xDFE1681 SWAP2 PUSH1 0x4 DUP1 DUP4 ADD SWAP3 PUSH1 0x20 SWAP3 SWAP2 SWAP1 DUP3 SWAP1 SUB ADD DUP2 DUP7 DUP1 EXTCODESIZE ISZERO DUP1 ISZERO PUSH2 0x1E01 JUMPI PUSH1 0x0 DUP1 REVERT JUMPDEST POP GAS STATICCALL ISZERO DUP1 ISZERO PUSH2 0x1E15 JUMPI RETURNDATASIZE PUSH1 0x0 DUP1 RETURNDATACOPY RETURNDATASIZE PUSH1 0x0 REVERT JUMPDEST POP POP POP POP PUSH1 0x40 MLOAD RETURNDATASIZE PUSH1 0x20 DUP2 LT ISZERO PUSH2 0x1E2B JUMPI PUSH1 0x0 DUP1 REVERT JUMPDEST POP MLOAD PUSH1 0x1 PUSH1 0x1 PUSH1 0xA0 SHL SUB AND EQ DUP1 PUSH2 0x1F1D JUMPI POP DUP1 PUSH1 0x1 PUSH1 0x1 PUSH1 0xA0 SHL SUB AND PUSH4 0xD21220A7 PUSH1 0x40 MLOAD DUP2 PUSH4 0xFFFFFFFF AND PUSH1 0xE0 SHL DUP2 MSTORE PUSH1 0x4 ADD PUSH1 0x20 PUSH1 0x40 MLOAD DUP1 DUP4 SUB DUP2 DUP7 DUP1 EXTCODESIZE ISZERO DUP1 ISZERO PUSH2 0x1E76 JUMPI PUSH1 0x0 DUP1 REVERT JUMPDEST POP GAS STATICCALL ISZERO DUP1 ISZERO PUSH2 0x1E8A JUMPI RETURNDATASIZE PUSH1 0x0 DUP1 RETURNDATACOPY RETURNDATASIZE PUSH1 0x0 REVERT JUMPDEST POP POP POP POP PUSH1 0x40 MLOAD RETURNDATASIZE PUSH1 0x20 DUP2 LT ISZERO PUSH2 0x1EA0 JUMPI PUSH1 0x0 DUP1 REVERT JUMPDEST POP MLOAD PUSH1 0x40 DUP1 MLOAD PUSH4 0xDFE1681 PUSH1 0xE0 SHL DUP2 MSTORE SWAP1 MLOAD PUSH1 0x1 PUSH1 0x1 PUSH1 0xA0 SHL SUB SWAP3 DUP4 AND SWAP3 DUP6 AND SWAP2 PUSH4 0xDFE1681 SWAP2 PUSH1 0x4 DUP1 DUP4 ADD SWAP3 PUSH1 0x20 SWAP3 SWAP2 SWAP1 DUP3 SWAP1 SUB ADD DUP2 DUP7 DUP1 EXTCODESIZE ISZERO DUP1 ISZERO PUSH2 0x1EE6 JUMPI PUSH1 0x0 DUP1 REVERT JUMPDEST POP GAS STATICCALL ISZERO DUP1 ISZERO PUSH2 0x1EFA JUMPI RETURNDATASIZE PUSH1 0x0 DUP1 RETURNDATACOPY RETURNDATASIZE PUSH1 0x0 REVERT JUMPDEST POP POP POP POP PUSH1 0x40 MLOAD RETURNDATASIZE PUSH1 0x20 DUP2 LT ISZERO PUSH2 0x1F10 JUMPI PUSH1 0x0 DUP1 REVERT JUMPDEST POP MLOAD PUSH1 0x1 PUSH1 0x1 PUSH1 0xA0 SHL SUB AND EQ JUMPDEST DUP1 PUSH2 0x2003 JUMPI POP DUP1 PUSH1 0x1 PUSH1 0x1 PUSH1 0xA0 SHL SUB AND PUSH4 0xDFE1681 PUSH1 0x40 MLOAD DUP2 PUSH4 0xFFFFFFFF AND PUSH1 0xE0 SHL DUP2 MSTORE PUSH1 0x4 ADD PUSH1 0x20 PUSH1 0x40 MLOAD DUP1 DUP4 SUB DUP2 DUP7 DUP1 EXTCODESIZE ISZERO DUP1 ISZERO PUSH2 0x1F5C JUMPI PUSH1 0x0 DUP1 REVERT JUMPDEST POP GAS STATICCALL ISZERO DUP1 ISZERO PUSH2 0x1F70 JUMPI RETURNDATASIZE PUSH1 0x0 DUP1 RETURNDATACOPY RETURNDATASIZE PUSH1 0x0 REVERT JUMPDEST POP POP POP POP PUSH1 0x40 MLOAD RETURNDATASIZE PUSH1 0x20 DUP2 LT ISZERO PUSH2 0x1F86 JUMPI PUSH1 0x0 DUP1 REVERT JUMPDEST POP MLOAD PUSH1 0x40 DUP1 MLOAD PUSH4 0xD21220A7 PUSH1 0xE0 SHL DUP2 MSTORE SWAP1 MLOAD PUSH1 0x1 PUSH1 0x1 PUSH1 0xA0 SHL SUB SWAP3 DUP4 AND SWAP3 DUP6 AND SWAP2 PUSH4 0xD21220A7 SWAP2 PUSH1 0x4 DUP1 DUP4 ADD SWAP3 PUSH1 0x20 SWAP3 SWAP2 SWAP1 DUP3 SWAP1 SUB ADD DUP2 DUP7 DUP1 EXTCODESIZE ISZERO DUP1 ISZERO PUSH2 0x1FCC JUMPI PUSH1 0x0 DUP1 REVERT JUMPDEST POP GAS STATICCALL ISZERO DUP1 ISZERO PUSH2 0x1FE0 JUMPI RETURNDATASIZE PUSH1 0x0 DUP1 RETURNDATACOPY RETURNDATASIZE PUSH1 0x0 REVERT JUMPDEST POP POP POP POP PUSH1 0x40 MLOAD RETURNDATASIZE PUSH1 0x20 DUP2 LT ISZERO PUSH2 0x1FF6 JUMPI PUSH1 0x0 DUP1 REVERT JUMPDEST POP MLOAD PUSH1 0x1 PUSH1 0x1 PUSH1 0xA0 SHL SUB AND EQ JUMPDEST DUP1 PUSH2 0x20E9 JUMPI POP DUP1 PUSH1 0x1 PUSH1 0x1 PUSH1 0xA0 SHL SUB AND PUSH4 0xD21220A7 PUSH1 0x40 MLOAD DUP2 PUSH4 0xFFFFFFFF AND PUSH1 0xE0 SHL DUP2 MSTORE PUSH1 0x4 ADD PUSH1 0x20 PUSH1 0x40 MLOAD DUP1 DUP4 SUB DUP2 DUP7 DUP1 EXTCODESIZE ISZERO DUP1 ISZERO PUSH2 0x2042 JUMPI PUSH1 0x0 DUP1 REVERT JUMPDEST POP GAS STATICCALL ISZERO DUP1 ISZERO PUSH2 0x2056 JUMPI RETURNDATASIZE PUSH1 0x0 DUP1 RETURNDATACOPY RETURNDATASIZE PUSH1 0x0 REVERT JUMPDEST POP POP POP POP PUSH1 0x40 MLOAD RETURNDATASIZE PUSH1 0x20 DUP2 LT ISZERO PUSH2 0x206C JUMPI PUSH1 0x0 DUP1 REVERT JUMPDEST POP MLOAD PUSH1 0x40 DUP1 MLOAD PUSH4 0xD21220A7 PUSH1 0xE0 SHL DUP2 MSTORE SWAP1 MLOAD PUSH1 0x1 PUSH1 0x1 PUSH1 0xA0 SHL SUB SWAP3 DUP4 AND SWAP3 DUP6 AND SWAP2 PUSH4 0xD21220A7 SWAP2 PUSH1 0x4 DUP1 DUP4 ADD SWAP3 PUSH1 0x20 SWAP3 SWAP2 SWAP1 DUP3 SWAP1 SUB ADD DUP2 DUP7 DUP1 EXTCODESIZE ISZERO DUP1 ISZERO PUSH2 0x20B2 JUMPI PUSH1 0x0 DUP1 REVERT JUMPDEST POP GAS STATICCALL ISZERO DUP1 ISZERO PUSH2 0x20C6 JUMPI RETURNDATASIZE PUSH1 0x0 DUP1 RETURNDATACOPY RETURNDATASIZE PUSH1 0x0 REVERT JUMPDEST POP POP POP POP PUSH1 0x40 MLOAD RETURNDATASIZE PUSH1 0x20 DUP2 LT ISZERO PUSH2 0x20DC JUMPI PUSH1 0x0 DUP1 REVERT JUMPDEST POP MLOAD PUSH1 0x1 PUSH1 0x1 PUSH1 0xA0 SHL SUB AND EQ JUMPDEST PUSH2 0x1AE9 JUMPI PUSH1 0x40 MLOAD PUSH3 0x461BCD PUSH1 0xE5 SHL DUP2 MSTORE PUSH1 0x4 ADD DUP1 DUP1 PUSH1 0x20 ADD DUP3 DUP2 SUB DUP3 MSTORE PUSH1 0x44 DUP2 MSTORE PUSH1 0x20 ADD DUP1 PUSH2 0x2712 PUSH1 0x44 SWAP2 CODECOPY PUSH1 0x60 ADD SWAP2 POP POP PUSH1 0x40 MLOAD DUP1 SWAP2 SUB SWAP1 REVERT JUMPDEST PUSH1 0x0 DUP1 PUSH2 0x2133 DUP5 CALLER DUP7 DUP7 PUSH2 0x17B9 JUMP JUMPDEST PUSH1 0x40 DUP1 MLOAD PUSH32 0x89AFCB4400000000000000000000000000000000000000000000000000000000 DUP2 MSTORE ADDRESS PUSH1 0x4 DUP3 ADD MSTORE DUP2 MLOAD PUSH1 0x1 PUSH1 0x1 PUSH1 0xA0 SHL SUB DUP8 AND SWAP3 PUSH4 0x89AFCB44 SWAP3 PUSH1 0x24 DUP1 DUP3 ADD SWAP4 SWAP2 DUP3 SWAP1 SUB ADD DUP2 PUSH1 0x0 DUP8 DUP1 EXTCODESIZE ISZERO DUP1 ISZERO PUSH2 0x2190 JUMPI PUSH1 0x0 DUP1 REVERT JUMPDEST POP GAS CALL ISZERO DUP1 ISZERO PUSH2 0x21A4 JUMPI RETURNDATASIZE PUSH1 0x0 DUP1 RETURNDATACOPY RETURNDATASIZE PUSH1 0x0 REVERT JUMPDEST POP POP POP POP PUSH1 0x40 MLOAD RETURNDATASIZE PUSH1 0x40 DUP2 LT ISZERO PUSH2 0x21BA JUMPI PUSH1 0x0 DUP1 REVERT JUMPDEST POP DUP1 MLOAD PUSH1 0x20 SWAP1 SWAP2 ADD MLOAD SWAP1 SWAP6 SWAP1 SWAP5 POP SWAP3 POP POP POP JUMP JUMPDEST PUSH1 0x0 DUP1 PUSH1 0x0 DUP1 PUSH1 0x0 DUP11 PUSH1 0x1 PUSH1 0x1 PUSH1 0xA0 SHL SUB AND PUSH4 0x902F1AC PUSH1 0x40 MLOAD DUP2 PUSH4 0xFFFFFFFF AND PUSH1 0xE0 SHL DUP2 MSTORE PUSH1 0x4 ADD PUSH1 0x60 PUSH1 0x40 MLOAD DUP1 DUP4 SUB DUP2 DUP7 DUP1 EXTCODESIZE ISZERO DUP1 ISZERO PUSH2 0x220F JUMPI PUSH1 0x0 DUP1 REVERT JUMPDEST POP GAS STATICCALL ISZERO DUP1 ISZERO PUSH2 0x2223 JUMPI RETURNDATASIZE PUSH1 0x0 DUP1 RETURNDATACOPY RETURNDATASIZE PUSH1 0x0 REVERT JUMPDEST POP POP POP POP PUSH1 0x40 MLOAD RETURNDATASIZE PUSH1 0x60 DUP2 LT ISZERO PUSH2 0x2239 JUMPI PUSH1 0x0 DUP1 REVERT JUMPDEST POP DUP1 MLOAD PUSH1 0x20 SWAP1 SWAP2 ADD MLOAD SWAP1 SWAP3 POP SWAP1 POP DUP8 PUSH1 0x0 PUSH2 0x2268 DUP3 PUSH14 0xFFFFFFFFFFFFFFFFFFFFFFFFFFFF DUP1 DUP8 AND SWAP1 DUP7 AND PUSH2 0x1713 JUMP JUMPDEST SWAP1 POP DUP9 DUP2 GT ISZERO PUSH2 0x22A3 JUMPI DUP9 SWAP1 POP PUSH2 0x22A0 DUP10 DUP5 PUSH14 0xFFFFFFFFFFFFFFFFFFFFFFFFFFFF AND DUP7 PUSH14 0xFFFFFFFFFFFFFFFFFFFFFFFFFFFF AND PUSH2 0x1713 JUMP JUMPDEST SWAP2 POP JUMPDEST PUSH2 0x22AE DUP13 DUP15 DUP5 PUSH2 0x1AED JUMP JUMPDEST PUSH2 0x22B9 DUP12 DUP15 DUP4 PUSH2 0x1AED JUMP JUMPDEST DUP2 DUP11 SUB SWAP7 POP DUP1 DUP10 SUB SWAP6 POP DUP13 PUSH1 0x1 PUSH1 0x1 PUSH1 0xA0 SHL SUB AND PUSH4 0x6A627842 DUP10 PUSH1 0x40 MLOAD DUP3 PUSH4 0xFFFFFFFF AND PUSH1 0xE0 SHL DUP2 MSTORE PUSH1 0x4 ADD DUP1 DUP3 PUSH1 0x1 PUSH1 0x1 PUSH1 0xA0 SHL SUB AND DUP2 MSTORE PUSH1 0x20 ADD SWAP2 POP POP PUSH1 0x20 PUSH1 0x40 MLOAD DUP1 DUP4 SUB DUP2 PUSH1 0x0 DUP8 DUP1 EXTCODESIZE ISZERO DUP1 ISZERO PUSH2 0x2312 JUMPI PUSH1 0x0 DUP1 REVERT JUMPDEST POP GAS CALL ISZERO DUP1 ISZERO PUSH2 0x2326 JUMPI RETURNDATASIZE PUSH1 0x0 DUP1 RETURNDATACOPY RETURNDATASIZE PUSH1 0x0 REVERT JUMPDEST POP POP POP POP PUSH1 0x40 MLOAD RETURNDATASIZE PUSH1 0x20 DUP2 LT ISZERO PUSH2 0x233C JUMPI PUSH1 0x0 DUP1 REVERT JUMPDEST POP MLOAD SWAP7 SWAP14 SWAP6 SWAP13 POP SWAP6 SWAP11 POP SWAP4 SWAP9 POP POP POP POP POP POP POP POP POP JUMP JUMPDEST PUSH1 0x0 DUP2 ISZERO DUP1 PUSH2 0x236E JUMPI POP POP DUP1 DUP3 MUL DUP3 DUP3 DUP3 DUP2 PUSH2 0x236B JUMPI INVALID JUMPDEST DIV EQ JUMPDEST PUSH2 0x36D JUMPI PUSH1 0x40 DUP1 MLOAD PUSH3 0x461BCD PUSH1 0xE5 SHL DUP2 MSTORE PUSH1 0x20 PUSH1 0x4 DUP3 ADD MSTORE PUSH1 0x14 PUSH1 0x24 DUP3 ADD MSTORE PUSH32 0x64732D6D6174682D6D756C2D6F766572666C6F77000000000000000000000000 PUSH1 0x44 DUP3 ADD MSTORE SWAP1 MLOAD SWAP1 DUP2 SWAP1 SUB PUSH1 0x64 ADD SWAP1 REVERT INVALID 0x4B PUSH2 0x6C79 PUSH20 0x7761704272696467654D6967726174696F6E526F PUSH22 0x7465723A20416464726573732030206E6F7420616C6C PUSH16 0x7765644B616C79737761704272696467 PUSH6 0x4D6967726174 PUSH10 0x6F6E526F757465723A20 PUSH14 0x69677261746F7241646472657373 KECCAK256 ADDRESS KECCAK256 PUSH15 0x6F7420737570706F727465644B616C PUSH26 0x737761704272696467654D6967726174696F6E526F757465723A KECCAK256 POP PUSH2 0x6972 KECCAK256 PUSH5 0x6F65736E27 PUSH21 0x206D6174636820746865206D6967726174696F6E20 PUSH21 0x6F6B656E4B616C79737761704272696467654D6967 PUSH19 0x6174696F6E526F757465723A206C6971756964 PUSH10 0x74795061697246726F6D KECCAK256 PUSH2 0x6464 PUSH19 0x6573732030206E6F7420737570706F72746564 0x4B PUSH2 0x6C79 PUSH20 0x7761704272696467654D6967726174696F6E526F PUSH22 0x7465723A204469646E2774207969656C642074686520 PUSH4 0x6F727265 PUSH4 0x7420616D PUSH16 0x756E744B616C79737761704272696467 PUSH6 0x4D6967726174 PUSH10 0x6F6E526F757465723A20 NUMBER PUSH2 0x6E74 KECCAK256 PUSH4 0x6F6E7665 PUSH19 0x7420746F207468652073616D65206C69717569 PUSH5 0x6974792070 PUSH2 0x6972 PUSH20 0x4B616C79737761704272696467654D6967726174 PUSH10 0x6F6E526F757465723A20 PUSH13 0x69717569646974795061697246 PUSH19 0x6F6D206164647265737320304B616C79737761 PUSH17 0x4272696467654D6967726174696F6E526F PUSH22 0x7465723A206C697175696469747950616972546F2061 PUSH5 0x6472657373 KECCAK256 ADDRESS KECCAK256 PUSH15 0x6F7420737570706F72746564546865 KECCAK256 PUSH14 0x69677261746F7220646F65736E27 PUSH21 0x2068617665207377617020737570706C7920666F72 KECCAK256 PUSH21 0x68697320746F6B656E4B616C797377617042726964 PUSH8 0x654D696772617469 PUSH16 0x6E526F757465723A20556E617574686F PUSH19 0x697A65644B616C79737761704C696272617279 GASPRICE KECCAK256 0x49 0x4E MSTORE8 SSTORE CHAINID CHAINID 0x49 NUMBER 0x49 GASLIMIT 0x4E SLOAD 0x5F COINBASE 0x4D 0x4F SSTORE 0x4E SLOAD MSTORE PUSH16 0x6C65733A206163636F756E7420646F65 PUSH20 0x206E6F74206861766520726F6C654B616C797377 PUSH2 0x704C PUSH10 0x62726172793A20494E53 SSTORE CHAINID CHAINID 0x49 NUMBER 0x49 GASLIMIT 0x4E SLOAD 0x5F 0x4C 0x49 MLOAD SSTORE 0x49 DIFFICULTY 0x49 SLOAD MSIZE MSTORE PUSH16 0x6C65733A206163636F756E7420697320 PUSH21 0x6865207A65726F20616464726573734B616C797377 PUSH2 0x7042 PUSH19 0x696467654D6967726174696F6E526F75746572 GASPRICE KECCAK256 PUSH21 0x6F6B656E416464726573732030206E6F7420737570 PUSH17 0x6F727465644B616C797377617042726964 PUSH8 0x654D696772617469 PUSH16 0x6E526F757465723A2045585049524544 0x4B PUSH2 0x6C79 PUSH20 0x7761704272696467654D6967726174696F6E526F PUSH22 0x7465723A205061697220646F6573206E6F7420686176 PUSH6 0x206F6E652074 PUSH16 0x6B656E206D61746368696E674B616C79 PUSH20 0x7761704272696467654D6967726174696F6E526F PUSH22 0x7465723A204D69677261746F72206E6F742072656769 PUSH20 0x746572656420666F722074686520706169724B61 PUSH13 0x79737761704272696467654D69 PUSH8 0x726174696F6E526F PUSH22 0x7465723A206C697175696469747950616972546F2061 PUSH5 0x6472657373 KECCAK256 ADDRESS 0x4B PUSH2 0x6C79 PUSH20 0x7761704272696467654D6967726174696F6E526F PUSH22 0x7465723A206D69677261746F72206E6F742072656769 PUSH20 0x74657265644B616C79737761704272696467654D PUSH10 0x67726174696F6E526F75 PUSH21 0x65723A20596F752063616E27742064656D6F746520 PUSH26 0x6F757273656C665472616E7366657248656C7065723A20545241 0x4E MSTORE8 CHAINID GASLIMIT MSTORE 0x5F CHAINID MSTORE 0x4F 0x4D 0x5F CHAINID COINBASE 0x49 0x4C GASLIMIT DIFFICULTY LOG2 PUSH5 0x6970667358 0x22 SLT KECCAK256 0x1E LOG0 0xE2 EXTCODECOPY PUSH31 0x5E8D734F0178778F713202F67B07E43430DF89DE470075FC9488BA64736F6C PUSH4 0x43000706 STOP CALLER MSTORE PUSH16 0x6C65733A206163636F756E7420697320 PUSH21 0x6865207A65726F2061646472657373000000000000 "
				},
				"gasEstimates": {
					"creation": {
						"codeDepositCost": "2078400",
						"executionCost": "infinite",
						"totalCost": "infinite"
					},
					"external": {
						"addAdmin(address)": "infinite",
						"addMigrator(address,address)": "infinite",
						"bridgeMigrator(address)": "1229",
						"calculateChargeBack(address,address,uint256)": "infinite",
						"isAdmin(address)": "infinite",
						"migrateLiquidity(address,address,address,uint256,uint256)": "infinite",
						"migrateLiquidityWithPermit(address,address,address,uint256,uint256,uint8,bytes32,bytes32)": "infinite",
						"migrateToken(address,address,uint256,uint256)": "infinite",
						"removeAdmin(address)": "infinite"
					},
					"internal": {
						"_addLiquidity(address,address,address,uint256,uint256,address)": "infinite",
						"_allowToken(address,address)": "infinite",
						"_arePairsCompatible(address,address)": "infinite",
						"_calculateRescueLiquidity(address,uint256)": "infinite",
						"_migrateLiquidity(address,address,address,uint256)": "infinite",
						"_migrateToken(address,uint256)": "infinite",
						"_rescueLiquidity(address,uint256)": "infinite"
					}
				},
				"methodIdentifiers": {
					"addAdmin(address)": "70480275",
					"addMigrator(address,address)": "4c389d26",
					"bridgeMigrator(address)": "ffc50594",
					"calculateChargeBack(address,address,uint256)": "99a0df82",
					"isAdmin(address)": "24d7806c",
					"migrateLiquidity(address,address,address,uint256,uint256)": "495952f5",
					"migrateLiquidityWithPermit(address,address,address,uint256,uint256,uint8,bytes32,bytes32)": "b032fff7",
					"migrateToken(address,address,uint256,uint256)": "f057d237",
					"removeAdmin(address)": "1785f53c"
				}
			},
			"storageLayout": {
				"storage": [
					{
						"astId": 1233,
						"contract": "CoreContracts/kalyswap-periphery/KalyswapBridgeMigrationRouter_flattened.sol:KalyswapBridgeMigrationRouter",
						"label": "adminRole",
						"offset": 0,
						"slot": "0",
						"type": "t_struct(Role)852_storage"
					},
					{
						"astId": 1237,
						"contract": "CoreContracts/kalyswap-periphery/KalyswapBridgeMigrationRouter_flattened.sol:KalyswapBridgeMigrationRouter",
						"label": "bridgeMigrator",
						"offset": 0,
						"slot": "1",
						"type": "t_mapping(t_address,t_address)"
					}
				],
				"types": {
					"t_address": {
						"encoding": "inplace",
						"label": "address",
						"numberOfBytes": "20"
					},
					"t_bool": {
						"encoding": "inplace",
						"label": "bool",
						"numberOfBytes": "1"
					},
					"t_mapping(t_address,t_address)": {
						"encoding": "mapping",
						"key": "t_address",
						"label": "mapping(address => address)",
						"numberOfBytes": "32",
						"value": "t_address"
					},
					"t_mapping(t_address,t_bool)": {
						"encoding": "mapping",
						"key": "t_address",
						"label": "mapping(address => bool)",
						"numberOfBytes": "32",
						"value": "t_bool"
					},
					"t_struct(Role)852_storage": {
						"encoding": "inplace",
						"label": "struct Roles.Role",
						"members": [
							{
								"astId": 851,
								"contract": "CoreContracts/kalyswap-periphery/KalyswapBridgeMigrationRouter_flattened.sol:KalyswapBridgeMigrationRouter",
								"label": "bearer",
								"offset": 0,
								"slot": "0",
								"type": "t_mapping(t_address,t_bool)"
							}
						],
						"numberOfBytes": "32"
					}
				}
			},
			"userdoc": {
				"kind": "user",
				"methods": {
					"addAdmin(address)": {
						"notice": "Given an address, this address is added to the list of admin."
					},
					"addMigrator(address,address)": {
						"notice": "Given an token, and it's migrator address, it configures the migrator for later usage"
					},
					"calculateChargeBack(address,address,uint256)": {
						"notice": "Front facing function that computes the possible charge back from the migration"
					},
					"isAdmin(address)": {
						"notice": "Given an address, returns whether or not he's already an admin"
					},
					"migrateLiquidity(address,address,address,uint256,uint256)": {
						"notice": "Front facing function that migrates the liquidity"
					},
					"migrateLiquidityWithPermit(address,address,address,uint256,uint256,uint8,bytes32,bytes32)": {
						"notice": "Front facing function that migrates the liquidity, with permit"
					},
					"migrateToken(address,address,uint256,uint256)": {
						"notice": "Front facing function that migrates the token"
					},
					"removeAdmin(address)": {
						"notice": "Given an address, this address is added to the list of admin."
					}
				},
				"version": 1
			}
		}
	}
}