{
	"CoreContracts/kalyswap-periphery/KalyswapBridgeMigrationRouter.sol": {
		"KalyswapBridgeMigrationRouter": {
			"abi": [
				{
					"inputs": [],
					"stateMutability": "nonpayable",
					"type": "constructor"
				},
				{
					"inputs": [
						{
							"internalType": "address",
							"name": "account",
							"type": "address"
						}
					],
					"name": "addAdmin",
					"outputs": [],
					"stateMutability": "nonpayable",
					"type": "function"
				},
				{
					"inputs": [
						{
							"internalType": "address",
							"name": "tokenAddress",
							"type": "address"
						},
						{
							"internalType": "address",
							"name": "migratorAddress",
							"type": "address"
						}
					],
					"name": "addMigrator",
					"outputs": [],
					"stateMutability": "nonpayable",
					"type": "function"
				},
				{
					"inputs": [
						{
							"internalType": "address",
							"name": "",
							"type": "address"
						}
					],
					"name": "bridgeMigrator",
					"outputs": [
						{
							"internalType": "address",
							"name": "",
							"type": "address"
						}
					],
					"stateMutability": "view",
					"type": "function"
				},
				{
					"inputs": [
						{
							"internalType": "address",
							"name": "liquidityPairFrom",
							"type": "address"
						},
						{
							"internalType": "address",
							"name": "liquidityPairTo",
							"type": "address"
						},
						{
							"internalType": "uint256",
							"name": "amount",
							"type": "uint256"
						}
					],
					"name": "calculateChargeBack",
					"outputs": [
						{
							"internalType": "uint256",
							"name": "amount0",
							"type": "uint256"
						},
						{
							"internalType": "uint256",
							"name": "amount1",
							"type": "uint256"
						}
					],
					"stateMutability": "view",
					"type": "function"
				},
				{
					"inputs": [
						{
							"internalType": "address",
							"name": "account",
							"type": "address"
						}
					],
					"name": "isAdmin",
					"outputs": [
						{
							"internalType": "bool",
							"name": "",
							"type": "bool"
						}
					],
					"stateMutability": "view",
					"type": "function"
				},
				{
					"inputs": [
						{
							"internalType": "address",
							"name": "liquidityPairFrom",
							"type": "address"
						},
						{
							"internalType": "address",
							"name": "liquidityPairTo",
							"type": "address"
						},
						{
							"internalType": "address",
							"name": "to",
							"type": "address"
						},
						{
							"internalType": "uint256",
							"name": "amount",
							"type": "uint256"
						},
						{
							"internalType": "uint256",
							"name": "deadline",
							"type": "uint256"
						}
					],
					"name": "migrateLiquidity",
					"outputs": [],
					"stateMutability": "nonpayable",
					"type": "function"
				},
				{
					"inputs": [
						{
							"internalType": "address",
							"name": "liquidityPairFrom",
							"type": "address"
						},
						{
							"internalType": "address",
							"name": "liquidityPairTo",
							"type": "address"
						},
						{
							"internalType": "address",
							"name": "to",
							"type": "address"
						},
						{
							"internalType": "uint256",
							"name": "amount",
							"type": "uint256"
						},
						{
							"internalType": "uint256",
							"name": "deadline",
							"type": "uint256"
						},
						{
							"internalType": "uint8",
							"name": "v",
							"type": "uint8"
						},
						{
							"internalType": "bytes32",
							"name": "r",
							"type": "bytes32"
						},
						{
							"internalType": "bytes32",
							"name": "s",
							"type": "bytes32"
						}
					],
					"name": "migrateLiquidityWithPermit",
					"outputs": [],
					"stateMutability": "nonpayable",
					"type": "function"
				},
				{
					"inputs": [
						{
							"internalType": "address",
							"name": "token",
							"type": "address"
						},
						{
							"internalType": "address",
							"name": "to",
							"type": "address"
						},
						{
							"internalType": "uint256",
							"name": "amount",
							"type": "uint256"
						},
						{
							"internalType": "uint256",
							"name": "deadline",
							"type": "uint256"
						}
					],
					"name": "migrateToken",
					"outputs": [],
					"stateMutability": "nonpayable",
					"type": "function"
				},
				{
					"inputs": [
						{
							"internalType": "address",
							"name": "account",
							"type": "address"
						}
					],
					"name": "removeAdmin",
					"outputs": [],
					"stateMutability": "nonpayable",
					"type": "function"
				}
			],
			"devdoc": {
				"kind": "dev",
				"methods": {
					"addAdmin(address)": {
						"details": "Any admin can add or remove other admins, careful.",
						"params": {
							"account": "The address of the account."
						}
					},
					"addMigrator(address,address)": {
						"params": {
							"migratorAddress": "The WrappedERC20 token address that will be migrate the token",
							"tokenAddress": "The ERC20 token address that will be migrated using the migrator"
						}
					},
					"calculateChargeBack(address,address,uint256)": {
						"details": "No need to be extra careful as this is only a view function",
						"params": {
							"amount": "The amount of the liquidity token to be migrated(simulated)",
							"liquidityPairFrom": "The pair address that will be migrated from(simulated)",
							"liquidityPairTo": "The pair address that will be migrated to(simulated)"
						},
						"returns": {
							"amount0": "Amount of token0 will be charged back after the migration",
							"amount1": "Amount of token1 will be charged back after the migration"
						}
					},
					"isAdmin(address)": {
						"params": {
							"account": "The address of the account."
						},
						"returns": {
							"_0": "Whether or not the account address is an admin."
						}
					},
					"migrateLiquidity(address,address,address,uint256,uint256)": {
						"details": "This function assumes sender already gave approval to move the assets",
						"params": {
							"amount": "The amount of token liquidityPairFrom that will be migrated",
							"deadline": "The deadline limit that should be met, otherwise revert to prevent front-run",
							"liquidityPairFrom": "The pair address to be migrated from",
							"liquidityPairTo": "The pair address to be migrated to",
							"to": "The address that will receive the liquidity and the charge backs"
						}
					},
					"migrateLiquidityWithPermit(address,address,address,uint256,uint256,uint8,bytes32,bytes32)": {
						"params": {
							"amount": "The amount of token liquidityPairFrom that will be migrated",
							"deadline": "The deadline limit that should be met, otherwise revert to prevent front-run",
							"liquidityPairFrom": "The pair address to be migrated from",
							"liquidityPairTo": "The pair address to be migrated to",
							"r": "by passing param for the permit validation",
							"s": "by passing param for the permit validation",
							"to": "The address that will receive the liquidity and the charge backs",
							"v": "by passing param for the permit validation"
						}
					},
					"migrateToken(address,address,uint256,uint256)": {
						"details": "This function includes important checks",
						"params": {
							"amount": "The amount of the token to be migrated",
							"deadline": "The deadline limit that should be met, otherwise revert to prevent front-run",
							"to": "The address of who's receiving the token",
							"token": "The ERC20 token address that will be migrated"
						}
					},
					"removeAdmin(address)": {
						"details": "Any admin can add or remove other admins, careful.",
						"params": {
							"account": "The address of the account."
						}
					}
				},
				"version": 1
			},
			"evm": {
				"assembly": "    /* \"CoreContracts/kalyswap-periphery/KalyswapBridgeMigrationRouter.sol\":252:16461  contract KalyswapBridgeMigrationRouter {... */\n  mstore(0x40, 0x80)\n    /* \"CoreContracts/kalyswap-periphery/KalyswapBridgeMigrationRouter.sol\":449:512  constructor() public {... */\n  callvalue\n  dup1\n  iszero\n  tag_1\n  jumpi\n  0x00\n  dup1\n  revert\ntag_1:\n  pop\n    /* \"CoreContracts/kalyswap-periphery/KalyswapBridgeMigrationRouter.sol\":480:505  adminRole.add(msg.sender) */\n  tag_4\n    /* \"CoreContracts/kalyswap-periphery/KalyswapBridgeMigrationRouter.sol\":494:504  msg.sender */\n  caller\n    /* \"CoreContracts/kalyswap-periphery/KalyswapBridgeMigrationRouter.sol\":480:489  adminRole */\n  0x00\n    /* \"CoreContracts/kalyswap-periphery/KalyswapBridgeMigrationRouter.sol\":480:493  adminRole.add */\n  or(tag_0_41, shl(0x20, tag_5))\n  swap1\n    /* \"CoreContracts/kalyswap-periphery/KalyswapBridgeMigrationRouter.sol\":480:505  adminRole.add(msg.sender) */\n  swap2\n  swap1\n  0x20\n  shr\n  jump\t// in\ntag_4:\n    /* \"CoreContracts/kalyswap-periphery/KalyswapBridgeMigrationRouter.sol\":252:16461  contract KalyswapBridgeMigrationRouter {... */\n  jump(tag_6)\n    /* \"CoreContracts/kalyswap-periphery/libraries/Roles.sol\":208:383  function add(Role storage role, address account) internal {... */\ntag_5:\n    /* \"CoreContracts/kalyswap-periphery/libraries/Roles.sol\":285:303  has(role, account) */\n  tag_8\n    /* \"CoreContracts/kalyswap-periphery/libraries/Roles.sol\":289:293  role */\n  dup3\n    /* \"CoreContracts/kalyswap-periphery/libraries/Roles.sol\":295:302  account */\n  dup3\n    /* \"CoreContracts/kalyswap-periphery/libraries/Roles.sol\":285:288  has */\n  tag_9\n    /* \"CoreContracts/kalyswap-periphery/libraries/Roles.sol\":285:303  has(role, account) */\n  jump\t// in\ntag_8:\n    /* \"CoreContracts/kalyswap-periphery/libraries/Roles.sol\":284:303  !has(role, account) */\n  iszero\n    /* \"CoreContracts/kalyswap-periphery/libraries/Roles.sol\":276:339  require(!has(role, account), \"Roles: account already has role\") */\n  tag_10\n  jumpi\n  0x40\n  dup1\n  mload\n  shl(0xe5, 0x461bcd)\n  dup2\n  mstore\n  0x20\n  0x04\n  dup3\n  add\n  mstore\n  0x1f\n  0x24\n  dup3\n  add\n  mstore\n  0x526f6c65733a206163636f756e7420616c72656164792068617320726f6c6500\n  0x44\n  dup3\n  add\n  mstore\n  swap1\n  mload\n  swap1\n  dup2\n  swap1\n  sub\n  0x64\n  add\n  swap1\n  revert\ntag_10:\n  sub(shl(0xa0, 0x01), 0x01)\n    /* \"CoreContracts/kalyswap-periphery/libraries/Roles.sol\":349:369  role.bearer[account] */\n  and\n    /* \"CoreContracts/kalyswap-periphery/libraries/Roles.sol\":349:360  role.bearer */\n  0x00\n    /* \"CoreContracts/kalyswap-periphery/libraries/Roles.sol\":349:369  role.bearer[account] */\n  swap1\n  dup2\n  mstore\n  0x20\n  swap2\n  swap1\n  swap2\n  mstore\n  0x40\n  swap1\n  keccak256\n    /* \"CoreContracts/kalyswap-periphery/libraries/Roles.sol\":349:376  role.bearer[account] = true */\n  dup1\n  sload\n  not(0xff)\n  and\n    /* \"CoreContracts/kalyswap-periphery/libraries/Roles.sol\":372:376  true */\n  0x01\n    /* \"CoreContracts/kalyswap-periphery/libraries/Roles.sol\":349:376  role.bearer[account] = true */\n  or\n  swap1\n  sstore\n    /* \"CoreContracts/kalyswap-periphery/libraries/Roles.sol\":208:383  function add(Role storage role, address account) internal {... */\n  jump\t// out\n    /* \"CoreContracts/kalyswap-periphery/libraries/Roles.sol\":727:955  function has(Role storage role, address account)... */\ntag_9:\n    /* \"CoreContracts/kalyswap-periphery/libraries/Roles.sol\":823:827  bool */\n  0x00\n  sub(shl(0xa0, 0x01), 0x01)\n    /* \"CoreContracts/kalyswap-periphery/libraries/Roles.sol\":851:872  account != address(0) */\n  dup3\n  and\n    /* \"CoreContracts/kalyswap-periphery/libraries/Roles.sol\":843:911  require(account != address(0), \"Roles: account is the zero address\") */\n  tag_12\n  jumpi\n  mload(0x40)\n  shl(0xe5, 0x461bcd)\n  dup2\n  mstore\n  0x04\n  add\n  dup1\n  dup1\n  0x20\n  add\n  dup3\n  dup2\n  sub\n  dup3\n  mstore\n  0x22\n  dup2\n  mstore\n  0x20\n  add\n  dup1\n  data_9d214fa89563f4e6456a3929327e54500ea1cde2c0ba9fb2035ec106190d682f\n  0x22\n  swap2\n  codecopy\n  0x40\n  add\n  swap2\n  pop\n  pop\n  mload(0x40)\n  dup1\n  swap2\n  sub\n  swap1\n  revert\ntag_12:\n  pop\n  sub(shl(0xa0, 0x01), 0x01)\n    /* \"CoreContracts/kalyswap-periphery/libraries/Roles.sol\":928:948  role.bearer[account] */\n  and\n    /* \"CoreContracts/kalyswap-periphery/libraries/Roles.sol\":928:939  role.bearer */\n  0x00\n    /* \"CoreContracts/kalyswap-periphery/libraries/Roles.sol\":928:948  role.bearer[account] */\n  swap1\n  dup2\n  mstore\n  0x20\n  swap2\n  swap1\n  swap2\n  mstore\n  0x40\n  swap1\n  keccak256\n  sload\n  0xff\n  and\n  swap1\n    /* \"CoreContracts/kalyswap-periphery/libraries/Roles.sol\":727:955  function has(Role storage role, address account)... */\n  jump\t// out\n    /* \"CoreContracts/kalyswap-periphery/KalyswapBridgeMigrationRouter.sol\":252:16461  contract KalyswapBridgeMigrationRouter {... */\ntag_6:\n  dataSize(sub_0)\n  dup1\n  dataOffset(sub_0)\n  0x00\n  codecopy\n  0x00\n  return\nstop\ndata_9d214fa89563f4e6456a3929327e54500ea1cde2c0ba9fb2035ec106190d682f 526f6c65733a206163636f756e7420697320746865207a65726f2061646472657373\n\nsub_0: assembly {\n        /* \"CoreContracts/kalyswap-periphery/KalyswapBridgeMigrationRouter.sol\":252:16461  contract KalyswapBridgeMigrationRouter {... */\n      mstore(0x40, 0x80)\n      callvalue\n      dup1\n      iszero\n      tag_1\n      jumpi\n      0x00\n      dup1\n      revert\n    tag_1:\n      pop\n      jumpi(tag_2, lt(calldatasize, 0x04))\n      shr(0xe0, calldataload(0x00))\n      dup1\n      0x70480275\n      gt\n      tag_12\n      jumpi\n      dup1\n      0xb032fff7\n      gt\n      tag_13\n      jumpi\n      dup1\n      0xb032fff7\n      eq\n      tag_9\n      jumpi\n      dup1\n      0xf057d237\n      eq\n      tag_10\n      jumpi\n      dup1\n      0xffc50594\n      eq\n      tag_11\n      jumpi\n      jump(tag_2)\n    tag_13:\n      dup1\n      0x70480275\n      eq\n      tag_7\n      jumpi\n      dup1\n      0x99a0df82\n      eq\n      tag_8\n      jumpi\n      jump(tag_2)\n    tag_12:\n      dup1\n      0x1785f53c\n      eq\n      tag_3\n      jumpi\n      dup1\n      0x24d7806c\n      eq\n      tag_4\n      jumpi\n      dup1\n      0x495952f5\n      eq\n      tag_5\n      jumpi\n      dup1\n      0x4c389d26\n      eq\n      tag_6\n      jumpi\n    tag_2:\n      0x00\n      dup1\n      revert\n        /* \"CoreContracts/kalyswap-periphery/KalyswapBridgeMigrationRouter.sol\":1539:1738  function removeAdmin(address account) external onlyAdmin {... */\n    tag_3:\n      tag_14\n      0x04\n      dup1\n      calldatasize\n      sub\n      0x20\n      dup2\n      lt\n      iszero\n      tag_15\n      jumpi\n      0x00\n      dup1\n      revert\n    tag_15:\n      pop\n      calldataload\n      sub(shl(0xa0, 0x01), 0x01)\n      and\n      tag_16\n      jump\t// in\n    tag_14:\n      stop\n        /* \"CoreContracts/kalyswap-periphery/KalyswapBridgeMigrationRouter.sol\":1951:2059  function isAdmin(address account) external view returns(bool) {... */\n    tag_4:\n      tag_17\n      0x04\n      dup1\n      calldatasize\n      sub\n      0x20\n      dup2\n      lt\n      iszero\n      tag_18\n      jumpi\n      0x00\n      dup1\n      revert\n    tag_18:\n      pop\n      calldataload\n      sub(shl(0xa0, 0x01), 0x01)\n      and\n      tag_19\n      jump\t// in\n    tag_17:\n      0x40\n      dup1\n      mload\n      swap2\n      iszero\n      iszero\n      dup3\n      mstore\n      mload\n      swap1\n      dup2\n      swap1\n      sub\n      0x20\n      add\n      swap1\n      return\n        /* \"CoreContracts/kalyswap-periphery/KalyswapBridgeMigrationRouter.sol\":10602:10932  function migrateLiquidity(... */\n    tag_5:\n      tag_14\n      0x04\n      dup1\n      calldatasize\n      sub\n      0xa0\n      dup2\n      lt\n      iszero\n      tag_21\n      jumpi\n      0x00\n      dup1\n      revert\n    tag_21:\n      pop\n      sub(shl(0xa0, 0x01), 0x01)\n      dup2\n      calldataload\n      dup2\n      and\n      swap2\n      0x20\n      dup2\n      add\n      calldataload\n      dup3\n      and\n      swap2\n      0x40\n      dup3\n      add\n      calldataload\n      and\n      swap1\n      0x60\n      dup2\n      add\n      calldataload\n      swap1\n      0x80\n      add\n      calldataload\n      tag_22\n      jump\t// in\n        /* \"CoreContracts/kalyswap-periphery/KalyswapBridgeMigrationRouter.sol\":2366:2990  function addMigrator(address tokenAddress, address migratorAddress) external onlyAdmin {... */\n    tag_6:\n      tag_14\n      0x04\n      dup1\n      calldatasize\n      sub\n      0x40\n      dup2\n      lt\n      iszero\n      tag_24\n      jumpi\n      0x00\n      dup1\n      revert\n    tag_24:\n      pop\n      sub(shl(0xa0, 0x01), 0x01)\n      dup2\n      calldataload\n      dup2\n      and\n      swap2\n      0x20\n      add\n      calldataload\n      and\n      tag_25\n      jump\t// in\n        /* \"CoreContracts/kalyswap-periphery/KalyswapBridgeMigrationRouter.sol\":1138:1327  function addAdmin(address account) external onlyAdmin {... */\n    tag_7:\n      tag_14\n      0x04\n      dup1\n      calldatasize\n      sub\n      0x20\n      dup2\n      lt\n      iszero\n      tag_27\n      jumpi\n      0x00\n      dup1\n      revert\n    tag_27:\n      pop\n      calldataload\n      sub(shl(0xa0, 0x01), 0x01)\n      and\n      tag_28\n      jump\t// in\n        /* \"CoreContracts/kalyswap-periphery/KalyswapBridgeMigrationRouter.sol\":15221:16458  function calculateChargeBack(... */\n    tag_8:\n      tag_29\n      0x04\n      dup1\n      calldatasize\n      sub\n      0x60\n      dup2\n      lt\n      iszero\n      tag_30\n      jumpi\n      0x00\n      dup1\n      revert\n    tag_30:\n      pop\n      sub(shl(0xa0, 0x01), 0x01)\n      dup2\n      calldataload\n      dup2\n      and\n      swap2\n      0x20\n      dup2\n      add\n      calldataload\n      swap1\n      swap2\n      and\n      swap1\n      0x40\n      add\n      calldataload\n      tag_31\n      jump\t// in\n    tag_29:\n      0x40\n      dup1\n      mload\n      swap3\n      dup4\n      mstore\n      0x20\n      dup4\n      add\n      swap2\n      swap1\n      swap2\n      mstore\n      dup1\n      mload\n      swap2\n      dup3\n      swap1\n      sub\n      add\n      swap1\n      return\n        /* \"CoreContracts/kalyswap-periphery/KalyswapBridgeMigrationRouter.sol\":9554:10036  function migrateLiquidityWithPermit(... */\n    tag_9:\n      tag_14\n      0x04\n      dup1\n      calldatasize\n      sub\n      0x0100\n      dup2\n      lt\n      iszero\n      tag_33\n      jumpi\n      0x00\n      dup1\n      revert\n    tag_33:\n      pop\n      sub(shl(0xa0, 0x01), 0x01)\n      dup2\n      calldataload\n      dup2\n      and\n      swap2\n      0x20\n      dup2\n      add\n      calldataload\n      dup3\n      and\n      swap2\n      0x40\n      dup3\n      add\n      calldataload\n      and\n      swap1\n      0x60\n      dup2\n      add\n      calldataload\n      swap1\n      0x80\n      dup2\n      add\n      calldataload\n      swap1\n      0xff\n      0xa0\n      dup3\n      add\n      calldataload\n      and\n      swap1\n      0xc0\n      dup2\n      add\n      calldataload\n      swap1\n      0xe0\n      add\n      calldataload\n      tag_34\n      jump\t// in\n        /* \"CoreContracts/kalyswap-periphery/KalyswapBridgeMigrationRouter.sol\":8393:8880  function migrateToken(... */\n    tag_10:\n      tag_14\n      0x04\n      dup1\n      calldatasize\n      sub\n      0x80\n      dup2\n      lt\n      iszero\n      tag_36\n      jumpi\n      0x00\n      dup1\n      revert\n    tag_36:\n      pop\n      sub(shl(0xa0, 0x01), 0x01)\n      dup2\n      calldataload\n      dup2\n      and\n      swap2\n      0x20\n      dup2\n      add\n      calldataload\n      swap1\n      swap2\n      and\n      swap1\n      0x40\n      dup2\n      add\n      calldataload\n      swap1\n      0x60\n      add\n      calldataload\n      tag_37\n      jump\t// in\n        /* \"CoreContracts/kalyswap-periphery/KalyswapBridgeMigrationRouter.sol\":393:442  mapping(address => address) public bridgeMigrator */\n    tag_11:\n      tag_38\n      0x04\n      dup1\n      calldatasize\n      sub\n      0x20\n      dup2\n      lt\n      iszero\n      tag_39\n      jumpi\n      0x00\n      dup1\n      revert\n    tag_39:\n      pop\n      calldataload\n      sub(shl(0xa0, 0x01), 0x01)\n      and\n      tag_40\n      jump\t// in\n    tag_38:\n      0x40\n      dup1\n      mload\n      sub(shl(0xa0, 0x01), 0x01)\n      swap1\n      swap3\n      and\n      dup3\n      mstore\n      mload\n      swap1\n      dup2\n      swap1\n      sub\n      0x20\n      add\n      swap1\n      return\n        /* \"CoreContracts/kalyswap-periphery/KalyswapBridgeMigrationRouter.sol\":1539:1738  function removeAdmin(address account) external onlyAdmin {... */\n    tag_16:\n        /* \"CoreContracts/kalyswap-periphery/KalyswapBridgeMigrationRouter.sol\":835:860  adminRole.has(msg.sender) */\n      tag_43\n        /* \"CoreContracts/kalyswap-periphery/KalyswapBridgeMigrationRouter.sol\":835:844  adminRole */\n      0x00\n        /* \"CoreContracts/kalyswap-periphery/KalyswapBridgeMigrationRouter.sol\":849:859  msg.sender */\n      caller\n        /* \"CoreContracts/kalyswap-periphery/KalyswapBridgeMigrationRouter.sol\":835:848  adminRole.has */\n      tag_44\n        /* \"CoreContracts/kalyswap-periphery/KalyswapBridgeMigrationRouter.sol\":835:860  adminRole.has(msg.sender) */\n      jump\t// in\n    tag_43:\n        /* \"CoreContracts/kalyswap-periphery/KalyswapBridgeMigrationRouter.sol\":827:908  require(adminRole.has(msg.sender), 'KalyswapBridgeMigrationRouter: Unauthorized') */\n      tag_45\n      jumpi\n      mload(0x40)\n      shl(0xe5, 0x461bcd)\n      dup2\n      mstore\n      0x04\n      add\n      dup1\n      dup1\n      0x20\n      add\n      dup3\n      dup2\n      sub\n      dup3\n      mstore\n      0x2b\n      dup2\n      mstore\n      0x20\n      add\n      dup1\n      data_72bf313591ceddf754ca6a5c3bb1bce298c6ad13c15c3e899581c1b7df075c21\n      0x2b\n      swap2\n      codecopy\n      0x40\n      add\n      swap2\n      pop\n      pop\n      mload(0x40)\n      dup1\n      swap2\n      sub\n      swap1\n      revert\n    tag_45:\n        /* \"CoreContracts/kalyswap-periphery/KalyswapBridgeMigrationRouter.sol\":1614:1624  msg.sender */\n      caller\n      sub(shl(0xa0, 0x01), 0x01)\n        /* \"CoreContracts/kalyswap-periphery/KalyswapBridgeMigrationRouter.sol\":1614:1635  msg.sender != account */\n      dup3\n      and\n      eq\n      iszero\n        /* \"CoreContracts/kalyswap-periphery/KalyswapBridgeMigrationRouter.sol\":1606:1696  require(msg.sender != account, \"KalyswapBridgeMigrationRouter: You can't demote yourself\") */\n      tag_47\n      jumpi\n      mload(0x40)\n      shl(0xe5, 0x461bcd)\n      dup2\n      mstore\n      0x04\n      add\n      dup1\n      dup1\n      0x20\n      add\n      dup3\n      dup2\n      sub\n      dup3\n      mstore\n      0x38\n      dup2\n      mstore\n      0x20\n      add\n      dup1\n      data_e6c3cbc1b9cc3350f2defb4add44202bf98de183d551d772ba5896f5bb0d10cc\n      0x38\n      swap2\n      codecopy\n      0x40\n      add\n      swap2\n      pop\n      pop\n      mload(0x40)\n      dup1\n      swap2\n      sub\n      swap1\n      revert\n    tag_47:\n        /* \"CoreContracts/kalyswap-periphery/KalyswapBridgeMigrationRouter.sol\":1706:1731  adminRole.remove(account) */\n      tag_48\n        /* \"CoreContracts/kalyswap-periphery/KalyswapBridgeMigrationRouter.sol\":1706:1715  adminRole */\n      0x00\n        /* \"CoreContracts/kalyswap-periphery/KalyswapBridgeMigrationRouter.sol\":1723:1730  account */\n      dup3\n        /* \"CoreContracts/kalyswap-periphery/KalyswapBridgeMigrationRouter.sol\":1706:1722  adminRole.remove */\n      tag_49\n        /* \"CoreContracts/kalyswap-periphery/KalyswapBridgeMigrationRouter.sol\":1706:1731  adminRole.remove(account) */\n      jump\t// in\n    tag_48:\n        /* \"CoreContracts/kalyswap-periphery/KalyswapBridgeMigrationRouter.sol\":1539:1738  function removeAdmin(address account) external onlyAdmin {... */\n      pop\n      jump\t// out\n        /* \"CoreContracts/kalyswap-periphery/KalyswapBridgeMigrationRouter.sol\":1951:2059  function isAdmin(address account) external view returns(bool) {... */\n    tag_19:\n        /* \"CoreContracts/kalyswap-periphery/KalyswapBridgeMigrationRouter.sol\":2007:2011  bool */\n      0x00\n        /* \"CoreContracts/kalyswap-periphery/KalyswapBridgeMigrationRouter.sol\":2030:2052  adminRole.has(account) */\n      tag_51\n        /* \"CoreContracts/kalyswap-periphery/KalyswapBridgeMigrationRouter.sol\":2007:2011  bool */\n      dup2\n        /* \"CoreContracts/kalyswap-periphery/KalyswapBridgeMigrationRouter.sol\":2044:2051  account */\n      dup4\n        /* \"CoreContracts/kalyswap-periphery/KalyswapBridgeMigrationRouter.sol\":2030:2043  adminRole.has */\n      tag_44\n        /* \"CoreContracts/kalyswap-periphery/KalyswapBridgeMigrationRouter.sol\":2030:2052  adminRole.has(account) */\n      jump\t// in\n    tag_51:\n        /* \"CoreContracts/kalyswap-periphery/KalyswapBridgeMigrationRouter.sol\":2023:2052  return adminRole.has(account) */\n      swap3\n        /* \"CoreContracts/kalyswap-periphery/KalyswapBridgeMigrationRouter.sol\":1951:2059  function isAdmin(address account) external view returns(bool) {... */\n      swap2\n      pop\n      pop\n      jump\t// out\n        /* \"CoreContracts/kalyswap-periphery/KalyswapBridgeMigrationRouter.sol\":10602:10932  function migrateLiquidity(... */\n    tag_22:\n        /* \"CoreContracts/kalyswap-periphery/KalyswapBridgeMigrationRouter.sol\":10782:10790  deadline */\n      dup1\n        /* \"CoreContracts/kalyswap-periphery/KalyswapBridgeMigrationRouter.sol\":649:664  block.timestamp */\n      timestamp\n        /* \"CoreContracts/kalyswap-periphery/KalyswapBridgeMigrationRouter.sol\":637:645  deadline */\n      dup2\n        /* \"CoreContracts/kalyswap-periphery/KalyswapBridgeMigrationRouter.sol\":637:664  deadline >= block.timestamp */\n      lt\n      iszero\n        /* \"CoreContracts/kalyswap-periphery/KalyswapBridgeMigrationRouter.sol\":629:707  require(deadline >= block.timestamp, 'KalyswapBridgeMigrationRouter: EXPIRED') */\n      tag_53\n      jumpi\n      mload(0x40)\n      shl(0xe5, 0x461bcd)\n      dup2\n      mstore\n      0x04\n      add\n      dup1\n      dup1\n      0x20\n      add\n      dup3\n      dup2\n      sub\n      dup3\n      mstore\n      0x26\n      dup2\n      mstore\n      0x20\n      add\n      dup1\n      data_ab411b16b48c0dfc5a303ed96b1803938c6e2d0701b8085498de3b758ca25a98\n      0x26\n      swap2\n      codecopy\n      0x40\n      add\n      swap2\n      pop\n      pop\n      mload(0x40)\n      dup1\n      swap2\n      sub\n      swap1\n      revert\n    tag_53:\n        /* \"CoreContracts/kalyswap-periphery/KalyswapBridgeMigrationRouter.sol\":10802:10925  _migrateLiquidity(... */\n      tag_55\n        /* \"CoreContracts/kalyswap-periphery/KalyswapBridgeMigrationRouter.sol\":10833:10850  liquidityPairFrom */\n      dup7\n        /* \"CoreContracts/kalyswap-periphery/KalyswapBridgeMigrationRouter.sol\":10864:10879  liquidityPairTo */\n      dup7\n        /* \"CoreContracts/kalyswap-periphery/KalyswapBridgeMigrationRouter.sol\":10893:10895  to */\n      dup7\n        /* \"CoreContracts/kalyswap-periphery/KalyswapBridgeMigrationRouter.sol\":10909:10915  amount */\n      dup7\n        /* \"CoreContracts/kalyswap-periphery/KalyswapBridgeMigrationRouter.sol\":10802:10819  _migrateLiquidity */\n      tag_56\n        /* \"CoreContracts/kalyswap-periphery/KalyswapBridgeMigrationRouter.sol\":10802:10925  _migrateLiquidity(... */\n      jump\t// in\n    tag_55:\n        /* \"CoreContracts/kalyswap-periphery/KalyswapBridgeMigrationRouter.sol\":10602:10932  function migrateLiquidity(... */\n      pop\n      pop\n      pop\n      pop\n      pop\n      pop\n      jump\t// out\n        /* \"CoreContracts/kalyswap-periphery/KalyswapBridgeMigrationRouter.sol\":2366:2990  function addMigrator(address tokenAddress, address migratorAddress) external onlyAdmin {... */\n    tag_25:\n        /* \"CoreContracts/kalyswap-periphery/KalyswapBridgeMigrationRouter.sol\":835:860  adminRole.has(msg.sender) */\n      tag_58\n        /* \"CoreContracts/kalyswap-periphery/KalyswapBridgeMigrationRouter.sol\":835:844  adminRole */\n      0x00\n        /* \"CoreContracts/kalyswap-periphery/KalyswapBridgeMigrationRouter.sol\":849:859  msg.sender */\n      caller\n        /* \"CoreContracts/kalyswap-periphery/KalyswapBridgeMigrationRouter.sol\":835:848  adminRole.has */\n      tag_44\n        /* \"CoreContracts/kalyswap-periphery/KalyswapBridgeMigrationRouter.sol\":835:860  adminRole.has(msg.sender) */\n      jump\t// in\n    tag_58:\n        /* \"CoreContracts/kalyswap-periphery/KalyswapBridgeMigrationRouter.sol\":827:908  require(adminRole.has(msg.sender), 'KalyswapBridgeMigrationRouter: Unauthorized') */\n      tag_59\n      jumpi\n      mload(0x40)\n      shl(0xe5, 0x461bcd)\n      dup2\n      mstore\n      0x04\n      add\n      dup1\n      dup1\n      0x20\n      add\n      dup3\n      dup2\n      sub\n      dup3\n      mstore\n      0x2b\n      dup2\n      mstore\n      0x20\n      add\n      dup1\n      data_72bf313591ceddf754ca6a5c3bb1bce298c6ad13c15c3e899581c1b7df075c21\n      0x2b\n      swap2\n      codecopy\n      0x40\n      add\n      swap2\n      pop\n      pop\n      mload(0x40)\n      dup1\n      swap2\n      sub\n      swap1\n      revert\n    tag_59:\n      sub(shl(0xa0, 0x01), 0x01)\n        /* \"CoreContracts/kalyswap-periphery/KalyswapBridgeMigrationRouter.sol\":2471:2497  tokenAddress != address(0) */\n      dup3\n      and\n        /* \"CoreContracts/kalyswap-periphery/KalyswapBridgeMigrationRouter.sol\":2463:2561  require(tokenAddress != address(0), \"KalyswapBridgeMigrationRouter: tokenAddress 0 not supported\") */\n      tag_61\n      jumpi\n      mload(0x40)\n      shl(0xe5, 0x461bcd)\n      dup2\n      mstore\n      0x04\n      add\n      dup1\n      dup1\n      0x20\n      add\n      dup3\n      dup2\n      sub\n      dup3\n      mstore\n      0x3b\n      dup2\n      mstore\n      0x20\n      add\n      dup1\n      data_9d984e50f0a68e3b3b3f36266bdb577070edfb604f683a0d41f604c350418d44\n      0x3b\n      swap2\n      codecopy\n      0x40\n      add\n      swap2\n      pop\n      pop\n      mload(0x40)\n      dup1\n      swap2\n      sub\n      swap1\n      revert\n    tag_61:\n      sub(shl(0xa0, 0x01), 0x01)\n        /* \"CoreContracts/kalyswap-periphery/KalyswapBridgeMigrationRouter.sol\":2579:2608  migratorAddress != address(0) */\n      dup2\n      and\n        /* \"CoreContracts/kalyswap-periphery/KalyswapBridgeMigrationRouter.sol\":2571:2675  require(migratorAddress != address(0), \"KalyswapBridgeMigrationRouter: migratorAddress 0 not supported\") */\n      tag_62\n      jumpi\n      mload(0x40)\n      shl(0xe5, 0x461bcd)\n      dup2\n      mstore\n      0x04\n      add\n      dup1\n      dup1\n      0x20\n      add\n      dup3\n      dup2\n      sub\n      dup3\n      mstore\n      0x3e\n      dup2\n      mstore\n      0x20\n      add\n      dup1\n      data_1c7c659b1ae1b6657f6277780e3b866d18de2ae7bdb0795c710a1378deb7c207\n      0x3e\n      swap2\n      codecopy\n      0x40\n      add\n      swap2\n      pop\n      pop\n      mload(0x40)\n      dup1\n      swap2\n      sub\n      swap1\n      revert\n    tag_62:\n        /* \"CoreContracts/kalyswap-periphery/KalyswapBridgeMigrationRouter.sol\":2685:2699  uint256 amount */\n      0x00\n        /* \"CoreContracts/kalyswap-periphery/KalyswapBridgeMigrationRouter.sol\":2715:2730  migratorAddress */\n      dup2\n      sub(shl(0xa0, 0x01), 0x01)\n        /* \"CoreContracts/kalyswap-periphery/KalyswapBridgeMigrationRouter.sol\":2702:2742  IBridgeToken(migratorAddress).swapSupply */\n      and\n      0xab32dbb7\n        /* \"CoreContracts/kalyswap-periphery/KalyswapBridgeMigrationRouter.sol\":2743:2755  tokenAddress */\n      dup5\n        /* \"CoreContracts/kalyswap-periphery/KalyswapBridgeMigrationRouter.sol\":2702:2756  IBridgeToken(migratorAddress).swapSupply(tokenAddress) */\n      mload(0x40)\n      dup3\n      0xffffffff\n      and\n      0xe0\n      shl\n      dup2\n      mstore\n      0x04\n      add\n      dup1\n      dup3\n      sub(shl(0xa0, 0x01), 0x01)\n      and\n      dup2\n      mstore\n      0x20\n      add\n      swap2\n      pop\n      pop\n      0x20\n      mload(0x40)\n      dup1\n      dup4\n      sub\n      dup2\n      dup7\n      dup1\n      extcodesize\n      iszero\n      dup1\n      iszero\n      tag_63\n      jumpi\n      0x00\n      dup1\n      revert\n    tag_63:\n      pop\n      gas\n      staticcall\n      iszero\n      dup1\n      iszero\n      tag_65\n      jumpi\n      returndatasize\n      0x00\n      dup1\n      returndatacopy\n      revert(0x00, returndatasize)\n    tag_65:\n      pop\n      pop\n      pop\n      pop\n      mload(0x40)\n      returndatasize\n      0x20\n      dup2\n      lt\n      iszero\n      tag_66\n      jumpi\n      0x00\n      dup1\n      revert\n    tag_66:\n      pop\n      mload\n      swap1\n      pop\n        /* \"CoreContracts/kalyswap-periphery/KalyswapBridgeMigrationRouter.sol\":2787:2797  amount > 0 */\n      dup1\n        /* \"CoreContracts/kalyswap-periphery/KalyswapBridgeMigrationRouter.sol\":2766:2875  require(... */\n      tag_67\n      jumpi\n      mload(0x40)\n      shl(0xe5, 0x461bcd)\n      dup2\n      mstore\n      0x04\n      add\n      dup1\n      dup1\n      0x20\n      add\n      dup3\n      dup2\n      sub\n      dup3\n      mstore\n      0x34\n      dup2\n      mstore\n      0x20\n      add\n      dup1\n      data_67de629378f206179ef1573eeb90ada9b246d75587b16d0d1d34653b7fb2db45\n      0x34\n      swap2\n      codecopy\n      0x40\n      add\n      swap2\n      pop\n      pop\n      mload(0x40)\n      dup1\n      swap2\n      sub\n      swap1\n      revert\n    tag_67:\n        /* \"CoreContracts/kalyswap-periphery/KalyswapBridgeMigrationRouter.sol\":2885:2927  _allowToken(tokenAddress, migratorAddress) */\n      tag_68\n        /* \"CoreContracts/kalyswap-periphery/KalyswapBridgeMigrationRouter.sol\":2897:2909  tokenAddress */\n      dup4\n        /* \"CoreContracts/kalyswap-periphery/KalyswapBridgeMigrationRouter.sol\":2911:2926  migratorAddress */\n      dup4\n        /* \"CoreContracts/kalyswap-periphery/KalyswapBridgeMigrationRouter.sol\":2885:2896  _allowToken */\n      tag_69\n        /* \"CoreContracts/kalyswap-periphery/KalyswapBridgeMigrationRouter.sol\":2885:2927  _allowToken(tokenAddress, migratorAddress) */\n      jump\t// in\n    tag_68:\n      pop\n      sub(shl(0xa0, 0x01), 0x01)\n        /* \"CoreContracts/kalyswap-periphery/KalyswapBridgeMigrationRouter.sol\":2937:2965  bridgeMigrator[tokenAddress] */\n      swap2\n      dup3\n      and\n      0x00\n      swap1\n      dup2\n      mstore\n        /* \"CoreContracts/kalyswap-periphery/KalyswapBridgeMigrationRouter.sol\":2937:2951  bridgeMigrator */\n      0x01\n        /* \"CoreContracts/kalyswap-periphery/KalyswapBridgeMigrationRouter.sol\":2937:2965  bridgeMigrator[tokenAddress] */\n      0x20\n      mstore\n      0x40\n      swap1\n      keccak256\n        /* \"CoreContracts/kalyswap-periphery/KalyswapBridgeMigrationRouter.sol\":2937:2983  bridgeMigrator[tokenAddress] = migratorAddress */\n      dup1\n      sload\n      0xffffffffffffffffffffffff0000000000000000000000000000000000000000\n      and\n      swap2\n      swap1\n      swap3\n      and\n      or\n      swap1\n      sstore\n        /* \"CoreContracts/kalyswap-periphery/KalyswapBridgeMigrationRouter.sol\":2366:2990  function addMigrator(address tokenAddress, address migratorAddress) external onlyAdmin {... */\n      jump\t// out\n        /* \"CoreContracts/kalyswap-periphery/KalyswapBridgeMigrationRouter.sol\":1138:1327  function addAdmin(address account) external onlyAdmin {... */\n    tag_28:\n        /* \"CoreContracts/kalyswap-periphery/KalyswapBridgeMigrationRouter.sol\":835:860  adminRole.has(msg.sender) */\n      tag_71\n        /* \"CoreContracts/kalyswap-periphery/KalyswapBridgeMigrationRouter.sol\":835:844  adminRole */\n      0x00\n        /* \"CoreContracts/kalyswap-periphery/KalyswapBridgeMigrationRouter.sol\":849:859  msg.sender */\n      caller\n        /* \"CoreContracts/kalyswap-periphery/KalyswapBridgeMigrationRouter.sol\":835:848  adminRole.has */\n      tag_44\n        /* \"CoreContracts/kalyswap-periphery/KalyswapBridgeMigrationRouter.sol\":835:860  adminRole.has(msg.sender) */\n      jump\t// in\n    tag_71:\n        /* \"CoreContracts/kalyswap-periphery/KalyswapBridgeMigrationRouter.sol\":827:908  require(adminRole.has(msg.sender), 'KalyswapBridgeMigrationRouter: Unauthorized') */\n      tag_72\n      jumpi\n      mload(0x40)\n      shl(0xe5, 0x461bcd)\n      dup2\n      mstore\n      0x04\n      add\n      dup1\n      dup1\n      0x20\n      add\n      dup3\n      dup2\n      sub\n      dup3\n      mstore\n      0x2b\n      dup2\n      mstore\n      0x20\n      add\n      dup1\n      data_72bf313591ceddf754ca6a5c3bb1bce298c6ad13c15c3e899581c1b7df075c21\n      0x2b\n      swap2\n      codecopy\n      0x40\n      add\n      swap2\n      pop\n      pop\n      mload(0x40)\n      dup1\n      swap2\n      sub\n      swap1\n      revert\n    tag_72:\n      sub(shl(0xa0, 0x01), 0x01)\n        /* \"CoreContracts/kalyswap-periphery/KalyswapBridgeMigrationRouter.sol\":1210:1231  account != address(0) */\n      dup2\n      and\n        /* \"CoreContracts/kalyswap-periphery/KalyswapBridgeMigrationRouter.sol\":1202:1288  require(account != address(0), \"KalyswapBridgeMigrationRouter: Address 0 not allowed\") */\n      tag_74\n      jumpi\n      mload(0x40)\n      shl(0xe5, 0x461bcd)\n      dup2\n      mstore\n      0x04\n      add\n      dup1\n      dup1\n      0x20\n      add\n      dup3\n      dup2\n      sub\n      dup3\n      mstore\n      0x34\n      dup2\n      mstore\n      0x20\n      add\n      dup1\n      data_05cf0a3569a15a3c6d55134bc83c6e310486fc5d86c57fe969396f1673709115\n      0x34\n      swap2\n      codecopy\n      0x40\n      add\n      swap2\n      pop\n      pop\n      mload(0x40)\n      dup1\n      swap2\n      sub\n      swap1\n      revert\n    tag_74:\n        /* \"CoreContracts/kalyswap-periphery/KalyswapBridgeMigrationRouter.sol\":1298:1320  adminRole.add(account) */\n      tag_48\n        /* \"CoreContracts/kalyswap-periphery/KalyswapBridgeMigrationRouter.sol\":1298:1307  adminRole */\n      0x00\n        /* \"CoreContracts/kalyswap-periphery/KalyswapBridgeMigrationRouter.sol\":1312:1319  account */\n      dup3\n        /* \"CoreContracts/kalyswap-periphery/KalyswapBridgeMigrationRouter.sol\":1298:1311  adminRole.add */\n      tag_41\n        /* \"CoreContracts/kalyswap-periphery/KalyswapBridgeMigrationRouter.sol\":1298:1320  adminRole.add(account) */\n      jump\t// in\n        /* \"CoreContracts/kalyswap-periphery/KalyswapBridgeMigrationRouter.sol\":15221:16458  function calculateChargeBack(... */\n    tag_31:\n        /* \"CoreContracts/kalyswap-periphery/KalyswapBridgeMigrationRouter.sol\":15368:15380  uint amount0 */\n      0x00\n      dup1\n      sub(shl(0xa0, 0x01), 0x01)\n        /* \"CoreContracts/kalyswap-periphery/KalyswapBridgeMigrationRouter.sol\":15414:15445  liquidityPairFrom != address(0) */\n      dup6\n      and\n        /* \"CoreContracts/kalyswap-periphery/KalyswapBridgeMigrationRouter.sol\":15406:15522  require(liquidityPairFrom != address(0), \"KalyswapBridgeMigrationRouter: liquidityPairFrom address 0 not supported\") */\n      tag_77\n      jumpi\n      mload(0x40)\n      shl(0xe5, 0x461bcd)\n      dup2\n      mstore\n      0x04\n      add\n      dup1\n      dup1\n      0x20\n      add\n      dup3\n      dup2\n      sub\n      dup3\n      mstore\n      0x48\n      dup2\n      mstore\n      0x20\n      add\n      dup1\n      data_200248fc6ca52a59603938cda7204781ce09d1bfbab0ded816a7da12334c83d7\n      0x48\n      swap2\n      codecopy\n      0x60\n      add\n      swap2\n      pop\n      pop\n      mload(0x40)\n      dup1\n      swap2\n      sub\n      swap1\n      revert\n    tag_77:\n      sub(shl(0xa0, 0x01), 0x01)\n        /* \"CoreContracts/kalyswap-periphery/KalyswapBridgeMigrationRouter.sol\":15540:15569  liquidityPairTo != address(0) */\n      dup5\n      and\n        /* \"CoreContracts/kalyswap-periphery/KalyswapBridgeMigrationRouter.sol\":15532:15644  require(liquidityPairTo != address(0), \"KalyswapBridgeMigrationRouter: liquidityPairTo address 0 not supported\") */\n      tag_78\n      jumpi\n      mload(0x40)\n      shl(0xe5, 0x461bcd)\n      dup2\n      mstore\n      0x04\n      add\n      dup1\n      dup1\n      0x20\n      add\n      dup3\n      dup2\n      sub\n      dup3\n      mstore\n      0x46\n      dup2\n      mstore\n      0x20\n      add\n      dup1\n      data_55b0696d49f993eb1ace324d5663bb2fcaf6a2e9adf7d970b2aa88f8e8484c73\n      0x46\n      swap2\n      codecopy\n      0x60\n      add\n      swap2\n      pop\n      pop\n      mload(0x40)\n      dup1\n      swap2\n      sub\n      swap1\n      revert\n    tag_78:\n        /* \"CoreContracts/kalyswap-periphery/KalyswapBridgeMigrationRouter.sol\":15655:15669  uint amountIn0 */\n      0x00\n        /* \"CoreContracts/kalyswap-periphery/KalyswapBridgeMigrationRouter.sol\":15671:15685  uint amountIn1 */\n      dup1\n        /* \"CoreContracts/kalyswap-periphery/KalyswapBridgeMigrationRouter.sol\":15689:15741  _calculateRescueLiquidity(liquidityPairFrom, amount) */\n      tag_79\n        /* \"CoreContracts/kalyswap-periphery/KalyswapBridgeMigrationRouter.sol\":15715:15732  liquidityPairFrom */\n      dup8\n        /* \"CoreContracts/kalyswap-periphery/KalyswapBridgeMigrationRouter.sol\":15734:15740  amount */\n      dup7\n        /* \"CoreContracts/kalyswap-periphery/KalyswapBridgeMigrationRouter.sol\":15689:15714  _calculateRescueLiquidity */\n      tag_80\n        /* \"CoreContracts/kalyswap-periphery/KalyswapBridgeMigrationRouter.sol\":15689:15741  _calculateRescueLiquidity(liquidityPairFrom, amount) */\n      jump\t// in\n    tag_79:\n        /* \"CoreContracts/kalyswap-periphery/KalyswapBridgeMigrationRouter.sol\":15654:15741  (uint amountIn0, uint amountIn1) = _calculateRescueLiquidity(liquidityPairFrom, amount) */\n      swap2\n      pop\n      swap2\n      pop\n        /* \"CoreContracts/kalyswap-periphery/KalyswapBridgeMigrationRouter.sol\":15814:15829  liquidityPairTo */\n      dup6\n      sub(shl(0xa0, 0x01), 0x01)\n        /* \"CoreContracts/kalyswap-periphery/KalyswapBridgeMigrationRouter.sol\":15800:15837  IKalyswapPair(liquidityPairTo).token0 */\n      and\n      0x0dfe1681\n        /* \"CoreContracts/kalyswap-periphery/KalyswapBridgeMigrationRouter.sol\":15800:15839  IKalyswapPair(liquidityPairTo).token0() */\n      mload(0x40)\n      dup2\n      0xffffffff\n      and\n      0xe0\n      shl\n      dup2\n      mstore\n      0x04\n      add\n      0x20\n      mload(0x40)\n      dup1\n      dup4\n      sub\n      dup2\n      dup7\n      dup1\n      extcodesize\n      iszero\n      dup1\n      iszero\n      tag_81\n      jumpi\n      0x00\n      dup1\n      revert\n    tag_81:\n      pop\n      gas\n      staticcall\n      iszero\n      dup1\n      iszero\n      tag_83\n      jumpi\n      returndatasize\n      0x00\n      dup1\n      returndatacopy\n      revert(0x00, returndatasize)\n    tag_83:\n      pop\n      pop\n      pop\n      pop\n      mload(0x40)\n      returndatasize\n      0x20\n      dup2\n      lt\n      iszero\n      tag_84\n      jumpi\n      0x00\n      dup1\n      revert\n    tag_84:\n      pop\n      mload\n        /* \"CoreContracts/kalyswap-periphery/KalyswapBridgeMigrationRouter.sol\":15755:15796  IKalyswapPair(liquidityPairFrom).token0() */\n      0x40\n      dup1\n      mload\n      shl(0xe0, 0x0dfe1681)\n      dup2\n      mstore\n      swap1\n      mload\n      sub(shl(0xa0, 0x01), 0x01)\n        /* \"CoreContracts/kalyswap-periphery/KalyswapBridgeMigrationRouter.sol\":15755:15839  IKalyswapPair(liquidityPairFrom).token0() != IKalyswapPair(liquidityPairTo).token0() */\n      swap3\n      dup4\n      and\n      swap3\n        /* \"CoreContracts/kalyswap-periphery/KalyswapBridgeMigrationRouter.sol\":15755:15794  IKalyswapPair(liquidityPairFrom).token0 */\n      dup11\n      and\n      swap2\n      0x0dfe1681\n      swap2\n        /* \"CoreContracts/kalyswap-periphery/KalyswapBridgeMigrationRouter.sol\":15755:15796  IKalyswapPair(liquidityPairFrom).token0() */\n      0x04\n      dup1\n      dup4\n      add\n      swap3\n        /* \"CoreContracts/kalyswap-periphery/KalyswapBridgeMigrationRouter.sol\":15800:15839  IKalyswapPair(liquidityPairTo).token0() */\n      0x20\n      swap3\n        /* \"CoreContracts/kalyswap-periphery/KalyswapBridgeMigrationRouter.sol\":15755:15796  IKalyswapPair(liquidityPairFrom).token0() */\n      swap2\n      swap1\n      dup3\n      swap1\n      sub\n      add\n      dup2\n        /* \"CoreContracts/kalyswap-periphery/KalyswapBridgeMigrationRouter.sol\":15755:15794  IKalyswapPair(liquidityPairFrom).token0 */\n      dup7\n        /* \"CoreContracts/kalyswap-periphery/KalyswapBridgeMigrationRouter.sol\":15755:15796  IKalyswapPair(liquidityPairFrom).token0() */\n      dup1\n      extcodesize\n      iszero\n      dup1\n      iszero\n      tag_85\n      jumpi\n      0x00\n      dup1\n      revert\n    tag_85:\n      pop\n      gas\n      staticcall\n      iszero\n      dup1\n      iszero\n      tag_87\n      jumpi\n      returndatasize\n      0x00\n      dup1\n      returndatacopy\n      revert(0x00, returndatasize)\n    tag_87:\n      pop\n      pop\n      pop\n      pop\n      mload(0x40)\n      returndatasize\n      0x20\n      dup2\n      lt\n      iszero\n      tag_88\n      jumpi\n      0x00\n      dup1\n      revert\n    tag_88:\n      pop\n      mload\n      sub(shl(0xa0, 0x01), 0x01)\n        /* \"CoreContracts/kalyswap-periphery/KalyswapBridgeMigrationRouter.sol\":15755:15839  IKalyswapPair(liquidityPairFrom).token0() != IKalyswapPair(liquidityPairTo).token0() */\n      and\n      eq\n      dup1\n      iszero\n      swap1\n        /* \"CoreContracts/kalyswap-periphery/KalyswapBridgeMigrationRouter.sol\":15755:15939  IKalyswapPair(liquidityPairFrom).token0() != IKalyswapPair(liquidityPairTo).token0() &&... */\n      tag_89\n      jumpi\n      pop\n        /* \"CoreContracts/kalyswap-periphery/KalyswapBridgeMigrationRouter.sol\":15914:15929  liquidityPairTo */\n      dup6\n      sub(shl(0xa0, 0x01), 0x01)\n        /* \"CoreContracts/kalyswap-periphery/KalyswapBridgeMigrationRouter.sol\":15900:15937  IKalyswapPair(liquidityPairTo).token1 */\n      and\n      0xd21220a7\n        /* \"CoreContracts/kalyswap-periphery/KalyswapBridgeMigrationRouter.sol\":15900:15939  IKalyswapPair(liquidityPairTo).token1() */\n      mload(0x40)\n      dup2\n      0xffffffff\n      and\n      0xe0\n      shl\n      dup2\n      mstore\n      0x04\n      add\n      0x20\n      mload(0x40)\n      dup1\n      dup4\n      sub\n      dup2\n      dup7\n      dup1\n      extcodesize\n      iszero\n      dup1\n      iszero\n      tag_90\n      jumpi\n      0x00\n      dup1\n      revert\n    tag_90:\n      pop\n      gas\n      staticcall\n      iszero\n      dup1\n      iszero\n      tag_92\n      jumpi\n      returndatasize\n      0x00\n      dup1\n      returndatacopy\n      revert(0x00, returndatasize)\n    tag_92:\n      pop\n      pop\n      pop\n      pop\n      mload(0x40)\n      returndatasize\n      0x20\n      dup2\n      lt\n      iszero\n      tag_93\n      jumpi\n      0x00\n      dup1\n      revert\n    tag_93:\n      pop\n      mload\n        /* \"CoreContracts/kalyswap-periphery/KalyswapBridgeMigrationRouter.sol\":15855:15896  IKalyswapPair(liquidityPairFrom).token1() */\n      0x40\n      dup1\n      mload\n      shl(0xe0, 0xd21220a7)\n      dup2\n      mstore\n      swap1\n      mload\n      sub(shl(0xa0, 0x01), 0x01)\n        /* \"CoreContracts/kalyswap-periphery/KalyswapBridgeMigrationRouter.sol\":15855:15939  IKalyswapPair(liquidityPairFrom).token1() != IKalyswapPair(liquidityPairTo).token1() */\n      swap3\n      dup4\n      and\n      swap3\n        /* \"CoreContracts/kalyswap-periphery/KalyswapBridgeMigrationRouter.sol\":15855:15894  IKalyswapPair(liquidityPairFrom).token1 */\n      dup11\n      and\n      swap2\n      0xd21220a7\n      swap2\n        /* \"CoreContracts/kalyswap-periphery/KalyswapBridgeMigrationRouter.sol\":15855:15896  IKalyswapPair(liquidityPairFrom).token1() */\n      0x04\n      dup1\n      dup4\n      add\n      swap3\n        /* \"CoreContracts/kalyswap-periphery/KalyswapBridgeMigrationRouter.sol\":15900:15939  IKalyswapPair(liquidityPairTo).token1() */\n      0x20\n      swap3\n        /* \"CoreContracts/kalyswap-periphery/KalyswapBridgeMigrationRouter.sol\":15855:15896  IKalyswapPair(liquidityPairFrom).token1() */\n      swap2\n      swap1\n      dup3\n      swap1\n      sub\n      add\n      dup2\n        /* \"CoreContracts/kalyswap-periphery/KalyswapBridgeMigrationRouter.sol\":15855:15894  IKalyswapPair(liquidityPairFrom).token1 */\n      dup7\n        /* \"CoreContracts/kalyswap-periphery/KalyswapBridgeMigrationRouter.sol\":15855:15896  IKalyswapPair(liquidityPairFrom).token1() */\n      dup1\n      extcodesize\n      iszero\n      dup1\n      iszero\n      tag_94\n      jumpi\n      0x00\n      dup1\n      revert\n    tag_94:\n      pop\n      gas\n      staticcall\n      iszero\n      dup1\n      iszero\n      tag_96\n      jumpi\n      returndatasize\n      0x00\n      dup1\n      returndatacopy\n      revert(0x00, returndatasize)\n    tag_96:\n      pop\n      pop\n      pop\n      pop\n      mload(0x40)\n      returndatasize\n      0x20\n      dup2\n      lt\n      iszero\n      tag_97\n      jumpi\n      0x00\n      dup1\n      revert\n    tag_97:\n      pop\n      mload\n      sub(shl(0xa0, 0x01), 0x01)\n        /* \"CoreContracts/kalyswap-periphery/KalyswapBridgeMigrationRouter.sol\":15855:15939  IKalyswapPair(liquidityPairFrom).token1() != IKalyswapPair(liquidityPairTo).token1() */\n      and\n      eq\n      iszero\n        /* \"CoreContracts/kalyswap-periphery/KalyswapBridgeMigrationRouter.sol\":15755:15939  IKalyswapPair(liquidityPairFrom).token0() != IKalyswapPair(liquidityPairTo).token0() &&... */\n    tag_89:\n        /* \"CoreContracts/kalyswap-periphery/KalyswapBridgeMigrationRouter.sol\":15751:16022  if (IKalyswapPair(liquidityPairFrom).token0() != IKalyswapPair(liquidityPairTo).token0() &&... */\n      iszero\n      tag_98\n      jumpi\n        /* \"CoreContracts/kalyswap-periphery/KalyswapBridgeMigrationRouter.sol\":15990:15999  amountIn1 */\n      swap1\n        /* \"CoreContracts/kalyswap-periphery/KalyswapBridgeMigrationRouter.sol\":15751:16022  if (IKalyswapPair(liquidityPairFrom).token0() != IKalyswapPair(liquidityPairTo).token0() &&... */\n    tag_98:\n        /* \"CoreContracts/kalyswap-periphery/KalyswapBridgeMigrationRouter.sol\":16032:16048  uint112 reserve0 */\n      0x00\n        /* \"CoreContracts/kalyswap-periphery/KalyswapBridgeMigrationRouter.sol\":16050:16066  uint112 reserve1 */\n      dup1\n        /* \"CoreContracts/kalyswap-periphery/KalyswapBridgeMigrationRouter.sol\":16085:16100  liquidityPairTo */\n      dup8\n      sub(shl(0xa0, 0x01), 0x01)\n        /* \"CoreContracts/kalyswap-periphery/KalyswapBridgeMigrationRouter.sol\":16071:16113  IKalyswapPair(liquidityPairTo).getReserves */\n      and\n      0x0902f1ac\n        /* \"CoreContracts/kalyswap-periphery/KalyswapBridgeMigrationRouter.sol\":16071:16115  IKalyswapPair(liquidityPairTo).getReserves() */\n      mload(0x40)\n      dup2\n      0xffffffff\n      and\n      0xe0\n      shl\n      dup2\n      mstore\n      0x04\n      add\n      0x60\n      mload(0x40)\n      dup1\n      dup4\n      sub\n      dup2\n      dup7\n      dup1\n      extcodesize\n      iszero\n      dup1\n      iszero\n      tag_99\n      jumpi\n      0x00\n      dup1\n      revert\n    tag_99:\n      pop\n      gas\n      staticcall\n      iszero\n      dup1\n      iszero\n      tag_101\n      jumpi\n      returndatasize\n      0x00\n      dup1\n      returndatacopy\n      revert(0x00, returndatasize)\n    tag_101:\n      pop\n      pop\n      pop\n      pop\n      mload(0x40)\n      returndatasize\n      0x60\n      dup2\n      lt\n      iszero\n      tag_102\n      jumpi\n      0x00\n      dup1\n      revert\n    tag_102:\n      pop\n      dup1\n      mload\n      0x20\n      swap1\n      swap2\n      add\n      mload\n      swap1\n      swap3\n      pop\n      swap1\n      pop\n        /* \"CoreContracts/kalyswap-periphery/KalyswapBridgeMigrationRouter.sol\":16139:16148  amountIn0 */\n      dup4\n        /* \"CoreContracts/kalyswap-periphery/KalyswapBridgeMigrationRouter.sol\":16125:16136  uint quote0 */\n      0x00\n        /* \"CoreContracts/kalyswap-periphery/KalyswapBridgeMigrationRouter.sol\":16172:16224  KalyswapLibrary.quote(amountIn0, reserve0, reserve1) */\n      tag_103\n        /* \"CoreContracts/kalyswap-periphery/KalyswapBridgeMigrationRouter.sol\":16139:16148  amountIn0 */\n      dup3\n        /* \"CoreContracts/kalyswap-periphery/KalyswapBridgeMigrationRouter.sol\":16172:16224  KalyswapLibrary.quote(amountIn0, reserve0, reserve1) */\n      0xffffffffffffffffffffffffffff\n      dup1\n      dup8\n      and\n      swap1\n      dup7\n      and\n        /* \"CoreContracts/kalyswap-periphery/KalyswapBridgeMigrationRouter.sol\":16172:16193  KalyswapLibrary.quote */\n      tag_104\n        /* \"CoreContracts/kalyswap-periphery/KalyswapBridgeMigrationRouter.sol\":16172:16224  KalyswapLibrary.quote(amountIn0, reserve0, reserve1) */\n      jump\t// in\n    tag_103:\n        /* \"CoreContracts/kalyswap-periphery/KalyswapBridgeMigrationRouter.sol\":16158:16224  uint quote1 = KalyswapLibrary.quote(amountIn0, reserve0, reserve1) */\n      swap1\n      pop\n        /* \"CoreContracts/kalyswap-periphery/KalyswapBridgeMigrationRouter.sol\":16247:16256  amountIn1 */\n      dup5\n        /* \"CoreContracts/kalyswap-periphery/KalyswapBridgeMigrationRouter.sol\":16238:16244  quote1 */\n      dup2\n        /* \"CoreContracts/kalyswap-periphery/KalyswapBridgeMigrationRouter.sol\":16238:16256  quote1 > amountIn1 */\n      gt\n        /* \"CoreContracts/kalyswap-periphery/KalyswapBridgeMigrationRouter.sol\":16234:16376  if (quote1 > amountIn1) {... */\n      iszero\n      tag_105\n      jumpi\n        /* \"CoreContracts/kalyswap-periphery/KalyswapBridgeMigrationRouter.sol\":16281:16290  amountIn1 */\n      dup5\n        /* \"CoreContracts/kalyswap-periphery/KalyswapBridgeMigrationRouter.sol\":16272:16290  quote1 = amountIn1 */\n      swap1\n      pop\n        /* \"CoreContracts/kalyswap-periphery/KalyswapBridgeMigrationRouter.sol\":16313:16365  KalyswapLibrary.quote(amountIn1, reserve1, reserve0) */\n      tag_106\n        /* \"CoreContracts/kalyswap-periphery/KalyswapBridgeMigrationRouter.sol\":16335:16344  amountIn1 */\n      dup6\n        /* \"CoreContracts/kalyswap-periphery/KalyswapBridgeMigrationRouter.sol\":16346:16354  reserve1 */\n      dup5\n        /* \"CoreContracts/kalyswap-periphery/KalyswapBridgeMigrationRouter.sol\":16313:16365  KalyswapLibrary.quote(amountIn1, reserve1, reserve0) */\n      0xffffffffffffffffffffffffffff\n      and\n        /* \"CoreContracts/kalyswap-periphery/KalyswapBridgeMigrationRouter.sol\":16356:16364  reserve0 */\n      dup7\n        /* \"CoreContracts/kalyswap-periphery/KalyswapBridgeMigrationRouter.sol\":16313:16365  KalyswapLibrary.quote(amountIn1, reserve1, reserve0) */\n      0xffffffffffffffffffffffffffff\n      and\n        /* \"CoreContracts/kalyswap-periphery/KalyswapBridgeMigrationRouter.sol\":16313:16334  KalyswapLibrary.quote */\n      tag_104\n        /* \"CoreContracts/kalyswap-periphery/KalyswapBridgeMigrationRouter.sol\":16313:16365  KalyswapLibrary.quote(amountIn1, reserve1, reserve0) */\n      jump\t// in\n    tag_106:\n        /* \"CoreContracts/kalyswap-periphery/KalyswapBridgeMigrationRouter.sol\":16304:16365  quote0 = KalyswapLibrary.quote(amountIn1, reserve1, reserve0) */\n      swap2\n      pop\n        /* \"CoreContracts/kalyswap-periphery/KalyswapBridgeMigrationRouter.sol\":16234:16376  if (quote1 > amountIn1) {... */\n    tag_105:\n        /* \"CoreContracts/kalyswap-periphery/KalyswapBridgeMigrationRouter.sol\":16395:16413  amountIn0 - quote0 */\n      swap5\n      sub\n      swap10\n        /* \"CoreContracts/kalyswap-periphery/KalyswapBridgeMigrationRouter.sol\":16433:16451  amountIn1 - quote1 */\n      swap4\n      swap1\n      swap3\n      sub\n      swap8\n      pop\n        /* \"CoreContracts/kalyswap-periphery/KalyswapBridgeMigrationRouter.sol\":15221:16458  function calculateChargeBack(... */\n      swap2\n      swap6\n      pop\n      pop\n      pop\n      pop\n      pop\n      pop\n      jump\t// out\n        /* \"CoreContracts/kalyswap-periphery/KalyswapBridgeMigrationRouter.sol\":9554:10036  function migrateLiquidityWithPermit(... */\n    tag_34:\n        /* \"CoreContracts/kalyswap-periphery/KalyswapBridgeMigrationRouter.sol\":9783:9791  deadline */\n      dup4\n        /* \"CoreContracts/kalyswap-periphery/KalyswapBridgeMigrationRouter.sol\":649:664  block.timestamp */\n      timestamp\n        /* \"CoreContracts/kalyswap-periphery/KalyswapBridgeMigrationRouter.sol\":637:645  deadline */\n      dup2\n        /* \"CoreContracts/kalyswap-periphery/KalyswapBridgeMigrationRouter.sol\":637:664  deadline >= block.timestamp */\n      lt\n      iszero\n        /* \"CoreContracts/kalyswap-periphery/KalyswapBridgeMigrationRouter.sol\":629:707  require(deadline >= block.timestamp, 'KalyswapBridgeMigrationRouter: EXPIRED') */\n      tag_108\n      jumpi\n      mload(0x40)\n      shl(0xe5, 0x461bcd)\n      dup2\n      mstore\n      0x04\n      add\n      dup1\n      dup1\n      0x20\n      add\n      dup3\n      dup2\n      sub\n      dup3\n      mstore\n      0x26\n      dup2\n      mstore\n      0x20\n      add\n      dup1\n      data_ab411b16b48c0dfc5a303ed96b1803938c6e2d0701b8085498de3b758ca25a98\n      0x26\n      swap2\n      codecopy\n      0x40\n      add\n      swap2\n      pop\n      pop\n      mload(0x40)\n      dup1\n      swap2\n      sub\n      swap1\n      revert\n    tag_108:\n        /* \"CoreContracts/kalyswap-periphery/KalyswapBridgeMigrationRouter.sol\":9803:9896  IKalyswapPair(liquidityPairFrom).permit(msg.sender, address(this), amount, deadline, v, r, s) */\n      0x40\n      dup1\n      mload\n      0xd505accf00000000000000000000000000000000000000000000000000000000\n      dup2\n      mstore\n        /* \"CoreContracts/kalyswap-periphery/KalyswapBridgeMigrationRouter.sol\":9843:9853  msg.sender */\n      caller\n        /* \"CoreContracts/kalyswap-periphery/KalyswapBridgeMigrationRouter.sol\":9803:9896  IKalyswapPair(liquidityPairFrom).permit(msg.sender, address(this), amount, deadline, v, r, s) */\n      0x04\n      dup3\n      add\n      mstore\n        /* \"CoreContracts/kalyswap-periphery/KalyswapBridgeMigrationRouter.sol\":9863:9867  this */\n      address\n        /* \"CoreContracts/kalyswap-periphery/KalyswapBridgeMigrationRouter.sol\":9803:9896  IKalyswapPair(liquidityPairFrom).permit(msg.sender, address(this), amount, deadline, v, r, s) */\n      0x24\n      dup3\n      add\n      mstore\n      0x44\n      dup2\n      add\n      dup9\n      swap1\n      mstore\n      0x64\n      dup2\n      add\n      dup8\n      swap1\n      mstore\n      0xff\n      dup7\n      and\n      0x84\n      dup3\n      add\n      mstore\n      0xa4\n      dup2\n      add\n      dup6\n      swap1\n      mstore\n      0xc4\n      dup2\n      add\n      dup5\n      swap1\n      mstore\n      swap1\n      mload\n      sub(shl(0xa0, 0x01), 0x01)\n        /* \"CoreContracts/kalyswap-periphery/KalyswapBridgeMigrationRouter.sol\":9803:9842  IKalyswapPair(liquidityPairFrom).permit */\n      dup12\n      and\n      swap2\n      0xd505accf\n      swap2\n        /* \"CoreContracts/kalyswap-periphery/KalyswapBridgeMigrationRouter.sol\":9803:9896  IKalyswapPair(liquidityPairFrom).permit(msg.sender, address(this), amount, deadline, v, r, s) */\n      0xe4\n      dup1\n      dup4\n      add\n      swap3\n      0x00\n      swap3\n      swap2\n      swap1\n      dup3\n      swap1\n      sub\n      add\n      dup2\n      dup4\n        /* \"CoreContracts/kalyswap-periphery/KalyswapBridgeMigrationRouter.sol\":9803:9842  IKalyswapPair(liquidityPairFrom).permit */\n      dup8\n        /* \"CoreContracts/kalyswap-periphery/KalyswapBridgeMigrationRouter.sol\":9803:9896  IKalyswapPair(liquidityPairFrom).permit(msg.sender, address(this), amount, deadline, v, r, s) */\n      dup1\n      extcodesize\n      iszero\n      dup1\n      iszero\n      tag_110\n      jumpi\n      0x00\n      dup1\n      revert\n    tag_110:\n      pop\n      gas\n      call\n      iszero\n      dup1\n      iszero\n      tag_112\n      jumpi\n      returndatasize\n      0x00\n      dup1\n      returndatacopy\n      revert(0x00, returndatasize)\n    tag_112:\n      pop\n      pop\n      pop\n      pop\n        /* \"CoreContracts/kalyswap-periphery/KalyswapBridgeMigrationRouter.sol\":9906:10029  _migrateLiquidity(... */\n      tag_113\n        /* \"CoreContracts/kalyswap-periphery/KalyswapBridgeMigrationRouter.sol\":9937:9954  liquidityPairFrom */\n      dup10\n        /* \"CoreContracts/kalyswap-periphery/KalyswapBridgeMigrationRouter.sol\":9968:9983  liquidityPairTo */\n      dup10\n        /* \"CoreContracts/kalyswap-periphery/KalyswapBridgeMigrationRouter.sol\":9997:9999  to */\n      dup10\n        /* \"CoreContracts/kalyswap-periphery/KalyswapBridgeMigrationRouter.sol\":10013:10019  amount */\n      dup10\n        /* \"CoreContracts/kalyswap-periphery/KalyswapBridgeMigrationRouter.sol\":9906:9923  _migrateLiquidity */\n      tag_56\n        /* \"CoreContracts/kalyswap-periphery/KalyswapBridgeMigrationRouter.sol\":9906:10029  _migrateLiquidity(... */\n      jump\t// in\n    tag_113:\n        /* \"CoreContracts/kalyswap-periphery/KalyswapBridgeMigrationRouter.sol\":9554:10036  function migrateLiquidityWithPermit(... */\n      pop\n      pop\n      pop\n      pop\n      pop\n      pop\n      pop\n      pop\n      pop\n      jump\t// out\n        /* \"CoreContracts/kalyswap-periphery/KalyswapBridgeMigrationRouter.sol\":8393:8880  function migrateToken(... */\n    tag_37:\n        /* \"CoreContracts/kalyswap-periphery/KalyswapBridgeMigrationRouter.sol\":8524:8532  deadline */\n      dup1\n        /* \"CoreContracts/kalyswap-periphery/KalyswapBridgeMigrationRouter.sol\":649:664  block.timestamp */\n      timestamp\n        /* \"CoreContracts/kalyswap-periphery/KalyswapBridgeMigrationRouter.sol\":637:645  deadline */\n      dup2\n        /* \"CoreContracts/kalyswap-periphery/KalyswapBridgeMigrationRouter.sol\":637:664  deadline >= block.timestamp */\n      lt\n      iszero\n        /* \"CoreContracts/kalyswap-periphery/KalyswapBridgeMigrationRouter.sol\":629:707  require(deadline >= block.timestamp, 'KalyswapBridgeMigrationRouter: EXPIRED') */\n      tag_115\n      jumpi\n      mload(0x40)\n      shl(0xe5, 0x461bcd)\n      dup2\n      mstore\n      0x04\n      add\n      dup1\n      dup1\n      0x20\n      add\n      dup3\n      dup2\n      sub\n      dup3\n      mstore\n      0x26\n      dup2\n      mstore\n      0x20\n      add\n      dup1\n      data_ab411b16b48c0dfc5a303ed96b1803938c6e2d0701b8085498de3b758ca25a98\n      0x26\n      swap2\n      codecopy\n      0x40\n      add\n      swap2\n      pop\n      pop\n      mload(0x40)\n      dup1\n      swap2\n      sub\n      swap1\n      revert\n    tag_115:\n      sub(shl(0xa0, 0x01), 0x01)\n        /* \"CoreContracts/kalyswap-periphery/KalyswapBridgeMigrationRouter.sol\":8565:8586  bridgeMigrator[token] */\n      dup6\n      dup2\n      and\n        /* \"CoreContracts/kalyswap-periphery/KalyswapBridgeMigrationRouter.sol\":8598:8599  0 */\n      0x00\n        /* \"CoreContracts/kalyswap-periphery/KalyswapBridgeMigrationRouter.sol\":8565:8586  bridgeMigrator[token] */\n      swap1\n      dup2\n      mstore\n        /* \"CoreContracts/kalyswap-periphery/KalyswapBridgeMigrationRouter.sol\":8565:8579  bridgeMigrator */\n      0x01\n        /* \"CoreContracts/kalyswap-periphery/KalyswapBridgeMigrationRouter.sol\":8565:8586  bridgeMigrator[token] */\n      0x20\n      mstore\n      0x40\n      swap1\n      keccak256\n      sload\n      and\n        /* \"CoreContracts/kalyswap-periphery/KalyswapBridgeMigrationRouter.sol\":8544:8680  require(... */\n      tag_117\n      jumpi\n      mload(0x40)\n      shl(0xe5, 0x461bcd)\n      dup2\n      mstore\n      0x04\n      add\n      dup1\n      dup1\n      0x20\n      add\n      dup3\n      dup2\n      sub\n      dup3\n      mstore\n      0x36\n      dup2\n      mstore\n      0x20\n      add\n      dup1\n      data_ddde50f1cae8853e86ca4100759dc699a86a58cbbaac272e74d5c0bdd9991550\n      0x36\n      swap2\n      codecopy\n      0x40\n      add\n      swap2\n      pop\n      pop\n      mload(0x40)\n      dup1\n      swap2\n      sub\n      swap1\n      revert\n    tag_117:\n        /* \"CoreContracts/kalyswap-periphery/KalyswapBridgeMigrationRouter.sol\":8690:8763  TransferHelper.safeTransferFrom(token, msg.sender, address(this), amount) */\n      tag_118\n        /* \"CoreContracts/kalyswap-periphery/KalyswapBridgeMigrationRouter.sol\":8722:8727  token */\n      dup6\n        /* \"CoreContracts/kalyswap-periphery/KalyswapBridgeMigrationRouter.sol\":8729:8739  msg.sender */\n      caller\n        /* \"CoreContracts/kalyswap-periphery/KalyswapBridgeMigrationRouter.sol\":8749:8753  this */\n      address\n        /* \"CoreContracts/kalyswap-periphery/KalyswapBridgeMigrationRouter.sol\":8756:8762  amount */\n      dup7\n        /* \"CoreContracts/kalyswap-periphery/KalyswapBridgeMigrationRouter.sol\":8690:8721  TransferHelper.safeTransferFrom */\n      tag_119\n        /* \"CoreContracts/kalyswap-periphery/KalyswapBridgeMigrationRouter.sol\":8690:8763  TransferHelper.safeTransferFrom(token, msg.sender, address(this), amount) */\n      jump\t// in\n    tag_118:\n        /* \"CoreContracts/kalyswap-periphery/KalyswapBridgeMigrationRouter.sol\":8773:8801  _migrateToken(token, amount) */\n      tag_120\n        /* \"CoreContracts/kalyswap-periphery/KalyswapBridgeMigrationRouter.sol\":8787:8792  token */\n      dup6\n        /* \"CoreContracts/kalyswap-periphery/KalyswapBridgeMigrationRouter.sol\":8794:8800  amount */\n      dup5\n        /* \"CoreContracts/kalyswap-periphery/KalyswapBridgeMigrationRouter.sol\":8773:8786  _migrateToken */\n      tag_121\n        /* \"CoreContracts/kalyswap-periphery/KalyswapBridgeMigrationRouter.sol\":8773:8801  _migrateToken(token, amount) */\n      jump\t// in\n    tag_120:\n      sub(shl(0xa0, 0x01), 0x01)\n        /* \"CoreContracts/kalyswap-periphery/KalyswapBridgeMigrationRouter.sol\":8839:8860  bridgeMigrator[token] */\n      dup1\n      dup7\n      and\n      0x00\n      swap1\n      dup2\n      mstore\n        /* \"CoreContracts/kalyswap-periphery/KalyswapBridgeMigrationRouter.sol\":8839:8853  bridgeMigrator */\n      0x01\n        /* \"CoreContracts/kalyswap-periphery/KalyswapBridgeMigrationRouter.sol\":8839:8860  bridgeMigrator[token] */\n      0x20\n      mstore\n      0x40\n      swap1\n      keccak256\n      sload\n        /* \"CoreContracts/kalyswap-periphery/KalyswapBridgeMigrationRouter.sol\":8811:8873  TransferHelper.safeTransfer(bridgeMigrator[token], to, amount) */\n      tag_122\n      swap2\n        /* \"CoreContracts/kalyswap-periphery/KalyswapBridgeMigrationRouter.sol\":8839:8860  bridgeMigrator[token] */\n      and\n        /* \"CoreContracts/kalyswap-periphery/KalyswapBridgeMigrationRouter.sol\":8862:8864  to */\n      dup6\n        /* \"CoreContracts/kalyswap-periphery/KalyswapBridgeMigrationRouter.sol\":8866:8872  amount */\n      dup6\n        /* \"CoreContracts/kalyswap-periphery/KalyswapBridgeMigrationRouter.sol\":8811:8838  TransferHelper.safeTransfer */\n      tag_123\n        /* \"CoreContracts/kalyswap-periphery/KalyswapBridgeMigrationRouter.sol\":8811:8873  TransferHelper.safeTransfer(bridgeMigrator[token], to, amount) */\n      jump\t// in\n    tag_122:\n        /* \"CoreContracts/kalyswap-periphery/KalyswapBridgeMigrationRouter.sol\":8393:8880  function migrateToken(... */\n      pop\n      pop\n      pop\n      pop\n      pop\n      jump\t// out\n        /* \"CoreContracts/kalyswap-periphery/KalyswapBridgeMigrationRouter.sol\":393:442  mapping(address => address) public bridgeMigrator */\n    tag_40:\n      mstore(0x20, 0x01)\n      0x00\n      swap1\n      dup2\n      mstore\n      0x40\n      swap1\n      keccak256\n      sload\n      sub(shl(0xa0, 0x01), 0x01)\n      and\n      dup2\n      jump\t// out\n        /* \"CoreContracts/kalyswap-periphery/libraries/Roles.sol\":208:383  function add(Role storage role, address account) internal {... */\n    tag_41:\n        /* \"CoreContracts/kalyswap-periphery/libraries/Roles.sol\":285:303  has(role, account) */\n      tag_125\n        /* \"CoreContracts/kalyswap-periphery/libraries/Roles.sol\":289:293  role */\n      dup3\n        /* \"CoreContracts/kalyswap-periphery/libraries/Roles.sol\":295:302  account */\n      dup3\n        /* \"CoreContracts/kalyswap-periphery/libraries/Roles.sol\":285:288  has */\n      tag_44\n        /* \"CoreContracts/kalyswap-periphery/libraries/Roles.sol\":285:303  has(role, account) */\n      jump\t// in\n    tag_125:\n        /* \"CoreContracts/kalyswap-periphery/libraries/Roles.sol\":284:303  !has(role, account) */\n      iszero\n        /* \"CoreContracts/kalyswap-periphery/libraries/Roles.sol\":276:339  require(!has(role, account), \"Roles: account already has role\") */\n      tag_126\n      jumpi\n      0x40\n      dup1\n      mload\n      shl(0xe5, 0x461bcd)\n      dup2\n      mstore\n      0x20\n      0x04\n      dup3\n      add\n      mstore\n      0x1f\n      0x24\n      dup3\n      add\n      mstore\n      0x526f6c65733a206163636f756e7420616c72656164792068617320726f6c6500\n      0x44\n      dup3\n      add\n      mstore\n      swap1\n      mload\n      swap1\n      dup2\n      swap1\n      sub\n      0x64\n      add\n      swap1\n      revert\n    tag_126:\n      sub(shl(0xa0, 0x01), 0x01)\n        /* \"CoreContracts/kalyswap-periphery/libraries/Roles.sol\":349:369  role.bearer[account] */\n      and\n        /* \"CoreContracts/kalyswap-periphery/libraries/Roles.sol\":349:360  role.bearer */\n      0x00\n        /* \"CoreContracts/kalyswap-periphery/libraries/Roles.sol\":349:369  role.bearer[account] */\n      swap1\n      dup2\n      mstore\n      0x20\n      swap2\n      swap1\n      swap2\n      mstore\n      0x40\n      swap1\n      keccak256\n        /* \"CoreContracts/kalyswap-periphery/libraries/Roles.sol\":349:376  role.bearer[account] = true */\n      dup1\n      sload\n      not(0xff)\n      and\n        /* \"CoreContracts/kalyswap-periphery/libraries/Roles.sol\":372:376  true */\n      0x01\n        /* \"CoreContracts/kalyswap-periphery/libraries/Roles.sol\":349:376  role.bearer[account] = true */\n      or\n      swap1\n      sstore\n        /* \"CoreContracts/kalyswap-periphery/libraries/Roles.sol\":208:383  function add(Role storage role, address account) internal {... */\n      jump\t// out\n        /* \"CoreContracts/kalyswap-periphery/libraries/Roles.sol\":727:955  function has(Role storage role, address account)... */\n    tag_44:\n        /* \"CoreContracts/kalyswap-periphery/libraries/Roles.sol\":823:827  bool */\n      0x00\n      sub(shl(0xa0, 0x01), 0x01)\n        /* \"CoreContracts/kalyswap-periphery/libraries/Roles.sol\":851:872  account != address(0) */\n      dup3\n      and\n        /* \"CoreContracts/kalyswap-periphery/libraries/Roles.sol\":843:911  require(account != address(0), \"Roles: account is the zero address\") */\n      tag_128\n      jumpi\n      mload(0x40)\n      shl(0xe5, 0x461bcd)\n      dup2\n      mstore\n      0x04\n      add\n      dup1\n      dup1\n      0x20\n      add\n      dup3\n      dup2\n      sub\n      dup3\n      mstore\n      0x22\n      dup2\n      mstore\n      0x20\n      add\n      dup1\n      data_9d214fa89563f4e6456a3929327e54500ea1cde2c0ba9fb2035ec106190d682f\n      0x22\n      swap2\n      codecopy\n      0x40\n      add\n      swap2\n      pop\n      pop\n      mload(0x40)\n      dup1\n      swap2\n      sub\n      swap1\n      revert\n    tag_128:\n      pop\n      sub(shl(0xa0, 0x01), 0x01)\n        /* \"CoreContracts/kalyswap-periphery/libraries/Roles.sol\":928:948  role.bearer[account] */\n      and\n        /* \"CoreContracts/kalyswap-periphery/libraries/Roles.sol\":928:939  role.bearer */\n      0x00\n        /* \"CoreContracts/kalyswap-periphery/libraries/Roles.sol\":928:948  role.bearer[account] */\n      swap1\n      dup2\n      mstore\n      0x20\n      swap2\n      swap1\n      swap2\n      mstore\n      0x40\n      swap1\n      keccak256\n      sload\n      0xff\n      and\n      swap1\n        /* \"CoreContracts/kalyswap-periphery/libraries/Roles.sol\":727:955  function has(Role storage role, address account)... */\n      jump\t// out\n        /* \"CoreContracts/kalyswap-periphery/libraries/Roles.sol\":458:638  function remove(Role storage role, address account) internal {... */\n    tag_49:\n        /* \"CoreContracts/kalyswap-periphery/libraries/Roles.sol\":537:555  has(role, account) */\n      tag_130\n        /* \"CoreContracts/kalyswap-periphery/libraries/Roles.sol\":541:545  role */\n      dup3\n        /* \"CoreContracts/kalyswap-periphery/libraries/Roles.sol\":547:554  account */\n      dup3\n        /* \"CoreContracts/kalyswap-periphery/libraries/Roles.sol\":537:540  has */\n      tag_44\n        /* \"CoreContracts/kalyswap-periphery/libraries/Roles.sol\":537:555  has(role, account) */\n      jump\t// in\n    tag_130:\n        /* \"CoreContracts/kalyswap-periphery/libraries/Roles.sol\":529:593  require(has(role, account), \"Roles: account does not have role\") */\n      tag_131\n      jumpi\n      mload(0x40)\n      shl(0xe5, 0x461bcd)\n      dup2\n      mstore\n      0x04\n      add\n      dup1\n      dup1\n      0x20\n      add\n      dup3\n      dup2\n      sub\n      dup3\n      mstore\n      0x21\n      dup2\n      mstore\n      0x20\n      add\n      dup1\n      data_7bd893145ac435f339bb7c288622d270324b7033b011f693aca172f5cbc3c257\n      0x21\n      swap2\n      codecopy\n      0x40\n      add\n      swap2\n      pop\n      pop\n      mload(0x40)\n      dup1\n      swap2\n      sub\n      swap1\n      revert\n    tag_131:\n      sub(shl(0xa0, 0x01), 0x01)\n        /* \"CoreContracts/kalyswap-periphery/libraries/Roles.sol\":603:623  role.bearer[account] */\n      and\n        /* \"CoreContracts/kalyswap-periphery/libraries/Roles.sol\":626:631  false */\n      0x00\n        /* \"CoreContracts/kalyswap-periphery/libraries/Roles.sol\":603:623  role.bearer[account] */\n      swap1\n      dup2\n      mstore\n      0x20\n      swap2\n      swap1\n      swap2\n      mstore\n      0x40\n      swap1\n      keccak256\n        /* \"CoreContracts/kalyswap-periphery/libraries/Roles.sol\":603:631  role.bearer[account] = false */\n      dup1\n      sload\n      not(0xff)\n      and\n      swap1\n      sstore\n        /* \"CoreContracts/kalyswap-periphery/libraries/Roles.sol\":458:638  function remove(Role storage role, address account) internal {... */\n      jump\t// out\n        /* \"CoreContracts/kalyswap-periphery/KalyswapBridgeMigrationRouter.sol\":11410:13672  function _migrateLiquidity(... */\n    tag_56:\n        /* \"CoreContracts/kalyswap-periphery/KalyswapBridgeMigrationRouter.sol\":11571:11626  _arePairsCompatible(liquidityPairFrom, liquidityPairTo) */\n      tag_133\n        /* \"CoreContracts/kalyswap-periphery/KalyswapBridgeMigrationRouter.sol\":11591:11608  liquidityPairFrom */\n      dup5\n        /* \"CoreContracts/kalyswap-periphery/KalyswapBridgeMigrationRouter.sol\":11610:11625  liquidityPairTo */\n      dup5\n        /* \"CoreContracts/kalyswap-periphery/KalyswapBridgeMigrationRouter.sol\":11571:11590  _arePairsCompatible */\n      tag_134\n        /* \"CoreContracts/kalyswap-periphery/KalyswapBridgeMigrationRouter.sol\":11571:11626  _arePairsCompatible(liquidityPairFrom, liquidityPairTo) */\n      jump\t// in\n    tag_133:\n        /* \"CoreContracts/kalyswap-periphery/KalyswapBridgeMigrationRouter.sol\":11636:11658  address tokenToMigrate */\n      0x00\n        /* \"CoreContracts/kalyswap-periphery/KalyswapBridgeMigrationRouter.sol\":11675:11692  liquidityPairFrom */\n      dup5\n      sub(shl(0xa0, 0x01), 0x01)\n        /* \"CoreContracts/kalyswap-periphery/KalyswapBridgeMigrationRouter.sol\":11661:11700  IKalyswapPair(liquidityPairFrom).token0 */\n      and\n      0x0dfe1681\n        /* \"CoreContracts/kalyswap-periphery/KalyswapBridgeMigrationRouter.sol\":11661:11702  IKalyswapPair(liquidityPairFrom).token0() */\n      mload(0x40)\n      dup2\n      0xffffffff\n      and\n      0xe0\n      shl\n      dup2\n      mstore\n      0x04\n      add\n      0x20\n      mload(0x40)\n      dup1\n      dup4\n      sub\n      dup2\n      dup7\n      dup1\n      extcodesize\n      iszero\n      dup1\n      iszero\n      tag_135\n      jumpi\n      0x00\n      dup1\n      revert\n    tag_135:\n      pop\n      gas\n      staticcall\n      iszero\n      dup1\n      iszero\n      tag_137\n      jumpi\n      returndatasize\n      0x00\n      dup1\n      returndatacopy\n      revert(0x00, returndatasize)\n    tag_137:\n      pop\n      pop\n      pop\n      pop\n      mload(0x40)\n      returndatasize\n      0x20\n      dup2\n      lt\n      iszero\n      tag_138\n      jumpi\n      0x00\n      dup1\n      revert\n    tag_138:\n      pop\n      mload\n        /* \"CoreContracts/kalyswap-periphery/KalyswapBridgeMigrationRouter.sol\":11774:11813  IKalyswapPair(liquidityPairTo).token0() */\n      0x40\n      dup1\n      mload\n      shl(0xe0, 0x0dfe1681)\n      dup2\n      mstore\n      swap1\n      mload\n        /* \"CoreContracts/kalyswap-periphery/KalyswapBridgeMigrationRouter.sol\":11661:11702  IKalyswapPair(liquidityPairFrom).token0() */\n      swap2\n      swap3\n      pop\n      sub(shl(0xa0, 0x01), 0x01)\n        /* \"CoreContracts/kalyswap-periphery/KalyswapBridgeMigrationRouter.sol\":11774:11811  IKalyswapPair(liquidityPairTo).token0 */\n      dup7\n      and\n      swap2\n      0x0dfe1681\n      swap2\n        /* \"CoreContracts/kalyswap-periphery/KalyswapBridgeMigrationRouter.sol\":11774:11813  IKalyswapPair(liquidityPairTo).token0() */\n      0x04\n      dup1\n      dup3\n      add\n      swap3\n        /* \"CoreContracts/kalyswap-periphery/KalyswapBridgeMigrationRouter.sol\":11661:11702  IKalyswapPair(liquidityPairFrom).token0() */\n      0x20\n      swap3\n        /* \"CoreContracts/kalyswap-periphery/KalyswapBridgeMigrationRouter.sol\":11774:11813  IKalyswapPair(liquidityPairTo).token0() */\n      swap1\n      swap2\n      swap1\n      dup3\n      swap1\n      sub\n      add\n      dup2\n        /* \"CoreContracts/kalyswap-periphery/KalyswapBridgeMigrationRouter.sol\":11774:11811  IKalyswapPair(liquidityPairTo).token0 */\n      dup7\n        /* \"CoreContracts/kalyswap-periphery/KalyswapBridgeMigrationRouter.sol\":11774:11813  IKalyswapPair(liquidityPairTo).token0() */\n      dup1\n      extcodesize\n      iszero\n      dup1\n      iszero\n      tag_139\n      jumpi\n      0x00\n      dup1\n      revert\n    tag_139:\n      pop\n      gas\n      staticcall\n      iszero\n      dup1\n      iszero\n      tag_141\n      jumpi\n      returndatasize\n      0x00\n      dup1\n      returndatacopy\n      revert(0x00, returndatasize)\n    tag_141:\n      pop\n      pop\n      pop\n      pop\n      mload(0x40)\n      returndatasize\n      0x20\n      dup2\n      lt\n      iszero\n      tag_142\n      jumpi\n      0x00\n      dup1\n      revert\n    tag_142:\n      pop\n      mload\n        /* \"CoreContracts/kalyswap-periphery/KalyswapBridgeMigrationRouter.sol\":11729:11770  IKalyswapPair(liquidityPairFrom).token0() */\n      0x40\n      dup1\n      mload\n      shl(0xe0, 0x0dfe1681)\n      dup2\n      mstore\n      swap1\n      mload\n      sub(shl(0xa0, 0x01), 0x01)\n        /* \"CoreContracts/kalyswap-periphery/KalyswapBridgeMigrationRouter.sol\":11729:11813  IKalyswapPair(liquidityPairFrom).token0() == IKalyswapPair(liquidityPairTo).token0() */\n      swap3\n      dup4\n      and\n      swap3\n        /* \"CoreContracts/kalyswap-periphery/KalyswapBridgeMigrationRouter.sol\":11729:11768  IKalyswapPair(liquidityPairFrom).token0 */\n      dup9\n      and\n      swap2\n      0x0dfe1681\n      swap2\n        /* \"CoreContracts/kalyswap-periphery/KalyswapBridgeMigrationRouter.sol\":11729:11770  IKalyswapPair(liquidityPairFrom).token0() */\n      0x04\n      dup1\n      dup4\n      add\n      swap3\n        /* \"CoreContracts/kalyswap-periphery/KalyswapBridgeMigrationRouter.sol\":11774:11813  IKalyswapPair(liquidityPairTo).token0() */\n      0x20\n      swap3\n        /* \"CoreContracts/kalyswap-periphery/KalyswapBridgeMigrationRouter.sol\":11729:11770  IKalyswapPair(liquidityPairFrom).token0() */\n      swap2\n      swap1\n      dup3\n      swap1\n      sub\n      add\n      dup2\n        /* \"CoreContracts/kalyswap-periphery/KalyswapBridgeMigrationRouter.sol\":11729:11768  IKalyswapPair(liquidityPairFrom).token0 */\n      dup7\n        /* \"CoreContracts/kalyswap-periphery/KalyswapBridgeMigrationRouter.sol\":11729:11770  IKalyswapPair(liquidityPairFrom).token0() */\n      dup1\n      extcodesize\n      iszero\n      dup1\n      iszero\n      tag_143\n      jumpi\n      0x00\n      dup1\n      revert\n    tag_143:\n      pop\n      gas\n      staticcall\n      iszero\n      dup1\n      iszero\n      tag_145\n      jumpi\n      returndatasize\n      0x00\n      dup1\n      returndatacopy\n      revert(0x00, returndatasize)\n    tag_145:\n      pop\n      pop\n      pop\n      pop\n      mload(0x40)\n      returndatasize\n      0x20\n      dup2\n      lt\n      iszero\n      tag_146\n      jumpi\n      0x00\n      dup1\n      revert\n    tag_146:\n      pop\n      mload\n      sub(shl(0xa0, 0x01), 0x01)\n        /* \"CoreContracts/kalyswap-periphery/KalyswapBridgeMigrationRouter.sol\":11729:11813  IKalyswapPair(liquidityPairFrom).token0() == IKalyswapPair(liquidityPairTo).token0() */\n      and\n      eq\n      dup1\n        /* \"CoreContracts/kalyswap-periphery/KalyswapBridgeMigrationRouter.sol\":11729:11913  IKalyswapPair(liquidityPairFrom).token0() == IKalyswapPair(liquidityPairTo).token0() ||... */\n      tag_147\n      jumpi\n      pop\n        /* \"CoreContracts/kalyswap-periphery/KalyswapBridgeMigrationRouter.sol\":11888:11903  liquidityPairTo */\n      dup4\n      sub(shl(0xa0, 0x01), 0x01)\n        /* \"CoreContracts/kalyswap-periphery/KalyswapBridgeMigrationRouter.sol\":11874:11911  IKalyswapPair(liquidityPairTo).token1 */\n      and\n      0xd21220a7\n        /* \"CoreContracts/kalyswap-periphery/KalyswapBridgeMigrationRouter.sol\":11874:11913  IKalyswapPair(liquidityPairTo).token1() */\n      mload(0x40)\n      dup2\n      0xffffffff\n      and\n      0xe0\n      shl\n      dup2\n      mstore\n      0x04\n      add\n      0x20\n      mload(0x40)\n      dup1\n      dup4\n      sub\n      dup2\n      dup7\n      dup1\n      extcodesize\n      iszero\n      dup1\n      iszero\n      tag_148\n      jumpi\n      0x00\n      dup1\n      revert\n    tag_148:\n      pop\n      gas\n      staticcall\n      iszero\n      dup1\n      iszero\n      tag_150\n      jumpi\n      returndatasize\n      0x00\n      dup1\n      returndatacopy\n      revert(0x00, returndatasize)\n    tag_150:\n      pop\n      pop\n      pop\n      pop\n      mload(0x40)\n      returndatasize\n      0x20\n      dup2\n      lt\n      iszero\n      tag_151\n      jumpi\n      0x00\n      dup1\n      revert\n    tag_151:\n      pop\n      mload\n        /* \"CoreContracts/kalyswap-periphery/KalyswapBridgeMigrationRouter.sol\":11829:11870  IKalyswapPair(liquidityPairFrom).token0() */\n      0x40\n      dup1\n      mload\n      shl(0xe0, 0x0dfe1681)\n      dup2\n      mstore\n      swap1\n      mload\n      sub(shl(0xa0, 0x01), 0x01)\n        /* \"CoreContracts/kalyswap-periphery/KalyswapBridgeMigrationRouter.sol\":11829:11913  IKalyswapPair(liquidityPairFrom).token0() == IKalyswapPair(liquidityPairTo).token1() */\n      swap3\n      dup4\n      and\n      swap3\n        /* \"CoreContracts/kalyswap-periphery/KalyswapBridgeMigrationRouter.sol\":11829:11868  IKalyswapPair(liquidityPairFrom).token0 */\n      dup9\n      and\n      swap2\n      0x0dfe1681\n      swap2\n        /* \"CoreContracts/kalyswap-periphery/KalyswapBridgeMigrationRouter.sol\":11829:11870  IKalyswapPair(liquidityPairFrom).token0() */\n      0x04\n      dup1\n      dup4\n      add\n      swap3\n        /* \"CoreContracts/kalyswap-periphery/KalyswapBridgeMigrationRouter.sol\":11874:11913  IKalyswapPair(liquidityPairTo).token1() */\n      0x20\n      swap3\n        /* \"CoreContracts/kalyswap-periphery/KalyswapBridgeMigrationRouter.sol\":11829:11870  IKalyswapPair(liquidityPairFrom).token0() */\n      swap2\n      swap1\n      dup3\n      swap1\n      sub\n      add\n      dup2\n        /* \"CoreContracts/kalyswap-periphery/KalyswapBridgeMigrationRouter.sol\":11829:11868  IKalyswapPair(liquidityPairFrom).token0 */\n      dup7\n        /* \"CoreContracts/kalyswap-periphery/KalyswapBridgeMigrationRouter.sol\":11829:11870  IKalyswapPair(liquidityPairFrom).token0() */\n      dup1\n      extcodesize\n      iszero\n      dup1\n      iszero\n      tag_152\n      jumpi\n      0x00\n      dup1\n      revert\n    tag_152:\n      pop\n      gas\n      staticcall\n      iszero\n      dup1\n      iszero\n      tag_154\n      jumpi\n      returndatasize\n      0x00\n      dup1\n      returndatacopy\n      revert(0x00, returndatasize)\n    tag_154:\n      pop\n      pop\n      pop\n      pop\n      mload(0x40)\n      returndatasize\n      0x20\n      dup2\n      lt\n      iszero\n      tag_155\n      jumpi\n      0x00\n      dup1\n      revert\n    tag_155:\n      pop\n      mload\n      sub(shl(0xa0, 0x01), 0x01)\n        /* \"CoreContracts/kalyswap-periphery/KalyswapBridgeMigrationRouter.sol\":11829:11913  IKalyswapPair(liquidityPairFrom).token0() == IKalyswapPair(liquidityPairTo).token1() */\n      and\n      eq\n        /* \"CoreContracts/kalyswap-periphery/KalyswapBridgeMigrationRouter.sol\":11729:11913  IKalyswapPair(liquidityPairFrom).token0() == IKalyswapPair(liquidityPairTo).token0() ||... */\n    tag_147:\n        /* \"CoreContracts/kalyswap-periphery/KalyswapBridgeMigrationRouter.sol\":11712:12007  if (... */\n      iszero\n      tag_156\n      jumpi\n        /* \"CoreContracts/kalyswap-periphery/KalyswapBridgeMigrationRouter.sol\":11969:11986  liquidityPairFrom */\n      dup5\n      sub(shl(0xa0, 0x01), 0x01)\n        /* \"CoreContracts/kalyswap-periphery/KalyswapBridgeMigrationRouter.sol\":11955:11994  IKalyswapPair(liquidityPairFrom).token1 */\n      and\n      0xd21220a7\n        /* \"CoreContracts/kalyswap-periphery/KalyswapBridgeMigrationRouter.sol\":11955:11996  IKalyswapPair(liquidityPairFrom).token1() */\n      mload(0x40)\n      dup2\n      0xffffffff\n      and\n      0xe0\n      shl\n      dup2\n      mstore\n      0x04\n      add\n      0x20\n      mload(0x40)\n      dup1\n      dup4\n      sub\n      dup2\n      dup7\n      dup1\n      extcodesize\n      iszero\n      dup1\n      iszero\n      tag_157\n      jumpi\n      0x00\n      dup1\n      revert\n    tag_157:\n      pop\n      gas\n      staticcall\n      iszero\n      dup1\n      iszero\n      tag_159\n      jumpi\n      returndatasize\n      0x00\n      dup1\n      returndatacopy\n      revert(0x00, returndatasize)\n    tag_159:\n      pop\n      pop\n      pop\n      pop\n      mload(0x40)\n      returndatasize\n      0x20\n      dup2\n      lt\n      iszero\n      tag_160\n      jumpi\n      0x00\n      dup1\n      revert\n    tag_160:\n      pop\n      mload\n      swap1\n      pop\n        /* \"CoreContracts/kalyswap-periphery/KalyswapBridgeMigrationRouter.sol\":11712:12007  if (... */\n    tag_156:\n      sub(shl(0xa0, 0x01), 0x01)\n        /* \"CoreContracts/kalyswap-periphery/KalyswapBridgeMigrationRouter.sol\":12042:12072  bridgeMigrator[tokenToMigrate] */\n      dup1\n      dup3\n      and\n        /* \"CoreContracts/kalyswap-periphery/KalyswapBridgeMigrationRouter.sol\":12016:12039  address newTokenAddress */\n      0x00\n        /* \"CoreContracts/kalyswap-periphery/KalyswapBridgeMigrationRouter.sol\":12042:12072  bridgeMigrator[tokenToMigrate] */\n      swap1\n      dup2\n      mstore\n        /* \"CoreContracts/kalyswap-periphery/KalyswapBridgeMigrationRouter.sol\":12042:12056  bridgeMigrator */\n      0x01\n        /* \"CoreContracts/kalyswap-periphery/KalyswapBridgeMigrationRouter.sol\":12042:12072  bridgeMigrator[tokenToMigrate] */\n      0x20\n      mstore\n      0x40\n      swap1\n      keccak256\n      sload\n      and\n        /* \"CoreContracts/kalyswap-periphery/KalyswapBridgeMigrationRouter.sol\":12103:12132  newTokenAddress != address(0) */\n      dup1\n        /* \"CoreContracts/kalyswap-periphery/KalyswapBridgeMigrationRouter.sol\":12082:12225  require(... */\n      tag_161\n      jumpi\n      mload(0x40)\n      shl(0xe5, 0x461bcd)\n      dup2\n      mstore\n      0x04\n      add\n      dup1\n      dup1\n      0x20\n      add\n      dup3\n      dup2\n      sub\n      dup3\n      mstore\n      0x43\n      dup2\n      mstore\n      0x20\n      add\n      dup1\n      data_c3ea15ec7964d97f4fca03ff0a261f494af166a8c1b012c373fddb2447a896d1\n      0x43\n      swap2\n      codecopy\n      0x60\n      add\n      swap2\n      pop\n      pop\n      mload(0x40)\n      dup1\n      swap2\n      sub\n      swap1\n      revert\n    tag_161:\n        /* \"CoreContracts/kalyswap-periphery/KalyswapBridgeMigrationRouter.sol\":12289:12304  liquidityPairTo */\n      dup5\n      sub(shl(0xa0, 0x01), 0x01)\n        /* \"CoreContracts/kalyswap-periphery/KalyswapBridgeMigrationRouter.sol\":12275:12312  IKalyswapPair(liquidityPairTo).token0 */\n      and\n      0x0dfe1681\n        /* \"CoreContracts/kalyswap-periphery/KalyswapBridgeMigrationRouter.sol\":12275:12314  IKalyswapPair(liquidityPairTo).token0() */\n      mload(0x40)\n      dup2\n      0xffffffff\n      and\n      0xe0\n      shl\n      dup2\n      mstore\n      0x04\n      add\n      0x20\n      mload(0x40)\n      dup1\n      dup4\n      sub\n      dup2\n      dup7\n      dup1\n      extcodesize\n      iszero\n      dup1\n      iszero\n      tag_162\n      jumpi\n      0x00\n      dup1\n      revert\n    tag_162:\n      pop\n      gas\n      staticcall\n      iszero\n      dup1\n      iszero\n      tag_164\n      jumpi\n      returndatasize\n      0x00\n      dup1\n      returndatacopy\n      revert(0x00, returndatasize)\n    tag_164:\n      pop\n      pop\n      pop\n      pop\n      mload(0x40)\n      returndatasize\n      0x20\n      dup2\n      lt\n      iszero\n      tag_165\n      jumpi\n      0x00\n      dup1\n      revert\n    tag_165:\n      pop\n      mload\n      sub(shl(0xa0, 0x01), 0x01)\n        /* \"CoreContracts/kalyswap-periphery/KalyswapBridgeMigrationRouter.sol\":12256:12314  newTokenAddress == IKalyswapPair(liquidityPairTo).token0() */\n      dup3\n      dup2\n      and\n      swap2\n      and\n      eq\n      dup1\n        /* \"CoreContracts/kalyswap-periphery/KalyswapBridgeMigrationRouter.sol\":12256:12388  newTokenAddress == IKalyswapPair(liquidityPairTo).token0() ||... */\n      tag_166\n      jumpi\n      pop\n        /* \"CoreContracts/kalyswap-periphery/KalyswapBridgeMigrationRouter.sol\":12363:12378  liquidityPairTo */\n      dup5\n      sub(shl(0xa0, 0x01), 0x01)\n        /* \"CoreContracts/kalyswap-periphery/KalyswapBridgeMigrationRouter.sol\":12349:12386  IKalyswapPair(liquidityPairTo).token1 */\n      and\n      0xd21220a7\n        /* \"CoreContracts/kalyswap-periphery/KalyswapBridgeMigrationRouter.sol\":12349:12388  IKalyswapPair(liquidityPairTo).token1() */\n      mload(0x40)\n      dup2\n      0xffffffff\n      and\n      0xe0\n      shl\n      dup2\n      mstore\n      0x04\n      add\n      0x20\n      mload(0x40)\n      dup1\n      dup4\n      sub\n      dup2\n      dup7\n      dup1\n      extcodesize\n      iszero\n      dup1\n      iszero\n      tag_167\n      jumpi\n      0x00\n      dup1\n      revert\n    tag_167:\n      pop\n      gas\n      staticcall\n      iszero\n      dup1\n      iszero\n      tag_169\n      jumpi\n      returndatasize\n      0x00\n      dup1\n      returndatacopy\n      revert(0x00, returndatasize)\n    tag_169:\n      pop\n      pop\n      pop\n      pop\n      mload(0x40)\n      returndatasize\n      0x20\n      dup2\n      lt\n      iszero\n      tag_170\n      jumpi\n      0x00\n      dup1\n      revert\n    tag_170:\n      pop\n      mload\n      sub(shl(0xa0, 0x01), 0x01)\n        /* \"CoreContracts/kalyswap-periphery/KalyswapBridgeMigrationRouter.sol\":12330:12388  newTokenAddress == IKalyswapPair(liquidityPairTo).token1() */\n      dup3\n      dup2\n      and\n      swap2\n      and\n      eq\n        /* \"CoreContracts/kalyswap-periphery/KalyswapBridgeMigrationRouter.sol\":12256:12388  newTokenAddress == IKalyswapPair(liquidityPairTo).token0() ||... */\n    tag_166:\n        /* \"CoreContracts/kalyswap-periphery/KalyswapBridgeMigrationRouter.sol\":12235:12483  require(... */\n      tag_171\n      jumpi\n      mload(0x40)\n      shl(0xe5, 0x461bcd)\n      dup2\n      mstore\n      0x04\n      add\n      dup1\n      dup1\n      0x20\n      add\n      dup3\n      dup2\n      sub\n      dup3\n      mstore\n      0x45\n      dup2\n      mstore\n      0x20\n      add\n      dup1\n      data_1d8ac38f6fc3450d3a0236480a1ba0d030f5fe1f648621299163fdf4fc11c5c7\n      0x45\n      swap2\n      codecopy\n      0x60\n      add\n      swap2\n      pop\n      pop\n      mload(0x40)\n      dup1\n      swap2\n      sub\n      swap1\n      revert\n    tag_171:\n        /* \"CoreContracts/kalyswap-periphery/KalyswapBridgeMigrationRouter.sol\":12495:12512  uint amountTokenA */\n      0x00\n        /* \"CoreContracts/kalyswap-periphery/KalyswapBridgeMigrationRouter.sol\":12514:12531  uint amountTokenB */\n      dup1\n        /* \"CoreContracts/kalyswap-periphery/KalyswapBridgeMigrationRouter.sol\":12535:12578  _rescueLiquidity(liquidityPairFrom, amount) */\n      tag_172\n        /* \"CoreContracts/kalyswap-periphery/KalyswapBridgeMigrationRouter.sol\":12552:12569  liquidityPairFrom */\n      dup9\n        /* \"CoreContracts/kalyswap-periphery/KalyswapBridgeMigrationRouter.sol\":12571:12577  amount */\n      dup7\n        /* \"CoreContracts/kalyswap-periphery/KalyswapBridgeMigrationRouter.sol\":12535:12551  _rescueLiquidity */\n      tag_173\n        /* \"CoreContracts/kalyswap-periphery/KalyswapBridgeMigrationRouter.sol\":12535:12578  _rescueLiquidity(liquidityPairFrom, amount) */\n      jump\t// in\n    tag_172:\n        /* \"CoreContracts/kalyswap-periphery/KalyswapBridgeMigrationRouter.sol\":12494:12578  (uint amountTokenA, uint amountTokenB) = _rescueLiquidity(liquidityPairFrom, amount) */\n      swap2\n      pop\n      swap2\n      pop\n        /* \"CoreContracts/kalyswap-periphery/KalyswapBridgeMigrationRouter.sol\":12602:12619  uint amountToSwap */\n      0x00\n        /* \"CoreContracts/kalyswap-periphery/KalyswapBridgeMigrationRouter.sol\":12622:12634  amountTokenA */\n      dup3\n        /* \"CoreContracts/kalyswap-periphery/KalyswapBridgeMigrationRouter.sol\":12602:12634  uint amountToSwap = amountTokenA */\n      swap1\n      pop\n        /* \"CoreContracts/kalyswap-periphery/KalyswapBridgeMigrationRouter.sol\":12684:12701  liquidityPairFrom */\n      dup9\n      sub(shl(0xa0, 0x01), 0x01)\n        /* \"CoreContracts/kalyswap-periphery/KalyswapBridgeMigrationRouter.sol\":12670:12709  IKalyswapPair(liquidityPairFrom).token0 */\n      and\n      0x0dfe1681\n        /* \"CoreContracts/kalyswap-periphery/KalyswapBridgeMigrationRouter.sol\":12670:12711  IKalyswapPair(liquidityPairFrom).token0() */\n      mload(0x40)\n      dup2\n      0xffffffff\n      and\n      0xe0\n      shl\n      dup2\n      mstore\n      0x04\n      add\n      0x20\n      mload(0x40)\n      dup1\n      dup4\n      sub\n      dup2\n      dup7\n      dup1\n      extcodesize\n      iszero\n      dup1\n      iszero\n      tag_174\n      jumpi\n      0x00\n      dup1\n      revert\n    tag_174:\n      pop\n      gas\n      staticcall\n      iszero\n      dup1\n      iszero\n      tag_176\n      jumpi\n      returndatasize\n      0x00\n      dup1\n      returndatacopy\n      revert(0x00, returndatasize)\n    tag_176:\n      pop\n      pop\n      pop\n      pop\n      mload(0x40)\n      returndatasize\n      0x20\n      dup2\n      lt\n      iszero\n      tag_177\n      jumpi\n      0x00\n      dup1\n      revert\n    tag_177:\n      pop\n      mload\n      sub(shl(0xa0, 0x01), 0x01)\n        /* \"CoreContracts/kalyswap-periphery/KalyswapBridgeMigrationRouter.sol\":12652:12711  tokenToMigrate != IKalyswapPair(liquidityPairFrom).token0() */\n      dup7\n      dup2\n      and\n      swap2\n      and\n      eq\n        /* \"CoreContracts/kalyswap-periphery/KalyswapBridgeMigrationRouter.sol\":12648:12773  if (tokenToMigrate != IKalyswapPair(liquidityPairFrom).token0()) {... */\n      tag_178\n      jumpi\n      pop\n        /* \"CoreContracts/kalyswap-periphery/KalyswapBridgeMigrationRouter.sol\":12746:12758  amountTokenB */\n      dup1\n        /* \"CoreContracts/kalyswap-periphery/KalyswapBridgeMigrationRouter.sol\":12648:12773  if (tokenToMigrate != IKalyswapPair(liquidityPairFrom).token0()) {... */\n    tag_178:\n        /* \"CoreContracts/kalyswap-periphery/KalyswapBridgeMigrationRouter.sol\":12786:12829  _migrateToken(tokenToMigrate, amountToSwap) */\n      tag_179\n        /* \"CoreContracts/kalyswap-periphery/KalyswapBridgeMigrationRouter.sol\":12800:12814  tokenToMigrate */\n      dup6\n        /* \"CoreContracts/kalyswap-periphery/KalyswapBridgeMigrationRouter.sol\":12816:12828  amountToSwap */\n      dup3\n        /* \"CoreContracts/kalyswap-periphery/KalyswapBridgeMigrationRouter.sol\":12786:12799  _migrateToken */\n      tag_121\n        /* \"CoreContracts/kalyswap-periphery/KalyswapBridgeMigrationRouter.sol\":12786:12829  _migrateToken(tokenToMigrate, amountToSwap) */\n      jump\t// in\n    tag_179:\n        /* \"CoreContracts/kalyswap-periphery/KalyswapBridgeMigrationRouter.sol\":11410:13672  function _migrateLiquidity(... */\n      pop\n        /* \"CoreContracts/kalyswap-periphery/KalyswapBridgeMigrationRouter.sol\":12912:12927  liquidityPairTo */\n      dup7\n      sub(shl(0xa0, 0x01), 0x01)\n        /* \"CoreContracts/kalyswap-periphery/KalyswapBridgeMigrationRouter.sol\":12898:12935  IKalyswapPair(liquidityPairTo).token0 */\n      and\n      0x0dfe1681\n        /* \"CoreContracts/kalyswap-periphery/KalyswapBridgeMigrationRouter.sol\":12898:12937  IKalyswapPair(liquidityPairTo).token0() */\n      mload(0x40)\n      dup2\n      0xffffffff\n      and\n      0xe0\n      shl\n      dup2\n      mstore\n      0x04\n      add\n      0x20\n      mload(0x40)\n      dup1\n      dup4\n      sub\n      dup2\n      dup7\n      dup1\n      extcodesize\n      iszero\n      dup1\n      iszero\n      tag_180\n      jumpi\n      0x00\n      dup1\n      revert\n    tag_180:\n      pop\n      gas\n      staticcall\n      iszero\n      dup1\n      iszero\n      tag_182\n      jumpi\n      returndatasize\n      0x00\n      dup1\n      returndatacopy\n      revert(0x00, returndatasize)\n    tag_182:\n      pop\n      pop\n      pop\n      pop\n      mload(0x40)\n      returndatasize\n      0x20\n      dup2\n      lt\n      iszero\n      tag_183\n      jumpi\n      0x00\n      dup1\n      revert\n    tag_183:\n      pop\n      mload\n        /* \"CoreContracts/kalyswap-periphery/KalyswapBridgeMigrationRouter.sol\":12853:12894  IKalyswapPair(liquidityPairFrom).token0() */\n      0x40\n      dup1\n      mload\n      shl(0xe0, 0x0dfe1681)\n      dup2\n      mstore\n      swap1\n      mload\n      sub(shl(0xa0, 0x01), 0x01)\n        /* \"CoreContracts/kalyswap-periphery/KalyswapBridgeMigrationRouter.sol\":12853:12937  IKalyswapPair(liquidityPairFrom).token0() != IKalyswapPair(liquidityPairTo).token0() */\n      swap3\n      dup4\n      and\n      swap3\n        /* \"CoreContracts/kalyswap-periphery/KalyswapBridgeMigrationRouter.sol\":12853:12892  IKalyswapPair(liquidityPairFrom).token0 */\n      dup12\n      and\n      swap2\n      0x0dfe1681\n      swap2\n        /* \"CoreContracts/kalyswap-periphery/KalyswapBridgeMigrationRouter.sol\":12853:12894  IKalyswapPair(liquidityPairFrom).token0() */\n      0x04\n      dup1\n      dup4\n      add\n      swap3\n        /* \"CoreContracts/kalyswap-periphery/KalyswapBridgeMigrationRouter.sol\":12898:12937  IKalyswapPair(liquidityPairTo).token0() */\n      0x20\n      swap3\n        /* \"CoreContracts/kalyswap-periphery/KalyswapBridgeMigrationRouter.sol\":12853:12894  IKalyswapPair(liquidityPairFrom).token0() */\n      swap2\n      swap1\n      dup3\n      swap1\n      sub\n      add\n      dup2\n        /* \"CoreContracts/kalyswap-periphery/KalyswapBridgeMigrationRouter.sol\":12853:12892  IKalyswapPair(liquidityPairFrom).token0 */\n      dup7\n        /* \"CoreContracts/kalyswap-periphery/KalyswapBridgeMigrationRouter.sol\":12853:12894  IKalyswapPair(liquidityPairFrom).token0() */\n      dup1\n      extcodesize\n      iszero\n      dup1\n      iszero\n      tag_184\n      jumpi\n      0x00\n      dup1\n      revert\n    tag_184:\n      pop\n      gas\n      staticcall\n      iszero\n      dup1\n      iszero\n      tag_186\n      jumpi\n      returndatasize\n      0x00\n      dup1\n      returndatacopy\n      revert(0x00, returndatasize)\n    tag_186:\n      pop\n      pop\n      pop\n      pop\n      mload(0x40)\n      returndatasize\n      0x20\n      dup2\n      lt\n      iszero\n      tag_187\n      jumpi\n      0x00\n      dup1\n      revert\n    tag_187:\n      pop\n      mload\n      sub(shl(0xa0, 0x01), 0x01)\n        /* \"CoreContracts/kalyswap-periphery/KalyswapBridgeMigrationRouter.sol\":12853:12937  IKalyswapPair(liquidityPairFrom).token0() != IKalyswapPair(liquidityPairTo).token0() */\n      and\n      eq\n      dup1\n      iszero\n      swap1\n        /* \"CoreContracts/kalyswap-periphery/KalyswapBridgeMigrationRouter.sol\":12853:13037  IKalyswapPair(liquidityPairFrom).token0() != IKalyswapPair(liquidityPairTo).token0() &&... */\n      tag_188\n      jumpi\n      pop\n        /* \"CoreContracts/kalyswap-periphery/KalyswapBridgeMigrationRouter.sol\":13012:13027  liquidityPairTo */\n      dup7\n      sub(shl(0xa0, 0x01), 0x01)\n        /* \"CoreContracts/kalyswap-periphery/KalyswapBridgeMigrationRouter.sol\":12998:13035  IKalyswapPair(liquidityPairTo).token1 */\n      and\n      0xd21220a7\n        /* \"CoreContracts/kalyswap-periphery/KalyswapBridgeMigrationRouter.sol\":12998:13037  IKalyswapPair(liquidityPairTo).token1() */\n      mload(0x40)\n      dup2\n      0xffffffff\n      and\n      0xe0\n      shl\n      dup2\n      mstore\n      0x04\n      add\n      0x20\n      mload(0x40)\n      dup1\n      dup4\n      sub\n      dup2\n      dup7\n      dup1\n      extcodesize\n      iszero\n      dup1\n      iszero\n      tag_189\n      jumpi\n      0x00\n      dup1\n      revert\n    tag_189:\n      pop\n      gas\n      staticcall\n      iszero\n      dup1\n      iszero\n      tag_191\n      jumpi\n      returndatasize\n      0x00\n      dup1\n      returndatacopy\n      revert(0x00, returndatasize)\n    tag_191:\n      pop\n      pop\n      pop\n      pop\n      mload(0x40)\n      returndatasize\n      0x20\n      dup2\n      lt\n      iszero\n      tag_192\n      jumpi\n      0x00\n      dup1\n      revert\n    tag_192:\n      pop\n      mload\n        /* \"CoreContracts/kalyswap-periphery/KalyswapBridgeMigrationRouter.sol\":12953:12994  IKalyswapPair(liquidityPairFrom).token1() */\n      0x40\n      dup1\n      mload\n      shl(0xe0, 0xd21220a7)\n      dup2\n      mstore\n      swap1\n      mload\n      sub(shl(0xa0, 0x01), 0x01)\n        /* \"CoreContracts/kalyswap-periphery/KalyswapBridgeMigrationRouter.sol\":12953:13037  IKalyswapPair(liquidityPairFrom).token1() != IKalyswapPair(liquidityPairTo).token1() */\n      swap3\n      dup4\n      and\n      swap3\n        /* \"CoreContracts/kalyswap-periphery/KalyswapBridgeMigrationRouter.sol\":12953:12992  IKalyswapPair(liquidityPairFrom).token1 */\n      dup12\n      and\n      swap2\n      0xd21220a7\n      swap2\n        /* \"CoreContracts/kalyswap-periphery/KalyswapBridgeMigrationRouter.sol\":12953:12994  IKalyswapPair(liquidityPairFrom).token1() */\n      0x04\n      dup1\n      dup4\n      add\n      swap3\n        /* \"CoreContracts/kalyswap-periphery/KalyswapBridgeMigrationRouter.sol\":12998:13037  IKalyswapPair(liquidityPairTo).token1() */\n      0x20\n      swap3\n        /* \"CoreContracts/kalyswap-periphery/KalyswapBridgeMigrationRouter.sol\":12953:12994  IKalyswapPair(liquidityPairFrom).token1() */\n      swap2\n      swap1\n      dup3\n      swap1\n      sub\n      add\n      dup2\n        /* \"CoreContracts/kalyswap-periphery/KalyswapBridgeMigrationRouter.sol\":12953:12992  IKalyswapPair(liquidityPairFrom).token1 */\n      dup7\n        /* \"CoreContracts/kalyswap-periphery/KalyswapBridgeMigrationRouter.sol\":12953:12994  IKalyswapPair(liquidityPairFrom).token1() */\n      dup1\n      extcodesize\n      iszero\n      dup1\n      iszero\n      tag_193\n      jumpi\n      0x00\n      dup1\n      revert\n    tag_193:\n      pop\n      gas\n      staticcall\n      iszero\n      dup1\n      iszero\n      tag_195\n      jumpi\n      returndatasize\n      0x00\n      dup1\n      returndatacopy\n      revert(0x00, returndatasize)\n    tag_195:\n      pop\n      pop\n      pop\n      pop\n      mload(0x40)\n      returndatasize\n      0x20\n      dup2\n      lt\n      iszero\n      tag_196\n      jumpi\n      0x00\n      dup1\n      revert\n    tag_196:\n      pop\n      mload\n      sub(shl(0xa0, 0x01), 0x01)\n        /* \"CoreContracts/kalyswap-periphery/KalyswapBridgeMigrationRouter.sol\":12953:13037  IKalyswapPair(liquidityPairFrom).token1() != IKalyswapPair(liquidityPairTo).token1() */\n      and\n      eq\n      iszero\n        /* \"CoreContracts/kalyswap-periphery/KalyswapBridgeMigrationRouter.sol\":12853:13037  IKalyswapPair(liquidityPairFrom).token0() != IKalyswapPair(liquidityPairTo).token0() &&... */\n    tag_188:\n        /* \"CoreContracts/kalyswap-periphery/KalyswapBridgeMigrationRouter.sol\":12849:13132  if (IKalyswapPair(liquidityPairFrom).token0() != IKalyswapPair(liquidityPairTo).token0() &&... */\n      iszero\n      tag_197\n      jumpi\n        /* \"CoreContracts/kalyswap-periphery/KalyswapBridgeMigrationRouter.sol\":13094:13106  amountTokenB */\n      swap1\n        /* \"CoreContracts/kalyswap-periphery/KalyswapBridgeMigrationRouter.sol\":12849:13132  if (IKalyswapPair(liquidityPairFrom).token0() != IKalyswapPair(liquidityPairTo).token0() &&... */\n    tag_197:\n        /* \"CoreContracts/kalyswap-periphery/KalyswapBridgeMigrationRouter.sol\":13143:13161  uint changeAmount0 */\n      0x00\n        /* \"CoreContracts/kalyswap-periphery/KalyswapBridgeMigrationRouter.sol\":13163:13181  uint changeAmount1 */\n      dup1\n        /* \"CoreContracts/kalyswap-periphery/KalyswapBridgeMigrationRouter.sol\":13187:13377  _addLiquidity(... */\n      tag_198\n        /* \"CoreContracts/kalyswap-periphery/KalyswapBridgeMigrationRouter.sol\":13214:13229  liquidityPairTo */\n      dup10\n        /* \"CoreContracts/kalyswap-periphery/KalyswapBridgeMigrationRouter.sol\":13257:13272  liquidityPairTo */\n      dup11\n      sub(shl(0xa0, 0x01), 0x01)\n        /* \"CoreContracts/kalyswap-periphery/KalyswapBridgeMigrationRouter.sol\":13243:13280  IKalyswapPair(liquidityPairTo).token0 */\n      and\n      0x0dfe1681\n        /* \"CoreContracts/kalyswap-periphery/KalyswapBridgeMigrationRouter.sol\":13243:13282  IKalyswapPair(liquidityPairTo).token0() */\n      mload(0x40)\n      dup2\n      0xffffffff\n      and\n      0xe0\n      shl\n      dup2\n      mstore\n      0x04\n      add\n      0x20\n      mload(0x40)\n      dup1\n      dup4\n      sub\n      dup2\n      dup7\n      dup1\n      extcodesize\n      iszero\n      dup1\n      iszero\n      tag_199\n      jumpi\n      0x00\n      dup1\n      revert\n    tag_199:\n      pop\n      gas\n      staticcall\n      iszero\n      dup1\n      iszero\n      tag_201\n      jumpi\n      returndatasize\n      0x00\n      dup1\n      returndatacopy\n      revert(0x00, returndatasize)\n    tag_201:\n      pop\n      pop\n      pop\n      pop\n      mload(0x40)\n      returndatasize\n      0x20\n      dup2\n      lt\n      iszero\n      tag_202\n      jumpi\n      0x00\n      dup1\n      revert\n    tag_202:\n      pop\n      mload\n        /* \"CoreContracts/kalyswap-periphery/KalyswapBridgeMigrationRouter.sol\":13284:13323  IKalyswapPair(liquidityPairTo).token1() */\n      0x40\n      dup1\n      mload\n      shl(0xe0, 0xd21220a7)\n      dup2\n      mstore\n      swap1\n      mload\n      sub(shl(0xa0, 0x01), 0x01)\n        /* \"CoreContracts/kalyswap-periphery/KalyswapBridgeMigrationRouter.sol\":13284:13321  IKalyswapPair(liquidityPairTo).token1 */\n      dup15\n      and\n      swap2\n      0xd21220a7\n      swap2\n        /* \"CoreContracts/kalyswap-periphery/KalyswapBridgeMigrationRouter.sol\":13284:13323  IKalyswapPair(liquidityPairTo).token1() */\n      0x04\n      dup1\n      dup4\n      add\n      swap3\n        /* \"CoreContracts/kalyswap-periphery/KalyswapBridgeMigrationRouter.sol\":13243:13282  IKalyswapPair(liquidityPairTo).token0() */\n      0x20\n      swap3\n        /* \"CoreContracts/kalyswap-periphery/KalyswapBridgeMigrationRouter.sol\":13284:13323  IKalyswapPair(liquidityPairTo).token1() */\n      swap2\n      swap1\n      dup3\n      swap1\n      sub\n      add\n      dup2\n        /* \"CoreContracts/kalyswap-periphery/KalyswapBridgeMigrationRouter.sol\":13284:13321  IKalyswapPair(liquidityPairTo).token1 */\n      dup7\n        /* \"CoreContracts/kalyswap-periphery/KalyswapBridgeMigrationRouter.sol\":13284:13323  IKalyswapPair(liquidityPairTo).token1() */\n      dup1\n      extcodesize\n      iszero\n      dup1\n      iszero\n      tag_203\n      jumpi\n      0x00\n      dup1\n      revert\n    tag_203:\n      pop\n      gas\n      staticcall\n      iszero\n      dup1\n      iszero\n      tag_205\n      jumpi\n      returndatasize\n      0x00\n      dup1\n      returndatacopy\n      revert(0x00, returndatasize)\n    tag_205:\n      pop\n      pop\n      pop\n      pop\n      mload(0x40)\n      returndatasize\n      0x20\n      dup2\n      lt\n      iszero\n      tag_206\n      jumpi\n      0x00\n      dup1\n      revert\n    tag_206:\n      pop\n      mload\n        /* \"CoreContracts/kalyswap-periphery/KalyswapBridgeMigrationRouter.sol\":13337:13349  amountTokenA */\n      dup8\n        /* \"CoreContracts/kalyswap-periphery/KalyswapBridgeMigrationRouter.sol\":13351:13363  amountTokenB */\n      dup8\n        /* \"CoreContracts/kalyswap-periphery/KalyswapBridgeMigrationRouter.sol\":13365:13367  to */\n      dup14\n        /* \"CoreContracts/kalyswap-periphery/KalyswapBridgeMigrationRouter.sol\":13187:13200  _addLiquidity */\n      tag_207\n        /* \"CoreContracts/kalyswap-periphery/KalyswapBridgeMigrationRouter.sol\":13187:13377  _addLiquidity(... */\n      jump\t// in\n    tag_198:\n      pop\n        /* \"CoreContracts/kalyswap-periphery/KalyswapBridgeMigrationRouter.sol\":13142:13377  (uint changeAmount0, uint changeAmount1, ) = _addLiquidity(... */\n      swap1\n      swap3\n      pop\n      swap1\n      pop\n        /* \"CoreContracts/kalyswap-periphery/KalyswapBridgeMigrationRouter.sol\":13391:13408  changeAmount0 > 0 */\n      dup2\n      iszero\n        /* \"CoreContracts/kalyswap-periphery/KalyswapBridgeMigrationRouter.sol\":13387:13522  if (changeAmount0 > 0) {... */\n      tag_209\n      jumpi\n        /* \"CoreContracts/kalyswap-periphery/KalyswapBridgeMigrationRouter.sol\":13424:13511  TransferHelper.safeTransfer(IKalyswapPair(liquidityPairTo).token0(), to, changeAmount0) */\n      tag_209\n        /* \"CoreContracts/kalyswap-periphery/KalyswapBridgeMigrationRouter.sol\":13466:13481  liquidityPairTo */\n      dup10\n      sub(shl(0xa0, 0x01), 0x01)\n        /* \"CoreContracts/kalyswap-periphery/KalyswapBridgeMigrationRouter.sol\":13452:13489  IKalyswapPair(liquidityPairTo).token0 */\n      and\n      0x0dfe1681\n        /* \"CoreContracts/kalyswap-periphery/KalyswapBridgeMigrationRouter.sol\":13452:13491  IKalyswapPair(liquidityPairTo).token0() */\n      mload(0x40)\n      dup2\n      0xffffffff\n      and\n      0xe0\n      shl\n      dup2\n      mstore\n      0x04\n      add\n      0x20\n      mload(0x40)\n      dup1\n      dup4\n      sub\n      dup2\n      dup7\n      dup1\n      extcodesize\n      iszero\n      dup1\n      iszero\n      tag_210\n      jumpi\n      0x00\n      dup1\n      revert\n    tag_210:\n      pop\n      gas\n      staticcall\n      iszero\n      dup1\n      iszero\n      tag_212\n      jumpi\n      returndatasize\n      0x00\n      dup1\n      returndatacopy\n      revert(0x00, returndatasize)\n    tag_212:\n      pop\n      pop\n      pop\n      pop\n      mload(0x40)\n      returndatasize\n      0x20\n      dup2\n      lt\n      iszero\n      tag_213\n      jumpi\n      0x00\n      dup1\n      revert\n    tag_213:\n      pop\n      mload\n        /* \"CoreContracts/kalyswap-periphery/KalyswapBridgeMigrationRouter.sol\":13493:13495  to */\n      dup10\n        /* \"CoreContracts/kalyswap-periphery/KalyswapBridgeMigrationRouter.sol\":13497:13510  changeAmount0 */\n      dup5\n        /* \"CoreContracts/kalyswap-periphery/KalyswapBridgeMigrationRouter.sol\":13424:13451  TransferHelper.safeTransfer */\n      tag_123\n        /* \"CoreContracts/kalyswap-periphery/KalyswapBridgeMigrationRouter.sol\":13424:13511  TransferHelper.safeTransfer(IKalyswapPair(liquidityPairTo).token0(), to, changeAmount0) */\n      jump\t// in\n    tag_209:\n        /* \"CoreContracts/kalyswap-periphery/KalyswapBridgeMigrationRouter.sol\":13535:13552  changeAmount1 > 0 */\n      dup1\n      iszero\n        /* \"CoreContracts/kalyswap-periphery/KalyswapBridgeMigrationRouter.sol\":13531:13666  if (changeAmount1 > 0) {... */\n      tag_215\n      jumpi\n        /* \"CoreContracts/kalyswap-periphery/KalyswapBridgeMigrationRouter.sol\":13568:13655  TransferHelper.safeTransfer(IKalyswapPair(liquidityPairTo).token1(), to, changeAmount1) */\n      tag_215\n        /* \"CoreContracts/kalyswap-periphery/KalyswapBridgeMigrationRouter.sol\":13610:13625  liquidityPairTo */\n      dup10\n      sub(shl(0xa0, 0x01), 0x01)\n        /* \"CoreContracts/kalyswap-periphery/KalyswapBridgeMigrationRouter.sol\":13596:13633  IKalyswapPair(liquidityPairTo).token1 */\n      and\n      0xd21220a7\n        /* \"CoreContracts/kalyswap-periphery/KalyswapBridgeMigrationRouter.sol\":13596:13635  IKalyswapPair(liquidityPairTo).token1() */\n      mload(0x40)\n      dup2\n      0xffffffff\n      and\n      0xe0\n      shl\n      dup2\n      mstore\n      0x04\n      add\n      0x20\n      mload(0x40)\n      dup1\n      dup4\n      sub\n      dup2\n      dup7\n      dup1\n      extcodesize\n      iszero\n      dup1\n      iszero\n      tag_216\n      jumpi\n      0x00\n      dup1\n      revert\n    tag_216:\n      pop\n      gas\n      staticcall\n      iszero\n      dup1\n      iszero\n      tag_218\n      jumpi\n      returndatasize\n      0x00\n      dup1\n      returndatacopy\n      revert(0x00, returndatasize)\n    tag_218:\n      pop\n      pop\n      pop\n      pop\n      mload(0x40)\n      returndatasize\n      0x20\n      dup2\n      lt\n      iszero\n      tag_219\n      jumpi\n      0x00\n      dup1\n      revert\n    tag_219:\n      pop\n      mload\n        /* \"CoreContracts/kalyswap-periphery/KalyswapBridgeMigrationRouter.sol\":13637:13639  to */\n      dup10\n        /* \"CoreContracts/kalyswap-periphery/KalyswapBridgeMigrationRouter.sol\":13641:13654  changeAmount1 */\n      dup4\n        /* \"CoreContracts/kalyswap-periphery/KalyswapBridgeMigrationRouter.sol\":13568:13595  TransferHelper.safeTransfer */\n      tag_123\n        /* \"CoreContracts/kalyswap-periphery/KalyswapBridgeMigrationRouter.sol\":13568:13655  TransferHelper.safeTransfer(IKalyswapPair(liquidityPairTo).token1(), to, changeAmount1) */\n      jump\t// in\n    tag_215:\n        /* \"CoreContracts/kalyswap-periphery/KalyswapBridgeMigrationRouter.sol\":11410:13672  function _migrateLiquidity(... */\n      pop\n      pop\n      pop\n      pop\n      pop\n      pop\n      pop\n      pop\n      pop\n      pop\n      jump\t// out\n        /* \"CoreContracts/kalyswap-periphery/KalyswapBridgeMigrationRouter.sol\":3257:3418  function _allowToken(address tokenAddress, address spenderAddress) internal {... */\n    tag_69:\n        /* \"CoreContracts/kalyswap-periphery/KalyswapBridgeMigrationRouter.sol\":3358:3370  tokenAddress */\n      dup2\n      sub(shl(0xa0, 0x01), 0x01)\n        /* \"CoreContracts/kalyswap-periphery/KalyswapBridgeMigrationRouter.sol\":3343:3379  IKalyswapERC20(tokenAddress).approve */\n      and\n      0x095ea7b3\n        /* \"CoreContracts/kalyswap-periphery/KalyswapBridgeMigrationRouter.sol\":3380:3394  spenderAddress */\n      dup3\n      not(0x00)\n        /* \"CoreContracts/kalyswap-periphery/KalyswapBridgeMigrationRouter.sol\":3343:3411  IKalyswapERC20(tokenAddress).approve(spenderAddress, type(uint).max) */\n      mload(0x40)\n      dup4\n      0xffffffff\n      and\n      0xe0\n      shl\n      dup2\n      mstore\n      0x04\n      add\n      dup1\n      dup4\n      sub(shl(0xa0, 0x01), 0x01)\n      and\n      dup2\n      mstore\n      0x20\n      add\n      dup3\n      dup2\n      mstore\n      0x20\n      add\n      swap3\n      pop\n      pop\n      pop\n      0x20\n      mload(0x40)\n      dup1\n      dup4\n      sub\n      dup2\n      0x00\n      dup8\n      dup1\n      extcodesize\n      iszero\n      dup1\n      iszero\n      tag_221\n      jumpi\n      0x00\n      dup1\n      revert\n    tag_221:\n      pop\n      gas\n      call\n      iszero\n      dup1\n      iszero\n      tag_223\n      jumpi\n      returndatasize\n      0x00\n      dup1\n      returndatacopy\n      revert(0x00, returndatasize)\n    tag_223:\n      pop\n      pop\n      pop\n      pop\n      mload(0x40)\n      returndatasize\n      0x20\n      dup2\n      lt\n      iszero\n      tag_224\n      jumpi\n      0x00\n      dup1\n      revert\n    tag_224:\n      pop\n      pop\n      pop\n      pop\n        /* \"CoreContracts/kalyswap-periphery/KalyswapBridgeMigrationRouter.sol\":3257:3418  function _allowToken(address tokenAddress, address spenderAddress) internal {... */\n      jump\t// out\n        /* \"CoreContracts/kalyswap-periphery/KalyswapBridgeMigrationRouter.sol\":14220:14619  function _calculateRescueLiquidity(address pairAddress, uint amount) internal view returns (uint amount0, uint amount1) {... */\n    tag_80:\n        /* \"CoreContracts/kalyswap-periphery/KalyswapBridgeMigrationRouter.sol\":14312:14324  uint amount0 */\n      0x00\n        /* \"CoreContracts/kalyswap-periphery/KalyswapBridgeMigrationRouter.sol\":14326:14338  uint amount1 */\n      dup1\n        /* \"CoreContracts/kalyswap-periphery/KalyswapBridgeMigrationRouter.sol\":14351:14368  uint112 reserves0 */\n      0x00\n        /* \"CoreContracts/kalyswap-periphery/KalyswapBridgeMigrationRouter.sol\":14370:14387  uint112 reserves1 */\n      dup1\n        /* \"CoreContracts/kalyswap-periphery/KalyswapBridgeMigrationRouter.sol\":14407:14418  pairAddress */\n      dup6\n      sub(shl(0xa0, 0x01), 0x01)\n        /* \"CoreContracts/kalyswap-periphery/KalyswapBridgeMigrationRouter.sol\":14393:14431  IKalyswapPair(pairAddress).getReserves */\n      and\n      0x0902f1ac\n        /* \"CoreContracts/kalyswap-periphery/KalyswapBridgeMigrationRouter.sol\":14393:14433  IKalyswapPair(pairAddress).getReserves() */\n      mload(0x40)\n      dup2\n      0xffffffff\n      and\n      0xe0\n      shl\n      dup2\n      mstore\n      0x04\n      add\n      0x60\n      mload(0x40)\n      dup1\n      dup4\n      sub\n      dup2\n      dup7\n      dup1\n      extcodesize\n      iszero\n      dup1\n      iszero\n      tag_226\n      jumpi\n      0x00\n      dup1\n      revert\n    tag_226:\n      pop\n      gas\n      staticcall\n      iszero\n      dup1\n      iszero\n      tag_228\n      jumpi\n      returndatasize\n      0x00\n      dup1\n      returndatacopy\n      revert(0x00, returndatasize)\n    tag_228:\n      pop\n      pop\n      pop\n      pop\n      mload(0x40)\n      returndatasize\n      0x60\n      dup2\n      lt\n      iszero\n      tag_229\n      jumpi\n      0x00\n      dup1\n      revert\n    tag_229:\n      pop\n      dup1\n      mload\n      0x20\n      swap2\n      dup3\n      add\n      mload\n      0x40\n        /* \"CoreContracts/kalyswap-periphery/KalyswapBridgeMigrationRouter.sol\":14462:14502  IKalyswapPair(pairAddress).totalSupply() */\n      dup1\n      mload\n      0x18160ddd00000000000000000000000000000000000000000000000000000000\n      dup2\n      mstore\n      swap1\n      mload\n        /* \"CoreContracts/kalyswap-periphery/KalyswapBridgeMigrationRouter.sol\":14393:14433  IKalyswapPair(pairAddress).getReserves() */\n      swap3\n      swap6\n      pop\n      swap1\n      swap4\n      pop\n        /* \"CoreContracts/kalyswap-periphery/KalyswapBridgeMigrationRouter.sol\":14443:14459  uint totalSupply */\n      0x00\n      swap3\n      sub(shl(0xa0, 0x01), 0x01)\n        /* \"CoreContracts/kalyswap-periphery/KalyswapBridgeMigrationRouter.sol\":14462:14500  IKalyswapPair(pairAddress).totalSupply */\n      dup11\n      and\n      swap3\n      0x18160ddd\n      swap3\n        /* \"CoreContracts/kalyswap-periphery/KalyswapBridgeMigrationRouter.sol\":14462:14502  IKalyswapPair(pairAddress).totalSupply() */\n      0x04\n      dup1\n      dup3\n      add\n      swap4\n        /* \"CoreContracts/kalyswap-periphery/KalyswapBridgeMigrationRouter.sol\":14393:14433  IKalyswapPair(pairAddress).getReserves() */\n      swap3\n        /* \"CoreContracts/kalyswap-periphery/KalyswapBridgeMigrationRouter.sol\":14462:14502  IKalyswapPair(pairAddress).totalSupply() */\n      swap2\n      dup3\n      swap1\n      sub\n      add\n      dup2\n        /* \"CoreContracts/kalyswap-periphery/KalyswapBridgeMigrationRouter.sol\":14462:14500  IKalyswapPair(pairAddress).totalSupply */\n      dup7\n        /* \"CoreContracts/kalyswap-periphery/KalyswapBridgeMigrationRouter.sol\":14462:14502  IKalyswapPair(pairAddress).totalSupply() */\n      dup1\n      extcodesize\n      iszero\n      dup1\n      iszero\n      tag_230\n      jumpi\n      0x00\n      dup1\n      revert\n    tag_230:\n      pop\n      gas\n      staticcall\n      iszero\n      dup1\n      iszero\n      tag_232\n      jumpi\n      returndatasize\n      0x00\n      dup1\n      returndatacopy\n      revert(0x00, returndatasize)\n    tag_232:\n      pop\n      pop\n      pop\n      pop\n      mload(0x40)\n      returndatasize\n      0x20\n      dup2\n      lt\n      iszero\n      tag_233\n      jumpi\n      0x00\n      dup1\n      revert\n    tag_233:\n      pop\n      mload\n      swap1\n      pop\n      dup1\n        /* \"CoreContracts/kalyswap-periphery/KalyswapBridgeMigrationRouter.sol\":14522:14543  amount.mul(reserves0) */\n      tag_234\n        /* \"CoreContracts/kalyswap-periphery/KalyswapBridgeMigrationRouter.sol\":14522:14528  amount */\n      dup8\n        /* \"CoreContracts/kalyswap-periphery/KalyswapBridgeMigrationRouter.sol\":14522:14543  amount.mul(reserves0) */\n      0xffffffffffffffffffffffffffff\n      dup7\n      and\n        /* \"CoreContracts/kalyswap-periphery/KalyswapBridgeMigrationRouter.sol\":14522:14532  amount.mul */\n      tag_235\n        /* \"CoreContracts/kalyswap-periphery/KalyswapBridgeMigrationRouter.sol\":14522:14543  amount.mul(reserves0) */\n      jump\t// in\n    tag_234:\n        /* \"CoreContracts/kalyswap-periphery/KalyswapBridgeMigrationRouter.sol\":14522:14557  amount.mul(reserves0) / totalSupply */\n      dup2\n      tag_236\n      jumpi\n      invalid\n    tag_236:\n      div\n      swap5\n      pop\n        /* \"CoreContracts/kalyswap-periphery/KalyswapBridgeMigrationRouter.sol\":14601:14612  totalSupply */\n      dup1\n        /* \"CoreContracts/kalyswap-periphery/KalyswapBridgeMigrationRouter.sol\":14577:14598  amount.mul(reserves1) */\n      tag_237\n        /* \"CoreContracts/kalyswap-periphery/KalyswapBridgeMigrationRouter.sol\":14577:14583  amount */\n      dup8\n        /* \"CoreContracts/kalyswap-periphery/KalyswapBridgeMigrationRouter.sol\":14577:14598  amount.mul(reserves1) */\n      0xffffffffffffffffffffffffffff\n      dup6\n      and\n        /* \"CoreContracts/kalyswap-periphery/KalyswapBridgeMigrationRouter.sol\":14577:14587  amount.mul */\n      tag_235\n        /* \"CoreContracts/kalyswap-periphery/KalyswapBridgeMigrationRouter.sol\":14577:14598  amount.mul(reserves1) */\n      jump\t// in\n    tag_237:\n        /* \"CoreContracts/kalyswap-periphery/KalyswapBridgeMigrationRouter.sol\":14577:14612  amount.mul(reserves1) / totalSupply */\n      dup2\n      tag_238\n      jumpi\n      invalid\n    tag_238:\n      div\n        /* \"CoreContracts/kalyswap-periphery/KalyswapBridgeMigrationRouter.sol\":14567:14612  amount1 = amount.mul(reserves1) / totalSupply */\n      swap4\n      pop\n        /* \"CoreContracts/kalyswap-periphery/KalyswapBridgeMigrationRouter.sol\":14220:14619  function _calculateRescueLiquidity(address pairAddress, uint amount) internal view returns (uint amount0, uint amount1) {... */\n      pop\n      pop\n      pop\n      swap3\n      pop\n      swap3\n      swap1\n      pop\n      jump\t// out\n        /* \"CoreContracts/kalyswap-periphery/libraries/KalyswapLibrary.sol\":1787:2102  function quote(uint amountA, uint reserveA, uint reserveB) internal pure returns (uint amountB) {... */\n    tag_104:\n        /* \"CoreContracts/kalyswap-periphery/libraries/KalyswapLibrary.sol\":1869:1881  uint amountB */\n      0x00\n        /* \"CoreContracts/kalyswap-periphery/libraries/KalyswapLibrary.sol\":1911:1912  0 */\n      dup1\n        /* \"CoreContracts/kalyswap-periphery/libraries/KalyswapLibrary.sol\":1901:1908  amountA */\n      dup5\n        /* \"CoreContracts/kalyswap-periphery/libraries/KalyswapLibrary.sol\":1901:1912  amountA > 0 */\n      gt\n        /* \"CoreContracts/kalyswap-periphery/libraries/KalyswapLibrary.sol\":1893:1953  require(amountA > 0, 'KalyswapLibrary: INSUFFICIENT_AMOUNT') */\n      tag_240\n      jumpi\n      mload(0x40)\n      shl(0xe5, 0x461bcd)\n      dup2\n      mstore\n      0x04\n      add\n      dup1\n      dup1\n      0x20\n      add\n      dup3\n      dup2\n      sub\n      dup3\n      mstore\n      0x24\n      dup2\n      mstore\n      0x20\n      add\n      dup1\n      data_78840e091b36f1ae3c2e726985d3fca034feef7c212a1c9737acba643adee0ed\n      0x24\n      swap2\n      codecopy\n      0x40\n      add\n      swap2\n      pop\n      pop\n      mload(0x40)\n      dup1\n      swap2\n      sub\n      swap1\n      revert\n    tag_240:\n        /* \"CoreContracts/kalyswap-periphery/libraries/KalyswapLibrary.sol\":1982:1983  0 */\n      0x00\n        /* \"CoreContracts/kalyswap-periphery/libraries/KalyswapLibrary.sol\":1971:1979  reserveA */\n      dup4\n        /* \"CoreContracts/kalyswap-periphery/libraries/KalyswapLibrary.sol\":1971:1983  reserveA > 0 */\n      gt\n        /* \"CoreContracts/kalyswap-periphery/libraries/KalyswapLibrary.sol\":1971:1999  reserveA > 0 && reserveB > 0 */\n      dup1\n      iszero\n      tag_241\n      jumpi\n      pop\n        /* \"CoreContracts/kalyswap-periphery/libraries/KalyswapLibrary.sol\":1998:1999  0 */\n      0x00\n        /* \"CoreContracts/kalyswap-periphery/libraries/KalyswapLibrary.sol\":1987:1995  reserveB */\n      dup3\n        /* \"CoreContracts/kalyswap-periphery/libraries/KalyswapLibrary.sol\":1987:1999  reserveB > 0 */\n      gt\n        /* \"CoreContracts/kalyswap-periphery/libraries/KalyswapLibrary.sol\":1971:1999  reserveA > 0 && reserveB > 0 */\n    tag_241:\n        /* \"CoreContracts/kalyswap-periphery/libraries/KalyswapLibrary.sol\":1963:2043  require(reserveA > 0 && reserveB > 0, 'KalyswapLibrary: INSUFFICIENT_LIQUIDITY') */\n      tag_242\n      jumpi\n      mload(0x40)\n      shl(0xe5, 0x461bcd)\n      dup2\n      mstore\n      0x04\n      add\n      dup1\n      dup1\n      0x20\n      add\n      dup3\n      dup2\n      sub\n      dup3\n      mstore\n      0x27\n      dup2\n      mstore\n      0x20\n      add\n      dup1\n      data_9074bfdb993f0f76350cad6ff16b034dab298eea08ad462e08506031f49a76e1\n      0x27\n      swap2\n      codecopy\n      0x40\n      add\n      swap2\n      pop\n      pop\n      mload(0x40)\n      dup1\n      swap2\n      sub\n      swap1\n      revert\n    tag_242:\n        /* \"CoreContracts/kalyswap-periphery/libraries/KalyswapLibrary.sol\":2087:2095  reserveA */\n      dup3\n        /* \"CoreContracts/kalyswap-periphery/libraries/KalyswapLibrary.sol\":2063:2084  amountA.mul(reserveB) */\n      tag_243\n        /* \"CoreContracts/kalyswap-periphery/libraries/KalyswapLibrary.sol\":2063:2070  amountA */\n      dup6\n        /* \"CoreContracts/kalyswap-periphery/libraries/KalyswapLibrary.sol\":2075:2083  reserveB */\n      dup5\n        /* \"CoreContracts/kalyswap-periphery/libraries/KalyswapLibrary.sol\":2063:2074  amountA.mul */\n      tag_235\n        /* \"CoreContracts/kalyswap-periphery/libraries/KalyswapLibrary.sol\":2063:2084  amountA.mul(reserveB) */\n      jump\t// in\n    tag_243:\n        /* \"CoreContracts/kalyswap-periphery/libraries/KalyswapLibrary.sol\":2063:2095  amountA.mul(reserveB) / reserveA */\n      dup2\n      tag_244\n      jumpi\n      invalid\n    tag_244:\n      div\n      swap5\n        /* \"CoreContracts/kalyswap-periphery/libraries/KalyswapLibrary.sol\":1787:2102  function quote(uint amountA, uint reserveA, uint reserveB) internal pure returns (uint amountB) {... */\n      swap4\n      pop\n      pop\n      pop\n      pop\n      jump\t// out\n        /* \"CoreContracts/kalyswap-lib/libraries/TransferHelper.sol\":1001:1440  function safeTransferFrom(... */\n    tag_119:\n        /* \"CoreContracts/kalyswap-lib/libraries/TransferHelper.sol\":1265:1316  abi.encodeWithSelector(0x23b872dd, from, to, value) */\n      0x40\n      dup1\n      mload\n      sub(shl(0xa0, 0x01), 0x01)\n      dup6\n      dup2\n      and\n      0x24\n      dup4\n      add\n      mstore\n      dup5\n      dup2\n      and\n      0x44\n      dup4\n      add\n      mstore\n      0x64\n      dup1\n      dup4\n      add\n      dup6\n      swap1\n      mstore\n      dup4\n      mload\n      dup1\n      dup5\n      sub\n      swap1\n      swap2\n      add\n      dup2\n      mstore\n      0x84\n      swap1\n      swap3\n      add\n      dup4\n      mstore\n      0x20\n      dup3\n      add\n      dup1\n      mload\n      0xffffffffffffffffffffffffffffffffffffffffffffffffffffffff\n      and\n      0x23b872dd00000000000000000000000000000000000000000000000000000000\n      or\n      dup2\n      mstore\n        /* \"CoreContracts/kalyswap-lib/libraries/TransferHelper.sol\":1254:1317  token.call(abi.encodeWithSelector(0x23b872dd, from, to, value)) */\n      swap3\n      mload\n      dup3\n      mload\n        /* \"CoreContracts/kalyswap-lib/libraries/TransferHelper.sol\":1219:1231  bool success */\n      0x00\n      swap5\n      dup6\n      swap5\n        /* \"CoreContracts/kalyswap-lib/libraries/TransferHelper.sol\":1254:1264  token.call */\n      swap4\n      dup11\n      and\n      swap4\n        /* \"CoreContracts/kalyswap-lib/libraries/TransferHelper.sol\":1265:1316  abi.encodeWithSelector(0x23b872dd, from, to, value) */\n      swap3\n        /* \"CoreContracts/kalyswap-lib/libraries/TransferHelper.sol\":1254:1317  token.call(abi.encodeWithSelector(0x23b872dd, from, to, value)) */\n      swap2\n      dup3\n      swap2\n        /* \"CoreContracts/kalyswap-lib/libraries/TransferHelper.sol\":1265:1316  abi.encodeWithSelector(0x23b872dd, from, to, value) */\n      swap1\n        /* \"CoreContracts/kalyswap-lib/libraries/TransferHelper.sol\":1254:1317  token.call(abi.encodeWithSelector(0x23b872dd, from, to, value)) */\n      dup1\n      dup4\n        /* \"CoreContracts/kalyswap-lib/libraries/TransferHelper.sol\":1265:1316  abi.encodeWithSelector(0x23b872dd, from, to, value) */\n      dup4\n        /* \"CoreContracts/kalyswap-lib/libraries/TransferHelper.sol\":1254:1317  token.call(abi.encodeWithSelector(0x23b872dd, from, to, value)) */\n    tag_246:\n      0x20\n      dup4\n      lt\n      tag_248\n      jumpi\n      dup1\n      mload\n      dup3\n      mstore\n      not(0x1f)\n      swap1\n      swap3\n      add\n      swap2\n      0x20\n      swap2\n      dup3\n      add\n      swap2\n      add\n      jump(tag_246)\n    tag_248:\n      0x01\n      dup4\n      0x20\n      sub\n      0x0100\n      exp\n      sub\n      dup1\n      not\n      dup3\n      mload\n      and\n      dup2\n      dup5\n      mload\n      and\n      dup1\n      dup3\n      or\n      dup6\n      mstore\n      pop\n      pop\n      pop\n      pop\n      pop\n      pop\n      swap1\n      pop\n      add\n      swap2\n      pop\n      pop\n      0x00\n      mload(0x40)\n      dup1\n      dup4\n      sub\n      dup2\n      0x00\n      dup7\n      gas\n      call\n      swap2\n      pop\n      pop\n      returndatasize\n      dup1\n      0x00\n      dup2\n      eq\n      tag_251\n      jumpi\n      mload(0x40)\n      swap2\n      pop\n      and(add(returndatasize, 0x3f), not(0x1f))\n      dup3\n      add\n      0x40\n      mstore\n      returndatasize\n      dup3\n      mstore\n      returndatasize\n      0x00\n      0x20\n      dup5\n      add\n      returndatacopy\n      jump(tag_250)\n    tag_251:\n      0x60\n      swap2\n      pop\n    tag_250:\n      pop\n        /* \"CoreContracts/kalyswap-lib/libraries/TransferHelper.sol\":1218:1317  (bool success, bytes memory data) = token.call(abi.encodeWithSelector(0x23b872dd, from, to, value)) */\n      swap2\n      pop\n      swap2\n      pop\n        /* \"CoreContracts/kalyswap-lib/libraries/TransferHelper.sol\":1335:1342  success */\n      dup2\n        /* \"CoreContracts/kalyswap-lib/libraries/TransferHelper.sol\":1335:1392  success && (data.length == 0 || abi.decode(data, (bool))) */\n      dup1\n      iszero\n      tag_253\n      jumpi\n      pop\n        /* \"CoreContracts/kalyswap-lib/libraries/TransferHelper.sol\":1347:1358  data.length */\n      dup1\n      mload\n        /* \"CoreContracts/kalyswap-lib/libraries/TransferHelper.sol\":1347:1363  data.length == 0 */\n      iszero\n      dup1\n        /* \"CoreContracts/kalyswap-lib/libraries/TransferHelper.sol\":1347:1391  data.length == 0 || abi.decode(data, (bool)) */\n      tag_253\n      jumpi\n      pop\n        /* \"CoreContracts/kalyswap-lib/libraries/TransferHelper.sol\":1378:1382  data */\n      dup1\n        /* \"CoreContracts/kalyswap-lib/libraries/TransferHelper.sol\":1367:1391  abi.decode(data, (bool)) */\n      dup1\n      0x20\n      add\n      swap1\n      mload\n      0x20\n      dup2\n      lt\n      iszero\n      tag_254\n      jumpi\n      0x00\n      dup1\n      revert\n    tag_254:\n      pop\n      mload\n        /* \"CoreContracts/kalyswap-lib/libraries/TransferHelper.sol\":1347:1391  data.length == 0 || abi.decode(data, (bool)) */\n    tag_253:\n        /* \"CoreContracts/kalyswap-lib/libraries/TransferHelper.sol\":1327:1433  require(success && (data.length == 0 || abi.decode(data, (bool))), 'TransferHelper: TRANSFER_FROM_FAILED') */\n      tag_55\n      jumpi\n      mload(0x40)\n      shl(0xe5, 0x461bcd)\n      dup2\n      mstore\n      0x04\n      add\n      dup1\n      dup1\n      0x20\n      add\n      dup3\n      dup2\n      sub\n      dup3\n      mstore\n      0x24\n      dup2\n      mstore\n      0x20\n      add\n      dup1\n      data_eb2904bf3c0c9ae693b53eb0188a703c388998a9c405b7965ca678cef9a51d18\n      0x24\n      swap2\n      codecopy\n      0x40\n      add\n      swap2\n      pop\n      pop\n      mload(0x40)\n      dup1\n      swap2\n      sub\n      swap1\n      revert\n        /* \"CoreContracts/kalyswap-periphery/KalyswapBridgeMigrationRouter.sol\":7495:7974  function _migrateToken(... */\n    tag_121:\n      sub(shl(0xa0, 0x01), 0x01)\n        /* \"CoreContracts/kalyswap-periphery/KalyswapBridgeMigrationRouter.sol\":7602:7628  tokenAddress != address(0) */\n      dup3\n      and\n        /* \"CoreContracts/kalyswap-periphery/KalyswapBridgeMigrationRouter.sol\":7594:7692  require(tokenAddress != address(0), \"KalyswapBridgeMigrationRouter: tokenAddress 0 not supported\") */\n      tag_257\n      jumpi\n      mload(0x40)\n      shl(0xe5, 0x461bcd)\n      dup2\n      mstore\n      0x04\n      add\n      dup1\n      dup1\n      0x20\n      add\n      dup3\n      dup2\n      sub\n      dup3\n      mstore\n      0x3b\n      dup2\n      mstore\n      0x20\n      add\n      dup1\n      data_9d984e50f0a68e3b3b3f36266bdb577070edfb604f683a0d41f604c350418d44\n      0x3b\n      swap2\n      codecopy\n      0x40\n      add\n      swap2\n      pop\n      pop\n      mload(0x40)\n      dup1\n      swap2\n      sub\n      swap1\n      revert\n    tag_257:\n      sub(shl(0xa0, 0x01), 0x01)\n        /* \"CoreContracts/kalyswap-periphery/KalyswapBridgeMigrationRouter.sol\":7715:7743  bridgeMigrator[tokenAddress] */\n      dup1\n      dup4\n      and\n      0x00\n      dup2\n      dup2\n      mstore\n        /* \"CoreContracts/kalyswap-periphery/KalyswapBridgeMigrationRouter.sol\":7715:7729  bridgeMigrator */\n      0x01\n        /* \"CoreContracts/kalyswap-periphery/KalyswapBridgeMigrationRouter.sol\":7715:7743  bridgeMigrator[tokenAddress] */\n      0x20\n      mstore\n      0x40\n      dup1\n      dup3\n      keccak256\n      sload\n        /* \"CoreContracts/kalyswap-periphery/KalyswapBridgeMigrationRouter.sol\":7702:7771  IBridgeToken(bridgeMigrator[tokenAddress]).swap(tokenAddress, amount) */\n      dup2\n      mload\n      0xd004f0f700000000000000000000000000000000000000000000000000000000\n      dup2\n      mstore\n      0x04\n      dup2\n      add\n      swap5\n      swap1\n      swap5\n      mstore\n      0x24\n      dup5\n      add\n      dup7\n      swap1\n      mstore\n      swap1\n      mload\n        /* \"CoreContracts/kalyswap-periphery/KalyswapBridgeMigrationRouter.sol\":7715:7743  bridgeMigrator[tokenAddress] */\n      swap4\n      and\n      swap3\n        /* \"CoreContracts/kalyswap-periphery/KalyswapBridgeMigrationRouter.sol\":7702:7749  IBridgeToken(bridgeMigrator[tokenAddress]).swap */\n      0xd004f0f7\n      swap3\n        /* \"CoreContracts/kalyswap-periphery/KalyswapBridgeMigrationRouter.sol\":7702:7771  IBridgeToken(bridgeMigrator[tokenAddress]).swap(tokenAddress, amount) */\n      0x44\n      dup1\n      dup3\n      add\n      swap4\n        /* \"CoreContracts/kalyswap-periphery/KalyswapBridgeMigrationRouter.sol\":7715:7743  bridgeMigrator[tokenAddress] */\n      swap3\n        /* \"CoreContracts/kalyswap-periphery/KalyswapBridgeMigrationRouter.sol\":7702:7771  IBridgeToken(bridgeMigrator[tokenAddress]).swap(tokenAddress, amount) */\n      swap2\n      dup3\n      swap1\n      sub\n      add\n      dup2\n        /* \"CoreContracts/kalyswap-periphery/KalyswapBridgeMigrationRouter.sol\":7715:7743  bridgeMigrator[tokenAddress] */\n      dup4\n      dup8\n        /* \"CoreContracts/kalyswap-periphery/KalyswapBridgeMigrationRouter.sol\":7702:7771  IBridgeToken(bridgeMigrator[tokenAddress]).swap(tokenAddress, amount) */\n      dup1\n      extcodesize\n      iszero\n      dup1\n      iszero\n      tag_258\n      jumpi\n      0x00\n      dup1\n      revert\n    tag_258:\n      pop\n      gas\n      call\n      iszero\n      dup1\n      iszero\n      tag_260\n      jumpi\n      returndatasize\n      0x00\n      dup1\n      returndatacopy\n      revert(0x00, returndatasize)\n    tag_260:\n      pop\n      pop\n      pop\n      sub(shl(0xa0, 0x01), 0x01)\n        /* \"CoreContracts/kalyswap-periphery/KalyswapBridgeMigrationRouter.sol\":7815:7843  bridgeMigrator[tokenAddress] */\n      dup1\n      dup5\n      and\n      0x00\n      swap1\n      dup2\n      mstore\n        /* \"CoreContracts/kalyswap-periphery/KalyswapBridgeMigrationRouter.sol\":7815:7829  bridgeMigrator */\n      0x01\n        /* \"CoreContracts/kalyswap-periphery/KalyswapBridgeMigrationRouter.sol\":7815:7843  bridgeMigrator[tokenAddress] */\n      0x20\n      swap1\n      dup2\n      mstore\n      0x40\n      swap2\n      dup3\n      swap1\n      keccak256\n      sload\n        /* \"CoreContracts/kalyswap-periphery/KalyswapBridgeMigrationRouter.sol\":7802:7869  IBridgeToken(bridgeMigrator[tokenAddress]).balanceOf(address(this)) */\n      dup3\n      mload\n      0x70a0823100000000000000000000000000000000000000000000000000000000\n      dup2\n      mstore\n        /* \"CoreContracts/kalyswap-periphery/KalyswapBridgeMigrationRouter.sol\":7863:7867  this */\n      address\n        /* \"CoreContracts/kalyswap-periphery/KalyswapBridgeMigrationRouter.sol\":7802:7869  IBridgeToken(bridgeMigrator[tokenAddress]).balanceOf(address(this)) */\n      0x04\n      dup3\n      add\n      mstore\n      swap3\n      mload\n        /* \"CoreContracts/kalyswap-periphery/KalyswapBridgeMigrationRouter.sol\":7873:7879  amount */\n      dup7\n      swap6\n      pop\n        /* \"CoreContracts/kalyswap-periphery/KalyswapBridgeMigrationRouter.sol\":7815:7843  bridgeMigrator[tokenAddress] */\n      swap4\n      and\n      swap3\n        /* \"CoreContracts/kalyswap-periphery/KalyswapBridgeMigrationRouter.sol\":7802:7854  IBridgeToken(bridgeMigrator[tokenAddress]).balanceOf */\n      0x70a08231\n      swap3\n        /* \"CoreContracts/kalyswap-periphery/KalyswapBridgeMigrationRouter.sol\":7802:7869  IBridgeToken(bridgeMigrator[tokenAddress]).balanceOf(address(this)) */\n      0x24\n      dup1\n      dup3\n      add\n      swap4\n        /* \"CoreContracts/kalyswap-periphery/KalyswapBridgeMigrationRouter.sol\":7815:7843  bridgeMigrator[tokenAddress] */\n      swap3\n        /* \"CoreContracts/kalyswap-periphery/KalyswapBridgeMigrationRouter.sol\":7802:7869  IBridgeToken(bridgeMigrator[tokenAddress]).balanceOf(address(this)) */\n      swap2\n      dup3\n      swap1\n      sub\n      add\n      dup2\n        /* \"CoreContracts/kalyswap-periphery/KalyswapBridgeMigrationRouter.sol\":7815:7843  bridgeMigrator[tokenAddress] */\n      dup7\n        /* \"CoreContracts/kalyswap-periphery/KalyswapBridgeMigrationRouter.sol\":7802:7869  IBridgeToken(bridgeMigrator[tokenAddress]).balanceOf(address(this)) */\n      dup1\n      extcodesize\n      iszero\n      dup1\n      iszero\n      tag_261\n      jumpi\n      0x00\n      dup1\n      revert\n    tag_261:\n      pop\n      gas\n      staticcall\n      iszero\n      dup1\n      iszero\n      tag_263\n      jumpi\n      returndatasize\n      0x00\n      dup1\n      returndatacopy\n      revert(0x00, returndatasize)\n    tag_263:\n      pop\n      pop\n      pop\n      pop\n      mload(0x40)\n      returndatasize\n      0x20\n      dup2\n      lt\n      iszero\n      tag_264\n      jumpi\n      0x00\n      dup1\n      revert\n    tag_264:\n      pop\n      mload\n        /* \"CoreContracts/kalyswap-periphery/KalyswapBridgeMigrationRouter.sol\":7802:7879  IBridgeToken(bridgeMigrator[tokenAddress]).balanceOf(address(this)) == amount */\n      eq\n        /* \"CoreContracts/kalyswap-periphery/KalyswapBridgeMigrationRouter.sol\":7781:7967  require(... */\n      tag_265\n      jumpi\n      mload(0x40)\n      shl(0xe5, 0x461bcd)\n      dup2\n      mstore\n      0x04\n      add\n      dup1\n      dup1\n      0x20\n      add\n      dup3\n      dup2\n      sub\n      dup3\n      mstore\n      0x3e\n      dup2\n      mstore\n      0x20\n      add\n      dup1\n      data_20f37cd99da92a5efeb292e424950a5326eaec74b790503092d9fc76b12f685f\n      0x3e\n      swap2\n      codecopy\n      0x40\n      add\n      swap2\n      pop\n      pop\n      mload(0x40)\n      dup1\n      swap2\n      sub\n      swap1\n      revert\n    tag_265:\n        /* \"CoreContracts/kalyswap-periphery/KalyswapBridgeMigrationRouter.sol\":7495:7974  function _migrateToken(... */\n      pop\n      pop\n      jump\t// out\n        /* \"CoreContracts/kalyswap-lib/libraries/TransferHelper.sol\":605:995  function safeTransfer(... */\n    tag_123:\n        /* \"CoreContracts/kalyswap-lib/libraries/TransferHelper.sol\":831:876  abi.encodeWithSelector(0xa9059cbb, to, value) */\n      0x40\n      dup1\n      mload\n      sub(shl(0xa0, 0x01), 0x01)\n      dup5\n      dup2\n      and\n      0x24\n      dup4\n      add\n      mstore\n      0x44\n      dup1\n      dup4\n      add\n      dup6\n      swap1\n      mstore\n      dup4\n      mload\n      dup1\n      dup5\n      sub\n      swap1\n      swap2\n      add\n      dup2\n      mstore\n      0x64\n      swap1\n      swap3\n      add\n      dup4\n      mstore\n      0x20\n      dup3\n      add\n      dup1\n      mload\n      0xffffffffffffffffffffffffffffffffffffffffffffffffffffffff\n      and\n      0xa9059cbb00000000000000000000000000000000000000000000000000000000\n      or\n      dup2\n      mstore\n        /* \"CoreContracts/kalyswap-lib/libraries/TransferHelper.sol\":820:877  token.call(abi.encodeWithSelector(0xa9059cbb, to, value)) */\n      swap3\n      mload\n      dup3\n      mload\n        /* \"CoreContracts/kalyswap-lib/libraries/TransferHelper.sol\":785:797  bool success */\n      0x00\n      swap5\n      dup6\n      swap5\n        /* \"CoreContracts/kalyswap-lib/libraries/TransferHelper.sol\":820:830  token.call */\n      swap4\n      dup10\n      and\n      swap4\n        /* \"CoreContracts/kalyswap-lib/libraries/TransferHelper.sol\":831:876  abi.encodeWithSelector(0xa9059cbb, to, value) */\n      swap3\n        /* \"CoreContracts/kalyswap-lib/libraries/TransferHelper.sol\":820:877  token.call(abi.encodeWithSelector(0xa9059cbb, to, value)) */\n      swap2\n      dup3\n      swap2\n        /* \"CoreContracts/kalyswap-lib/libraries/TransferHelper.sol\":831:876  abi.encodeWithSelector(0xa9059cbb, to, value) */\n      swap1\n        /* \"CoreContracts/kalyswap-lib/libraries/TransferHelper.sol\":820:877  token.call(abi.encodeWithSelector(0xa9059cbb, to, value)) */\n      dup1\n      dup4\n        /* \"CoreContracts/kalyswap-lib/libraries/TransferHelper.sol\":831:876  abi.encodeWithSelector(0xa9059cbb, to, value) */\n      dup4\n        /* \"CoreContracts/kalyswap-lib/libraries/TransferHelper.sol\":820:877  token.call(abi.encodeWithSelector(0xa9059cbb, to, value)) */\n    tag_267:\n      0x20\n      dup4\n      lt\n      tag_269\n      jumpi\n      dup1\n      mload\n      dup3\n      mstore\n      not(0x1f)\n      swap1\n      swap3\n      add\n      swap2\n      0x20\n      swap2\n      dup3\n      add\n      swap2\n      add\n      jump(tag_267)\n    tag_269:\n      0x01\n      dup4\n      0x20\n      sub\n      0x0100\n      exp\n      sub\n      dup1\n      not\n      dup3\n      mload\n      and\n      dup2\n      dup5\n      mload\n      and\n      dup1\n      dup3\n      or\n      dup6\n      mstore\n      pop\n      pop\n      pop\n      pop\n      pop\n      pop\n      swap1\n      pop\n      add\n      swap2\n      pop\n      pop\n      0x00\n      mload(0x40)\n      dup1\n      dup4\n      sub\n      dup2\n      0x00\n      dup7\n      gas\n      call\n      swap2\n      pop\n      pop\n      returndatasize\n      dup1\n      0x00\n      dup2\n      eq\n      tag_272\n      jumpi\n      mload(0x40)\n      swap2\n      pop\n      and(add(returndatasize, 0x3f), not(0x1f))\n      dup3\n      add\n      0x40\n      mstore\n      returndatasize\n      dup3\n      mstore\n      returndatasize\n      0x00\n      0x20\n      dup5\n      add\n      returndatacopy\n      jump(tag_271)\n    tag_272:\n      0x60\n      swap2\n      pop\n    tag_271:\n      pop\n        /* \"CoreContracts/kalyswap-lib/libraries/TransferHelper.sol\":784:877  (bool success, bytes memory data) = token.call(abi.encodeWithSelector(0xa9059cbb, to, value)) */\n      swap2\n      pop\n      swap2\n      pop\n        /* \"CoreContracts/kalyswap-lib/libraries/TransferHelper.sol\":895:902  success */\n      dup2\n        /* \"CoreContracts/kalyswap-lib/libraries/TransferHelper.sol\":895:952  success && (data.length == 0 || abi.decode(data, (bool))) */\n      dup1\n      iszero\n      tag_274\n      jumpi\n      pop\n        /* \"CoreContracts/kalyswap-lib/libraries/TransferHelper.sol\":907:918  data.length */\n      dup1\n      mload\n        /* \"CoreContracts/kalyswap-lib/libraries/TransferHelper.sol\":907:923  data.length == 0 */\n      iszero\n      dup1\n        /* \"CoreContracts/kalyswap-lib/libraries/TransferHelper.sol\":907:951  data.length == 0 || abi.decode(data, (bool)) */\n      tag_274\n      jumpi\n      pop\n        /* \"CoreContracts/kalyswap-lib/libraries/TransferHelper.sol\":938:942  data */\n      dup1\n        /* \"CoreContracts/kalyswap-lib/libraries/TransferHelper.sol\":927:951  abi.decode(data, (bool)) */\n      dup1\n      0x20\n      add\n      swap1\n      mload\n      0x20\n      dup2\n      lt\n      iszero\n      tag_275\n      jumpi\n      0x00\n      dup1\n      revert\n    tag_275:\n      pop\n      mload\n        /* \"CoreContracts/kalyswap-lib/libraries/TransferHelper.sol\":907:951  data.length == 0 || abi.decode(data, (bool)) */\n    tag_274:\n        /* \"CoreContracts/kalyswap-lib/libraries/TransferHelper.sol\":887:988  require(success && (data.length == 0 || abi.decode(data, (bool))), 'TransferHelper: TRANSFER_FAILED') */\n      tag_122\n      jumpi\n      0x40\n      dup1\n      mload\n      shl(0xe5, 0x461bcd)\n      dup2\n      mstore\n      0x20\n      0x04\n      dup3\n      add\n      mstore\n      0x1f\n      0x24\n      dup3\n      add\n      mstore\n      0x5472616e7366657248656c7065723a205452414e534645525f4641494c454400\n      0x44\n      dup3\n      add\n      mstore\n      swap1\n      mload\n      swap1\n      dup2\n      swap1\n      sub\n      0x64\n      add\n      swap1\n      revert\n        /* \"CoreContracts/kalyswap-periphery/KalyswapBridgeMigrationRouter.sol\":6348:7155  function _arePairsCompatible(address pairA, address pairB) internal view {... */\n    tag_134:\n      sub(shl(0xa0, 0x01), 0x01)\n        /* \"CoreContracts/kalyswap-periphery/KalyswapBridgeMigrationRouter.sol\":6439:6458  pairA != address(0) */\n      dup3\n      and\n        /* \"CoreContracts/kalyswap-periphery/KalyswapBridgeMigrationRouter.sol\":6431:6521  require(pairA != address(0), \"KalyswapBridgeMigrationRouter: liquidityPairFrom address 0\") */\n      tag_278\n      jumpi\n      mload(0x40)\n      shl(0xe5, 0x461bcd)\n      dup2\n      mstore\n      0x04\n      add\n      dup1\n      dup1\n      0x20\n      add\n      dup3\n      dup2\n      sub\n      dup3\n      mstore\n      0x3a\n      dup2\n      mstore\n      0x20\n      add\n      dup1\n      data_2779eff898f898effcf0aa56dae8e93db6d4db04eea06f78f89cd9d6340eca68\n      0x3a\n      swap2\n      codecopy\n      0x40\n      add\n      swap2\n      pop\n      pop\n      mload(0x40)\n      dup1\n      swap2\n      sub\n      swap1\n      revert\n    tag_278:\n      sub(shl(0xa0, 0x01), 0x01)\n        /* \"CoreContracts/kalyswap-periphery/KalyswapBridgeMigrationRouter.sol\":6539:6558  pairA != address(0) */\n      dup3\n      and\n        /* \"CoreContracts/kalyswap-periphery/KalyswapBridgeMigrationRouter.sol\":6531:6619  require(pairA != address(0), \"KalyswapBridgeMigrationRouter: liquidityPairTo address 0\") */\n      tag_279\n      jumpi\n      mload(0x40)\n      shl(0xe5, 0x461bcd)\n      dup2\n      mstore\n      0x04\n      add\n      dup1\n      dup1\n      0x20\n      add\n      dup3\n      dup2\n      sub\n      dup3\n      mstore\n      0x38\n      dup2\n      mstore\n      0x20\n      add\n      dup1\n      data_d3644c735b72355dd1872214f8cef876b6ab448ac1dcde51a78aae8776c79ea0\n      0x38\n      swap2\n      codecopy\n      0x40\n      add\n      swap2\n      pop\n      pop\n      mload(0x40)\n      dup1\n      swap2\n      sub\n      swap1\n      revert\n    tag_279:\n        /* \"CoreContracts/kalyswap-periphery/KalyswapBridgeMigrationRouter.sol\":6646:6651  pairB */\n      dup1\n      sub(shl(0xa0, 0x01), 0x01)\n        /* \"CoreContracts/kalyswap-periphery/KalyswapBridgeMigrationRouter.sol\":6637:6651  pairA != pairB */\n      and\n        /* \"CoreContracts/kalyswap-periphery/KalyswapBridgeMigrationRouter.sol\":6637:6642  pairA */\n      dup3\n      sub(shl(0xa0, 0x01), 0x01)\n        /* \"CoreContracts/kalyswap-periphery/KalyswapBridgeMigrationRouter.sol\":6637:6651  pairA != pairB */\n      and\n      eq\n      iszero\n        /* \"CoreContracts/kalyswap-periphery/KalyswapBridgeMigrationRouter.sol\":6629:6727  require(pairA != pairB, \"KalyswapBridgeMigrationRouter: Cant convert to the same liquidity pairs\") */\n      tag_280\n      jumpi\n      mload(0x40)\n      shl(0xe5, 0x461bcd)\n      dup2\n      mstore\n      0x04\n      add\n      dup1\n      dup1\n      0x20\n      add\n      dup3\n      dup2\n      sub\n      dup3\n      mstore\n      0x47\n      dup2\n      mstore\n      0x20\n      add\n      dup1\n      data_2386eadbfa1ec37b2bd48e593f37c43c952d063ca4685d6d4e6b987ed53095cd\n      0x47\n      swap2\n      codecopy\n      0x60\n      add\n      swap2\n      pop\n      pop\n      mload(0x40)\n      dup1\n      swap2\n      sub\n      swap1\n      revert\n    tag_280:\n        /* \"CoreContracts/kalyswap-periphery/KalyswapBridgeMigrationRouter.sol\":6805:6810  pairB */\n      dup1\n      sub(shl(0xa0, 0x01), 0x01)\n        /* \"CoreContracts/kalyswap-periphery/KalyswapBridgeMigrationRouter.sol\":6791:6818  IKalyswapPair(pairB).token0 */\n      and\n      0x0dfe1681\n        /* \"CoreContracts/kalyswap-periphery/KalyswapBridgeMigrationRouter.sol\":6791:6820  IKalyswapPair(pairB).token0() */\n      mload(0x40)\n      dup2\n      0xffffffff\n      and\n      0xe0\n      shl\n      dup2\n      mstore\n      0x04\n      add\n      0x20\n      mload(0x40)\n      dup1\n      dup4\n      sub\n      dup2\n      dup7\n      dup1\n      extcodesize\n      iszero\n      dup1\n      iszero\n      tag_281\n      jumpi\n      0x00\n      dup1\n      revert\n    tag_281:\n      pop\n      gas\n      staticcall\n      iszero\n      dup1\n      iszero\n      tag_283\n      jumpi\n      returndatasize\n      0x00\n      dup1\n      returndatacopy\n      revert(0x00, returndatasize)\n    tag_283:\n      pop\n      pop\n      pop\n      pop\n      mload(0x40)\n      returndatasize\n      0x20\n      dup2\n      lt\n      iszero\n      tag_284\n      jumpi\n      0x00\n      dup1\n      revert\n    tag_284:\n      pop\n      mload\n        /* \"CoreContracts/kalyswap-periphery/KalyswapBridgeMigrationRouter.sol\":6758:6787  IKalyswapPair(pairA).token0() */\n      0x40\n      dup1\n      mload\n      shl(0xe0, 0x0dfe1681)\n      dup2\n      mstore\n      swap1\n      mload\n      sub(shl(0xa0, 0x01), 0x01)\n        /* \"CoreContracts/kalyswap-periphery/KalyswapBridgeMigrationRouter.sol\":6758:6820  IKalyswapPair(pairA).token0() == IKalyswapPair(pairB).token0() */\n      swap3\n      dup4\n      and\n      swap3\n        /* \"CoreContracts/kalyswap-periphery/KalyswapBridgeMigrationRouter.sol\":6758:6785  IKalyswapPair(pairA).token0 */\n      dup6\n      and\n      swap2\n      0x0dfe1681\n      swap2\n        /* \"CoreContracts/kalyswap-periphery/KalyswapBridgeMigrationRouter.sol\":6758:6787  IKalyswapPair(pairA).token0() */\n      0x04\n      dup1\n      dup4\n      add\n      swap3\n        /* \"CoreContracts/kalyswap-periphery/KalyswapBridgeMigrationRouter.sol\":6791:6820  IKalyswapPair(pairB).token0() */\n      0x20\n      swap3\n        /* \"CoreContracts/kalyswap-periphery/KalyswapBridgeMigrationRouter.sol\":6758:6787  IKalyswapPair(pairA).token0() */\n      swap2\n      swap1\n      dup3\n      swap1\n      sub\n      add\n      dup2\n        /* \"CoreContracts/kalyswap-periphery/KalyswapBridgeMigrationRouter.sol\":6758:6785  IKalyswapPair(pairA).token0 */\n      dup7\n        /* \"CoreContracts/kalyswap-periphery/KalyswapBridgeMigrationRouter.sol\":6758:6787  IKalyswapPair(pairA).token0() */\n      dup1\n      extcodesize\n      iszero\n      dup1\n      iszero\n      tag_285\n      jumpi\n      0x00\n      dup1\n      revert\n    tag_285:\n      pop\n      gas\n      staticcall\n      iszero\n      dup1\n      iszero\n      tag_287\n      jumpi\n      returndatasize\n      0x00\n      dup1\n      returndatacopy\n      revert(0x00, returndatasize)\n    tag_287:\n      pop\n      pop\n      pop\n      pop\n      mload(0x40)\n      returndatasize\n      0x20\n      dup2\n      lt\n      iszero\n      tag_288\n      jumpi\n      0x00\n      dup1\n      revert\n    tag_288:\n      pop\n      mload\n      sub(shl(0xa0, 0x01), 0x01)\n        /* \"CoreContracts/kalyswap-periphery/KalyswapBridgeMigrationRouter.sol\":6758:6820  IKalyswapPair(pairA).token0() == IKalyswapPair(pairB).token0() */\n      and\n      eq\n      dup1\n        /* \"CoreContracts/kalyswap-periphery/KalyswapBridgeMigrationRouter.sol\":6758:6898  IKalyswapPair(pairA).token0() == IKalyswapPair(pairB).token0() ||... */\n      tag_289\n      jumpi\n      pop\n        /* \"CoreContracts/kalyswap-periphery/KalyswapBridgeMigrationRouter.sol\":6883:6888  pairB */\n      dup1\n      sub(shl(0xa0, 0x01), 0x01)\n        /* \"CoreContracts/kalyswap-periphery/KalyswapBridgeMigrationRouter.sol\":6869:6896  IKalyswapPair(pairB).token1 */\n      and\n      0xd21220a7\n        /* \"CoreContracts/kalyswap-periphery/KalyswapBridgeMigrationRouter.sol\":6869:6898  IKalyswapPair(pairB).token1() */\n      mload(0x40)\n      dup2\n      0xffffffff\n      and\n      0xe0\n      shl\n      dup2\n      mstore\n      0x04\n      add\n      0x20\n      mload(0x40)\n      dup1\n      dup4\n      sub\n      dup2\n      dup7\n      dup1\n      extcodesize\n      iszero\n      dup1\n      iszero\n      tag_290\n      jumpi\n      0x00\n      dup1\n      revert\n    tag_290:\n      pop\n      gas\n      staticcall\n      iszero\n      dup1\n      iszero\n      tag_292\n      jumpi\n      returndatasize\n      0x00\n      dup1\n      returndatacopy\n      revert(0x00, returndatasize)\n    tag_292:\n      pop\n      pop\n      pop\n      pop\n      mload(0x40)\n      returndatasize\n      0x20\n      dup2\n      lt\n      iszero\n      tag_293\n      jumpi\n      0x00\n      dup1\n      revert\n    tag_293:\n      pop\n      mload\n        /* \"CoreContracts/kalyswap-periphery/KalyswapBridgeMigrationRouter.sol\":6836:6865  IKalyswapPair(pairA).token0() */\n      0x40\n      dup1\n      mload\n      shl(0xe0, 0x0dfe1681)\n      dup2\n      mstore\n      swap1\n      mload\n      sub(shl(0xa0, 0x01), 0x01)\n        /* \"CoreContracts/kalyswap-periphery/KalyswapBridgeMigrationRouter.sol\":6836:6898  IKalyswapPair(pairA).token0() == IKalyswapPair(pairB).token1() */\n      swap3\n      dup4\n      and\n      swap3\n        /* \"CoreContracts/kalyswap-periphery/KalyswapBridgeMigrationRouter.sol\":6836:6863  IKalyswapPair(pairA).token0 */\n      dup6\n      and\n      swap2\n      0x0dfe1681\n      swap2\n        /* \"CoreContracts/kalyswap-periphery/KalyswapBridgeMigrationRouter.sol\":6836:6865  IKalyswapPair(pairA).token0() */\n      0x04\n      dup1\n      dup4\n      add\n      swap3\n        /* \"CoreContracts/kalyswap-periphery/KalyswapBridgeMigrationRouter.sol\":6869:6898  IKalyswapPair(pairB).token1() */\n      0x20\n      swap3\n        /* \"CoreContracts/kalyswap-periphery/KalyswapBridgeMigrationRouter.sol\":6836:6865  IKalyswapPair(pairA).token0() */\n      swap2\n      swap1\n      dup3\n      swap1\n      sub\n      add\n      dup2\n        /* \"CoreContracts/kalyswap-periphery/KalyswapBridgeMigrationRouter.sol\":6836:6863  IKalyswapPair(pairA).token0 */\n      dup7\n        /* \"CoreContracts/kalyswap-periphery/KalyswapBridgeMigrationRouter.sol\":6836:6865  IKalyswapPair(pairA).token0() */\n      dup1\n      extcodesize\n      iszero\n      dup1\n      iszero\n      tag_294\n      jumpi\n      0x00\n      dup1\n      revert\n    tag_294:\n      pop\n      gas\n      staticcall\n      iszero\n      dup1\n      iszero\n      tag_296\n      jumpi\n      returndatasize\n      0x00\n      dup1\n      returndatacopy\n      revert(0x00, returndatasize)\n    tag_296:\n      pop\n      pop\n      pop\n      pop\n      mload(0x40)\n      returndatasize\n      0x20\n      dup2\n      lt\n      iszero\n      tag_297\n      jumpi\n      0x00\n      dup1\n      revert\n    tag_297:\n      pop\n      mload\n      sub(shl(0xa0, 0x01), 0x01)\n        /* \"CoreContracts/kalyswap-periphery/KalyswapBridgeMigrationRouter.sol\":6836:6898  IKalyswapPair(pairA).token0() == IKalyswapPair(pairB).token1() */\n      and\n      eq\n        /* \"CoreContracts/kalyswap-periphery/KalyswapBridgeMigrationRouter.sol\":6758:6898  IKalyswapPair(pairA).token0() == IKalyswapPair(pairB).token0() ||... */\n    tag_289:\n        /* \"CoreContracts/kalyswap-periphery/KalyswapBridgeMigrationRouter.sol\":6758:6976  IKalyswapPair(pairA).token0() == IKalyswapPair(pairB).token0() ||... */\n      dup1\n      tag_298\n      jumpi\n      pop\n        /* \"CoreContracts/kalyswap-periphery/KalyswapBridgeMigrationRouter.sol\":6961:6966  pairB */\n      dup1\n      sub(shl(0xa0, 0x01), 0x01)\n        /* \"CoreContracts/kalyswap-periphery/KalyswapBridgeMigrationRouter.sol\":6947:6974  IKalyswapPair(pairB).token0 */\n      and\n      0x0dfe1681\n        /* \"CoreContracts/kalyswap-periphery/KalyswapBridgeMigrationRouter.sol\":6947:6976  IKalyswapPair(pairB).token0() */\n      mload(0x40)\n      dup2\n      0xffffffff\n      and\n      0xe0\n      shl\n      dup2\n      mstore\n      0x04\n      add\n      0x20\n      mload(0x40)\n      dup1\n      dup4\n      sub\n      dup2\n      dup7\n      dup1\n      extcodesize\n      iszero\n      dup1\n      iszero\n      tag_299\n      jumpi\n      0x00\n      dup1\n      revert\n    tag_299:\n      pop\n      gas\n      staticcall\n      iszero\n      dup1\n      iszero\n      tag_301\n      jumpi\n      returndatasize\n      0x00\n      dup1\n      returndatacopy\n      revert(0x00, returndatasize)\n    tag_301:\n      pop\n      pop\n      pop\n      pop\n      mload(0x40)\n      returndatasize\n      0x20\n      dup2\n      lt\n      iszero\n      tag_302\n      jumpi\n      0x00\n      dup1\n      revert\n    tag_302:\n      pop\n      mload\n        /* \"CoreContracts/kalyswap-periphery/KalyswapBridgeMigrationRouter.sol\":6914:6943  IKalyswapPair(pairA).token1() */\n      0x40\n      dup1\n      mload\n      shl(0xe0, 0xd21220a7)\n      dup2\n      mstore\n      swap1\n      mload\n      sub(shl(0xa0, 0x01), 0x01)\n        /* \"CoreContracts/kalyswap-periphery/KalyswapBridgeMigrationRouter.sol\":6914:6976  IKalyswapPair(pairA).token1() == IKalyswapPair(pairB).token0() */\n      swap3\n      dup4\n      and\n      swap3\n        /* \"CoreContracts/kalyswap-periphery/KalyswapBridgeMigrationRouter.sol\":6914:6941  IKalyswapPair(pairA).token1 */\n      dup6\n      and\n      swap2\n      0xd21220a7\n      swap2\n        /* \"CoreContracts/kalyswap-periphery/KalyswapBridgeMigrationRouter.sol\":6914:6943  IKalyswapPair(pairA).token1() */\n      0x04\n      dup1\n      dup4\n      add\n      swap3\n        /* \"CoreContracts/kalyswap-periphery/KalyswapBridgeMigrationRouter.sol\":6947:6976  IKalyswapPair(pairB).token0() */\n      0x20\n      swap3\n        /* \"CoreContracts/kalyswap-periphery/KalyswapBridgeMigrationRouter.sol\":6914:6943  IKalyswapPair(pairA).token1() */\n      swap2\n      swap1\n      dup3\n      swap1\n      sub\n      add\n      dup2\n        /* \"CoreContracts/kalyswap-periphery/KalyswapBridgeMigrationRouter.sol\":6914:6941  IKalyswapPair(pairA).token1 */\n      dup7\n        /* \"CoreContracts/kalyswap-periphery/KalyswapBridgeMigrationRouter.sol\":6914:6943  IKalyswapPair(pairA).token1() */\n      dup1\n      extcodesize\n      iszero\n      dup1\n      iszero\n      tag_303\n      jumpi\n      0x00\n      dup1\n      revert\n    tag_303:\n      pop\n      gas\n      staticcall\n      iszero\n      dup1\n      iszero\n      tag_305\n      jumpi\n      returndatasize\n      0x00\n      dup1\n      returndatacopy\n      revert(0x00, returndatasize)\n    tag_305:\n      pop\n      pop\n      pop\n      pop\n      mload(0x40)\n      returndatasize\n      0x20\n      dup2\n      lt\n      iszero\n      tag_306\n      jumpi\n      0x00\n      dup1\n      revert\n    tag_306:\n      pop\n      mload\n      sub(shl(0xa0, 0x01), 0x01)\n        /* \"CoreContracts/kalyswap-periphery/KalyswapBridgeMigrationRouter.sol\":6914:6976  IKalyswapPair(pairA).token1() == IKalyswapPair(pairB).token0() */\n      and\n      eq\n        /* \"CoreContracts/kalyswap-periphery/KalyswapBridgeMigrationRouter.sol\":6758:6976  IKalyswapPair(pairA).token0() == IKalyswapPair(pairB).token0() ||... */\n    tag_298:\n        /* \"CoreContracts/kalyswap-periphery/KalyswapBridgeMigrationRouter.sol\":6758:7054  IKalyswapPair(pairA).token0() == IKalyswapPair(pairB).token0() ||... */\n      dup1\n      tag_307\n      jumpi\n      pop\n        /* \"CoreContracts/kalyswap-periphery/KalyswapBridgeMigrationRouter.sol\":7039:7044  pairB */\n      dup1\n      sub(shl(0xa0, 0x01), 0x01)\n        /* \"CoreContracts/kalyswap-periphery/KalyswapBridgeMigrationRouter.sol\":7025:7052  IKalyswapPair(pairB).token1 */\n      and\n      0xd21220a7\n        /* \"CoreContracts/kalyswap-periphery/KalyswapBridgeMigrationRouter.sol\":7025:7054  IKalyswapPair(pairB).token1() */\n      mload(0x40)\n      dup2\n      0xffffffff\n      and\n      0xe0\n      shl\n      dup2\n      mstore\n      0x04\n      add\n      0x20\n      mload(0x40)\n      dup1\n      dup4\n      sub\n      dup2\n      dup7\n      dup1\n      extcodesize\n      iszero\n      dup1\n      iszero\n      tag_308\n      jumpi\n      0x00\n      dup1\n      revert\n    tag_308:\n      pop\n      gas\n      staticcall\n      iszero\n      dup1\n      iszero\n      tag_310\n      jumpi\n      returndatasize\n      0x00\n      dup1\n      returndatacopy\n      revert(0x00, returndatasize)\n    tag_310:\n      pop\n      pop\n      pop\n      pop\n      mload(0x40)\n      returndatasize\n      0x20\n      dup2\n      lt\n      iszero\n      tag_311\n      jumpi\n      0x00\n      dup1\n      revert\n    tag_311:\n      pop\n      mload\n        /* \"CoreContracts/kalyswap-periphery/KalyswapBridgeMigrationRouter.sol\":6992:7021  IKalyswapPair(pairA).token1() */\n      0x40\n      dup1\n      mload\n      shl(0xe0, 0xd21220a7)\n      dup2\n      mstore\n      swap1\n      mload\n      sub(shl(0xa0, 0x01), 0x01)\n        /* \"CoreContracts/kalyswap-periphery/KalyswapBridgeMigrationRouter.sol\":6992:7054  IKalyswapPair(pairA).token1() == IKalyswapPair(pairB).token1() */\n      swap3\n      dup4\n      and\n      swap3\n        /* \"CoreContracts/kalyswap-periphery/KalyswapBridgeMigrationRouter.sol\":6992:7019  IKalyswapPair(pairA).token1 */\n      dup6\n      and\n      swap2\n      0xd21220a7\n      swap2\n        /* \"CoreContracts/kalyswap-periphery/KalyswapBridgeMigrationRouter.sol\":6992:7021  IKalyswapPair(pairA).token1() */\n      0x04\n      dup1\n      dup4\n      add\n      swap3\n        /* \"CoreContracts/kalyswap-periphery/KalyswapBridgeMigrationRouter.sol\":7025:7054  IKalyswapPair(pairB).token1() */\n      0x20\n      swap3\n        /* \"CoreContracts/kalyswap-periphery/KalyswapBridgeMigrationRouter.sol\":6992:7021  IKalyswapPair(pairA).token1() */\n      swap2\n      swap1\n      dup3\n      swap1\n      sub\n      add\n      dup2\n        /* \"CoreContracts/kalyswap-periphery/KalyswapBridgeMigrationRouter.sol\":6992:7019  IKalyswapPair(pairA).token1 */\n      dup7\n        /* \"CoreContracts/kalyswap-periphery/KalyswapBridgeMigrationRouter.sol\":6992:7021  IKalyswapPair(pairA).token1() */\n      dup1\n      extcodesize\n      iszero\n      dup1\n      iszero\n      tag_312\n      jumpi\n      0x00\n      dup1\n      revert\n    tag_312:\n      pop\n      gas\n      staticcall\n      iszero\n      dup1\n      iszero\n      tag_314\n      jumpi\n      returndatasize\n      0x00\n      dup1\n      returndatacopy\n      revert(0x00, returndatasize)\n    tag_314:\n      pop\n      pop\n      pop\n      pop\n      mload(0x40)\n      returndatasize\n      0x20\n      dup2\n      lt\n      iszero\n      tag_315\n      jumpi\n      0x00\n      dup1\n      revert\n    tag_315:\n      pop\n      mload\n      sub(shl(0xa0, 0x01), 0x01)\n        /* \"CoreContracts/kalyswap-periphery/KalyswapBridgeMigrationRouter.sol\":6992:7054  IKalyswapPair(pairA).token1() == IKalyswapPair(pairB).token1() */\n      and\n      eq\n        /* \"CoreContracts/kalyswap-periphery/KalyswapBridgeMigrationRouter.sol\":6758:7054  IKalyswapPair(pairA).token0() == IKalyswapPair(pairB).token0() ||... */\n    tag_307:\n        /* \"CoreContracts/kalyswap-periphery/KalyswapBridgeMigrationRouter.sol\":6737:7148  require(... */\n      tag_265\n      jumpi\n      mload(0x40)\n      shl(0xe5, 0x461bcd)\n      dup2\n      mstore\n      0x04\n      add\n      dup1\n      dup1\n      0x20\n      add\n      dup3\n      dup2\n      sub\n      dup3\n      mstore\n      0x44\n      dup2\n      mstore\n      0x20\n      add\n      dup1\n      data_b8ed0d259757db98fff877ed18290c2e4ef438aefbcbb3f6867ba133df0a875d\n      0x44\n      swap2\n      codecopy\n      0x60\n      add\n      swap2\n      pop\n      pop\n      mload(0x40)\n      dup1\n      swap2\n      sub\n      swap1\n      revert\n        /* \"CoreContracts/kalyswap-periphery/KalyswapBridgeMigrationRouter.sol\":5645:5972  function _rescueLiquidity(... */\n    tag_173:\n        /* \"CoreContracts/kalyswap-periphery/KalyswapBridgeMigrationRouter.sol\":5747:5764  uint amountTokenA */\n      0x00\n        /* \"CoreContracts/kalyswap-periphery/KalyswapBridgeMigrationRouter.sol\":5766:5783  uint amountTokenB */\n      dup1\n        /* \"CoreContracts/kalyswap-periphery/KalyswapBridgeMigrationRouter.sol\":5795:5876  TransferHelper.safeTransferFrom(liquidityPair, msg.sender, liquidityPair, amount) */\n      tag_318\n        /* \"CoreContracts/kalyswap-periphery/KalyswapBridgeMigrationRouter.sol\":5827:5840  liquidityPair */\n      dup5\n        /* \"CoreContracts/kalyswap-periphery/KalyswapBridgeMigrationRouter.sol\":5842:5852  msg.sender */\n      caller\n        /* \"CoreContracts/kalyswap-periphery/KalyswapBridgeMigrationRouter.sol\":5854:5867  liquidityPair */\n      dup7\n        /* \"CoreContracts/kalyswap-periphery/KalyswapBridgeMigrationRouter.sol\":5869:5875  amount */\n      dup7\n        /* \"CoreContracts/kalyswap-periphery/KalyswapBridgeMigrationRouter.sol\":5795:5826  TransferHelper.safeTransferFrom */\n      tag_119\n        /* \"CoreContracts/kalyswap-periphery/KalyswapBridgeMigrationRouter.sol\":5795:5876  TransferHelper.safeTransferFrom(liquidityPair, msg.sender, liquidityPair, amount) */\n      jump\t// in\n    tag_318:\n        /* \"CoreContracts/kalyswap-periphery/KalyswapBridgeMigrationRouter.sol\":5917:5965  IKalyswapPair(liquidityPair).burn(address(this)) */\n      0x40\n      dup1\n      mload\n      0x89afcb4400000000000000000000000000000000000000000000000000000000\n      dup2\n      mstore\n        /* \"CoreContracts/kalyswap-periphery/KalyswapBridgeMigrationRouter.sol\":5959:5963  this */\n      address\n        /* \"CoreContracts/kalyswap-periphery/KalyswapBridgeMigrationRouter.sol\":5917:5965  IKalyswapPair(liquidityPair).burn(address(this)) */\n      0x04\n      dup3\n      add\n      mstore\n      dup2\n      mload\n      sub(shl(0xa0, 0x01), 0x01)\n        /* \"CoreContracts/kalyswap-periphery/KalyswapBridgeMigrationRouter.sol\":5917:5950  IKalyswapPair(liquidityPair).burn */\n      dup8\n      and\n      swap3\n      0x89afcb44\n      swap3\n        /* \"CoreContracts/kalyswap-periphery/KalyswapBridgeMigrationRouter.sol\":5917:5965  IKalyswapPair(liquidityPair).burn(address(this)) */\n      0x24\n      dup1\n      dup3\n      add\n      swap4\n      swap2\n      dup3\n      swap1\n      sub\n      add\n      dup2\n      0x00\n        /* \"CoreContracts/kalyswap-periphery/KalyswapBridgeMigrationRouter.sol\":5917:5950  IKalyswapPair(liquidityPair).burn */\n      dup8\n        /* \"CoreContracts/kalyswap-periphery/KalyswapBridgeMigrationRouter.sol\":5917:5965  IKalyswapPair(liquidityPair).burn(address(this)) */\n      dup1\n      extcodesize\n      iszero\n      dup1\n      iszero\n      tag_319\n      jumpi\n      0x00\n      dup1\n      revert\n    tag_319:\n      pop\n      gas\n      call\n      iszero\n      dup1\n      iszero\n      tag_321\n      jumpi\n      returndatasize\n      0x00\n      dup1\n      returndatacopy\n      revert(0x00, returndatasize)\n    tag_321:\n      pop\n      pop\n      pop\n      pop\n      mload(0x40)\n      returndatasize\n      0x40\n      dup2\n      lt\n      iszero\n      tag_322\n      jumpi\n      0x00\n      dup1\n      revert\n    tag_322:\n      pop\n      dup1\n      mload\n      0x20\n      swap1\n      swap2\n      add\n      mload\n      swap1\n      swap6\n      swap1\n      swap5\n      pop\n        /* \"CoreContracts/kalyswap-periphery/KalyswapBridgeMigrationRouter.sol\":5645:5972  function _rescueLiquidity(... */\n      swap3\n      pop\n      pop\n      pop\n      jump\t// out\n        /* \"CoreContracts/kalyswap-periphery/KalyswapBridgeMigrationRouter.sol\":4239:5098  function _addLiquidity(... */\n    tag_207:\n        /* \"CoreContracts/kalyswap-periphery/KalyswapBridgeMigrationRouter.sol\":4428:4440  uint amount0 */\n      0x00\n        /* \"CoreContracts/kalyswap-periphery/KalyswapBridgeMigrationRouter.sol\":4442:4454  uint amount1 */\n      dup1\n        /* \"CoreContracts/kalyswap-periphery/KalyswapBridgeMigrationRouter.sol\":4456:4476  uint liquidityAmount */\n      0x00\n        /* \"CoreContracts/kalyswap-periphery/KalyswapBridgeMigrationRouter.sol\":4489:4505  uint112 reserve0 */\n      dup1\n        /* \"CoreContracts/kalyswap-periphery/KalyswapBridgeMigrationRouter.sol\":4507:4523  uint112 reserve1 */\n      0x00\n        /* \"CoreContracts/kalyswap-periphery/KalyswapBridgeMigrationRouter.sol\":4542:4551  pairToken */\n      dup11\n      sub(shl(0xa0, 0x01), 0x01)\n        /* \"CoreContracts/kalyswap-periphery/KalyswapBridgeMigrationRouter.sol\":4528:4564  IKalyswapPair(pairToken).getReserves */\n      and\n      0x0902f1ac\n        /* \"CoreContracts/kalyswap-periphery/KalyswapBridgeMigrationRouter.sol\":4528:4566  IKalyswapPair(pairToken).getReserves() */\n      mload(0x40)\n      dup2\n      0xffffffff\n      and\n      0xe0\n      shl\n      dup2\n      mstore\n      0x04\n      add\n      0x60\n      mload(0x40)\n      dup1\n      dup4\n      sub\n      dup2\n      dup7\n      dup1\n      extcodesize\n      iszero\n      dup1\n      iszero\n      tag_324\n      jumpi\n      0x00\n      dup1\n      revert\n    tag_324:\n      pop\n      gas\n      staticcall\n      iszero\n      dup1\n      iszero\n      tag_326\n      jumpi\n      returndatasize\n      0x00\n      dup1\n      returndatacopy\n      revert(0x00, returndatasize)\n    tag_326:\n      pop\n      pop\n      pop\n      pop\n      mload(0x40)\n      returndatasize\n      0x60\n      dup2\n      lt\n      iszero\n      tag_327\n      jumpi\n      0x00\n      dup1\n      revert\n    tag_327:\n      pop\n      dup1\n      mload\n      0x20\n      swap1\n      swap2\n      add\n      mload\n      swap1\n      swap3\n      pop\n      swap1\n      pop\n        /* \"CoreContracts/kalyswap-periphery/KalyswapBridgeMigrationRouter.sol\":4590:4599  amountIn0 */\n      dup8\n        /* \"CoreContracts/kalyswap-periphery/KalyswapBridgeMigrationRouter.sol\":4576:4587  uint quote0 */\n      0x00\n        /* \"CoreContracts/kalyswap-periphery/KalyswapBridgeMigrationRouter.sol\":4623:4675  KalyswapLibrary.quote(amountIn0, reserve0, reserve1) */\n      tag_328\n        /* \"CoreContracts/kalyswap-periphery/KalyswapBridgeMigrationRouter.sol\":4590:4599  amountIn0 */\n      dup3\n        /* \"CoreContracts/kalyswap-periphery/KalyswapBridgeMigrationRouter.sol\":4623:4675  KalyswapLibrary.quote(amountIn0, reserve0, reserve1) */\n      0xffffffffffffffffffffffffffff\n      dup1\n      dup8\n      and\n      swap1\n      dup7\n      and\n        /* \"CoreContracts/kalyswap-periphery/KalyswapBridgeMigrationRouter.sol\":4623:4644  KalyswapLibrary.quote */\n      tag_104\n        /* \"CoreContracts/kalyswap-periphery/KalyswapBridgeMigrationRouter.sol\":4623:4675  KalyswapLibrary.quote(amountIn0, reserve0, reserve1) */\n      jump\t// in\n    tag_328:\n        /* \"CoreContracts/kalyswap-periphery/KalyswapBridgeMigrationRouter.sol\":4609:4675  uint quote1 = KalyswapLibrary.quote(amountIn0, reserve0, reserve1) */\n      swap1\n      pop\n        /* \"CoreContracts/kalyswap-periphery/KalyswapBridgeMigrationRouter.sol\":4698:4707  amountIn1 */\n      dup9\n        /* \"CoreContracts/kalyswap-periphery/KalyswapBridgeMigrationRouter.sol\":4689:4695  quote1 */\n      dup2\n        /* \"CoreContracts/kalyswap-periphery/KalyswapBridgeMigrationRouter.sol\":4689:4707  quote1 > amountIn1 */\n      gt\n        /* \"CoreContracts/kalyswap-periphery/KalyswapBridgeMigrationRouter.sol\":4685:4827  if (quote1 > amountIn1) {... */\n      iszero\n      tag_329\n      jumpi\n        /* \"CoreContracts/kalyswap-periphery/KalyswapBridgeMigrationRouter.sol\":4732:4741  amountIn1 */\n      dup9\n        /* \"CoreContracts/kalyswap-periphery/KalyswapBridgeMigrationRouter.sol\":4723:4741  quote1 = amountIn1 */\n      swap1\n      pop\n        /* \"CoreContracts/kalyswap-periphery/KalyswapBridgeMigrationRouter.sol\":4764:4816  KalyswapLibrary.quote(amountIn1, reserve1, reserve0) */\n      tag_330\n        /* \"CoreContracts/kalyswap-periphery/KalyswapBridgeMigrationRouter.sol\":4786:4795  amountIn1 */\n      dup10\n        /* \"CoreContracts/kalyswap-periphery/KalyswapBridgeMigrationRouter.sol\":4797:4805  reserve1 */\n      dup5\n        /* \"CoreContracts/kalyswap-periphery/KalyswapBridgeMigrationRouter.sol\":4764:4816  KalyswapLibrary.quote(amountIn1, reserve1, reserve0) */\n      0xffffffffffffffffffffffffffff\n      and\n        /* \"CoreContracts/kalyswap-periphery/KalyswapBridgeMigrationRouter.sol\":4807:4815  reserve0 */\n      dup7\n        /* \"CoreContracts/kalyswap-periphery/KalyswapBridgeMigrationRouter.sol\":4764:4816  KalyswapLibrary.quote(amountIn1, reserve1, reserve0) */\n      0xffffffffffffffffffffffffffff\n      and\n        /* \"CoreContracts/kalyswap-periphery/KalyswapBridgeMigrationRouter.sol\":4764:4785  KalyswapLibrary.quote */\n      tag_104\n        /* \"CoreContracts/kalyswap-periphery/KalyswapBridgeMigrationRouter.sol\":4764:4816  KalyswapLibrary.quote(amountIn1, reserve1, reserve0) */\n      jump\t// in\n    tag_330:\n        /* \"CoreContracts/kalyswap-periphery/KalyswapBridgeMigrationRouter.sol\":4755:4816  quote0 = KalyswapLibrary.quote(amountIn1, reserve1, reserve0) */\n      swap2\n      pop\n        /* \"CoreContracts/kalyswap-periphery/KalyswapBridgeMigrationRouter.sol\":4685:4827  if (quote1 > amountIn1) {... */\n    tag_329:\n        /* \"CoreContracts/kalyswap-periphery/KalyswapBridgeMigrationRouter.sol\":4836:4890  TransferHelper.safeTransfer(token0, pairToken, quote0) */\n      tag_331\n        /* \"CoreContracts/kalyswap-periphery/KalyswapBridgeMigrationRouter.sol\":4864:4870  token0 */\n      dup13\n        /* \"CoreContracts/kalyswap-periphery/KalyswapBridgeMigrationRouter.sol\":4872:4881  pairToken */\n      dup15\n        /* \"CoreContracts/kalyswap-periphery/KalyswapBridgeMigrationRouter.sol\":4883:4889  quote0 */\n      dup5\n        /* \"CoreContracts/kalyswap-periphery/KalyswapBridgeMigrationRouter.sol\":4836:4863  TransferHelper.safeTransfer */\n      tag_123\n        /* \"CoreContracts/kalyswap-periphery/KalyswapBridgeMigrationRouter.sol\":4836:4890  TransferHelper.safeTransfer(token0, pairToken, quote0) */\n      jump\t// in\n    tag_331:\n        /* \"CoreContracts/kalyswap-periphery/KalyswapBridgeMigrationRouter.sol\":4900:4954  TransferHelper.safeTransfer(token1, pairToken, quote1) */\n      tag_332\n        /* \"CoreContracts/kalyswap-periphery/KalyswapBridgeMigrationRouter.sol\":4928:4934  token1 */\n      dup12\n        /* \"CoreContracts/kalyswap-periphery/KalyswapBridgeMigrationRouter.sol\":4936:4945  pairToken */\n      dup15\n        /* \"CoreContracts/kalyswap-periphery/KalyswapBridgeMigrationRouter.sol\":4947:4953  quote1 */\n      dup4\n        /* \"CoreContracts/kalyswap-periphery/KalyswapBridgeMigrationRouter.sol\":4900:4927  TransferHelper.safeTransfer */\n      tag_123\n        /* \"CoreContracts/kalyswap-periphery/KalyswapBridgeMigrationRouter.sol\":4900:4954  TransferHelper.safeTransfer(token1, pairToken, quote1) */\n      jump\t// in\n    tag_332:\n        /* \"CoreContracts/kalyswap-periphery/KalyswapBridgeMigrationRouter.sol\":4986:4992  quote0 */\n      dup2\n        /* \"CoreContracts/kalyswap-periphery/KalyswapBridgeMigrationRouter.sol\":4974:4983  amountIn0 */\n      dup11\n        /* \"CoreContracts/kalyswap-periphery/KalyswapBridgeMigrationRouter.sol\":4974:4992  amountIn0 - quote0 */\n      sub\n        /* \"CoreContracts/kalyswap-periphery/KalyswapBridgeMigrationRouter.sol\":4964:4992  amount0 = amountIn0 - quote0 */\n      swap7\n      pop\n        /* \"CoreContracts/kalyswap-periphery/KalyswapBridgeMigrationRouter.sol\":5024:5030  quote1 */\n      dup1\n        /* \"CoreContracts/kalyswap-periphery/KalyswapBridgeMigrationRouter.sol\":5012:5021  amountIn1 */\n      dup10\n        /* \"CoreContracts/kalyswap-periphery/KalyswapBridgeMigrationRouter.sol\":5012:5030  amountIn1 - quote1 */\n      sub\n        /* \"CoreContracts/kalyswap-periphery/KalyswapBridgeMigrationRouter.sol\":5002:5030  amount1 = amountIn1 - quote1 */\n      swap6\n      pop\n        /* \"CoreContracts/kalyswap-periphery/KalyswapBridgeMigrationRouter.sol\":5072:5081  pairToken */\n      dup13\n      sub(shl(0xa0, 0x01), 0x01)\n        /* \"CoreContracts/kalyswap-periphery/KalyswapBridgeMigrationRouter.sol\":5058:5087  IKalyswapPair(pairToken).mint */\n      and\n      0x6a627842\n        /* \"CoreContracts/kalyswap-periphery/KalyswapBridgeMigrationRouter.sol\":5088:5090  to */\n      dup10\n        /* \"CoreContracts/kalyswap-periphery/KalyswapBridgeMigrationRouter.sol\":5058:5091  IKalyswapPair(pairToken).mint(to) */\n      mload(0x40)\n      dup3\n      0xffffffff\n      and\n      0xe0\n      shl\n      dup2\n      mstore\n      0x04\n      add\n      dup1\n      dup3\n      sub(shl(0xa0, 0x01), 0x01)\n      and\n      dup2\n      mstore\n      0x20\n      add\n      swap2\n      pop\n      pop\n      0x20\n      mload(0x40)\n      dup1\n      dup4\n      sub\n      dup2\n      0x00\n      dup8\n      dup1\n      extcodesize\n      iszero\n      dup1\n      iszero\n      tag_333\n      jumpi\n      0x00\n      dup1\n      revert\n    tag_333:\n      pop\n      gas\n      call\n      iszero\n      dup1\n      iszero\n      tag_335\n      jumpi\n      returndatasize\n      0x00\n      dup1\n      returndatacopy\n      revert(0x00, returndatasize)\n    tag_335:\n      pop\n      pop\n      pop\n      pop\n      mload(0x40)\n      returndatasize\n      0x20\n      dup2\n      lt\n      iszero\n      tag_336\n      jumpi\n      0x00\n      dup1\n      revert\n    tag_336:\n      pop\n      mload\n        /* \"CoreContracts/kalyswap-periphery/KalyswapBridgeMigrationRouter.sol\":4239:5098  function _addLiquidity(... */\n      swap7\n      swap14\n      swap6\n      swap13\n      pop\n        /* \"CoreContracts/kalyswap-periphery/KalyswapBridgeMigrationRouter.sol\":5058:5091  IKalyswapPair(pairToken).mint(to) */\n      swap6\n      swap11\n      pop\n        /* \"CoreContracts/kalyswap-periphery/KalyswapBridgeMigrationRouter.sol\":4239:5098  function _addLiquidity(... */\n      swap4\n      swap9\n      pop\n      pop\n      pop\n      pop\n      pop\n      pop\n      pop\n      pop\n      pop\n      jump\t// out\n        /* \"CoreContracts/kalyswap-periphery/libraries/SafeMath.sol\":427:567  function mul(uint x, uint y) internal pure returns (uint z) {... */\n    tag_235:\n        /* \"CoreContracts/kalyswap-periphery/libraries/SafeMath.sol\":479:485  uint z */\n      0x00\n        /* \"CoreContracts/kalyswap-periphery/libraries/SafeMath.sol\":505:511  y == 0 */\n      dup2\n      iszero\n      dup1\n        /* \"CoreContracts/kalyswap-periphery/libraries/SafeMath.sol\":505:535  y == 0 || (z = x * y) / y == x */\n      tag_338\n      jumpi\n      pop\n      pop\n        /* \"CoreContracts/kalyswap-periphery/libraries/SafeMath.sol\":520:525  x * y */\n      dup1\n      dup3\n      mul\n        /* \"CoreContracts/kalyswap-periphery/libraries/SafeMath.sol\":534:535  x */\n      dup3\n        /* \"CoreContracts/kalyswap-periphery/libraries/SafeMath.sol\":529:530  y */\n      dup3\n        /* \"CoreContracts/kalyswap-periphery/libraries/SafeMath.sol\":520:525  x * y */\n      dup3\n        /* \"CoreContracts/kalyswap-periphery/libraries/SafeMath.sol\":529:530  y */\n      dup2\n        /* \"CoreContracts/kalyswap-periphery/libraries/SafeMath.sol\":515:530  (z = x * y) / y */\n      tag_339\n      jumpi\n      invalid\n    tag_339:\n      div\n        /* \"CoreContracts/kalyswap-periphery/libraries/SafeMath.sol\":515:535  (z = x * y) / y == x */\n      eq\n        /* \"CoreContracts/kalyswap-periphery/libraries/SafeMath.sol\":505:535  y == 0 || (z = x * y) / y == x */\n    tag_338:\n        /* \"CoreContracts/kalyswap-periphery/libraries/SafeMath.sol\":497:560  require(y == 0 || (z = x * y) / y == x, 'ds-math-mul-overflow') */\n      tag_51\n      jumpi\n      0x40\n      dup1\n      mload\n      shl(0xe5, 0x461bcd)\n      dup2\n      mstore\n      0x20\n      0x04\n      dup3\n      add\n      mstore\n      0x14\n      0x24\n      dup3\n      add\n      mstore\n      0x64732d6d6174682d6d756c2d6f766572666c6f77000000000000000000000000\n      0x44\n      dup3\n      add\n      mstore\n      swap1\n      mload\n      swap1\n      dup2\n      swap1\n      sub\n      0x64\n      add\n      swap1\n      revert\n    stop\n    data_05cf0a3569a15a3c6d55134bc83c6e310486fc5d86c57fe969396f1673709115 4b616c79737761704272696467654d6967726174696f6e526f757465723a20416464726573732030206e6f7420616c6c6f776564\n    data_1c7c659b1ae1b6657f6277780e3b866d18de2ae7bdb0795c710a1378deb7c207 4b616c79737761704272696467654d6967726174696f6e526f757465723a206d69677261746f72416464726573732030206e6f7420737570706f72746564\n    data_1d8ac38f6fc3450d3a0236480a1ba0d030f5fe1f648621299163fdf4fc11c5c7 4b616c79737761704272696467654d6967726174696f6e526f757465723a205061697220646f65736e2774206d6174636820746865206d6967726174696f6e20746f6b656e\n    data_200248fc6ca52a59603938cda7204781ce09d1bfbab0ded816a7da12334c83d7 4b616c79737761704272696467654d6967726174696f6e526f757465723a206c69717569646974795061697246726f6d20616464726573732030206e6f7420737570706f72746564\n    data_20f37cd99da92a5efeb292e424950a5326eaec74b790503092d9fc76b12f685f 4b616c79737761704272696467654d6967726174696f6e526f757465723a204469646e2774207969656c642074686520636f727265637420616d6f756e74\n    data_2386eadbfa1ec37b2bd48e593f37c43c952d063ca4685d6d4e6b987ed53095cd 4b616c79737761704272696467654d6967726174696f6e526f757465723a2043616e7420636f6e7665727420746f207468652073616d65206c6971756964697479207061697273\n    data_2779eff898f898effcf0aa56dae8e93db6d4db04eea06f78f89cd9d6340eca68 4b616c79737761704272696467654d6967726174696f6e526f757465723a206c69717569646974795061697246726f6d20616464726573732030\n    data_55b0696d49f993eb1ace324d5663bb2fcaf6a2e9adf7d970b2aa88f8e8484c73 4b616c79737761704272696467654d6967726174696f6e526f757465723a206c697175696469747950616972546f20616464726573732030206e6f7420737570706f72746564\n    data_67de629378f206179ef1573eeb90ada9b246d75587b16d0d1d34653b7fb2db45 546865206d69677261746f7220646f65736e27742068617665207377617020737570706c7920666f72207468697320746f6b656e\n    data_72bf313591ceddf754ca6a5c3bb1bce298c6ad13c15c3e899581c1b7df075c21 4b616c79737761704272696467654d6967726174696f6e526f757465723a20556e617574686f72697a6564\n    data_78840e091b36f1ae3c2e726985d3fca034feef7c212a1c9737acba643adee0ed 4b616c79737761704c6962726172793a20494e53554646494349454e545f414d4f554e54\n    data_7bd893145ac435f339bb7c288622d270324b7033b011f693aca172f5cbc3c257 526f6c65733a206163636f756e7420646f6573206e6f74206861766520726f6c65\n    data_9074bfdb993f0f76350cad6ff16b034dab298eea08ad462e08506031f49a76e1 4b616c79737761704c6962726172793a20494e53554646494349454e545f4c4951554944495459\n    data_9d214fa89563f4e6456a3929327e54500ea1cde2c0ba9fb2035ec106190d682f 526f6c65733a206163636f756e7420697320746865207a65726f2061646472657373\n    data_9d984e50f0a68e3b3b3f36266bdb577070edfb604f683a0d41f604c350418d44 4b616c79737761704272696467654d6967726174696f6e526f757465723a20746f6b656e416464726573732030206e6f7420737570706f72746564\n    data_ab411b16b48c0dfc5a303ed96b1803938c6e2d0701b8085498de3b758ca25a98 4b616c79737761704272696467654d6967726174696f6e526f757465723a2045585049524544\n    data_b8ed0d259757db98fff877ed18290c2e4ef438aefbcbb3f6867ba133df0a875d 4b616c79737761704272696467654d6967726174696f6e526f757465723a205061697220646f6573206e6f742068617665206f6e6520746f6b656e206d61746368696e67\n    data_c3ea15ec7964d97f4fca03ff0a261f494af166a8c1b012c373fddb2447a896d1 4b616c79737761704272696467654d6967726174696f6e526f757465723a204d69677261746f72206e6f74207265676973746572656420666f72207468652070616972\n    data_d3644c735b72355dd1872214f8cef876b6ab448ac1dcde51a78aae8776c79ea0 4b616c79737761704272696467654d6967726174696f6e526f757465723a206c697175696469747950616972546f20616464726573732030\n    data_ddde50f1cae8853e86ca4100759dc699a86a58cbbaac272e74d5c0bdd9991550 4b616c79737761704272696467654d6967726174696f6e526f757465723a206d69677261746f72206e6f742072656769737465726564\n    data_e6c3cbc1b9cc3350f2defb4add44202bf98de183d551d772ba5896f5bb0d10cc 4b616c79737761704272696467654d6967726174696f6e526f757465723a20596f752063616e27742064656d6f746520796f757273656c66\n    data_eb2904bf3c0c9ae693b53eb0188a703c388998a9c405b7965ca678cef9a51d18 5472616e7366657248656c7065723a205452414e534645525f46524f4d5f4641494c4544\n\n    auxdata: 0xa2646970667358221220e376511e4bb29c8d900c4e567b804c838e0fe97cb314621637fe4bcc02cd757a64736f6c63430007060033\n}\n",
				"bytecode": {
					"linkReferences": {},
					"object": "60806040523480156200001157600080fd5b506200002d3360006200003360201b62000b751790919060201c565b62000120565b6200003f8282620000b7565b1562000092576040805162461bcd60e51b815260206004820152601f60248201527f526f6c65733a206163636f756e7420616c72656164792068617320726f6c6500604482015290519081900360640190fd5b6001600160a01b0316600090815260209190915260409020805460ff19166001179055565b60006001600160a01b038216620001005760405162461bcd60e51b8152600401808060200182810382526022815260200180620029c86022913960400191505060405180910390fd5b506001600160a01b03166000908152602091909152604090205460ff1690565b61289880620001306000396000f3fe608060405234801561001057600080fd5b50600436106100a35760003560e01c80637048027511610076578063b032fff71161005b578063b032fff7146101ef578063f057d23714610247578063ffc5059414610283576100a3565b8063704802751461017a57806399a0df82146101a0576100a3565b80631785f53c146100a857806324d7806c146100d0578063495952f51461010a5780634c389d261461014c575b600080fd5b6100ce600480360360208110156100be57600080fd5b50356001600160a01b03166102c5565b005b6100f6600480360360208110156100e657600080fd5b50356001600160a01b0316610361565b604080519115158252519081900360200190f35b6100ce600480360360a081101561012057600080fd5b506001600160a01b03813581169160208101358216916040820135169060608101359060800135610373565b6100ce6004803603604081101561016257600080fd5b506001600160a01b03813581169160200135166103c7565b6100ce6004803603602081101561019057600080fd5b50356001600160a01b03166105a1565b6101d6600480360360608110156101b657600080fd5b506001600160a01b03813581169160208101359091169060400135610637565b6040805192835260208301919091528051918290030190f35b6100ce600480360361010081101561020657600080fd5b506001600160a01b03813581169160208101358216916040820135169060608101359060808101359060ff60a0820135169060c08101359060e00135610987565b6100ce6004803603608081101561025d57600080fd5b506001600160a01b03813581169160208101359091169060408101359060600135610a81565b6102a96004803603602081101561029957600080fd5b50356001600160a01b0316610b5a565b604080516001600160a01b039092168252519081900360200190f35b6102d0600033610bf6565b61030b5760405162461bcd60e51b815260040180806020018281038252602b8152602001806125f8602b913960400191505060405180910390fd5b336001600160a01b03821614156103535760405162461bcd60e51b81526004018080602001828103825260388152602001806128076038913960400191505060405180910390fd5b61035e600082610c5d565b50565b600061036d8183610bf6565b92915050565b80428110156103b35760405162461bcd60e51b81526004018080602001828103825260268152602001806126ec6026913960400191505060405180910390fd5b6103bf86868686610cc4565b505050505050565b6103d2600033610bf6565b61040d5760405162461bcd60e51b815260040180806020018281038252602b8152602001806125f8602b913960400191505060405180910390fd5b6001600160a01b0382166104525760405162461bcd60e51b815260040180806020018281038252603b8152602001806126b1603b913960400191505060405180910390fd5b6001600160a01b0381166104975760405162461bcd60e51b815260040180806020018281038252603e8152602001806123f4603e913960400191505060405180910390fd5b6000816001600160a01b031663ab32dbb7846040518263ffffffff1660e01b815260040180826001600160a01b0316815260200191505060206040518083038186803b1580156104e657600080fd5b505afa1580156104fa573d6000803e3d6000fd5b505050506040513d602081101561051057600080fd5b50519050806105505760405162461bcd60e51b81526004018080602001828103825260348152602001806125c46034913960400191505060405180910390fd5b61055a8383611537565b506001600160a01b03918216600090815260016020526040902080547fffffffffffffffffffffffff00000000000000000000000000000000000000001691909216179055565b6105ac600033610bf6565b6105e75760405162461bcd60e51b815260040180806020018281038252602b8152602001806125f8602b913960400191505060405180910390fd5b6001600160a01b03811661062c5760405162461bcd60e51b81526004018080602001828103825260348152602001806123c06034913960400191505060405180910390fd5b61035e600082610b75565b6000806001600160a01b03851661067f5760405162461bcd60e51b81526004018080602001828103825260488152602001806124776048913960600191505060405180910390fd5b6001600160a01b0384166106c45760405162461bcd60e51b815260040180806020018281038252604681526020018061257e6046913960600191505060405180910390fd5b6000806106d187866115c0565b91509150856001600160a01b0316630dfe16816040518163ffffffff1660e01b815260040160206040518083038186803b15801561070e57600080fd5b505afa158015610722573d6000803e3d6000fd5b505050506040513d602081101561073857600080fd5b505160408051630dfe168160e01b815290516001600160a01b03928316928a1691630dfe1681916004808301926020929190829003018186803b15801561077e57600080fd5b505afa158015610792573d6000803e3d6000fd5b505050506040513d60208110156107a857600080fd5b50516001600160a01b03161480159061089d5750856001600160a01b031663d21220a76040518163ffffffff1660e01b815260040160206040518083038186803b1580156107f557600080fd5b505afa158015610809573d6000803e3d6000fd5b505050506040513d602081101561081f57600080fd5b50516040805163d21220a760e01b815290516001600160a01b03928316928a169163d21220a7916004808301926020929190829003018186803b15801561086557600080fd5b505afa158015610879573d6000803e3d6000fd5b505050506040513d602081101561088f57600080fd5b50516001600160a01b031614155b156108a457905b600080876001600160a01b0316630902f1ac6040518163ffffffff1660e01b815260040160606040518083038186803b1580156108e057600080fd5b505afa1580156108f4573d6000803e3d6000fd5b505050506040513d606081101561090a57600080fd5b5080516020909101519092509050836000610939826dffffffffffffffffffffffffffff808716908616611713565b9050848111156109745784905061097185846dffffffffffffffffffffffffffff16866dffffffffffffffffffffffffffff16611713565b91505b9403999390920397509195505050505050565b83428110156109c75760405162461bcd60e51b81526004018080602001828103825260268152602001806126ec6026913960400191505060405180910390fd5b604080517fd505accf000000000000000000000000000000000000000000000000000000008152336004820152306024820152604481018890526064810187905260ff8616608482015260a4810185905260c4810184905290516001600160a01b038b169163d505accf9160e480830192600092919082900301818387803b158015610a5257600080fd5b505af1158015610a66573d6000803e3d6000fd5b50505050610a7689898989610cc4565b505050505050505050565b8042811015610ac15760405162461bcd60e51b81526004018080602001828103825260268152602001806126ec6026913960400191505060405180910390fd5b6001600160a01b0385811660009081526001602052604090205416610b175760405162461bcd60e51b81526004018080602001828103825260368152602001806127d16036913960400191505060405180910390fd5b610b23853330866117b9565b610b2d858461193b565b6001600160a01b03808616600090815260016020526040902054610b5391168585611aed565b5050505050565b6001602052600090815260409020546001600160a01b031681565b610b7f8282610bf6565b15610bd1576040805162461bcd60e51b815260206004820152601f60248201527f526f6c65733a206163636f756e7420616c72656164792068617320726f6c6500604482015290519081900360640190fd5b6001600160a01b0316600090815260209190915260409020805460ff19166001179055565b60006001600160a01b038216610c3d5760405162461bcd60e51b815260040180806020018281038252602281526020018061268f6022913960400191505060405180910390fd5b506001600160a01b03166000908152602091909152604090205460ff1690565b610c678282610bf6565b610ca25760405162461bcd60e51b81526004018080602001828103825260218152602001806126476021913960400191505060405180910390fd5b6001600160a01b0316600090815260209190915260409020805460ff19169055565b610cce8484611c7d565b6000846001600160a01b0316630dfe16816040518163ffffffff1660e01b815260040160206040518083038186803b158015610d0957600080fd5b505afa158015610d1d573d6000803e3d6000fd5b505050506040513d6020811015610d3357600080fd5b505160408051630dfe168160e01b815290519192506001600160a01b03861691630dfe168191600480820192602092909190829003018186803b158015610d7957600080fd5b505afa158015610d8d573d6000803e3d6000fd5b505050506040513d6020811015610da357600080fd5b505160408051630dfe168160e01b815290516001600160a01b0392831692881691630dfe1681916004808301926020929190829003018186803b158015610de957600080fd5b505afa158015610dfd573d6000803e3d6000fd5b505050506040513d6020811015610e1357600080fd5b50516001600160a01b03161480610f055750836001600160a01b031663d21220a76040518163ffffffff1660e01b815260040160206040518083038186803b158015610e5e57600080fd5b505afa158015610e72573d6000803e3d6000fd5b505050506040513d6020811015610e8857600080fd5b505160408051630dfe168160e01b815290516001600160a01b0392831692881691630dfe1681916004808301926020929190829003018186803b158015610ece57600080fd5b505afa158015610ee2573d6000803e3d6000fd5b505050506040513d6020811015610ef857600080fd5b50516001600160a01b0316145b15610f7257846001600160a01b031663d21220a76040518163ffffffff1660e01b815260040160206040518083038186803b158015610f4357600080fd5b505afa158015610f57573d6000803e3d6000fd5b505050506040513d6020811015610f6d57600080fd5b505190505b6001600160a01b038082166000908152600160205260409020541680610fc95760405162461bcd60e51b81526004018080602001828103825260438152602001806127566043913960600191505060405180910390fd5b846001600160a01b0316630dfe16816040518163ffffffff1660e01b815260040160206040518083038186803b15801561100257600080fd5b505afa158015611016573d6000803e3d6000fd5b505050506040513d602081101561102c57600080fd5b50516001600160a01b03828116911614806110b65750846001600160a01b031663d21220a76040518163ffffffff1660e01b815260040160206040518083038186803b15801561107b57600080fd5b505afa15801561108f573d6000803e3d6000fd5b505050506040513d60208110156110a557600080fd5b50516001600160a01b038281169116145b6110f15760405162461bcd60e51b81526004018080602001828103825260458152602001806124326045913960600191505060405180910390fd5b6000806110fe8886612124565b915091506000829050886001600160a01b0316630dfe16816040518163ffffffff1660e01b815260040160206040518083038186803b15801561114057600080fd5b505afa158015611154573d6000803e3d6000fd5b505050506040513d602081101561116a57600080fd5b50516001600160a01b038681169116146111815750805b61118b858261193b565b50866001600160a01b0316630dfe16816040518163ffffffff1660e01b815260040160206040518083038186803b1580156111c557600080fd5b505afa1580156111d9573d6000803e3d6000fd5b505050506040513d60208110156111ef57600080fd5b505160408051630dfe168160e01b815290516001600160a01b03928316928b1691630dfe1681916004808301926020929190829003018186803b15801561123557600080fd5b505afa158015611249573d6000803e3d6000fd5b505050506040513d602081101561125f57600080fd5b50516001600160a01b0316148015906113545750866001600160a01b031663d21220a76040518163ffffffff1660e01b815260040160206040518083038186803b1580156112ac57600080fd5b505afa1580156112c0573d6000803e3d6000fd5b505050506040513d60208110156112d657600080fd5b50516040805163d21220a760e01b815290516001600160a01b03928316928b169163d21220a7916004808301926020929190829003018186803b15801561131c57600080fd5b505afa158015611330573d6000803e3d6000fd5b505050506040513d602081101561134657600080fd5b50516001600160a01b031614155b1561135b57905b60008061143b898a6001600160a01b0316630dfe16816040518163ffffffff1660e01b815260040160206040518083038186803b15801561139b57600080fd5b505afa1580156113af573d6000803e3d6000fd5b505050506040513d60208110156113c557600080fd5b50516040805163d21220a760e01b815290516001600160a01b038e169163d21220a7916004808301926020929190829003018186803b15801561140757600080fd5b505afa15801561141b573d6000803e3d6000fd5b505050506040513d602081101561143157600080fd5b505187878d6121ce565b50909250905081156114b6576114b6896001600160a01b0316630dfe16816040518163ffffffff1660e01b815260040160206040518083038186803b15801561148357600080fd5b505afa158015611497573d6000803e3d6000fd5b505050506040513d60208110156114ad57600080fd5b50518984611aed565b801561152b5761152b896001600160a01b031663d21220a76040518163ffffffff1660e01b815260040160206040518083038186803b1580156114f857600080fd5b505afa15801561150c573d6000803e3d6000fd5b505050506040513d602081101561152257600080fd5b50518983611aed565b50505050505050505050565b816001600160a01b031663095ea7b3826000196040518363ffffffff1660e01b815260040180836001600160a01b0316815260200182815260200192505050602060405180830381600087803b15801561159057600080fd5b505af11580156115a4573d6000803e3d6000fd5b505050506040513d60208110156115ba57600080fd5b50505050565b600080600080856001600160a01b0316630902f1ac6040518163ffffffff1660e01b815260040160606040518083038186803b1580156115ff57600080fd5b505afa158015611613573d6000803e3d6000fd5b505050506040513d606081101561162957600080fd5b508051602091820151604080517f18160ddd00000000000000000000000000000000000000000000000000000000815290519295509093506000926001600160a01b038a16926318160ddd926004808201939291829003018186803b15801561169157600080fd5b505afa1580156116a5573d6000803e3d6000fd5b505050506040513d60208110156116bb57600080fd5b50519050806116da876dffffffffffffffffffffffffffff8616612353565b816116e157fe5b049450806116ff876dffffffffffffffffffffffffffff8516612353565b8161170657fe5b0493505050509250929050565b60008084116117535760405162461bcd60e51b81526004018080602001828103825260248152602001806126236024913960400191505060405180910390fd5b6000831180156117635750600082115b61179e5760405162461bcd60e51b81526004018080602001828103825260278152602001806126686027913960400191505060405180910390fd5b826117a98584612353565b816117b057fe5b04949350505050565b604080516001600160a01b0385811660248301528481166044830152606480830185905283518084039091018152608490920183526020820180517bffffffffffffffffffffffffffffffffffffffffffffffffffffffff167f23b872dd00000000000000000000000000000000000000000000000000000000178152925182516000948594938a169392918291908083835b6020831061186b5780518252601f19909201916020918201910161184c565b6001836020036101000a0380198251168184511680821785525050505050509050019150506000604051808303816000865af19150503d80600081146118cd576040519150601f19603f3d011682016040523d82523d6000602084013e6118d2565b606091505b509150915081801561190057508051158061190057508080602001905160208110156118fd57600080fd5b50515b6103bf5760405162461bcd60e51b815260040180806020018281038252602481526020018061283f6024913960400191505060405180910390fd5b6001600160a01b0382166119805760405162461bcd60e51b815260040180806020018281038252603b8152602001806126b1603b913960400191505060405180910390fd5b6001600160a01b038083166000818152600160205260408082205481517fd004f0f7000000000000000000000000000000000000000000000000000000008152600481019490945260248401869052905193169263d004f0f792604480820193929182900301818387803b1580156119f757600080fd5b505af1158015611a0b573d6000803e3d6000fd5b5050506001600160a01b038084166000908152600160209081526040918290205482517f70a0823100000000000000000000000000000000000000000000000000000000815230600482015292518695509316926370a08231926024808201939291829003018186803b158015611a8157600080fd5b505afa158015611a95573d6000803e3d6000fd5b505050506040513d6020811015611aab57600080fd5b505114611ae95760405162461bcd60e51b815260040180806020018281038252603e8152602001806124bf603e913960400191505060405180910390fd5b5050565b604080516001600160a01b038481166024830152604480830185905283518084039091018152606490920183526020820180517bffffffffffffffffffffffffffffffffffffffffffffffffffffffff167fa9059cbb000000000000000000000000000000000000000000000000000000001781529251825160009485949389169392918291908083835b60208310611b975780518252601f199092019160209182019101611b78565b6001836020036101000a0380198251168184511680821785525050505050509050019150506000604051808303816000865af19150503d8060008114611bf9576040519150601f19603f3d011682016040523d82523d6000602084013e611bfe565b606091505b5091509150818015611c2c575080511580611c2c5750808060200190516020811015611c2957600080fd5b50515b610b53576040805162461bcd60e51b815260206004820152601f60248201527f5472616e7366657248656c7065723a205452414e534645525f4641494c454400604482015290519081900360640190fd5b6001600160a01b038216611cc25760405162461bcd60e51b815260040180806020018281038252603a815260200180612544603a913960400191505060405180910390fd5b6001600160a01b038216611d075760405162461bcd60e51b81526004018080602001828103825260388152602001806127996038913960400191505060405180910390fd5b806001600160a01b0316826001600160a01b03161415611d585760405162461bcd60e51b81526004018080602001828103825260478152602001806124fd6047913960600191505060405180910390fd5b806001600160a01b0316630dfe16816040518163ffffffff1660e01b815260040160206040518083038186803b158015611d9157600080fd5b505afa158015611da5573d6000803e3d6000fd5b505050506040513d6020811015611dbb57600080fd5b505160408051630dfe168160e01b815290516001600160a01b0392831692851691630dfe1681916004808301926020929190829003018186803b158015611e0157600080fd5b505afa158015611e15573d6000803e3d6000fd5b505050506040513d6020811015611e2b57600080fd5b50516001600160a01b03161480611f1d5750806001600160a01b031663d21220a76040518163ffffffff1660e01b815260040160206040518083038186803b158015611e7657600080fd5b505afa158015611e8a573d6000803e3d6000fd5b505050506040513d6020811015611ea057600080fd5b505160408051630dfe168160e01b815290516001600160a01b0392831692851691630dfe1681916004808301926020929190829003018186803b158015611ee657600080fd5b505afa158015611efa573d6000803e3d6000fd5b505050506040513d6020811015611f1057600080fd5b50516001600160a01b0316145b806120035750806001600160a01b0316630dfe16816040518163ffffffff1660e01b815260040160206040518083038186803b158015611f5c57600080fd5b505afa158015611f70573d6000803e3d6000fd5b505050506040513d6020811015611f8657600080fd5b50516040805163d21220a760e01b815290516001600160a01b039283169285169163d21220a7916004808301926020929190829003018186803b158015611fcc57600080fd5b505afa158015611fe0573d6000803e3d6000fd5b505050506040513d6020811015611ff657600080fd5b50516001600160a01b0316145b806120e95750806001600160a01b031663d21220a76040518163ffffffff1660e01b815260040160206040518083038186803b15801561204257600080fd5b505afa158015612056573d6000803e3d6000fd5b505050506040513d602081101561206c57600080fd5b50516040805163d21220a760e01b815290516001600160a01b039283169285169163d21220a7916004808301926020929190829003018186803b1580156120b257600080fd5b505afa1580156120c6573d6000803e3d6000fd5b505050506040513d60208110156120dc57600080fd5b50516001600160a01b0316145b611ae95760405162461bcd60e51b81526004018080602001828103825260448152602001806127126044913960600191505060405180910390fd5b600080612133843386866117b9565b604080517f89afcb4400000000000000000000000000000000000000000000000000000000815230600482015281516001600160a01b038716926389afcb4492602480820193918290030181600087803b15801561219057600080fd5b505af11580156121a4573d6000803e3d6000fd5b505050506040513d60408110156121ba57600080fd5b508051602090910151909590945092505050565b60008060008060008a6001600160a01b0316630902f1ac6040518163ffffffff1660e01b815260040160606040518083038186803b15801561220f57600080fd5b505afa158015612223573d6000803e3d6000fd5b505050506040513d606081101561223957600080fd5b5080516020909101519092509050876000612268826dffffffffffffffffffffffffffff808716908616611713565b9050888111156122a3578890506122a089846dffffffffffffffffffffffffffff16866dffffffffffffffffffffffffffff16611713565b91505b6122ae8c8e84611aed565b6122b98b8e83611aed565b818a03965080890395508c6001600160a01b0316636a627842896040518263ffffffff1660e01b815260040180826001600160a01b03168152602001915050602060405180830381600087803b15801561231257600080fd5b505af1158015612326573d6000803e3d6000fd5b505050506040513d602081101561233c57600080fd5b5051969d959c50959a509398505050505050505050565b600081158061236e5750508082028282828161236b57fe5b04145b61036d576040805162461bcd60e51b815260206004820152601460248201527f64732d6d6174682d6d756c2d6f766572666c6f77000000000000000000000000604482015290519081900360640190fdfe4b616c79737761704272696467654d6967726174696f6e526f757465723a20416464726573732030206e6f7420616c6c6f7765644b616c79737761704272696467654d6967726174696f6e526f757465723a206d69677261746f72416464726573732030206e6f7420737570706f727465644b616c79737761704272696467654d6967726174696f6e526f757465723a205061697220646f65736e2774206d6174636820746865206d6967726174696f6e20746f6b656e4b616c79737761704272696467654d6967726174696f6e526f757465723a206c69717569646974795061697246726f6d20616464726573732030206e6f7420737570706f727465644b616c79737761704272696467654d6967726174696f6e526f757465723a204469646e2774207969656c642074686520636f727265637420616d6f756e744b616c79737761704272696467654d6967726174696f6e526f757465723a2043616e7420636f6e7665727420746f207468652073616d65206c69717569646974792070616972734b616c79737761704272696467654d6967726174696f6e526f757465723a206c69717569646974795061697246726f6d206164647265737320304b616c79737761704272696467654d6967726174696f6e526f757465723a206c697175696469747950616972546f20616464726573732030206e6f7420737570706f72746564546865206d69677261746f7220646f65736e27742068617665207377617020737570706c7920666f72207468697320746f6b656e4b616c79737761704272696467654d6967726174696f6e526f757465723a20556e617574686f72697a65644b616c79737761704c6962726172793a20494e53554646494349454e545f414d4f554e54526f6c65733a206163636f756e7420646f6573206e6f74206861766520726f6c654b616c79737761704c6962726172793a20494e53554646494349454e545f4c4951554944495459526f6c65733a206163636f756e7420697320746865207a65726f20616464726573734b616c79737761704272696467654d6967726174696f6e526f757465723a20746f6b656e416464726573732030206e6f7420737570706f727465644b616c79737761704272696467654d6967726174696f6e526f757465723a20455850495245444b616c79737761704272696467654d6967726174696f6e526f757465723a205061697220646f6573206e6f742068617665206f6e6520746f6b656e206d61746368696e674b616c79737761704272696467654d6967726174696f6e526f757465723a204d69677261746f72206e6f74207265676973746572656420666f722074686520706169724b616c79737761704272696467654d6967726174696f6e526f757465723a206c697175696469747950616972546f206164647265737320304b616c79737761704272696467654d6967726174696f6e526f757465723a206d69677261746f72206e6f7420726567697374657265644b616c79737761704272696467654d6967726174696f6e526f757465723a20596f752063616e27742064656d6f746520796f757273656c665472616e7366657248656c7065723a205452414e534645525f46524f4d5f4641494c4544a2646970667358221220e376511e4bb29c8d900c4e567b804c838e0fe97cb314621637fe4bcc02cd757a64736f6c63430007060033526f6c65733a206163636f756e7420697320746865207a65726f2061646472657373",
					"opcodes": "PUSH1 0x80 PUSH1 0x40 MSTORE CALLVALUE DUP1 ISZERO PUSH3 0x11 JUMPI PUSH1 0x0 DUP1 REVERT JUMPDEST POP PUSH3 0x2D CALLER PUSH1 0x0 PUSH3 0x33 PUSH1 0x20 SHL PUSH3 0xB75 OR SWAP1 SWAP2 SWAP1 PUSH1 0x20 SHR JUMP JUMPDEST PUSH3 0x120 JUMP JUMPDEST PUSH3 0x3F DUP3 DUP3 PUSH3 0xB7 JUMP JUMPDEST ISZERO PUSH3 0x92 JUMPI PUSH1 0x40 DUP1 MLOAD PUSH3 0x461BCD PUSH1 0xE5 SHL DUP2 MSTORE PUSH1 0x20 PUSH1 0x4 DUP3 ADD MSTORE PUSH1 0x1F PUSH1 0x24 DUP3 ADD MSTORE PUSH32 0x526F6C65733A206163636F756E7420616C72656164792068617320726F6C6500 PUSH1 0x44 DUP3 ADD MSTORE SWAP1 MLOAD SWAP1 DUP2 SWAP1 SUB PUSH1 0x64 ADD SWAP1 REVERT JUMPDEST PUSH1 0x1 PUSH1 0x1 PUSH1 0xA0 SHL SUB AND PUSH1 0x0 SWAP1 DUP2 MSTORE PUSH1 0x20 SWAP2 SWAP1 SWAP2 MSTORE PUSH1 0x40 SWAP1 KECCAK256 DUP1 SLOAD PUSH1 0xFF NOT AND PUSH1 0x1 OR SWAP1 SSTORE JUMP JUMPDEST PUSH1 0x0 PUSH1 0x1 PUSH1 0x1 PUSH1 0xA0 SHL SUB DUP3 AND PUSH3 0x100 JUMPI PUSH1 0x40 MLOAD PUSH3 0x461BCD PUSH1 0xE5 SHL DUP2 MSTORE PUSH1 0x4 ADD DUP1 DUP1 PUSH1 0x20 ADD DUP3 DUP2 SUB DUP3 MSTORE PUSH1 0x22 DUP2 MSTORE PUSH1 0x20 ADD DUP1 PUSH3 0x29C8 PUSH1 0x22 SWAP2 CODECOPY PUSH1 0x40 ADD SWAP2 POP POP PUSH1 0x40 MLOAD DUP1 SWAP2 SUB SWAP1 REVERT JUMPDEST POP PUSH1 0x1 PUSH1 0x1 PUSH1 0xA0 SHL SUB AND PUSH1 0x0 SWAP1 DUP2 MSTORE PUSH1 0x20 SWAP2 SWAP1 SWAP2 MSTORE PUSH1 0x40 SWAP1 KECCAK256 SLOAD PUSH1 0xFF AND SWAP1 JUMP JUMPDEST PUSH2 0x2898 DUP1 PUSH3 0x130 PUSH1 0x0 CODECOPY PUSH1 0x0 RETURN INVALID PUSH1 0x80 PUSH1 0x40 MSTORE CALLVALUE DUP1 ISZERO PUSH2 0x10 JUMPI PUSH1 0x0 DUP1 REVERT JUMPDEST POP PUSH1 0x4 CALLDATASIZE LT PUSH2 0xA3 JUMPI PUSH1 0x0 CALLDATALOAD PUSH1 0xE0 SHR DUP1 PUSH4 0x70480275 GT PUSH2 0x76 JUMPI DUP1 PUSH4 0xB032FFF7 GT PUSH2 0x5B JUMPI DUP1 PUSH4 0xB032FFF7 EQ PUSH2 0x1EF JUMPI DUP1 PUSH4 0xF057D237 EQ PUSH2 0x247 JUMPI DUP1 PUSH4 0xFFC50594 EQ PUSH2 0x283 JUMPI PUSH2 0xA3 JUMP JUMPDEST DUP1 PUSH4 0x70480275 EQ PUSH2 0x17A JUMPI DUP1 PUSH4 0x99A0DF82 EQ PUSH2 0x1A0 JUMPI PUSH2 0xA3 JUMP JUMPDEST DUP1 PUSH4 0x1785F53C EQ PUSH2 0xA8 JUMPI DUP1 PUSH4 0x24D7806C EQ PUSH2 0xD0 JUMPI DUP1 PUSH4 0x495952F5 EQ PUSH2 0x10A JUMPI DUP1 PUSH4 0x4C389D26 EQ PUSH2 0x14C JUMPI JUMPDEST PUSH1 0x0 DUP1 REVERT JUMPDEST PUSH2 0xCE PUSH1 0x4 DUP1 CALLDATASIZE SUB PUSH1 0x20 DUP2 LT ISZERO PUSH2 0xBE JUMPI PUSH1 0x0 DUP1 REVERT JUMPDEST POP CALLDATALOAD PUSH1 0x1 PUSH1 0x1 PUSH1 0xA0 SHL SUB AND PUSH2 0x2C5 JUMP JUMPDEST STOP JUMPDEST PUSH2 0xF6 PUSH1 0x4 DUP1 CALLDATASIZE SUB PUSH1 0x20 DUP2 LT ISZERO PUSH2 0xE6 JUMPI PUSH1 0x0 DUP1 REVERT JUMPDEST POP CALLDATALOAD PUSH1 0x1 PUSH1 0x1 PUSH1 0xA0 SHL SUB AND PUSH2 0x361 JUMP JUMPDEST PUSH1 0x40 DUP1 MLOAD SWAP2 ISZERO ISZERO DUP3 MSTORE MLOAD SWAP1 DUP2 SWAP1 SUB PUSH1 0x20 ADD SWAP1 RETURN JUMPDEST PUSH2 0xCE PUSH1 0x4 DUP1 CALLDATASIZE SUB PUSH1 0xA0 DUP2 LT ISZERO PUSH2 0x120 JUMPI PUSH1 0x0 DUP1 REVERT JUMPDEST POP PUSH1 0x1 PUSH1 0x1 PUSH1 0xA0 SHL SUB DUP2 CALLDATALOAD DUP2 AND SWAP2 PUSH1 0x20 DUP2 ADD CALLDATALOAD DUP3 AND SWAP2 PUSH1 0x40 DUP3 ADD CALLDATALOAD AND SWAP1 PUSH1 0x60 DUP2 ADD CALLDATALOAD SWAP1 PUSH1 0x80 ADD CALLDATALOAD PUSH2 0x373 JUMP JUMPDEST PUSH2 0xCE PUSH1 0x4 DUP1 CALLDATASIZE SUB PUSH1 0x40 DUP2 LT ISZERO PUSH2 0x162 JUMPI PUSH1 0x0 DUP1 REVERT JUMPDEST POP PUSH1 0x1 PUSH1 0x1 PUSH1 0xA0 SHL SUB DUP2 CALLDATALOAD DUP2 AND SWAP2 PUSH1 0x20 ADD CALLDATALOAD AND PUSH2 0x3C7 JUMP JUMPDEST PUSH2 0xCE PUSH1 0x4 DUP1 CALLDATASIZE SUB PUSH1 0x20 DUP2 LT ISZERO PUSH2 0x190 JUMPI PUSH1 0x0 DUP1 REVERT JUMPDEST POP CALLDATALOAD PUSH1 0x1 PUSH1 0x1 PUSH1 0xA0 SHL SUB AND PUSH2 0x5A1 JUMP JUMPDEST PUSH2 0x1D6 PUSH1 0x4 DUP1 CALLDATASIZE SUB PUSH1 0x60 DUP2 LT ISZERO PUSH2 0x1B6 JUMPI PUSH1 0x0 DUP1 REVERT JUMPDEST POP PUSH1 0x1 PUSH1 0x1 PUSH1 0xA0 SHL SUB DUP2 CALLDATALOAD DUP2 AND SWAP2 PUSH1 0x20 DUP2 ADD CALLDATALOAD SWAP1 SWAP2 AND SWAP1 PUSH1 0x40 ADD CALLDATALOAD PUSH2 0x637 JUMP JUMPDEST PUSH1 0x40 DUP1 MLOAD SWAP3 DUP4 MSTORE PUSH1 0x20 DUP4 ADD SWAP2 SWAP1 SWAP2 MSTORE DUP1 MLOAD SWAP2 DUP3 SWAP1 SUB ADD SWAP1 RETURN JUMPDEST PUSH2 0xCE PUSH1 0x4 DUP1 CALLDATASIZE SUB PUSH2 0x100 DUP2 LT ISZERO PUSH2 0x206 JUMPI PUSH1 0x0 DUP1 REVERT JUMPDEST POP PUSH1 0x1 PUSH1 0x1 PUSH1 0xA0 SHL SUB DUP2 CALLDATALOAD DUP2 AND SWAP2 PUSH1 0x20 DUP2 ADD CALLDATALOAD DUP3 AND SWAP2 PUSH1 0x40 DUP3 ADD CALLDATALOAD AND SWAP1 PUSH1 0x60 DUP2 ADD CALLDATALOAD SWAP1 PUSH1 0x80 DUP2 ADD CALLDATALOAD SWAP1 PUSH1 0xFF PUSH1 0xA0 DUP3 ADD CALLDATALOAD AND SWAP1 PUSH1 0xC0 DUP2 ADD CALLDATALOAD SWAP1 PUSH1 0xE0 ADD CALLDATALOAD PUSH2 0x987 JUMP JUMPDEST PUSH2 0xCE PUSH1 0x4 DUP1 CALLDATASIZE SUB PUSH1 0x80 DUP2 LT ISZERO PUSH2 0x25D JUMPI PUSH1 0x0 DUP1 REVERT JUMPDEST POP PUSH1 0x1 PUSH1 0x1 PUSH1 0xA0 SHL SUB DUP2 CALLDATALOAD DUP2 AND SWAP2 PUSH1 0x20 DUP2 ADD CALLDATALOAD SWAP1 SWAP2 AND SWAP1 PUSH1 0x40 DUP2 ADD CALLDATALOAD SWAP1 PUSH1 0x60 ADD CALLDATALOAD PUSH2 0xA81 JUMP JUMPDEST PUSH2 0x2A9 PUSH1 0x4 DUP1 CALLDATASIZE SUB PUSH1 0x20 DUP2 LT ISZERO PUSH2 0x299 JUMPI PUSH1 0x0 DUP1 REVERT JUMPDEST POP CALLDATALOAD PUSH1 0x1 PUSH1 0x1 PUSH1 0xA0 SHL SUB AND PUSH2 0xB5A JUMP JUMPDEST PUSH1 0x40 DUP1 MLOAD PUSH1 0x1 PUSH1 0x1 PUSH1 0xA0 SHL SUB SWAP1 SWAP3 AND DUP3 MSTORE MLOAD SWAP1 DUP2 SWAP1 SUB PUSH1 0x20 ADD SWAP1 RETURN JUMPDEST PUSH2 0x2D0 PUSH1 0x0 CALLER PUSH2 0xBF6 JUMP JUMPDEST PUSH2 0x30B JUMPI PUSH1 0x40 MLOAD PUSH3 0x461BCD PUSH1 0xE5 SHL DUP2 MSTORE PUSH1 0x4 ADD DUP1 DUP1 PUSH1 0x20 ADD DUP3 DUP2 SUB DUP3 MSTORE PUSH1 0x2B DUP2 MSTORE PUSH1 0x20 ADD DUP1 PUSH2 0x25F8 PUSH1 0x2B SWAP2 CODECOPY PUSH1 0x40 ADD SWAP2 POP POP PUSH1 0x40 MLOAD DUP1 SWAP2 SUB SWAP1 REVERT JUMPDEST CALLER PUSH1 0x1 PUSH1 0x1 PUSH1 0xA0 SHL SUB DUP3 AND EQ ISZERO PUSH2 0x353 JUMPI PUSH1 0x40 MLOAD PUSH3 0x461BCD PUSH1 0xE5 SHL DUP2 MSTORE PUSH1 0x4 ADD DUP1 DUP1 PUSH1 0x20 ADD DUP3 DUP2 SUB DUP3 MSTORE PUSH1 0x38 DUP2 MSTORE PUSH1 0x20 ADD DUP1 PUSH2 0x2807 PUSH1 0x38 SWAP2 CODECOPY PUSH1 0x40 ADD SWAP2 POP POP PUSH1 0x40 MLOAD DUP1 SWAP2 SUB SWAP1 REVERT JUMPDEST PUSH2 0x35E PUSH1 0x0 DUP3 PUSH2 0xC5D JUMP JUMPDEST POP JUMP JUMPDEST PUSH1 0x0 PUSH2 0x36D DUP2 DUP4 PUSH2 0xBF6 JUMP JUMPDEST SWAP3 SWAP2 POP POP JUMP JUMPDEST DUP1 TIMESTAMP DUP2 LT ISZERO PUSH2 0x3B3 JUMPI PUSH1 0x40 MLOAD PUSH3 0x461BCD PUSH1 0xE5 SHL DUP2 MSTORE PUSH1 0x4 ADD DUP1 DUP1 PUSH1 0x20 ADD DUP3 DUP2 SUB DUP3 MSTORE PUSH1 0x26 DUP2 MSTORE PUSH1 0x20 ADD DUP1 PUSH2 0x26EC PUSH1 0x26 SWAP2 CODECOPY PUSH1 0x40 ADD SWAP2 POP POP PUSH1 0x40 MLOAD DUP1 SWAP2 SUB SWAP1 REVERT JUMPDEST PUSH2 0x3BF DUP7 DUP7 DUP7 DUP7 PUSH2 0xCC4 JUMP JUMPDEST POP POP POP POP POP POP JUMP JUMPDEST PUSH2 0x3D2 PUSH1 0x0 CALLER PUSH2 0xBF6 JUMP JUMPDEST PUSH2 0x40D JUMPI PUSH1 0x40 MLOAD PUSH3 0x461BCD PUSH1 0xE5 SHL DUP2 MSTORE PUSH1 0x4 ADD DUP1 DUP1 PUSH1 0x20 ADD DUP3 DUP2 SUB DUP3 MSTORE PUSH1 0x2B DUP2 MSTORE PUSH1 0x20 ADD DUP1 PUSH2 0x25F8 PUSH1 0x2B SWAP2 CODECOPY PUSH1 0x40 ADD SWAP2 POP POP PUSH1 0x40 MLOAD DUP1 SWAP2 SUB SWAP1 REVERT JUMPDEST PUSH1 0x1 PUSH1 0x1 PUSH1 0xA0 SHL SUB DUP3 AND PUSH2 0x452 JUMPI PUSH1 0x40 MLOAD PUSH3 0x461BCD PUSH1 0xE5 SHL DUP2 MSTORE PUSH1 0x4 ADD DUP1 DUP1 PUSH1 0x20 ADD DUP3 DUP2 SUB DUP3 MSTORE PUSH1 0x3B DUP2 MSTORE PUSH1 0x20 ADD DUP1 PUSH2 0x26B1 PUSH1 0x3B SWAP2 CODECOPY PUSH1 0x40 ADD SWAP2 POP POP PUSH1 0x40 MLOAD DUP1 SWAP2 SUB SWAP1 REVERT JUMPDEST PUSH1 0x1 PUSH1 0x1 PUSH1 0xA0 SHL SUB DUP2 AND PUSH2 0x497 JUMPI PUSH1 0x40 MLOAD PUSH3 0x461BCD PUSH1 0xE5 SHL DUP2 MSTORE PUSH1 0x4 ADD DUP1 DUP1 PUSH1 0x20 ADD DUP3 DUP2 SUB DUP3 MSTORE PUSH1 0x3E DUP2 MSTORE PUSH1 0x20 ADD DUP1 PUSH2 0x23F4 PUSH1 0x3E SWAP2 CODECOPY PUSH1 0x40 ADD SWAP2 POP POP PUSH1 0x40 MLOAD DUP1 SWAP2 SUB SWAP1 REVERT JUMPDEST PUSH1 0x0 DUP2 PUSH1 0x1 PUSH1 0x1 PUSH1 0xA0 SHL SUB AND PUSH4 0xAB32DBB7 DUP5 PUSH1 0x40 MLOAD DUP3 PUSH4 0xFFFFFFFF AND PUSH1 0xE0 SHL DUP2 MSTORE PUSH1 0x4 ADD DUP1 DUP3 PUSH1 0x1 PUSH1 0x1 PUSH1 0xA0 SHL SUB AND DUP2 MSTORE PUSH1 0x20 ADD SWAP2 POP POP PUSH1 0x20 PUSH1 0x40 MLOAD DUP1 DUP4 SUB DUP2 DUP7 DUP1 EXTCODESIZE ISZERO DUP1 ISZERO PUSH2 0x4E6 JUMPI PUSH1 0x0 DUP1 REVERT JUMPDEST POP GAS STATICCALL ISZERO DUP1 ISZERO PUSH2 0x4FA JUMPI RETURNDATASIZE PUSH1 0x0 DUP1 RETURNDATACOPY RETURNDATASIZE PUSH1 0x0 REVERT JUMPDEST POP POP POP POP PUSH1 0x40 MLOAD RETURNDATASIZE PUSH1 0x20 DUP2 LT ISZERO PUSH2 0x510 JUMPI PUSH1 0x0 DUP1 REVERT JUMPDEST POP MLOAD SWAP1 POP DUP1 PUSH2 0x550 JUMPI PUSH1 0x40 MLOAD PUSH3 0x461BCD PUSH1 0xE5 SHL DUP2 MSTORE PUSH1 0x4 ADD DUP1 DUP1 PUSH1 0x20 ADD DUP3 DUP2 SUB DUP3 MSTORE PUSH1 0x34 DUP2 MSTORE PUSH1 0x20 ADD DUP1 PUSH2 0x25C4 PUSH1 0x34 SWAP2 CODECOPY PUSH1 0x40 ADD SWAP2 POP POP PUSH1 0x40 MLOAD DUP1 SWAP2 SUB SWAP1 REVERT JUMPDEST PUSH2 0x55A DUP4 DUP4 PUSH2 0x1537 JUMP JUMPDEST POP PUSH1 0x1 PUSH1 0x1 PUSH1 0xA0 SHL SUB SWAP2 DUP3 AND PUSH1 0x0 SWAP1 DUP2 MSTORE PUSH1 0x1 PUSH1 0x20 MSTORE PUSH1 0x40 SWAP1 KECCAK256 DUP1 SLOAD PUSH32 0xFFFFFFFFFFFFFFFFFFFFFFFF0000000000000000000000000000000000000000 AND SWAP2 SWAP1 SWAP3 AND OR SWAP1 SSTORE JUMP JUMPDEST PUSH2 0x5AC PUSH1 0x0 CALLER PUSH2 0xBF6 JUMP JUMPDEST PUSH2 0x5E7 JUMPI PUSH1 0x40 MLOAD PUSH3 0x461BCD PUSH1 0xE5 SHL DUP2 MSTORE PUSH1 0x4 ADD DUP1 DUP1 PUSH1 0x20 ADD DUP3 DUP2 SUB DUP3 MSTORE PUSH1 0x2B DUP2 MSTORE PUSH1 0x20 ADD DUP1 PUSH2 0x25F8 PUSH1 0x2B SWAP2 CODECOPY PUSH1 0x40 ADD SWAP2 POP POP PUSH1 0x40 MLOAD DUP1 SWAP2 SUB SWAP1 REVERT JUMPDEST PUSH1 0x1 PUSH1 0x1 PUSH1 0xA0 SHL SUB DUP2 AND PUSH2 0x62C JUMPI PUSH1 0x40 MLOAD PUSH3 0x461BCD PUSH1 0xE5 SHL DUP2 MSTORE PUSH1 0x4 ADD DUP1 DUP1 PUSH1 0x20 ADD DUP3 DUP2 SUB DUP3 MSTORE PUSH1 0x34 DUP2 MSTORE PUSH1 0x20 ADD DUP1 PUSH2 0x23C0 PUSH1 0x34 SWAP2 CODECOPY PUSH1 0x40 ADD SWAP2 POP POP PUSH1 0x40 MLOAD DUP1 SWAP2 SUB SWAP1 REVERT JUMPDEST PUSH2 0x35E PUSH1 0x0 DUP3 PUSH2 0xB75 JUMP JUMPDEST PUSH1 0x0 DUP1 PUSH1 0x1 PUSH1 0x1 PUSH1 0xA0 SHL SUB DUP6 AND PUSH2 0x67F JUMPI PUSH1 0x40 MLOAD PUSH3 0x461BCD PUSH1 0xE5 SHL DUP2 MSTORE PUSH1 0x4 ADD DUP1 DUP1 PUSH1 0x20 ADD DUP3 DUP2 SUB DUP3 MSTORE PUSH1 0x48 DUP2 MSTORE PUSH1 0x20 ADD DUP1 PUSH2 0x2477 PUSH1 0x48 SWAP2 CODECOPY PUSH1 0x60 ADD SWAP2 POP POP PUSH1 0x40 MLOAD DUP1 SWAP2 SUB SWAP1 REVERT JUMPDEST PUSH1 0x1 PUSH1 0x1 PUSH1 0xA0 SHL SUB DUP5 AND PUSH2 0x6C4 JUMPI PUSH1 0x40 MLOAD PUSH3 0x461BCD PUSH1 0xE5 SHL DUP2 MSTORE PUSH1 0x4 ADD DUP1 DUP1 PUSH1 0x20 ADD DUP3 DUP2 SUB DUP3 MSTORE PUSH1 0x46 DUP2 MSTORE PUSH1 0x20 ADD DUP1 PUSH2 0x257E PUSH1 0x46 SWAP2 CODECOPY PUSH1 0x60 ADD SWAP2 POP POP PUSH1 0x40 MLOAD DUP1 SWAP2 SUB SWAP1 REVERT JUMPDEST PUSH1 0x0 DUP1 PUSH2 0x6D1 DUP8 DUP7 PUSH2 0x15C0 JUMP JUMPDEST SWAP2 POP SWAP2 POP DUP6 PUSH1 0x1 PUSH1 0x1 PUSH1 0xA0 SHL SUB AND PUSH4 0xDFE1681 PUSH1 0x40 MLOAD DUP2 PUSH4 0xFFFFFFFF AND PUSH1 0xE0 SHL DUP2 MSTORE PUSH1 0x4 ADD PUSH1 0x20 PUSH1 0x40 MLOAD DUP1 DUP4 SUB DUP2 DUP7 DUP1 EXTCODESIZE ISZERO DUP1 ISZERO PUSH2 0x70E JUMPI PUSH1 0x0 DUP1 REVERT JUMPDEST POP GAS STATICCALL ISZERO DUP1 ISZERO PUSH2 0x722 JUMPI RETURNDATASIZE PUSH1 0x0 DUP1 RETURNDATACOPY RETURNDATASIZE PUSH1 0x0 REVERT JUMPDEST POP POP POP POP PUSH1 0x40 MLOAD RETURNDATASIZE PUSH1 0x20 DUP2 LT ISZERO PUSH2 0x738 JUMPI PUSH1 0x0 DUP1 REVERT JUMPDEST POP MLOAD PUSH1 0x40 DUP1 MLOAD PUSH4 0xDFE1681 PUSH1 0xE0 SHL DUP2 MSTORE SWAP1 MLOAD PUSH1 0x1 PUSH1 0x1 PUSH1 0xA0 SHL SUB SWAP3 DUP4 AND SWAP3 DUP11 AND SWAP2 PUSH4 0xDFE1681 SWAP2 PUSH1 0x4 DUP1 DUP4 ADD SWAP3 PUSH1 0x20 SWAP3 SWAP2 SWAP1 DUP3 SWAP1 SUB ADD DUP2 DUP7 DUP1 EXTCODESIZE ISZERO DUP1 ISZERO PUSH2 0x77E JUMPI PUSH1 0x0 DUP1 REVERT JUMPDEST POP GAS STATICCALL ISZERO DUP1 ISZERO PUSH2 0x792 JUMPI RETURNDATASIZE PUSH1 0x0 DUP1 RETURNDATACOPY RETURNDATASIZE PUSH1 0x0 REVERT JUMPDEST POP POP POP POP PUSH1 0x40 MLOAD RETURNDATASIZE PUSH1 0x20 DUP2 LT ISZERO PUSH2 0x7A8 JUMPI PUSH1 0x0 DUP1 REVERT JUMPDEST POP MLOAD PUSH1 0x1 PUSH1 0x1 PUSH1 0xA0 SHL SUB AND EQ DUP1 ISZERO SWAP1 PUSH2 0x89D JUMPI POP DUP6 PUSH1 0x1 PUSH1 0x1 PUSH1 0xA0 SHL SUB AND PUSH4 0xD21220A7 PUSH1 0x40 MLOAD DUP2 PUSH4 0xFFFFFFFF AND PUSH1 0xE0 SHL DUP2 MSTORE PUSH1 0x4 ADD PUSH1 0x20 PUSH1 0x40 MLOAD DUP1 DUP4 SUB DUP2 DUP7 DUP1 EXTCODESIZE ISZERO DUP1 ISZERO PUSH2 0x7F5 JUMPI PUSH1 0x0 DUP1 REVERT JUMPDEST POP GAS STATICCALL ISZERO DUP1 ISZERO PUSH2 0x809 JUMPI RETURNDATASIZE PUSH1 0x0 DUP1 RETURNDATACOPY RETURNDATASIZE PUSH1 0x0 REVERT JUMPDEST POP POP POP POP PUSH1 0x40 MLOAD RETURNDATASIZE PUSH1 0x20 DUP2 LT ISZERO PUSH2 0x81F JUMPI PUSH1 0x0 DUP1 REVERT JUMPDEST POP MLOAD PUSH1 0x40 DUP1 MLOAD PUSH4 0xD21220A7 PUSH1 0xE0 SHL DUP2 MSTORE SWAP1 MLOAD PUSH1 0x1 PUSH1 0x1 PUSH1 0xA0 SHL SUB SWAP3 DUP4 AND SWAP3 DUP11 AND SWAP2 PUSH4 0xD21220A7 SWAP2 PUSH1 0x4 DUP1 DUP4 ADD SWAP3 PUSH1 0x20 SWAP3 SWAP2 SWAP1 DUP3 SWAP1 SUB ADD DUP2 DUP7 DUP1 EXTCODESIZE ISZERO DUP1 ISZERO PUSH2 0x865 JUMPI PUSH1 0x0 DUP1 REVERT JUMPDEST POP GAS STATICCALL ISZERO DUP1 ISZERO PUSH2 0x879 JUMPI RETURNDATASIZE PUSH1 0x0 DUP1 RETURNDATACOPY RETURNDATASIZE PUSH1 0x0 REVERT JUMPDEST POP POP POP POP PUSH1 0x40 MLOAD RETURNDATASIZE PUSH1 0x20 DUP2 LT ISZERO PUSH2 0x88F JUMPI PUSH1 0x0 DUP1 REVERT JUMPDEST POP MLOAD PUSH1 0x1 PUSH1 0x1 PUSH1 0xA0 SHL SUB AND EQ ISZERO JUMPDEST ISZERO PUSH2 0x8A4 JUMPI SWAP1 JUMPDEST PUSH1 0x0 DUP1 DUP8 PUSH1 0x1 PUSH1 0x1 PUSH1 0xA0 SHL SUB AND PUSH4 0x902F1AC PUSH1 0x40 MLOAD DUP2 PUSH4 0xFFFFFFFF AND PUSH1 0xE0 SHL DUP2 MSTORE PUSH1 0x4 ADD PUSH1 0x60 PUSH1 0x40 MLOAD DUP1 DUP4 SUB DUP2 DUP7 DUP1 EXTCODESIZE ISZERO DUP1 ISZERO PUSH2 0x8E0 JUMPI PUSH1 0x0 DUP1 REVERT JUMPDEST POP GAS STATICCALL ISZERO DUP1 ISZERO PUSH2 0x8F4 JUMPI RETURNDATASIZE PUSH1 0x0 DUP1 RETURNDATACOPY RETURNDATASIZE PUSH1 0x0 REVERT JUMPDEST POP POP POP POP PUSH1 0x40 MLOAD RETURNDATASIZE PUSH1 0x60 DUP2 LT ISZERO PUSH2 0x90A JUMPI PUSH1 0x0 DUP1 REVERT JUMPDEST POP DUP1 MLOAD PUSH1 0x20 SWAP1 SWAP2 ADD MLOAD SWAP1 SWAP3 POP SWAP1 POP DUP4 PUSH1 0x0 PUSH2 0x939 DUP3 PUSH14 0xFFFFFFFFFFFFFFFFFFFFFFFFFFFF DUP1 DUP8 AND SWAP1 DUP7 AND PUSH2 0x1713 JUMP JUMPDEST SWAP1 POP DUP5 DUP2 GT ISZERO PUSH2 0x974 JUMPI DUP5 SWAP1 POP PUSH2 0x971 DUP6 DUP5 PUSH14 0xFFFFFFFFFFFFFFFFFFFFFFFFFFFF AND DUP7 PUSH14 0xFFFFFFFFFFFFFFFFFFFFFFFFFFFF AND PUSH2 0x1713 JUMP JUMPDEST SWAP2 POP JUMPDEST SWAP5 SUB SWAP10 SWAP4 SWAP1 SWAP3 SUB SWAP8 POP SWAP2 SWAP6 POP POP POP POP POP POP JUMP JUMPDEST DUP4 TIMESTAMP DUP2 LT ISZERO PUSH2 0x9C7 JUMPI PUSH1 0x40 MLOAD PUSH3 0x461BCD PUSH1 0xE5 SHL DUP2 MSTORE PUSH1 0x4 ADD DUP1 DUP1 PUSH1 0x20 ADD DUP3 DUP2 SUB DUP3 MSTORE PUSH1 0x26 DUP2 MSTORE PUSH1 0x20 ADD DUP1 PUSH2 0x26EC PUSH1 0x26 SWAP2 CODECOPY PUSH1 0x40 ADD SWAP2 POP POP PUSH1 0x40 MLOAD DUP1 SWAP2 SUB SWAP1 REVERT JUMPDEST PUSH1 0x40 DUP1 MLOAD PUSH32 0xD505ACCF00000000000000000000000000000000000000000000000000000000 DUP2 MSTORE CALLER PUSH1 0x4 DUP3 ADD MSTORE ADDRESS PUSH1 0x24 DUP3 ADD MSTORE PUSH1 0x44 DUP2 ADD DUP9 SWAP1 MSTORE PUSH1 0x64 DUP2 ADD DUP8 SWAP1 MSTORE PUSH1 0xFF DUP7 AND PUSH1 0x84 DUP3 ADD MSTORE PUSH1 0xA4 DUP2 ADD DUP6 SWAP1 MSTORE PUSH1 0xC4 DUP2 ADD DUP5 SWAP1 MSTORE SWAP1 MLOAD PUSH1 0x1 PUSH1 0x1 PUSH1 0xA0 SHL SUB DUP12 AND SWAP2 PUSH4 0xD505ACCF SWAP2 PUSH1 0xE4 DUP1 DUP4 ADD SWAP3 PUSH1 0x0 SWAP3 SWAP2 SWAP1 DUP3 SWAP1 SUB ADD DUP2 DUP4 DUP8 DUP1 EXTCODESIZE ISZERO DUP1 ISZERO PUSH2 0xA52 JUMPI PUSH1 0x0 DUP1 REVERT JUMPDEST POP GAS CALL ISZERO DUP1 ISZERO PUSH2 0xA66 JUMPI RETURNDATASIZE PUSH1 0x0 DUP1 RETURNDATACOPY RETURNDATASIZE PUSH1 0x0 REVERT JUMPDEST POP POP POP POP PUSH2 0xA76 DUP10 DUP10 DUP10 DUP10 PUSH2 0xCC4 JUMP JUMPDEST POP POP POP POP POP POP POP POP POP JUMP JUMPDEST DUP1 TIMESTAMP DUP2 LT ISZERO PUSH2 0xAC1 JUMPI PUSH1 0x40 MLOAD PUSH3 0x461BCD PUSH1 0xE5 SHL DUP2 MSTORE PUSH1 0x4 ADD DUP1 DUP1 PUSH1 0x20 ADD DUP3 DUP2 SUB DUP3 MSTORE PUSH1 0x26 DUP2 MSTORE PUSH1 0x20 ADD DUP1 PUSH2 0x26EC PUSH1 0x26 SWAP2 CODECOPY PUSH1 0x40 ADD SWAP2 POP POP PUSH1 0x40 MLOAD DUP1 SWAP2 SUB SWAP1 REVERT JUMPDEST PUSH1 0x1 PUSH1 0x1 PUSH1 0xA0 SHL SUB DUP6 DUP2 AND PUSH1 0x0 SWAP1 DUP2 MSTORE PUSH1 0x1 PUSH1 0x20 MSTORE PUSH1 0x40 SWAP1 KECCAK256 SLOAD AND PUSH2 0xB17 JUMPI PUSH1 0x40 MLOAD PUSH3 0x461BCD PUSH1 0xE5 SHL DUP2 MSTORE PUSH1 0x4 ADD DUP1 DUP1 PUSH1 0x20 ADD DUP3 DUP2 SUB DUP3 MSTORE PUSH1 0x36 DUP2 MSTORE PUSH1 0x20 ADD DUP1 PUSH2 0x27D1 PUSH1 0x36 SWAP2 CODECOPY PUSH1 0x40 ADD SWAP2 POP POP PUSH1 0x40 MLOAD DUP1 SWAP2 SUB SWAP1 REVERT JUMPDEST PUSH2 0xB23 DUP6 CALLER ADDRESS DUP7 PUSH2 0x17B9 JUMP JUMPDEST PUSH2 0xB2D DUP6 DUP5 PUSH2 0x193B JUMP JUMPDEST PUSH1 0x1 PUSH1 0x1 PUSH1 0xA0 SHL SUB DUP1 DUP7 AND PUSH1 0x0 SWAP1 DUP2 MSTORE PUSH1 0x1 PUSH1 0x20 MSTORE PUSH1 0x40 SWAP1 KECCAK256 SLOAD PUSH2 0xB53 SWAP2 AND DUP6 DUP6 PUSH2 0x1AED JUMP JUMPDEST POP POP POP POP POP JUMP JUMPDEST PUSH1 0x1 PUSH1 0x20 MSTORE PUSH1 0x0 SWAP1 DUP2 MSTORE PUSH1 0x40 SWAP1 KECCAK256 SLOAD PUSH1 0x1 PUSH1 0x1 PUSH1 0xA0 SHL SUB AND DUP2 JUMP JUMPDEST PUSH2 0xB7F DUP3 DUP3 PUSH2 0xBF6 JUMP JUMPDEST ISZERO PUSH2 0xBD1 JUMPI PUSH1 0x40 DUP1 MLOAD PUSH3 0x461BCD PUSH1 0xE5 SHL DUP2 MSTORE PUSH1 0x20 PUSH1 0x4 DUP3 ADD MSTORE PUSH1 0x1F PUSH1 0x24 DUP3 ADD MSTORE PUSH32 0x526F6C65733A206163636F756E7420616C72656164792068617320726F6C6500 PUSH1 0x44 DUP3 ADD MSTORE SWAP1 MLOAD SWAP1 DUP2 SWAP1 SUB PUSH1 0x64 ADD SWAP1 REVERT JUMPDEST PUSH1 0x1 PUSH1 0x1 PUSH1 0xA0 SHL SUB AND PUSH1 0x0 SWAP1 DUP2 MSTORE PUSH1 0x20 SWAP2 SWAP1 SWAP2 MSTORE PUSH1 0x40 SWAP1 KECCAK256 DUP1 SLOAD PUSH1 0xFF NOT AND PUSH1 0x1 OR SWAP1 SSTORE JUMP JUMPDEST PUSH1 0x0 PUSH1 0x1 PUSH1 0x1 PUSH1 0xA0 SHL SUB DUP3 AND PUSH2 0xC3D JUMPI PUSH1 0x40 MLOAD PUSH3 0x461BCD PUSH1 0xE5 SHL DUP2 MSTORE PUSH1 0x4 ADD DUP1 DUP1 PUSH1 0x20 ADD DUP3 DUP2 SUB DUP3 MSTORE PUSH1 0x22 DUP2 MSTORE PUSH1 0x20 ADD DUP1 PUSH2 0x268F PUSH1 0x22 SWAP2 CODECOPY PUSH1 0x40 ADD SWAP2 POP POP PUSH1 0x40 MLOAD DUP1 SWAP2 SUB SWAP1 REVERT JUMPDEST POP PUSH1 0x1 PUSH1 0x1 PUSH1 0xA0 SHL SUB AND PUSH1 0x0 SWAP1 DUP2 MSTORE PUSH1 0x20 SWAP2 SWAP1 SWAP2 MSTORE PUSH1 0x40 SWAP1 KECCAK256 SLOAD PUSH1 0xFF AND SWAP1 JUMP JUMPDEST PUSH2 0xC67 DUP3 DUP3 PUSH2 0xBF6 JUMP JUMPDEST PUSH2 0xCA2 JUMPI PUSH1 0x40 MLOAD PUSH3 0x461BCD PUSH1 0xE5 SHL DUP2 MSTORE PUSH1 0x4 ADD DUP1 DUP1 PUSH1 0x20 ADD DUP3 DUP2 SUB DUP3 MSTORE PUSH1 0x21 DUP2 MSTORE PUSH1 0x20 ADD DUP1 PUSH2 0x2647 PUSH1 0x21 SWAP2 CODECOPY PUSH1 0x40 ADD SWAP2 POP POP PUSH1 0x40 MLOAD DUP1 SWAP2 SUB SWAP1 REVERT JUMPDEST PUSH1 0x1 PUSH1 0x1 PUSH1 0xA0 SHL SUB AND PUSH1 0x0 SWAP1 DUP2 MSTORE PUSH1 0x20 SWAP2 SWAP1 SWAP2 MSTORE PUSH1 0x40 SWAP1 KECCAK256 DUP1 SLOAD PUSH1 0xFF NOT AND SWAP1 SSTORE JUMP JUMPDEST PUSH2 0xCCE DUP5 DUP5 PUSH2 0x1C7D JUMP JUMPDEST PUSH1 0x0 DUP5 PUSH1 0x1 PUSH1 0x1 PUSH1 0xA0 SHL SUB AND PUSH4 0xDFE1681 PUSH1 0x40 MLOAD DUP2 PUSH4 0xFFFFFFFF AND PUSH1 0xE0 SHL DUP2 MSTORE PUSH1 0x4 ADD PUSH1 0x20 PUSH1 0x40 MLOAD DUP1 DUP4 SUB DUP2 DUP7 DUP1 EXTCODESIZE ISZERO DUP1 ISZERO PUSH2 0xD09 JUMPI PUSH1 0x0 DUP1 REVERT JUMPDEST POP GAS STATICCALL ISZERO DUP1 ISZERO PUSH2 0xD1D JUMPI RETURNDATASIZE PUSH1 0x0 DUP1 RETURNDATACOPY RETURNDATASIZE PUSH1 0x0 REVERT JUMPDEST POP POP POP POP PUSH1 0x40 MLOAD RETURNDATASIZE PUSH1 0x20 DUP2 LT ISZERO PUSH2 0xD33 JUMPI PUSH1 0x0 DUP1 REVERT JUMPDEST POP MLOAD PUSH1 0x40 DUP1 MLOAD PUSH4 0xDFE1681 PUSH1 0xE0 SHL DUP2 MSTORE SWAP1 MLOAD SWAP2 SWAP3 POP PUSH1 0x1 PUSH1 0x1 PUSH1 0xA0 SHL SUB DUP7 AND SWAP2 PUSH4 0xDFE1681 SWAP2 PUSH1 0x4 DUP1 DUP3 ADD SWAP3 PUSH1 0x20 SWAP3 SWAP1 SWAP2 SWAP1 DUP3 SWAP1 SUB ADD DUP2 DUP7 DUP1 EXTCODESIZE ISZERO DUP1 ISZERO PUSH2 0xD79 JUMPI PUSH1 0x0 DUP1 REVERT JUMPDEST POP GAS STATICCALL ISZERO DUP1 ISZERO PUSH2 0xD8D JUMPI RETURNDATASIZE PUSH1 0x0 DUP1 RETURNDATACOPY RETURNDATASIZE PUSH1 0x0 REVERT JUMPDEST POP POP POP POP PUSH1 0x40 MLOAD RETURNDATASIZE PUSH1 0x20 DUP2 LT ISZERO PUSH2 0xDA3 JUMPI PUSH1 0x0 DUP1 REVERT JUMPDEST POP MLOAD PUSH1 0x40 DUP1 MLOAD PUSH4 0xDFE1681 PUSH1 0xE0 SHL DUP2 MSTORE SWAP1 MLOAD PUSH1 0x1 PUSH1 0x1 PUSH1 0xA0 SHL SUB SWAP3 DUP4 AND SWAP3 DUP9 AND SWAP2 PUSH4 0xDFE1681 SWAP2 PUSH1 0x4 DUP1 DUP4 ADD SWAP3 PUSH1 0x20 SWAP3 SWAP2 SWAP1 DUP3 SWAP1 SUB ADD DUP2 DUP7 DUP1 EXTCODESIZE ISZERO DUP1 ISZERO PUSH2 0xDE9 JUMPI PUSH1 0x0 DUP1 REVERT JUMPDEST POP GAS STATICCALL ISZERO DUP1 ISZERO PUSH2 0xDFD JUMPI RETURNDATASIZE PUSH1 0x0 DUP1 RETURNDATACOPY RETURNDATASIZE PUSH1 0x0 REVERT JUMPDEST POP POP POP POP PUSH1 0x40 MLOAD RETURNDATASIZE PUSH1 0x20 DUP2 LT ISZERO PUSH2 0xE13 JUMPI PUSH1 0x0 DUP1 REVERT JUMPDEST POP MLOAD PUSH1 0x1 PUSH1 0x1 PUSH1 0xA0 SHL SUB AND EQ DUP1 PUSH2 0xF05 JUMPI POP DUP4 PUSH1 0x1 PUSH1 0x1 PUSH1 0xA0 SHL SUB AND PUSH4 0xD21220A7 PUSH1 0x40 MLOAD DUP2 PUSH4 0xFFFFFFFF AND PUSH1 0xE0 SHL DUP2 MSTORE PUSH1 0x4 ADD PUSH1 0x20 PUSH1 0x40 MLOAD DUP1 DUP4 SUB DUP2 DUP7 DUP1 EXTCODESIZE ISZERO DUP1 ISZERO PUSH2 0xE5E JUMPI PUSH1 0x0 DUP1 REVERT JUMPDEST POP GAS STATICCALL ISZERO DUP1 ISZERO PUSH2 0xE72 JUMPI RETURNDATASIZE PUSH1 0x0 DUP1 RETURNDATACOPY RETURNDATASIZE PUSH1 0x0 REVERT JUMPDEST POP POP POP POP PUSH1 0x40 MLOAD RETURNDATASIZE PUSH1 0x20 DUP2 LT ISZERO PUSH2 0xE88 JUMPI PUSH1 0x0 DUP1 REVERT JUMPDEST POP MLOAD PUSH1 0x40 DUP1 MLOAD PUSH4 0xDFE1681 PUSH1 0xE0 SHL DUP2 MSTORE SWAP1 MLOAD PUSH1 0x1 PUSH1 0x1 PUSH1 0xA0 SHL SUB SWAP3 DUP4 AND SWAP3 DUP9 AND SWAP2 PUSH4 0xDFE1681 SWAP2 PUSH1 0x4 DUP1 DUP4 ADD SWAP3 PUSH1 0x20 SWAP3 SWAP2 SWAP1 DUP3 SWAP1 SUB ADD DUP2 DUP7 DUP1 EXTCODESIZE ISZERO DUP1 ISZERO PUSH2 0xECE JUMPI PUSH1 0x0 DUP1 REVERT JUMPDEST POP GAS STATICCALL ISZERO DUP1 ISZERO PUSH2 0xEE2 JUMPI RETURNDATASIZE PUSH1 0x0 DUP1 RETURNDATACOPY RETURNDATASIZE PUSH1 0x0 REVERT JUMPDEST POP POP POP POP PUSH1 0x40 MLOAD RETURNDATASIZE PUSH1 0x20 DUP2 LT ISZERO PUSH2 0xEF8 JUMPI PUSH1 0x0 DUP1 REVERT JUMPDEST POP MLOAD PUSH1 0x1 PUSH1 0x1 PUSH1 0xA0 SHL SUB AND EQ JUMPDEST ISZERO PUSH2 0xF72 JUMPI DUP5 PUSH1 0x1 PUSH1 0x1 PUSH1 0xA0 SHL SUB AND PUSH4 0xD21220A7 PUSH1 0x40 MLOAD DUP2 PUSH4 0xFFFFFFFF AND PUSH1 0xE0 SHL DUP2 MSTORE PUSH1 0x4 ADD PUSH1 0x20 PUSH1 0x40 MLOAD DUP1 DUP4 SUB DUP2 DUP7 DUP1 EXTCODESIZE ISZERO DUP1 ISZERO PUSH2 0xF43 JUMPI PUSH1 0x0 DUP1 REVERT JUMPDEST POP GAS STATICCALL ISZERO DUP1 ISZERO PUSH2 0xF57 JUMPI RETURNDATASIZE PUSH1 0x0 DUP1 RETURNDATACOPY RETURNDATASIZE PUSH1 0x0 REVERT JUMPDEST POP POP POP POP PUSH1 0x40 MLOAD RETURNDATASIZE PUSH1 0x20 DUP2 LT ISZERO PUSH2 0xF6D JUMPI PUSH1 0x0 DUP1 REVERT JUMPDEST POP MLOAD SWAP1 POP JUMPDEST PUSH1 0x1 PUSH1 0x1 PUSH1 0xA0 SHL SUB DUP1 DUP3 AND PUSH1 0x0 SWAP1 DUP2 MSTORE PUSH1 0x1 PUSH1 0x20 MSTORE PUSH1 0x40 SWAP1 KECCAK256 SLOAD AND DUP1 PUSH2 0xFC9 JUMPI PUSH1 0x40 MLOAD PUSH3 0x461BCD PUSH1 0xE5 SHL DUP2 MSTORE PUSH1 0x4 ADD DUP1 DUP1 PUSH1 0x20 ADD DUP3 DUP2 SUB DUP3 MSTORE PUSH1 0x43 DUP2 MSTORE PUSH1 0x20 ADD DUP1 PUSH2 0x2756 PUSH1 0x43 SWAP2 CODECOPY PUSH1 0x60 ADD SWAP2 POP POP PUSH1 0x40 MLOAD DUP1 SWAP2 SUB SWAP1 REVERT JUMPDEST DUP5 PUSH1 0x1 PUSH1 0x1 PUSH1 0xA0 SHL SUB AND PUSH4 0xDFE1681 PUSH1 0x40 MLOAD DUP2 PUSH4 0xFFFFFFFF AND PUSH1 0xE0 SHL DUP2 MSTORE PUSH1 0x4 ADD PUSH1 0x20 PUSH1 0x40 MLOAD DUP1 DUP4 SUB DUP2 DUP7 DUP1 EXTCODESIZE ISZERO DUP1 ISZERO PUSH2 0x1002 JUMPI PUSH1 0x0 DUP1 REVERT JUMPDEST POP GAS STATICCALL ISZERO DUP1 ISZERO PUSH2 0x1016 JUMPI RETURNDATASIZE PUSH1 0x0 DUP1 RETURNDATACOPY RETURNDATASIZE PUSH1 0x0 REVERT JUMPDEST POP POP POP POP PUSH1 0x40 MLOAD RETURNDATASIZE PUSH1 0x20 DUP2 LT ISZERO PUSH2 0x102C JUMPI PUSH1 0x0 DUP1 REVERT JUMPDEST POP MLOAD PUSH1 0x1 PUSH1 0x1 PUSH1 0xA0 SHL SUB DUP3 DUP2 AND SWAP2 AND EQ DUP1 PUSH2 0x10B6 JUMPI POP DUP5 PUSH1 0x1 PUSH1 0x1 PUSH1 0xA0 SHL SUB AND PUSH4 0xD21220A7 PUSH1 0x40 MLOAD DUP2 PUSH4 0xFFFFFFFF AND PUSH1 0xE0 SHL DUP2 MSTORE PUSH1 0x4 ADD PUSH1 0x20 PUSH1 0x40 MLOAD DUP1 DUP4 SUB DUP2 DUP7 DUP1 EXTCODESIZE ISZERO DUP1 ISZERO PUSH2 0x107B JUMPI PUSH1 0x0 DUP1 REVERT JUMPDEST POP GAS STATICCALL ISZERO DUP1 ISZERO PUSH2 0x108F JUMPI RETURNDATASIZE PUSH1 0x0 DUP1 RETURNDATACOPY RETURNDATASIZE PUSH1 0x0 REVERT JUMPDEST POP POP POP POP PUSH1 0x40 MLOAD RETURNDATASIZE PUSH1 0x20 DUP2 LT ISZERO PUSH2 0x10A5 JUMPI PUSH1 0x0 DUP1 REVERT JUMPDEST POP MLOAD PUSH1 0x1 PUSH1 0x1 PUSH1 0xA0 SHL SUB DUP3 DUP2 AND SWAP2 AND EQ JUMPDEST PUSH2 0x10F1 JUMPI PUSH1 0x40 MLOAD PUSH3 0x461BCD PUSH1 0xE5 SHL DUP2 MSTORE PUSH1 0x4 ADD DUP1 DUP1 PUSH1 0x20 ADD DUP3 DUP2 SUB DUP3 MSTORE PUSH1 0x45 DUP2 MSTORE PUSH1 0x20 ADD DUP1 PUSH2 0x2432 PUSH1 0x45 SWAP2 CODECOPY PUSH1 0x60 ADD SWAP2 POP POP PUSH1 0x40 MLOAD DUP1 SWAP2 SUB SWAP1 REVERT JUMPDEST PUSH1 0x0 DUP1 PUSH2 0x10FE DUP9 DUP7 PUSH2 0x2124 JUMP JUMPDEST SWAP2 POP SWAP2 POP PUSH1 0x0 DUP3 SWAP1 POP DUP9 PUSH1 0x1 PUSH1 0x1 PUSH1 0xA0 SHL SUB AND PUSH4 0xDFE1681 PUSH1 0x40 MLOAD DUP2 PUSH4 0xFFFFFFFF AND PUSH1 0xE0 SHL DUP2 MSTORE PUSH1 0x4 ADD PUSH1 0x20 PUSH1 0x40 MLOAD DUP1 DUP4 SUB DUP2 DUP7 DUP1 EXTCODESIZE ISZERO DUP1 ISZERO PUSH2 0x1140 JUMPI PUSH1 0x0 DUP1 REVERT JUMPDEST POP GAS STATICCALL ISZERO DUP1 ISZERO PUSH2 0x1154 JUMPI RETURNDATASIZE PUSH1 0x0 DUP1 RETURNDATACOPY RETURNDATASIZE PUSH1 0x0 REVERT JUMPDEST POP POP POP POP PUSH1 0x40 MLOAD RETURNDATASIZE PUSH1 0x20 DUP2 LT ISZERO PUSH2 0x116A JUMPI PUSH1 0x0 DUP1 REVERT JUMPDEST POP MLOAD PUSH1 0x1 PUSH1 0x1 PUSH1 0xA0 SHL SUB DUP7 DUP2 AND SWAP2 AND EQ PUSH2 0x1181 JUMPI POP DUP1 JUMPDEST PUSH2 0x118B DUP6 DUP3 PUSH2 0x193B JUMP JUMPDEST POP DUP7 PUSH1 0x1 PUSH1 0x1 PUSH1 0xA0 SHL SUB AND PUSH4 0xDFE1681 PUSH1 0x40 MLOAD DUP2 PUSH4 0xFFFFFFFF AND PUSH1 0xE0 SHL DUP2 MSTORE PUSH1 0x4 ADD PUSH1 0x20 PUSH1 0x40 MLOAD DUP1 DUP4 SUB DUP2 DUP7 DUP1 EXTCODESIZE ISZERO DUP1 ISZERO PUSH2 0x11C5 JUMPI PUSH1 0x0 DUP1 REVERT JUMPDEST POP GAS STATICCALL ISZERO DUP1 ISZERO PUSH2 0x11D9 JUMPI RETURNDATASIZE PUSH1 0x0 DUP1 RETURNDATACOPY RETURNDATASIZE PUSH1 0x0 REVERT JUMPDEST POP POP POP POP PUSH1 0x40 MLOAD RETURNDATASIZE PUSH1 0x20 DUP2 LT ISZERO PUSH2 0x11EF JUMPI PUSH1 0x0 DUP1 REVERT JUMPDEST POP MLOAD PUSH1 0x40 DUP1 MLOAD PUSH4 0xDFE1681 PUSH1 0xE0 SHL DUP2 MSTORE SWAP1 MLOAD PUSH1 0x1 PUSH1 0x1 PUSH1 0xA0 SHL SUB SWAP3 DUP4 AND SWAP3 DUP12 AND SWAP2 PUSH4 0xDFE1681 SWAP2 PUSH1 0x4 DUP1 DUP4 ADD SWAP3 PUSH1 0x20 SWAP3 SWAP2 SWAP1 DUP3 SWAP1 SUB ADD DUP2 DUP7 DUP1 EXTCODESIZE ISZERO DUP1 ISZERO PUSH2 0x1235 JUMPI PUSH1 0x0 DUP1 REVERT JUMPDEST POP GAS STATICCALL ISZERO DUP1 ISZERO PUSH2 0x1249 JUMPI RETURNDATASIZE PUSH1 0x0 DUP1 RETURNDATACOPY RETURNDATASIZE PUSH1 0x0 REVERT JUMPDEST POP POP POP POP PUSH1 0x40 MLOAD RETURNDATASIZE PUSH1 0x20 DUP2 LT ISZERO PUSH2 0x125F JUMPI PUSH1 0x0 DUP1 REVERT JUMPDEST POP MLOAD PUSH1 0x1 PUSH1 0x1 PUSH1 0xA0 SHL SUB AND EQ DUP1 ISZERO SWAP1 PUSH2 0x1354 JUMPI POP DUP7 PUSH1 0x1 PUSH1 0x1 PUSH1 0xA0 SHL SUB AND PUSH4 0xD21220A7 PUSH1 0x40 MLOAD DUP2 PUSH4 0xFFFFFFFF AND PUSH1 0xE0 SHL DUP2 MSTORE PUSH1 0x4 ADD PUSH1 0x20 PUSH1 0x40 MLOAD DUP1 DUP4 SUB DUP2 DUP7 DUP1 EXTCODESIZE ISZERO DUP1 ISZERO PUSH2 0x12AC JUMPI PUSH1 0x0 DUP1 REVERT JUMPDEST POP GAS STATICCALL ISZERO DUP1 ISZERO PUSH2 0x12C0 JUMPI RETURNDATASIZE PUSH1 0x0 DUP1 RETURNDATACOPY RETURNDATASIZE PUSH1 0x0 REVERT JUMPDEST POP POP POP POP PUSH1 0x40 MLOAD RETURNDATASIZE PUSH1 0x20 DUP2 LT ISZERO PUSH2 0x12D6 JUMPI PUSH1 0x0 DUP1 REVERT JUMPDEST POP MLOAD PUSH1 0x40 DUP1 MLOAD PUSH4 0xD21220A7 PUSH1 0xE0 SHL DUP2 MSTORE SWAP1 MLOAD PUSH1 0x1 PUSH1 0x1 PUSH1 0xA0 SHL SUB SWAP3 DUP4 AND SWAP3 DUP12 AND SWAP2 PUSH4 0xD21220A7 SWAP2 PUSH1 0x4 DUP1 DUP4 ADD SWAP3 PUSH1 0x20 SWAP3 SWAP2 SWAP1 DUP3 SWAP1 SUB ADD DUP2 DUP7 DUP1 EXTCODESIZE ISZERO DUP1 ISZERO PUSH2 0x131C JUMPI PUSH1 0x0 DUP1 REVERT JUMPDEST POP GAS STATICCALL ISZERO DUP1 ISZERO PUSH2 0x1330 JUMPI RETURNDATASIZE PUSH1 0x0 DUP1 RETURNDATACOPY RETURNDATASIZE PUSH1 0x0 REVERT JUMPDEST POP POP POP POP PUSH1 0x40 MLOAD RETURNDATASIZE PUSH1 0x20 DUP2 LT ISZERO PUSH2 0x1346 JUMPI PUSH1 0x0 DUP1 REVERT JUMPDEST POP MLOAD PUSH1 0x1 PUSH1 0x1 PUSH1 0xA0 SHL SUB AND EQ ISZERO JUMPDEST ISZERO PUSH2 0x135B JUMPI SWAP1 JUMPDEST PUSH1 0x0 DUP1 PUSH2 0x143B DUP10 DUP11 PUSH1 0x1 PUSH1 0x1 PUSH1 0xA0 SHL SUB AND PUSH4 0xDFE1681 PUSH1 0x40 MLOAD DUP2 PUSH4 0xFFFFFFFF AND PUSH1 0xE0 SHL DUP2 MSTORE PUSH1 0x4 ADD PUSH1 0x20 PUSH1 0x40 MLOAD DUP1 DUP4 SUB DUP2 DUP7 DUP1 EXTCODESIZE ISZERO DUP1 ISZERO PUSH2 0x139B JUMPI PUSH1 0x0 DUP1 REVERT JUMPDEST POP GAS STATICCALL ISZERO DUP1 ISZERO PUSH2 0x13AF JUMPI RETURNDATASIZE PUSH1 0x0 DUP1 RETURNDATACOPY RETURNDATASIZE PUSH1 0x0 REVERT JUMPDEST POP POP POP POP PUSH1 0x40 MLOAD RETURNDATASIZE PUSH1 0x20 DUP2 LT ISZERO PUSH2 0x13C5 JUMPI PUSH1 0x0 DUP1 REVERT JUMPDEST POP MLOAD PUSH1 0x40 DUP1 MLOAD PUSH4 0xD21220A7 PUSH1 0xE0 SHL DUP2 MSTORE SWAP1 MLOAD PUSH1 0x1 PUSH1 0x1 PUSH1 0xA0 SHL SUB DUP15 AND SWAP2 PUSH4 0xD21220A7 SWAP2 PUSH1 0x4 DUP1 DUP4 ADD SWAP3 PUSH1 0x20 SWAP3 SWAP2 SWAP1 DUP3 SWAP1 SUB ADD DUP2 DUP7 DUP1 EXTCODESIZE ISZERO DUP1 ISZERO PUSH2 0x1407 JUMPI PUSH1 0x0 DUP1 REVERT JUMPDEST POP GAS STATICCALL ISZERO DUP1 ISZERO PUSH2 0x141B JUMPI RETURNDATASIZE PUSH1 0x0 DUP1 RETURNDATACOPY RETURNDATASIZE PUSH1 0x0 REVERT JUMPDEST POP POP POP POP PUSH1 0x40 MLOAD RETURNDATASIZE PUSH1 0x20 DUP2 LT ISZERO PUSH2 0x1431 JUMPI PUSH1 0x0 DUP1 REVERT JUMPDEST POP MLOAD DUP8 DUP8 DUP14 PUSH2 0x21CE JUMP JUMPDEST POP SWAP1 SWAP3 POP SWAP1 POP DUP2 ISZERO PUSH2 0x14B6 JUMPI PUSH2 0x14B6 DUP10 PUSH1 0x1 PUSH1 0x1 PUSH1 0xA0 SHL SUB AND PUSH4 0xDFE1681 PUSH1 0x40 MLOAD DUP2 PUSH4 0xFFFFFFFF AND PUSH1 0xE0 SHL DUP2 MSTORE PUSH1 0x4 ADD PUSH1 0x20 PUSH1 0x40 MLOAD DUP1 DUP4 SUB DUP2 DUP7 DUP1 EXTCODESIZE ISZERO DUP1 ISZERO PUSH2 0x1483 JUMPI PUSH1 0x0 DUP1 REVERT JUMPDEST POP GAS STATICCALL ISZERO DUP1 ISZERO PUSH2 0x1497 JUMPI RETURNDATASIZE PUSH1 0x0 DUP1 RETURNDATACOPY RETURNDATASIZE PUSH1 0x0 REVERT JUMPDEST POP POP POP POP PUSH1 0x40 MLOAD RETURNDATASIZE PUSH1 0x20 DUP2 LT ISZERO PUSH2 0x14AD JUMPI PUSH1 0x0 DUP1 REVERT JUMPDEST POP MLOAD DUP10 DUP5 PUSH2 0x1AED JUMP JUMPDEST DUP1 ISZERO PUSH2 0x152B JUMPI PUSH2 0x152B DUP10 PUSH1 0x1 PUSH1 0x1 PUSH1 0xA0 SHL SUB AND PUSH4 0xD21220A7 PUSH1 0x40 MLOAD DUP2 PUSH4 0xFFFFFFFF AND PUSH1 0xE0 SHL DUP2 MSTORE PUSH1 0x4 ADD PUSH1 0x20 PUSH1 0x40 MLOAD DUP1 DUP4 SUB DUP2 DUP7 DUP1 EXTCODESIZE ISZERO DUP1 ISZERO PUSH2 0x14F8 JUMPI PUSH1 0x0 DUP1 REVERT JUMPDEST POP GAS STATICCALL ISZERO DUP1 ISZERO PUSH2 0x150C JUMPI RETURNDATASIZE PUSH1 0x0 DUP1 RETURNDATACOPY RETURNDATASIZE PUSH1 0x0 REVERT JUMPDEST POP POP POP POP PUSH1 0x40 MLOAD RETURNDATASIZE PUSH1 0x20 DUP2 LT ISZERO PUSH2 0x1522 JUMPI PUSH1 0x0 DUP1 REVERT JUMPDEST POP MLOAD DUP10 DUP4 PUSH2 0x1AED JUMP JUMPDEST POP POP POP POP POP POP POP POP POP POP JUMP JUMPDEST DUP2 PUSH1 0x1 PUSH1 0x1 PUSH1 0xA0 SHL SUB AND PUSH4 0x95EA7B3 DUP3 PUSH1 0x0 NOT PUSH1 0x40 MLOAD DUP4 PUSH4 0xFFFFFFFF AND PUSH1 0xE0 SHL DUP2 MSTORE PUSH1 0x4 ADD DUP1 DUP4 PUSH1 0x1 PUSH1 0x1 PUSH1 0xA0 SHL SUB AND DUP2 MSTORE PUSH1 0x20 ADD DUP3 DUP2 MSTORE PUSH1 0x20 ADD SWAP3 POP POP POP PUSH1 0x20 PUSH1 0x40 MLOAD DUP1 DUP4 SUB DUP2 PUSH1 0x0 DUP8 DUP1 EXTCODESIZE ISZERO DUP1 ISZERO PUSH2 0x1590 JUMPI PUSH1 0x0 DUP1 REVERT JUMPDEST POP GAS CALL ISZERO DUP1 ISZERO PUSH2 0x15A4 JUMPI RETURNDATASIZE PUSH1 0x0 DUP1 RETURNDATACOPY RETURNDATASIZE PUSH1 0x0 REVERT JUMPDEST POP POP POP POP PUSH1 0x40 MLOAD RETURNDATASIZE PUSH1 0x20 DUP2 LT ISZERO PUSH2 0x15BA JUMPI PUSH1 0x0 DUP1 REVERT JUMPDEST POP POP POP POP JUMP JUMPDEST PUSH1 0x0 DUP1 PUSH1 0x0 DUP1 DUP6 PUSH1 0x1 PUSH1 0x1 PUSH1 0xA0 SHL SUB AND PUSH4 0x902F1AC PUSH1 0x40 MLOAD DUP2 PUSH4 0xFFFFFFFF AND PUSH1 0xE0 SHL DUP2 MSTORE PUSH1 0x4 ADD PUSH1 0x60 PUSH1 0x40 MLOAD DUP1 DUP4 SUB DUP2 DUP7 DUP1 EXTCODESIZE ISZERO DUP1 ISZERO PUSH2 0x15FF JUMPI PUSH1 0x0 DUP1 REVERT JUMPDEST POP GAS STATICCALL ISZERO DUP1 ISZERO PUSH2 0x1613 JUMPI RETURNDATASIZE PUSH1 0x0 DUP1 RETURNDATACOPY RETURNDATASIZE PUSH1 0x0 REVERT JUMPDEST POP POP POP POP PUSH1 0x40 MLOAD RETURNDATASIZE PUSH1 0x60 DUP2 LT ISZERO PUSH2 0x1629 JUMPI PUSH1 0x0 DUP1 REVERT JUMPDEST POP DUP1 MLOAD PUSH1 0x20 SWAP2 DUP3 ADD MLOAD PUSH1 0x40 DUP1 MLOAD PUSH32 0x18160DDD00000000000000000000000000000000000000000000000000000000 DUP2 MSTORE SWAP1 MLOAD SWAP3 SWAP6 POP SWAP1 SWAP4 POP PUSH1 0x0 SWAP3 PUSH1 0x1 PUSH1 0x1 PUSH1 0xA0 SHL SUB DUP11 AND SWAP3 PUSH4 0x18160DDD SWAP3 PUSH1 0x4 DUP1 DUP3 ADD SWAP4 SWAP3 SWAP2 DUP3 SWAP1 SUB ADD DUP2 DUP7 DUP1 EXTCODESIZE ISZERO DUP1 ISZERO PUSH2 0x1691 JUMPI PUSH1 0x0 DUP1 REVERT JUMPDEST POP GAS STATICCALL ISZERO DUP1 ISZERO PUSH2 0x16A5 JUMPI RETURNDATASIZE PUSH1 0x0 DUP1 RETURNDATACOPY RETURNDATASIZE PUSH1 0x0 REVERT JUMPDEST POP POP POP POP PUSH1 0x40 MLOAD RETURNDATASIZE PUSH1 0x20 DUP2 LT ISZERO PUSH2 0x16BB JUMPI PUSH1 0x0 DUP1 REVERT JUMPDEST POP MLOAD SWAP1 POP DUP1 PUSH2 0x16DA DUP8 PUSH14 0xFFFFFFFFFFFFFFFFFFFFFFFFFFFF DUP7 AND PUSH2 0x2353 JUMP JUMPDEST DUP2 PUSH2 0x16E1 JUMPI INVALID JUMPDEST DIV SWAP5 POP DUP1 PUSH2 0x16FF DUP8 PUSH14 0xFFFFFFFFFFFFFFFFFFFFFFFFFFFF DUP6 AND PUSH2 0x2353 JUMP JUMPDEST DUP2 PUSH2 0x1706 JUMPI INVALID JUMPDEST DIV SWAP4 POP POP POP POP SWAP3 POP SWAP3 SWAP1 POP JUMP JUMPDEST PUSH1 0x0 DUP1 DUP5 GT PUSH2 0x1753 JUMPI PUSH1 0x40 MLOAD PUSH3 0x461BCD PUSH1 0xE5 SHL DUP2 MSTORE PUSH1 0x4 ADD DUP1 DUP1 PUSH1 0x20 ADD DUP3 DUP2 SUB DUP3 MSTORE PUSH1 0x24 DUP2 MSTORE PUSH1 0x20 ADD DUP1 PUSH2 0x2623 PUSH1 0x24 SWAP2 CODECOPY PUSH1 0x40 ADD SWAP2 POP POP PUSH1 0x40 MLOAD DUP1 SWAP2 SUB SWAP1 REVERT JUMPDEST PUSH1 0x0 DUP4 GT DUP1 ISZERO PUSH2 0x1763 JUMPI POP PUSH1 0x0 DUP3 GT JUMPDEST PUSH2 0x179E JUMPI PUSH1 0x40 MLOAD PUSH3 0x461BCD PUSH1 0xE5 SHL DUP2 MSTORE PUSH1 0x4 ADD DUP1 DUP1 PUSH1 0x20 ADD DUP3 DUP2 SUB DUP3 MSTORE PUSH1 0x27 DUP2 MSTORE PUSH1 0x20 ADD DUP1 PUSH2 0x2668 PUSH1 0x27 SWAP2 CODECOPY PUSH1 0x40 ADD SWAP2 POP POP PUSH1 0x40 MLOAD DUP1 SWAP2 SUB SWAP1 REVERT JUMPDEST DUP3 PUSH2 0x17A9 DUP6 DUP5 PUSH2 0x2353 JUMP JUMPDEST DUP2 PUSH2 0x17B0 JUMPI INVALID JUMPDEST DIV SWAP5 SWAP4 POP POP POP POP JUMP JUMPDEST PUSH1 0x40 DUP1 MLOAD PUSH1 0x1 PUSH1 0x1 PUSH1 0xA0 SHL SUB DUP6 DUP2 AND PUSH1 0x24 DUP4 ADD MSTORE DUP5 DUP2 AND PUSH1 0x44 DUP4 ADD MSTORE PUSH1 0x64 DUP1 DUP4 ADD DUP6 SWAP1 MSTORE DUP4 MLOAD DUP1 DUP5 SUB SWAP1 SWAP2 ADD DUP2 MSTORE PUSH1 0x84 SWAP1 SWAP3 ADD DUP4 MSTORE PUSH1 0x20 DUP3 ADD DUP1 MLOAD PUSH28 0xFFFFFFFFFFFFFFFFFFFFFFFFFFFFFFFFFFFFFFFFFFFFFFFFFFFFFFFF AND PUSH32 0x23B872DD00000000000000000000000000000000000000000000000000000000 OR DUP2 MSTORE SWAP3 MLOAD DUP3 MLOAD PUSH1 0x0 SWAP5 DUP6 SWAP5 SWAP4 DUP11 AND SWAP4 SWAP3 SWAP2 DUP3 SWAP2 SWAP1 DUP1 DUP4 DUP4 JUMPDEST PUSH1 0x20 DUP4 LT PUSH2 0x186B JUMPI DUP1 MLOAD DUP3 MSTORE PUSH1 0x1F NOT SWAP1 SWAP3 ADD SWAP2 PUSH1 0x20 SWAP2 DUP3 ADD SWAP2 ADD PUSH2 0x184C JUMP JUMPDEST PUSH1 0x1 DUP4 PUSH1 0x20 SUB PUSH2 0x100 EXP SUB DUP1 NOT DUP3 MLOAD AND DUP2 DUP5 MLOAD AND DUP1 DUP3 OR DUP6 MSTORE POP POP POP POP POP POP SWAP1 POP ADD SWAP2 POP POP PUSH1 0x0 PUSH1 0x40 MLOAD DUP1 DUP4 SUB DUP2 PUSH1 0x0 DUP7 GAS CALL SWAP2 POP POP RETURNDATASIZE DUP1 PUSH1 0x0 DUP2 EQ PUSH2 0x18CD JUMPI PUSH1 0x40 MLOAD SWAP2 POP PUSH1 0x1F NOT PUSH1 0x3F RETURNDATASIZE ADD AND DUP3 ADD PUSH1 0x40 MSTORE RETURNDATASIZE DUP3 MSTORE RETURNDATASIZE PUSH1 0x0 PUSH1 0x20 DUP5 ADD RETURNDATACOPY PUSH2 0x18D2 JUMP JUMPDEST PUSH1 0x60 SWAP2 POP JUMPDEST POP SWAP2 POP SWAP2 POP DUP2 DUP1 ISZERO PUSH2 0x1900 JUMPI POP DUP1 MLOAD ISZERO DUP1 PUSH2 0x1900 JUMPI POP DUP1 DUP1 PUSH1 0x20 ADD SWAP1 MLOAD PUSH1 0x20 DUP2 LT ISZERO PUSH2 0x18FD JUMPI PUSH1 0x0 DUP1 REVERT JUMPDEST POP MLOAD JUMPDEST PUSH2 0x3BF JUMPI PUSH1 0x40 MLOAD PUSH3 0x461BCD PUSH1 0xE5 SHL DUP2 MSTORE PUSH1 0x4 ADD DUP1 DUP1 PUSH1 0x20 ADD DUP3 DUP2 SUB DUP3 MSTORE PUSH1 0x24 DUP2 MSTORE PUSH1 0x20 ADD DUP1 PUSH2 0x283F PUSH1 0x24 SWAP2 CODECOPY PUSH1 0x40 ADD SWAP2 POP POP PUSH1 0x40 MLOAD DUP1 SWAP2 SUB SWAP1 REVERT JUMPDEST PUSH1 0x1 PUSH1 0x1 PUSH1 0xA0 SHL SUB DUP3 AND PUSH2 0x1980 JUMPI PUSH1 0x40 MLOAD PUSH3 0x461BCD PUSH1 0xE5 SHL DUP2 MSTORE PUSH1 0x4 ADD DUP1 DUP1 PUSH1 0x20 ADD DUP3 DUP2 SUB DUP3 MSTORE PUSH1 0x3B DUP2 MSTORE PUSH1 0x20 ADD DUP1 PUSH2 0x26B1 PUSH1 0x3B SWAP2 CODECOPY PUSH1 0x40 ADD SWAP2 POP POP PUSH1 0x40 MLOAD DUP1 SWAP2 SUB SWAP1 REVERT JUMPDEST PUSH1 0x1 PUSH1 0x1 PUSH1 0xA0 SHL SUB DUP1 DUP4 AND PUSH1 0x0 DUP2 DUP2 MSTORE PUSH1 0x1 PUSH1 0x20 MSTORE PUSH1 0x40 DUP1 DUP3 KECCAK256 SLOAD DUP2 MLOAD PUSH32 0xD004F0F700000000000000000000000000000000000000000000000000000000 DUP2 MSTORE PUSH1 0x4 DUP2 ADD SWAP5 SWAP1 SWAP5 MSTORE PUSH1 0x24 DUP5 ADD DUP7 SWAP1 MSTORE SWAP1 MLOAD SWAP4 AND SWAP3 PUSH4 0xD004F0F7 SWAP3 PUSH1 0x44 DUP1 DUP3 ADD SWAP4 SWAP3 SWAP2 DUP3 SWAP1 SUB ADD DUP2 DUP4 DUP8 DUP1 EXTCODESIZE ISZERO DUP1 ISZERO PUSH2 0x19F7 JUMPI PUSH1 0x0 DUP1 REVERT JUMPDEST POP GAS CALL ISZERO DUP1 ISZERO PUSH2 0x1A0B JUMPI RETURNDATASIZE PUSH1 0x0 DUP1 RETURNDATACOPY RETURNDATASIZE PUSH1 0x0 REVERT JUMPDEST POP POP POP PUSH1 0x1 PUSH1 0x1 PUSH1 0xA0 SHL SUB DUP1 DUP5 AND PUSH1 0x0 SWAP1 DUP2 MSTORE PUSH1 0x1 PUSH1 0x20 SWAP1 DUP2 MSTORE PUSH1 0x40 SWAP2 DUP3 SWAP1 KECCAK256 SLOAD DUP3 MLOAD PUSH32 0x70A0823100000000000000000000000000000000000000000000000000000000 DUP2 MSTORE ADDRESS PUSH1 0x4 DUP3 ADD MSTORE SWAP3 MLOAD DUP7 SWAP6 POP SWAP4 AND SWAP3 PUSH4 0x70A08231 SWAP3 PUSH1 0x24 DUP1 DUP3 ADD SWAP4 SWAP3 SWAP2 DUP3 SWAP1 SUB ADD DUP2 DUP7 DUP1 EXTCODESIZE ISZERO DUP1 ISZERO PUSH2 0x1A81 JUMPI PUSH1 0x0 DUP1 REVERT JUMPDEST POP GAS STATICCALL ISZERO DUP1 ISZERO PUSH2 0x1A95 JUMPI RETURNDATASIZE PUSH1 0x0 DUP1 RETURNDATACOPY RETURNDATASIZE PUSH1 0x0 REVERT JUMPDEST POP POP POP POP PUSH1 0x40 MLOAD RETURNDATASIZE PUSH1 0x20 DUP2 LT ISZERO PUSH2 0x1AAB JUMPI PUSH1 0x0 DUP1 REVERT JUMPDEST POP MLOAD EQ PUSH2 0x1AE9 JUMPI PUSH1 0x40 MLOAD PUSH3 0x461BCD PUSH1 0xE5 SHL DUP2 MSTORE PUSH1 0x4 ADD DUP1 DUP1 PUSH1 0x20 ADD DUP3 DUP2 SUB DUP3 MSTORE PUSH1 0x3E DUP2 MSTORE PUSH1 0x20 ADD DUP1 PUSH2 0x24BF PUSH1 0x3E SWAP2 CODECOPY PUSH1 0x40 ADD SWAP2 POP POP PUSH1 0x40 MLOAD DUP1 SWAP2 SUB SWAP1 REVERT JUMPDEST POP POP JUMP JUMPDEST PUSH1 0x40 DUP1 MLOAD PUSH1 0x1 PUSH1 0x1 PUSH1 0xA0 SHL SUB DUP5 DUP2 AND PUSH1 0x24 DUP4 ADD MSTORE PUSH1 0x44 DUP1 DUP4 ADD DUP6 SWAP1 MSTORE DUP4 MLOAD DUP1 DUP5 SUB SWAP1 SWAP2 ADD DUP2 MSTORE PUSH1 0x64 SWAP1 SWAP3 ADD DUP4 MSTORE PUSH1 0x20 DUP3 ADD DUP1 MLOAD PUSH28 0xFFFFFFFFFFFFFFFFFFFFFFFFFFFFFFFFFFFFFFFFFFFFFFFFFFFFFFFF AND PUSH32 0xA9059CBB00000000000000000000000000000000000000000000000000000000 OR DUP2 MSTORE SWAP3 MLOAD DUP3 MLOAD PUSH1 0x0 SWAP5 DUP6 SWAP5 SWAP4 DUP10 AND SWAP4 SWAP3 SWAP2 DUP3 SWAP2 SWAP1 DUP1 DUP4 DUP4 JUMPDEST PUSH1 0x20 DUP4 LT PUSH2 0x1B97 JUMPI DUP1 MLOAD DUP3 MSTORE PUSH1 0x1F NOT SWAP1 SWAP3 ADD SWAP2 PUSH1 0x20 SWAP2 DUP3 ADD SWAP2 ADD PUSH2 0x1B78 JUMP JUMPDEST PUSH1 0x1 DUP4 PUSH1 0x20 SUB PUSH2 0x100 EXP SUB DUP1 NOT DUP3 MLOAD AND DUP2 DUP5 MLOAD AND DUP1 DUP3 OR DUP6 MSTORE POP POP POP POP POP POP SWAP1 POP ADD SWAP2 POP POP PUSH1 0x0 PUSH1 0x40 MLOAD DUP1 DUP4 SUB DUP2 PUSH1 0x0 DUP7 GAS CALL SWAP2 POP POP RETURNDATASIZE DUP1 PUSH1 0x0 DUP2 EQ PUSH2 0x1BF9 JUMPI PUSH1 0x40 MLOAD SWAP2 POP PUSH1 0x1F NOT PUSH1 0x3F RETURNDATASIZE ADD AND DUP3 ADD PUSH1 0x40 MSTORE RETURNDATASIZE DUP3 MSTORE RETURNDATASIZE PUSH1 0x0 PUSH1 0x20 DUP5 ADD RETURNDATACOPY PUSH2 0x1BFE JUMP JUMPDEST PUSH1 0x60 SWAP2 POP JUMPDEST POP SWAP2 POP SWAP2 POP DUP2 DUP1 ISZERO PUSH2 0x1C2C JUMPI POP DUP1 MLOAD ISZERO DUP1 PUSH2 0x1C2C JUMPI POP DUP1 DUP1 PUSH1 0x20 ADD SWAP1 MLOAD PUSH1 0x20 DUP2 LT ISZERO PUSH2 0x1C29 JUMPI PUSH1 0x0 DUP1 REVERT JUMPDEST POP MLOAD JUMPDEST PUSH2 0xB53 JUMPI PUSH1 0x40 DUP1 MLOAD PUSH3 0x461BCD PUSH1 0xE5 SHL DUP2 MSTORE PUSH1 0x20 PUSH1 0x4 DUP3 ADD MSTORE PUSH1 0x1F PUSH1 0x24 DUP3 ADD MSTORE PUSH32 0x5472616E7366657248656C7065723A205452414E534645525F4641494C454400 PUSH1 0x44 DUP3 ADD MSTORE SWAP1 MLOAD SWAP1 DUP2 SWAP1 SUB PUSH1 0x64 ADD SWAP1 REVERT JUMPDEST PUSH1 0x1 PUSH1 0x1 PUSH1 0xA0 SHL SUB DUP3 AND PUSH2 0x1CC2 JUMPI PUSH1 0x40 MLOAD PUSH3 0x461BCD PUSH1 0xE5 SHL DUP2 MSTORE PUSH1 0x4 ADD DUP1 DUP1 PUSH1 0x20 ADD DUP3 DUP2 SUB DUP3 MSTORE PUSH1 0x3A DUP2 MSTORE PUSH1 0x20 ADD DUP1 PUSH2 0x2544 PUSH1 0x3A SWAP2 CODECOPY PUSH1 0x40 ADD SWAP2 POP POP PUSH1 0x40 MLOAD DUP1 SWAP2 SUB SWAP1 REVERT JUMPDEST PUSH1 0x1 PUSH1 0x1 PUSH1 0xA0 SHL SUB DUP3 AND PUSH2 0x1D07 JUMPI PUSH1 0x40 MLOAD PUSH3 0x461BCD PUSH1 0xE5 SHL DUP2 MSTORE PUSH1 0x4 ADD DUP1 DUP1 PUSH1 0x20 ADD DUP3 DUP2 SUB DUP3 MSTORE PUSH1 0x38 DUP2 MSTORE PUSH1 0x20 ADD DUP1 PUSH2 0x2799 PUSH1 0x38 SWAP2 CODECOPY PUSH1 0x40 ADD SWAP2 POP POP PUSH1 0x40 MLOAD DUP1 SWAP2 SUB SWAP1 REVERT JUMPDEST DUP1 PUSH1 0x1 PUSH1 0x1 PUSH1 0xA0 SHL SUB AND DUP3 PUSH1 0x1 PUSH1 0x1 PUSH1 0xA0 SHL SUB AND EQ ISZERO PUSH2 0x1D58 JUMPI PUSH1 0x40 MLOAD PUSH3 0x461BCD PUSH1 0xE5 SHL DUP2 MSTORE PUSH1 0x4 ADD DUP1 DUP1 PUSH1 0x20 ADD DUP3 DUP2 SUB DUP3 MSTORE PUSH1 0x47 DUP2 MSTORE PUSH1 0x20 ADD DUP1 PUSH2 0x24FD PUSH1 0x47 SWAP2 CODECOPY PUSH1 0x60 ADD SWAP2 POP POP PUSH1 0x40 MLOAD DUP1 SWAP2 SUB SWAP1 REVERT JUMPDEST DUP1 PUSH1 0x1 PUSH1 0x1 PUSH1 0xA0 SHL SUB AND PUSH4 0xDFE1681 PUSH1 0x40 MLOAD DUP2 PUSH4 0xFFFFFFFF AND PUSH1 0xE0 SHL DUP2 MSTORE PUSH1 0x4 ADD PUSH1 0x20 PUSH1 0x40 MLOAD DUP1 DUP4 SUB DUP2 DUP7 DUP1 EXTCODESIZE ISZERO DUP1 ISZERO PUSH2 0x1D91 JUMPI PUSH1 0x0 DUP1 REVERT JUMPDEST POP GAS STATICCALL ISZERO DUP1 ISZERO PUSH2 0x1DA5 JUMPI RETURNDATASIZE PUSH1 0x0 DUP1 RETURNDATACOPY RETURNDATASIZE PUSH1 0x0 REVERT JUMPDEST POP POP POP POP PUSH1 0x40 MLOAD RETURNDATASIZE PUSH1 0x20 DUP2 LT ISZERO PUSH2 0x1DBB JUMPI PUSH1 0x0 DUP1 REVERT JUMPDEST POP MLOAD PUSH1 0x40 DUP1 MLOAD PUSH4 0xDFE1681 PUSH1 0xE0 SHL DUP2 MSTORE SWAP1 MLOAD PUSH1 0x1 PUSH1 0x1 PUSH1 0xA0 SHL SUB SWAP3 DUP4 AND SWAP3 DUP6 AND SWAP2 PUSH4 0xDFE1681 SWAP2 PUSH1 0x4 DUP1 DUP4 ADD SWAP3 PUSH1 0x20 SWAP3 SWAP2 SWAP1 DUP3 SWAP1 SUB ADD DUP2 DUP7 DUP1 EXTCODESIZE ISZERO DUP1 ISZERO PUSH2 0x1E01 JUMPI PUSH1 0x0 DUP1 REVERT JUMPDEST POP GAS STATICCALL ISZERO DUP1 ISZERO PUSH2 0x1E15 JUMPI RETURNDATASIZE PUSH1 0x0 DUP1 RETURNDATACOPY RETURNDATASIZE PUSH1 0x0 REVERT JUMPDEST POP POP POP POP PUSH1 0x40 MLOAD RETURNDATASIZE PUSH1 0x20 DUP2 LT ISZERO PUSH2 0x1E2B JUMPI PUSH1 0x0 DUP1 REVERT JUMPDEST POP MLOAD PUSH1 0x1 PUSH1 0x1 PUSH1 0xA0 SHL SUB AND EQ DUP1 PUSH2 0x1F1D JUMPI POP DUP1 PUSH1 0x1 PUSH1 0x1 PUSH1 0xA0 SHL SUB AND PUSH4 0xD21220A7 PUSH1 0x40 MLOAD DUP2 PUSH4 0xFFFFFFFF AND PUSH1 0xE0 SHL DUP2 MSTORE PUSH1 0x4 ADD PUSH1 0x20 PUSH1 0x40 MLOAD DUP1 DUP4 SUB DUP2 DUP7 DUP1 EXTCODESIZE ISZERO DUP1 ISZERO PUSH2 0x1E76 JUMPI PUSH1 0x0 DUP1 REVERT JUMPDEST POP GAS STATICCALL ISZERO DUP1 ISZERO PUSH2 0x1E8A JUMPI RETURNDATASIZE PUSH1 0x0 DUP1 RETURNDATACOPY RETURNDATASIZE PUSH1 0x0 REVERT JUMPDEST POP POP POP POP PUSH1 0x40 MLOAD RETURNDATASIZE PUSH1 0x20 DUP2 LT ISZERO PUSH2 0x1EA0 JUMPI PUSH1 0x0 DUP1 REVERT JUMPDEST POP MLOAD PUSH1 0x40 DUP1 MLOAD PUSH4 0xDFE1681 PUSH1 0xE0 SHL DUP2 MSTORE SWAP1 MLOAD PUSH1 0x1 PUSH1 0x1 PUSH1 0xA0 SHL SUB SWAP3 DUP4 AND SWAP3 DUP6 AND SWAP2 PUSH4 0xDFE1681 SWAP2 PUSH1 0x4 DUP1 DUP4 ADD SWAP3 PUSH1 0x20 SWAP3 SWAP2 SWAP1 DUP3 SWAP1 SUB ADD DUP2 DUP7 DUP1 EXTCODESIZE ISZERO DUP1 ISZERO PUSH2 0x1EE6 JUMPI PUSH1 0x0 DUP1 REVERT JUMPDEST POP GAS STATICCALL ISZERO DUP1 ISZERO PUSH2 0x1EFA JUMPI RETURNDATASIZE PUSH1 0x0 DUP1 RETURNDATACOPY RETURNDATASIZE PUSH1 0x0 REVERT JUMPDEST POP POP POP POP PUSH1 0x40 MLOAD RETURNDATASIZE PUSH1 0x20 DUP2 LT ISZERO PUSH2 0x1F10 JUMPI PUSH1 0x0 DUP1 REVERT JUMPDEST POP MLOAD PUSH1 0x1 PUSH1 0x1 PUSH1 0xA0 SHL SUB AND EQ JUMPDEST DUP1 PUSH2 0x2003 JUMPI POP DUP1 PUSH1 0x1 PUSH1 0x1 PUSH1 0xA0 SHL SUB AND PUSH4 0xDFE1681 PUSH1 0x40 MLOAD DUP2 PUSH4 0xFFFFFFFF AND PUSH1 0xE0 SHL DUP2 MSTORE PUSH1 0x4 ADD PUSH1 0x20 PUSH1 0x40 MLOAD DUP1 DUP4 SUB DUP2 DUP7 DUP1 EXTCODESIZE ISZERO DUP1 ISZERO PUSH2 0x1F5C JUMPI PUSH1 0x0 DUP1 REVERT JUMPDEST POP GAS STATICCALL ISZERO DUP1 ISZERO PUSH2 0x1F70 JUMPI RETURNDATASIZE PUSH1 0x0 DUP1 RETURNDATACOPY RETURNDATASIZE PUSH1 0x0 REVERT JUMPDEST POP POP POP POP PUSH1 0x40 MLOAD RETURNDATASIZE PUSH1 0x20 DUP2 LT ISZERO PUSH2 0x1F86 JUMPI PUSH1 0x0 DUP1 REVERT JUMPDEST POP MLOAD PUSH1 0x40 DUP1 MLOAD PUSH4 0xD21220A7 PUSH1 0xE0 SHL DUP2 MSTORE SWAP1 MLOAD PUSH1 0x1 PUSH1 0x1 PUSH1 0xA0 SHL SUB SWAP3 DUP4 AND SWAP3 DUP6 AND SWAP2 PUSH4 0xD21220A7 SWAP2 PUSH1 0x4 DUP1 DUP4 ADD SWAP3 PUSH1 0x20 SWAP3 SWAP2 SWAP1 DUP3 SWAP1 SUB ADD DUP2 DUP7 DUP1 EXTCODESIZE ISZERO DUP1 ISZERO PUSH2 0x1FCC JUMPI PUSH1 0x0 DUP1 REVERT JUMPDEST POP GAS STATICCALL ISZERO DUP1 ISZERO PUSH2 0x1FE0 JUMPI RETURNDATASIZE PUSH1 0x0 DUP1 RETURNDATACOPY RETURNDATASIZE PUSH1 0x0 REVERT JUMPDEST POP POP POP POP PUSH1 0x40 MLOAD RETURNDATASIZE PUSH1 0x20 DUP2 LT ISZERO PUSH2 0x1FF6 JUMPI PUSH1 0x0 DUP1 REVERT JUMPDEST POP MLOAD PUSH1 0x1 PUSH1 0x1 PUSH1 0xA0 SHL SUB AND EQ JUMPDEST DUP1 PUSH2 0x20E9 JUMPI POP DUP1 PUSH1 0x1 PUSH1 0x1 PUSH1 0xA0 SHL SUB AND PUSH4 0xD21220A7 PUSH1 0x40 MLOAD DUP2 PUSH4 0xFFFFFFFF AND PUSH1 0xE0 SHL DUP2 MSTORE PUSH1 0x4 ADD PUSH1 0x20 PUSH1 0x40 MLOAD DUP1 DUP4 SUB DUP2 DUP7 DUP1 EXTCODESIZE ISZERO DUP1 ISZERO PUSH2 0x2042 JUMPI PUSH1 0x0 DUP1 REVERT JUMPDEST POP GAS STATICCALL ISZERO DUP1 ISZERO PUSH2 0x2056 JUMPI RETURNDATASIZE PUSH1 0x0 DUP1 RETURNDATACOPY RETURNDATASIZE PUSH1 0x0 REVERT JUMPDEST POP POP POP POP PUSH1 0x40 MLOAD RETURNDATASIZE PUSH1 0x20 DUP2 LT ISZERO PUSH2 0x206C JUMPI PUSH1 0x0 DUP1 REVERT JUMPDEST POP MLOAD PUSH1 0x40 DUP1 MLOAD PUSH4 0xD21220A7 PUSH1 0xE0 SHL DUP2 MSTORE SWAP1 MLOAD PUSH1 0x1 PUSH1 0x1 PUSH1 0xA0 SHL SUB SWAP3 DUP4 AND SWAP3 DUP6 AND SWAP2 PUSH4 0xD21220A7 SWAP2 PUSH1 0x4 DUP1 DUP4 ADD SWAP3 PUSH1 0x20 SWAP3 SWAP2 SWAP1 DUP3 SWAP1 SUB ADD DUP2 DUP7 DUP1 EXTCODESIZE ISZERO DUP1 ISZERO PUSH2 0x20B2 JUMPI PUSH1 0x0 DUP1 REVERT JUMPDEST POP GAS STATICCALL ISZERO DUP1 ISZERO PUSH2 0x20C6 JUMPI RETURNDATASIZE PUSH1 0x0 DUP1 RETURNDATACOPY RETURNDATASIZE PUSH1 0x0 REVERT JUMPDEST POP POP POP POP PUSH1 0x40 MLOAD RETURNDATASIZE PUSH1 0x20 DUP2 LT ISZERO PUSH2 0x20DC JUMPI PUSH1 0x0 DUP1 REVERT JUMPDEST POP MLOAD PUSH1 0x1 PUSH1 0x1 PUSH1 0xA0 SHL SUB AND EQ JUMPDEST PUSH2 0x1AE9 JUMPI PUSH1 0x40 MLOAD PUSH3 0x461BCD PUSH1 0xE5 SHL DUP2 MSTORE PUSH1 0x4 ADD DUP1 DUP1 PUSH1 0x20 ADD DUP3 DUP2 SUB DUP3 MSTORE PUSH1 0x44 DUP2 MSTORE PUSH1 0x20 ADD DUP1 PUSH2 0x2712 PUSH1 0x44 SWAP2 CODECOPY PUSH1 0x60 ADD SWAP2 POP POP PUSH1 0x40 MLOAD DUP1 SWAP2 SUB SWAP1 REVERT JUMPDEST PUSH1 0x0 DUP1 PUSH2 0x2133 DUP5 CALLER DUP7 DUP7 PUSH2 0x17B9 JUMP JUMPDEST PUSH1 0x40 DUP1 MLOAD PUSH32 0x89AFCB4400000000000000000000000000000000000000000000000000000000 DUP2 MSTORE ADDRESS PUSH1 0x4 DUP3 ADD MSTORE DUP2 MLOAD PUSH1 0x1 PUSH1 0x1 PUSH1 0xA0 SHL SUB DUP8 AND SWAP3 PUSH4 0x89AFCB44 SWAP3 PUSH1 0x24 DUP1 DUP3 ADD SWAP4 SWAP2 DUP3 SWAP1 SUB ADD DUP2 PUSH1 0x0 DUP8 DUP1 EXTCODESIZE ISZERO DUP1 ISZERO PUSH2 0x2190 JUMPI PUSH1 0x0 DUP1 REVERT JUMPDEST POP GAS CALL ISZERO DUP1 ISZERO PUSH2 0x21A4 JUMPI RETURNDATASIZE PUSH1 0x0 DUP1 RETURNDATACOPY RETURNDATASIZE PUSH1 0x0 REVERT JUMPDEST POP POP POP POP PUSH1 0x40 MLOAD RETURNDATASIZE PUSH1 0x40 DUP2 LT ISZERO PUSH2 0x21BA JUMPI PUSH1 0x0 DUP1 REVERT JUMPDEST POP DUP1 MLOAD PUSH1 0x20 SWAP1 SWAP2 ADD MLOAD SWAP1 SWAP6 SWAP1 SWAP5 POP SWAP3 POP POP POP JUMP JUMPDEST PUSH1 0x0 DUP1 PUSH1 0x0 DUP1 PUSH1 0x0 DUP11 PUSH1 0x1 PUSH1 0x1 PUSH1 0xA0 SHL SUB AND PUSH4 0x902F1AC PUSH1 0x40 MLOAD DUP2 PUSH4 0xFFFFFFFF AND PUSH1 0xE0 SHL DUP2 MSTORE PUSH1 0x4 ADD PUSH1 0x60 PUSH1 0x40 MLOAD DUP1 DUP4 SUB DUP2 DUP7 DUP1 EXTCODESIZE ISZERO DUP1 ISZERO PUSH2 0x220F JUMPI PUSH1 0x0 DUP1 REVERT JUMPDEST POP GAS STATICCALL ISZERO DUP1 ISZERO PUSH2 0x2223 JUMPI RETURNDATASIZE PUSH1 0x0 DUP1 RETURNDATACOPY RETURNDATASIZE PUSH1 0x0 REVERT JUMPDEST POP POP POP POP PUSH1 0x40 MLOAD RETURNDATASIZE PUSH1 0x60 DUP2 LT ISZERO PUSH2 0x2239 JUMPI PUSH1 0x0 DUP1 REVERT JUMPDEST POP DUP1 MLOAD PUSH1 0x20 SWAP1 SWAP2 ADD MLOAD SWAP1 SWAP3 POP SWAP1 POP DUP8 PUSH1 0x0 PUSH2 0x2268 DUP3 PUSH14 0xFFFFFFFFFFFFFFFFFFFFFFFFFFFF DUP1 DUP8 AND SWAP1 DUP7 AND PUSH2 0x1713 JUMP JUMPDEST SWAP1 POP DUP9 DUP2 GT ISZERO PUSH2 0x22A3 JUMPI DUP9 SWAP1 POP PUSH2 0x22A0 DUP10 DUP5 PUSH14 0xFFFFFFFFFFFFFFFFFFFFFFFFFFFF AND DUP7 PUSH14 0xFFFFFFFFFFFFFFFFFFFFFFFFFFFF AND PUSH2 0x1713 JUMP JUMPDEST SWAP2 POP JUMPDEST PUSH2 0x22AE DUP13 DUP15 DUP5 PUSH2 0x1AED JUMP JUMPDEST PUSH2 0x22B9 DUP12 DUP15 DUP4 PUSH2 0x1AED JUMP JUMPDEST DUP2 DUP11 SUB SWAP7 POP DUP1 DUP10 SUB SWAP6 POP DUP13 PUSH1 0x1 PUSH1 0x1 PUSH1 0xA0 SHL SUB AND PUSH4 0x6A627842 DUP10 PUSH1 0x40 MLOAD DUP3 PUSH4 0xFFFFFFFF AND PUSH1 0xE0 SHL DUP2 MSTORE PUSH1 0x4 ADD DUP1 DUP3 PUSH1 0x1 PUSH1 0x1 PUSH1 0xA0 SHL SUB AND DUP2 MSTORE PUSH1 0x20 ADD SWAP2 POP POP PUSH1 0x20 PUSH1 0x40 MLOAD DUP1 DUP4 SUB DUP2 PUSH1 0x0 DUP8 DUP1 EXTCODESIZE ISZERO DUP1 ISZERO PUSH2 0x2312 JUMPI PUSH1 0x0 DUP1 REVERT JUMPDEST POP GAS CALL ISZERO DUP1 ISZERO PUSH2 0x2326 JUMPI RETURNDATASIZE PUSH1 0x0 DUP1 RETURNDATACOPY RETURNDATASIZE PUSH1 0x0 REVERT JUMPDEST POP POP POP POP PUSH1 0x40 MLOAD RETURNDATASIZE PUSH1 0x20 DUP2 LT ISZERO PUSH2 0x233C JUMPI PUSH1 0x0 DUP1 REVERT JUMPDEST POP MLOAD SWAP7 SWAP14 SWAP6 SWAP13 POP SWAP6 SWAP11 POP SWAP4 SWAP9 POP POP POP POP POP POP POP POP POP JUMP JUMPDEST PUSH1 0x0 DUP2 ISZERO DUP1 PUSH2 0x236E JUMPI POP POP DUP1 DUP3 MUL DUP3 DUP3 DUP3 DUP2 PUSH2 0x236B JUMPI INVALID JUMPDEST DIV EQ JUMPDEST PUSH2 0x36D JUMPI PUSH1 0x40 DUP1 MLOAD PUSH3 0x461BCD PUSH1 0xE5 SHL DUP2 MSTORE PUSH1 0x20 PUSH1 0x4 DUP3 ADD MSTORE PUSH1 0x14 PUSH1 0x24 DUP3 ADD MSTORE PUSH32 0x64732D6D6174682D6D756C2D6F766572666C6F77000000000000000000000000 PUSH1 0x44 DUP3 ADD MSTORE SWAP1 MLOAD SWAP1 DUP2 SWAP1 SUB PUSH1 0x64 ADD SWAP1 REVERT INVALID 0x4B PUSH2 0x6C79 PUSH20 0x7761704272696467654D6967726174696F6E526F PUSH22 0x7465723A20416464726573732030206E6F7420616C6C PUSH16 0x7765644B616C79737761704272696467 PUSH6 0x4D6967726174 PUSH10 0x6F6E526F757465723A20 PUSH14 0x69677261746F7241646472657373 KECCAK256 ADDRESS KECCAK256 PUSH15 0x6F7420737570706F727465644B616C PUSH26 0x737761704272696467654D6967726174696F6E526F757465723A KECCAK256 POP PUSH2 0x6972 KECCAK256 PUSH5 0x6F65736E27 PUSH21 0x206D6174636820746865206D6967726174696F6E20 PUSH21 0x6F6B656E4B616C79737761704272696467654D6967 PUSH19 0x6174696F6E526F757465723A206C6971756964 PUSH10 0x74795061697246726F6D KECCAK256 PUSH2 0x6464 PUSH19 0x6573732030206E6F7420737570706F72746564 0x4B PUSH2 0x6C79 PUSH20 0x7761704272696467654D6967726174696F6E526F PUSH22 0x7465723A204469646E2774207969656C642074686520 PUSH4 0x6F727265 PUSH4 0x7420616D PUSH16 0x756E744B616C79737761704272696467 PUSH6 0x4D6967726174 PUSH10 0x6F6E526F757465723A20 NUMBER PUSH2 0x6E74 KECCAK256 PUSH4 0x6F6E7665 PUSH19 0x7420746F207468652073616D65206C69717569 PUSH5 0x6974792070 PUSH2 0x6972 PUSH20 0x4B616C79737761704272696467654D6967726174 PUSH10 0x6F6E526F757465723A20 PUSH13 0x69717569646974795061697246 PUSH19 0x6F6D206164647265737320304B616C79737761 PUSH17 0x4272696467654D6967726174696F6E526F PUSH22 0x7465723A206C697175696469747950616972546F2061 PUSH5 0x6472657373 KECCAK256 ADDRESS KECCAK256 PUSH15 0x6F7420737570706F72746564546865 KECCAK256 PUSH14 0x69677261746F7220646F65736E27 PUSH21 0x2068617665207377617020737570706C7920666F72 KECCAK256 PUSH21 0x68697320746F6B656E4B616C797377617042726964 PUSH8 0x654D696772617469 PUSH16 0x6E526F757465723A20556E617574686F PUSH19 0x697A65644B616C79737761704C696272617279 GASPRICE KECCAK256 0x49 0x4E MSTORE8 SSTORE CHAINID CHAINID 0x49 NUMBER 0x49 GASLIMIT 0x4E SLOAD 0x5F COINBASE 0x4D 0x4F SSTORE 0x4E SLOAD MSTORE PUSH16 0x6C65733A206163636F756E7420646F65 PUSH20 0x206E6F74206861766520726F6C654B616C797377 PUSH2 0x704C PUSH10 0x62726172793A20494E53 SSTORE CHAINID CHAINID 0x49 NUMBER 0x49 GASLIMIT 0x4E SLOAD 0x5F 0x4C 0x49 MLOAD SSTORE 0x49 DIFFICULTY 0x49 SLOAD MSIZE MSTORE PUSH16 0x6C65733A206163636F756E7420697320 PUSH21 0x6865207A65726F20616464726573734B616C797377 PUSH2 0x7042 PUSH19 0x696467654D6967726174696F6E526F75746572 GASPRICE KECCAK256 PUSH21 0x6F6B656E416464726573732030206E6F7420737570 PUSH17 0x6F727465644B616C797377617042726964 PUSH8 0x654D696772617469 PUSH16 0x6E526F757465723A2045585049524544 0x4B PUSH2 0x6C79 PUSH20 0x7761704272696467654D6967726174696F6E526F PUSH22 0x7465723A205061697220646F6573206E6F7420686176 PUSH6 0x206F6E652074 PUSH16 0x6B656E206D61746368696E674B616C79 PUSH20 0x7761704272696467654D6967726174696F6E526F PUSH22 0x7465723A204D69677261746F72206E6F742072656769 PUSH20 0x746572656420666F722074686520706169724B61 PUSH13 0x79737761704272696467654D69 PUSH8 0x726174696F6E526F PUSH22 0x7465723A206C697175696469747950616972546F2061 PUSH5 0x6472657373 KECCAK256 ADDRESS 0x4B PUSH2 0x6C79 PUSH20 0x7761704272696467654D6967726174696F6E526F PUSH22 0x7465723A206D69677261746F72206E6F742072656769 PUSH20 0x74657265644B616C79737761704272696467654D PUSH10 0x67726174696F6E526F75 PUSH21 0x65723A20596F752063616E27742064656D6F746520 PUSH26 0x6F757273656C665472616E7366657248656C7065723A20545241 0x4E MSTORE8 CHAINID GASLIMIT MSTORE 0x5F CHAINID MSTORE 0x4F 0x4D 0x5F CHAINID COINBASE 0x49 0x4C GASLIMIT DIFFICULTY LOG2 PUSH5 0x6970667358 0x22 SLT KECCAK256 0xE3 PUSH23 0x511E4BB29C8D900C4E567B804C838E0FE97CB314621637 INVALID 0x4B 0xCC MUL 0xCD PUSH22 0x7A64736F6C63430007060033526F6C65733A20616363 PUSH16 0x756E7420697320746865207A65726F20 PUSH2 0x6464 PUSH19 0x65737300000000000000000000000000000000 "
				},
				"gasEstimates": {
					"creation": {
						"codeDepositCost": "2078400",
						"executionCost": "infinite",
						"totalCost": "infinite"
					},
					"external": {
						"addAdmin(address)": "infinite",
						"addMigrator(address,address)": "infinite",
						"bridgeMigrator(address)": "1229",
						"calculateChargeBack(address,address,uint256)": "infinite",
						"isAdmin(address)": "infinite",
						"migrateLiquidity(address,address,address,uint256,uint256)": "infinite",
						"migrateLiquidityWithPermit(address,address,address,uint256,uint256,uint8,bytes32,bytes32)": "infinite",
						"migrateToken(address,address,uint256,uint256)": "infinite",
						"removeAdmin(address)": "infinite"
					},
					"internal": {
						"_addLiquidity(address,address,address,uint256,uint256,address)": "infinite",
						"_allowToken(address,address)": "infinite",
						"_arePairsCompatible(address,address)": "infinite",
						"_calculateRescueLiquidity(address,uint256)": "infinite",
						"_migrateLiquidity(address,address,address,uint256)": "infinite",
						"_migrateToken(address,uint256)": "infinite",
						"_rescueLiquidity(address,uint256)": "infinite"
					}
				},
				"methodIdentifiers": {
					"addAdmin(address)": "70480275",
					"addMigrator(address,address)": "4c389d26",
					"bridgeMigrator(address)": "ffc50594",
					"calculateChargeBack(address,address,uint256)": "99a0df82",
					"isAdmin(address)": "24d7806c",
					"migrateLiquidity(address,address,address,uint256,uint256)": "495952f5",
					"migrateLiquidityWithPermit(address,address,address,uint256,uint256,uint8,bytes32,bytes32)": "b032fff7",
					"migrateToken(address,address,uint256,uint256)": "f057d237",
					"removeAdmin(address)": "1785f53c"
				}
			},
			"storageLayout": {
				"storage": [
					{
						"astId": 597,
						"contract": "CoreContracts/kalyswap-periphery/KalyswapBridgeMigrationRouter.sol:KalyswapBridgeMigrationRouter",
						"label": "adminRole",
						"offset": 0,
						"slot": "0",
						"type": "t_struct(Role)2074_storage"
					},
					{
						"astId": 601,
						"contract": "CoreContracts/kalyswap-periphery/KalyswapBridgeMigrationRouter.sol:KalyswapBridgeMigrationRouter",
						"label": "bridgeMigrator",
						"offset": 0,
						"slot": "1",
						"type": "t_mapping(t_address,t_address)"
					}
				],
				"types": {
					"t_address": {
						"encoding": "inplace",
						"label": "address",
						"numberOfBytes": "20"
					},
					"t_bool": {
						"encoding": "inplace",
						"label": "bool",
						"numberOfBytes": "1"
					},
					"t_mapping(t_address,t_address)": {
						"encoding": "mapping",
						"key": "t_address",
						"label": "mapping(address => address)",
						"numberOfBytes": "32",
						"value": "t_address"
					},
					"t_mapping(t_address,t_bool)": {
						"encoding": "mapping",
						"key": "t_address",
						"label": "mapping(address => bool)",
						"numberOfBytes": "32",
						"value": "t_bool"
					},
					"t_struct(Role)2074_storage": {
						"encoding": "inplace",
						"label": "struct Roles.Role",
						"members": [
							{
								"astId": 2073,
								"contract": "CoreContracts/kalyswap-periphery/KalyswapBridgeMigrationRouter.sol:KalyswapBridgeMigrationRouter",
								"label": "bearer",
								"offset": 0,
								"slot": "0",
								"type": "t_mapping(t_address,t_bool)"
							}
						],
						"numberOfBytes": "32"
					}
				}
			},
			"userdoc": {
				"kind": "user",
				"methods": {
					"addAdmin(address)": {
						"notice": "Given an address, this address is added to the list of admin."
					},
					"addMigrator(address,address)": {
						"notice": "Given an token, and it's migrator address, it configures the migrator for later usage"
					},
					"calculateChargeBack(address,address,uint256)": {
						"notice": "Front facing function that computes the possible charge back from the migration"
					},
					"isAdmin(address)": {
						"notice": "Given an address, returns whether or not he's already an admin"
					},
					"migrateLiquidity(address,address,address,uint256,uint256)": {
						"notice": "Front facing function that migrates the liquidity"
					},
					"migrateLiquidityWithPermit(address,address,address,uint256,uint256,uint8,bytes32,bytes32)": {
						"notice": "Front facing function that migrates the liquidity, with permit"
					},
					"migrateToken(address,address,uint256,uint256)": {
						"notice": "Front facing function that migrates the token"
					},
					"removeAdmin(address)": {
						"notice": "Given an address, this address is added to the list of admin."
					}
				},
				"version": 1
			}
		}
	}
}